{
	"data": {
		"bytecode": {
			"linkReferences": {},
			"object": "6080604052670de0b6b3a76400006006553480156200001d57600080fd5b5060405162006872380380620068728339818101604052810190620000439190620010b9565b6040518060600160405280603a815260200162006838603a91396200006e816200021260201b60201c565b506200008f620000836200022760201b60201c565b6200022f60201b60201c565b620000b533610190600a60405180602001604052806000815250620002f560201b60201c565b620000db33610191601460405180602001604052806000815250620002f560201b60201c565b6200010133610192602860405180602001604052806000815250620002f560201b60201c565b6200012733610193603c60405180602001604052806000815250620002f560201b60201c565b6200014d33610194604660405180602001604052806000815250620002f560201b60201c565b600160088190555082600b60006101000a81548173ffffffffffffffffffffffffffffffffffffffff021916908373ffffffffffffffffffffffffffffffffffffffff160217905550620001a782620004dc60201b60201c565b50620001b86200057260201b60201c565b620001c86200097d60201b60201c565b80600760006101000a81548173ffffffffffffffffffffffffffffffffffffffff021916908373ffffffffffffffffffffffffffffffffffffffff16021790555050505062001b83565b80600290816200022391906200138f565b5050565b600033905090565b6000600360009054906101000a900473ffffffffffffffffffffffffffffffffffffffff16905081600360006101000a81548173ffffffffffffffffffffffffffffffffffffffff021916908373ffffffffffffffffffffffffffffffffffffffff1602179055508173ffffffffffffffffffffffffffffffffffffffff168173ffffffffffffffffffffffffffffffffffffffff167f8be0079c531659141344cd1fd0a4f28419497f9722a3daafe3b4186f6b6457e060405160405180910390a35050565b600073ffffffffffffffffffffffffffffffffffffffff168473ffffffffffffffffffffffffffffffffffffffff160362000367576040517f08c379a00000000000000000000000000000000000000000000000000000000081526004016200035e90620014fd565b60405180910390fd5b6000620003796200022760201b60201c565b905060006200038e8562000a3860201b60201c565b90506000620003a38562000a3860201b60201c565b9050620003bc8360008985858962000ab960201b60201c565b8460008088815260200190815260200160002060008973ffffffffffffffffffffffffffffffffffffffff1673ffffffffffffffffffffffffffffffffffffffff16815260200190815260200160002060008282546200041d91906200154e565b925050819055508673ffffffffffffffffffffffffffffffffffffffff16600073ffffffffffffffffffffffffffffffffffffffff168473ffffffffffffffffffffffffffffffffffffffff167fc3d58168c5ae7397731d063d5bbf3d657854427343f4c083240f7aacaa2d0f6289896040516200049d9291906200159a565b60405180910390a4620004bc8360008985858962000adc60201b60201c565b620004d38360008989898962000ae460201b60201c565b50505050505050565b6000620004ee62000cdd60201b60201c565b600073ffffffffffffffffffffffffffffffffffffffff168273ffffffffffffffffffffffffffffffffffffffff16036200052857600080fd5b81600560006101000a81548173ffffffffffffffffffffffffffffffffffffffff021916908373ffffffffffffffffffffffffffffffffffffffff16021790555060019050919050565b6200058262000cdd60201b60201c565b60005b6004811015620005cf576009600090806001815401808255809150506001900390600052602060002001600090919091909150558080620005c690620015c7565b91505062000585565b5060005b60038110156200061d5760096001908060018154018082558091505060019003906000526020600020016000909190919091505580806200061490620015c7565b915050620005d3565b5060005b60028110156200066b5760096002908060018154018082558091505060019003906000526020600020016000909190919091505580806200066290620015c7565b91505062000621565b5060005b6001811015620006b9576009600390806001815401808255809150506001900390600052602060002001600090919091909150558080620006b090620015c7565b9150506200066f565b5060005b600481101562000707576009606490806001815401808255809150506001900390600052602060002001600090919091909150558080620006fe90620015c7565b915050620006bd565b5060005b6003811015620007555760096065908060018154018082558091505060019003906000526020600020016000909190919091505580806200074c90620015c7565b9150506200070b565b5060005b6002811015620007a35760096066908060018154018082558091505060019003906000526020600020016000909190919091505580806200079a90620015c7565b91505062000759565b5060005b6004811015620007f157600960c890806001815401808255809150506001900390600052602060002001600090919091909150558080620007e890620015c7565b915050620007a7565b5060005b60038110156200083f57600960c9908060018154018082558091505060019003906000526020600020016000909190919091505580806200083690620015c7565b915050620007f5565b5060005b60028110156200088d57600960ca908060018154018082558091505060019003906000526020600020016000909190919091505580806200088490620015c7565b91505062000843565b5060005b6004811015620008dc57600961012c90806001815401808255809150506001900390600052602060002001600090919091909150558080620008d390620015c7565b91505062000891565b5060005b60038110156200092b57600961012d908060018154018082558091505060019003906000526020600020016000909190919091505580806200092290620015c7565b915050620008e0565b5060005b60028110156200097a57600961012e908060018154018082558091505060019003906000526020600020016000909190919091505580806200097190620015c7565b9150506200092f565b50565b6200098d62000cdd60201b60201c565b600a60009080600181540180825580915050600190039060005260206000200160009091909190915055600a60649080600181540180825580915050600190039060005260206000200160009091909190915055600a60c89080600181540180825580915050600190039060005260206000200160009091909190915055600a61012c9080600181540180825580915050600190039060005260206000200160009091909190915055565b60606000600167ffffffffffffffff81111562000a5a5762000a5962001120565b5b60405190808252806020026020018201604052801562000a895781602001602082028036833780820191505090505b509050828160008151811062000aa45762000aa362001614565b5b60200260200101818152505080915050919050565b62000ad486868686868662000d6e60201b620014961760201c565b505050505050565b505050505050565b62000b108473ffffffffffffffffffffffffffffffffffffffff1662000f6660201b620016661760201c565b1562000cd5578373ffffffffffffffffffffffffffffffffffffffff1663f23a6e6187878686866040518663ffffffff1660e01b815260040162000b59959493929190620016ee565b6020604051808303816000875af192505050801562000b9857506040513d601f19601f8201168201806040525081019062000b959190620017af565b60015b62000c495762000ba7620017ee565b806308c379a00362000c0a575062000bbe62001849565b8062000bcb575062000c0c565b806040517f08c379a000000000000000000000000000000000000000000000000000000000815260040162000c01919062001925565b60405180910390fd5b505b6040517f08c379a000000000000000000000000000000000000000000000000000000000815260040162000c4090620019bf565b60405180910390fd5b63f23a6e6160e01b7bffffffffffffffffffffffffffffffffffffffffffffffffffffffff1916817bffffffffffffffffffffffffffffffffffffffffffffffffffffffff19161462000cd3576040517f08c379a000000000000000000000000000000000000000000000000000000000815260040162000cca9062001a57565b60405180910390fd5b505b505050505050565b62000ced6200022760201b60201c565b73ffffffffffffffffffffffffffffffffffffffff1662000d1362000f8960201b60201c565b73ffffffffffffffffffffffffffffffffffffffff161462000d6c576040517f08c379a000000000000000000000000000000000000000000000000000000000815260040162000d639062001ac9565b60405180910390fd5b565b62000d8986868686868662000fb360201b620016891760201c565b600073ffffffffffffffffffffffffffffffffffffffff168573ffffffffffffffffffffffffffffffffffffffff160362000e475760005b835181101562000e455782818151811062000de15762000de062001614565b5b60200260200101516004600086848151811062000e035762000e0262001614565b5b60200260200101518152602001908152602001600020600082825462000e2a91906200154e565b925050819055508062000e3d90620015c7565b905062000dc1565b505b600073ffffffffffffffffffffffffffffffffffffffff168473ffffffffffffffffffffffffffffffffffffffff160362000f5e5760005b835181101562000f5c57600084828151811062000ea15762000ea062001614565b5b60200260200101519050600084838151811062000ec35762000ec262001614565b5b602002602001015190506000600460008481526020019081526020016000205490508181101562000f2b576040517f08c379a000000000000000000000000000000000000000000000000000000000815260040162000f229062001b61565b60405180910390fd5b81810360046000858152602001908152602001600020819055505050508062000f5490620015c7565b905062000e7f565b505b505050505050565b6000808273ffffffffffffffffffffffffffffffffffffffff163b119050919050565b6000600360009054906101000a900473ffffffffffffffffffffffffffffffffffffffff16905090565b505050505050565b6000604051905090565b600080fd5b600073ffffffffffffffffffffffffffffffffffffffff82169050919050565b600062000ff78262000fca565b9050919050565b620010098162000fea565b81146200101557600080fd5b50565b600081519050620010298162000ffe565b92915050565b60006200103c8262000fea565b9050919050565b6200104e816200102f565b81146200105a57600080fd5b50565b6000815190506200106e8162001043565b92915050565b6000620010818262000fca565b9050919050565b620010938162001074565b81146200109f57600080fd5b50565b600081519050620010b38162001088565b92915050565b600080600060608486031215620010d557620010d462000fc5565b5b6000620010e58682870162001018565b9350506020620010f8868287016200105d565b92505060406200110b86828701620010a2565b9150509250925092565b600081519050919050565b7f4e487b7100000000000000000000000000000000000000000000000000000000600052604160045260246000fd5b7f4e487b7100000000000000000000000000000000000000000000000000000000600052602260045260246000fd5b600060028204905060018216806200119757607f821691505b602082108103620011ad57620011ac6200114f565b5b50919050565b60008190508160005260206000209050919050565b60006020601f8301049050919050565b600082821b905092915050565b600060088302620012177fffffffffffffffffffffffffffffffffffffffffffffffffffffffffffffffff82620011d8565b620012238683620011d8565b95508019841693508086168417925050509392505050565b6000819050919050565b6000819050919050565b6000620012706200126a62001264846200123b565b62001245565b6200123b565b9050919050565b6000819050919050565b6200128c836200124f565b620012a46200129b8262001277565b848454620011e5565b825550505050565b600090565b620012bb620012ac565b620012c881848462001281565b505050565b5b81811015620012f057620012e4600082620012b1565b600181019050620012ce565b5050565b601f8211156200133f576200130981620011b3565b6200131484620011c8565b8101602085101562001324578190505b6200133c6200133385620011c8565b830182620012cd565b50505b505050565b600082821c905092915050565b6000620013646000198460080262001344565b1980831691505092915050565b60006200137f838362001351565b9150826002028217905092915050565b6200139a8262001115565b67ffffffffffffffff811115620013b657620013b562001120565b5b620013c282546200117e565b620013cf828285620012f4565b600060209050601f831160018114620014075760008415620013f2578287015190505b620013fe858262001371565b8655506200146e565b601f1984166200141786620011b3565b60005b8281101562001441578489015182556001820191506020850194506020810190506200141a565b868310156200146157848901516200145d601f89168262001351565b8355505b6001600288020188555050505b505050505050565b600082825260208201905092915050565b7f455243313135353a206d696e7420746f20746865207a65726f2061646472657360008201527f7300000000000000000000000000000000000000000000000000000000000000602082015250565b6000620014e560218362001476565b9150620014f28262001487565b604082019050919050565b600060208201905081810360008301526200151881620014d6565b9050919050565b7f4e487b7100000000000000000000000000000000000000000000000000000000600052601160045260246000fd5b60006200155b826200123b565b915062001568836200123b565b92508282019050808211156200158357620015826200151f565b5b92915050565b62001594816200123b565b82525050565b6000604082019050620015b1600083018562001589565b620015c0602083018462001589565b9392505050565b6000620015d4826200123b565b91507fffffffffffffffffffffffffffffffffffffffffffffffffffffffffffffffff82036200160957620016086200151f565b5b600182019050919050565b7f4e487b7100000000000000000000000000000000000000000000000000000000600052603260045260246000fd5b6200164e8162000fea565b82525050565b600081519050919050565b600082825260208201905092915050565b60005b838110156200169057808201518184015260208101905062001673565b60008484015250505050565b6000601f19601f8301169050919050565b6000620016ba8262001654565b620016c681856200165f565b9350620016d881856020860162001670565b620016e3816200169c565b840191505092915050565b600060a08201905062001705600083018862001643565b62001714602083018762001643565b62001723604083018662001589565b62001732606083018562001589565b8181036080830152620017468184620016ad565b90509695505050505050565b60007fffffffff0000000000000000000000000000000000000000000000000000000082169050919050565b620017898162001752565b81146200179557600080fd5b50565b600081519050620017a9816200177e565b92915050565b600060208284031215620017c857620017c762000fc5565b5b6000620017d88482850162001798565b91505092915050565b60008160e01c9050919050565b600060033d1115620018105760046000803e6200180d600051620017e1565b90505b90565b6200181e826200169c565b810181811067ffffffffffffffff8211171562001840576200183f62001120565b5b80604052505050565b600060443d10620018e1576200185e62000fbb565b60043d036004823e80513d602482011167ffffffffffffffff8211171562001888575050620018e1565b808201805167ffffffffffffffff811115620018a85750505050620018e1565b80602083010160043d038501811115620018c7575050505050620018e1565b620018d88260200185018662001813565b82955050505050505b90565b6000620018f18262001115565b620018fd818562001476565b93506200190f81856020860162001670565b6200191a816200169c565b840191505092915050565b60006020820190508181036000830152620019418184620018e4565b905092915050565b7f455243313135353a207472616e7366657220746f206e6f6e204552433131353560008201527f526563656976657220696d706c656d656e746572000000000000000000000000602082015250565b6000620019a760348362001476565b9150620019b48262001949565b604082019050919050565b60006020820190508181036000830152620019da8162001998565b9050919050565b7f455243313135353a204552433131353552656365697665722072656a6563746560008201527f6420746f6b656e73000000000000000000000000000000000000000000000000602082015250565b600062001a3f60288362001476565b915062001a4c82620019e1565b604082019050919050565b6000602082019050818103600083015262001a728162001a30565b9050919050565b7f4f776e61626c653a2063616c6c6572206973206e6f7420746865206f776e6572600082015250565b600062001ab160208362001476565b915062001abe8262001a79565b602082019050919050565b6000602082019050818103600083015262001ae48162001aa2565b9050919050565b7f455243313135353a206275726e20616d6f756e74206578636565647320746f7460008201527f616c537570706c79000000000000000000000000000000000000000000000000602082015250565b600062001b4960288362001476565b915062001b568262001aeb565b604082019050919050565b6000602082019050818103600083015262001b7c8162001b3a565b9050919050565b614ca58062001b936000396000f3fe6080604052600436106102245760003560e01c80638da5cb5b11610123578063d79c66aa116100ab578063f14a3d561161006f578063f14a3d5614610807578063f242432a14610832578063f2fde38b1461085b578063f5298aca14610884578063f5dce5b9146108ad57610224565b8063d79c66aa1461071e578063dc4feb4714610749578063e7b5be3914610774578063e985e9c51461079f578063ea3875ca146107dc57610224565b8063aedd809a116100f2578063aedd809a14610635578063b6a8412b14610660578063bd85b0391461068b578063d0faf49e146106c8578063d656efb5146106f357610224565b80638da5cb5b1461058b5780639750463a146105b6578063a004cbde146105e1578063a22cb4651461060c57610224565b8063442107e3116101b15780635456e59a116101755780635456e59a146104d757806360baee5d146105025780636b20c454146105205780636f9e9b8414610549578063715018a61461057457610224565b8063442107e3146103dc5780634626402b146104075780634e1273f4146104325780634f4aabc11461046f5780634f558e791461049a57610224565b80630f068c60116101f85780630f068c60146103095780631f7fdffa1461033457806323bfdcfa1461035d5780632eb2c2d61461038857806332e5794a146103b157610224565b8062fdd58e1461022957806301ffc9a71461026657806302fe5305146102a35780630e89341c146102cc575b600080fd5b34801561023557600080fd5b50610250600480360381019061024b9190612ec0565b6108d8565b60405161025d9190612f0f565b60405180910390f35b34801561027257600080fd5b5061028d60048036038101906102889190612f82565b6109a0565b60405161029a9190612fca565b60405180910390f35b3480156102af57600080fd5b506102ca60048036038101906102c5919061312b565b610a82565b005b3480156102d857600080fd5b506102f360048036038101906102ee9190613174565b610a96565b6040516103009190613220565b60405180910390f35b34801561031557600080fd5b5061031e610ac7565b60405161032b9190612f0f565b60405180910390f35b34801561034057600080fd5b5061035b600480360381019061035691906133ab565b610acc565b005b34801561036957600080fd5b50610372610ae6565b60405161037f9190612f0f565b60405180910390f35b34801561039457600080fd5b506103af60048036038101906103aa9190613466565b610aec565b005b3480156103bd57600080fd5b506103c6610b8d565b6040516103d39190612f0f565b60405180910390f35b3480156103e857600080fd5b506103f1610b92565b6040516103fe9190612f0f565b60405180910390f35b34801561041357600080fd5b5061041c610b97565b6040516104299190613556565b60405180910390f35b34801561043e57600080fd5b5061045960048036038101906104549190613634565b610bbd565b604051610466919061376a565b60405180910390f35b34801561047b57600080fd5b50610484610cd6565b6040516104919190612f0f565b60405180910390f35b3480156104a657600080fd5b506104c160048036038101906104bc9190613174565b610cdc565b6040516104ce9190612fca565b60405180910390f35b3480156104e357600080fd5b506104ec610cf0565b6040516104f99190612f0f565b60405180910390f35b61050a610cf6565b6040516105179190612f0f565b60405180910390f35b34801561052c57600080fd5b506105476004803603810190610542919061378c565b61103f565b005b34801561055557600080fd5b5061055e6110dc565b60405161056b9190612f0f565b60405180910390f35b34801561058057600080fd5b506105896110e1565b005b34801561059757600080fd5b506105a06110f5565b6040516105ad9190613826565b60405180910390f35b3480156105c257600080fd5b506105cb61111f565b6040516105d89190612f0f565b60405180910390f35b3480156105ed57600080fd5b506105f6611124565b6040516106039190612f0f565b60405180910390f35b34801561061857600080fd5b50610633600480360381019061062e919061386d565b61112a565b005b34801561064157600080fd5b5061064a611140565b6040516106579190612f0f565b60405180910390f35b34801561066c57600080fd5b50610675611145565b6040516106829190612f0f565b60405180910390f35b34801561069757600080fd5b506106b260048036038101906106ad9190613174565b6111f8565b6040516106bf9190612f0f565b60405180910390f35b3480156106d457600080fd5b506106dd611215565b6040516106ea9190612f0f565b60405180910390f35b3480156106ff57600080fd5b5061070861121a565b6040516107159190612f0f565b60405180910390f35b34801561072a57600080fd5b5061073361121f565b6040516107409190612f0f565b60405180910390f35b34801561075557600080fd5b5061075e611225565b60405161076b9190612f0f565b60405180910390f35b34801561078057600080fd5b5061078961122b565b6040516107969190612f0f565b60405180910390f35b3480156107ab57600080fd5b506107c660048036038101906107c191906138ad565b611230565b6040516107d39190612fca565b60405180910390f35b3480156107e857600080fd5b506107f16112c4565b6040516107fe9190612f0f565b60405180910390f35b34801561081357600080fd5b5061081c6112c9565b6040516108299190612f0f565b60405180910390f35b34801561083e57600080fd5b50610859600480360381019061085491906138ed565b6112cf565b005b34801561086757600080fd5b50610882600480360381019061087d9190613984565b611370565b005b34801561089057600080fd5b506108ab60048036038101906108a691906139b1565b6113f3565b005b3480156108b957600080fd5b506108c2611490565b6040516108cf9190612f0f565b60405180910390f35b60008073ffffffffffffffffffffffffffffffffffffffff168373ffffffffffffffffffffffffffffffffffffffff1603610948576040517f08c379a000000000000000000000000000000000000000000000000000000000815260040161093f90613a76565b60405180910390fd5b60008083815260200190815260200160002060008473ffffffffffffffffffffffffffffffffffffffff1673ffffffffffffffffffffffffffffffffffffffff16815260200190815260200160002054905092915050565b60007fd9b67a26000000000000000000000000000000000000000000000000000000007bffffffffffffffffffffffffffffffffffffffffffffffffffffffff1916827bffffffffffffffffffffffffffffffffffffffffffffffffffffffff19161480610a6b57507f0e89341c000000000000000000000000000000000000000000000000000000007bffffffffffffffffffffffffffffffffffffffffffffffffffffffff1916827bffffffffffffffffffffffffffffffffffffffffffffffffffffffff1916145b80610a7b5750610a7a82611691565b5b9050919050565b610a8a6116fb565b610a9381611779565b50565b6060610aa18261178c565b604051602001610ab19190613b6a565b6040516020818303038152906040529050919050565b60ca81565b610ad46116fb565b610ae0848484846118ec565b50505050565b61019181565b610af4611b18565b73ffffffffffffffffffffffffffffffffffffffff168573ffffffffffffffffffffffffffffffffffffffff161480610b3a5750610b3985610b34611b18565b611230565b5b610b79576040517f08c379a0000000000000000000000000000000000000000000000000000000008152600401610b7090613bfe565b60405180910390fd5b610b868585858585611b20565b5050505050565b606581565b60c881565b600760009054906101000a900473ffffffffffffffffffffffffffffffffffffffff1681565b60608151835114610c03576040517f08c379a0000000000000000000000000000000000000000000000000000000008152600401610bfa90613c90565b60405180910390fd5b6000835167ffffffffffffffff811115610c2057610c1f613000565b5b604051908082528060200260200182016040528015610c4e5781602001602082028036833780820191505090505b50905060005b8451811015610ccb57610c9b858281518110610c7357610c72613cb0565b5b6020026020010151858381518110610c8e57610c8d613cb0565b5b60200260200101516108d8565b828281518110610cae57610cad613cb0565b5b60200260200101818152505080610cc490613d0e565b9050610c54565b508091505092915050565b61012d81565b600080610ce8836111f8565b119050919050565b61019481565b60008060098054905042604051602001610d109190613d77565b6040516020818303038152906040528051906020012060001c610d339190613dc1565b9050600060098281548110610d4b57610d4a613cb0565b5b90600052602060002001549050610d743382600160405180602001604052806000815250611e41565b610da1600b60009054906101000a900473ffffffffffffffffffffffffffffffffffffffff16600161112a565b6000600560009054906101000a900473ffffffffffffffffffffffffffffffffffffffff1673ffffffffffffffffffffffffffffffffffffffff1663d83a2bf33330600654600854610df39190613df2565b6040518463ffffffff1660e01b8152600401610e1193929190613e34565b6020604051808303816000875af1158015610e30573d6000803e3d6000fd5b505050506040513d601f19601f82011682018060405250810190610e549190613e80565b905080610e96576040517f08c379a0000000000000000000000000000000000000000000000000000000008152600401610e8d90613ef9565b60405180910390fd5b600560009054906101000a900473ffffffffffffffffffffffffffffffffffffffff1673ffffffffffffffffffffffffffffffffffffffff166323b872dd33600760009054906101000a900473ffffffffffffffffffffffffffffffffffffffff16600654600854610f089190613df2565b6040518463ffffffff1660e01b8152600401610f2693929190613f78565b6020604051808303816000875af1158015610f45573d6000803e3d6000fd5b505050506040513d601f19601f82011682018060405250810190610f699190613e80565b50600560009054906101000a900473ffffffffffffffffffffffffffffffffffffffff1673ffffffffffffffffffffffffffffffffffffffff16631d057bd9600760009054906101000a900473ffffffffffffffffffffffffffffffffffffffff166002600654600854610fdd9190613df2565b610fe79190613faf565b6040518363ffffffff1660e01b8152600401611004929190613fe0565b600060405180830381600087803b15801561101e57600080fd5b505af1158015611032573d6000803e3d6000fd5b5050505081935050505090565b611047611b18565b73ffffffffffffffffffffffffffffffffffffffff168373ffffffffffffffffffffffffffffffffffffffff16148061108d575061108c83611087611b18565b611230565b5b6110cc576040517f08c379a00000000000000000000000000000000000000000000000000000000081526004016110c390613bfe565b60405180910390fd5b6110d7838383611ff1565b505050565b600181565b6110e96116fb565b6110f360006122bf565b565b6000600360009054906101000a900473ffffffffffffffffffffffffffffffffffffffff16905090565b600381565b61012e81565b61113c611135611b18565b8383612385565b5050565b600081565b600080600a805490504260405160200161115f9190613d77565b6040516020818303038152906040528051906020012060001c6111829190613dc1565b90506000600a828154811061119a57611199613cb0565b5b906000526020600020015490506111c33382600160405180602001604052806000815250611e41565b6111f0600b60009054906101000a900473ffffffffffffffffffffffffffffffffffffffff16600161112a565b809250505090565b600060046000838152602001908152602001600020549050919050565b60c981565b606681565b61019081565b61019381565b600281565b6000600160008473ffffffffffffffffffffffffffffffffffffffff1673ffffffffffffffffffffffffffffffffffffffff16815260200190815260200160002060008373ffffffffffffffffffffffffffffffffffffffff1673ffffffffffffffffffffffffffffffffffffffff16815260200190815260200160002060009054906101000a900460ff16905092915050565b606481565b61012c81565b6112d7611b18565b73ffffffffffffffffffffffffffffffffffffffff168573ffffffffffffffffffffffffffffffffffffffff16148061131d575061131c85611317611b18565b611230565b5b61135c576040517f08c379a000000000000000000000000000000000000000000000000000000000815260040161135390613bfe565b60405180910390fd5b61136985858585856124f1565b5050505050565b6113786116fb565b600073ffffffffffffffffffffffffffffffffffffffff168173ffffffffffffffffffffffffffffffffffffffff16036113e7576040517f08c379a00000000000000000000000000000000000000000000000000000000081526004016113de9061407b565b60405180910390fd5b6113f0816122bf565b50565b6113fb611b18565b73ffffffffffffffffffffffffffffffffffffffff168373ffffffffffffffffffffffffffffffffffffffff16148061144157506114408361143b611b18565b611230565b5b611480576040517f08c379a000000000000000000000000000000000000000000000000000000000815260040161147790613bfe565b60405180910390fd5b61148b83838361278c565b505050565b61019281565b6114a4868686868686611689565b600073ffffffffffffffffffffffffffffffffffffffff168573ffffffffffffffffffffffffffffffffffffffff16036115555760005b8351811015611553578281815181106114f7576114f6613cb0565b5b60200260200101516004600086848151811061151657611515613cb0565b5b60200260200101518152602001908152602001600020600082825461153b919061409b565b925050819055508061154c90613d0e565b90506114db565b505b600073ffffffffffffffffffffffffffffffffffffffff168473ffffffffffffffffffffffffffffffffffffffff160361165e5760005b835181101561165c5760008482815181106115aa576115a9613cb0565b5b6020026020010151905060008483815181106115c9576115c8613cb0565b5b602002602001015190506000600460008481526020019081526020016000205490508181101561162e576040517f08c379a000000000000000000000000000000000000000000000000000000000815260040161162590614141565b60405180910390fd5b81810360046000858152602001908152602001600020819055505050508061165590613d0e565b905061158c565b505b505050505050565b6000808273ffffffffffffffffffffffffffffffffffffffff163b119050919050565b505050505050565b60007f01ffc9a7000000000000000000000000000000000000000000000000000000007bffffffffffffffffffffffffffffffffffffffffffffffffffffffff1916827bffffffffffffffffffffffffffffffffffffffffffffffffffffffff1916149050919050565b611703611b18565b73ffffffffffffffffffffffffffffffffffffffff166117216110f5565b73ffffffffffffffffffffffffffffffffffffffff1614611777576040517f08c379a000000000000000000000000000000000000000000000000000000000815260040161176e906141ad565b60405180910390fd5b565b806002908161178891906143cf565b5050565b6060600082036117d3576040518060400160405280600181526020017f300000000000000000000000000000000000000000000000000000000000000081525090506118e7565b600082905060005b600082146118055780806117ee90613d0e565b915050600a826117fe9190613faf565b91506117db565b60008167ffffffffffffffff81111561182157611820613000565b5b6040519080825280601f01601f1916602001820160405280156118535781602001600182028036833780820191505090505b5090505b600085146118e05760018261186c91906144a1565b9150600a8561187b9190613dc1565b6030611887919061409b565b60f81b81838151811061189d5761189c613cb0565b5b60200101907effffffffffffffffffffffffffffffffffffffffffffffffffffffffffffff1916908160001a905350600a856118d99190613faf565b9450611857565b8093505050505b919050565b600073ffffffffffffffffffffffffffffffffffffffff168473ffffffffffffffffffffffffffffffffffffffff160361195b576040517f08c379a000000000000000000000000000000000000000000000000000000000815260040161195290614547565b60405180910390fd5b815183511461199f576040517f08c379a0000000000000000000000000000000000000000000000000000000008152600401611996906145d9565b60405180910390fd5b60006119a9611b18565b90506119ba816000878787876129d2565b60005b8451811015611a73578381815181106119d9576119d8613cb0565b5b60200260200101516000808784815181106119f7576119f6613cb0565b5b6020026020010151815260200190815260200160002060008873ffffffffffffffffffffffffffffffffffffffff1673ffffffffffffffffffffffffffffffffffffffff1681526020019081526020016000206000828254611a59919061409b565b925050819055508080611a6b90613d0e565b9150506119bd565b508473ffffffffffffffffffffffffffffffffffffffff16600073ffffffffffffffffffffffffffffffffffffffff168273ffffffffffffffffffffffffffffffffffffffff167f4a39dc06d4c0dbc64b70af90fd698a233a518aa5d07e595d983b8c0526c8f7fb8787604051611aeb9291906145f9565b60405180910390a4611b02816000878787876129e8565b611b11816000878787876129f0565b5050505050565b600033905090565b8151835114611b64576040517f08c379a0000000000000000000000000000000000000000000000000000000008152600401611b5b906145d9565b60405180910390fd5b600073ffffffffffffffffffffffffffffffffffffffff168473ffffffffffffffffffffffffffffffffffffffff1603611bd3576040517f08c379a0000000000000000000000000000000000000000000000000000000008152600401611bca906146a2565b60405180910390fd5b6000611bdd611b18565b9050611bed8187878787876129d2565b60005b8451811015611d9e576000858281518110611c0e57611c0d613cb0565b5b602002602001015190506000858381518110611c2d57611c2c613cb0565b5b60200260200101519050600080600084815260200190815260200160002060008b73ffffffffffffffffffffffffffffffffffffffff1673ffffffffffffffffffffffffffffffffffffffff16815260200190815260200160002054905081811015611cce576040517f08c379a0000000000000000000000000000000000000000000000000000000008152600401611cc590614734565b60405180910390fd5b81810360008085815260200190815260200160002060008c73ffffffffffffffffffffffffffffffffffffffff1673ffffffffffffffffffffffffffffffffffffffff168152602001908152602001600020819055508160008085815260200190815260200160002060008b73ffffffffffffffffffffffffffffffffffffffff1673ffffffffffffffffffffffffffffffffffffffff1681526020019081526020016000206000828254611d83919061409b565b9250508190555050505080611d9790613d0e565b9050611bf0565b508473ffffffffffffffffffffffffffffffffffffffff168673ffffffffffffffffffffffffffffffffffffffff168273ffffffffffffffffffffffffffffffffffffffff167f4a39dc06d4c0dbc64b70af90fd698a233a518aa5d07e595d983b8c0526c8f7fb8787604051611e159291906145f9565b60405180910390a4611e2b8187878787876129e8565b611e398187878787876129f0565b505050505050565b600073ffffffffffffffffffffffffffffffffffffffff168473ffffffffffffffffffffffffffffffffffffffff1603611eb0576040517f08c379a0000000000000000000000000000000000000000000000000000000008152600401611ea790614547565b60405180910390fd5b6000611eba611b18565b90506000611ec785612bc7565b90506000611ed485612bc7565b9050611ee5836000898585896129d2565b8460008088815260200190815260200160002060008973ffffffffffffffffffffffffffffffffffffffff1673ffffffffffffffffffffffffffffffffffffffff1681526020019081526020016000206000828254611f44919061409b565b925050819055508673ffffffffffffffffffffffffffffffffffffffff16600073ffffffffffffffffffffffffffffffffffffffff168473ffffffffffffffffffffffffffffffffffffffff167fc3d58168c5ae7397731d063d5bbf3d657854427343f4c083240f7aacaa2d0f628989604051611fc2929190614754565b60405180910390a4611fd9836000898585896129e8565b611fe883600089898989612c41565b50505050505050565b600073ffffffffffffffffffffffffffffffffffffffff168373ffffffffffffffffffffffffffffffffffffffff1603612060576040517f08c379a0000000000000000000000000000000000000000000000000000000008152600401612057906147ef565b60405180910390fd5b80518251146120a4576040517f08c379a000000000000000000000000000000000000000000000000000000000815260040161209b906145d9565b60405180910390fd5b60006120ae611b18565b90506120ce818560008686604051806020016040528060008152506129d2565b60005b835181101561221b5760008482815181106120ef576120ee613cb0565b5b60200260200101519050600084838151811061210e5761210d613cb0565b5b60200260200101519050600080600084815260200190815260200160002060008973ffffffffffffffffffffffffffffffffffffffff1673ffffffffffffffffffffffffffffffffffffffff168152602001908152602001600020549050818110156121af576040517f08c379a00000000000000000000000000000000000000000000000000000000081526004016121a690614881565b60405180910390fd5b81810360008085815260200190815260200160002060008a73ffffffffffffffffffffffffffffffffffffffff1673ffffffffffffffffffffffffffffffffffffffff16815260200190815260200160002081905550505050808061221390613d0e565b9150506120d1565b50600073ffffffffffffffffffffffffffffffffffffffff168473ffffffffffffffffffffffffffffffffffffffff168273ffffffffffffffffffffffffffffffffffffffff167f4a39dc06d4c0dbc64b70af90fd698a233a518aa5d07e595d983b8c0526c8f7fb86866040516122939291906145f9565b60405180910390a46122b9818560008686604051806020016040528060008152506129e8565b50505050565b6000600360009054906101000a900473ffffffffffffffffffffffffffffffffffffffff16905081600360006101000a81548173ffffffffffffffffffffffffffffffffffffffff021916908373ffffffffffffffffffffffffffffffffffffffff1602179055508173ffffffffffffffffffffffffffffffffffffffff168173ffffffffffffffffffffffffffffffffffffffff167f8be0079c531659141344cd1fd0a4f28419497f9722a3daafe3b4186f6b6457e060405160405180910390a35050565b8173ffffffffffffffffffffffffffffffffffffffff168373ffffffffffffffffffffffffffffffffffffffff16036123f3576040517f08c379a00000000000000000000000000000000000000000000000000000000081526004016123ea90614913565b60405180910390fd5b80600160008573ffffffffffffffffffffffffffffffffffffffff1673ffffffffffffffffffffffffffffffffffffffff16815260200190815260200160002060008473ffffffffffffffffffffffffffffffffffffffff1673ffffffffffffffffffffffffffffffffffffffff16815260200190815260200160002060006101000a81548160ff0219169083151502179055508173ffffffffffffffffffffffffffffffffffffffff168373ffffffffffffffffffffffffffffffffffffffff167f17307eab39ab6107e8899845ad3d59bd9653f200f220920489ca2b5937696c31836040516124e49190612fca565b60405180910390a3505050565b600073ffffffffffffffffffffffffffffffffffffffff168473ffffffffffffffffffffffffffffffffffffffff1603612560576040517f08c379a0000000000000000000000000000000000000000000000000000000008152600401612557906146a2565b60405180910390fd5b600061256a611b18565b9050600061257785612bc7565b9050600061258485612bc7565b90506125948389898585896129d2565b600080600088815260200190815260200160002060008a73ffffffffffffffffffffffffffffffffffffffff1673ffffffffffffffffffffffffffffffffffffffff1681526020019081526020016000205490508581101561262b576040517f08c379a000000000000000000000000000000000000000000000000000000000815260040161262290614734565b60405180910390fd5b85810360008089815260200190815260200160002060008b73ffffffffffffffffffffffffffffffffffffffff1673ffffffffffffffffffffffffffffffffffffffff168152602001908152602001600020819055508560008089815260200190815260200160002060008a73ffffffffffffffffffffffffffffffffffffffff1673ffffffffffffffffffffffffffffffffffffffff16815260200190815260200160002060008282546126e0919061409b565b925050819055508773ffffffffffffffffffffffffffffffffffffffff168973ffffffffffffffffffffffffffffffffffffffff168573ffffffffffffffffffffffffffffffffffffffff167fc3d58168c5ae7397731d063d5bbf3d657854427343f4c083240f7aacaa2d0f628a8a60405161275d929190614754565b60405180910390a4612773848a8a86868a6129e8565b612781848a8a8a8a8a612c41565b505050505050505050565b600073ffffffffffffffffffffffffffffffffffffffff168373ffffffffffffffffffffffffffffffffffffffff16036127fb576040517f08c379a00000000000000000000000000000000000000000000000000000000081526004016127f2906147ef565b60405180910390fd5b6000612805611b18565b9050600061281284612bc7565b9050600061281f84612bc7565b905061283f838760008585604051806020016040528060008152506129d2565b600080600087815260200190815260200160002060008873ffffffffffffffffffffffffffffffffffffffff1673ffffffffffffffffffffffffffffffffffffffff168152602001908152602001600020549050848110156128d6576040517f08c379a00000000000000000000000000000000000000000000000000000000081526004016128cd90614881565b60405180910390fd5b84810360008088815260200190815260200160002060008973ffffffffffffffffffffffffffffffffffffffff1673ffffffffffffffffffffffffffffffffffffffff16815260200190815260200160002081905550600073ffffffffffffffffffffffffffffffffffffffff168773ffffffffffffffffffffffffffffffffffffffff168573ffffffffffffffffffffffffffffffffffffffff167fc3d58168c5ae7397731d063d5bbf3d657854427343f4c083240f7aacaa2d0f6289896040516129a3929190614754565b60405180910390a46129c9848860008686604051806020016040528060008152506129e8565b50505050505050565b6129e0868686868686611496565b505050505050565b505050505050565b612a0f8473ffffffffffffffffffffffffffffffffffffffff16611666565b15612bbf578373ffffffffffffffffffffffffffffffffffffffff1663bc197c8187878686866040518663ffffffff1660e01b8152600401612a55959493929190614988565b6020604051808303816000875af1925050508015612a9157506040513d601f19601f82011682018060405250810190612a8e9190614a05565b60015b612b3657612a9d614a3f565b806308c379a003612af95750612ab1614a61565b80612abc5750612afb565b806040517f08c379a0000000000000000000000000000000000000000000000000000000008152600401612af09190613220565b60405180910390fd5b505b6040517f08c379a0000000000000000000000000000000000000000000000000000000008152600401612b2d90614b63565b60405180910390fd5b63bc197c8160e01b7bffffffffffffffffffffffffffffffffffffffffffffffffffffffff1916817bffffffffffffffffffffffffffffffffffffffffffffffffffffffff191614612bbd576040517f08c379a0000000000000000000000000000000000000000000000000000000008152600401612bb490614bf5565b60405180910390fd5b505b505050505050565b60606000600167ffffffffffffffff811115612be657612be5613000565b5b604051908082528060200260200182016040528015612c145781602001602082028036833780820191505090505b5090508281600081518110612c2c57612c2b613cb0565b5b60200260200101818152505080915050919050565b612c608473ffffffffffffffffffffffffffffffffffffffff16611666565b15612e10578373ffffffffffffffffffffffffffffffffffffffff1663f23a6e6187878686866040518663ffffffff1660e01b8152600401612ca6959493929190614c15565b6020604051808303816000875af1925050508015612ce257506040513d601f19601f82011682018060405250810190612cdf9190614a05565b60015b612d8757612cee614a3f565b806308c379a003612d4a5750612d02614a61565b80612d0d5750612d4c565b806040517f08c379a0000000000000000000000000000000000000000000000000000000008152600401612d419190613220565b60405180910390fd5b505b6040517f08c379a0000000000000000000000000000000000000000000000000000000008152600401612d7e90614b63565b60405180910390fd5b63f23a6e6160e01b7bffffffffffffffffffffffffffffffffffffffffffffffffffffffff1916817bffffffffffffffffffffffffffffffffffffffffffffffffffffffff191614612e0e576040517f08c379a0000000000000000000000000000000000000000000000000000000008152600401612e0590614bf5565b60405180910390fd5b505b505050505050565b6000604051905090565b600080fd5b600080fd5b600073ffffffffffffffffffffffffffffffffffffffff82169050919050565b6000612e5782612e2c565b9050919050565b612e6781612e4c565b8114612e7257600080fd5b50565b600081359050612e8481612e5e565b92915050565b6000819050919050565b612e9d81612e8a565b8114612ea857600080fd5b50565b600081359050612eba81612e94565b92915050565b60008060408385031215612ed757612ed6612e22565b5b6000612ee585828601612e75565b9250506020612ef685828601612eab565b9150509250929050565b612f0981612e8a565b82525050565b6000602082019050612f246000830184612f00565b92915050565b60007fffffffff0000000000000000000000000000000000000000000000000000000082169050919050565b612f5f81612f2a565b8114612f6a57600080fd5b50565b600081359050612f7c81612f56565b92915050565b600060208284031215612f9857612f97612e22565b5b6000612fa684828501612f6d565b91505092915050565b60008115159050919050565b612fc481612faf565b82525050565b6000602082019050612fdf6000830184612fbb565b92915050565b600080fd5b600080fd5b6000601f19601f8301169050919050565b7f4e487b7100000000000000000000000000000000000000000000000000000000600052604160045260246000fd5b61303882612fef565b810181811067ffffffffffffffff8211171561305757613056613000565b5b80604052505050565b600061306a612e18565b9050613076828261302f565b919050565b600067ffffffffffffffff82111561309657613095613000565b5b61309f82612fef565b9050602081019050919050565b82818337600083830152505050565b60006130ce6130c98461307b565b613060565b9050828152602081018484840111156130ea576130e9612fea565b5b6130f58482856130ac565b509392505050565b600082601f83011261311257613111612fe5565b5b81356131228482602086016130bb565b91505092915050565b60006020828403121561314157613140612e22565b5b600082013567ffffffffffffffff81111561315f5761315e612e27565b5b61316b848285016130fd565b91505092915050565b60006020828403121561318a57613189612e22565b5b600061319884828501612eab565b91505092915050565b600081519050919050565b600082825260208201905092915050565b60005b838110156131db5780820151818401526020810190506131c0565b60008484015250505050565b60006131f2826131a1565b6131fc81856131ac565b935061320c8185602086016131bd565b61321581612fef565b840191505092915050565b6000602082019050818103600083015261323a81846131e7565b905092915050565b600067ffffffffffffffff82111561325d5761325c613000565b5b602082029050602081019050919050565b600080fd5b600061328661328184613242565b613060565b905080838252602082019050602084028301858111156132a9576132a861326e565b5b835b818110156132d257806132be8882612eab565b8452602084019350506020810190506132ab565b5050509392505050565b600082601f8301126132f1576132f0612fe5565b5b8135613301848260208601613273565b91505092915050565b600067ffffffffffffffff82111561332557613324613000565b5b61332e82612fef565b9050602081019050919050565b600061334e6133498461330a565b613060565b90508281526020810184848401111561336a57613369612fea565b5b6133758482856130ac565b509392505050565b600082601f83011261339257613391612fe5565b5b81356133a284826020860161333b565b91505092915050565b600080600080608085870312156133c5576133c4612e22565b5b60006133d387828801612e75565b945050602085013567ffffffffffffffff8111156133f4576133f3612e27565b5b613400878288016132dc565b935050604085013567ffffffffffffffff81111561342157613420612e27565b5b61342d878288016132dc565b925050606085013567ffffffffffffffff81111561344e5761344d612e27565b5b61345a8782880161337d565b91505092959194509250565b600080600080600060a0868803121561348257613481612e22565b5b600061349088828901612e75565b95505060206134a188828901612e75565b945050604086013567ffffffffffffffff8111156134c2576134c1612e27565b5b6134ce888289016132dc565b935050606086013567ffffffffffffffff8111156134ef576134ee612e27565b5b6134fb888289016132dc565b925050608086013567ffffffffffffffff81111561351c5761351b612e27565b5b6135288882890161337d565b9150509295509295909350565b600061354082612e2c565b9050919050565b61355081613535565b82525050565b600060208201905061356b6000830184613547565b92915050565b600067ffffffffffffffff82111561358c5761358b613000565b5b602082029050602081019050919050565b60006135b06135ab84613571565b613060565b905080838252602082019050602084028301858111156135d3576135d261326e565b5b835b818110156135fc57806135e88882612e75565b8452602084019350506020810190506135d5565b5050509392505050565b600082601f83011261361b5761361a612fe5565b5b813561362b84826020860161359d565b91505092915050565b6000806040838503121561364b5761364a612e22565b5b600083013567ffffffffffffffff81111561366957613668612e27565b5b61367585828601613606565b925050602083013567ffffffffffffffff81111561369657613695612e27565b5b6136a2858286016132dc565b9150509250929050565b600081519050919050565b600082825260208201905092915050565b6000819050602082019050919050565b6136e181612e8a565b82525050565b60006136f383836136d8565b60208301905092915050565b6000602082019050919050565b6000613717826136ac565b61372181856136b7565b935061372c836136c8565b8060005b8381101561375d57815161374488826136e7565b975061374f836136ff565b925050600181019050613730565b5085935050505092915050565b60006020820190508181036000830152613784818461370c565b905092915050565b6000806000606084860312156137a5576137a4612e22565b5b60006137b386828701612e75565b935050602084013567ffffffffffffffff8111156137d4576137d3612e27565b5b6137e0868287016132dc565b925050604084013567ffffffffffffffff81111561380157613800612e27565b5b61380d868287016132dc565b9150509250925092565b61382081612e4c565b82525050565b600060208201905061383b6000830184613817565b92915050565b61384a81612faf565b811461385557600080fd5b50565b60008135905061386781613841565b92915050565b6000806040838503121561388457613883612e22565b5b600061389285828601612e75565b92505060206138a385828601613858565b9150509250929050565b600080604083850312156138c4576138c3612e22565b5b60006138d285828601612e75565b92505060206138e385828601612e75565b9150509250929050565b600080600080600060a0868803121561390957613908612e22565b5b600061391788828901612e75565b955050602061392888828901612e75565b945050604061393988828901612eab565b935050606061394a88828901612eab565b925050608086013567ffffffffffffffff81111561396b5761396a612e27565b5b6139778882890161337d565b9150509295509295909350565b60006020828403121561399a57613999612e22565b5b60006139a884828501612e75565b91505092915050565b6000806000606084860312156139ca576139c9612e22565b5b60006139d886828701612e75565b93505060206139e986828701612eab565b92505060406139fa86828701612eab565b9150509250925092565b7f455243313135353a2061646472657373207a65726f206973206e6f742061207660008201527f616c6964206f776e657200000000000000000000000000000000000000000000602082015250565b6000613a60602a836131ac565b9150613a6b82613a04565b604082019050919050565b60006020820190508181036000830152613a8f81613a53565b9050919050565b600081905092915050565b7f68747470733a2f2f697066732e696f2f697066732f516d556b5555574269736960008201527f46613958556b3475634a6944723266766b3274447231784472436b454636464660208201527f4346382f00000000000000000000000000000000000000000000000000000000604082015250565b6000613b23604483613a96565b9150613b2e82613aa1565b604482019050919050565b6000613b44826131a1565b613b4e8185613a96565b9350613b5e8185602086016131bd565b80840191505092915050565b6000613b7582613b16565b9150613b818284613b39565b915081905092915050565b7f455243313135353a2063616c6c6572206973206e6f7420746f6b656e206f776e60008201527f6572206e6f7220617070726f7665640000000000000000000000000000000000602082015250565b6000613be8602f836131ac565b9150613bf382613b8c565b604082019050919050565b60006020820190508181036000830152613c1781613bdb565b9050919050565b7f455243313135353a206163636f756e747320616e6420696473206c656e67746860008201527f206d69736d617463680000000000000000000000000000000000000000000000602082015250565b6000613c7a6029836131ac565b9150613c8582613c1e565b604082019050919050565b60006020820190508181036000830152613ca981613c6d565b9050919050565b7f4e487b7100000000000000000000000000000000000000000000000000000000600052603260045260246000fd5b7f4e487b7100000000000000000000000000000000000000000000000000000000600052601160045260246000fd5b6000613d1982612e8a565b91507fffffffffffffffffffffffffffffffffffffffffffffffffffffffffffffffff8203613d4b57613d4a613cdf565b5b600182019050919050565b6000819050919050565b613d71613d6c82612e8a565b613d56565b82525050565b6000613d838284613d60565b60208201915081905092915050565b7f4e487b7100000000000000000000000000000000000000000000000000000000600052601260045260246000fd5b6000613dcc82612e8a565b9150613dd783612e8a565b925082613de757613de6613d92565b5b828206905092915050565b6000613dfd82612e8a565b9150613e0883612e8a565b9250828202613e1681612e8a565b91508282048414831517613e2d57613e2c613cdf565b5b5092915050565b6000606082019050613e496000830186613817565b613e566020830185613817565b613e636040830184612f00565b949350505050565b600081519050613e7a81613841565b92915050565b600060208284031215613e9657613e95612e22565b5b6000613ea484828501613e6b565b91505092915050565b7f496e637265617365436f6e7472616374204661696c0000000000000000000000600082015250565b6000613ee36015836131ac565b9150613eee82613ead565b602082019050919050565b60006020820190508181036000830152613f1281613ed6565b9050919050565b6000819050919050565b6000613f3e613f39613f3484612e2c565b613f19565b612e2c565b9050919050565b6000613f5082613f23565b9050919050565b6000613f6282613f45565b9050919050565b613f7281613f57565b82525050565b6000606082019050613f8d6000830186613817565b613f9a6020830185613f69565b613fa76040830184612f00565b949350505050565b6000613fba82612e8a565b9150613fc583612e8a565b925082613fd557613fd4613d92565b5b828204905092915050565b6000604082019050613ff56000830185613f69565b6140026020830184612f00565b9392505050565b7f4f776e61626c653a206e6577206f776e657220697320746865207a65726f206160008201527f6464726573730000000000000000000000000000000000000000000000000000602082015250565b60006140656026836131ac565b915061407082614009565b604082019050919050565b6000602082019050818103600083015261409481614058565b9050919050565b60006140a682612e8a565b91506140b183612e8a565b92508282019050808211156140c9576140c8613cdf565b5b92915050565b7f455243313135353a206275726e20616d6f756e74206578636565647320746f7460008201527f616c537570706c79000000000000000000000000000000000000000000000000602082015250565b600061412b6028836131ac565b9150614136826140cf565b604082019050919050565b6000602082019050818103600083015261415a8161411e565b9050919050565b7f4f776e61626c653a2063616c6c6572206973206e6f7420746865206f776e6572600082015250565b60006141976020836131ac565b91506141a282614161565b602082019050919050565b600060208201905081810360008301526141c68161418a565b9050919050565b7f4e487b7100000000000000000000000000000000000000000000000000000000600052602260045260246000fd5b6000600282049050600182168061421457607f821691505b602082108103614227576142266141cd565b5b50919050565b60008190508160005260206000209050919050565b60006020601f8301049050919050565b600082821b905092915050565b60006008830261428f7fffffffffffffffffffffffffffffffffffffffffffffffffffffffffffffffff82614252565b6142998683614252565b95508019841693508086168417925050509392505050565b60006142cc6142c76142c284612e8a565b613f19565b612e8a565b9050919050565b6000819050919050565b6142e6836142b1565b6142fa6142f2826142d3565b84845461425f565b825550505050565b600090565b61430f614302565b61431a8184846142dd565b505050565b5b8181101561433e57614333600082614307565b600181019050614320565b5050565b601f821115614383576143548161422d565b61435d84614242565b8101602085101561436c578190505b61438061437885614242565b83018261431f565b50505b505050565b600082821c905092915050565b60006143a660001984600802614388565b1980831691505092915050565b60006143bf8383614395565b9150826002028217905092915050565b6143d8826131a1565b67ffffffffffffffff8111156143f1576143f0613000565b5b6143fb82546141fc565b614406828285614342565b600060209050601f8311600181146144395760008415614427578287015190505b61443185826143b3565b865550614499565b601f1984166144478661422d565b60005b8281101561446f5784890151825560018201915060208501945060208101905061444a565b8683101561448c5784890151614488601f891682614395565b8355505b6001600288020188555050505b505050505050565b60006144ac82612e8a565b91506144b783612e8a565b92508282039050818111156144cf576144ce613cdf565b5b92915050565b7f455243313135353a206d696e7420746f20746865207a65726f2061646472657360008201527f7300000000000000000000000000000000000000000000000000000000000000602082015250565b60006145316021836131ac565b915061453c826144d5565b604082019050919050565b6000602082019050818103600083015261456081614524565b9050919050565b7f455243313135353a2069647320616e6420616d6f756e7473206c656e6774682060008201527f6d69736d61746368000000000000000000000000000000000000000000000000602082015250565b60006145c36028836131ac565b91506145ce82614567565b604082019050919050565b600060208201905081810360008301526145f2816145b6565b9050919050565b60006040820190508181036000830152614613818561370c565b90508181036020830152614627818461370c565b90509392505050565b7f455243313135353a207472616e7366657220746f20746865207a65726f20616460008201527f6472657373000000000000000000000000000000000000000000000000000000602082015250565b600061468c6025836131ac565b915061469782614630565b604082019050919050565b600060208201905081810360008301526146bb8161467f565b9050919050565b7f455243313135353a20696e73756666696369656e742062616c616e636520666f60008201527f72207472616e7366657200000000000000000000000000000000000000000000602082015250565b600061471e602a836131ac565b9150614729826146c2565b604082019050919050565b6000602082019050818103600083015261474d81614711565b9050919050565b60006040820190506147696000830185612f00565b6147766020830184612f00565b9392505050565b7f455243313135353a206275726e2066726f6d20746865207a65726f206164647260008201527f6573730000000000000000000000000000000000000000000000000000000000602082015250565b60006147d96023836131ac565b91506147e48261477d565b604082019050919050565b60006020820190508181036000830152614808816147cc565b9050919050565b7f455243313135353a206275726e20616d6f756e7420657863656564732062616c60008201527f616e636500000000000000000000000000000000000000000000000000000000602082015250565b600061486b6024836131ac565b91506148768261480f565b604082019050919050565b6000602082019050818103600083015261489a8161485e565b9050919050565b7f455243313135353a2073657474696e6720617070726f76616c2073746174757360008201527f20666f722073656c660000000000000000000000000000000000000000000000602082015250565b60006148fd6029836131ac565b9150614908826148a1565b604082019050919050565b6000602082019050818103600083015261492c816148f0565b9050919050565b600081519050919050565b600082825260208201905092915050565b600061495a82614933565b614964818561493e565b93506149748185602086016131bd565b61497d81612fef565b840191505092915050565b600060a08201905061499d6000830188613817565b6149aa6020830187613817565b81810360408301526149bc818661370c565b905081810360608301526149d0818561370c565b905081810360808301526149e4818461494f565b90509695505050505050565b6000815190506149ff81612f56565b92915050565b600060208284031215614a1b57614a1a612e22565b5b6000614a29848285016149f0565b91505092915050565b60008160e01c9050919050565b600060033d1115614a5e5760046000803e614a5b600051614a32565b90505b90565b600060443d10614aee57614a73612e18565b60043d036004823e80513d602482011167ffffffffffffffff82111715614a9b575050614aee565b808201805167ffffffffffffffff811115614ab95750505050614aee565b80602083010160043d038501811115614ad6575050505050614aee565b614ae58260200185018661302f565b82955050505050505b90565b7f455243313135353a207472616e7366657220746f206e6f6e204552433131353560008201527f526563656976657220696d706c656d656e746572000000000000000000000000602082015250565b6000614b4d6034836131ac565b9150614b5882614af1565b604082019050919050565b60006020820190508181036000830152614b7c81614b40565b9050919050565b7f455243313135353a204552433131353552656365697665722072656a6563746560008201527f6420746f6b656e73000000000000000000000000000000000000000000000000602082015250565b6000614bdf6028836131ac565b9150614bea82614b83565b604082019050919050565b60006020820190508181036000830152614c0e81614bd2565b9050919050565b600060a082019050614c2a6000830188613817565b614c376020830187613817565b614c446040830186612f00565b614c516060830185612f00565b8181036080830152614c63818461494f565b9050969550505050505056fea26469706673582212200860325e7d5892315df33a9eb36f3a074edbbe1ead238ea35bdb2a410bb2f3a464736f6c63430008110033697066733a2f2f516d556b5555574269736946613958556b3475634a6944723266766b3274447231784472436b45463646464346382f7b69647d",
			"opcodes": "PUSH1 0x80 PUSH1 0x40 MSTORE PUSH8 0xDE0B6B3A7640000 PUSH1 0x6 SSTORE CALLVALUE DUP1 ISZERO PUSH3 0x1D JUMPI PUSH1 0x0 DUP1 REVERT JUMPDEST POP PUSH1 0x40 MLOAD PUSH3 0x6872 CODESIZE SUB DUP1 PUSH3 0x6872 DUP4 CODECOPY DUP2 DUP2 ADD PUSH1 0x40 MSTORE DUP2 ADD SWAP1 PUSH3 0x43 SWAP2 SWAP1 PUSH3 0x10B9 JUMP JUMPDEST PUSH1 0x40 MLOAD DUP1 PUSH1 0x60 ADD PUSH1 0x40 MSTORE DUP1 PUSH1 0x3A DUP2 MSTORE PUSH1 0x20 ADD PUSH3 0x6838 PUSH1 0x3A SWAP2 CODECOPY PUSH3 0x6E DUP2 PUSH3 0x212 PUSH1 0x20 SHL PUSH1 0x20 SHR JUMP JUMPDEST POP PUSH3 0x8F PUSH3 0x83 PUSH3 0x227 PUSH1 0x20 SHL PUSH1 0x20 SHR JUMP JUMPDEST PUSH3 0x22F PUSH1 0x20 SHL PUSH1 0x20 SHR JUMP JUMPDEST PUSH3 0xB5 CALLER PUSH2 0x190 PUSH1 0xA PUSH1 0x40 MLOAD DUP1 PUSH1 0x20 ADD PUSH1 0x40 MSTORE DUP1 PUSH1 0x0 DUP2 MSTORE POP PUSH3 0x2F5 PUSH1 0x20 SHL PUSH1 0x20 SHR JUMP JUMPDEST PUSH3 0xDB CALLER PUSH2 0x191 PUSH1 0x14 PUSH1 0x40 MLOAD DUP1 PUSH1 0x20 ADD PUSH1 0x40 MSTORE DUP1 PUSH1 0x0 DUP2 MSTORE POP PUSH3 0x2F5 PUSH1 0x20 SHL PUSH1 0x20 SHR JUMP JUMPDEST PUSH3 0x101 CALLER PUSH2 0x192 PUSH1 0x28 PUSH1 0x40 MLOAD DUP1 PUSH1 0x20 ADD PUSH1 0x40 MSTORE DUP1 PUSH1 0x0 DUP2 MSTORE POP PUSH3 0x2F5 PUSH1 0x20 SHL PUSH1 0x20 SHR JUMP JUMPDEST PUSH3 0x127 CALLER PUSH2 0x193 PUSH1 0x3C PUSH1 0x40 MLOAD DUP1 PUSH1 0x20 ADD PUSH1 0x40 MSTORE DUP1 PUSH1 0x0 DUP2 MSTORE POP PUSH3 0x2F5 PUSH1 0x20 SHL PUSH1 0x20 SHR JUMP JUMPDEST PUSH3 0x14D CALLER PUSH2 0x194 PUSH1 0x46 PUSH1 0x40 MLOAD DUP1 PUSH1 0x20 ADD PUSH1 0x40 MSTORE DUP1 PUSH1 0x0 DUP2 MSTORE POP PUSH3 0x2F5 PUSH1 0x20 SHL PUSH1 0x20 SHR JUMP JUMPDEST PUSH1 0x1 PUSH1 0x8 DUP2 SWAP1 SSTORE POP DUP3 PUSH1 0xB PUSH1 0x0 PUSH2 0x100 EXP DUP2 SLOAD DUP2 PUSH20 0xFFFFFFFFFFFFFFFFFFFFFFFFFFFFFFFFFFFFFFFF MUL NOT AND SWAP1 DUP4 PUSH20 0xFFFFFFFFFFFFFFFFFFFFFFFFFFFFFFFFFFFFFFFF AND MUL OR SWAP1 SSTORE POP PUSH3 0x1A7 DUP3 PUSH3 0x4DC PUSH1 0x20 SHL PUSH1 0x20 SHR JUMP JUMPDEST POP PUSH3 0x1B8 PUSH3 0x572 PUSH1 0x20 SHL PUSH1 0x20 SHR JUMP JUMPDEST PUSH3 0x1C8 PUSH3 0x97D PUSH1 0x20 SHL PUSH1 0x20 SHR JUMP JUMPDEST DUP1 PUSH1 0x7 PUSH1 0x0 PUSH2 0x100 EXP DUP2 SLOAD DUP2 PUSH20 0xFFFFFFFFFFFFFFFFFFFFFFFFFFFFFFFFFFFFFFFF MUL NOT AND SWAP1 DUP4 PUSH20 0xFFFFFFFFFFFFFFFFFFFFFFFFFFFFFFFFFFFFFFFF AND MUL OR SWAP1 SSTORE POP POP POP POP PUSH3 0x1B83 JUMP JUMPDEST DUP1 PUSH1 0x2 SWAP1 DUP2 PUSH3 0x223 SWAP2 SWAP1 PUSH3 0x138F JUMP JUMPDEST POP POP JUMP JUMPDEST PUSH1 0x0 CALLER SWAP1 POP SWAP1 JUMP JUMPDEST PUSH1 0x0 PUSH1 0x3 PUSH1 0x0 SWAP1 SLOAD SWAP1 PUSH2 0x100 EXP SWAP1 DIV PUSH20 0xFFFFFFFFFFFFFFFFFFFFFFFFFFFFFFFFFFFFFFFF AND SWAP1 POP DUP2 PUSH1 0x3 PUSH1 0x0 PUSH2 0x100 EXP DUP2 SLOAD DUP2 PUSH20 0xFFFFFFFFFFFFFFFFFFFFFFFFFFFFFFFFFFFFFFFF MUL NOT AND SWAP1 DUP4 PUSH20 0xFFFFFFFFFFFFFFFFFFFFFFFFFFFFFFFFFFFFFFFF AND MUL OR SWAP1 SSTORE POP DUP2 PUSH20 0xFFFFFFFFFFFFFFFFFFFFFFFFFFFFFFFFFFFFFFFF AND DUP2 PUSH20 0xFFFFFFFFFFFFFFFFFFFFFFFFFFFFFFFFFFFFFFFF AND PUSH32 0x8BE0079C531659141344CD1FD0A4F28419497F9722A3DAAFE3B4186F6B6457E0 PUSH1 0x40 MLOAD PUSH1 0x40 MLOAD DUP1 SWAP2 SUB SWAP1 LOG3 POP POP JUMP JUMPDEST PUSH1 0x0 PUSH20 0xFFFFFFFFFFFFFFFFFFFFFFFFFFFFFFFFFFFFFFFF AND DUP5 PUSH20 0xFFFFFFFFFFFFFFFFFFFFFFFFFFFFFFFFFFFFFFFF AND SUB PUSH3 0x367 JUMPI PUSH1 0x40 MLOAD PUSH32 0x8C379A000000000000000000000000000000000000000000000000000000000 DUP2 MSTORE PUSH1 0x4 ADD PUSH3 0x35E SWAP1 PUSH3 0x14FD JUMP JUMPDEST PUSH1 0x40 MLOAD DUP1 SWAP2 SUB SWAP1 REVERT JUMPDEST PUSH1 0x0 PUSH3 0x379 PUSH3 0x227 PUSH1 0x20 SHL PUSH1 0x20 SHR JUMP JUMPDEST SWAP1 POP PUSH1 0x0 PUSH3 0x38E DUP6 PUSH3 0xA38 PUSH1 0x20 SHL PUSH1 0x20 SHR JUMP JUMPDEST SWAP1 POP PUSH1 0x0 PUSH3 0x3A3 DUP6 PUSH3 0xA38 PUSH1 0x20 SHL PUSH1 0x20 SHR JUMP JUMPDEST SWAP1 POP PUSH3 0x3BC DUP4 PUSH1 0x0 DUP10 DUP6 DUP6 DUP10 PUSH3 0xAB9 PUSH1 0x20 SHL PUSH1 0x20 SHR JUMP JUMPDEST DUP5 PUSH1 0x0 DUP1 DUP9 DUP2 MSTORE PUSH1 0x20 ADD SWAP1 DUP2 MSTORE PUSH1 0x20 ADD PUSH1 0x0 KECCAK256 PUSH1 0x0 DUP10 PUSH20 0xFFFFFFFFFFFFFFFFFFFFFFFFFFFFFFFFFFFFFFFF AND PUSH20 0xFFFFFFFFFFFFFFFFFFFFFFFFFFFFFFFFFFFFFFFF AND DUP2 MSTORE PUSH1 0x20 ADD SWAP1 DUP2 MSTORE PUSH1 0x20 ADD PUSH1 0x0 KECCAK256 PUSH1 0x0 DUP3 DUP3 SLOAD PUSH3 0x41D SWAP2 SWAP1 PUSH3 0x154E JUMP JUMPDEST SWAP3 POP POP DUP2 SWAP1 SSTORE POP DUP7 PUSH20 0xFFFFFFFFFFFFFFFFFFFFFFFFFFFFFFFFFFFFFFFF AND PUSH1 0x0 PUSH20 0xFFFFFFFFFFFFFFFFFFFFFFFFFFFFFFFFFFFFFFFF AND DUP5 PUSH20 0xFFFFFFFFFFFFFFFFFFFFFFFFFFFFFFFFFFFFFFFF AND PUSH32 0xC3D58168C5AE7397731D063D5BBF3D657854427343F4C083240F7AACAA2D0F62 DUP10 DUP10 PUSH1 0x40 MLOAD PUSH3 0x49D SWAP3 SWAP2 SWAP1 PUSH3 0x159A JUMP JUMPDEST PUSH1 0x40 MLOAD DUP1 SWAP2 SUB SWAP1 LOG4 PUSH3 0x4BC DUP4 PUSH1 0x0 DUP10 DUP6 DUP6 DUP10 PUSH3 0xADC PUSH1 0x20 SHL PUSH1 0x20 SHR JUMP JUMPDEST PUSH3 0x4D3 DUP4 PUSH1 0x0 DUP10 DUP10 DUP10 DUP10 PUSH3 0xAE4 PUSH1 0x20 SHL PUSH1 0x20 SHR JUMP JUMPDEST POP POP POP POP POP POP POP JUMP JUMPDEST PUSH1 0x0 PUSH3 0x4EE PUSH3 0xCDD PUSH1 0x20 SHL PUSH1 0x20 SHR JUMP JUMPDEST PUSH1 0x0 PUSH20 0xFFFFFFFFFFFFFFFFFFFFFFFFFFFFFFFFFFFFFFFF AND DUP3 PUSH20 0xFFFFFFFFFFFFFFFFFFFFFFFFFFFFFFFFFFFFFFFF AND SUB PUSH3 0x528 JUMPI PUSH1 0x0 DUP1 REVERT JUMPDEST DUP2 PUSH1 0x5 PUSH1 0x0 PUSH2 0x100 EXP DUP2 SLOAD DUP2 PUSH20 0xFFFFFFFFFFFFFFFFFFFFFFFFFFFFFFFFFFFFFFFF MUL NOT AND SWAP1 DUP4 PUSH20 0xFFFFFFFFFFFFFFFFFFFFFFFFFFFFFFFFFFFFFFFF AND MUL OR SWAP1 SSTORE POP PUSH1 0x1 SWAP1 POP SWAP2 SWAP1 POP JUMP JUMPDEST PUSH3 0x582 PUSH3 0xCDD PUSH1 0x20 SHL PUSH1 0x20 SHR JUMP JUMPDEST PUSH1 0x0 JUMPDEST PUSH1 0x4 DUP2 LT ISZERO PUSH3 0x5CF JUMPI PUSH1 0x9 PUSH1 0x0 SWAP1 DUP1 PUSH1 0x1 DUP2 SLOAD ADD DUP1 DUP3 SSTORE DUP1 SWAP2 POP POP PUSH1 0x1 SWAP1 SUB SWAP1 PUSH1 0x0 MSTORE PUSH1 0x20 PUSH1 0x0 KECCAK256 ADD PUSH1 0x0 SWAP1 SWAP2 SWAP1 SWAP2 SWAP1 SWAP2 POP SSTORE DUP1 DUP1 PUSH3 0x5C6 SWAP1 PUSH3 0x15C7 JUMP JUMPDEST SWAP2 POP POP PUSH3 0x585 JUMP JUMPDEST POP PUSH1 0x0 JUMPDEST PUSH1 0x3 DUP2 LT ISZERO PUSH3 0x61D JUMPI PUSH1 0x9 PUSH1 0x1 SWAP1 DUP1 PUSH1 0x1 DUP2 SLOAD ADD DUP1 DUP3 SSTORE DUP1 SWAP2 POP POP PUSH1 0x1 SWAP1 SUB SWAP1 PUSH1 0x0 MSTORE PUSH1 0x20 PUSH1 0x0 KECCAK256 ADD PUSH1 0x0 SWAP1 SWAP2 SWAP1 SWAP2 SWAP1 SWAP2 POP SSTORE DUP1 DUP1 PUSH3 0x614 SWAP1 PUSH3 0x15C7 JUMP JUMPDEST SWAP2 POP POP PUSH3 0x5D3 JUMP JUMPDEST POP PUSH1 0x0 JUMPDEST PUSH1 0x2 DUP2 LT ISZERO PUSH3 0x66B JUMPI PUSH1 0x9 PUSH1 0x2 SWAP1 DUP1 PUSH1 0x1 DUP2 SLOAD ADD DUP1 DUP3 SSTORE DUP1 SWAP2 POP POP PUSH1 0x1 SWAP1 SUB SWAP1 PUSH1 0x0 MSTORE PUSH1 0x20 PUSH1 0x0 KECCAK256 ADD PUSH1 0x0 SWAP1 SWAP2 SWAP1 SWAP2 SWAP1 SWAP2 POP SSTORE DUP1 DUP1 PUSH3 0x662 SWAP1 PUSH3 0x15C7 JUMP JUMPDEST SWAP2 POP POP PUSH3 0x621 JUMP JUMPDEST POP PUSH1 0x0 JUMPDEST PUSH1 0x1 DUP2 LT ISZERO PUSH3 0x6B9 JUMPI PUSH1 0x9 PUSH1 0x3 SWAP1 DUP1 PUSH1 0x1 DUP2 SLOAD ADD DUP1 DUP3 SSTORE DUP1 SWAP2 POP POP PUSH1 0x1 SWAP1 SUB SWAP1 PUSH1 0x0 MSTORE PUSH1 0x20 PUSH1 0x0 KECCAK256 ADD PUSH1 0x0 SWAP1 SWAP2 SWAP1 SWAP2 SWAP1 SWAP2 POP SSTORE DUP1 DUP1 PUSH3 0x6B0 SWAP1 PUSH3 0x15C7 JUMP JUMPDEST SWAP2 POP POP PUSH3 0x66F JUMP JUMPDEST POP PUSH1 0x0 JUMPDEST PUSH1 0x4 DUP2 LT ISZERO PUSH3 0x707 JUMPI PUSH1 0x9 PUSH1 0x64 SWAP1 DUP1 PUSH1 0x1 DUP2 SLOAD ADD DUP1 DUP3 SSTORE DUP1 SWAP2 POP POP PUSH1 0x1 SWAP1 SUB SWAP1 PUSH1 0x0 MSTORE PUSH1 0x20 PUSH1 0x0 KECCAK256 ADD PUSH1 0x0 SWAP1 SWAP2 SWAP1 SWAP2 SWAP1 SWAP2 POP SSTORE DUP1 DUP1 PUSH3 0x6FE SWAP1 PUSH3 0x15C7 JUMP JUMPDEST SWAP2 POP POP PUSH3 0x6BD JUMP JUMPDEST POP PUSH1 0x0 JUMPDEST PUSH1 0x3 DUP2 LT ISZERO PUSH3 0x755 JUMPI PUSH1 0x9 PUSH1 0x65 SWAP1 DUP1 PUSH1 0x1 DUP2 SLOAD ADD DUP1 DUP3 SSTORE DUP1 SWAP2 POP POP PUSH1 0x1 SWAP1 SUB SWAP1 PUSH1 0x0 MSTORE PUSH1 0x20 PUSH1 0x0 KECCAK256 ADD PUSH1 0x0 SWAP1 SWAP2 SWAP1 SWAP2 SWAP1 SWAP2 POP SSTORE DUP1 DUP1 PUSH3 0x74C SWAP1 PUSH3 0x15C7 JUMP JUMPDEST SWAP2 POP POP PUSH3 0x70B JUMP JUMPDEST POP PUSH1 0x0 JUMPDEST PUSH1 0x2 DUP2 LT ISZERO PUSH3 0x7A3 JUMPI PUSH1 0x9 PUSH1 0x66 SWAP1 DUP1 PUSH1 0x1 DUP2 SLOAD ADD DUP1 DUP3 SSTORE DUP1 SWAP2 POP POP PUSH1 0x1 SWAP1 SUB SWAP1 PUSH1 0x0 MSTORE PUSH1 0x20 PUSH1 0x0 KECCAK256 ADD PUSH1 0x0 SWAP1 SWAP2 SWAP1 SWAP2 SWAP1 SWAP2 POP SSTORE DUP1 DUP1 PUSH3 0x79A SWAP1 PUSH3 0x15C7 JUMP JUMPDEST SWAP2 POP POP PUSH3 0x759 JUMP JUMPDEST POP PUSH1 0x0 JUMPDEST PUSH1 0x4 DUP2 LT ISZERO PUSH3 0x7F1 JUMPI PUSH1 0x9 PUSH1 0xC8 SWAP1 DUP1 PUSH1 0x1 DUP2 SLOAD ADD DUP1 DUP3 SSTORE DUP1 SWAP2 POP POP PUSH1 0x1 SWAP1 SUB SWAP1 PUSH1 0x0 MSTORE PUSH1 0x20 PUSH1 0x0 KECCAK256 ADD PUSH1 0x0 SWAP1 SWAP2 SWAP1 SWAP2 SWAP1 SWAP2 POP SSTORE DUP1 DUP1 PUSH3 0x7E8 SWAP1 PUSH3 0x15C7 JUMP JUMPDEST SWAP2 POP POP PUSH3 0x7A7 JUMP JUMPDEST POP PUSH1 0x0 JUMPDEST PUSH1 0x3 DUP2 LT ISZERO PUSH3 0x83F JUMPI PUSH1 0x9 PUSH1 0xC9 SWAP1 DUP1 PUSH1 0x1 DUP2 SLOAD ADD DUP1 DUP3 SSTORE DUP1 SWAP2 POP POP PUSH1 0x1 SWAP1 SUB SWAP1 PUSH1 0x0 MSTORE PUSH1 0x20 PUSH1 0x0 KECCAK256 ADD PUSH1 0x0 SWAP1 SWAP2 SWAP1 SWAP2 SWAP1 SWAP2 POP SSTORE DUP1 DUP1 PUSH3 0x836 SWAP1 PUSH3 0x15C7 JUMP JUMPDEST SWAP2 POP POP PUSH3 0x7F5 JUMP JUMPDEST POP PUSH1 0x0 JUMPDEST PUSH1 0x2 DUP2 LT ISZERO PUSH3 0x88D JUMPI PUSH1 0x9 PUSH1 0xCA SWAP1 DUP1 PUSH1 0x1 DUP2 SLOAD ADD DUP1 DUP3 SSTORE DUP1 SWAP2 POP POP PUSH1 0x1 SWAP1 SUB SWAP1 PUSH1 0x0 MSTORE PUSH1 0x20 PUSH1 0x0 KECCAK256 ADD PUSH1 0x0 SWAP1 SWAP2 SWAP1 SWAP2 SWAP1 SWAP2 POP SSTORE DUP1 DUP1 PUSH3 0x884 SWAP1 PUSH3 0x15C7 JUMP JUMPDEST SWAP2 POP POP PUSH3 0x843 JUMP JUMPDEST POP PUSH1 0x0 JUMPDEST PUSH1 0x4 DUP2 LT ISZERO PUSH3 0x8DC JUMPI PUSH1 0x9 PUSH2 0x12C SWAP1 DUP1 PUSH1 0x1 DUP2 SLOAD ADD DUP1 DUP3 SSTORE DUP1 SWAP2 POP POP PUSH1 0x1 SWAP1 SUB SWAP1 PUSH1 0x0 MSTORE PUSH1 0x20 PUSH1 0x0 KECCAK256 ADD PUSH1 0x0 SWAP1 SWAP2 SWAP1 SWAP2 SWAP1 SWAP2 POP SSTORE DUP1 DUP1 PUSH3 0x8D3 SWAP1 PUSH3 0x15C7 JUMP JUMPDEST SWAP2 POP POP PUSH3 0x891 JUMP JUMPDEST POP PUSH1 0x0 JUMPDEST PUSH1 0x3 DUP2 LT ISZERO PUSH3 0x92B JUMPI PUSH1 0x9 PUSH2 0x12D SWAP1 DUP1 PUSH1 0x1 DUP2 SLOAD ADD DUP1 DUP3 SSTORE DUP1 SWAP2 POP POP PUSH1 0x1 SWAP1 SUB SWAP1 PUSH1 0x0 MSTORE PUSH1 0x20 PUSH1 0x0 KECCAK256 ADD PUSH1 0x0 SWAP1 SWAP2 SWAP1 SWAP2 SWAP1 SWAP2 POP SSTORE DUP1 DUP1 PUSH3 0x922 SWAP1 PUSH3 0x15C7 JUMP JUMPDEST SWAP2 POP POP PUSH3 0x8E0 JUMP JUMPDEST POP PUSH1 0x0 JUMPDEST PUSH1 0x2 DUP2 LT ISZERO PUSH3 0x97A JUMPI PUSH1 0x9 PUSH2 0x12E SWAP1 DUP1 PUSH1 0x1 DUP2 SLOAD ADD DUP1 DUP3 SSTORE DUP1 SWAP2 POP POP PUSH1 0x1 SWAP1 SUB SWAP1 PUSH1 0x0 MSTORE PUSH1 0x20 PUSH1 0x0 KECCAK256 ADD PUSH1 0x0 SWAP1 SWAP2 SWAP1 SWAP2 SWAP1 SWAP2 POP SSTORE DUP1 DUP1 PUSH3 0x971 SWAP1 PUSH3 0x15C7 JUMP JUMPDEST SWAP2 POP POP PUSH3 0x92F JUMP JUMPDEST POP JUMP JUMPDEST PUSH3 0x98D PUSH3 0xCDD PUSH1 0x20 SHL PUSH1 0x20 SHR JUMP JUMPDEST PUSH1 0xA PUSH1 0x0 SWAP1 DUP1 PUSH1 0x1 DUP2 SLOAD ADD DUP1 DUP3 SSTORE DUP1 SWAP2 POP POP PUSH1 0x1 SWAP1 SUB SWAP1 PUSH1 0x0 MSTORE PUSH1 0x20 PUSH1 0x0 KECCAK256 ADD PUSH1 0x0 SWAP1 SWAP2 SWAP1 SWAP2 SWAP1 SWAP2 POP SSTORE PUSH1 0xA PUSH1 0x64 SWAP1 DUP1 PUSH1 0x1 DUP2 SLOAD ADD DUP1 DUP3 SSTORE DUP1 SWAP2 POP POP PUSH1 0x1 SWAP1 SUB SWAP1 PUSH1 0x0 MSTORE PUSH1 0x20 PUSH1 0x0 KECCAK256 ADD PUSH1 0x0 SWAP1 SWAP2 SWAP1 SWAP2 SWAP1 SWAP2 POP SSTORE PUSH1 0xA PUSH1 0xC8 SWAP1 DUP1 PUSH1 0x1 DUP2 SLOAD ADD DUP1 DUP3 SSTORE DUP1 SWAP2 POP POP PUSH1 0x1 SWAP1 SUB SWAP1 PUSH1 0x0 MSTORE PUSH1 0x20 PUSH1 0x0 KECCAK256 ADD PUSH1 0x0 SWAP1 SWAP2 SWAP1 SWAP2 SWAP1 SWAP2 POP SSTORE PUSH1 0xA PUSH2 0x12C SWAP1 DUP1 PUSH1 0x1 DUP2 SLOAD ADD DUP1 DUP3 SSTORE DUP1 SWAP2 POP POP PUSH1 0x1 SWAP1 SUB SWAP1 PUSH1 0x0 MSTORE PUSH1 0x20 PUSH1 0x0 KECCAK256 ADD PUSH1 0x0 SWAP1 SWAP2 SWAP1 SWAP2 SWAP1 SWAP2 POP SSTORE JUMP JUMPDEST PUSH1 0x60 PUSH1 0x0 PUSH1 0x1 PUSH8 0xFFFFFFFFFFFFFFFF DUP2 GT ISZERO PUSH3 0xA5A JUMPI PUSH3 0xA59 PUSH3 0x1120 JUMP JUMPDEST JUMPDEST PUSH1 0x40 MLOAD SWAP1 DUP1 DUP3 MSTORE DUP1 PUSH1 0x20 MUL PUSH1 0x20 ADD DUP3 ADD PUSH1 0x40 MSTORE DUP1 ISZERO PUSH3 0xA89 JUMPI DUP2 PUSH1 0x20 ADD PUSH1 0x20 DUP3 MUL DUP1 CALLDATASIZE DUP4 CALLDATACOPY DUP1 DUP3 ADD SWAP2 POP POP SWAP1 POP JUMPDEST POP SWAP1 POP DUP3 DUP2 PUSH1 0x0 DUP2 MLOAD DUP2 LT PUSH3 0xAA4 JUMPI PUSH3 0xAA3 PUSH3 0x1614 JUMP JUMPDEST JUMPDEST PUSH1 0x20 MUL PUSH1 0x20 ADD ADD DUP2 DUP2 MSTORE POP POP DUP1 SWAP2 POP POP SWAP2 SWAP1 POP JUMP JUMPDEST PUSH3 0xAD4 DUP7 DUP7 DUP7 DUP7 DUP7 DUP7 PUSH3 0xD6E PUSH1 0x20 SHL PUSH3 0x1496 OR PUSH1 0x20 SHR JUMP JUMPDEST POP POP POP POP POP POP JUMP JUMPDEST POP POP POP POP POP POP JUMP JUMPDEST PUSH3 0xB10 DUP5 PUSH20 0xFFFFFFFFFFFFFFFFFFFFFFFFFFFFFFFFFFFFFFFF AND PUSH3 0xF66 PUSH1 0x20 SHL PUSH3 0x1666 OR PUSH1 0x20 SHR JUMP JUMPDEST ISZERO PUSH3 0xCD5 JUMPI DUP4 PUSH20 0xFFFFFFFFFFFFFFFFFFFFFFFFFFFFFFFFFFFFFFFF AND PUSH4 0xF23A6E61 DUP8 DUP8 DUP7 DUP7 DUP7 PUSH1 0x40 MLOAD DUP7 PUSH4 0xFFFFFFFF AND PUSH1 0xE0 SHL DUP2 MSTORE PUSH1 0x4 ADD PUSH3 0xB59 SWAP6 SWAP5 SWAP4 SWAP3 SWAP2 SWAP1 PUSH3 0x16EE JUMP JUMPDEST PUSH1 0x20 PUSH1 0x40 MLOAD DUP1 DUP4 SUB DUP2 PUSH1 0x0 DUP8 GAS CALL SWAP3 POP POP POP DUP1 ISZERO PUSH3 0xB98 JUMPI POP PUSH1 0x40 MLOAD RETURNDATASIZE PUSH1 0x1F NOT PUSH1 0x1F DUP3 ADD AND DUP3 ADD DUP1 PUSH1 0x40 MSTORE POP DUP2 ADD SWAP1 PUSH3 0xB95 SWAP2 SWAP1 PUSH3 0x17AF JUMP JUMPDEST PUSH1 0x1 JUMPDEST PUSH3 0xC49 JUMPI PUSH3 0xBA7 PUSH3 0x17EE JUMP JUMPDEST DUP1 PUSH4 0x8C379A0 SUB PUSH3 0xC0A JUMPI POP PUSH3 0xBBE PUSH3 0x1849 JUMP JUMPDEST DUP1 PUSH3 0xBCB JUMPI POP PUSH3 0xC0C JUMP JUMPDEST DUP1 PUSH1 0x40 MLOAD PUSH32 0x8C379A000000000000000000000000000000000000000000000000000000000 DUP2 MSTORE PUSH1 0x4 ADD PUSH3 0xC01 SWAP2 SWAP1 PUSH3 0x1925 JUMP JUMPDEST PUSH1 0x40 MLOAD DUP1 SWAP2 SUB SWAP1 REVERT JUMPDEST POP JUMPDEST PUSH1 0x40 MLOAD PUSH32 0x8C379A000000000000000000000000000000000000000000000000000000000 DUP2 MSTORE PUSH1 0x4 ADD PUSH3 0xC40 SWAP1 PUSH3 0x19BF JUMP JUMPDEST PUSH1 0x40 MLOAD DUP1 SWAP2 SUB SWAP1 REVERT JUMPDEST PUSH4 0xF23A6E61 PUSH1 0xE0 SHL PUSH28 0xFFFFFFFFFFFFFFFFFFFFFFFFFFFFFFFFFFFFFFFFFFFFFFFFFFFFFFFF NOT AND DUP2 PUSH28 0xFFFFFFFFFFFFFFFFFFFFFFFFFFFFFFFFFFFFFFFFFFFFFFFFFFFFFFFF NOT AND EQ PUSH3 0xCD3 JUMPI PUSH1 0x40 MLOAD PUSH32 0x8C379A000000000000000000000000000000000000000000000000000000000 DUP2 MSTORE PUSH1 0x4 ADD PUSH3 0xCCA SWAP1 PUSH3 0x1A57 JUMP JUMPDEST PUSH1 0x40 MLOAD DUP1 SWAP2 SUB SWAP1 REVERT JUMPDEST POP JUMPDEST POP POP POP POP POP POP JUMP JUMPDEST PUSH3 0xCED PUSH3 0x227 PUSH1 0x20 SHL PUSH1 0x20 SHR JUMP JUMPDEST PUSH20 0xFFFFFFFFFFFFFFFFFFFFFFFFFFFFFFFFFFFFFFFF AND PUSH3 0xD13 PUSH3 0xF89 PUSH1 0x20 SHL PUSH1 0x20 SHR JUMP JUMPDEST PUSH20 0xFFFFFFFFFFFFFFFFFFFFFFFFFFFFFFFFFFFFFFFF AND EQ PUSH3 0xD6C JUMPI PUSH1 0x40 MLOAD PUSH32 0x8C379A000000000000000000000000000000000000000000000000000000000 DUP2 MSTORE PUSH1 0x4 ADD PUSH3 0xD63 SWAP1 PUSH3 0x1AC9 JUMP JUMPDEST PUSH1 0x40 MLOAD DUP1 SWAP2 SUB SWAP1 REVERT JUMPDEST JUMP JUMPDEST PUSH3 0xD89 DUP7 DUP7 DUP7 DUP7 DUP7 DUP7 PUSH3 0xFB3 PUSH1 0x20 SHL PUSH3 0x1689 OR PUSH1 0x20 SHR JUMP JUMPDEST PUSH1 0x0 PUSH20 0xFFFFFFFFFFFFFFFFFFFFFFFFFFFFFFFFFFFFFFFF AND DUP6 PUSH20 0xFFFFFFFFFFFFFFFFFFFFFFFFFFFFFFFFFFFFFFFF AND SUB PUSH3 0xE47 JUMPI PUSH1 0x0 JUMPDEST DUP4 MLOAD DUP2 LT ISZERO PUSH3 0xE45 JUMPI DUP3 DUP2 DUP2 MLOAD DUP2 LT PUSH3 0xDE1 JUMPI PUSH3 0xDE0 PUSH3 0x1614 JUMP JUMPDEST JUMPDEST PUSH1 0x20 MUL PUSH1 0x20 ADD ADD MLOAD PUSH1 0x4 PUSH1 0x0 DUP7 DUP5 DUP2 MLOAD DUP2 LT PUSH3 0xE03 JUMPI PUSH3 0xE02 PUSH3 0x1614 JUMP JUMPDEST JUMPDEST PUSH1 0x20 MUL PUSH1 0x20 ADD ADD MLOAD DUP2 MSTORE PUSH1 0x20 ADD SWAP1 DUP2 MSTORE PUSH1 0x20 ADD PUSH1 0x0 KECCAK256 PUSH1 0x0 DUP3 DUP3 SLOAD PUSH3 0xE2A SWAP2 SWAP1 PUSH3 0x154E JUMP JUMPDEST SWAP3 POP POP DUP2 SWAP1 SSTORE POP DUP1 PUSH3 0xE3D SWAP1 PUSH3 0x15C7 JUMP JUMPDEST SWAP1 POP PUSH3 0xDC1 JUMP JUMPDEST POP JUMPDEST PUSH1 0x0 PUSH20 0xFFFFFFFFFFFFFFFFFFFFFFFFFFFFFFFFFFFFFFFF AND DUP5 PUSH20 0xFFFFFFFFFFFFFFFFFFFFFFFFFFFFFFFFFFFFFFFF AND SUB PUSH3 0xF5E JUMPI PUSH1 0x0 JUMPDEST DUP4 MLOAD DUP2 LT ISZERO PUSH3 0xF5C JUMPI PUSH1 0x0 DUP5 DUP3 DUP2 MLOAD DUP2 LT PUSH3 0xEA1 JUMPI PUSH3 0xEA0 PUSH3 0x1614 JUMP JUMPDEST JUMPDEST PUSH1 0x20 MUL PUSH1 0x20 ADD ADD MLOAD SWAP1 POP PUSH1 0x0 DUP5 DUP4 DUP2 MLOAD DUP2 LT PUSH3 0xEC3 JUMPI PUSH3 0xEC2 PUSH3 0x1614 JUMP JUMPDEST JUMPDEST PUSH1 0x20 MUL PUSH1 0x20 ADD ADD MLOAD SWAP1 POP PUSH1 0x0 PUSH1 0x4 PUSH1 0x0 DUP5 DUP2 MSTORE PUSH1 0x20 ADD SWAP1 DUP2 MSTORE PUSH1 0x20 ADD PUSH1 0x0 KECCAK256 SLOAD SWAP1 POP DUP2 DUP2 LT ISZERO PUSH3 0xF2B JUMPI PUSH1 0x40 MLOAD PUSH32 0x8C379A000000000000000000000000000000000000000000000000000000000 DUP2 MSTORE PUSH1 0x4 ADD PUSH3 0xF22 SWAP1 PUSH3 0x1B61 JUMP JUMPDEST PUSH1 0x40 MLOAD DUP1 SWAP2 SUB SWAP1 REVERT JUMPDEST DUP2 DUP2 SUB PUSH1 0x4 PUSH1 0x0 DUP6 DUP2 MSTORE PUSH1 0x20 ADD SWAP1 DUP2 MSTORE PUSH1 0x20 ADD PUSH1 0x0 KECCAK256 DUP2 SWAP1 SSTORE POP POP POP POP DUP1 PUSH3 0xF54 SWAP1 PUSH3 0x15C7 JUMP JUMPDEST SWAP1 POP PUSH3 0xE7F JUMP JUMPDEST POP JUMPDEST POP POP POP POP POP POP JUMP JUMPDEST PUSH1 0x0 DUP1 DUP3 PUSH20 0xFFFFFFFFFFFFFFFFFFFFFFFFFFFFFFFFFFFFFFFF AND EXTCODESIZE GT SWAP1 POP SWAP2 SWAP1 POP JUMP JUMPDEST PUSH1 0x0 PUSH1 0x3 PUSH1 0x0 SWAP1 SLOAD SWAP1 PUSH2 0x100 EXP SWAP1 DIV PUSH20 0xFFFFFFFFFFFFFFFFFFFFFFFFFFFFFFFFFFFFFFFF AND SWAP1 POP SWAP1 JUMP JUMPDEST POP POP POP POP POP POP JUMP JUMPDEST PUSH1 0x0 PUSH1 0x40 MLOAD SWAP1 POP SWAP1 JUMP JUMPDEST PUSH1 0x0 DUP1 REVERT JUMPDEST PUSH1 0x0 PUSH20 0xFFFFFFFFFFFFFFFFFFFFFFFFFFFFFFFFFFFFFFFF DUP3 AND SWAP1 POP SWAP2 SWAP1 POP JUMP JUMPDEST PUSH1 0x0 PUSH3 0xFF7 DUP3 PUSH3 0xFCA JUMP JUMPDEST SWAP1 POP SWAP2 SWAP1 POP JUMP JUMPDEST PUSH3 0x1009 DUP2 PUSH3 0xFEA JUMP JUMPDEST DUP2 EQ PUSH3 0x1015 JUMPI PUSH1 0x0 DUP1 REVERT JUMPDEST POP JUMP JUMPDEST PUSH1 0x0 DUP2 MLOAD SWAP1 POP PUSH3 0x1029 DUP2 PUSH3 0xFFE JUMP JUMPDEST SWAP3 SWAP2 POP POP JUMP JUMPDEST PUSH1 0x0 PUSH3 0x103C DUP3 PUSH3 0xFEA JUMP JUMPDEST SWAP1 POP SWAP2 SWAP1 POP JUMP JUMPDEST PUSH3 0x104E DUP2 PUSH3 0x102F JUMP JUMPDEST DUP2 EQ PUSH3 0x105A JUMPI PUSH1 0x0 DUP1 REVERT JUMPDEST POP JUMP JUMPDEST PUSH1 0x0 DUP2 MLOAD SWAP1 POP PUSH3 0x106E DUP2 PUSH3 0x1043 JUMP JUMPDEST SWAP3 SWAP2 POP POP JUMP JUMPDEST PUSH1 0x0 PUSH3 0x1081 DUP3 PUSH3 0xFCA JUMP JUMPDEST SWAP1 POP SWAP2 SWAP1 POP JUMP JUMPDEST PUSH3 0x1093 DUP2 PUSH3 0x1074 JUMP JUMPDEST DUP2 EQ PUSH3 0x109F JUMPI PUSH1 0x0 DUP1 REVERT JUMPDEST POP JUMP JUMPDEST PUSH1 0x0 DUP2 MLOAD SWAP1 POP PUSH3 0x10B3 DUP2 PUSH3 0x1088 JUMP JUMPDEST SWAP3 SWAP2 POP POP JUMP JUMPDEST PUSH1 0x0 DUP1 PUSH1 0x0 PUSH1 0x60 DUP5 DUP7 SUB SLT ISZERO PUSH3 0x10D5 JUMPI PUSH3 0x10D4 PUSH3 0xFC5 JUMP JUMPDEST JUMPDEST PUSH1 0x0 PUSH3 0x10E5 DUP7 DUP3 DUP8 ADD PUSH3 0x1018 JUMP JUMPDEST SWAP4 POP POP PUSH1 0x20 PUSH3 0x10F8 DUP7 DUP3 DUP8 ADD PUSH3 0x105D JUMP JUMPDEST SWAP3 POP POP PUSH1 0x40 PUSH3 0x110B DUP7 DUP3 DUP8 ADD PUSH3 0x10A2 JUMP JUMPDEST SWAP2 POP POP SWAP3 POP SWAP3 POP SWAP3 JUMP JUMPDEST PUSH1 0x0 DUP2 MLOAD SWAP1 POP SWAP2 SWAP1 POP JUMP JUMPDEST PUSH32 0x4E487B7100000000000000000000000000000000000000000000000000000000 PUSH1 0x0 MSTORE PUSH1 0x41 PUSH1 0x4 MSTORE PUSH1 0x24 PUSH1 0x0 REVERT JUMPDEST PUSH32 0x4E487B7100000000000000000000000000000000000000000000000000000000 PUSH1 0x0 MSTORE PUSH1 0x22 PUSH1 0x4 MSTORE PUSH1 0x24 PUSH1 0x0 REVERT JUMPDEST PUSH1 0x0 PUSH1 0x2 DUP3 DIV SWAP1 POP PUSH1 0x1 DUP3 AND DUP1 PUSH3 0x1197 JUMPI PUSH1 0x7F DUP3 AND SWAP2 POP JUMPDEST PUSH1 0x20 DUP3 LT DUP2 SUB PUSH3 0x11AD JUMPI PUSH3 0x11AC PUSH3 0x114F JUMP JUMPDEST JUMPDEST POP SWAP2 SWAP1 POP JUMP JUMPDEST PUSH1 0x0 DUP2 SWAP1 POP DUP2 PUSH1 0x0 MSTORE PUSH1 0x20 PUSH1 0x0 KECCAK256 SWAP1 POP SWAP2 SWAP1 POP JUMP JUMPDEST PUSH1 0x0 PUSH1 0x20 PUSH1 0x1F DUP4 ADD DIV SWAP1 POP SWAP2 SWAP1 POP JUMP JUMPDEST PUSH1 0x0 DUP3 DUP3 SHL SWAP1 POP SWAP3 SWAP2 POP POP JUMP JUMPDEST PUSH1 0x0 PUSH1 0x8 DUP4 MUL PUSH3 0x1217 PUSH32 0xFFFFFFFFFFFFFFFFFFFFFFFFFFFFFFFFFFFFFFFFFFFFFFFFFFFFFFFFFFFFFFFF DUP3 PUSH3 0x11D8 JUMP JUMPDEST PUSH3 0x1223 DUP7 DUP4 PUSH3 0x11D8 JUMP JUMPDEST SWAP6 POP DUP1 NOT DUP5 AND SWAP4 POP DUP1 DUP7 AND DUP5 OR SWAP3 POP POP POP SWAP4 SWAP3 POP POP POP JUMP JUMPDEST PUSH1 0x0 DUP2 SWAP1 POP SWAP2 SWAP1 POP JUMP JUMPDEST PUSH1 0x0 DUP2 SWAP1 POP SWAP2 SWAP1 POP JUMP JUMPDEST PUSH1 0x0 PUSH3 0x1270 PUSH3 0x126A PUSH3 0x1264 DUP5 PUSH3 0x123B JUMP JUMPDEST PUSH3 0x1245 JUMP JUMPDEST PUSH3 0x123B JUMP JUMPDEST SWAP1 POP SWAP2 SWAP1 POP JUMP JUMPDEST PUSH1 0x0 DUP2 SWAP1 POP SWAP2 SWAP1 POP JUMP JUMPDEST PUSH3 0x128C DUP4 PUSH3 0x124F JUMP JUMPDEST PUSH3 0x12A4 PUSH3 0x129B DUP3 PUSH3 0x1277 JUMP JUMPDEST DUP5 DUP5 SLOAD PUSH3 0x11E5 JUMP JUMPDEST DUP3 SSTORE POP POP POP POP JUMP JUMPDEST PUSH1 0x0 SWAP1 JUMP JUMPDEST PUSH3 0x12BB PUSH3 0x12AC JUMP JUMPDEST PUSH3 0x12C8 DUP2 DUP5 DUP5 PUSH3 0x1281 JUMP JUMPDEST POP POP POP JUMP JUMPDEST JUMPDEST DUP2 DUP2 LT ISZERO PUSH3 0x12F0 JUMPI PUSH3 0x12E4 PUSH1 0x0 DUP3 PUSH3 0x12B1 JUMP JUMPDEST PUSH1 0x1 DUP2 ADD SWAP1 POP PUSH3 0x12CE JUMP JUMPDEST POP POP JUMP JUMPDEST PUSH1 0x1F DUP3 GT ISZERO PUSH3 0x133F JUMPI PUSH3 0x1309 DUP2 PUSH3 0x11B3 JUMP JUMPDEST PUSH3 0x1314 DUP5 PUSH3 0x11C8 JUMP JUMPDEST DUP2 ADD PUSH1 0x20 DUP6 LT ISZERO PUSH3 0x1324 JUMPI DUP2 SWAP1 POP JUMPDEST PUSH3 0x133C PUSH3 0x1333 DUP6 PUSH3 0x11C8 JUMP JUMPDEST DUP4 ADD DUP3 PUSH3 0x12CD JUMP JUMPDEST POP POP JUMPDEST POP POP POP JUMP JUMPDEST PUSH1 0x0 DUP3 DUP3 SHR SWAP1 POP SWAP3 SWAP2 POP POP JUMP JUMPDEST PUSH1 0x0 PUSH3 0x1364 PUSH1 0x0 NOT DUP5 PUSH1 0x8 MUL PUSH3 0x1344 JUMP JUMPDEST NOT DUP1 DUP4 AND SWAP2 POP POP SWAP3 SWAP2 POP POP JUMP JUMPDEST PUSH1 0x0 PUSH3 0x137F DUP4 DUP4 PUSH3 0x1351 JUMP JUMPDEST SWAP2 POP DUP3 PUSH1 0x2 MUL DUP3 OR SWAP1 POP SWAP3 SWAP2 POP POP JUMP JUMPDEST PUSH3 0x139A DUP3 PUSH3 0x1115 JUMP JUMPDEST PUSH8 0xFFFFFFFFFFFFFFFF DUP2 GT ISZERO PUSH3 0x13B6 JUMPI PUSH3 0x13B5 PUSH3 0x1120 JUMP JUMPDEST JUMPDEST PUSH3 0x13C2 DUP3 SLOAD PUSH3 0x117E JUMP JUMPDEST PUSH3 0x13CF DUP3 DUP3 DUP6 PUSH3 0x12F4 JUMP JUMPDEST PUSH1 0x0 PUSH1 0x20 SWAP1 POP PUSH1 0x1F DUP4 GT PUSH1 0x1 DUP2 EQ PUSH3 0x1407 JUMPI PUSH1 0x0 DUP5 ISZERO PUSH3 0x13F2 JUMPI DUP3 DUP8 ADD MLOAD SWAP1 POP JUMPDEST PUSH3 0x13FE DUP6 DUP3 PUSH3 0x1371 JUMP JUMPDEST DUP7 SSTORE POP PUSH3 0x146E JUMP JUMPDEST PUSH1 0x1F NOT DUP5 AND PUSH3 0x1417 DUP7 PUSH3 0x11B3 JUMP JUMPDEST PUSH1 0x0 JUMPDEST DUP3 DUP2 LT ISZERO PUSH3 0x1441 JUMPI DUP5 DUP10 ADD MLOAD DUP3 SSTORE PUSH1 0x1 DUP3 ADD SWAP2 POP PUSH1 0x20 DUP6 ADD SWAP5 POP PUSH1 0x20 DUP2 ADD SWAP1 POP PUSH3 0x141A JUMP JUMPDEST DUP7 DUP4 LT ISZERO PUSH3 0x1461 JUMPI DUP5 DUP10 ADD MLOAD PUSH3 0x145D PUSH1 0x1F DUP10 AND DUP3 PUSH3 0x1351 JUMP JUMPDEST DUP4 SSTORE POP JUMPDEST PUSH1 0x1 PUSH1 0x2 DUP9 MUL ADD DUP9 SSTORE POP POP POP JUMPDEST POP POP POP POP POP POP JUMP JUMPDEST PUSH1 0x0 DUP3 DUP3 MSTORE PUSH1 0x20 DUP3 ADD SWAP1 POP SWAP3 SWAP2 POP POP JUMP JUMPDEST PUSH32 0x455243313135353A206D696E7420746F20746865207A65726F20616464726573 PUSH1 0x0 DUP3 ADD MSTORE PUSH32 0x7300000000000000000000000000000000000000000000000000000000000000 PUSH1 0x20 DUP3 ADD MSTORE POP JUMP JUMPDEST PUSH1 0x0 PUSH3 0x14E5 PUSH1 0x21 DUP4 PUSH3 0x1476 JUMP JUMPDEST SWAP2 POP PUSH3 0x14F2 DUP3 PUSH3 0x1487 JUMP JUMPDEST PUSH1 0x40 DUP3 ADD SWAP1 POP SWAP2 SWAP1 POP JUMP JUMPDEST PUSH1 0x0 PUSH1 0x20 DUP3 ADD SWAP1 POP DUP2 DUP2 SUB PUSH1 0x0 DUP4 ADD MSTORE PUSH3 0x1518 DUP2 PUSH3 0x14D6 JUMP JUMPDEST SWAP1 POP SWAP2 SWAP1 POP JUMP JUMPDEST PUSH32 0x4E487B7100000000000000000000000000000000000000000000000000000000 PUSH1 0x0 MSTORE PUSH1 0x11 PUSH1 0x4 MSTORE PUSH1 0x24 PUSH1 0x0 REVERT JUMPDEST PUSH1 0x0 PUSH3 0x155B DUP3 PUSH3 0x123B JUMP JUMPDEST SWAP2 POP PUSH3 0x1568 DUP4 PUSH3 0x123B JUMP JUMPDEST SWAP3 POP DUP3 DUP3 ADD SWAP1 POP DUP1 DUP3 GT ISZERO PUSH3 0x1583 JUMPI PUSH3 0x1582 PUSH3 0x151F JUMP JUMPDEST JUMPDEST SWAP3 SWAP2 POP POP JUMP JUMPDEST PUSH3 0x1594 DUP2 PUSH3 0x123B JUMP JUMPDEST DUP3 MSTORE POP POP JUMP JUMPDEST PUSH1 0x0 PUSH1 0x40 DUP3 ADD SWAP1 POP PUSH3 0x15B1 PUSH1 0x0 DUP4 ADD DUP6 PUSH3 0x1589 JUMP JUMPDEST PUSH3 0x15C0 PUSH1 0x20 DUP4 ADD DUP5 PUSH3 0x1589 JUMP JUMPDEST SWAP4 SWAP3 POP POP POP JUMP JUMPDEST PUSH1 0x0 PUSH3 0x15D4 DUP3 PUSH3 0x123B JUMP JUMPDEST SWAP2 POP PUSH32 0xFFFFFFFFFFFFFFFFFFFFFFFFFFFFFFFFFFFFFFFFFFFFFFFFFFFFFFFFFFFFFFFF DUP3 SUB PUSH3 0x1609 JUMPI PUSH3 0x1608 PUSH3 0x151F JUMP JUMPDEST JUMPDEST PUSH1 0x1 DUP3 ADD SWAP1 POP SWAP2 SWAP1 POP JUMP JUMPDEST PUSH32 0x4E487B7100000000000000000000000000000000000000000000000000000000 PUSH1 0x0 MSTORE PUSH1 0x32 PUSH1 0x4 MSTORE PUSH1 0x24 PUSH1 0x0 REVERT JUMPDEST PUSH3 0x164E DUP2 PUSH3 0xFEA JUMP JUMPDEST DUP3 MSTORE POP POP JUMP JUMPDEST PUSH1 0x0 DUP2 MLOAD SWAP1 POP SWAP2 SWAP1 POP JUMP JUMPDEST PUSH1 0x0 DUP3 DUP3 MSTORE PUSH1 0x20 DUP3 ADD SWAP1 POP SWAP3 SWAP2 POP POP JUMP JUMPDEST PUSH1 0x0 JUMPDEST DUP4 DUP2 LT ISZERO PUSH3 0x1690 JUMPI DUP1 DUP3 ADD MLOAD DUP2 DUP5 ADD MSTORE PUSH1 0x20 DUP2 ADD SWAP1 POP PUSH3 0x1673 JUMP JUMPDEST PUSH1 0x0 DUP5 DUP5 ADD MSTORE POP POP POP POP JUMP JUMPDEST PUSH1 0x0 PUSH1 0x1F NOT PUSH1 0x1F DUP4 ADD AND SWAP1 POP SWAP2 SWAP1 POP JUMP JUMPDEST PUSH1 0x0 PUSH3 0x16BA DUP3 PUSH3 0x1654 JUMP JUMPDEST PUSH3 0x16C6 DUP2 DUP6 PUSH3 0x165F JUMP JUMPDEST SWAP4 POP PUSH3 0x16D8 DUP2 DUP6 PUSH1 0x20 DUP7 ADD PUSH3 0x1670 JUMP JUMPDEST PUSH3 0x16E3 DUP2 PUSH3 0x169C JUMP JUMPDEST DUP5 ADD SWAP2 POP POP SWAP3 SWAP2 POP POP JUMP JUMPDEST PUSH1 0x0 PUSH1 0xA0 DUP3 ADD SWAP1 POP PUSH3 0x1705 PUSH1 0x0 DUP4 ADD DUP9 PUSH3 0x1643 JUMP JUMPDEST PUSH3 0x1714 PUSH1 0x20 DUP4 ADD DUP8 PUSH3 0x1643 JUMP JUMPDEST PUSH3 0x1723 PUSH1 0x40 DUP4 ADD DUP7 PUSH3 0x1589 JUMP JUMPDEST PUSH3 0x1732 PUSH1 0x60 DUP4 ADD DUP6 PUSH3 0x1589 JUMP JUMPDEST DUP2 DUP2 SUB PUSH1 0x80 DUP4 ADD MSTORE PUSH3 0x1746 DUP2 DUP5 PUSH3 0x16AD JUMP JUMPDEST SWAP1 POP SWAP7 SWAP6 POP POP POP POP POP POP JUMP JUMPDEST PUSH1 0x0 PUSH32 0xFFFFFFFF00000000000000000000000000000000000000000000000000000000 DUP3 AND SWAP1 POP SWAP2 SWAP1 POP JUMP JUMPDEST PUSH3 0x1789 DUP2 PUSH3 0x1752 JUMP JUMPDEST DUP2 EQ PUSH3 0x1795 JUMPI PUSH1 0x0 DUP1 REVERT JUMPDEST POP JUMP JUMPDEST PUSH1 0x0 DUP2 MLOAD SWAP1 POP PUSH3 0x17A9 DUP2 PUSH3 0x177E JUMP JUMPDEST SWAP3 SWAP2 POP POP JUMP JUMPDEST PUSH1 0x0 PUSH1 0x20 DUP3 DUP5 SUB SLT ISZERO PUSH3 0x17C8 JUMPI PUSH3 0x17C7 PUSH3 0xFC5 JUMP JUMPDEST JUMPDEST PUSH1 0x0 PUSH3 0x17D8 DUP5 DUP3 DUP6 ADD PUSH3 0x1798 JUMP JUMPDEST SWAP2 POP POP SWAP3 SWAP2 POP POP JUMP JUMPDEST PUSH1 0x0 DUP2 PUSH1 0xE0 SHR SWAP1 POP SWAP2 SWAP1 POP JUMP JUMPDEST PUSH1 0x0 PUSH1 0x3 RETURNDATASIZE GT ISZERO PUSH3 0x1810 JUMPI PUSH1 0x4 PUSH1 0x0 DUP1 RETURNDATACOPY PUSH3 0x180D PUSH1 0x0 MLOAD PUSH3 0x17E1 JUMP JUMPDEST SWAP1 POP JUMPDEST SWAP1 JUMP JUMPDEST PUSH3 0x181E DUP3 PUSH3 0x169C JUMP JUMPDEST DUP2 ADD DUP2 DUP2 LT PUSH8 0xFFFFFFFFFFFFFFFF DUP3 GT OR ISZERO PUSH3 0x1840 JUMPI PUSH3 0x183F PUSH3 0x1120 JUMP JUMPDEST JUMPDEST DUP1 PUSH1 0x40 MSTORE POP POP POP JUMP JUMPDEST PUSH1 0x0 PUSH1 0x44 RETURNDATASIZE LT PUSH3 0x18E1 JUMPI PUSH3 0x185E PUSH3 0xFBB JUMP JUMPDEST PUSH1 0x4 RETURNDATASIZE SUB PUSH1 0x4 DUP3 RETURNDATACOPY DUP1 MLOAD RETURNDATASIZE PUSH1 0x24 DUP3 ADD GT PUSH8 0xFFFFFFFFFFFFFFFF DUP3 GT OR ISZERO PUSH3 0x1888 JUMPI POP POP PUSH3 0x18E1 JUMP JUMPDEST DUP1 DUP3 ADD DUP1 MLOAD PUSH8 0xFFFFFFFFFFFFFFFF DUP2 GT ISZERO PUSH3 0x18A8 JUMPI POP POP POP POP PUSH3 0x18E1 JUMP JUMPDEST DUP1 PUSH1 0x20 DUP4 ADD ADD PUSH1 0x4 RETURNDATASIZE SUB DUP6 ADD DUP2 GT ISZERO PUSH3 0x18C7 JUMPI POP POP POP POP POP PUSH3 0x18E1 JUMP JUMPDEST PUSH3 0x18D8 DUP3 PUSH1 0x20 ADD DUP6 ADD DUP7 PUSH3 0x1813 JUMP JUMPDEST DUP3 SWAP6 POP POP POP POP POP POP JUMPDEST SWAP1 JUMP JUMPDEST PUSH1 0x0 PUSH3 0x18F1 DUP3 PUSH3 0x1115 JUMP JUMPDEST PUSH3 0x18FD DUP2 DUP6 PUSH3 0x1476 JUMP JUMPDEST SWAP4 POP PUSH3 0x190F DUP2 DUP6 PUSH1 0x20 DUP7 ADD PUSH3 0x1670 JUMP JUMPDEST PUSH3 0x191A DUP2 PUSH3 0x169C JUMP JUMPDEST DUP5 ADD SWAP2 POP POP SWAP3 SWAP2 POP POP JUMP JUMPDEST PUSH1 0x0 PUSH1 0x20 DUP3 ADD SWAP1 POP DUP2 DUP2 SUB PUSH1 0x0 DUP4 ADD MSTORE PUSH3 0x1941 DUP2 DUP5 PUSH3 0x18E4 JUMP JUMPDEST SWAP1 POP SWAP3 SWAP2 POP POP JUMP JUMPDEST PUSH32 0x455243313135353A207472616E7366657220746F206E6F6E2045524331313535 PUSH1 0x0 DUP3 ADD MSTORE PUSH32 0x526563656976657220696D706C656D656E746572000000000000000000000000 PUSH1 0x20 DUP3 ADD MSTORE POP JUMP JUMPDEST PUSH1 0x0 PUSH3 0x19A7 PUSH1 0x34 DUP4 PUSH3 0x1476 JUMP JUMPDEST SWAP2 POP PUSH3 0x19B4 DUP3 PUSH3 0x1949 JUMP JUMPDEST PUSH1 0x40 DUP3 ADD SWAP1 POP SWAP2 SWAP1 POP JUMP JUMPDEST PUSH1 0x0 PUSH1 0x20 DUP3 ADD SWAP1 POP DUP2 DUP2 SUB PUSH1 0x0 DUP4 ADD MSTORE PUSH3 0x19DA DUP2 PUSH3 0x1998 JUMP JUMPDEST SWAP1 POP SWAP2 SWAP1 POP JUMP JUMPDEST PUSH32 0x455243313135353A204552433131353552656365697665722072656A65637465 PUSH1 0x0 DUP3 ADD MSTORE PUSH32 0x6420746F6B656E73000000000000000000000000000000000000000000000000 PUSH1 0x20 DUP3 ADD MSTORE POP JUMP JUMPDEST PUSH1 0x0 PUSH3 0x1A3F PUSH1 0x28 DUP4 PUSH3 0x1476 JUMP JUMPDEST SWAP2 POP PUSH3 0x1A4C DUP3 PUSH3 0x19E1 JUMP JUMPDEST PUSH1 0x40 DUP3 ADD SWAP1 POP SWAP2 SWAP1 POP JUMP JUMPDEST PUSH1 0x0 PUSH1 0x20 DUP3 ADD SWAP1 POP DUP2 DUP2 SUB PUSH1 0x0 DUP4 ADD MSTORE PUSH3 0x1A72 DUP2 PUSH3 0x1A30 JUMP JUMPDEST SWAP1 POP SWAP2 SWAP1 POP JUMP JUMPDEST PUSH32 0x4F776E61626C653A2063616C6C6572206973206E6F7420746865206F776E6572 PUSH1 0x0 DUP3 ADD MSTORE POP JUMP JUMPDEST PUSH1 0x0 PUSH3 0x1AB1 PUSH1 0x20 DUP4 PUSH3 0x1476 JUMP JUMPDEST SWAP2 POP PUSH3 0x1ABE DUP3 PUSH3 0x1A79 JUMP JUMPDEST PUSH1 0x20 DUP3 ADD SWAP1 POP SWAP2 SWAP1 POP JUMP JUMPDEST PUSH1 0x0 PUSH1 0x20 DUP3 ADD SWAP1 POP DUP2 DUP2 SUB PUSH1 0x0 DUP4 ADD MSTORE PUSH3 0x1AE4 DUP2 PUSH3 0x1AA2 JUMP JUMPDEST SWAP1 POP SWAP2 SWAP1 POP JUMP JUMPDEST PUSH32 0x455243313135353A206275726E20616D6F756E74206578636565647320746F74 PUSH1 0x0 DUP3 ADD MSTORE PUSH32 0x616C537570706C79000000000000000000000000000000000000000000000000 PUSH1 0x20 DUP3 ADD MSTORE POP JUMP JUMPDEST PUSH1 0x0 PUSH3 0x1B49 PUSH1 0x28 DUP4 PUSH3 0x1476 JUMP JUMPDEST SWAP2 POP PUSH3 0x1B56 DUP3 PUSH3 0x1AEB JUMP JUMPDEST PUSH1 0x40 DUP3 ADD SWAP1 POP SWAP2 SWAP1 POP JUMP JUMPDEST PUSH1 0x0 PUSH1 0x20 DUP3 ADD SWAP1 POP DUP2 DUP2 SUB PUSH1 0x0 DUP4 ADD MSTORE PUSH3 0x1B7C DUP2 PUSH3 0x1B3A JUMP JUMPDEST SWAP1 POP SWAP2 SWAP1 POP JUMP JUMPDEST PUSH2 0x4CA5 DUP1 PUSH3 0x1B93 PUSH1 0x0 CODECOPY PUSH1 0x0 RETURN INVALID PUSH1 0x80 PUSH1 0x40 MSTORE PUSH1 0x4 CALLDATASIZE LT PUSH2 0x224 JUMPI PUSH1 0x0 CALLDATALOAD PUSH1 0xE0 SHR DUP1 PUSH4 0x8DA5CB5B GT PUSH2 0x123 JUMPI DUP1 PUSH4 0xD79C66AA GT PUSH2 0xAB JUMPI DUP1 PUSH4 0xF14A3D56 GT PUSH2 0x6F JUMPI DUP1 PUSH4 0xF14A3D56 EQ PUSH2 0x807 JUMPI DUP1 PUSH4 0xF242432A EQ PUSH2 0x832 JUMPI DUP1 PUSH4 0xF2FDE38B EQ PUSH2 0x85B JUMPI DUP1 PUSH4 0xF5298ACA EQ PUSH2 0x884 JUMPI DUP1 PUSH4 0xF5DCE5B9 EQ PUSH2 0x8AD JUMPI PUSH2 0x224 JUMP JUMPDEST DUP1 PUSH4 0xD79C66AA EQ PUSH2 0x71E JUMPI DUP1 PUSH4 0xDC4FEB47 EQ PUSH2 0x749 JUMPI DUP1 PUSH4 0xE7B5BE39 EQ PUSH2 0x774 JUMPI DUP1 PUSH4 0xE985E9C5 EQ PUSH2 0x79F JUMPI DUP1 PUSH4 0xEA3875CA EQ PUSH2 0x7DC JUMPI PUSH2 0x224 JUMP JUMPDEST DUP1 PUSH4 0xAEDD809A GT PUSH2 0xF2 JUMPI DUP1 PUSH4 0xAEDD809A EQ PUSH2 0x635 JUMPI DUP1 PUSH4 0xB6A8412B EQ PUSH2 0x660 JUMPI DUP1 PUSH4 0xBD85B039 EQ PUSH2 0x68B JUMPI DUP1 PUSH4 0xD0FAF49E EQ PUSH2 0x6C8 JUMPI DUP1 PUSH4 0xD656EFB5 EQ PUSH2 0x6F3 JUMPI PUSH2 0x224 JUMP JUMPDEST DUP1 PUSH4 0x8DA5CB5B EQ PUSH2 0x58B JUMPI DUP1 PUSH4 0x9750463A EQ PUSH2 0x5B6 JUMPI DUP1 PUSH4 0xA004CBDE EQ PUSH2 0x5E1 JUMPI DUP1 PUSH4 0xA22CB465 EQ PUSH2 0x60C JUMPI PUSH2 0x224 JUMP JUMPDEST DUP1 PUSH4 0x442107E3 GT PUSH2 0x1B1 JUMPI DUP1 PUSH4 0x5456E59A GT PUSH2 0x175 JUMPI DUP1 PUSH4 0x5456E59A EQ PUSH2 0x4D7 JUMPI DUP1 PUSH4 0x60BAEE5D EQ PUSH2 0x502 JUMPI DUP1 PUSH4 0x6B20C454 EQ PUSH2 0x520 JUMPI DUP1 PUSH4 0x6F9E9B84 EQ PUSH2 0x549 JUMPI DUP1 PUSH4 0x715018A6 EQ PUSH2 0x574 JUMPI PUSH2 0x224 JUMP JUMPDEST DUP1 PUSH4 0x442107E3 EQ PUSH2 0x3DC JUMPI DUP1 PUSH4 0x4626402B EQ PUSH2 0x407 JUMPI DUP1 PUSH4 0x4E1273F4 EQ PUSH2 0x432 JUMPI DUP1 PUSH4 0x4F4AABC1 EQ PUSH2 0x46F JUMPI DUP1 PUSH4 0x4F558E79 EQ PUSH2 0x49A JUMPI PUSH2 0x224 JUMP JUMPDEST DUP1 PUSH4 0xF068C60 GT PUSH2 0x1F8 JUMPI DUP1 PUSH4 0xF068C60 EQ PUSH2 0x309 JUMPI DUP1 PUSH4 0x1F7FDFFA EQ PUSH2 0x334 JUMPI DUP1 PUSH4 0x23BFDCFA EQ PUSH2 0x35D JUMPI DUP1 PUSH4 0x2EB2C2D6 EQ PUSH2 0x388 JUMPI DUP1 PUSH4 0x32E5794A EQ PUSH2 0x3B1 JUMPI PUSH2 0x224 JUMP JUMPDEST DUP1 PUSH3 0xFDD58E EQ PUSH2 0x229 JUMPI DUP1 PUSH4 0x1FFC9A7 EQ PUSH2 0x266 JUMPI DUP1 PUSH4 0x2FE5305 EQ PUSH2 0x2A3 JUMPI DUP1 PUSH4 0xE89341C EQ PUSH2 0x2CC JUMPI JUMPDEST PUSH1 0x0 DUP1 REVERT JUMPDEST CALLVALUE DUP1 ISZERO PUSH2 0x235 JUMPI PUSH1 0x0 DUP1 REVERT JUMPDEST POP PUSH2 0x250 PUSH1 0x4 DUP1 CALLDATASIZE SUB DUP2 ADD SWAP1 PUSH2 0x24B SWAP2 SWAP1 PUSH2 0x2EC0 JUMP JUMPDEST PUSH2 0x8D8 JUMP JUMPDEST PUSH1 0x40 MLOAD PUSH2 0x25D SWAP2 SWAP1 PUSH2 0x2F0F JUMP JUMPDEST PUSH1 0x40 MLOAD DUP1 SWAP2 SUB SWAP1 RETURN JUMPDEST CALLVALUE DUP1 ISZERO PUSH2 0x272 JUMPI PUSH1 0x0 DUP1 REVERT JUMPDEST POP PUSH2 0x28D PUSH1 0x4 DUP1 CALLDATASIZE SUB DUP2 ADD SWAP1 PUSH2 0x288 SWAP2 SWAP1 PUSH2 0x2F82 JUMP JUMPDEST PUSH2 0x9A0 JUMP JUMPDEST PUSH1 0x40 MLOAD PUSH2 0x29A SWAP2 SWAP1 PUSH2 0x2FCA JUMP JUMPDEST PUSH1 0x40 MLOAD DUP1 SWAP2 SUB SWAP1 RETURN JUMPDEST CALLVALUE DUP1 ISZERO PUSH2 0x2AF JUMPI PUSH1 0x0 DUP1 REVERT JUMPDEST POP PUSH2 0x2CA PUSH1 0x4 DUP1 CALLDATASIZE SUB DUP2 ADD SWAP1 PUSH2 0x2C5 SWAP2 SWAP1 PUSH2 0x312B JUMP JUMPDEST PUSH2 0xA82 JUMP JUMPDEST STOP JUMPDEST CALLVALUE DUP1 ISZERO PUSH2 0x2D8 JUMPI PUSH1 0x0 DUP1 REVERT JUMPDEST POP PUSH2 0x2F3 PUSH1 0x4 DUP1 CALLDATASIZE SUB DUP2 ADD SWAP1 PUSH2 0x2EE SWAP2 SWAP1 PUSH2 0x3174 JUMP JUMPDEST PUSH2 0xA96 JUMP JUMPDEST PUSH1 0x40 MLOAD PUSH2 0x300 SWAP2 SWAP1 PUSH2 0x3220 JUMP JUMPDEST PUSH1 0x40 MLOAD DUP1 SWAP2 SUB SWAP1 RETURN JUMPDEST CALLVALUE DUP1 ISZERO PUSH2 0x315 JUMPI PUSH1 0x0 DUP1 REVERT JUMPDEST POP PUSH2 0x31E PUSH2 0xAC7 JUMP JUMPDEST PUSH1 0x40 MLOAD PUSH2 0x32B SWAP2 SWAP1 PUSH2 0x2F0F JUMP JUMPDEST PUSH1 0x40 MLOAD DUP1 SWAP2 SUB SWAP1 RETURN JUMPDEST CALLVALUE DUP1 ISZERO PUSH2 0x340 JUMPI PUSH1 0x0 DUP1 REVERT JUMPDEST POP PUSH2 0x35B PUSH1 0x4 DUP1 CALLDATASIZE SUB DUP2 ADD SWAP1 PUSH2 0x356 SWAP2 SWAP1 PUSH2 0x33AB JUMP JUMPDEST PUSH2 0xACC JUMP JUMPDEST STOP JUMPDEST CALLVALUE DUP1 ISZERO PUSH2 0x369 JUMPI PUSH1 0x0 DUP1 REVERT JUMPDEST POP PUSH2 0x372 PUSH2 0xAE6 JUMP JUMPDEST PUSH1 0x40 MLOAD PUSH2 0x37F SWAP2 SWAP1 PUSH2 0x2F0F JUMP JUMPDEST PUSH1 0x40 MLOAD DUP1 SWAP2 SUB SWAP1 RETURN JUMPDEST CALLVALUE DUP1 ISZERO PUSH2 0x394 JUMPI PUSH1 0x0 DUP1 REVERT JUMPDEST POP PUSH2 0x3AF PUSH1 0x4 DUP1 CALLDATASIZE SUB DUP2 ADD SWAP1 PUSH2 0x3AA SWAP2 SWAP1 PUSH2 0x3466 JUMP JUMPDEST PUSH2 0xAEC JUMP JUMPDEST STOP JUMPDEST CALLVALUE DUP1 ISZERO PUSH2 0x3BD JUMPI PUSH1 0x0 DUP1 REVERT JUMPDEST POP PUSH2 0x3C6 PUSH2 0xB8D JUMP JUMPDEST PUSH1 0x40 MLOAD PUSH2 0x3D3 SWAP2 SWAP1 PUSH2 0x2F0F JUMP JUMPDEST PUSH1 0x40 MLOAD DUP1 SWAP2 SUB SWAP1 RETURN JUMPDEST CALLVALUE DUP1 ISZERO PUSH2 0x3E8 JUMPI PUSH1 0x0 DUP1 REVERT JUMPDEST POP PUSH2 0x3F1 PUSH2 0xB92 JUMP JUMPDEST PUSH1 0x40 MLOAD PUSH2 0x3FE SWAP2 SWAP1 PUSH2 0x2F0F JUMP JUMPDEST PUSH1 0x40 MLOAD DUP1 SWAP2 SUB SWAP1 RETURN JUMPDEST CALLVALUE DUP1 ISZERO PUSH2 0x413 JUMPI PUSH1 0x0 DUP1 REVERT JUMPDEST POP PUSH2 0x41C PUSH2 0xB97 JUMP JUMPDEST PUSH1 0x40 MLOAD PUSH2 0x429 SWAP2 SWAP1 PUSH2 0x3556 JUMP JUMPDEST PUSH1 0x40 MLOAD DUP1 SWAP2 SUB SWAP1 RETURN JUMPDEST CALLVALUE DUP1 ISZERO PUSH2 0x43E JUMPI PUSH1 0x0 DUP1 REVERT JUMPDEST POP PUSH2 0x459 PUSH1 0x4 DUP1 CALLDATASIZE SUB DUP2 ADD SWAP1 PUSH2 0x454 SWAP2 SWAP1 PUSH2 0x3634 JUMP JUMPDEST PUSH2 0xBBD JUMP JUMPDEST PUSH1 0x40 MLOAD PUSH2 0x466 SWAP2 SWAP1 PUSH2 0x376A JUMP JUMPDEST PUSH1 0x40 MLOAD DUP1 SWAP2 SUB SWAP1 RETURN JUMPDEST CALLVALUE DUP1 ISZERO PUSH2 0x47B JUMPI PUSH1 0x0 DUP1 REVERT JUMPDEST POP PUSH2 0x484 PUSH2 0xCD6 JUMP JUMPDEST PUSH1 0x40 MLOAD PUSH2 0x491 SWAP2 SWAP1 PUSH2 0x2F0F JUMP JUMPDEST PUSH1 0x40 MLOAD DUP1 SWAP2 SUB SWAP1 RETURN JUMPDEST CALLVALUE DUP1 ISZERO PUSH2 0x4A6 JUMPI PUSH1 0x0 DUP1 REVERT JUMPDEST POP PUSH2 0x4C1 PUSH1 0x4 DUP1 CALLDATASIZE SUB DUP2 ADD SWAP1 PUSH2 0x4BC SWAP2 SWAP1 PUSH2 0x3174 JUMP JUMPDEST PUSH2 0xCDC JUMP JUMPDEST PUSH1 0x40 MLOAD PUSH2 0x4CE SWAP2 SWAP1 PUSH2 0x2FCA JUMP JUMPDEST PUSH1 0x40 MLOAD DUP1 SWAP2 SUB SWAP1 RETURN JUMPDEST CALLVALUE DUP1 ISZERO PUSH2 0x4E3 JUMPI PUSH1 0x0 DUP1 REVERT JUMPDEST POP PUSH2 0x4EC PUSH2 0xCF0 JUMP JUMPDEST PUSH1 0x40 MLOAD PUSH2 0x4F9 SWAP2 SWAP1 PUSH2 0x2F0F JUMP JUMPDEST PUSH1 0x40 MLOAD DUP1 SWAP2 SUB SWAP1 RETURN JUMPDEST PUSH2 0x50A PUSH2 0xCF6 JUMP JUMPDEST PUSH1 0x40 MLOAD PUSH2 0x517 SWAP2 SWAP1 PUSH2 0x2F0F JUMP JUMPDEST PUSH1 0x40 MLOAD DUP1 SWAP2 SUB SWAP1 RETURN JUMPDEST CALLVALUE DUP1 ISZERO PUSH2 0x52C JUMPI PUSH1 0x0 DUP1 REVERT JUMPDEST POP PUSH2 0x547 PUSH1 0x4 DUP1 CALLDATASIZE SUB DUP2 ADD SWAP1 PUSH2 0x542 SWAP2 SWAP1 PUSH2 0x378C JUMP JUMPDEST PUSH2 0x103F JUMP JUMPDEST STOP JUMPDEST CALLVALUE DUP1 ISZERO PUSH2 0x555 JUMPI PUSH1 0x0 DUP1 REVERT JUMPDEST POP PUSH2 0x55E PUSH2 0x10DC JUMP JUMPDEST PUSH1 0x40 MLOAD PUSH2 0x56B SWAP2 SWAP1 PUSH2 0x2F0F JUMP JUMPDEST PUSH1 0x40 MLOAD DUP1 SWAP2 SUB SWAP1 RETURN JUMPDEST CALLVALUE DUP1 ISZERO PUSH2 0x580 JUMPI PUSH1 0x0 DUP1 REVERT JUMPDEST POP PUSH2 0x589 PUSH2 0x10E1 JUMP JUMPDEST STOP JUMPDEST CALLVALUE DUP1 ISZERO PUSH2 0x597 JUMPI PUSH1 0x0 DUP1 REVERT JUMPDEST POP PUSH2 0x5A0 PUSH2 0x10F5 JUMP JUMPDEST PUSH1 0x40 MLOAD PUSH2 0x5AD SWAP2 SWAP1 PUSH2 0x3826 JUMP JUMPDEST PUSH1 0x40 MLOAD DUP1 SWAP2 SUB SWAP1 RETURN JUMPDEST CALLVALUE DUP1 ISZERO PUSH2 0x5C2 JUMPI PUSH1 0x0 DUP1 REVERT JUMPDEST POP PUSH2 0x5CB PUSH2 0x111F JUMP JUMPDEST PUSH1 0x40 MLOAD PUSH2 0x5D8 SWAP2 SWAP1 PUSH2 0x2F0F JUMP JUMPDEST PUSH1 0x40 MLOAD DUP1 SWAP2 SUB SWAP1 RETURN JUMPDEST CALLVALUE DUP1 ISZERO PUSH2 0x5ED JUMPI PUSH1 0x0 DUP1 REVERT JUMPDEST POP PUSH2 0x5F6 PUSH2 0x1124 JUMP JUMPDEST PUSH1 0x40 MLOAD PUSH2 0x603 SWAP2 SWAP1 PUSH2 0x2F0F JUMP JUMPDEST PUSH1 0x40 MLOAD DUP1 SWAP2 SUB SWAP1 RETURN JUMPDEST CALLVALUE DUP1 ISZERO PUSH2 0x618 JUMPI PUSH1 0x0 DUP1 REVERT JUMPDEST POP PUSH2 0x633 PUSH1 0x4 DUP1 CALLDATASIZE SUB DUP2 ADD SWAP1 PUSH2 0x62E SWAP2 SWAP1 PUSH2 0x386D JUMP JUMPDEST PUSH2 0x112A JUMP JUMPDEST STOP JUMPDEST CALLVALUE DUP1 ISZERO PUSH2 0x641 JUMPI PUSH1 0x0 DUP1 REVERT JUMPDEST POP PUSH2 0x64A PUSH2 0x1140 JUMP JUMPDEST PUSH1 0x40 MLOAD PUSH2 0x657 SWAP2 SWAP1 PUSH2 0x2F0F JUMP JUMPDEST PUSH1 0x40 MLOAD DUP1 SWAP2 SUB SWAP1 RETURN JUMPDEST CALLVALUE DUP1 ISZERO PUSH2 0x66C JUMPI PUSH1 0x0 DUP1 REVERT JUMPDEST POP PUSH2 0x675 PUSH2 0x1145 JUMP JUMPDEST PUSH1 0x40 MLOAD PUSH2 0x682 SWAP2 SWAP1 PUSH2 0x2F0F JUMP JUMPDEST PUSH1 0x40 MLOAD DUP1 SWAP2 SUB SWAP1 RETURN JUMPDEST CALLVALUE DUP1 ISZERO PUSH2 0x697 JUMPI PUSH1 0x0 DUP1 REVERT JUMPDEST POP PUSH2 0x6B2 PUSH1 0x4 DUP1 CALLDATASIZE SUB DUP2 ADD SWAP1 PUSH2 0x6AD SWAP2 SWAP1 PUSH2 0x3174 JUMP JUMPDEST PUSH2 0x11F8 JUMP JUMPDEST PUSH1 0x40 MLOAD PUSH2 0x6BF SWAP2 SWAP1 PUSH2 0x2F0F JUMP JUMPDEST PUSH1 0x40 MLOAD DUP1 SWAP2 SUB SWAP1 RETURN JUMPDEST CALLVALUE DUP1 ISZERO PUSH2 0x6D4 JUMPI PUSH1 0x0 DUP1 REVERT JUMPDEST POP PUSH2 0x6DD PUSH2 0x1215 JUMP JUMPDEST PUSH1 0x40 MLOAD PUSH2 0x6EA SWAP2 SWAP1 PUSH2 0x2F0F JUMP JUMPDEST PUSH1 0x40 MLOAD DUP1 SWAP2 SUB SWAP1 RETURN JUMPDEST CALLVALUE DUP1 ISZERO PUSH2 0x6FF JUMPI PUSH1 0x0 DUP1 REVERT JUMPDEST POP PUSH2 0x708 PUSH2 0x121A JUMP JUMPDEST PUSH1 0x40 MLOAD PUSH2 0x715 SWAP2 SWAP1 PUSH2 0x2F0F JUMP JUMPDEST PUSH1 0x40 MLOAD DUP1 SWAP2 SUB SWAP1 RETURN JUMPDEST CALLVALUE DUP1 ISZERO PUSH2 0x72A JUMPI PUSH1 0x0 DUP1 REVERT JUMPDEST POP PUSH2 0x733 PUSH2 0x121F JUMP JUMPDEST PUSH1 0x40 MLOAD PUSH2 0x740 SWAP2 SWAP1 PUSH2 0x2F0F JUMP JUMPDEST PUSH1 0x40 MLOAD DUP1 SWAP2 SUB SWAP1 RETURN JUMPDEST CALLVALUE DUP1 ISZERO PUSH2 0x755 JUMPI PUSH1 0x0 DUP1 REVERT JUMPDEST POP PUSH2 0x75E PUSH2 0x1225 JUMP JUMPDEST PUSH1 0x40 MLOAD PUSH2 0x76B SWAP2 SWAP1 PUSH2 0x2F0F JUMP JUMPDEST PUSH1 0x40 MLOAD DUP1 SWAP2 SUB SWAP1 RETURN JUMPDEST CALLVALUE DUP1 ISZERO PUSH2 0x780 JUMPI PUSH1 0x0 DUP1 REVERT JUMPDEST POP PUSH2 0x789 PUSH2 0x122B JUMP JUMPDEST PUSH1 0x40 MLOAD PUSH2 0x796 SWAP2 SWAP1 PUSH2 0x2F0F JUMP JUMPDEST PUSH1 0x40 MLOAD DUP1 SWAP2 SUB SWAP1 RETURN JUMPDEST CALLVALUE DUP1 ISZERO PUSH2 0x7AB JUMPI PUSH1 0x0 DUP1 REVERT JUMPDEST POP PUSH2 0x7C6 PUSH1 0x4 DUP1 CALLDATASIZE SUB DUP2 ADD SWAP1 PUSH2 0x7C1 SWAP2 SWAP1 PUSH2 0x38AD JUMP JUMPDEST PUSH2 0x1230 JUMP JUMPDEST PUSH1 0x40 MLOAD PUSH2 0x7D3 SWAP2 SWAP1 PUSH2 0x2FCA JUMP JUMPDEST PUSH1 0x40 MLOAD DUP1 SWAP2 SUB SWAP1 RETURN JUMPDEST CALLVALUE DUP1 ISZERO PUSH2 0x7E8 JUMPI PUSH1 0x0 DUP1 REVERT JUMPDEST POP PUSH2 0x7F1 PUSH2 0x12C4 JUMP JUMPDEST PUSH1 0x40 MLOAD PUSH2 0x7FE SWAP2 SWAP1 PUSH2 0x2F0F JUMP JUMPDEST PUSH1 0x40 MLOAD DUP1 SWAP2 SUB SWAP1 RETURN JUMPDEST CALLVALUE DUP1 ISZERO PUSH2 0x813 JUMPI PUSH1 0x0 DUP1 REVERT JUMPDEST POP PUSH2 0x81C PUSH2 0x12C9 JUMP JUMPDEST PUSH1 0x40 MLOAD PUSH2 0x829 SWAP2 SWAP1 PUSH2 0x2F0F JUMP JUMPDEST PUSH1 0x40 MLOAD DUP1 SWAP2 SUB SWAP1 RETURN JUMPDEST CALLVALUE DUP1 ISZERO PUSH2 0x83E JUMPI PUSH1 0x0 DUP1 REVERT JUMPDEST POP PUSH2 0x859 PUSH1 0x4 DUP1 CALLDATASIZE SUB DUP2 ADD SWAP1 PUSH2 0x854 SWAP2 SWAP1 PUSH2 0x38ED JUMP JUMPDEST PUSH2 0x12CF JUMP JUMPDEST STOP JUMPDEST CALLVALUE DUP1 ISZERO PUSH2 0x867 JUMPI PUSH1 0x0 DUP1 REVERT JUMPDEST POP PUSH2 0x882 PUSH1 0x4 DUP1 CALLDATASIZE SUB DUP2 ADD SWAP1 PUSH2 0x87D SWAP2 SWAP1 PUSH2 0x3984 JUMP JUMPDEST PUSH2 0x1370 JUMP JUMPDEST STOP JUMPDEST CALLVALUE DUP1 ISZERO PUSH2 0x890 JUMPI PUSH1 0x0 DUP1 REVERT JUMPDEST POP PUSH2 0x8AB PUSH1 0x4 DUP1 CALLDATASIZE SUB DUP2 ADD SWAP1 PUSH2 0x8A6 SWAP2 SWAP1 PUSH2 0x39B1 JUMP JUMPDEST PUSH2 0x13F3 JUMP JUMPDEST STOP JUMPDEST CALLVALUE DUP1 ISZERO PUSH2 0x8B9 JUMPI PUSH1 0x0 DUP1 REVERT JUMPDEST POP PUSH2 0x8C2 PUSH2 0x1490 JUMP JUMPDEST PUSH1 0x40 MLOAD PUSH2 0x8CF SWAP2 SWAP1 PUSH2 0x2F0F JUMP JUMPDEST PUSH1 0x40 MLOAD DUP1 SWAP2 SUB SWAP1 RETURN JUMPDEST PUSH1 0x0 DUP1 PUSH20 0xFFFFFFFFFFFFFFFFFFFFFFFFFFFFFFFFFFFFFFFF AND DUP4 PUSH20 0xFFFFFFFFFFFFFFFFFFFFFFFFFFFFFFFFFFFFFFFF AND SUB PUSH2 0x948 JUMPI PUSH1 0x40 MLOAD PUSH32 0x8C379A000000000000000000000000000000000000000000000000000000000 DUP2 MSTORE PUSH1 0x4 ADD PUSH2 0x93F SWAP1 PUSH2 0x3A76 JUMP JUMPDEST PUSH1 0x40 MLOAD DUP1 SWAP2 SUB SWAP1 REVERT JUMPDEST PUSH1 0x0 DUP1 DUP4 DUP2 MSTORE PUSH1 0x20 ADD SWAP1 DUP2 MSTORE PUSH1 0x20 ADD PUSH1 0x0 KECCAK256 PUSH1 0x0 DUP5 PUSH20 0xFFFFFFFFFFFFFFFFFFFFFFFFFFFFFFFFFFFFFFFF AND PUSH20 0xFFFFFFFFFFFFFFFFFFFFFFFFFFFFFFFFFFFFFFFF AND DUP2 MSTORE PUSH1 0x20 ADD SWAP1 DUP2 MSTORE PUSH1 0x20 ADD PUSH1 0x0 KECCAK256 SLOAD SWAP1 POP SWAP3 SWAP2 POP POP JUMP JUMPDEST PUSH1 0x0 PUSH32 0xD9B67A2600000000000000000000000000000000000000000000000000000000 PUSH28 0xFFFFFFFFFFFFFFFFFFFFFFFFFFFFFFFFFFFFFFFFFFFFFFFFFFFFFFFF NOT AND DUP3 PUSH28 0xFFFFFFFFFFFFFFFFFFFFFFFFFFFFFFFFFFFFFFFFFFFFFFFFFFFFFFFF NOT AND EQ DUP1 PUSH2 0xA6B JUMPI POP PUSH32 0xE89341C00000000000000000000000000000000000000000000000000000000 PUSH28 0xFFFFFFFFFFFFFFFFFFFFFFFFFFFFFFFFFFFFFFFFFFFFFFFFFFFFFFFF NOT AND DUP3 PUSH28 0xFFFFFFFFFFFFFFFFFFFFFFFFFFFFFFFFFFFFFFFFFFFFFFFFFFFFFFFF NOT AND EQ JUMPDEST DUP1 PUSH2 0xA7B JUMPI POP PUSH2 0xA7A DUP3 PUSH2 0x1691 JUMP JUMPDEST JUMPDEST SWAP1 POP SWAP2 SWAP1 POP JUMP JUMPDEST PUSH2 0xA8A PUSH2 0x16FB JUMP JUMPDEST PUSH2 0xA93 DUP2 PUSH2 0x1779 JUMP JUMPDEST POP JUMP JUMPDEST PUSH1 0x60 PUSH2 0xAA1 DUP3 PUSH2 0x178C JUMP JUMPDEST PUSH1 0x40 MLOAD PUSH1 0x20 ADD PUSH2 0xAB1 SWAP2 SWAP1 PUSH2 0x3B6A JUMP JUMPDEST PUSH1 0x40 MLOAD PUSH1 0x20 DUP2 DUP4 SUB SUB DUP2 MSTORE SWAP1 PUSH1 0x40 MSTORE SWAP1 POP SWAP2 SWAP1 POP JUMP JUMPDEST PUSH1 0xCA DUP2 JUMP JUMPDEST PUSH2 0xAD4 PUSH2 0x16FB JUMP JUMPDEST PUSH2 0xAE0 DUP5 DUP5 DUP5 DUP5 PUSH2 0x18EC JUMP JUMPDEST POP POP POP POP JUMP JUMPDEST PUSH2 0x191 DUP2 JUMP JUMPDEST PUSH2 0xAF4 PUSH2 0x1B18 JUMP JUMPDEST PUSH20 0xFFFFFFFFFFFFFFFFFFFFFFFFFFFFFFFFFFFFFFFF AND DUP6 PUSH20 0xFFFFFFFFFFFFFFFFFFFFFFFFFFFFFFFFFFFFFFFF AND EQ DUP1 PUSH2 0xB3A JUMPI POP PUSH2 0xB39 DUP6 PUSH2 0xB34 PUSH2 0x1B18 JUMP JUMPDEST PUSH2 0x1230 JUMP JUMPDEST JUMPDEST PUSH2 0xB79 JUMPI PUSH1 0x40 MLOAD PUSH32 0x8C379A000000000000000000000000000000000000000000000000000000000 DUP2 MSTORE PUSH1 0x4 ADD PUSH2 0xB70 SWAP1 PUSH2 0x3BFE JUMP JUMPDEST PUSH1 0x40 MLOAD DUP1 SWAP2 SUB SWAP1 REVERT JUMPDEST PUSH2 0xB86 DUP6 DUP6 DUP6 DUP6 DUP6 PUSH2 0x1B20 JUMP JUMPDEST POP POP POP POP POP JUMP JUMPDEST PUSH1 0x65 DUP2 JUMP JUMPDEST PUSH1 0xC8 DUP2 JUMP JUMPDEST PUSH1 0x7 PUSH1 0x0 SWAP1 SLOAD SWAP1 PUSH2 0x100 EXP SWAP1 DIV PUSH20 0xFFFFFFFFFFFFFFFFFFFFFFFFFFFFFFFFFFFFFFFF AND DUP2 JUMP JUMPDEST PUSH1 0x60 DUP2 MLOAD DUP4 MLOAD EQ PUSH2 0xC03 JUMPI PUSH1 0x40 MLOAD PUSH32 0x8C379A000000000000000000000000000000000000000000000000000000000 DUP2 MSTORE PUSH1 0x4 ADD PUSH2 0xBFA SWAP1 PUSH2 0x3C90 JUMP JUMPDEST PUSH1 0x40 MLOAD DUP1 SWAP2 SUB SWAP1 REVERT JUMPDEST PUSH1 0x0 DUP4 MLOAD PUSH8 0xFFFFFFFFFFFFFFFF DUP2 GT ISZERO PUSH2 0xC20 JUMPI PUSH2 0xC1F PUSH2 0x3000 JUMP JUMPDEST JUMPDEST PUSH1 0x40 MLOAD SWAP1 DUP1 DUP3 MSTORE DUP1 PUSH1 0x20 MUL PUSH1 0x20 ADD DUP3 ADD PUSH1 0x40 MSTORE DUP1 ISZERO PUSH2 0xC4E JUMPI DUP2 PUSH1 0x20 ADD PUSH1 0x20 DUP3 MUL DUP1 CALLDATASIZE DUP4 CALLDATACOPY DUP1 DUP3 ADD SWAP2 POP POP SWAP1 POP JUMPDEST POP SWAP1 POP PUSH1 0x0 JUMPDEST DUP5 MLOAD DUP2 LT ISZERO PUSH2 0xCCB JUMPI PUSH2 0xC9B DUP6 DUP3 DUP2 MLOAD DUP2 LT PUSH2 0xC73 JUMPI PUSH2 0xC72 PUSH2 0x3CB0 JUMP JUMPDEST JUMPDEST PUSH1 0x20 MUL PUSH1 0x20 ADD ADD MLOAD DUP6 DUP4 DUP2 MLOAD DUP2 LT PUSH2 0xC8E JUMPI PUSH2 0xC8D PUSH2 0x3CB0 JUMP JUMPDEST JUMPDEST PUSH1 0x20 MUL PUSH1 0x20 ADD ADD MLOAD PUSH2 0x8D8 JUMP JUMPDEST DUP3 DUP3 DUP2 MLOAD DUP2 LT PUSH2 0xCAE JUMPI PUSH2 0xCAD PUSH2 0x3CB0 JUMP JUMPDEST JUMPDEST PUSH1 0x20 MUL PUSH1 0x20 ADD ADD DUP2 DUP2 MSTORE POP POP DUP1 PUSH2 0xCC4 SWAP1 PUSH2 0x3D0E JUMP JUMPDEST SWAP1 POP PUSH2 0xC54 JUMP JUMPDEST POP DUP1 SWAP2 POP POP SWAP3 SWAP2 POP POP JUMP JUMPDEST PUSH2 0x12D DUP2 JUMP JUMPDEST PUSH1 0x0 DUP1 PUSH2 0xCE8 DUP4 PUSH2 0x11F8 JUMP JUMPDEST GT SWAP1 POP SWAP2 SWAP1 POP JUMP JUMPDEST PUSH2 0x194 DUP2 JUMP JUMPDEST PUSH1 0x0 DUP1 PUSH1 0x9 DUP1 SLOAD SWAP1 POP TIMESTAMP PUSH1 0x40 MLOAD PUSH1 0x20 ADD PUSH2 0xD10 SWAP2 SWAP1 PUSH2 0x3D77 JUMP JUMPDEST PUSH1 0x40 MLOAD PUSH1 0x20 DUP2 DUP4 SUB SUB DUP2 MSTORE SWAP1 PUSH1 0x40 MSTORE DUP1 MLOAD SWAP1 PUSH1 0x20 ADD KECCAK256 PUSH1 0x0 SHR PUSH2 0xD33 SWAP2 SWAP1 PUSH2 0x3DC1 JUMP JUMPDEST SWAP1 POP PUSH1 0x0 PUSH1 0x9 DUP3 DUP2 SLOAD DUP2 LT PUSH2 0xD4B JUMPI PUSH2 0xD4A PUSH2 0x3CB0 JUMP JUMPDEST JUMPDEST SWAP1 PUSH1 0x0 MSTORE PUSH1 0x20 PUSH1 0x0 KECCAK256 ADD SLOAD SWAP1 POP PUSH2 0xD74 CALLER DUP3 PUSH1 0x1 PUSH1 0x40 MLOAD DUP1 PUSH1 0x20 ADD PUSH1 0x40 MSTORE DUP1 PUSH1 0x0 DUP2 MSTORE POP PUSH2 0x1E41 JUMP JUMPDEST PUSH2 0xDA1 PUSH1 0xB PUSH1 0x0 SWAP1 SLOAD SWAP1 PUSH2 0x100 EXP SWAP1 DIV PUSH20 0xFFFFFFFFFFFFFFFFFFFFFFFFFFFFFFFFFFFFFFFF AND PUSH1 0x1 PUSH2 0x112A JUMP JUMPDEST PUSH1 0x0 PUSH1 0x5 PUSH1 0x0 SWAP1 SLOAD SWAP1 PUSH2 0x100 EXP SWAP1 DIV PUSH20 0xFFFFFFFFFFFFFFFFFFFFFFFFFFFFFFFFFFFFFFFF AND PUSH20 0xFFFFFFFFFFFFFFFFFFFFFFFFFFFFFFFFFFFFFFFF AND PUSH4 0xD83A2BF3 CALLER ADDRESS PUSH1 0x6 SLOAD PUSH1 0x8 SLOAD PUSH2 0xDF3 SWAP2 SWAP1 PUSH2 0x3DF2 JUMP JUMPDEST PUSH1 0x40 MLOAD DUP5 PUSH4 0xFFFFFFFF AND PUSH1 0xE0 SHL DUP2 MSTORE PUSH1 0x4 ADD PUSH2 0xE11 SWAP4 SWAP3 SWAP2 SWAP1 PUSH2 0x3E34 JUMP JUMPDEST PUSH1 0x20 PUSH1 0x40 MLOAD DUP1 DUP4 SUB DUP2 PUSH1 0x0 DUP8 GAS CALL ISZERO DUP1 ISZERO PUSH2 0xE30 JUMPI RETURNDATASIZE PUSH1 0x0 DUP1 RETURNDATACOPY RETURNDATASIZE PUSH1 0x0 REVERT JUMPDEST POP POP POP POP PUSH1 0x40 MLOAD RETURNDATASIZE PUSH1 0x1F NOT PUSH1 0x1F DUP3 ADD AND DUP3 ADD DUP1 PUSH1 0x40 MSTORE POP DUP2 ADD SWAP1 PUSH2 0xE54 SWAP2 SWAP1 PUSH2 0x3E80 JUMP JUMPDEST SWAP1 POP DUP1 PUSH2 0xE96 JUMPI PUSH1 0x40 MLOAD PUSH32 0x8C379A000000000000000000000000000000000000000000000000000000000 DUP2 MSTORE PUSH1 0x4 ADD PUSH2 0xE8D SWAP1 PUSH2 0x3EF9 JUMP JUMPDEST PUSH1 0x40 MLOAD DUP1 SWAP2 SUB SWAP1 REVERT JUMPDEST PUSH1 0x5 PUSH1 0x0 SWAP1 SLOAD SWAP1 PUSH2 0x100 EXP SWAP1 DIV PUSH20 0xFFFFFFFFFFFFFFFFFFFFFFFFFFFFFFFFFFFFFFFF AND PUSH20 0xFFFFFFFFFFFFFFFFFFFFFFFFFFFFFFFFFFFFFFFF AND PUSH4 0x23B872DD CALLER PUSH1 0x7 PUSH1 0x0 SWAP1 SLOAD SWAP1 PUSH2 0x100 EXP SWAP1 DIV PUSH20 0xFFFFFFFFFFFFFFFFFFFFFFFFFFFFFFFFFFFFFFFF AND PUSH1 0x6 SLOAD PUSH1 0x8 SLOAD PUSH2 0xF08 SWAP2 SWAP1 PUSH2 0x3DF2 JUMP JUMPDEST PUSH1 0x40 MLOAD DUP5 PUSH4 0xFFFFFFFF AND PUSH1 0xE0 SHL DUP2 MSTORE PUSH1 0x4 ADD PUSH2 0xF26 SWAP4 SWAP3 SWAP2 SWAP1 PUSH2 0x3F78 JUMP JUMPDEST PUSH1 0x20 PUSH1 0x40 MLOAD DUP1 DUP4 SUB DUP2 PUSH1 0x0 DUP8 GAS CALL ISZERO DUP1 ISZERO PUSH2 0xF45 JUMPI RETURNDATASIZE PUSH1 0x0 DUP1 RETURNDATACOPY RETURNDATASIZE PUSH1 0x0 REVERT JUMPDEST POP POP POP POP PUSH1 0x40 MLOAD RETURNDATASIZE PUSH1 0x1F NOT PUSH1 0x1F DUP3 ADD AND DUP3 ADD DUP1 PUSH1 0x40 MSTORE POP DUP2 ADD SWAP1 PUSH2 0xF69 SWAP2 SWAP1 PUSH2 0x3E80 JUMP JUMPDEST POP PUSH1 0x5 PUSH1 0x0 SWAP1 SLOAD SWAP1 PUSH2 0x100 EXP SWAP1 DIV PUSH20 0xFFFFFFFFFFFFFFFFFFFFFFFFFFFFFFFFFFFFFFFF AND PUSH20 0xFFFFFFFFFFFFFFFFFFFFFFFFFFFFFFFFFFFFFFFF AND PUSH4 0x1D057BD9 PUSH1 0x7 PUSH1 0x0 SWAP1 SLOAD SWAP1 PUSH2 0x100 EXP SWAP1 DIV PUSH20 0xFFFFFFFFFFFFFFFFFFFFFFFFFFFFFFFFFFFFFFFF AND PUSH1 0x2 PUSH1 0x6 SLOAD PUSH1 0x8 SLOAD PUSH2 0xFDD SWAP2 SWAP1 PUSH2 0x3DF2 JUMP JUMPDEST PUSH2 0xFE7 SWAP2 SWAP1 PUSH2 0x3FAF JUMP JUMPDEST PUSH1 0x40 MLOAD DUP4 PUSH4 0xFFFFFFFF AND PUSH1 0xE0 SHL DUP2 MSTORE PUSH1 0x4 ADD PUSH2 0x1004 SWAP3 SWAP2 SWAP1 PUSH2 0x3FE0 JUMP JUMPDEST PUSH1 0x0 PUSH1 0x40 MLOAD DUP1 DUP4 SUB DUP2 PUSH1 0x0 DUP8 DUP1 EXTCODESIZE ISZERO DUP1 ISZERO PUSH2 0x101E JUMPI PUSH1 0x0 DUP1 REVERT JUMPDEST POP GAS CALL ISZERO DUP1 ISZERO PUSH2 0x1032 JUMPI RETURNDATASIZE PUSH1 0x0 DUP1 RETURNDATACOPY RETURNDATASIZE PUSH1 0x0 REVERT JUMPDEST POP POP POP POP DUP2 SWAP4 POP POP POP POP SWAP1 JUMP JUMPDEST PUSH2 0x1047 PUSH2 0x1B18 JUMP JUMPDEST PUSH20 0xFFFFFFFFFFFFFFFFFFFFFFFFFFFFFFFFFFFFFFFF AND DUP4 PUSH20 0xFFFFFFFFFFFFFFFFFFFFFFFFFFFFFFFFFFFFFFFF AND EQ DUP1 PUSH2 0x108D JUMPI POP PUSH2 0x108C DUP4 PUSH2 0x1087 PUSH2 0x1B18 JUMP JUMPDEST PUSH2 0x1230 JUMP JUMPDEST JUMPDEST PUSH2 0x10CC JUMPI PUSH1 0x40 MLOAD PUSH32 0x8C379A000000000000000000000000000000000000000000000000000000000 DUP2 MSTORE PUSH1 0x4 ADD PUSH2 0x10C3 SWAP1 PUSH2 0x3BFE JUMP JUMPDEST PUSH1 0x40 MLOAD DUP1 SWAP2 SUB SWAP1 REVERT JUMPDEST PUSH2 0x10D7 DUP4 DUP4 DUP4 PUSH2 0x1FF1 JUMP JUMPDEST POP POP POP JUMP JUMPDEST PUSH1 0x1 DUP2 JUMP JUMPDEST PUSH2 0x10E9 PUSH2 0x16FB JUMP JUMPDEST PUSH2 0x10F3 PUSH1 0x0 PUSH2 0x22BF JUMP JUMPDEST JUMP JUMPDEST PUSH1 0x0 PUSH1 0x3 PUSH1 0x0 SWAP1 SLOAD SWAP1 PUSH2 0x100 EXP SWAP1 DIV PUSH20 0xFFFFFFFFFFFFFFFFFFFFFFFFFFFFFFFFFFFFFFFF AND SWAP1 POP SWAP1 JUMP JUMPDEST PUSH1 0x3 DUP2 JUMP JUMPDEST PUSH2 0x12E DUP2 JUMP JUMPDEST PUSH2 0x113C PUSH2 0x1135 PUSH2 0x1B18 JUMP JUMPDEST DUP4 DUP4 PUSH2 0x2385 JUMP JUMPDEST POP POP JUMP JUMPDEST PUSH1 0x0 DUP2 JUMP JUMPDEST PUSH1 0x0 DUP1 PUSH1 0xA DUP1 SLOAD SWAP1 POP TIMESTAMP PUSH1 0x40 MLOAD PUSH1 0x20 ADD PUSH2 0x115F SWAP2 SWAP1 PUSH2 0x3D77 JUMP JUMPDEST PUSH1 0x40 MLOAD PUSH1 0x20 DUP2 DUP4 SUB SUB DUP2 MSTORE SWAP1 PUSH1 0x40 MSTORE DUP1 MLOAD SWAP1 PUSH1 0x20 ADD KECCAK256 PUSH1 0x0 SHR PUSH2 0x1182 SWAP2 SWAP1 PUSH2 0x3DC1 JUMP JUMPDEST SWAP1 POP PUSH1 0x0 PUSH1 0xA DUP3 DUP2 SLOAD DUP2 LT PUSH2 0x119A JUMPI PUSH2 0x1199 PUSH2 0x3CB0 JUMP JUMPDEST JUMPDEST SWAP1 PUSH1 0x0 MSTORE PUSH1 0x20 PUSH1 0x0 KECCAK256 ADD SLOAD SWAP1 POP PUSH2 0x11C3 CALLER DUP3 PUSH1 0x1 PUSH1 0x40 MLOAD DUP1 PUSH1 0x20 ADD PUSH1 0x40 MSTORE DUP1 PUSH1 0x0 DUP2 MSTORE POP PUSH2 0x1E41 JUMP JUMPDEST PUSH2 0x11F0 PUSH1 0xB PUSH1 0x0 SWAP1 SLOAD SWAP1 PUSH2 0x100 EXP SWAP1 DIV PUSH20 0xFFFFFFFFFFFFFFFFFFFFFFFFFFFFFFFFFFFFFFFF AND PUSH1 0x1 PUSH2 0x112A JUMP JUMPDEST DUP1 SWAP3 POP POP POP SWAP1 JUMP JUMPDEST PUSH1 0x0 PUSH1 0x4 PUSH1 0x0 DUP4 DUP2 MSTORE PUSH1 0x20 ADD SWAP1 DUP2 MSTORE PUSH1 0x20 ADD PUSH1 0x0 KECCAK256 SLOAD SWAP1 POP SWAP2 SWAP1 POP JUMP JUMPDEST PUSH1 0xC9 DUP2 JUMP JUMPDEST PUSH1 0x66 DUP2 JUMP JUMPDEST PUSH2 0x190 DUP2 JUMP JUMPDEST PUSH2 0x193 DUP2 JUMP JUMPDEST PUSH1 0x2 DUP2 JUMP JUMPDEST PUSH1 0x0 PUSH1 0x1 PUSH1 0x0 DUP5 PUSH20 0xFFFFFFFFFFFFFFFFFFFFFFFFFFFFFFFFFFFFFFFF AND PUSH20 0xFFFFFFFFFFFFFFFFFFFFFFFFFFFFFFFFFFFFFFFF AND DUP2 MSTORE PUSH1 0x20 ADD SWAP1 DUP2 MSTORE PUSH1 0x20 ADD PUSH1 0x0 KECCAK256 PUSH1 0x0 DUP4 PUSH20 0xFFFFFFFFFFFFFFFFFFFFFFFFFFFFFFFFFFFFFFFF AND PUSH20 0xFFFFFFFFFFFFFFFFFFFFFFFFFFFFFFFFFFFFFFFF AND DUP2 MSTORE PUSH1 0x20 ADD SWAP1 DUP2 MSTORE PUSH1 0x20 ADD PUSH1 0x0 KECCAK256 PUSH1 0x0 SWAP1 SLOAD SWAP1 PUSH2 0x100 EXP SWAP1 DIV PUSH1 0xFF AND SWAP1 POP SWAP3 SWAP2 POP POP JUMP JUMPDEST PUSH1 0x64 DUP2 JUMP JUMPDEST PUSH2 0x12C DUP2 JUMP JUMPDEST PUSH2 0x12D7 PUSH2 0x1B18 JUMP JUMPDEST PUSH20 0xFFFFFFFFFFFFFFFFFFFFFFFFFFFFFFFFFFFFFFFF AND DUP6 PUSH20 0xFFFFFFFFFFFFFFFFFFFFFFFFFFFFFFFFFFFFFFFF AND EQ DUP1 PUSH2 0x131D JUMPI POP PUSH2 0x131C DUP6 PUSH2 0x1317 PUSH2 0x1B18 JUMP JUMPDEST PUSH2 0x1230 JUMP JUMPDEST JUMPDEST PUSH2 0x135C JUMPI PUSH1 0x40 MLOAD PUSH32 0x8C379A000000000000000000000000000000000000000000000000000000000 DUP2 MSTORE PUSH1 0x4 ADD PUSH2 0x1353 SWAP1 PUSH2 0x3BFE JUMP JUMPDEST PUSH1 0x40 MLOAD DUP1 SWAP2 SUB SWAP1 REVERT JUMPDEST PUSH2 0x1369 DUP6 DUP6 DUP6 DUP6 DUP6 PUSH2 0x24F1 JUMP JUMPDEST POP POP POP POP POP JUMP JUMPDEST PUSH2 0x1378 PUSH2 0x16FB JUMP JUMPDEST PUSH1 0x0 PUSH20 0xFFFFFFFFFFFFFFFFFFFFFFFFFFFFFFFFFFFFFFFF AND DUP2 PUSH20 0xFFFFFFFFFFFFFFFFFFFFFFFFFFFFFFFFFFFFFFFF AND SUB PUSH2 0x13E7 JUMPI PUSH1 0x40 MLOAD PUSH32 0x8C379A000000000000000000000000000000000000000000000000000000000 DUP2 MSTORE PUSH1 0x4 ADD PUSH2 0x13DE SWAP1 PUSH2 0x407B JUMP JUMPDEST PUSH1 0x40 MLOAD DUP1 SWAP2 SUB SWAP1 REVERT JUMPDEST PUSH2 0x13F0 DUP2 PUSH2 0x22BF JUMP JUMPDEST POP JUMP JUMPDEST PUSH2 0x13FB PUSH2 0x1B18 JUMP JUMPDEST PUSH20 0xFFFFFFFFFFFFFFFFFFFFFFFFFFFFFFFFFFFFFFFF AND DUP4 PUSH20 0xFFFFFFFFFFFFFFFFFFFFFFFFFFFFFFFFFFFFFFFF AND EQ DUP1 PUSH2 0x1441 JUMPI POP PUSH2 0x1440 DUP4 PUSH2 0x143B PUSH2 0x1B18 JUMP JUMPDEST PUSH2 0x1230 JUMP JUMPDEST JUMPDEST PUSH2 0x1480 JUMPI PUSH1 0x40 MLOAD PUSH32 0x8C379A000000000000000000000000000000000000000000000000000000000 DUP2 MSTORE PUSH1 0x4 ADD PUSH2 0x1477 SWAP1 PUSH2 0x3BFE JUMP JUMPDEST PUSH1 0x40 MLOAD DUP1 SWAP2 SUB SWAP1 REVERT JUMPDEST PUSH2 0x148B DUP4 DUP4 DUP4 PUSH2 0x278C JUMP JUMPDEST POP POP POP JUMP JUMPDEST PUSH2 0x192 DUP2 JUMP JUMPDEST PUSH2 0x14A4 DUP7 DUP7 DUP7 DUP7 DUP7 DUP7 PUSH2 0x1689 JUMP JUMPDEST PUSH1 0x0 PUSH20 0xFFFFFFFFFFFFFFFFFFFFFFFFFFFFFFFFFFFFFFFF AND DUP6 PUSH20 0xFFFFFFFFFFFFFFFFFFFFFFFFFFFFFFFFFFFFFFFF AND SUB PUSH2 0x1555 JUMPI PUSH1 0x0 JUMPDEST DUP4 MLOAD DUP2 LT ISZERO PUSH2 0x1553 JUMPI DUP3 DUP2 DUP2 MLOAD DUP2 LT PUSH2 0x14F7 JUMPI PUSH2 0x14F6 PUSH2 0x3CB0 JUMP JUMPDEST JUMPDEST PUSH1 0x20 MUL PUSH1 0x20 ADD ADD MLOAD PUSH1 0x4 PUSH1 0x0 DUP7 DUP5 DUP2 MLOAD DUP2 LT PUSH2 0x1516 JUMPI PUSH2 0x1515 PUSH2 0x3CB0 JUMP JUMPDEST JUMPDEST PUSH1 0x20 MUL PUSH1 0x20 ADD ADD MLOAD DUP2 MSTORE PUSH1 0x20 ADD SWAP1 DUP2 MSTORE PUSH1 0x20 ADD PUSH1 0x0 KECCAK256 PUSH1 0x0 DUP3 DUP3 SLOAD PUSH2 0x153B SWAP2 SWAP1 PUSH2 0x409B JUMP JUMPDEST SWAP3 POP POP DUP2 SWAP1 SSTORE POP DUP1 PUSH2 0x154C SWAP1 PUSH2 0x3D0E JUMP JUMPDEST SWAP1 POP PUSH2 0x14DB JUMP JUMPDEST POP JUMPDEST PUSH1 0x0 PUSH20 0xFFFFFFFFFFFFFFFFFFFFFFFFFFFFFFFFFFFFFFFF AND DUP5 PUSH20 0xFFFFFFFFFFFFFFFFFFFFFFFFFFFFFFFFFFFFFFFF AND SUB PUSH2 0x165E JUMPI PUSH1 0x0 JUMPDEST DUP4 MLOAD DUP2 LT ISZERO PUSH2 0x165C JUMPI PUSH1 0x0 DUP5 DUP3 DUP2 MLOAD DUP2 LT PUSH2 0x15AA JUMPI PUSH2 0x15A9 PUSH2 0x3CB0 JUMP JUMPDEST JUMPDEST PUSH1 0x20 MUL PUSH1 0x20 ADD ADD MLOAD SWAP1 POP PUSH1 0x0 DUP5 DUP4 DUP2 MLOAD DUP2 LT PUSH2 0x15C9 JUMPI PUSH2 0x15C8 PUSH2 0x3CB0 JUMP JUMPDEST JUMPDEST PUSH1 0x20 MUL PUSH1 0x20 ADD ADD MLOAD SWAP1 POP PUSH1 0x0 PUSH1 0x4 PUSH1 0x0 DUP5 DUP2 MSTORE PUSH1 0x20 ADD SWAP1 DUP2 MSTORE PUSH1 0x20 ADD PUSH1 0x0 KECCAK256 SLOAD SWAP1 POP DUP2 DUP2 LT ISZERO PUSH2 0x162E JUMPI PUSH1 0x40 MLOAD PUSH32 0x8C379A000000000000000000000000000000000000000000000000000000000 DUP2 MSTORE PUSH1 0x4 ADD PUSH2 0x1625 SWAP1 PUSH2 0x4141 JUMP JUMPDEST PUSH1 0x40 MLOAD DUP1 SWAP2 SUB SWAP1 REVERT JUMPDEST DUP2 DUP2 SUB PUSH1 0x4 PUSH1 0x0 DUP6 DUP2 MSTORE PUSH1 0x20 ADD SWAP1 DUP2 MSTORE PUSH1 0x20 ADD PUSH1 0x0 KECCAK256 DUP2 SWAP1 SSTORE POP POP POP POP DUP1 PUSH2 0x1655 SWAP1 PUSH2 0x3D0E JUMP JUMPDEST SWAP1 POP PUSH2 0x158C JUMP JUMPDEST POP JUMPDEST POP POP POP POP POP POP JUMP JUMPDEST PUSH1 0x0 DUP1 DUP3 PUSH20 0xFFFFFFFFFFFFFFFFFFFFFFFFFFFFFFFFFFFFFFFF AND EXTCODESIZE GT SWAP1 POP SWAP2 SWAP1 POP JUMP JUMPDEST POP POP POP POP POP POP JUMP JUMPDEST PUSH1 0x0 PUSH32 0x1FFC9A700000000000000000000000000000000000000000000000000000000 PUSH28 0xFFFFFFFFFFFFFFFFFFFFFFFFFFFFFFFFFFFFFFFFFFFFFFFFFFFFFFFF NOT AND DUP3 PUSH28 0xFFFFFFFFFFFFFFFFFFFFFFFFFFFFFFFFFFFFFFFFFFFFFFFFFFFFFFFF NOT AND EQ SWAP1 POP SWAP2 SWAP1 POP JUMP JUMPDEST PUSH2 0x1703 PUSH2 0x1B18 JUMP JUMPDEST PUSH20 0xFFFFFFFFFFFFFFFFFFFFFFFFFFFFFFFFFFFFFFFF AND PUSH2 0x1721 PUSH2 0x10F5 JUMP JUMPDEST PUSH20 0xFFFFFFFFFFFFFFFFFFFFFFFFFFFFFFFFFFFFFFFF AND EQ PUSH2 0x1777 JUMPI PUSH1 0x40 MLOAD PUSH32 0x8C379A000000000000000000000000000000000000000000000000000000000 DUP2 MSTORE PUSH1 0x4 ADD PUSH2 0x176E SWAP1 PUSH2 0x41AD JUMP JUMPDEST PUSH1 0x40 MLOAD DUP1 SWAP2 SUB SWAP1 REVERT JUMPDEST JUMP JUMPDEST DUP1 PUSH1 0x2 SWAP1 DUP2 PUSH2 0x1788 SWAP2 SWAP1 PUSH2 0x43CF JUMP JUMPDEST POP POP JUMP JUMPDEST PUSH1 0x60 PUSH1 0x0 DUP3 SUB PUSH2 0x17D3 JUMPI PUSH1 0x40 MLOAD DUP1 PUSH1 0x40 ADD PUSH1 0x40 MSTORE DUP1 PUSH1 0x1 DUP2 MSTORE PUSH1 0x20 ADD PUSH32 0x3000000000000000000000000000000000000000000000000000000000000000 DUP2 MSTORE POP SWAP1 POP PUSH2 0x18E7 JUMP JUMPDEST PUSH1 0x0 DUP3 SWAP1 POP PUSH1 0x0 JUMPDEST PUSH1 0x0 DUP3 EQ PUSH2 0x1805 JUMPI DUP1 DUP1 PUSH2 0x17EE SWAP1 PUSH2 0x3D0E JUMP JUMPDEST SWAP2 POP POP PUSH1 0xA DUP3 PUSH2 0x17FE SWAP2 SWAP1 PUSH2 0x3FAF JUMP JUMPDEST SWAP2 POP PUSH2 0x17DB JUMP JUMPDEST PUSH1 0x0 DUP2 PUSH8 0xFFFFFFFFFFFFFFFF DUP2 GT ISZERO PUSH2 0x1821 JUMPI PUSH2 0x1820 PUSH2 0x3000 JUMP JUMPDEST JUMPDEST PUSH1 0x40 MLOAD SWAP1 DUP1 DUP3 MSTORE DUP1 PUSH1 0x1F ADD PUSH1 0x1F NOT AND PUSH1 0x20 ADD DUP3 ADD PUSH1 0x40 MSTORE DUP1 ISZERO PUSH2 0x1853 JUMPI DUP2 PUSH1 0x20 ADD PUSH1 0x1 DUP3 MUL DUP1 CALLDATASIZE DUP4 CALLDATACOPY DUP1 DUP3 ADD SWAP2 POP POP SWAP1 POP JUMPDEST POP SWAP1 POP JUMPDEST PUSH1 0x0 DUP6 EQ PUSH2 0x18E0 JUMPI PUSH1 0x1 DUP3 PUSH2 0x186C SWAP2 SWAP1 PUSH2 0x44A1 JUMP JUMPDEST SWAP2 POP PUSH1 0xA DUP6 PUSH2 0x187B SWAP2 SWAP1 PUSH2 0x3DC1 JUMP JUMPDEST PUSH1 0x30 PUSH2 0x1887 SWAP2 SWAP1 PUSH2 0x409B JUMP JUMPDEST PUSH1 0xF8 SHL DUP2 DUP4 DUP2 MLOAD DUP2 LT PUSH2 0x189D JUMPI PUSH2 0x189C PUSH2 0x3CB0 JUMP JUMPDEST JUMPDEST PUSH1 0x20 ADD ADD SWAP1 PUSH31 0xFFFFFFFFFFFFFFFFFFFFFFFFFFFFFFFFFFFFFFFFFFFFFFFFFFFFFFFFFFFFFF NOT AND SWAP1 DUP2 PUSH1 0x0 BYTE SWAP1 MSTORE8 POP PUSH1 0xA DUP6 PUSH2 0x18D9 SWAP2 SWAP1 PUSH2 0x3FAF JUMP JUMPDEST SWAP5 POP PUSH2 0x1857 JUMP JUMPDEST DUP1 SWAP4 POP POP POP POP JUMPDEST SWAP2 SWAP1 POP JUMP JUMPDEST PUSH1 0x0 PUSH20 0xFFFFFFFFFFFFFFFFFFFFFFFFFFFFFFFFFFFFFFFF AND DUP5 PUSH20 0xFFFFFFFFFFFFFFFFFFFFFFFFFFFFFFFFFFFFFFFF AND SUB PUSH2 0x195B JUMPI PUSH1 0x40 MLOAD PUSH32 0x8C379A000000000000000000000000000000000000000000000000000000000 DUP2 MSTORE PUSH1 0x4 ADD PUSH2 0x1952 SWAP1 PUSH2 0x4547 JUMP JUMPDEST PUSH1 0x40 MLOAD DUP1 SWAP2 SUB SWAP1 REVERT JUMPDEST DUP2 MLOAD DUP4 MLOAD EQ PUSH2 0x199F JUMPI PUSH1 0x40 MLOAD PUSH32 0x8C379A000000000000000000000000000000000000000000000000000000000 DUP2 MSTORE PUSH1 0x4 ADD PUSH2 0x1996 SWAP1 PUSH2 0x45D9 JUMP JUMPDEST PUSH1 0x40 MLOAD DUP1 SWAP2 SUB SWAP1 REVERT JUMPDEST PUSH1 0x0 PUSH2 0x19A9 PUSH2 0x1B18 JUMP JUMPDEST SWAP1 POP PUSH2 0x19BA DUP2 PUSH1 0x0 DUP8 DUP8 DUP8 DUP8 PUSH2 0x29D2 JUMP JUMPDEST PUSH1 0x0 JUMPDEST DUP5 MLOAD DUP2 LT ISZERO PUSH2 0x1A73 JUMPI DUP4 DUP2 DUP2 MLOAD DUP2 LT PUSH2 0x19D9 JUMPI PUSH2 0x19D8 PUSH2 0x3CB0 JUMP JUMPDEST JUMPDEST PUSH1 0x20 MUL PUSH1 0x20 ADD ADD MLOAD PUSH1 0x0 DUP1 DUP8 DUP5 DUP2 MLOAD DUP2 LT PUSH2 0x19F7 JUMPI PUSH2 0x19F6 PUSH2 0x3CB0 JUMP JUMPDEST JUMPDEST PUSH1 0x20 MUL PUSH1 0x20 ADD ADD MLOAD DUP2 MSTORE PUSH1 0x20 ADD SWAP1 DUP2 MSTORE PUSH1 0x20 ADD PUSH1 0x0 KECCAK256 PUSH1 0x0 DUP9 PUSH20 0xFFFFFFFFFFFFFFFFFFFFFFFFFFFFFFFFFFFFFFFF AND PUSH20 0xFFFFFFFFFFFFFFFFFFFFFFFFFFFFFFFFFFFFFFFF AND DUP2 MSTORE PUSH1 0x20 ADD SWAP1 DUP2 MSTORE PUSH1 0x20 ADD PUSH1 0x0 KECCAK256 PUSH1 0x0 DUP3 DUP3 SLOAD PUSH2 0x1A59 SWAP2 SWAP1 PUSH2 0x409B JUMP JUMPDEST SWAP3 POP POP DUP2 SWAP1 SSTORE POP DUP1 DUP1 PUSH2 0x1A6B SWAP1 PUSH2 0x3D0E JUMP JUMPDEST SWAP2 POP POP PUSH2 0x19BD JUMP JUMPDEST POP DUP5 PUSH20 0xFFFFFFFFFFFFFFFFFFFFFFFFFFFFFFFFFFFFFFFF AND PUSH1 0x0 PUSH20 0xFFFFFFFFFFFFFFFFFFFFFFFFFFFFFFFFFFFFFFFF AND DUP3 PUSH20 0xFFFFFFFFFFFFFFFFFFFFFFFFFFFFFFFFFFFFFFFF AND PUSH32 0x4A39DC06D4C0DBC64B70AF90FD698A233A518AA5D07E595D983B8C0526C8F7FB DUP8 DUP8 PUSH1 0x40 MLOAD PUSH2 0x1AEB SWAP3 SWAP2 SWAP1 PUSH2 0x45F9 JUMP JUMPDEST PUSH1 0x40 MLOAD DUP1 SWAP2 SUB SWAP1 LOG4 PUSH2 0x1B02 DUP2 PUSH1 0x0 DUP8 DUP8 DUP8 DUP8 PUSH2 0x29E8 JUMP JUMPDEST PUSH2 0x1B11 DUP2 PUSH1 0x0 DUP8 DUP8 DUP8 DUP8 PUSH2 0x29F0 JUMP JUMPDEST POP POP POP POP POP JUMP JUMPDEST PUSH1 0x0 CALLER SWAP1 POP SWAP1 JUMP JUMPDEST DUP2 MLOAD DUP4 MLOAD EQ PUSH2 0x1B64 JUMPI PUSH1 0x40 MLOAD PUSH32 0x8C379A000000000000000000000000000000000000000000000000000000000 DUP2 MSTORE PUSH1 0x4 ADD PUSH2 0x1B5B SWAP1 PUSH2 0x45D9 JUMP JUMPDEST PUSH1 0x40 MLOAD DUP1 SWAP2 SUB SWAP1 REVERT JUMPDEST PUSH1 0x0 PUSH20 0xFFFFFFFFFFFFFFFFFFFFFFFFFFFFFFFFFFFFFFFF AND DUP5 PUSH20 0xFFFFFFFFFFFFFFFFFFFFFFFFFFFFFFFFFFFFFFFF AND SUB PUSH2 0x1BD3 JUMPI PUSH1 0x40 MLOAD PUSH32 0x8C379A000000000000000000000000000000000000000000000000000000000 DUP2 MSTORE PUSH1 0x4 ADD PUSH2 0x1BCA SWAP1 PUSH2 0x46A2 JUMP JUMPDEST PUSH1 0x40 MLOAD DUP1 SWAP2 SUB SWAP1 REVERT JUMPDEST PUSH1 0x0 PUSH2 0x1BDD PUSH2 0x1B18 JUMP JUMPDEST SWAP1 POP PUSH2 0x1BED DUP2 DUP8 DUP8 DUP8 DUP8 DUP8 PUSH2 0x29D2 JUMP JUMPDEST PUSH1 0x0 JUMPDEST DUP5 MLOAD DUP2 LT ISZERO PUSH2 0x1D9E JUMPI PUSH1 0x0 DUP6 DUP3 DUP2 MLOAD DUP2 LT PUSH2 0x1C0E JUMPI PUSH2 0x1C0D PUSH2 0x3CB0 JUMP JUMPDEST JUMPDEST PUSH1 0x20 MUL PUSH1 0x20 ADD ADD MLOAD SWAP1 POP PUSH1 0x0 DUP6 DUP4 DUP2 MLOAD DUP2 LT PUSH2 0x1C2D JUMPI PUSH2 0x1C2C PUSH2 0x3CB0 JUMP JUMPDEST JUMPDEST PUSH1 0x20 MUL PUSH1 0x20 ADD ADD MLOAD SWAP1 POP PUSH1 0x0 DUP1 PUSH1 0x0 DUP5 DUP2 MSTORE PUSH1 0x20 ADD SWAP1 DUP2 MSTORE PUSH1 0x20 ADD PUSH1 0x0 KECCAK256 PUSH1 0x0 DUP12 PUSH20 0xFFFFFFFFFFFFFFFFFFFFFFFFFFFFFFFFFFFFFFFF AND PUSH20 0xFFFFFFFFFFFFFFFFFFFFFFFFFFFFFFFFFFFFFFFF AND DUP2 MSTORE PUSH1 0x20 ADD SWAP1 DUP2 MSTORE PUSH1 0x20 ADD PUSH1 0x0 KECCAK256 SLOAD SWAP1 POP DUP2 DUP2 LT ISZERO PUSH2 0x1CCE JUMPI PUSH1 0x40 MLOAD PUSH32 0x8C379A000000000000000000000000000000000000000000000000000000000 DUP2 MSTORE PUSH1 0x4 ADD PUSH2 0x1CC5 SWAP1 PUSH2 0x4734 JUMP JUMPDEST PUSH1 0x40 MLOAD DUP1 SWAP2 SUB SWAP1 REVERT JUMPDEST DUP2 DUP2 SUB PUSH1 0x0 DUP1 DUP6 DUP2 MSTORE PUSH1 0x20 ADD SWAP1 DUP2 MSTORE PUSH1 0x20 ADD PUSH1 0x0 KECCAK256 PUSH1 0x0 DUP13 PUSH20 0xFFFFFFFFFFFFFFFFFFFFFFFFFFFFFFFFFFFFFFFF AND PUSH20 0xFFFFFFFFFFFFFFFFFFFFFFFFFFFFFFFFFFFFFFFF AND DUP2 MSTORE PUSH1 0x20 ADD SWAP1 DUP2 MSTORE PUSH1 0x20 ADD PUSH1 0x0 KECCAK256 DUP2 SWAP1 SSTORE POP DUP2 PUSH1 0x0 DUP1 DUP6 DUP2 MSTORE PUSH1 0x20 ADD SWAP1 DUP2 MSTORE PUSH1 0x20 ADD PUSH1 0x0 KECCAK256 PUSH1 0x0 DUP12 PUSH20 0xFFFFFFFFFFFFFFFFFFFFFFFFFFFFFFFFFFFFFFFF AND PUSH20 0xFFFFFFFFFFFFFFFFFFFFFFFFFFFFFFFFFFFFFFFF AND DUP2 MSTORE PUSH1 0x20 ADD SWAP1 DUP2 MSTORE PUSH1 0x20 ADD PUSH1 0x0 KECCAK256 PUSH1 0x0 DUP3 DUP3 SLOAD PUSH2 0x1D83 SWAP2 SWAP1 PUSH2 0x409B JUMP JUMPDEST SWAP3 POP POP DUP2 SWAP1 SSTORE POP POP POP POP DUP1 PUSH2 0x1D97 SWAP1 PUSH2 0x3D0E JUMP JUMPDEST SWAP1 POP PUSH2 0x1BF0 JUMP JUMPDEST POP DUP5 PUSH20 0xFFFFFFFFFFFFFFFFFFFFFFFFFFFFFFFFFFFFFFFF AND DUP7 PUSH20 0xFFFFFFFFFFFFFFFFFFFFFFFFFFFFFFFFFFFFFFFF AND DUP3 PUSH20 0xFFFFFFFFFFFFFFFFFFFFFFFFFFFFFFFFFFFFFFFF AND PUSH32 0x4A39DC06D4C0DBC64B70AF90FD698A233A518AA5D07E595D983B8C0526C8F7FB DUP8 DUP8 PUSH1 0x40 MLOAD PUSH2 0x1E15 SWAP3 SWAP2 SWAP1 PUSH2 0x45F9 JUMP JUMPDEST PUSH1 0x40 MLOAD DUP1 SWAP2 SUB SWAP1 LOG4 PUSH2 0x1E2B DUP2 DUP8 DUP8 DUP8 DUP8 DUP8 PUSH2 0x29E8 JUMP JUMPDEST PUSH2 0x1E39 DUP2 DUP8 DUP8 DUP8 DUP8 DUP8 PUSH2 0x29F0 JUMP JUMPDEST POP POP POP POP POP POP JUMP JUMPDEST PUSH1 0x0 PUSH20 0xFFFFFFFFFFFFFFFFFFFFFFFFFFFFFFFFFFFFFFFF AND DUP5 PUSH20 0xFFFFFFFFFFFFFFFFFFFFFFFFFFFFFFFFFFFFFFFF AND SUB PUSH2 0x1EB0 JUMPI PUSH1 0x40 MLOAD PUSH32 0x8C379A000000000000000000000000000000000000000000000000000000000 DUP2 MSTORE PUSH1 0x4 ADD PUSH2 0x1EA7 SWAP1 PUSH2 0x4547 JUMP JUMPDEST PUSH1 0x40 MLOAD DUP1 SWAP2 SUB SWAP1 REVERT JUMPDEST PUSH1 0x0 PUSH2 0x1EBA PUSH2 0x1B18 JUMP JUMPDEST SWAP1 POP PUSH1 0x0 PUSH2 0x1EC7 DUP6 PUSH2 0x2BC7 JUMP JUMPDEST SWAP1 POP PUSH1 0x0 PUSH2 0x1ED4 DUP6 PUSH2 0x2BC7 JUMP JUMPDEST SWAP1 POP PUSH2 0x1EE5 DUP4 PUSH1 0x0 DUP10 DUP6 DUP6 DUP10 PUSH2 0x29D2 JUMP JUMPDEST DUP5 PUSH1 0x0 DUP1 DUP9 DUP2 MSTORE PUSH1 0x20 ADD SWAP1 DUP2 MSTORE PUSH1 0x20 ADD PUSH1 0x0 KECCAK256 PUSH1 0x0 DUP10 PUSH20 0xFFFFFFFFFFFFFFFFFFFFFFFFFFFFFFFFFFFFFFFF AND PUSH20 0xFFFFFFFFFFFFFFFFFFFFFFFFFFFFFFFFFFFFFFFF AND DUP2 MSTORE PUSH1 0x20 ADD SWAP1 DUP2 MSTORE PUSH1 0x20 ADD PUSH1 0x0 KECCAK256 PUSH1 0x0 DUP3 DUP3 SLOAD PUSH2 0x1F44 SWAP2 SWAP1 PUSH2 0x409B JUMP JUMPDEST SWAP3 POP POP DUP2 SWAP1 SSTORE POP DUP7 PUSH20 0xFFFFFFFFFFFFFFFFFFFFFFFFFFFFFFFFFFFFFFFF AND PUSH1 0x0 PUSH20 0xFFFFFFFFFFFFFFFFFFFFFFFFFFFFFFFFFFFFFFFF AND DUP5 PUSH20 0xFFFFFFFFFFFFFFFFFFFFFFFFFFFFFFFFFFFFFFFF AND PUSH32 0xC3D58168C5AE7397731D063D5BBF3D657854427343F4C083240F7AACAA2D0F62 DUP10 DUP10 PUSH1 0x40 MLOAD PUSH2 0x1FC2 SWAP3 SWAP2 SWAP1 PUSH2 0x4754 JUMP JUMPDEST PUSH1 0x40 MLOAD DUP1 SWAP2 SUB SWAP1 LOG4 PUSH2 0x1FD9 DUP4 PUSH1 0x0 DUP10 DUP6 DUP6 DUP10 PUSH2 0x29E8 JUMP JUMPDEST PUSH2 0x1FE8 DUP4 PUSH1 0x0 DUP10 DUP10 DUP10 DUP10 PUSH2 0x2C41 JUMP JUMPDEST POP POP POP POP POP POP POP JUMP JUMPDEST PUSH1 0x0 PUSH20 0xFFFFFFFFFFFFFFFFFFFFFFFFFFFFFFFFFFFFFFFF AND DUP4 PUSH20 0xFFFFFFFFFFFFFFFFFFFFFFFFFFFFFFFFFFFFFFFF AND SUB PUSH2 0x2060 JUMPI PUSH1 0x40 MLOAD PUSH32 0x8C379A000000000000000000000000000000000000000000000000000000000 DUP2 MSTORE PUSH1 0x4 ADD PUSH2 0x2057 SWAP1 PUSH2 0x47EF JUMP JUMPDEST PUSH1 0x40 MLOAD DUP1 SWAP2 SUB SWAP1 REVERT JUMPDEST DUP1 MLOAD DUP3 MLOAD EQ PUSH2 0x20A4 JUMPI PUSH1 0x40 MLOAD PUSH32 0x8C379A000000000000000000000000000000000000000000000000000000000 DUP2 MSTORE PUSH1 0x4 ADD PUSH2 0x209B SWAP1 PUSH2 0x45D9 JUMP JUMPDEST PUSH1 0x40 MLOAD DUP1 SWAP2 SUB SWAP1 REVERT JUMPDEST PUSH1 0x0 PUSH2 0x20AE PUSH2 0x1B18 JUMP JUMPDEST SWAP1 POP PUSH2 0x20CE DUP2 DUP6 PUSH1 0x0 DUP7 DUP7 PUSH1 0x40 MLOAD DUP1 PUSH1 0x20 ADD PUSH1 0x40 MSTORE DUP1 PUSH1 0x0 DUP2 MSTORE POP PUSH2 0x29D2 JUMP JUMPDEST PUSH1 0x0 JUMPDEST DUP4 MLOAD DUP2 LT ISZERO PUSH2 0x221B JUMPI PUSH1 0x0 DUP5 DUP3 DUP2 MLOAD DUP2 LT PUSH2 0x20EF JUMPI PUSH2 0x20EE PUSH2 0x3CB0 JUMP JUMPDEST JUMPDEST PUSH1 0x20 MUL PUSH1 0x20 ADD ADD MLOAD SWAP1 POP PUSH1 0x0 DUP5 DUP4 DUP2 MLOAD DUP2 LT PUSH2 0x210E JUMPI PUSH2 0x210D PUSH2 0x3CB0 JUMP JUMPDEST JUMPDEST PUSH1 0x20 MUL PUSH1 0x20 ADD ADD MLOAD SWAP1 POP PUSH1 0x0 DUP1 PUSH1 0x0 DUP5 DUP2 MSTORE PUSH1 0x20 ADD SWAP1 DUP2 MSTORE PUSH1 0x20 ADD PUSH1 0x0 KECCAK256 PUSH1 0x0 DUP10 PUSH20 0xFFFFFFFFFFFFFFFFFFFFFFFFFFFFFFFFFFFFFFFF AND PUSH20 0xFFFFFFFFFFFFFFFFFFFFFFFFFFFFFFFFFFFFFFFF AND DUP2 MSTORE PUSH1 0x20 ADD SWAP1 DUP2 MSTORE PUSH1 0x20 ADD PUSH1 0x0 KECCAK256 SLOAD SWAP1 POP DUP2 DUP2 LT ISZERO PUSH2 0x21AF JUMPI PUSH1 0x40 MLOAD PUSH32 0x8C379A000000000000000000000000000000000000000000000000000000000 DUP2 MSTORE PUSH1 0x4 ADD PUSH2 0x21A6 SWAP1 PUSH2 0x4881 JUMP JUMPDEST PUSH1 0x40 MLOAD DUP1 SWAP2 SUB SWAP1 REVERT JUMPDEST DUP2 DUP2 SUB PUSH1 0x0 DUP1 DUP6 DUP2 MSTORE PUSH1 0x20 ADD SWAP1 DUP2 MSTORE PUSH1 0x20 ADD PUSH1 0x0 KECCAK256 PUSH1 0x0 DUP11 PUSH20 0xFFFFFFFFFFFFFFFFFFFFFFFFFFFFFFFFFFFFFFFF AND PUSH20 0xFFFFFFFFFFFFFFFFFFFFFFFFFFFFFFFFFFFFFFFF AND DUP2 MSTORE PUSH1 0x20 ADD SWAP1 DUP2 MSTORE PUSH1 0x20 ADD PUSH1 0x0 KECCAK256 DUP2 SWAP1 SSTORE POP POP POP POP DUP1 DUP1 PUSH2 0x2213 SWAP1 PUSH2 0x3D0E JUMP JUMPDEST SWAP2 POP POP PUSH2 0x20D1 JUMP JUMPDEST POP PUSH1 0x0 PUSH20 0xFFFFFFFFFFFFFFFFFFFFFFFFFFFFFFFFFFFFFFFF AND DUP5 PUSH20 0xFFFFFFFFFFFFFFFFFFFFFFFFFFFFFFFFFFFFFFFF AND DUP3 PUSH20 0xFFFFFFFFFFFFFFFFFFFFFFFFFFFFFFFFFFFFFFFF AND PUSH32 0x4A39DC06D4C0DBC64B70AF90FD698A233A518AA5D07E595D983B8C0526C8F7FB DUP7 DUP7 PUSH1 0x40 MLOAD PUSH2 0x2293 SWAP3 SWAP2 SWAP1 PUSH2 0x45F9 JUMP JUMPDEST PUSH1 0x40 MLOAD DUP1 SWAP2 SUB SWAP1 LOG4 PUSH2 0x22B9 DUP2 DUP6 PUSH1 0x0 DUP7 DUP7 PUSH1 0x40 MLOAD DUP1 PUSH1 0x20 ADD PUSH1 0x40 MSTORE DUP1 PUSH1 0x0 DUP2 MSTORE POP PUSH2 0x29E8 JUMP JUMPDEST POP POP POP POP JUMP JUMPDEST PUSH1 0x0 PUSH1 0x3 PUSH1 0x0 SWAP1 SLOAD SWAP1 PUSH2 0x100 EXP SWAP1 DIV PUSH20 0xFFFFFFFFFFFFFFFFFFFFFFFFFFFFFFFFFFFFFFFF AND SWAP1 POP DUP2 PUSH1 0x3 PUSH1 0x0 PUSH2 0x100 EXP DUP2 SLOAD DUP2 PUSH20 0xFFFFFFFFFFFFFFFFFFFFFFFFFFFFFFFFFFFFFFFF MUL NOT AND SWAP1 DUP4 PUSH20 0xFFFFFFFFFFFFFFFFFFFFFFFFFFFFFFFFFFFFFFFF AND MUL OR SWAP1 SSTORE POP DUP2 PUSH20 0xFFFFFFFFFFFFFFFFFFFFFFFFFFFFFFFFFFFFFFFF AND DUP2 PUSH20 0xFFFFFFFFFFFFFFFFFFFFFFFFFFFFFFFFFFFFFFFF AND PUSH32 0x8BE0079C531659141344CD1FD0A4F28419497F9722A3DAAFE3B4186F6B6457E0 PUSH1 0x40 MLOAD PUSH1 0x40 MLOAD DUP1 SWAP2 SUB SWAP1 LOG3 POP POP JUMP JUMPDEST DUP2 PUSH20 0xFFFFFFFFFFFFFFFFFFFFFFFFFFFFFFFFFFFFFFFF AND DUP4 PUSH20 0xFFFFFFFFFFFFFFFFFFFFFFFFFFFFFFFFFFFFFFFF AND SUB PUSH2 0x23F3 JUMPI PUSH1 0x40 MLOAD PUSH32 0x8C379A000000000000000000000000000000000000000000000000000000000 DUP2 MSTORE PUSH1 0x4 ADD PUSH2 0x23EA SWAP1 PUSH2 0x4913 JUMP JUMPDEST PUSH1 0x40 MLOAD DUP1 SWAP2 SUB SWAP1 REVERT JUMPDEST DUP1 PUSH1 0x1 PUSH1 0x0 DUP6 PUSH20 0xFFFFFFFFFFFFFFFFFFFFFFFFFFFFFFFFFFFFFFFF AND PUSH20 0xFFFFFFFFFFFFFFFFFFFFFFFFFFFFFFFFFFFFFFFF AND DUP2 MSTORE PUSH1 0x20 ADD SWAP1 DUP2 MSTORE PUSH1 0x20 ADD PUSH1 0x0 KECCAK256 PUSH1 0x0 DUP5 PUSH20 0xFFFFFFFFFFFFFFFFFFFFFFFFFFFFFFFFFFFFFFFF AND PUSH20 0xFFFFFFFFFFFFFFFFFFFFFFFFFFFFFFFFFFFFFFFF AND DUP2 MSTORE PUSH1 0x20 ADD SWAP1 DUP2 MSTORE PUSH1 0x20 ADD PUSH1 0x0 KECCAK256 PUSH1 0x0 PUSH2 0x100 EXP DUP2 SLOAD DUP2 PUSH1 0xFF MUL NOT AND SWAP1 DUP4 ISZERO ISZERO MUL OR SWAP1 SSTORE POP DUP2 PUSH20 0xFFFFFFFFFFFFFFFFFFFFFFFFFFFFFFFFFFFFFFFF AND DUP4 PUSH20 0xFFFFFFFFFFFFFFFFFFFFFFFFFFFFFFFFFFFFFFFF AND PUSH32 0x17307EAB39AB6107E8899845AD3D59BD9653F200F220920489CA2B5937696C31 DUP4 PUSH1 0x40 MLOAD PUSH2 0x24E4 SWAP2 SWAP1 PUSH2 0x2FCA JUMP JUMPDEST PUSH1 0x40 MLOAD DUP1 SWAP2 SUB SWAP1 LOG3 POP POP POP JUMP JUMPDEST PUSH1 0x0 PUSH20 0xFFFFFFFFFFFFFFFFFFFFFFFFFFFFFFFFFFFFFFFF AND DUP5 PUSH20 0xFFFFFFFFFFFFFFFFFFFFFFFFFFFFFFFFFFFFFFFF AND SUB PUSH2 0x2560 JUMPI PUSH1 0x40 MLOAD PUSH32 0x8C379A000000000000000000000000000000000000000000000000000000000 DUP2 MSTORE PUSH1 0x4 ADD PUSH2 0x2557 SWAP1 PUSH2 0x46A2 JUMP JUMPDEST PUSH1 0x40 MLOAD DUP1 SWAP2 SUB SWAP1 REVERT JUMPDEST PUSH1 0x0 PUSH2 0x256A PUSH2 0x1B18 JUMP JUMPDEST SWAP1 POP PUSH1 0x0 PUSH2 0x2577 DUP6 PUSH2 0x2BC7 JUMP JUMPDEST SWAP1 POP PUSH1 0x0 PUSH2 0x2584 DUP6 PUSH2 0x2BC7 JUMP JUMPDEST SWAP1 POP PUSH2 0x2594 DUP4 DUP10 DUP10 DUP6 DUP6 DUP10 PUSH2 0x29D2 JUMP JUMPDEST PUSH1 0x0 DUP1 PUSH1 0x0 DUP9 DUP2 MSTORE PUSH1 0x20 ADD SWAP1 DUP2 MSTORE PUSH1 0x20 ADD PUSH1 0x0 KECCAK256 PUSH1 0x0 DUP11 PUSH20 0xFFFFFFFFFFFFFFFFFFFFFFFFFFFFFFFFFFFFFFFF AND PUSH20 0xFFFFFFFFFFFFFFFFFFFFFFFFFFFFFFFFFFFFFFFF AND DUP2 MSTORE PUSH1 0x20 ADD SWAP1 DUP2 MSTORE PUSH1 0x20 ADD PUSH1 0x0 KECCAK256 SLOAD SWAP1 POP DUP6 DUP2 LT ISZERO PUSH2 0x262B JUMPI PUSH1 0x40 MLOAD PUSH32 0x8C379A000000000000000000000000000000000000000000000000000000000 DUP2 MSTORE PUSH1 0x4 ADD PUSH2 0x2622 SWAP1 PUSH2 0x4734 JUMP JUMPDEST PUSH1 0x40 MLOAD DUP1 SWAP2 SUB SWAP1 REVERT JUMPDEST DUP6 DUP2 SUB PUSH1 0x0 DUP1 DUP10 DUP2 MSTORE PUSH1 0x20 ADD SWAP1 DUP2 MSTORE PUSH1 0x20 ADD PUSH1 0x0 KECCAK256 PUSH1 0x0 DUP12 PUSH20 0xFFFFFFFFFFFFFFFFFFFFFFFFFFFFFFFFFFFFFFFF AND PUSH20 0xFFFFFFFFFFFFFFFFFFFFFFFFFFFFFFFFFFFFFFFF AND DUP2 MSTORE PUSH1 0x20 ADD SWAP1 DUP2 MSTORE PUSH1 0x20 ADD PUSH1 0x0 KECCAK256 DUP2 SWAP1 SSTORE POP DUP6 PUSH1 0x0 DUP1 DUP10 DUP2 MSTORE PUSH1 0x20 ADD SWAP1 DUP2 MSTORE PUSH1 0x20 ADD PUSH1 0x0 KECCAK256 PUSH1 0x0 DUP11 PUSH20 0xFFFFFFFFFFFFFFFFFFFFFFFFFFFFFFFFFFFFFFFF AND PUSH20 0xFFFFFFFFFFFFFFFFFFFFFFFFFFFFFFFFFFFFFFFF AND DUP2 MSTORE PUSH1 0x20 ADD SWAP1 DUP2 MSTORE PUSH1 0x20 ADD PUSH1 0x0 KECCAK256 PUSH1 0x0 DUP3 DUP3 SLOAD PUSH2 0x26E0 SWAP2 SWAP1 PUSH2 0x409B JUMP JUMPDEST SWAP3 POP POP DUP2 SWAP1 SSTORE POP DUP8 PUSH20 0xFFFFFFFFFFFFFFFFFFFFFFFFFFFFFFFFFFFFFFFF AND DUP10 PUSH20 0xFFFFFFFFFFFFFFFFFFFFFFFFFFFFFFFFFFFFFFFF AND DUP6 PUSH20 0xFFFFFFFFFFFFFFFFFFFFFFFFFFFFFFFFFFFFFFFF AND PUSH32 0xC3D58168C5AE7397731D063D5BBF3D657854427343F4C083240F7AACAA2D0F62 DUP11 DUP11 PUSH1 0x40 MLOAD PUSH2 0x275D SWAP3 SWAP2 SWAP1 PUSH2 0x4754 JUMP JUMPDEST PUSH1 0x40 MLOAD DUP1 SWAP2 SUB SWAP1 LOG4 PUSH2 0x2773 DUP5 DUP11 DUP11 DUP7 DUP7 DUP11 PUSH2 0x29E8 JUMP JUMPDEST PUSH2 0x2781 DUP5 DUP11 DUP11 DUP11 DUP11 DUP11 PUSH2 0x2C41 JUMP JUMPDEST POP POP POP POP POP POP POP POP POP JUMP JUMPDEST PUSH1 0x0 PUSH20 0xFFFFFFFFFFFFFFFFFFFFFFFFFFFFFFFFFFFFFFFF AND DUP4 PUSH20 0xFFFFFFFFFFFFFFFFFFFFFFFFFFFFFFFFFFFFFFFF AND SUB PUSH2 0x27FB JUMPI PUSH1 0x40 MLOAD PUSH32 0x8C379A000000000000000000000000000000000000000000000000000000000 DUP2 MSTORE PUSH1 0x4 ADD PUSH2 0x27F2 SWAP1 PUSH2 0x47EF JUMP JUMPDEST PUSH1 0x40 MLOAD DUP1 SWAP2 SUB SWAP1 REVERT JUMPDEST PUSH1 0x0 PUSH2 0x2805 PUSH2 0x1B18 JUMP JUMPDEST SWAP1 POP PUSH1 0x0 PUSH2 0x2812 DUP5 PUSH2 0x2BC7 JUMP JUMPDEST SWAP1 POP PUSH1 0x0 PUSH2 0x281F DUP5 PUSH2 0x2BC7 JUMP JUMPDEST SWAP1 POP PUSH2 0x283F DUP4 DUP8 PUSH1 0x0 DUP6 DUP6 PUSH1 0x40 MLOAD DUP1 PUSH1 0x20 ADD PUSH1 0x40 MSTORE DUP1 PUSH1 0x0 DUP2 MSTORE POP PUSH2 0x29D2 JUMP JUMPDEST PUSH1 0x0 DUP1 PUSH1 0x0 DUP8 DUP2 MSTORE PUSH1 0x20 ADD SWAP1 DUP2 MSTORE PUSH1 0x20 ADD PUSH1 0x0 KECCAK256 PUSH1 0x0 DUP9 PUSH20 0xFFFFFFFFFFFFFFFFFFFFFFFFFFFFFFFFFFFFFFFF AND PUSH20 0xFFFFFFFFFFFFFFFFFFFFFFFFFFFFFFFFFFFFFFFF AND DUP2 MSTORE PUSH1 0x20 ADD SWAP1 DUP2 MSTORE PUSH1 0x20 ADD PUSH1 0x0 KECCAK256 SLOAD SWAP1 POP DUP5 DUP2 LT ISZERO PUSH2 0x28D6 JUMPI PUSH1 0x40 MLOAD PUSH32 0x8C379A000000000000000000000000000000000000000000000000000000000 DUP2 MSTORE PUSH1 0x4 ADD PUSH2 0x28CD SWAP1 PUSH2 0x4881 JUMP JUMPDEST PUSH1 0x40 MLOAD DUP1 SWAP2 SUB SWAP1 REVERT JUMPDEST DUP5 DUP2 SUB PUSH1 0x0 DUP1 DUP9 DUP2 MSTORE PUSH1 0x20 ADD SWAP1 DUP2 MSTORE PUSH1 0x20 ADD PUSH1 0x0 KECCAK256 PUSH1 0x0 DUP10 PUSH20 0xFFFFFFFFFFFFFFFFFFFFFFFFFFFFFFFFFFFFFFFF AND PUSH20 0xFFFFFFFFFFFFFFFFFFFFFFFFFFFFFFFFFFFFFFFF AND DUP2 MSTORE PUSH1 0x20 ADD SWAP1 DUP2 MSTORE PUSH1 0x20 ADD PUSH1 0x0 KECCAK256 DUP2 SWAP1 SSTORE POP PUSH1 0x0 PUSH20 0xFFFFFFFFFFFFFFFFFFFFFFFFFFFFFFFFFFFFFFFF AND DUP8 PUSH20 0xFFFFFFFFFFFFFFFFFFFFFFFFFFFFFFFFFFFFFFFF AND DUP6 PUSH20 0xFFFFFFFFFFFFFFFFFFFFFFFFFFFFFFFFFFFFFFFF AND PUSH32 0xC3D58168C5AE7397731D063D5BBF3D657854427343F4C083240F7AACAA2D0F62 DUP10 DUP10 PUSH1 0x40 MLOAD PUSH2 0x29A3 SWAP3 SWAP2 SWAP1 PUSH2 0x4754 JUMP JUMPDEST PUSH1 0x40 MLOAD DUP1 SWAP2 SUB SWAP1 LOG4 PUSH2 0x29C9 DUP5 DUP9 PUSH1 0x0 DUP7 DUP7 PUSH1 0x40 MLOAD DUP1 PUSH1 0x20 ADD PUSH1 0x40 MSTORE DUP1 PUSH1 0x0 DUP2 MSTORE POP PUSH2 0x29E8 JUMP JUMPDEST POP POP POP POP POP POP POP JUMP JUMPDEST PUSH2 0x29E0 DUP7 DUP7 DUP7 DUP7 DUP7 DUP7 PUSH2 0x1496 JUMP JUMPDEST POP POP POP POP POP POP JUMP JUMPDEST POP POP POP POP POP POP JUMP JUMPDEST PUSH2 0x2A0F DUP5 PUSH20 0xFFFFFFFFFFFFFFFFFFFFFFFFFFFFFFFFFFFFFFFF AND PUSH2 0x1666 JUMP JUMPDEST ISZERO PUSH2 0x2BBF JUMPI DUP4 PUSH20 0xFFFFFFFFFFFFFFFFFFFFFFFFFFFFFFFFFFFFFFFF AND PUSH4 0xBC197C81 DUP8 DUP8 DUP7 DUP7 DUP7 PUSH1 0x40 MLOAD DUP7 PUSH4 0xFFFFFFFF AND PUSH1 0xE0 SHL DUP2 MSTORE PUSH1 0x4 ADD PUSH2 0x2A55 SWAP6 SWAP5 SWAP4 SWAP3 SWAP2 SWAP1 PUSH2 0x4988 JUMP JUMPDEST PUSH1 0x20 PUSH1 0x40 MLOAD DUP1 DUP4 SUB DUP2 PUSH1 0x0 DUP8 GAS CALL SWAP3 POP POP POP DUP1 ISZERO PUSH2 0x2A91 JUMPI POP PUSH1 0x40 MLOAD RETURNDATASIZE PUSH1 0x1F NOT PUSH1 0x1F DUP3 ADD AND DUP3 ADD DUP1 PUSH1 0x40 MSTORE POP DUP2 ADD SWAP1 PUSH2 0x2A8E SWAP2 SWAP1 PUSH2 0x4A05 JUMP JUMPDEST PUSH1 0x1 JUMPDEST PUSH2 0x2B36 JUMPI PUSH2 0x2A9D PUSH2 0x4A3F JUMP JUMPDEST DUP1 PUSH4 0x8C379A0 SUB PUSH2 0x2AF9 JUMPI POP PUSH2 0x2AB1 PUSH2 0x4A61 JUMP JUMPDEST DUP1 PUSH2 0x2ABC JUMPI POP PUSH2 0x2AFB JUMP JUMPDEST DUP1 PUSH1 0x40 MLOAD PUSH32 0x8C379A000000000000000000000000000000000000000000000000000000000 DUP2 MSTORE PUSH1 0x4 ADD PUSH2 0x2AF0 SWAP2 SWAP1 PUSH2 0x3220 JUMP JUMPDEST PUSH1 0x40 MLOAD DUP1 SWAP2 SUB SWAP1 REVERT JUMPDEST POP JUMPDEST PUSH1 0x40 MLOAD PUSH32 0x8C379A000000000000000000000000000000000000000000000000000000000 DUP2 MSTORE PUSH1 0x4 ADD PUSH2 0x2B2D SWAP1 PUSH2 0x4B63 JUMP JUMPDEST PUSH1 0x40 MLOAD DUP1 SWAP2 SUB SWAP1 REVERT JUMPDEST PUSH4 0xBC197C81 PUSH1 0xE0 SHL PUSH28 0xFFFFFFFFFFFFFFFFFFFFFFFFFFFFFFFFFFFFFFFFFFFFFFFFFFFFFFFF NOT AND DUP2 PUSH28 0xFFFFFFFFFFFFFFFFFFFFFFFFFFFFFFFFFFFFFFFFFFFFFFFFFFFFFFFF NOT AND EQ PUSH2 0x2BBD JUMPI PUSH1 0x40 MLOAD PUSH32 0x8C379A000000000000000000000000000000000000000000000000000000000 DUP2 MSTORE PUSH1 0x4 ADD PUSH2 0x2BB4 SWAP1 PUSH2 0x4BF5 JUMP JUMPDEST PUSH1 0x40 MLOAD DUP1 SWAP2 SUB SWAP1 REVERT JUMPDEST POP JUMPDEST POP POP POP POP POP POP JUMP JUMPDEST PUSH1 0x60 PUSH1 0x0 PUSH1 0x1 PUSH8 0xFFFFFFFFFFFFFFFF DUP2 GT ISZERO PUSH2 0x2BE6 JUMPI PUSH2 0x2BE5 PUSH2 0x3000 JUMP JUMPDEST JUMPDEST PUSH1 0x40 MLOAD SWAP1 DUP1 DUP3 MSTORE DUP1 PUSH1 0x20 MUL PUSH1 0x20 ADD DUP3 ADD PUSH1 0x40 MSTORE DUP1 ISZERO PUSH2 0x2C14 JUMPI DUP2 PUSH1 0x20 ADD PUSH1 0x20 DUP3 MUL DUP1 CALLDATASIZE DUP4 CALLDATACOPY DUP1 DUP3 ADD SWAP2 POP POP SWAP1 POP JUMPDEST POP SWAP1 POP DUP3 DUP2 PUSH1 0x0 DUP2 MLOAD DUP2 LT PUSH2 0x2C2C JUMPI PUSH2 0x2C2B PUSH2 0x3CB0 JUMP JUMPDEST JUMPDEST PUSH1 0x20 MUL PUSH1 0x20 ADD ADD DUP2 DUP2 MSTORE POP POP DUP1 SWAP2 POP POP SWAP2 SWAP1 POP JUMP JUMPDEST PUSH2 0x2C60 DUP5 PUSH20 0xFFFFFFFFFFFFFFFFFFFFFFFFFFFFFFFFFFFFFFFF AND PUSH2 0x1666 JUMP JUMPDEST ISZERO PUSH2 0x2E10 JUMPI DUP4 PUSH20 0xFFFFFFFFFFFFFFFFFFFFFFFFFFFFFFFFFFFFFFFF AND PUSH4 0xF23A6E61 DUP8 DUP8 DUP7 DUP7 DUP7 PUSH1 0x40 MLOAD DUP7 PUSH4 0xFFFFFFFF AND PUSH1 0xE0 SHL DUP2 MSTORE PUSH1 0x4 ADD PUSH2 0x2CA6 SWAP6 SWAP5 SWAP4 SWAP3 SWAP2 SWAP1 PUSH2 0x4C15 JUMP JUMPDEST PUSH1 0x20 PUSH1 0x40 MLOAD DUP1 DUP4 SUB DUP2 PUSH1 0x0 DUP8 GAS CALL SWAP3 POP POP POP DUP1 ISZERO PUSH2 0x2CE2 JUMPI POP PUSH1 0x40 MLOAD RETURNDATASIZE PUSH1 0x1F NOT PUSH1 0x1F DUP3 ADD AND DUP3 ADD DUP1 PUSH1 0x40 MSTORE POP DUP2 ADD SWAP1 PUSH2 0x2CDF SWAP2 SWAP1 PUSH2 0x4A05 JUMP JUMPDEST PUSH1 0x1 JUMPDEST PUSH2 0x2D87 JUMPI PUSH2 0x2CEE PUSH2 0x4A3F JUMP JUMPDEST DUP1 PUSH4 0x8C379A0 SUB PUSH2 0x2D4A JUMPI POP PUSH2 0x2D02 PUSH2 0x4A61 JUMP JUMPDEST DUP1 PUSH2 0x2D0D JUMPI POP PUSH2 0x2D4C JUMP JUMPDEST DUP1 PUSH1 0x40 MLOAD PUSH32 0x8C379A000000000000000000000000000000000000000000000000000000000 DUP2 MSTORE PUSH1 0x4 ADD PUSH2 0x2D41 SWAP2 SWAP1 PUSH2 0x3220 JUMP JUMPDEST PUSH1 0x40 MLOAD DUP1 SWAP2 SUB SWAP1 REVERT JUMPDEST POP JUMPDEST PUSH1 0x40 MLOAD PUSH32 0x8C379A000000000000000000000000000000000000000000000000000000000 DUP2 MSTORE PUSH1 0x4 ADD PUSH2 0x2D7E SWAP1 PUSH2 0x4B63 JUMP JUMPDEST PUSH1 0x40 MLOAD DUP1 SWAP2 SUB SWAP1 REVERT JUMPDEST PUSH4 0xF23A6E61 PUSH1 0xE0 SHL PUSH28 0xFFFFFFFFFFFFFFFFFFFFFFFFFFFFFFFFFFFFFFFFFFFFFFFFFFFFFFFF NOT AND DUP2 PUSH28 0xFFFFFFFFFFFFFFFFFFFFFFFFFFFFFFFFFFFFFFFFFFFFFFFFFFFFFFFF NOT AND EQ PUSH2 0x2E0E JUMPI PUSH1 0x40 MLOAD PUSH32 0x8C379A000000000000000000000000000000000000000000000000000000000 DUP2 MSTORE PUSH1 0x4 ADD PUSH2 0x2E05 SWAP1 PUSH2 0x4BF5 JUMP JUMPDEST PUSH1 0x40 MLOAD DUP1 SWAP2 SUB SWAP1 REVERT JUMPDEST POP JUMPDEST POP POP POP POP POP POP JUMP JUMPDEST PUSH1 0x0 PUSH1 0x40 MLOAD SWAP1 POP SWAP1 JUMP JUMPDEST PUSH1 0x0 DUP1 REVERT JUMPDEST PUSH1 0x0 DUP1 REVERT JUMPDEST PUSH1 0x0 PUSH20 0xFFFFFFFFFFFFFFFFFFFFFFFFFFFFFFFFFFFFFFFF DUP3 AND SWAP1 POP SWAP2 SWAP1 POP JUMP JUMPDEST PUSH1 0x0 PUSH2 0x2E57 DUP3 PUSH2 0x2E2C JUMP JUMPDEST SWAP1 POP SWAP2 SWAP1 POP JUMP JUMPDEST PUSH2 0x2E67 DUP2 PUSH2 0x2E4C JUMP JUMPDEST DUP2 EQ PUSH2 0x2E72 JUMPI PUSH1 0x0 DUP1 REVERT JUMPDEST POP JUMP JUMPDEST PUSH1 0x0 DUP2 CALLDATALOAD SWAP1 POP PUSH2 0x2E84 DUP2 PUSH2 0x2E5E JUMP JUMPDEST SWAP3 SWAP2 POP POP JUMP JUMPDEST PUSH1 0x0 DUP2 SWAP1 POP SWAP2 SWAP1 POP JUMP JUMPDEST PUSH2 0x2E9D DUP2 PUSH2 0x2E8A JUMP JUMPDEST DUP2 EQ PUSH2 0x2EA8 JUMPI PUSH1 0x0 DUP1 REVERT JUMPDEST POP JUMP JUMPDEST PUSH1 0x0 DUP2 CALLDATALOAD SWAP1 POP PUSH2 0x2EBA DUP2 PUSH2 0x2E94 JUMP JUMPDEST SWAP3 SWAP2 POP POP JUMP JUMPDEST PUSH1 0x0 DUP1 PUSH1 0x40 DUP4 DUP6 SUB SLT ISZERO PUSH2 0x2ED7 JUMPI PUSH2 0x2ED6 PUSH2 0x2E22 JUMP JUMPDEST JUMPDEST PUSH1 0x0 PUSH2 0x2EE5 DUP6 DUP3 DUP7 ADD PUSH2 0x2E75 JUMP JUMPDEST SWAP3 POP POP PUSH1 0x20 PUSH2 0x2EF6 DUP6 DUP3 DUP7 ADD PUSH2 0x2EAB JUMP JUMPDEST SWAP2 POP POP SWAP3 POP SWAP3 SWAP1 POP JUMP JUMPDEST PUSH2 0x2F09 DUP2 PUSH2 0x2E8A JUMP JUMPDEST DUP3 MSTORE POP POP JUMP JUMPDEST PUSH1 0x0 PUSH1 0x20 DUP3 ADD SWAP1 POP PUSH2 0x2F24 PUSH1 0x0 DUP4 ADD DUP5 PUSH2 0x2F00 JUMP JUMPDEST SWAP3 SWAP2 POP POP JUMP JUMPDEST PUSH1 0x0 PUSH32 0xFFFFFFFF00000000000000000000000000000000000000000000000000000000 DUP3 AND SWAP1 POP SWAP2 SWAP1 POP JUMP JUMPDEST PUSH2 0x2F5F DUP2 PUSH2 0x2F2A JUMP JUMPDEST DUP2 EQ PUSH2 0x2F6A JUMPI PUSH1 0x0 DUP1 REVERT JUMPDEST POP JUMP JUMPDEST PUSH1 0x0 DUP2 CALLDATALOAD SWAP1 POP PUSH2 0x2F7C DUP2 PUSH2 0x2F56 JUMP JUMPDEST SWAP3 SWAP2 POP POP JUMP JUMPDEST PUSH1 0x0 PUSH1 0x20 DUP3 DUP5 SUB SLT ISZERO PUSH2 0x2F98 JUMPI PUSH2 0x2F97 PUSH2 0x2E22 JUMP JUMPDEST JUMPDEST PUSH1 0x0 PUSH2 0x2FA6 DUP5 DUP3 DUP6 ADD PUSH2 0x2F6D JUMP JUMPDEST SWAP2 POP POP SWAP3 SWAP2 POP POP JUMP JUMPDEST PUSH1 0x0 DUP2 ISZERO ISZERO SWAP1 POP SWAP2 SWAP1 POP JUMP JUMPDEST PUSH2 0x2FC4 DUP2 PUSH2 0x2FAF JUMP JUMPDEST DUP3 MSTORE POP POP JUMP JUMPDEST PUSH1 0x0 PUSH1 0x20 DUP3 ADD SWAP1 POP PUSH2 0x2FDF PUSH1 0x0 DUP4 ADD DUP5 PUSH2 0x2FBB JUMP JUMPDEST SWAP3 SWAP2 POP POP JUMP JUMPDEST PUSH1 0x0 DUP1 REVERT JUMPDEST PUSH1 0x0 DUP1 REVERT JUMPDEST PUSH1 0x0 PUSH1 0x1F NOT PUSH1 0x1F DUP4 ADD AND SWAP1 POP SWAP2 SWAP1 POP JUMP JUMPDEST PUSH32 0x4E487B7100000000000000000000000000000000000000000000000000000000 PUSH1 0x0 MSTORE PUSH1 0x41 PUSH1 0x4 MSTORE PUSH1 0x24 PUSH1 0x0 REVERT JUMPDEST PUSH2 0x3038 DUP3 PUSH2 0x2FEF JUMP JUMPDEST DUP2 ADD DUP2 DUP2 LT PUSH8 0xFFFFFFFFFFFFFFFF DUP3 GT OR ISZERO PUSH2 0x3057 JUMPI PUSH2 0x3056 PUSH2 0x3000 JUMP JUMPDEST JUMPDEST DUP1 PUSH1 0x40 MSTORE POP POP POP JUMP JUMPDEST PUSH1 0x0 PUSH2 0x306A PUSH2 0x2E18 JUMP JUMPDEST SWAP1 POP PUSH2 0x3076 DUP3 DUP3 PUSH2 0x302F JUMP JUMPDEST SWAP2 SWAP1 POP JUMP JUMPDEST PUSH1 0x0 PUSH8 0xFFFFFFFFFFFFFFFF DUP3 GT ISZERO PUSH2 0x3096 JUMPI PUSH2 0x3095 PUSH2 0x3000 JUMP JUMPDEST JUMPDEST PUSH2 0x309F DUP3 PUSH2 0x2FEF JUMP JUMPDEST SWAP1 POP PUSH1 0x20 DUP2 ADD SWAP1 POP SWAP2 SWAP1 POP JUMP JUMPDEST DUP3 DUP2 DUP4 CALLDATACOPY PUSH1 0x0 DUP4 DUP4 ADD MSTORE POP POP POP JUMP JUMPDEST PUSH1 0x0 PUSH2 0x30CE PUSH2 0x30C9 DUP5 PUSH2 0x307B JUMP JUMPDEST PUSH2 0x3060 JUMP JUMPDEST SWAP1 POP DUP3 DUP2 MSTORE PUSH1 0x20 DUP2 ADD DUP5 DUP5 DUP5 ADD GT ISZERO PUSH2 0x30EA JUMPI PUSH2 0x30E9 PUSH2 0x2FEA JUMP JUMPDEST JUMPDEST PUSH2 0x30F5 DUP5 DUP3 DUP6 PUSH2 0x30AC JUMP JUMPDEST POP SWAP4 SWAP3 POP POP POP JUMP JUMPDEST PUSH1 0x0 DUP3 PUSH1 0x1F DUP4 ADD SLT PUSH2 0x3112 JUMPI PUSH2 0x3111 PUSH2 0x2FE5 JUMP JUMPDEST JUMPDEST DUP2 CALLDATALOAD PUSH2 0x3122 DUP5 DUP3 PUSH1 0x20 DUP7 ADD PUSH2 0x30BB JUMP JUMPDEST SWAP2 POP POP SWAP3 SWAP2 POP POP JUMP JUMPDEST PUSH1 0x0 PUSH1 0x20 DUP3 DUP5 SUB SLT ISZERO PUSH2 0x3141 JUMPI PUSH2 0x3140 PUSH2 0x2E22 JUMP JUMPDEST JUMPDEST PUSH1 0x0 DUP3 ADD CALLDATALOAD PUSH8 0xFFFFFFFFFFFFFFFF DUP2 GT ISZERO PUSH2 0x315F JUMPI PUSH2 0x315E PUSH2 0x2E27 JUMP JUMPDEST JUMPDEST PUSH2 0x316B DUP5 DUP3 DUP6 ADD PUSH2 0x30FD JUMP JUMPDEST SWAP2 POP POP SWAP3 SWAP2 POP POP JUMP JUMPDEST PUSH1 0x0 PUSH1 0x20 DUP3 DUP5 SUB SLT ISZERO PUSH2 0x318A JUMPI PUSH2 0x3189 PUSH2 0x2E22 JUMP JUMPDEST JUMPDEST PUSH1 0x0 PUSH2 0x3198 DUP5 DUP3 DUP6 ADD PUSH2 0x2EAB JUMP JUMPDEST SWAP2 POP POP SWAP3 SWAP2 POP POP JUMP JUMPDEST PUSH1 0x0 DUP2 MLOAD SWAP1 POP SWAP2 SWAP1 POP JUMP JUMPDEST PUSH1 0x0 DUP3 DUP3 MSTORE PUSH1 0x20 DUP3 ADD SWAP1 POP SWAP3 SWAP2 POP POP JUMP JUMPDEST PUSH1 0x0 JUMPDEST DUP4 DUP2 LT ISZERO PUSH2 0x31DB JUMPI DUP1 DUP3 ADD MLOAD DUP2 DUP5 ADD MSTORE PUSH1 0x20 DUP2 ADD SWAP1 POP PUSH2 0x31C0 JUMP JUMPDEST PUSH1 0x0 DUP5 DUP5 ADD MSTORE POP POP POP POP JUMP JUMPDEST PUSH1 0x0 PUSH2 0x31F2 DUP3 PUSH2 0x31A1 JUMP JUMPDEST PUSH2 0x31FC DUP2 DUP6 PUSH2 0x31AC JUMP JUMPDEST SWAP4 POP PUSH2 0x320C DUP2 DUP6 PUSH1 0x20 DUP7 ADD PUSH2 0x31BD JUMP JUMPDEST PUSH2 0x3215 DUP2 PUSH2 0x2FEF JUMP JUMPDEST DUP5 ADD SWAP2 POP POP SWAP3 SWAP2 POP POP JUMP JUMPDEST PUSH1 0x0 PUSH1 0x20 DUP3 ADD SWAP1 POP DUP2 DUP2 SUB PUSH1 0x0 DUP4 ADD MSTORE PUSH2 0x323A DUP2 DUP5 PUSH2 0x31E7 JUMP JUMPDEST SWAP1 POP SWAP3 SWAP2 POP POP JUMP JUMPDEST PUSH1 0x0 PUSH8 0xFFFFFFFFFFFFFFFF DUP3 GT ISZERO PUSH2 0x325D JUMPI PUSH2 0x325C PUSH2 0x3000 JUMP JUMPDEST JUMPDEST PUSH1 0x20 DUP3 MUL SWAP1 POP PUSH1 0x20 DUP2 ADD SWAP1 POP SWAP2 SWAP1 POP JUMP JUMPDEST PUSH1 0x0 DUP1 REVERT JUMPDEST PUSH1 0x0 PUSH2 0x3286 PUSH2 0x3281 DUP5 PUSH2 0x3242 JUMP JUMPDEST PUSH2 0x3060 JUMP JUMPDEST SWAP1 POP DUP1 DUP4 DUP3 MSTORE PUSH1 0x20 DUP3 ADD SWAP1 POP PUSH1 0x20 DUP5 MUL DUP4 ADD DUP6 DUP2 GT ISZERO PUSH2 0x32A9 JUMPI PUSH2 0x32A8 PUSH2 0x326E JUMP JUMPDEST JUMPDEST DUP4 JUMPDEST DUP2 DUP2 LT ISZERO PUSH2 0x32D2 JUMPI DUP1 PUSH2 0x32BE DUP9 DUP3 PUSH2 0x2EAB JUMP JUMPDEST DUP5 MSTORE PUSH1 0x20 DUP5 ADD SWAP4 POP POP PUSH1 0x20 DUP2 ADD SWAP1 POP PUSH2 0x32AB JUMP JUMPDEST POP POP POP SWAP4 SWAP3 POP POP POP JUMP JUMPDEST PUSH1 0x0 DUP3 PUSH1 0x1F DUP4 ADD SLT PUSH2 0x32F1 JUMPI PUSH2 0x32F0 PUSH2 0x2FE5 JUMP JUMPDEST JUMPDEST DUP2 CALLDATALOAD PUSH2 0x3301 DUP5 DUP3 PUSH1 0x20 DUP7 ADD PUSH2 0x3273 JUMP JUMPDEST SWAP2 POP POP SWAP3 SWAP2 POP POP JUMP JUMPDEST PUSH1 0x0 PUSH8 0xFFFFFFFFFFFFFFFF DUP3 GT ISZERO PUSH2 0x3325 JUMPI PUSH2 0x3324 PUSH2 0x3000 JUMP JUMPDEST JUMPDEST PUSH2 0x332E DUP3 PUSH2 0x2FEF JUMP JUMPDEST SWAP1 POP PUSH1 0x20 DUP2 ADD SWAP1 POP SWAP2 SWAP1 POP JUMP JUMPDEST PUSH1 0x0 PUSH2 0x334E PUSH2 0x3349 DUP5 PUSH2 0x330A JUMP JUMPDEST PUSH2 0x3060 JUMP JUMPDEST SWAP1 POP DUP3 DUP2 MSTORE PUSH1 0x20 DUP2 ADD DUP5 DUP5 DUP5 ADD GT ISZERO PUSH2 0x336A JUMPI PUSH2 0x3369 PUSH2 0x2FEA JUMP JUMPDEST JUMPDEST PUSH2 0x3375 DUP5 DUP3 DUP6 PUSH2 0x30AC JUMP JUMPDEST POP SWAP4 SWAP3 POP POP POP JUMP JUMPDEST PUSH1 0x0 DUP3 PUSH1 0x1F DUP4 ADD SLT PUSH2 0x3392 JUMPI PUSH2 0x3391 PUSH2 0x2FE5 JUMP JUMPDEST JUMPDEST DUP2 CALLDATALOAD PUSH2 0x33A2 DUP5 DUP3 PUSH1 0x20 DUP7 ADD PUSH2 0x333B JUMP JUMPDEST SWAP2 POP POP SWAP3 SWAP2 POP POP JUMP JUMPDEST PUSH1 0x0 DUP1 PUSH1 0x0 DUP1 PUSH1 0x80 DUP6 DUP8 SUB SLT ISZERO PUSH2 0x33C5 JUMPI PUSH2 0x33C4 PUSH2 0x2E22 JUMP JUMPDEST JUMPDEST PUSH1 0x0 PUSH2 0x33D3 DUP8 DUP3 DUP9 ADD PUSH2 0x2E75 JUMP JUMPDEST SWAP5 POP POP PUSH1 0x20 DUP6 ADD CALLDATALOAD PUSH8 0xFFFFFFFFFFFFFFFF DUP2 GT ISZERO PUSH2 0x33F4 JUMPI PUSH2 0x33F3 PUSH2 0x2E27 JUMP JUMPDEST JUMPDEST PUSH2 0x3400 DUP8 DUP3 DUP9 ADD PUSH2 0x32DC JUMP JUMPDEST SWAP4 POP POP PUSH1 0x40 DUP6 ADD CALLDATALOAD PUSH8 0xFFFFFFFFFFFFFFFF DUP2 GT ISZERO PUSH2 0x3421 JUMPI PUSH2 0x3420 PUSH2 0x2E27 JUMP JUMPDEST JUMPDEST PUSH2 0x342D DUP8 DUP3 DUP9 ADD PUSH2 0x32DC JUMP JUMPDEST SWAP3 POP POP PUSH1 0x60 DUP6 ADD CALLDATALOAD PUSH8 0xFFFFFFFFFFFFFFFF DUP2 GT ISZERO PUSH2 0x344E JUMPI PUSH2 0x344D PUSH2 0x2E27 JUMP JUMPDEST JUMPDEST PUSH2 0x345A DUP8 DUP3 DUP9 ADD PUSH2 0x337D JUMP JUMPDEST SWAP2 POP POP SWAP3 SWAP6 SWAP2 SWAP5 POP SWAP3 POP JUMP JUMPDEST PUSH1 0x0 DUP1 PUSH1 0x0 DUP1 PUSH1 0x0 PUSH1 0xA0 DUP7 DUP9 SUB SLT ISZERO PUSH2 0x3482 JUMPI PUSH2 0x3481 PUSH2 0x2E22 JUMP JUMPDEST JUMPDEST PUSH1 0x0 PUSH2 0x3490 DUP9 DUP3 DUP10 ADD PUSH2 0x2E75 JUMP JUMPDEST SWAP6 POP POP PUSH1 0x20 PUSH2 0x34A1 DUP9 DUP3 DUP10 ADD PUSH2 0x2E75 JUMP JUMPDEST SWAP5 POP POP PUSH1 0x40 DUP7 ADD CALLDATALOAD PUSH8 0xFFFFFFFFFFFFFFFF DUP2 GT ISZERO PUSH2 0x34C2 JUMPI PUSH2 0x34C1 PUSH2 0x2E27 JUMP JUMPDEST JUMPDEST PUSH2 0x34CE DUP9 DUP3 DUP10 ADD PUSH2 0x32DC JUMP JUMPDEST SWAP4 POP POP PUSH1 0x60 DUP7 ADD CALLDATALOAD PUSH8 0xFFFFFFFFFFFFFFFF DUP2 GT ISZERO PUSH2 0x34EF JUMPI PUSH2 0x34EE PUSH2 0x2E27 JUMP JUMPDEST JUMPDEST PUSH2 0x34FB DUP9 DUP3 DUP10 ADD PUSH2 0x32DC JUMP JUMPDEST SWAP3 POP POP PUSH1 0x80 DUP7 ADD CALLDATALOAD PUSH8 0xFFFFFFFFFFFFFFFF DUP2 GT ISZERO PUSH2 0x351C JUMPI PUSH2 0x351B PUSH2 0x2E27 JUMP JUMPDEST JUMPDEST PUSH2 0x3528 DUP9 DUP3 DUP10 ADD PUSH2 0x337D JUMP JUMPDEST SWAP2 POP POP SWAP3 SWAP6 POP SWAP3 SWAP6 SWAP1 SWAP4 POP JUMP JUMPDEST PUSH1 0x0 PUSH2 0x3540 DUP3 PUSH2 0x2E2C JUMP JUMPDEST SWAP1 POP SWAP2 SWAP1 POP JUMP JUMPDEST PUSH2 0x3550 DUP2 PUSH2 0x3535 JUMP JUMPDEST DUP3 MSTORE POP POP JUMP JUMPDEST PUSH1 0x0 PUSH1 0x20 DUP3 ADD SWAP1 POP PUSH2 0x356B PUSH1 0x0 DUP4 ADD DUP5 PUSH2 0x3547 JUMP JUMPDEST SWAP3 SWAP2 POP POP JUMP JUMPDEST PUSH1 0x0 PUSH8 0xFFFFFFFFFFFFFFFF DUP3 GT ISZERO PUSH2 0x358C JUMPI PUSH2 0x358B PUSH2 0x3000 JUMP JUMPDEST JUMPDEST PUSH1 0x20 DUP3 MUL SWAP1 POP PUSH1 0x20 DUP2 ADD SWAP1 POP SWAP2 SWAP1 POP JUMP JUMPDEST PUSH1 0x0 PUSH2 0x35B0 PUSH2 0x35AB DUP5 PUSH2 0x3571 JUMP JUMPDEST PUSH2 0x3060 JUMP JUMPDEST SWAP1 POP DUP1 DUP4 DUP3 MSTORE PUSH1 0x20 DUP3 ADD SWAP1 POP PUSH1 0x20 DUP5 MUL DUP4 ADD DUP6 DUP2 GT ISZERO PUSH2 0x35D3 JUMPI PUSH2 0x35D2 PUSH2 0x326E JUMP JUMPDEST JUMPDEST DUP4 JUMPDEST DUP2 DUP2 LT ISZERO PUSH2 0x35FC JUMPI DUP1 PUSH2 0x35E8 DUP9 DUP3 PUSH2 0x2E75 JUMP JUMPDEST DUP5 MSTORE PUSH1 0x20 DUP5 ADD SWAP4 POP POP PUSH1 0x20 DUP2 ADD SWAP1 POP PUSH2 0x35D5 JUMP JUMPDEST POP POP POP SWAP4 SWAP3 POP POP POP JUMP JUMPDEST PUSH1 0x0 DUP3 PUSH1 0x1F DUP4 ADD SLT PUSH2 0x361B JUMPI PUSH2 0x361A PUSH2 0x2FE5 JUMP JUMPDEST JUMPDEST DUP2 CALLDATALOAD PUSH2 0x362B DUP5 DUP3 PUSH1 0x20 DUP7 ADD PUSH2 0x359D JUMP JUMPDEST SWAP2 POP POP SWAP3 SWAP2 POP POP JUMP JUMPDEST PUSH1 0x0 DUP1 PUSH1 0x40 DUP4 DUP6 SUB SLT ISZERO PUSH2 0x364B JUMPI PUSH2 0x364A PUSH2 0x2E22 JUMP JUMPDEST JUMPDEST PUSH1 0x0 DUP4 ADD CALLDATALOAD PUSH8 0xFFFFFFFFFFFFFFFF DUP2 GT ISZERO PUSH2 0x3669 JUMPI PUSH2 0x3668 PUSH2 0x2E27 JUMP JUMPDEST JUMPDEST PUSH2 0x3675 DUP6 DUP3 DUP7 ADD PUSH2 0x3606 JUMP JUMPDEST SWAP3 POP POP PUSH1 0x20 DUP4 ADD CALLDATALOAD PUSH8 0xFFFFFFFFFFFFFFFF DUP2 GT ISZERO PUSH2 0x3696 JUMPI PUSH2 0x3695 PUSH2 0x2E27 JUMP JUMPDEST JUMPDEST PUSH2 0x36A2 DUP6 DUP3 DUP7 ADD PUSH2 0x32DC JUMP JUMPDEST SWAP2 POP POP SWAP3 POP SWAP3 SWAP1 POP JUMP JUMPDEST PUSH1 0x0 DUP2 MLOAD SWAP1 POP SWAP2 SWAP1 POP JUMP JUMPDEST PUSH1 0x0 DUP3 DUP3 MSTORE PUSH1 0x20 DUP3 ADD SWAP1 POP SWAP3 SWAP2 POP POP JUMP JUMPDEST PUSH1 0x0 DUP2 SWAP1 POP PUSH1 0x20 DUP3 ADD SWAP1 POP SWAP2 SWAP1 POP JUMP JUMPDEST PUSH2 0x36E1 DUP2 PUSH2 0x2E8A JUMP JUMPDEST DUP3 MSTORE POP POP JUMP JUMPDEST PUSH1 0x0 PUSH2 0x36F3 DUP4 DUP4 PUSH2 0x36D8 JUMP JUMPDEST PUSH1 0x20 DUP4 ADD SWAP1 POP SWAP3 SWAP2 POP POP JUMP JUMPDEST PUSH1 0x0 PUSH1 0x20 DUP3 ADD SWAP1 POP SWAP2 SWAP1 POP JUMP JUMPDEST PUSH1 0x0 PUSH2 0x3717 DUP3 PUSH2 0x36AC JUMP JUMPDEST PUSH2 0x3721 DUP2 DUP6 PUSH2 0x36B7 JUMP JUMPDEST SWAP4 POP PUSH2 0x372C DUP4 PUSH2 0x36C8 JUMP JUMPDEST DUP1 PUSH1 0x0 JUMPDEST DUP4 DUP2 LT ISZERO PUSH2 0x375D JUMPI DUP2 MLOAD PUSH2 0x3744 DUP9 DUP3 PUSH2 0x36E7 JUMP JUMPDEST SWAP8 POP PUSH2 0x374F DUP4 PUSH2 0x36FF JUMP JUMPDEST SWAP3 POP POP PUSH1 0x1 DUP2 ADD SWAP1 POP PUSH2 0x3730 JUMP JUMPDEST POP DUP6 SWAP4 POP POP POP POP SWAP3 SWAP2 POP POP JUMP JUMPDEST PUSH1 0x0 PUSH1 0x20 DUP3 ADD SWAP1 POP DUP2 DUP2 SUB PUSH1 0x0 DUP4 ADD MSTORE PUSH2 0x3784 DUP2 DUP5 PUSH2 0x370C JUMP JUMPDEST SWAP1 POP SWAP3 SWAP2 POP POP JUMP JUMPDEST PUSH1 0x0 DUP1 PUSH1 0x0 PUSH1 0x60 DUP5 DUP7 SUB SLT ISZERO PUSH2 0x37A5 JUMPI PUSH2 0x37A4 PUSH2 0x2E22 JUMP JUMPDEST JUMPDEST PUSH1 0x0 PUSH2 0x37B3 DUP7 DUP3 DUP8 ADD PUSH2 0x2E75 JUMP JUMPDEST SWAP4 POP POP PUSH1 0x20 DUP5 ADD CALLDATALOAD PUSH8 0xFFFFFFFFFFFFFFFF DUP2 GT ISZERO PUSH2 0x37D4 JUMPI PUSH2 0x37D3 PUSH2 0x2E27 JUMP JUMPDEST JUMPDEST PUSH2 0x37E0 DUP7 DUP3 DUP8 ADD PUSH2 0x32DC JUMP JUMPDEST SWAP3 POP POP PUSH1 0x40 DUP5 ADD CALLDATALOAD PUSH8 0xFFFFFFFFFFFFFFFF DUP2 GT ISZERO PUSH2 0x3801 JUMPI PUSH2 0x3800 PUSH2 0x2E27 JUMP JUMPDEST JUMPDEST PUSH2 0x380D DUP7 DUP3 DUP8 ADD PUSH2 0x32DC JUMP JUMPDEST SWAP2 POP POP SWAP3 POP SWAP3 POP SWAP3 JUMP JUMPDEST PUSH2 0x3820 DUP2 PUSH2 0x2E4C JUMP JUMPDEST DUP3 MSTORE POP POP JUMP JUMPDEST PUSH1 0x0 PUSH1 0x20 DUP3 ADD SWAP1 POP PUSH2 0x383B PUSH1 0x0 DUP4 ADD DUP5 PUSH2 0x3817 JUMP JUMPDEST SWAP3 SWAP2 POP POP JUMP JUMPDEST PUSH2 0x384A DUP2 PUSH2 0x2FAF JUMP JUMPDEST DUP2 EQ PUSH2 0x3855 JUMPI PUSH1 0x0 DUP1 REVERT JUMPDEST POP JUMP JUMPDEST PUSH1 0x0 DUP2 CALLDATALOAD SWAP1 POP PUSH2 0x3867 DUP2 PUSH2 0x3841 JUMP JUMPDEST SWAP3 SWAP2 POP POP JUMP JUMPDEST PUSH1 0x0 DUP1 PUSH1 0x40 DUP4 DUP6 SUB SLT ISZERO PUSH2 0x3884 JUMPI PUSH2 0x3883 PUSH2 0x2E22 JUMP JUMPDEST JUMPDEST PUSH1 0x0 PUSH2 0x3892 DUP6 DUP3 DUP7 ADD PUSH2 0x2E75 JUMP JUMPDEST SWAP3 POP POP PUSH1 0x20 PUSH2 0x38A3 DUP6 DUP3 DUP7 ADD PUSH2 0x3858 JUMP JUMPDEST SWAP2 POP POP SWAP3 POP SWAP3 SWAP1 POP JUMP JUMPDEST PUSH1 0x0 DUP1 PUSH1 0x40 DUP4 DUP6 SUB SLT ISZERO PUSH2 0x38C4 JUMPI PUSH2 0x38C3 PUSH2 0x2E22 JUMP JUMPDEST JUMPDEST PUSH1 0x0 PUSH2 0x38D2 DUP6 DUP3 DUP7 ADD PUSH2 0x2E75 JUMP JUMPDEST SWAP3 POP POP PUSH1 0x20 PUSH2 0x38E3 DUP6 DUP3 DUP7 ADD PUSH2 0x2E75 JUMP JUMPDEST SWAP2 POP POP SWAP3 POP SWAP3 SWAP1 POP JUMP JUMPDEST PUSH1 0x0 DUP1 PUSH1 0x0 DUP1 PUSH1 0x0 PUSH1 0xA0 DUP7 DUP9 SUB SLT ISZERO PUSH2 0x3909 JUMPI PUSH2 0x3908 PUSH2 0x2E22 JUMP JUMPDEST JUMPDEST PUSH1 0x0 PUSH2 0x3917 DUP9 DUP3 DUP10 ADD PUSH2 0x2E75 JUMP JUMPDEST SWAP6 POP POP PUSH1 0x20 PUSH2 0x3928 DUP9 DUP3 DUP10 ADD PUSH2 0x2E75 JUMP JUMPDEST SWAP5 POP POP PUSH1 0x40 PUSH2 0x3939 DUP9 DUP3 DUP10 ADD PUSH2 0x2EAB JUMP JUMPDEST SWAP4 POP POP PUSH1 0x60 PUSH2 0x394A DUP9 DUP3 DUP10 ADD PUSH2 0x2EAB JUMP JUMPDEST SWAP3 POP POP PUSH1 0x80 DUP7 ADD CALLDATALOAD PUSH8 0xFFFFFFFFFFFFFFFF DUP2 GT ISZERO PUSH2 0x396B JUMPI PUSH2 0x396A PUSH2 0x2E27 JUMP JUMPDEST JUMPDEST PUSH2 0x3977 DUP9 DUP3 DUP10 ADD PUSH2 0x337D JUMP JUMPDEST SWAP2 POP POP SWAP3 SWAP6 POP SWAP3 SWAP6 SWAP1 SWAP4 POP JUMP JUMPDEST PUSH1 0x0 PUSH1 0x20 DUP3 DUP5 SUB SLT ISZERO PUSH2 0x399A JUMPI PUSH2 0x3999 PUSH2 0x2E22 JUMP JUMPDEST JUMPDEST PUSH1 0x0 PUSH2 0x39A8 DUP5 DUP3 DUP6 ADD PUSH2 0x2E75 JUMP JUMPDEST SWAP2 POP POP SWAP3 SWAP2 POP POP JUMP JUMPDEST PUSH1 0x0 DUP1 PUSH1 0x0 PUSH1 0x60 DUP5 DUP7 SUB SLT ISZERO PUSH2 0x39CA JUMPI PUSH2 0x39C9 PUSH2 0x2E22 JUMP JUMPDEST JUMPDEST PUSH1 0x0 PUSH2 0x39D8 DUP7 DUP3 DUP8 ADD PUSH2 0x2E75 JUMP JUMPDEST SWAP4 POP POP PUSH1 0x20 PUSH2 0x39E9 DUP7 DUP3 DUP8 ADD PUSH2 0x2EAB JUMP JUMPDEST SWAP3 POP POP PUSH1 0x40 PUSH2 0x39FA DUP7 DUP3 DUP8 ADD PUSH2 0x2EAB JUMP JUMPDEST SWAP2 POP POP SWAP3 POP SWAP3 POP SWAP3 JUMP JUMPDEST PUSH32 0x455243313135353A2061646472657373207A65726F206973206E6F7420612076 PUSH1 0x0 DUP3 ADD MSTORE PUSH32 0x616C6964206F776E657200000000000000000000000000000000000000000000 PUSH1 0x20 DUP3 ADD MSTORE POP JUMP JUMPDEST PUSH1 0x0 PUSH2 0x3A60 PUSH1 0x2A DUP4 PUSH2 0x31AC JUMP JUMPDEST SWAP2 POP PUSH2 0x3A6B DUP3 PUSH2 0x3A04 JUMP JUMPDEST PUSH1 0x40 DUP3 ADD SWAP1 POP SWAP2 SWAP1 POP JUMP JUMPDEST PUSH1 0x0 PUSH1 0x20 DUP3 ADD SWAP1 POP DUP2 DUP2 SUB PUSH1 0x0 DUP4 ADD MSTORE PUSH2 0x3A8F DUP2 PUSH2 0x3A53 JUMP JUMPDEST SWAP1 POP SWAP2 SWAP1 POP JUMP JUMPDEST PUSH1 0x0 DUP2 SWAP1 POP SWAP3 SWAP2 POP POP JUMP JUMPDEST PUSH32 0x68747470733A2F2F697066732E696F2F697066732F516D556B55555742697369 PUSH1 0x0 DUP3 ADD MSTORE PUSH32 0x46613958556B3475634A6944723266766B3274447231784472436B4546364646 PUSH1 0x20 DUP3 ADD MSTORE PUSH32 0x4346382F00000000000000000000000000000000000000000000000000000000 PUSH1 0x40 DUP3 ADD MSTORE POP JUMP JUMPDEST PUSH1 0x0 PUSH2 0x3B23 PUSH1 0x44 DUP4 PUSH2 0x3A96 JUMP JUMPDEST SWAP2 POP PUSH2 0x3B2E DUP3 PUSH2 0x3AA1 JUMP JUMPDEST PUSH1 0x44 DUP3 ADD SWAP1 POP SWAP2 SWAP1 POP JUMP JUMPDEST PUSH1 0x0 PUSH2 0x3B44 DUP3 PUSH2 0x31A1 JUMP JUMPDEST PUSH2 0x3B4E DUP2 DUP6 PUSH2 0x3A96 JUMP JUMPDEST SWAP4 POP PUSH2 0x3B5E DUP2 DUP6 PUSH1 0x20 DUP7 ADD PUSH2 0x31BD JUMP JUMPDEST DUP1 DUP5 ADD SWAP2 POP POP SWAP3 SWAP2 POP POP JUMP JUMPDEST PUSH1 0x0 PUSH2 0x3B75 DUP3 PUSH2 0x3B16 JUMP JUMPDEST SWAP2 POP PUSH2 0x3B81 DUP3 DUP5 PUSH2 0x3B39 JUMP JUMPDEST SWAP2 POP DUP2 SWAP1 POP SWAP3 SWAP2 POP POP JUMP JUMPDEST PUSH32 0x455243313135353A2063616C6C6572206973206E6F7420746F6B656E206F776E PUSH1 0x0 DUP3 ADD MSTORE PUSH32 0x6572206E6F7220617070726F7665640000000000000000000000000000000000 PUSH1 0x20 DUP3 ADD MSTORE POP JUMP JUMPDEST PUSH1 0x0 PUSH2 0x3BE8 PUSH1 0x2F DUP4 PUSH2 0x31AC JUMP JUMPDEST SWAP2 POP PUSH2 0x3BF3 DUP3 PUSH2 0x3B8C JUMP JUMPDEST PUSH1 0x40 DUP3 ADD SWAP1 POP SWAP2 SWAP1 POP JUMP JUMPDEST PUSH1 0x0 PUSH1 0x20 DUP3 ADD SWAP1 POP DUP2 DUP2 SUB PUSH1 0x0 DUP4 ADD MSTORE PUSH2 0x3C17 DUP2 PUSH2 0x3BDB JUMP JUMPDEST SWAP1 POP SWAP2 SWAP1 POP JUMP JUMPDEST PUSH32 0x455243313135353A206163636F756E747320616E6420696473206C656E677468 PUSH1 0x0 DUP3 ADD MSTORE PUSH32 0x206D69736D617463680000000000000000000000000000000000000000000000 PUSH1 0x20 DUP3 ADD MSTORE POP JUMP JUMPDEST PUSH1 0x0 PUSH2 0x3C7A PUSH1 0x29 DUP4 PUSH2 0x31AC JUMP JUMPDEST SWAP2 POP PUSH2 0x3C85 DUP3 PUSH2 0x3C1E JUMP JUMPDEST PUSH1 0x40 DUP3 ADD SWAP1 POP SWAP2 SWAP1 POP JUMP JUMPDEST PUSH1 0x0 PUSH1 0x20 DUP3 ADD SWAP1 POP DUP2 DUP2 SUB PUSH1 0x0 DUP4 ADD MSTORE PUSH2 0x3CA9 DUP2 PUSH2 0x3C6D JUMP JUMPDEST SWAP1 POP SWAP2 SWAP1 POP JUMP JUMPDEST PUSH32 0x4E487B7100000000000000000000000000000000000000000000000000000000 PUSH1 0x0 MSTORE PUSH1 0x32 PUSH1 0x4 MSTORE PUSH1 0x24 PUSH1 0x0 REVERT JUMPDEST PUSH32 0x4E487B7100000000000000000000000000000000000000000000000000000000 PUSH1 0x0 MSTORE PUSH1 0x11 PUSH1 0x4 MSTORE PUSH1 0x24 PUSH1 0x0 REVERT JUMPDEST PUSH1 0x0 PUSH2 0x3D19 DUP3 PUSH2 0x2E8A JUMP JUMPDEST SWAP2 POP PUSH32 0xFFFFFFFFFFFFFFFFFFFFFFFFFFFFFFFFFFFFFFFFFFFFFFFFFFFFFFFFFFFFFFFF DUP3 SUB PUSH2 0x3D4B JUMPI PUSH2 0x3D4A PUSH2 0x3CDF JUMP JUMPDEST JUMPDEST PUSH1 0x1 DUP3 ADD SWAP1 POP SWAP2 SWAP1 POP JUMP JUMPDEST PUSH1 0x0 DUP2 SWAP1 POP SWAP2 SWAP1 POP JUMP JUMPDEST PUSH2 0x3D71 PUSH2 0x3D6C DUP3 PUSH2 0x2E8A JUMP JUMPDEST PUSH2 0x3D56 JUMP JUMPDEST DUP3 MSTORE POP POP JUMP JUMPDEST PUSH1 0x0 PUSH2 0x3D83 DUP3 DUP5 PUSH2 0x3D60 JUMP JUMPDEST PUSH1 0x20 DUP3 ADD SWAP2 POP DUP2 SWAP1 POP SWAP3 SWAP2 POP POP JUMP JUMPDEST PUSH32 0x4E487B7100000000000000000000000000000000000000000000000000000000 PUSH1 0x0 MSTORE PUSH1 0x12 PUSH1 0x4 MSTORE PUSH1 0x24 PUSH1 0x0 REVERT JUMPDEST PUSH1 0x0 PUSH2 0x3DCC DUP3 PUSH2 0x2E8A JUMP JUMPDEST SWAP2 POP PUSH2 0x3DD7 DUP4 PUSH2 0x2E8A JUMP JUMPDEST SWAP3 POP DUP3 PUSH2 0x3DE7 JUMPI PUSH2 0x3DE6 PUSH2 0x3D92 JUMP JUMPDEST JUMPDEST DUP3 DUP3 MOD SWAP1 POP SWAP3 SWAP2 POP POP JUMP JUMPDEST PUSH1 0x0 PUSH2 0x3DFD DUP3 PUSH2 0x2E8A JUMP JUMPDEST SWAP2 POP PUSH2 0x3E08 DUP4 PUSH2 0x2E8A JUMP JUMPDEST SWAP3 POP DUP3 DUP3 MUL PUSH2 0x3E16 DUP2 PUSH2 0x2E8A JUMP JUMPDEST SWAP2 POP DUP3 DUP3 DIV DUP5 EQ DUP4 ISZERO OR PUSH2 0x3E2D JUMPI PUSH2 0x3E2C PUSH2 0x3CDF JUMP JUMPDEST JUMPDEST POP SWAP3 SWAP2 POP POP JUMP JUMPDEST PUSH1 0x0 PUSH1 0x60 DUP3 ADD SWAP1 POP PUSH2 0x3E49 PUSH1 0x0 DUP4 ADD DUP7 PUSH2 0x3817 JUMP JUMPDEST PUSH2 0x3E56 PUSH1 0x20 DUP4 ADD DUP6 PUSH2 0x3817 JUMP JUMPDEST PUSH2 0x3E63 PUSH1 0x40 DUP4 ADD DUP5 PUSH2 0x2F00 JUMP JUMPDEST SWAP5 SWAP4 POP POP POP POP JUMP JUMPDEST PUSH1 0x0 DUP2 MLOAD SWAP1 POP PUSH2 0x3E7A DUP2 PUSH2 0x3841 JUMP JUMPDEST SWAP3 SWAP2 POP POP JUMP JUMPDEST PUSH1 0x0 PUSH1 0x20 DUP3 DUP5 SUB SLT ISZERO PUSH2 0x3E96 JUMPI PUSH2 0x3E95 PUSH2 0x2E22 JUMP JUMPDEST JUMPDEST PUSH1 0x0 PUSH2 0x3EA4 DUP5 DUP3 DUP6 ADD PUSH2 0x3E6B JUMP JUMPDEST SWAP2 POP POP SWAP3 SWAP2 POP POP JUMP JUMPDEST PUSH32 0x496E637265617365436F6E7472616374204661696C0000000000000000000000 PUSH1 0x0 DUP3 ADD MSTORE POP JUMP JUMPDEST PUSH1 0x0 PUSH2 0x3EE3 PUSH1 0x15 DUP4 PUSH2 0x31AC JUMP JUMPDEST SWAP2 POP PUSH2 0x3EEE DUP3 PUSH2 0x3EAD JUMP JUMPDEST PUSH1 0x20 DUP3 ADD SWAP1 POP SWAP2 SWAP1 POP JUMP JUMPDEST PUSH1 0x0 PUSH1 0x20 DUP3 ADD SWAP1 POP DUP2 DUP2 SUB PUSH1 0x0 DUP4 ADD MSTORE PUSH2 0x3F12 DUP2 PUSH2 0x3ED6 JUMP JUMPDEST SWAP1 POP SWAP2 SWAP1 POP JUMP JUMPDEST PUSH1 0x0 DUP2 SWAP1 POP SWAP2 SWAP1 POP JUMP JUMPDEST PUSH1 0x0 PUSH2 0x3F3E PUSH2 0x3F39 PUSH2 0x3F34 DUP5 PUSH2 0x2E2C JUMP JUMPDEST PUSH2 0x3F19 JUMP JUMPDEST PUSH2 0x2E2C JUMP JUMPDEST SWAP1 POP SWAP2 SWAP1 POP JUMP JUMPDEST PUSH1 0x0 PUSH2 0x3F50 DUP3 PUSH2 0x3F23 JUMP JUMPDEST SWAP1 POP SWAP2 SWAP1 POP JUMP JUMPDEST PUSH1 0x0 PUSH2 0x3F62 DUP3 PUSH2 0x3F45 JUMP JUMPDEST SWAP1 POP SWAP2 SWAP1 POP JUMP JUMPDEST PUSH2 0x3F72 DUP2 PUSH2 0x3F57 JUMP JUMPDEST DUP3 MSTORE POP POP JUMP JUMPDEST PUSH1 0x0 PUSH1 0x60 DUP3 ADD SWAP1 POP PUSH2 0x3F8D PUSH1 0x0 DUP4 ADD DUP7 PUSH2 0x3817 JUMP JUMPDEST PUSH2 0x3F9A PUSH1 0x20 DUP4 ADD DUP6 PUSH2 0x3F69 JUMP JUMPDEST PUSH2 0x3FA7 PUSH1 0x40 DUP4 ADD DUP5 PUSH2 0x2F00 JUMP JUMPDEST SWAP5 SWAP4 POP POP POP POP JUMP JUMPDEST PUSH1 0x0 PUSH2 0x3FBA DUP3 PUSH2 0x2E8A JUMP JUMPDEST SWAP2 POP PUSH2 0x3FC5 DUP4 PUSH2 0x2E8A JUMP JUMPDEST SWAP3 POP DUP3 PUSH2 0x3FD5 JUMPI PUSH2 0x3FD4 PUSH2 0x3D92 JUMP JUMPDEST JUMPDEST DUP3 DUP3 DIV SWAP1 POP SWAP3 SWAP2 POP POP JUMP JUMPDEST PUSH1 0x0 PUSH1 0x40 DUP3 ADD SWAP1 POP PUSH2 0x3FF5 PUSH1 0x0 DUP4 ADD DUP6 PUSH2 0x3F69 JUMP JUMPDEST PUSH2 0x4002 PUSH1 0x20 DUP4 ADD DUP5 PUSH2 0x2F00 JUMP JUMPDEST SWAP4 SWAP3 POP POP POP JUMP JUMPDEST PUSH32 0x4F776E61626C653A206E6577206F776E657220697320746865207A65726F2061 PUSH1 0x0 DUP3 ADD MSTORE PUSH32 0x6464726573730000000000000000000000000000000000000000000000000000 PUSH1 0x20 DUP3 ADD MSTORE POP JUMP JUMPDEST PUSH1 0x0 PUSH2 0x4065 PUSH1 0x26 DUP4 PUSH2 0x31AC JUMP JUMPDEST SWAP2 POP PUSH2 0x4070 DUP3 PUSH2 0x4009 JUMP JUMPDEST PUSH1 0x40 DUP3 ADD SWAP1 POP SWAP2 SWAP1 POP JUMP JUMPDEST PUSH1 0x0 PUSH1 0x20 DUP3 ADD SWAP1 POP DUP2 DUP2 SUB PUSH1 0x0 DUP4 ADD MSTORE PUSH2 0x4094 DUP2 PUSH2 0x4058 JUMP JUMPDEST SWAP1 POP SWAP2 SWAP1 POP JUMP JUMPDEST PUSH1 0x0 PUSH2 0x40A6 DUP3 PUSH2 0x2E8A JUMP JUMPDEST SWAP2 POP PUSH2 0x40B1 DUP4 PUSH2 0x2E8A JUMP JUMPDEST SWAP3 POP DUP3 DUP3 ADD SWAP1 POP DUP1 DUP3 GT ISZERO PUSH2 0x40C9 JUMPI PUSH2 0x40C8 PUSH2 0x3CDF JUMP JUMPDEST JUMPDEST SWAP3 SWAP2 POP POP JUMP JUMPDEST PUSH32 0x455243313135353A206275726E20616D6F756E74206578636565647320746F74 PUSH1 0x0 DUP3 ADD MSTORE PUSH32 0x616C537570706C79000000000000000000000000000000000000000000000000 PUSH1 0x20 DUP3 ADD MSTORE POP JUMP JUMPDEST PUSH1 0x0 PUSH2 0x412B PUSH1 0x28 DUP4 PUSH2 0x31AC JUMP JUMPDEST SWAP2 POP PUSH2 0x4136 DUP3 PUSH2 0x40CF JUMP JUMPDEST PUSH1 0x40 DUP3 ADD SWAP1 POP SWAP2 SWAP1 POP JUMP JUMPDEST PUSH1 0x0 PUSH1 0x20 DUP3 ADD SWAP1 POP DUP2 DUP2 SUB PUSH1 0x0 DUP4 ADD MSTORE PUSH2 0x415A DUP2 PUSH2 0x411E JUMP JUMPDEST SWAP1 POP SWAP2 SWAP1 POP JUMP JUMPDEST PUSH32 0x4F776E61626C653A2063616C6C6572206973206E6F7420746865206F776E6572 PUSH1 0x0 DUP3 ADD MSTORE POP JUMP JUMPDEST PUSH1 0x0 PUSH2 0x4197 PUSH1 0x20 DUP4 PUSH2 0x31AC JUMP JUMPDEST SWAP2 POP PUSH2 0x41A2 DUP3 PUSH2 0x4161 JUMP JUMPDEST PUSH1 0x20 DUP3 ADD SWAP1 POP SWAP2 SWAP1 POP JUMP JUMPDEST PUSH1 0x0 PUSH1 0x20 DUP3 ADD SWAP1 POP DUP2 DUP2 SUB PUSH1 0x0 DUP4 ADD MSTORE PUSH2 0x41C6 DUP2 PUSH2 0x418A JUMP JUMPDEST SWAP1 POP SWAP2 SWAP1 POP JUMP JUMPDEST PUSH32 0x4E487B7100000000000000000000000000000000000000000000000000000000 PUSH1 0x0 MSTORE PUSH1 0x22 PUSH1 0x4 MSTORE PUSH1 0x24 PUSH1 0x0 REVERT JUMPDEST PUSH1 0x0 PUSH1 0x2 DUP3 DIV SWAP1 POP PUSH1 0x1 DUP3 AND DUP1 PUSH2 0x4214 JUMPI PUSH1 0x7F DUP3 AND SWAP2 POP JUMPDEST PUSH1 0x20 DUP3 LT DUP2 SUB PUSH2 0x4227 JUMPI PUSH2 0x4226 PUSH2 0x41CD JUMP JUMPDEST JUMPDEST POP SWAP2 SWAP1 POP JUMP JUMPDEST PUSH1 0x0 DUP2 SWAP1 POP DUP2 PUSH1 0x0 MSTORE PUSH1 0x20 PUSH1 0x0 KECCAK256 SWAP1 POP SWAP2 SWAP1 POP JUMP JUMPDEST PUSH1 0x0 PUSH1 0x20 PUSH1 0x1F DUP4 ADD DIV SWAP1 POP SWAP2 SWAP1 POP JUMP JUMPDEST PUSH1 0x0 DUP3 DUP3 SHL SWAP1 POP SWAP3 SWAP2 POP POP JUMP JUMPDEST PUSH1 0x0 PUSH1 0x8 DUP4 MUL PUSH2 0x428F PUSH32 0xFFFFFFFFFFFFFFFFFFFFFFFFFFFFFFFFFFFFFFFFFFFFFFFFFFFFFFFFFFFFFFFF DUP3 PUSH2 0x4252 JUMP JUMPDEST PUSH2 0x4299 DUP7 DUP4 PUSH2 0x4252 JUMP JUMPDEST SWAP6 POP DUP1 NOT DUP5 AND SWAP4 POP DUP1 DUP7 AND DUP5 OR SWAP3 POP POP POP SWAP4 SWAP3 POP POP POP JUMP JUMPDEST PUSH1 0x0 PUSH2 0x42CC PUSH2 0x42C7 PUSH2 0x42C2 DUP5 PUSH2 0x2E8A JUMP JUMPDEST PUSH2 0x3F19 JUMP JUMPDEST PUSH2 0x2E8A JUMP JUMPDEST SWAP1 POP SWAP2 SWAP1 POP JUMP JUMPDEST PUSH1 0x0 DUP2 SWAP1 POP SWAP2 SWAP1 POP JUMP JUMPDEST PUSH2 0x42E6 DUP4 PUSH2 0x42B1 JUMP JUMPDEST PUSH2 0x42FA PUSH2 0x42F2 DUP3 PUSH2 0x42D3 JUMP JUMPDEST DUP5 DUP5 SLOAD PUSH2 0x425F JUMP JUMPDEST DUP3 SSTORE POP POP POP POP JUMP JUMPDEST PUSH1 0x0 SWAP1 JUMP JUMPDEST PUSH2 0x430F PUSH2 0x4302 JUMP JUMPDEST PUSH2 0x431A DUP2 DUP5 DUP5 PUSH2 0x42DD JUMP JUMPDEST POP POP POP JUMP JUMPDEST JUMPDEST DUP2 DUP2 LT ISZERO PUSH2 0x433E JUMPI PUSH2 0x4333 PUSH1 0x0 DUP3 PUSH2 0x4307 JUMP JUMPDEST PUSH1 0x1 DUP2 ADD SWAP1 POP PUSH2 0x4320 JUMP JUMPDEST POP POP JUMP JUMPDEST PUSH1 0x1F DUP3 GT ISZERO PUSH2 0x4383 JUMPI PUSH2 0x4354 DUP2 PUSH2 0x422D JUMP JUMPDEST PUSH2 0x435D DUP5 PUSH2 0x4242 JUMP JUMPDEST DUP2 ADD PUSH1 0x20 DUP6 LT ISZERO PUSH2 0x436C JUMPI DUP2 SWAP1 POP JUMPDEST PUSH2 0x4380 PUSH2 0x4378 DUP6 PUSH2 0x4242 JUMP JUMPDEST DUP4 ADD DUP3 PUSH2 0x431F JUMP JUMPDEST POP POP JUMPDEST POP POP POP JUMP JUMPDEST PUSH1 0x0 DUP3 DUP3 SHR SWAP1 POP SWAP3 SWAP2 POP POP JUMP JUMPDEST PUSH1 0x0 PUSH2 0x43A6 PUSH1 0x0 NOT DUP5 PUSH1 0x8 MUL PUSH2 0x4388 JUMP JUMPDEST NOT DUP1 DUP4 AND SWAP2 POP POP SWAP3 SWAP2 POP POP JUMP JUMPDEST PUSH1 0x0 PUSH2 0x43BF DUP4 DUP4 PUSH2 0x4395 JUMP JUMPDEST SWAP2 POP DUP3 PUSH1 0x2 MUL DUP3 OR SWAP1 POP SWAP3 SWAP2 POP POP JUMP JUMPDEST PUSH2 0x43D8 DUP3 PUSH2 0x31A1 JUMP JUMPDEST PUSH8 0xFFFFFFFFFFFFFFFF DUP2 GT ISZERO PUSH2 0x43F1 JUMPI PUSH2 0x43F0 PUSH2 0x3000 JUMP JUMPDEST JUMPDEST PUSH2 0x43FB DUP3 SLOAD PUSH2 0x41FC JUMP JUMPDEST PUSH2 0x4406 DUP3 DUP3 DUP6 PUSH2 0x4342 JUMP JUMPDEST PUSH1 0x0 PUSH1 0x20 SWAP1 POP PUSH1 0x1F DUP4 GT PUSH1 0x1 DUP2 EQ PUSH2 0x4439 JUMPI PUSH1 0x0 DUP5 ISZERO PUSH2 0x4427 JUMPI DUP3 DUP8 ADD MLOAD SWAP1 POP JUMPDEST PUSH2 0x4431 DUP6 DUP3 PUSH2 0x43B3 JUMP JUMPDEST DUP7 SSTORE POP PUSH2 0x4499 JUMP JUMPDEST PUSH1 0x1F NOT DUP5 AND PUSH2 0x4447 DUP7 PUSH2 0x422D JUMP JUMPDEST PUSH1 0x0 JUMPDEST DUP3 DUP2 LT ISZERO PUSH2 0x446F JUMPI DUP5 DUP10 ADD MLOAD DUP3 SSTORE PUSH1 0x1 DUP3 ADD SWAP2 POP PUSH1 0x20 DUP6 ADD SWAP5 POP PUSH1 0x20 DUP2 ADD SWAP1 POP PUSH2 0x444A JUMP JUMPDEST DUP7 DUP4 LT ISZERO PUSH2 0x448C JUMPI DUP5 DUP10 ADD MLOAD PUSH2 0x4488 PUSH1 0x1F DUP10 AND DUP3 PUSH2 0x4395 JUMP JUMPDEST DUP4 SSTORE POP JUMPDEST PUSH1 0x1 PUSH1 0x2 DUP9 MUL ADD DUP9 SSTORE POP POP POP JUMPDEST POP POP POP POP POP POP JUMP JUMPDEST PUSH1 0x0 PUSH2 0x44AC DUP3 PUSH2 0x2E8A JUMP JUMPDEST SWAP2 POP PUSH2 0x44B7 DUP4 PUSH2 0x2E8A JUMP JUMPDEST SWAP3 POP DUP3 DUP3 SUB SWAP1 POP DUP2 DUP2 GT ISZERO PUSH2 0x44CF JUMPI PUSH2 0x44CE PUSH2 0x3CDF JUMP JUMPDEST JUMPDEST SWAP3 SWAP2 POP POP JUMP JUMPDEST PUSH32 0x455243313135353A206D696E7420746F20746865207A65726F20616464726573 PUSH1 0x0 DUP3 ADD MSTORE PUSH32 0x7300000000000000000000000000000000000000000000000000000000000000 PUSH1 0x20 DUP3 ADD MSTORE POP JUMP JUMPDEST PUSH1 0x0 PUSH2 0x4531 PUSH1 0x21 DUP4 PUSH2 0x31AC JUMP JUMPDEST SWAP2 POP PUSH2 0x453C DUP3 PUSH2 0x44D5 JUMP JUMPDEST PUSH1 0x40 DUP3 ADD SWAP1 POP SWAP2 SWAP1 POP JUMP JUMPDEST PUSH1 0x0 PUSH1 0x20 DUP3 ADD SWAP1 POP DUP2 DUP2 SUB PUSH1 0x0 DUP4 ADD MSTORE PUSH2 0x4560 DUP2 PUSH2 0x4524 JUMP JUMPDEST SWAP1 POP SWAP2 SWAP1 POP JUMP JUMPDEST PUSH32 0x455243313135353A2069647320616E6420616D6F756E7473206C656E67746820 PUSH1 0x0 DUP3 ADD MSTORE PUSH32 0x6D69736D61746368000000000000000000000000000000000000000000000000 PUSH1 0x20 DUP3 ADD MSTORE POP JUMP JUMPDEST PUSH1 0x0 PUSH2 0x45C3 PUSH1 0x28 DUP4 PUSH2 0x31AC JUMP JUMPDEST SWAP2 POP PUSH2 0x45CE DUP3 PUSH2 0x4567 JUMP JUMPDEST PUSH1 0x40 DUP3 ADD SWAP1 POP SWAP2 SWAP1 POP JUMP JUMPDEST PUSH1 0x0 PUSH1 0x20 DUP3 ADD SWAP1 POP DUP2 DUP2 SUB PUSH1 0x0 DUP4 ADD MSTORE PUSH2 0x45F2 DUP2 PUSH2 0x45B6 JUMP JUMPDEST SWAP1 POP SWAP2 SWAP1 POP JUMP JUMPDEST PUSH1 0x0 PUSH1 0x40 DUP3 ADD SWAP1 POP DUP2 DUP2 SUB PUSH1 0x0 DUP4 ADD MSTORE PUSH2 0x4613 DUP2 DUP6 PUSH2 0x370C JUMP JUMPDEST SWAP1 POP DUP2 DUP2 SUB PUSH1 0x20 DUP4 ADD MSTORE PUSH2 0x4627 DUP2 DUP5 PUSH2 0x370C JUMP JUMPDEST SWAP1 POP SWAP4 SWAP3 POP POP POP JUMP JUMPDEST PUSH32 0x455243313135353A207472616E7366657220746F20746865207A65726F206164 PUSH1 0x0 DUP3 ADD MSTORE PUSH32 0x6472657373000000000000000000000000000000000000000000000000000000 PUSH1 0x20 DUP3 ADD MSTORE POP JUMP JUMPDEST PUSH1 0x0 PUSH2 0x468C PUSH1 0x25 DUP4 PUSH2 0x31AC JUMP JUMPDEST SWAP2 POP PUSH2 0x4697 DUP3 PUSH2 0x4630 JUMP JUMPDEST PUSH1 0x40 DUP3 ADD SWAP1 POP SWAP2 SWAP1 POP JUMP JUMPDEST PUSH1 0x0 PUSH1 0x20 DUP3 ADD SWAP1 POP DUP2 DUP2 SUB PUSH1 0x0 DUP4 ADD MSTORE PUSH2 0x46BB DUP2 PUSH2 0x467F JUMP JUMPDEST SWAP1 POP SWAP2 SWAP1 POP JUMP JUMPDEST PUSH32 0x455243313135353A20696E73756666696369656E742062616C616E636520666F PUSH1 0x0 DUP3 ADD MSTORE PUSH32 0x72207472616E7366657200000000000000000000000000000000000000000000 PUSH1 0x20 DUP3 ADD MSTORE POP JUMP JUMPDEST PUSH1 0x0 PUSH2 0x471E PUSH1 0x2A DUP4 PUSH2 0x31AC JUMP JUMPDEST SWAP2 POP PUSH2 0x4729 DUP3 PUSH2 0x46C2 JUMP JUMPDEST PUSH1 0x40 DUP3 ADD SWAP1 POP SWAP2 SWAP1 POP JUMP JUMPDEST PUSH1 0x0 PUSH1 0x20 DUP3 ADD SWAP1 POP DUP2 DUP2 SUB PUSH1 0x0 DUP4 ADD MSTORE PUSH2 0x474D DUP2 PUSH2 0x4711 JUMP JUMPDEST SWAP1 POP SWAP2 SWAP1 POP JUMP JUMPDEST PUSH1 0x0 PUSH1 0x40 DUP3 ADD SWAP1 POP PUSH2 0x4769 PUSH1 0x0 DUP4 ADD DUP6 PUSH2 0x2F00 JUMP JUMPDEST PUSH2 0x4776 PUSH1 0x20 DUP4 ADD DUP5 PUSH2 0x2F00 JUMP JUMPDEST SWAP4 SWAP3 POP POP POP JUMP JUMPDEST PUSH32 0x455243313135353A206275726E2066726F6D20746865207A65726F2061646472 PUSH1 0x0 DUP3 ADD MSTORE PUSH32 0x6573730000000000000000000000000000000000000000000000000000000000 PUSH1 0x20 DUP3 ADD MSTORE POP JUMP JUMPDEST PUSH1 0x0 PUSH2 0x47D9 PUSH1 0x23 DUP4 PUSH2 0x31AC JUMP JUMPDEST SWAP2 POP PUSH2 0x47E4 DUP3 PUSH2 0x477D JUMP JUMPDEST PUSH1 0x40 DUP3 ADD SWAP1 POP SWAP2 SWAP1 POP JUMP JUMPDEST PUSH1 0x0 PUSH1 0x20 DUP3 ADD SWAP1 POP DUP2 DUP2 SUB PUSH1 0x0 DUP4 ADD MSTORE PUSH2 0x4808 DUP2 PUSH2 0x47CC JUMP JUMPDEST SWAP1 POP SWAP2 SWAP1 POP JUMP JUMPDEST PUSH32 0x455243313135353A206275726E20616D6F756E7420657863656564732062616C PUSH1 0x0 DUP3 ADD MSTORE PUSH32 0x616E636500000000000000000000000000000000000000000000000000000000 PUSH1 0x20 DUP3 ADD MSTORE POP JUMP JUMPDEST PUSH1 0x0 PUSH2 0x486B PUSH1 0x24 DUP4 PUSH2 0x31AC JUMP JUMPDEST SWAP2 POP PUSH2 0x4876 DUP3 PUSH2 0x480F JUMP JUMPDEST PUSH1 0x40 DUP3 ADD SWAP1 POP SWAP2 SWAP1 POP JUMP JUMPDEST PUSH1 0x0 PUSH1 0x20 DUP3 ADD SWAP1 POP DUP2 DUP2 SUB PUSH1 0x0 DUP4 ADD MSTORE PUSH2 0x489A DUP2 PUSH2 0x485E JUMP JUMPDEST SWAP1 POP SWAP2 SWAP1 POP JUMP JUMPDEST PUSH32 0x455243313135353A2073657474696E6720617070726F76616C20737461747573 PUSH1 0x0 DUP3 ADD MSTORE PUSH32 0x20666F722073656C660000000000000000000000000000000000000000000000 PUSH1 0x20 DUP3 ADD MSTORE POP JUMP JUMPDEST PUSH1 0x0 PUSH2 0x48FD PUSH1 0x29 DUP4 PUSH2 0x31AC JUMP JUMPDEST SWAP2 POP PUSH2 0x4908 DUP3 PUSH2 0x48A1 JUMP JUMPDEST PUSH1 0x40 DUP3 ADD SWAP1 POP SWAP2 SWAP1 POP JUMP JUMPDEST PUSH1 0x0 PUSH1 0x20 DUP3 ADD SWAP1 POP DUP2 DUP2 SUB PUSH1 0x0 DUP4 ADD MSTORE PUSH2 0x492C DUP2 PUSH2 0x48F0 JUMP JUMPDEST SWAP1 POP SWAP2 SWAP1 POP JUMP JUMPDEST PUSH1 0x0 DUP2 MLOAD SWAP1 POP SWAP2 SWAP1 POP JUMP JUMPDEST PUSH1 0x0 DUP3 DUP3 MSTORE PUSH1 0x20 DUP3 ADD SWAP1 POP SWAP3 SWAP2 POP POP JUMP JUMPDEST PUSH1 0x0 PUSH2 0x495A DUP3 PUSH2 0x4933 JUMP JUMPDEST PUSH2 0x4964 DUP2 DUP6 PUSH2 0x493E JUMP JUMPDEST SWAP4 POP PUSH2 0x4974 DUP2 DUP6 PUSH1 0x20 DUP7 ADD PUSH2 0x31BD JUMP JUMPDEST PUSH2 0x497D DUP2 PUSH2 0x2FEF JUMP JUMPDEST DUP5 ADD SWAP2 POP POP SWAP3 SWAP2 POP POP JUMP JUMPDEST PUSH1 0x0 PUSH1 0xA0 DUP3 ADD SWAP1 POP PUSH2 0x499D PUSH1 0x0 DUP4 ADD DUP9 PUSH2 0x3817 JUMP JUMPDEST PUSH2 0x49AA PUSH1 0x20 DUP4 ADD DUP8 PUSH2 0x3817 JUMP JUMPDEST DUP2 DUP2 SUB PUSH1 0x40 DUP4 ADD MSTORE PUSH2 0x49BC DUP2 DUP7 PUSH2 0x370C JUMP JUMPDEST SWAP1 POP DUP2 DUP2 SUB PUSH1 0x60 DUP4 ADD MSTORE PUSH2 0x49D0 DUP2 DUP6 PUSH2 0x370C JUMP JUMPDEST SWAP1 POP DUP2 DUP2 SUB PUSH1 0x80 DUP4 ADD MSTORE PUSH2 0x49E4 DUP2 DUP5 PUSH2 0x494F JUMP JUMPDEST SWAP1 POP SWAP7 SWAP6 POP POP POP POP POP POP JUMP JUMPDEST PUSH1 0x0 DUP2 MLOAD SWAP1 POP PUSH2 0x49FF DUP2 PUSH2 0x2F56 JUMP JUMPDEST SWAP3 SWAP2 POP POP JUMP JUMPDEST PUSH1 0x0 PUSH1 0x20 DUP3 DUP5 SUB SLT ISZERO PUSH2 0x4A1B JUMPI PUSH2 0x4A1A PUSH2 0x2E22 JUMP JUMPDEST JUMPDEST PUSH1 0x0 PUSH2 0x4A29 DUP5 DUP3 DUP6 ADD PUSH2 0x49F0 JUMP JUMPDEST SWAP2 POP POP SWAP3 SWAP2 POP POP JUMP JUMPDEST PUSH1 0x0 DUP2 PUSH1 0xE0 SHR SWAP1 POP SWAP2 SWAP1 POP JUMP JUMPDEST PUSH1 0x0 PUSH1 0x3 RETURNDATASIZE GT ISZERO PUSH2 0x4A5E JUMPI PUSH1 0x4 PUSH1 0x0 DUP1 RETURNDATACOPY PUSH2 0x4A5B PUSH1 0x0 MLOAD PUSH2 0x4A32 JUMP JUMPDEST SWAP1 POP JUMPDEST SWAP1 JUMP JUMPDEST PUSH1 0x0 PUSH1 0x44 RETURNDATASIZE LT PUSH2 0x4AEE JUMPI PUSH2 0x4A73 PUSH2 0x2E18 JUMP JUMPDEST PUSH1 0x4 RETURNDATASIZE SUB PUSH1 0x4 DUP3 RETURNDATACOPY DUP1 MLOAD RETURNDATASIZE PUSH1 0x24 DUP3 ADD GT PUSH8 0xFFFFFFFFFFFFFFFF DUP3 GT OR ISZERO PUSH2 0x4A9B JUMPI POP POP PUSH2 0x4AEE JUMP JUMPDEST DUP1 DUP3 ADD DUP1 MLOAD PUSH8 0xFFFFFFFFFFFFFFFF DUP2 GT ISZERO PUSH2 0x4AB9 JUMPI POP POP POP POP PUSH2 0x4AEE JUMP JUMPDEST DUP1 PUSH1 0x20 DUP4 ADD ADD PUSH1 0x4 RETURNDATASIZE SUB DUP6 ADD DUP2 GT ISZERO PUSH2 0x4AD6 JUMPI POP POP POP POP POP PUSH2 0x4AEE JUMP JUMPDEST PUSH2 0x4AE5 DUP3 PUSH1 0x20 ADD DUP6 ADD DUP7 PUSH2 0x302F JUMP JUMPDEST DUP3 SWAP6 POP POP POP POP POP POP JUMPDEST SWAP1 JUMP JUMPDEST PUSH32 0x455243313135353A207472616E7366657220746F206E6F6E2045524331313535 PUSH1 0x0 DUP3 ADD MSTORE PUSH32 0x526563656976657220696D706C656D656E746572000000000000000000000000 PUSH1 0x20 DUP3 ADD MSTORE POP JUMP JUMPDEST PUSH1 0x0 PUSH2 0x4B4D PUSH1 0x34 DUP4 PUSH2 0x31AC JUMP JUMPDEST SWAP2 POP PUSH2 0x4B58 DUP3 PUSH2 0x4AF1 JUMP JUMPDEST PUSH1 0x40 DUP3 ADD SWAP1 POP SWAP2 SWAP1 POP JUMP JUMPDEST PUSH1 0x0 PUSH1 0x20 DUP3 ADD SWAP1 POP DUP2 DUP2 SUB PUSH1 0x0 DUP4 ADD MSTORE PUSH2 0x4B7C DUP2 PUSH2 0x4B40 JUMP JUMPDEST SWAP1 POP SWAP2 SWAP1 POP JUMP JUMPDEST PUSH32 0x455243313135353A204552433131353552656365697665722072656A65637465 PUSH1 0x0 DUP3 ADD MSTORE PUSH32 0x6420746F6B656E73000000000000000000000000000000000000000000000000 PUSH1 0x20 DUP3 ADD MSTORE POP JUMP JUMPDEST PUSH1 0x0 PUSH2 0x4BDF PUSH1 0x28 DUP4 PUSH2 0x31AC JUMP JUMPDEST SWAP2 POP PUSH2 0x4BEA DUP3 PUSH2 0x4B83 JUMP JUMPDEST PUSH1 0x40 DUP3 ADD SWAP1 POP SWAP2 SWAP1 POP JUMP JUMPDEST PUSH1 0x0 PUSH1 0x20 DUP3 ADD SWAP1 POP DUP2 DUP2 SUB PUSH1 0x0 DUP4 ADD MSTORE PUSH2 0x4C0E DUP2 PUSH2 0x4BD2 JUMP JUMPDEST SWAP1 POP SWAP2 SWAP1 POP JUMP JUMPDEST PUSH1 0x0 PUSH1 0xA0 DUP3 ADD SWAP1 POP PUSH2 0x4C2A PUSH1 0x0 DUP4 ADD DUP9 PUSH2 0x3817 JUMP JUMPDEST PUSH2 0x4C37 PUSH1 0x20 DUP4 ADD DUP8 PUSH2 0x3817 JUMP JUMPDEST PUSH2 0x4C44 PUSH1 0x40 DUP4 ADD DUP7 PUSH2 0x2F00 JUMP JUMPDEST PUSH2 0x4C51 PUSH1 0x60 DUP4 ADD DUP6 PUSH2 0x2F00 JUMP JUMPDEST DUP2 DUP2 SUB PUSH1 0x80 DUP4 ADD MSTORE PUSH2 0x4C63 DUP2 DUP5 PUSH2 0x494F JUMP JUMPDEST SWAP1 POP SWAP7 SWAP6 POP POP POP POP POP POP JUMP INVALID LOG2 PUSH5 0x6970667358 0x22 SLT KECCAK256 ADDMOD PUSH1 0x32 0x5E PUSH30 0x5892315DF33A9EB36F3A074EDBBE1EAD238EA35BDB2A410BB2F3A464736F PUSH13 0x63430008110033697066733A2F 0x2F MLOAD PUSH14 0x556B555557426973694661395855 PUSH12 0x3475634A6944723266766B32 PUSH21 0x447231784472436B45463646464346382F7B69647D "
		},
		"gasEstimates": {
			"creation": {
				"codeDepositCost": "3924200",
				"executionCost": "infinite",
				"totalCost": "infinite"
			},
			"external": {
				"BOW0()": "462",
				"BOW1()": "463",
				"BOW2()": "462",
				"POLEARM0()": "373",
				"POLEARM1()": "441",
				"POLEARM2()": "419",
				"SCROLL10()": "374",
				"SCROLL100()": "374",
				"SCROLL30()": "396",
				"SCROLL60()": "461",
				"SCROLL90()": "419",
				"STAFF0()": "375",
				"STAFF1()": "440",
				"STAFF2()": "375",
				"SWORD0()": "374",
				"SWORD1()": "440",
				"SWORD2()": "418",
				"SWORD3()": "397",
				"balanceOf(address,uint256)": "infinite",
				"balanceOfBatch(address[],uint256[])": "infinite",
				"burn(address,uint256,uint256)": "infinite",
				"burnBatch(address,uint256[],uint256[])": "infinite",
				"exists(uint256)": "2969",
				"isApprovedForAll(address,address)": "infinite",
				"mintBatch(address,uint256[],uint256[],bytes)": "infinite",
				"mintFirstWeapon()": "infinite",
				"mintRandomWeapon()": "infinite",
				"owner()": "2568",
				"renounceOwnership()": "30531",
				"safeBatchTransferFrom(address,address,uint256[],uint256[],bytes)": "infinite",
				"safeTransferFrom(address,address,uint256,uint256,bytes)": "infinite",
				"setApprovalForAll(address,bool)": "infinite",
				"setURI(string)": "infinite",
				"supportsInterface(bytes4)": "842",
				"totalSupply(uint256)": "infinite",
				"transferOwnership(address)": "30832",
				"treasuryWallet()": "2582",
				"uri(uint256)": "infinite"
			},
			"internal": {
				"_beforeTokenTransfer(address,address,address,uint256[] memory,uint256[] memory,bytes memory)": "infinite",
				"_generateWeaponArray()": "infinite",
				"_generatefirstWeapon()": "infinite",
				"_setToken(contract JMToken)": "infinite"
			}
		},
		"methodIdentifiers": {
			"BOW0()": "ea3875ca",
			"BOW1()": "32e5794a",
			"BOW2()": "d656efb5",
			"POLEARM0()": "f14a3d56",
			"POLEARM1()": "4f4aabc1",
			"POLEARM2()": "a004cbde",
			"SCROLL10()": "5456e59a",
			"SCROLL100()": "d79c66aa",
			"SCROLL30()": "dc4feb47",
			"SCROLL60()": "f5dce5b9",
			"SCROLL90()": "23bfdcfa",
			"STAFF0()": "442107e3",
			"STAFF1()": "d0faf49e",
			"STAFF2()": "0f068c60",
			"SWORD0()": "aedd809a",
			"SWORD1()": "6f9e9b84",
			"SWORD2()": "e7b5be39",
			"SWORD3()": "9750463a",
			"balanceOf(address,uint256)": "00fdd58e",
			"balanceOfBatch(address[],uint256[])": "4e1273f4",
			"burn(address,uint256,uint256)": "f5298aca",
			"burnBatch(address,uint256[],uint256[])": "6b20c454",
			"exists(uint256)": "4f558e79",
			"isApprovedForAll(address,address)": "e985e9c5",
			"mintBatch(address,uint256[],uint256[],bytes)": "1f7fdffa",
			"mintFirstWeapon()": "b6a8412b",
			"mintRandomWeapon()": "60baee5d",
			"owner()": "8da5cb5b",
			"renounceOwnership()": "715018a6",
			"safeBatchTransferFrom(address,address,uint256[],uint256[],bytes)": "2eb2c2d6",
			"safeTransferFrom(address,address,uint256,uint256,bytes)": "f242432a",
			"setApprovalForAll(address,bool)": "a22cb465",
			"setURI(string)": "02fe5305",
			"supportsInterface(bytes4)": "01ffc9a7",
			"totalSupply(uint256)": "bd85b039",
			"transferOwnership(address)": "f2fde38b",
			"treasuryWallet()": "4626402b",
			"uri(uint256)": "0e89341c"
		}
	},
	"abi": [
		{
			"inputs": [
				{
					"internalType": "address",
					"name": "_marketAddress",
					"type": "address"
				},
				{
					"internalType": "contract JMToken",
					"name": "_tokenContractAddress",
					"type": "address"
				},
				{
					"internalType": "address payable",
					"name": "_treasuryWallet",
					"type": "address"
				}
			],
			"stateMutability": "nonpayable",
			"type": "constructor"
		},
		{
			"anonymous": false,
			"inputs": [
				{
					"indexed": true,
					"internalType": "address",
					"name": "account",
					"type": "address"
				},
				{
					"indexed": true,
					"internalType": "address",
					"name": "operator",
					"type": "address"
				},
				{
					"indexed": false,
					"internalType": "bool",
					"name": "approved",
					"type": "bool"
				}
			],
			"name": "ApprovalForAll",
			"type": "event"
		},
		{
			"anonymous": false,
			"inputs": [
				{
					"indexed": true,
					"internalType": "address",
					"name": "previousOwner",
					"type": "address"
				},
				{
					"indexed": true,
					"internalType": "address",
					"name": "newOwner",
					"type": "address"
				}
			],
			"name": "OwnershipTransferred",
			"type": "event"
		},
		{
			"anonymous": false,
			"inputs": [
				{
					"indexed": true,
					"internalType": "address",
					"name": "operator",
					"type": "address"
				},
				{
					"indexed": true,
					"internalType": "address",
					"name": "from",
					"type": "address"
				},
				{
					"indexed": true,
					"internalType": "address",
					"name": "to",
					"type": "address"
				},
				{
					"indexed": false,
					"internalType": "uint256[]",
					"name": "ids",
					"type": "uint256[]"
				},
				{
					"indexed": false,
					"internalType": "uint256[]",
					"name": "values",
					"type": "uint256[]"
				}
			],
			"name": "TransferBatch",
			"type": "event"
		},
		{
			"anonymous": false,
			"inputs": [
				{
					"indexed": true,
					"internalType": "address",
					"name": "operator",
					"type": "address"
				},
				{
					"indexed": true,
					"internalType": "address",
					"name": "from",
					"type": "address"
				},
				{
					"indexed": true,
					"internalType": "address",
					"name": "to",
					"type": "address"
				},
				{
					"indexed": false,
					"internalType": "uint256",
					"name": "id",
					"type": "uint256"
				},
				{
					"indexed": false,
					"internalType": "uint256",
					"name": "value",
					"type": "uint256"
				}
			],
			"name": "TransferSingle",
			"type": "event"
		},
		{
			"anonymous": false,
			"inputs": [
				{
					"indexed": false,
					"internalType": "string",
					"name": "value",
					"type": "string"
				},
				{
					"indexed": true,
					"internalType": "uint256",
					"name": "id",
					"type": "uint256"
				}
			],
			"name": "URI",
			"type": "event"
		},
		{
			"inputs": [],
			"name": "BOW0",
			"outputs": [
				{
					"internalType": "uint256",
					"name": "",
					"type": "uint256"
				}
			],
			"stateMutability": "view",
			"type": "function"
		},
		{
			"inputs": [],
			"name": "BOW1",
			"outputs": [
				{
					"internalType": "uint256",
					"name": "",
					"type": "uint256"
				}
			],
			"stateMutability": "view",
			"type": "function"
		},
		{
			"inputs": [],
			"name": "BOW2",
			"outputs": [
				{
					"internalType": "uint256",
					"name": "",
					"type": "uint256"
				}
			],
			"stateMutability": "view",
			"type": "function"
		},
		{
			"inputs": [],
			"name": "POLEARM0",
			"outputs": [
				{
					"internalType": "uint256",
					"name": "",
					"type": "uint256"
				}
			],
			"stateMutability": "view",
			"type": "function"
		},
		{
			"inputs": [],
			"name": "POLEARM1",
			"outputs": [
				{
					"internalType": "uint256",
					"name": "",
					"type": "uint256"
				}
			],
			"stateMutability": "view",
			"type": "function"
		},
		{
			"inputs": [],
			"name": "POLEARM2",
			"outputs": [
				{
					"internalType": "uint256",
					"name": "",
					"type": "uint256"
				}
			],
			"stateMutability": "view",
			"type": "function"
		},
		{
			"inputs": [],
			"name": "SCROLL10",
			"outputs": [
				{
					"internalType": "uint256",
					"name": "",
					"type": "uint256"
				}
			],
			"stateMutability": "view",
			"type": "function"
		},
		{
			"inputs": [],
			"name": "SCROLL100",
			"outputs": [
				{
					"internalType": "uint256",
					"name": "",
					"type": "uint256"
				}
			],
			"stateMutability": "view",
			"type": "function"
		},
		{
			"inputs": [],
			"name": "SCROLL30",
			"outputs": [
				{
					"internalType": "uint256",
					"name": "",
					"type": "uint256"
				}
			],
			"stateMutability": "view",
			"type": "function"
		},
		{
			"inputs": [],
			"name": "SCROLL60",
			"outputs": [
				{
					"internalType": "uint256",
					"name": "",
					"type": "uint256"
				}
			],
			"stateMutability": "view",
			"type": "function"
		},
		{
			"inputs": [],
			"name": "SCROLL90",
			"outputs": [
				{
					"internalType": "uint256",
					"name": "",
					"type": "uint256"
				}
			],
			"stateMutability": "view",
			"type": "function"
		},
		{
			"inputs": [],
			"name": "STAFF0",
			"outputs": [
				{
					"internalType": "uint256",
					"name": "",
					"type": "uint256"
				}
			],
			"stateMutability": "view",
			"type": "function"
		},
		{
			"inputs": [],
			"name": "STAFF1",
			"outputs": [
				{
					"internalType": "uint256",
					"name": "",
					"type": "uint256"
				}
			],
			"stateMutability": "view",
			"type": "function"
		},
		{
			"inputs": [],
			"name": "STAFF2",
			"outputs": [
				{
					"internalType": "uint256",
					"name": "",
					"type": "uint256"
				}
			],
			"stateMutability": "view",
			"type": "function"
		},
		{
			"inputs": [],
			"name": "SWORD0",
			"outputs": [
				{
					"internalType": "uint256",
					"name": "",
					"type": "uint256"
				}
			],
			"stateMutability": "view",
			"type": "function"
		},
		{
			"inputs": [],
			"name": "SWORD1",
			"outputs": [
				{
					"internalType": "uint256",
					"name": "",
					"type": "uint256"
				}
			],
			"stateMutability": "view",
			"type": "function"
		},
		{
			"inputs": [],
			"name": "SWORD2",
			"outputs": [
				{
					"internalType": "uint256",
					"name": "",
					"type": "uint256"
				}
			],
			"stateMutability": "view",
			"type": "function"
		},
		{
			"inputs": [],
			"name": "SWORD3",
			"outputs": [
				{
					"internalType": "uint256",
					"name": "",
					"type": "uint256"
				}
			],
			"stateMutability": "view",
			"type": "function"
		},
		{
			"inputs": [
				{
					"internalType": "address",
					"name": "account",
					"type": "address"
				},
				{
					"internalType": "uint256",
					"name": "id",
					"type": "uint256"
				}
			],
			"name": "balanceOf",
			"outputs": [
				{
					"internalType": "uint256",
					"name": "",
					"type": "uint256"
				}
			],
			"stateMutability": "view",
			"type": "function"
		},
		{
			"inputs": [
				{
					"internalType": "address[]",
					"name": "accounts",
					"type": "address[]"
				},
				{
					"internalType": "uint256[]",
					"name": "ids",
					"type": "uint256[]"
				}
			],
			"name": "balanceOfBatch",
			"outputs": [
				{
					"internalType": "uint256[]",
					"name": "",
					"type": "uint256[]"
				}
			],
			"stateMutability": "view",
			"type": "function"
		},
		{
			"inputs": [
				{
					"internalType": "address",
					"name": "account",
					"type": "address"
				},
				{
					"internalType": "uint256",
					"name": "id",
					"type": "uint256"
				},
				{
					"internalType": "uint256",
					"name": "value",
					"type": "uint256"
				}
			],
			"name": "burn",
			"outputs": [],
			"stateMutability": "nonpayable",
			"type": "function"
		},
		{
			"inputs": [
				{
					"internalType": "address",
					"name": "account",
					"type": "address"
				},
				{
					"internalType": "uint256[]",
					"name": "ids",
					"type": "uint256[]"
				},
				{
					"internalType": "uint256[]",
					"name": "values",
					"type": "uint256[]"
				}
			],
			"name": "burnBatch",
			"outputs": [],
			"stateMutability": "nonpayable",
			"type": "function"
		},
		{
			"inputs": [
				{
					"internalType": "uint256",
					"name": "id",
					"type": "uint256"
				}
			],
			"name": "exists",
			"outputs": [
				{
					"internalType": "bool",
					"name": "",
					"type": "bool"
				}
			],
			"stateMutability": "view",
			"type": "function"
		},
		{
			"inputs": [
				{
					"internalType": "address",
					"name": "account",
					"type": "address"
				},
				{
					"internalType": "address",
					"name": "operator",
					"type": "address"
				}
			],
			"name": "isApprovedForAll",
			"outputs": [
				{
					"internalType": "bool",
					"name": "",
					"type": "bool"
				}
			],
			"stateMutability": "view",
			"type": "function"
		},
		{
			"inputs": [
				{
					"internalType": "address",
					"name": "to",
					"type": "address"
				},
				{
					"internalType": "uint256[]",
					"name": "ids",
					"type": "uint256[]"
				},
				{
					"internalType": "uint256[]",
					"name": "amounts",
					"type": "uint256[]"
				},
				{
					"internalType": "bytes",
					"name": "data",
					"type": "bytes"
				}
			],
			"name": "mintBatch",
			"outputs": [],
			"stateMutability": "nonpayable",
			"type": "function"
		},
		{
			"inputs": [],
			"name": "mintFirstWeapon",
			"outputs": [
				{
					"internalType": "uint256",
					"name": "",
					"type": "uint256"
				}
			],
			"stateMutability": "nonpayable",
			"type": "function"
		},
		{
			"inputs": [],
			"name": "mintRandomWeapon",
			"outputs": [
				{
					"internalType": "uint256",
					"name": "",
					"type": "uint256"
				}
			],
			"stateMutability": "payable",
			"type": "function"
		},
		{
			"inputs": [],
			"name": "owner",
			"outputs": [
				{
					"internalType": "address",
					"name": "",
					"type": "address"
				}
			],
			"stateMutability": "view",
			"type": "function"
		},
		{
			"inputs": [],
			"name": "renounceOwnership",
			"outputs": [],
			"stateMutability": "nonpayable",
			"type": "function"
		},
		{
			"inputs": [
				{
					"internalType": "address",
					"name": "from",
					"type": "address"
				},
				{
					"internalType": "address",
					"name": "to",
					"type": "address"
				},
				{
					"internalType": "uint256[]",
					"name": "ids",
					"type": "uint256[]"
				},
				{
					"internalType": "uint256[]",
					"name": "amounts",
					"type": "uint256[]"
				},
				{
					"internalType": "bytes",
					"name": "data",
					"type": "bytes"
				}
			],
			"name": "safeBatchTransferFrom",
			"outputs": [],
			"stateMutability": "nonpayable",
			"type": "function"
		},
		{
			"inputs": [
				{
					"internalType": "address",
					"name": "from",
					"type": "address"
				},
				{
					"internalType": "address",
					"name": "to",
					"type": "address"
				},
				{
					"internalType": "uint256",
					"name": "id",
					"type": "uint256"
				},
				{
					"internalType": "uint256",
					"name": "amount",
					"type": "uint256"
				},
				{
					"internalType": "bytes",
					"name": "data",
					"type": "bytes"
				}
			],
			"name": "safeTransferFrom",
			"outputs": [],
			"stateMutability": "nonpayable",
			"type": "function"
		},
		{
			"inputs": [
				{
					"internalType": "address",
					"name": "operator",
					"type": "address"
				},
				{
					"internalType": "bool",
					"name": "approved",
					"type": "bool"
				}
			],
			"name": "setApprovalForAll",
			"outputs": [],
			"stateMutability": "nonpayable",
			"type": "function"
		},
		{
			"inputs": [
				{
					"internalType": "string",
					"name": "newuri",
					"type": "string"
				}
			],
			"name": "setURI",
			"outputs": [],
			"stateMutability": "nonpayable",
			"type": "function"
		},
		{
			"inputs": [
				{
					"internalType": "bytes4",
					"name": "interfaceId",
					"type": "bytes4"
				}
			],
			"name": "supportsInterface",
			"outputs": [
				{
					"internalType": "bool",
					"name": "",
					"type": "bool"
				}
			],
			"stateMutability": "view",
			"type": "function"
		},
		{
			"inputs": [
				{
					"internalType": "uint256",
					"name": "id",
					"type": "uint256"
				}
			],
			"name": "totalSupply",
			"outputs": [
				{
					"internalType": "uint256",
					"name": "",
					"type": "uint256"
				}
			],
			"stateMutability": "view",
			"type": "function"
		},
		{
			"inputs": [
				{
					"internalType": "address",
					"name": "newOwner",
					"type": "address"
				}
			],
			"name": "transferOwnership",
			"outputs": [],
			"stateMutability": "nonpayable",
			"type": "function"
		},
		{
			"inputs": [],
			"name": "treasuryWallet",
			"outputs": [
				{
					"internalType": "address payable",
					"name": "",
					"type": "address"
				}
			],
			"stateMutability": "view",
			"type": "function"
		},
		{
			"inputs": [
				{
					"internalType": "uint256",
					"name": "_tokenid",
					"type": "uint256"
				}
			],
			"name": "uri",
			"outputs": [
				{
					"internalType": "string",
					"name": "",
					"type": "string"
				}
			],
			"stateMutability": "pure",
			"type": "function"
		}
	]
}