{
  "contractName": "JMToken",
  "abi": [
    {
      "inputs": [
        {
          "internalType": "address payable",
          "name": "treasury",
          "type": "address"
        }
      ],
      "stateMutability": "nonpayable",
      "type": "constructor"
    },
    {
      "anonymous": false,
      "inputs": [
        {
          "indexed": true,
          "internalType": "address",
          "name": "owner",
          "type": "address"
        },
        {
          "indexed": true,
          "internalType": "address",
          "name": "spender",
          "type": "address"
        },
        {
          "indexed": false,
          "internalType": "uint256",
          "name": "value",
          "type": "uint256"
        }
      ],
      "name": "Approval",
      "type": "event"
    },
    {
      "anonymous": false,
      "inputs": [],
      "name": "FundsMoved",
      "type": "event"
    },
    {
      "anonymous": false,
      "inputs": [],
      "name": "OwnerAction",
      "type": "event"
    },
    {
      "anonymous": false,
      "inputs": [
        {
          "indexed": true,
          "internalType": "address",
          "name": "_account",
          "type": "address"
        },
        {
          "indexed": false,
          "internalType": "uint256",
          "name": "amount",
          "type": "uint256"
        }
      ],
      "name": "TokensBought",
      "type": "event"
    },
    {
      "anonymous": false,
      "inputs": [
        {
          "indexed": true,
          "internalType": "address",
          "name": "from",
          "type": "address"
        },
        {
          "indexed": true,
          "internalType": "address",
          "name": "to",
          "type": "address"
        },
        {
          "indexed": false,
          "internalType": "uint256",
          "name": "value",
          "type": "uint256"
        }
      ],
      "name": "Transfer",
      "type": "event"
    },
    {
      "anonymous": false,
      "inputs": [],
      "name": "_MovedStakingReward",
      "type": "event"
    },
    {
      "inputs": [],
      "name": "MAX_SUPPLY",
      "outputs": [
        {
          "internalType": "uint256",
          "name": "",
          "type": "uint256"
        }
      ],
      "stateMutability": "view",
      "type": "function",
      "constant": true
    },
    {
      "inputs": [],
      "name": "MapleItems",
      "outputs": [
        {
          "internalType": "address",
          "name": "",
          "type": "address"
        }
      ],
      "stateMutability": "view",
      "type": "function",
      "constant": true
    },
    {
      "inputs": [],
      "name": "MapleNFT",
      "outputs": [
        {
          "internalType": "address",
          "name": "",
          "type": "address"
        }
      ],
      "stateMutability": "view",
      "type": "function",
      "constant": true
    },
    {
      "inputs": [],
      "name": "Router",
      "outputs": [
        {
          "internalType": "address",
          "name": "",
          "type": "address"
        }
      ],
      "stateMutability": "view",
      "type": "function",
      "constant": true
    },
    {
      "inputs": [],
      "name": "Staking",
      "outputs": [
        {
          "internalType": "address",
          "name": "",
          "type": "address"
        }
      ],
      "stateMutability": "view",
      "type": "function",
      "constant": true
    },
    {
      "inputs": [],
      "name": "TAX",
      "outputs": [
        {
          "internalType": "uint256",
          "name": "",
          "type": "uint256"
        }
      ],
      "stateMutability": "view",
      "type": "function",
      "constant": true
    },
    {
      "inputs": [
        {
          "internalType": "address",
          "name": "owner",
          "type": "address"
        },
        {
          "internalType": "address",
          "name": "spender",
          "type": "address"
        }
      ],
      "name": "allowance",
      "outputs": [
        {
          "internalType": "uint256",
          "name": "",
          "type": "uint256"
        }
      ],
      "stateMutability": "view",
      "type": "function",
      "constant": true
    },
    {
      "inputs": [
        {
          "internalType": "address",
          "name": "spender",
          "type": "address"
        },
        {
          "internalType": "uint256",
          "name": "amount",
          "type": "uint256"
        }
      ],
      "name": "approve",
      "outputs": [
        {
          "internalType": "bool",
          "name": "",
          "type": "bool"
        }
      ],
      "stateMutability": "nonpayable",
      "type": "function"
    },
    {
      "inputs": [
        {
          "internalType": "address",
          "name": "account",
          "type": "address"
        }
      ],
      "name": "balanceOf",
      "outputs": [
        {
          "internalType": "uint256",
          "name": "",
          "type": "uint256"
        }
      ],
      "stateMutability": "view",
      "type": "function",
      "constant": true
    },
    {
      "inputs": [
        {
          "internalType": "address",
          "name": "",
          "type": "address"
        }
      ],
      "name": "balancesToClaim",
      "outputs": [
        {
          "internalType": "uint256",
          "name": "",
          "type": "uint256"
        }
      ],
      "stateMutability": "view",
      "type": "function",
      "constant": true
    },
    {
      "inputs": [
        {
          "internalType": "address",
          "name": "",
          "type": "address"
        }
      ],
      "name": "contributionsOf",
      "outputs": [
        {
          "internalType": "uint256",
          "name": "",
          "type": "uint256"
        }
      ],
      "stateMutability": "view",
      "type": "function",
      "constant": true
    },
    {
      "inputs": [],
      "name": "decimals",
      "outputs": [
        {
          "internalType": "uint8",
          "name": "",
          "type": "uint8"
        }
      ],
      "stateMutability": "view",
      "type": "function",
      "constant": true
    },
    {
      "inputs": [
        {
          "internalType": "address",
          "name": "spender",
          "type": "address"
        },
        {
          "internalType": "uint256",
          "name": "subtractedValue",
          "type": "uint256"
        }
      ],
      "name": "decreaseAllowance",
      "outputs": [
        {
          "internalType": "bool",
          "name": "",
          "type": "bool"
        }
      ],
      "stateMutability": "nonpayable",
      "type": "function"
    },
    {
      "inputs": [],
      "name": "fundsAlreadyMoved",
      "outputs": [
        {
          "internalType": "bool",
          "name": "",
          "type": "bool"
        }
      ],
      "stateMutability": "view",
      "type": "function",
      "constant": true
    },
    {
      "inputs": [
        {
          "internalType": "address",
          "name": "spender",
          "type": "address"
        },
        {
          "internalType": "uint256",
          "name": "addedValue",
          "type": "uint256"
        }
      ],
      "name": "increaseAllowance",
      "outputs": [
        {
          "internalType": "bool",
          "name": "",
          "type": "bool"
        }
      ],
      "stateMutability": "nonpayable",
      "type": "function"
    },
    {
      "inputs": [],
      "name": "isContractPaused",
      "outputs": [
        {
          "internalType": "bool",
          "name": "",
          "type": "bool"
        }
      ],
      "stateMutability": "view",
      "type": "function",
      "constant": true
    },
    {
      "inputs": [],
      "name": "isTaxOn",
      "outputs": [
        {
          "internalType": "bool",
          "name": "",
          "type": "bool"
        }
      ],
      "stateMutability": "view",
      "type": "function",
      "constant": true
    },
    {
      "inputs": [
        {
          "internalType": "address",
          "name": "",
          "type": "address"
        }
      ],
      "name": "isWhitelisted",
      "outputs": [
        {
          "internalType": "bool",
          "name": "",
          "type": "bool"
        }
      ],
      "stateMutability": "view",
      "type": "function",
      "constant": true
    },
    {
      "inputs": [],
      "name": "name",
      "outputs": [
        {
          "internalType": "string",
          "name": "",
          "type": "string"
        }
      ],
      "stateMutability": "view",
      "type": "function",
      "constant": true
    },
    {
      "inputs": [],
      "name": "owner",
      "outputs": [
        {
          "internalType": "address",
          "name": "",
          "type": "address"
        }
      ],
      "stateMutability": "view",
      "type": "function",
      "constant": true
    },
    {
      "inputs": [],
      "name": "symbol",
      "outputs": [
        {
          "internalType": "string",
          "name": "",
          "type": "string"
        }
      ],
      "stateMutability": "view",
      "type": "function",
      "constant": true
    },
    {
      "inputs": [],
      "name": "totalContributed",
      "outputs": [
        {
          "internalType": "uint256",
          "name": "",
          "type": "uint256"
        }
      ],
      "stateMutability": "view",
      "type": "function",
      "constant": true
    },
    {
      "inputs": [],
      "name": "totalSupply",
      "outputs": [
        {
          "internalType": "uint256",
          "name": "",
          "type": "uint256"
        }
      ],
      "stateMutability": "view",
      "type": "function",
      "constant": true
    },
    {
      "inputs": [
        {
          "internalType": "address",
          "name": "to",
          "type": "address"
        },
        {
          "internalType": "uint256",
          "name": "amount",
          "type": "uint256"
        }
      ],
      "name": "transfer",
      "outputs": [
        {
          "internalType": "bool",
          "name": "",
          "type": "bool"
        }
      ],
      "stateMutability": "nonpayable",
      "type": "function"
    },
    {
      "inputs": [
        {
          "internalType": "address",
          "name": "from",
          "type": "address"
        },
        {
          "internalType": "address",
          "name": "to",
          "type": "address"
        },
        {
          "internalType": "uint256",
          "name": "amount",
          "type": "uint256"
        }
      ],
      "name": "transferFrom",
      "outputs": [
        {
          "internalType": "bool",
          "name": "",
          "type": "bool"
        }
      ],
      "stateMutability": "nonpayable",
      "type": "function"
    },
    {
      "inputs": [],
      "name": "treasuryWallet",
      "outputs": [
        {
          "internalType": "address payable",
          "name": "",
          "type": "address"
        }
      ],
      "stateMutability": "view",
      "type": "function",
      "constant": true
    },
    {
      "inputs": [
        {
          "internalType": "address",
          "name": "_router",
          "type": "address"
        }
      ],
      "name": "setRouterAddress",
      "outputs": [],
      "stateMutability": "nonpayable",
      "type": "function"
    },
    {
      "inputs": [
        {
          "internalType": "address",
          "name": "_mapleNft",
          "type": "address"
        }
      ],
      "name": "setMapleNFTAddress",
      "outputs": [],
      "stateMutability": "nonpayable",
      "type": "function"
    },
    {
      "inputs": [
        {
          "internalType": "address",
          "name": "_mapleItems",
          "type": "address"
        }
      ],
      "name": "setMapleItemsAddress",
      "outputs": [],
      "stateMutability": "nonpayable",
      "type": "function"
    },
    {
      "inputs": [
        {
          "internalType": "address",
          "name": "_staking",
          "type": "address"
        }
      ],
      "name": "setStakingAddress",
      "outputs": [],
      "stateMutability": "nonpayable",
      "type": "function"
    },
    {
      "inputs": [],
      "name": "contribute",
      "outputs": [],
      "stateMutability": "payable",
      "type": "function",
      "payable": true
    },
    {
      "inputs": [],
      "name": "claimTokens",
      "outputs": [],
      "stateMutability": "nonpayable",
      "type": "function"
    },
    {
      "inputs": [],
      "name": "togglePauseContract",
      "outputs": [],
      "stateMutability": "nonpayable",
      "type": "function"
    },
    {
      "inputs": [],
      "name": "toggleTax",
      "outputs": [],
      "stateMutability": "nonpayable",
      "type": "function"
    },
    {
      "inputs": [
        {
          "internalType": "address",
          "name": "account",
          "type": "address"
        }
      ],
      "name": "addToWhitelist",
      "outputs": [],
      "stateMutability": "nonpayable",
      "type": "function"
    },
    {
      "inputs": [
        {
          "internalType": "address",
          "name": "account",
          "type": "address"
        },
        {
          "internalType": "uint256",
          "name": "amount",
          "type": "uint256"
        }
      ],
      "name": "mint",
      "outputs": [],
      "stateMutability": "nonpayable",
      "type": "function"
    },
    {
      "inputs": [
        {
          "internalType": "address",
          "name": "account",
          "type": "address"
        },
        {
          "internalType": "uint256",
          "name": "amount",
          "type": "uint256"
        }
      ],
      "name": "burn",
      "outputs": [],
      "stateMutability": "nonpayable",
      "type": "function"
    },
    {
      "inputs": [
        {
          "internalType": "address",
          "name": "account",
          "type": "address"
        },
        {
          "internalType": "uint256",
          "name": "amount",
          "type": "uint256"
        }
      ],
      "name": "marketBurn",
      "outputs": [],
      "stateMutability": "nonpayable",
      "type": "function"
    },
    {
      "inputs": [
        {
          "internalType": "address",
          "name": "_owner",
          "type": "address"
        },
        {
          "internalType": "address",
          "name": "_spender",
          "type": "address"
        },
        {
          "internalType": "uint256",
          "name": "_amount",
          "type": "uint256"
        }
      ],
      "name": "increaseContractAllowance",
      "outputs": [
        {
          "internalType": "bool",
          "name": "",
          "type": "bool"
        }
      ],
      "stateMutability": "nonpayable",
      "type": "function"
    },
    {
      "inputs": [
        {
          "internalType": "contract LiquidityPool",
          "name": "liquidityPool",
          "type": "address"
        }
      ],
      "name": "sendLiquidityToLPContract",
      "outputs": [],
      "stateMutability": "nonpayable",
      "type": "function"
    }
  ],
  "bytecode": "0x60806040526001600760026101000a81548160ff0219169083151502179055503480156200002c57600080fd5b506040516200448e3803806200448e833981810160405281019062000052919062000424565b6040518060400160405280600981526020017f4a4d5420546f6b656e00000000000000000000000000000000000000000000008152506040518060400160405280600381526020017f4a4d5400000000000000000000000000000000000000000000000000000000008152508160039081620000cf9190620006d0565b508060049081620000e19190620006d0565b505050620000f46200022f60201b60201c565b600a62000102919062000947565b620f424062000112919062000998565b6005819055506200012c306005546200023860201b60201c565b33600760036101000a81548173ffffffffffffffffffffffffffffffffffffffff021916908373ffffffffffffffffffffffffffffffffffffffff16021790555080600860006101000a81548173ffffffffffffffffffffffffffffffffffffffff021916908373ffffffffffffffffffffffffffffffffffffffff1602179055506001600f6000600760039054906101000a900473ffffffffffffffffffffffffffffffffffffffff1673ffffffffffffffffffffffffffffffffffffffff1673ffffffffffffffffffffffffffffffffffffffff16815260200190815260200160002060006101000a81548160ff0219169083151502179055505062000acf565b60006012905090565b600073ffffffffffffffffffffffffffffffffffffffff168273ffffffffffffffffffffffffffffffffffffffff1603620002aa576040517f08c379a0000000000000000000000000000000000000000000000000000000008152600401620002a19062000a44565b60405180910390fd5b620002be60008383620003b060201b60201c565b8060026000828254620002d2919062000a66565b92505081905550806000808473ffffffffffffffffffffffffffffffffffffffff1673ffffffffffffffffffffffffffffffffffffffff168152602001908152602001600020600082825462000329919062000a66565b925050819055508173ffffffffffffffffffffffffffffffffffffffff16600073ffffffffffffffffffffffffffffffffffffffff167fddf252ad1be2c89b69c2b068fc378daa952ba7f163c4a11628f55a4df523b3ef8360405162000390919062000ab2565b60405180910390a3620003ac60008383620003b560201b60201c565b5050565b505050565b505050565b600080fd5b600073ffffffffffffffffffffffffffffffffffffffff82169050919050565b6000620003ec82620003bf565b9050919050565b620003fe81620003df565b81146200040a57600080fd5b50565b6000815190506200041e81620003f3565b92915050565b6000602082840312156200043d576200043c620003ba565b5b60006200044d848285016200040d565b91505092915050565b600081519050919050565b7f4e487b7100000000000000000000000000000000000000000000000000000000600052604160045260246000fd5b7f4e487b7100000000000000000000000000000000000000000000000000000000600052602260045260246000fd5b60006002820490506001821680620004d857607f821691505b602082108103620004ee57620004ed62000490565b5b50919050565b60008190508160005260206000209050919050565b60006020601f8301049050919050565b600082821b905092915050565b600060088302620005587fffffffffffffffffffffffffffffffffffffffffffffffffffffffffffffffff8262000519565b62000564868362000519565b95508019841693508086168417925050509392505050565b6000819050919050565b6000819050919050565b6000620005b1620005ab620005a5846200057c565b62000586565b6200057c565b9050919050565b6000819050919050565b620005cd8362000590565b620005e5620005dc82620005b8565b84845462000526565b825550505050565b600090565b620005fc620005ed565b62000609818484620005c2565b505050565b5b81811015620006315762000625600082620005f2565b6001810190506200060f565b5050565b601f82111562000680576200064a81620004f4565b620006558462000509565b8101602085101562000665578190505b6200067d620006748562000509565b8301826200060e565b50505b505050565b600082821c905092915050565b6000620006a56000198460080262000685565b1980831691505092915050565b6000620006c0838362000692565b9150826002028217905092915050565b620006db8262000456565b67ffffffffffffffff811115620006f757620006f662000461565b5b620007038254620004bf565b6200071082828562000635565b600060209050601f83116001811462000748576000841562000733578287015190505b6200073f8582620006b2565b865550620007af565b601f1984166200075886620004f4565b60005b8281101562000782578489015182556001820191506020850194506020810190506200075b565b86831015620007a257848901516200079e601f89168262000692565b8355505b6001600288020188555050505b505050505050565b7f4e487b7100000000000000000000000000000000000000000000000000000000600052601160045260246000fd5b60008160011c9050919050565b6000808291508390505b600185111562000845578086048111156200081d576200081c620007b7565b5b60018516156200082d5780820291505b80810290506200083d85620007e6565b9450620007fd565b94509492505050565b60008262000860576001905062000933565b8162000870576000905062000933565b81600181146200088957600281146200089457620008ca565b600191505062000933565b60ff841115620008a957620008a8620007b7565b5b8360020a915084821115620008c357620008c2620007b7565b5b5062000933565b5060208310610133831016604e8410600b8410161715620009045782820a905083811115620008fe57620008fd620007b7565b5b62000933565b620009138484846001620007f3565b925090508184048111156200092d576200092c620007b7565b5b81810290505b9392505050565b600060ff82169050919050565b600062000954826200057c565b915062000961836200093a565b9250620009907fffffffffffffffffffffffffffffffffffffffffffffffffffffffffffffffff84846200084e565b905092915050565b6000620009a5826200057c565b9150620009b2836200057c565b9250828202620009c2816200057c565b91508282048414831517620009dc57620009db620007b7565b5b5092915050565b600082825260208201905092915050565b7f45524332303a206d696e7420746f20746865207a65726f206164647265737300600082015250565b600062000a2c601f83620009e3565b915062000a3982620009f4565b602082019050919050565b6000602082019050818103600083015262000a5f8162000a1d565b9050919050565b600062000a73826200057c565b915062000a80836200057c565b925082820190508082111562000a9b5762000a9a620007b7565b5b92915050565b62000aac816200057c565b82525050565b600060208201905062000ac9600083018462000aa1565b92915050565b6139af8062000adf6000396000f3fe60806040526004361061023b5760003560e01c80636eefec111161012e578063d1cabc35116100ab578063ec71ef891161006f578063ec71ef891461087c578063f4ab2928146108a5578063f4e0d9ac146108d0578063f57df22e146108f9578063f6d7eade146109245761023b565b8063d1cabc35146107b8578063d7bb99ba146107cf578063d83a2bf3146107d9578063dd62ed3e14610816578063e43252d7146108535761023b565b80639dc29fac116100f25780639dc29fac146106ad578063a457c2d7146106d6578063a9059cbb14610713578063b70f21c714610750578063be07d17d1461078d5761023b565b80636eefec11146105c657806370a08231146105f1578063839254601461062e5780638da5cb5b1461065757806395d89b41146106825761023b565b806332cb6b0c116101bc57806341cb87fc1161018057806341cb87fc146105055780634626402b1461052e57806348c54b9d1461055957806365acacfe1461057057806368f58b031461059b5761023b565b806332cb6b0c146103fa57806339509351146104255780633af0dbc1146104625780633af32abf1461049f57806340c10f19146104dc5761023b565b806318160ddd1161020357806318160ddd146103135780631b9631fc1461033e5780631d057bd91461036957806323b872dd14610392578063313ce567146103cf5761023b565b8063023f41471461024057806306fdde031461026b578063095ea7b31461029657806310bf6029146102d35780631690bb4e146102ea575b600080fd5b34801561024c57600080fd5b5061025561094f565b60405161026291906129d7565b60405180910390f35b34801561027757600080fd5b50610280610955565b60405161028d9190612a82565b60405180910390f35b3480156102a257600080fd5b506102bd60048036038101906102b89190612b33565b6109e7565b6040516102ca9190612b8e565b60405180910390f35b3480156102df57600080fd5b506102e8610a0a565b005b3480156102f657600080fd5b50610311600480360381019061030c9190612be7565b610af2565b005b34801561031f57600080fd5b50610328610ce7565b60405161033591906129d7565b60405180910390f35b34801561034a57600080fd5b50610353610cf1565b6040516103609190612c23565b60405180910390f35b34801561037557600080fd5b50610390600480360381019061038b9190612b33565b610d17565b005b34801561039e57600080fd5b506103b960048036038101906103b49190612c3e565b610e0d565b6040516103c69190612b8e565b60405180910390f35b3480156103db57600080fd5b506103e4610e3c565b6040516103f19190612cad565b60405180910390f35b34801561040657600080fd5b5061040f610e45565b60405161041c91906129d7565b60405180910390f35b34801561043157600080fd5b5061044c60048036038101906104479190612b33565b610e4b565b6040516104599190612b8e565b60405180910390f35b34801561046e57600080fd5b5061048960048036038101906104849190612cc8565b610e82565b60405161049691906129d7565b60405180910390f35b3480156104ab57600080fd5b506104c660048036038101906104c19190612cc8565b610e9a565b6040516104d39190612b8e565b60405180910390f35b3480156104e857600080fd5b5061050360048036038101906104fe9190612b33565b610eba565b005b34801561051157600080fd5b5061052c60048036038101906105279190612cc8565b61103c565b005b34801561053a57600080fd5b506105436111a1565b6040516105509190612d16565b60405180910390f35b34801561056557600080fd5b5061056e6111c7565b005b34801561057c57600080fd5b50610585611380565b6040516105929190612b8e565b60405180910390f35b3480156105a757600080fd5b506105b0611393565b6040516105bd91906129d7565b60405180910390f35b3480156105d257600080fd5b506105db611398565b6040516105e89190612c23565b60405180910390f35b3480156105fd57600080fd5b5061061860048036038101906106139190612cc8565b6113be565b60405161062591906129d7565b60405180910390f35b34801561063a57600080fd5b5061065560048036038101906106509190612cc8565b611406565b005b34801561066357600080fd5b5061066c61156b565b6040516106799190612c23565b60405180910390f35b34801561068e57600080fd5b50610697611591565b6040516106a49190612a82565b60405180910390f35b3480156106b957600080fd5b506106d460048036038101906106cf9190612b33565b611623565b005b3480156106e257600080fd5b506106fd60048036038101906106f89190612b33565b6116df565b60405161070a9190612b8e565b60405180910390f35b34801561071f57600080fd5b5061073a60048036038101906107359190612b33565b611756565b6040516107479190612b8e565b60405180910390f35b34801561075c57600080fd5b5061077760048036038101906107729190612cc8565b611779565b60405161078491906129d7565b60405180910390f35b34801561079957600080fd5b506107a2611791565b6040516107af9190612b8e565b60405180910390f35b3480156107c457600080fd5b506107cd6117a4565b005b6107d761188c565b005b3480156107e557600080fd5b5061080060048036038101906107fb9190612c3e565b611a53565b60405161080d9190612b8e565b60405180910390f35b34801561082257600080fd5b5061083d60048036038101906108389190612d31565b611bbf565b60405161084a91906129d7565b60405180910390f35b34801561085f57600080fd5b5061087a60048036038101906108759190612cc8565b611c46565b005b34801561088857600080fd5b506108a3600480360381019061089e9190612cc8565b611d31565b005b3480156108b157600080fd5b506108ba611e96565b6040516108c79190612b8e565b60405180910390f35b3480156108dc57600080fd5b506108f760048036038101906108f29190612cc8565b611ea9565b005b34801561090557600080fd5b5061090e61200e565b60405161091b9190612c23565b60405180910390f35b34801561093057600080fd5b50610939612034565b6040516109469190612c23565b60405180910390f35b60065481565b60606003805461096490612da0565b80601f016020809104026020016040519081016040528092919081815260200182805461099090612da0565b80156109dd5780601f106109b2576101008083540402835291602001916109dd565b820191906000526020600020905b8154815290600101906020018083116109c057829003601f168201915b5050505050905090565b6000806109f261205a565b90506109ff818585612062565b600191505092915050565b600760039054906101000a900473ffffffffffffffffffffffffffffffffffffffff1673ffffffffffffffffffffffffffffffffffffffff163373ffffffffffffffffffffffffffffffffffffffff1614610a9a576040517f08c379a0000000000000000000000000000000000000000000000000000000008152600401610a9190612e1d565b60405180910390fd5b600760029054906101000a900460ff1615600760026101000a81548160ff0219169083151502179055507fe454716ccd4789e6869664dc631a651dcb83a4552bfdf7afda42167120c356d360405160405180910390a1565b600760039054906101000a900473ffffffffffffffffffffffffffffffffffffffff1673ffffffffffffffffffffffffffffffffffffffff163373ffffffffffffffffffffffffffffffffffffffff1614610b82576040517f08c379a0000000000000000000000000000000000000000000000000000000008152600401610b7990612e1d565b60405180910390fd5b600760019054906101000a900460ff1615610bd2576040517f08c379a0000000000000000000000000000000000000000000000000000000008152600401610bc990612e89565b60405180910390fd5b6001600760016101000a81548160ff02191690831515021790555060006064600654610bfe9190612ed8565b9050610c0b30838361222b565b8173ffffffffffffffffffffffffffffffffffffffff16636e553f6560065483306040518463ffffffff1660e01b8152600401610c49929190612f1a565b6000604051808303818588803b158015610c6257600080fd5b505af1158015610c76573d6000803e3d6000fd5b50505050508173ffffffffffffffffffffffffffffffffffffffff16632770d9016040518163ffffffff1660e01b8152600401600060405180830381600087803b158015610cc357600080fd5b505af1158015610cd7573d6000803e3d6000fd5b50505050610ce36124aa565b5050565b6000600254905090565b600a60009054906101000a900473ffffffffffffffffffffffffffffffffffffffff1681565b600a60009054906101000a900473ffffffffffffffffffffffffffffffffffffffff1673ffffffffffffffffffffffffffffffffffffffff163373ffffffffffffffffffffffffffffffffffffffff161480610dc05750600b60009054906101000a900473ffffffffffffffffffffffffffffffffffffffff1673ffffffffffffffffffffffffffffffffffffffff163373ffffffffffffffffffffffffffffffffffffffff16145b610dff576040517f08c379a0000000000000000000000000000000000000000000000000000000008152600401610df690612f8f565b60405180910390fd5b610e09828261251b565b5050565b600080610e1861205a565b9050610e258582856126f1565b610e3085858561277d565b60019150509392505050565b60006012905090565b60055481565b600080610e5661205a565b9050610e77818585610e688589611bbf565b610e729190612faf565b612062565b600191505092915050565b600e6020528060005260406000206000915090505481565b600f6020528060005260406000206000915054906101000a900460ff1681565b600760039054906101000a900473ffffffffffffffffffffffffffffffffffffffff1673ffffffffffffffffffffffffffffffffffffffff163373ffffffffffffffffffffffffffffffffffffffff1614610f4a576040517f08c379a0000000000000000000000000000000000000000000000000000000008152600401610f4190612e1d565b60405180910390fd5b600073ffffffffffffffffffffffffffffffffffffffff168273ffffffffffffffffffffffffffffffffffffffff1603610fb9576040517f08c379a0000000000000000000000000000000000000000000000000000000008152600401610fb09061302f565b60405180910390fd5b60055481610fc5610ce7565b610fcf9190612faf565b1115611010576040517f08c379a00000000000000000000000000000000000000000000000000000000081526004016110079061309b565b60405180910390fd5b6110388261101c610e3c565b600a61102891906131ee565b836110339190612ed8565b6127ff565b5050565b600760039054906101000a900473ffffffffffffffffffffffffffffffffffffffff1673ffffffffffffffffffffffffffffffffffffffff163373ffffffffffffffffffffffffffffffffffffffff16146110cc576040517f08c379a00000000000000000000000000000000000000000000000000000000081526004016110c390612e1d565b60405180910390fd5b600073ffffffffffffffffffffffffffffffffffffffff16600960009054906101000a900473ffffffffffffffffffffffffffffffffffffffff1673ffffffffffffffffffffffffffffffffffffffff161461115d576040517f08c379a000000000000000000000000000000000000000000000000000000000815260040161115490613285565b60405180910390fd5b80600960006101000a81548173ffffffffffffffffffffffffffffffffffffffff021916908373ffffffffffffffffffffffffffffffffffffffff16021790555050565b600860009054906101000a900473ffffffffffffffffffffffffffffffffffffffff1681565b600760009054906101000a900460ff1615611217576040517f08c379a000000000000000000000000000000000000000000000000000000000815260040161120e906132f1565b60405180910390fd5b600760019054906101000a900460ff1615611267576040517f08c379a000000000000000000000000000000000000000000000000000000000815260040161125e90612e89565b60405180910390fd5b6000600d60003373ffffffffffffffffffffffffffffffffffffffff1673ffffffffffffffffffffffffffffffffffffffff16815260200190815260200160002054116112e9576040517f08c379a00000000000000000000000000000000000000000000000000000000081526004016112e09061335d565b60405180910390fd5b6000600d60003373ffffffffffffffffffffffffffffffffffffffff1673ffffffffffffffffffffffffffffffffffffffff1681526020019081526020016000205490506000600d60003373ffffffffffffffffffffffffffffffffffffffff1673ffffffffffffffffffffffffffffffffffffffff1681526020019081526020016000208190555061137d30338361222b565b50565b600760019054906101000a900460ff1681565b600181565b600b60009054906101000a900473ffffffffffffffffffffffffffffffffffffffff1681565b60008060008373ffffffffffffffffffffffffffffffffffffffff1673ffffffffffffffffffffffffffffffffffffffff168152602001908152602001600020549050919050565b600760039054906101000a900473ffffffffffffffffffffffffffffffffffffffff1673ffffffffffffffffffffffffffffffffffffffff163373ffffffffffffffffffffffffffffffffffffffff1614611496576040517f08c379a000000000000000000000000000000000000000000000000000000000815260040161148d90612e1d565b60405180910390fd5b600073ffffffffffffffffffffffffffffffffffffffff16600a60009054906101000a900473ffffffffffffffffffffffffffffffffffffffff1673ffffffffffffffffffffffffffffffffffffffff1614611527576040517f08c379a000000000000000000000000000000000000000000000000000000000815260040161151e90613285565b60405180910390fd5b80600a60006101000a81548173ffffffffffffffffffffffffffffffffffffffff021916908373ffffffffffffffffffffffffffffffffffffffff16021790555050565b600760039054906101000a900473ffffffffffffffffffffffffffffffffffffffff1681565b6060600480546115a090612da0565b80601f01602080910402602001604051908101604052809291908181526020018280546115cc90612da0565b80156116195780601f106115ee57610100808354040283529160200191611619565b820191906000526020600020905b8154815290600101906020018083116115fc57829003601f168201915b5050505050905090565b600760039054906101000a900473ffffffffffffffffffffffffffffffffffffffff1673ffffffffffffffffffffffffffffffffffffffff163373ffffffffffffffffffffffffffffffffffffffff16146116b3576040517f08c379a00000000000000000000000000000000000000000000000000000000081526004016116aa90612e1d565b60405180910390fd5b6116db826116bf610e3c565b600a6116cb91906131ee565b836116d69190612ed8565b61251b565b5050565b6000806116ea61205a565b905060006116f88286611bbf565b90508381101561173d576040517f08c379a0000000000000000000000000000000000000000000000000000000008152600401611734906133ef565b60405180910390fd5b61174a8286868403612062565b60019250505092915050565b60008061176161205a565b905061176e81858561277d565b600191505092915050565b600d6020528060005260406000206000915090505481565b600760029054906101000a900460ff1681565b600760039054906101000a900473ffffffffffffffffffffffffffffffffffffffff1673ffffffffffffffffffffffffffffffffffffffff163373ffffffffffffffffffffffffffffffffffffffff1614611834576040517f08c379a000000000000000000000000000000000000000000000000000000000815260040161182b90612e1d565b60405180910390fd5b600760009054906101000a900460ff1615600760006101000a81548160ff0219169083151502179055507fe454716ccd4789e6869664dc631a651dcb83a4552bfdf7afda42167120c356d360405160405180910390a1565b600760009054906101000a900460ff16156118dc576040517f08c379a00000000000000000000000000000000000000000000000000000000081526004016118d3906132f1565b60405180910390fd5b600760019054906101000a900460ff161561192c576040517f08c379a000000000000000000000000000000000000000000000000000000000815260040161192390612e89565b60405180910390fd5b600060643461193b9190612ed8565b905080600d60003373ffffffffffffffffffffffffffffffffffffffff1673ffffffffffffffffffffffffffffffffffffffff168152602001908152602001600020600082825461198c9190612faf565b9250508190555034600e60003373ffffffffffffffffffffffffffffffffffffffff1673ffffffffffffffffffffffffffffffffffffffff16815260200190815260200160002060008282546119e29190612faf565b9250508190555034600660008282546119fb9190612faf565b925050819055503373ffffffffffffffffffffffffffffffffffffffff167f745f661b8143944fb883f50694ebed3a871e43c451d9d4bf4648a9d551d7e47a82604051611a4891906129d7565b60405180910390a250565b6000600960009054906101000a900473ffffffffffffffffffffffffffffffffffffffff1673ffffffffffffffffffffffffffffffffffffffff163373ffffffffffffffffffffffffffffffffffffffff161480611afe5750600a60009054906101000a900473ffffffffffffffffffffffffffffffffffffffff1673ffffffffffffffffffffffffffffffffffffffff163373ffffffffffffffffffffffffffffffffffffffff16145b80611b565750600b60009054906101000a900473ffffffffffffffffffffffffffffffffffffffff1673ffffffffffffffffffffffffffffffffffffffff163373ffffffffffffffffffffffffffffffffffffffff16145b611b95576040517f08c379a0000000000000000000000000000000000000000000000000000000008152600401611b8c9061345b565b60405180910390fd5b611bb4848484611ba53330611bbf565b611baf9190612faf565b612062565b600190509392505050565b6000600160008473ffffffffffffffffffffffffffffffffffffffff1673ffffffffffffffffffffffffffffffffffffffff16815260200190815260200160002060008373ffffffffffffffffffffffffffffffffffffffff1673ffffffffffffffffffffffffffffffffffffffff16815260200190815260200160002054905092915050565b600760039054906101000a900473ffffffffffffffffffffffffffffffffffffffff1673ffffffffffffffffffffffffffffffffffffffff163373ffffffffffffffffffffffffffffffffffffffff1614611cd6576040517f08c379a0000000000000000000000000000000000000000000000000000000008152600401611ccd90612e1d565b60405180910390fd5b6001600f60008373ffffffffffffffffffffffffffffffffffffffff1673ffffffffffffffffffffffffffffffffffffffff16815260200190815260200160002060006101000a81548160ff02191690831515021790555050565b600760039054906101000a900473ffffffffffffffffffffffffffffffffffffffff1673ffffffffffffffffffffffffffffffffffffffff163373ffffffffffffffffffffffffffffffffffffffff1614611dc1576040517f08c379a0000000000000000000000000000000000000000000000000000000008152600401611db890612e1d565b60405180910390fd5b600073ffffffffffffffffffffffffffffffffffffffff16600b60009054906101000a900473ffffffffffffffffffffffffffffffffffffffff1673ffffffffffffffffffffffffffffffffffffffff1614611e52576040517f08c379a0000000000000000000000000000000000000000000000000000000008152600401611e4990613285565b60405180910390fd5b80600b60006101000a81548173ffffffffffffffffffffffffffffffffffffffff021916908373ffffffffffffffffffffffffffffffffffffffff16021790555050565b600760009054906101000a900460ff1681565b600760039054906101000a900473ffffffffffffffffffffffffffffffffffffffff1673ffffffffffffffffffffffffffffffffffffffff163373ffffffffffffffffffffffffffffffffffffffff1614611f39576040517f08c379a0000000000000000000000000000000000000000000000000000000008152600401611f3090612e1d565b60405180910390fd5b600073ffffffffffffffffffffffffffffffffffffffff16600c60009054906101000a900473ffffffffffffffffffffffffffffffffffffffff1673ffffffffffffffffffffffffffffffffffffffff1614611fca576040517f08c379a0000000000000000000000000000000000000000000000000000000008152600401611fc190613285565b60405180910390fd5b80600c60006101000a81548173ffffffffffffffffffffffffffffffffffffffff021916908373ffffffffffffffffffffffffffffffffffffffff16021790555050565b600c60009054906101000a900473ffffffffffffffffffffffffffffffffffffffff1681565b600960009054906101000a900473ffffffffffffffffffffffffffffffffffffffff1681565b600033905090565b600073ffffffffffffffffffffffffffffffffffffffff168373ffffffffffffffffffffffffffffffffffffffff16036120d1576040517f08c379a00000000000000000000000000000000000000000000000000000000081526004016120c8906134ed565b60405180910390fd5b600073ffffffffffffffffffffffffffffffffffffffff168273ffffffffffffffffffffffffffffffffffffffff1603612140576040517f08c379a00000000000000000000000000000000000000000000000000000000081526004016121379061357f565b60405180910390fd5b80600160008573ffffffffffffffffffffffffffffffffffffffff1673ffffffffffffffffffffffffffffffffffffffff16815260200190815260200160002060008473ffffffffffffffffffffffffffffffffffffffff1673ffffffffffffffffffffffffffffffffffffffff168152602001908152602001600020819055508173ffffffffffffffffffffffffffffffffffffffff168373ffffffffffffffffffffffffffffffffffffffff167f8c5be1e5ebec7d5bd14f71427d1e84f3dd0314c0f7b2291e5b200ac8c7c3b9258360405161221e91906129d7565b60405180910390a3505050565b600073ffffffffffffffffffffffffffffffffffffffff168373ffffffffffffffffffffffffffffffffffffffff160361229a576040517f08c379a000000000000000000000000000000000000000000000000000000000815260040161229190613611565b60405180910390fd5b600073ffffffffffffffffffffffffffffffffffffffff168273ffffffffffffffffffffffffffffffffffffffff1603612309576040517f08c379a0000000000000000000000000000000000000000000000000000000008152600401612300906136a3565b60405180910390fd5b61231483838361295e565b60008060008573ffffffffffffffffffffffffffffffffffffffff1673ffffffffffffffffffffffffffffffffffffffff1681526020019081526020016000205490508181101561239a576040517f08c379a000000000000000000000000000000000000000000000000000000000815260040161239190613735565b60405180910390fd5b8181036000808673ffffffffffffffffffffffffffffffffffffffff1673ffffffffffffffffffffffffffffffffffffffff16815260200190815260200160002081905550816000808573ffffffffffffffffffffffffffffffffffffffff1673ffffffffffffffffffffffffffffffffffffffff168152602001908152602001600020600082825461242d9190612faf565b925050819055508273ffffffffffffffffffffffffffffffffffffffff168473ffffffffffffffffffffffffffffffffffffffff167fddf252ad1be2c89b69c2b068fc378daa952ba7f163c4a11628f55a4df523b3ef8460405161249191906129d7565b60405180910390a36124a4848484612963565b50505050565b6124b2612968565b60006124bd306113be565b90506124ec30600860009054906101000a900473ffffffffffffffffffffffffffffffffffffffff168361222b565b7fa01103220c31ee0c47e79a81104a3e82740390c1d918ad5638190cc185bd92e160405160405180910390a150565b600073ffffffffffffffffffffffffffffffffffffffff168273ffffffffffffffffffffffffffffffffffffffff160361258a576040517f08c379a0000000000000000000000000000000000000000000000000000000008152600401612581906137c7565b60405180910390fd5b6125968260008361295e565b60008060008473ffffffffffffffffffffffffffffffffffffffff1673ffffffffffffffffffffffffffffffffffffffff1681526020019081526020016000205490508181101561261c576040517f08c379a000000000000000000000000000000000000000000000000000000000815260040161261390613859565b60405180910390fd5b8181036000808573ffffffffffffffffffffffffffffffffffffffff1673ffffffffffffffffffffffffffffffffffffffff1681526020019081526020016000208190555081600260008282546126739190613879565b92505081905550600073ffffffffffffffffffffffffffffffffffffffff168373ffffffffffffffffffffffffffffffffffffffff167fddf252ad1be2c89b69c2b068fc378daa952ba7f163c4a11628f55a4df523b3ef846040516126d891906129d7565b60405180910390a36126ec83600084612963565b505050565b60006126fd8484611bbf565b90507fffffffffffffffffffffffffffffffffffffffffffffffffffffffffffffffff81146127775781811015612769576040517f08c379a0000000000000000000000000000000000000000000000000000000008152600401612760906138f9565b60405180910390fd5b6127768484848403612062565b5b50505050565b6000600760029054906101000a900460ff16156127b05760648260016127a39190612ed8565b6127ad9190613948565b90505b600081836127be9190613879565b90506127cb85858361222b565b6127f885600860009054906101000a900473ffffffffffffffffffffffffffffffffffffffff168461222b565b5050505050565b600073ffffffffffffffffffffffffffffffffffffffff168273ffffffffffffffffffffffffffffffffffffffff160361286e576040517f08c379a00000000000000000000000000000000000000000000000000000000081526004016128659061302f565b60405180910390fd5b61287a6000838361295e565b806002600082825461288c9190612faf565b92505081905550806000808473ffffffffffffffffffffffffffffffffffffffff1673ffffffffffffffffffffffffffffffffffffffff16815260200190815260200160002060008282546128e19190612faf565b925050819055508173ffffffffffffffffffffffffffffffffffffffff16600073ffffffffffffffffffffffffffffffffffffffff167fddf252ad1be2c89b69c2b068fc378daa952ba7f163c4a11628f55a4df523b3ef8360405161294691906129d7565b60405180910390a361295a60008383612963565b5050565b505050565b505050565b6000612972610e3c565b600a61297e91906131ee565b620493e061298c9190612ed8565b90506129bb30600c60009054906101000a900473ffffffffffffffffffffffffffffffffffffffff168361222b565b50565b6000819050919050565b6129d1816129be565b82525050565b60006020820190506129ec60008301846129c8565b92915050565b600081519050919050565b600082825260208201905092915050565b60005b83811015612a2c578082015181840152602081019050612a11565b60008484015250505050565b6000601f19601f8301169050919050565b6000612a54826129f2565b612a5e81856129fd565b9350612a6e818560208601612a0e565b612a7781612a38565b840191505092915050565b60006020820190508181036000830152612a9c8184612a49565b905092915050565b600080fd5b600073ffffffffffffffffffffffffffffffffffffffff82169050919050565b6000612ad482612aa9565b9050919050565b612ae481612ac9565b8114612aef57600080fd5b50565b600081359050612b0181612adb565b92915050565b612b10816129be565b8114612b1b57600080fd5b50565b600081359050612b2d81612b07565b92915050565b60008060408385031215612b4a57612b49612aa4565b5b6000612b5885828601612af2565b9250506020612b6985828601612b1e565b9150509250929050565b60008115159050919050565b612b8881612b73565b82525050565b6000602082019050612ba36000830184612b7f565b92915050565b6000612bb482612ac9565b9050919050565b612bc481612ba9565b8114612bcf57600080fd5b50565b600081359050612be181612bbb565b92915050565b600060208284031215612bfd57612bfc612aa4565b5b6000612c0b84828501612bd2565b91505092915050565b612c1d81612ac9565b82525050565b6000602082019050612c386000830184612c14565b92915050565b600080600060608486031215612c5757612c56612aa4565b5b6000612c6586828701612af2565b9350506020612c7686828701612af2565b9250506040612c8786828701612b1e565b9150509250925092565b600060ff82169050919050565b612ca781612c91565b82525050565b6000602082019050612cc26000830184612c9e565b92915050565b600060208284031215612cde57612cdd612aa4565b5b6000612cec84828501612af2565b91505092915050565b6000612d0082612aa9565b9050919050565b612d1081612cf5565b82525050565b6000602082019050612d2b6000830184612d07565b92915050565b60008060408385031215612d4857612d47612aa4565b5b6000612d5685828601612af2565b9250506020612d6785828601612af2565b9150509250929050565b7f4e487b7100000000000000000000000000000000000000000000000000000000600052602260045260246000fd5b60006002820490506001821680612db857607f821691505b602082108103612dcb57612dca612d71565b5b50919050565b7f4f574e45525f4f4e4c5900000000000000000000000000000000000000000000600082015250565b6000612e07600a836129fd565b9150612e1282612dd1565b602082019050919050565b60006020820190508181036000830152612e3681612dfa565b9050919050565b7f46554e44535f4d4f5645445f544f5f4c50000000000000000000000000000000600082015250565b6000612e736011836129fd565b9150612e7e82612e3d565b602082019050919050565b60006020820190508181036000830152612ea281612e66565b9050919050565b7f4e487b7100000000000000000000000000000000000000000000000000000000600052601160045260246000fd5b6000612ee3826129be565b9150612eee836129be565b9250828202612efc816129be565b91508282048414831517612f1357612f12612ea9565b5b5092915050565b6000604082019050612f2f60008301856129c8565b612f3c6020830184612c14565b9392505050565b7f4d41504c454e46545f4f4e4c5900000000000000000000000000000000000000600082015250565b6000612f79600d836129fd565b9150612f8482612f43565b602082019050919050565b60006020820190508181036000830152612fa881612f6c565b9050919050565b6000612fba826129be565b9150612fc5836129be565b9250828201905080821115612fdd57612fdc612ea9565b5b92915050565b7f45524332303a206d696e7420746f20746865207a65726f206164647265737300600082015250565b6000613019601f836129fd565b915061302482612fe3565b602082019050919050565b600060208201905081810360008301526130488161300c565b9050919050565b7f41424f56455f4d41585f535550504c5900000000000000000000000000000000600082015250565b60006130856010836129fd565b91506130908261304f565b602082019050919050565b600060208201905081810360008301526130b481613078565b9050919050565b60008160011c9050919050565b6000808291508390505b6001851115613112578086048111156130ee576130ed612ea9565b5b60018516156130fd5780820291505b808102905061310b856130bb565b94506130d2565b94509492505050565b60008261312b57600190506131e7565b8161313957600090506131e7565b816001811461314f576002811461315957613188565b60019150506131e7565b60ff84111561316b5761316a612ea9565b5b8360020a91508482111561318257613181612ea9565b5b506131e7565b5060208310610133831016604e8410600b84101617156131bd5782820a9050838111156131b8576131b7612ea9565b5b6131e7565b6131ca84848460016130c8565b925090508184048111156131e1576131e0612ea9565b5b81810290505b9392505050565b60006131f9826129be565b915061320483612c91565b92506132317fffffffffffffffffffffffffffffffffffffffffffffffffffffffffffffffff848461311b565b905092915050565b7f57524954455f4f4e434521000000000000000000000000000000000000000000600082015250565b600061326f600b836129fd565b915061327a82613239565b602082019050919050565b6000602082019050818103600083015261329e81613262565b9050919050565b7f434f4e54524143545f5041555345440000000000000000000000000000000000600082015250565b60006132db600f836129fd565b91506132e6826132a5565b602082019050919050565b6000602082019050818103600083015261330a816132ce565b9050919050565b7f4e4f5f415641494c41424c455f46554e44530000000000000000000000000000600082015250565b60006133476012836129fd565b915061335282613311565b602082019050919050565b600060208201905081810360008301526133768161333a565b9050919050565b7f45524332303a2064656372656173656420616c6c6f77616e63652062656c6f7760008201527f207a65726f000000000000000000000000000000000000000000000000000000602082015250565b60006133d96025836129fd565b91506133e48261337d565b604082019050919050565b60006020820190508181036000830152613408816133cc565b9050919050565b7f524f555445525f4f525f4d41504c455f4f4e4c59000000000000000000000000600082015250565b60006134456014836129fd565b91506134508261340f565b602082019050919050565b6000602082019050818103600083015261347481613438565b9050919050565b7f45524332303a20617070726f76652066726f6d20746865207a65726f2061646460008201527f7265737300000000000000000000000000000000000000000000000000000000602082015250565b60006134d76024836129fd565b91506134e28261347b565b604082019050919050565b60006020820190508181036000830152613506816134ca565b9050919050565b7f45524332303a20617070726f766520746f20746865207a65726f20616464726560008201527f7373000000000000000000000000000000000000000000000000000000000000602082015250565b60006135696022836129fd565b91506135748261350d565b604082019050919050565b600060208201905081810360008301526135988161355c565b9050919050565b7f45524332303a207472616e736665722066726f6d20746865207a65726f20616460008201527f6472657373000000000000000000000000000000000000000000000000000000602082015250565b60006135fb6025836129fd565b91506136068261359f565b604082019050919050565b6000602082019050818103600083015261362a816135ee565b9050919050565b7f45524332303a207472616e7366657220746f20746865207a65726f206164647260008201527f6573730000000000000000000000000000000000000000000000000000000000602082015250565b600061368d6023836129fd565b915061369882613631565b604082019050919050565b600060208201905081810360008301526136bc81613680565b9050919050565b7f45524332303a207472616e7366657220616d6f756e742065786365656473206260008201527f616c616e63650000000000000000000000000000000000000000000000000000602082015250565b600061371f6026836129fd565b915061372a826136c3565b604082019050919050565b6000602082019050818103600083015261374e81613712565b9050919050565b7f45524332303a206275726e2066726f6d20746865207a65726f2061646472657360008201527f7300000000000000000000000000000000000000000000000000000000000000602082015250565b60006137b16021836129fd565b91506137bc82613755565b604082019050919050565b600060208201905081810360008301526137e0816137a4565b9050919050565b7f45524332303a206275726e20616d6f756e7420657863656564732062616c616e60008201527f6365000000000000000000000000000000000000000000000000000000000000602082015250565b60006138436022836129fd565b915061384e826137e7565b604082019050919050565b6000602082019050818103600083015261387281613836565b9050919050565b6000613884826129be565b915061388f836129be565b92508282039050818111156138a7576138a6612ea9565b5b92915050565b7f45524332303a20696e73756666696369656e7420616c6c6f77616e6365000000600082015250565b60006138e3601d836129fd565b91506138ee826138ad565b602082019050919050565b60006020820190508181036000830152613912816138d6565b9050919050565b7f4e487b7100000000000000000000000000000000000000000000000000000000600052601260045260246000fd5b6000613953826129be565b915061395e836129be565b92508261396e5761396d613919565b5b82820490509291505056fea264697066735822122038bccd9fea0e012cb0f67f6e19194d14b0392302fd39d039b9ca5b53b4882f4c64736f6c63430008110033",
  "immutableReferences": {},
  "source": "//SPDX-License-Identifier: Unlicense\npragma solidity ^0.8.0;\n\nimport \"@openzeppelin/contracts/token/ERC20/ERC20.sol\";\nimport \"./LiquidityPool.sol\";\n\ncontract JMToken is ERC20 {\n    event TokensBought(address indexed _account, uint256 amount); //    \n    event OwnerAction(); //  \n    event FundsMoved(); //   \n    event _MovedStakingReward();\n\n    uint256 public MAX_SUPPLY; //  \n    uint256 public constant TAX = 1; //   tx 1%\n    uint256 public totalContributed; //    \n    bool public isContractPaused; //   \n    bool public fundsAlreadyMoved;\n    bool public isTaxOn = true; //   on off \n    address public owner; //  \n    address payable public treasuryWallet; //  !\n    address public Router;\n    address public MapleNFT;\n    address public MapleItems;\n    address public Staking;\n\n    mapping(address => uint256) public balancesToClaim; // 1:100 ==jmt\n    mapping(address => uint256) public contributionsOf; //   eth\n    mapping(address => bool) public isWhitelisted;\n\n    constructor(address payable treasury) ERC20(\"JMT Token\", \"JMT\") {\n        MAX_SUPPLY = 1000000 * 10**decimals(); \n        _mint(address(this), MAX_SUPPLY); \n        owner = msg.sender; \n        treasuryWallet = treasury; // ,  \n        isWhitelisted[owner] = true; //     \n    }\n\n    modifier ownerOnly() {\n        require(msg.sender == owner, \"OWNER_ONLY\");\n        _;\n    }\n\n    modifier mapleNFTOnly(){\n        require(msg.sender == MapleNFT || msg.sender == MapleItems, \"MAPLENFT_ONLY\");\n        _;\n    }\n    // router  \n    modifier routerOnly() {\n        require(msg.sender == Router || msg.sender == MapleNFT || msg.sender == MapleItems, \"ROUTER_OR_MAPLE_ONLY\");\n        _;\n    }\n    //    \n    modifier areFundsMoved() {\n        require(!fundsAlreadyMoved, \"FUNDS_MOVED_TO_LP\");\n        _;\n    }\n\n    //   \n    modifier isPaused() {\n        require(!isContractPaused, \"CONTRACT_PAUSED\");\n        _;\n    }\n\n\n    //     (0x0)  ,   \n    function setRouterAddress(address _router) external  ownerOnly {\n        require(address(Router) == address(0), \"WRITE_ONCE!\"); // 0x00000000\n        Router = _router;\n    }\n    function setMapleNFTAddress(address _mapleNft) external  ownerOnly {\n        require(address(MapleNFT) == address(0), \"WRITE_ONCE!\");\n        MapleNFT = _mapleNft;\n    }\n    function setMapleItemsAddress(address _mapleItems ) external  ownerOnly {\n        require(address(MapleItems) == address(0), \"WRITE_ONCE!\");\n        MapleItems = _mapleItems;\n    }\n    function setStakingAddress(address _staking ) external  ownerOnly {\n        require(address(Staking) == address(0), \"WRITE_ONCE!\");\n        Staking = _staking;\n    }\n  \n    //   \n    function contribute() external payable isPaused areFundsMoved {\n\n        //  1:100\n        uint256 tokenAmount = msg.value * 100;\n        balancesToClaim[msg.sender] += tokenAmount;\n        contributionsOf[msg.sender] += msg.value;\n        totalContributed += msg.value; \n        emit TokensBought(msg.sender, tokenAmount);\n    }\n    \n    //  jmt  \n    function claimTokens() external isPaused areFundsMoved {\n        require(balancesToClaim[msg.sender] > 0, \"NO_AVAILABLE_FUNDS\"); //      \n        uint256 tokensToClaim = balancesToClaim[msg.sender];\n        balancesToClaim[msg.sender] = 0;\n\n        super._transfer(address(this), msg.sender, tokensToClaim); //  -> sender \n    }\n\n    // pause \n    function togglePauseContract() external ownerOnly {\n        isContractPaused = !isContractPaused;\n        emit OwnerAction();\n    }\n\n    // tx  : true\n    function toggleTax() external ownerOnly {\n        isTaxOn = !isTaxOn;\n        emit OwnerAction();\n    }\n\n    //   \n    function addToWhitelist(address account) external ownerOnly {\n        isWhitelisted[account] = true;\n    }\n\n    function _transfer(address sender, address recipient, uint256 amount) internal override {\n        uint256 amountToTake;\n        // tx\n        if (isTaxOn) {\n            amountToTake = (TAX * amount) / 100;\n        }\n        uint256 amountToTransfer = amount - amountToTake;\n        //    \n        super._transfer(sender, recipient, amountToTransfer);\n        //   \n        super._transfer(sender, treasuryWallet, amountToTake); \n    }\n\n    function mint(address account, uint256 amount) external ownerOnly {\n        require(account != address(0), \"ERC20: mint to the zero address\"); //      \n        require(totalSupply() + amount <= MAX_SUPPLY, \"ABOVE_MAX_SUPPLY\"); //   \n        _mint(account, amount * 10**decimals());\n    }\n    \n    function burn(address account, uint256 amount) external ownerOnly {\n        _burn(account, amount * 10**decimals());\n    }\n\n    function marketBurn(address account, uint256 amount) external mapleNFTOnly {\n        _burn(account, amount);\n\n    }\n\n    //tranferfrom  \n    //spender   \n    //      x \n    function increaseContractAllowance(address _owner,address _spender,uint256 _amount)  \n        public routerOnly returns (bool) {\n        // spender         \n        // allowance      return \n        _approve(\n            _owner, // from\n            _spender, // to\n            allowance(msg.sender, address(this)) + _amount\n        ); \n        return true;\n    }\n\n    //   -> lp ,    \n    function sendLiquidityToLPContract(LiquidityPool liquidityPool) external ownerOnly areFundsMoved\n    {\n        fundsAlreadyMoved = true; //\n\n        //   * 100 jmt \n        uint256 jmtCoinAmountToTransfer = totalContributed * 100;\n\n        // lp JMT \n        super._transfer(\n            address(this),\n            address(liquidityPool),\n            jmtCoinAmountToTransfer\n        );\n\n        //msg.value = totalContributed,  , \n        liquidityPool.deposit{value: totalContributed}(\n            jmtCoinAmountToTransfer,\n            address(this)\n        );\n\n        // reserve_setting\n        liquidityPool.setFundedReserve();\n\n        sendRemainingFundsToTreasury();\n    }\n    //       \n    // ,  ?\n    //   \n    function sendRemainingFundsToTreasury() internal {\n        MovedStakingReward();\n\n        uint256 remainingJMT = balanceOf(address(this));\n        super._transfer(address(this), address(treasuryWallet), remainingJMT);\n        emit FundsMoved();\n    }\n    // staking reward 300,000  \n    function MovedStakingReward() internal {\n        uint256 remainingJMT = 300000 * 10**decimals();\n        super._transfer(address(this), address(Staking), remainingJMT);\n    }\n}",
  "sourcePath": "/home/kbi/blockChain_part/bebpro_3/main/BEB-05-JMT/contract/contracts/JMToken.sol",
  "compiler": {
    "name": "solc",
    "version": "0.8.17+commit.8df45f5f.Emscripten.clang"
  },
  "schemaVersion": "3.4.9",
  "updatedAt": "2022-09-20T11:25:46.515Z",
  "networkType": "ethereum",
  "devdoc": {
    "kind": "dev",
    "methods": {
      "allowance(address,address)": {
        "details": "See {IERC20-allowance}."
      },
      "approve(address,uint256)": {
        "details": "See {IERC20-approve}. NOTE: If `amount` is the maximum `uint256`, the allowance is not updated on `transferFrom`. This is semantically equivalent to an infinite approval. Requirements: - `spender` cannot be the zero address."
      },
      "balanceOf(address)": {
        "details": "See {IERC20-balanceOf}."
      },
      "decimals()": {
        "details": "Returns the number of decimals used to get its user representation. For example, if `decimals` equals `2`, a balance of `505` tokens should be displayed to a user as `5.05` (`505 / 10 ** 2`). Tokens usually opt for a value of 18, imitating the relationship between Ether and Wei. This is the value {ERC20} uses, unless this function is overridden; NOTE: This information is only used for _display_ purposes: it in no way affects any of the arithmetic of the contract, including {IERC20-balanceOf} and {IERC20-transfer}."
      },
      "decreaseAllowance(address,uint256)": {
        "details": "Atomically decreases the allowance granted to `spender` by the caller. This is an alternative to {approve} that can be used as a mitigation for problems described in {IERC20-approve}. Emits an {Approval} event indicating the updated allowance. Requirements: - `spender` cannot be the zero address. - `spender` must have allowance for the caller of at least `subtractedValue`."
      },
      "increaseAllowance(address,uint256)": {
        "details": "Atomically increases the allowance granted to `spender` by the caller. This is an alternative to {approve} that can be used as a mitigation for problems described in {IERC20-approve}. Emits an {Approval} event indicating the updated allowance. Requirements: - `spender` cannot be the zero address."
      },
      "name()": {
        "details": "Returns the name of the token."
      },
      "symbol()": {
        "details": "Returns the symbol of the token, usually a shorter version of the name."
      },
      "totalSupply()": {
        "details": "See {IERC20-totalSupply}."
      },
      "transfer(address,uint256)": {
        "details": "See {IERC20-transfer}. Requirements: - `to` cannot be the zero address. - the caller must have a balance of at least `amount`."
      },
      "transferFrom(address,address,uint256)": {
        "details": "See {IERC20-transferFrom}. Emits an {Approval} event indicating the updated allowance. This is not required by the EIP. See the note at the beginning of {ERC20}. NOTE: Does not update the allowance if the current allowance is the maximum `uint256`. Requirements: - `from` and `to` cannot be the zero address. - `from` must have a balance of at least `amount`. - the caller must have allowance for ``from``'s tokens of at least `amount`."
      }
    },
    "version": 1
  },
  "userdoc": {
    "kind": "user",
    "methods": {},
    "version": 1
  }
}