{
  "contractName": "JMToken",
  "abi": [
    {
      "inputs": [
        {
          "internalType": "address payable",
          "name": "treasury",
          "type": "address"
        }
      ],
      "stateMutability": "nonpayable",
      "type": "constructor"
    },
    {
      "anonymous": false,
      "inputs": [
        {
          "indexed": true,
          "internalType": "address",
          "name": "owner",
          "type": "address"
        },
        {
          "indexed": true,
          "internalType": "address",
          "name": "spender",
          "type": "address"
        },
        {
          "indexed": false,
          "internalType": "uint256",
          "name": "value",
          "type": "uint256"
        }
      ],
      "name": "Approval",
      "type": "event"
    },
    {
      "anonymous": false,
      "inputs": [],
      "name": "FundsMoved",
      "type": "event"
    },
    {
      "anonymous": false,
      "inputs": [],
      "name": "OwnerAction",
      "type": "event"
    },
    {
      "anonymous": false,
      "inputs": [
        {
          "indexed": false,
          "internalType": "bool",
          "name": "result",
          "type": "bool"
        }
      ],
      "name": "TokenRewarded",
      "type": "event"
    },
    {
      "anonymous": false,
      "inputs": [
        {
          "indexed": true,
          "internalType": "address",
          "name": "_account",
          "type": "address"
        },
        {
          "indexed": false,
          "internalType": "uint256",
          "name": "amount",
          "type": "uint256"
        }
      ],
      "name": "TokensBought",
      "type": "event"
    },
    {
      "anonymous": false,
      "inputs": [
        {
          "indexed": true,
          "internalType": "address",
          "name": "from",
          "type": "address"
        },
        {
          "indexed": true,
          "internalType": "address",
          "name": "to",
          "type": "address"
        },
        {
          "indexed": false,
          "internalType": "uint256",
          "name": "value",
          "type": "uint256"
        }
      ],
      "name": "Transfer",
      "type": "event"
    },
    {
      "anonymous": false,
      "inputs": [],
      "name": "_MovedStakingReward",
      "type": "event"
    },
    {
      "inputs": [],
      "name": "MAX_SUPPLY",
      "outputs": [
        {
          "internalType": "uint256",
          "name": "",
          "type": "uint256"
        }
      ],
      "stateMutability": "view",
      "type": "function",
      "constant": true
    },
    {
      "inputs": [],
      "name": "MapleItems",
      "outputs": [
        {
          "internalType": "address",
          "name": "",
          "type": "address"
        }
      ],
      "stateMutability": "view",
      "type": "function",
      "constant": true
    },
    {
      "inputs": [],
      "name": "MapleMarket",
      "outputs": [
        {
          "internalType": "address",
          "name": "",
          "type": "address"
        }
      ],
      "stateMutability": "view",
      "type": "function",
      "constant": true
    },
    {
      "inputs": [],
      "name": "MapleNFT",
      "outputs": [
        {
          "internalType": "address",
          "name": "",
          "type": "address"
        }
      ],
      "stateMutability": "view",
      "type": "function",
      "constant": true
    },
    {
      "inputs": [],
      "name": "Router",
      "outputs": [
        {
          "internalType": "address",
          "name": "",
          "type": "address"
        }
      ],
      "stateMutability": "view",
      "type": "function",
      "constant": true
    },
    {
      "inputs": [],
      "name": "Staking",
      "outputs": [
        {
          "internalType": "address",
          "name": "",
          "type": "address"
        }
      ],
      "stateMutability": "view",
      "type": "function",
      "constant": true
    },
    {
      "inputs": [],
      "name": "TAX",
      "outputs": [
        {
          "internalType": "uint256",
          "name": "",
          "type": "uint256"
        }
      ],
      "stateMutability": "view",
      "type": "function",
      "constant": true
    },
    {
      "inputs": [
        {
          "internalType": "address",
          "name": "owner",
          "type": "address"
        },
        {
          "internalType": "address",
          "name": "spender",
          "type": "address"
        }
      ],
      "name": "allowance",
      "outputs": [
        {
          "internalType": "uint256",
          "name": "",
          "type": "uint256"
        }
      ],
      "stateMutability": "view",
      "type": "function",
      "constant": true
    },
    {
      "inputs": [
        {
          "internalType": "address",
          "name": "spender",
          "type": "address"
        },
        {
          "internalType": "uint256",
          "name": "amount",
          "type": "uint256"
        }
      ],
      "name": "approve",
      "outputs": [
        {
          "internalType": "bool",
          "name": "",
          "type": "bool"
        }
      ],
      "stateMutability": "nonpayable",
      "type": "function"
    },
    {
      "inputs": [
        {
          "internalType": "address",
          "name": "account",
          "type": "address"
        }
      ],
      "name": "balanceOf",
      "outputs": [
        {
          "internalType": "uint256",
          "name": "",
          "type": "uint256"
        }
      ],
      "stateMutability": "view",
      "type": "function",
      "constant": true
    },
    {
      "inputs": [
        {
          "internalType": "address",
          "name": "",
          "type": "address"
        }
      ],
      "name": "balancesToClaim",
      "outputs": [
        {
          "internalType": "uint256",
          "name": "",
          "type": "uint256"
        }
      ],
      "stateMutability": "view",
      "type": "function",
      "constant": true
    },
    {
      "inputs": [
        {
          "internalType": "address",
          "name": "",
          "type": "address"
        }
      ],
      "name": "contributionsOf",
      "outputs": [
        {
          "internalType": "uint256",
          "name": "",
          "type": "uint256"
        }
      ],
      "stateMutability": "view",
      "type": "function",
      "constant": true
    },
    {
      "inputs": [],
      "name": "decimals",
      "outputs": [
        {
          "internalType": "uint8",
          "name": "",
          "type": "uint8"
        }
      ],
      "stateMutability": "view",
      "type": "function",
      "constant": true
    },
    {
      "inputs": [
        {
          "internalType": "address",
          "name": "spender",
          "type": "address"
        },
        {
          "internalType": "uint256",
          "name": "subtractedValue",
          "type": "uint256"
        }
      ],
      "name": "decreaseAllowance",
      "outputs": [
        {
          "internalType": "bool",
          "name": "",
          "type": "bool"
        }
      ],
      "stateMutability": "nonpayable",
      "type": "function"
    },
    {
      "inputs": [],
      "name": "fundsAlreadyMoved",
      "outputs": [
        {
          "internalType": "bool",
          "name": "",
          "type": "bool"
        }
      ],
      "stateMutability": "view",
      "type": "function",
      "constant": true
    },
    {
      "inputs": [
        {
          "internalType": "address",
          "name": "spender",
          "type": "address"
        },
        {
          "internalType": "uint256",
          "name": "addedValue",
          "type": "uint256"
        }
      ],
      "name": "increaseAllowance",
      "outputs": [
        {
          "internalType": "bool",
          "name": "",
          "type": "bool"
        }
      ],
      "stateMutability": "nonpayable",
      "type": "function"
    },
    {
      "inputs": [],
      "name": "isContractPaused",
      "outputs": [
        {
          "internalType": "bool",
          "name": "",
          "type": "bool"
        }
      ],
      "stateMutability": "view",
      "type": "function",
      "constant": true
    },
    {
      "inputs": [],
      "name": "isTaxOn",
      "outputs": [
        {
          "internalType": "bool",
          "name": "",
          "type": "bool"
        }
      ],
      "stateMutability": "view",
      "type": "function",
      "constant": true
    },
    {
      "inputs": [
        {
          "internalType": "address",
          "name": "",
          "type": "address"
        }
      ],
      "name": "isWhitelisted",
      "outputs": [
        {
          "internalType": "bool",
          "name": "",
          "type": "bool"
        }
      ],
      "stateMutability": "view",
      "type": "function",
      "constant": true
    },
    {
      "inputs": [],
      "name": "name",
      "outputs": [
        {
          "internalType": "string",
          "name": "",
          "type": "string"
        }
      ],
      "stateMutability": "view",
      "type": "function",
      "constant": true
    },
    {
      "inputs": [],
      "name": "owner",
      "outputs": [
        {
          "internalType": "address",
          "name": "",
          "type": "address"
        }
      ],
      "stateMutability": "view",
      "type": "function",
      "constant": true
    },
    {
      "inputs": [],
      "name": "symbol",
      "outputs": [
        {
          "internalType": "string",
          "name": "",
          "type": "string"
        }
      ],
      "stateMutability": "view",
      "type": "function",
      "constant": true
    },
    {
      "inputs": [],
      "name": "totalContributed",
      "outputs": [
        {
          "internalType": "uint256",
          "name": "",
          "type": "uint256"
        }
      ],
      "stateMutability": "view",
      "type": "function",
      "constant": true
    },
    {
      "inputs": [],
      "name": "totalSupply",
      "outputs": [
        {
          "internalType": "uint256",
          "name": "",
          "type": "uint256"
        }
      ],
      "stateMutability": "view",
      "type": "function",
      "constant": true
    },
    {
      "inputs": [
        {
          "internalType": "address",
          "name": "to",
          "type": "address"
        },
        {
          "internalType": "uint256",
          "name": "amount",
          "type": "uint256"
        }
      ],
      "name": "transfer",
      "outputs": [
        {
          "internalType": "bool",
          "name": "",
          "type": "bool"
        }
      ],
      "stateMutability": "nonpayable",
      "type": "function"
    },
    {
      "inputs": [
        {
          "internalType": "address",
          "name": "from",
          "type": "address"
        },
        {
          "internalType": "address",
          "name": "to",
          "type": "address"
        },
        {
          "internalType": "uint256",
          "name": "amount",
          "type": "uint256"
        }
      ],
      "name": "transferFrom",
      "outputs": [
        {
          "internalType": "bool",
          "name": "",
          "type": "bool"
        }
      ],
      "stateMutability": "nonpayable",
      "type": "function"
    },
    {
      "inputs": [],
      "name": "treasuryWallet",
      "outputs": [
        {
          "internalType": "address payable",
          "name": "",
          "type": "address"
        }
      ],
      "stateMutability": "view",
      "type": "function",
      "constant": true
    },
    {
      "inputs": [],
      "name": "winRewardAddr",
      "outputs": [
        {
          "internalType": "address",
          "name": "",
          "type": "address"
        }
      ],
      "stateMutability": "view",
      "type": "function",
      "constant": true
    },
    {
      "inputs": [
        {
          "internalType": "address",
          "name": "_router",
          "type": "address"
        }
      ],
      "name": "setRouterAddress",
      "outputs": [],
      "stateMutability": "nonpayable",
      "type": "function"
    },
    {
      "inputs": [
        {
          "internalType": "address",
          "name": "_mapleNft",
          "type": "address"
        }
      ],
      "name": "setMapleNFTAddress",
      "outputs": [],
      "stateMutability": "nonpayable",
      "type": "function"
    },
    {
      "inputs": [
        {
          "internalType": "address",
          "name": "_mapleItems",
          "type": "address"
        }
      ],
      "name": "setMapleItemsAddress",
      "outputs": [],
      "stateMutability": "nonpayable",
      "type": "function"
    },
    {
      "inputs": [
        {
          "internalType": "address",
          "name": "_mapleMarket",
          "type": "address"
        }
      ],
      "name": "setMapleMarketAddress",
      "outputs": [],
      "stateMutability": "nonpayable",
      "type": "function"
    },
    {
      "inputs": [
        {
          "internalType": "address",
          "name": "_staking",
          "type": "address"
        }
      ],
      "name": "setStakingAddress",
      "outputs": [],
      "stateMutability": "nonpayable",
      "type": "function"
    },
    {
      "inputs": [],
      "name": "contribute",
      "outputs": [],
      "stateMutability": "payable",
      "type": "function",
      "payable": true
    },
    {
      "inputs": [],
      "name": "claimTokens",
      "outputs": [],
      "stateMutability": "nonpayable",
      "type": "function"
    },
    {
      "inputs": [],
      "name": "togglePauseContract",
      "outputs": [],
      "stateMutability": "nonpayable",
      "type": "function"
    },
    {
      "inputs": [],
      "name": "toggleTax",
      "outputs": [],
      "stateMutability": "nonpayable",
      "type": "function"
    },
    {
      "inputs": [
        {
          "internalType": "address",
          "name": "account",
          "type": "address"
        }
      ],
      "name": "addToWhitelist",
      "outputs": [],
      "stateMutability": "nonpayable",
      "type": "function"
    },
    {
      "inputs": [
        {
          "internalType": "address",
          "name": "account",
          "type": "address"
        },
        {
          "internalType": "uint256",
          "name": "amount",
          "type": "uint256"
        }
      ],
      "name": "mint",
      "outputs": [],
      "stateMutability": "nonpayable",
      "type": "function"
    },
    {
      "inputs": [
        {
          "internalType": "address",
          "name": "account",
          "type": "address"
        },
        {
          "internalType": "uint256",
          "name": "amount",
          "type": "uint256"
        }
      ],
      "name": "burn",
      "outputs": [],
      "stateMutability": "nonpayable",
      "type": "function"
    },
    {
      "inputs": [
        {
          "internalType": "address",
          "name": "account",
          "type": "address"
        },
        {
          "internalType": "uint256",
          "name": "amount",
          "type": "uint256"
        }
      ],
      "name": "marketBurn",
      "outputs": [],
      "stateMutability": "nonpayable",
      "type": "function"
    },
    {
      "inputs": [
        {
          "internalType": "address",
          "name": "_owner",
          "type": "address"
        },
        {
          "internalType": "address",
          "name": "_spender",
          "type": "address"
        },
        {
          "internalType": "uint256",
          "name": "_amount",
          "type": "uint256"
        }
      ],
      "name": "increaseContractAllowance",
      "outputs": [
        {
          "internalType": "bool",
          "name": "",
          "type": "bool"
        }
      ],
      "stateMutability": "nonpayable",
      "type": "function"
    },
    {
      "inputs": [
        {
          "internalType": "contract LiquidityPool",
          "name": "liquidityPool",
          "type": "address"
        }
      ],
      "name": "sendLiquidityToLPContract",
      "outputs": [],
      "stateMutability": "nonpayable",
      "type": "function"
    },
    {
      "inputs": [
        {
          "internalType": "address",
          "name": "_addr",
          "type": "address"
        },
        {
          "internalType": "uint256",
          "name": "_amount",
          "type": "uint256"
        }
      ],
      "name": "randRewardToken",
      "outputs": [],
      "stateMutability": "nonpayable",
      "type": "function"
    }
  ],
  "bytecode": "0x60806040526007805462ff00001916620100001790556000600f55605a6010553480156200002c57600080fd5b506040516200279f3803806200279f8339810160408190526200004f9162000235565b604051806040016040528060098152602001682526aa102a37b5b2b760b91b8152506040518060400160405280600381526020016212935560ea1b81525081600390816200009e91906200030b565b506004620000ad82826200030b565b50620000ba915050601290565b620000c790600a620004ec565b620000d690620f4240620004fd565b6005819055620000e890309062000148565b600780546301000000600160b81b0319163363010000009081029190911791829055600880546001600160a01b0319166001600160a01b039485161790559004166000908152601460205260409020805460ff191660011790556200052d565b6001600160a01b038216620001a35760405162461bcd60e51b815260206004820152601f60248201527f45524332303a206d696e7420746f20746865207a65726f206164647265737300604482015260640160405180910390fd5b8060026000828254620001b7919062000517565b90915550506001600160a01b03821660009081526020819052604081208054839290620001e690849062000517565b90915550506040518181526001600160a01b038316906000907fddf252ad1be2c89b69c2b068fc378daa952ba7f163c4a11628f55a4df523b3ef9060200160405180910390a35050565b505050565b6000602082840312156200024857600080fd5b81516001600160a01b03811681146200026057600080fd5b9392505050565b634e487b7160e01b600052604160045260246000fd5b600181811c908216806200029257607f821691505b602082108103620002b357634e487b7160e01b600052602260045260246000fd5b50919050565b601f8211156200023057600081815260208120601f850160051c81016020861015620002e25750805b601f850160051c820191505b818110156200030357828155600101620002ee565b505050505050565b81516001600160401b0381111562000327576200032762000267565b6200033f816200033884546200027d565b84620002b9565b602080601f8311600181146200037757600084156200035e5750858301515b600019600386901b1c1916600185901b17855562000303565b600085815260208120601f198616915b82811015620003a85788860151825594840194600190910190840162000387565b5085821015620003c75787850151600019600388901b60f8161c191681555b5050505050600190811b01905550565b634e487b7160e01b600052601160045260246000fd5b600181815b808511156200042e578160001904821115620004125762000412620003d7565b808516156200042057918102915b93841c9390800290620003f2565b509250929050565b6000826200044757506001620004e6565b816200045657506000620004e6565b81600181146200046f57600281146200047a576200049a565b6001915050620004e6565b60ff8411156200048e576200048e620003d7565b50506001821b620004e6565b5060208310610133831016604e8410600b8410161715620004bf575081810a620004e6565b620004cb8383620003ed565b8060001904821115620004e257620004e2620003d7565b0290505b92915050565b60006200026060ff84168362000436565b8082028115828204841417620004e657620004e6620003d7565b80820180821115620004e657620004e6620003d7565b612262806200053d6000396000f3fe6080604052600436106102e75760003560e01c80636eefec1111610184578063cf4bfd6a116100d6578063e43252d71161008a578063f4e0d9ac11610064578063f4e0d9ac1461083f578063f57df22e1461085f578063f6d7eade1461087f57600080fd5b8063e43252d7146107e5578063ec71ef8914610805578063f4ab29281461082557600080fd5b8063d7bb99ba116100bb578063d7bb99ba14610777578063d83a2bf31461077f578063dd62ed3e1461079f57600080fd5b8063cf4bfd6a14610742578063d1cabc351461076257600080fd5b806395d89b4111610138578063a9059cbb11610112578063a9059cbb146106d5578063b70f21c7146106f5578063be07d17d1461072257600080fd5b806395d89b41146106805780639dc29fac14610695578063a457c2d7146106b557600080fd5b80638392546011610169578063839254601461061957806385b1fb8e146106395780638da5cb5b1461065957600080fd5b80636eefec11146105c357806370a08231146105e357600080fd5b8063395093511161023d5780634626402b116101f15780636171ba64116101cb5780636171ba641461056f57806365acacfe1461058f57806368f58b03146105ae57600080fd5b80634626402b1461051a57806346c586c21461053a57806348c54b9d1461055a57600080fd5b80633af32abf116102225780633af32abf146104aa57806340c10f19146104da57806341cb87fc146104fa57600080fd5b8063395093511461045d5780633af0dbc11461047d57600080fd5b806318160ddd1161029f57806323b872dd1161027957806323b872dd1461040b578063313ce5671461042b57806332cb6b0c1461044757600080fd5b806318160ddd1461039e5780631b9631fc146103b35780631d057bd9146103eb57600080fd5b8063095ea7b3116102d0578063095ea7b31461033757806310bf6029146103675780631690bb4e1461037e57600080fd5b8063023f4147146102ec57806306fdde0314610315575b600080fd5b3480156102f857600080fd5b5061030260065481565b6040519081526020015b60405180910390f35b34801561032157600080fd5b5061032a61089f565b60405161030c9190611f28565b34801561034357600080fd5b50610357610352366004611f8b565b610931565b604051901515815260200161030c565b34801561037357600080fd5b5061037c61094b565b005b34801561038a57600080fd5b5061037c610399366004611fb7565b6109e6565b3480156103aa57600080fd5b50600254610302565b3480156103bf57600080fd5b50600a546103d3906001600160a01b031681565b6040516001600160a01b03909116815260200161030c565b3480156103f757600080fd5b5061037c610406366004611f8b565b610b88565b34801561041757600080fd5b50610357610426366004611fdb565b610c16565b34801561043757600080fd5b506040516012815260200161030c565b34801561045357600080fd5b5061030260055481565b34801561046957600080fd5b50610357610478366004611f8b565b610c3a565b34801561048957600080fd5b50610302610498366004611fb7565b60136020526000908152604090205481565b3480156104b657600080fd5b506103576104c5366004611fb7565b60146020526000908152604090205460ff1681565b3480156104e657600080fd5b5061037c6104f5366004611f8b565b610c7b565b34801561050657600080fd5b5061037c610515366004611fb7565b610da3565b34801561052657600080fd5b506008546103d3906001600160a01b031681565b34801561054657600080fd5b50600d546103d3906001600160a01b031681565b34801561056657600080fd5b5061037c610e5a565b34801561057b57600080fd5b5061037c61058a366004611fb7565b610f79565b34801561059b57600080fd5b5060075461035790610100900460ff1681565b3480156105ba57600080fd5b50610302600181565b3480156105cf57600080fd5b50600b546103d3906001600160a01b031681565b3480156105ef57600080fd5b506103026105fe366004611fb7565b6001600160a01b031660009081526020819052604090205490565b34801561062557600080fd5b5061037c610634366004611fb7565b611030565b34801561064557600080fd5b5061037c610654366004611f8b565b6110e7565b34801561066557600080fd5b506007546103d390630100000090046001600160a01b031681565b34801561068c57600080fd5b5061032a6111a9565b3480156106a157600080fd5b5061037c6106b0366004611f8b565b6111b8565b3480156106c157600080fd5b506103576106d0366004611f8b565b611225565b3480156106e157600080fd5b506103576106f0366004611f8b565b6112cf565b34801561070157600080fd5b50610302610710366004611fb7565b60126020526000908152604090205481565b34801561072e57600080fd5b506007546103579062010000900460ff1681565b34801561074e57600080fd5b50600c546103d3906001600160a01b031681565b34801561076e57600080fd5b5061037c6112dd565b61037c611368565b34801561078b57600080fd5b5061035761079a366004611fdb565b6114b2565b3480156107ab57600080fd5b506103026107ba36600461201c565b6001600160a01b03918216600090815260016020908152604080832093909416825291909152205490565b3480156107f157600080fd5b5061037c610800366004611fb7565b611582565b34801561081157600080fd5b5061037c610820366004611fb7565b6115f4565b34801561083157600080fd5b506007546103579060ff1681565b34801561084b57600080fd5b5061037c61085a366004611fb7565b6116ab565b34801561086b57600080fd5b506011546103d3906001600160a01b031681565b34801561088b57600080fd5b506009546103d3906001600160a01b031681565b6060600380546108ae90612055565b80601f01602080910402602001604051908101604052809291908181526020018280546108da90612055565b80156109275780601f106108fc57610100808354040283529160200191610927565b820191906000526020600020905b81548152906001019060200180831161090a57829003601f168201915b5050505050905090565b60003361093f818585611762565b60019150505b92915050565b600754630100000090046001600160a01b0316331461099e5760405162461bcd60e51b815260206004820152600a6024820152694f574e45525f4f4e4c5960b01b60448201526064015b60405180910390fd5b6007805462ff0000198116620100009182900460ff16159091021790556040517fe454716ccd4789e6869664dc631a651dcb83a4552bfdf7afda42167120c356d390600090a1565b600754630100000090046001600160a01b03163314610a345760405162461bcd60e51b815260206004820152600a6024820152694f574e45525f4f4e4c5960b01b6044820152606401610995565b600754610100900460ff1615610a805760405162461bcd60e51b8152602060048201526011602482015270046554e44535f4d4f5645445f544f5f4c5607c1b6044820152606401610995565b6007805461ff001916610100179055600654600090610aa09060646120a5565b9050610aad3083836118ba565b6006546040517f6e553f65000000000000000000000000000000000000000000000000000000008152600481018390523060248201526001600160a01b03841691636e553f65916044016000604051808303818588803b158015610b1057600080fd5b505af1158015610b24573d6000803e3d6000fd5b5050505050816001600160a01b0316632770d9016040518163ffffffff1660e01b8152600401600060405180830381600087803b158015610b6457600080fd5b505af1158015610b78573d6000803e3d6000fd5b50505050610b84611ad3565b5050565b600a546001600160a01b0316331480610bab5750600b546001600160a01b031633145b80610bc05750600c546001600160a01b031633145b610c0c5760405162461bcd60e51b815260206004820152600d60248201527f4d41504c454e46545f4f4e4c59000000000000000000000000000000000000006044820152606401610995565b610b848282611b2f565b600033610c24858285611cb4565b610c2f858585611d40565b506001949350505050565b3360008181526001602090815260408083206001600160a01b038716845290915281205490919061093f908290869086905b610c7691906120bc565b611762565b600754630100000090046001600160a01b03163314610cc95760405162461bcd60e51b815260206004820152600a6024820152694f574e45525f4f4e4c5960b01b6044820152606401610995565b6001600160a01b038216610d1f5760405162461bcd60e51b815260206004820152601f60248201527f45524332303a206d696e7420746f20746865207a65726f2061646472657373006044820152606401610995565b60055481610d2c60025490565b610d3691906120bc565b1115610d845760405162461bcd60e51b815260206004820152601060248201527f41424f56455f4d41585f535550504c59000000000000000000000000000000006044820152606401610995565b610b8482610d946012600a6121b3565b610d9e90846120a5565b611da6565b600754630100000090046001600160a01b03163314610df15760405162461bcd60e51b815260206004820152600a6024820152694f574e45525f4f4e4c5960b01b6044820152606401610995565b6009546001600160a01b031615610e385760405162461bcd60e51b815260206004820152600b60248201526a57524954455f4f4e43452160a81b6044820152606401610995565b600980546001600160a01b0319166001600160a01b0392909216919091179055565b60075460ff1615610ead5760405162461bcd60e51b815260206004820152600f60248201527f434f4e54524143545f50415553454400000000000000000000000000000000006044820152606401610995565b600754610100900460ff1615610ef95760405162461bcd60e51b8152602060048201526011602482015270046554e44535f4d4f5645445f544f5f4c5607c1b6044820152606401610995565b33600090815260126020526040902054610f555760405162461bcd60e51b815260206004820152601260248201527f4e4f5f415641494c41424c455f46554e445300000000000000000000000000006044820152606401610995565b336000818152601260205260408120805491905590610f76903090836118ba565b50565b600754630100000090046001600160a01b03163314610fc75760405162461bcd60e51b815260206004820152600a6024820152694f574e45525f4f4e4c5960b01b6044820152606401610995565b600c546001600160a01b03161561100e5760405162461bcd60e51b815260206004820152600b60248201526a57524954455f4f4e43452160a81b6044820152606401610995565b600c80546001600160a01b0319166001600160a01b0392909216919091179055565b600754630100000090046001600160a01b0316331461107e5760405162461bcd60e51b815260206004820152600a6024820152694f574e45525f4f4e4c5960b01b6044820152606401610995565b600a546001600160a01b0316156110c55760405162461bcd60e51b815260206004820152600b60248201526a57524954455f4f4e43452160a81b6044820152606401610995565b600a80546001600160a01b0319166001600160a01b0392909216919091179055565b600d80546001600160a01b0319166001600160a01b038416179055600e81905560006111136064611e85565b9050601054811161117857600854600d54600e5461113e926001600160a01b039081169216906118ba565b604051600181527fe3bf9628d38f54d735cbc07db121eaef41935c08353bba9b8c8772d4ebba2d99906020015b60405180910390a1505050565b604051600081527fe3bf9628d38f54d735cbc07db121eaef41935c08353bba9b8c8772d4ebba2d999060200161116b565b6060600480546108ae90612055565b600754630100000090046001600160a01b031633146112065760405162461bcd60e51b815260206004820152600a6024820152694f574e45525f4f4e4c5960b01b6044820152606401610995565b610b84826112166012600a6121b3565b61122090846120a5565b611b2f565b3360008181526001602090815260408083206001600160a01b0387168452909152812054909190838110156112c25760405162461bcd60e51b815260206004820152602560248201527f45524332303a2064656372656173656420616c6c6f77616e63652062656c6f7760448201527f207a65726f0000000000000000000000000000000000000000000000000000006064820152608401610995565b610c2f8286868403611762565b60003361093f818585611d40565b600754630100000090046001600160a01b0316331461132b5760405162461bcd60e51b815260206004820152600a6024820152694f574e45525f4f4e4c5960b01b6044820152606401610995565b6007805460ff19811660ff909116151790556040517fe454716ccd4789e6869664dc631a651dcb83a4552bfdf7afda42167120c356d390600090a1565b60075460ff16156113bb5760405162461bcd60e51b815260206004820152600f60248201527f434f4e54524143545f50415553454400000000000000000000000000000000006044820152606401610995565b600754610100900460ff16156114075760405162461bcd60e51b8152602060048201526011602482015270046554e44535f4d4f5645445f544f5f4c5607c1b6044820152606401610995565b60006114143460646120a5565b336000908152601260205260408120805492935083929091906114389084906120bc565b9091555050336000908152601360205260408120805434929061145c9084906120bc565b92505081905550346006600082825461147591906120bc565b909155505060405181815233907f745f661b8143944fb883f50694ebed3a871e43c451d9d4bf4648a9d551d7e47a9060200160405180910390a250565b6009546000906001600160a01b03163314806114d85750600a546001600160a01b031633145b806114ed5750600b546001600160a01b031633145b806115025750600c546001600160a01b031633145b61154e5760405162461bcd60e51b815260206004820152601460248201527f524f555445525f4f525f4d41504c455f4f4e4c590000000000000000000000006044820152606401610995565b33600090815260016020908152604080832030845290915290205461157890859085908590610c6c565b5060019392505050565b600754630100000090046001600160a01b031633146115d05760405162461bcd60e51b815260206004820152600a6024820152694f574e45525f4f4e4c5960b01b6044820152606401610995565b6001600160a01b03166000908152601460205260409020805460ff19166001179055565b600754630100000090046001600160a01b031633146116425760405162461bcd60e51b815260206004820152600a6024820152694f574e45525f4f4e4c5960b01b6044820152606401610995565b600b546001600160a01b0316156116895760405162461bcd60e51b815260206004820152600b60248201526a57524954455f4f4e43452160a81b6044820152606401610995565b600b80546001600160a01b0319166001600160a01b0392909216919091179055565b600754630100000090046001600160a01b031633146116f95760405162461bcd60e51b815260206004820152600a6024820152694f574e45525f4f4e4c5960b01b6044820152606401610995565b6011546001600160a01b0316156117405760405162461bcd60e51b815260206004820152600b60248201526a57524954455f4f4e43452160a81b6044820152606401610995565b601180546001600160a01b0319166001600160a01b0392909216919091179055565b6001600160a01b0383166117dd5760405162461bcd60e51b8152602060048201526024808201527f45524332303a20617070726f76652066726f6d20746865207a65726f2061646460448201527f72657373000000000000000000000000000000000000000000000000000000006064820152608401610995565b6001600160a01b0382166118595760405162461bcd60e51b815260206004820152602260248201527f45524332303a20617070726f766520746f20746865207a65726f20616464726560448201527f73730000000000000000000000000000000000000000000000000000000000006064820152608401610995565b6001600160a01b0383811660008181526001602090815260408083209487168084529482529182902085905590518481527f8c5be1e5ebec7d5bd14f71427d1e84f3dd0314c0f7b2291e5b200ac8c7c3b925910160405180910390a3505050565b6001600160a01b0383166119365760405162461bcd60e51b815260206004820152602560248201527f45524332303a207472616e736665722066726f6d20746865207a65726f20616460448201527f64726573730000000000000000000000000000000000000000000000000000006064820152608401610995565b6001600160a01b0382166119b25760405162461bcd60e51b815260206004820152602360248201527f45524332303a207472616e7366657220746f20746865207a65726f206164647260448201527f65737300000000000000000000000000000000000000000000000000000000006064820152608401610995565b6001600160a01b03831660009081526020819052604090205481811015611a415760405162461bcd60e51b815260206004820152602660248201527f45524332303a207472616e7366657220616d6f756e742065786365656473206260448201527f616c616e636500000000000000000000000000000000000000000000000000006064820152608401610995565b6001600160a01b03808516600090815260208190526040808220858503905591851681529081208054849290611a789084906120bc565b92505081905550826001600160a01b0316846001600160a01b03167fddf252ad1be2c89b69c2b068fc378daa952ba7f163c4a11628f55a4df523b3ef84604051611ac491815260200190565b60405180910390a35b50505050565b611adb611ef2565b306000818152602081905260409020546008549091611b03916001600160a01b0316836118ba565b6040517fa01103220c31ee0c47e79a81104a3e82740390c1d918ad5638190cc185bd92e190600090a150565b6001600160a01b038216611bab5760405162461bcd60e51b815260206004820152602160248201527f45524332303a206275726e2066726f6d20746865207a65726f2061646472657360448201527f73000000000000000000000000000000000000000000000000000000000000006064820152608401610995565b6001600160a01b03821660009081526020819052604090205481811015611c3a5760405162461bcd60e51b815260206004820152602260248201527f45524332303a206275726e20616d6f756e7420657863656564732062616c616e60448201527f63650000000000000000000000000000000000000000000000000000000000006064820152608401610995565b6001600160a01b0383166000908152602081905260408120838303905560028054849290611c699084906121c2565b90915550506040518281526000906001600160a01b038516907fddf252ad1be2c89b69c2b068fc378daa952ba7f163c4a11628f55a4df523b3ef9060200160405180910390a3505050565b6001600160a01b038381166000908152600160209081526040808320938616835292905220546000198114611acd5781811015611d335760405162461bcd60e51b815260206004820152601d60248201527f45524332303a20696e73756666696369656e7420616c6c6f77616e63650000006044820152606401610995565b611acd8484848403611762565b60075460009062010000900460ff1615611d6e576064611d618360016120a5565b611d6b91906121eb565b90505b6000611d7a82846121c2565b9050611d878585836118ba565b600854611d9f9086906001600160a01b0316846118ba565b5050505050565b6001600160a01b038216611dfc5760405162461bcd60e51b815260206004820152601f60248201527f45524332303a206d696e7420746f20746865207a65726f2061646472657373006044820152606401610995565b8060026000828254611e0e91906120bc565b90915550506001600160a01b03821660009081526020819052604081208054839290611e3b9084906120bc565b90915550506040518181526001600160a01b038316906000907fddf252ad1be2c89b69c2b068fc378daa952ba7f163c4a11628f55a4df523b3ef9060200160405180910390a35050565b600f805460009182611e96836121ff565b9091555050600f54604080514260208201526bffffffffffffffffffffffff193360601b1691810191909152605481019190915282906074016040516020818303038152906040528051906020012060001c6109459190612218565b6000611f006012600a6121b3565b611f0d90620493e06120a5565b601154909150610f769030906001600160a01b0316836118ba565b600060208083528351808285015260005b81811015611f5557858101830151858201604001528201611f39565b506000604082860101526040601f19601f8301168501019250505092915050565b6001600160a01b0381168114610f7657600080fd5b60008060408385031215611f9e57600080fd5b8235611fa981611f76565b946020939093013593505050565b600060208284031215611fc957600080fd5b8135611fd481611f76565b9392505050565b600080600060608486031215611ff057600080fd5b8335611ffb81611f76565b9250602084013561200b81611f76565b929592945050506040919091013590565b6000806040838503121561202f57600080fd5b823561203a81611f76565b9150602083013561204a81611f76565b809150509250929050565b600181811c9082168061206957607f821691505b60208210810361208957634e487b7160e01b600052602260045260246000fd5b50919050565b634e487b7160e01b600052601160045260246000fd5b80820281158282048414176109455761094561208f565b808201808211156109455761094561208f565b600181815b8085111561210a5781600019048211156120f0576120f061208f565b808516156120fd57918102915b93841c93908002906120d4565b509250929050565b60008261212157506001610945565b8161212e57506000610945565b8160018114612144576002811461214e5761216a565b6001915050610945565b60ff84111561215f5761215f61208f565b50506001821b610945565b5060208310610133831016604e8410600b841016171561218d575081810a610945565b61219783836120cf565b80600019048211156121ab576121ab61208f565b029392505050565b6000611fd460ff841683612112565b818103818111156109455761094561208f565b634e487b7160e01b600052601260045260246000fd5b6000826121fa576121fa6121d5565b500490565b6000600182016122115761221161208f565b5060010190565b600082612227576122276121d5565b50069056fea264697066735822122071eb2b085e4a889ef0d3f46ce07c44617c17694c7c90c15ae079606a8922e13164736f6c63430008110033",
  "immutableReferences": {},
  "source": "//SPDX-License-Identifier: Unlicense\npragma solidity ^0.8.0;\n\nimport \"@openzeppelin/contracts/token/ERC20/ERC20.sol\";\nimport \"./LiquidityPool.sol\";\n\ncontract JMToken is ERC20 {\n    event TokensBought(address indexed _account, uint256 amount); //    \n    event OwnerAction(); //  \n    event FundsMoved(); //   \n    event _MovedStakingReward();\n\n    uint256 public MAX_SUPPLY; //  \n    uint256 public constant TAX = 1; //   tx 1%\n    uint256 public totalContributed; //    \n    bool public isContractPaused; //   \n    bool public fundsAlreadyMoved;\n    bool public isTaxOn = true; //   on off \n    address public owner; //  \n    address payable public treasuryWallet; //  !\n    address public Router;\n    address public MapleNFT;\n    address public MapleItems;\n    address public MapleMarket;\n    address public winRewardAddr;\n    uint winRewardAmount;\n    uint randNum = 0;\n    uint rewardProbability = 90;\n    address public Staking;\n\n    mapping(address => uint256) public balancesToClaim; // 1:100 ==jmt\n    mapping(address => uint256) public contributionsOf; //   eth\n    mapping(address => bool) public isWhitelisted;\n\n    event TokenRewarded(bool result);\n\n    constructor(address payable treasury) ERC20(\"JMT Token\", \"JMT\") {\n        MAX_SUPPLY = 1000000 * 10**decimals(); \n        _mint(address(this), MAX_SUPPLY); \n        owner = msg.sender; \n        treasuryWallet = treasury; // ,  \n        isWhitelisted[owner] = true; //     \n    }\n\n    modifier ownerOnly() {\n        require(msg.sender == owner, \"OWNER_ONLY\");\n        _;\n    }\n\n    modifier mapleNFTOnly(){\n        require(msg.sender == MapleNFT || msg.sender == MapleItems || msg.sender == MapleMarket, \"MAPLENFT_ONLY\");\n        _;\n    }\n    // router  \n    modifier routerOnly() {\n        require(msg.sender == Router || msg.sender == MapleNFT || msg.sender == MapleItems || msg.sender == MapleMarket, \"ROUTER_OR_MAPLE_ONLY\");\n        _;\n    }\n    //    \n    modifier areFundsMoved() {\n        require(!fundsAlreadyMoved, \"FUNDS_MOVED_TO_LP\");\n        _;\n    }\n\n    //   \n    modifier isPaused() {\n        require(!isContractPaused, \"CONTRACT_PAUSED\");\n        _;\n    }\n\n\n    //     (0x0)  ,   \n    function setRouterAddress(address _router) external ownerOnly {\n        require(address(Router) == address(0), \"WRITE_ONCE!\"); // 0x00000000\n        Router = _router;\n    }\n    function setMapleNFTAddress(address _mapleNft) external ownerOnly {\n        require(address(MapleNFT) == address(0), \"WRITE_ONCE!\");\n        MapleNFT = _mapleNft;\n    }\n    function setMapleItemsAddress(address _mapleItems) external ownerOnly {\n        require(address(MapleItems) == address(0), \"WRITE_ONCE!\");\n        MapleItems = _mapleItems;\n    }\n    function setMapleMarketAddress(address _mapleMarket) external ownerOnly {\n        require(address(MapleMarket) == address(0), \"WRITE_ONCE!\");\n        MapleMarket = _mapleMarket;\n    }\n    function setStakingAddress(address _staking ) external  ownerOnly {\n        require(address(Staking) == address(0), \"WRITE_ONCE!\");\n        Staking = _staking;\n    }\n  \n    //   \n    function contribute() external payable isPaused areFundsMoved {\n\n        //  1:100\n        uint256 tokenAmount = msg.value * 100;\n        balancesToClaim[msg.sender] += tokenAmount;\n        contributionsOf[msg.sender] += msg.value;\n        totalContributed += msg.value; \n        emit TokensBought(msg.sender, tokenAmount);\n    }\n    \n    //  jmt  \n    function claimTokens() external isPaused areFundsMoved {\n        require(balancesToClaim[msg.sender] > 0, \"NO_AVAILABLE_FUNDS\"); //      \n        uint256 tokensToClaim = balancesToClaim[msg.sender];\n        balancesToClaim[msg.sender] = 0;\n\n        super._transfer(address(this), msg.sender, tokensToClaim); //  -> sender \n    }\n\n    // pause \n    function togglePauseContract() external ownerOnly {\n        isContractPaused = !isContractPaused;\n        emit OwnerAction();\n    }\n\n    // tx  : true\n    function toggleTax() external ownerOnly {\n        isTaxOn = !isTaxOn;\n        emit OwnerAction();\n    }\n\n    //   \n    function addToWhitelist(address account) external ownerOnly {\n        isWhitelisted[account] = true;\n    }\n\n    function _transfer(address sender, address recipient, uint256 amount) internal override {\n        uint256 amountToTake;\n        // tx\n        if (isTaxOn) {\n            amountToTake = (TAX * amount) / 100;\n        }\n        uint256 amountToTransfer = amount - amountToTake;\n        //    \n        super._transfer(sender, recipient, amountToTransfer);\n        //   \n        super._transfer(sender, treasuryWallet, amountToTake); \n    }\n\n    function mint(address account, uint256 amount) external ownerOnly {\n        require(account != address(0), \"ERC20: mint to the zero address\"); //      \n        require(totalSupply() + amount <= MAX_SUPPLY, \"ABOVE_MAX_SUPPLY\"); //   \n        _mint(account, amount * 10**decimals());\n    }\n    \n    function burn(address account, uint256 amount) external ownerOnly {\n        _burn(account, amount * 10**decimals());\n    }\n\n    function marketBurn(address account, uint256 amount) external mapleNFTOnly {\n        _burn(account, amount);\n\n    }\n\n    //tranferfrom  \n    //spender   \n    //      x \n    function increaseContractAllowance(address _owner,address _spender,uint256 _amount)  \n        public routerOnly returns (bool) {\n        // spender         \n        // allowance      return \n        _approve(\n            _owner, // from\n            _spender, // to\n            allowance(msg.sender, address(this)) + _amount\n        ); \n        return true;\n    }\n\n    //   -> lp ,    \n    function sendLiquidityToLPContract(LiquidityPool liquidityPool) external ownerOnly areFundsMoved\n    {\n        fundsAlreadyMoved = true; //\n\n        //   * 100 jmt \n        uint256 jmtCoinAmountToTransfer = totalContributed * 100;\n\n        // lp JMT \n        super._transfer(\n            address(this),\n            address(liquidityPool),\n            jmtCoinAmountToTransfer\n        );\n\n        //msg.value = totalContributed,  , \n        liquidityPool.deposit{value: totalContributed}(\n            jmtCoinAmountToTransfer,\n            address(this)\n        );\n\n        // reserve_setting\n        liquidityPool.setFundedReserve();\n\n        sendRemainingFundsToTreasury();\n    }\n    //       \n    // ,  ?\n    //   \n    function sendRemainingFundsToTreasury() internal {\n        MovedStakingReward();\n\n        uint256 remainingJMT = balanceOf(address(this));\n        super._transfer(address(this), address(treasuryWallet), remainingJMT);\n        emit FundsMoved();\n    }\n    // staking reward 300,000  \n    function MovedStakingReward() internal {\n        uint256 remainingJMT = 300000 * 10**decimals();\n        super._transfer(address(this), address(Staking), remainingJMT);\n    }\n\n    //   ()\n    function randMod(uint _modulus) internal returns(uint) { // \n        randNum++;\n        return uint(keccak256(abi.encodePacked(block.timestamp, msg.sender, randNum))) % _modulus;\n    }\n\n    function randRewardToken(address _addr, uint _amount) external {\n        winRewardAddr = _addr;\n        winRewardAmount = _amount;\n        uint rand = randMod(100);\n        if ( rand <= rewardProbability ) {// 90%    \n            super._transfer(address(treasuryWallet), address(winRewardAddr), winRewardAmount); // JMT \n            emit TokenRewarded(true);\n        } else {\n            emit TokenRewarded(false);\n        }\n    }\n\n}",
  "sourcePath": "/Users/hyenne/workspace/BEB-05-JMT/contract/contracts/JMToken.sol",
  "compiler": {
    "name": "solc",
    "version": "0.8.17+commit.8df45f5f.Emscripten.clang"
  },
  "schemaVersion": "3.4.9",
  "updatedAt": "2022-09-26T19:36:57.197Z",
  "networkType": "ethereum",
  "devdoc": {
    "kind": "dev",
    "methods": {
      "allowance(address,address)": {
        "details": "See {IERC20-allowance}."
      },
      "approve(address,uint256)": {
        "details": "See {IERC20-approve}. NOTE: If `amount` is the maximum `uint256`, the allowance is not updated on `transferFrom`. This is semantically equivalent to an infinite approval. Requirements: - `spender` cannot be the zero address."
      },
      "balanceOf(address)": {
        "details": "See {IERC20-balanceOf}."
      },
      "decimals()": {
        "details": "Returns the number of decimals used to get its user representation. For example, if `decimals` equals `2`, a balance of `505` tokens should be displayed to a user as `5.05` (`505 / 10 ** 2`). Tokens usually opt for a value of 18, imitating the relationship between Ether and Wei. This is the value {ERC20} uses, unless this function is overridden; NOTE: This information is only used for _display_ purposes: it in no way affects any of the arithmetic of the contract, including {IERC20-balanceOf} and {IERC20-transfer}."
      },
      "decreaseAllowance(address,uint256)": {
        "details": "Atomically decreases the allowance granted to `spender` by the caller. This is an alternative to {approve} that can be used as a mitigation for problems described in {IERC20-approve}. Emits an {Approval} event indicating the updated allowance. Requirements: - `spender` cannot be the zero address. - `spender` must have allowance for the caller of at least `subtractedValue`."
      },
      "increaseAllowance(address,uint256)": {
        "details": "Atomically increases the allowance granted to `spender` by the caller. This is an alternative to {approve} that can be used as a mitigation for problems described in {IERC20-approve}. Emits an {Approval} event indicating the updated allowance. Requirements: - `spender` cannot be the zero address."
      },
      "name()": {
        "details": "Returns the name of the token."
      },
      "symbol()": {
        "details": "Returns the symbol of the token, usually a shorter version of the name."
      },
      "totalSupply()": {
        "details": "See {IERC20-totalSupply}."
      },
      "transfer(address,uint256)": {
        "details": "See {IERC20-transfer}. Requirements: - `to` cannot be the zero address. - the caller must have a balance of at least `amount`."
      },
      "transferFrom(address,address,uint256)": {
        "details": "See {IERC20-transferFrom}. Emits an {Approval} event indicating the updated allowance. This is not required by the EIP. See the note at the beginning of {ERC20}. NOTE: Does not update the allowance if the current allowance is the maximum `uint256`. Requirements: - `from` and `to` cannot be the zero address. - `from` must have a balance of at least `amount`. - the caller must have allowance for ``from``'s tokens of at least `amount`."
      }
    },
    "version": 1
  },
  "userdoc": {
    "kind": "user",
    "methods": {},
    "version": 1
  }
}