{
  "contractName": "JMToken",
  "abi": [
    {
      "inputs": [
        {
          "internalType": "address payable",
          "name": "treasury",
          "type": "address"
        }
      ],
      "stateMutability": "nonpayable",
      "type": "constructor"
    },
    {
      "anonymous": false,
      "inputs": [
        {
          "indexed": true,
          "internalType": "address",
          "name": "owner",
          "type": "address"
        },
        {
          "indexed": true,
          "internalType": "address",
          "name": "spender",
          "type": "address"
        },
        {
          "indexed": false,
          "internalType": "uint256",
          "name": "value",
          "type": "uint256"
        }
      ],
      "name": "Approval",
      "type": "event"
    },
    {
      "anonymous": false,
      "inputs": [],
      "name": "FundsMoved",
      "type": "event"
    },
    {
      "anonymous": false,
      "inputs": [],
      "name": "OwnerAction",
      "type": "event"
    },
    {
      "anonymous": false,
      "inputs": [
        {
          "indexed": true,
          "internalType": "address",
          "name": "_account",
          "type": "address"
        },
        {
          "indexed": false,
          "internalType": "uint256",
          "name": "amount",
          "type": "uint256"
        }
      ],
      "name": "TokensBought",
      "type": "event"
    },
    {
      "anonymous": false,
      "inputs": [
        {
          "indexed": true,
          "internalType": "address",
          "name": "from",
          "type": "address"
        },
        {
          "indexed": true,
          "internalType": "address",
          "name": "to",
          "type": "address"
        },
        {
          "indexed": false,
          "internalType": "uint256",
          "name": "value",
          "type": "uint256"
        }
      ],
      "name": "Transfer",
      "type": "event"
    },
    {
      "anonymous": false,
      "inputs": [],
      "name": "_MovedStakingReward",
      "type": "event"
    },
    {
      "inputs": [],
      "name": "MAX_SUPPLY",
      "outputs": [
        {
          "internalType": "uint256",
          "name": "",
          "type": "uint256"
        }
      ],
      "stateMutability": "view",
      "type": "function",
      "constant": true
    },
    {
      "inputs": [],
      "name": "MapleItems",
      "outputs": [
        {
          "internalType": "address",
          "name": "",
          "type": "address"
        }
      ],
      "stateMutability": "view",
      "type": "function",
      "constant": true
    },
    {
      "inputs": [],
      "name": "MapleMarket",
      "outputs": [
        {
          "internalType": "address",
          "name": "",
          "type": "address"
        }
      ],
      "stateMutability": "view",
      "type": "function",
      "constant": true
    },
    {
      "inputs": [],
      "name": "MapleNFT",
      "outputs": [
        {
          "internalType": "address",
          "name": "",
          "type": "address"
        }
      ],
      "stateMutability": "view",
      "type": "function",
      "constant": true
    },
    {
      "inputs": [],
      "name": "Router",
      "outputs": [
        {
          "internalType": "address",
          "name": "",
          "type": "address"
        }
      ],
      "stateMutability": "view",
      "type": "function",
      "constant": true
    },
    {
      "inputs": [],
      "name": "Staking",
      "outputs": [
        {
          "internalType": "address",
          "name": "",
          "type": "address"
        }
      ],
      "stateMutability": "view",
      "type": "function",
      "constant": true
    },
    {
      "inputs": [],
      "name": "TAX",
      "outputs": [
        {
          "internalType": "uint256",
          "name": "",
          "type": "uint256"
        }
      ],
      "stateMutability": "view",
      "type": "function",
      "constant": true
    },
    {
      "inputs": [
        {
          "internalType": "address",
          "name": "owner",
          "type": "address"
        },
        {
          "internalType": "address",
          "name": "spender",
          "type": "address"
        }
      ],
      "name": "allowance",
      "outputs": [
        {
          "internalType": "uint256",
          "name": "",
          "type": "uint256"
        }
      ],
      "stateMutability": "view",
      "type": "function",
      "constant": true
    },
    {
      "inputs": [
        {
          "internalType": "address",
          "name": "spender",
          "type": "address"
        },
        {
          "internalType": "uint256",
          "name": "amount",
          "type": "uint256"
        }
      ],
      "name": "approve",
      "outputs": [
        {
          "internalType": "bool",
          "name": "",
          "type": "bool"
        }
      ],
      "stateMutability": "nonpayable",
      "type": "function"
    },
    {
      "inputs": [
        {
          "internalType": "address",
          "name": "account",
          "type": "address"
        }
      ],
      "name": "balanceOf",
      "outputs": [
        {
          "internalType": "uint256",
          "name": "",
          "type": "uint256"
        }
      ],
      "stateMutability": "view",
      "type": "function",
      "constant": true
    },
    {
      "inputs": [
        {
          "internalType": "address",
          "name": "",
          "type": "address"
        }
      ],
      "name": "balancesToClaim",
      "outputs": [
        {
          "internalType": "uint256",
          "name": "",
          "type": "uint256"
        }
      ],
      "stateMutability": "view",
      "type": "function",
      "constant": true
    },
    {
      "inputs": [
        {
          "internalType": "address",
          "name": "",
          "type": "address"
        }
      ],
      "name": "contributionsOf",
      "outputs": [
        {
          "internalType": "uint256",
          "name": "",
          "type": "uint256"
        }
      ],
      "stateMutability": "view",
      "type": "function",
      "constant": true
    },
    {
      "inputs": [],
      "name": "decimals",
      "outputs": [
        {
          "internalType": "uint8",
          "name": "",
          "type": "uint8"
        }
      ],
      "stateMutability": "view",
      "type": "function",
      "constant": true
    },
    {
      "inputs": [
        {
          "internalType": "address",
          "name": "spender",
          "type": "address"
        },
        {
          "internalType": "uint256",
          "name": "subtractedValue",
          "type": "uint256"
        }
      ],
      "name": "decreaseAllowance",
      "outputs": [
        {
          "internalType": "bool",
          "name": "",
          "type": "bool"
        }
      ],
      "stateMutability": "nonpayable",
      "type": "function"
    },
    {
      "inputs": [],
      "name": "fundsAlreadyMoved",
      "outputs": [
        {
          "internalType": "bool",
          "name": "",
          "type": "bool"
        }
      ],
      "stateMutability": "view",
      "type": "function",
      "constant": true
    },
    {
      "inputs": [
        {
          "internalType": "address",
          "name": "spender",
          "type": "address"
        },
        {
          "internalType": "uint256",
          "name": "addedValue",
          "type": "uint256"
        }
      ],
      "name": "increaseAllowance",
      "outputs": [
        {
          "internalType": "bool",
          "name": "",
          "type": "bool"
        }
      ],
      "stateMutability": "nonpayable",
      "type": "function"
    },
    {
      "inputs": [],
      "name": "isContractPaused",
      "outputs": [
        {
          "internalType": "bool",
          "name": "",
          "type": "bool"
        }
      ],
      "stateMutability": "view",
      "type": "function",
      "constant": true
    },
    {
      "inputs": [],
      "name": "isTaxOn",
      "outputs": [
        {
          "internalType": "bool",
          "name": "",
          "type": "bool"
        }
      ],
      "stateMutability": "view",
      "type": "function",
      "constant": true
    },
    {
      "inputs": [
        {
          "internalType": "address",
          "name": "",
          "type": "address"
        }
      ],
      "name": "isWhitelisted",
      "outputs": [
        {
          "internalType": "bool",
          "name": "",
          "type": "bool"
        }
      ],
      "stateMutability": "view",
      "type": "function",
      "constant": true
    },
    {
      "inputs": [],
      "name": "name",
      "outputs": [
        {
          "internalType": "string",
          "name": "",
          "type": "string"
        }
      ],
      "stateMutability": "view",
      "type": "function",
      "constant": true
    },
    {
      "inputs": [],
      "name": "owner",
      "outputs": [
        {
          "internalType": "address",
          "name": "",
          "type": "address"
        }
      ],
      "stateMutability": "view",
      "type": "function",
      "constant": true
    },
    {
      "inputs": [],
      "name": "symbol",
      "outputs": [
        {
          "internalType": "string",
          "name": "",
          "type": "string"
        }
      ],
      "stateMutability": "view",
      "type": "function",
      "constant": true
    },
    {
      "inputs": [],
      "name": "totalContributed",
      "outputs": [
        {
          "internalType": "uint256",
          "name": "",
          "type": "uint256"
        }
      ],
      "stateMutability": "view",
      "type": "function",
      "constant": true
    },
    {
      "inputs": [],
      "name": "totalSupply",
      "outputs": [
        {
          "internalType": "uint256",
          "name": "",
          "type": "uint256"
        }
      ],
      "stateMutability": "view",
      "type": "function",
      "constant": true
    },
    {
      "inputs": [
        {
          "internalType": "address",
          "name": "to",
          "type": "address"
        },
        {
          "internalType": "uint256",
          "name": "amount",
          "type": "uint256"
        }
      ],
      "name": "transfer",
      "outputs": [
        {
          "internalType": "bool",
          "name": "",
          "type": "bool"
        }
      ],
      "stateMutability": "nonpayable",
      "type": "function"
    },
    {
      "inputs": [
        {
          "internalType": "address",
          "name": "from",
          "type": "address"
        },
        {
          "internalType": "address",
          "name": "to",
          "type": "address"
        },
        {
          "internalType": "uint256",
          "name": "amount",
          "type": "uint256"
        }
      ],
      "name": "transferFrom",
      "outputs": [
        {
          "internalType": "bool",
          "name": "",
          "type": "bool"
        }
      ],
      "stateMutability": "nonpayable",
      "type": "function"
    },
    {
      "inputs": [],
      "name": "treasuryWallet",
      "outputs": [
        {
          "internalType": "address payable",
          "name": "",
          "type": "address"
        }
      ],
      "stateMutability": "view",
      "type": "function",
      "constant": true
    },
    {
      "inputs": [],
      "name": "winRewardAddr",
      "outputs": [
        {
          "internalType": "address",
          "name": "",
          "type": "address"
        }
      ],
      "stateMutability": "view",
      "type": "function",
      "constant": true
    },
    {
      "inputs": [
        {
          "internalType": "address",
          "name": "_router",
          "type": "address"
        }
      ],
      "name": "setRouterAddress",
      "outputs": [],
      "stateMutability": "nonpayable",
      "type": "function"
    },
    {
      "inputs": [
        {
          "internalType": "address",
          "name": "_mapleNft",
          "type": "address"
        }
      ],
      "name": "setMapleNFTAddress",
      "outputs": [],
      "stateMutability": "nonpayable",
      "type": "function"
    },
    {
      "inputs": [
        {
          "internalType": "address",
          "name": "_mapleItems",
          "type": "address"
        }
      ],
      "name": "setMapleItemsAddress",
      "outputs": [],
      "stateMutability": "nonpayable",
      "type": "function"
    },
    {
      "inputs": [
        {
          "internalType": "address",
          "name": "_mapleMarket",
          "type": "address"
        }
      ],
      "name": "setMapleMarketAddress",
      "outputs": [],
      "stateMutability": "nonpayable",
      "type": "function"
    },
    {
      "inputs": [
        {
          "internalType": "address",
          "name": "_staking",
          "type": "address"
        }
      ],
      "name": "setStakingAddress",
      "outputs": [],
      "stateMutability": "nonpayable",
      "type": "function"
    },
    {
      "inputs": [],
      "name": "contribute",
      "outputs": [],
      "stateMutability": "payable",
      "type": "function",
      "payable": true
    },
    {
      "inputs": [],
      "name": "claimTokens",
      "outputs": [],
      "stateMutability": "nonpayable",
      "type": "function"
    },
    {
      "inputs": [],
      "name": "togglePauseContract",
      "outputs": [],
      "stateMutability": "nonpayable",
      "type": "function"
    },
    {
      "inputs": [],
      "name": "toggleTax",
      "outputs": [],
      "stateMutability": "nonpayable",
      "type": "function"
    },
    {
      "inputs": [
        {
          "internalType": "address",
          "name": "account",
          "type": "address"
        }
      ],
      "name": "addToWhitelist",
      "outputs": [],
      "stateMutability": "nonpayable",
      "type": "function"
    },
    {
      "inputs": [
        {
          "internalType": "address",
          "name": "account",
          "type": "address"
        },
        {
          "internalType": "uint256",
          "name": "amount",
          "type": "uint256"
        }
      ],
      "name": "mint",
      "outputs": [],
      "stateMutability": "nonpayable",
      "type": "function"
    },
    {
      "inputs": [
        {
          "internalType": "address",
          "name": "account",
          "type": "address"
        },
        {
          "internalType": "uint256",
          "name": "amount",
          "type": "uint256"
        }
      ],
      "name": "burn",
      "outputs": [],
      "stateMutability": "nonpayable",
      "type": "function"
    },
    {
      "inputs": [
        {
          "internalType": "address",
          "name": "account",
          "type": "address"
        },
        {
          "internalType": "uint256",
          "name": "amount",
          "type": "uint256"
        }
      ],
      "name": "marketBurn",
      "outputs": [],
      "stateMutability": "nonpayable",
      "type": "function"
    },
    {
      "inputs": [
        {
          "internalType": "address",
          "name": "_owner",
          "type": "address"
        },
        {
          "internalType": "address",
          "name": "_spender",
          "type": "address"
        },
        {
          "internalType": "uint256",
          "name": "_amount",
          "type": "uint256"
        }
      ],
      "name": "increaseContractAllowance",
      "outputs": [
        {
          "internalType": "bool",
          "name": "",
          "type": "bool"
        }
      ],
      "stateMutability": "nonpayable",
      "type": "function"
    },
    {
      "inputs": [
        {
          "internalType": "contract LiquidityPool",
          "name": "liquidityPool",
          "type": "address"
        }
      ],
      "name": "sendLiquidityToLPContract",
      "outputs": [],
      "stateMutability": "nonpayable",
      "type": "function"
    },
    {
      "inputs": [
        {
          "internalType": "address",
          "name": "_addr",
          "type": "address"
        },
        {
          "internalType": "uint256",
          "name": "_amount",
          "type": "uint256"
        }
      ],
      "name": "randRewardToken",
      "outputs": [],
      "stateMutability": "nonpayable",
      "type": "function"
    }
  ],
  "bytecode": "0x60806040526007805462ff00001916620100001790556000600f5560466010553480156200002c57600080fd5b5060405162002397380380620023978339810160408190526200004f9162000235565b604051806040016040528060098152602001682526aa102a37b5b2b760b91b8152506040518060400160405280600381526020016212935560ea1b81525081600390816200009e91906200030b565b506004620000ad82826200030b565b50620000ba915050601290565b620000c790600a620004ec565b620000d690620f4240620004fd565b6005819055620000e890309062000148565b600780546301000000600160b81b0319163363010000009081029190911791829055600880546001600160a01b0319166001600160a01b039485161790559004166000908152601460205260409020805460ff191660011790556200052d565b6001600160a01b038216620001a35760405162461bcd60e51b815260206004820152601f60248201527f45524332303a206d696e7420746f20746865207a65726f206164647265737300604482015260640160405180910390fd5b8060026000828254620001b7919062000517565b90915550506001600160a01b03821660009081526020819052604081208054839290620001e690849062000517565b90915550506040518181526001600160a01b038316906000907fddf252ad1be2c89b69c2b068fc378daa952ba7f163c4a11628f55a4df523b3ef9060200160405180910390a35050565b505050565b6000602082840312156200024857600080fd5b81516001600160a01b03811681146200026057600080fd5b9392505050565b634e487b7160e01b600052604160045260246000fd5b600181811c908216806200029257607f821691505b602082108103620002b357634e487b7160e01b600052602260045260246000fd5b50919050565b601f8211156200023057600081815260208120601f850160051c81016020861015620002e25750805b601f850160051c820191505b818110156200030357828155600101620002ee565b505050505050565b81516001600160401b0381111562000327576200032762000267565b6200033f816200033884546200027d565b84620002b9565b602080601f8311600181146200037757600084156200035e5750858301515b600019600386901b1c1916600185901b17855562000303565b600085815260208120601f198616915b82811015620003a85788860151825594840194600190910190840162000387565b5085821015620003c75787850151600019600388901b60f8161c191681555b5050505050600190811b01905550565b634e487b7160e01b600052601160045260246000fd5b600181815b808511156200042e578160001904821115620004125762000412620003d7565b808516156200042057918102915b93841c9390800290620003f2565b509250929050565b6000826200044757506001620004e6565b816200045657506000620004e6565b81600181146200046f57600281146200047a576200049a565b6001915050620004e6565b60ff8411156200048e576200048e620003d7565b50506001821b620004e6565b5060208310610133831016604e8410600b8410161715620004bf575081810a620004e6565b620004cb8383620003ed565b8060001904821115620004e257620004e2620003d7565b0290505b92915050565b60006200026060ff84168362000436565b8082028115828204841417620004e657620004e6620003d7565b80820180821115620004e657620004e6620003d7565b611e5a806200053d6000396000f3fe6080604052600436106102675760003560e01c80636eefec1111610144578063cf4bfd6a116100b6578063e43252d71161007a578063e43252d71461073f578063ec71ef891461075f578063f4ab29281461077f578063f4e0d9ac14610799578063f57df22e146107b9578063f6d7eade146107d957600080fd5b8063cf4bfd6a146106c2578063d1cabc35146106e2578063d7bb99ba146106f7578063d83a2bf3146106ff578063dd62ed3e1461071f57600080fd5b806395d89b411161010857806395d89b41146106005780639dc29fac14610615578063a457c2d714610635578063a9059cbb14610655578063b70f21c714610675578063be07d17d146106a257600080fd5b80636eefec111461054357806370a0823114610563578063839254601461059957806385b1fb8e146105b95780638da5cb5b146105d957600080fd5b806339509351116101dd5780634626402b116101a15780634626402b1461049a57806346c586c2146104ba57806348c54b9d146104da5780636171ba64146104ef57806365acacfe1461050f57806368f58b031461052e57600080fd5b806339509351146103dd5780633af0dbc1146103fd5780633af32abf1461042a57806340c10f191461045a57806341cb87fc1461047a57600080fd5b806318160ddd1161022f57806318160ddd1461031e5780631b9631fc146103335780631d057bd91461036b57806323b872dd1461038b578063313ce567146103ab57806332cb6b0c146103c757600080fd5b8063023f41471461026c57806306fdde0314610295578063095ea7b3146102b757806310bf6029146102e75780631690bb4e146102fe575b600080fd5b34801561027857600080fd5b5061028260065481565b6040519081526020015b60405180910390f35b3480156102a157600080fd5b506102aa6107f9565b60405161028c9190611aac565b3480156102c357600080fd5b506102d76102d2366004611b0f565b61088b565b604051901515815260200161028c565b3480156102f357600080fd5b506102fc6108a5565b005b34801561030a57600080fd5b506102fc610319366004611b3b565b610927565b34801561032a57600080fd5b50600254610282565b34801561033f57600080fd5b50600a54610353906001600160a01b031681565b6040516001600160a01b03909116815260200161028c565b34801561037757600080fd5b506102fc610386366004611b0f565b610a6f565b34801561039757600080fd5b506102d76103a6366004611b5f565b610aed565b3480156103b757600080fd5b506040516012815260200161028c565b3480156103d357600080fd5b5061028260055481565b3480156103e957600080fd5b506102d76103f8366004611b0f565b610b11565b34801561040957600080fd5b50610282610418366004611b3b565b60136020526000908152604090205481565b34801561043657600080fd5b506102d7610445366004611b3b565b60146020526000908152604090205460ff1681565b34801561046657600080fd5b506102fc610475366004611b0f565b610b33565b34801561048657600080fd5b506102fc610495366004611b3b565b610c31565b3480156104a657600080fd5b50600854610353906001600160a01b031681565b3480156104c657600080fd5b50600d54610353906001600160a01b031681565b3480156104e657600080fd5b506102fc610cad565b3480156104fb57600080fd5b506102fc61050a366004611b3b565b610d8f565b34801561051b57600080fd5b506007546102d790610100900460ff1681565b34801561053a57600080fd5b50610282600181565b34801561054f57600080fd5b50600b54610353906001600160a01b031681565b34801561056f57600080fd5b5061028261057e366004611b3b565b6001600160a01b031660009081526020819052604090205490565b3480156105a557600080fd5b506102fc6105b4366004611b3b565b610e0b565b3480156105c557600080fd5b506102fc6105d4366004611b0f565b610e87565b3480156105e557600080fd5b5060075461035390630100000090046001600160a01b031681565b34801561060c57600080fd5b506102aa610f1f565b34801561062157600080fd5b506102fc610630366004611b0f565b610f2e565b34801561064157600080fd5b506102d7610650366004611b0f565b610f7e565b34801561066157600080fd5b506102d7610670366004611b0f565b610ff9565b34801561068157600080fd5b50610282610690366004611b3b565b60126020526000908152604090205481565b3480156106ae57600080fd5b506007546102d79062010000900460ff1681565b3480156106ce57600080fd5b50600c54610353906001600160a01b031681565b3480156106ee57600080fd5b506102fc611007565b6102fc611075565b34801561070b57600080fd5b506102d761071a366004611b5f565b61118d565b34801561072b57600080fd5b5061028261073a366004611ba0565b61123a565b34801561074b57600080fd5b506102fc61075a366004611b3b565b611265565b34801561076b57600080fd5b506102fc61077a366004611b3b565b6112ba565b34801561078b57600080fd5b506007546102d79060ff1681565b3480156107a557600080fd5b506102fc6107b4366004611b3b565b611336565b3480156107c557600080fd5b50601154610353906001600160a01b031681565b3480156107e557600080fd5b50600954610353906001600160a01b031681565b60606003805461080890611bd9565b80601f016020809104026020016040519081016040528092919081815260200182805461083490611bd9565b80156108815780601f1061085657610100808354040283529160200191610881565b820191906000526020600020905b81548152906001019060200180831161086457829003601f168201915b5050505050905090565b6000336108998185856113b2565b60019150505b92915050565b600754630100000090046001600160a01b031633146108df5760405162461bcd60e51b81526004016108d690611c13565b60405180910390fd5b6007805462ff0000198116620100009182900460ff16159091021790556040517fe454716ccd4789e6869664dc631a651dcb83a4552bfdf7afda42167120c356d390600090a1565b600754630100000090046001600160a01b031633146109585760405162461bcd60e51b81526004016108d690611c13565b600754610100900460ff16156109805760405162461bcd60e51b81526004016108d690611c37565b6007805461ff0019166101001790556006546000906109a0906064611c78565b90506109ad3083836114d6565b600654604051636e553f6560e01b8152600481018390523060248201526001600160a01b03841691636e553f65916044016000604051808303818588803b1580156109f757600080fd5b505af1158015610a0b573d6000803e3d6000fd5b5050505050816001600160a01b0316632770d9016040518163ffffffff1660e01b8152600401600060405180830381600087803b158015610a4b57600080fd5b505af1158015610a5f573d6000803e3d6000fd5b50505050610a6b6116a6565b5050565b600a546001600160a01b0316331480610a925750600b546001600160a01b031633145b80610aa75750600c546001600160a01b031633145b610ae35760405162461bcd60e51b815260206004820152600d60248201526c4d41504c454e46545f4f4e4c5960981b60448201526064016108d6565b610a6b8282611702565b600033610afb858285611850565b610b068585856118c4565b506001949350505050565b600033610899818585610b24838361123a565b610b2e9190611c8f565b6113b2565b600754630100000090046001600160a01b03163314610b645760405162461bcd60e51b81526004016108d690611c13565b6001600160a01b038216610bba5760405162461bcd60e51b815260206004820152601f60248201527f45524332303a206d696e7420746f20746865207a65726f20616464726573730060448201526064016108d6565b60055481610bc760025490565b610bd19190611c8f565b1115610c125760405162461bcd60e51b815260206004820152601060248201526f41424f56455f4d41585f535550504c5960801b60448201526064016108d6565b610a6b82610c226012600a611d86565b610c2c9084611c78565b61192a565b600754630100000090046001600160a01b03163314610c625760405162461bcd60e51b81526004016108d690611c13565b6009546001600160a01b031615610c8b5760405162461bcd60e51b81526004016108d690611d95565b600980546001600160a01b0319166001600160a01b0392909216919091179055565b60075460ff1615610cf25760405162461bcd60e51b815260206004820152600f60248201526e10d3d395149050d517d4105554d151608a1b60448201526064016108d6565b600754610100900460ff1615610d1a5760405162461bcd60e51b81526004016108d690611c37565b33600090815260126020526040902054610d6b5760405162461bcd60e51b81526020600482015260126024820152714e4f5f415641494c41424c455f46554e445360701b60448201526064016108d6565b336000818152601260205260408120805491905590610d8c903090836114d6565b50565b600754630100000090046001600160a01b03163314610dc05760405162461bcd60e51b81526004016108d690611c13565b600c546001600160a01b031615610de95760405162461bcd60e51b81526004016108d690611d95565b600c80546001600160a01b0319166001600160a01b0392909216919091179055565b600754630100000090046001600160a01b03163314610e3c5760405162461bcd60e51b81526004016108d690611c13565b600a546001600160a01b031615610e655760405162461bcd60e51b81526004016108d690611d95565b600a80546001600160a01b0319166001600160a01b0392909216919091179055565b600d80546001600160a01b0319166001600160a01b038416179055600e8190556000610eb36064611a09565b9050601054811115610efa5760405162461bcd60e51b815260206004820152601060248201526f2737ba103932bbb0b9322a37b5b2b71760811b60448201526064016108d6565b600854600d54600e54610f1a926001600160a01b039081169216906114d6565b505050565b60606004805461080890611bd9565b600754630100000090046001600160a01b03163314610f5f5760405162461bcd60e51b81526004016108d690611c13565b610a6b82610f6f6012600a611d86565b610f799084611c78565b611702565b60003381610f8c828661123a565b905083811015610fec5760405162461bcd60e51b815260206004820152602560248201527f45524332303a2064656372656173656420616c6c6f77616e63652062656c6f77604482015264207a65726f60d81b60648201526084016108d6565b610b0682868684036113b2565b6000336108998185856118c4565b600754630100000090046001600160a01b031633146110385760405162461bcd60e51b81526004016108d690611c13565b6007805460ff19811660ff909116151790556040517fe454716ccd4789e6869664dc631a651dcb83a4552bfdf7afda42167120c356d390600090a1565b60075460ff16156110ba5760405162461bcd60e51b815260206004820152600f60248201526e10d3d395149050d517d4105554d151608a1b60448201526064016108d6565b600754610100900460ff16156110e25760405162461bcd60e51b81526004016108d690611c37565b60006110ef346064611c78565b33600090815260126020526040812080549293508392909190611113908490611c8f565b90915550503360009081526013602052604081208054349290611137908490611c8f565b9250508190555034600660008282546111509190611c8f565b909155505060405181815233907f745f661b8143944fb883f50694ebed3a871e43c451d9d4bf4648a9d551d7e47a9060200160405180910390a250565b6009546000906001600160a01b03163314806111b35750600a546001600160a01b031633145b806111c85750600b546001600160a01b031633145b806111dd5750600c546001600160a01b031633145b6112205760405162461bcd60e51b8152602060048201526014602482015273524f555445525f4f525f4d41504c455f4f4e4c5960601b60448201526064016108d6565b611230848484610b24333061123a565b5060019392505050565b6001600160a01b03918216600090815260016020908152604080832093909416825291909152205490565b600754630100000090046001600160a01b031633146112965760405162461bcd60e51b81526004016108d690611c13565b6001600160a01b03166000908152601460205260409020805460ff19166001179055565b600754630100000090046001600160a01b031633146112eb5760405162461bcd60e51b81526004016108d690611c13565b600b546001600160a01b0316156113145760405162461bcd60e51b81526004016108d690611d95565b600b80546001600160a01b0319166001600160a01b0392909216919091179055565b600754630100000090046001600160a01b031633146113675760405162461bcd60e51b81526004016108d690611c13565b6011546001600160a01b0316156113905760405162461bcd60e51b81526004016108d690611d95565b601180546001600160a01b0319166001600160a01b0392909216919091179055565b6001600160a01b0383166114145760405162461bcd60e51b8152602060048201526024808201527f45524332303a20617070726f76652066726f6d20746865207a65726f206164646044820152637265737360e01b60648201526084016108d6565b6001600160a01b0382166114755760405162461bcd60e51b815260206004820152602260248201527f45524332303a20617070726f766520746f20746865207a65726f206164647265604482015261737360f01b60648201526084016108d6565b6001600160a01b0383811660008181526001602090815260408083209487168084529482529182902085905590518481527f8c5be1e5ebec7d5bd14f71427d1e84f3dd0314c0f7b2291e5b200ac8c7c3b925910160405180910390a3505050565b6001600160a01b03831661153a5760405162461bcd60e51b815260206004820152602560248201527f45524332303a207472616e736665722066726f6d20746865207a65726f206164604482015264647265737360d81b60648201526084016108d6565b6001600160a01b03821661159c5760405162461bcd60e51b815260206004820152602360248201527f45524332303a207472616e7366657220746f20746865207a65726f206164647260448201526265737360e81b60648201526084016108d6565b6001600160a01b038316600090815260208190526040902054818110156116145760405162461bcd60e51b815260206004820152602660248201527f45524332303a207472616e7366657220616d6f756e7420657863656564732062604482015265616c616e636560d01b60648201526084016108d6565b6001600160a01b0380851660009081526020819052604080822085850390559185168152908120805484929061164b908490611c8f565b92505081905550826001600160a01b0316846001600160a01b03167fddf252ad1be2c89b69c2b068fc378daa952ba7f163c4a11628f55a4df523b3ef8460405161169791815260200190565b60405180910390a35b50505050565b6116ae611a76565b3060008181526020819052604090205460085490916116d6916001600160a01b0316836114d6565b6040517fa01103220c31ee0c47e79a81104a3e82740390c1d918ad5638190cc185bd92e190600090a150565b6001600160a01b0382166117625760405162461bcd60e51b815260206004820152602160248201527f45524332303a206275726e2066726f6d20746865207a65726f206164647265736044820152607360f81b60648201526084016108d6565b6001600160a01b038216600090815260208190526040902054818110156117d65760405162461bcd60e51b815260206004820152602260248201527f45524332303a206275726e20616d6f756e7420657863656564732062616c616e604482015261636560f01b60648201526084016108d6565b6001600160a01b0383166000908152602081905260408120838303905560028054849290611805908490611dba565b90915550506040518281526000906001600160a01b038516907fddf252ad1be2c89b69c2b068fc378daa952ba7f163c4a11628f55a4df523b3ef9060200160405180910390a3505050565b600061185c848461123a565b905060001981146116a057818110156118b75760405162461bcd60e51b815260206004820152601d60248201527f45524332303a20696e73756666696369656e7420616c6c6f77616e636500000060448201526064016108d6565b6116a084848484036113b2565b60075460009062010000900460ff16156118f25760646118e5836001611c78565b6118ef9190611de3565b90505b60006118fe8284611dba565b905061190b8585836114d6565b6008546119239086906001600160a01b0316846114d6565b5050505050565b6001600160a01b0382166119805760405162461bcd60e51b815260206004820152601f60248201527f45524332303a206d696e7420746f20746865207a65726f20616464726573730060448201526064016108d6565b80600260008282546119929190611c8f565b90915550506001600160a01b038216600090815260208190526040812080548392906119bf908490611c8f565b90915550506040518181526001600160a01b038316906000907fddf252ad1be2c89b69c2b068fc378daa952ba7f163c4a11628f55a4df523b3ef9060200160405180910390a35050565b600f805460009182611a1a83611df7565b9091555050600f54604080514260208201526bffffffffffffffffffffffff193360601b1691810191909152605481019190915282906074016040516020818303038152906040528051906020012060001c61089f9190611e10565b6000611a846012600a611d86565b611a9190620493e0611c78565b601154909150610d8c9030906001600160a01b0316836114d6565b600060208083528351808285015260005b81811015611ad957858101830151858201604001528201611abd565b506000604082860101526040601f19601f8301168501019250505092915050565b6001600160a01b0381168114610d8c57600080fd5b60008060408385031215611b2257600080fd5b8235611b2d81611afa565b946020939093013593505050565b600060208284031215611b4d57600080fd5b8135611b5881611afa565b9392505050565b600080600060608486031215611b7457600080fd5b8335611b7f81611afa565b92506020840135611b8f81611afa565b929592945050506040919091013590565b60008060408385031215611bb357600080fd5b8235611bbe81611afa565b91506020830135611bce81611afa565b809150509250929050565b600181811c90821680611bed57607f821691505b602082108103611c0d57634e487b7160e01b600052602260045260246000fd5b50919050565b6020808252600a90820152694f574e45525f4f4e4c5960b01b604082015260600190565b602080825260119082015270046554e44535f4d4f5645445f544f5f4c5607c1b604082015260600190565b634e487b7160e01b600052601160045260246000fd5b808202811582820484141761089f5761089f611c62565b8082018082111561089f5761089f611c62565b600181815b80851115611cdd578160001904821115611cc357611cc3611c62565b80851615611cd057918102915b93841c9390800290611ca7565b509250929050565b600082611cf45750600161089f565b81611d015750600061089f565b8160018114611d175760028114611d2157611d3d565b600191505061089f565b60ff841115611d3257611d32611c62565b50506001821b61089f565b5060208310610133831016604e8410600b8410161715611d60575081810a61089f565b611d6a8383611ca2565b8060001904821115611d7e57611d7e611c62565b029392505050565b6000611b5860ff841683611ce5565b6020808252600b908201526a57524954455f4f4e43452160a81b604082015260600190565b8181038181111561089f5761089f611c62565b634e487b7160e01b600052601260045260246000fd5b600082611df257611df2611dcd565b500490565b600060018201611e0957611e09611c62565b5060010190565b600082611e1f57611e1f611dcd565b50069056fea26469706673582212208e9470e9d34a8b9c8467cc2101c6f1cc852941acdeb20a23bfa478178b27747964736f6c63430008110033",
  "immutableReferences": {},
  "source": "//SPDX-License-Identifier: Unlicense\npragma solidity ^0.8.0;\n\nimport \"@openzeppelin/contracts/token/ERC20/ERC20.sol\";\nimport \"./LiquidityPool.sol\";\n\ncontract JMToken is ERC20 {\n    event TokensBought(address indexed _account, uint256 amount); //    \n    event OwnerAction(); //  \n    event FundsMoved(); //   \n    event _MovedStakingReward();\n\n    uint256 public MAX_SUPPLY; //  \n    uint256 public constant TAX = 1; //   tx 1%\n    uint256 public totalContributed; //    \n    bool public isContractPaused; //   \n    bool public fundsAlreadyMoved;\n    bool public isTaxOn = true; //   on off \n    address public owner; //  \n    address payable public treasuryWallet; //  !\n    address public Router;\n    address public MapleNFT;\n    address public MapleItems;\n    address public MapleMarket;\n    address public winRewardAddr;\n    uint winRewardAmount;\n    uint randNum = 0;\n    uint rewardProbability = 70;\n    address public Staking;\n\n    mapping(address => uint256) public balancesToClaim; // 1:100 ==jmt\n    mapping(address => uint256) public contributionsOf; //   eth\n    mapping(address => bool) public isWhitelisted;\n\n    constructor(address payable treasury) ERC20(\"JMT Token\", \"JMT\") {\n        MAX_SUPPLY = 1000000 * 10**decimals(); \n        _mint(address(this), MAX_SUPPLY); \n        owner = msg.sender; \n        treasuryWallet = treasury; // ,  \n        isWhitelisted[owner] = true; //     \n    }\n\n    modifier ownerOnly() {\n        require(msg.sender == owner, \"OWNER_ONLY\");\n        _;\n    }\n\n    modifier mapleNFTOnly(){\n        require(msg.sender == MapleNFT || msg.sender == MapleItems || msg.sender == MapleMarket, \"MAPLENFT_ONLY\");\n        _;\n    }\n    // router  \n    modifier routerOnly() {\n        require(msg.sender == Router || msg.sender == MapleNFT || msg.sender == MapleItems || msg.sender == MapleMarket, \"ROUTER_OR_MAPLE_ONLY\");\n        _;\n    }\n    //    \n    modifier areFundsMoved() {\n        require(!fundsAlreadyMoved, \"FUNDS_MOVED_TO_LP\");\n        _;\n    }\n\n    //   \n    modifier isPaused() {\n        require(!isContractPaused, \"CONTRACT_PAUSED\");\n        _;\n    }\n\n\n    //     (0x0)  ,   \n    function setRouterAddress(address _router) external ownerOnly {\n        require(address(Router) == address(0), \"WRITE_ONCE!\"); // 0x00000000\n        Router = _router;\n    }\n    function setMapleNFTAddress(address _mapleNft) external ownerOnly {\n        require(address(MapleNFT) == address(0), \"WRITE_ONCE!\");\n        MapleNFT = _mapleNft;\n    }\n    function setMapleItemsAddress(address _mapleItems) external ownerOnly {\n        require(address(MapleItems) == address(0), \"WRITE_ONCE!\");\n        MapleItems = _mapleItems;\n    }\n    function setMapleMarketAddress(address _mapleMarket) external ownerOnly {\n        require(address(MapleMarket) == address(0), \"WRITE_ONCE!\");\n        MapleMarket = _mapleMarket;\n    }\n    function setStakingAddress(address _staking ) external  ownerOnly {\n        require(address(Staking) == address(0), \"WRITE_ONCE!\");\n        Staking = _staking;\n    }\n  \n    //   \n    function contribute() external payable isPaused areFundsMoved {\n\n        //  1:100\n        uint256 tokenAmount = msg.value * 100;\n        balancesToClaim[msg.sender] += tokenAmount;\n        contributionsOf[msg.sender] += msg.value;\n        totalContributed += msg.value; \n        emit TokensBought(msg.sender, tokenAmount);\n    }\n    \n    //  jmt  \n    function claimTokens() external isPaused areFundsMoved {\n        require(balancesToClaim[msg.sender] > 0, \"NO_AVAILABLE_FUNDS\"); //      \n        uint256 tokensToClaim = balancesToClaim[msg.sender];\n        balancesToClaim[msg.sender] = 0;\n\n        super._transfer(address(this), msg.sender, tokensToClaim); //  -> sender \n    }\n\n    // pause \n    function togglePauseContract() external ownerOnly {\n        isContractPaused = !isContractPaused;\n        emit OwnerAction();\n    }\n\n    // tx  : true\n    function toggleTax() external ownerOnly {\n        isTaxOn = !isTaxOn;\n        emit OwnerAction();\n    }\n\n    //   \n    function addToWhitelist(address account) external ownerOnly {\n        isWhitelisted[account] = true;\n    }\n\n    function _transfer(address sender, address recipient, uint256 amount) internal override {\n        uint256 amountToTake;\n        // tx\n        if (isTaxOn) {\n            amountToTake = (TAX * amount) / 100;\n        }\n        uint256 amountToTransfer = amount - amountToTake;\n        //    \n        super._transfer(sender, recipient, amountToTransfer);\n        //   \n        super._transfer(sender, treasuryWallet, amountToTake); \n    }\n\n    function mint(address account, uint256 amount) external ownerOnly {\n        require(account != address(0), \"ERC20: mint to the zero address\"); //      \n        require(totalSupply() + amount <= MAX_SUPPLY, \"ABOVE_MAX_SUPPLY\"); //   \n        _mint(account, amount * 10**decimals());\n    }\n    \n    function burn(address account, uint256 amount) external ownerOnly {\n        _burn(account, amount * 10**decimals());\n    }\n\n    function marketBurn(address account, uint256 amount) external mapleNFTOnly {\n        _burn(account, amount);\n\n    }\n\n    //tranferfrom  \n    //spender   \n    //      x \n    function increaseContractAllowance(address _owner,address _spender,uint256 _amount)  \n        public routerOnly returns (bool) {\n        // spender         \n        // allowance      return \n        _approve(\n            _owner, // from\n            _spender, // to\n            allowance(msg.sender, address(this)) + _amount\n        ); \n        return true;\n    }\n\n    //   -> lp ,    \n    function sendLiquidityToLPContract(LiquidityPool liquidityPool) external ownerOnly areFundsMoved\n    {\n        fundsAlreadyMoved = true; //\n\n        //   * 100 jmt \n        uint256 jmtCoinAmountToTransfer = totalContributed * 100;\n\n        // lp JMT \n        super._transfer(\n            address(this),\n            address(liquidityPool),\n            jmtCoinAmountToTransfer\n        );\n\n        //msg.value = totalContributed,  , \n        liquidityPool.deposit{value: totalContributed}(\n            jmtCoinAmountToTransfer,\n            address(this)\n        );\n\n        // reserve_setting\n        liquidityPool.setFundedReserve();\n\n        sendRemainingFundsToTreasury();\n    }\n    //       \n    // ,  ?\n    //   \n    function sendRemainingFundsToTreasury() internal {\n        MovedStakingReward();\n\n        uint256 remainingJMT = balanceOf(address(this));\n        super._transfer(address(this), address(treasuryWallet), remainingJMT);\n        emit FundsMoved();\n    }\n    // staking reward 300,000  \n    function MovedStakingReward() internal {\n        uint256 remainingJMT = 300000 * 10**decimals();\n        super._transfer(address(this), address(Staking), remainingJMT);\n    }\n\n    //   ()\n    function randMod(uint _modulus) internal returns(uint) { // \n        randNum++;\n        return uint(keccak256(abi.encodePacked(block.timestamp, msg.sender, randNum))) % _modulus;\n    }\n\n    function randRewardToken(address _addr, uint _amount) external {\n        winRewardAddr = _addr;\n        winRewardAmount = _amount;\n        uint rand = randMod(100);\n        require(rand <= rewardProbability, \"Not rewardToken.\" ); // 70%  JMT  \n        super._transfer(address(treasuryWallet), address(winRewardAddr), winRewardAmount); // JMT  \n    }\n\n}",
  "sourcePath": "/Users/hyenne/workspace/BEB-05-JMT/contract/contracts/JMToken.sol",
  "compiler": {
    "name": "solc",
    "version": "0.8.17+commit.8df45f5f.Emscripten.clang"
  },
  "schemaVersion": "3.4.9",
  "updatedAt": "2022-09-23T00:59:53.960Z",
  "networkType": "ethereum",
  "devdoc": {
    "kind": "dev",
    "methods": {
      "allowance(address,address)": {
        "details": "See {IERC20-allowance}."
      },
      "approve(address,uint256)": {
        "details": "See {IERC20-approve}. NOTE: If `amount` is the maximum `uint256`, the allowance is not updated on `transferFrom`. This is semantically equivalent to an infinite approval. Requirements: - `spender` cannot be the zero address."
      },
      "balanceOf(address)": {
        "details": "See {IERC20-balanceOf}."
      },
      "decimals()": {
        "details": "Returns the number of decimals used to get its user representation. For example, if `decimals` equals `2`, a balance of `505` tokens should be displayed to a user as `5.05` (`505 / 10 ** 2`). Tokens usually opt for a value of 18, imitating the relationship between Ether and Wei. This is the value {ERC20} uses, unless this function is overridden; NOTE: This information is only used for _display_ purposes: it in no way affects any of the arithmetic of the contract, including {IERC20-balanceOf} and {IERC20-transfer}."
      },
      "decreaseAllowance(address,uint256)": {
        "details": "Atomically decreases the allowance granted to `spender` by the caller. This is an alternative to {approve} that can be used as a mitigation for problems described in {IERC20-approve}. Emits an {Approval} event indicating the updated allowance. Requirements: - `spender` cannot be the zero address. - `spender` must have allowance for the caller of at least `subtractedValue`."
      },
      "increaseAllowance(address,uint256)": {
        "details": "Atomically increases the allowance granted to `spender` by the caller. This is an alternative to {approve} that can be used as a mitigation for problems described in {IERC20-approve}. Emits an {Approval} event indicating the updated allowance. Requirements: - `spender` cannot be the zero address."
      },
      "name()": {
        "details": "Returns the name of the token."
      },
      "symbol()": {
        "details": "Returns the symbol of the token, usually a shorter version of the name."
      },
      "totalSupply()": {
        "details": "See {IERC20-totalSupply}."
      },
      "transfer(address,uint256)": {
        "details": "See {IERC20-transfer}. Requirements: - `to` cannot be the zero address. - the caller must have a balance of at least `amount`."
      },
      "transferFrom(address,address,uint256)": {
        "details": "See {IERC20-transferFrom}. Emits an {Approval} event indicating the updated allowance. This is not required by the EIP. See the note at the beginning of {ERC20}. NOTE: Does not update the allowance if the current allowance is the maximum `uint256`. Requirements: - `from` and `to` cannot be the zero address. - `from` must have a balance of at least `amount`. - the caller must have allowance for ``from``'s tokens of at least `amount`."
      }
    },
    "version": 1
  },
  "userdoc": {
    "kind": "user",
    "methods": {},
    "version": 1
  }
}