{
  "contractName": "JMToken",
  "abi": [
    {
      "inputs": [
        {
          "internalType": "address payable",
          "name": "treasury",
          "type": "address"
        }
      ],
      "stateMutability": "nonpayable",
      "type": "constructor"
    },
    {
      "anonymous": false,
      "inputs": [
        {
          "indexed": true,
          "internalType": "address",
          "name": "owner",
          "type": "address"
        },
        {
          "indexed": true,
          "internalType": "address",
          "name": "spender",
          "type": "address"
        },
        {
          "indexed": false,
          "internalType": "uint256",
          "name": "value",
          "type": "uint256"
        }
      ],
      "name": "Approval",
      "type": "event"
    },
    {
      "anonymous": false,
      "inputs": [],
      "name": "FundsMoved",
      "type": "event"
    },
    {
      "anonymous": false,
      "inputs": [],
      "name": "OwnerAction",
      "type": "event"
    },
    {
      "anonymous": false,
      "inputs": [
        {
          "indexed": true,
          "internalType": "address",
          "name": "_account",
          "type": "address"
        },
        {
          "indexed": false,
          "internalType": "uint256",
          "name": "amount",
          "type": "uint256"
        }
      ],
      "name": "TokensBought",
      "type": "event"
    },
    {
      "anonymous": false,
      "inputs": [
        {
          "indexed": true,
          "internalType": "address",
          "name": "from",
          "type": "address"
        },
        {
          "indexed": true,
          "internalType": "address",
          "name": "to",
          "type": "address"
        },
        {
          "indexed": false,
          "internalType": "uint256",
          "name": "value",
          "type": "uint256"
        }
      ],
      "name": "Transfer",
      "type": "event"
    },
    {
      "anonymous": false,
      "inputs": [],
      "name": "_MovedStakingReward",
      "type": "event"
    },
    {
      "inputs": [],
      "name": "MAX_SUPPLY",
      "outputs": [
        {
          "internalType": "uint256",
          "name": "",
          "type": "uint256"
        }
      ],
      "stateMutability": "view",
      "type": "function",
      "constant": true
    },
    {
      "inputs": [],
      "name": "MapleItems",
      "outputs": [
        {
          "internalType": "address",
          "name": "",
          "type": "address"
        }
      ],
      "stateMutability": "view",
      "type": "function",
      "constant": true
    },
    {
      "inputs": [],
      "name": "MapleNFT",
      "outputs": [
        {
          "internalType": "address",
          "name": "",
          "type": "address"
        }
      ],
      "stateMutability": "view",
      "type": "function",
      "constant": true
    },
    {
      "inputs": [],
      "name": "Router",
      "outputs": [
        {
          "internalType": "address",
          "name": "",
          "type": "address"
        }
      ],
      "stateMutability": "view",
      "type": "function",
      "constant": true
    },
    {
      "inputs": [],
      "name": "Staking",
      "outputs": [
        {
          "internalType": "address",
          "name": "",
          "type": "address"
        }
      ],
      "stateMutability": "view",
      "type": "function",
      "constant": true
    },
    {
      "inputs": [],
      "name": "TAX",
      "outputs": [
        {
          "internalType": "uint256",
          "name": "",
          "type": "uint256"
        }
      ],
      "stateMutability": "view",
      "type": "function",
      "constant": true
    },
    {
      "inputs": [
        {
          "internalType": "address",
          "name": "owner",
          "type": "address"
        },
        {
          "internalType": "address",
          "name": "spender",
          "type": "address"
        }
      ],
      "name": "allowance",
      "outputs": [
        {
          "internalType": "uint256",
          "name": "",
          "type": "uint256"
        }
      ],
      "stateMutability": "view",
      "type": "function",
      "constant": true
    },
    {
      "inputs": [
        {
          "internalType": "address",
          "name": "spender",
          "type": "address"
        },
        {
          "internalType": "uint256",
          "name": "amount",
          "type": "uint256"
        }
      ],
      "name": "approve",
      "outputs": [
        {
          "internalType": "bool",
          "name": "",
          "type": "bool"
        }
      ],
      "stateMutability": "nonpayable",
      "type": "function"
    },
    {
      "inputs": [
        {
          "internalType": "address",
          "name": "account",
          "type": "address"
        }
      ],
      "name": "balanceOf",
      "outputs": [
        {
          "internalType": "uint256",
          "name": "",
          "type": "uint256"
        }
      ],
      "stateMutability": "view",
      "type": "function",
      "constant": true
    },
    {
      "inputs": [
        {
          "internalType": "address",
          "name": "",
          "type": "address"
        }
      ],
      "name": "balancesToClaim",
      "outputs": [
        {
          "internalType": "uint256",
          "name": "",
          "type": "uint256"
        }
      ],
      "stateMutability": "view",
      "type": "function",
      "constant": true
    },
    {
      "inputs": [
        {
          "internalType": "address",
          "name": "",
          "type": "address"
        }
      ],
      "name": "contributionsOf",
      "outputs": [
        {
          "internalType": "uint256",
          "name": "",
          "type": "uint256"
        }
      ],
      "stateMutability": "view",
      "type": "function",
      "constant": true
    },
    {
      "inputs": [],
      "name": "decimals",
      "outputs": [
        {
          "internalType": "uint8",
          "name": "",
          "type": "uint8"
        }
      ],
      "stateMutability": "view",
      "type": "function",
      "constant": true
    },
    {
      "inputs": [
        {
          "internalType": "address",
          "name": "spender",
          "type": "address"
        },
        {
          "internalType": "uint256",
          "name": "subtractedValue",
          "type": "uint256"
        }
      ],
      "name": "decreaseAllowance",
      "outputs": [
        {
          "internalType": "bool",
          "name": "",
          "type": "bool"
        }
      ],
      "stateMutability": "nonpayable",
      "type": "function"
    },
    {
      "inputs": [],
      "name": "fundsAlreadyMoved",
      "outputs": [
        {
          "internalType": "bool",
          "name": "",
          "type": "bool"
        }
      ],
      "stateMutability": "view",
      "type": "function",
      "constant": true
    },
    {
      "inputs": [
        {
          "internalType": "address",
          "name": "spender",
          "type": "address"
        },
        {
          "internalType": "uint256",
          "name": "addedValue",
          "type": "uint256"
        }
      ],
      "name": "increaseAllowance",
      "outputs": [
        {
          "internalType": "bool",
          "name": "",
          "type": "bool"
        }
      ],
      "stateMutability": "nonpayable",
      "type": "function"
    },
    {
      "inputs": [],
      "name": "isContractPaused",
      "outputs": [
        {
          "internalType": "bool",
          "name": "",
          "type": "bool"
        }
      ],
      "stateMutability": "view",
      "type": "function",
      "constant": true
    },
    {
      "inputs": [],
      "name": "isTaxOn",
      "outputs": [
        {
          "internalType": "bool",
          "name": "",
          "type": "bool"
        }
      ],
      "stateMutability": "view",
      "type": "function",
      "constant": true
    },
    {
      "inputs": [
        {
          "internalType": "address",
          "name": "",
          "type": "address"
        }
      ],
      "name": "isWhitelisted",
      "outputs": [
        {
          "internalType": "bool",
          "name": "",
          "type": "bool"
        }
      ],
      "stateMutability": "view",
      "type": "function",
      "constant": true
    },
    {
      "inputs": [],
      "name": "name",
      "outputs": [
        {
          "internalType": "string",
          "name": "",
          "type": "string"
        }
      ],
      "stateMutability": "view",
      "type": "function",
      "constant": true
    },
    {
      "inputs": [],
      "name": "owner",
      "outputs": [
        {
          "internalType": "address",
          "name": "",
          "type": "address"
        }
      ],
      "stateMutability": "view",
      "type": "function",
      "constant": true
    },
    {
      "inputs": [],
      "name": "symbol",
      "outputs": [
        {
          "internalType": "string",
          "name": "",
          "type": "string"
        }
      ],
      "stateMutability": "view",
      "type": "function",
      "constant": true
    },
    {
      "inputs": [],
      "name": "totalContributed",
      "outputs": [
        {
          "internalType": "uint256",
          "name": "",
          "type": "uint256"
        }
      ],
      "stateMutability": "view",
      "type": "function",
      "constant": true
    },
    {
      "inputs": [],
      "name": "totalSupply",
      "outputs": [
        {
          "internalType": "uint256",
          "name": "",
          "type": "uint256"
        }
      ],
      "stateMutability": "view",
      "type": "function",
      "constant": true
    },
    {
      "inputs": [
        {
          "internalType": "address",
          "name": "to",
          "type": "address"
        },
        {
          "internalType": "uint256",
          "name": "amount",
          "type": "uint256"
        }
      ],
      "name": "transfer",
      "outputs": [
        {
          "internalType": "bool",
          "name": "",
          "type": "bool"
        }
      ],
      "stateMutability": "nonpayable",
      "type": "function"
    },
    {
      "inputs": [
        {
          "internalType": "address",
          "name": "from",
          "type": "address"
        },
        {
          "internalType": "address",
          "name": "to",
          "type": "address"
        },
        {
          "internalType": "uint256",
          "name": "amount",
          "type": "uint256"
        }
      ],
      "name": "transferFrom",
      "outputs": [
        {
          "internalType": "bool",
          "name": "",
          "type": "bool"
        }
      ],
      "stateMutability": "nonpayable",
      "type": "function"
    },
    {
      "inputs": [],
      "name": "treasuryWallet",
      "outputs": [
        {
          "internalType": "address payable",
          "name": "",
          "type": "address"
        }
      ],
      "stateMutability": "view",
      "type": "function",
      "constant": true
    },
    {
      "inputs": [],
      "name": "winRewardAddr",
      "outputs": [
        {
          "internalType": "address",
          "name": "",
          "type": "address"
        }
      ],
      "stateMutability": "view",
      "type": "function",
      "constant": true
    },
    {
      "inputs": [
        {
          "internalType": "address",
          "name": "_router",
          "type": "address"
        }
      ],
      "name": "setRouterAddress",
      "outputs": [],
      "stateMutability": "nonpayable",
      "type": "function"
    },
    {
      "inputs": [
        {
          "internalType": "address",
          "name": "_mapleNft",
          "type": "address"
        }
      ],
      "name": "setMapleNFTAddress",
      "outputs": [],
      "stateMutability": "nonpayable",
      "type": "function"
    },
    {
      "inputs": [
        {
          "internalType": "address",
          "name": "_mapleItems",
          "type": "address"
        }
      ],
      "name": "setMapleItemsAddress",
      "outputs": [],
      "stateMutability": "nonpayable",
      "type": "function"
    },
    {
      "inputs": [
        {
          "internalType": "address",
          "name": "_staking",
          "type": "address"
        }
      ],
      "name": "setStakingAddress",
      "outputs": [],
      "stateMutability": "nonpayable",
      "type": "function"
    },
    {
      "inputs": [],
      "name": "contribute",
      "outputs": [],
      "stateMutability": "payable",
      "type": "function",
      "payable": true
    },
    {
      "inputs": [],
      "name": "claimTokens",
      "outputs": [],
      "stateMutability": "nonpayable",
      "type": "function"
    },
    {
      "inputs": [],
      "name": "togglePauseContract",
      "outputs": [],
      "stateMutability": "nonpayable",
      "type": "function"
    },
    {
      "inputs": [],
      "name": "toggleTax",
      "outputs": [],
      "stateMutability": "nonpayable",
      "type": "function"
    },
    {
      "inputs": [
        {
          "internalType": "address",
          "name": "account",
          "type": "address"
        }
      ],
      "name": "addToWhitelist",
      "outputs": [],
      "stateMutability": "nonpayable",
      "type": "function"
    },
    {
      "inputs": [
        {
          "internalType": "address",
          "name": "account",
          "type": "address"
        },
        {
          "internalType": "uint256",
          "name": "amount",
          "type": "uint256"
        }
      ],
      "name": "mint",
      "outputs": [],
      "stateMutability": "nonpayable",
      "type": "function"
    },
    {
      "inputs": [
        {
          "internalType": "address",
          "name": "account",
          "type": "address"
        },
        {
          "internalType": "uint256",
          "name": "amount",
          "type": "uint256"
        }
      ],
      "name": "burn",
      "outputs": [],
      "stateMutability": "nonpayable",
      "type": "function"
    },
    {
      "inputs": [
        {
          "internalType": "address",
          "name": "account",
          "type": "address"
        },
        {
          "internalType": "uint256",
          "name": "amount",
          "type": "uint256"
        }
      ],
      "name": "marketBurn",
      "outputs": [],
      "stateMutability": "nonpayable",
      "type": "function"
    },
    {
      "inputs": [
        {
          "internalType": "address",
          "name": "_owner",
          "type": "address"
        },
        {
          "internalType": "address",
          "name": "_spender",
          "type": "address"
        },
        {
          "internalType": "uint256",
          "name": "_amount",
          "type": "uint256"
        }
      ],
      "name": "increaseContractAllowance",
      "outputs": [
        {
          "internalType": "bool",
          "name": "",
          "type": "bool"
        }
      ],
      "stateMutability": "nonpayable",
      "type": "function"
    },
    {
      "inputs": [
        {
          "internalType": "contract LiquidityPool",
          "name": "liquidityPool",
          "type": "address"
        }
      ],
      "name": "sendLiquidityToLPContract",
      "outputs": [],
      "stateMutability": "nonpayable",
      "type": "function"
    },
    {
      "inputs": [
        {
          "internalType": "address",
          "name": "_addr",
          "type": "address"
        },
        {
          "internalType": "uint256",
          "name": "_amount",
          "type": "uint256"
        }
      ],
      "name": "randRewardToken",
      "outputs": [],
      "stateMutability": "nonpayable",
      "type": "function"
    }
  ],
  "bytecode": "0x60806040526001600760026101000a81548160ff0219169083151502179055506000600e556046600f553480156200003657600080fd5b50604051620048003803806200480083398181016040528101906200005c91906200042e565b6040518060400160405280600981526020017f4a4d5420546f6b656e00000000000000000000000000000000000000000000008152506040518060400160405280600381526020017f4a4d5400000000000000000000000000000000000000000000000000000000008152508160039081620000d99190620006da565b508060049081620000eb9190620006da565b505050620000fe6200023960201b60201c565b600a6200010c919062000951565b620f42406200011c9190620009a2565b60058190555062000136306005546200024260201b60201c565b33600760036101000a81548173ffffffffffffffffffffffffffffffffffffffff021916908373ffffffffffffffffffffffffffffffffffffffff16021790555080600860006101000a81548173ffffffffffffffffffffffffffffffffffffffff021916908373ffffffffffffffffffffffffffffffffffffffff160217905550600160136000600760039054906101000a900473ffffffffffffffffffffffffffffffffffffffff1673ffffffffffffffffffffffffffffffffffffffff1673ffffffffffffffffffffffffffffffffffffffff16815260200190815260200160002060006101000a81548160ff0219169083151502179055505062000ad9565b60006012905090565b600073ffffffffffffffffffffffffffffffffffffffff168273ffffffffffffffffffffffffffffffffffffffff1603620002b4576040517f08c379a0000000000000000000000000000000000000000000000000000000008152600401620002ab9062000a4e565b60405180910390fd5b620002c860008383620003ba60201b60201c565b8060026000828254620002dc919062000a70565b92505081905550806000808473ffffffffffffffffffffffffffffffffffffffff1673ffffffffffffffffffffffffffffffffffffffff168152602001908152602001600020600082825462000333919062000a70565b925050819055508173ffffffffffffffffffffffffffffffffffffffff16600073ffffffffffffffffffffffffffffffffffffffff167fddf252ad1be2c89b69c2b068fc378daa952ba7f163c4a11628f55a4df523b3ef836040516200039a919062000abc565b60405180910390a3620003b660008383620003bf60201b60201c565b5050565b505050565b505050565b600080fd5b600073ffffffffffffffffffffffffffffffffffffffff82169050919050565b6000620003f682620003c9565b9050919050565b6200040881620003e9565b81146200041457600080fd5b50565b6000815190506200042881620003fd565b92915050565b600060208284031215620004475762000446620003c4565b5b6000620004578482850162000417565b91505092915050565b600081519050919050565b7f4e487b7100000000000000000000000000000000000000000000000000000000600052604160045260246000fd5b7f4e487b7100000000000000000000000000000000000000000000000000000000600052602260045260246000fd5b60006002820490506001821680620004e257607f821691505b602082108103620004f857620004f76200049a565b5b50919050565b60008190508160005260206000209050919050565b60006020601f8301049050919050565b600082821b905092915050565b600060088302620005627fffffffffffffffffffffffffffffffffffffffffffffffffffffffffffffffff8262000523565b6200056e868362000523565b95508019841693508086168417925050509392505050565b6000819050919050565b6000819050919050565b6000620005bb620005b5620005af8462000586565b62000590565b62000586565b9050919050565b6000819050919050565b620005d7836200059a565b620005ef620005e682620005c2565b84845462000530565b825550505050565b600090565b62000606620005f7565b62000613818484620005cc565b505050565b5b818110156200063b576200062f600082620005fc565b60018101905062000619565b5050565b601f8211156200068a576200065481620004fe565b6200065f8462000513565b810160208510156200066f578190505b620006876200067e8562000513565b83018262000618565b50505b505050565b600082821c905092915050565b6000620006af600019846008026200068f565b1980831691505092915050565b6000620006ca83836200069c565b9150826002028217905092915050565b620006e58262000460565b67ffffffffffffffff8111156200070157620007006200046b565b5b6200070d8254620004c9565b6200071a8282856200063f565b600060209050601f8311600181146200075257600084156200073d578287015190505b620007498582620006bc565b865550620007b9565b601f1984166200076286620004fe565b60005b828110156200078c5784890151825560018201915060208501945060208101905062000765565b86831015620007ac5784890151620007a8601f8916826200069c565b8355505b6001600288020188555050505b505050505050565b7f4e487b7100000000000000000000000000000000000000000000000000000000600052601160045260246000fd5b60008160011c9050919050565b6000808291508390505b60018511156200084f57808604811115620008275762000826620007c1565b5b6001851615620008375780820291505b80810290506200084785620007f0565b945062000807565b94509492505050565b6000826200086a57600190506200093d565b816200087a57600090506200093d565b81600181146200089357600281146200089e57620008d4565b60019150506200093d565b60ff841115620008b357620008b2620007c1565b5b8360020a915084821115620008cd57620008cc620007c1565b5b506200093d565b5060208310610133831016604e8410600b84101617156200090e5782820a905083811115620009085762000907620007c1565b5b6200093d565b6200091d8484846001620007fd565b92509050818404811115620009375762000936620007c1565b5b81810290505b9392505050565b600060ff82169050919050565b60006200095e8262000586565b91506200096b8362000944565b92506200099a7fffffffffffffffffffffffffffffffffffffffffffffffffffffffffffffffff848462000858565b905092915050565b6000620009af8262000586565b9150620009bc8362000586565b9250828202620009cc8162000586565b91508282048414831517620009e657620009e5620007c1565b5b5092915050565b600082825260208201905092915050565b7f45524332303a206d696e7420746f20746865207a65726f206164647265737300600082015250565b600062000a36601f83620009ed565b915062000a4382620009fe565b602082019050919050565b6000602082019050818103600083015262000a698162000a27565b9050919050565b600062000a7d8262000586565b915062000a8a8362000586565b925082820190508082111562000aa55762000aa4620007c1565b5b92915050565b62000ab68162000586565b82525050565b600060208201905062000ad3600083018462000aab565b92915050565b613d178062000ae96000396000f3fe6080604052600436106102515760003560e01c80636eefec1111610139578063be07d17d116100b6578063e43252d71161007a578063e43252d7146108bd578063ec71ef89146108e6578063f4ab29281461090f578063f4e0d9ac1461093a578063f57df22e14610963578063f6d7eade1461098e57610251565b8063be07d17d146107f7578063d1cabc3514610822578063d7bb99ba14610839578063d83a2bf314610843578063dd62ed3e1461088057610251565b806395d89b41116100fd57806395d89b41146106ec5780639dc29fac14610717578063a457c2d714610740578063a9059cbb1461077d578063b70f21c7146107ba57610251565b80636eefec111461060757806370a0823114610632578063839254601461066f57806385b1fb8e146106985780638da5cb5b146106c157610251565b806332cb6b0c116101d257806341cb87fc1161019657806341cb87fc1461051b5780634626402b1461054457806346c586c21461056f57806348c54b9d1461059a57806365acacfe146105b157806368f58b03146105dc57610251565b806332cb6b0c14610410578063395093511461043b5780633af0dbc1146104785780633af32abf146104b557806340c10f19146104f257610251565b806318160ddd1161021957806318160ddd146103295780631b9631fc146103545780631d057bd91461037f57806323b872dd146103a8578063313ce567146103e557610251565b8063023f41471461025657806306fdde0314610281578063095ea7b3146102ac57806310bf6029146102e95780631690bb4e14610300575b600080fd5b34801561026257600080fd5b5061026b6109b9565b6040516102789190612bb4565b60405180910390f35b34801561028d57600080fd5b506102966109bf565b6040516102a39190612c5f565b60405180910390f35b3480156102b857600080fd5b506102d360048036038101906102ce9190612d10565b610a51565b6040516102e09190612d6b565b60405180910390f35b3480156102f557600080fd5b506102fe610a74565b005b34801561030c57600080fd5b5061032760048036038101906103229190612dc4565b610b5c565b005b34801561033557600080fd5b5061033e610d51565b60405161034b9190612bb4565b60405180910390f35b34801561036057600080fd5b50610369610d5b565b6040516103769190612e00565b60405180910390f35b34801561038b57600080fd5b506103a660048036038101906103a19190612d10565b610d81565b005b3480156103b457600080fd5b506103cf60048036038101906103ca9190612e1b565b610e77565b6040516103dc9190612d6b565b60405180910390f35b3480156103f157600080fd5b506103fa610ea6565b6040516104079190612e8a565b60405180910390f35b34801561041c57600080fd5b50610425610eaf565b6040516104329190612bb4565b60405180910390f35b34801561044757600080fd5b50610462600480360381019061045d9190612d10565b610eb5565b60405161046f9190612d6b565b60405180910390f35b34801561048457600080fd5b5061049f600480360381019061049a9190612ea5565b610eec565b6040516104ac9190612bb4565b60405180910390f35b3480156104c157600080fd5b506104dc60048036038101906104d79190612ea5565b610f04565b6040516104e99190612d6b565b60405180910390f35b3480156104fe57600080fd5b5061051960048036038101906105149190612d10565b610f24565b005b34801561052757600080fd5b50610542600480360381019061053d9190612ea5565b6110a6565b005b34801561055057600080fd5b5061055961120b565b6040516105669190612ef3565b60405180910390f35b34801561057b57600080fd5b50610584611231565b6040516105919190612e00565b60405180910390f35b3480156105a657600080fd5b506105af611257565b005b3480156105bd57600080fd5b506105c6611410565b6040516105d39190612d6b565b60405180910390f35b3480156105e857600080fd5b506105f1611423565b6040516105fe9190612bb4565b60405180910390f35b34801561061357600080fd5b5061061c611428565b6040516106299190612e00565b60405180910390f35b34801561063e57600080fd5b5061065960048036038101906106549190612ea5565b61144e565b6040516106669190612bb4565b60405180910390f35b34801561067b57600080fd5b5061069660048036038101906106919190612ea5565b611496565b005b3480156106a457600080fd5b506106bf60048036038101906106ba9190612d10565b6115fb565b005b3480156106cd57600080fd5b506106d66116ec565b6040516106e39190612e00565b60405180910390f35b3480156106f857600080fd5b50610701611712565b60405161070e9190612c5f565b60405180910390f35b34801561072357600080fd5b5061073e60048036038101906107399190612d10565b6117a4565b005b34801561074c57600080fd5b5061076760048036038101906107629190612d10565b611860565b6040516107749190612d6b565b60405180910390f35b34801561078957600080fd5b506107a4600480360381019061079f9190612d10565b6118d7565b6040516107b19190612d6b565b60405180910390f35b3480156107c657600080fd5b506107e160048036038101906107dc9190612ea5565b6118fa565b6040516107ee9190612bb4565b60405180910390f35b34801561080357600080fd5b5061080c611912565b6040516108199190612d6b565b60405180910390f35b34801561082e57600080fd5b50610837611925565b005b610841611a0d565b005b34801561084f57600080fd5b5061086a60048036038101906108659190612e1b565b611bd4565b6040516108779190612d6b565b60405180910390f35b34801561088c57600080fd5b506108a760048036038101906108a29190612f0e565b611d40565b6040516108b49190612bb4565b60405180910390f35b3480156108c957600080fd5b506108e460048036038101906108df9190612ea5565b611dc7565b005b3480156108f257600080fd5b5061090d60048036038101906109089190612ea5565b611eb2565b005b34801561091b57600080fd5b50610924612017565b6040516109319190612d6b565b60405180910390f35b34801561094657600080fd5b50610961600480360381019061095c9190612ea5565b61202a565b005b34801561096f57600080fd5b5061097861218f565b6040516109859190612e00565b60405180910390f35b34801561099a57600080fd5b506109a36121b5565b6040516109b09190612e00565b60405180910390f35b60065481565b6060600380546109ce90612f7d565b80601f01602080910402602001604051908101604052809291908181526020018280546109fa90612f7d565b8015610a475780601f10610a1c57610100808354040283529160200191610a47565b820191906000526020600020905b815481529060010190602001808311610a2a57829003601f168201915b5050505050905090565b600080610a5c6121db565b9050610a698185856121e3565b600191505092915050565b600760039054906101000a900473ffffffffffffffffffffffffffffffffffffffff1673ffffffffffffffffffffffffffffffffffffffff163373ffffffffffffffffffffffffffffffffffffffff1614610b04576040517f08c379a0000000000000000000000000000000000000000000000000000000008152600401610afb90612ffa565b60405180910390fd5b600760029054906101000a900460ff1615600760026101000a81548160ff0219169083151502179055507fe454716ccd4789e6869664dc631a651dcb83a4552bfdf7afda42167120c356d360405160405180910390a1565b600760039054906101000a900473ffffffffffffffffffffffffffffffffffffffff1673ffffffffffffffffffffffffffffffffffffffff163373ffffffffffffffffffffffffffffffffffffffff1614610bec576040517f08c379a0000000000000000000000000000000000000000000000000000000008152600401610be390612ffa565b60405180910390fd5b600760019054906101000a900460ff1615610c3c576040517f08c379a0000000000000000000000000000000000000000000000000000000008152600401610c3390613066565b60405180910390fd5b6001600760016101000a81548160ff02191690831515021790555060006064600654610c6891906130b5565b9050610c753083836123ac565b8173ffffffffffffffffffffffffffffffffffffffff16636e553f6560065483306040518463ffffffff1660e01b8152600401610cb39291906130f7565b6000604051808303818588803b158015610ccc57600080fd5b505af1158015610ce0573d6000803e3d6000fd5b50505050508173ffffffffffffffffffffffffffffffffffffffff16632770d9016040518163ffffffff1660e01b8152600401600060405180830381600087803b158015610d2d57600080fd5b505af1158015610d41573d6000803e3d6000fd5b50505050610d4d61262b565b5050565b6000600254905090565b600a60009054906101000a900473ffffffffffffffffffffffffffffffffffffffff1681565b600a60009054906101000a900473ffffffffffffffffffffffffffffffffffffffff1673ffffffffffffffffffffffffffffffffffffffff163373ffffffffffffffffffffffffffffffffffffffff161480610e2a5750600b60009054906101000a900473ffffffffffffffffffffffffffffffffffffffff1673ffffffffffffffffffffffffffffffffffffffff163373ffffffffffffffffffffffffffffffffffffffff16145b610e69576040517f08c379a0000000000000000000000000000000000000000000000000000000008152600401610e609061316c565b60405180910390fd5b610e73828261269c565b5050565b600080610e826121db565b9050610e8f858285612872565b610e9a8585856128fe565b60019150509392505050565b60006012905090565b60055481565b600080610ec06121db565b9050610ee1818585610ed28589611d40565b610edc919061318c565b6121e3565b600191505092915050565b60126020528060005260406000206000915090505481565b60136020528060005260406000206000915054906101000a900460ff1681565b600760039054906101000a900473ffffffffffffffffffffffffffffffffffffffff1673ffffffffffffffffffffffffffffffffffffffff163373ffffffffffffffffffffffffffffffffffffffff1614610fb4576040517f08c379a0000000000000000000000000000000000000000000000000000000008152600401610fab90612ffa565b60405180910390fd5b600073ffffffffffffffffffffffffffffffffffffffff168273ffffffffffffffffffffffffffffffffffffffff1603611023576040517f08c379a000000000000000000000000000000000000000000000000000000000815260040161101a9061320c565b60405180910390fd5b6005548161102f610d51565b611039919061318c565b111561107a576040517f08c379a000000000000000000000000000000000000000000000000000000000815260040161107190613278565b60405180910390fd5b6110a282611086610ea6565b600a61109291906133cb565b8361109d91906130b5565b612980565b5050565b600760039054906101000a900473ffffffffffffffffffffffffffffffffffffffff1673ffffffffffffffffffffffffffffffffffffffff163373ffffffffffffffffffffffffffffffffffffffff1614611136576040517f08c379a000000000000000000000000000000000000000000000000000000000815260040161112d90612ffa565b60405180910390fd5b600073ffffffffffffffffffffffffffffffffffffffff16600960009054906101000a900473ffffffffffffffffffffffffffffffffffffffff1673ffffffffffffffffffffffffffffffffffffffff16146111c7576040517f08c379a00000000000000000000000000000000000000000000000000000000081526004016111be90613462565b60405180910390fd5b80600960006101000a81548173ffffffffffffffffffffffffffffffffffffffff021916908373ffffffffffffffffffffffffffffffffffffffff16021790555050565b600860009054906101000a900473ffffffffffffffffffffffffffffffffffffffff1681565b600c60009054906101000a900473ffffffffffffffffffffffffffffffffffffffff1681565b600760009054906101000a900460ff16156112a7576040517f08c379a000000000000000000000000000000000000000000000000000000000815260040161129e906134ce565b60405180910390fd5b600760019054906101000a900460ff16156112f7576040517f08c379a00000000000000000000000000000000000000000000000000000000081526004016112ee90613066565b60405180910390fd5b6000601160003373ffffffffffffffffffffffffffffffffffffffff1673ffffffffffffffffffffffffffffffffffffffff1681526020019081526020016000205411611379576040517f08c379a00000000000000000000000000000000000000000000000000000000081526004016113709061353a565b60405180910390fd5b6000601160003373ffffffffffffffffffffffffffffffffffffffff1673ffffffffffffffffffffffffffffffffffffffff1681526020019081526020016000205490506000601160003373ffffffffffffffffffffffffffffffffffffffff1673ffffffffffffffffffffffffffffffffffffffff1681526020019081526020016000208190555061140d3033836123ac565b50565b600760019054906101000a900460ff1681565b600181565b600b60009054906101000a900473ffffffffffffffffffffffffffffffffffffffff1681565b60008060008373ffffffffffffffffffffffffffffffffffffffff1673ffffffffffffffffffffffffffffffffffffffff168152602001908152602001600020549050919050565b600760039054906101000a900473ffffffffffffffffffffffffffffffffffffffff1673ffffffffffffffffffffffffffffffffffffffff163373ffffffffffffffffffffffffffffffffffffffff1614611526576040517f08c379a000000000000000000000000000000000000000000000000000000000815260040161151d90612ffa565b60405180910390fd5b600073ffffffffffffffffffffffffffffffffffffffff16600a60009054906101000a900473ffffffffffffffffffffffffffffffffffffffff1673ffffffffffffffffffffffffffffffffffffffff16146115b7576040517f08c379a00000000000000000000000000000000000000000000000000000000081526004016115ae90613462565b60405180910390fd5b80600a60006101000a81548173ffffffffffffffffffffffffffffffffffffffff021916908373ffffffffffffffffffffffffffffffffffffffff16021790555050565b81600c60006101000a81548173ffffffffffffffffffffffffffffffffffffffff021916908373ffffffffffffffffffffffffffffffffffffffff16021790555080600d81905550600061164f6064612adf565b9050600f54811115611696576040517f08c379a000000000000000000000000000000000000000000000000000000000815260040161168d906135a6565b60405180910390fd5b6116e7600860009054906101000a900473ffffffffffffffffffffffffffffffffffffffff16600c60009054906101000a900473ffffffffffffffffffffffffffffffffffffffff16600d546123ac565b505050565b600760039054906101000a900473ffffffffffffffffffffffffffffffffffffffff1681565b60606004805461172190612f7d565b80601f016020809104026020016040519081016040528092919081815260200182805461174d90612f7d565b801561179a5780601f1061176f5761010080835404028352916020019161179a565b820191906000526020600020905b81548152906001019060200180831161177d57829003601f168201915b5050505050905090565b600760039054906101000a900473ffffffffffffffffffffffffffffffffffffffff1673ffffffffffffffffffffffffffffffffffffffff163373ffffffffffffffffffffffffffffffffffffffff1614611834576040517f08c379a000000000000000000000000000000000000000000000000000000000815260040161182b90612ffa565b60405180910390fd5b61185c82611840610ea6565b600a61184c91906133cb565b8361185791906130b5565b61269c565b5050565b60008061186b6121db565b905060006118798286611d40565b9050838110156118be576040517f08c379a00000000000000000000000000000000000000000000000000000000081526004016118b590613638565b60405180910390fd5b6118cb82868684036121e3565b60019250505092915050565b6000806118e26121db565b90506118ef8185856128fe565b600191505092915050565b60116020528060005260406000206000915090505481565b600760029054906101000a900460ff1681565b600760039054906101000a900473ffffffffffffffffffffffffffffffffffffffff1673ffffffffffffffffffffffffffffffffffffffff163373ffffffffffffffffffffffffffffffffffffffff16146119b5576040517f08c379a00000000000000000000000000000000000000000000000000000000081526004016119ac90612ffa565b60405180910390fd5b600760009054906101000a900460ff1615600760006101000a81548160ff0219169083151502179055507fe454716ccd4789e6869664dc631a651dcb83a4552bfdf7afda42167120c356d360405160405180910390a1565b600760009054906101000a900460ff1615611a5d576040517f08c379a0000000000000000000000000000000000000000000000000000000008152600401611a54906134ce565b60405180910390fd5b600760019054906101000a900460ff1615611aad576040517f08c379a0000000000000000000000000000000000000000000000000000000008152600401611aa490613066565b60405180910390fd5b6000606434611abc91906130b5565b905080601160003373ffffffffffffffffffffffffffffffffffffffff1673ffffffffffffffffffffffffffffffffffffffff1681526020019081526020016000206000828254611b0d919061318c565b9250508190555034601260003373ffffffffffffffffffffffffffffffffffffffff1673ffffffffffffffffffffffffffffffffffffffff1681526020019081526020016000206000828254611b63919061318c565b925050819055503460066000828254611b7c919061318c565b925050819055503373ffffffffffffffffffffffffffffffffffffffff167f745f661b8143944fb883f50694ebed3a871e43c451d9d4bf4648a9d551d7e47a82604051611bc99190612bb4565b60405180910390a250565b6000600960009054906101000a900473ffffffffffffffffffffffffffffffffffffffff1673ffffffffffffffffffffffffffffffffffffffff163373ffffffffffffffffffffffffffffffffffffffff161480611c7f5750600a60009054906101000a900473ffffffffffffffffffffffffffffffffffffffff1673ffffffffffffffffffffffffffffffffffffffff163373ffffffffffffffffffffffffffffffffffffffff16145b80611cd75750600b60009054906101000a900473ffffffffffffffffffffffffffffffffffffffff1673ffffffffffffffffffffffffffffffffffffffff163373ffffffffffffffffffffffffffffffffffffffff16145b611d16576040517f08c379a0000000000000000000000000000000000000000000000000000000008152600401611d0d906136a4565b60405180910390fd5b611d35848484611d263330611d40565b611d30919061318c565b6121e3565b600190509392505050565b6000600160008473ffffffffffffffffffffffffffffffffffffffff1673ffffffffffffffffffffffffffffffffffffffff16815260200190815260200160002060008373ffffffffffffffffffffffffffffffffffffffff1673ffffffffffffffffffffffffffffffffffffffff16815260200190815260200160002054905092915050565b600760039054906101000a900473ffffffffffffffffffffffffffffffffffffffff1673ffffffffffffffffffffffffffffffffffffffff163373ffffffffffffffffffffffffffffffffffffffff1614611e57576040517f08c379a0000000000000000000000000000000000000000000000000000000008152600401611e4e90612ffa565b60405180910390fd5b6001601360008373ffffffffffffffffffffffffffffffffffffffff1673ffffffffffffffffffffffffffffffffffffffff16815260200190815260200160002060006101000a81548160ff02191690831515021790555050565b600760039054906101000a900473ffffffffffffffffffffffffffffffffffffffff1673ffffffffffffffffffffffffffffffffffffffff163373ffffffffffffffffffffffffffffffffffffffff1614611f42576040517f08c379a0000000000000000000000000000000000000000000000000000000008152600401611f3990612ffa565b60405180910390fd5b600073ffffffffffffffffffffffffffffffffffffffff16600b60009054906101000a900473ffffffffffffffffffffffffffffffffffffffff1673ffffffffffffffffffffffffffffffffffffffff1614611fd3576040517f08c379a0000000000000000000000000000000000000000000000000000000008152600401611fca90613462565b60405180910390fd5b80600b60006101000a81548173ffffffffffffffffffffffffffffffffffffffff021916908373ffffffffffffffffffffffffffffffffffffffff16021790555050565b600760009054906101000a900460ff1681565b600760039054906101000a900473ffffffffffffffffffffffffffffffffffffffff1673ffffffffffffffffffffffffffffffffffffffff163373ffffffffffffffffffffffffffffffffffffffff16146120ba576040517f08c379a00000000000000000000000000000000000000000000000000000000081526004016120b190612ffa565b60405180910390fd5b600073ffffffffffffffffffffffffffffffffffffffff16601060009054906101000a900473ffffffffffffffffffffffffffffffffffffffff1673ffffffffffffffffffffffffffffffffffffffff161461214b576040517f08c379a000000000000000000000000000000000000000000000000000000000815260040161214290613462565b60405180910390fd5b80601060006101000a81548173ffffffffffffffffffffffffffffffffffffffff021916908373ffffffffffffffffffffffffffffffffffffffff16021790555050565b601060009054906101000a900473ffffffffffffffffffffffffffffffffffffffff1681565b600960009054906101000a900473ffffffffffffffffffffffffffffffffffffffff1681565b600033905090565b600073ffffffffffffffffffffffffffffffffffffffff168373ffffffffffffffffffffffffffffffffffffffff1603612252576040517f08c379a000000000000000000000000000000000000000000000000000000000815260040161224990613736565b60405180910390fd5b600073ffffffffffffffffffffffffffffffffffffffff168273ffffffffffffffffffffffffffffffffffffffff16036122c1576040517f08c379a00000000000000000000000000000000000000000000000000000000081526004016122b8906137c8565b60405180910390fd5b80600160008573ffffffffffffffffffffffffffffffffffffffff1673ffffffffffffffffffffffffffffffffffffffff16815260200190815260200160002060008473ffffffffffffffffffffffffffffffffffffffff1673ffffffffffffffffffffffffffffffffffffffff168152602001908152602001600020819055508173ffffffffffffffffffffffffffffffffffffffff168373ffffffffffffffffffffffffffffffffffffffff167f8c5be1e5ebec7d5bd14f71427d1e84f3dd0314c0f7b2291e5b200ac8c7c3b9258360405161239f9190612bb4565b60405180910390a3505050565b600073ffffffffffffffffffffffffffffffffffffffff168373ffffffffffffffffffffffffffffffffffffffff160361241b576040517f08c379a00000000000000000000000000000000000000000000000000000000081526004016124129061385a565b60405180910390fd5b600073ffffffffffffffffffffffffffffffffffffffff168273ffffffffffffffffffffffffffffffffffffffff160361248a576040517f08c379a0000000000000000000000000000000000000000000000000000000008152600401612481906138ec565b60405180910390fd5b612495838383612b3b565b60008060008573ffffffffffffffffffffffffffffffffffffffff1673ffffffffffffffffffffffffffffffffffffffff1681526020019081526020016000205490508181101561251b576040517f08c379a00000000000000000000000000000000000000000000000000000000081526004016125129061397e565b60405180910390fd5b8181036000808673ffffffffffffffffffffffffffffffffffffffff1673ffffffffffffffffffffffffffffffffffffffff16815260200190815260200160002081905550816000808573ffffffffffffffffffffffffffffffffffffffff1673ffffffffffffffffffffffffffffffffffffffff16815260200190815260200160002060008282546125ae919061318c565b925050819055508273ffffffffffffffffffffffffffffffffffffffff168473ffffffffffffffffffffffffffffffffffffffff167fddf252ad1be2c89b69c2b068fc378daa952ba7f163c4a11628f55a4df523b3ef846040516126129190612bb4565b60405180910390a3612625848484612b40565b50505050565b612633612b45565b600061263e3061144e565b905061266d30600860009054906101000a900473ffffffffffffffffffffffffffffffffffffffff16836123ac565b7fa01103220c31ee0c47e79a81104a3e82740390c1d918ad5638190cc185bd92e160405160405180910390a150565b600073ffffffffffffffffffffffffffffffffffffffff168273ffffffffffffffffffffffffffffffffffffffff160361270b576040517f08c379a000000000000000000000000000000000000000000000000000000000815260040161270290613a10565b60405180910390fd5b61271782600083612b3b565b60008060008473ffffffffffffffffffffffffffffffffffffffff1673ffffffffffffffffffffffffffffffffffffffff1681526020019081526020016000205490508181101561279d576040517f08c379a000000000000000000000000000000000000000000000000000000000815260040161279490613aa2565b60405180910390fd5b8181036000808573ffffffffffffffffffffffffffffffffffffffff1673ffffffffffffffffffffffffffffffffffffffff1681526020019081526020016000208190555081600260008282546127f49190613ac2565b92505081905550600073ffffffffffffffffffffffffffffffffffffffff168373ffffffffffffffffffffffffffffffffffffffff167fddf252ad1be2c89b69c2b068fc378daa952ba7f163c4a11628f55a4df523b3ef846040516128599190612bb4565b60405180910390a361286d83600084612b40565b505050565b600061287e8484611d40565b90507fffffffffffffffffffffffffffffffffffffffffffffffffffffffffffffffff81146128f857818110156128ea576040517f08c379a00000000000000000000000000000000000000000000000000000000081526004016128e190613b42565b60405180910390fd5b6128f784848484036121e3565b5b50505050565b6000600760029054906101000a900460ff161561293157606482600161292491906130b5565b61292e9190613b91565b90505b6000818361293f9190613ac2565b905061294c8585836123ac565b61297985600860009054906101000a900473ffffffffffffffffffffffffffffffffffffffff16846123ac565b5050505050565b600073ffffffffffffffffffffffffffffffffffffffff168273ffffffffffffffffffffffffffffffffffffffff16036129ef576040517f08c379a00000000000000000000000000000000000000000000000000000000081526004016129e69061320c565b60405180910390fd5b6129fb60008383612b3b565b8060026000828254612a0d919061318c565b92505081905550806000808473ffffffffffffffffffffffffffffffffffffffff1673ffffffffffffffffffffffffffffffffffffffff1681526020019081526020016000206000828254612a62919061318c565b925050819055508173ffffffffffffffffffffffffffffffffffffffff16600073ffffffffffffffffffffffffffffffffffffffff167fddf252ad1be2c89b69c2b068fc378daa952ba7f163c4a11628f55a4df523b3ef83604051612ac79190612bb4565b60405180910390a3612adb60008383612b40565b5050565b6000600e6000815480929190612af490613bc2565b9190505550814233600e54604051602001612b1193929190613c73565b6040516020818303038152906040528051906020012060001c612b349190613cb0565b9050919050565b505050565b505050565b6000612b4f610ea6565b600a612b5b91906133cb565b620493e0612b6991906130b5565b9050612b9830601060009054906101000a900473ffffffffffffffffffffffffffffffffffffffff16836123ac565b50565b6000819050919050565b612bae81612b9b565b82525050565b6000602082019050612bc96000830184612ba5565b92915050565b600081519050919050565b600082825260208201905092915050565b60005b83811015612c09578082015181840152602081019050612bee565b60008484015250505050565b6000601f19601f8301169050919050565b6000612c3182612bcf565b612c3b8185612bda565b9350612c4b818560208601612beb565b612c5481612c15565b840191505092915050565b60006020820190508181036000830152612c798184612c26565b905092915050565b600080fd5b600073ffffffffffffffffffffffffffffffffffffffff82169050919050565b6000612cb182612c86565b9050919050565b612cc181612ca6565b8114612ccc57600080fd5b50565b600081359050612cde81612cb8565b92915050565b612ced81612b9b565b8114612cf857600080fd5b50565b600081359050612d0a81612ce4565b92915050565b60008060408385031215612d2757612d26612c81565b5b6000612d3585828601612ccf565b9250506020612d4685828601612cfb565b9150509250929050565b60008115159050919050565b612d6581612d50565b82525050565b6000602082019050612d806000830184612d5c565b92915050565b6000612d9182612ca6565b9050919050565b612da181612d86565b8114612dac57600080fd5b50565b600081359050612dbe81612d98565b92915050565b600060208284031215612dda57612dd9612c81565b5b6000612de884828501612daf565b91505092915050565b612dfa81612ca6565b82525050565b6000602082019050612e156000830184612df1565b92915050565b600080600060608486031215612e3457612e33612c81565b5b6000612e4286828701612ccf565b9350506020612e5386828701612ccf565b9250506040612e6486828701612cfb565b9150509250925092565b600060ff82169050919050565b612e8481612e6e565b82525050565b6000602082019050612e9f6000830184612e7b565b92915050565b600060208284031215612ebb57612eba612c81565b5b6000612ec984828501612ccf565b91505092915050565b6000612edd82612c86565b9050919050565b612eed81612ed2565b82525050565b6000602082019050612f086000830184612ee4565b92915050565b60008060408385031215612f2557612f24612c81565b5b6000612f3385828601612ccf565b9250506020612f4485828601612ccf565b9150509250929050565b7f4e487b7100000000000000000000000000000000000000000000000000000000600052602260045260246000fd5b60006002820490506001821680612f9557607f821691505b602082108103612fa857612fa7612f4e565b5b50919050565b7f4f574e45525f4f4e4c5900000000000000000000000000000000000000000000600082015250565b6000612fe4600a83612bda565b9150612fef82612fae565b602082019050919050565b6000602082019050818103600083015261301381612fd7565b9050919050565b7f46554e44535f4d4f5645445f544f5f4c50000000000000000000000000000000600082015250565b6000613050601183612bda565b915061305b8261301a565b602082019050919050565b6000602082019050818103600083015261307f81613043565b9050919050565b7f4e487b7100000000000000000000000000000000000000000000000000000000600052601160045260246000fd5b60006130c082612b9b565b91506130cb83612b9b565b92508282026130d981612b9b565b915082820484148315176130f0576130ef613086565b5b5092915050565b600060408201905061310c6000830185612ba5565b6131196020830184612df1565b9392505050565b7f4d41504c454e46545f4f4e4c5900000000000000000000000000000000000000600082015250565b6000613156600d83612bda565b915061316182613120565b602082019050919050565b6000602082019050818103600083015261318581613149565b9050919050565b600061319782612b9b565b91506131a283612b9b565b92508282019050808211156131ba576131b9613086565b5b92915050565b7f45524332303a206d696e7420746f20746865207a65726f206164647265737300600082015250565b60006131f6601f83612bda565b9150613201826131c0565b602082019050919050565b60006020820190508181036000830152613225816131e9565b9050919050565b7f41424f56455f4d41585f535550504c5900000000000000000000000000000000600082015250565b6000613262601083612bda565b915061326d8261322c565b602082019050919050565b6000602082019050818103600083015261329181613255565b9050919050565b60008160011c9050919050565b6000808291508390505b60018511156132ef578086048111156132cb576132ca613086565b5b60018516156132da5780820291505b80810290506132e885613298565b94506132af565b94509492505050565b60008261330857600190506133c4565b8161331657600090506133c4565b816001811461332c576002811461333657613365565b60019150506133c4565b60ff84111561334857613347613086565b5b8360020a91508482111561335f5761335e613086565b5b506133c4565b5060208310610133831016604e8410600b841016171561339a5782820a90508381111561339557613394613086565b5b6133c4565b6133a784848460016132a5565b925090508184048111156133be576133bd613086565b5b81810290505b9392505050565b60006133d682612b9b565b91506133e183612e6e565b925061340e7fffffffffffffffffffffffffffffffffffffffffffffffffffffffffffffffff84846132f8565b905092915050565b7f57524954455f4f4e434521000000000000000000000000000000000000000000600082015250565b600061344c600b83612bda565b915061345782613416565b602082019050919050565b6000602082019050818103600083015261347b8161343f565b9050919050565b7f434f4e54524143545f5041555345440000000000000000000000000000000000600082015250565b60006134b8600f83612bda565b91506134c382613482565b602082019050919050565b600060208201905081810360008301526134e7816134ab565b9050919050565b7f4e4f5f415641494c41424c455f46554e44530000000000000000000000000000600082015250565b6000613524601283612bda565b915061352f826134ee565b602082019050919050565b6000602082019050818103600083015261355381613517565b9050919050565b7f4e6f7420726577617264546f6b656e2e00000000000000000000000000000000600082015250565b6000613590601083612bda565b915061359b8261355a565b602082019050919050565b600060208201905081810360008301526135bf81613583565b9050919050565b7f45524332303a2064656372656173656420616c6c6f77616e63652062656c6f7760008201527f207a65726f000000000000000000000000000000000000000000000000000000602082015250565b6000613622602583612bda565b915061362d826135c6565b604082019050919050565b6000602082019050818103600083015261365181613615565b9050919050565b7f524f555445525f4f525f4d41504c455f4f4e4c59000000000000000000000000600082015250565b600061368e601483612bda565b915061369982613658565b602082019050919050565b600060208201905081810360008301526136bd81613681565b9050919050565b7f45524332303a20617070726f76652066726f6d20746865207a65726f2061646460008201527f7265737300000000000000000000000000000000000000000000000000000000602082015250565b6000613720602483612bda565b915061372b826136c4565b604082019050919050565b6000602082019050818103600083015261374f81613713565b9050919050565b7f45524332303a20617070726f766520746f20746865207a65726f20616464726560008201527f7373000000000000000000000000000000000000000000000000000000000000602082015250565b60006137b2602283612bda565b91506137bd82613756565b604082019050919050565b600060208201905081810360008301526137e1816137a5565b9050919050565b7f45524332303a207472616e736665722066726f6d20746865207a65726f20616460008201527f6472657373000000000000000000000000000000000000000000000000000000602082015250565b6000613844602583612bda565b915061384f826137e8565b604082019050919050565b6000602082019050818103600083015261387381613837565b9050919050565b7f45524332303a207472616e7366657220746f20746865207a65726f206164647260008201527f6573730000000000000000000000000000000000000000000000000000000000602082015250565b60006138d6602383612bda565b91506138e18261387a565b604082019050919050565b60006020820190508181036000830152613905816138c9565b9050919050565b7f45524332303a207472616e7366657220616d6f756e742065786365656473206260008201527f616c616e63650000000000000000000000000000000000000000000000000000602082015250565b6000613968602683612bda565b91506139738261390c565b604082019050919050565b600060208201905081810360008301526139978161395b565b9050919050565b7f45524332303a206275726e2066726f6d20746865207a65726f2061646472657360008201527f7300000000000000000000000000000000000000000000000000000000000000602082015250565b60006139fa602183612bda565b9150613a058261399e565b604082019050919050565b60006020820190508181036000830152613a29816139ed565b9050919050565b7f45524332303a206275726e20616d6f756e7420657863656564732062616c616e60008201527f6365000000000000000000000000000000000000000000000000000000000000602082015250565b6000613a8c602283612bda565b9150613a9782613a30565b604082019050919050565b60006020820190508181036000830152613abb81613a7f565b9050919050565b6000613acd82612b9b565b9150613ad883612b9b565b9250828203905081811115613af057613aef613086565b5b92915050565b7f45524332303a20696e73756666696369656e7420616c6c6f77616e6365000000600082015250565b6000613b2c601d83612bda565b9150613b3782613af6565b602082019050919050565b60006020820190508181036000830152613b5b81613b1f565b9050919050565b7f4e487b7100000000000000000000000000000000000000000000000000000000600052601260045260246000fd5b6000613b9c82612b9b565b9150613ba783612b9b565b925082613bb757613bb6613b62565b5b828204905092915050565b6000613bcd82612b9b565b91507fffffffffffffffffffffffffffffffffffffffffffffffffffffffffffffffff8203613bff57613bfe613086565b5b600182019050919050565b6000819050919050565b613c25613c2082612b9b565b613c0a565b82525050565b60008160601b9050919050565b6000613c4382613c2b565b9050919050565b6000613c5582613c38565b9050919050565b613c6d613c6882612ca6565b613c4a565b82525050565b6000613c7f8286613c14565b602082019150613c8f8285613c5c565b601482019150613c9f8284613c14565b602082019150819050949350505050565b6000613cbb82612b9b565b9150613cc683612b9b565b925082613cd657613cd5613b62565b5b82820690509291505056fea2646970667358221220c84e846316fc021abb478916945c217b923dd006a4a1260bb4d73363015a434564736f6c63430008110033",
  "immutableReferences": {},
  "source": "//SPDX-License-Identifier: Unlicense\npragma solidity ^0.8.0;\n\nimport \"@openzeppelin/contracts/token/ERC20/ERC20.sol\";\nimport \"./LiquidityPool.sol\";\n\ncontract JMToken is ERC20 {\n    event TokensBought(address indexed _account, uint256 amount); //    \n    event OwnerAction(); //  \n    event FundsMoved(); //   \n    event _MovedStakingReward();\n\n    uint256 public MAX_SUPPLY; //  \n    uint256 public constant TAX = 1; //   tx 1%\n    uint256 public totalContributed; //    \n    bool public isContractPaused; //   \n    bool public fundsAlreadyMoved;\n    bool public isTaxOn = true; //   on off \n    address public owner; //  \n    address payable public treasuryWallet; //  !\n    address public Router;\n    address public MapleNFT;\n    address public MapleItems;\n    address public winRewardAddr;\n    uint winRewardAmount;\n    uint randNum = 0;\n    uint rewardProbability = 70;\n    address public Staking;\n\n    mapping(address => uint256) public balancesToClaim; // 1:100 ==jmt\n    mapping(address => uint256) public contributionsOf; //   eth\n    mapping(address => bool) public isWhitelisted;\n\n    constructor(address payable treasury) ERC20(\"JMT Token\", \"JMT\") {\n        MAX_SUPPLY = 1000000 * 10**decimals(); \n        _mint(address(this), MAX_SUPPLY); \n        owner = msg.sender; \n        treasuryWallet = treasury; // ,  \n        isWhitelisted[owner] = true; //     \n    }\n\n    modifier ownerOnly() {\n        require(msg.sender == owner, \"OWNER_ONLY\");\n        _;\n    }\n\n    modifier mapleNFTOnly(){\n        require(msg.sender == MapleNFT || msg.sender == MapleItems, \"MAPLENFT_ONLY\");\n        _;\n    }\n    // router  \n    modifier routerOnly() {\n        require(msg.sender == Router || msg.sender == MapleNFT || msg.sender == MapleItems, \"ROUTER_OR_MAPLE_ONLY\");\n        _;\n    }\n    //    \n    modifier areFundsMoved() {\n        require(!fundsAlreadyMoved, \"FUNDS_MOVED_TO_LP\");\n        _;\n    }\n\n    //   \n    modifier isPaused() {\n        require(!isContractPaused, \"CONTRACT_PAUSED\");\n        _;\n    }\n\n\n    //     (0x0)  ,   \n    function setRouterAddress(address _router) external  ownerOnly {\n        require(address(Router) == address(0), \"WRITE_ONCE!\"); // 0x00000000\n        Router = _router;\n    }\n    function setMapleNFTAddress(address _mapleNft) external  ownerOnly {\n        require(address(MapleNFT) == address(0), \"WRITE_ONCE!\");\n        MapleNFT = _mapleNft;\n    }\n    function setMapleItemsAddress(address _mapleItems ) external  ownerOnly {\n        require(address(MapleItems) == address(0), \"WRITE_ONCE!\");\n        MapleItems = _mapleItems;\n    }\n    function setStakingAddress(address _staking ) external  ownerOnly {\n        require(address(Staking) == address(0), \"WRITE_ONCE!\");\n        Staking = _staking;\n    }\n  \n    //   \n    function contribute() external payable isPaused areFundsMoved {\n\n        //  1:100\n        uint256 tokenAmount = msg.value * 100;\n        balancesToClaim[msg.sender] += tokenAmount;\n        contributionsOf[msg.sender] += msg.value;\n        totalContributed += msg.value; \n        emit TokensBought(msg.sender, tokenAmount);\n    }\n    \n    //  jmt  \n    function claimTokens() external isPaused areFundsMoved {\n        require(balancesToClaim[msg.sender] > 0, \"NO_AVAILABLE_FUNDS\"); //      \n        uint256 tokensToClaim = balancesToClaim[msg.sender];\n        balancesToClaim[msg.sender] = 0;\n\n        super._transfer(address(this), msg.sender, tokensToClaim); //  -> sender \n    }\n\n    // pause \n    function togglePauseContract() external ownerOnly {\n        isContractPaused = !isContractPaused;\n        emit OwnerAction();\n    }\n\n    // tx  : true\n    function toggleTax() external ownerOnly {\n        isTaxOn = !isTaxOn;\n        emit OwnerAction();\n    }\n\n    //   \n    function addToWhitelist(address account) external ownerOnly {\n        isWhitelisted[account] = true;\n    }\n\n    function _transfer(address sender, address recipient, uint256 amount) internal override {\n        uint256 amountToTake;\n        // tx\n        if (isTaxOn) {\n            amountToTake = (TAX * amount) / 100;\n        }\n        uint256 amountToTransfer = amount - amountToTake;\n        //    \n        super._transfer(sender, recipient, amountToTransfer);\n        //   \n        super._transfer(sender, treasuryWallet, amountToTake); \n    }\n\n    function mint(address account, uint256 amount) external ownerOnly {\n        require(account != address(0), \"ERC20: mint to the zero address\"); //      \n        require(totalSupply() + amount <= MAX_SUPPLY, \"ABOVE_MAX_SUPPLY\"); //   \n        _mint(account, amount * 10**decimals());\n    }\n    \n    function burn(address account, uint256 amount) external ownerOnly {\n        _burn(account, amount * 10**decimals());\n    }\n\n    function marketBurn(address account, uint256 amount) external mapleNFTOnly {\n        _burn(account, amount);\n\n    }\n\n    //tranferfrom  \n    //spender   \n    //      x \n    function increaseContractAllowance(address _owner,address _spender,uint256 _amount)  \n        public routerOnly returns (bool) {\n        // spender         \n        // allowance      return \n        _approve(\n            _owner, // from\n            _spender, // to\n            allowance(msg.sender, address(this)) + _amount\n        ); \n        return true;\n    }\n\n    //   -> lp ,    \n    function sendLiquidityToLPContract(LiquidityPool liquidityPool) external ownerOnly areFundsMoved\n    {\n        fundsAlreadyMoved = true; //\n\n        //   * 100 jmt \n        uint256 jmtCoinAmountToTransfer = totalContributed * 100;\n\n        // lp JMT \n        super._transfer(\n            address(this),\n            address(liquidityPool),\n            jmtCoinAmountToTransfer\n        );\n\n        //msg.value = totalContributed,  , \n        liquidityPool.deposit{value: totalContributed}(\n            jmtCoinAmountToTransfer,\n            address(this)\n        );\n\n        // reserve_setting\n        liquidityPool.setFundedReserve();\n\n        sendRemainingFundsToTreasury();\n    }\n    //       \n    // ,  ?\n    //   \n    function sendRemainingFundsToTreasury() internal {\n        MovedStakingReward();\n\n        uint256 remainingJMT = balanceOf(address(this));\n        super._transfer(address(this), address(treasuryWallet), remainingJMT);\n        emit FundsMoved();\n    }\n    // staking reward 300,000  \n    function MovedStakingReward() internal {\n        uint256 remainingJMT = 300000 * 10**decimals();\n        super._transfer(address(this), address(Staking), remainingJMT);\n    }\n\n    //   ()\n    function randMod(uint _modulus) internal returns(uint) { // \n        randNum++;\n        return uint(keccak256(abi.encodePacked(block.timestamp, msg.sender, randNum))) % _modulus;\n    }\n\n    function randRewardToken(address _addr, uint _amount) external {\n        winRewardAddr = _addr;\n        winRewardAmount = _amount;\n        uint rand = randMod(100);\n        require(rand <= rewardProbability, \"Not rewardToken.\" ); // 70%  JMT  \n        super._transfer(address(treasuryWallet), address(winRewardAddr), winRewardAmount); // JMT  \n    }\n\n}",
  "sourcePath": "/Users/king/BEB-05-JMT/contract/contracts/JMToken.sol",
  "compiler": {
    "name": "solc",
    "version": "0.8.17+commit.8df45f5f.Emscripten.clang"
  },
  "schemaVersion": "3.4.9",
  "updatedAt": "2022-09-20T13:22:29.734Z",
  "networkType": "ethereum",
  "devdoc": {
    "kind": "dev",
    "methods": {
      "allowance(address,address)": {
        "details": "See {IERC20-allowance}."
      },
      "approve(address,uint256)": {
        "details": "See {IERC20-approve}. NOTE: If `amount` is the maximum `uint256`, the allowance is not updated on `transferFrom`. This is semantically equivalent to an infinite approval. Requirements: - `spender` cannot be the zero address."
      },
      "balanceOf(address)": {
        "details": "See {IERC20-balanceOf}."
      },
      "decimals()": {
        "details": "Returns the number of decimals used to get its user representation. For example, if `decimals` equals `2`, a balance of `505` tokens should be displayed to a user as `5.05` (`505 / 10 ** 2`). Tokens usually opt for a value of 18, imitating the relationship between Ether and Wei. This is the value {ERC20} uses, unless this function is overridden; NOTE: This information is only used for _display_ purposes: it in no way affects any of the arithmetic of the contract, including {IERC20-balanceOf} and {IERC20-transfer}."
      },
      "decreaseAllowance(address,uint256)": {
        "details": "Atomically decreases the allowance granted to `spender` by the caller. This is an alternative to {approve} that can be used as a mitigation for problems described in {IERC20-approve}. Emits an {Approval} event indicating the updated allowance. Requirements: - `spender` cannot be the zero address. - `spender` must have allowance for the caller of at least `subtractedValue`."
      },
      "increaseAllowance(address,uint256)": {
        "details": "Atomically increases the allowance granted to `spender` by the caller. This is an alternative to {approve} that can be used as a mitigation for problems described in {IERC20-approve}. Emits an {Approval} event indicating the updated allowance. Requirements: - `spender` cannot be the zero address."
      },
      "name()": {
        "details": "Returns the name of the token."
      },
      "symbol()": {
        "details": "Returns the symbol of the token, usually a shorter version of the name."
      },
      "totalSupply()": {
        "details": "See {IERC20-totalSupply}."
      },
      "transfer(address,uint256)": {
        "details": "See {IERC20-transfer}. Requirements: - `to` cannot be the zero address. - the caller must have a balance of at least `amount`."
      },
      "transferFrom(address,address,uint256)": {
        "details": "See {IERC20-transferFrom}. Emits an {Approval} event indicating the updated allowance. This is not required by the EIP. See the note at the beginning of {ERC20}. NOTE: Does not update the allowance if the current allowance is the maximum `uint256`. Requirements: - `from` and `to` cannot be the zero address. - `from` must have a balance of at least `amount`. - the caller must have allowance for ``from``'s tokens of at least `amount`."
      }
    },
    "version": 1
  },
  "userdoc": {
    "kind": "user",
    "methods": {},
    "version": 1
  }
}