{
  "contractName": "JMToken",
  "abi": [
    {
      "inputs": [
        {
          "internalType": "address payable",
          "name": "treasury",
          "type": "address"
        }
      ],
      "stateMutability": "nonpayable",
      "type": "constructor"
    },
    {
      "anonymous": false,
      "inputs": [
        {
          "indexed": true,
          "internalType": "address",
          "name": "owner",
          "type": "address"
        },
        {
          "indexed": true,
          "internalType": "address",
          "name": "spender",
          "type": "address"
        },
        {
          "indexed": false,
          "internalType": "uint256",
          "name": "value",
          "type": "uint256"
        }
      ],
      "name": "Approval",
      "type": "event"
    },
    {
      "anonymous": false,
      "inputs": [],
      "name": "FundsMoved",
      "type": "event"
    },
    {
      "anonymous": false,
      "inputs": [],
      "name": "OwnerAction",
      "type": "event"
    },
    {
      "anonymous": false,
      "inputs": [
        {
          "indexed": false,
          "internalType": "bool",
          "name": "result",
          "type": "bool"
        }
      ],
      "name": "TokenRewarded",
      "type": "event"
    },
    {
      "anonymous": false,
      "inputs": [
        {
          "indexed": true,
          "internalType": "address",
          "name": "_account",
          "type": "address"
        },
        {
          "indexed": false,
          "internalType": "uint256",
          "name": "amount",
          "type": "uint256"
        }
      ],
      "name": "TokensBought",
      "type": "event"
    },
    {
      "anonymous": false,
      "inputs": [
        {
          "indexed": true,
          "internalType": "address",
          "name": "from",
          "type": "address"
        },
        {
          "indexed": true,
          "internalType": "address",
          "name": "to",
          "type": "address"
        },
        {
          "indexed": false,
          "internalType": "uint256",
          "name": "value",
          "type": "uint256"
        }
      ],
      "name": "Transfer",
      "type": "event"
    },
    {
      "anonymous": false,
      "inputs": [],
      "name": "_MovedStakingReward",
      "type": "event"
    },
    {
      "inputs": [],
      "name": "MAX_SUPPLY",
      "outputs": [
        {
          "internalType": "uint256",
          "name": "",
          "type": "uint256"
        }
      ],
      "stateMutability": "view",
      "type": "function",
      "constant": true
    },
    {
      "inputs": [],
      "name": "MapleItems",
      "outputs": [
        {
          "internalType": "address",
          "name": "",
          "type": "address"
        }
      ],
      "stateMutability": "view",
      "type": "function",
      "constant": true
    },
    {
      "inputs": [],
      "name": "MapleMarket",
      "outputs": [
        {
          "internalType": "address",
          "name": "",
          "type": "address"
        }
      ],
      "stateMutability": "view",
      "type": "function",
      "constant": true
    },
    {
      "inputs": [],
      "name": "MapleNFT",
      "outputs": [
        {
          "internalType": "address",
          "name": "",
          "type": "address"
        }
      ],
      "stateMutability": "view",
      "type": "function",
      "constant": true
    },
    {
      "inputs": [],
      "name": "MapleUser",
      "outputs": [
        {
          "internalType": "address",
          "name": "",
          "type": "address"
        }
      ],
      "stateMutability": "view",
      "type": "function",
      "constant": true
    },
    {
      "inputs": [],
      "name": "Router",
      "outputs": [
        {
          "internalType": "address",
          "name": "",
          "type": "address"
        }
      ],
      "stateMutability": "view",
      "type": "function",
      "constant": true
    },
    {
      "inputs": [],
      "name": "Staking",
      "outputs": [
        {
          "internalType": "address",
          "name": "",
          "type": "address"
        }
      ],
      "stateMutability": "view",
      "type": "function",
      "constant": true
    },
    {
      "inputs": [],
      "name": "TAX",
      "outputs": [
        {
          "internalType": "uint256",
          "name": "",
          "type": "uint256"
        }
      ],
      "stateMutability": "view",
      "type": "function",
      "constant": true
    },
    {
      "inputs": [
        {
          "internalType": "address",
          "name": "owner",
          "type": "address"
        },
        {
          "internalType": "address",
          "name": "spender",
          "type": "address"
        }
      ],
      "name": "allowance",
      "outputs": [
        {
          "internalType": "uint256",
          "name": "",
          "type": "uint256"
        }
      ],
      "stateMutability": "view",
      "type": "function",
      "constant": true
    },
    {
      "inputs": [
        {
          "internalType": "address",
          "name": "spender",
          "type": "address"
        },
        {
          "internalType": "uint256",
          "name": "amount",
          "type": "uint256"
        }
      ],
      "name": "approve",
      "outputs": [
        {
          "internalType": "bool",
          "name": "",
          "type": "bool"
        }
      ],
      "stateMutability": "nonpayable",
      "type": "function"
    },
    {
      "inputs": [
        {
          "internalType": "address",
          "name": "account",
          "type": "address"
        }
      ],
      "name": "balanceOf",
      "outputs": [
        {
          "internalType": "uint256",
          "name": "",
          "type": "uint256"
        }
      ],
      "stateMutability": "view",
      "type": "function",
      "constant": true
    },
    {
      "inputs": [
        {
          "internalType": "address",
          "name": "",
          "type": "address"
        }
      ],
      "name": "balancesToClaim",
      "outputs": [
        {
          "internalType": "uint256",
          "name": "",
          "type": "uint256"
        }
      ],
      "stateMutability": "view",
      "type": "function",
      "constant": true
    },
    {
      "inputs": [
        {
          "internalType": "address",
          "name": "",
          "type": "address"
        }
      ],
      "name": "contributionsOf",
      "outputs": [
        {
          "internalType": "uint256",
          "name": "",
          "type": "uint256"
        }
      ],
      "stateMutability": "view",
      "type": "function",
      "constant": true
    },
    {
      "inputs": [],
      "name": "decimals",
      "outputs": [
        {
          "internalType": "uint8",
          "name": "",
          "type": "uint8"
        }
      ],
      "stateMutability": "view",
      "type": "function",
      "constant": true
    },
    {
      "inputs": [
        {
          "internalType": "address",
          "name": "spender",
          "type": "address"
        },
        {
          "internalType": "uint256",
          "name": "subtractedValue",
          "type": "uint256"
        }
      ],
      "name": "decreaseAllowance",
      "outputs": [
        {
          "internalType": "bool",
          "name": "",
          "type": "bool"
        }
      ],
      "stateMutability": "nonpayable",
      "type": "function"
    },
    {
      "inputs": [],
      "name": "fundsAlreadyMoved",
      "outputs": [
        {
          "internalType": "bool",
          "name": "",
          "type": "bool"
        }
      ],
      "stateMutability": "view",
      "type": "function",
      "constant": true
    },
    {
      "inputs": [
        {
          "internalType": "address",
          "name": "spender",
          "type": "address"
        },
        {
          "internalType": "uint256",
          "name": "addedValue",
          "type": "uint256"
        }
      ],
      "name": "increaseAllowance",
      "outputs": [
        {
          "internalType": "bool",
          "name": "",
          "type": "bool"
        }
      ],
      "stateMutability": "nonpayable",
      "type": "function"
    },
    {
      "inputs": [],
      "name": "isContractPaused",
      "outputs": [
        {
          "internalType": "bool",
          "name": "",
          "type": "bool"
        }
      ],
      "stateMutability": "view",
      "type": "function",
      "constant": true
    },
    {
      "inputs": [],
      "name": "isTaxOn",
      "outputs": [
        {
          "internalType": "bool",
          "name": "",
          "type": "bool"
        }
      ],
      "stateMutability": "view",
      "type": "function",
      "constant": true
    },
    {
      "inputs": [
        {
          "internalType": "address",
          "name": "",
          "type": "address"
        }
      ],
      "name": "isWhitelisted",
      "outputs": [
        {
          "internalType": "bool",
          "name": "",
          "type": "bool"
        }
      ],
      "stateMutability": "view",
      "type": "function",
      "constant": true
    },
    {
      "inputs": [],
      "name": "name",
      "outputs": [
        {
          "internalType": "string",
          "name": "",
          "type": "string"
        }
      ],
      "stateMutability": "view",
      "type": "function",
      "constant": true
    },
    {
      "inputs": [],
      "name": "owner",
      "outputs": [
        {
          "internalType": "address",
          "name": "",
          "type": "address"
        }
      ],
      "stateMutability": "view",
      "type": "function",
      "constant": true
    },
    {
      "inputs": [],
      "name": "symbol",
      "outputs": [
        {
          "internalType": "string",
          "name": "",
          "type": "string"
        }
      ],
      "stateMutability": "view",
      "type": "function",
      "constant": true
    },
    {
      "inputs": [],
      "name": "totalContributed",
      "outputs": [
        {
          "internalType": "uint256",
          "name": "",
          "type": "uint256"
        }
      ],
      "stateMutability": "view",
      "type": "function",
      "constant": true
    },
    {
      "inputs": [],
      "name": "totalSupply",
      "outputs": [
        {
          "internalType": "uint256",
          "name": "",
          "type": "uint256"
        }
      ],
      "stateMutability": "view",
      "type": "function",
      "constant": true
    },
    {
      "inputs": [
        {
          "internalType": "address",
          "name": "to",
          "type": "address"
        },
        {
          "internalType": "uint256",
          "name": "amount",
          "type": "uint256"
        }
      ],
      "name": "transfer",
      "outputs": [
        {
          "internalType": "bool",
          "name": "",
          "type": "bool"
        }
      ],
      "stateMutability": "nonpayable",
      "type": "function"
    },
    {
      "inputs": [
        {
          "internalType": "address",
          "name": "from",
          "type": "address"
        },
        {
          "internalType": "address",
          "name": "to",
          "type": "address"
        },
        {
          "internalType": "uint256",
          "name": "amount",
          "type": "uint256"
        }
      ],
      "name": "transferFrom",
      "outputs": [
        {
          "internalType": "bool",
          "name": "",
          "type": "bool"
        }
      ],
      "stateMutability": "nonpayable",
      "type": "function"
    },
    {
      "inputs": [],
      "name": "treasuryWallet",
      "outputs": [
        {
          "internalType": "address payable",
          "name": "",
          "type": "address"
        }
      ],
      "stateMutability": "view",
      "type": "function",
      "constant": true
    },
    {
      "inputs": [],
      "name": "winRewardAddr",
      "outputs": [
        {
          "internalType": "address",
          "name": "",
          "type": "address"
        }
      ],
      "stateMutability": "view",
      "type": "function",
      "constant": true
    },
    {
      "inputs": [
        {
          "internalType": "address",
          "name": "_router",
          "type": "address"
        }
      ],
      "name": "setRouterAddress",
      "outputs": [],
      "stateMutability": "nonpayable",
      "type": "function"
    },
    {
      "inputs": [
        {
          "internalType": "address",
          "name": "_mapleNft",
          "type": "address"
        }
      ],
      "name": "setMapleNFTAddress",
      "outputs": [],
      "stateMutability": "nonpayable",
      "type": "function"
    },
    {
      "inputs": [
        {
          "internalType": "address",
          "name": "_mapleItems",
          "type": "address"
        }
      ],
      "name": "setMapleItemsAddress",
      "outputs": [],
      "stateMutability": "nonpayable",
      "type": "function"
    },
    {
      "inputs": [
        {
          "internalType": "address",
          "name": "_mapleMarket",
          "type": "address"
        }
      ],
      "name": "setMapleMarketAddress",
      "outputs": [],
      "stateMutability": "nonpayable",
      "type": "function"
    },
    {
      "inputs": [
        {
          "internalType": "address",
          "name": "_mapleUser",
          "type": "address"
        }
      ],
      "name": "setMapleUserAddress",
      "outputs": [],
      "stateMutability": "nonpayable",
      "type": "function"
    },
    {
      "inputs": [
        {
          "internalType": "address",
          "name": "_staking",
          "type": "address"
        }
      ],
      "name": "setStakingAddress",
      "outputs": [],
      "stateMutability": "nonpayable",
      "type": "function"
    },
    {
      "inputs": [],
      "name": "contribute",
      "outputs": [],
      "stateMutability": "payable",
      "type": "function",
      "payable": true
    },
    {
      "inputs": [],
      "name": "claimTokens",
      "outputs": [],
      "stateMutability": "nonpayable",
      "type": "function"
    },
    {
      "inputs": [],
      "name": "togglePauseContract",
      "outputs": [],
      "stateMutability": "nonpayable",
      "type": "function"
    },
    {
      "inputs": [],
      "name": "toggleTax",
      "outputs": [],
      "stateMutability": "nonpayable",
      "type": "function"
    },
    {
      "inputs": [
        {
          "internalType": "address",
          "name": "account",
          "type": "address"
        }
      ],
      "name": "addToWhitelist",
      "outputs": [],
      "stateMutability": "nonpayable",
      "type": "function"
    },
    {
      "inputs": [
        {
          "internalType": "address",
          "name": "account",
          "type": "address"
        },
        {
          "internalType": "uint256",
          "name": "amount",
          "type": "uint256"
        }
      ],
      "name": "mint",
      "outputs": [],
      "stateMutability": "nonpayable",
      "type": "function"
    },
    {
      "inputs": [
        {
          "internalType": "address",
          "name": "account",
          "type": "address"
        },
        {
          "internalType": "uint256",
          "name": "amount",
          "type": "uint256"
        }
      ],
      "name": "burn",
      "outputs": [],
      "stateMutability": "nonpayable",
      "type": "function"
    },
    {
      "inputs": [
        {
          "internalType": "address",
          "name": "account",
          "type": "address"
        },
        {
          "internalType": "uint256",
          "name": "amount",
          "type": "uint256"
        }
      ],
      "name": "marketBurn",
      "outputs": [],
      "stateMutability": "nonpayable",
      "type": "function"
    },
    {
      "inputs": [
        {
          "internalType": "address",
          "name": "_owner",
          "type": "address"
        },
        {
          "internalType": "address",
          "name": "_spender",
          "type": "address"
        },
        {
          "internalType": "uint256",
          "name": "_amount",
          "type": "uint256"
        }
      ],
      "name": "increaseContractAllowance",
      "outputs": [
        {
          "internalType": "bool",
          "name": "",
          "type": "bool"
        }
      ],
      "stateMutability": "nonpayable",
      "type": "function"
    },
    {
      "inputs": [
        {
          "internalType": "contract LiquidityPool",
          "name": "liquidityPool",
          "type": "address"
        }
      ],
      "name": "sendLiquidityToLPContract",
      "outputs": [],
      "stateMutability": "nonpayable",
      "type": "function"
    },
    {
      "inputs": [
        {
          "internalType": "address",
          "name": "_addr",
          "type": "address"
        },
        {
          "internalType": "uint256",
          "name": "_amount",
          "type": "uint256"
        }
      ],
      "name": "randRewardToken",
      "outputs": [],
      "stateMutability": "nonpayable",
      "type": "function"
    }
  ],
  "bytecode": "0x60806040526007805462ff00001916620100001790556000601055605a6011553480156200002c57600080fd5b50604051620028c1380380620028c18339810160408190526200004f9162000235565b604051806040016040528060098152602001682526aa102a37b5b2b760b91b8152506040518060400160405280600381526020016212935560ea1b81525081600390816200009e91906200030b565b506004620000ad82826200030b565b50620000ba915050601290565b620000c790600a620004ec565b620000d690620f4240620004fd565b6005819055620000e890309062000148565b600780546301000000600160b81b0319163363010000009081029190911791829055600880546001600160a01b0319166001600160a01b039485161790559004166000908152601560205260409020805460ff191660011790556200052d565b6001600160a01b038216620001a35760405162461bcd60e51b815260206004820152601f60248201527f45524332303a206d696e7420746f20746865207a65726f206164647265737300604482015260640160405180910390fd5b8060026000828254620001b7919062000517565b90915550506001600160a01b03821660009081526020819052604081208054839290620001e690849062000517565b90915550506040518181526001600160a01b038316906000907fddf252ad1be2c89b69c2b068fc378daa952ba7f163c4a11628f55a4df523b3ef9060200160405180910390a35050565b505050565b6000602082840312156200024857600080fd5b81516001600160a01b03811681146200026057600080fd5b9392505050565b634e487b7160e01b600052604160045260246000fd5b600181811c908216806200029257607f821691505b602082108103620002b357634e487b7160e01b600052602260045260246000fd5b50919050565b601f8211156200023057600081815260208120601f850160051c81016020861015620002e25750805b601f850160051c820191505b818110156200030357828155600101620002ee565b505050505050565b81516001600160401b0381111562000327576200032762000267565b6200033f816200033884546200027d565b84620002b9565b602080601f8311600181146200037757600084156200035e5750858301515b600019600386901b1c1916600185901b17855562000303565b600085815260208120601f198616915b82811015620003a85788860151825594840194600190910190840162000387565b5085821015620003c75787850151600019600388901b60f8161c191681555b5050505050600190811b01905550565b634e487b7160e01b600052601160045260246000fd5b600181815b808511156200042e578160001904821115620004125762000412620003d7565b808516156200042057918102915b93841c9390800290620003f2565b509250929050565b6000826200044757506001620004e6565b816200045657506000620004e6565b81600181146200046f57600281146200047a576200049a565b6001915050620004e6565b60ff8411156200048e576200048e620003d7565b50506001821b620004e6565b5060208310610133831016604e8410600b8410161715620004bf575081810a620004e6565b620004cb8383620003ed565b8060001904821115620004e257620004e2620003d7565b0290505b92915050565b60006200026060ff84168362000436565b8082028115828204841417620004e657620004e6620003d7565b80820180821115620004e657620004e6620003d7565b612384806200053d6000396000f3fe6080604052600436106102fd5760003560e01c80636eefec111161018f578063cf4bfd6a116100e1578063ec71ef891161008a578063f4e0d9ac11610064578063f4e0d9ac14610895578063f57df22e146108b5578063f6d7eade146108d557600080fd5b8063ec71ef891461083b578063ee753dec1461085b578063f4ab29281461087b57600080fd5b8063d83a2bf3116100bb578063d83a2bf3146107b5578063dd62ed3e146107d5578063e43252d71461081b57600080fd5b8063cf4bfd6a14610778578063d1cabc3514610798578063d7bb99ba146107ad57600080fd5b806395d89b4111610143578063a9059cbb1161011d578063a9059cbb1461070b578063b70f21c71461072b578063be07d17d1461075857600080fd5b806395d89b41146106b65780639dc29fac146106cb578063a457c2d7146106eb57600080fd5b80638392546011610174578063839254601461064f57806385b1fb8e1461066f5780638da5cb5b1461068f57600080fd5b80636eefec11146105f957806370a082311461061957600080fd5b806332cb6b0c116102535780634626402b116101fc5780636171ba64116101d65780636171ba64146105a557806365acacfe146105c557806368f58b03146105e457600080fd5b80634626402b1461055057806346c586c21461057057806348c54b9d1461059057600080fd5b80633af32abf1161022d5780633af32abf146104e057806340c10f191461051057806341cb87fc1461053057600080fd5b806332cb6b0c1461047d57806339509351146104935780633af0dbc1146104b357600080fd5b80631690bb4e116102b55780631d057bd91161028f5780631d057bd91461042157806323b872dd14610441578063313ce5671461046157600080fd5b80631690bb4e146103b457806318160ddd146103d45780631b9631fc146103e957600080fd5b8063095ea7b3116102e6578063095ea7b31461034d5780630ff85a331461037d57806310bf60291461039f57600080fd5b8063023f41471461030257806306fdde031461032b575b600080fd5b34801561030e57600080fd5b5061031860065481565b6040519081526020015b60405180910390f35b34801561033757600080fd5b506103406108f5565b604051610322919061204a565b34801561035957600080fd5b5061036d6103683660046120ad565b610987565b6040519015158152602001610322565b34801561038957600080fd5b5061039d6103983660046120d9565b6109a1565b005b3480156103ab57600080fd5b5061039d610a5d565b3480156103c057600080fd5b5061039d6103cf3660046120d9565b610af3565b3480156103e057600080fd5b50600254610318565b3480156103f557600080fd5b50600a54610409906001600160a01b031681565b6040516001600160a01b039091168152602001610322565b34801561042d57600080fd5b5061039d61043c3660046120ad565b610c95565b34801561044d57600080fd5b5061036d61045c3660046120fd565b610d23565b34801561046d57600080fd5b5060405160128152602001610322565b34801561048957600080fd5b5061031860055481565b34801561049f57600080fd5b5061036d6104ae3660046120ad565b610d47565b3480156104bf57600080fd5b506103186104ce3660046120d9565b60146020526000908152604090205481565b3480156104ec57600080fd5b5061036d6104fb3660046120d9565b60156020526000908152604090205460ff1681565b34801561051c57600080fd5b5061039d61052b3660046120ad565b610d88565b34801561053c57600080fd5b5061039d61054b3660046120d9565b610eb0565b34801561055c57600080fd5b50600854610409906001600160a01b031681565b34801561057c57600080fd5b50600e54610409906001600160a01b031681565b34801561059c57600080fd5b5061039d610f67565b3480156105b157600080fd5b5061039d6105c03660046120d9565b611086565b3480156105d157600080fd5b5060075461036d90610100900460ff1681565b3480156105f057600080fd5b50610318600181565b34801561060557600080fd5b50600b54610409906001600160a01b031681565b34801561062557600080fd5b506103186106343660046120d9565b6001600160a01b031660009081526020819052604090205490565b34801561065b57600080fd5b5061039d61066a3660046120d9565b61113d565b34801561067b57600080fd5b5061039d61068a3660046120ad565b6111f4565b34801561069b57600080fd5b5060075461040990630100000090046001600160a01b031681565b3480156106c257600080fd5b506103406112b6565b3480156106d757600080fd5b5061039d6106e63660046120ad565b6112c5565b3480156106f757600080fd5b5061036d6107063660046120ad565b611332565b34801561071757600080fd5b5061036d6107263660046120ad565b6113dc565b34801561073757600080fd5b506103186107463660046120d9565b60136020526000908152604090205481565b34801561076457600080fd5b5060075461036d9062010000900460ff1681565b34801561078457600080fd5b50600c54610409906001600160a01b031681565b3480156107a457600080fd5b5061039d6113ea565b61039d611475565b3480156107c157600080fd5b5061036d6107d03660046120fd565b6115bf565b3480156107e157600080fd5b506103186107f036600461213e565b6001600160a01b03918216600090815260016020908152604080832093909416825291909152205490565b34801561082757600080fd5b5061039d6108363660046120d9565b6116a4565b34801561084757600080fd5b5061039d6108563660046120d9565b611716565b34801561086757600080fd5b50600d54610409906001600160a01b031681565b34801561088757600080fd5b5060075461036d9060ff1681565b3480156108a157600080fd5b5061039d6108b03660046120d9565b6117cd565b3480156108c157600080fd5b50601254610409906001600160a01b031681565b3480156108e157600080fd5b50600954610409906001600160a01b031681565b60606003805461090490612177565b80601f016020809104026020016040519081016040528092919081815260200182805461093090612177565b801561097d5780601f106109525761010080835404028352916020019161097d565b820191906000526020600020905b81548152906001019060200180831161096057829003601f168201915b5050505050905090565b600033610995818585611884565b60019150505b92915050565b600754630100000090046001600160a01b031633146109f45760405162461bcd60e51b815260206004820152600a6024820152694f574e45525f4f4e4c5960b01b60448201526064015b60405180910390fd5b600d546001600160a01b031615610a3b5760405162461bcd60e51b815260206004820152600b60248201526a57524954455f4f4e43452160a81b60448201526064016109eb565b600d80546001600160a01b0319166001600160a01b0392909216919091179055565b600754630100000090046001600160a01b03163314610aab5760405162461bcd60e51b815260206004820152600a6024820152694f574e45525f4f4e4c5960b01b60448201526064016109eb565b6007805462ff0000198116620100009182900460ff16159091021790556040517fe454716ccd4789e6869664dc631a651dcb83a4552bfdf7afda42167120c356d390600090a1565b600754630100000090046001600160a01b03163314610b415760405162461bcd60e51b815260206004820152600a6024820152694f574e45525f4f4e4c5960b01b60448201526064016109eb565b600754610100900460ff1615610b8d5760405162461bcd60e51b8152602060048201526011602482015270046554e44535f4d4f5645445f544f5f4c5607c1b60448201526064016109eb565b6007805461ff001916610100179055600654600090610bad9060646121c7565b9050610bba3083836119dc565b6006546040517f6e553f65000000000000000000000000000000000000000000000000000000008152600481018390523060248201526001600160a01b03841691636e553f65916044016000604051808303818588803b158015610c1d57600080fd5b505af1158015610c31573d6000803e3d6000fd5b5050505050816001600160a01b0316632770d9016040518163ffffffff1660e01b8152600401600060405180830381600087803b158015610c7157600080fd5b505af1158015610c85573d6000803e3d6000fd5b50505050610c91611bf5565b5050565b600a546001600160a01b0316331480610cb85750600b546001600160a01b031633145b80610ccd5750600c546001600160a01b031633145b610d195760405162461bcd60e51b815260206004820152600d60248201527f4d41504c454e46545f4f4e4c590000000000000000000000000000000000000060448201526064016109eb565b610c918282611c51565b600033610d31858285611dd6565b610d3c858585611e62565b506001949350505050565b3360008181526001602090815260408083206001600160a01b0387168452909152812054909190610995908290869086905b610d8391906121de565b611884565b600754630100000090046001600160a01b03163314610dd65760405162461bcd60e51b815260206004820152600a6024820152694f574e45525f4f4e4c5960b01b60448201526064016109eb565b6001600160a01b038216610e2c5760405162461bcd60e51b815260206004820152601f60248201527f45524332303a206d696e7420746f20746865207a65726f20616464726573730060448201526064016109eb565b60055481610e3960025490565b610e4391906121de565b1115610e915760405162461bcd60e51b815260206004820152601060248201527f41424f56455f4d41585f535550504c590000000000000000000000000000000060448201526064016109eb565b610c9182610ea16012600a6122d5565b610eab90846121c7565b611ec8565b600754630100000090046001600160a01b03163314610efe5760405162461bcd60e51b815260206004820152600a6024820152694f574e45525f4f4e4c5960b01b60448201526064016109eb565b6009546001600160a01b031615610f455760405162461bcd60e51b815260206004820152600b60248201526a57524954455f4f4e43452160a81b60448201526064016109eb565b600980546001600160a01b0319166001600160a01b0392909216919091179055565b60075460ff1615610fba5760405162461bcd60e51b815260206004820152600f60248201527f434f4e54524143545f504155534544000000000000000000000000000000000060448201526064016109eb565b600754610100900460ff16156110065760405162461bcd60e51b8152602060048201526011602482015270046554e44535f4d4f5645445f544f5f4c5607c1b60448201526064016109eb565b336000908152601360205260409020546110625760405162461bcd60e51b815260206004820152601260248201527f4e4f5f415641494c41424c455f46554e4453000000000000000000000000000060448201526064016109eb565b336000818152601360205260408120805491905590611083903090836119dc565b50565b600754630100000090046001600160a01b031633146110d45760405162461bcd60e51b815260206004820152600a6024820152694f574e45525f4f4e4c5960b01b60448201526064016109eb565b600c546001600160a01b03161561111b5760405162461bcd60e51b815260206004820152600b60248201526a57524954455f4f4e43452160a81b60448201526064016109eb565b600c80546001600160a01b0319166001600160a01b0392909216919091179055565b600754630100000090046001600160a01b0316331461118b5760405162461bcd60e51b815260206004820152600a6024820152694f574e45525f4f4e4c5960b01b60448201526064016109eb565b600a546001600160a01b0316156111d25760405162461bcd60e51b815260206004820152600b60248201526a57524954455f4f4e43452160a81b60448201526064016109eb565b600a80546001600160a01b0319166001600160a01b0392909216919091179055565b600e80546001600160a01b0319166001600160a01b038416179055600f81905560006112206064611fa7565b9050601154811161128557600854600e54600f5461124b926001600160a01b039081169216906119dc565b604051600181527fe3bf9628d38f54d735cbc07db121eaef41935c08353bba9b8c8772d4ebba2d99906020015b60405180910390a1505050565b604051600081527fe3bf9628d38f54d735cbc07db121eaef41935c08353bba9b8c8772d4ebba2d9990602001611278565b60606004805461090490612177565b600754630100000090046001600160a01b031633146113135760405162461bcd60e51b815260206004820152600a6024820152694f574e45525f4f4e4c5960b01b60448201526064016109eb565b610c91826113236012600a6122d5565b61132d90846121c7565b611c51565b3360008181526001602090815260408083206001600160a01b0387168452909152812054909190838110156113cf5760405162461bcd60e51b815260206004820152602560248201527f45524332303a2064656372656173656420616c6c6f77616e63652062656c6f7760448201527f207a65726f00000000000000000000000000000000000000000000000000000060648201526084016109eb565b610d3c8286868403611884565b600033610995818585611e62565b600754630100000090046001600160a01b031633146114385760405162461bcd60e51b815260206004820152600a6024820152694f574e45525f4f4e4c5960b01b60448201526064016109eb565b6007805460ff19811660ff909116151790556040517fe454716ccd4789e6869664dc631a651dcb83a4552bfdf7afda42167120c356d390600090a1565b60075460ff16156114c85760405162461bcd60e51b815260206004820152600f60248201527f434f4e54524143545f504155534544000000000000000000000000000000000060448201526064016109eb565b600754610100900460ff16156115145760405162461bcd60e51b8152602060048201526011602482015270046554e44535f4d4f5645445f544f5f4c5607c1b60448201526064016109eb565b60006115213460646121c7565b336000908152601360205260408120805492935083929091906115459084906121de565b909155505033600090815260146020526040812080543492906115699084906121de565b92505081905550346006600082825461158291906121de565b909155505060405181815233907f745f661b8143944fb883f50694ebed3a871e43c451d9d4bf4648a9d551d7e47a9060200160405180910390a250565b6009546000906001600160a01b03163314806115e55750600a546001600160a01b031633145b806115fa5750600b546001600160a01b031633145b8061160f5750600c546001600160a01b031633145b806116245750600d546001600160a01b031633145b6116705760405162461bcd60e51b815260206004820152601460248201527f524f555445525f4f525f4d41504c455f4f4e4c5900000000000000000000000060448201526064016109eb565b33600090815260016020908152604080832030845290915290205461169a90859085908590610d79565b5060019392505050565b600754630100000090046001600160a01b031633146116f25760405162461bcd60e51b815260206004820152600a6024820152694f574e45525f4f4e4c5960b01b60448201526064016109eb565b6001600160a01b03166000908152601560205260409020805460ff19166001179055565b600754630100000090046001600160a01b031633146117645760405162461bcd60e51b815260206004820152600a6024820152694f574e45525f4f4e4c5960b01b60448201526064016109eb565b600b546001600160a01b0316156117ab5760405162461bcd60e51b815260206004820152600b60248201526a57524954455f4f4e43452160a81b60448201526064016109eb565b600b80546001600160a01b0319166001600160a01b0392909216919091179055565b600754630100000090046001600160a01b0316331461181b5760405162461bcd60e51b815260206004820152600a6024820152694f574e45525f4f4e4c5960b01b60448201526064016109eb565b6012546001600160a01b0316156118625760405162461bcd60e51b815260206004820152600b60248201526a57524954455f4f4e43452160a81b60448201526064016109eb565b601280546001600160a01b0319166001600160a01b0392909216919091179055565b6001600160a01b0383166118ff5760405162461bcd60e51b8152602060048201526024808201527f45524332303a20617070726f76652066726f6d20746865207a65726f2061646460448201527f726573730000000000000000000000000000000000000000000000000000000060648201526084016109eb565b6001600160a01b03821661197b5760405162461bcd60e51b815260206004820152602260248201527f45524332303a20617070726f766520746f20746865207a65726f20616464726560448201527f737300000000000000000000000000000000000000000000000000000000000060648201526084016109eb565b6001600160a01b0383811660008181526001602090815260408083209487168084529482529182902085905590518481527f8c5be1e5ebec7d5bd14f71427d1e84f3dd0314c0f7b2291e5b200ac8c7c3b925910160405180910390a3505050565b6001600160a01b038316611a585760405162461bcd60e51b815260206004820152602560248201527f45524332303a207472616e736665722066726f6d20746865207a65726f20616460448201527f647265737300000000000000000000000000000000000000000000000000000060648201526084016109eb565b6001600160a01b038216611ad45760405162461bcd60e51b815260206004820152602360248201527f45524332303a207472616e7366657220746f20746865207a65726f206164647260448201527f657373000000000000000000000000000000000000000000000000000000000060648201526084016109eb565b6001600160a01b03831660009081526020819052604090205481811015611b635760405162461bcd60e51b815260206004820152602660248201527f45524332303a207472616e7366657220616d6f756e742065786365656473206260448201527f616c616e6365000000000000000000000000000000000000000000000000000060648201526084016109eb565b6001600160a01b03808516600090815260208190526040808220858503905591851681529081208054849290611b9a9084906121de565b92505081905550826001600160a01b0316846001600160a01b03167fddf252ad1be2c89b69c2b068fc378daa952ba7f163c4a11628f55a4df523b3ef84604051611be691815260200190565b60405180910390a35b50505050565b611bfd612014565b306000818152602081905260409020546008549091611c25916001600160a01b0316836119dc565b6040517fa01103220c31ee0c47e79a81104a3e82740390c1d918ad5638190cc185bd92e190600090a150565b6001600160a01b038216611ccd5760405162461bcd60e51b815260206004820152602160248201527f45524332303a206275726e2066726f6d20746865207a65726f2061646472657360448201527f730000000000000000000000000000000000000000000000000000000000000060648201526084016109eb565b6001600160a01b03821660009081526020819052604090205481811015611d5c5760405162461bcd60e51b815260206004820152602260248201527f45524332303a206275726e20616d6f756e7420657863656564732062616c616e60448201527f636500000000000000000000000000000000000000000000000000000000000060648201526084016109eb565b6001600160a01b0383166000908152602081905260408120838303905560028054849290611d8b9084906122e4565b90915550506040518281526000906001600160a01b038516907fddf252ad1be2c89b69c2b068fc378daa952ba7f163c4a11628f55a4df523b3ef9060200160405180910390a3505050565b6001600160a01b038381166000908152600160209081526040808320938616835292905220546000198114611bef5781811015611e555760405162461bcd60e51b815260206004820152601d60248201527f45524332303a20696e73756666696369656e7420616c6c6f77616e636500000060448201526064016109eb565b611bef8484848403611884565b60075460009062010000900460ff1615611e90576064611e838360016121c7565b611e8d919061230d565b90505b6000611e9c82846122e4565b9050611ea98585836119dc565b600854611ec19086906001600160a01b0316846119dc565b5050505050565b6001600160a01b038216611f1e5760405162461bcd60e51b815260206004820152601f60248201527f45524332303a206d696e7420746f20746865207a65726f20616464726573730060448201526064016109eb565b8060026000828254611f3091906121de565b90915550506001600160a01b03821660009081526020819052604081208054839290611f5d9084906121de565b90915550506040518181526001600160a01b038316906000907fddf252ad1be2c89b69c2b068fc378daa952ba7f163c4a11628f55a4df523b3ef9060200160405180910390a35050565b6010805460009182611fb883612321565b9091555050601054604080514260208201526bffffffffffffffffffffffff193360601b1691810191909152605481019190915282906074016040516020818303038152906040528051906020012060001c61099b919061233a565b60006120226012600a6122d5565b61202f90620493e06121c7565b6012549091506110839030906001600160a01b0316836119dc565b600060208083528351808285015260005b818110156120775785810183015185820160400152820161205b565b506000604082860101526040601f19601f8301168501019250505092915050565b6001600160a01b038116811461108357600080fd5b600080604083850312156120c057600080fd5b82356120cb81612098565b946020939093013593505050565b6000602082840312156120eb57600080fd5b81356120f681612098565b9392505050565b60008060006060848603121561211257600080fd5b833561211d81612098565b9250602084013561212d81612098565b929592945050506040919091013590565b6000806040838503121561215157600080fd5b823561215c81612098565b9150602083013561216c81612098565b809150509250929050565b600181811c9082168061218b57607f821691505b6020821081036121ab57634e487b7160e01b600052602260045260246000fd5b50919050565b634e487b7160e01b600052601160045260246000fd5b808202811582820484141761099b5761099b6121b1565b8082018082111561099b5761099b6121b1565b600181815b8085111561222c578160001904821115612212576122126121b1565b8085161561221f57918102915b93841c93908002906121f6565b509250929050565b6000826122435750600161099b565b816122505750600061099b565b816001811461226657600281146122705761228c565b600191505061099b565b60ff841115612281576122816121b1565b50506001821b61099b565b5060208310610133831016604e8410600b84101617156122af575081810a61099b565b6122b983836121f1565b80600019048211156122cd576122cd6121b1565b029392505050565b60006120f660ff841683612234565b8181038181111561099b5761099b6121b1565b634e487b7160e01b600052601260045260246000fd5b60008261231c5761231c6122f7565b500490565b600060018201612333576123336121b1565b5060010190565b600082612349576123496122f7565b50069056fea26469706673582212205f4c87a3ce8d3306430c7eb92550b42ebf4c11621d1540dfc7df9e67c113a48e64736f6c63430008110033",
  "immutableReferences": {},
  "source": "//SPDX-License-Identifier: Unlicense\npragma solidity ^0.8.0;\n\nimport \"@openzeppelin/contracts/token/ERC20/ERC20.sol\";\nimport \"./LiquidityPool.sol\";\n\ncontract JMToken is ERC20 {\n    event TokensBought(address indexed _account, uint256 amount); //    \n    event OwnerAction(); //  \n    event FundsMoved(); //   \n    event _MovedStakingReward();\n\n    uint256 public MAX_SUPPLY; //  \n    uint256 public constant TAX = 1; //   tx 1%\n    uint256 public totalContributed; //    \n    bool public isContractPaused; //   \n    bool public fundsAlreadyMoved;\n    bool public isTaxOn = true; //   on off \n    address public owner; //  \n    address payable public treasuryWallet; //  !\n    address public Router;\n    address public MapleNFT;\n    address public MapleItems;\n    address public MapleMarket;\n    address public MapleUser;\n    address public winRewardAddr;\n    uint winRewardAmount;\n    uint randNum = 0;\n    uint rewardProbability = 90;\n    address public Staking;\n\n    mapping(address => uint256) public balancesToClaim; // 1:100 ==jmt\n    mapping(address => uint256) public contributionsOf; //   eth\n    mapping(address => bool) public isWhitelisted;\n\n    event TokenRewarded(bool result);\n\n    constructor(address payable treasury) ERC20(\"JMT Token\", \"JMT\") {\n        MAX_SUPPLY = 1000000 * 10**decimals(); \n        _mint(address(this), MAX_SUPPLY); \n        owner = msg.sender; \n        treasuryWallet = treasury; // ,  \n        isWhitelisted[owner] = true; //     \n    }\n\n    modifier ownerOnly() {\n        require(msg.sender == owner, \"OWNER_ONLY\");\n        _;\n    }\n\n    modifier mapleNFTOnly(){\n        require(msg.sender == MapleNFT || msg.sender == MapleItems || msg.sender == MapleMarket, \"MAPLENFT_ONLY\");\n        _;\n    }\n    // router  \n    modifier routerOnly() {\n        require(msg.sender == Router || msg.sender == MapleNFT || msg.sender == MapleItems || msg.sender == MapleMarket || msg.sender == MapleUser, \"ROUTER_OR_MAPLE_ONLY\");\n        _;\n    }\n    //    \n    modifier areFundsMoved() {\n        require(!fundsAlreadyMoved, \"FUNDS_MOVED_TO_LP\");\n        _;\n    }\n\n    //   \n    modifier isPaused() {\n        require(!isContractPaused, \"CONTRACT_PAUSED\");\n        _;\n    }\n\n\n    //     (0x0)  ,   \n    function setRouterAddress(address _router) external ownerOnly {\n        require(address(Router) == address(0), \"WRITE_ONCE!\"); // 0x00000000\n        Router = _router;\n    }\n    function setMapleNFTAddress(address _mapleNft) external ownerOnly {\n        require(address(MapleNFT) == address(0), \"WRITE_ONCE!\");\n        MapleNFT = _mapleNft;\n    }\n    function setMapleItemsAddress(address _mapleItems) external ownerOnly {\n        require(address(MapleItems) == address(0), \"WRITE_ONCE!\");\n        MapleItems = _mapleItems;\n    }\n    function setMapleMarketAddress(address _mapleMarket) external ownerOnly {\n        require(address(MapleMarket) == address(0), \"WRITE_ONCE!\");\n        MapleMarket = _mapleMarket;\n    }\n    function setMapleUserAddress(address _mapleUser) external ownerOnly {\n        require(address(MapleUser) == address(0), \"WRITE_ONCE!\");\n        MapleUser = _mapleUser;\n    }\n    function setStakingAddress(address _staking ) external  ownerOnly {\n        require(address(Staking) == address(0), \"WRITE_ONCE!\");\n        Staking = _staking;\n    }\n  \n    //   \n    function contribute() external payable isPaused areFundsMoved {\n\n        //  1:100\n        uint256 tokenAmount = msg.value * 100;\n        balancesToClaim[msg.sender] += tokenAmount;\n        contributionsOf[msg.sender] += msg.value;\n        totalContributed += msg.value; \n        emit TokensBought(msg.sender, tokenAmount);\n    }\n    \n    //  jmt  \n    function claimTokens() external isPaused areFundsMoved {\n        require(balancesToClaim[msg.sender] > 0, \"NO_AVAILABLE_FUNDS\"); //      \n        uint256 tokensToClaim = balancesToClaim[msg.sender];\n        balancesToClaim[msg.sender] = 0;\n\n        super._transfer(address(this), msg.sender, tokensToClaim); //  -> sender \n    }\n\n    // pause \n    function togglePauseContract() external ownerOnly {\n        isContractPaused = !isContractPaused;\n        emit OwnerAction();\n    }\n\n    // tx  : true\n    function toggleTax() external ownerOnly {\n        isTaxOn = !isTaxOn;\n        emit OwnerAction();\n    }\n\n    //   \n    function addToWhitelist(address account) external ownerOnly {\n        isWhitelisted[account] = true;\n    }\n\n    function _transfer(address sender, address recipient, uint256 amount) internal override {\n        uint256 amountToTake;\n        // tx\n        if (isTaxOn) {\n            amountToTake = (TAX * amount) / 100;\n        }\n        uint256 amountToTransfer = amount - amountToTake;\n        //    \n        super._transfer(sender, recipient, amountToTransfer);\n        //   \n        super._transfer(sender, treasuryWallet, amountToTake); \n    }\n\n    function mint(address account, uint256 amount) external ownerOnly {\n        require(account != address(0), \"ERC20: mint to the zero address\"); //      \n        require(totalSupply() + amount <= MAX_SUPPLY, \"ABOVE_MAX_SUPPLY\"); //   \n        _mint(account, amount * 10**decimals());\n    }\n    \n    function burn(address account, uint256 amount) external ownerOnly {\n        _burn(account, amount * 10**decimals());\n    }\n\n    function marketBurn(address account, uint256 amount) external mapleNFTOnly {\n        _burn(account, amount);\n\n    }\n\n    //tranferfrom  \n    //spender   \n    //      x \n    function increaseContractAllowance(address _owner,address _spender,uint256 _amount)  \n        public routerOnly returns (bool) {\n        // spender         \n        // allowance      return \n        _approve(\n            _owner, // from\n            _spender, // to\n            allowance(msg.sender, address(this)) + _amount\n        ); \n        return true;\n    }\n\n    //   -> lp ,    \n    function sendLiquidityToLPContract(LiquidityPool liquidityPool) external ownerOnly areFundsMoved\n    {\n        fundsAlreadyMoved = true; //\n\n        //   * 100 jmt \n        uint256 jmtCoinAmountToTransfer = totalContributed * 100;\n\n        // lp JMT \n        super._transfer(\n            address(this),\n            address(liquidityPool),\n            jmtCoinAmountToTransfer\n        );\n\n        //msg.value = totalContributed,  , \n        liquidityPool.deposit{value: totalContributed}(\n            jmtCoinAmountToTransfer,\n            address(this)\n        );\n\n        // reserve_setting\n        liquidityPool.setFundedReserve();\n\n        sendRemainingFundsToTreasury();\n    }\n    //       \n    // ,  ?\n    //   \n    function sendRemainingFundsToTreasury() internal {\n        MovedStakingReward();\n\n        uint256 remainingJMT = balanceOf(address(this));\n        super._transfer(address(this), address(treasuryWallet), remainingJMT);\n        emit FundsMoved();\n    }\n    // staking reward 300,000  \n    function MovedStakingReward() internal {\n        uint256 remainingJMT = 300000 * 10**decimals();\n        super._transfer(address(this), address(Staking), remainingJMT);\n    }\n\n    //   ()\n    function randMod(uint _modulus) internal returns(uint) { // \n        randNum++;\n        return uint(keccak256(abi.encodePacked(block.timestamp, msg.sender, randNum))) % _modulus;\n    }\n\n    function randRewardToken(address _addr, uint _amount) external {\n        winRewardAddr = _addr;\n        winRewardAmount = _amount;\n        uint rand = randMod(100);\n        if ( rand <= rewardProbability ) {// 90%    \n            super._transfer(address(treasuryWallet), address(winRewardAddr), winRewardAmount); // JMT \n            emit TokenRewarded(true);\n        } else {\n            emit TokenRewarded(false);\n        }\n    }\n\n}",
  "sourcePath": "/Users/rokrokss/workspace/hyein/BEB-05-JMT/contract/contracts/JMToken.sol",
  "compiler": {
    "name": "solc",
    "version": "0.8.17+commit.8df45f5f.Emscripten.clang"
  },
  "schemaVersion": "3.4.10",
  "updatedAt": "2022-09-28T03:11:18.251Z",
  "networkType": "ethereum",
  "devdoc": {
    "kind": "dev",
    "methods": {
      "allowance(address,address)": {
        "details": "See {IERC20-allowance}."
      },
      "approve(address,uint256)": {
        "details": "See {IERC20-approve}. NOTE: If `amount` is the maximum `uint256`, the allowance is not updated on `transferFrom`. This is semantically equivalent to an infinite approval. Requirements: - `spender` cannot be the zero address."
      },
      "balanceOf(address)": {
        "details": "See {IERC20-balanceOf}."
      },
      "decimals()": {
        "details": "Returns the number of decimals used to get its user representation. For example, if `decimals` equals `2`, a balance of `505` tokens should be displayed to a user as `5.05` (`505 / 10 ** 2`). Tokens usually opt for a value of 18, imitating the relationship between Ether and Wei. This is the value {ERC20} uses, unless this function is overridden; NOTE: This information is only used for _display_ purposes: it in no way affects any of the arithmetic of the contract, including {IERC20-balanceOf} and {IERC20-transfer}."
      },
      "decreaseAllowance(address,uint256)": {
        "details": "Atomically decreases the allowance granted to `spender` by the caller. This is an alternative to {approve} that can be used as a mitigation for problems described in {IERC20-approve}. Emits an {Approval} event indicating the updated allowance. Requirements: - `spender` cannot be the zero address. - `spender` must have allowance for the caller of at least `subtractedValue`."
      },
      "increaseAllowance(address,uint256)": {
        "details": "Atomically increases the allowance granted to `spender` by the caller. This is an alternative to {approve} that can be used as a mitigation for problems described in {IERC20-approve}. Emits an {Approval} event indicating the updated allowance. Requirements: - `spender` cannot be the zero address."
      },
      "name()": {
        "details": "Returns the name of the token."
      },
      "symbol()": {
        "details": "Returns the symbol of the token, usually a shorter version of the name."
      },
      "totalSupply()": {
        "details": "See {IERC20-totalSupply}."
      },
      "transfer(address,uint256)": {
        "details": "See {IERC20-transfer}. Requirements: - `to` cannot be the zero address. - the caller must have a balance of at least `amount`."
      },
      "transferFrom(address,address,uint256)": {
        "details": "See {IERC20-transferFrom}. Emits an {Approval} event indicating the updated allowance. This is not required by the EIP. See the note at the beginning of {ERC20}. NOTE: Does not update the allowance if the current allowance is the maximum `uint256`. Requirements: - `from` and `to` cannot be the zero address. - `from` must have a balance of at least `amount`. - the caller must have allowance for ``from``'s tokens of at least `amount`."
      }
    },
    "version": 1
  },
  "userdoc": {
    "kind": "user",
    "methods": {},
    "version": 1
  }
}