{
  "contractName": "JMToken",
  "abi": [
    {
      "inputs": [
        {
          "internalType": "address payable",
          "name": "treasury",
          "type": "address"
        }
      ],
      "stateMutability": "nonpayable",
      "type": "constructor"
    },
    {
      "anonymous": false,
      "inputs": [
        {
          "indexed": true,
          "internalType": "address",
          "name": "owner",
          "type": "address"
        },
        {
          "indexed": true,
          "internalType": "address",
          "name": "spender",
          "type": "address"
        },
        {
          "indexed": false,
          "internalType": "uint256",
          "name": "value",
          "type": "uint256"
        }
      ],
      "name": "Approval",
      "type": "event"
    },
    {
      "anonymous": false,
      "inputs": [],
      "name": "FundsMoved",
      "type": "event"
    },
    {
      "anonymous": false,
      "inputs": [],
      "name": "OwnerAction",
      "type": "event"
    },
    {
      "anonymous": false,
      "inputs": [
        {
          "indexed": true,
          "internalType": "address",
          "name": "_account",
          "type": "address"
        },
        {
          "indexed": false,
          "internalType": "uint256",
          "name": "amount",
          "type": "uint256"
        }
      ],
      "name": "TokensBought",
      "type": "event"
    },
    {
      "anonymous": false,
      "inputs": [
        {
          "indexed": true,
          "internalType": "address",
          "name": "from",
          "type": "address"
        },
        {
          "indexed": true,
          "internalType": "address",
          "name": "to",
          "type": "address"
        },
        {
          "indexed": false,
          "internalType": "uint256",
          "name": "value",
          "type": "uint256"
        }
      ],
      "name": "Transfer",
      "type": "event"
    },
    {
      "inputs": [],
      "name": "MAX_SUPPLY",
      "outputs": [
        {
          "internalType": "uint256",
          "name": "",
          "type": "uint256"
        }
      ],
      "stateMutability": "view",
      "type": "function",
      "constant": true
    },
    {
      "inputs": [],
      "name": "MapleItems",
      "outputs": [
        {
          "internalType": "address",
          "name": "",
          "type": "address"
        }
      ],
      "stateMutability": "view",
      "type": "function",
      "constant": true
    },
    {
      "inputs": [],
      "name": "MapleNFT",
      "outputs": [
        {
          "internalType": "address",
          "name": "",
          "type": "address"
        }
      ],
      "stateMutability": "view",
      "type": "function",
      "constant": true
    },
    {
      "inputs": [],
      "name": "Router",
      "outputs": [
        {
          "internalType": "address",
          "name": "",
          "type": "address"
        }
      ],
      "stateMutability": "view",
      "type": "function",
      "constant": true
    },
    {
      "inputs": [],
      "name": "TAX",
      "outputs": [
        {
          "internalType": "uint256",
          "name": "",
          "type": "uint256"
        }
      ],
      "stateMutability": "view",
      "type": "function",
      "constant": true
    },
    {
      "inputs": [
        {
          "internalType": "address",
          "name": "owner",
          "type": "address"
        },
        {
          "internalType": "address",
          "name": "spender",
          "type": "address"
        }
      ],
      "name": "allowance",
      "outputs": [
        {
          "internalType": "uint256",
          "name": "",
          "type": "uint256"
        }
      ],
      "stateMutability": "view",
      "type": "function",
      "constant": true
    },
    {
      "inputs": [
        {
          "internalType": "address",
          "name": "spender",
          "type": "address"
        },
        {
          "internalType": "uint256",
          "name": "amount",
          "type": "uint256"
        }
      ],
      "name": "approve",
      "outputs": [
        {
          "internalType": "bool",
          "name": "",
          "type": "bool"
        }
      ],
      "stateMutability": "nonpayable",
      "type": "function"
    },
    {
      "inputs": [
        {
          "internalType": "address",
          "name": "account",
          "type": "address"
        }
      ],
      "name": "balanceOf",
      "outputs": [
        {
          "internalType": "uint256",
          "name": "",
          "type": "uint256"
        }
      ],
      "stateMutability": "view",
      "type": "function",
      "constant": true
    },
    {
      "inputs": [
        {
          "internalType": "address",
          "name": "",
          "type": "address"
        }
      ],
      "name": "balancesToClaim",
      "outputs": [
        {
          "internalType": "uint256",
          "name": "",
          "type": "uint256"
        }
      ],
      "stateMutability": "view",
      "type": "function",
      "constant": true
    },
    {
      "inputs": [
        {
          "internalType": "address",
          "name": "",
          "type": "address"
        }
      ],
      "name": "contributionsOf",
      "outputs": [
        {
          "internalType": "uint256",
          "name": "",
          "type": "uint256"
        }
      ],
      "stateMutability": "view",
      "type": "function",
      "constant": true
    },
    {
      "inputs": [],
      "name": "decimals",
      "outputs": [
        {
          "internalType": "uint8",
          "name": "",
          "type": "uint8"
        }
      ],
      "stateMutability": "view",
      "type": "function",
      "constant": true
    },
    {
      "inputs": [
        {
          "internalType": "address",
          "name": "spender",
          "type": "address"
        },
        {
          "internalType": "uint256",
          "name": "subtractedValue",
          "type": "uint256"
        }
      ],
      "name": "decreaseAllowance",
      "outputs": [
        {
          "internalType": "bool",
          "name": "",
          "type": "bool"
        }
      ],
      "stateMutability": "nonpayable",
      "type": "function"
    },
    {
      "inputs": [],
      "name": "fundsAlreadyMoved",
      "outputs": [
        {
          "internalType": "bool",
          "name": "",
          "type": "bool"
        }
      ],
      "stateMutability": "view",
      "type": "function",
      "constant": true
    },
    {
      "inputs": [
        {
          "internalType": "address",
          "name": "spender",
          "type": "address"
        },
        {
          "internalType": "uint256",
          "name": "addedValue",
          "type": "uint256"
        }
      ],
      "name": "increaseAllowance",
      "outputs": [
        {
          "internalType": "bool",
          "name": "",
          "type": "bool"
        }
      ],
      "stateMutability": "nonpayable",
      "type": "function"
    },
    {
      "inputs": [],
      "name": "isContractPaused",
      "outputs": [
        {
          "internalType": "bool",
          "name": "",
          "type": "bool"
        }
      ],
      "stateMutability": "view",
      "type": "function",
      "constant": true
    },
    {
      "inputs": [],
      "name": "isTaxOn",
      "outputs": [
        {
          "internalType": "bool",
          "name": "",
          "type": "bool"
        }
      ],
      "stateMutability": "view",
      "type": "function",
      "constant": true
    },
    {
      "inputs": [
        {
          "internalType": "address",
          "name": "",
          "type": "address"
        }
      ],
      "name": "isWhitelisted",
      "outputs": [
        {
          "internalType": "bool",
          "name": "",
          "type": "bool"
        }
      ],
      "stateMutability": "view",
      "type": "function",
      "constant": true
    },
    {
      "inputs": [],
      "name": "name",
      "outputs": [
        {
          "internalType": "string",
          "name": "",
          "type": "string"
        }
      ],
      "stateMutability": "view",
      "type": "function",
      "constant": true
    },
    {
      "inputs": [],
      "name": "owner",
      "outputs": [
        {
          "internalType": "address",
          "name": "",
          "type": "address"
        }
      ],
      "stateMutability": "view",
      "type": "function",
      "constant": true
    },
    {
      "inputs": [],
      "name": "symbol",
      "outputs": [
        {
          "internalType": "string",
          "name": "",
          "type": "string"
        }
      ],
      "stateMutability": "view",
      "type": "function",
      "constant": true
    },
    {
      "inputs": [],
      "name": "totalContributed",
      "outputs": [
        {
          "internalType": "uint256",
          "name": "",
          "type": "uint256"
        }
      ],
      "stateMutability": "view",
      "type": "function",
      "constant": true
    },
    {
      "inputs": [],
      "name": "totalSupply",
      "outputs": [
        {
          "internalType": "uint256",
          "name": "",
          "type": "uint256"
        }
      ],
      "stateMutability": "view",
      "type": "function",
      "constant": true
    },
    {
      "inputs": [
        {
          "internalType": "address",
          "name": "to",
          "type": "address"
        },
        {
          "internalType": "uint256",
          "name": "amount",
          "type": "uint256"
        }
      ],
      "name": "transfer",
      "outputs": [
        {
          "internalType": "bool",
          "name": "",
          "type": "bool"
        }
      ],
      "stateMutability": "nonpayable",
      "type": "function"
    },
    {
      "inputs": [
        {
          "internalType": "address",
          "name": "from",
          "type": "address"
        },
        {
          "internalType": "address",
          "name": "to",
          "type": "address"
        },
        {
          "internalType": "uint256",
          "name": "amount",
          "type": "uint256"
        }
      ],
      "name": "transferFrom",
      "outputs": [
        {
          "internalType": "bool",
          "name": "",
          "type": "bool"
        }
      ],
      "stateMutability": "nonpayable",
      "type": "function"
    },
    {
      "inputs": [],
      "name": "treasuryWallet",
      "outputs": [
        {
          "internalType": "address payable",
          "name": "",
          "type": "address"
        }
      ],
      "stateMutability": "view",
      "type": "function",
      "constant": true
    },
    {
      "inputs": [
        {
          "internalType": "address",
          "name": "_router",
          "type": "address"
        }
      ],
      "name": "setRouterAddress",
      "outputs": [],
      "stateMutability": "nonpayable",
      "type": "function"
    },
    {
      "inputs": [
        {
          "internalType": "address",
          "name": "_mapleNft",
          "type": "address"
        }
      ],
      "name": "setMapleNFTAddress",
      "outputs": [],
      "stateMutability": "nonpayable",
      "type": "function"
    },
    {
      "inputs": [
        {
          "internalType": "address",
          "name": "_mapleItems",
          "type": "address"
        }
      ],
      "name": "setMapleItemsAddress",
      "outputs": [],
      "stateMutability": "nonpayable",
      "type": "function"
    },
    {
      "inputs": [],
      "name": "contribute",
      "outputs": [],
      "stateMutability": "payable",
      "type": "function",
      "payable": true
    },
    {
      "inputs": [],
      "name": "claimTokens",
      "outputs": [],
      "stateMutability": "nonpayable",
      "type": "function"
    },
    {
      "inputs": [],
      "name": "togglePauseContract",
      "outputs": [],
      "stateMutability": "nonpayable",
      "type": "function"
    },
    {
      "inputs": [],
      "name": "toggleTax",
      "outputs": [],
      "stateMutability": "nonpayable",
      "type": "function"
    },
    {
      "inputs": [
        {
          "internalType": "address",
          "name": "account",
          "type": "address"
        }
      ],
      "name": "addToWhitelist",
      "outputs": [],
      "stateMutability": "nonpayable",
      "type": "function"
    },
    {
      "inputs": [
        {
          "internalType": "address",
          "name": "account",
          "type": "address"
        },
        {
          "internalType": "uint256",
          "name": "amount",
          "type": "uint256"
        }
      ],
      "name": "mint",
      "outputs": [],
      "stateMutability": "nonpayable",
      "type": "function"
    },
    {
      "inputs": [
        {
          "internalType": "address",
          "name": "account",
          "type": "address"
        },
        {
          "internalType": "uint256",
          "name": "amount",
          "type": "uint256"
        }
      ],
      "name": "burn",
      "outputs": [],
      "stateMutability": "nonpayable",
      "type": "function"
    },
    {
      "inputs": [
        {
          "internalType": "address",
          "name": "account",
          "type": "address"
        },
        {
          "internalType": "uint256",
          "name": "amount",
          "type": "uint256"
        }
      ],
      "name": "marketBurn",
      "outputs": [],
      "stateMutability": "nonpayable",
      "type": "function"
    },
    {
      "inputs": [
        {
          "internalType": "address",
          "name": "_owner",
          "type": "address"
        },
        {
          "internalType": "address",
          "name": "_spender",
          "type": "address"
        },
        {
          "internalType": "uint256",
          "name": "_amount",
          "type": "uint256"
        }
      ],
      "name": "increaseContractAllowance",
      "outputs": [
        {
          "internalType": "bool",
          "name": "",
          "type": "bool"
        }
      ],
      "stateMutability": "nonpayable",
      "type": "function"
    },
    {
      "inputs": [
        {
          "internalType": "contract LiquidityPool",
          "name": "liquidityPool",
          "type": "address"
        }
      ],
      "name": "sendLiquidityToLPContract",
      "outputs": [],
      "stateMutability": "nonpayable",
      "type": "function"
    }
  ],
  "bytecode": "0x60806040526001600760026101000a81548160ff0219169083151502179055503480156200002c57600080fd5b506040516200423b3803806200423b833981810160405281019062000052919062000424565b6040518060400160405280600981526020017f4a4d5420546f6b656e00000000000000000000000000000000000000000000008152506040518060400160405280600381526020017f4a4d5400000000000000000000000000000000000000000000000000000000008152508160039081620000cf9190620006d0565b508060049081620000e19190620006d0565b505050620000f46200022f60201b60201c565b600a62000102919062000947565b620f424062000112919062000998565b6005819055506200012c306005546200023860201b60201c565b33600760036101000a81548173ffffffffffffffffffffffffffffffffffffffff021916908373ffffffffffffffffffffffffffffffffffffffff16021790555080600860006101000a81548173ffffffffffffffffffffffffffffffffffffffff021916908373ffffffffffffffffffffffffffffffffffffffff1602179055506001600e6000600760039054906101000a900473ffffffffffffffffffffffffffffffffffffffff1673ffffffffffffffffffffffffffffffffffffffff1673ffffffffffffffffffffffffffffffffffffffff16815260200190815260200160002060006101000a81548160ff0219169083151502179055505062000acf565b60006012905090565b600073ffffffffffffffffffffffffffffffffffffffff168273ffffffffffffffffffffffffffffffffffffffff1603620002aa576040517f08c379a0000000000000000000000000000000000000000000000000000000008152600401620002a19062000a44565b60405180910390fd5b620002be60008383620003b060201b60201c565b8060026000828254620002d2919062000a66565b92505081905550806000808473ffffffffffffffffffffffffffffffffffffffff1673ffffffffffffffffffffffffffffffffffffffff168152602001908152602001600020600082825462000329919062000a66565b925050819055508173ffffffffffffffffffffffffffffffffffffffff16600073ffffffffffffffffffffffffffffffffffffffff167fddf252ad1be2c89b69c2b068fc378daa952ba7f163c4a11628f55a4df523b3ef8360405162000390919062000ab2565b60405180910390a3620003ac60008383620003b560201b60201c565b5050565b505050565b505050565b600080fd5b600073ffffffffffffffffffffffffffffffffffffffff82169050919050565b6000620003ec82620003bf565b9050919050565b620003fe81620003df565b81146200040a57600080fd5b50565b6000815190506200041e81620003f3565b92915050565b6000602082840312156200043d576200043c620003ba565b5b60006200044d848285016200040d565b91505092915050565b600081519050919050565b7f4e487b7100000000000000000000000000000000000000000000000000000000600052604160045260246000fd5b7f4e487b7100000000000000000000000000000000000000000000000000000000600052602260045260246000fd5b60006002820490506001821680620004d857607f821691505b602082108103620004ee57620004ed62000490565b5b50919050565b60008190508160005260206000209050919050565b60006020601f8301049050919050565b600082821b905092915050565b600060088302620005587fffffffffffffffffffffffffffffffffffffffffffffffffffffffffffffffff8262000519565b62000564868362000519565b95508019841693508086168417925050509392505050565b6000819050919050565b6000819050919050565b6000620005b1620005ab620005a5846200057c565b62000586565b6200057c565b9050919050565b6000819050919050565b620005cd8362000590565b620005e5620005dc82620005b8565b84845462000526565b825550505050565b600090565b620005fc620005ed565b62000609818484620005c2565b505050565b5b81811015620006315762000625600082620005f2565b6001810190506200060f565b5050565b601f82111562000680576200064a81620004f4565b620006558462000509565b8101602085101562000665578190505b6200067d620006748562000509565b8301826200060e565b50505b505050565b600082821c905092915050565b6000620006a56000198460080262000685565b1980831691505092915050565b6000620006c0838362000692565b9150826002028217905092915050565b620006db8262000456565b67ffffffffffffffff811115620006f757620006f662000461565b5b620007038254620004bf565b6200071082828562000635565b600060209050601f83116001811462000748576000841562000733578287015190505b6200073f8582620006b2565b865550620007af565b601f1984166200075886620004f4565b60005b8281101562000782578489015182556001820191506020850194506020810190506200075b565b86831015620007a257848901516200079e601f89168262000692565b8355505b6001600288020188555050505b505050505050565b7f4e487b7100000000000000000000000000000000000000000000000000000000600052601160045260246000fd5b60008160011c9050919050565b6000808291508390505b600185111562000845578086048111156200081d576200081c620007b7565b5b60018516156200082d5780820291505b80810290506200083d85620007e6565b9450620007fd565b94509492505050565b60008262000860576001905062000933565b8162000870576000905062000933565b81600181146200088957600281146200089457620008ca565b600191505062000933565b60ff841115620008a957620008a8620007b7565b5b8360020a915084821115620008c357620008c2620007b7565b5b5062000933565b5060208310610133831016604e8410600b8410161715620009045782820a905083811115620008fe57620008fd620007b7565b5b62000933565b620009138484846001620007f3565b925090508184048111156200092d576200092c620007b7565b5b81810290505b9392505050565b600060ff82169050919050565b600062000954826200057c565b915062000961836200093a565b9250620009907fffffffffffffffffffffffffffffffffffffffffffffffffffffffffffffffff84846200084e565b905092915050565b6000620009a5826200057c565b9150620009b2836200057c565b9250828202620009c2816200057c565b91508282048414831517620009dc57620009db620007b7565b5b5092915050565b600082825260208201905092915050565b7f45524332303a206d696e7420746f20746865207a65726f206164647265737300600082015250565b600062000a2c601f83620009e3565b915062000a3982620009f4565b602082019050919050565b6000602082019050818103600083015262000a5f8162000a1d565b9050919050565b600062000a73826200057c565b915062000a80836200057c565b925082820190508082111562000a9b5762000a9a620007b7565b5b92915050565b62000aac816200057c565b82525050565b600060208201905062000ac9600083018462000aa1565b92915050565b61375c8062000adf6000396000f3fe6080604052600436106102255760003560e01c806368f58b0311610123578063b70f21c7116100ab578063dd62ed3e1161006f578063dd62ed3e14610800578063e43252d71461083d578063ec71ef8914610866578063f4ab29281461088f578063f6d7eade146108ba57610225565b8063b70f21c71461073a578063be07d17d14610777578063d1cabc35146107a2578063d7bb99ba146107b9578063d83a2bf3146107c357610225565b80638da5cb5b116100f25780638da5cb5b1461064157806395d89b411461066c5780639dc29fac14610697578063a457c2d7146106c0578063a9059cbb146106fd57610225565b806368f58b03146105855780636eefec11146105b057806370a08231146105db578063839254601461061857610225565b8063313ce567116101b157806340c10f191161017557806340c10f19146104c657806341cb87fc146104ef5780634626402b1461051857806348c54b9d1461054357806365acacfe1461055a57610225565b8063313ce567146103b957806332cb6b0c146103e4578063395093511461040f5780633af0dbc11461044c5780633af32abf1461048957610225565b80631690bb4e116101f85780631690bb4e146102d457806318160ddd146102fd5780631b9631fc146103285780631d057bd91461035357806323b872dd1461037c57610225565b8063023f41471461022a57806306fdde0314610255578063095ea7b31461028057806310bf6029146102bd575b600080fd5b34801561023657600080fd5b5061023f6108e5565b60405161024c9190612784565b60405180910390f35b34801561026157600080fd5b5061026a6108eb565b604051610277919061282f565b60405180910390f35b34801561028c57600080fd5b506102a760048036038101906102a291906128e0565b61097d565b6040516102b4919061293b565b60405180910390f35b3480156102c957600080fd5b506102d26109a0565b005b3480156102e057600080fd5b506102fb60048036038101906102f69190612994565b610a88565b005b34801561030957600080fd5b50610312610c7d565b60405161031f9190612784565b60405180910390f35b34801561033457600080fd5b5061033d610c87565b60405161034a91906129d0565b60405180910390f35b34801561035f57600080fd5b5061037a600480360381019061037591906128e0565b610cad565b005b34801561038857600080fd5b506103a3600480360381019061039e91906129eb565b610da3565b6040516103b0919061293b565b60405180910390f35b3480156103c557600080fd5b506103ce610dd2565b6040516103db9190612a5a565b60405180910390f35b3480156103f057600080fd5b506103f9610ddb565b6040516104069190612784565b60405180910390f35b34801561041b57600080fd5b50610436600480360381019061043191906128e0565b610de1565b604051610443919061293b565b60405180910390f35b34801561045857600080fd5b50610473600480360381019061046e9190612a75565b610e18565b6040516104809190612784565b60405180910390f35b34801561049557600080fd5b506104b060048036038101906104ab9190612a75565b610e30565b6040516104bd919061293b565b60405180910390f35b3480156104d257600080fd5b506104ed60048036038101906104e891906128e0565b610e50565b005b3480156104fb57600080fd5b5061051660048036038101906105119190612a75565b610fd2565b005b34801561052457600080fd5b5061052d611137565b60405161053a9190612ac3565b60405180910390f35b34801561054f57600080fd5b5061055861115d565b005b34801561056657600080fd5b5061056f611316565b60405161057c919061293b565b60405180910390f35b34801561059157600080fd5b5061059a611329565b6040516105a79190612784565b60405180910390f35b3480156105bc57600080fd5b506105c561132e565b6040516105d291906129d0565b60405180910390f35b3480156105e757600080fd5b5061060260048036038101906105fd9190612a75565b611354565b60405161060f9190612784565b60405180910390f35b34801561062457600080fd5b5061063f600480360381019061063a9190612a75565b61139c565b005b34801561064d57600080fd5b50610656611501565b60405161066391906129d0565b60405180910390f35b34801561067857600080fd5b50610681611527565b60405161068e919061282f565b60405180910390f35b3480156106a357600080fd5b506106be60048036038101906106b991906128e0565b6115b9565b005b3480156106cc57600080fd5b506106e760048036038101906106e291906128e0565b611675565b6040516106f4919061293b565b60405180910390f35b34801561070957600080fd5b50610724600480360381019061071f91906128e0565b6116ec565b604051610731919061293b565b60405180910390f35b34801561074657600080fd5b50610761600480360381019061075c9190612a75565b61170f565b60405161076e9190612784565b60405180910390f35b34801561078357600080fd5b5061078c611727565b604051610799919061293b565b60405180910390f35b3480156107ae57600080fd5b506107b761173a565b005b6107c1611822565b005b3480156107cf57600080fd5b506107ea60048036038101906107e591906129eb565b6119e9565b6040516107f7919061293b565b60405180910390f35b34801561080c57600080fd5b5061082760048036038101906108229190612ade565b611b55565b6040516108349190612784565b60405180910390f35b34801561084957600080fd5b50610864600480360381019061085f9190612a75565b611bdc565b005b34801561087257600080fd5b5061088d60048036038101906108889190612a75565b611cc7565b005b34801561089b57600080fd5b506108a4611e2c565b6040516108b1919061293b565b60405180910390f35b3480156108c657600080fd5b506108cf611e3f565b6040516108dc91906129d0565b60405180910390f35b60065481565b6060600380546108fa90612b4d565b80601f016020809104026020016040519081016040528092919081815260200182805461092690612b4d565b80156109735780601f1061094857610100808354040283529160200191610973565b820191906000526020600020905b81548152906001019060200180831161095657829003601f168201915b5050505050905090565b600080610988611e65565b9050610995818585611e6d565b600191505092915050565b600760039054906101000a900473ffffffffffffffffffffffffffffffffffffffff1673ffffffffffffffffffffffffffffffffffffffff163373ffffffffffffffffffffffffffffffffffffffff1614610a30576040517f08c379a0000000000000000000000000000000000000000000000000000000008152600401610a2790612bca565b60405180910390fd5b600760029054906101000a900460ff1615600760026101000a81548160ff0219169083151502179055507fe454716ccd4789e6869664dc631a651dcb83a4552bfdf7afda42167120c356d360405160405180910390a1565b600760039054906101000a900473ffffffffffffffffffffffffffffffffffffffff1673ffffffffffffffffffffffffffffffffffffffff163373ffffffffffffffffffffffffffffffffffffffff1614610b18576040517f08c379a0000000000000000000000000000000000000000000000000000000008152600401610b0f90612bca565b60405180910390fd5b600760019054906101000a900460ff1615610b68576040517f08c379a0000000000000000000000000000000000000000000000000000000008152600401610b5f90612c36565b60405180910390fd5b6001600760016101000a81548160ff02191690831515021790555060006064600654610b949190612c85565b9050610ba1308383612036565b8173ffffffffffffffffffffffffffffffffffffffff16636e553f6560065483306040518463ffffffff1660e01b8152600401610bdf929190612cc7565b6000604051808303818588803b158015610bf857600080fd5b505af1158015610c0c573d6000803e3d6000fd5b50505050508173ffffffffffffffffffffffffffffffffffffffff16632770d9016040518163ffffffff1660e01b8152600401600060405180830381600087803b158015610c5957600080fd5b505af1158015610c6d573d6000803e3d6000fd5b50505050610c796122b5565b5050565b6000600254905090565b600a60009054906101000a900473ffffffffffffffffffffffffffffffffffffffff1681565b600a60009054906101000a900473ffffffffffffffffffffffffffffffffffffffff1673ffffffffffffffffffffffffffffffffffffffff163373ffffffffffffffffffffffffffffffffffffffff161480610d565750600b60009054906101000a900473ffffffffffffffffffffffffffffffffffffffff1673ffffffffffffffffffffffffffffffffffffffff163373ffffffffffffffffffffffffffffffffffffffff16145b610d95576040517f08c379a0000000000000000000000000000000000000000000000000000000008152600401610d8c90612d3c565b60405180910390fd5b610d9f828261231e565b5050565b600080610dae611e65565b9050610dbb8582856124f4565b610dc6858585612580565b60019150509392505050565b60006012905090565b60055481565b600080610dec611e65565b9050610e0d818585610dfe8589611b55565b610e089190612d5c565b611e6d565b600191505092915050565b600d6020528060005260406000206000915090505481565b600e6020528060005260406000206000915054906101000a900460ff1681565b600760039054906101000a900473ffffffffffffffffffffffffffffffffffffffff1673ffffffffffffffffffffffffffffffffffffffff163373ffffffffffffffffffffffffffffffffffffffff1614610ee0576040517f08c379a0000000000000000000000000000000000000000000000000000000008152600401610ed790612bca565b60405180910390fd5b600073ffffffffffffffffffffffffffffffffffffffff168273ffffffffffffffffffffffffffffffffffffffff1603610f4f576040517f08c379a0000000000000000000000000000000000000000000000000000000008152600401610f4690612ddc565b60405180910390fd5b60055481610f5b610c7d565b610f659190612d5c565b1115610fa6576040517f08c379a0000000000000000000000000000000000000000000000000000000008152600401610f9d90612e48565b60405180910390fd5b610fce82610fb2610dd2565b600a610fbe9190612f9b565b83610fc99190612c85565b612602565b5050565b600760039054906101000a900473ffffffffffffffffffffffffffffffffffffffff1673ffffffffffffffffffffffffffffffffffffffff163373ffffffffffffffffffffffffffffffffffffffff1614611062576040517f08c379a000000000000000000000000000000000000000000000000000000000815260040161105990612bca565b60405180910390fd5b600073ffffffffffffffffffffffffffffffffffffffff16600960009054906101000a900473ffffffffffffffffffffffffffffffffffffffff1673ffffffffffffffffffffffffffffffffffffffff16146110f3576040517f08c379a00000000000000000000000000000000000000000000000000000000081526004016110ea90613032565b60405180910390fd5b80600960006101000a81548173ffffffffffffffffffffffffffffffffffffffff021916908373ffffffffffffffffffffffffffffffffffffffff16021790555050565b600860009054906101000a900473ffffffffffffffffffffffffffffffffffffffff1681565b600760009054906101000a900460ff16156111ad576040517f08c379a00000000000000000000000000000000000000000000000000000000081526004016111a49061309e565b60405180910390fd5b600760019054906101000a900460ff16156111fd576040517f08c379a00000000000000000000000000000000000000000000000000000000081526004016111f490612c36565b60405180910390fd5b6000600c60003373ffffffffffffffffffffffffffffffffffffffff1673ffffffffffffffffffffffffffffffffffffffff168152602001908152602001600020541161127f576040517f08c379a00000000000000000000000000000000000000000000000000000000081526004016112769061310a565b60405180910390fd5b6000600c60003373ffffffffffffffffffffffffffffffffffffffff1673ffffffffffffffffffffffffffffffffffffffff1681526020019081526020016000205490506000600c60003373ffffffffffffffffffffffffffffffffffffffff1673ffffffffffffffffffffffffffffffffffffffff16815260200190815260200160002081905550611313303383612036565b50565b600760019054906101000a900460ff1681565b600181565b600b60009054906101000a900473ffffffffffffffffffffffffffffffffffffffff1681565b60008060008373ffffffffffffffffffffffffffffffffffffffff1673ffffffffffffffffffffffffffffffffffffffff168152602001908152602001600020549050919050565b600760039054906101000a900473ffffffffffffffffffffffffffffffffffffffff1673ffffffffffffffffffffffffffffffffffffffff163373ffffffffffffffffffffffffffffffffffffffff161461142c576040517f08c379a000000000000000000000000000000000000000000000000000000000815260040161142390612bca565b60405180910390fd5b600073ffffffffffffffffffffffffffffffffffffffff16600a60009054906101000a900473ffffffffffffffffffffffffffffffffffffffff1673ffffffffffffffffffffffffffffffffffffffff16146114bd576040517f08c379a00000000000000000000000000000000000000000000000000000000081526004016114b490613032565b60405180910390fd5b80600a60006101000a81548173ffffffffffffffffffffffffffffffffffffffff021916908373ffffffffffffffffffffffffffffffffffffffff16021790555050565b600760039054906101000a900473ffffffffffffffffffffffffffffffffffffffff1681565b60606004805461153690612b4d565b80601f016020809104026020016040519081016040528092919081815260200182805461156290612b4d565b80156115af5780601f10611584576101008083540402835291602001916115af565b820191906000526020600020905b81548152906001019060200180831161159257829003601f168201915b5050505050905090565b600760039054906101000a900473ffffffffffffffffffffffffffffffffffffffff1673ffffffffffffffffffffffffffffffffffffffff163373ffffffffffffffffffffffffffffffffffffffff1614611649576040517f08c379a000000000000000000000000000000000000000000000000000000000815260040161164090612bca565b60405180910390fd5b61167182611655610dd2565b600a6116619190612f9b565b8361166c9190612c85565b61231e565b5050565b600080611680611e65565b9050600061168e8286611b55565b9050838110156116d3576040517f08c379a00000000000000000000000000000000000000000000000000000000081526004016116ca9061319c565b60405180910390fd5b6116e08286868403611e6d565b60019250505092915050565b6000806116f7611e65565b9050611704818585612580565b600191505092915050565b600c6020528060005260406000206000915090505481565b600760029054906101000a900460ff1681565b600760039054906101000a900473ffffffffffffffffffffffffffffffffffffffff1673ffffffffffffffffffffffffffffffffffffffff163373ffffffffffffffffffffffffffffffffffffffff16146117ca576040517f08c379a00000000000000000000000000000000000000000000000000000000081526004016117c190612bca565b60405180910390fd5b600760009054906101000a900460ff1615600760006101000a81548160ff0219169083151502179055507fe454716ccd4789e6869664dc631a651dcb83a4552bfdf7afda42167120c356d360405160405180910390a1565b600760009054906101000a900460ff1615611872576040517f08c379a00000000000000000000000000000000000000000000000000000000081526004016118699061309e565b60405180910390fd5b600760019054906101000a900460ff16156118c2576040517f08c379a00000000000000000000000000000000000000000000000000000000081526004016118b990612c36565b60405180910390fd5b60006064346118d19190612c85565b905080600c60003373ffffffffffffffffffffffffffffffffffffffff1673ffffffffffffffffffffffffffffffffffffffff16815260200190815260200160002060008282546119229190612d5c565b9250508190555034600d60003373ffffffffffffffffffffffffffffffffffffffff1673ffffffffffffffffffffffffffffffffffffffff16815260200190815260200160002060008282546119789190612d5c565b9250508190555034600660008282546119919190612d5c565b925050819055503373ffffffffffffffffffffffffffffffffffffffff167f745f661b8143944fb883f50694ebed3a871e43c451d9d4bf4648a9d551d7e47a826040516119de9190612784565b60405180910390a250565b6000600960009054906101000a900473ffffffffffffffffffffffffffffffffffffffff1673ffffffffffffffffffffffffffffffffffffffff163373ffffffffffffffffffffffffffffffffffffffff161480611a945750600a60009054906101000a900473ffffffffffffffffffffffffffffffffffffffff1673ffffffffffffffffffffffffffffffffffffffff163373ffffffffffffffffffffffffffffffffffffffff16145b80611aec5750600b60009054906101000a900473ffffffffffffffffffffffffffffffffffffffff1673ffffffffffffffffffffffffffffffffffffffff163373ffffffffffffffffffffffffffffffffffffffff16145b611b2b576040517f08c379a0000000000000000000000000000000000000000000000000000000008152600401611b2290613208565b60405180910390fd5b611b4a848484611b3b3330611b55565b611b459190612d5c565b611e6d565b600190509392505050565b6000600160008473ffffffffffffffffffffffffffffffffffffffff1673ffffffffffffffffffffffffffffffffffffffff16815260200190815260200160002060008373ffffffffffffffffffffffffffffffffffffffff1673ffffffffffffffffffffffffffffffffffffffff16815260200190815260200160002054905092915050565b600760039054906101000a900473ffffffffffffffffffffffffffffffffffffffff1673ffffffffffffffffffffffffffffffffffffffff163373ffffffffffffffffffffffffffffffffffffffff1614611c6c576040517f08c379a0000000000000000000000000000000000000000000000000000000008152600401611c6390612bca565b60405180910390fd5b6001600e60008373ffffffffffffffffffffffffffffffffffffffff1673ffffffffffffffffffffffffffffffffffffffff16815260200190815260200160002060006101000a81548160ff02191690831515021790555050565b600760039054906101000a900473ffffffffffffffffffffffffffffffffffffffff1673ffffffffffffffffffffffffffffffffffffffff163373ffffffffffffffffffffffffffffffffffffffff1614611d57576040517f08c379a0000000000000000000000000000000000000000000000000000000008152600401611d4e90612bca565b60405180910390fd5b600073ffffffffffffffffffffffffffffffffffffffff16600b60009054906101000a900473ffffffffffffffffffffffffffffffffffffffff1673ffffffffffffffffffffffffffffffffffffffff1614611de8576040517f08c379a0000000000000000000000000000000000000000000000000000000008152600401611ddf90613032565b60405180910390fd5b80600b60006101000a81548173ffffffffffffffffffffffffffffffffffffffff021916908373ffffffffffffffffffffffffffffffffffffffff16021790555050565b600760009054906101000a900460ff1681565b600960009054906101000a900473ffffffffffffffffffffffffffffffffffffffff1681565b600033905090565b600073ffffffffffffffffffffffffffffffffffffffff168373ffffffffffffffffffffffffffffffffffffffff1603611edc576040517f08c379a0000000000000000000000000000000000000000000000000000000008152600401611ed39061329a565b60405180910390fd5b600073ffffffffffffffffffffffffffffffffffffffff168273ffffffffffffffffffffffffffffffffffffffff1603611f4b576040517f08c379a0000000000000000000000000000000000000000000000000000000008152600401611f429061332c565b60405180910390fd5b80600160008573ffffffffffffffffffffffffffffffffffffffff1673ffffffffffffffffffffffffffffffffffffffff16815260200190815260200160002060008473ffffffffffffffffffffffffffffffffffffffff1673ffffffffffffffffffffffffffffffffffffffff168152602001908152602001600020819055508173ffffffffffffffffffffffffffffffffffffffff168373ffffffffffffffffffffffffffffffffffffffff167f8c5be1e5ebec7d5bd14f71427d1e84f3dd0314c0f7b2291e5b200ac8c7c3b925836040516120299190612784565b60405180910390a3505050565b600073ffffffffffffffffffffffffffffffffffffffff168373ffffffffffffffffffffffffffffffffffffffff16036120a5576040517f08c379a000000000000000000000000000000000000000000000000000000000815260040161209c906133be565b60405180910390fd5b600073ffffffffffffffffffffffffffffffffffffffff168273ffffffffffffffffffffffffffffffffffffffff1603612114576040517f08c379a000000000000000000000000000000000000000000000000000000000815260040161210b90613450565b60405180910390fd5b61211f838383612761565b60008060008573ffffffffffffffffffffffffffffffffffffffff1673ffffffffffffffffffffffffffffffffffffffff168152602001908152602001600020549050818110156121a5576040517f08c379a000000000000000000000000000000000000000000000000000000000815260040161219c906134e2565b60405180910390fd5b8181036000808673ffffffffffffffffffffffffffffffffffffffff1673ffffffffffffffffffffffffffffffffffffffff16815260200190815260200160002081905550816000808573ffffffffffffffffffffffffffffffffffffffff1673ffffffffffffffffffffffffffffffffffffffff16815260200190815260200160002060008282546122389190612d5c565b925050819055508273ffffffffffffffffffffffffffffffffffffffff168473ffffffffffffffffffffffffffffffffffffffff167fddf252ad1be2c89b69c2b068fc378daa952ba7f163c4a11628f55a4df523b3ef8460405161229c9190612784565b60405180910390a36122af848484612766565b50505050565b60006122c030611354565b90506122ef30600860009054906101000a900473ffffffffffffffffffffffffffffffffffffffff1683612036565b7fa01103220c31ee0c47e79a81104a3e82740390c1d918ad5638190cc185bd92e160405160405180910390a150565b600073ffffffffffffffffffffffffffffffffffffffff168273ffffffffffffffffffffffffffffffffffffffff160361238d576040517f08c379a000000000000000000000000000000000000000000000000000000000815260040161238490613574565b60405180910390fd5b61239982600083612761565b60008060008473ffffffffffffffffffffffffffffffffffffffff1673ffffffffffffffffffffffffffffffffffffffff1681526020019081526020016000205490508181101561241f576040517f08c379a000000000000000000000000000000000000000000000000000000000815260040161241690613606565b60405180910390fd5b8181036000808573ffffffffffffffffffffffffffffffffffffffff1673ffffffffffffffffffffffffffffffffffffffff1681526020019081526020016000208190555081600260008282546124769190613626565b92505081905550600073ffffffffffffffffffffffffffffffffffffffff168373ffffffffffffffffffffffffffffffffffffffff167fddf252ad1be2c89b69c2b068fc378daa952ba7f163c4a11628f55a4df523b3ef846040516124db9190612784565b60405180910390a36124ef83600084612766565b505050565b60006125008484611b55565b90507fffffffffffffffffffffffffffffffffffffffffffffffffffffffffffffffff811461257a578181101561256c576040517f08c379a0000000000000000000000000000000000000000000000000000000008152600401612563906136a6565b60405180910390fd5b6125798484848403611e6d565b5b50505050565b6000600760029054906101000a900460ff16156125b35760648260016125a69190612c85565b6125b091906136f5565b90505b600081836125c19190613626565b90506125ce858583612036565b6125fb85600860009054906101000a900473ffffffffffffffffffffffffffffffffffffffff1684612036565b5050505050565b600073ffffffffffffffffffffffffffffffffffffffff168273ffffffffffffffffffffffffffffffffffffffff1603612671576040517f08c379a000000000000000000000000000000000000000000000000000000000815260040161266890612ddc565b60405180910390fd5b61267d60008383612761565b806002600082825461268f9190612d5c565b92505081905550806000808473ffffffffffffffffffffffffffffffffffffffff1673ffffffffffffffffffffffffffffffffffffffff16815260200190815260200160002060008282546126e49190612d5c565b925050819055508173ffffffffffffffffffffffffffffffffffffffff16600073ffffffffffffffffffffffffffffffffffffffff167fddf252ad1be2c89b69c2b068fc378daa952ba7f163c4a11628f55a4df523b3ef836040516127499190612784565b60405180910390a361275d60008383612766565b5050565b505050565b505050565b6000819050919050565b61277e8161276b565b82525050565b60006020820190506127996000830184612775565b92915050565b600081519050919050565b600082825260208201905092915050565b60005b838110156127d95780820151818401526020810190506127be565b60008484015250505050565b6000601f19601f8301169050919050565b60006128018261279f565b61280b81856127aa565b935061281b8185602086016127bb565b612824816127e5565b840191505092915050565b6000602082019050818103600083015261284981846127f6565b905092915050565b600080fd5b600073ffffffffffffffffffffffffffffffffffffffff82169050919050565b600061288182612856565b9050919050565b61289181612876565b811461289c57600080fd5b50565b6000813590506128ae81612888565b92915050565b6128bd8161276b565b81146128c857600080fd5b50565b6000813590506128da816128b4565b92915050565b600080604083850312156128f7576128f6612851565b5b60006129058582860161289f565b9250506020612916858286016128cb565b9150509250929050565b60008115159050919050565b61293581612920565b82525050565b6000602082019050612950600083018461292c565b92915050565b600061296182612876565b9050919050565b61297181612956565b811461297c57600080fd5b50565b60008135905061298e81612968565b92915050565b6000602082840312156129aa576129a9612851565b5b60006129b88482850161297f565b91505092915050565b6129ca81612876565b82525050565b60006020820190506129e560008301846129c1565b92915050565b600080600060608486031215612a0457612a03612851565b5b6000612a128682870161289f565b9350506020612a238682870161289f565b9250506040612a34868287016128cb565b9150509250925092565b600060ff82169050919050565b612a5481612a3e565b82525050565b6000602082019050612a6f6000830184612a4b565b92915050565b600060208284031215612a8b57612a8a612851565b5b6000612a998482850161289f565b91505092915050565b6000612aad82612856565b9050919050565b612abd81612aa2565b82525050565b6000602082019050612ad86000830184612ab4565b92915050565b60008060408385031215612af557612af4612851565b5b6000612b038582860161289f565b9250506020612b148582860161289f565b9150509250929050565b7f4e487b7100000000000000000000000000000000000000000000000000000000600052602260045260246000fd5b60006002820490506001821680612b6557607f821691505b602082108103612b7857612b77612b1e565b5b50919050565b7f4f574e45525f4f4e4c5900000000000000000000000000000000000000000000600082015250565b6000612bb4600a836127aa565b9150612bbf82612b7e565b602082019050919050565b60006020820190508181036000830152612be381612ba7565b9050919050565b7f46554e44535f4d4f5645445f544f5f4c50000000000000000000000000000000600082015250565b6000612c206011836127aa565b9150612c2b82612bea565b602082019050919050565b60006020820190508181036000830152612c4f81612c13565b9050919050565b7f4e487b7100000000000000000000000000000000000000000000000000000000600052601160045260246000fd5b6000612c908261276b565b9150612c9b8361276b565b9250828202612ca98161276b565b91508282048414831517612cc057612cbf612c56565b5b5092915050565b6000604082019050612cdc6000830185612775565b612ce960208301846129c1565b9392505050565b7f4d41504c454e46545f4f4e4c5900000000000000000000000000000000000000600082015250565b6000612d26600d836127aa565b9150612d3182612cf0565b602082019050919050565b60006020820190508181036000830152612d5581612d19565b9050919050565b6000612d678261276b565b9150612d728361276b565b9250828201905080821115612d8a57612d89612c56565b5b92915050565b7f45524332303a206d696e7420746f20746865207a65726f206164647265737300600082015250565b6000612dc6601f836127aa565b9150612dd182612d90565b602082019050919050565b60006020820190508181036000830152612df581612db9565b9050919050565b7f41424f56455f4d41585f535550504c5900000000000000000000000000000000600082015250565b6000612e326010836127aa565b9150612e3d82612dfc565b602082019050919050565b60006020820190508181036000830152612e6181612e25565b9050919050565b60008160011c9050919050565b6000808291508390505b6001851115612ebf57808604811115612e9b57612e9a612c56565b5b6001851615612eaa5780820291505b8081029050612eb885612e68565b9450612e7f565b94509492505050565b600082612ed85760019050612f94565b81612ee65760009050612f94565b8160018114612efc5760028114612f0657612f35565b6001915050612f94565b60ff841115612f1857612f17612c56565b5b8360020a915084821115612f2f57612f2e612c56565b5b50612f94565b5060208310610133831016604e8410600b8410161715612f6a5782820a905083811115612f6557612f64612c56565b5b612f94565b612f778484846001612e75565b92509050818404811115612f8e57612f8d612c56565b5b81810290505b9392505050565b6000612fa68261276b565b9150612fb183612a3e565b9250612fde7fffffffffffffffffffffffffffffffffffffffffffffffffffffffffffffffff8484612ec8565b905092915050565b7f57524954455f4f4e434521000000000000000000000000000000000000000000600082015250565b600061301c600b836127aa565b915061302782612fe6565b602082019050919050565b6000602082019050818103600083015261304b8161300f565b9050919050565b7f434f4e54524143545f5041555345440000000000000000000000000000000000600082015250565b6000613088600f836127aa565b915061309382613052565b602082019050919050565b600060208201905081810360008301526130b78161307b565b9050919050565b7f4e4f5f415641494c41424c455f46554e44530000000000000000000000000000600082015250565b60006130f46012836127aa565b91506130ff826130be565b602082019050919050565b60006020820190508181036000830152613123816130e7565b9050919050565b7f45524332303a2064656372656173656420616c6c6f77616e63652062656c6f7760008201527f207a65726f000000000000000000000000000000000000000000000000000000602082015250565b60006131866025836127aa565b91506131918261312a565b604082019050919050565b600060208201905081810360008301526131b581613179565b9050919050565b7f524f555445525f4f525f4d41504c455f4f4e4c59000000000000000000000000600082015250565b60006131f26014836127aa565b91506131fd826131bc565b602082019050919050565b60006020820190508181036000830152613221816131e5565b9050919050565b7f45524332303a20617070726f76652066726f6d20746865207a65726f2061646460008201527f7265737300000000000000000000000000000000000000000000000000000000602082015250565b60006132846024836127aa565b915061328f82613228565b604082019050919050565b600060208201905081810360008301526132b381613277565b9050919050565b7f45524332303a20617070726f766520746f20746865207a65726f20616464726560008201527f7373000000000000000000000000000000000000000000000000000000000000602082015250565b60006133166022836127aa565b9150613321826132ba565b604082019050919050565b6000602082019050818103600083015261334581613309565b9050919050565b7f45524332303a207472616e736665722066726f6d20746865207a65726f20616460008201527f6472657373000000000000000000000000000000000000000000000000000000602082015250565b60006133a86025836127aa565b91506133b38261334c565b604082019050919050565b600060208201905081810360008301526133d78161339b565b9050919050565b7f45524332303a207472616e7366657220746f20746865207a65726f206164647260008201527f6573730000000000000000000000000000000000000000000000000000000000602082015250565b600061343a6023836127aa565b9150613445826133de565b604082019050919050565b600060208201905081810360008301526134698161342d565b9050919050565b7f45524332303a207472616e7366657220616d6f756e742065786365656473206260008201527f616c616e63650000000000000000000000000000000000000000000000000000602082015250565b60006134cc6026836127aa565b91506134d782613470565b604082019050919050565b600060208201905081810360008301526134fb816134bf565b9050919050565b7f45524332303a206275726e2066726f6d20746865207a65726f2061646472657360008201527f7300000000000000000000000000000000000000000000000000000000000000602082015250565b600061355e6021836127aa565b915061356982613502565b604082019050919050565b6000602082019050818103600083015261358d81613551565b9050919050565b7f45524332303a206275726e20616d6f756e7420657863656564732062616c616e60008201527f6365000000000000000000000000000000000000000000000000000000000000602082015250565b60006135f06022836127aa565b91506135fb82613594565b604082019050919050565b6000602082019050818103600083015261361f816135e3565b9050919050565b60006136318261276b565b915061363c8361276b565b925082820390508181111561365457613653612c56565b5b92915050565b7f45524332303a20696e73756666696369656e7420616c6c6f77616e6365000000600082015250565b6000613690601d836127aa565b915061369b8261365a565b602082019050919050565b600060208201905081810360008301526136bf81613683565b9050919050565b7f4e487b7100000000000000000000000000000000000000000000000000000000600052601260045260246000fd5b60006137008261276b565b915061370b8361276b565b92508261371b5761371a6136c6565b5b82820490509291505056fea264697066735822122061734bd2c25eb3204c8846c09a28a1d2fed2d18144275738cf7853444281ee5a64736f6c63430008110033",
  "immutableReferences": {},
  "source": "//SPDX-License-Identifier: Unlicense\npragma solidity ^0.8.0;\n\nimport \"@openzeppelin/contracts/token/ERC20/ERC20.sol\";\nimport \"./LiquidityPool.sol\";\n\ncontract JMToken is ERC20 {\n    event TokensBought(address indexed _account, uint256 amount); //    \n    event OwnerAction(); //  \n    event FundsMoved(); //   \n\n    uint256 public MAX_SUPPLY; //  \n    uint256 public constant TAX = 1; //   tx 1%\n    uint256 public totalContributed; //    \n    bool public isContractPaused; //   \n    bool public fundsAlreadyMoved;\n    bool public isTaxOn = true; //   on off \n    address public owner; //  \n    address payable public treasuryWallet; //  !\n    address public Router;\n    address public MapleNFT;\n    address public MapleItems;\n\n    mapping(address => uint256) public balancesToClaim; // 1:100 ==jmt\n    mapping(address => uint256) public contributionsOf; //   eth\n    mapping(address => bool) public isWhitelisted;\n\n    constructor(address payable treasury) ERC20(\"JMT Token\", \"JMT\") {\n        MAX_SUPPLY = 1000000 * 10**decimals(); \n        _mint(address(this), MAX_SUPPLY); \n        owner = msg.sender; \n        treasuryWallet = treasury; // ,  \n        isWhitelisted[owner] = true; //     \n    }\n\n    modifier ownerOnly() {\n        require(msg.sender == owner, \"OWNER_ONLY\");\n        _;\n    }\n\n    modifier mapleNFTOnly(){\n        require(msg.sender == MapleNFT || msg.sender == MapleItems, \"MAPLENFT_ONLY\");\n        _;\n    }\n    // router  \n    modifier routerOnly() {\n        require(msg.sender == Router || msg.sender == MapleNFT || msg.sender == MapleItems, \"ROUTER_OR_MAPLE_ONLY\");\n        _;\n    }\n    //    \n    modifier areFundsMoved() {\n        require(!fundsAlreadyMoved, \"FUNDS_MOVED_TO_LP\");\n        _;\n    }\n\n    //   \n    modifier isPaused() {\n        require(!isContractPaused, \"CONTRACT_PAUSED\");\n        _;\n    }\n\n\n    //     (0x0)  ,   \n    function setRouterAddress(address _router) external  ownerOnly {\n        require(address(Router) == address(0), \"WRITE_ONCE!\"); // 0x00000000\n        Router = _router;\n    }\n\n     function setMapleNFTAddress(address _mapleNft) external  ownerOnly {\n        require(address(MapleNFT) == address(0), \"WRITE_ONCE!\");\n        MapleNFT = _mapleNft;\n    }\n    function setMapleItemsAddress(address _mapleItems ) external  ownerOnly {\n        require(address(MapleItems) == address(0), \"WRITE_ONCE!\");\n        MapleItems = _mapleItems;\n    }\n  \n    //   \n    function contribute() external payable isPaused areFundsMoved {\n\n        //  1:100\n        uint256 tokenAmount = msg.value * 100;\n        balancesToClaim[msg.sender] += tokenAmount;\n        contributionsOf[msg.sender] += msg.value;\n        totalContributed += msg.value; \n        emit TokensBought(msg.sender, tokenAmount);\n    }\n    \n    //  jmt  \n    function claimTokens() external isPaused areFundsMoved {\n        require(balancesToClaim[msg.sender] > 0, \"NO_AVAILABLE_FUNDS\"); //      \n        uint256 tokensToClaim = balancesToClaim[msg.sender];\n        balancesToClaim[msg.sender] = 0;\n\n        super._transfer(address(this), msg.sender, tokensToClaim); //  -> sender \n    }\n\n    // pause \n    function togglePauseContract() external ownerOnly {\n        isContractPaused = !isContractPaused;\n        emit OwnerAction();\n    }\n\n    // tx  : true\n    function toggleTax() external ownerOnly {\n        isTaxOn = !isTaxOn;\n        emit OwnerAction();\n    }\n\n    //   \n    function addToWhitelist(address account) external ownerOnly {\n        isWhitelisted[account] = true;\n    }\n\n    function _transfer(address sender, address recipient, uint256 amount) internal override {\n        uint256 amountToTake;\n        // tx\n        if (isTaxOn) {\n            amountToTake = (TAX * amount) / 100;\n        }\n        uint256 amountToTransfer = amount - amountToTake;\n        //    \n        super._transfer(sender, recipient, amountToTransfer);\n        //   \n        super._transfer(sender, treasuryWallet, amountToTake); \n    }\n\n    function mint(address account, uint256 amount) external ownerOnly {\n        require(account != address(0), \"ERC20: mint to the zero address\"); //      \n        require(totalSupply() + amount <= MAX_SUPPLY, \"ABOVE_MAX_SUPPLY\"); //   \n        _mint(account, amount * 10**decimals());\n    }\n    \n    function burn(address account, uint256 amount) external ownerOnly {\n        _burn(account, amount * 10**decimals());\n    }\n\n    function marketBurn(address account, uint256 amount) external mapleNFTOnly {\n        _burn(account, amount);\n\n    }\n\n    //tranferfrom  \n    //spender   \n    //      x \n    function increaseContractAllowance(address _owner,address _spender,uint256 _amount)  \n        public routerOnly returns (bool) {\n        // spender         \n        // allowance      return \n        _approve(\n            _owner, // from\n            _spender, // to\n            allowance(msg.sender, address(this)) + _amount\n        ); \n        return true;\n    }\n\n    //   -> lp ,    \n    function sendLiquidityToLPContract(LiquidityPool liquidityPool) external ownerOnly areFundsMoved\n    {\n        fundsAlreadyMoved = true; //\n\n        //   * 100 jmt \n        uint256 jmtCoinAmountToTransfer = totalContributed * 100;\n\n        // lp JMT \n        super._transfer(\n            address(this),\n            address(liquidityPool),\n            jmtCoinAmountToTransfer\n        );\n\n        //msg.value = totalContributed,  , \n        liquidityPool.deposit{value: totalContributed}(\n            jmtCoinAmountToTransfer,\n            address(this)\n        );\n\n        // reserve_setting\n        liquidityPool.setFundedReserve();\n\n        sendRemainingFundsToTreasury();\n    }\n    //       \n    // ,  ?\n    //   \n    function sendRemainingFundsToTreasury() internal {\n        uint256 remainingJMT = balanceOf(address(this));\n        super._transfer(address(this), address(treasuryWallet), remainingJMT);\n        emit FundsMoved();\n    }\n}",
  "sourcePath": "/Users/hyenne/workspace/BEB-05-JMT/contract/contracts/JMToken.sol",
  "compiler": {
    "name": "solc",
    "version": "0.8.17+commit.8df45f5f.Emscripten.clang"
  },
  "schemaVersion": "3.4.9",
  "updatedAt": "2022-09-19T18:57:54.921Z",
  "networkType": "ethereum",
  "devdoc": {
    "kind": "dev",
    "methods": {
      "allowance(address,address)": {
        "details": "See {IERC20-allowance}."
      },
      "approve(address,uint256)": {
        "details": "See {IERC20-approve}. NOTE: If `amount` is the maximum `uint256`, the allowance is not updated on `transferFrom`. This is semantically equivalent to an infinite approval. Requirements: - `spender` cannot be the zero address."
      },
      "balanceOf(address)": {
        "details": "See {IERC20-balanceOf}."
      },
      "decimals()": {
        "details": "Returns the number of decimals used to get its user representation. For example, if `decimals` equals `2`, a balance of `505` tokens should be displayed to a user as `5.05` (`505 / 10 ** 2`). Tokens usually opt for a value of 18, imitating the relationship between Ether and Wei. This is the value {ERC20} uses, unless this function is overridden; NOTE: This information is only used for _display_ purposes: it in no way affects any of the arithmetic of the contract, including {IERC20-balanceOf} and {IERC20-transfer}."
      },
      "decreaseAllowance(address,uint256)": {
        "details": "Atomically decreases the allowance granted to `spender` by the caller. This is an alternative to {approve} that can be used as a mitigation for problems described in {IERC20-approve}. Emits an {Approval} event indicating the updated allowance. Requirements: - `spender` cannot be the zero address. - `spender` must have allowance for the caller of at least `subtractedValue`."
      },
      "increaseAllowance(address,uint256)": {
        "details": "Atomically increases the allowance granted to `spender` by the caller. This is an alternative to {approve} that can be used as a mitigation for problems described in {IERC20-approve}. Emits an {Approval} event indicating the updated allowance. Requirements: - `spender` cannot be the zero address."
      },
      "name()": {
        "details": "Returns the name of the token."
      },
      "symbol()": {
        "details": "Returns the symbol of the token, usually a shorter version of the name."
      },
      "totalSupply()": {
        "details": "See {IERC20-totalSupply}."
      },
      "transfer(address,uint256)": {
        "details": "See {IERC20-transfer}. Requirements: - `to` cannot be the zero address. - the caller must have a balance of at least `amount`."
      },
      "transferFrom(address,address,uint256)": {
        "details": "See {IERC20-transferFrom}. Emits an {Approval} event indicating the updated allowance. This is not required by the EIP. See the note at the beginning of {ERC20}. NOTE: Does not update the allowance if the current allowance is the maximum `uint256`. Requirements: - `from` and `to` cannot be the zero address. - `from` must have a balance of at least `amount`. - the caller must have allowance for ``from``'s tokens of at least `amount`."
      }
    },
    "version": 1
  },
  "userdoc": {
    "kind": "user",
    "methods": {},
    "version": 1
  }
}