{
  "contractName": "JMToken",
  "abi": [
    {
      "inputs": [
        {
          "internalType": "address payable",
          "name": "treasury",
          "type": "address"
        }
      ],
      "stateMutability": "nonpayable",
      "type": "constructor"
    },
    {
      "anonymous": false,
      "inputs": [
        {
          "indexed": true,
          "internalType": "address",
          "name": "owner",
          "type": "address"
        },
        {
          "indexed": true,
          "internalType": "address",
          "name": "spender",
          "type": "address"
        },
        {
          "indexed": false,
          "internalType": "uint256",
          "name": "value",
          "type": "uint256"
        }
      ],
      "name": "Approval",
      "type": "event"
    },
    {
      "anonymous": false,
      "inputs": [],
      "name": "FundsMoved",
      "type": "event"
    },
    {
      "anonymous": false,
      "inputs": [],
      "name": "OwnerAction",
      "type": "event"
    },
    {
      "anonymous": false,
      "inputs": [
        {
          "indexed": true,
          "internalType": "address",
          "name": "_account",
          "type": "address"
        },
        {
          "indexed": false,
          "internalType": "uint256",
          "name": "amount",
          "type": "uint256"
        }
      ],
      "name": "TokensBought",
      "type": "event"
    },
    {
      "anonymous": false,
      "inputs": [
        {
          "indexed": true,
          "internalType": "address",
          "name": "from",
          "type": "address"
        },
        {
          "indexed": true,
          "internalType": "address",
          "name": "to",
          "type": "address"
        },
        {
          "indexed": false,
          "internalType": "uint256",
          "name": "value",
          "type": "uint256"
        }
      ],
      "name": "Transfer",
      "type": "event"
    },
    {
      "anonymous": false,
      "inputs": [],
      "name": "_MovedStakingReward",
      "type": "event"
    },
    {
      "inputs": [],
      "name": "MAX_SUPPLY",
      "outputs": [
        {
          "internalType": "uint256",
          "name": "",
          "type": "uint256"
        }
      ],
      "stateMutability": "view",
      "type": "function",
      "constant": true
    },
    {
      "inputs": [],
      "name": "MapleItems",
      "outputs": [
        {
          "internalType": "address",
          "name": "",
          "type": "address"
        }
      ],
      "stateMutability": "view",
      "type": "function",
      "constant": true
    },
    {
      "inputs": [],
      "name": "MapleNFT",
      "outputs": [
        {
          "internalType": "address",
          "name": "",
          "type": "address"
        }
      ],
      "stateMutability": "view",
      "type": "function",
      "constant": true
    },
    {
      "inputs": [],
      "name": "Router",
      "outputs": [
        {
          "internalType": "address",
          "name": "",
          "type": "address"
        }
      ],
      "stateMutability": "view",
      "type": "function",
      "constant": true
    },
    {
      "inputs": [],
      "name": "Staking",
      "outputs": [
        {
          "internalType": "address",
          "name": "",
          "type": "address"
        }
      ],
      "stateMutability": "view",
      "type": "function",
      "constant": true
    },
    {
      "inputs": [],
      "name": "TAX",
      "outputs": [
        {
          "internalType": "uint256",
          "name": "",
          "type": "uint256"
        }
      ],
      "stateMutability": "view",
      "type": "function",
      "constant": true
    },
    {
      "inputs": [
        {
          "internalType": "address",
          "name": "owner",
          "type": "address"
        },
        {
          "internalType": "address",
          "name": "spender",
          "type": "address"
        }
      ],
      "name": "allowance",
      "outputs": [
        {
          "internalType": "uint256",
          "name": "",
          "type": "uint256"
        }
      ],
      "stateMutability": "view",
      "type": "function",
      "constant": true
    },
    {
      "inputs": [
        {
          "internalType": "address",
          "name": "spender",
          "type": "address"
        },
        {
          "internalType": "uint256",
          "name": "amount",
          "type": "uint256"
        }
      ],
      "name": "approve",
      "outputs": [
        {
          "internalType": "bool",
          "name": "",
          "type": "bool"
        }
      ],
      "stateMutability": "nonpayable",
      "type": "function"
    },
    {
      "inputs": [
        {
          "internalType": "address",
          "name": "account",
          "type": "address"
        }
      ],
      "name": "balanceOf",
      "outputs": [
        {
          "internalType": "uint256",
          "name": "",
          "type": "uint256"
        }
      ],
      "stateMutability": "view",
      "type": "function",
      "constant": true
    },
    {
      "inputs": [
        {
          "internalType": "address",
          "name": "",
          "type": "address"
        }
      ],
      "name": "balancesToClaim",
      "outputs": [
        {
          "internalType": "uint256",
          "name": "",
          "type": "uint256"
        }
      ],
      "stateMutability": "view",
      "type": "function",
      "constant": true
    },
    {
      "inputs": [
        {
          "internalType": "address",
          "name": "",
          "type": "address"
        }
      ],
      "name": "contributionsOf",
      "outputs": [
        {
          "internalType": "uint256",
          "name": "",
          "type": "uint256"
        }
      ],
      "stateMutability": "view",
      "type": "function",
      "constant": true
    },
    {
      "inputs": [],
      "name": "decimals",
      "outputs": [
        {
          "internalType": "uint8",
          "name": "",
          "type": "uint8"
        }
      ],
      "stateMutability": "view",
      "type": "function",
      "constant": true
    },
    {
      "inputs": [
        {
          "internalType": "address",
          "name": "spender",
          "type": "address"
        },
        {
          "internalType": "uint256",
          "name": "subtractedValue",
          "type": "uint256"
        }
      ],
      "name": "decreaseAllowance",
      "outputs": [
        {
          "internalType": "bool",
          "name": "",
          "type": "bool"
        }
      ],
      "stateMutability": "nonpayable",
      "type": "function"
    },
    {
      "inputs": [],
      "name": "fundsAlreadyMoved",
      "outputs": [
        {
          "internalType": "bool",
          "name": "",
          "type": "bool"
        }
      ],
      "stateMutability": "view",
      "type": "function",
      "constant": true
    },
    {
      "inputs": [
        {
          "internalType": "address",
          "name": "spender",
          "type": "address"
        },
        {
          "internalType": "uint256",
          "name": "addedValue",
          "type": "uint256"
        }
      ],
      "name": "increaseAllowance",
      "outputs": [
        {
          "internalType": "bool",
          "name": "",
          "type": "bool"
        }
      ],
      "stateMutability": "nonpayable",
      "type": "function"
    },
    {
      "inputs": [],
      "name": "isContractPaused",
      "outputs": [
        {
          "internalType": "bool",
          "name": "",
          "type": "bool"
        }
      ],
      "stateMutability": "view",
      "type": "function",
      "constant": true
    },
    {
      "inputs": [],
      "name": "isTaxOn",
      "outputs": [
        {
          "internalType": "bool",
          "name": "",
          "type": "bool"
        }
      ],
      "stateMutability": "view",
      "type": "function",
      "constant": true
    },
    {
      "inputs": [
        {
          "internalType": "address",
          "name": "",
          "type": "address"
        }
      ],
      "name": "isWhitelisted",
      "outputs": [
        {
          "internalType": "bool",
          "name": "",
          "type": "bool"
        }
      ],
      "stateMutability": "view",
      "type": "function",
      "constant": true
    },
    {
      "inputs": [],
      "name": "name",
      "outputs": [
        {
          "internalType": "string",
          "name": "",
          "type": "string"
        }
      ],
      "stateMutability": "view",
      "type": "function",
      "constant": true
    },
    {
      "inputs": [],
      "name": "owner",
      "outputs": [
        {
          "internalType": "address",
          "name": "",
          "type": "address"
        }
      ],
      "stateMutability": "view",
      "type": "function",
      "constant": true
    },
    {
      "inputs": [],
      "name": "symbol",
      "outputs": [
        {
          "internalType": "string",
          "name": "",
          "type": "string"
        }
      ],
      "stateMutability": "view",
      "type": "function",
      "constant": true
    },
    {
      "inputs": [],
      "name": "totalContributed",
      "outputs": [
        {
          "internalType": "uint256",
          "name": "",
          "type": "uint256"
        }
      ],
      "stateMutability": "view",
      "type": "function",
      "constant": true
    },
    {
      "inputs": [],
      "name": "totalSupply",
      "outputs": [
        {
          "internalType": "uint256",
          "name": "",
          "type": "uint256"
        }
      ],
      "stateMutability": "view",
      "type": "function",
      "constant": true
    },
    {
      "inputs": [
        {
          "internalType": "address",
          "name": "to",
          "type": "address"
        },
        {
          "internalType": "uint256",
          "name": "amount",
          "type": "uint256"
        }
      ],
      "name": "transfer",
      "outputs": [
        {
          "internalType": "bool",
          "name": "",
          "type": "bool"
        }
      ],
      "stateMutability": "nonpayable",
      "type": "function"
    },
    {
      "inputs": [
        {
          "internalType": "address",
          "name": "from",
          "type": "address"
        },
        {
          "internalType": "address",
          "name": "to",
          "type": "address"
        },
        {
          "internalType": "uint256",
          "name": "amount",
          "type": "uint256"
        }
      ],
      "name": "transferFrom",
      "outputs": [
        {
          "internalType": "bool",
          "name": "",
          "type": "bool"
        }
      ],
      "stateMutability": "nonpayable",
      "type": "function"
    },
    {
      "inputs": [],
      "name": "treasuryWallet",
      "outputs": [
        {
          "internalType": "address payable",
          "name": "",
          "type": "address"
        }
      ],
      "stateMutability": "view",
      "type": "function",
      "constant": true
    },
    {
      "inputs": [],
      "name": "winRewardAddr",
      "outputs": [
        {
          "internalType": "address",
          "name": "",
          "type": "address"
        }
      ],
      "stateMutability": "view",
      "type": "function",
      "constant": true
    },
    {
      "inputs": [
        {
          "internalType": "address",
          "name": "_router",
          "type": "address"
        }
      ],
      "name": "setRouterAddress",
      "outputs": [],
      "stateMutability": "nonpayable",
      "type": "function"
    },
    {
      "inputs": [
        {
          "internalType": "address",
          "name": "_mapleNft",
          "type": "address"
        }
      ],
      "name": "setMapleNFTAddress",
      "outputs": [],
      "stateMutability": "nonpayable",
      "type": "function"
    },
    {
      "inputs": [
        {
          "internalType": "address",
          "name": "_mapleItems",
          "type": "address"
        }
      ],
      "name": "setMapleItemsAddress",
      "outputs": [],
      "stateMutability": "nonpayable",
      "type": "function"
    },
    {
      "inputs": [
        {
          "internalType": "address",
          "name": "_staking",
          "type": "address"
        }
      ],
      "name": "setStakingAddress",
      "outputs": [],
      "stateMutability": "nonpayable",
      "type": "function"
    },
    {
      "inputs": [],
      "name": "contribute",
      "outputs": [],
      "stateMutability": "payable",
      "type": "function",
      "payable": true
    },
    {
      "inputs": [],
      "name": "claimTokens",
      "outputs": [],
      "stateMutability": "nonpayable",
      "type": "function"
    },
    {
      "inputs": [],
      "name": "togglePauseContract",
      "outputs": [],
      "stateMutability": "nonpayable",
      "type": "function"
    },
    {
      "inputs": [],
      "name": "toggleTax",
      "outputs": [],
      "stateMutability": "nonpayable",
      "type": "function"
    },
    {
      "inputs": [
        {
          "internalType": "address",
          "name": "account",
          "type": "address"
        }
      ],
      "name": "addToWhitelist",
      "outputs": [],
      "stateMutability": "nonpayable",
      "type": "function"
    },
    {
      "inputs": [
        {
          "internalType": "address",
          "name": "account",
          "type": "address"
        },
        {
          "internalType": "uint256",
          "name": "amount",
          "type": "uint256"
        }
      ],
      "name": "mint",
      "outputs": [],
      "stateMutability": "nonpayable",
      "type": "function"
    },
    {
      "inputs": [
        {
          "internalType": "address",
          "name": "account",
          "type": "address"
        },
        {
          "internalType": "uint256",
          "name": "amount",
          "type": "uint256"
        }
      ],
      "name": "burn",
      "outputs": [],
      "stateMutability": "nonpayable",
      "type": "function"
    },
    {
      "inputs": [
        {
          "internalType": "address",
          "name": "account",
          "type": "address"
        },
        {
          "internalType": "uint256",
          "name": "amount",
          "type": "uint256"
        }
      ],
      "name": "marketBurn",
      "outputs": [],
      "stateMutability": "nonpayable",
      "type": "function"
    },
    {
      "inputs": [
        {
          "internalType": "address",
          "name": "_owner",
          "type": "address"
        },
        {
          "internalType": "address",
          "name": "_spender",
          "type": "address"
        },
        {
          "internalType": "uint256",
          "name": "_amount",
          "type": "uint256"
        }
      ],
      "name": "increaseContractAllowance",
      "outputs": [
        {
          "internalType": "bool",
          "name": "",
          "type": "bool"
        }
      ],
      "stateMutability": "nonpayable",
      "type": "function"
    },
    {
      "inputs": [
        {
          "internalType": "contract LiquidityPool",
          "name": "liquidityPool",
          "type": "address"
        }
      ],
      "name": "sendLiquidityToLPContract",
      "outputs": [],
      "stateMutability": "nonpayable",
      "type": "function"
    },
    {
      "inputs": [
        {
          "internalType": "address",
          "name": "_addr",
          "type": "address"
        },
        {
          "internalType": "uint256",
          "name": "_amount",
          "type": "uint256"
        }
      ],
      "name": "randRewardToken",
      "outputs": [],
      "stateMutability": "nonpayable",
      "type": "function"
    }
  ],
  "bytecode": "0x60806040526007805462ff00001916620100001790556000600e556046600f553480156200002c57600080fd5b506040516200229b3803806200229b8339810160408190526200004f9162000235565b604051806040016040528060098152602001682526aa102a37b5b2b760b91b8152506040518060400160405280600381526020016212935560ea1b81525081600390816200009e91906200030b565b506004620000ad82826200030b565b50620000ba915050601290565b620000c790600a620004ec565b620000d690620f4240620004fd565b6005819055620000e890309062000148565b600780546301000000600160b81b0319163363010000009081029190911791829055600880546001600160a01b0319166001600160a01b039485161790559004166000908152601360205260409020805460ff191660011790556200052d565b6001600160a01b038216620001a35760405162461bcd60e51b815260206004820152601f60248201527f45524332303a206d696e7420746f20746865207a65726f206164647265737300604482015260640160405180910390fd5b8060026000828254620001b7919062000517565b90915550506001600160a01b03821660009081526020819052604081208054839290620001e690849062000517565b90915550506040518181526001600160a01b038316906000907fddf252ad1be2c89b69c2b068fc378daa952ba7f163c4a11628f55a4df523b3ef9060200160405180910390a35050565b505050565b6000602082840312156200024857600080fd5b81516001600160a01b03811681146200026057600080fd5b9392505050565b634e487b7160e01b600052604160045260246000fd5b600181811c908216806200029257607f821691505b602082108103620002b357634e487b7160e01b600052602260045260246000fd5b50919050565b601f8211156200023057600081815260208120601f850160051c81016020861015620002e25750805b601f850160051c820191505b818110156200030357828155600101620002ee565b505050505050565b81516001600160401b0381111562000327576200032762000267565b6200033f816200033884546200027d565b84620002b9565b602080601f8311600181146200037757600084156200035e5750858301515b600019600386901b1c1916600185901b17855562000303565b600085815260208120601f198616915b82811015620003a85788860151825594840194600190910190840162000387565b5085821015620003c75787850151600019600388901b60f8161c191681555b5050505050600190811b01905550565b634e487b7160e01b600052601160045260246000fd5b600181815b808511156200042e578160001904821115620004125762000412620003d7565b808516156200042057918102915b93841c9390800290620003f2565b509250929050565b6000826200044757506001620004e6565b816200045657506000620004e6565b81600181146200046f57600281146200047a576200049a565b6001915050620004e6565b60ff8411156200048e576200048e620003d7565b50506001821b620004e6565b5060208310610133831016604e8410600b8410161715620004bf575081810a620004e6565b620004cb8383620003ed565b8060001904821115620004e257620004e2620003d7565b0290505b92915050565b60006200026060ff84168362000436565b8082028115828204841417620004e657620004e6620003d7565b80820180821115620004e657620004e6620003d7565b611d5e806200053d6000396000f3fe6080604052600436106102515760003560e01c80636eefec1111610139578063be07d17d116100b6578063e43252d71161007a578063e43252d7146106e9578063ec71ef8914610709578063f4ab292814610729578063f4e0d9ac14610743578063f57df22e14610763578063f6d7eade1461078357600080fd5b8063be07d17d1461066c578063d1cabc351461068c578063d7bb99ba146106a1578063d83a2bf3146106a9578063dd62ed3e146106c957600080fd5b806395d89b41116100fd57806395d89b41146105ca5780639dc29fac146105df578063a457c2d7146105ff578063a9059cbb1461061f578063b70f21c71461063f57600080fd5b80636eefec111461050d57806370a082311461052d578063839254601461056357806385b1fb8e146105835780638da5cb5b146105a357600080fd5b806332cb6b0c116101d257806341cb87fc1161019657806341cb87fc146104645780634626402b1461048457806346c586c2146104a457806348c54b9d146104c457806365acacfe146104d957806368f58b03146104f857600080fd5b806332cb6b0c146103b157806339509351146103c75780633af0dbc1146103e75780633af32abf1461041457806340c10f191461044457600080fd5b806318160ddd1161021957806318160ddd146103085780631b9631fc1461031d5780631d057bd91461035557806323b872dd14610375578063313ce5671461039557600080fd5b8063023f41471461025657806306fdde031461027f578063095ea7b3146102a157806310bf6029146102d15780631690bb4e146102e8575b600080fd5b34801561026257600080fd5b5061026c60065481565b6040519081526020015b60405180910390f35b34801561028b57600080fd5b506102946107a3565b60405161027691906119b0565b3480156102ad57600080fd5b506102c16102bc366004611a13565b610835565b6040519015158152602001610276565b3480156102dd57600080fd5b506102e661084f565b005b3480156102f457600080fd5b506102e6610303366004611a3f565b6108d1565b34801561031457600080fd5b5060025461026c565b34801561032957600080fd5b50600a5461033d906001600160a01b031681565b6040516001600160a01b039091168152602001610276565b34801561036157600080fd5b506102e6610370366004611a13565b610a19565b34801561038157600080fd5b506102c1610390366004611a63565b610a82565b3480156103a157600080fd5b5060405160128152602001610276565b3480156103bd57600080fd5b5061026c60055481565b3480156103d357600080fd5b506102c16103e2366004611a13565b610aa6565b3480156103f357600080fd5b5061026c610402366004611a3f565b60126020526000908152604090205481565b34801561042057600080fd5b506102c161042f366004611a3f565b60136020526000908152604090205460ff1681565b34801561045057600080fd5b506102e661045f366004611a13565b610ac8565b34801561047057600080fd5b506102e661047f366004611a3f565b610bc6565b34801561049057600080fd5b5060085461033d906001600160a01b031681565b3480156104b057600080fd5b50600c5461033d906001600160a01b031681565b3480156104d057600080fd5b506102e6610c42565b3480156104e557600080fd5b506007546102c190610100900460ff1681565b34801561050457600080fd5b5061026c600181565b34801561051957600080fd5b50600b5461033d906001600160a01b031681565b34801561053957600080fd5b5061026c610548366004611a3f565b6001600160a01b031660009081526020819052604090205490565b34801561056f57600080fd5b506102e661057e366004611a3f565b610d24565b34801561058f57600080fd5b506102e661059e366004611a13565b610da0565b3480156105af57600080fd5b5060075461033d90630100000090046001600160a01b031681565b3480156105d657600080fd5b50610294610e38565b3480156105eb57600080fd5b506102e66105fa366004611a13565b610e47565b34801561060b57600080fd5b506102c161061a366004611a13565b610e97565b34801561062b57600080fd5b506102c161063a366004611a13565b610f12565b34801561064b57600080fd5b5061026c61065a366004611a3f565b60116020526000908152604090205481565b34801561067857600080fd5b506007546102c19062010000900460ff1681565b34801561069857600080fd5b506102e6610f20565b6102e6610f8e565b3480156106b557600080fd5b506102c16106c4366004611a63565b6110a6565b3480156106d557600080fd5b5061026c6106e4366004611aa4565b61113e565b3480156106f557600080fd5b506102e6610704366004611a3f565b611169565b34801561071557600080fd5b506102e6610724366004611a3f565b6111be565b34801561073557600080fd5b506007546102c19060ff1681565b34801561074f57600080fd5b506102e661075e366004611a3f565b61123a565b34801561076f57600080fd5b5060105461033d906001600160a01b031681565b34801561078f57600080fd5b5060095461033d906001600160a01b031681565b6060600380546107b290611add565b80601f01602080910402602001604051908101604052809291908181526020018280546107de90611add565b801561082b5780601f106108005761010080835404028352916020019161082b565b820191906000526020600020905b81548152906001019060200180831161080e57829003601f168201915b5050505050905090565b6000336108438185856112b6565b60019150505b92915050565b600754630100000090046001600160a01b031633146108895760405162461bcd60e51b815260040161088090611b17565b60405180910390fd5b6007805462ff0000198116620100009182900460ff16159091021790556040517fe454716ccd4789e6869664dc631a651dcb83a4552bfdf7afda42167120c356d390600090a1565b600754630100000090046001600160a01b031633146109025760405162461bcd60e51b815260040161088090611b17565b600754610100900460ff161561092a5760405162461bcd60e51b815260040161088090611b3b565b6007805461ff00191661010017905560065460009061094a906064611b7c565b90506109573083836113da565b600654604051636e553f6560e01b8152600481018390523060248201526001600160a01b03841691636e553f65916044016000604051808303818588803b1580156109a157600080fd5b505af11580156109b5573d6000803e3d6000fd5b5050505050816001600160a01b0316632770d9016040518163ffffffff1660e01b8152600401600060405180830381600087803b1580156109f557600080fd5b505af1158015610a09573d6000803e3d6000fd5b50505050610a156115aa565b5050565b600a546001600160a01b0316331480610a3c5750600b546001600160a01b031633145b610a785760405162461bcd60e51b815260206004820152600d60248201526c4d41504c454e46545f4f4e4c5960981b6044820152606401610880565b610a158282611606565b600033610a90858285611754565b610a9b8585856117c8565b506001949350505050565b600033610843818585610ab9838361113e565b610ac39190611b93565b6112b6565b600754630100000090046001600160a01b03163314610af95760405162461bcd60e51b815260040161088090611b17565b6001600160a01b038216610b4f5760405162461bcd60e51b815260206004820152601f60248201527f45524332303a206d696e7420746f20746865207a65726f2061646472657373006044820152606401610880565b60055481610b5c60025490565b610b669190611b93565b1115610ba75760405162461bcd60e51b815260206004820152601060248201526f41424f56455f4d41585f535550504c5960801b6044820152606401610880565b610a1582610bb76012600a611c8a565b610bc19084611b7c565b61182e565b600754630100000090046001600160a01b03163314610bf75760405162461bcd60e51b815260040161088090611b17565b6009546001600160a01b031615610c205760405162461bcd60e51b815260040161088090611c99565b600980546001600160a01b0319166001600160a01b0392909216919091179055565b60075460ff1615610c875760405162461bcd60e51b815260206004820152600f60248201526e10d3d395149050d517d4105554d151608a1b6044820152606401610880565b600754610100900460ff1615610caf5760405162461bcd60e51b815260040161088090611b3b565b33600090815260116020526040902054610d005760405162461bcd60e51b81526020600482015260126024820152714e4f5f415641494c41424c455f46554e445360701b6044820152606401610880565b336000818152601160205260408120805491905590610d21903090836113da565b50565b600754630100000090046001600160a01b03163314610d555760405162461bcd60e51b815260040161088090611b17565b600a546001600160a01b031615610d7e5760405162461bcd60e51b815260040161088090611c99565b600a80546001600160a01b0319166001600160a01b0392909216919091179055565b600c80546001600160a01b0319166001600160a01b038416179055600d8190556000610dcc606461190d565b9050600f54811115610e135760405162461bcd60e51b815260206004820152601060248201526f2737ba103932bbb0b9322a37b5b2b71760811b6044820152606401610880565b600854600c54600d54610e33926001600160a01b039081169216906113da565b505050565b6060600480546107b290611add565b600754630100000090046001600160a01b03163314610e785760405162461bcd60e51b815260040161088090611b17565b610a1582610e886012600a611c8a565b610e929084611b7c565b611606565b60003381610ea5828661113e565b905083811015610f055760405162461bcd60e51b815260206004820152602560248201527f45524332303a2064656372656173656420616c6c6f77616e63652062656c6f77604482015264207a65726f60d81b6064820152608401610880565b610a9b82868684036112b6565b6000336108438185856117c8565b600754630100000090046001600160a01b03163314610f515760405162461bcd60e51b815260040161088090611b17565b6007805460ff19811660ff909116151790556040517fe454716ccd4789e6869664dc631a651dcb83a4552bfdf7afda42167120c356d390600090a1565b60075460ff1615610fd35760405162461bcd60e51b815260206004820152600f60248201526e10d3d395149050d517d4105554d151608a1b6044820152606401610880565b600754610100900460ff1615610ffb5760405162461bcd60e51b815260040161088090611b3b565b6000611008346064611b7c565b3360009081526011602052604081208054929350839290919061102c908490611b93565b90915550503360009081526012602052604081208054349290611050908490611b93565b9250508190555034600660008282546110699190611b93565b909155505060405181815233907f745f661b8143944fb883f50694ebed3a871e43c451d9d4bf4648a9d551d7e47a9060200160405180910390a250565b6009546000906001600160a01b03163314806110cc5750600a546001600160a01b031633145b806110e15750600b546001600160a01b031633145b6111245760405162461bcd60e51b8152602060048201526014602482015273524f555445525f4f525f4d41504c455f4f4e4c5960601b6044820152606401610880565b611134848484610ab9333061113e565b5060019392505050565b6001600160a01b03918216600090815260016020908152604080832093909416825291909152205490565b600754630100000090046001600160a01b0316331461119a5760405162461bcd60e51b815260040161088090611b17565b6001600160a01b03166000908152601360205260409020805460ff19166001179055565b600754630100000090046001600160a01b031633146111ef5760405162461bcd60e51b815260040161088090611b17565b600b546001600160a01b0316156112185760405162461bcd60e51b815260040161088090611c99565b600b80546001600160a01b0319166001600160a01b0392909216919091179055565b600754630100000090046001600160a01b0316331461126b5760405162461bcd60e51b815260040161088090611b17565b6010546001600160a01b0316156112945760405162461bcd60e51b815260040161088090611c99565b601080546001600160a01b0319166001600160a01b0392909216919091179055565b6001600160a01b0383166113185760405162461bcd60e51b8152602060048201526024808201527f45524332303a20617070726f76652066726f6d20746865207a65726f206164646044820152637265737360e01b6064820152608401610880565b6001600160a01b0382166113795760405162461bcd60e51b815260206004820152602260248201527f45524332303a20617070726f766520746f20746865207a65726f206164647265604482015261737360f01b6064820152608401610880565b6001600160a01b0383811660008181526001602090815260408083209487168084529482529182902085905590518481527f8c5be1e5ebec7d5bd14f71427d1e84f3dd0314c0f7b2291e5b200ac8c7c3b925910160405180910390a3505050565b6001600160a01b03831661143e5760405162461bcd60e51b815260206004820152602560248201527f45524332303a207472616e736665722066726f6d20746865207a65726f206164604482015264647265737360d81b6064820152608401610880565b6001600160a01b0382166114a05760405162461bcd60e51b815260206004820152602360248201527f45524332303a207472616e7366657220746f20746865207a65726f206164647260448201526265737360e81b6064820152608401610880565b6001600160a01b038316600090815260208190526040902054818110156115185760405162461bcd60e51b815260206004820152602660248201527f45524332303a207472616e7366657220616d6f756e7420657863656564732062604482015265616c616e636560d01b6064820152608401610880565b6001600160a01b0380851660009081526020819052604080822085850390559185168152908120805484929061154f908490611b93565b92505081905550826001600160a01b0316846001600160a01b03167fddf252ad1be2c89b69c2b068fc378daa952ba7f163c4a11628f55a4df523b3ef8460405161159b91815260200190565b60405180910390a35b50505050565b6115b261197a565b3060008181526020819052604090205460085490916115da916001600160a01b0316836113da565b6040517fa01103220c31ee0c47e79a81104a3e82740390c1d918ad5638190cc185bd92e190600090a150565b6001600160a01b0382166116665760405162461bcd60e51b815260206004820152602160248201527f45524332303a206275726e2066726f6d20746865207a65726f206164647265736044820152607360f81b6064820152608401610880565b6001600160a01b038216600090815260208190526040902054818110156116da5760405162461bcd60e51b815260206004820152602260248201527f45524332303a206275726e20616d6f756e7420657863656564732062616c616e604482015261636560f01b6064820152608401610880565b6001600160a01b0383166000908152602081905260408120838303905560028054849290611709908490611cbe565b90915550506040518281526000906001600160a01b038516907fddf252ad1be2c89b69c2b068fc378daa952ba7f163c4a11628f55a4df523b3ef9060200160405180910390a3505050565b6000611760848461113e565b905060001981146115a457818110156117bb5760405162461bcd60e51b815260206004820152601d60248201527f45524332303a20696e73756666696369656e7420616c6c6f77616e63650000006044820152606401610880565b6115a484848484036112b6565b60075460009062010000900460ff16156117f65760646117e9836001611b7c565b6117f39190611ce7565b90505b60006118028284611cbe565b905061180f8585836113da565b6008546118279086906001600160a01b0316846113da565b5050505050565b6001600160a01b0382166118845760405162461bcd60e51b815260206004820152601f60248201527f45524332303a206d696e7420746f20746865207a65726f2061646472657373006044820152606401610880565b80600260008282546118969190611b93565b90915550506001600160a01b038216600090815260208190526040812080548392906118c3908490611b93565b90915550506040518181526001600160a01b038316906000907fddf252ad1be2c89b69c2b068fc378daa952ba7f163c4a11628f55a4df523b3ef9060200160405180910390a35050565b600e80546000918261191e83611cfb565b9091555050600e54604080514260208201526bffffffffffffffffffffffff193360601b1691810191909152605481019190915282906074016040516020818303038152906040528051906020012060001c6108499190611d14565b60006119886012600a611c8a565b61199590620493e0611b7c565b601054909150610d219030906001600160a01b0316836113da565b600060208083528351808285015260005b818110156119dd578581018301518582016040015282016119c1565b506000604082860101526040601f19601f8301168501019250505092915050565b6001600160a01b0381168114610d2157600080fd5b60008060408385031215611a2657600080fd5b8235611a31816119fe565b946020939093013593505050565b600060208284031215611a5157600080fd5b8135611a5c816119fe565b9392505050565b600080600060608486031215611a7857600080fd5b8335611a83816119fe565b92506020840135611a93816119fe565b929592945050506040919091013590565b60008060408385031215611ab757600080fd5b8235611ac2816119fe565b91506020830135611ad2816119fe565b809150509250929050565b600181811c90821680611af157607f821691505b602082108103611b1157634e487b7160e01b600052602260045260246000fd5b50919050565b6020808252600a90820152694f574e45525f4f4e4c5960b01b604082015260600190565b602080825260119082015270046554e44535f4d4f5645445f544f5f4c5607c1b604082015260600190565b634e487b7160e01b600052601160045260246000fd5b808202811582820484141761084957610849611b66565b8082018082111561084957610849611b66565b600181815b80851115611be1578160001904821115611bc757611bc7611b66565b80851615611bd457918102915b93841c9390800290611bab565b509250929050565b600082611bf857506001610849565b81611c0557506000610849565b8160018114611c1b5760028114611c2557611c41565b6001915050610849565b60ff841115611c3657611c36611b66565b50506001821b610849565b5060208310610133831016604e8410600b8410161715611c64575081810a610849565b611c6e8383611ba6565b8060001904821115611c8257611c82611b66565b029392505050565b6000611a5c60ff841683611be9565b6020808252600b908201526a57524954455f4f4e43452160a81b604082015260600190565b8181038181111561084957610849611b66565b634e487b7160e01b600052601260045260246000fd5b600082611cf657611cf6611cd1565b500490565b600060018201611d0d57611d0d611b66565b5060010190565b600082611d2357611d23611cd1565b50069056fea26469706673582212206efea0b64cde3f3f16f89eaa37545572010001167bfed33a369983d3ad8c003464736f6c63430008110033",
  "immutableReferences": {},
  "source": "//SPDX-License-Identifier: Unlicense\npragma solidity ^0.8.0;\n\nimport \"@openzeppelin/contracts/token/ERC20/ERC20.sol\";\nimport \"./LiquidityPool.sol\";\n\ncontract JMToken is ERC20 {\n    event TokensBought(address indexed _account, uint256 amount); //    \n    event OwnerAction(); //  \n    event FundsMoved(); //   \n    event _MovedStakingReward();\n\n    uint256 public MAX_SUPPLY; //  \n    uint256 public constant TAX = 1; //   tx 1%\n    uint256 public totalContributed; //    \n    bool public isContractPaused; //   \n    bool public fundsAlreadyMoved;\n    bool public isTaxOn = true; //   on off \n    address public owner; //  \n    address payable public treasuryWallet; //  !\n    address public Router;\n    address public MapleNFT;\n    address public MapleItems;\n    address public winRewardAddr;\n    uint winRewardAmount;\n    uint randNum = 0;\n    uint rewardProbability = 70;\n    address public Staking;\n\n    mapping(address => uint256) public balancesToClaim; // 1:100 ==jmt\n    mapping(address => uint256) public contributionsOf; //   eth\n    mapping(address => bool) public isWhitelisted;\n\n    constructor(address payable treasury) ERC20(\"JMT Token\", \"JMT\") {\n        MAX_SUPPLY = 1000000 * 10**decimals(); \n        _mint(address(this), MAX_SUPPLY); \n        owner = msg.sender; \n        treasuryWallet = treasury; // ,  \n        isWhitelisted[owner] = true; //     \n    }\n\n    modifier ownerOnly() {\n        require(msg.sender == owner, \"OWNER_ONLY\");\n        _;\n    }\n\n    modifier mapleNFTOnly(){\n        require(msg.sender == MapleNFT || msg.sender == MapleItems, \"MAPLENFT_ONLY\");\n        _;\n    }\n    // router  \n    modifier routerOnly() {\n        require(msg.sender == Router || msg.sender == MapleNFT || msg.sender == MapleItems, \"ROUTER_OR_MAPLE_ONLY\");\n        _;\n    }\n    //    \n    modifier areFundsMoved() {\n        require(!fundsAlreadyMoved, \"FUNDS_MOVED_TO_LP\");\n        _;\n    }\n\n    //   \n    modifier isPaused() {\n        require(!isContractPaused, \"CONTRACT_PAUSED\");\n        _;\n    }\n\n\n    //     (0x0)  ,   \n    function setRouterAddress(address _router) external  ownerOnly {\n        require(address(Router) == address(0), \"WRITE_ONCE!\"); // 0x00000000\n        Router = _router;\n    }\n    function setMapleNFTAddress(address _mapleNft) external  ownerOnly {\n        require(address(MapleNFT) == address(0), \"WRITE_ONCE!\");\n        MapleNFT = _mapleNft;\n    }\n    function setMapleItemsAddress(address _mapleItems ) external  ownerOnly {\n        require(address(MapleItems) == address(0), \"WRITE_ONCE!\");\n        MapleItems = _mapleItems;\n    }\n    function setStakingAddress(address _staking ) external  ownerOnly {\n        require(address(Staking) == address(0), \"WRITE_ONCE!\");\n        Staking = _staking;\n    }\n  \n    //   \n    function contribute() external payable isPaused areFundsMoved {\n\n        //  1:100\n        uint256 tokenAmount = msg.value * 100;\n        balancesToClaim[msg.sender] += tokenAmount;\n        contributionsOf[msg.sender] += msg.value;\n        totalContributed += msg.value; \n        emit TokensBought(msg.sender, tokenAmount);\n    }\n    \n    //  jmt  \n    function claimTokens() external isPaused areFundsMoved {\n        require(balancesToClaim[msg.sender] > 0, \"NO_AVAILABLE_FUNDS\"); //      \n        uint256 tokensToClaim = balancesToClaim[msg.sender];\n        balancesToClaim[msg.sender] = 0;\n\n        super._transfer(address(this), msg.sender, tokensToClaim); //  -> sender \n    }\n\n    // pause \n    function togglePauseContract() external ownerOnly {\n        isContractPaused = !isContractPaused;\n        emit OwnerAction();\n    }\n\n    // tx  : true\n    function toggleTax() external ownerOnly {\n        isTaxOn = !isTaxOn;\n        emit OwnerAction();\n    }\n\n    //   \n    function addToWhitelist(address account) external ownerOnly {\n        isWhitelisted[account] = true;\n    }\n\n    function _transfer(address sender, address recipient, uint256 amount) internal override {\n        uint256 amountToTake;\n        // tx\n        if (isTaxOn) {\n            amountToTake = (TAX * amount) / 100;\n        }\n        uint256 amountToTransfer = amount - amountToTake;\n        //    \n        super._transfer(sender, recipient, amountToTransfer);\n        //   \n        super._transfer(sender, treasuryWallet, amountToTake); \n    }\n\n    function mint(address account, uint256 amount) external ownerOnly {\n        require(account != address(0), \"ERC20: mint to the zero address\"); //      \n        require(totalSupply() + amount <= MAX_SUPPLY, \"ABOVE_MAX_SUPPLY\"); //   \n        _mint(account, amount * 10**decimals());\n    }\n    \n    function burn(address account, uint256 amount) external ownerOnly {\n        _burn(account, amount * 10**decimals());\n    }\n\n    function marketBurn(address account, uint256 amount) external mapleNFTOnly {\n        _burn(account, amount);\n\n    }\n\n    //tranferfrom  \n    //spender   \n    //      x \n    function increaseContractAllowance(address _owner,address _spender,uint256 _amount)  \n        public routerOnly returns (bool) {\n        // spender         \n        // allowance      return \n        _approve(\n            _owner, // from\n            _spender, // to\n            allowance(msg.sender, address(this)) + _amount\n        ); \n        return true;\n    }\n\n    //   -> lp ,    \n    function sendLiquidityToLPContract(LiquidityPool liquidityPool) external ownerOnly areFundsMoved\n    {\n        fundsAlreadyMoved = true; //\n\n        //   * 100 jmt \n        uint256 jmtCoinAmountToTransfer = totalContributed * 100;\n\n        // lp JMT \n        super._transfer(\n            address(this),\n            address(liquidityPool),\n            jmtCoinAmountToTransfer\n        );\n\n        //msg.value = totalContributed,  , \n        liquidityPool.deposit{value: totalContributed}(\n            jmtCoinAmountToTransfer,\n            address(this)\n        );\n\n        // reserve_setting\n        liquidityPool.setFundedReserve();\n\n        sendRemainingFundsToTreasury();\n    }\n    //       \n    // ,  ?\n    //   \n    function sendRemainingFundsToTreasury() internal {\n        MovedStakingReward();\n\n        uint256 remainingJMT = balanceOf(address(this));\n        super._transfer(address(this), address(treasuryWallet), remainingJMT);\n        emit FundsMoved();\n    }\n    // staking reward 300,000  \n    function MovedStakingReward() internal {\n        uint256 remainingJMT = 300000 * 10**decimals();\n        super._transfer(address(this), address(Staking), remainingJMT);\n    }\n\n    //   ()\n    function randMod(uint _modulus) internal returns(uint) { // \n        randNum++;\n        return uint(keccak256(abi.encodePacked(block.timestamp, msg.sender, randNum))) % _modulus;\n    }\n\n    function randRewardToken(address _addr, uint _amount) external {\n        winRewardAddr = _addr;\n        winRewardAmount = _amount;\n        uint rand = randMod(100);\n        require(rand <= rewardProbability, \"Not rewardToken.\" ); // 70%  JMT  \n        super._transfer(address(treasuryWallet), address(winRewardAddr), winRewardAmount); // JMT  \n    }\n\n}",
  "sourcePath": "/Users/hyenne/workspace/BEB-05-JMT/contract/contracts/JMToken.sol",
  "compiler": {
    "name": "solc",
    "version": "0.8.17+commit.8df45f5f.Emscripten.clang"
  },
  "schemaVersion": "3.4.9",
  "updatedAt": "2022-09-20T22:49:23.813Z",
  "networkType": "ethereum",
  "devdoc": {
    "kind": "dev",
    "methods": {
      "allowance(address,address)": {
        "details": "See {IERC20-allowance}."
      },
      "approve(address,uint256)": {
        "details": "See {IERC20-approve}. NOTE: If `amount` is the maximum `uint256`, the allowance is not updated on `transferFrom`. This is semantically equivalent to an infinite approval. Requirements: - `spender` cannot be the zero address."
      },
      "balanceOf(address)": {
        "details": "See {IERC20-balanceOf}."
      },
      "decimals()": {
        "details": "Returns the number of decimals used to get its user representation. For example, if `decimals` equals `2`, a balance of `505` tokens should be displayed to a user as `5.05` (`505 / 10 ** 2`). Tokens usually opt for a value of 18, imitating the relationship between Ether and Wei. This is the value {ERC20} uses, unless this function is overridden; NOTE: This information is only used for _display_ purposes: it in no way affects any of the arithmetic of the contract, including {IERC20-balanceOf} and {IERC20-transfer}."
      },
      "decreaseAllowance(address,uint256)": {
        "details": "Atomically decreases the allowance granted to `spender` by the caller. This is an alternative to {approve} that can be used as a mitigation for problems described in {IERC20-approve}. Emits an {Approval} event indicating the updated allowance. Requirements: - `spender` cannot be the zero address. - `spender` must have allowance for the caller of at least `subtractedValue`."
      },
      "increaseAllowance(address,uint256)": {
        "details": "Atomically increases the allowance granted to `spender` by the caller. This is an alternative to {approve} that can be used as a mitigation for problems described in {IERC20-approve}. Emits an {Approval} event indicating the updated allowance. Requirements: - `spender` cannot be the zero address."
      },
      "name()": {
        "details": "Returns the name of the token."
      },
      "symbol()": {
        "details": "Returns the symbol of the token, usually a shorter version of the name."
      },
      "totalSupply()": {
        "details": "See {IERC20-totalSupply}."
      },
      "transfer(address,uint256)": {
        "details": "See {IERC20-transfer}. Requirements: - `to` cannot be the zero address. - the caller must have a balance of at least `amount`."
      },
      "transferFrom(address,address,uint256)": {
        "details": "See {IERC20-transferFrom}. Emits an {Approval} event indicating the updated allowance. This is not required by the EIP. See the note at the beginning of {ERC20}. NOTE: Does not update the allowance if the current allowance is the maximum `uint256`. Requirements: - `from` and `to` cannot be the zero address. - `from` must have a balance of at least `amount`. - the caller must have allowance for ``from``'s tokens of at least `amount`."
      }
    },
    "version": 1
  },
  "userdoc": {
    "kind": "user",
    "methods": {},
    "version": 1
  }
}