{
  "contractName": "JMTRouter",
  "abi": [
    {
      "inputs": [
        {
          "internalType": "contract LiquidityPool",
          "name": "_liquidityPool",
          "type": "address"
        },
        {
          "internalType": "contract JMToken",
          "name": "_jonMatang",
          "type": "address"
        }
      ],
      "stateMutability": "nonpayable",
      "type": "constructor"
    },
    {
      "inputs": [],
      "name": "_getAddress",
      "outputs": [
        {
          "internalType": "address",
          "name": "",
          "type": "address"
        },
        {
          "internalType": "address",
          "name": "",
          "type": "address"
        }
      ],
      "stateMutability": "view",
      "type": "function",
      "constant": true
    },
    {
      "inputs": [
        {
          "internalType": "uint256",
          "name": "_jmtAmount",
          "type": "uint256"
        }
      ],
      "name": "addLiquidity",
      "outputs": [],
      "stateMutability": "payable",
      "type": "function",
      "payable": true
    },
    {
      "inputs": [],
      "name": "pullLiquidity",
      "outputs": [],
      "stateMutability": "nonpayable",
      "type": "function"
    },
    {
      "inputs": [
        {
          "internalType": "uint256",
          "name": "_jmtAmount",
          "type": "uint256"
        }
      ],
      "name": "swapTokens",
      "outputs": [],
      "stateMutability": "payable",
      "type": "function",
      "payable": true
    }
  ],
  "bytecode": "0x60806040523480156200001157600080fd5b5060405162000b3c38038062000b3c833981810160405281019062000037919062000183565b816000806101000a81548173ffffffffffffffffffffffffffffffffffffffff021916908373ffffffffffffffffffffffffffffffffffffffff16021790555080600160006101000a81548173ffffffffffffffffffffffffffffffffffffffff021916908373ffffffffffffffffffffffffffffffffffffffff1602179055505050620001ca565b600080fd5b600073ffffffffffffffffffffffffffffffffffffffff82169050919050565b6000620000f282620000c5565b9050919050565b60006200010682620000e5565b9050919050565b6200011881620000f9565b81146200012457600080fd5b50565b60008151905062000138816200010d565b92915050565b60006200014b82620000e5565b9050919050565b6200015d816200013e565b81146200016957600080fd5b50565b6000815190506200017d8162000152565b92915050565b600080604083850312156200019d576200019c620000c0565b5b6000620001ad8582860162000127565b9250506020620001c0858286016200016c565b9150509250929050565b61096280620001da6000396000f3fe60806040526004361061003f5760003560e01c806351c6590a14610044578063b2ceaa0114610060578063f8e35be71461008c578063fe784eaa146100a3575b600080fd5b61005e600480360381019061005991906106be565b6100bf565b005b34801561006c57600080fd5b506100756103a2565b60405161008392919061072c565b60405180910390f35b34801561009857600080fd5b506100a16103f1565b005b6100bd60048036038101906100b891906106be565b61047e565b005b6000600160009054906101000a900473ffffffffffffffffffffffffffffffffffffffff1673ffffffffffffffffffffffffffffffffffffffff166370a08231336040518263ffffffff1660e01b815260040161011c9190610755565b602060405180830381865afa158015610139573d6000803e3d6000fd5b505050506040513d601f19601f8201168201806040525081019061015d9190610785565b1161019d576040517f08c379a00000000000000000000000000000000000000000000000000000000081526004016101949061080f565b60405180910390fd5b6000600160009054906101000a900473ffffffffffffffffffffffffffffffffffffffff1673ffffffffffffffffffffffffffffffffffffffff1663d83a2bf33330856040518463ffffffff1660e01b81526004016101fe9392919061083e565b6020604051808303816000875af115801561021d573d6000803e3d6000fd5b505050506040513d601f19601f8201168201806040525081019061024191906108ad565b90508061024d57600080fd5b600160009054906101000a900473ffffffffffffffffffffffffffffffffffffffff1673ffffffffffffffffffffffffffffffffffffffff166323b872dd3360008054906101000a900473ffffffffffffffffffffffffffffffffffffffff16856040518463ffffffff1660e01b81526004016102cc9392919061083e565b6020604051808303816000875af11580156102eb573d6000803e3d6000fd5b505050506040513d601f19601f8201168201806040525081019061030f91906108ad565b5060008054906101000a900473ffffffffffffffffffffffffffffffffffffffff1673ffffffffffffffffffffffffffffffffffffffff16636e553f653484336040518463ffffffff1660e01b815260040161036c9291906108da565b6000604051808303818588803b15801561038557600080fd5b505af1158015610399573d6000803e3d6000fd5b50505050505050565b60008060008054906101000a900473ffffffffffffffffffffffffffffffffffffffff16600160009054906101000a900473ffffffffffffffffffffffffffffffffffffffff16915091509091565b60008054906101000a900473ffffffffffffffffffffffffffffffffffffffff1673ffffffffffffffffffffffffffffffffffffffff166351cff8d9336040518263ffffffff1660e01b815260040161044a9190610755565b600060405180830381600087803b15801561046457600080fd5b505af1158015610478573d6000803e3d6000fd5b50505050565b6000600160009054906101000a900473ffffffffffffffffffffffffffffffffffffffff1673ffffffffffffffffffffffffffffffffffffffff1663d83a2bf33330856040518463ffffffff1660e01b81526004016104df9392919061083e565b6020604051808303816000875af11580156104fe573d6000803e3d6000fd5b505050506040513d601f19601f8201168201806040525081019061052291906108ad565b90508061052e57600080fd5b600160009054906101000a900473ffffffffffffffffffffffffffffffffffffffff1673ffffffffffffffffffffffffffffffffffffffff166323b872dd3360008054906101000a900473ffffffffffffffffffffffffffffffffffffffff16856040518463ffffffff1660e01b81526004016105ad9392919061083e565b6020604051808303816000875af11580156105cc573d6000803e3d6000fd5b505050506040513d601f19601f820116820180604052508101906105f091906108ad565b5060008054906101000a900473ffffffffffffffffffffffffffffffffffffffff1673ffffffffffffffffffffffffffffffffffffffff1663d004f0f73433856040518463ffffffff1660e01b815260040161064d929190610903565b6000604051808303818588803b15801561066657600080fd5b505af115801561067a573d6000803e3d6000fd5b50505050505050565b600080fd5b6000819050919050565b61069b81610688565b81146106a657600080fd5b50565b6000813590506106b881610692565b92915050565b6000602082840312156106d4576106d3610683565b5b60006106e2848285016106a9565b91505092915050565b600073ffffffffffffffffffffffffffffffffffffffff82169050919050565b6000610716826106eb565b9050919050565b6107268161070b565b82525050565b6000604082019050610741600083018561071d565b61074e602083018461071d565b9392505050565b600060208201905061076a600083018461071d565b92915050565b60008151905061077f81610692565b92915050565b60006020828403121561079b5761079a610683565b5b60006107a984828501610770565b91505092915050565b600082825260208201905092915050565b7f4e4f5f415641494c41424c455f544f4b454e5300000000000000000000000000600082015250565b60006107f96013836107b2565b9150610804826107c3565b602082019050919050565b60006020820190508181036000830152610828816107ec565b9050919050565b61083881610688565b82525050565b6000606082019050610853600083018661071d565b610860602083018561071d565b61086d604083018461082f565b949350505050565b60008115159050919050565b61088a81610875565b811461089557600080fd5b50565b6000815190506108a781610881565b92915050565b6000602082840312156108c3576108c2610683565b5b60006108d184828501610898565b91505092915050565b60006040820190506108ef600083018561082f565b6108fc602083018461071d565b9392505050565b6000604082019050610918600083018561071d565b610925602083018461082f565b939250505056fea2646970667358221220894e83f37ede24b27f5ada99957c3b9ae5127025b28107eb6d545b8115e15bec64736f6c63430008110033",
  "immutableReferences": {},
  "source": "//SPDX-License-Identifier: Unlicense\npragma solidity ^0.8.0;\n\nimport \"./JMToken.sol\";\nimport \"./LiquidityPool.sol\";\n\ncontract JMTRouter {\n    LiquidityPool liquidityPool;\n    JMToken jonMatang;\n\n    constructor(LiquidityPool _liquidityPool, JMToken _jonMatang) \n    {\n        liquidityPool = _liquidityPool;\n        jonMatang = _jonMatang;\n    }\n\n    function _getAddress() public view returns (address, address){\n        return (address(liquidityPool), address(jonMatang));\n    }\n\n    function addLiquidity(uint256 _jmtAmount) external payable {\n        require(jonMatang.balanceOf(msg.sender) > 0, \"NO_AVAILABLE_TOKENS\"); //    \n\n        bool success = jonMatang.increaseContractAllowance(\n            msg.sender, // from \n            address(this), // to\n            _jmtAmount \n        );\n        require(success);\n        \n        jonMatang.transferFrom(msg.sender, address(liquidityPool), _jmtAmount); \n        liquidityPool.deposit{value: msg.value}(_jmtAmount, msg.sender); // value:, token:jmt \n    }\n\n    function pullLiquidity() external {\n        liquidityPool.withdraw(msg.sender);\n    }\n\n    function swapTokens(uint256 _jmtAmount) external payable {\n        bool success = jonMatang.increaseContractAllowance(\n            msg.sender,\n            address(this),\n            _jmtAmount\n        );\n        require(success);\n\n        //  jmttoken: 0 or 0  pool \n        jonMatang.transferFrom(msg.sender, address(liquidityPool), _jmtAmount);\n        liquidityPool.swap{value: msg.value}(msg.sender, _jmtAmount);\n    }\n}",
  "sourcePath": "/Users/hyenne/workspace/BEB-05-JMT/contract/contracts/JMTRouter.sol",
  "compiler": {
    "name": "solc",
    "version": "0.8.17+commit.8df45f5f.Emscripten.clang"
  },
  "schemaVersion": "3.4.9",
  "updatedAt": "2022-09-18T11:52:29.147Z",
  "networkType": "ethereum",
  "devdoc": {
    "kind": "dev",
    "methods": {},
    "version": 1
  },
  "userdoc": {
    "kind": "user",
    "methods": {},
    "version": 1
  }
}