{
  "contractName": "LiquidityPool",
  "abi": [
    {
      "inputs": [],
      "stateMutability": "nonpayable",
      "type": "constructor"
    },
    {
      "anonymous": false,
      "inputs": [
        {
          "indexed": true,
          "internalType": "address",
          "name": "_account",
          "type": "address"
        }
      ],
      "name": "LiquidityAdded",
      "type": "event"
    },
    {
      "anonymous": false,
      "inputs": [
        {
          "indexed": true,
          "internalType": "address",
          "name": "_account",
          "type": "address"
        }
      ],
      "name": "LiquidityRemoved",
      "type": "event"
    },
    {
      "anonymous": false,
      "inputs": [
        {
          "indexed": true,
          "internalType": "address",
          "name": "previousOwner",
          "type": "address"
        },
        {
          "indexed": true,
          "internalType": "address",
          "name": "newOwner",
          "type": "address"
        }
      ],
      "name": "OwnershipTransferred",
      "type": "event"
    },
    {
      "anonymous": false,
      "inputs": [
        {
          "indexed": true,
          "internalType": "address",
          "name": "_account",
          "type": "address"
        },
        {
          "indexed": false,
          "internalType": "uint256",
          "name": "_ethTraded",
          "type": "uint256"
        },
        {
          "indexed": false,
          "internalType": "uint256",
          "name": "_jmtTraded",
          "type": "uint256"
        }
      ],
      "name": "TradedTokens",
      "type": "event"
    },
    {
      "inputs": [],
      "name": "decimals",
      "outputs": [
        {
          "internalType": "uint256",
          "name": "",
          "type": "uint256"
        }
      ],
      "stateMutability": "view",
      "type": "function",
      "constant": true
    },
    {
      "inputs": [],
      "name": "owner",
      "outputs": [
        {
          "internalType": "address",
          "name": "",
          "type": "address"
        }
      ],
      "stateMutability": "view",
      "type": "function",
      "constant": true
    },
    {
      "inputs": [],
      "name": "renounceOwnership",
      "outputs": [],
      "stateMutability": "nonpayable",
      "type": "function"
    },
    {
      "inputs": [
        {
          "internalType": "address",
          "name": "newOwner",
          "type": "address"
        }
      ],
      "name": "transferOwnership",
      "outputs": [],
      "stateMutability": "nonpayable",
      "type": "function"
    },
    {
      "inputs": [],
      "name": "setFundedReserve",
      "outputs": [],
      "stateMutability": "nonpayable",
      "type": "function"
    },
    {
      "inputs": [
        {
          "internalType": "contract LPT",
          "name": "_lpToken",
          "type": "address"
        }
      ],
      "name": "setLPTAddress",
      "outputs": [],
      "stateMutability": "nonpayable",
      "type": "function"
    },
    {
      "inputs": [
        {
          "internalType": "contract JMToken",
          "name": "_jmtToken",
          "type": "address"
        }
      ],
      "name": "setJmtCoinAddress",
      "outputs": [],
      "stateMutability": "nonpayable",
      "type": "function"
    },
    {
      "inputs": [
        {
          "internalType": "contract VJMToken",
          "name": "_vJmt",
          "type": "address"
        }
      ],
      "name": "setVJMTCoinAddress",
      "outputs": [],
      "stateMutability": "nonpayable",
      "type": "function"
    },
    {
      "inputs": [],
      "name": "getReserves",
      "outputs": [
        {
          "internalType": "uint256",
          "name": "",
          "type": "uint256"
        },
        {
          "internalType": "uint256",
          "name": "",
          "type": "uint256"
        }
      ],
      "stateMutability": "view",
      "type": "function",
      "constant": true
    },
    {
      "inputs": [
        {
          "internalType": "address",
          "name": "account",
          "type": "address"
        },
        {
          "internalType": "uint256",
          "name": "_jmtAmount",
          "type": "uint256"
        }
      ],
      "name": "swap",
      "outputs": [],
      "stateMutability": "payable",
      "type": "function",
      "payable": true
    },
    {
      "inputs": [
        {
          "internalType": "uint256",
          "name": "jmtAmount",
          "type": "uint256"
        },
        {
          "internalType": "address",
          "name": "account",
          "type": "address"
        }
      ],
      "name": "deposit",
      "outputs": [],
      "stateMutability": "payable",
      "type": "function",
      "payable": true
    },
    {
      "inputs": [
        {
          "internalType": "address",
          "name": "account",
          "type": "address"
        }
      ],
      "name": "withdraw",
      "outputs": [],
      "stateMutability": "nonpayable",
      "type": "function"
    }
  ],
  "bytecode": "0x6080604052670de0b6b3a764000060085534801561001c57600080fd5b5061002633610035565b60006004819055600555610085565b600080546001600160a01b038381166001600160a01b0319831681178455604051919092169283917f8be0079c531659141344cd1fd0a4f28419497f9722a3daafe3b4186f6b6457e09190a35050565b610fab806100946000396000f3fe6080604052600436106100a75760003560e01c80637f41b8e2116100645780637f41b8e21461015c5780638da5cb5b1461017c578063c4066f66146101a4578063d004f0f7146101c4578063f2fde38b146101d7578063f63d19c5146101f757600080fd5b80630902f1ac146100ac5780632770d901146100d9578063313ce567146100f057806351cff8d9146101145780636e553f6514610134578063715018a614610147575b600080fd5b3480156100b857600080fd5b50600454600554604080519283526020830191909152015b60405180910390f35b3480156100e557600080fd5b506100ee610217565b005b3480156100fc57600080fd5b5061010660085481565b6040519081526020016100d0565b34801561012057600080fd5b506100ee61012f366004610e21565b6102d0565b6100ee610142366004610e45565b6105f7565b34801561015357600080fd5b506100ee610776565b34801561016857600080fd5b506100ee610177366004610e21565b61078a565b34801561018857600080fd5b506000546040516001600160a01b0390911681526020016100d0565b3480156101b057600080fd5b506100ee6101bf366004610e21565b6107dd565b6100ee6101d2366004610e75565b610830565b3480156101e357600080fd5b506100ee6101f2366004610e21565b610b95565b34801561020357600080fd5b506100ee610212366004610e21565b610c0e565b6002546001600160a01b031633146102665760405162461bcd60e51b815260206004820152600d60248201526c4a6f6e4d61746e675f4f4e4c5960981b60448201526064015b60405180910390fd5b60045415801590610278575060055415155b6102bb5760405162461bcd60e51b81526020600482015260146024820152735245534552564520414d4f554e5420454d50545960601b604482015260640161025d565b6005546004546102cb9190610eb7565b600755565b6001546040516370a0823160e01b81526001600160a01b03838116600483015260009216906370a0823190602401602060405180830381865afa15801561031b573d6000803e3d6000fd5b505050506040513d601f19601f8201168201806040525081019061033f9190610ece565b9050806000036103875760405162461bcd60e51b81526020600482015260136024820152724e4f5f415641494c41424c455f544f4b454e5360681b604482015260640161025d565b600154604080516318160ddd60e01b815290516000926001600160a01b0316916318160ddd9160048083019260209291908290030181865afa1580156103d1573d6000803e3d6000fd5b505050506040513d601f19601f820116820180604052508101906103f59190610ece565b9050600081836004546104089190610eb7565b6104129190610ee7565b9050600082846005546104259190610eb7565b61042f9190610ee7565b600154604051632770a7eb60e21b81526001600160a01b03888116600483015260248201889052929350911690639dc29fac90604401600060405180830381600087803b15801561047f57600080fd5b505af1158015610493573d6000803e3d6000fd5b505050506000856001600160a01b03168360405160006040518083038185875af1925050503d80600081146104e4576040519150601f19603f3d011682016040523d82523d6000602084013e6104e9565b606091505b505060025460405163a9059cbb60e01b81526001600160a01b038981166004830152602482018690529293506000929091169063a9059cbb906044016020604051808303816000875af1158015610544573d6000803e3d6000fd5b505050506040513d601f19601f820116820180604052508101906105689190610f09565b90508180156105745750805b6105b25760405162461bcd60e51b815260206004820152600f60248201526e2320a4a622a22faa2920a729a322a960891b604482015260640161025d565b6040516001600160a01b038816907f5dab48db0770e220c3226a459b19d38e7438c27b1b8dac1fab1434686d2319cd90600090a26105ee610c61565b50505050505050565b600080600160009054906101000a90046001600160a01b03166001600160a01b03166318160ddd6040518163ffffffff1660e01b8152600401602060405180830381865afa15801561064d573d6000803e3d6000fd5b505050506040513d601f19601f820116820180604052508101906106719190610ece565b90503481156106b8576004546106b19061068b8484610eb7565b6106959190610ee7565b6005546106a28589610eb7565b6106ac9190610ee7565b610cd8565b92506106cd565b6106ca6106c58683610eb7565b610cf2565b92505b6001546040516340c10f1960e01b81526001600160a01b03868116600483015260248201869052909116906340c10f1990604401600060405180830381600087803b15801561071b57600080fd5b505af115801561072f573d6000803e3d6000fd5b50506040516001600160a01b03871692507f88bbeecffcce070d5609ad08df49df93f0d53002ef3544dd5287e6b621eaff6f9150600090a261076f610c61565b5050505050565b61077e610d62565b6107886000610dbc565b565b610792610d62565b6002546001600160a01b0316156107bb5760405162461bcd60e51b815260040161025d90610f2b565b600280546001600160a01b0319166001600160a01b0392909216919091179055565b6107e5610d62565b6003546001600160a01b03161561080e5760405162461bcd60e51b815260040161025d90610f2b565b600380546001600160a01b0319166001600160a01b0392909216919091179055565b60006005546004546108429190610eb7565b90506000806000806008549050346000036109ed576002546040516370a0823160e01b81523060048201526000916001600160a01b0316906370a0823190602401602060405180830381865afa1580156108a0573d6000803e3d6000fd5b505050506040513d601f19601f820116820180604052508101906108c49190610ece565b9050600060646108d5896002610eb7565b6108df9190610ee7565b6108e99089610f4f565b90506000816005546108fb9190610f62565b905060008260055461090d9190610f62565b610917908a610ee7565b9050806004546109279190610f4f565b97506064610936896001610eb7565b6109409190610ee7565b965061094c8789610f4f565b955060008b6001600160a01b03168760405160006040518083038185875af1925050503d806000811461099b576040519150601f19603f3d011682016040523d82523d6000602084013e6109a0565b606091505b50509050806109e35760405162461bcd60e51b815260206004820152600f60248201526e1514905394d1915497d19052531151608a1b604482015260640161025d565b5050505050610b49565b6000346004546109fd9190610f62565b610a079087610ee7565b905080600554610a179190610f4f565b94506064610a26866001610eb7565b610a309190610ee7565b9350610a3c8486610f4f565b60025460405163a9059cbb60e01b81526001600160a01b038b811660048301526024820184905292955091169063a9059cbb906044016020604051808303816000875af1158015610a91573d6000803e3d6000fd5b505050506040513d601f19601f82011682018060405250810190610ab59190610f09565b506064610ac384600a610eb7565b610acd9190610ee7565b60035460405163a9059cbb60e01b81526001600160a01b038b811660048301526024820184905292945091169063a9059cbb906044016020604051808303816000875af1158015610b22573d6000803e3d6000fd5b505050506040513d601f19601f82011682018060405250810190610b469190610f09565b50505b60408051348152602081018890526001600160a01b038916917f967ed1bc358366a7e3e3031a0fbee32b45feb1c201d99d020380f99d03d932d1910160405180910390a26105ee610c61565b610b9d610d62565b6001600160a01b038116610c025760405162461bcd60e51b815260206004820152602660248201527f4f776e61626c653a206e6577206f776e657220697320746865207a65726f206160448201526564647265737360d01b606482015260840161025d565b610c0b81610dbc565b50565b610c16610d62565b6001546001600160a01b031615610c3f5760405162461bcd60e51b815260040161025d90610f2b565b600180546001600160a01b0319166001600160a01b0392909216919091179055565b4760049081556002546040516370a0823160e01b815230928101929092526001600160a01b0316906370a0823190602401602060405180830381865afa158015610caf573d6000803e3d6000fd5b505050506040513d601f19601f82011682018060405250810190610cd39190610ece565b600555565b6000818310610ce75781610ce9565b825b90505b92915050565b60006003821115610d535750806000610d0c600283610ee7565b610d17906001610f62565b90505b81811015610d4d57905080600281610d328186610ee7565b610d3c9190610f62565b610d469190610ee7565b9050610d1a565b50919050565b8115610d5d575060015b919050565b6000546001600160a01b031633146107885760405162461bcd60e51b815260206004820181905260248201527f4f776e61626c653a2063616c6c6572206973206e6f7420746865206f776e6572604482015260640161025d565b600080546001600160a01b038381166001600160a01b0319831681178455604051919092169283917f8be0079c531659141344cd1fd0a4f28419497f9722a3daafe3b4186f6b6457e09190a35050565b6001600160a01b0381168114610c0b57600080fd5b600060208284031215610e3357600080fd5b8135610e3e81610e0c565b9392505050565b60008060408385031215610e5857600080fd5b823591506020830135610e6a81610e0c565b809150509250929050565b60008060408385031215610e8857600080fd5b8235610e9381610e0c565b946020939093013593505050565b634e487b7160e01b600052601160045260246000fd5b8082028115828204841417610cec57610cec610ea1565b600060208284031215610ee057600080fd5b5051919050565b600082610f0457634e487b7160e01b600052601260045260246000fd5b500490565b600060208284031215610f1b57600080fd5b81518015158114610e3e57600080fd5b6020808252600a908201526957524954455f4f4e434560b01b604082015260600190565b81810381811115610cec57610cec610ea1565b80820180821115610cec57610cec610ea156fea26469706673582212209753798adc69f3afaa857e1930969d0a63d2133d36a3d16a30a5bda2422b696564736f6c63430008110033",
  "immutableReferences": {},
  "source": "//SPDX-License-Identifier: Unlicense\npragma solidity ^0.8.0;\n\nimport \"./LPT.sol\";\nimport \"./JMToken.sol\";\nimport \"./VJMToken.sol\";\nimport \"@openzeppelin/contracts/utils/math/Math.sol\";\nimport \"@uniswap/lib/contracts/libraries/Babylonian.sol\";\nimport \"@openzeppelin/contracts/access/Ownable.sol\";\n\n// indexed ->        search ,    \n// unchecked ->      overflow   ->        \n//                \n//    unchecked     \n/*\n      (Swap)\n      \n    JMT token = 10000 \n    ETH token = 20\n     LiquidityPool Reserve   ,    \n    A 100 JMT  ETH   \n       10000*20 = 200000  \n     A JMT100   \n      10100  10100*20 = 202000  \n    \n        200000 \n    202000  JMT ETH   \n     \n      x * 10100 = 200000    ( x  eth  )\n     x   x = 200000/10100    \n    x = 19.8019082 eth        (eth)reserve - x = 0.921980918 \n       eth 0.921980918  (   ) \n*/\ncontract LiquidityPool is Ownable {\n    event LiquidityAdded(address indexed _account);\n    event LiquidityRemoved(address indexed _account);\n    event TradedTokens(address indexed _account,uint256 _ethTraded,uint256 _jmtTraded);\n\n    LPT lpToken; //  lp  \n    JMToken jmtToken;\n    VJMToken vJmt;\n    \n    uint256 ethReserve; //   \n    uint256 jmtReserve;  //  jmt \n    uint32 lastBlockTimestamp;\n    uint256 totalReserve; //   \n    uint256 public decimals = 10**18;\n\n    constructor () {\n        ethReserve=0;\n        jmtReserve=0;\n    }\n\n    modifier JonMatngOnly() {\n        require(msg.sender == address(jmtToken), \"JonMatng_ONLY\");\n        _;\n    }\n    // set funded reserve \n    function setFundedReserve() JonMatngOnly public {\n        require(ethReserve != 0 && jmtReserve != 0,\"RESERVE AMOUNT EMPTY\");\n        totalReserve = ethReserve*jmtReserve;\n    }\n\n    // lpt   \n    function setLPTAddress(LPT _lpToken) external onlyOwner {\n        require(address(lpToken) == address(0), \"WRITE_ONCE\");\n        lpToken = _lpToken;\n    }\n\n    //  jmt   \n    function setJmtCoinAddress(JMToken _jmtToken) external onlyOwner {\n        require(address(jmtToken) == address(0), \"WRITE_ONCE\");\n        jmtToken = _jmtToken;\n    }\n    // vJmt    \n    function setVJMTCoinAddress(VJMToken _vJmt) external onlyOwner(){\n        require(address(vJmt) == address(0), \"WRITE_ONCE\");\n        vJmt = _vJmt;\n    }\n\n    //    \n    function getReserves() external view returns (uint256, uint256) {\n        return (ethReserve, jmtReserve);\n    }\n\n    //pool swap!\n    function swap(address account, uint256 _jmtAmount) external payable {\n        uint256 product = ethReserve * jmtReserve; //  \n        uint256 amountToTransfer;\n        uint256 amountToTake;\n        uint256 totalAmountToTransfer;\n        uint256 Commission = decimals; //\n\n        // jmt -> eth, jmttoken == 0\n        if (msg.value == 0) {\n            uint256 currentJMTBalance = jmtToken.balanceOf(address(this)); //      \n            uint256 _jmtAmountMinusTax = _jmtAmount - ((2 * _jmtAmount) / 100); // (  - ) \n            uint256 addedBalance = jmtReserve + _jmtAmountMinusTax; //  jmt + (  - ) =   \n            //require(addedBalance == currentJMTBalance, \"DID_NOT_TRANSFER\");\n\n            uint256 x = product / (jmtReserve + _jmtAmountMinusTax); //  product   \n            amountToTransfer = ethReserve - x; //   eth \n            amountToTake = (1 * amountToTransfer) / 100; //  \n            totalAmountToTransfer = amountToTransfer - amountToTake; //   -  =  get eth \n\n            //     //  \n            // https://kushgoyal.com/ethereum-solidity-how-use-call-delegatecall/ ->  \n            (bool success, ) = account.call{value: totalAmountToTransfer}(\"\");\n            require(success, \"TRANSFER_FAILED\");\n        } else { // eth -> jmt, jmttoken > 0 msg.value > 0  \n\n            uint256 y = product / (ethReserve + msg.value);\n            amountToTransfer = jmtReserve - y;\n            amountToTake = (1 * amountToTransfer) / 100;\n            totalAmountToTransfer = amountToTransfer - amountToTake;\n\n            jmtToken.transfer(account, totalAmountToTransfer);\n\n            Commission = (totalAmountToTransfer * 10) / 100;\n            vJmt.transfer(account , Commission);\n        }\n        emit TradedTokens(account, msg.value, _jmtAmount);\n        _update();\n    }\n\n    // pool  \n    function deposit(uint256 jmtAmount, address account) external payable \n    {\n        uint256 liquidity; //  \n        uint256 totalSupply = lpToken.totalSupply(); // lp erc\n        uint256 ethAmount = msg.value; //\n\n        if (totalSupply > 0) {\n            liquidity = Math.min(\n                (ethAmount * totalSupply) / ethReserve,\n                (jmtAmount * totalSupply) / jmtReserve\n            );\n        } else { // x\n            liquidity = Babylonian.sqrt(ethAmount * jmtAmount);\n        }\n\n        lpToken.mint(account, liquidity); // transfer user => \n        emit LiquidityAdded(account);\n        _update();\n    }\n\n    //lp \n    function withdraw(address account) external {\n        uint256 liquidity = lpToken.balanceOf(account); //  lp   \n        require(liquidity != 0, \"NO_AVAILABLE_TOKENS\");\n\n        uint256 totalSupply = lpToken.totalSupply();\n        //  \n        uint256 ethAmount = (ethReserve * liquidity) / totalSupply;\n        uint256 jmtAmount = (jmtReserve * liquidity) / totalSupply;\n\n        // \n        lpToken.burn(account, liquidity); // account  , lpt   \n\n        //    \n        (bool ethTransferSuccess, ) = account.call{value: ethAmount}(\"\");\n        bool jmtTransferSuccess = jmtToken.transfer(account, jmtAmount);\n\n        require(ethTransferSuccess && jmtTransferSuccess, \"FAILED_TRANSFER\");\n        emit LiquidityRemoved(account);\n        _update();\n    }\n    // ,     \n    function _update() private \n    {\n        // uint32 blockTimestamp = uint32(block.timestamp % 2**32);\n        // uint32 timeElapsed;\n        // unchecked { //     \n        //     timeElapsed = blockTimestamp - lastBlockTimestamp; \n        // }\n        // if (timeElapsed > 0) {\n            ethReserve = address(this).balance; //    eth \n            jmtReserve = jmtToken.balanceOf(address(this)); // jmt    \n        //     lastBlockTimestamp = blockTimestamp; \n        // }\n    }\n}",
  "sourcePath": "/Users/rokrokss/workspace/hyein/BEB-05-JMT/contract/contracts/LiquidityPool.sol",
  "compiler": {
    "name": "solc",
    "version": "0.8.17+commit.8df45f5f.Emscripten.clang"
  },
  "schemaVersion": "3.4.9",
  "updatedAt": "2022-09-25T22:29:17.505Z",
  "networkType": "ethereum",
  "devdoc": {
    "kind": "dev",
    "methods": {
      "owner()": {
        "details": "Returns the address of the current owner."
      },
      "renounceOwnership()": {
        "details": "Leaves the contract without owner. It will not be possible to call `onlyOwner` functions anymore. Can only be called by the current owner. NOTE: Renouncing ownership will leave the contract without an owner, thereby removing any functionality that is only available to the owner."
      },
      "transferOwnership(address)": {
        "details": "Transfers ownership of the contract to a new account (`newOwner`). Can only be called by the current owner."
      }
    },
    "version": 1
  },
  "userdoc": {
    "kind": "user",
    "methods": {},
    "version": 1
  }
}