{
  "contractName": "LiquidityPool",
  "abi": [
    {
      "inputs": [],
      "stateMutability": "nonpayable",
      "type": "constructor"
    },
    {
      "anonymous": false,
      "inputs": [
        {
          "indexed": true,
          "internalType": "address",
          "name": "_account",
          "type": "address"
        }
      ],
      "name": "LiquidityAdded",
      "type": "event"
    },
    {
      "anonymous": false,
      "inputs": [
        {
          "indexed": true,
          "internalType": "address",
          "name": "_account",
          "type": "address"
        }
      ],
      "name": "LiquidityRemoved",
      "type": "event"
    },
    {
      "anonymous": false,
      "inputs": [
        {
          "indexed": true,
          "internalType": "address",
          "name": "previousOwner",
          "type": "address"
        },
        {
          "indexed": true,
          "internalType": "address",
          "name": "newOwner",
          "type": "address"
        }
      ],
      "name": "OwnershipTransferred",
      "type": "event"
    },
    {
      "anonymous": false,
      "inputs": [
        {
          "indexed": true,
          "internalType": "address",
          "name": "_account",
          "type": "address"
        },
        {
          "indexed": false,
          "internalType": "uint256",
          "name": "_ethTraded",
          "type": "uint256"
        },
        {
          "indexed": false,
          "internalType": "uint256",
          "name": "_jmtTraded",
          "type": "uint256"
        }
      ],
      "name": "TradedTokens",
      "type": "event"
    },
    {
      "inputs": [],
      "name": "owner",
      "outputs": [
        {
          "internalType": "address",
          "name": "",
          "type": "address"
        }
      ],
      "stateMutability": "view",
      "type": "function",
      "constant": true
    },
    {
      "inputs": [],
      "name": "renounceOwnership",
      "outputs": [],
      "stateMutability": "nonpayable",
      "type": "function"
    },
    {
      "inputs": [
        {
          "internalType": "address",
          "name": "newOwner",
          "type": "address"
        }
      ],
      "name": "transferOwnership",
      "outputs": [],
      "stateMutability": "nonpayable",
      "type": "function"
    },
    {
      "inputs": [],
      "name": "setFundedReserve",
      "outputs": [],
      "stateMutability": "nonpayable",
      "type": "function"
    },
    {
      "inputs": [
        {
          "internalType": "contract LPT",
          "name": "_lpToken",
          "type": "address"
        }
      ],
      "name": "setLPTAddress",
      "outputs": [],
      "stateMutability": "nonpayable",
      "type": "function"
    },
    {
      "inputs": [
        {
          "internalType": "contract JMToken",
          "name": "_jmtToken",
          "type": "address"
        }
      ],
      "name": "setJmtCoinAddress",
      "outputs": [],
      "stateMutability": "nonpayable",
      "type": "function"
    },
    {
      "inputs": [
        {
          "internalType": "contract VJMToken",
          "name": "_vJmt",
          "type": "address"
        }
      ],
      "name": "setVJMTCoinAddress",
      "outputs": [],
      "stateMutability": "nonpayable",
      "type": "function"
    },
    {
      "inputs": [],
      "name": "getReserves",
      "outputs": [
        {
          "internalType": "uint256",
          "name": "",
          "type": "uint256"
        },
        {
          "internalType": "uint256",
          "name": "",
          "type": "uint256"
        }
      ],
      "stateMutability": "view",
      "type": "function",
      "constant": true
    },
    {
      "inputs": [
        {
          "internalType": "address",
          "name": "account",
          "type": "address"
        },
        {
          "internalType": "uint256",
          "name": "_jmtAmount",
          "type": "uint256"
        }
      ],
      "name": "swap",
      "outputs": [],
      "stateMutability": "payable",
      "type": "function",
      "payable": true
    },
    {
      "inputs": [
        {
          "internalType": "uint256",
          "name": "jmtAmount",
          "type": "uint256"
        },
        {
          "internalType": "address",
          "name": "account",
          "type": "address"
        }
      ],
      "name": "deposit",
      "outputs": [],
      "stateMutability": "payable",
      "type": "function",
      "payable": true
    },
    {
      "inputs": [
        {
          "internalType": "address",
          "name": "account",
          "type": "address"
        }
      ],
      "name": "withdraw",
      "outputs": [],
      "stateMutability": "nonpayable",
      "type": "function"
    }
  ],
  "bytecode": "0x608060405234801561001057600080fd5b5061001a33610029565b60006004819055600555610079565b600080546001600160a01b038381166001600160a01b0319831681178455604051919092169283917f8be0079c531659141344cd1fd0a4f28419497f9722a3daafe3b4186f6b6457e09190a35050565b610eed806100886000396000f3fe60806040526004361061009c5760003560e01c80637f41b8e2116100645780637f41b8e21461012d5780638da5cb5b1461014d578063c4066f6614610175578063d004f0f714610195578063f2fde38b146101a8578063f63d19c5146101c857600080fd5b80630902f1ac146100a15780632770d901146100ce57806351cff8d9146100e55780636e553f6514610105578063715018a614610118575b600080fd5b3480156100ad57600080fd5b50600454600554604080519283526020830191909152015b60405180910390f35b3480156100da57600080fd5b506100e36101e8565b005b3480156100f157600080fd5b506100e3610100366004610d63565b6102a1565b6100e3610113366004610d87565b6105c8565b34801561012457600080fd5b506100e3610747565b34801561013957600080fd5b506100e3610148366004610d63565b61075b565b34801561015957600080fd5b506000546040516001600160a01b0390911681526020016100c5565b34801561018157600080fd5b506100e3610190366004610d63565b6107ae565b6100e36101a3366004610db7565b610801565b3480156101b457600080fd5b506100e36101c3366004610d63565b610ad7565b3480156101d457600080fd5b506100e36101e3366004610d63565b610b50565b6002546001600160a01b031633146102375760405162461bcd60e51b815260206004820152600d60248201526c4a6f6e4d61746e675f4f4e4c5960981b60448201526064015b60405180910390fd5b60045415801590610249575060055415155b61028c5760405162461bcd60e51b81526020600482015260146024820152735245534552564520414d4f554e5420454d50545960601b604482015260640161022e565b60055460045461029c9190610df9565b600755565b6001546040516370a0823160e01b81526001600160a01b03838116600483015260009216906370a0823190602401602060405180830381865afa1580156102ec573d6000803e3d6000fd5b505050506040513d601f19601f820116820180604052508101906103109190610e10565b9050806000036103585760405162461bcd60e51b81526020600482015260136024820152724e4f5f415641494c41424c455f544f4b454e5360681b604482015260640161022e565b600154604080516318160ddd60e01b815290516000926001600160a01b0316916318160ddd9160048083019260209291908290030181865afa1580156103a2573d6000803e3d6000fd5b505050506040513d601f19601f820116820180604052508101906103c69190610e10565b9050600081836004546103d99190610df9565b6103e39190610e29565b9050600082846005546103f69190610df9565b6104009190610e29565b600154604051632770a7eb60e21b81526001600160a01b03888116600483015260248201889052929350911690639dc29fac90604401600060405180830381600087803b15801561045057600080fd5b505af1158015610464573d6000803e3d6000fd5b505050506000856001600160a01b03168360405160006040518083038185875af1925050503d80600081146104b5576040519150601f19603f3d011682016040523d82523d6000602084013e6104ba565b606091505b505060025460405163a9059cbb60e01b81526001600160a01b038981166004830152602482018690529293506000929091169063a9059cbb906044016020604051808303816000875af1158015610515573d6000803e3d6000fd5b505050506040513d601f19601f820116820180604052508101906105399190610e4b565b90508180156105455750805b6105835760405162461bcd60e51b815260206004820152600f60248201526e2320a4a622a22faa2920a729a322a960891b604482015260640161022e565b6040516001600160a01b038816907f5dab48db0770e220c3226a459b19d38e7438c27b1b8dac1fab1434686d2319cd90600090a26105bf610ba3565b50505050505050565b600080600160009054906101000a90046001600160a01b03166001600160a01b03166318160ddd6040518163ffffffff1660e01b8152600401602060405180830381865afa15801561061e573d6000803e3d6000fd5b505050506040513d601f19601f820116820180604052508101906106429190610e10565b9050348115610689576004546106829061065c8484610df9565b6106669190610e29565b6005546106738589610df9565b61067d9190610e29565b610c1a565b925061069e565b61069b6106968683610df9565b610c34565b92505b6001546040516340c10f1960e01b81526001600160a01b03868116600483015260248201869052909116906340c10f1990604401600060405180830381600087803b1580156106ec57600080fd5b505af1158015610700573d6000803e3d6000fd5b50506040516001600160a01b03871692507f88bbeecffcce070d5609ad08df49df93f0d53002ef3544dd5287e6b621eaff6f9150600090a2610740610ba3565b5050505050565b61074f610ca4565b6107596000610cfe565b565b610763610ca4565b6002546001600160a01b03161561078c5760405162461bcd60e51b815260040161022e90610e6d565b600280546001600160a01b0319166001600160a01b0392909216919091179055565b6107b6610ca4565b6003546001600160a01b0316156107df5760405162461bcd60e51b815260040161022e90610e6d565b600380546001600160a01b0319166001600160a01b0392909216919091179055565b60006005546004546108139190610df9565b90506000806000346000036109b8576002546040516370a0823160e01b81523060048201526000916001600160a01b0316906370a0823190602401602060405180830381865afa15801561086b573d6000803e3d6000fd5b505050506040513d601f19601f8201168201806040525081019061088f9190610e10565b9050600060646108a0886002610df9565b6108aa9190610e29565b6108b49088610e91565b90506000816005546108c69190610ea4565b90506000826005546108d89190610ea4565b6108e29089610e29565b9050806004546108f29190610e91565b96506064610901886001610df9565b61090b9190610e29565b95506109178688610e91565b945060008a6001600160a01b03168660405160006040518083038185875af1925050503d8060008114610966576040519150601f19603f3d011682016040523d82523d6000602084013e61096b565b606091505b50509050806109ae5760405162461bcd60e51b815260206004820152600f60248201526e1514905394d1915497d19052531151608a1b604482015260640161022e565b5050505050610a83565b6000346004546109c89190610ea4565b6109d29086610e29565b9050806005546109e29190610e91565b935060646109f1856001610df9565b6109fb9190610e29565b9250610a078385610e91565b60025460405163a9059cbb60e01b81526001600160a01b038a811660048301526024820184905292945091169063a9059cbb906044016020604051808303816000875af1158015610a5c573d6000803e3d6000fd5b505050506040513d601f19601f82011682018060405250810190610a809190610e4b565b50505b60408051348152602081018790526001600160a01b038816917f967ed1bc358366a7e3e3031a0fbee32b45feb1c201d99d020380f99d03d932d1910160405180910390a2610acf610ba3565b505050505050565b610adf610ca4565b6001600160a01b038116610b445760405162461bcd60e51b815260206004820152602660248201527f4f776e61626c653a206e6577206f776e657220697320746865207a65726f206160448201526564647265737360d01b606482015260840161022e565b610b4d81610cfe565b50565b610b58610ca4565b6001546001600160a01b031615610b815760405162461bcd60e51b815260040161022e90610e6d565b600180546001600160a01b0319166001600160a01b0392909216919091179055565b4760049081556002546040516370a0823160e01b815230928101929092526001600160a01b0316906370a0823190602401602060405180830381865afa158015610bf1573d6000803e3d6000fd5b505050506040513d601f19601f82011682018060405250810190610c159190610e10565b600555565b6000818310610c295781610c2b565b825b90505b92915050565b60006003821115610c955750806000610c4e600283610e29565b610c59906001610ea4565b90505b81811015610c8f57905080600281610c748186610e29565b610c7e9190610ea4565b610c889190610e29565b9050610c5c565b50919050565b8115610c9f575060015b919050565b6000546001600160a01b031633146107595760405162461bcd60e51b815260206004820181905260248201527f4f776e61626c653a2063616c6c6572206973206e6f7420746865206f776e6572604482015260640161022e565b600080546001600160a01b038381166001600160a01b0319831681178455604051919092169283917f8be0079c531659141344cd1fd0a4f28419497f9722a3daafe3b4186f6b6457e09190a35050565b6001600160a01b0381168114610b4d57600080fd5b600060208284031215610d7557600080fd5b8135610d8081610d4e565b9392505050565b60008060408385031215610d9a57600080fd5b823591506020830135610dac81610d4e565b809150509250929050565b60008060408385031215610dca57600080fd5b8235610dd581610d4e565b946020939093013593505050565b634e487b7160e01b600052601160045260246000fd5b8082028115828204841417610c2e57610c2e610de3565b600060208284031215610e2257600080fd5b5051919050565b600082610e4657634e487b7160e01b600052601260045260246000fd5b500490565b600060208284031215610e5d57600080fd5b81518015158114610d8057600080fd5b6020808252600a908201526957524954455f4f4e434560b01b604082015260600190565b81810381811115610c2e57610c2e610de3565b80820180821115610c2e57610c2e610de356fea2646970667358221220d93fb396b7bccb167c3a44cc1042e99e7aa49905d2c66d6ed3546885454cac3164736f6c63430008110033",
  "immutableReferences": {},
  "source": "//SPDX-License-Identifier: Unlicense\npragma solidity ^0.8.0;\n\nimport \"./LPT.sol\";\nimport \"./JMToken.sol\";\nimport \"./VJMToken.sol\";\nimport \"@openzeppelin/contracts/utils/math/Math.sol\";\nimport \"@uniswap/lib/contracts/libraries/Babylonian.sol\";\nimport \"@openzeppelin/contracts/access/Ownable.sol\";\n\n// indexed ->        search ,    \n// unchecked ->      overflow   ->        \n//                \n//    unchecked     \n/*\n      (Swap)\n      \n    JMT token = 10000 \n    ETH token = 20\n     LiquidityPool Reserve   ,    \n    A 100 JMT  ETH   \n       10000*20 = 200000  \n     A JMT100   \n      10100  10100*20 = 202000  \n    \n        200000 \n    202000  JMT ETH   \n     \n      x * 10100 = 200000    ( x  eth  )\n     x   x = 200000/10100    \n    x = 19.8019082 eth        (eth)reserve - x = 0.921980918 \n       eth 0.921980918  (   ) \n*/\ncontract LiquidityPool is Ownable {\n    event LiquidityAdded(address indexed _account);\n    event LiquidityRemoved(address indexed _account);\n    event TradedTokens(address indexed _account,uint256 _ethTraded,uint256 _jmtTraded);\n\n    LPT lpToken; //  lp  \n    JMToken jmtToken;\n    VJMToken vJmt;\n    \n    uint256 ethReserve; //   \n    uint256 jmtReserve;  //  jmt \n    uint32 lastBlockTimestamp;\n    uint256 totalReserve; //   \n\n    constructor () {\n        ethReserve=0;\n        jmtReserve=0;\n    }\n\n    modifier JonMatngOnly() {\n        require(msg.sender == address(jmtToken), \"JonMatng_ONLY\");\n        _;\n    }\n    // set funded reserve \n    function setFundedReserve() JonMatngOnly public {\n        require(ethReserve != 0 && jmtReserve != 0,\"RESERVE AMOUNT EMPTY\");\n        totalReserve = ethReserve*jmtReserve;\n    }\n\n    // lpt   \n    function setLPTAddress(LPT _lpToken) external onlyOwner {\n        require(address(lpToken) == address(0), \"WRITE_ONCE\");\n        lpToken = _lpToken;\n    }\n\n    //  jmt   \n    function setJmtCoinAddress(JMToken _jmtToken) external onlyOwner {\n        require(address(jmtToken) == address(0), \"WRITE_ONCE\");\n        jmtToken = _jmtToken;\n    }\n    // vJmt    \n    function setVJMTCoinAddress(VJMToken _vJmt) external onlyOwner(){\n        require(address(vJmt) == address(0), \"WRITE_ONCE\");\n        vJmt = _vJmt;\n    }\n\n    //    \n    function getReserves() external view returns (uint256, uint256) {\n        return (ethReserve, jmtReserve);\n    }\n\n    //pool swap!\n    function swap(address account, uint256 _jmtAmount) external payable {\n        uint256 product = ethReserve * jmtReserve; //  \n        uint256 amountToTransfer;\n        uint256 amountToTake;\n        uint256 totalAmountToTransfer;\n\n        // jmt -> eth, jmttoken == 0\n        if (msg.value == 0) {\n            uint256 currentJMTBalance = jmtToken.balanceOf(address(this)); //      \n            uint256 _jmtAmountMinusTax = _jmtAmount - ((2 * _jmtAmount) / 100); // (  - ) \n            uint256 addedBalance = jmtReserve + _jmtAmountMinusTax; //  jmt + (  - ) =   \n            //require(addedBalance == currentJMTBalance, \"DID_NOT_TRANSFER\");\n\n            uint256 x = product / (jmtReserve + _jmtAmountMinusTax); //  product   \n            amountToTransfer = ethReserve - x; //   eth \n            amountToTake = (1 * amountToTransfer) / 100; //  \n            totalAmountToTransfer = amountToTransfer - amountToTake; //   -  =  get eth \n\n            //     //  \n            // https://kushgoyal.com/ethereum-solidity-how-use-call-delegatecall/ ->  \n            (bool success, ) = account.call{value: totalAmountToTransfer}(\"\");\n            require(success, \"TRANSFER_FAILED\");\n        } else { // eth -> jmt, jmttoken > 0 msg.value > 0  \n\n            uint256 y = product / (ethReserve + msg.value);\n            amountToTransfer = jmtReserve - y;\n            amountToTake = (1 * amountToTransfer) / 100;\n            totalAmountToTransfer = amountToTransfer - amountToTake;\n\n            jmtToken.transfer(account, totalAmountToTransfer);\n        }\n        emit TradedTokens(account, msg.value, _jmtAmount);\n        _update();\n    }\n\n    // pool  \n    function deposit(uint256 jmtAmount, address account) external payable \n    {\n        uint256 liquidity; //  \n        uint256 totalSupply = lpToken.totalSupply(); // lp erc\n        uint256 ethAmount = msg.value; //\n\n        if (totalSupply > 0) {\n            liquidity = Math.min(\n                (ethAmount * totalSupply) / ethReserve,\n                (jmtAmount * totalSupply) / jmtReserve\n            );\n        } else { // x\n            liquidity = Babylonian.sqrt(ethAmount * jmtAmount);\n        }\n\n        lpToken.mint(account, liquidity); // transfer user => \n        emit LiquidityAdded(account);\n        _update();\n    }\n\n    //lp \n    function withdraw(address account) external {\n        uint256 liquidity = lpToken.balanceOf(account); //  lp   \n        require(liquidity != 0, \"NO_AVAILABLE_TOKENS\");\n\n        uint256 totalSupply = lpToken.totalSupply();\n        //  \n        uint256 ethAmount = (ethReserve * liquidity) / totalSupply;\n        uint256 jmtAmount = (jmtReserve * liquidity) / totalSupply;\n\n        // \n        lpToken.burn(account, liquidity); // account  , lpt   \n\n        //    \n        (bool ethTransferSuccess, ) = account.call{value: ethAmount}(\"\");\n        bool jmtTransferSuccess = jmtToken.transfer(account, jmtAmount);\n\n        require(ethTransferSuccess && jmtTransferSuccess, \"FAILED_TRANSFER\");\n        emit LiquidityRemoved(account);\n        _update();\n    }\n    // ,     \n    function _update() private \n    {\n        // uint32 blockTimestamp = uint32(block.timestamp % 2**32);\n        // uint32 timeElapsed;\n        // unchecked { //     \n        //     timeElapsed = blockTimestamp - lastBlockTimestamp; \n        // }\n        // if (timeElapsed > 0) {\n            ethReserve = address(this).balance; //    eth \n            jmtReserve = jmtToken.balanceOf(address(this)); // jmt    \n        //     lastBlockTimestamp = blockTimestamp; \n        // }\n    }\n}",
  "sourcePath": "/Users/hyenne/workspace/BEB-05-JMT/contract/contracts/LiquidityPool.sol",
  "compiler": {
    "name": "solc",
    "version": "0.8.17+commit.8df45f5f.Emscripten.clang"
  },
  "schemaVersion": "3.4.9",
  "updatedAt": "2022-09-20T22:49:23.806Z",
  "networkType": "ethereum",
  "devdoc": {
    "kind": "dev",
    "methods": {
      "owner()": {
        "details": "Returns the address of the current owner."
      },
      "renounceOwnership()": {
        "details": "Leaves the contract without owner. It will not be possible to call `onlyOwner` functions anymore. Can only be called by the current owner. NOTE: Renouncing ownership will leave the contract without an owner, thereby removing any functionality that is only available to the owner."
      },
      "transferOwnership(address)": {
        "details": "Transfers ownership of the contract to a new account (`newOwner`). Can only be called by the current owner."
      }
    },
    "version": 1
  },
  "userdoc": {
    "kind": "user",
    "methods": {},
    "version": 1
  }
}