{
  "contractName": "LiquidityPool",
  "abi": [
    {
      "inputs": [],
      "stateMutability": "nonpayable",
      "type": "constructor"
    },
    {
      "anonymous": false,
      "inputs": [
        {
          "indexed": true,
          "internalType": "address",
          "name": "_account",
          "type": "address"
        }
      ],
      "name": "LiquidityAdded",
      "type": "event"
    },
    {
      "anonymous": false,
      "inputs": [
        {
          "indexed": true,
          "internalType": "address",
          "name": "_account",
          "type": "address"
        }
      ],
      "name": "LiquidityRemoved",
      "type": "event"
    },
    {
      "anonymous": false,
      "inputs": [
        {
          "indexed": true,
          "internalType": "address",
          "name": "previousOwner",
          "type": "address"
        },
        {
          "indexed": true,
          "internalType": "address",
          "name": "newOwner",
          "type": "address"
        }
      ],
      "name": "OwnershipTransferred",
      "type": "event"
    },
    {
      "anonymous": false,
      "inputs": [
        {
          "indexed": true,
          "internalType": "address",
          "name": "_account",
          "type": "address"
        },
        {
          "indexed": false,
          "internalType": "uint256",
          "name": "_ethTraded",
          "type": "uint256"
        },
        {
          "indexed": false,
          "internalType": "uint256",
          "name": "_jmtTraded",
          "type": "uint256"
        }
      ],
      "name": "TradedTokens",
      "type": "event"
    },
    {
      "inputs": [],
      "name": "owner",
      "outputs": [
        {
          "internalType": "address",
          "name": "",
          "type": "address"
        }
      ],
      "stateMutability": "view",
      "type": "function",
      "constant": true
    },
    {
      "inputs": [],
      "name": "renounceOwnership",
      "outputs": [],
      "stateMutability": "nonpayable",
      "type": "function"
    },
    {
      "inputs": [
        {
          "internalType": "address",
          "name": "newOwner",
          "type": "address"
        }
      ],
      "name": "transferOwnership",
      "outputs": [],
      "stateMutability": "nonpayable",
      "type": "function"
    },
    {
      "inputs": [],
      "name": "setFundedReserve",
      "outputs": [],
      "stateMutability": "nonpayable",
      "type": "function"
    },
    {
      "inputs": [
        {
          "internalType": "uint32",
          "name": "rType",
          "type": "uint32"
        },
        {
          "internalType": "uint256",
          "name": "value",
          "type": "uint256"
        }
      ],
      "name": "getReserveRatio",
      "outputs": [
        {
          "internalType": "uint256",
          "name": "",
          "type": "uint256"
        }
      ],
      "stateMutability": "view",
      "type": "function",
      "constant": true
    },
    {
      "inputs": [
        {
          "internalType": "contract LPT",
          "name": "_lpToken",
          "type": "address"
        }
      ],
      "name": "setLPTAddress",
      "outputs": [],
      "stateMutability": "nonpayable",
      "type": "function"
    },
    {
      "inputs": [
        {
          "internalType": "contract JMToken",
          "name": "_jmtToken",
          "type": "address"
        }
      ],
      "name": "setJmtCoinAddress",
      "outputs": [],
      "stateMutability": "nonpayable",
      "type": "function"
    },
    {
      "inputs": [],
      "name": "getReserves",
      "outputs": [
        {
          "internalType": "uint256",
          "name": "",
          "type": "uint256"
        },
        {
          "internalType": "uint256",
          "name": "",
          "type": "uint256"
        }
      ],
      "stateMutability": "view",
      "type": "function",
      "constant": true
    },
    {
      "inputs": [
        {
          "internalType": "address",
          "name": "account",
          "type": "address"
        },
        {
          "internalType": "uint256",
          "name": "_jmtAmount",
          "type": "uint256"
        }
      ],
      "name": "swap",
      "outputs": [],
      "stateMutability": "payable",
      "type": "function",
      "payable": true
    },
    {
      "inputs": [
        {
          "internalType": "uint256",
          "name": "jmtAmount",
          "type": "uint256"
        },
        {
          "internalType": "address",
          "name": "account",
          "type": "address"
        }
      ],
      "name": "deposit",
      "outputs": [],
      "stateMutability": "payable",
      "type": "function",
      "payable": true
    },
    {
      "inputs": [
        {
          "internalType": "address",
          "name": "account",
          "type": "address"
        }
      ],
      "name": "withdraw",
      "outputs": [],
      "stateMutability": "nonpayable",
      "type": "function"
    }
  ],
  "bytecode": "0x608060405234801561001057600080fd5b5061002d61002261004260201b60201c565b61004a60201b60201c565b6000600381905550600060048190555061010e565b600033905090565b60008060009054906101000a900473ffffffffffffffffffffffffffffffffffffffff169050816000806101000a81548173ffffffffffffffffffffffffffffffffffffffff021916908373ffffffffffffffffffffffffffffffffffffffff1602179055508173ffffffffffffffffffffffffffffffffffffffff168173ffffffffffffffffffffffffffffffffffffffff167f8be0079c531659141344cd1fd0a4f28419497f9722a3daafe3b4186f6b6457e060405160405180910390a35050565b611ae68061011d6000396000f3fe60806040526004361061009c5760003560e01c8063715018a611610064578063715018a6146101665780637f41b8e21461017d5780638da5cb5b146101a6578063d004f0f7146101d1578063f2fde38b146101ed578063f63d19c5146102165761009c565b80630902f1ac146100a15780630c84d7d3146100cd5780632770d9011461010a57806351cff8d9146101215780636e553f651461014a575b600080fd5b3480156100ad57600080fd5b506100b661023f565b6040516100c49291906111ce565b60405180910390f35b3480156100d957600080fd5b506100f460048036038101906100ef9190611264565b610250565b60405161010191906112a4565b60405180910390f35b34801561011657600080fd5b5061011f61028c565b005b34801561012d57600080fd5b506101486004803603810190610143919061131d565b610389565b005b610164600480360381019061015f919061134a565b610777565b005b34801561017257600080fd5b5061017b610954565b005b34801561018957600080fd5b506101a4600480360381019061019f91906113c8565b610968565b005b3480156101b257600080fd5b506101bb610a45565b6040516101c89190611404565b60405180910390f35b6101eb60048036038101906101e6919061141f565b610a6e565b005b3480156101f957600080fd5b50610214600480360381019061020f919061131d565b610dcd565b005b34801561022257600080fd5b5061023d6004803603810190610238919061149d565b610e50565b005b600080600354600454915091509091565b600060018363ffffffff160361026a576006549050610286565b60028363ffffffff16036102815760009050610286565b600090505b92915050565b600260009054906101000a900473ffffffffffffffffffffffffffffffffffffffff1673ffffffffffffffffffffffffffffffffffffffff163373ffffffffffffffffffffffffffffffffffffffff161461031c576040517f08c379a000000000000000000000000000000000000000000000000000000000815260040161031390611527565b60405180910390fd5b6000600354141580156103325750600060045414155b610371576040517f08c379a000000000000000000000000000000000000000000000000000000000815260040161036890611593565b60405180910390fd5b60045460035461038191906115e2565b600681905550565b6000600160009054906101000a900473ffffffffffffffffffffffffffffffffffffffff1673ffffffffffffffffffffffffffffffffffffffff166370a08231836040518263ffffffff1660e01b81526004016103e69190611404565b602060405180830381865afa158015610403573d6000803e3d6000fd5b505050506040513d601f19601f820116820180604052508101906104279190611639565b90506000810361046c576040517f08c379a0000000000000000000000000000000000000000000000000000000008152600401610463906116b2565b60405180910390fd5b6000600160009054906101000a900473ffffffffffffffffffffffffffffffffffffffff1673ffffffffffffffffffffffffffffffffffffffff166318160ddd6040518163ffffffff1660e01b8152600401602060405180830381865afa1580156104db573d6000803e3d6000fd5b505050506040513d601f19601f820116820180604052508101906104ff9190611639565b90506000818360035461051291906115e2565b61051c9190611701565b90506000828460045461052f91906115e2565b6105399190611701565b9050600160009054906101000a900473ffffffffffffffffffffffffffffffffffffffff1673ffffffffffffffffffffffffffffffffffffffff16639dc29fac86866040518363ffffffff1660e01b8152600401610598929190611732565b600060405180830381600087803b1580156105b257600080fd5b505af11580156105c6573d6000803e3d6000fd5b5050505060008573ffffffffffffffffffffffffffffffffffffffff16836040516105f09061178c565b60006040518083038185875af1925050503d806000811461062d576040519150601f19603f3d011682016040523d82523d6000602084013e610632565b606091505b505090506000600260009054906101000a900473ffffffffffffffffffffffffffffffffffffffff1673ffffffffffffffffffffffffffffffffffffffff1663a9059cbb88856040518363ffffffff1660e01b8152600401610695929190611732565b6020604051808303816000875af11580156106b4573d6000803e3d6000fd5b505050506040513d601f19601f820116820180604052508101906106d891906117d9565b90508180156106e45750805b610723576040517f08c379a000000000000000000000000000000000000000000000000000000000815260040161071a90611852565b60405180910390fd5b8673ffffffffffffffffffffffffffffffffffffffff167f5dab48db0770e220c3226a459b19d38e7438c27b1b8dac1fab1434686d2319cd60405160405180910390a261076e610f2d565b50505050505050565b600080600160009054906101000a900473ffffffffffffffffffffffffffffffffffffffff1673ffffffffffffffffffffffffffffffffffffffff166318160ddd6040518163ffffffff1660e01b8152600401602060405180830381865afa1580156107e7573d6000803e3d6000fd5b505050506040513d601f19601f8201168201806040525081019061080b9190611639565b90506000349050600082111561085c57610855600354838361082d91906115e2565b6108379190611701565b600454848861084691906115e2565b6108509190611701565b610fd8565b9250610873565b610870858261086b91906115e2565b610ff1565b92505b600160009054906101000a900473ffffffffffffffffffffffffffffffffffffffff1673ffffffffffffffffffffffffffffffffffffffff166340c10f1985856040518363ffffffff1660e01b81526004016108d0929190611732565b600060405180830381600087803b1580156108ea57600080fd5b505af11580156108fe573d6000803e3d6000fd5b505050508373ffffffffffffffffffffffffffffffffffffffff167f88bbeecffcce070d5609ad08df49df93f0d53002ef3544dd5287e6b621eaff6f60405160405180910390a261094d610f2d565b5050505050565b61095c61106b565b61096660006110e9565b565b61097061106b565b600073ffffffffffffffffffffffffffffffffffffffff16600260009054906101000a900473ffffffffffffffffffffffffffffffffffffffff1673ffffffffffffffffffffffffffffffffffffffff1614610a01576040517f08c379a00000000000000000000000000000000000000000000000000000000081526004016109f8906118be565b60405180910390fd5b80600260006101000a81548173ffffffffffffffffffffffffffffffffffffffff021916908373ffffffffffffffffffffffffffffffffffffffff16021790555050565b60008060009054906101000a900473ffffffffffffffffffffffffffffffffffffffff16905090565b6000600454600354610a8091906115e2565b90506000806000803403610c74576000600260009054906101000a900473ffffffffffffffffffffffffffffffffffffffff1673ffffffffffffffffffffffffffffffffffffffff166370a08231306040518263ffffffff1660e01b8152600401610aeb9190611404565b602060405180830381865afa158015610b08573d6000803e3d6000fd5b505050506040513d601f19601f82011682018060405250810190610b2c9190611639565b905060006064876002610b3f91906115e2565b610b499190611701565b87610b5491906118de565b9050600081600454610b669190611912565b9050600082600454610b789190611912565b88610b839190611701565b905080600354610b9391906118de565b96506064876001610ba491906115e2565b610bae9190611701565b95508587610bbc91906118de565b945060008a73ffffffffffffffffffffffffffffffffffffffff1686604051610be49061178c565b60006040518083038185875af1925050503d8060008114610c21576040519150601f19603f3d011682016040523d82523d6000602084013e610c26565b606091505b5050905080610c6a576040517f08c379a0000000000000000000000000000000000000000000000000000000008152600401610c6190611992565b60405180910390fd5b5050505050610d6d565b600034600354610c849190611912565b85610c8f9190611701565b905080600454610c9f91906118de565b93506064846001610cb091906115e2565b610cba9190611701565b92508284610cc891906118de565b9150600260009054906101000a900473ffffffffffffffffffffffffffffffffffffffff1673ffffffffffffffffffffffffffffffffffffffff1663a9059cbb88846040518363ffffffff1660e01b8152600401610d27929190611732565b6020604051808303816000875af1158015610d46573d6000803e3d6000fd5b505050506040513d601f19601f82011682018060405250810190610d6a91906117d9565b50505b8573ffffffffffffffffffffffffffffffffffffffff167f967ed1bc358366a7e3e3031a0fbee32b45feb1c201d99d020380f99d03d932d13487604051610db59291906111ce565b60405180910390a2610dc5610f2d565b505050505050565b610dd561106b565b600073ffffffffffffffffffffffffffffffffffffffff168173ffffffffffffffffffffffffffffffffffffffff1603610e44576040517f08c379a0000000000000000000000000000000000000000000000000000000008152600401610e3b90611a24565b60405180910390fd5b610e4d816110e9565b50565b610e5861106b565b600073ffffffffffffffffffffffffffffffffffffffff16600160009054906101000a900473ffffffffffffffffffffffffffffffffffffffff1673ffffffffffffffffffffffffffffffffffffffff1614610ee9576040517f08c379a0000000000000000000000000000000000000000000000000000000008152600401610ee0906118be565b60405180910390fd5b80600160006101000a81548173ffffffffffffffffffffffffffffffffffffffff021916908373ffffffffffffffffffffffffffffffffffffffff16021790555050565b47600381905550600260009054906101000a900473ffffffffffffffffffffffffffffffffffffffff1673ffffffffffffffffffffffffffffffffffffffff166370a08231306040518263ffffffff1660e01b8152600401610f8f9190611404565b602060405180830381865afa158015610fac573d6000803e3d6000fd5b505050506040513d601f19601f82011682018060405250810190610fd09190611639565b600481905550565b6000818310610fe75781610fe9565b825b905092915050565b6000600382111561105857819050600060016002846110109190611701565b61101a9190611912565b90505b818110156110525780915060028182856110379190611701565b6110419190611912565b61104b9190611701565b905061101d565b50611066565b6000821461106557600190505b5b919050565b6110736111ad565b73ffffffffffffffffffffffffffffffffffffffff16611091610a45565b73ffffffffffffffffffffffffffffffffffffffff16146110e7576040517f08c379a00000000000000000000000000000000000000000000000000000000081526004016110de90611a90565b60405180910390fd5b565b60008060009054906101000a900473ffffffffffffffffffffffffffffffffffffffff169050816000806101000a81548173ffffffffffffffffffffffffffffffffffffffff021916908373ffffffffffffffffffffffffffffffffffffffff1602179055508173ffffffffffffffffffffffffffffffffffffffff168173ffffffffffffffffffffffffffffffffffffffff167f8be0079c531659141344cd1fd0a4f28419497f9722a3daafe3b4186f6b6457e060405160405180910390a35050565b600033905090565b6000819050919050565b6111c8816111b5565b82525050565b60006040820190506111e360008301856111bf565b6111f060208301846111bf565b9392505050565b600080fd5b600063ffffffff82169050919050565b611215816111fc565b811461122057600080fd5b50565b6000813590506112328161120c565b92915050565b611241816111b5565b811461124c57600080fd5b50565b60008135905061125e81611238565b92915050565b6000806040838503121561127b5761127a6111f7565b5b600061128985828601611223565b925050602061129a8582860161124f565b9150509250929050565b60006020820190506112b960008301846111bf565b92915050565b600073ffffffffffffffffffffffffffffffffffffffff82169050919050565b60006112ea826112bf565b9050919050565b6112fa816112df565b811461130557600080fd5b50565b600081359050611317816112f1565b92915050565b600060208284031215611333576113326111f7565b5b600061134184828501611308565b91505092915050565b60008060408385031215611361576113606111f7565b5b600061136f8582860161124f565b925050602061138085828601611308565b9150509250929050565b6000611395826112df565b9050919050565b6113a58161138a565b81146113b057600080fd5b50565b6000813590506113c28161139c565b92915050565b6000602082840312156113de576113dd6111f7565b5b60006113ec848285016113b3565b91505092915050565b6113fe816112df565b82525050565b600060208201905061141960008301846113f5565b92915050565b60008060408385031215611436576114356111f7565b5b600061144485828601611308565b92505060206114558582860161124f565b9150509250929050565b600061146a826112df565b9050919050565b61147a8161145f565b811461148557600080fd5b50565b60008135905061149781611471565b92915050565b6000602082840312156114b3576114b26111f7565b5b60006114c184828501611488565b91505092915050565b600082825260208201905092915050565b7f4a6f6e4d61746e675f4f4e4c5900000000000000000000000000000000000000600082015250565b6000611511600d836114ca565b915061151c826114db565b602082019050919050565b6000602082019050818103600083015261154081611504565b9050919050565b7f5245534552564520414d4f554e5420454d505459000000000000000000000000600082015250565b600061157d6014836114ca565b915061158882611547565b602082019050919050565b600060208201905081810360008301526115ac81611570565b9050919050565b7f4e487b7100000000000000000000000000000000000000000000000000000000600052601160045260246000fd5b60006115ed826111b5565b91506115f8836111b5565b9250828202611606816111b5565b9150828204841483151761161d5761161c6115b3565b5b5092915050565b60008151905061163381611238565b92915050565b60006020828403121561164f5761164e6111f7565b5b600061165d84828501611624565b91505092915050565b7f4e4f5f415641494c41424c455f544f4b454e5300000000000000000000000000600082015250565b600061169c6013836114ca565b91506116a782611666565b602082019050919050565b600060208201905081810360008301526116cb8161168f565b9050919050565b7f4e487b7100000000000000000000000000000000000000000000000000000000600052601260045260246000fd5b600061170c826111b5565b9150611717836111b5565b925082611727576117266116d2565b5b828204905092915050565b600060408201905061174760008301856113f5565b61175460208301846111bf565b9392505050565b600081905092915050565b50565b600061177660008361175b565b915061178182611766565b600082019050919050565b600061179782611769565b9150819050919050565b60008115159050919050565b6117b6816117a1565b81146117c157600080fd5b50565b6000815190506117d3816117ad565b92915050565b6000602082840312156117ef576117ee6111f7565b5b60006117fd848285016117c4565b91505092915050565b7f4641494c45445f5452414e534645520000000000000000000000000000000000600082015250565b600061183c600f836114ca565b915061184782611806565b602082019050919050565b6000602082019050818103600083015261186b8161182f565b9050919050565b7f57524954455f4f4e434500000000000000000000000000000000000000000000600082015250565b60006118a8600a836114ca565b91506118b382611872565b602082019050919050565b600060208201905081810360008301526118d78161189b565b9050919050565b60006118e9826111b5565b91506118f4836111b5565b925082820390508181111561190c5761190b6115b3565b5b92915050565b600061191d826111b5565b9150611928836111b5565b92508282019050808211156119405761193f6115b3565b5b92915050565b7f5452414e534645525f4641494c45440000000000000000000000000000000000600082015250565b600061197c600f836114ca565b915061198782611946565b602082019050919050565b600060208201905081810360008301526119ab8161196f565b9050919050565b7f4f776e61626c653a206e6577206f776e657220697320746865207a65726f206160008201527f6464726573730000000000000000000000000000000000000000000000000000602082015250565b6000611a0e6026836114ca565b9150611a19826119b2565b604082019050919050565b60006020820190508181036000830152611a3d81611a01565b9050919050565b7f4f776e61626c653a2063616c6c6572206973206e6f7420746865206f776e6572600082015250565b6000611a7a6020836114ca565b9150611a8582611a44565b602082019050919050565b60006020820190508181036000830152611aa981611a6d565b905091905056fea264697066735822122040a11859556a4180e1ec1c9c8214818459edcd49a3454caa7903f01b1941695d64736f6c63430008110033",
  "immutableReferences": {},
  "source": "//SPDX-License-Identifier: Unlicense\npragma solidity ^0.8.0;\n\nimport \"./LPT.sol\";\nimport \"./JMToken.sol\";\nimport \"@openzeppelin/contracts/utils/math/Math.sol\";\nimport \"@uniswap/lib/contracts/libraries/Babylonian.sol\";\nimport \"@openzeppelin/contracts/access/Ownable.sol\";\n\n// indexed ->        search ,    \n// unchecked ->      overflow   ->        \n//                \n//    unchecked     \n/*\n      (Swap)\n      \n    JMT token = 10000 \n    ETH token = 20\n     LiquidityPool Reserve   ,    \n    A 100 JMT  ETH   \n       10000*20 = 200000  \n     A JMT100   \n      10100  10100*20 = 202000  \n    \n        200000 \n    202000  JMT ETH   \n     \n      x * 10100 = 200000    ( x  eth  )\n     x   x = 200000/10100    \n    x = 19.8019082 eth        (eth)reserve - x = 0.921980918 \n       eth 0.921980918  (   ) \n*/\ncontract LiquidityPool is Ownable {\n    event LiquidityAdded(address indexed _account);\n    event LiquidityRemoved(address indexed _account);\n    event TradedTokens(address indexed _account,uint256 _ethTraded,uint256 _jmtTraded);\n\n    LPT lpToken; //  lp  \n    JMToken jmtToken;\n    uint256 ethReserve; //   \n    uint256 jmtReserve;  //  jmt \n    uint32 lastBlockTimestamp;\n    uint256 totalReserve; //   \n\n    constructor () {\n        ethReserve=0;\n        jmtReserve=0;\n    }\n\n    modifier JonMatngOnly() {\n        require(msg.sender == address(jmtToken), \"JonMatng_ONLY\");\n        _;\n    }\n    // set funded reserve \n    function setFundedReserve() JonMatngOnly public {\n        require(ethReserve != 0 && jmtReserve != 0,\"RESERVE AMOUNT EMPTY\");\n        totalReserve = ethReserve*jmtReserve;\n    }\n    //reserve ratio \n    function getReserveRatio(uint32 rType, uint256 value) public view returns (uint256){\n        if(rType == 1){ // jmt -> eth \n            return totalReserve;\n        }else if(rType == 2){ // eth -> jmt \n            return 0;\n        }  \n        return 0;\n    }\n    // lpt   \n    function setLPTAddress(LPT _lpToken) external onlyOwner {\n        require(address(lpToken) == address(0), \"WRITE_ONCE\");\n        lpToken = _lpToken;\n    }\n\n    //  jmt   \n    function setJmtCoinAddress(JMToken _jmtToken) external onlyOwner {\n        require(address(jmtToken) == address(0), \"WRITE_ONCE\");\n        jmtToken = _jmtToken;\n    }\n\n    //    \n    function getReserves() external view returns (uint256, uint256) {\n        return (ethReserve, jmtReserve);\n    }\n\n    //pool swap!\n    function swap(address account, uint256 _jmtAmount) external payable {\n        uint256 product = ethReserve * jmtReserve; //  \n        uint256 amountToTransfer;\n        uint256 amountToTake;\n        uint256 totalAmountToTransfer;\n\n        // jmt -> eth, jmttoken == 0\n        if (msg.value == 0) {\n            uint256 currentJMTBalance = jmtToken.balanceOf(address(this)); //      \n            uint256 _jmtAmountMinusTax = _jmtAmount - ((2 * _jmtAmount) / 100); // (  - ) \n            uint256 addedBalance = jmtReserve + _jmtAmountMinusTax; //  jmt + (  - ) =   \n            //require(addedBalance == currentJMTBalance, \"DID_NOT_TRANSFER\");\n\n            uint256 x = product / (jmtReserve + _jmtAmountMinusTax); //  product   \n            amountToTransfer = ethReserve - x; //   eth \n            amountToTake = (1 * amountToTransfer) / 100; //  \n            totalAmountToTransfer = amountToTransfer - amountToTake; //   -  =  get eth \n\n            //     //  \n            // https://kushgoyal.com/ethereum-solidity-how-use-call-delegatecall/ ->  \n            (bool success, ) = account.call{value: totalAmountToTransfer}(\"\");\n            require(success, \"TRANSFER_FAILED\");\n        } else { // eth -> jmt, jmttoken > 0 msg.value > 0  \n\n            uint256 y = product / (ethReserve + msg.value);\n            amountToTransfer = jmtReserve - y;\n            amountToTake = (1 * amountToTransfer) / 100;\n            totalAmountToTransfer = amountToTransfer - amountToTake;\n\n            jmtToken.transfer(account, totalAmountToTransfer);\n        }\n        emit TradedTokens(account, msg.value, _jmtAmount);\n        _update();\n    }\n\n    // pool  \n    function deposit(uint256 jmtAmount, address account) external payable \n    {\n        uint256 liquidity; //  \n        uint256 totalSupply = lpToken.totalSupply(); // lp erc\n        uint256 ethAmount = msg.value; //\n\n        if (totalSupply > 0) {\n            liquidity = Math.min(\n                (ethAmount * totalSupply) / ethReserve,\n                (jmtAmount * totalSupply) / jmtReserve\n            );\n        } else { // x\n            liquidity = Babylonian.sqrt(ethAmount * jmtAmount);\n        }\n\n        lpToken.mint(account, liquidity); // transfer user => \n        emit LiquidityAdded(account);\n        _update();\n    }\n\n    //lp \n    function withdraw(address account) external {\n        uint256 liquidity = lpToken.balanceOf(account); //  lp   \n        require(liquidity != 0, \"NO_AVAILABLE_TOKENS\");\n\n        uint256 totalSupply = lpToken.totalSupply();\n        //  \n        uint256 ethAmount = (ethReserve * liquidity) / totalSupply;\n        uint256 jmtAmount = (jmtReserve * liquidity) / totalSupply;\n\n        // \n        lpToken.burn(account, liquidity); //  withdraw   \n\n        //    \n        (bool ethTransferSuccess, ) = account.call{value: ethAmount}(\"\");\n        bool jmtTransferSuccess = jmtToken.transfer(account, jmtAmount);\n\n        require(ethTransferSuccess && jmtTransferSuccess, \"FAILED_TRANSFER\");\n        emit LiquidityRemoved(account);\n        _update();\n    }\n    // ,     \n    function _update() private \n    {\n        // uint32 blockTimestamp = uint32(block.timestamp % 2**32);\n        // uint32 timeElapsed;\n        // unchecked { //     \n        //     timeElapsed = blockTimestamp - lastBlockTimestamp; \n        // }\n        // if (timeElapsed > 0) {\n            ethReserve = address(this).balance; //    eth \n            jmtReserve = jmtToken.balanceOf(address(this)); // jmt    \n        //     lastBlockTimestamp = blockTimestamp; \n        // }\n    }\n}",
  "sourcePath": "/Users/hyenne/workspace/BEB-05-JMT/contract/contracts/LiquidityPool.sol",
  "compiler": {
    "name": "solc",
    "version": "0.8.17+commit.8df45f5f.Emscripten.clang"
  },
  "schemaVersion": "3.4.9",
  "updatedAt": "2022-09-18T04:14:45.106Z",
  "networkType": "ethereum",
  "devdoc": {
    "kind": "dev",
    "methods": {
      "owner()": {
        "details": "Returns the address of the current owner."
      },
      "renounceOwnership()": {
        "details": "Leaves the contract without owner. It will not be possible to call `onlyOwner` functions anymore. Can only be called by the current owner. NOTE: Renouncing ownership will leave the contract without an owner, thereby removing any functionality that is only available to the owner."
      },
      "transferOwnership(address)": {
        "details": "Transfers ownership of the contract to a new account (`newOwner`). Can only be called by the current owner."
      }
    },
    "version": 1
  },
  "userdoc": {
    "kind": "user",
    "methods": {},
    "version": 1
  }
}