{
  "contractName": "LiquidityPool",
  "abi": [
    {
      "inputs": [],
      "stateMutability": "nonpayable",
      "type": "constructor"
    },
    {
      "anonymous": false,
      "inputs": [
        {
          "indexed": true,
          "internalType": "address",
          "name": "_account",
          "type": "address"
        }
      ],
      "name": "LiquidityAdded",
      "type": "event"
    },
    {
      "anonymous": false,
      "inputs": [
        {
          "indexed": true,
          "internalType": "address",
          "name": "_account",
          "type": "address"
        }
      ],
      "name": "LiquidityRemoved",
      "type": "event"
    },
    {
      "anonymous": false,
      "inputs": [
        {
          "indexed": true,
          "internalType": "address",
          "name": "previousOwner",
          "type": "address"
        },
        {
          "indexed": true,
          "internalType": "address",
          "name": "newOwner",
          "type": "address"
        }
      ],
      "name": "OwnershipTransferred",
      "type": "event"
    },
    {
      "anonymous": false,
      "inputs": [
        {
          "indexed": true,
          "internalType": "address",
          "name": "_account",
          "type": "address"
        },
        {
          "indexed": false,
          "internalType": "uint256",
          "name": "_ethTraded",
          "type": "uint256"
        },
        {
          "indexed": false,
          "internalType": "uint256",
          "name": "_jmtTraded",
          "type": "uint256"
        }
      ],
      "name": "TradedTokens",
      "type": "event"
    },
    {
      "inputs": [],
      "name": "owner",
      "outputs": [
        {
          "internalType": "address",
          "name": "",
          "type": "address"
        }
      ],
      "stateMutability": "view",
      "type": "function",
      "constant": true
    },
    {
      "inputs": [],
      "name": "renounceOwnership",
      "outputs": [],
      "stateMutability": "nonpayable",
      "type": "function"
    },
    {
      "inputs": [
        {
          "internalType": "address",
          "name": "newOwner",
          "type": "address"
        }
      ],
      "name": "transferOwnership",
      "outputs": [],
      "stateMutability": "nonpayable",
      "type": "function"
    },
    {
      "inputs": [],
      "name": "setFundedReserve",
      "outputs": [],
      "stateMutability": "nonpayable",
      "type": "function"
    },
    {
      "inputs": [
        {
          "internalType": "contract LPT",
          "name": "_lpToken",
          "type": "address"
        }
      ],
      "name": "setLPTAddress",
      "outputs": [],
      "stateMutability": "nonpayable",
      "type": "function"
    },
    {
      "inputs": [
        {
          "internalType": "contract JMToken",
          "name": "_jmtToken",
          "type": "address"
        }
      ],
      "name": "setJmtCoinAddress",
      "outputs": [],
      "stateMutability": "nonpayable",
      "type": "function"
    },
    {
      "inputs": [],
      "name": "getReserves",
      "outputs": [
        {
          "internalType": "uint256",
          "name": "",
          "type": "uint256"
        },
        {
          "internalType": "uint256",
          "name": "",
          "type": "uint256"
        }
      ],
      "stateMutability": "view",
      "type": "function",
      "constant": true
    },
    {
      "inputs": [
        {
          "internalType": "address",
          "name": "account",
          "type": "address"
        },
        {
          "internalType": "uint256",
          "name": "_jmtAmount",
          "type": "uint256"
        }
      ],
      "name": "swap",
      "outputs": [],
      "stateMutability": "payable",
      "type": "function",
      "payable": true
    },
    {
      "inputs": [
        {
          "internalType": "uint256",
          "name": "jmtAmount",
          "type": "uint256"
        },
        {
          "internalType": "address",
          "name": "account",
          "type": "address"
        }
      ],
      "name": "deposit",
      "outputs": [],
      "stateMutability": "payable",
      "type": "function",
      "payable": true
    },
    {
      "inputs": [
        {
          "internalType": "address",
          "name": "account",
          "type": "address"
        }
      ],
      "name": "withdraw",
      "outputs": [],
      "stateMutability": "nonpayable",
      "type": "function"
    }
  ],
  "bytecode": "0x608060405234801561001057600080fd5b5061002d61002261004260201b60201c565b61004a60201b60201c565b6000600381905550600060048190555061010e565b600033905090565b60008060009054906101000a900473ffffffffffffffffffffffffffffffffffffffff169050816000806101000a81548173ffffffffffffffffffffffffffffffffffffffff021916908373ffffffffffffffffffffffffffffffffffffffff1602179055508173ffffffffffffffffffffffffffffffffffffffff168173ffffffffffffffffffffffffffffffffffffffff167f8be0079c531659141344cd1fd0a4f28419497f9722a3daafe3b4186f6b6457e060405160405180910390a35050565b6119cb8061011d6000396000f3fe6080604052600436106100915760003560e01c80637f41b8e2116100595780637f41b8e2146101355780638da5cb5b1461015e578063d004f0f714610189578063f2fde38b146101a5578063f63d19c5146101ce57610091565b80630902f1ac146100965780632770d901146100c257806351cff8d9146100d95780636e553f6514610102578063715018a61461011e575b600080fd5b3480156100a257600080fd5b506100ab6101f7565b6040516100b992919061114a565b60405180910390f35b3480156100ce57600080fd5b506100d7610208565b005b3480156100e557600080fd5b5061010060048036038101906100fb91906111d6565b610305565b005b61011c6004803603810190610117919061122f565b6106f3565b005b34801561012a57600080fd5b506101336108d0565b005b34801561014157600080fd5b5061015c600480360381019061015791906112ad565b6108e4565b005b34801561016a57600080fd5b506101736109c1565b60405161018091906112e9565b60405180910390f35b6101a3600480360381019061019e9190611304565b6109ea565b005b3480156101b157600080fd5b506101cc60048036038101906101c791906111d6565b610d49565b005b3480156101da57600080fd5b506101f560048036038101906101f09190611382565b610dcc565b005b600080600354600454915091509091565b600260009054906101000a900473ffffffffffffffffffffffffffffffffffffffff1673ffffffffffffffffffffffffffffffffffffffff163373ffffffffffffffffffffffffffffffffffffffff1614610298576040517f08c379a000000000000000000000000000000000000000000000000000000000815260040161028f9061140c565b60405180910390fd5b6000600354141580156102ae5750600060045414155b6102ed576040517f08c379a00000000000000000000000000000000000000000000000000000000081526004016102e490611478565b60405180910390fd5b6004546003546102fd91906114c7565b600681905550565b6000600160009054906101000a900473ffffffffffffffffffffffffffffffffffffffff1673ffffffffffffffffffffffffffffffffffffffff166370a08231836040518263ffffffff1660e01b815260040161036291906112e9565b602060405180830381865afa15801561037f573d6000803e3d6000fd5b505050506040513d601f19601f820116820180604052508101906103a3919061151e565b9050600081036103e8576040517f08c379a00000000000000000000000000000000000000000000000000000000081526004016103df90611597565b60405180910390fd5b6000600160009054906101000a900473ffffffffffffffffffffffffffffffffffffffff1673ffffffffffffffffffffffffffffffffffffffff166318160ddd6040518163ffffffff1660e01b8152600401602060405180830381865afa158015610457573d6000803e3d6000fd5b505050506040513d601f19601f8201168201806040525081019061047b919061151e565b90506000818360035461048e91906114c7565b61049891906115e6565b9050600082846004546104ab91906114c7565b6104b591906115e6565b9050600160009054906101000a900473ffffffffffffffffffffffffffffffffffffffff1673ffffffffffffffffffffffffffffffffffffffff16639dc29fac86866040518363ffffffff1660e01b8152600401610514929190611617565b600060405180830381600087803b15801561052e57600080fd5b505af1158015610542573d6000803e3d6000fd5b5050505060008573ffffffffffffffffffffffffffffffffffffffff168360405161056c90611671565b60006040518083038185875af1925050503d80600081146105a9576040519150601f19603f3d011682016040523d82523d6000602084013e6105ae565b606091505b505090506000600260009054906101000a900473ffffffffffffffffffffffffffffffffffffffff1673ffffffffffffffffffffffffffffffffffffffff1663a9059cbb88856040518363ffffffff1660e01b8152600401610611929190611617565b6020604051808303816000875af1158015610630573d6000803e3d6000fd5b505050506040513d601f19601f8201168201806040525081019061065491906116be565b90508180156106605750805b61069f576040517f08c379a000000000000000000000000000000000000000000000000000000000815260040161069690611737565b60405180910390fd5b8673ffffffffffffffffffffffffffffffffffffffff167f5dab48db0770e220c3226a459b19d38e7438c27b1b8dac1fab1434686d2319cd60405160405180910390a26106ea610ea9565b50505050505050565b600080600160009054906101000a900473ffffffffffffffffffffffffffffffffffffffff1673ffffffffffffffffffffffffffffffffffffffff166318160ddd6040518163ffffffff1660e01b8152600401602060405180830381865afa158015610763573d6000803e3d6000fd5b505050506040513d601f19601f82011682018060405250810190610787919061151e565b9050600034905060008211156107d8576107d160035483836107a991906114c7565b6107b391906115e6565b60045484886107c291906114c7565b6107cc91906115e6565b610f54565b92506107ef565b6107ec85826107e791906114c7565b610f6d565b92505b600160009054906101000a900473ffffffffffffffffffffffffffffffffffffffff1673ffffffffffffffffffffffffffffffffffffffff166340c10f1985856040518363ffffffff1660e01b815260040161084c929190611617565b600060405180830381600087803b15801561086657600080fd5b505af115801561087a573d6000803e3d6000fd5b505050508373ffffffffffffffffffffffffffffffffffffffff167f88bbeecffcce070d5609ad08df49df93f0d53002ef3544dd5287e6b621eaff6f60405160405180910390a26108c9610ea9565b5050505050565b6108d8610fe7565b6108e26000611065565b565b6108ec610fe7565b600073ffffffffffffffffffffffffffffffffffffffff16600260009054906101000a900473ffffffffffffffffffffffffffffffffffffffff1673ffffffffffffffffffffffffffffffffffffffff161461097d576040517f08c379a0000000000000000000000000000000000000000000000000000000008152600401610974906117a3565b60405180910390fd5b80600260006101000a81548173ffffffffffffffffffffffffffffffffffffffff021916908373ffffffffffffffffffffffffffffffffffffffff16021790555050565b60008060009054906101000a900473ffffffffffffffffffffffffffffffffffffffff16905090565b60006004546003546109fc91906114c7565b90506000806000803403610bf0576000600260009054906101000a900473ffffffffffffffffffffffffffffffffffffffff1673ffffffffffffffffffffffffffffffffffffffff166370a08231306040518263ffffffff1660e01b8152600401610a6791906112e9565b602060405180830381865afa158015610a84573d6000803e3d6000fd5b505050506040513d601f19601f82011682018060405250810190610aa8919061151e565b905060006064876002610abb91906114c7565b610ac591906115e6565b87610ad091906117c3565b9050600081600454610ae291906117f7565b9050600082600454610af491906117f7565b88610aff91906115e6565b905080600354610b0f91906117c3565b96506064876001610b2091906114c7565b610b2a91906115e6565b95508587610b3891906117c3565b945060008a73ffffffffffffffffffffffffffffffffffffffff1686604051610b6090611671565b60006040518083038185875af1925050503d8060008114610b9d576040519150601f19603f3d011682016040523d82523d6000602084013e610ba2565b606091505b5050905080610be6576040517f08c379a0000000000000000000000000000000000000000000000000000000008152600401610bdd90611877565b60405180910390fd5b5050505050610ce9565b600034600354610c0091906117f7565b85610c0b91906115e6565b905080600454610c1b91906117c3565b93506064846001610c2c91906114c7565b610c3691906115e6565b92508284610c4491906117c3565b9150600260009054906101000a900473ffffffffffffffffffffffffffffffffffffffff1673ffffffffffffffffffffffffffffffffffffffff1663a9059cbb88846040518363ffffffff1660e01b8152600401610ca3929190611617565b6020604051808303816000875af1158015610cc2573d6000803e3d6000fd5b505050506040513d601f19601f82011682018060405250810190610ce691906116be565b50505b8573ffffffffffffffffffffffffffffffffffffffff167f967ed1bc358366a7e3e3031a0fbee32b45feb1c201d99d020380f99d03d932d13487604051610d3192919061114a565b60405180910390a2610d41610ea9565b505050505050565b610d51610fe7565b600073ffffffffffffffffffffffffffffffffffffffff168173ffffffffffffffffffffffffffffffffffffffff1603610dc0576040517f08c379a0000000000000000000000000000000000000000000000000000000008152600401610db790611909565b60405180910390fd5b610dc981611065565b50565b610dd4610fe7565b600073ffffffffffffffffffffffffffffffffffffffff16600160009054906101000a900473ffffffffffffffffffffffffffffffffffffffff1673ffffffffffffffffffffffffffffffffffffffff1614610e65576040517f08c379a0000000000000000000000000000000000000000000000000000000008152600401610e5c906117a3565b60405180910390fd5b80600160006101000a81548173ffffffffffffffffffffffffffffffffffffffff021916908373ffffffffffffffffffffffffffffffffffffffff16021790555050565b47600381905550600260009054906101000a900473ffffffffffffffffffffffffffffffffffffffff1673ffffffffffffffffffffffffffffffffffffffff166370a08231306040518263ffffffff1660e01b8152600401610f0b91906112e9565b602060405180830381865afa158015610f28573d6000803e3d6000fd5b505050506040513d601f19601f82011682018060405250810190610f4c919061151e565b600481905550565b6000818310610f635781610f65565b825b905092915050565b60006003821115610fd45781905060006001600284610f8c91906115e6565b610f9691906117f7565b90505b81811015610fce578091506002818285610fb391906115e6565b610fbd91906117f7565b610fc791906115e6565b9050610f99565b50610fe2565b60008214610fe157600190505b5b919050565b610fef611129565b73ffffffffffffffffffffffffffffffffffffffff1661100d6109c1565b73ffffffffffffffffffffffffffffffffffffffff1614611063576040517f08c379a000000000000000000000000000000000000000000000000000000000815260040161105a90611975565b60405180910390fd5b565b60008060009054906101000a900473ffffffffffffffffffffffffffffffffffffffff169050816000806101000a81548173ffffffffffffffffffffffffffffffffffffffff021916908373ffffffffffffffffffffffffffffffffffffffff1602179055508173ffffffffffffffffffffffffffffffffffffffff168173ffffffffffffffffffffffffffffffffffffffff167f8be0079c531659141344cd1fd0a4f28419497f9722a3daafe3b4186f6b6457e060405160405180910390a35050565b600033905090565b6000819050919050565b61114481611131565b82525050565b600060408201905061115f600083018561113b565b61116c602083018461113b565b9392505050565b600080fd5b600073ffffffffffffffffffffffffffffffffffffffff82169050919050565b60006111a382611178565b9050919050565b6111b381611198565b81146111be57600080fd5b50565b6000813590506111d0816111aa565b92915050565b6000602082840312156111ec576111eb611173565b5b60006111fa848285016111c1565b91505092915050565b61120c81611131565b811461121757600080fd5b50565b60008135905061122981611203565b92915050565b6000806040838503121561124657611245611173565b5b60006112548582860161121a565b9250506020611265858286016111c1565b9150509250929050565b600061127a82611198565b9050919050565b61128a8161126f565b811461129557600080fd5b50565b6000813590506112a781611281565b92915050565b6000602082840312156112c3576112c2611173565b5b60006112d184828501611298565b91505092915050565b6112e381611198565b82525050565b60006020820190506112fe60008301846112da565b92915050565b6000806040838503121561131b5761131a611173565b5b6000611329858286016111c1565b925050602061133a8582860161121a565b9150509250929050565b600061134f82611198565b9050919050565b61135f81611344565b811461136a57600080fd5b50565b60008135905061137c81611356565b92915050565b60006020828403121561139857611397611173565b5b60006113a68482850161136d565b91505092915050565b600082825260208201905092915050565b7f4a6f6e4d61746e675f4f4e4c5900000000000000000000000000000000000000600082015250565b60006113f6600d836113af565b9150611401826113c0565b602082019050919050565b60006020820190508181036000830152611425816113e9565b9050919050565b7f5245534552564520414d4f554e5420454d505459000000000000000000000000600082015250565b60006114626014836113af565b915061146d8261142c565b602082019050919050565b6000602082019050818103600083015261149181611455565b9050919050565b7f4e487b7100000000000000000000000000000000000000000000000000000000600052601160045260246000fd5b60006114d282611131565b91506114dd83611131565b92508282026114eb81611131565b9150828204841483151761150257611501611498565b5b5092915050565b60008151905061151881611203565b92915050565b60006020828403121561153457611533611173565b5b600061154284828501611509565b91505092915050565b7f4e4f5f415641494c41424c455f544f4b454e5300000000000000000000000000600082015250565b60006115816013836113af565b915061158c8261154b565b602082019050919050565b600060208201905081810360008301526115b081611574565b9050919050565b7f4e487b7100000000000000000000000000000000000000000000000000000000600052601260045260246000fd5b60006115f182611131565b91506115fc83611131565b92508261160c5761160b6115b7565b5b828204905092915050565b600060408201905061162c60008301856112da565b611639602083018461113b565b9392505050565b600081905092915050565b50565b600061165b600083611640565b91506116668261164b565b600082019050919050565b600061167c8261164e565b9150819050919050565b60008115159050919050565b61169b81611686565b81146116a657600080fd5b50565b6000815190506116b881611692565b92915050565b6000602082840312156116d4576116d3611173565b5b60006116e2848285016116a9565b91505092915050565b7f4641494c45445f5452414e534645520000000000000000000000000000000000600082015250565b6000611721600f836113af565b915061172c826116eb565b602082019050919050565b6000602082019050818103600083015261175081611714565b9050919050565b7f57524954455f4f4e434500000000000000000000000000000000000000000000600082015250565b600061178d600a836113af565b915061179882611757565b602082019050919050565b600060208201905081810360008301526117bc81611780565b9050919050565b60006117ce82611131565b91506117d983611131565b92508282039050818111156117f1576117f0611498565b5b92915050565b600061180282611131565b915061180d83611131565b925082820190508082111561182557611824611498565b5b92915050565b7f5452414e534645525f4641494c45440000000000000000000000000000000000600082015250565b6000611861600f836113af565b915061186c8261182b565b602082019050919050565b6000602082019050818103600083015261189081611854565b9050919050565b7f4f776e61626c653a206e6577206f776e657220697320746865207a65726f206160008201527f6464726573730000000000000000000000000000000000000000000000000000602082015250565b60006118f36026836113af565b91506118fe82611897565b604082019050919050565b60006020820190508181036000830152611922816118e6565b9050919050565b7f4f776e61626c653a2063616c6c6572206973206e6f7420746865206f776e6572600082015250565b600061195f6020836113af565b915061196a82611929565b602082019050919050565b6000602082019050818103600083015261198e81611952565b905091905056fea26469706673582212204f95aedd58d3c72499f01262163f6e7a708265dc27358dc5848bc11e27ba425464736f6c63430008110033",
  "immutableReferences": {},
  "source": "//SPDX-License-Identifier: Unlicense\npragma solidity ^0.8.0;\n\nimport \"./LPT.sol\";\nimport \"./JMToken.sol\";\nimport \"@openzeppelin/contracts/utils/math/Math.sol\";\nimport \"@uniswap/lib/contracts/libraries/Babylonian.sol\";\nimport \"@openzeppelin/contracts/access/Ownable.sol\";\n\n// indexed ->        search ,    \n// unchecked ->      overflow   ->        \n//                \n//    unchecked     \n/*\n      (Swap)\n      \n    JMT token = 10000 \n    ETH token = 20\n     LiquidityPool Reserve   ,    \n    A 100 JMT  ETH   \n       10000*20 = 200000  \n     A JMT100   \n      10100  10100*20 = 202000  \n    \n        200000 \n    202000  JMT ETH   \n     \n      x * 10100 = 200000    ( x  eth  )\n     x   x = 200000/10100    \n    x = 19.8019082 eth        (eth)reserve - x = 0.921980918 \n       eth 0.921980918  (   ) \n*/\ncontract LiquidityPool is Ownable {\n    event LiquidityAdded(address indexed _account);\n    event LiquidityRemoved(address indexed _account);\n    event TradedTokens(address indexed _account,uint256 _ethTraded,uint256 _jmtTraded);\n\n    LPT lpToken; //  lp  \n    JMToken jmtToken;\n    uint256 ethReserve; //   \n    uint256 jmtReserve;  //  jmt \n    uint32 lastBlockTimestamp;\n    uint256 totalReserve; //   \n\n    constructor () {\n        ethReserve=0;\n        jmtReserve=0;\n    }\n\n    modifier JonMatngOnly() {\n        require(msg.sender == address(jmtToken), \"JonMatng_ONLY\");\n        _;\n    }\n    // set funded reserve \n    function setFundedReserve() JonMatngOnly public {\n        require(ethReserve != 0 && jmtReserve != 0,\"RESERVE AMOUNT EMPTY\");\n        totalReserve = ethReserve*jmtReserve;\n    }\n\n    // lpt   \n    function setLPTAddress(LPT _lpToken) external onlyOwner {\n        require(address(lpToken) == address(0), \"WRITE_ONCE\");\n        lpToken = _lpToken;\n    }\n\n    //  jmt   \n    function setJmtCoinAddress(JMToken _jmtToken) external onlyOwner {\n        require(address(jmtToken) == address(0), \"WRITE_ONCE\");\n        jmtToken = _jmtToken;\n    }\n\n    //    \n    function getReserves() external view returns (uint256, uint256) {\n        return (ethReserve, jmtReserve);\n    }\n\n    //pool swap!\n    function swap(address account, uint256 _jmtAmount) external payable {\n        uint256 product = ethReserve * jmtReserve; //  \n        uint256 amountToTransfer;\n        uint256 amountToTake;\n        uint256 totalAmountToTransfer;\n\n        // jmt -> eth, jmttoken == 0\n        if (msg.value == 0) {\n            uint256 currentJMTBalance = jmtToken.balanceOf(address(this)); //      \n            uint256 _jmtAmountMinusTax = _jmtAmount - ((2 * _jmtAmount) / 100); // (  - ) \n            uint256 addedBalance = jmtReserve + _jmtAmountMinusTax; //  jmt + (  - ) =   \n            //require(addedBalance == currentJMTBalance, \"DID_NOT_TRANSFER\");\n\n            uint256 x = product / (jmtReserve + _jmtAmountMinusTax); //  product   \n            amountToTransfer = ethReserve - x; //   eth \n            amountToTake = (1 * amountToTransfer) / 100; //  \n            totalAmountToTransfer = amountToTransfer - amountToTake; //   -  =  get eth \n\n            //     //  \n            // https://kushgoyal.com/ethereum-solidity-how-use-call-delegatecall/ ->  \n            (bool success, ) = account.call{value: totalAmountToTransfer}(\"\");\n            require(success, \"TRANSFER_FAILED\");\n        } else { // eth -> jmt, jmttoken > 0 msg.value > 0  \n\n            uint256 y = product / (ethReserve + msg.value);\n            amountToTransfer = jmtReserve - y;\n            amountToTake = (1 * amountToTransfer) / 100;\n            totalAmountToTransfer = amountToTransfer - amountToTake;\n\n            jmtToken.transfer(account, totalAmountToTransfer);\n        }\n        emit TradedTokens(account, msg.value, _jmtAmount);\n        _update();\n    }\n\n    // pool  \n    function deposit(uint256 jmtAmount, address account) external payable \n    {\n        uint256 liquidity; //  \n        uint256 totalSupply = lpToken.totalSupply(); // lp erc\n        uint256 ethAmount = msg.value; //\n\n        if (totalSupply > 0) {\n            liquidity = Math.min(\n                (ethAmount * totalSupply) / ethReserve,\n                (jmtAmount * totalSupply) / jmtReserve\n            );\n        } else { // x\n            liquidity = Babylonian.sqrt(ethAmount * jmtAmount);\n        }\n\n        lpToken.mint(account, liquidity); // transfer user => \n        emit LiquidityAdded(account);\n        _update();\n    }\n\n    //lp \n    function withdraw(address account) external {\n        uint256 liquidity = lpToken.balanceOf(account); //  lp   \n        require(liquidity != 0, \"NO_AVAILABLE_TOKENS\");\n\n        uint256 totalSupply = lpToken.totalSupply();\n        //  \n        uint256 ethAmount = (ethReserve * liquidity) / totalSupply;\n        uint256 jmtAmount = (jmtReserve * liquidity) / totalSupply;\n\n        // \n        lpToken.burn(account, liquidity); // account  , lpt   \n\n        //    \n        (bool ethTransferSuccess, ) = account.call{value: ethAmount}(\"\");\n        bool jmtTransferSuccess = jmtToken.transfer(account, jmtAmount);\n\n        require(ethTransferSuccess && jmtTransferSuccess, \"FAILED_TRANSFER\");\n        emit LiquidityRemoved(account);\n        _update();\n    }\n    // ,     \n    function _update() private \n    {\n        // uint32 blockTimestamp = uint32(block.timestamp % 2**32);\n        // uint32 timeElapsed;\n        // unchecked { //     \n        //     timeElapsed = blockTimestamp - lastBlockTimestamp; \n        // }\n        // if (timeElapsed > 0) {\n            ethReserve = address(this).balance; //    eth \n            jmtReserve = jmtToken.balanceOf(address(this)); // jmt    \n        //     lastBlockTimestamp = blockTimestamp; \n        // }\n    }\n}",
  "sourcePath": "/Users/hyenne/workspace/BEB-05-JMT/contract/contracts/LiquidityPool.sol",
  "compiler": {
    "name": "solc",
    "version": "0.8.17+commit.8df45f5f.Emscripten.clang"
  },
  "schemaVersion": "3.4.9",
  "updatedAt": "2022-09-18T15:10:18.444Z",
  "networkType": "ethereum",
  "devdoc": {
    "kind": "dev",
    "methods": {
      "owner()": {
        "details": "Returns the address of the current owner."
      },
      "renounceOwnership()": {
        "details": "Leaves the contract without owner. It will not be possible to call `onlyOwner` functions anymore. Can only be called by the current owner. NOTE: Renouncing ownership will leave the contract without an owner, thereby removing any functionality that is only available to the owner."
      },
      "transferOwnership(address)": {
        "details": "Transfers ownership of the contract to a new account (`newOwner`). Can only be called by the current owner."
      }
    },
    "version": 1
  },
  "userdoc": {
    "kind": "user",
    "methods": {},
    "version": 1
  }
}