{
  "contractName": "LiquidityPool",
  "abi": [
    {
      "inputs": [],
      "stateMutability": "nonpayable",
      "type": "constructor"
    },
    {
      "anonymous": false,
      "inputs": [
        {
          "indexed": true,
          "internalType": "address",
          "name": "_account",
          "type": "address"
        },
        {
          "indexed": false,
          "internalType": "uint256",
          "name": "_amount",
          "type": "uint256"
        }
      ],
      "name": "Claimed",
      "type": "event"
    },
    {
      "anonymous": false,
      "inputs": [
        {
          "indexed": true,
          "internalType": "address",
          "name": "_account",
          "type": "address"
        }
      ],
      "name": "LiquidityAdded",
      "type": "event"
    },
    {
      "anonymous": false,
      "inputs": [
        {
          "indexed": true,
          "internalType": "address",
          "name": "_account",
          "type": "address"
        }
      ],
      "name": "LiquidityRemoved",
      "type": "event"
    },
    {
      "anonymous": false,
      "inputs": [
        {
          "indexed": true,
          "internalType": "address",
          "name": "previousOwner",
          "type": "address"
        },
        {
          "indexed": true,
          "internalType": "address",
          "name": "newOwner",
          "type": "address"
        }
      ],
      "name": "OwnershipTransferred",
      "type": "event"
    },
    {
      "anonymous": false,
      "inputs": [
        {
          "indexed": true,
          "internalType": "address",
          "name": "_account",
          "type": "address"
        },
        {
          "indexed": false,
          "internalType": "uint256",
          "name": "_ethTraded",
          "type": "uint256"
        },
        {
          "indexed": false,
          "internalType": "uint256",
          "name": "_jmtTraded",
          "type": "uint256"
        }
      ],
      "name": "TradedTokens",
      "type": "event"
    },
    {
      "inputs": [],
      "name": "APR",
      "outputs": [
        {
          "internalType": "uint32",
          "name": "",
          "type": "uint32"
        }
      ],
      "stateMutability": "view",
      "type": "function",
      "constant": true
    },
    {
      "inputs": [],
      "name": "decimals",
      "outputs": [
        {
          "internalType": "uint256",
          "name": "",
          "type": "uint256"
        }
      ],
      "stateMutability": "view",
      "type": "function",
      "constant": true
    },
    {
      "inputs": [
        {
          "internalType": "address",
          "name": "",
          "type": "address"
        }
      ],
      "name": "depositeInfos",
      "outputs": [
        {
          "internalType": "uint256",
          "name": "claimedTime",
          "type": "uint256"
        },
        {
          "internalType": "uint256",
          "name": "amount",
          "type": "uint256"
        },
        {
          "internalType": "uint32",
          "name": "state",
          "type": "uint32"
        }
      ],
      "stateMutability": "view",
      "type": "function",
      "constant": true
    },
    {
      "inputs": [],
      "name": "owner",
      "outputs": [
        {
          "internalType": "address",
          "name": "",
          "type": "address"
        }
      ],
      "stateMutability": "view",
      "type": "function",
      "constant": true
    },
    {
      "inputs": [],
      "name": "renounceOwnership",
      "outputs": [],
      "stateMutability": "nonpayable",
      "type": "function"
    },
    {
      "inputs": [
        {
          "internalType": "address",
          "name": "newOwner",
          "type": "address"
        }
      ],
      "name": "transferOwnership",
      "outputs": [],
      "stateMutability": "nonpayable",
      "type": "function"
    },
    {
      "inputs": [],
      "name": "setFundedReserve",
      "outputs": [],
      "stateMutability": "nonpayable",
      "type": "function"
    },
    {
      "inputs": [
        {
          "internalType": "contract LPT",
          "name": "_lpToken",
          "type": "address"
        }
      ],
      "name": "setLPTAddress",
      "outputs": [],
      "stateMutability": "nonpayable",
      "type": "function"
    },
    {
      "inputs": [
        {
          "internalType": "contract JMToken",
          "name": "_jmtToken",
          "type": "address"
        }
      ],
      "name": "setJmtCoinAddress",
      "outputs": [],
      "stateMutability": "nonpayable",
      "type": "function"
    },
    {
      "inputs": [
        {
          "internalType": "contract VJMToken",
          "name": "_vJmt",
          "type": "address"
        }
      ],
      "name": "setVJMTCoinAddress",
      "outputs": [],
      "stateMutability": "nonpayable",
      "type": "function"
    },
    {
      "inputs": [],
      "name": "getReserves",
      "outputs": [
        {
          "internalType": "uint256",
          "name": "",
          "type": "uint256"
        },
        {
          "internalType": "uint256",
          "name": "",
          "type": "uint256"
        }
      ],
      "stateMutability": "view",
      "type": "function",
      "constant": true
    },
    {
      "inputs": [
        {
          "internalType": "address",
          "name": "account",
          "type": "address"
        },
        {
          "internalType": "uint256",
          "name": "_jmtAmount",
          "type": "uint256"
        }
      ],
      "name": "swap",
      "outputs": [],
      "stateMutability": "payable",
      "type": "function",
      "payable": true
    },
    {
      "inputs": [
        {
          "internalType": "uint256",
          "name": "jmtAmount",
          "type": "uint256"
        },
        {
          "internalType": "address",
          "name": "account",
          "type": "address"
        }
      ],
      "name": "deposit",
      "outputs": [],
      "stateMutability": "payable",
      "type": "function",
      "payable": true
    },
    {
      "inputs": [
        {
          "internalType": "address",
          "name": "account",
          "type": "address"
        }
      ],
      "name": "withdraw",
      "outputs": [],
      "stateMutability": "nonpayable",
      "type": "function"
    },
    {
      "inputs": [],
      "name": "setDepositeInfo",
      "outputs": [],
      "stateMutability": "nonpayable",
      "type": "function"
    },
    {
      "inputs": [],
      "name": "claimReward",
      "outputs": [
        {
          "internalType": "bool",
          "name": "",
          "type": "bool"
        }
      ],
      "stateMutability": "nonpayable",
      "type": "function"
    },
    {
      "inputs": [],
      "name": "claimableReward",
      "outputs": [
        {
          "internalType": "uint256",
          "name": "",
          "type": "uint256"
        }
      ],
      "stateMutability": "view",
      "type": "function",
      "constant": true
    }
  ],
  "bytecode": "0x6080604052670de0b6b3a7640000600855600980546001600160601b0319166a01518001e133800000023b17905534801561003957600080fd5b5061004333610052565b600060048190556005556100a2565b600080546001600160a01b038381166001600160a01b0319831681178455604051919092169283917f8be0079c531659141344cd1fd0a4f28419497f9722a3daafe3b4186f6b6457e09190a35050565b611866806100b16000396000f3fe60806040526004361061010e5760003560e01c8063b88a802f116100a5578063e7181edc11610074578063f2fde38b11610059578063f2fde38b1461030d578063f31655881461032d578063f63d19c51461035157600080fd5b8063e7181edc14610295578063f0d3659b146102aa57600080fd5b8063b88a802f1461020b578063bd30558e14610230578063c4066f6614610262578063d004f0f71461028257600080fd5b80636e553f65116100e15780636e553f651461019b578063715018a6146101ae5780637f41b8e2146101c35780638da5cb5b146101e357600080fd5b80630902f1ac146101135780632770d90114610140578063313ce5671461015757806351cff8d91461017b575b600080fd5b34801561011f57600080fd5b50600454600554604080519283526020830191909152015b60405180910390f35b34801561014c57600080fd5b50610155610371565b005b34801561016357600080fd5b5061016d60085481565b604051908152602001610137565b34801561018757600080fd5b50610155610196366004611700565b610443565b6101556101a9366004611724565b610952565b3480156101ba57600080fd5b50610155610ce9565b3480156101cf57600080fd5b506101556101de366004611700565b610cfd565b3480156101ef57600080fd5b506000546040516001600160a01b039091168152602001610137565b34801561021757600080fd5b50610220610d7a565b6040519015158152602001610137565b34801561023c57600080fd5b5060095461024d9063ffffffff1681565b60405163ffffffff9091168152602001610137565b34801561026e57600080fd5b5061015561027d366004611700565b610f6e565b610155610290366004611754565b610feb565b3480156102a157600080fd5b5061016d61135e565b3480156102b657600080fd5b506102ec6102c5366004611700565b600a6020526000908152604090208054600182015460029092015490919063ffffffff1683565b60408051938452602084019290925263ffffffff1690820152606001610137565b34801561031957600080fd5b50610155610328366004611700565b611426565b34801561033957600080fd5b50610155336000908152600a60205260409020429055565b34801561035d57600080fd5b5061015561036c366004611700565b6114b6565b6002546001600160a01b031633146103d05760405162461bcd60e51b815260206004820152600d60248201527f4a6f6e4d61746e675f4f4e4c590000000000000000000000000000000000000060448201526064015b60405180910390fd5b600454158015906103e2575060055415155b61042e5760405162461bcd60e51b815260206004820152601460248201527f5245534552564520414d4f554e5420454d50545900000000000000000000000060448201526064016103c7565b60055460045461043e9190611796565b600755565b6001546040516370a0823160e01b81526001600160a01b03838116600483015260009216906370a0823190602401602060405180830381865afa15801561048e573d6000803e3d6000fd5b505050506040513d601f19601f820116820180604052508101906104b291906117ad565b9050806000036105045760405162461bcd60e51b815260206004820152601360248201527f4e4f5f415641494c41424c455f544f4b454e530000000000000000000000000060448201526064016103c7565b600154604080517f18160ddd00000000000000000000000000000000000000000000000000000000815290516000926001600160a01b0316916318160ddd9160048083019260209291908290030181865afa158015610567573d6000803e3d6000fd5b505050506040513d601f19601f8201168201806040525081019061058b91906117ad565b90506000818360045461059e9190611796565b6105a891906117c6565b9050600082846005546105bb9190611796565b6105c591906117c6565b6001600160a01b0386166000908152600a602052604090206002015490915063ffffffff16600103610765576009546001600160a01b0386166000908152600a6020526040812060010154909163ffffffff680100000000000000008204811692640100000000830482169260649261064092911690611796565b61064a91906117c6565b61065491906117c6565b61065e91906117c6565b6001600160a01b0387166000908152600a602052604081205491925090829061068790426117e8565b6106919190611796565b6003549091506001600160a01b031663a9059cbb886106b284612710611796565b6040517fffffffff0000000000000000000000000000000000000000000000000000000060e085901b1681526001600160a01b03909216600483015260248201526044016020604051808303816000875af1158015610715573d6000803e3d6000fd5b505050506040513d601f19601f8201168201806040525081019061073991906117fb565b5050336000908152600a602052604081208181556001810191909155600201805463ffffffff19169055505b6001546040517f9dc29fac0000000000000000000000000000000000000000000000000000000081526001600160a01b0387811660048301526024820187905290911690639dc29fac90604401600060405180830381600087803b1580156107cc57600080fd5b505af11580156107e0573d6000803e3d6000fd5b505050506000856001600160a01b03168360405160006040518083038185875af1925050503d8060008114610831576040519150601f19603f3d011682016040523d82523d6000602084013e610836565b606091505b505060025460405163a9059cbb60e01b81526001600160a01b038981166004830152602482018690529293506000929091169063a9059cbb906044016020604051808303816000875af1158015610891573d6000803e3d6000fd5b505050506040513d601f19601f820116820180604052508101906108b591906117fb565b90508180156108c15750805b61090d5760405162461bcd60e51b815260206004820152600f60248201527f4641494c45445f5452414e53464552000000000000000000000000000000000060448201526064016103c7565b6040516001600160a01b038816907f5dab48db0770e220c3226a459b19d38e7438c27b1b8dac1fab1434686d2319cd90600090a2610949611533565b50505050505050565b600080600160009054906101000a90046001600160a01b03166001600160a01b03166318160ddd6040518163ffffffff1660e01b8152600401602060405180830381865afa1580156109a8573d6000803e3d6000fd5b505050506040513d601f19601f820116820180604052508101906109cc91906117ad565b9050348115610a1357600454610a0c906109e68484611796565b6109f091906117c6565b6005546109fd8589611796565b610a0791906117c6565b6115aa565b9250610a28565b610a25610a208683611796565b6115c4565b92505b6001546040517f40c10f190000000000000000000000000000000000000000000000000000000081526001600160a01b03868116600483015260248201869052909116906340c10f1990604401600060405180830381600087803b158015610a8f57600080fd5b505af1158015610aa3573d6000803e3d6000fd5b505050506001600160a01b0384166000908152600a602052604090206002015463ffffffff16600103610c1b576009546001600160a01b0385166000908152600a6020526040812060010154909163ffffffff6801000000000000000082048116926401000000008304821692606492610b1f92911690611796565b610b2991906117c6565b610b3391906117c6565b610b3d91906117c6565b6001600160a01b0386166000908152600a6020526040812054919250908290610b6690426117e8565b610b709190611796565b6003549091506001600160a01b031663a9059cbb87610b90846064611796565b6040517fffffffff0000000000000000000000000000000000000000000000000000000060e085901b1681526001600160a01b03909216600483015260248201526044016020604051808303816000875af1158015610bf3573d6000803e3d6000fd5b505050506040513d601f19601f82011682018060405250810190610c1791906117fb565b5050505b604051806060016040528042815260200184600a6000886001600160a01b03166001600160a01b0316815260200190815260200160002060010154610c60919061181d565b8152600160209182018190526001600160a01b0387166000818152600a84526040808220865181559486015193850193909355938201516002909301805463ffffffff191663ffffffff909416939093179092555190917f88bbeecffcce070d5609ad08df49df93f0d53002ef3544dd5287e6b621eaff6f91a2610ce2611533565b5050505050565b610cf1611634565b610cfb600061168e565b565b610d05611634565b6002546001600160a01b031615610d4b5760405162461bcd60e51b815260206004820152600a60248201526957524954455f4f4e434560b01b60448201526064016103c7565b6002805473ffffffffffffffffffffffffffffffffffffffff19166001600160a01b0392909216919091179055565b336000908152600a602052604081206002015463ffffffff16600114610de25760405162461bcd60e51b815260206004820152601860248201527f596f7520617265206e6f7420706172746963697061746564000000000000000060448201526064016103c7565b336000908152600a6020526040812054610dfc90426117e8565b600954336000908152600a60205260408120600101549293509163ffffffff6801000000000000000083048116926401000000008104821692606492610e43921690611796565b610e4d91906117c6565b610e5791906117c6565b610e6191906117c6565b90506000610e6f8383611796565b6003549091506001600160a01b031663a9059cbb33610e9084612710611796565b6040517fffffffff0000000000000000000000000000000000000000000000000000000060e085901b1681526001600160a01b03909216600483015260248201526044016020604051808303816000875af1158015610ef3573d6000803e3d6000fd5b505050506040513d601f19601f82011682018060405250810190610f1791906117fb565b50610f2f336000908152600a60205260409020429055565b60405181815233907fd8138f8a3f377c5259ca548e70e4c2de94f129f5a11036a15b69513cba2b426a9060200160405180910390a26001935050505090565b610f76611634565b6003546001600160a01b031615610fbc5760405162461bcd60e51b815260206004820152600a60248201526957524954455f4f4e434560b01b60448201526064016103c7565b6003805473ffffffffffffffffffffffffffffffffffffffff19166001600160a01b0392909216919091179055565b6000600554600454610ffd9190611796565b90506000806000806008549050346000036111b6576002546040516370a0823160e01b81523060048201526000916001600160a01b0316906370a0823190602401602060405180830381865afa15801561105b573d6000803e3d6000fd5b505050506040513d601f19601f8201168201806040525081019061107f91906117ad565b905060006064611090896002611796565b61109a91906117c6565b6110a490896117e8565b90506000816005546110b6919061181d565b90506000826005546110c8919061181d565b6110d2908a6117c6565b9050806004546110e291906117e8565b975060646110f1896001611796565b6110fb91906117c6565b965061110787896117e8565b955060008b6001600160a01b03168760405160006040518083038185875af1925050503d8060008114611156576040519150601f19603f3d011682016040523d82523d6000602084013e61115b565b606091505b50509050806111ac5760405162461bcd60e51b815260206004820152600f60248201527f5452414e534645525f4641494c4544000000000000000000000000000000000060448201526064016103c7565b5050505050611312565b6000346004546111c6919061181d565b6111d090876117c6565b9050806005546111e091906117e8565b945060646111ef866001611796565b6111f991906117c6565b935061120584866117e8565b60025460405163a9059cbb60e01b81526001600160a01b038b811660048301526024820184905292955091169063a9059cbb906044016020604051808303816000875af115801561125a573d6000803e3d6000fd5b505050506040513d601f19601f8201168201806040525081019061127e91906117fb565b50606461128c84600a611796565b61129691906117c6565b60035460405163a9059cbb60e01b81526001600160a01b038b811660048301526024820184905292945091169063a9059cbb906044016020604051808303816000875af11580156112eb573d6000803e3d6000fd5b505050506040513d601f19601f8201168201806040525081019061130f91906117fb565b50505b60408051348152602081018890526001600160a01b038916917f967ed1bc358366a7e3e3031a0fbee32b45feb1c201d99d020380f99d03d932d1910160405180910390a2610949611533565b336000908152600a602052604081206002015463ffffffff1660010361142057336000908152600a602052604081205461139890426117e8565b600954336000908152600a60205260408120600101549293509163ffffffff68010000000000000000830481169264010000000081048216926064926113df921690611796565b6113e991906117c6565b6113f391906117c6565b6113fd91906117c6565b9050600061140b8383611796565b9050611418816064611796565b935050505090565b50600090565b61142e611634565b6001600160a01b0381166114aa5760405162461bcd60e51b815260206004820152602660248201527f4f776e61626c653a206e6577206f776e657220697320746865207a65726f206160448201527f646472657373000000000000000000000000000000000000000000000000000060648201526084016103c7565b6114b38161168e565b50565b6114be611634565b6001546001600160a01b0316156115045760405162461bcd60e51b815260206004820152600a60248201526957524954455f4f4e434560b01b60448201526064016103c7565b6001805473ffffffffffffffffffffffffffffffffffffffff19166001600160a01b0392909216919091179055565b4760049081556002546040516370a0823160e01b815230928101929092526001600160a01b0316906370a0823190602401602060405180830381865afa158015611581573d6000803e3d6000fd5b505050506040513d601f19601f820116820180604052508101906115a591906117ad565b600555565b60008183106115b957816115bb565b825b90505b92915050565b6000600382111561162557508060006115de6002836117c6565b6115e990600161181d565b90505b8181101561161f5790508060028161160481866117c6565b61160e919061181d565b61161891906117c6565b90506115ec565b50919050565b811561162f575060015b919050565b6000546001600160a01b03163314610cfb5760405162461bcd60e51b815260206004820181905260248201527f4f776e61626c653a2063616c6c6572206973206e6f7420746865206f776e657260448201526064016103c7565b600080546001600160a01b0383811673ffffffffffffffffffffffffffffffffffffffff19831681178455604051919092169283917f8be0079c531659141344cd1fd0a4f28419497f9722a3daafe3b4186f6b6457e09190a35050565b6001600160a01b03811681146114b357600080fd5b60006020828403121561171257600080fd5b813561171d816116eb565b9392505050565b6000806040838503121561173757600080fd5b823591506020830135611749816116eb565b809150509250929050565b6000806040838503121561176757600080fd5b8235611772816116eb565b946020939093013593505050565b634e487b7160e01b600052601160045260246000fd5b80820281158282048414176115be576115be611780565b6000602082840312156117bf57600080fd5b5051919050565b6000826117e357634e487b7160e01b600052601260045260246000fd5b500490565b818103818111156115be576115be611780565b60006020828403121561180d57600080fd5b8151801515811461171d57600080fd5b808201808211156115be576115be61178056fea26469706673582212201d140f90316caf358f957862a333900886d32e40cad4d8841539fe514b9e035a64736f6c63430008110033",
  "immutableReferences": {},
  "source": "//SPDX-License-Identifier: Unlicense\npragma solidity ^0.8.0;\n\nimport \"./LPT.sol\";\nimport \"./JMToken.sol\";\nimport \"./VJMToken.sol\";\nimport \"@openzeppelin/contracts/utils/math/Math.sol\";\nimport \"@uniswap/lib/contracts/libraries/Babylonian.sol\";\nimport \"@openzeppelin/contracts/access/Ownable.sol\";\n\n// indexed ->        search ,    \n// unchecked ->      overflow   ->        \n//                \n//    unchecked     \n/*\n      (Swap)\n      \n    JMT token = 10000 \n    ETH token = 20\n     LiquidityPool Reserve   ,    \n    A 100 JMT  ETH   \n       10000*20 = 200000  \n     A JMT100   \n      10100  10100*20 = 202000  \n    \n        200000 \n    202000  JMT ETH   \n     \n      x * 10100 = 200000    ( x  eth  )\n     x   x = 200000/10100    \n    x = 19.8019082 eth        (eth)reserve - x = 0.921980918 \n       eth 0.921980918  (   ) \n*/\ncontract LiquidityPool is Ownable {\n    event LiquidityAdded(address indexed _account);\n    event LiquidityRemoved(address indexed _account);\n    event TradedTokens(address indexed _account,uint256 _ethTraded,uint256 _jmtTraded);\n    event Claimed(address indexed _account, uint256 _amount);\n\n    struct DepositeInfo {        \n        uint256 claimedTime; \n        uint256 amount; \n        uint32 state;\n    }\n\n\n    LPT lpToken; //  lp  \n    JMToken jmtToken;\n    VJMToken vJmt;\n    \n    uint256 ethReserve; //   \n    uint256 jmtReserve;  //  jmt \n    uint32 lastBlockTimestamp;\n    uint256 totalReserve; //   \n    uint256 public decimals = 10**18;\n    uint32 public APR = 571; // \n    uint32 private yearsDuration = 31536000;\n    uint32 private dayDuration = 86400;\n    mapping(address => DepositeInfo) public depositeInfos; \n\n    constructor () {\n        ethReserve=0;\n        jmtReserve=0;\n    }\n\n    modifier JonMatngOnly() {\n        require(msg.sender == address(jmtToken), \"JonMatng_ONLY\");\n        _;\n    }\n    // set funded reserve \n    function setFundedReserve() JonMatngOnly public {\n        require(ethReserve != 0 && jmtReserve != 0,\"RESERVE AMOUNT EMPTY\");\n        totalReserve = ethReserve*jmtReserve;\n    }\n\n    // lpt   \n    function setLPTAddress(LPT _lpToken) external onlyOwner {\n        require(address(lpToken) == address(0), \"WRITE_ONCE\");\n        lpToken = _lpToken;\n    }\n\n    //  jmt   \n    function setJmtCoinAddress(JMToken _jmtToken) external onlyOwner {\n        require(address(jmtToken) == address(0), \"WRITE_ONCE\");\n        jmtToken = _jmtToken;\n    }\n    // vJmt    \n    function setVJMTCoinAddress(VJMToken _vJmt) external onlyOwner(){\n        require(address(vJmt) == address(0), \"WRITE_ONCE\");\n        vJmt = _vJmt;\n    }\n\n    //    \n    function getReserves() external view returns (uint256, uint256) {\n        return (ethReserve, jmtReserve);\n    }\n\n    //pool swap!\n    function swap(address account, uint256 _jmtAmount) external payable {\n        uint256 product = ethReserve * jmtReserve; //  \n        uint256 amountToTransfer;\n        uint256 amountToTake;\n        uint256 totalAmountToTransfer;\n        uint256 Commission = decimals; //\n\n        // jmt -> eth, jmttoken == 0\n        if (msg.value == 0) \n        {\n            uint256 currentJMTBalance = jmtToken.balanceOf(address(this)); //      \n            uint256 _jmtAmountMinusTax = _jmtAmount - ((2 * _jmtAmount) / 100); // (  - ) \n            uint256 addedBalance = jmtReserve + _jmtAmountMinusTax; //  jmt + (  - ) =   \n            //require(addedBalance == currentJMTBalance, \"DID_NOT_TRANSFER\");\n\n            uint256 x = product / (jmtReserve + _jmtAmountMinusTax); //  product   \n            amountToTransfer = ethReserve - x; //   eth \n            amountToTake = (1 * amountToTransfer) / 100; //  \n            totalAmountToTransfer = amountToTransfer - amountToTake; //   -  =  get eth \n\n            //     //  \n            // https://kushgoyal.com/ethereum-solidity-how-use-call-delegatecall/ ->  \n            (bool success, ) = account.call{value: totalAmountToTransfer}(\"\");\n            require(success, \"TRANSFER_FAILED\");\n        } else { // eth -> jmt, jmttoken > 0 msg.value > 0  \n\n            uint256 y = product / (ethReserve + msg.value);\n            amountToTransfer = jmtReserve - y;\n            amountToTake = (1 * amountToTransfer) / 100;\n            totalAmountToTransfer = amountToTransfer - amountToTake;\n\n            jmtToken.transfer(account, totalAmountToTransfer);\n\n            Commission = (totalAmountToTransfer * 10) / 100;\n            vJmt.transfer(account , Commission);\n        }\n        emit TradedTokens(account, msg.value, _jmtAmount);\n        _update();\n    }\n\n    // pool  \n    function deposit(uint256 jmtAmount, address account) external payable \n    {\n        uint256 liquidity; //  \n        uint256 totalSupply = lpToken.totalSupply(); // lp erc\n        uint256 ethAmount = msg.value; //\n\n        if (totalSupply > 0) {\n            liquidity = Math.min(\n                (ethAmount * totalSupply) / ethReserve,\n                (jmtAmount * totalSupply) / jmtReserve\n            );\n        } else { // x\n            liquidity = Babylonian.sqrt(ethAmount * jmtAmount);\n        }\n\n        lpToken.mint(account, liquidity); // transfer user => \n        if(depositeInfos[account].state == 1){\n            uint256 vjmtAomount = (depositeInfos[account].amount * APR / 100) / yearsDuration / dayDuration; \n            uint256 claimableAmount = (block.timestamp - depositeInfos[account].claimedTime) * vjmtAomount;\n            vJmt.transfer(account , claimableAmount * 100);\n        }\n\n        depositeInfos[account] = DepositeInfo({\n            claimedTime: block.timestamp,\n            amount: (depositeInfos[account].amount + liquidity),\n            state: 1 \n        });\n\n        emit LiquidityAdded(account);\n        _update();\n    }\n\n    //lp \n    function withdraw(address account) external \n    {\n        uint256 liquidity = lpToken.balanceOf(account); //  lp   \n        require(liquidity != 0, \"NO_AVAILABLE_TOKENS\");\n\n        uint256 totalSupply = lpToken.totalSupply();\n        //  \n        uint256 ethAmount = (ethReserve * liquidity) / totalSupply;\n        uint256 jmtAmount = (jmtReserve * liquidity) / totalSupply;\n\n        if(depositeInfos[account].state == 1){\n            uint256 vjmtAomount = (depositeInfos[account].amount * APR / 100) / yearsDuration / dayDuration; \n            uint256 claimableAmount = (block.timestamp - depositeInfos[account].claimedTime) * vjmtAomount;\n            vJmt.transfer(account , claimableAmount * 10000);\n            delete depositeInfos[msg.sender];\n        }\n\n        // \n        lpToken.burn(account, liquidity); // account  , lpt   \n\n        //    \n        (bool ethTransferSuccess, ) = account.call{value: ethAmount}(\"\");\n        bool jmtTransferSuccess = jmtToken.transfer(account, jmtAmount);\n\n        require(ethTransferSuccess && jmtTransferSuccess, \"FAILED_TRANSFER\");\n        emit LiquidityRemoved(account);\n        _update();\n    }\n\n    \n    function setDepositeInfo() public {\n        depositeInfos[msg.sender].claimedTime = block.timestamp;\n    }\n\n    // LP \n    function claimReward() external returns (bool){\n        require(depositeInfos[msg.sender].state == 1, \"You are not participated\");\n\n        uint256 stakingDuration = block.timestamp - depositeInfos[msg.sender].claimedTime; //     \n        uint256 persecondAmount = (depositeInfos[msg.sender].amount * APR / 100) / yearsDuration / dayDuration; //   \n        uint256 claimableAmount = persecondAmount * stakingDuration; //  \n\n        vJmt.transfer(msg.sender, claimableAmount * 10000); //vjmt:jmt \n        setDepositeInfo(); //    \n        emit Claimed(msg.sender, claimableAmount);\n        return true;\n    }\n\n    // LP   \n    function claimableReward() public view returns(uint256) \n    {\n        if(depositeInfos[msg.sender].state == 1){\n            uint256 stakingDuration = block.timestamp - depositeInfos[msg.sender].claimedTime; //     \n            uint256 persecondAmount = (depositeInfos[msg.sender].amount * APR / 100) / yearsDuration / dayDuration; //   \n            uint256 claimableAmount = persecondAmount * stakingDuration; //  \n            return (claimableAmount * 100);\n        }else{\n            return 0;\n        }\n    }\n\n    // ,     \n    function _update() private \n    {\n        // uint32 blockTimestamp = uint32(block.timestamp % 2**32);\n        // uint32 timeElapsed;\n        // unchecked { //     \n        //     timeElapsed = blockTimestamp - lastBlockTimestamp; \n        // }\n        // if (timeElapsed > 0) {\n            ethReserve = address(this).balance; //    eth \n            jmtReserve = jmtToken.balanceOf(address(this)); // jmt    \n        //     lastBlockTimestamp = blockTimestamp; \n        // }\n    }\n}",
  "sourcePath": "/Users/hyenne/workspace/BEB-05-JMT/contract/contracts/LiquidityPool.sol",
  "compiler": {
    "name": "solc",
    "version": "0.8.17+commit.8df45f5f.Emscripten.clang"
  },
  "schemaVersion": "3.4.9",
  "updatedAt": "2022-09-28T03:01:24.152Z",
  "networkType": "ethereum",
  "devdoc": {
    "kind": "dev",
    "methods": {
      "owner()": {
        "details": "Returns the address of the current owner."
      },
      "renounceOwnership()": {
        "details": "Leaves the contract without owner. It will not be possible to call `onlyOwner` functions anymore. Can only be called by the current owner. NOTE: Renouncing ownership will leave the contract without an owner, thereby removing any functionality that is only available to the owner."
      },
      "transferOwnership(address)": {
        "details": "Transfers ownership of the contract to a new account (`newOwner`). Can only be called by the current owner."
      }
    },
    "version": 1
  },
  "userdoc": {
    "kind": "user",
    "methods": {},
    "version": 1
  }
}