{
  "contractName": "LiquidityPool",
  "abi": [
    {
      "inputs": [],
      "stateMutability": "nonpayable",
      "type": "constructor"
    },
    {
      "anonymous": false,
      "inputs": [
        {
          "indexed": true,
          "internalType": "address",
          "name": "_account",
          "type": "address"
        },
        {
          "indexed": false,
          "internalType": "uint256",
          "name": "_amount",
          "type": "uint256"
        }
      ],
      "name": "Claimed",
      "type": "event"
    },
    {
      "anonymous": false,
      "inputs": [
        {
          "indexed": true,
          "internalType": "address",
          "name": "_account",
          "type": "address"
        }
      ],
      "name": "LiquidityAdded",
      "type": "event"
    },
    {
      "anonymous": false,
      "inputs": [
        {
          "indexed": true,
          "internalType": "address",
          "name": "_account",
          "type": "address"
        }
      ],
      "name": "LiquidityRemoved",
      "type": "event"
    },
    {
      "anonymous": false,
      "inputs": [
        {
          "indexed": true,
          "internalType": "address",
          "name": "previousOwner",
          "type": "address"
        },
        {
          "indexed": true,
          "internalType": "address",
          "name": "newOwner",
          "type": "address"
        }
      ],
      "name": "OwnershipTransferred",
      "type": "event"
    },
    {
      "anonymous": false,
      "inputs": [
        {
          "indexed": true,
          "internalType": "address",
          "name": "_account",
          "type": "address"
        },
        {
          "indexed": false,
          "internalType": "uint256",
          "name": "_ethTraded",
          "type": "uint256"
        },
        {
          "indexed": false,
          "internalType": "uint256",
          "name": "_jmtTraded",
          "type": "uint256"
        }
      ],
      "name": "TradedTokens",
      "type": "event"
    },
    {
      "inputs": [],
      "name": "APR",
      "outputs": [
        {
          "internalType": "uint32",
          "name": "",
          "type": "uint32"
        }
      ],
      "stateMutability": "view",
      "type": "function",
      "constant": true
    },
    {
      "inputs": [],
      "name": "decimals",
      "outputs": [
        {
          "internalType": "uint256",
          "name": "",
          "type": "uint256"
        }
      ],
      "stateMutability": "view",
      "type": "function",
      "constant": true
    },
    {
      "inputs": [
        {
          "internalType": "address",
          "name": "",
          "type": "address"
        }
      ],
      "name": "depositeInfos",
      "outputs": [
        {
          "internalType": "uint256",
          "name": "claimedTime",
          "type": "uint256"
        },
        {
          "internalType": "uint256",
          "name": "amount",
          "type": "uint256"
        },
        {
          "internalType": "uint32",
          "name": "state",
          "type": "uint32"
        }
      ],
      "stateMutability": "view",
      "type": "function",
      "constant": true
    },
    {
      "inputs": [],
      "name": "owner",
      "outputs": [
        {
          "internalType": "address",
          "name": "",
          "type": "address"
        }
      ],
      "stateMutability": "view",
      "type": "function",
      "constant": true
    },
    {
      "inputs": [],
      "name": "renounceOwnership",
      "outputs": [],
      "stateMutability": "nonpayable",
      "type": "function"
    },
    {
      "inputs": [
        {
          "internalType": "address",
          "name": "newOwner",
          "type": "address"
        }
      ],
      "name": "transferOwnership",
      "outputs": [],
      "stateMutability": "nonpayable",
      "type": "function"
    },
    {
      "inputs": [],
      "name": "setFundedReserve",
      "outputs": [],
      "stateMutability": "nonpayable",
      "type": "function"
    },
    {
      "inputs": [
        {
          "internalType": "contract LPT",
          "name": "_lpToken",
          "type": "address"
        }
      ],
      "name": "setLPTAddress",
      "outputs": [],
      "stateMutability": "nonpayable",
      "type": "function"
    },
    {
      "inputs": [
        {
          "internalType": "contract JMToken",
          "name": "_jmtToken",
          "type": "address"
        }
      ],
      "name": "setJmtCoinAddress",
      "outputs": [],
      "stateMutability": "nonpayable",
      "type": "function"
    },
    {
      "inputs": [
        {
          "internalType": "contract VJMToken",
          "name": "_vJmt",
          "type": "address"
        }
      ],
      "name": "setVJMTCoinAddress",
      "outputs": [],
      "stateMutability": "nonpayable",
      "type": "function"
    },
    {
      "inputs": [],
      "name": "getReserves",
      "outputs": [
        {
          "internalType": "uint256",
          "name": "",
          "type": "uint256"
        },
        {
          "internalType": "uint256",
          "name": "",
          "type": "uint256"
        }
      ],
      "stateMutability": "view",
      "type": "function",
      "constant": true
    },
    {
      "inputs": [
        {
          "internalType": "address",
          "name": "account",
          "type": "address"
        },
        {
          "internalType": "uint256",
          "name": "_jmtAmount",
          "type": "uint256"
        }
      ],
      "name": "swap",
      "outputs": [],
      "stateMutability": "payable",
      "type": "function",
      "payable": true
    },
    {
      "inputs": [
        {
          "internalType": "uint256",
          "name": "jmtAmount",
          "type": "uint256"
        },
        {
          "internalType": "address",
          "name": "account",
          "type": "address"
        }
      ],
      "name": "deposit",
      "outputs": [],
      "stateMutability": "payable",
      "type": "function",
      "payable": true
    },
    {
      "inputs": [
        {
          "internalType": "address",
          "name": "account",
          "type": "address"
        }
      ],
      "name": "withdraw",
      "outputs": [],
      "stateMutability": "nonpayable",
      "type": "function"
    },
    {
      "inputs": [],
      "name": "setDepositeInfo",
      "outputs": [],
      "stateMutability": "nonpayable",
      "type": "function"
    },
    {
      "inputs": [],
      "name": "claimReward",
      "outputs": [
        {
          "internalType": "bool",
          "name": "",
          "type": "bool"
        }
      ],
      "stateMutability": "nonpayable",
      "type": "function"
    },
    {
      "inputs": [],
      "name": "claimableReward",
      "outputs": [
        {
          "internalType": "uint256",
          "name": "",
          "type": "uint256"
        }
      ],
      "stateMutability": "view",
      "type": "function",
      "constant": true
    }
  ],
  "bytecode": "0x6080604052670de0b6b3a7640000600855600980546001600160601b0319166a01518001e133800000023b17905534801561003957600080fd5b5061004333610052565b600060048190556005556100a2565b600080546001600160a01b038381166001600160a01b0319831681178455604051919092169283917f8be0079c531659141344cd1fd0a4f28419497f9722a3daafe3b4186f6b6457e09190a35050565b6116f2806100b16000396000f3fe6080604052600436106100fe5760003560e01c8063b88a802f11610095578063e7181edc11610064578063e7181edc14610285578063f0d3659b1461029a578063f2fde38b146102fd578063f31655881461031d578063f63d19c51461034157600080fd5b8063b88a802f146101fb578063bd30558e14610220578063c4066f6614610252578063d004f0f71461027257600080fd5b80636e553f65116100d15780636e553f651461018b578063715018a61461019e5780637f41b8e2146101b35780638da5cb5b146101d357600080fd5b80630902f1ac146101035780632770d90114610130578063313ce5671461014757806351cff8d91461016b575b600080fd5b34801561010f57600080fd5b50600454600554604080519283526020830191909152015b60405180910390f35b34801561013c57600080fd5b50610145610361565b005b34801561015357600080fd5b5061015d60085481565b604051908152602001610127565b34801561017757600080fd5b50610145610186366004611568565b61041a565b61014561019936600461158c565b6108c2565b3480156101aa57600080fd5b50610145610c23565b3480156101bf57600080fd5b506101456101ce366004611568565b610c37565b3480156101df57600080fd5b506000546040516001600160a01b039091168152602001610127565b34801561020757600080fd5b50610210610c8a565b6040519015158152602001610127565b34801561022c57600080fd5b5060095461023d9063ffffffff1681565b60405163ffffffff9091168152602001610127565b34801561025e57600080fd5b5061014561026d366004611568565b610e61565b6101456102803660046115bc565b610eb4565b34801561029157600080fd5b5061015d611219565b3480156102a657600080fd5b506102dc6102b5366004611568565b600a6020526000908152604090208054600182015460029092015490919063ffffffff1683565b60408051938452602084019290925263ffffffff1690820152606001610127565b34801561030957600080fd5b50610145610318366004611568565b6112dc565b34801561032957600080fd5b50610145336000908152600a60205260409020429055565b34801561034d57600080fd5b5061014561035c366004611568565b611355565b6002546001600160a01b031633146103b05760405162461bcd60e51b815260206004820152600d60248201526c4a6f6e4d61746e675f4f4e4c5960981b60448201526064015b60405180910390fd5b600454158015906103c2575060055415155b6104055760405162461bcd60e51b81526020600482015260146024820152735245534552564520414d4f554e5420454d50545960601b60448201526064016103a7565b60055460045461041591906115fe565b600755565b6001546040516370a0823160e01b81526001600160a01b03838116600483015260009216906370a0823190602401602060405180830381865afa158015610465573d6000803e3d6000fd5b505050506040513d601f19601f820116820180604052508101906104899190611615565b9050806000036104d15760405162461bcd60e51b81526020600482015260136024820152724e4f5f415641494c41424c455f544f4b454e5360681b60448201526064016103a7565b600154604080516318160ddd60e01b815290516000926001600160a01b0316916318160ddd9160048083019260209291908290030181865afa15801561051b573d6000803e3d6000fd5b505050506040513d601f19601f8201168201806040525081019061053f9190611615565b90506000818360045461055291906115fe565b61055c919061162e565b90506000828460055461056f91906115fe565b610579919061162e565b6001600160a01b0386166000908152600a602052604090206002015490915063ffffffff166001036106fc576009546001600160a01b0386166000908152600a6020526040812060010154909163ffffffff600160401b820481169264010000000083048216926064926105ef929116906115fe565b6105f9919061162e565b610603919061162e565b61060d919061162e565b6001600160a01b0387166000908152600a60205260408120549192509082906106369042611650565b61064091906115fe565b6003549091506001600160a01b031663a9059cbb88610661846127106115fe565b6040516001600160e01b031960e085901b1681526001600160a01b03909216600483015260248201526044016020604051808303816000875af11580156106ac573d6000803e3d6000fd5b505050506040513d601f19601f820116820180604052508101906106d09190611663565b5050336000908152600a602052604081208181556001810191909155600201805463ffffffff19169055505b600154604051632770a7eb60e21b81526001600160a01b0387811660048301526024820187905290911690639dc29fac90604401600060405180830381600087803b15801561074a57600080fd5b505af115801561075e573d6000803e3d6000fd5b505050506000856001600160a01b03168360405160006040518083038185875af1925050503d80600081146107af576040519150601f19603f3d011682016040523d82523d6000602084013e6107b4565b606091505b505060025460405163a9059cbb60e01b81526001600160a01b038981166004830152602482018690529293506000929091169063a9059cbb906044016020604051808303816000875af115801561080f573d6000803e3d6000fd5b505050506040513d601f19601f820116820180604052508101906108339190611663565b905081801561083f5750805b61087d5760405162461bcd60e51b815260206004820152600f60248201526e2320a4a622a22faa2920a729a322a960891b60448201526064016103a7565b6040516001600160a01b038816907f5dab48db0770e220c3226a459b19d38e7438c27b1b8dac1fab1434686d2319cd90600090a26108b96113a8565b50505050505050565b600080600160009054906101000a90046001600160a01b03166001600160a01b03166318160ddd6040518163ffffffff1660e01b8152600401602060405180830381865afa158015610918573d6000803e3d6000fd5b505050506040513d601f19601f8201168201806040525081019061093c9190611615565b90503481156109835760045461097c9061095684846115fe565b610960919061162e565b60055461096d85896115fe565b610977919061162e565b61141f565b9250610998565b61099561099086836115fe565b611439565b92505b6001546040516340c10f1960e01b81526001600160a01b03868116600483015260248201869052909116906340c10f1990604401600060405180830381600087803b1580156109e657600080fd5b505af11580156109fa573d6000803e3d6000fd5b505050506001600160a01b0384166000908152600a602052604090206002015463ffffffff16600103610b55576009546001600160a01b0385166000908152600a6020526040812060010154909163ffffffff600160401b82048116926401000000008304821692606492610a71929116906115fe565b610a7b919061162e565b610a85919061162e565b610a8f919061162e565b6001600160a01b0386166000908152600a6020526040812054919250908290610ab89042611650565b610ac291906115fe565b6003549091506001600160a01b031663a9059cbb87610ae28460646115fe565b6040516001600160e01b031960e085901b1681526001600160a01b03909216600483015260248201526044016020604051808303816000875af1158015610b2d573d6000803e3d6000fd5b505050506040513d601f19601f82011682018060405250810190610b519190611663565b5050505b604051806060016040528042815260200184600a6000886001600160a01b03166001600160a01b0316815260200190815260200160002060010154610b9a9190611685565b8152600160209182018190526001600160a01b0387166000818152600a84526040808220865181559486015193850193909355938201516002909301805463ffffffff191663ffffffff909416939093179092555190917f88bbeecffcce070d5609ad08df49df93f0d53002ef3544dd5287e6b621eaff6f91a2610c1c6113a8565b5050505050565b610c2b6114a9565b610c356000611503565b565b610c3f6114a9565b6002546001600160a01b031615610c685760405162461bcd60e51b81526004016103a790611698565b600280546001600160a01b0319166001600160a01b0392909216919091179055565b336000908152600a602052604081206002015463ffffffff16600114610cf25760405162461bcd60e51b815260206004820152601860248201527f596f7520617265206e6f7420706172746963697061746564000000000000000060448201526064016103a7565b336000908152600a6020526040812054610d0c9042611650565b600954336000908152600a60205260408120600101549293509163ffffffff600160401b83048116926401000000008104821692606492610d4e9216906115fe565b610d58919061162e565b610d62919061162e565b610d6c919061162e565b90506000610d7a83836115fe565b6003549091506001600160a01b031663a9059cbb33610d9b846127106115fe565b6040516001600160e01b031960e085901b1681526001600160a01b03909216600483015260248201526044016020604051808303816000875af1158015610de6573d6000803e3d6000fd5b505050506040513d601f19601f82011682018060405250810190610e0a9190611663565b50610e22336000908152600a60205260409020429055565b60405181815233907fd8138f8a3f377c5259ca548e70e4c2de94f129f5a11036a15b69513cba2b426a9060200160405180910390a26001935050505090565b610e696114a9565b6003546001600160a01b031615610e925760405162461bcd60e51b81526004016103a790611698565b600380546001600160a01b0319166001600160a01b0392909216919091179055565b6000600554600454610ec691906115fe565b9050600080600080600854905034600003611071576002546040516370a0823160e01b81523060048201526000916001600160a01b0316906370a0823190602401602060405180830381865afa158015610f24573d6000803e3d6000fd5b505050506040513d601f19601f82011682018060405250810190610f489190611615565b905060006064610f598960026115fe565b610f63919061162e565b610f6d9089611650565b9050600081600554610f7f9190611685565b9050600082600554610f919190611685565b610f9b908a61162e565b905080600454610fab9190611650565b97506064610fba8960016115fe565b610fc4919061162e565b9650610fd08789611650565b955060008b6001600160a01b03168760405160006040518083038185875af1925050503d806000811461101f576040519150601f19603f3d011682016040523d82523d6000602084013e611024565b606091505b50509050806110675760405162461bcd60e51b815260206004820152600f60248201526e1514905394d1915497d19052531151608a1b60448201526064016103a7565b50505050506111cd565b6000346004546110819190611685565b61108b908761162e565b90508060055461109b9190611650565b945060646110aa8660016115fe565b6110b4919061162e565b93506110c08486611650565b60025460405163a9059cbb60e01b81526001600160a01b038b811660048301526024820184905292955091169063a9059cbb906044016020604051808303816000875af1158015611115573d6000803e3d6000fd5b505050506040513d601f19601f820116820180604052508101906111399190611663565b50606461114784600a6115fe565b611151919061162e565b60035460405163a9059cbb60e01b81526001600160a01b038b811660048301526024820184905292945091169063a9059cbb906044016020604051808303816000875af11580156111a6573d6000803e3d6000fd5b505050506040513d601f19601f820116820180604052508101906111ca9190611663565b50505b60408051348152602081018890526001600160a01b038916917f967ed1bc358366a7e3e3031a0fbee32b45feb1c201d99d020380f99d03d932d1910160405180910390a26108b96113a8565b336000908152600a602052604081206002015463ffffffff166001036112d657336000908152600a60205260408120546112539042611650565b600954336000908152600a60205260408120600101549293509163ffffffff600160401b830481169264010000000081048216926064926112959216906115fe565b61129f919061162e565b6112a9919061162e565b6112b3919061162e565b905060006112c183836115fe565b90506112ce8160646115fe565b935050505090565b50600090565b6112e46114a9565b6001600160a01b0381166113495760405162461bcd60e51b815260206004820152602660248201527f4f776e61626c653a206e6577206f776e657220697320746865207a65726f206160448201526564647265737360d01b60648201526084016103a7565b61135281611503565b50565b61135d6114a9565b6001546001600160a01b0316156113865760405162461bcd60e51b81526004016103a790611698565b600180546001600160a01b0319166001600160a01b0392909216919091179055565b4760049081556002546040516370a0823160e01b815230928101929092526001600160a01b0316906370a0823190602401602060405180830381865afa1580156113f6573d6000803e3d6000fd5b505050506040513d601f19601f8201168201806040525081019061141a9190611615565b600555565b600081831061142e5781611430565b825b90505b92915050565b6000600382111561149a575080600061145360028361162e565b61145e906001611685565b90505b8181101561149457905080600281611479818661162e565b6114839190611685565b61148d919061162e565b9050611461565b50919050565b81156114a4575060015b919050565b6000546001600160a01b03163314610c355760405162461bcd60e51b815260206004820181905260248201527f4f776e61626c653a2063616c6c6572206973206e6f7420746865206f776e657260448201526064016103a7565b600080546001600160a01b038381166001600160a01b0319831681178455604051919092169283917f8be0079c531659141344cd1fd0a4f28419497f9722a3daafe3b4186f6b6457e09190a35050565b6001600160a01b038116811461135257600080fd5b60006020828403121561157a57600080fd5b813561158581611553565b9392505050565b6000806040838503121561159f57600080fd5b8235915060208301356115b181611553565b809150509250929050565b600080604083850312156115cf57600080fd5b82356115da81611553565b946020939093013593505050565b634e487b7160e01b600052601160045260246000fd5b8082028115828204841417611433576114336115e8565b60006020828403121561162757600080fd5b5051919050565b60008261164b57634e487b7160e01b600052601260045260246000fd5b500490565b81810381811115611433576114336115e8565b60006020828403121561167557600080fd5b8151801515811461158557600080fd5b80820180821115611433576114336115e8565b6020808252600a908201526957524954455f4f4e434560b01b60408201526060019056fea26469706673582212208a08d4e2d77299dac4cddd36dbbf5546e421d2fda1dea6188e64a920de9d71ff64736f6c63430008110033",
  "immutableReferences": {},
  "source": "//SPDX-License-Identifier: Unlicense\npragma solidity ^0.8.0;\n\nimport \"./LPT.sol\";\nimport \"./JMToken.sol\";\nimport \"./VJMToken.sol\";\nimport \"@openzeppelin/contracts/utils/math/Math.sol\";\nimport \"@uniswap/lib/contracts/libraries/Babylonian.sol\";\nimport \"@openzeppelin/contracts/access/Ownable.sol\";\n\n// indexed ->        search ,    \n// unchecked ->      overflow   ->        \n//                \n//    unchecked     \n/*\n      (Swap)\n      \n    JMT token = 10000 \n    ETH token = 20\n     LiquidityPool Reserve   ,    \n    A 100 JMT  ETH   \n       10000*20 = 200000  \n     A JMT100   \n      10100  10100*20 = 202000  \n    \n        200000 \n    202000  JMT ETH   \n     \n      x * 10100 = 200000    ( x  eth  )\n     x   x = 200000/10100    \n    x = 19.8019082 eth        (eth)reserve - x = 0.921980918 \n       eth 0.921980918  (   ) \n*/\ncontract LiquidityPool is Ownable {\n    event LiquidityAdded(address indexed _account);\n    event LiquidityRemoved(address indexed _account);\n    event TradedTokens(address indexed _account,uint256 _ethTraded,uint256 _jmtTraded);\n    event Claimed(address indexed _account, uint256 _amount);\n\n    struct DepositeInfo {        \n        uint256 claimedTime; \n        uint256 amount; \n        uint32 state;\n    }\n\n\n    LPT lpToken; //  lp  \n    JMToken jmtToken;\n    VJMToken vJmt;\n    \n    uint256 ethReserve; //   \n    uint256 jmtReserve;  //  jmt \n    uint32 lastBlockTimestamp;\n    uint256 totalReserve; //   \n    uint256 public decimals = 10**18;\n    uint32 public APR = 571; // \n    uint32 private yearsDuration = 31536000;\n    uint32 private dayDuration = 86400;\n    mapping(address => DepositeInfo) public depositeInfos; \n\n    constructor () {\n        ethReserve=0;\n        jmtReserve=0;\n    }\n\n    modifier JonMatngOnly() {\n        require(msg.sender == address(jmtToken), \"JonMatng_ONLY\");\n        _;\n    }\n    // set funded reserve \n    function setFundedReserve() JonMatngOnly public {\n        require(ethReserve != 0 && jmtReserve != 0,\"RESERVE AMOUNT EMPTY\");\n        totalReserve = ethReserve*jmtReserve;\n    }\n\n    // lpt   \n    function setLPTAddress(LPT _lpToken) external onlyOwner {\n        require(address(lpToken) == address(0), \"WRITE_ONCE\");\n        lpToken = _lpToken;\n    }\n\n    //  jmt   \n    function setJmtCoinAddress(JMToken _jmtToken) external onlyOwner {\n        require(address(jmtToken) == address(0), \"WRITE_ONCE\");\n        jmtToken = _jmtToken;\n    }\n    // vJmt    \n    function setVJMTCoinAddress(VJMToken _vJmt) external onlyOwner(){\n        require(address(vJmt) == address(0), \"WRITE_ONCE\");\n        vJmt = _vJmt;\n    }\n\n    //    \n    function getReserves() external view returns (uint256, uint256) {\n        return (ethReserve, jmtReserve);\n    }\n\n    //pool swap!\n    function swap(address account, uint256 _jmtAmount) external payable {\n        uint256 product = ethReserve * jmtReserve; //  \n        uint256 amountToTransfer;\n        uint256 amountToTake;\n        uint256 totalAmountToTransfer;\n        uint256 Commission = decimals; //\n\n        // jmt -> eth, jmttoken == 0\n        if (msg.value == 0) \n        {\n            uint256 currentJMTBalance = jmtToken.balanceOf(address(this)); //      \n            uint256 _jmtAmountMinusTax = _jmtAmount - ((2 * _jmtAmount) / 100); // (  - ) \n            uint256 addedBalance = jmtReserve + _jmtAmountMinusTax; //  jmt + (  - ) =   \n            //require(addedBalance == currentJMTBalance, \"DID_NOT_TRANSFER\");\n\n            uint256 x = product / (jmtReserve + _jmtAmountMinusTax); //  product   \n            amountToTransfer = ethReserve - x; //   eth \n            amountToTake = (1 * amountToTransfer) / 100; //  \n            totalAmountToTransfer = amountToTransfer - amountToTake; //   -  =  get eth \n\n            //     //  \n            // https://kushgoyal.com/ethereum-solidity-how-use-call-delegatecall/ ->  \n            (bool success, ) = account.call{value: totalAmountToTransfer}(\"\");\n            require(success, \"TRANSFER_FAILED\");\n        } else { // eth -> jmt, jmttoken > 0 msg.value > 0  \n\n            uint256 y = product / (ethReserve + msg.value);\n            amountToTransfer = jmtReserve - y;\n            amountToTake = (1 * amountToTransfer) / 100;\n            totalAmountToTransfer = amountToTransfer - amountToTake;\n\n            jmtToken.transfer(account, totalAmountToTransfer);\n\n            Commission = (totalAmountToTransfer * 10) / 100;\n            vJmt.transfer(account , Commission);\n        }\n        emit TradedTokens(account, msg.value, _jmtAmount);\n        _update();\n    }\n\n    // pool  \n    function deposit(uint256 jmtAmount, address account) external payable \n    {\n        uint256 liquidity; //  \n        uint256 totalSupply = lpToken.totalSupply(); // lp erc\n        uint256 ethAmount = msg.value; //\n\n        if (totalSupply > 0) {\n            liquidity = Math.min(\n                (ethAmount * totalSupply) / ethReserve,\n                (jmtAmount * totalSupply) / jmtReserve\n            );\n        } else { // x\n            liquidity = Babylonian.sqrt(ethAmount * jmtAmount);\n        }\n\n        lpToken.mint(account, liquidity); // transfer user => \n        if(depositeInfos[account].state == 1){\n            uint256 vjmtAomount = (depositeInfos[account].amount * APR / 100) / yearsDuration / dayDuration; \n            uint256 claimableAmount = (block.timestamp - depositeInfos[account].claimedTime) * vjmtAomount;\n            vJmt.transfer(account , claimableAmount * 100);\n        }\n\n        depositeInfos[account] = DepositeInfo({\n            claimedTime: block.timestamp,\n            amount: (depositeInfos[account].amount + liquidity),\n            state: 1 \n        });\n\n        emit LiquidityAdded(account);\n        _update();\n    }\n\n    //lp \n    function withdraw(address account) external \n    {\n        uint256 liquidity = lpToken.balanceOf(account); //  lp   \n        require(liquidity != 0, \"NO_AVAILABLE_TOKENS\");\n\n        uint256 totalSupply = lpToken.totalSupply();\n        //  \n        uint256 ethAmount = (ethReserve * liquidity) / totalSupply;\n        uint256 jmtAmount = (jmtReserve * liquidity) / totalSupply;\n\n        if(depositeInfos[account].state == 1){\n            uint256 vjmtAomount = (depositeInfos[account].amount * APR / 100) / yearsDuration / dayDuration; \n            uint256 claimableAmount = (block.timestamp - depositeInfos[account].claimedTime) * vjmtAomount;\n            vJmt.transfer(account , claimableAmount * 10000);\n            delete depositeInfos[msg.sender];\n        }\n\n        // \n        lpToken.burn(account, liquidity); // account  , lpt   \n\n        //    \n        (bool ethTransferSuccess, ) = account.call{value: ethAmount}(\"\");\n        bool jmtTransferSuccess = jmtToken.transfer(account, jmtAmount);\n\n        require(ethTransferSuccess && jmtTransferSuccess, \"FAILED_TRANSFER\");\n        emit LiquidityRemoved(account);\n        _update();\n    }\n\n    \n    function setDepositeInfo() public {\n        depositeInfos[msg.sender].claimedTime = block.timestamp;\n    }\n\n    // LP \n    function claimReward() external returns (bool){\n        require(depositeInfos[msg.sender].state == 1, \"You are not participated\");\n\n        uint256 stakingDuration = block.timestamp - depositeInfos[msg.sender].claimedTime; //     \n        uint256 persecondAmount = (depositeInfos[msg.sender].amount * APR / 100) / yearsDuration / dayDuration; //   \n        uint256 claimableAmount = persecondAmount * stakingDuration; //  \n\n        vJmt.transfer(msg.sender, claimableAmount * 10000); //vjmt:jmt \n        setDepositeInfo(); //    \n        emit Claimed(msg.sender, claimableAmount);\n        return true;\n    }\n\n    // LP   \n    function claimableReward() public view returns(uint256) \n    {\n        if(depositeInfos[msg.sender].state == 1){\n            uint256 stakingDuration = block.timestamp - depositeInfos[msg.sender].claimedTime; //     \n            uint256 persecondAmount = (depositeInfos[msg.sender].amount * APR / 100) / yearsDuration / dayDuration; //   \n            uint256 claimableAmount = persecondAmount * stakingDuration; //  \n            return (claimableAmount * 100);\n        }else{\n            return 0;\n        }\n    }\n\n    // ,     \n    function _update() private \n    {\n        // uint32 blockTimestamp = uint32(block.timestamp % 2**32);\n        // uint32 timeElapsed;\n        // unchecked { //     \n        //     timeElapsed = blockTimestamp - lastBlockTimestamp; \n        // }\n        // if (timeElapsed > 0) {\n            ethReserve = address(this).balance; //    eth \n            jmtReserve = jmtToken.balanceOf(address(this)); // jmt    \n        //     lastBlockTimestamp = blockTimestamp; \n        // }\n    }\n}",
  "sourcePath": "/Users/rokrokss/workspace/hyein/BEB-05-JMT/contract/contracts/LiquidityPool.sol",
  "compiler": {
    "name": "solc",
    "version": "0.8.17+commit.8df45f5f.Emscripten.clang"
  },
  "schemaVersion": "3.4.10",
  "updatedAt": "2022-09-27T04:27:20.006Z",
  "networkType": "ethereum",
  "devdoc": {
    "kind": "dev",
    "methods": {
      "owner()": {
        "details": "Returns the address of the current owner."
      },
      "renounceOwnership()": {
        "details": "Leaves the contract without owner. It will not be possible to call `onlyOwner` functions anymore. Can only be called by the current owner. NOTE: Renouncing ownership will leave the contract without an owner, thereby removing any functionality that is only available to the owner."
      },
      "transferOwnership(address)": {
        "details": "Transfers ownership of the contract to a new account (`newOwner`). Can only be called by the current owner."
      }
    },
    "version": 1
  },
  "userdoc": {
    "kind": "user",
    "methods": {},
    "version": 1
  }
}