{
  "contractName": "MapleItems",
  "abi": [
    {
      "inputs": [
        {
          "internalType": "address",
          "name": "_marketAddress",
          "type": "address"
        },
        {
          "internalType": "address",
          "name": "_tokenContractAddress",
          "type": "address"
        },
        {
          "internalType": "address payable",
          "name": "_treasuryWallet",
          "type": "address"
        }
      ],
      "stateMutability": "nonpayable",
      "type": "constructor"
    },
    {
      "anonymous": false,
      "inputs": [
        {
          "indexed": true,
          "internalType": "address",
          "name": "account",
          "type": "address"
        },
        {
          "indexed": true,
          "internalType": "address",
          "name": "operator",
          "type": "address"
        },
        {
          "indexed": false,
          "internalType": "bool",
          "name": "approved",
          "type": "bool"
        }
      ],
      "name": "ApprovalForAll",
      "type": "event"
    },
    {
      "anonymous": false,
      "inputs": [
        {
          "indexed": true,
          "internalType": "address",
          "name": "previousOwner",
          "type": "address"
        },
        {
          "indexed": true,
          "internalType": "address",
          "name": "newOwner",
          "type": "address"
        }
      ],
      "name": "OwnershipTransferred",
      "type": "event"
    },
    {
      "anonymous": false,
      "inputs": [
        {
          "indexed": false,
          "internalType": "bool",
          "name": "result",
          "type": "bool"
        }
      ],
      "name": "Rewarded",
      "type": "event"
    },
    {
      "anonymous": false,
      "inputs": [
        {
          "indexed": true,
          "internalType": "address",
          "name": "operator",
          "type": "address"
        },
        {
          "indexed": true,
          "internalType": "address",
          "name": "from",
          "type": "address"
        },
        {
          "indexed": true,
          "internalType": "address",
          "name": "to",
          "type": "address"
        },
        {
          "indexed": false,
          "internalType": "uint256[]",
          "name": "ids",
          "type": "uint256[]"
        },
        {
          "indexed": false,
          "internalType": "uint256[]",
          "name": "values",
          "type": "uint256[]"
        }
      ],
      "name": "TransferBatch",
      "type": "event"
    },
    {
      "anonymous": false,
      "inputs": [
        {
          "indexed": true,
          "internalType": "address",
          "name": "operator",
          "type": "address"
        },
        {
          "indexed": true,
          "internalType": "address",
          "name": "from",
          "type": "address"
        },
        {
          "indexed": true,
          "internalType": "address",
          "name": "to",
          "type": "address"
        },
        {
          "indexed": false,
          "internalType": "uint256",
          "name": "id",
          "type": "uint256"
        },
        {
          "indexed": false,
          "internalType": "uint256",
          "name": "value",
          "type": "uint256"
        }
      ],
      "name": "TransferSingle",
      "type": "event"
    },
    {
      "anonymous": false,
      "inputs": [
        {
          "indexed": false,
          "internalType": "string",
          "name": "value",
          "type": "string"
        },
        {
          "indexed": true,
          "internalType": "uint256",
          "name": "id",
          "type": "uint256"
        }
      ],
      "name": "URI",
      "type": "event"
    },
    {
      "anonymous": false,
      "inputs": [
        {
          "indexed": false,
          "internalType": "bool",
          "name": "result",
          "type": "bool"
        },
        {
          "indexed": false,
          "internalType": "uint256",
          "name": "weaponId",
          "type": "uint256"
        }
      ],
      "name": "Upgraded",
      "type": "event"
    },
    {
      "inputs": [],
      "name": "BOW0",
      "outputs": [
        {
          "internalType": "uint256",
          "name": "",
          "type": "uint256"
        }
      ],
      "stateMutability": "view",
      "type": "function",
      "constant": true
    },
    {
      "inputs": [],
      "name": "BOW1",
      "outputs": [
        {
          "internalType": "uint256",
          "name": "",
          "type": "uint256"
        }
      ],
      "stateMutability": "view",
      "type": "function",
      "constant": true
    },
    {
      "inputs": [],
      "name": "BOW2",
      "outputs": [
        {
          "internalType": "uint256",
          "name": "",
          "type": "uint256"
        }
      ],
      "stateMutability": "view",
      "type": "function",
      "constant": true
    },
    {
      "inputs": [],
      "name": "BOW3",
      "outputs": [
        {
          "internalType": "uint256",
          "name": "",
          "type": "uint256"
        }
      ],
      "stateMutability": "view",
      "type": "function",
      "constant": true
    },
    {
      "inputs": [],
      "name": "BOW4",
      "outputs": [
        {
          "internalType": "uint256",
          "name": "",
          "type": "uint256"
        }
      ],
      "stateMutability": "view",
      "type": "function",
      "constant": true
    },
    {
      "inputs": [],
      "name": "BOW5",
      "outputs": [
        {
          "internalType": "uint256",
          "name": "",
          "type": "uint256"
        }
      ],
      "stateMutability": "view",
      "type": "function",
      "constant": true
    },
    {
      "inputs": [],
      "name": "BOW6",
      "outputs": [
        {
          "internalType": "uint256",
          "name": "",
          "type": "uint256"
        }
      ],
      "stateMutability": "view",
      "type": "function",
      "constant": true
    },
    {
      "inputs": [],
      "name": "BOW7",
      "outputs": [
        {
          "internalType": "uint256",
          "name": "",
          "type": "uint256"
        }
      ],
      "stateMutability": "view",
      "type": "function",
      "constant": true
    },
    {
      "inputs": [],
      "name": "BOW8",
      "outputs": [
        {
          "internalType": "uint256",
          "name": "",
          "type": "uint256"
        }
      ],
      "stateMutability": "view",
      "type": "function",
      "constant": true
    },
    {
      "inputs": [],
      "name": "BOW9",
      "outputs": [
        {
          "internalType": "uint256",
          "name": "",
          "type": "uint256"
        }
      ],
      "stateMutability": "view",
      "type": "function",
      "constant": true
    },
    {
      "inputs": [],
      "name": "POLEARM0",
      "outputs": [
        {
          "internalType": "uint256",
          "name": "",
          "type": "uint256"
        }
      ],
      "stateMutability": "view",
      "type": "function",
      "constant": true
    },
    {
      "inputs": [],
      "name": "POLEARM1",
      "outputs": [
        {
          "internalType": "uint256",
          "name": "",
          "type": "uint256"
        }
      ],
      "stateMutability": "view",
      "type": "function",
      "constant": true
    },
    {
      "inputs": [],
      "name": "POLEARM2",
      "outputs": [
        {
          "internalType": "uint256",
          "name": "",
          "type": "uint256"
        }
      ],
      "stateMutability": "view",
      "type": "function",
      "constant": true
    },
    {
      "inputs": [],
      "name": "POLEARM3",
      "outputs": [
        {
          "internalType": "uint256",
          "name": "",
          "type": "uint256"
        }
      ],
      "stateMutability": "view",
      "type": "function",
      "constant": true
    },
    {
      "inputs": [],
      "name": "POLEARM4",
      "outputs": [
        {
          "internalType": "uint256",
          "name": "",
          "type": "uint256"
        }
      ],
      "stateMutability": "view",
      "type": "function",
      "constant": true
    },
    {
      "inputs": [],
      "name": "POLEARM5",
      "outputs": [
        {
          "internalType": "uint256",
          "name": "",
          "type": "uint256"
        }
      ],
      "stateMutability": "view",
      "type": "function",
      "constant": true
    },
    {
      "inputs": [],
      "name": "POLEARM6",
      "outputs": [
        {
          "internalType": "uint256",
          "name": "",
          "type": "uint256"
        }
      ],
      "stateMutability": "view",
      "type": "function",
      "constant": true
    },
    {
      "inputs": [],
      "name": "POLEARM7",
      "outputs": [
        {
          "internalType": "uint256",
          "name": "",
          "type": "uint256"
        }
      ],
      "stateMutability": "view",
      "type": "function",
      "constant": true
    },
    {
      "inputs": [],
      "name": "POLEARM8",
      "outputs": [
        {
          "internalType": "uint256",
          "name": "",
          "type": "uint256"
        }
      ],
      "stateMutability": "view",
      "type": "function",
      "constant": true
    },
    {
      "inputs": [],
      "name": "POLEARM9",
      "outputs": [
        {
          "internalType": "uint256",
          "name": "",
          "type": "uint256"
        }
      ],
      "stateMutability": "view",
      "type": "function",
      "constant": true
    },
    {
      "inputs": [],
      "name": "SCROLL10",
      "outputs": [
        {
          "internalType": "uint256",
          "name": "",
          "type": "uint256"
        }
      ],
      "stateMutability": "view",
      "type": "function",
      "constant": true
    },
    {
      "inputs": [],
      "name": "SCROLL100",
      "outputs": [
        {
          "internalType": "uint256",
          "name": "",
          "type": "uint256"
        }
      ],
      "stateMutability": "view",
      "type": "function",
      "constant": true
    },
    {
      "inputs": [],
      "name": "SCROLL30",
      "outputs": [
        {
          "internalType": "uint256",
          "name": "",
          "type": "uint256"
        }
      ],
      "stateMutability": "view",
      "type": "function",
      "constant": true
    },
    {
      "inputs": [],
      "name": "SCROLL60",
      "outputs": [
        {
          "internalType": "uint256",
          "name": "",
          "type": "uint256"
        }
      ],
      "stateMutability": "view",
      "type": "function",
      "constant": true
    },
    {
      "inputs": [],
      "name": "SCROLL90",
      "outputs": [
        {
          "internalType": "uint256",
          "name": "",
          "type": "uint256"
        }
      ],
      "stateMutability": "view",
      "type": "function",
      "constant": true
    },
    {
      "inputs": [],
      "name": "STAFF0",
      "outputs": [
        {
          "internalType": "uint256",
          "name": "",
          "type": "uint256"
        }
      ],
      "stateMutability": "view",
      "type": "function",
      "constant": true
    },
    {
      "inputs": [],
      "name": "STAFF1",
      "outputs": [
        {
          "internalType": "uint256",
          "name": "",
          "type": "uint256"
        }
      ],
      "stateMutability": "view",
      "type": "function",
      "constant": true
    },
    {
      "inputs": [],
      "name": "STAFF2",
      "outputs": [
        {
          "internalType": "uint256",
          "name": "",
          "type": "uint256"
        }
      ],
      "stateMutability": "view",
      "type": "function",
      "constant": true
    },
    {
      "inputs": [],
      "name": "STAFF3",
      "outputs": [
        {
          "internalType": "uint256",
          "name": "",
          "type": "uint256"
        }
      ],
      "stateMutability": "view",
      "type": "function",
      "constant": true
    },
    {
      "inputs": [],
      "name": "STAFF4",
      "outputs": [
        {
          "internalType": "uint256",
          "name": "",
          "type": "uint256"
        }
      ],
      "stateMutability": "view",
      "type": "function",
      "constant": true
    },
    {
      "inputs": [],
      "name": "STAFF5",
      "outputs": [
        {
          "internalType": "uint256",
          "name": "",
          "type": "uint256"
        }
      ],
      "stateMutability": "view",
      "type": "function",
      "constant": true
    },
    {
      "inputs": [],
      "name": "STAFF6",
      "outputs": [
        {
          "internalType": "uint256",
          "name": "",
          "type": "uint256"
        }
      ],
      "stateMutability": "view",
      "type": "function",
      "constant": true
    },
    {
      "inputs": [],
      "name": "STAFF7",
      "outputs": [
        {
          "internalType": "uint256",
          "name": "",
          "type": "uint256"
        }
      ],
      "stateMutability": "view",
      "type": "function",
      "constant": true
    },
    {
      "inputs": [],
      "name": "STAFF8",
      "outputs": [
        {
          "internalType": "uint256",
          "name": "",
          "type": "uint256"
        }
      ],
      "stateMutability": "view",
      "type": "function",
      "constant": true
    },
    {
      "inputs": [],
      "name": "STAFF9",
      "outputs": [
        {
          "internalType": "uint256",
          "name": "",
          "type": "uint256"
        }
      ],
      "stateMutability": "view",
      "type": "function",
      "constant": true
    },
    {
      "inputs": [],
      "name": "SWORD0",
      "outputs": [
        {
          "internalType": "uint256",
          "name": "",
          "type": "uint256"
        }
      ],
      "stateMutability": "view",
      "type": "function",
      "constant": true
    },
    {
      "inputs": [],
      "name": "SWORD1",
      "outputs": [
        {
          "internalType": "uint256",
          "name": "",
          "type": "uint256"
        }
      ],
      "stateMutability": "view",
      "type": "function",
      "constant": true
    },
    {
      "inputs": [],
      "name": "SWORD2",
      "outputs": [
        {
          "internalType": "uint256",
          "name": "",
          "type": "uint256"
        }
      ],
      "stateMutability": "view",
      "type": "function",
      "constant": true
    },
    {
      "inputs": [],
      "name": "SWORD3",
      "outputs": [
        {
          "internalType": "uint256",
          "name": "",
          "type": "uint256"
        }
      ],
      "stateMutability": "view",
      "type": "function",
      "constant": true
    },
    {
      "inputs": [],
      "name": "SWORD4",
      "outputs": [
        {
          "internalType": "uint256",
          "name": "",
          "type": "uint256"
        }
      ],
      "stateMutability": "view",
      "type": "function",
      "constant": true
    },
    {
      "inputs": [],
      "name": "SWORD5",
      "outputs": [
        {
          "internalType": "uint256",
          "name": "",
          "type": "uint256"
        }
      ],
      "stateMutability": "view",
      "type": "function",
      "constant": true
    },
    {
      "inputs": [],
      "name": "SWORD6",
      "outputs": [
        {
          "internalType": "uint256",
          "name": "",
          "type": "uint256"
        }
      ],
      "stateMutability": "view",
      "type": "function",
      "constant": true
    },
    {
      "inputs": [],
      "name": "SWORD7",
      "outputs": [
        {
          "internalType": "uint256",
          "name": "",
          "type": "uint256"
        }
      ],
      "stateMutability": "view",
      "type": "function",
      "constant": true
    },
    {
      "inputs": [],
      "name": "SWORD8",
      "outputs": [
        {
          "internalType": "uint256",
          "name": "",
          "type": "uint256"
        }
      ],
      "stateMutability": "view",
      "type": "function",
      "constant": true
    },
    {
      "inputs": [],
      "name": "SWORD9",
      "outputs": [
        {
          "internalType": "uint256",
          "name": "",
          "type": "uint256"
        }
      ],
      "stateMutability": "view",
      "type": "function",
      "constant": true
    },
    {
      "inputs": [
        {
          "internalType": "address",
          "name": "account",
          "type": "address"
        },
        {
          "internalType": "uint256",
          "name": "id",
          "type": "uint256"
        }
      ],
      "name": "balanceOf",
      "outputs": [
        {
          "internalType": "uint256",
          "name": "",
          "type": "uint256"
        }
      ],
      "stateMutability": "view",
      "type": "function",
      "constant": true
    },
    {
      "inputs": [
        {
          "internalType": "address[]",
          "name": "accounts",
          "type": "address[]"
        },
        {
          "internalType": "uint256[]",
          "name": "ids",
          "type": "uint256[]"
        }
      ],
      "name": "balanceOfBatch",
      "outputs": [
        {
          "internalType": "uint256[]",
          "name": "",
          "type": "uint256[]"
        }
      ],
      "stateMutability": "view",
      "type": "function",
      "constant": true
    },
    {
      "inputs": [
        {
          "internalType": "address",
          "name": "account",
          "type": "address"
        },
        {
          "internalType": "uint256",
          "name": "id",
          "type": "uint256"
        },
        {
          "internalType": "uint256",
          "name": "value",
          "type": "uint256"
        }
      ],
      "name": "burn",
      "outputs": [],
      "stateMutability": "nonpayable",
      "type": "function"
    },
    {
      "inputs": [
        {
          "internalType": "address",
          "name": "account",
          "type": "address"
        },
        {
          "internalType": "uint256[]",
          "name": "ids",
          "type": "uint256[]"
        },
        {
          "internalType": "uint256[]",
          "name": "values",
          "type": "uint256[]"
        }
      ],
      "name": "burnBatch",
      "outputs": [],
      "stateMutability": "nonpayable",
      "type": "function"
    },
    {
      "inputs": [
        {
          "internalType": "uint256",
          "name": "id",
          "type": "uint256"
        }
      ],
      "name": "exists",
      "outputs": [
        {
          "internalType": "bool",
          "name": "",
          "type": "bool"
        }
      ],
      "stateMutability": "view",
      "type": "function",
      "constant": true
    },
    {
      "inputs": [
        {
          "internalType": "address",
          "name": "account",
          "type": "address"
        },
        {
          "internalType": "address",
          "name": "operator",
          "type": "address"
        }
      ],
      "name": "isApprovedForAll",
      "outputs": [
        {
          "internalType": "bool",
          "name": "",
          "type": "bool"
        }
      ],
      "stateMutability": "view",
      "type": "function",
      "constant": true
    },
    {
      "inputs": [],
      "name": "owner",
      "outputs": [
        {
          "internalType": "address",
          "name": "",
          "type": "address"
        }
      ],
      "stateMutability": "view",
      "type": "function",
      "constant": true
    },
    {
      "inputs": [],
      "name": "renounceOwnership",
      "outputs": [],
      "stateMutability": "nonpayable",
      "type": "function"
    },
    {
      "inputs": [
        {
          "internalType": "address",
          "name": "from",
          "type": "address"
        },
        {
          "internalType": "address",
          "name": "to",
          "type": "address"
        },
        {
          "internalType": "uint256[]",
          "name": "ids",
          "type": "uint256[]"
        },
        {
          "internalType": "uint256[]",
          "name": "amounts",
          "type": "uint256[]"
        },
        {
          "internalType": "bytes",
          "name": "data",
          "type": "bytes"
        }
      ],
      "name": "safeBatchTransferFrom",
      "outputs": [],
      "stateMutability": "nonpayable",
      "type": "function"
    },
    {
      "inputs": [
        {
          "internalType": "address",
          "name": "from",
          "type": "address"
        },
        {
          "internalType": "address",
          "name": "to",
          "type": "address"
        },
        {
          "internalType": "uint256",
          "name": "id",
          "type": "uint256"
        },
        {
          "internalType": "uint256",
          "name": "amount",
          "type": "uint256"
        },
        {
          "internalType": "bytes",
          "name": "data",
          "type": "bytes"
        }
      ],
      "name": "safeTransferFrom",
      "outputs": [],
      "stateMutability": "nonpayable",
      "type": "function"
    },
    {
      "inputs": [
        {
          "internalType": "address",
          "name": "operator",
          "type": "address"
        },
        {
          "internalType": "bool",
          "name": "approved",
          "type": "bool"
        }
      ],
      "name": "setApprovalForAll",
      "outputs": [],
      "stateMutability": "nonpayable",
      "type": "function"
    },
    {
      "inputs": [
        {
          "internalType": "bytes4",
          "name": "interfaceId",
          "type": "bytes4"
        }
      ],
      "name": "supportsInterface",
      "outputs": [
        {
          "internalType": "bool",
          "name": "",
          "type": "bool"
        }
      ],
      "stateMutability": "view",
      "type": "function",
      "constant": true
    },
    {
      "inputs": [
        {
          "internalType": "uint256",
          "name": "id",
          "type": "uint256"
        }
      ],
      "name": "totalSupply",
      "outputs": [
        {
          "internalType": "uint256",
          "name": "",
          "type": "uint256"
        }
      ],
      "stateMutability": "view",
      "type": "function",
      "constant": true
    },
    {
      "inputs": [
        {
          "internalType": "address",
          "name": "newOwner",
          "type": "address"
        }
      ],
      "name": "transferOwnership",
      "outputs": [],
      "stateMutability": "nonpayable",
      "type": "function"
    },
    {
      "inputs": [],
      "name": "treasuryWallet",
      "outputs": [
        {
          "internalType": "address payable",
          "name": "",
          "type": "address"
        }
      ],
      "stateMutability": "view",
      "type": "function",
      "constant": true
    },
    {
      "inputs": [
        {
          "internalType": "uint256",
          "name": "_tokenid",
          "type": "uint256"
        }
      ],
      "name": "uri",
      "outputs": [
        {
          "internalType": "string",
          "name": "",
          "type": "string"
        }
      ],
      "stateMutability": "pure",
      "type": "function",
      "constant": true
    },
    {
      "inputs": [
        {
          "internalType": "string",
          "name": "newuri",
          "type": "string"
        }
      ],
      "name": "setURI",
      "outputs": [],
      "stateMutability": "nonpayable",
      "type": "function"
    },
    {
      "inputs": [],
      "name": "mintFirstWeapon",
      "outputs": [],
      "stateMutability": "nonpayable",
      "type": "function"
    },
    {
      "inputs": [],
      "name": "mintRandomWeapon",
      "outputs": [
        {
          "internalType": "uint256",
          "name": "",
          "type": "uint256"
        }
      ],
      "stateMutability": "nonpayable",
      "type": "function"
    },
    {
      "inputs": [],
      "name": "mintScroll",
      "outputs": [],
      "stateMutability": "nonpayable",
      "type": "function"
    },
    {
      "inputs": [
        {
          "internalType": "uint256",
          "name": "scrollId",
          "type": "uint256"
        },
        {
          "internalType": "uint256",
          "name": "weaponId",
          "type": "uint256"
        }
      ],
      "name": "upgrade",
      "outputs": [],
      "stateMutability": "nonpayable",
      "type": "function"
    },
    {
      "inputs": [
        {
          "internalType": "address",
          "name": "to",
          "type": "address"
        },
        {
          "internalType": "uint256[]",
          "name": "ids",
          "type": "uint256[]"
        },
        {
          "internalType": "uint256[]",
          "name": "amounts",
          "type": "uint256[]"
        },
        {
          "internalType": "bytes",
          "name": "data",
          "type": "bytes"
        }
      ],
      "name": "mintBatch",
      "outputs": [],
      "stateMutability": "nonpayable",
      "type": "function"
    },
    {
      "inputs": [
        {
          "internalType": "address",
          "name": "sender",
          "type": "address"
        }
      ],
      "name": "balanceCheck",
      "outputs": [
        {
          "internalType": "uint256[][]",
          "name": "",
          "type": "uint256[][]"
        }
      ],
      "stateMutability": "nonpayable",
      "type": "function"
    },
    {
      "inputs": [],
      "name": "randRewardScroll",
      "outputs": [],
      "stateMutability": "nonpayable",
      "type": "function"
    }
  ],
  "bytecode": "0x6080604052670de0b6b3a76400006006556000600a556046600b553480156200002757600080fd5b5060405162004b7b38038062004b7b8339810160408190526200004a9162001202565b6040518060600160405280603a815260200162004b21603a91396200006f81620000fd565b506200007b336200010f565b60016008556002600955601080546001600160a01b0319166001600160a01b038516179055620000ab8262000161565b50620000b6620001a6565b620000c062000d1c565b620000ca62000d85565b620000d462001010565b600780546001600160a01b0319166001600160a01b039290921691909117905550620013ef9050565b60026200010b8282620012fb565b5050565b600380546001600160a01b038381166001600160a01b0319831681179093556040519116919082907f8be0079c531659141344cd1fd0a4f28419497f9722a3daafe3b4186f6b6457e090600090a35050565b60006200016d6200118b565b6001600160a01b0382166200018157600080fd5b50600580546001600160a01b0383166001600160a01b03199091161790556001919050565b620001b06200118b565b60005b6005811015620001f357600c8054600181018255600091825260008051602062004b01833981519152015580620001ea81620013c7565b915050620001b3565b5060005b60098110156200023957600c80546001818101835560009290925260008051602062004b018339815191520155806200023081620013c7565b915050620001f7565b5060005b60088110156200028257600c8054600181018255600091909152600260008051602062004b0183398151915290910155806200027981620013c7565b9150506200023d565b5060005b6007811015620002cb57600c8054600181018255600091909152600360008051602062004b018339815191529091015580620002c281620013c7565b91505062000286565b5060005b60068110156200031457600c8054600181018255600091909152600460008051602062004b0183398151915290910155806200030b81620013c7565b915050620002cf565b5060005b60058110156200035d57600c8054600181018255600091909152600560008051602062004b0183398151915290910155806200035481620013c7565b91505062000318565b5060005b6004811015620003a657600c8054600181018255600091909152600660008051602062004b0183398151915290910155806200039d81620013c7565b91505062000361565b5060005b6003811015620003ef57600c8054600181018255600091909152600760008051602062004b018339815191529091015580620003e681620013c7565b915050620003aa565b5060005b60028110156200043857600c8054600181018255600091909152600860008051602062004b0183398151915290910155806200042f81620013c7565b915050620003f3565b5060005b60018110156200048157600c8054600181018255600091909152600960008051602062004b0183398151915290910155806200047881620013c7565b9150506200043c565b5060005b6005811015620004ca57600c8054600181018255600091909152606460008051602062004b018339815191529091015580620004c181620013c7565b91505062000485565b5060005b60098110156200051357600c8054600181018255600091909152606560008051602062004b0183398151915290910155806200050a81620013c7565b915050620004ce565b5060005b60088110156200055c57600c8054600181018255600091909152606660008051602062004b0183398151915290910155806200055381620013c7565b91505062000517565b5060005b6007811015620005a557600c8054600181018255600091909152606760008051602062004b0183398151915290910155806200059c81620013c7565b91505062000560565b5060005b6006811015620005ee57600c8054600181018255600091909152606860008051602062004b018339815191529091015580620005e581620013c7565b915050620005a9565b5060005b60058110156200063757600c8054600181018255600091909152606960008051602062004b0183398151915290910155806200062e81620013c7565b915050620005f2565b5060005b60048110156200068057600c8054600181018255600091909152606a60008051602062004b0183398151915290910155806200067781620013c7565b9150506200063b565b5060005b6003811015620006c957600c8054600181018255600091909152606b60008051602062004b018339815191529091015580620006c081620013c7565b91505062000684565b5060005b60028110156200071257600c8054600181018255600091909152606c60008051602062004b0183398151915290910155806200070981620013c7565b915050620006cd565b5060005b60018110156200075b57600c8054600181018255600091909152606d60008051602062004b0183398151915290910155806200075281620013c7565b91505062000716565b5060005b6005811015620007a457600c805460018101825560009190915260c860008051602062004b0183398151915290910155806200079b81620013c7565b9150506200075f565b5060005b6009811015620007ed57600c805460018101825560009190915260c960008051602062004b018339815191529091015580620007e481620013c7565b915050620007a8565b5060005b60088110156200083657600c805460018101825560009190915260ca60008051602062004b0183398151915290910155806200082d81620013c7565b915050620007f1565b5060005b60078110156200087f57600c805460018101825560009190915260cb60008051602062004b0183398151915290910155806200087681620013c7565b9150506200083a565b5060005b6006811015620008c857600c805460018101825560009190915260cc60008051602062004b018339815191529091015580620008bf81620013c7565b91505062000883565b5060005b60058110156200091157600c805460018101825560009190915260cd60008051602062004b0183398151915290910155806200090881620013c7565b915050620008cc565b5060005b60048110156200095a57600c805460018101825560009190915260ce60008051602062004b0183398151915290910155806200095181620013c7565b91505062000915565b5060005b6003811015620009a357600c805460018101825560009190915260cf60008051602062004b0183398151915290910155806200099a81620013c7565b9150506200095e565b5060005b6002811015620009ec57600c805460018101825560009190915260d060008051602062004b018339815191529091015580620009e381620013c7565b915050620009a7565b5060005b600181101562000a3557600c805460018101825560009190915260d160008051602062004b01833981519152909101558062000a2c81620013c7565b915050620009f0565b5060005b600581101562000a7f57600c805460018101825560009190915261012c60008051602062004b01833981519152909101558062000a7681620013c7565b91505062000a39565b5060005b600981101562000ac957600c805460018101825560009190915261012d60008051602062004b01833981519152909101558062000ac081620013c7565b91505062000a83565b5060005b600881101562000b1357600c805460018101825560009190915261012e60008051602062004b01833981519152909101558062000b0a81620013c7565b91505062000acd565b5060005b600781101562000b5d57600c805460018101825560009190915261012f60008051602062004b01833981519152909101558062000b5481620013c7565b91505062000b17565b5060005b600681101562000ba757600c805460018101825560009190915261013060008051602062004b01833981519152909101558062000b9e81620013c7565b91505062000b61565b5060005b600581101562000bf157600c805460018101825560009190915261013160008051602062004b01833981519152909101558062000be881620013c7565b91505062000bab565b5060005b600481101562000c3b57600c805460018101825560009190915261013260008051602062004b01833981519152909101558062000c3281620013c7565b91505062000bf5565b5060005b600381101562000c8557600c805460018101825560009190915261013360008051602062004b01833981519152909101558062000c7c81620013c7565b91505062000c3f565b5060005b600281101562000ccf57600c805460018101825560009190915261013460008051602062004b01833981519152909101558062000cc681620013c7565b91505062000c89565b5060005b600181101562000d1957600c805460018101825560009190915261013560008051602062004b01833981519152909101558062000d1081620013c7565b91505062000cd3565b50565b62000d266200118b565b600d80546001818101835560008381527fd7b6990105719101dabeb77144f2a3385c8033acd3af97e9423a695e81ad1eb592830155825480820184556064908301558254808201845560c890830155825490810190925561012c910155565b62000d8f6200118b565b600e80546001818101835560008381527fbb7b4a454dc3493923482f07822329ed19e8244eff582cc204f8554c3620c3fd92830155825480820184558201819055825480820184556002908301558254808201845560039083015582548082018455600490830155825480820184556005908301558254808201845560069083015582548082018455600790830155825480820184556008908301558254808201845560099083015582548082018455606490830155825480820184556065908301558254808201845560669083015582548082018455606790830155825480820184556068908301558254808201845560699083015582548082018455606a9083015582548082018455606b9083015582548082018455606c9083015582548082018455606d908301558254808201845560c8908301558254808201845560c9908301558254808201845560ca908301558254808201845560cb908301558254808201845560cc908301558254808201845560cd908301558254808201845560ce908301558254808201845560cf908301558254808201845560d0908301558254808201845560d1908301558254808201845561012c908301558254808201845561012d908301558254808201845561012e908301558254808201845561012f9083015582548082018455610130908301558254808201845561013190830155825480820184556101329083015582548082018455610133908301558254808201845561013490830155825480820184556101359083015582548082018455610190908301558254808201845561019190830155825480820184556101929083015582548082018455610193908301558254908101909255610194910155565b6200101a6200118b565b60005b60018110156200106357600f805460018101825560009190915261019060008051602062004b5b83398151915290910155806200105a81620013c7565b9150506200101d565b5060005b6002811015620010ad57600f805460018101825560009190915261019160008051602062004b5b8339815191529091015580620010a481620013c7565b91505062001067565b5060005b6004811015620010f757600f805460018101825560009190915261019260008051602062004b5b8339815191529091015580620010ee81620013c7565b915050620010b1565b5060005b60068110156200114157600f805460018101825560009190915261019360008051602062004b5b83398151915290910155806200113881620013c7565b915050620010fb565b5060005b600781101562000d1957600f805460018101825560009190915261019460008051602062004b5b83398151915290910155806200118281620013c7565b91505062001145565b6003546001600160a01b03163314620011ea5760405162461bcd60e51b815260206004820181905260248201527f4f776e61626c653a2063616c6c6572206973206e6f7420746865206f776e6572604482015260640160405180910390fd5b565b6001600160a01b038116811462000d1957600080fd5b6000806000606084860312156200121857600080fd5b83516200122581620011ec565b60208501519093506200123881620011ec565b60408501519092506200124b81620011ec565b809150509250925092565b634e487b7160e01b600052604160045260246000fd5b600181811c908216806200128157607f821691505b602082108103620012a257634e487b7160e01b600052602260045260246000fd5b50919050565b601f821115620012f657600081815260208120601f850160051c81016020861015620012d15750805b601f850160051c820191505b81811015620012f257828155600101620012dd565b5050505b505050565b81516001600160401b0381111562001317576200131762001256565b6200132f816200132884546200126c565b84620012a8565b602080601f8311600181146200136757600084156200134e5750858301515b600019600386901b1c1916600185901b178555620012f2565b600085815260208120601f198616915b82811015620013985788860151825594840194600190910190840162001377565b5085821015620013b75787850151600019600388901b60f8161c191681555b5050505050600190811b01905550565b600060018201620013e857634e487b7160e01b600052601160045260246000fd5b5060010190565b61370280620013ff6000396000f3fe608060405234801561001057600080fd5b50600436106104565760003560e01c80638da5cb5b11610250578063d0faf49e11610150578063ef65a593116100c8578063f2fde38b11610097578063f5dce5b91161007c578063f5dce5b9146107f0578063fdce57bd146107f9578063fe36d6081461080257600080fd5b8063f2fde38b146107ca578063f5298aca146107dd57600080fd5b8063ef65a5931461079e578063f14a3d56146107a6578063f18acf11146107af578063f242432a146107b757600080fd5b8063d82acc971161011f578063e7b5be3911610104578063e7b5be3914610752578063e985e9c51461075a578063ea3875ca1461079657600080fd5b8063d82acc9714610740578063dc4feb471461074957600080fd5b8063d0faf49e1461071f578063d656efb514610727578063d78de1a91461072f578063d79c66aa1461073757600080fd5b8063a294ffd3116101e3578063b6a8412b116101b2578063bd85b03911610197578063bd85b039146106ef578063c52f28761461070f578063c9dd779f1461071757600080fd5b8063b6a8412b146106df578063b6c7caad146106e757600080fd5b8063a294ffd3146106a5578063ac6c7771146106ae578063aedd809a146106b7578063afc6c649146106bf57600080fd5b80639e3223141161021f5780639e32231414610679578063a004cbde14610681578063a0fa3f221461068a578063a22cb4651461069257600080fd5b80638da5cb5b146106505780639378d07a1461066157806395425af3146106695780639750463a1461067157600080fd5b80634626402b1161035b57806360baee5d116102ee5780636f9e9b84116102bd5780637b536097116102a25780637b53609714610636578063834f94431461063f578063839863b51461064757600080fd5b80636f9e9b8414610626578063715018a61461062e57600080fd5b806360baee5d146105fb57806367e6ef681461060357806368c5f5b11461060b5780636b20c4541461061357600080fd5b80634f558e791161032a5780634f558e79146105c05780635456e59a146105e25780635f616bb0146105eb5780635ff44df4146105f357600080fd5b80634626402b146105645780634ba466391461058f5780634e1273f4146105975780634f4aabc1146105b757600080fd5b806323bfdcfa116103ee57806332e5794a116103bd578063368ebd7e116103a2578063368ebd7e14610541578063442107e314610549578063451450ec1461055157600080fd5b806332e5794a14610531578063364af5871461053957600080fd5b806323bfdcfa1461050557806328f52d901461050e5780632eb2c2d614610516578063317c55d01461052957600080fd5b80630e89341c1161042a5780630e89341c146104c25780630f068c60146104e25780631f7fdffa146104ea57806321443e20146104fd57600080fd5b8062fdd58e1461045b57806301ffc9a71461048157806302363b60146104a457806302fe5305146104ad575b600080fd5b61046e610469366004612b8e565b61080a565b6040519081526020015b60405180910390f35b61049461048f366004612bce565b6108b6565b6040519015158152602001610478565b61046e61013181565b6104c06104bb366004612c93565b610951565b005b6104d56104d0366004612cdc565b610965565b6040516104789190612d45565b61046e60ca81565b6104c06104f8366004612e0d565b610996565b61046e600581565b61046e61019181565b61046e60ce81565b6104c0610524366004612ea6565b6109b0565b61046e60cc81565b61046e606581565b61046e600981565b61046e606d81565b61046e60c881565b6104c061055f366004612f50565b610a44565b600754610577906001600160a01b031681565b6040516001600160a01b039091168152602001610478565b6104c0610d3a565b6105aa6105a5366004612f72565b610dca565b6040516104789190613078565b61046e61012d81565b6104946105ce366004612cdc565b600090815260046020526040902054151590565b61046e61019481565b61046e606781565b61046e60cf81565b61046e610f08565b61046e606c81565b61046e600781565b6104c061062136600461308b565b6111cb565b61046e600181565b6104c061125b565b61046e61013281565b61046e606a81565b61046e61013081565b6003546001600160a01b0316610577565b61046e60cb81565b61046e60d181565b61046e600381565b61046e600481565b61046e61012e81565b61046e606981565b6104c06106a036600461310d565b61126f565b61046e61012f81565b61046e61013581565b61046e600081565b6106d26106cd366004613144565b61127a565b604051610478919061315f565b6104c0611584565b6104c061164d565b61046e6106fd366004612cdc565b60009081526004602052604090205490565b61046e600881565b61046e606881565b61046e60c981565b61046e606681565b61046e60cd81565b61046e61019081565b61046e61013481565b61046e61019381565b61046e600281565b6104946107683660046131c1565b6001600160a01b03918216600090815260016020908152604080832093909416825291909152205460ff1690565b61046e606481565b61046e60d081565b61046e61012c81565b61046e600681565b6104c06107c53660046131f4565b6116d5565b6104c06107d8366004613144565b611762565b6104c06107eb366004613259565b6117ef565b61046e61019281565b61046e61013381565b61046e606b81565b60006001600160a01b03831661088d5760405162461bcd60e51b815260206004820152602a60248201527f455243313135353a2061646472657373207a65726f206973206e6f742061207660448201527f616c6964206f776e65720000000000000000000000000000000000000000000060648201526084015b60405180910390fd5b506000818152602081815260408083206001600160a01b03861684529091529020545b92915050565b60006001600160e01b031982167fd9b67a2600000000000000000000000000000000000000000000000000000000148061091957506001600160e01b031982167f0e89341c00000000000000000000000000000000000000000000000000000000145b806108b057507f01ffc9a7000000000000000000000000000000000000000000000000000000006001600160e01b03198316146108b0565b61095961187a565b610962816118d4565b50565b6060610970826118e0565b604051602001610980919061328c565b6040516020818303038152906040529050919050565b61099e61187a565b6109aa84848484611a1d565b50505050565b6001600160a01b0385163314806109cc57506109cc8533610768565b610a305760405162461bcd60e51b815260206004820152602f60248201527f455243313135353a2063616c6c6572206973206e6f7420746f6b656e206f776e60448201526e195c881b9bdc88185c1c1c9bdd9959608a1b6064820152608401610884565b610a3d8585858585611bf2565b5050505050565b610a4e338361080a565b600003610aa75760405162461bcd60e51b815260206004820152602160248201527f455243313135353a2074686973207363726f6c6c206973206e6f7420796f75726044820152607360f81b6064820152608401610884565b610ab1338261080a565b600003610b0a5760405162461bcd60e51b815260206004820152602160248201527f455243313135353a207468697320776561706f6e206973206e6f7420796f75726044820152607360f81b6064820152608401610884565b6009610b17606483613333565b10610b8a5760405162461bcd60e51b815260206004820152602660248201527f455243313135353a207468697320776561706f6e2069732066756c6c7920757060448201527f67726164656400000000000000000000000000000000000000000000000000006064820152608401610884565b6000610b97606484613333565b600003610ba657506064610c0a565b610bb1606484613333565b600103610bc05750605a610c0a565b610bcb606484613333565b600203610bda5750603c610c0a565b610be5606484613333565b600303610bf45750601e610c0a565b610bff606484613333565b600403610c0a5750600a5b6000606442604051602001610c2191815260200190565b6040516020818303038152906040528051906020012060001c610c449190613333565b9050818111610cee57610c7333610c5c85600161335d565b600160405180602001604052806000815250611e5e565b610c7f33846001611f81565b610c8b33856001611f81565b601054610ca2906001600160a01b0316600161126f565b7f896a2d323b547f5b1499a9e580d7749e63e5e1e92d4c60962250b7c3dbbde1f06001610ccf858261335d565b60408051921515835260208301919091520160405180910390a16109aa565b610cfa33856001611f81565b6040805160008152602081018590527f896a2d323b547f5b1499a9e580d7749e63e5e1e92d4c60962250b7c3dbbde1f0910160405180910390a150505050565b600f546040805142602082015260009291016040516020818303038152906040528051906020012060001c610d6f9190613333565b90506000600f8281548110610d8657610d86613370565b90600052602060002001549050610daf3382600160405180602001604052806000815250611e5e565b601054610dc6906001600160a01b0316600161126f565b5050565b60608151835114610e435760405162461bcd60e51b815260206004820152602960248201527f455243313135353a206163636f756e747320616e6420696473206c656e67746860448201527f206d69736d6174636800000000000000000000000000000000000000000000006064820152608401610884565b6000835167ffffffffffffffff811115610e5f57610e5f612bf2565b604051908082528060200260200182016040528015610e88578160200160208202803683370190505b50905060005b8451811015610f0057610ed3858281518110610eac57610eac613370565b6020026020010151858381518110610ec657610ec6613370565b602002602001015161080a565b828281518110610ee557610ee5613370565b6020908102919091010152610ef981613386565b9050610e8e565b509392505050565b600c546040805142602082015260009283929091016040516020818303038152906040528051906020012060001c610f409190613333565b90506000600c8281548110610f5757610f57613370565b90600052602060002001549050610f803382600160405180602001604052806000815250611e5e565b601054610f97906001600160a01b0316600161126f565b6005546006546008546000926001600160a01b03169163d83a2bf39133913091610fc1919061339f565b6040516001600160e01b031960e086901b1681526001600160a01b03938416600482015292909116602483015260448201526064016020604051808303816000875af1158015611015573d6000803e3d6000fd5b505050506040513d601f19601f8201168201806040525081019061103991906133b6565b9050806110885760405162461bcd60e51b815260206004820152601560248201527f496e637265617365436f6e7472616374204661696c00000000000000000000006044820152606401610884565b6005546007546006546008546001600160a01b03938416936323b872dd9333939116916110b5919061339f565b6040516001600160e01b031960e086901b1681526001600160a01b03938416600482015292909116602483015260448201526064016020604051808303816000875af1158015611109573d6000803e3d6000fd5b505050506040513d601f19601f8201168201806040525081019061112d91906133b6565b506005546007546006546008546001600160a01b0393841693631d057bd993169160029161115b919061339f565b61116591906133d3565b6040516001600160e01b031960e085901b1681526001600160a01b0390921660048301526024820152604401600060405180830381600087803b1580156111ab57600080fd5b505af11580156111bf573d6000803e3d6000fd5b50939695505050505050565b6001600160a01b0383163314806111e757506111e78333610768565b61124b5760405162461bcd60e51b815260206004820152602f60248201527f455243313135353a2063616c6c6572206973206e6f7420746f6b656e206f776e60448201526e195c881b9bdc88185c1c1c9bdd9959608a1b6064820152608401610884565b611256838383612111565b505050565b61126361187a565b61126d6000612366565b565b610dc63383836123d0565b600e5460609060009067ffffffffffffffff81111561129b5761129b612bf2565b6040519080825280602002602001820160405280156112ce57816020015b60608152602001906001900390816112b95790505b5090506000805b600e548110156113fa57600061130886600e84815481106112f8576112f8613370565b906000526020600020015461080a565b905080156113e75760408051600280825260608201835290916020830190803683370190505084848151811061134057611340613370565b6020026020010181905250600e828154811061135e5761135e613370565b906000526020600020015484848151811061137b5761137b613370565b602002602001015160008151811061139557611395613370565b602002602001018181525050808484815181106113b4576113b4613370565b60200260200101516001815181106113ce576113ce613370565b6020908102919091010152826113e381613386565b9350505b50806113f281613386565b9150506112d5565b5060008167ffffffffffffffff81111561141657611416612bf2565b60405190808252806020026020018201604052801561144957816020015b60608152602001906001900390816114345790505b50905060005b8281101561157b5760408051600280825260608201835290916020830190803683370190505082828151811061148757611487613370565b60200260200101819052508381815181106114a4576114a4613370565b60200260200101516000815181106114be576114be613370565b60200260200101518282815181106114d8576114d8613370565b60200260200101516000815181106114f2576114f2613370565b60200260200101818152505083818151811061151057611510613370565b602002602001015160018151811061152a5761152a613370565b602002602001015182828151811061154457611544613370565b602002602001015160018151811061155e5761155e613370565b60209081029190910101528061157381613386565b91505061144f565b50949350505050565b61158d3361127a565b51156116015760405162461bcd60e51b815260206004820152602660248201527f455243313135353a20796f7520616c726561647920686176652066697273742060448201527f776561706f6e00000000000000000000000000000000000000000000000000006064820152608401610884565b600d546040805142602082015260009291016040516020818303038152906040528051906020012060001c6116369190613333565b90506000600d8281548110610d8657610d86613370565b600061165960646124c4565b9050600b5481116116a45761166c610d3a565b604051600181527f2fd7ddc66024269a8ffcc6d25e0450ec3d4a65d5f051e9eaebc091acc5c2a159906020015b60405180910390a150565b604051600081527f2fd7ddc66024269a8ffcc6d25e0450ec3d4a65d5f051e9eaebc091acc5c2a15990602001611699565b6001600160a01b0385163314806116f157506116f18533610768565b6117555760405162461bcd60e51b815260206004820152602f60248201527f455243313135353a2063616c6c6572206973206e6f7420746f6b656e206f776e60448201526e195c881b9bdc88185c1c1c9bdd9959608a1b6064820152608401610884565b610a3d8585858585612531565b61176a61187a565b6001600160a01b0381166117e65760405162461bcd60e51b815260206004820152602660248201527f4f776e61626c653a206e6577206f776e657220697320746865207a65726f206160448201527f64647265737300000000000000000000000000000000000000000000000000006064820152608401610884565b61096281612366565b6001600160a01b03831633148061180b575061180b8333610768565b61186f5760405162461bcd60e51b815260206004820152602f60248201527f455243313135353a2063616c6c6572206973206e6f7420746f6b656e206f776e60448201526e195c881b9bdc88185c1c1c9bdd9959608a1b6064820152608401610884565b611256838383611f81565b6003546001600160a01b0316331461126d5760405162461bcd60e51b815260206004820181905260248201527f4f776e61626c653a2063616c6c6572206973206e6f7420746865206f776e65726044820152606401610884565b6002610dc68282613467565b60608160000361192357505060408051808201909152600181527f3000000000000000000000000000000000000000000000000000000000000000602082015290565b8160005b811561194d578061193781613386565b91506119469050600a836133d3565b9150611927565b60008167ffffffffffffffff81111561196857611968612bf2565b6040519080825280601f01601f191660200182016040528015611992576020820181803683370190505b5090505b8415611a15576119a7600183613527565b91506119b4600a86613333565b6119bf90603061335d565b60f81b8183815181106119d4576119d4613370565b60200101907effffffffffffffffffffffffffffffffffffffffffffffffffffffffffffff1916908160001a905350611a0e600a866133d3565b9450611996565b949350505050565b6001600160a01b038416611a7d5760405162461bcd60e51b815260206004820152602160248201527f455243313135353a206d696e7420746f20746865207a65726f206164647265736044820152607360f81b6064820152608401610884565b8151835114611adf5760405162461bcd60e51b815260206004820152602860248201527f455243313135353a2069647320616e6420616d6f756e7473206c656e677468206044820152670dad2e6dac2e8c6d60c31b6064820152608401610884565b33611aef816000878787876126ea565b60005b8451811015611b8a57838181518110611b0d57611b0d613370565b6020026020010151600080878481518110611b2a57611b2a613370565b602002602001015181526020019081526020016000206000886001600160a01b03166001600160a01b031681526020019081526020016000206000828254611b72919061335d565b90915550819050611b8281613386565b915050611af2565b50846001600160a01b031660006001600160a01b0316826001600160a01b03167f4a39dc06d4c0dbc64b70af90fd698a233a518aa5d07e595d983b8c0526c8f7fb8787604051611bdb92919061353a565b60405180910390a4610a3d816000878787876126f8565b8151835114611c545760405162461bcd60e51b815260206004820152602860248201527f455243313135353a2069647320616e6420616d6f756e7473206c656e677468206044820152670dad2e6dac2e8c6d60c31b6064820152608401610884565b6001600160a01b038416611cb85760405162461bcd60e51b815260206004820152602560248201527f455243313135353a207472616e7366657220746f20746865207a65726f206164604482015264647265737360d81b6064820152608401610884565b33611cc78187878787876126ea565b60005b8451811015611df0576000858281518110611ce757611ce7613370565b602002602001015190506000858381518110611d0557611d05613370565b602090810291909101810151600084815280835260408082206001600160a01b038e168352909352919091205490915081811015611d985760405162461bcd60e51b815260206004820152602a60248201527f455243313135353a20696e73756666696369656e742062616c616e636520666f60448201526939103a3930b739b332b960b11b6064820152608401610884565b6000838152602081815260408083206001600160a01b038e8116855292528083208585039055908b16825281208054849290611dd590849061335d565b9250508190555050505080611de990613386565b9050611cca565b50846001600160a01b0316866001600160a01b0316826001600160a01b03167f4a39dc06d4c0dbc64b70af90fd698a233a518aa5d07e595d983b8c0526c8f7fb8787604051611e4092919061353a565b60405180910390a4611e568187878787876126f8565b505050505050565b6001600160a01b038416611ebe5760405162461bcd60e51b815260206004820152602160248201527f455243313135353a206d696e7420746f20746865207a65726f206164647265736044820152607360f81b6064820152608401610884565b336000611eca8561289d565b90506000611ed78561289d565b9050611ee8836000898585896126ea565b6000868152602081815260408083206001600160a01b038b16845290915281208054879290611f1890849061335d565b909155505060408051878152602081018790526001600160a01b03808a1692600092918716917fc3d58168c5ae7397731d063d5bbf3d657854427343f4c083240f7aacaa2d0f62910160405180910390a4611f78836000898989896128e8565b50505050505050565b6001600160a01b038316611fe35760405162461bcd60e51b815260206004820152602360248201527f455243313135353a206275726e2066726f6d20746865207a65726f206164647260448201526265737360e81b6064820152608401610884565b336000611fef8461289d565b90506000611ffc8461289d565b905061201c838760008585604051806020016040528060008152506126ea565b6000858152602081815260408083206001600160a01b038a168452909152902054848110156120995760405162461bcd60e51b8152602060048201526024808201527f455243313135353a206275726e20616d6f756e7420657863656564732062616c604482015263616e636560e01b6064820152608401610884565b6000868152602081815260408083206001600160a01b038b81168086529184528285208a8703905582518b81529384018a90529092908816917fc3d58168c5ae7397731d063d5bbf3d657854427343f4c083240f7aacaa2d0f62910160405180910390a4604080516020810190915260009052611f78565b6001600160a01b0383166121735760405162461bcd60e51b815260206004820152602360248201527f455243313135353a206275726e2066726f6d20746865207a65726f206164647260448201526265737360e81b6064820152608401610884565b80518251146121d55760405162461bcd60e51b815260206004820152602860248201527f455243313135353a2069647320616e6420616d6f756e7473206c656e677468206044820152670dad2e6dac2e8c6d60c31b6064820152608401610884565b60003390506121f8818560008686604051806020016040528060008152506126ea565b60005b83518110156122f957600084828151811061221857612218613370565b60200260200101519050600084838151811061223657612236613370565b602090810291909101810151600084815280835260408082206001600160a01b038c1683529093529190912054909150818110156122c25760405162461bcd60e51b8152602060048201526024808201527f455243313135353a206275726e20616d6f756e7420657863656564732062616c604482015263616e636560e01b6064820152608401610884565b6000928352602083815260408085206001600160a01b038b16865290915290922091039055806122f181613386565b9150506121fb565b5060006001600160a01b0316846001600160a01b0316826001600160a01b03167f4a39dc06d4c0dbc64b70af90fd698a233a518aa5d07e595d983b8c0526c8f7fb868660405161234a92919061353a565b60405180910390a46040805160208101909152600090526109aa565b600380546001600160a01b038381167fffffffffffffffffffffffff0000000000000000000000000000000000000000831681179093556040519116919082907f8be0079c531659141344cd1fd0a4f28419497f9722a3daafe3b4186f6b6457e090600090a35050565b816001600160a01b0316836001600160a01b0316036124575760405162461bcd60e51b815260206004820152602960248201527f455243313135353a2073657474696e6720617070726f76616c2073746174757360448201527f20666f722073656c6600000000000000000000000000000000000000000000006064820152608401610884565b6001600160a01b03838116600081815260016020908152604080832094871680845294825291829020805460ff191686151590811790915591519182527f17307eab39ab6107e8899845ad3d59bd9653f200f220920489ca2b5937696c31910160405180910390a3505050565b600a8054600091826124d583613386565b9091555050600a54604080514260208201526bffffffffffffffffffffffff193360601b1691810191909152605481019190915282906074016040516020818303038152906040528051906020012060001c6108b09190613333565b6001600160a01b0384166125955760405162461bcd60e51b815260206004820152602560248201527f455243313135353a207472616e7366657220746f20746865207a65726f206164604482015264647265737360d81b6064820152608401610884565b3360006125a18561289d565b905060006125ae8561289d565b90506125be8389898585896126ea565b6000868152602081815260408083206001600160a01b038c168452909152902054858110156126425760405162461bcd60e51b815260206004820152602a60248201527f455243313135353a20696e73756666696369656e742062616c616e636520666f60448201526939103a3930b739b332b960b11b6064820152608401610884565b6000878152602081815260408083206001600160a01b038d8116855292528083208985039055908a1682528120805488929061267f90849061335d565b909155505060408051888152602081018890526001600160a01b03808b16928c821692918816917fc3d58168c5ae7397731d063d5bbf3d657854427343f4c083240f7aacaa2d0f62910160405180910390a46126df848a8a8a8a8a6128e8565b505050505050505050565b611e568686868686866129e4565b6001600160a01b0384163b15611e565760405163bc197c8160e01b81526001600160a01b0385169063bc197c819061273c9089908990889088908890600401613568565b6020604051808303816000875af1925050508015612777575060408051601f3d908101601f19168201909252612774918101906135c6565b60015b61282c576127836135e3565b806308c379a0036127bc57506127976135ff565b806127a257506127be565b8060405162461bcd60e51b81526004016108849190612d45565b505b60405162461bcd60e51b815260206004820152603460248201527f455243313135353a207472616e7366657220746f206e6f6e204552433131353560448201527f526563656976657220696d706c656d656e7465720000000000000000000000006064820152608401610884565b6001600160e01b0319811663bc197c8160e01b14611f785760405162461bcd60e51b815260206004820152602860248201527f455243313135353a204552433131353552656365697665722072656a656374656044820152676420746f6b656e7360c01b6064820152608401610884565b604080516001808252818301909252606091600091906020808301908036833701905050905082816000815181106128d7576128d7613370565b602090810291909101015292915050565b6001600160a01b0384163b15611e565760405163f23a6e6160e01b81526001600160a01b0385169063f23a6e619061292c9089908990889088908890600401613689565b6020604051808303816000875af1925050508015612967575060408051601f3d908101601f19168201909252612964918101906135c6565b60015b612973576127836135e3565b6001600160e01b0319811663f23a6e6160e01b14611f785760405162461bcd60e51b815260206004820152602860248201527f455243313135353a204552433131353552656365697665722072656a656374656044820152676420746f6b656e7360c01b6064820152608401610884565b6001600160a01b038516612a6b5760005b8351811015612a6957828181518110612a1057612a10613370565b602002602001015160046000868481518110612a2e57612a2e613370565b602002602001015181526020019081526020016000206000828254612a53919061335d565b90915550612a62905081613386565b90506129f5565b505b6001600160a01b038416611e565760005b8351811015611f78576000848281518110612a9957612a99613370565b602002602001015190506000848381518110612ab757612ab7613370565b6020026020010151905060006004600084815260200190815260200160002054905081811015612b4f5760405162461bcd60e51b815260206004820152602860248201527f455243313135353a206275726e20616d6f756e74206578636565647320746f7460448201527f616c537570706c790000000000000000000000000000000000000000000000006064820152608401610884565b60009283526004602052604090922091039055612b6b81613386565b9050612a7c565b80356001600160a01b0381168114612b8957600080fd5b919050565b60008060408385031215612ba157600080fd5b612baa83612b72565b946020939093013593505050565b6001600160e01b03198116811461096257600080fd5b600060208284031215612be057600080fd5b8135612beb81612bb8565b9392505050565b634e487b7160e01b600052604160045260246000fd5b601f8201601f1916810167ffffffffffffffff81118282101715612c2e57612c2e612bf2565b6040525050565b600067ffffffffffffffff831115612c4f57612c4f612bf2565b604051612c66601f8501601f191660200182612c08565b809150838152848484011115612c7b57600080fd5b83836020830137600060208583010152509392505050565b600060208284031215612ca557600080fd5b813567ffffffffffffffff811115612cbc57600080fd5b8201601f81018413612ccd57600080fd5b611a1584823560208401612c35565b600060208284031215612cee57600080fd5b5035919050565b60005b83811015612d10578181015183820152602001612cf8565b50506000910152565b60008151808452612d31816020860160208601612cf5565b601f01601f19169290920160200192915050565b602081526000612beb6020830184612d19565b600067ffffffffffffffff821115612d7257612d72612bf2565b5060051b60200190565b600082601f830112612d8d57600080fd5b81356020612d9a82612d58565b604051612da78282612c08565b83815260059390931b8501820192828101915086841115612dc757600080fd5b8286015b84811015612de25780358352918301918301612dcb565b509695505050505050565b600082601f830112612dfe57600080fd5b612beb83833560208501612c35565b60008060008060808587031215612e2357600080fd5b612e2c85612b72565b9350602085013567ffffffffffffffff80821115612e4957600080fd5b612e5588838901612d7c565b94506040870135915080821115612e6b57600080fd5b612e7788838901612d7c565b93506060870135915080821115612e8d57600080fd5b50612e9a87828801612ded565b91505092959194509250565b600080600080600060a08688031215612ebe57600080fd5b612ec786612b72565b9450612ed560208701612b72565b9350604086013567ffffffffffffffff80821115612ef257600080fd5b612efe89838a01612d7c565b94506060880135915080821115612f1457600080fd5b612f2089838a01612d7c565b93506080880135915080821115612f3657600080fd5b50612f4388828901612ded565b9150509295509295909350565b60008060408385031215612f6357600080fd5b50508035926020909101359150565b60008060408385031215612f8557600080fd5b823567ffffffffffffffff80821115612f9d57600080fd5b818501915085601f830112612fb157600080fd5b81356020612fbe82612d58565b604051612fcb8282612c08565b83815260059390931b8501820192828101915089841115612feb57600080fd5b948201945b838610156130105761300186612b72565b82529482019490820190612ff0565b9650508601359250508082111561302657600080fd5b5061303385828601612d7c565b9150509250929050565b600081518084526020808501945080840160005b8381101561306d57815187529582019590820190600101613051565b509495945050505050565b602081526000612beb602083018461303d565b6000806000606084860312156130a057600080fd5b6130a984612b72565b9250602084013567ffffffffffffffff808211156130c657600080fd5b6130d287838801612d7c565b935060408601359150808211156130e857600080fd5b506130f586828701612d7c565b9150509250925092565b801515811461096257600080fd5b6000806040838503121561312057600080fd5b61312983612b72565b91506020830135613139816130ff565b809150509250929050565b60006020828403121561315657600080fd5b612beb82612b72565b6000602080830181845280855180835260408601915060408160051b870101925083870160005b828110156131b457603f198886030184526131a285835161303d565b94509285019290850190600101613186565b5092979650505050505050565b600080604083850312156131d457600080fd5b6131dd83612b72565b91506131eb60208401612b72565b90509250929050565b600080600080600060a0868803121561320c57600080fd5b61321586612b72565b945061322360208701612b72565b93506040860135925060608601359150608086013567ffffffffffffffff81111561324d57600080fd5b612f4388828901612ded565b60008060006060848603121561326e57600080fd5b61327784612b72565b95602085013595506040909401359392505050565b7f68747470733a2f2f697066732e696f2f697066732f516d5a475270583254416881527f7353437642535a415446505669797a70584d646a4b57636a434b66346a34506660208201527f7377612f00000000000000000000000000000000000000000000000000000000604082015260008251613310816044850160208701612cf5565b9190910160440192915050565b634e487b7160e01b600052601260045260246000fd5b6000826133425761334261331d565b500690565b634e487b7160e01b600052601160045260246000fd5b808201808211156108b0576108b0613347565b634e487b7160e01b600052603260045260246000fd5b60006001820161339857613398613347565b5060010190565b80820281158282048414176108b0576108b0613347565b6000602082840312156133c857600080fd5b8151612beb816130ff565b6000826133e2576133e261331d565b500490565b600181811c908216806133fb57607f821691505b60208210810361341b57634e487b7160e01b600052602260045260246000fd5b50919050565b601f82111561125657600081815260208120601f850160051c810160208610156134485750805b601f850160051c820191505b81811015611e5657828155600101613454565b815167ffffffffffffffff81111561348157613481612bf2565b6134958161348f84546133e7565b84613421565b602080601f8311600181146134ca57600084156134b25750858301515b600019600386901b1c1916600185901b178555611e56565b600085815260208120601f198616915b828110156134f9578886015182559484019460019091019084016134da565b50858210156135175787850151600019600388901b60f8161c191681555b5050505050600190811b01905550565b818103818111156108b0576108b0613347565b60408152600061354d604083018561303d565b828103602084015261355f818561303d565b95945050505050565b60006001600160a01b03808816835280871660208401525060a0604083015261359460a083018661303d565b82810360608401526135a6818661303d565b905082810360808401526135ba8185612d19565b98975050505050505050565b6000602082840312156135d857600080fd5b8151612beb81612bb8565b600060033d11156135fc5760046000803e5060005160e01c5b90565b600060443d101561360d5790565b6040516003193d81016004833e81513d67ffffffffffffffff816024840111818411171561363d57505050505090565b82850191508151818111156136555750505050505090565b843d870101602082850101111561366f5750505050505090565b61367e60208286010187612c08565b509095945050505050565b60006001600160a01b03808816835280871660208401525084604083015283606083015260a060808301526136c160a0830184612d19565b97965050505050505056fea2646970667358221220ad0831ef931fa76be1b044434a699d25232b29523a07a56fe30a1115e404947f64736f6c63430008110033df6966c971051c3d54ec59162606531493a51404a002842f56009d7e5cf4a8c7697066733a2f2f516d5a47527058325441687353437642535a415446505669797a70584d646a4b57636a434b66346a3450667377612f7b69647d8d1108e10bcb7c27dddfc02ed9d693a074039d026cf4ea4240b40f7d581ac802",
  "immutableReferences": {},
  "source": "// SPDX-License-Identifier: MIT\npragma solidity ^0.8.4;\n\nimport \"@openzeppelin/contracts/token/ERC1155/ERC1155.sol\";\nimport \"@openzeppelin/contracts/access/Ownable.sol\";\nimport \"@openzeppelin/contracts/token/ERC1155/extensions/ERC1155Burnable.sol\";\nimport \"@openzeppelin/contracts/token/ERC1155/extensions/ERC1155Supply.sol\";\nimport \"@openzeppelin/contracts/utils/Strings.sol\";\nimport \"./JMToken.sol\";\n\ncontract MapleItems is ERC1155, Ownable, ERC1155Burnable, ERC1155Supply {\n    JMToken private token;\n    uint256 decimals = 10**18;\n    address payable public treasuryWallet; //  !\n    uint256 private mintPrice;\n    uint256 private maxStrength;\n    uint randNum = 0;\n    uint rewardProbability = 70;\n\n    uint256[] private waitForMint;\n    uint256[] private firstMint;\n    uint256[] private itemCheck;\n    uint256[] private scrollMint;\n    address private marketContractAddress;\n\n    uint256 public constant SWORD0 = 0;\n    uint256 public constant SWORD1 = 1;\n    uint256 public constant SWORD2 = 2;\n    uint256 public constant SWORD3 = 3;\n    uint256 public constant SWORD4 = 4;\n    uint256 public constant SWORD5 = 5;\n    uint256 public constant SWORD6 = 6;\n    uint256 public constant SWORD7 = 7;\n    uint256 public constant SWORD8 = 8;\n    uint256 public constant SWORD9 = 9;\n\n    uint256 public constant BOW0 = 100;\n    uint256 public constant BOW1 = 101;\n    uint256 public constant BOW2 = 102;\n    uint256 public constant BOW3 = 103;\n    uint256 public constant BOW4 = 104;\n    uint256 public constant BOW5 = 105;\n    uint256 public constant BOW6 = 106;\n    uint256 public constant BOW7 = 107;\n    uint256 public constant BOW8 = 108;\n    uint256 public constant BOW9 = 109;\n\n    uint256 public constant STAFF0 = 200;\n    uint256 public constant STAFF1 = 201;\n    uint256 public constant STAFF2 = 202;\n    uint256 public constant STAFF3 = 203;\n    uint256 public constant STAFF4 = 204;\n    uint256 public constant STAFF5 = 205;\n    uint256 public constant STAFF6 = 206;\n    uint256 public constant STAFF7 = 207;\n    uint256 public constant STAFF8 = 208;\n    uint256 public constant STAFF9 = 209;\n\n    uint256 public constant POLEARM0 = 300;\n    uint256 public constant POLEARM1 = 301;\n    uint256 public constant POLEARM2 = 302;\n    uint256 public constant POLEARM3 = 303;\n    uint256 public constant POLEARM4 = 304;\n    uint256 public constant POLEARM5 = 305;\n    uint256 public constant POLEARM6 = 306;\n    uint256 public constant POLEARM7 = 307;\n    uint256 public constant POLEARM8 = 308;\n    uint256 public constant POLEARM9 = 309;\n\n    uint256 public constant SCROLL100 = 400;\n    uint256 public constant SCROLL90 = 401;\n    uint256 public constant SCROLL60 = 402;\n    uint256 public constant SCROLL30 = 403;\n    uint256 public constant SCROLL10 = 404;\n    \n    event Upgraded(bool result, uint256 weaponId);\n    event Rewarded(bool result);\n\n    constructor(\n        address _marketAddress,\n        address _tokenContractAddress,\n        address payable _treasuryWallet) \n        ERC1155(\"ipfs://QmZGRpX2TAhsSCvBSZATFPViyzpXMdjKWcjCKf4j4Pfswa/{id}\") {\n        mintPrice = 1;\n        maxStrength = 2;\n        marketContractAddress = _marketAddress;\n        _setToken(_tokenContractAddress);\n        _generateWeaponArray();\n        _generatefirstWeapon();\n        _generateItemCheck();\n        _generateScrollArray();\n        \n        treasuryWallet = _treasuryWallet;\n    }\n\n    function uri(uint256 _tokenid) override public pure returns (string memory) {\n        return string(\n            abi.encodePacked(\n                \"https://ipfs.io/ipfs/QmZGRpX2TAhsSCvBSZATFPViyzpXMdjKWcjCKf4j4Pfswa/\",\n                Strings.toString(_tokenid)\n            )\n        );\n    }\n\n    function setURI(string memory newuri) public onlyOwner {\n        _setURI(newuri);\n    }\n\n    function _generateWeaponArray() private onlyOwner{\n        for (uint256 i = 0; i < 5; i++ ){\n            waitForMint.push(SWORD0); \n        }\n        for (uint256 i = 0; i < 9; i++ ){\n            waitForMint.push(SWORD1);\n        }\n        for (uint256 i = 0; i < 8; i++ ){\n            waitForMint.push(SWORD2); \n        }\n        for (uint256 i = 0; i < 7; i++ ){\n            waitForMint.push(SWORD3); \n        }\n        for (uint256 i = 0; i < 6; i++ ){\n            waitForMint.push(SWORD4);\n        }\n        for (uint256 i = 0; i < 5; i++ ){\n            waitForMint.push(SWORD5); \n        }\n        for (uint256 i = 0; i < 4; i++ ){\n            waitForMint.push(SWORD6); \n        }\n        for (uint256 i = 0; i < 3; i++ ){\n            waitForMint.push(SWORD7);\n        }\n        for (uint256 i = 0; i < 2; i++ ){\n            waitForMint.push(SWORD8); \n        }\n        for (uint256 i = 0; i < 1; i++ ){\n            waitForMint.push(SWORD9); \n        }\n\n        for (uint256 i = 0; i < 5; i++ ){\n            waitForMint.push(BOW0); \n        }\n        for (uint256 i = 0; i < 9; i++ ){\n            waitForMint.push(BOW1);\n        }\n        for (uint256 i = 0; i < 8; i++ ){\n            waitForMint.push(BOW2); \n        }\n        for (uint256 i = 0; i < 7; i++ ){\n            waitForMint.push(BOW3); \n        }\n        for (uint256 i = 0; i < 6; i++ ){\n            waitForMint.push(BOW4);\n        }\n        for (uint256 i = 0; i < 5; i++ ){\n            waitForMint.push(BOW5); \n        }\n        for (uint256 i = 0; i < 4; i++ ){\n            waitForMint.push(BOW6); \n        }\n        for (uint256 i = 0; i < 3; i++ ){\n            waitForMint.push(BOW7);\n        }\n        for (uint256 i = 0; i < 2; i++ ){\n            waitForMint.push(BOW8); \n        }\n        for (uint256 i = 0; i < 1; i++ ){\n            waitForMint.push(BOW9); \n        }\n\n        for (uint256 i = 0; i < 5; i++ ){\n            waitForMint.push(STAFF0); \n        }\n        for (uint256 i = 0; i < 9; i++ ){\n            waitForMint.push(STAFF1);\n        }\n        for (uint256 i = 0; i < 8; i++ ){\n            waitForMint.push(STAFF2); \n        }\n        for (uint256 i = 0; i < 7; i++ ){\n            waitForMint.push(STAFF3); \n        }\n        for (uint256 i = 0; i < 6; i++ ){\n            waitForMint.push(STAFF4);\n        }\n        for (uint256 i = 0; i < 5; i++ ){\n            waitForMint.push(STAFF5); \n        }\n        for (uint256 i = 0; i < 4; i++ ){\n            waitForMint.push(STAFF6); \n        }\n        for (uint256 i = 0; i < 3; i++ ){\n            waitForMint.push(STAFF7);\n        }\n        for (uint256 i = 0; i < 2; i++ ){\n            waitForMint.push(STAFF8); \n        }\n        for (uint256 i = 0; i < 1; i++ ){\n            waitForMint.push(STAFF9); \n        }\n\n        for (uint256 i = 0; i < 5; i++ ){\n            waitForMint.push(POLEARM0); \n        }\n        for (uint256 i = 0; i < 9; i++ ){\n            waitForMint.push(POLEARM1);\n        }\n        for (uint256 i = 0; i < 8; i++ ){\n            waitForMint.push(POLEARM2); \n        }\n        for (uint256 i = 0; i < 7; i++ ){\n            waitForMint.push(POLEARM3); \n        }\n        for (uint256 i = 0; i < 6; i++ ){\n            waitForMint.push(POLEARM4);\n        }\n        for (uint256 i = 0; i < 5; i++ ){\n            waitForMint.push(POLEARM5); \n        }\n        for (uint256 i = 0; i < 4; i++ ){\n            waitForMint.push(POLEARM6); \n        }\n        for (uint256 i = 0; i < 3; i++ ){\n            waitForMint.push(POLEARM7);\n        }\n        for (uint256 i = 0; i < 2; i++ ){\n            waitForMint.push(POLEARM8); \n        }\n        for (uint256 i = 0; i < 1; i++ ){\n            waitForMint.push(POLEARM9); \n        }\n    }\n\n    function _generatefirstWeapon() private onlyOwner{\n        firstMint.push(SWORD0); \n        firstMint.push(BOW0); \n        firstMint.push(STAFF0); \n        firstMint.push(POLEARM0); \n    }\n\n    function _generateItemCheck() private onlyOwner{\n        itemCheck.push(SWORD0);\n        itemCheck.push(SWORD1);\n        itemCheck.push(SWORD2);\n        itemCheck.push(SWORD3);\n        itemCheck.push(SWORD4);\n        itemCheck.push(SWORD5);\n        itemCheck.push(SWORD6);\n        itemCheck.push(SWORD7);\n        itemCheck.push(SWORD8);\n        itemCheck.push(SWORD9);\n\n        itemCheck.push(BOW0);\n        itemCheck.push(BOW1);\n        itemCheck.push(BOW2);\n        itemCheck.push(BOW3);\n        itemCheck.push(BOW4);\n        itemCheck.push(BOW5);\n        itemCheck.push(BOW6);\n        itemCheck.push(BOW7);\n        itemCheck.push(BOW8);\n        itemCheck.push(BOW9);\n\n        itemCheck.push(STAFF0);\n        itemCheck.push(STAFF1);\n        itemCheck.push(STAFF2);\n        itemCheck.push(STAFF3);\n        itemCheck.push(STAFF4);\n        itemCheck.push(STAFF5);\n        itemCheck.push(STAFF6);\n        itemCheck.push(STAFF7);\n        itemCheck.push(STAFF8);\n        itemCheck.push(STAFF9);\n\n        itemCheck.push(POLEARM0);\n        itemCheck.push(POLEARM1);\n        itemCheck.push(POLEARM2);\n        itemCheck.push(POLEARM3);\n        itemCheck.push(POLEARM4);\n        itemCheck.push(POLEARM5);\n        itemCheck.push(POLEARM6);\n        itemCheck.push(POLEARM7);\n        itemCheck.push(POLEARM8);\n        itemCheck.push(POLEARM9);\n\n        itemCheck.push(SCROLL100);\n        itemCheck.push(SCROLL90);\n        itemCheck.push(SCROLL60);\n        itemCheck.push(SCROLL30);\n        itemCheck.push(SCROLL10);\n    }\n\n    function _generateScrollArray() private onlyOwner{\n        for (uint256 i = 0; i < 1; i++ ){\n            scrollMint.push(SCROLL100); \n        }\n        for (uint256 i = 0; i < 2; i++ ){\n            scrollMint.push(SCROLL90);\n        }\n        for (uint256 i = 0; i < 4; i++ ){\n            scrollMint.push(SCROLL60); \n        }\n        for (uint256 i = 0; i < 6; i++ ){\n            scrollMint.push(SCROLL30); \n        }\n        for (uint256 i = 0; i < 7; i++ ){\n            scrollMint.push(SCROLL10); \n        }\n    }\n\n    function mintFirstWeapon() public {\n        require(balanceCheck(msg.sender).length==0, \"ERC1155: you already have first weapon\");\n\n        uint256 n = uint256(keccak256(abi.encodePacked(block.timestamp))) % (firstMint.length);\n        uint id = firstMint[n];\n        \n        _mint(msg.sender, id, 1, \"\");\n        setApprovalForAll(marketContractAddress, true);\n    }\n\n    function mintRandomWeapon() public returns (uint256){  \n        uint256 n = uint256(keccak256(abi.encodePacked(block.timestamp))) % (waitForMint.length);\n        uint256 id = waitForMint[n];\n        \n        _mint(msg.sender, id, 1, \"\");\n        setApprovalForAll(marketContractAddress, true);\n        \n        //   \n        bool success = token.increaseContractAllowance(\n            msg.sender, \n            address(this),\n            mintPrice * decimals\n        );\n        require(success,\"IncreaseContract Fail\");\n        token.transferFrom(msg.sender, treasuryWallet, mintPrice * decimals); \n        token.marketBurn(treasuryWallet, (mintPrice * decimals)/2);\n\n        return id;\n    }\n\n    function mintScroll() public {\n        uint256 n = uint256(keccak256(abi.encodePacked(block.timestamp))) % (scrollMint.length);\n        uint id = scrollMint[n];\n        \n        _mint(msg.sender, id, 1, \"\");\n        setApprovalForAll(marketContractAddress, true);\n    }\n\n    function upgrade(uint256 scrollId, uint256 weaponId) public {\n        require(balanceOf(msg.sender, scrollId)!=0, \"ERC1155: this scroll is not yours\");\n        require(balanceOf(msg.sender, weaponId)!=0, \"ERC1155: this weapon is not yours\");\n        require(weaponId%100<9, \"ERC1155: this weapon is fully upgraded\");\n        uint256 scrollRate;\n\n        if(scrollId%100==0){\n            scrollRate = 100;\n        }else if(scrollId%100==1){\n            scrollRate = 90;\n        }else if(scrollId%100==2){\n            scrollRate = 60;\n        }else if(scrollId%100==3){\n            scrollRate = 30;\n        }else if(scrollId%100==4){\n            scrollRate = 10;\n        }\n\n        uint256 n = uint256(keccak256(abi.encodePacked(block.timestamp))) % 100;\n        if(n<=scrollRate){\n            _mint(msg.sender, weaponId+1, 1, \"\");\n            _burn(msg.sender, weaponId, 1);\n            _burn(msg.sender, scrollId, 1);\n            setApprovalForAll(marketContractAddress, true);\n            emit Upgraded(true, weaponId+1);\n        } else{\n            _burn(msg.sender, scrollId, 1);\n            emit Upgraded(false, weaponId);\n        }        \n    }\n\n    function mintBatch(address to, uint256[] memory ids, uint256[] memory amounts, bytes memory data)\n        public\n        onlyOwner\n    {\n        _mintBatch(to, ids, amounts, data);\n    }\n\n    function balanceCheck(address sender) public returns(uint256[][] memory){\n        uint256[][] memory balance = new uint256[][](itemCheck.length);\n        uint256 count = 0;\n\n        for(uint256 i=0; i<itemCheck.length; i++){\n            uint256 mybalance = balanceOf(sender, itemCheck[i]); \n            if(mybalance!=0){\n                balance[count] = new uint256[](2);\n                balance[count][0] = itemCheck[i];\n                balance[count][1] = mybalance;\n                count++;\n            }            \n        }\n\n        uint256[][] memory result = new uint256[][](count);\n        for(uint256 i=0; i<count; i++){\n            result[i] = new uint256[](2);\n            result[i][0] = balance[i][0];\n            result[i][1] = balance[i][1];\n        }\n\n        return result;\n    }\n    \n    function _setToken(address _tokenAddress) private onlyOwner returns (bool) {\n        require(_tokenAddress != address(0x0));\n        token = JMToken(_tokenAddress);\n        return true;\n    }\n    // The following functions are overrides required by Solidity.\n\n    function _beforeTokenTransfer(address operator, address from, address to, uint256[] memory ids, uint256[] memory amounts, bytes memory data)\n        internal\n        override(ERC1155, ERC1155Supply)\n    {\n        super._beforeTokenTransfer(operator, from, to, ids, amounts, data);\n    }\n\n    //   ( )\n    function randMod(uint _modulus) internal returns(uint) { // \n        randNum++;\n        return uint(keccak256(abi.encodePacked(block.timestamp, msg.sender, randNum))) % _modulus;\n    }\n\n    function randRewardScroll() external {\n        uint rand = randMod(100);\n        if ( rand <= rewardProbability ) {// 70%    \n            mintScroll();\n            emit Rewarded(true);\n        } else {\n            emit Rewarded(false);\n        }\n    }\n}",
  "sourcePath": "/Users/hyenne/workspace/BEB-05-JMT/contract/contracts/MapleItems.sol",
  "compiler": {
    "name": "solc",
    "version": "0.8.17+commit.8df45f5f.Emscripten.clang"
  },
  "schemaVersion": "3.4.9",
  "updatedAt": "2022-09-27T22:37:05.148Z",
  "networkType": "ethereum",
  "devdoc": {
    "kind": "dev",
    "methods": {
      "balanceOf(address,uint256)": {
        "details": "See {IERC1155-balanceOf}. Requirements: - `account` cannot be the zero address."
      },
      "balanceOfBatch(address[],uint256[])": {
        "details": "See {IERC1155-balanceOfBatch}. Requirements: - `accounts` and `ids` must have the same length."
      },
      "exists(uint256)": {
        "details": "Indicates whether any token exist with a given id, or not."
      },
      "isApprovedForAll(address,address)": {
        "details": "See {IERC1155-isApprovedForAll}."
      },
      "owner()": {
        "details": "Returns the address of the current owner."
      },
      "renounceOwnership()": {
        "details": "Leaves the contract without owner. It will not be possible to call `onlyOwner` functions anymore. Can only be called by the current owner. NOTE: Renouncing ownership will leave the contract without an owner, thereby removing any functionality that is only available to the owner."
      },
      "safeBatchTransferFrom(address,address,uint256[],uint256[],bytes)": {
        "details": "See {IERC1155-safeBatchTransferFrom}."
      },
      "safeTransferFrom(address,address,uint256,uint256,bytes)": {
        "details": "See {IERC1155-safeTransferFrom}."
      },
      "setApprovalForAll(address,bool)": {
        "details": "See {IERC1155-setApprovalForAll}."
      },
      "supportsInterface(bytes4)": {
        "details": "See {IERC165-supportsInterface}."
      },
      "totalSupply(uint256)": {
        "details": "Total amount of tokens in with a given id."
      },
      "transferOwnership(address)": {
        "details": "Transfers ownership of the contract to a new account (`newOwner`). Can only be called by the current owner."
      }
    },
    "version": 1
  },
  "userdoc": {
    "kind": "user",
    "methods": {},
    "version": 1
  }
}