{
  "contractName": "MapleNFT",
  "abi": [
    {
      "inputs": [
        {
          "internalType": "address",
          "name": "_marketAddress",
          "type": "address"
        },
        {
          "internalType": "address",
          "name": "_tokenContractAddress",
          "type": "address"
        },
        {
          "internalType": "string",
          "name": "_MapleBaseURI",
          "type": "string"
        },
        {
          "internalType": "address payable",
          "name": "_treasuryWallet",
          "type": "address"
        }
      ],
      "stateMutability": "nonpayable",
      "type": "constructor"
    },
    {
      "anonymous": false,
      "inputs": [
        {
          "indexed": true,
          "internalType": "address",
          "name": "owner",
          "type": "address"
        },
        {
          "indexed": true,
          "internalType": "address",
          "name": "approved",
          "type": "address"
        },
        {
          "indexed": true,
          "internalType": "uint256",
          "name": "tokenId",
          "type": "uint256"
        }
      ],
      "name": "Approval",
      "type": "event"
    },
    {
      "anonymous": false,
      "inputs": [
        {
          "indexed": true,
          "internalType": "address",
          "name": "owner",
          "type": "address"
        },
        {
          "indexed": true,
          "internalType": "address",
          "name": "operator",
          "type": "address"
        },
        {
          "indexed": false,
          "internalType": "bool",
          "name": "approved",
          "type": "bool"
        }
      ],
      "name": "ApprovalForAll",
      "type": "event"
    },
    {
      "anonymous": false,
      "inputs": [
        {
          "indexed": false,
          "internalType": "address",
          "name": "addr",
          "type": "address"
        },
        {
          "indexed": false,
          "internalType": "uint256",
          "name": "tokenId",
          "type": "uint256"
        },
        {
          "indexed": false,
          "internalType": "string",
          "name": "tokenURI",
          "type": "string"
        }
      ],
      "name": "Minted",
      "type": "event"
    },
    {
      "anonymous": false,
      "inputs": [
        {
          "indexed": true,
          "internalType": "address",
          "name": "previousOwner",
          "type": "address"
        },
        {
          "indexed": true,
          "internalType": "address",
          "name": "newOwner",
          "type": "address"
        }
      ],
      "name": "OwnershipTransferred",
      "type": "event"
    },
    {
      "anonymous": false,
      "inputs": [
        {
          "indexed": true,
          "internalType": "address",
          "name": "from",
          "type": "address"
        },
        {
          "indexed": true,
          "internalType": "address",
          "name": "to",
          "type": "address"
        },
        {
          "indexed": true,
          "internalType": "uint256",
          "name": "tokenId",
          "type": "uint256"
        }
      ],
      "name": "Transfer",
      "type": "event"
    },
    {
      "inputs": [
        {
          "internalType": "address",
          "name": "to",
          "type": "address"
        },
        {
          "internalType": "uint256",
          "name": "tokenId",
          "type": "uint256"
        }
      ],
      "name": "approve",
      "outputs": [],
      "stateMutability": "nonpayable",
      "type": "function"
    },
    {
      "inputs": [
        {
          "internalType": "address",
          "name": "owner",
          "type": "address"
        }
      ],
      "name": "balanceOf",
      "outputs": [
        {
          "internalType": "uint256",
          "name": "",
          "type": "uint256"
        }
      ],
      "stateMutability": "view",
      "type": "function"
    },
    {
      "inputs": [
        {
          "internalType": "uint256",
          "name": "tokenId",
          "type": "uint256"
        }
      ],
      "name": "getApproved",
      "outputs": [
        {
          "internalType": "address",
          "name": "",
          "type": "address"
        }
      ],
      "stateMutability": "view",
      "type": "function"
    },
    {
      "inputs": [
        {
          "internalType": "address",
          "name": "owner",
          "type": "address"
        },
        {
          "internalType": "address",
          "name": "operator",
          "type": "address"
        }
      ],
      "name": "isApprovedForAll",
      "outputs": [
        {
          "internalType": "bool",
          "name": "",
          "type": "bool"
        }
      ],
      "stateMutability": "view",
      "type": "function"
    },
    {
      "inputs": [],
      "name": "name",
      "outputs": [
        {
          "internalType": "string",
          "name": "",
          "type": "string"
        }
      ],
      "stateMutability": "view",
      "type": "function"
    },
    {
      "inputs": [],
      "name": "owner",
      "outputs": [
        {
          "internalType": "address",
          "name": "",
          "type": "address"
        }
      ],
      "stateMutability": "view",
      "type": "function"
    },
    {
      "inputs": [
        {
          "internalType": "uint256",
          "name": "tokenId",
          "type": "uint256"
        }
      ],
      "name": "ownerOf",
      "outputs": [
        {
          "internalType": "address",
          "name": "",
          "type": "address"
        }
      ],
      "stateMutability": "view",
      "type": "function"
    },
    {
      "inputs": [],
      "name": "renounceOwnership",
      "outputs": [],
      "stateMutability": "nonpayable",
      "type": "function"
    },
    {
      "inputs": [
        {
          "internalType": "address",
          "name": "from",
          "type": "address"
        },
        {
          "internalType": "address",
          "name": "to",
          "type": "address"
        },
        {
          "internalType": "uint256",
          "name": "tokenId",
          "type": "uint256"
        }
      ],
      "name": "safeTransferFrom",
      "outputs": [],
      "stateMutability": "nonpayable",
      "type": "function"
    },
    {
      "inputs": [
        {
          "internalType": "address",
          "name": "from",
          "type": "address"
        },
        {
          "internalType": "address",
          "name": "to",
          "type": "address"
        },
        {
          "internalType": "uint256",
          "name": "tokenId",
          "type": "uint256"
        },
        {
          "internalType": "bytes",
          "name": "data",
          "type": "bytes"
        }
      ],
      "name": "safeTransferFrom",
      "outputs": [],
      "stateMutability": "nonpayable",
      "type": "function"
    },
    {
      "inputs": [
        {
          "internalType": "address",
          "name": "operator",
          "type": "address"
        },
        {
          "internalType": "bool",
          "name": "approved",
          "type": "bool"
        }
      ],
      "name": "setApprovalForAll",
      "outputs": [],
      "stateMutability": "nonpayable",
      "type": "function"
    },
    {
      "inputs": [],
      "name": "symbol",
      "outputs": [
        {
          "internalType": "string",
          "name": "",
          "type": "string"
        }
      ],
      "stateMutability": "view",
      "type": "function"
    },
    {
      "inputs": [
        {
          "internalType": "uint256",
          "name": "index",
          "type": "uint256"
        }
      ],
      "name": "tokenByIndex",
      "outputs": [
        {
          "internalType": "uint256",
          "name": "",
          "type": "uint256"
        }
      ],
      "stateMutability": "view",
      "type": "function"
    },
    {
      "inputs": [
        {
          "internalType": "address",
          "name": "owner",
          "type": "address"
        },
        {
          "internalType": "uint256",
          "name": "index",
          "type": "uint256"
        }
      ],
      "name": "tokenOfOwnerByIndex",
      "outputs": [
        {
          "internalType": "uint256",
          "name": "",
          "type": "uint256"
        }
      ],
      "stateMutability": "view",
      "type": "function"
    },
    {
      "inputs": [],
      "name": "totalSupply",
      "outputs": [
        {
          "internalType": "uint256",
          "name": "",
          "type": "uint256"
        }
      ],
      "stateMutability": "view",
      "type": "function"
    },
    {
      "inputs": [
        {
          "internalType": "address",
          "name": "from",
          "type": "address"
        },
        {
          "internalType": "address",
          "name": "to",
          "type": "address"
        },
        {
          "internalType": "uint256",
          "name": "tokenId",
          "type": "uint256"
        }
      ],
      "name": "transferFrom",
      "outputs": [],
      "stateMutability": "nonpayable",
      "type": "function"
    },
    {
      "inputs": [
        {
          "internalType": "address",
          "name": "newOwner",
          "type": "address"
        }
      ],
      "name": "transferOwnership",
      "outputs": [],
      "stateMutability": "nonpayable",
      "type": "function"
    },
    {
      "inputs": [],
      "name": "treasuryWallet",
      "outputs": [
        {
          "internalType": "address payable",
          "name": "",
          "type": "address"
        }
      ],
      "stateMutability": "view",
      "type": "function"
    },
    {
      "inputs": [],
      "name": "generateMintArray",
      "outputs": [],
      "stateMutability": "nonpayable",
      "type": "function"
    },
    {
      "inputs": [],
      "name": "mintMapleNFT",
      "outputs": [
        {
          "internalType": "uint256",
          "name": "",
          "type": "uint256"
        }
      ],
      "stateMutability": "payable",
      "type": "function"
    },
    {
      "inputs": [
        {
          "internalType": "bytes4",
          "name": "interfaceId",
          "type": "bytes4"
        }
      ],
      "name": "supportsInterface",
      "outputs": [
        {
          "internalType": "bool",
          "name": "",
          "type": "bool"
        }
      ],
      "stateMutability": "view",
      "type": "function"
    },
    {
      "inputs": [
        {
          "internalType": "uint256",
          "name": "_tokenId",
          "type": "uint256"
        }
      ],
      "name": "tokenURI",
      "outputs": [
        {
          "internalType": "string",
          "name": "",
          "type": "string"
        }
      ],
      "stateMutability": "view",
      "type": "function"
    },
    {
      "inputs": [],
      "name": "withdraw",
      "outputs": [
        {
          "internalType": "uint256",
          "name": "",
          "type": "uint256"
        }
      ],
      "stateMutability": "nonpayable",
      "type": "function"
    }
  ],
  "bytecode": "0x6080604052670de0b6b3a7640000600d553480156200001d57600080fd5b50604051620025b4380380620025b483398101604081905262000040916200026e565b6040518060400160405280600881526020016713585c1b1953919560c21b8152506040518060400160405280600381526020016213919560ea1b81525062000097620000916200011d60201b60201c565b62000121565b6001620000a5838262000410565b506002620000b4828262000410565b5050601080546001600160a01b0319166001600160a01b038716179055506001600f556032601255620000e78362000171565b50620000f382620001b5565b600e80546001600160a01b0319166001600160a01b039290921691909117905550620004dc915050565b3390565b600080546001600160a01b038381166001600160a01b0319831681178455604051919092169283917f8be0079c531659141344cd1fd0a4f28419497f9722a3daafe3b4186f6b6457e09190a35050565b60006200017d620001d1565b6001600160a01b0382166200019157600080fd5b50600c80546001600160a01b0319166001600160a01b03831617905560015b919050565b620001bf620001d1565b6013620001cd828262000410565b5050565b6000546001600160a01b03163314620002305760405162461bcd60e51b815260206004820181905260248201527f4f776e61626c653a2063616c6c6572206973206e6f7420746865206f776e6572604482015260640160405180910390fd5b565b6001600160a01b03811681146200024857600080fd5b50565b634e487b7160e01b600052604160045260246000fd5b8051620001b08162000232565b600080600080608085870312156200028557600080fd5b8451620002928162000232565b80945050602080860151620002a78162000232565b60408701519094506001600160401b0380821115620002c557600080fd5b818801915088601f830112620002da57600080fd5b815181811115620002ef57620002ef6200024b565b604051601f8201601f19908116603f011681019083821181831017156200031a576200031a6200024b565b816040528281528b868487010111156200033357600080fd5b600093505b8284101562000357578484018601518185018701529285019262000338565b6000868483010152809750505050505050620003766060860162000261565b905092959194509250565b600181811c908216806200039657607f821691505b602082108103620003b757634e487b7160e01b600052602260045260246000fd5b50919050565b601f8211156200040b57600081815260208120601f850160051c81016020861015620003e65750805b601f850160051c820191505b818110156200040757828155600101620003f2565b5050505b505050565b81516001600160401b038111156200042c576200042c6200024b565b62000444816200043d845462000381565b84620003bd565b602080601f8311600181146200047c5760008415620004635750858301515b600019600386901b1c1916600185901b17855562000407565b600085815260208120601f198616915b82811015620004ad578886015182559484019460019091019084016200048c565b5085821015620004cc5787850151600019600388901b60f8161c191681555b5050505050600190811b01905550565b6120c880620004ec6000396000f3fe6080604052600436106101405760003560e01c80634f6ccce7116100b65780639d525f761161006f5780639d525f761461035a578063a22cb4651461036f578063b88d4fde1461038f578063c87b56dd146103af578063e985e9c5146103cf578063f2fde38b1461041857600080fd5b80634f6ccce7146102b25780636352211e146102d257806370a08231146102f2578063715018a6146103125780638da5cb5b1461032757806395d89b411461034557600080fd5b806323b872dd1161010857806323b872dd1461021557806325379b00146102355780632f745c591461023d5780633ccfd60b1461025d57806342842e0e146102725780634626402b1461029257600080fd5b806301ffc9a71461014557806306fdde031461017a578063081812fc1461019c578063095ea7b3146101d457806318160ddd146101f6575b600080fd5b34801561015157600080fd5b50610165610160366004611b53565b610438565b60405190151581526020015b60405180910390f35b34801561018657600080fd5b5061018f610449565b6040516101719190611bc0565b3480156101a857600080fd5b506101bc6101b7366004611bd3565b6104db565b6040516001600160a01b039091168152602001610171565b3480156101e057600080fd5b506101f46101ef366004611c08565b610502565b005b34801561020257600080fd5b506009545b604051908152602001610171565b34801561022157600080fd5b506101f4610230366004611c32565b61061c565b61020761064d565b34801561024957600080fd5b50610207610258366004611c08565b610a5e565b34801561026957600080fd5b50610207610af4565b34801561027e57600080fd5b506101f461028d366004611c32565b610c63565b34801561029e57600080fd5b50600e546101bc906001600160a01b031681565b3480156102be57600080fd5b506102076102cd366004611bd3565b610c7e565b3480156102de57600080fd5b506101bc6102ed366004611bd3565b610d11565b3480156102fe57600080fd5b5061020761030d366004611c6e565b610d71565b34801561031e57600080fd5b506101f4610df7565b34801561033357600080fd5b506000546001600160a01b03166101bc565b34801561035157600080fd5b5061018f610e0b565b34801561036657600080fd5b506101f4610e1a565b34801561037b57600080fd5b506101f461038a366004611c97565b610e78565b34801561039b57600080fd5b506101f46103aa366004611ce4565b610e87565b3480156103bb57600080fd5b5061018f6103ca366004611bd3565b610ebf565b3480156103db57600080fd5b506101656103ea366004611dc0565b6001600160a01b03918216600090815260066020908152604080832093909416825291909152205460ff1690565b34801561042457600080fd5b506101f4610433366004611c6e565b610eca565b600061044382610f40565b92915050565b60606001805461045890611df3565b80601f016020809104026020016040519081016040528092919081815260200182805461048490611df3565b80156104d15780601f106104a6576101008083540402835291602001916104d1565b820191906000526020600020905b8154815290600101906020018083116104b457829003601f168201915b5050505050905090565b60006104e682610f65565b506000908152600560205260409020546001600160a01b031690565b600061050d82610d11565b9050806001600160a01b0316836001600160a01b03160361057f5760405162461bcd60e51b815260206004820152602160248201527f4552433732313a20617070726f76616c20746f2063757272656e74206f776e656044820152603960f91b60648201526084015b60405180910390fd5b336001600160a01b038216148061059b575061059b81336103ea565b61060d5760405162461bcd60e51b815260206004820152603e60248201527f4552433732313a20617070726f76652063616c6c6572206973206e6f7420746f60448201527f6b656e206f776e6572206e6f7220617070726f76656420666f7220616c6c00006064820152608401610576565b6106178383610fc4565b505050565b6106263382611032565b6106425760405162461bcd60e51b815260040161057690611e2d565b6106178383836110b1565b600f54600c546040516370a0823160e01b8152336004820152600092916001600160a01b0316906370a0823190602401602060405180830381865afa15801561069a573d6000803e3d6000fd5b505050506040513d601f19601f820116820180604052508101906106be9190611e7b565b101561071c5760405162461bcd60e51b815260206004820152602760248201527f4552433732313a20726563697069656e74206c61636b206f662065726332302060448201526662616c616e636560c81b6064820152608401610576565b60095460125410156107705760405162461bcd60e51b815260206004820152601b60248201527f4552433732313a20616c6c206e66747320617265206d696e74656400000000006044820152606401610576565b610778611258565b601180546000919061078c90600190611eaa565b8154811061079c5761079c611ebd565b9060005260206000200154905060118054806107ba576107ba611ed3565b600190038181906000526020600020016000905590556107da3382611329565b6010546107f1906001600160a01b03166001610e78565b600c54600d54600f546000926001600160a01b03169163d83a2bf3913391309161081b9190611ee9565b6040516001600160e01b031960e086901b1681526001600160a01b03938416600482015292909116602483015260448201526064016020604051808303816000875af115801561086f573d6000803e3d6000fd5b505050506040513d601f19601f820116820180604052508101906108939190611f00565b9050806108da5760405162461bcd60e51b8152602060048201526015602482015274125b98dc99585cd950dbdb9d1c9858dd0811985a5b605a1b6044820152606401610576565b600c54600e54600d54600f546001600160a01b03938416936323b872dd9333939116916109079190611ee9565b6040516001600160e01b031960e086901b1681526001600160a01b03938416600482015292909116602483015260448201526064016020604051808303816000875af115801561095b573d6000803e3d6000fd5b505050506040513d601f19601f8201168201806040525081019061097f9190611f00565b50600c54600e54600d54600f546001600160a01b0393841693631d057bd99316916002916109ad9190611ee9565b6109b79190611f33565b6040516001600160e01b031960e085901b1681526001600160a01b0390921660048301526024820152604401600060405180830381600087803b1580156109fd57600080fd5b505af1158015610a11573d6000803e3d6000fd5b505050507fe7cd4ce7f2a465edc730269a1305e8a48bad821e8fb7e152ec413829c01a53c43383610a4185610ebf565b604051610a5093929190611f47565b60405180910390a150919050565b6000610a6983610d71565b8210610acb5760405162461bcd60e51b815260206004820152602b60248201527f455243373231456e756d657261626c653a206f776e657220696e646578206f7560448201526a74206f6620626f756e647360a81b6064820152608401610576565b506001600160a01b03919091166000908152600760209081526040808320938352929052205490565b6000610afe611477565b600c546040516370a0823160e01b81523060048201526000916001600160a01b0316906370a0823190602401602060405180830381865afa158015610b47573d6000803e3d6000fd5b505050506040513d601f19601f82011682018060405250810190610b6b9190611e7b565b600c5460405163095ea7b360e01b8152306004820152602481018390529192506001600160a01b03169063095ea7b3906044016020604051808303816000875af1158015610bbd573d6000803e3d6000fd5b505050506040513d601f19601f82011682018060405250810190610be19190611f00565b50600c546040516323b872dd60e01b8152306004820152336024820152604481018390526001600160a01b03909116906323b872dd906064016020604051808303816000875af1158015610c39573d6000803e3d6000fd5b505050506040513d601f19601f82011682018060405250810190610c5d9190611f00565b50905090565b61061783838360405180602001604052806000815250610e87565b6000610c8960095490565b8210610cec5760405162461bcd60e51b815260206004820152602c60248201527f455243373231456e756d657261626c653a20676c6f62616c20696e646578206f60448201526b7574206f6620626f756e647360a01b6064820152608401610576565b60098281548110610cff57610cff611ebd565b90600052602060002001549050919050565b6000818152600360205260408120546001600160a01b0316806104435760405162461bcd60e51b8152602060048201526018602482015277115490cdcc8c4e881a5b9d985b1a59081d1bdad95b88125160421b6044820152606401610576565b60006001600160a01b038216610ddb5760405162461bcd60e51b815260206004820152602960248201527f4552433732313a2061646472657373207a65726f206973206e6f7420612076616044820152683634b21037bbb732b960b91b6064820152608401610576565b506001600160a01b031660009081526004602052604090205490565b610dff611477565b610e0960006114d1565b565b60606002805461045890611df3565b610e22611477565b60005b6012548111610e7557601180546001810182556000919091527f31ecc21a745e3968a04e9570e4425bc18fa8019c68028196b546d1669c200c680181905580610e6d81611f77565b915050610e25565b50565b610e83338383611521565b5050565b610e913383611032565b610ead5760405162461bcd60e51b815260040161057690611e2d565b610eb9848484846115ef565b50505050565b606061044382611622565b610ed2611477565b6001600160a01b038116610f375760405162461bcd60e51b815260206004820152602660248201527f4f776e61626c653a206e6577206f776e657220697320746865207a65726f206160448201526564647265737360d01b6064820152608401610576565b610e75816114d1565b60006001600160e01b0319821663780e9d6360e01b1480610443575061044382611689565b6000818152600360205260409020546001600160a01b0316610e755760405162461bcd60e51b8152602060048201526018602482015277115490cdcc8c4e881a5b9d985b1a59081d1bdad95b88125160421b6044820152606401610576565b600081815260056020526040902080546001600160a01b0319166001600160a01b0384169081179091558190610ff982610d11565b6001600160a01b03167f8c5be1e5ebec7d5bd14f71427d1e84f3dd0314c0f7b2291e5b200ac8c7c3b92560405160405180910390a45050565b60008061103e83610d11565b9050806001600160a01b0316846001600160a01b0316148061108557506001600160a01b0380821660009081526006602090815260408083209388168352929052205460ff165b806110a95750836001600160a01b031661109e846104db565b6001600160a01b0316145b949350505050565b826001600160a01b03166110c482610d11565b6001600160a01b0316146111285760405162461bcd60e51b815260206004820152602560248201527f4552433732313a207472616e736665722066726f6d20696e636f72726563742060448201526437bbb732b960d91b6064820152608401610576565b6001600160a01b03821661118a5760405162461bcd60e51b8152602060048201526024808201527f4552433732313a207472616e7366657220746f20746865207a65726f206164646044820152637265737360e01b6064820152608401610576565b6111958383836116d9565b6111a0600082610fc4565b6001600160a01b03831660009081526004602052604081208054600192906111c9908490611eaa565b90915550506001600160a01b03821660009081526004602052604081208054600192906111f7908490611f90565b909155505060008181526003602052604080822080546001600160a01b0319166001600160a01b0386811691821790925591518493918716917fddf252ad1be2c89b69c2b068fc378daa952ba7f163c4a11628f55a4df523b3ef91a4505050565b60115460009061126a90600190611eaa565b60115460408051426020820152929350600092016040516020818303038152906040528051906020012060001c6112a19190611fa3565b90506000601182815481106112b8576112b8611ebd565b90600052602060002001549050601183815481106112d8576112d8611ebd565b9060005260206000200154601183815481106112f6576112f6611ebd565b9060005260206000200181905550806011848154811061131857611318611ebd565b600091825260209091200155505050565b6001600160a01b03821661137f5760405162461bcd60e51b815260206004820181905260248201527f4552433732313a206d696e7420746f20746865207a65726f20616464726573736044820152606401610576565b6000818152600360205260409020546001600160a01b0316156113e45760405162461bcd60e51b815260206004820152601c60248201527f4552433732313a20746f6b656e20616c7265616479206d696e746564000000006044820152606401610576565b6113f0600083836116d9565b6001600160a01b0382166000908152600460205260408120805460019290611419908490611f90565b909155505060008181526003602052604080822080546001600160a01b0319166001600160a01b03861690811790915590518392907fddf252ad1be2c89b69c2b068fc378daa952ba7f163c4a11628f55a4df523b3ef908290a45050565b6000546001600160a01b03163314610e095760405162461bcd60e51b815260206004820181905260248201527f4f776e61626c653a2063616c6c6572206973206e6f7420746865206f776e65726044820152606401610576565b600080546001600160a01b038381166001600160a01b0319831681178455604051919092169283917f8be0079c531659141344cd1fd0a4f28419497f9722a3daafe3b4186f6b6457e09190a35050565b816001600160a01b0316836001600160a01b0316036115825760405162461bcd60e51b815260206004820152601960248201527f4552433732313a20617070726f766520746f2063616c6c6572000000000000006044820152606401610576565b6001600160a01b03838116600081815260066020908152604080832094871680845294825291829020805460ff191686151590811790915591519182527f17307eab39ab6107e8899845ad3d59bd9653f200f220920489ca2b5937696c31910160405180910390a3505050565b6115fa8484846110b1565b611606848484846116e4565b610eb95760405162461bcd60e51b815260040161057690611fb7565b606061162d82610f65565b60006116376117e5565b905060008151116116575760405180602001604052806000815250611682565b80611661846117f4565b604051602001611672929190612009565b6040516020818303038152906040525b9392505050565b60006001600160e01b031982166380ac58cd60e01b14806116ba57506001600160e01b03198216635b5e139f60e01b145b8061044357506301ffc9a760e01b6001600160e01b0319831614610443565b6106178383836118f5565b60006001600160a01b0384163b156117da57604051630a85bd0160e11b81526001600160a01b0385169063150b7a0290611728903390899088908890600401612038565b6020604051808303816000875af1925050508015611763575060408051601f3d908101601f1916820190925261176091810190612075565b60015b6117c0573d808015611791576040519150601f19603f3d011682016040523d82523d6000602084013e611796565b606091505b5080516000036117b85760405162461bcd60e51b815260040161057690611fb7565b805181602001fd5b6001600160e01b031916630a85bd0160e11b1490506110a9565b506001949350505050565b60606013805461045890611df3565b60608160000361181b5750506040805180820190915260018152600360fc1b602082015290565b8160005b8115611845578061182f81611f77565b915061183e9050600a83611f33565b915061181f565b60008167ffffffffffffffff81111561186057611860611cce565b6040519080825280601f01601f19166020018201604052801561188a576020820181803683370190505b5090505b84156110a95761189f600183611eaa565b91506118ac600a86611fa3565b6118b7906030611f90565b60f81b8183815181106118cc576118cc611ebd565b60200101906001600160f81b031916908160001a9053506118ee600a86611f33565b945061188e565b6001600160a01b0383166119505761194b81600980546000838152600a60205260408120829055600182018355919091527f6e1540171b6c0c960b71a7020d9f60077f6af931a8bbf590da0223dacf75c7af0155565b611973565b816001600160a01b0316836001600160a01b0316146119735761197383826119ad565b6001600160a01b03821661198a5761061781611a4a565b826001600160a01b0316826001600160a01b031614610617576106178282611af9565b600060016119ba84610d71565b6119c49190611eaa565b600083815260086020526040902054909150808214611a17576001600160a01b03841660009081526007602090815260408083208584528252808320548484528184208190558352600890915290208190555b5060009182526008602090815260408084208490556001600160a01b039094168352600781528383209183525290812055565b600954600090611a5c90600190611eaa565b6000838152600a602052604081205460098054939450909284908110611a8457611a84611ebd565b906000526020600020015490508060098381548110611aa557611aa5611ebd565b6000918252602080832090910192909255828152600a90915260408082208490558582528120556009805480611add57611add611ed3565b6001900381819060005260206000200160009055905550505050565b6000611b0483610d71565b6001600160a01b039093166000908152600760209081526040808320868452825280832085905593825260089052919091209190915550565b6001600160e01b031981168114610e7557600080fd5b600060208284031215611b6557600080fd5b813561168281611b3d565b60005b83811015611b8b578181015183820152602001611b73565b50506000910152565b60008151808452611bac816020860160208601611b70565b601f01601f19169290920160200192915050565b6020815260006116826020830184611b94565b600060208284031215611be557600080fd5b5035919050565b80356001600160a01b0381168114611c0357600080fd5b919050565b60008060408385031215611c1b57600080fd5b611c2483611bec565b946020939093013593505050565b600080600060608486031215611c4757600080fd5b611c5084611bec565b9250611c5e60208501611bec565b9150604084013590509250925092565b600060208284031215611c8057600080fd5b61168282611bec565b8015158114610e7557600080fd5b60008060408385031215611caa57600080fd5b611cb383611bec565b91506020830135611cc381611c89565b809150509250929050565b634e487b7160e01b600052604160045260246000fd5b60008060008060808587031215611cfa57600080fd5b611d0385611bec565b9350611d1160208601611bec565b925060408501359150606085013567ffffffffffffffff80821115611d3557600080fd5b818701915087601f830112611d4957600080fd5b813581811115611d5b57611d5b611cce565b604051601f8201601f19908116603f01168101908382118183101715611d8357611d83611cce565b816040528281528a6020848701011115611d9c57600080fd5b82602086016020830137600060208483010152809550505050505092959194509250565b60008060408385031215611dd357600080fd5b611ddc83611bec565b9150611dea60208401611bec565b90509250929050565b600181811c90821680611e0757607f821691505b602082108103611e2757634e487b7160e01b600052602260045260246000fd5b50919050565b6020808252602e908201527f4552433732313a2063616c6c6572206973206e6f7420746f6b656e206f776e6560408201526d1c881b9bdc88185c1c1c9bdd995960921b606082015260800190565b600060208284031215611e8d57600080fd5b5051919050565b634e487b7160e01b600052601160045260246000fd5b8181038181111561044357610443611e94565b634e487b7160e01b600052603260045260246000fd5b634e487b7160e01b600052603160045260246000fd5b808202811582820484141761044357610443611e94565b600060208284031215611f1257600080fd5b815161168281611c89565b634e487b7160e01b600052601260045260246000fd5b600082611f4257611f42611f1d565b500490565b60018060a01b0384168152826020820152606060408201526000611f6e6060830184611b94565b95945050505050565b600060018201611f8957611f89611e94565b5060010190565b8082018082111561044357610443611e94565b600082611fb257611fb2611f1d565b500690565b60208082526032908201527f4552433732313a207472616e7366657220746f206e6f6e20455243373231526560408201527131b2b4bb32b91034b6b83632b6b2b73a32b960711b606082015260800190565b6000835161201b818460208801611b70565b83519083019061202f818360208801611b70565b01949350505050565b6001600160a01b038581168252841660208201526040810183905260806060820181905260009061206b90830184611b94565b9695505050505050565b60006020828403121561208757600080fd5b815161168281611b3d56fea2646970667358221220e41b6be1c16aa87f501a4adcb30c7560a467c9cee0ff4d59b779a869be367d5d64736f6c63430008110033",
  "immutableReferences": {},
  "source": "// SPDX-License-Identifier: MIT\npragma solidity ^0.8.0;\nimport \"@openzeppelin/contracts/token/ERC721/ERC721.sol\";\nimport \"@openzeppelin/contracts/utils/Counters.sol\";\nimport \"@openzeppelin/contracts/access/Ownable.sol\";\nimport \"@openzeppelin/contracts/token/ERC721/extensions/ERC721Enumerable.sol\";\nimport \"./interfaces/ERC20Interface.sol\";\nimport \"./JMToken.sol\";\n\ncontract MapleNFT is Ownable, ERC721Enumerable {\n    using Counters for Counters.Counter;\n    Counters.Counter private _tokenIds;\n\n    JMToken private token;\n    uint256 decimals = 10**18;\n    address payable public treasuryWallet; //  !\n    uint256 private mintPrice;\n    address private marketContractAddress;\n    uint256[] private waitForMint;\n    uint256 private maxTokenNum;\n    string private baseURIextended;\n    \n\n    event Minted(address addr, uint256 tokenId, string tokenURI);\n\n    constructor(\n        address _marketAddress,\n        address _tokenContractAddress, \n        string memory _MapleBaseURI, \n        address payable _treasuryWallet)  ERC721(\"MapleNFT\", \"NFT\") {\n\n        marketContractAddress = _marketAddress;\n        mintPrice = 1;\n        maxTokenNum = 50; //  5000\n        _setToken(_tokenContractAddress);\n        _setBaseURI(_MapleBaseURI);\n        // generateMintArray();\n        treasuryWallet = _treasuryWallet;\n    }\n\n    function generateMintArray() external onlyOwner {\n        for (uint256 i = 0; i <= maxTokenNum; i++) {\n            waitForMint.push(i);\n        }\n    }\n    \n    //   \n    function mintMapleNFT() public payable returns (uint256)  {\n        require(token.balanceOf(msg.sender) >= mintPrice, \"ERC721: recipient lack of erc20 balance\");\n        require(maxTokenNum >= totalSupply(), \"ERC721: all nfts are minted\");\n\n        _shuffleMintArray();\n        uint256 minted = waitForMint[waitForMint.length - 1];\n        waitForMint.pop();\n\n        _mint(msg.sender, minted);\n        setApprovalForAll(marketContractAddress, true); // grant transaction permission to market\n\n        //   \n        bool success = token.increaseContractAllowance(\n            msg.sender,\n            address(this),\n            mintPrice * decimals\n        );\n        require(success,\"IncreaseContract Fail\");\n        token.transferFrom(msg.sender, treasuryWallet, mintPrice * decimals); \n        token.marketBurn(treasuryWallet, (mintPrice * decimals)/2);\n\n        emit Minted(msg.sender, minted, tokenURI(minted));\n\n        return minted;\n    }\n\n    function _shuffleMintArray() private {\n        uint256 i = waitForMint.length - 1;\n        /*\n         * IMPORTANT:   block.timestamp  chainlink     .\n         */\n        uint256 n = uint256(keccak256(abi.encodePacked(block.timestamp))) % (waitForMint.length);\n        uint256 temp = waitForMint[n];\n        waitForMint[n] = waitForMint[i];\n        waitForMint[i] = temp;\n    }\n\n    function _setBaseURI(string memory _MapleBaseURI) private onlyOwner {\n        baseURIextended = _MapleBaseURI;\n    }\n\n    function _baseURI() internal view virtual override returns (string memory) {\n        return baseURIextended;\n    }\n\n    function _beforeTokenTransfer(\n        address from,\n        address to,\n        uint256 tokenId\n    ) internal override {\n        super._beforeTokenTransfer(from, to, tokenId);\n    }\n\n    function _burn(\n        uint256 _tokenId\n    ) internal override {\n        super._burn(_tokenId);\n    }\n\n    function supportsInterface(bytes4 interfaceId) public view override returns (bool) {\n        return super.supportsInterface(interfaceId);\n    }\n\n    function tokenURI(\n        uint256 _tokenId\n    ) public view override returns (string memory) {\n        return super.tokenURI(_tokenId);\n    }\n\n    function _setToken(address jmtokenAddress) private onlyOwner returns (bool) {\n        require(jmtokenAddress != address(0x0));\n        token = JMToken(jmtokenAddress);\n        return true;\n    }\n\n    function withdraw() external onlyOwner returns (uint256) {\n        uint256 totalValue = token.balanceOf(address(this));\n        token.approve(address(this), totalValue);\n        token.transferFrom(address(this), msg.sender, totalValue);\n        return totalValue;\n    }\n}\n",
  "sourcePath": "/Users/rokrokss/workspace/hyein/BEB-05-JMT/contract/contracts/MapleNFT.sol",
  "compiler": {
    "name": "solc",
    "version": "0.8.17+commit.8df45f5f.Emscripten.clang"
  },
  "schemaVersion": "3.4.9",
  "updatedAt": "2022-09-26T21:59:16.276Z",
  "devdoc": {
    "kind": "dev",
    "methods": {
      "approve(address,uint256)": {
        "details": "See {IERC721-approve}."
      },
      "balanceOf(address)": {
        "details": "See {IERC721-balanceOf}."
      },
      "getApproved(uint256)": {
        "details": "See {IERC721-getApproved}."
      },
      "isApprovedForAll(address,address)": {
        "details": "See {IERC721-isApprovedForAll}."
      },
      "name()": {
        "details": "See {IERC721Metadata-name}."
      },
      "owner()": {
        "details": "Returns the address of the current owner."
      },
      "ownerOf(uint256)": {
        "details": "See {IERC721-ownerOf}."
      },
      "renounceOwnership()": {
        "details": "Leaves the contract without owner. It will not be possible to call `onlyOwner` functions anymore. Can only be called by the current owner. NOTE: Renouncing ownership will leave the contract without an owner, thereby removing any functionality that is only available to the owner."
      },
      "safeTransferFrom(address,address,uint256)": {
        "details": "See {IERC721-safeTransferFrom}."
      },
      "safeTransferFrom(address,address,uint256,bytes)": {
        "details": "See {IERC721-safeTransferFrom}."
      },
      "setApprovalForAll(address,bool)": {
        "details": "See {IERC721-setApprovalForAll}."
      },
      "supportsInterface(bytes4)": {
        "details": "See {IERC165-supportsInterface}."
      },
      "symbol()": {
        "details": "See {IERC721Metadata-symbol}."
      },
      "tokenByIndex(uint256)": {
        "details": "See {IERC721Enumerable-tokenByIndex}."
      },
      "tokenOfOwnerByIndex(address,uint256)": {
        "details": "See {IERC721Enumerable-tokenOfOwnerByIndex}."
      },
      "totalSupply()": {
        "details": "See {IERC721Enumerable-totalSupply}."
      },
      "transferFrom(address,address,uint256)": {
        "details": "See {IERC721-transferFrom}."
      },
      "transferOwnership(address)": {
        "details": "Transfers ownership of the contract to a new account (`newOwner`). Can only be called by the current owner."
      }
    },
    "version": 1
  },
  "userdoc": {
    "kind": "user",
    "methods": {},
    "version": 1
  }
}