{
  "contractName": "MapleMarket",
  "abi": [
    {
      "inputs": [],
      "stateMutability": "nonpayable",
      "type": "constructor"
    },
    {
      "anonymous": false,
      "inputs": [
        {
          "indexed": false,
          "internalType": "uint256",
          "name": "tokenId",
          "type": "uint256"
        },
        {
          "indexed": false,
          "internalType": "uint256",
          "name": "itemId",
          "type": "uint256"
        },
        {
          "indexed": false,
          "internalType": "address",
          "name": "seller",
          "type": "address"
        },
        {
          "indexed": false,
          "internalType": "uint256",
          "name": "price",
          "type": "uint256"
        }
      ],
      "name": "ItemCreated",
      "type": "event"
    },
    {
      "anonymous": false,
      "inputs": [
        {
          "indexed": false,
          "internalType": "uint256",
          "name": "tokenId",
          "type": "uint256"
        },
        {
          "indexed": false,
          "internalType": "uint256",
          "name": "itemId",
          "type": "uint256"
        },
        {
          "indexed": false,
          "internalType": "address",
          "name": "seller",
          "type": "address"
        },
        {
          "indexed": false,
          "internalType": "address",
          "name": "buyer",
          "type": "address"
        },
        {
          "indexed": false,
          "internalType": "uint256",
          "name": "price",
          "type": "uint256"
        }
      ],
      "name": "ItemSold",
      "type": "event"
    },
    {
      "anonymous": false,
      "inputs": [
        {
          "indexed": false,
          "internalType": "uint256",
          "name": "tokenId",
          "type": "uint256"
        },
        {
          "indexed": false,
          "internalType": "uint256",
          "name": "itemId",
          "type": "uint256"
        },
        {
          "indexed": false,
          "internalType": "address",
          "name": "seller",
          "type": "address"
        }
      ],
      "name": "SaleCanceled",
      "type": "event"
    },
    {
      "inputs": [
        {
          "internalType": "address",
          "name": "_contractAddr",
          "type": "address"
        },
        {
          "internalType": "uint256",
          "name": "_tokenId",
          "type": "uint256"
        },
        {
          "internalType": "uint256",
          "name": "_price",
          "type": "uint256"
        }
      ],
      "name": "sell",
      "outputs": [],
      "stateMutability": "payable",
      "type": "function",
      "payable": true
    },
    {
      "inputs": [
        {
          "internalType": "address",
          "name": "_contractAddr",
          "type": "address"
        },
        {
          "internalType": "uint256",
          "name": "_itemId",
          "type": "uint256"
        }
      ],
      "name": "saleCancel",
      "outputs": [],
      "stateMutability": "nonpayable",
      "type": "function"
    },
    {
      "inputs": [
        {
          "internalType": "address",
          "name": "_contractAddr",
          "type": "address"
        },
        {
          "internalType": "uint256",
          "name": "_itemId",
          "type": "uint256"
        }
      ],
      "name": "buy",
      "outputs": [],
      "stateMutability": "payable",
      "type": "function",
      "payable": true
    },
    {
      "inputs": [],
      "name": "fetchItemsOnSale",
      "outputs": [
        {
          "components": [
            {
              "internalType": "uint256",
              "name": "itemId",
              "type": "uint256"
            },
            {
              "components": [
                {
                  "internalType": "address",
                  "name": "contractAddr",
                  "type": "address"
                },
                {
                  "internalType": "uint256",
                  "name": "tokenId",
                  "type": "uint256"
                }
              ],
              "internalType": "struct MapleMarket.NFTToken",
              "name": "token",
              "type": "tuple"
            },
            {
              "internalType": "address payable",
              "name": "seller",
              "type": "address"
            },
            {
              "internalType": "uint256",
              "name": "price",
              "type": "uint256"
            },
            {
              "internalType": "enum MapleMarket.ItemStatus",
              "name": "itemStatus",
              "type": "uint8"
            }
          ],
          "internalType": "struct MapleMarket.MarketItem[]",
          "name": "",
          "type": "tuple[]"
        }
      ],
      "stateMutability": "view",
      "type": "function",
      "constant": true
    },
    {
      "inputs": [],
      "name": "fetchMyItemsOnSale",
      "outputs": [
        {
          "components": [
            {
              "internalType": "uint256",
              "name": "itemId",
              "type": "uint256"
            },
            {
              "components": [
                {
                  "internalType": "address",
                  "name": "contractAddr",
                  "type": "address"
                },
                {
                  "internalType": "uint256",
                  "name": "tokenId",
                  "type": "uint256"
                }
              ],
              "internalType": "struct MapleMarket.NFTToken",
              "name": "token",
              "type": "tuple"
            },
            {
              "internalType": "address payable",
              "name": "seller",
              "type": "address"
            },
            {
              "internalType": "uint256",
              "name": "price",
              "type": "uint256"
            },
            {
              "internalType": "enum MapleMarket.ItemStatus",
              "name": "itemStatus",
              "type": "uint8"
            }
          ],
          "internalType": "struct MapleMarket.MarketItem[]",
          "name": "",
          "type": "tuple[]"
        }
      ],
      "stateMutability": "view",
      "type": "function",
      "constant": true
    }
  ],
  "bytecode": "0x6080604052655af3107a400060025534801561001a57600080fd5b50610d7d8061002a6000396000f3fe60806040526004361061004a5760003560e01c80631697e40b1461004f5780636a27246214610071578063a64fc3fa14610084578063ae9eb1ed146100af578063cce7ec13146100c4575b600080fd5b34801561005b57600080fd5b5061006f61006a366004610b7f565b6100d7565b005b61006f61007f366004610bab565b610289565b34801561009057600080fd5b50610099610596565b6040516100a69190610bf6565b60405180910390f35b3480156100bb57600080fd5b50610099610734565b61006f6100d2366004610b7f565b610955565b600081815260036020819052604090912001546001600160a01b0316331461013f5760405162461bcd60e51b81526020600482015260166024820152751bdb9b1e481cd95b1b195c8818d85b8818d85b98d95b60521b60448201526064015b60405180910390fd5b60008181526003602052604090206005015460ff16600281111561016557610165610be0565b156101a85760405162461bcd60e51b81526020600482015260136024820152726974656d206973206e6f74206f6e2073616c6560681b6044820152606401610136565b600081815260036020526040908190206002015490516323b872dd60e01b8152306004820152336024820152604481018290526001600160a01b038416906323b872dd90606401600060405180830381600087803b15801561020957600080fd5b505af115801561021d573d6000803e3d6000fd5b5050506000838152600360205260409020600501805460ff191660021790555060018054810190556040805182815260208101849052338183015290517fd3bffea3a9501b0422f789f4c0797d9cdcb9e89dd65de11b04e9b0079ea4e2a79181900360600190a1505050565b6040516331a9108f60e11b8152600481018390526001600160a01b03841690636352211e90602401602060405180830381865afa1580156102ce573d6000803e3d6000fd5b505050506040513d601f19601f820116820180604052508101906102f29190610c9c565b6001600160a01b0316336001600160a01b0316146103525760405162461bcd60e51b815260206004820152601a60248201527f6f6e6c79206f776e6572732063616e2073656c6c206974656d730000000000006044820152606401610136565b60025434146103af5760405162461bcd60e51b8152602060048201526024808201527f5072696365206d75737420626520657175616c20746f206c697374696e6720706044820152637269636560e01b6064820152608401610136565b600081116103ff5760405162461bcd60e51b815260206004820152601860248201527f5072696365206d7573742062652061626f7665207a65726f00000000000000006044820152606401610136565b61040d600080546001019055565b600080546040805160a081018252828152815180830183526001600160a01b038881168252602080830189905280840192835233848601908152606085018981526000608087018181528982526003808652989091208751815595518051600180890180549289166001600160a01b03199384161790559190950151600280890191909155935198870180549990961698909416979097179093559151600484015593516005830180549697509395929490939260ff19169184908111156104d7576104d7610be0565b0217905550506040516323b872dd60e01b8152336004820152306024820152604481018590526001600160a01b03861691506323b872dd90606401600060405180830381600087803b15801561052c57600080fd5b505af1158015610540573d6000803e3d6000fd5b505060408051868152602081018590523391810191909152606081018590527f8b583604758a4c6c995171787709d2caa670e019b68bfb687d2c9fa77e538059925060800190505b60405180910390a150505050565b606060006105a360005490565b905060006105b060015490565b6000546105bd9190610cd6565b90506000808267ffffffffffffffff8111156105db576105db610cef565b60405190808252806020026020018201604052801561061457816020015b610601610b14565b8152602001906001900390816105f95790505b50905060015b84811161072b5760008181526003602052604081206005015460ff16600281111561064757610647610be0565b036107195760008181526003602081815260408084205480855293819020815160a081018352815481528251808401845260018301546001600160a01b039081168252600280850154838801529583019190915294820154909416918401919091526004810154606084015260058101549092918391608084019160ff909116908111156106d7576106d7610be0565b60028111156106e8576106e8610be0565b815250508486815181106106fe576106fe610d05565b6020908102919091010152610714600186610d1b565b945050505b8061072381610d2e565b91505061061a565b50949350505050565b6060600061074160005490565b905060008060015b8381116107c25760008181526003602052604081206005015460ff16600281111561077657610776610be0565b14801561079d5750600081815260036020819052604090912001546001600160a01b031633145b156107b0576107ad600184610d1b565b92505b806107ba81610d2e565b915050610749565b5060008267ffffffffffffffff8111156107de576107de610cef565b60405190808252806020026020018201604052801561081757816020015b610804610b14565b8152602001906001900390816107fc5790505b50905060015b84811161072b5760008181526003602052604081206005015460ff16600281111561084a5761084a610be0565b1480156108715750600081815260036020819052604090912001546001600160a01b031633145b156109435760008181526003602081815260408084205480855293819020815160a081018352815481528251808401845260018301546001600160a01b039081168252600280850154838801529583019190915294820154909416918401919091526004810154606084015260058101549092918391608084019160ff9091169081111561090157610901610be0565b600281111561091257610912610be0565b8152505084868151811061092857610928610d05565b602090810291909101015261093e600186610d1b565b945050505b8061094d81610d2e565b91505061081d565b600081815260036020526040902060048101546002909101543482146109e35760405162461bcd60e51b815260206004820152603c60248201527f506c65617365207375626d6974207468652061736b696e67207072696365206960448201527f6e206f7264657220746f20636f6d706c657465207075726368617365000000006064820152608401610136565b60008381526003602081905260408083209091015490516001600160a01b03909116913480156108fc02929091818181858888f19350505050158015610a2d573d6000803e3d6000fd5b506040516323b872dd60e01b8152306004820152336024820152604481018290526001600160a01b038516906323b872dd90606401600060405180830381600087803b158015610a7c57600080fd5b505af1158015610a90573d6000803e3d6000fd5b50505060008481526003602081815260409283902060058101805460ff191660019081179091558054810190559091015482518581529182018790526001600160a01b031691810191909152336060820152608081018490527f636c891e1c595c5879015e9f0767c0138ec002c115fa5425d3a585252e13a1ed915060a001610588565b6040518060a0016040528060008152602001610b4c604051806040016040528060006001600160a01b03168152602001600081525090565b81526000602082018190526040820181905260609091015290565b6001600160a01b0381168114610b7c57600080fd5b50565b60008060408385031215610b9257600080fd5b8235610b9d81610b67565b946020939093013593505050565b600080600060608486031215610bc057600080fd5b8335610bcb81610b67565b95602085013595506040909401359392505050565b634e487b7160e01b600052602160045260246000fd5b60208082528251828201819052600091906040908185019086840185805b83811015610c8e578251805186528781015180516001600160a01b039081168a89015290890151888801528782015116606080880191909152810151608080880191909152015160038110610c7757634e487b7160e01b83526021600452602483fd5b60a086015260c09094019391860191600101610c14565b509298975050505050505050565b600060208284031215610cae57600080fd5b8151610cb981610b67565b9392505050565b634e487b7160e01b600052601160045260246000fd5b81810381811115610ce957610ce9610cc0565b92915050565b634e487b7160e01b600052604160045260246000fd5b634e487b7160e01b600052603260045260246000fd5b80820180821115610ce957610ce9610cc0565b600060018201610d4057610d40610cc0565b506001019056fea2646970667358221220a899fff9a19c35e4d693e5c57501a55624c369e732ad666671b20c8ff90499d264736f6c63430008110033",
  "immutableReferences": {},
  "source": "// SPDX-License-Identifier: MIT\npragma solidity ^0.8.7;\n\nimport \"@openzeppelin/contracts/token/ERC721/ERC721.sol\";\nimport \"@openzeppelin/contracts/utils/Counters.sol\";\n\ncontract MapleMarket {\n    using Counters for Counters.Counter;\n    Counters.Counter private _itemIds;\n    Counters.Counter private _itemsSoldOrCanceled;\n    uint256 listingPrice = 0.0001 ether;\n    constructor () {}\n\n    mapping(uint256 => MarketItem) idMarketItem;\n\n    enum ItemStatus {  \n        ON_SALE, SOLD, SALE_CANCELED\n    }\n\n    struct NFTToken {\n        address contractAddr;\n        uint256 tokenId;\n    }\n\n    struct MarketItem {\n        uint256 itemId;\n        NFTToken token;\n        address payable seller;\n        uint256 price;\n        ItemStatus itemStatus;\n    }\n\n    event ItemCreated (\n        uint256 tokenId,\n        uint256 itemId,\n        address seller,\n        uint256 price\n    );\n\n    event ItemSold (\n        uint256 tokenId,\n        uint256 itemId,\n        address seller,\n        address buyer,\n        uint256 price\n    );\n\n    event SaleCanceled (\n        uint256 tokenId,\n        uint256 itemId,\n        address seller\n    );\n\n    function sell(\n        address _contractAddr,\n        uint256 _tokenId,\n        uint256 _price\n    ) public payable {\n        require(msg.sender == ERC721(_contractAddr).ownerOf(_tokenId),  \"only owners can sell items\");\n        require(msg.value == listingPrice, \"Price must be equal to listing price\");\n        require(_price > 0, \"Price must be above zero\");\n\n        _itemIds.increment();\n        uint256 itemId = _itemIds.current();\n\n        idMarketItem[itemId] = MarketItem({\n            itemId: itemId,\n            token: NFTToken({\n                contractAddr: _contractAddr,\n                tokenId: _tokenId\n            }),\n            seller: payable(msg.sender),\n            price: _price,\n            itemStatus: ItemStatus.ON_SALE\n        });\n\n        ERC721(_contractAddr).transferFrom(msg.sender, address(this), _tokenId);\n\n        emit ItemCreated(\n            _tokenId,\n            itemId,\n            msg.sender,\n            _price\n        );\n    }\n\n    function saleCancel(\n        address _contractAddr,\n        uint256 _itemId\n    ) public {\n        require(msg.sender == idMarketItem[_itemId].seller, \"only seller can cancel\");\n        require(ItemStatus.ON_SALE == idMarketItem[_itemId].itemStatus, \"item is not on sale\");\n\n        uint tokenId = idMarketItem[_itemId].token.tokenId;\n\n        ERC721(_contractAddr).transferFrom(address(this), msg.sender, tokenId);\n\n        idMarketItem[_itemId].itemStatus = ItemStatus.SALE_CANCELED;\n        _itemsSoldOrCanceled.increment();\n        \n\n        emit SaleCanceled(\n            tokenId,\n            _itemId,\n            msg.sender\n        );\n    }\n\n    function buy(\n        address _contractAddr,\n        uint256 _itemId\n    ) public payable {\n        uint price = idMarketItem[_itemId].price;\n        uint tokenId = idMarketItem[_itemId].token.tokenId;\n\n        require(msg.value == price, \"Please submit the asking price in order to complete purchase\");\n\n        idMarketItem[_itemId].seller.transfer(msg.value);\n\n        ERC721(_contractAddr).transferFrom(address(this), msg.sender, tokenId);\n        idMarketItem[_itemId].itemStatus = ItemStatus.SOLD;\n        _itemsSoldOrCanceled.increment();\n\n        emit ItemSold(\n            tokenId,\n            _itemId,\n            idMarketItem[_itemId].seller,\n            msg.sender,\n            price\n        );\n    }\n\n    function fetchItemsOnSale() public view returns (MarketItem[] memory) {\n        uint itemCount = _itemIds.current();\n        uint unsoldItemCount = _itemIds.current() - _itemsSoldOrCanceled.current();\n        uint currentIndex = 0;\n\n        MarketItem[] memory items =  new MarketItem[](unsoldItemCount);\n\n        for (uint i = 1; i <= itemCount; i++) {\n            if (idMarketItem[i].itemStatus == ItemStatus.ON_SALE) {\n                uint currentId = idMarketItem[i].itemId;\n                MarketItem storage currentItem = idMarketItem[currentId];\n                items[currentIndex] = currentItem;\n                currentIndex += 1;\n            }\n        }\n        return items;\n    }\n\n    function fetchMyItemsOnSale() public view returns (MarketItem[] memory) {\n        uint totalItemCount = _itemIds.current();\n\n        uint itemCount = 0;\n        uint currentIndex = 0;\n\n        for (uint i = 1; i <= totalItemCount; i++) {\n            if (\n                idMarketItem[i].itemStatus == ItemStatus.ON_SALE\n                && idMarketItem[i].seller == msg.sender\n            ) {\n                itemCount += 1;\n            }\n        }\n\n        MarketItem[] memory items = new MarketItem[](itemCount);\n        for (uint i = 1; i <= totalItemCount; i++) {\n            if (\n                idMarketItem[i].itemStatus == ItemStatus.ON_SALE\n                && idMarketItem[i].seller == msg.sender\n            ) {\n                uint currentId = idMarketItem[i].itemId;\n                MarketItem storage currentItem = idMarketItem[currentId];\n                items[currentIndex] = currentItem;\n                currentIndex += 1;\n            }\n        }\n        return items;\n    }\n}\n",
  "sourcePath": "/Users/hyenne/workspace/BEB-05-JMT/contract/contracts/MapleMarket.sol",
  "compiler": {
    "name": "solc",
    "version": "0.8.17+commit.8df45f5f.Emscripten.clang"
  },
  "schemaVersion": "3.4.9",
  "updatedAt": "2022-09-20T22:49:23.779Z",
  "networkType": "ethereum",
  "devdoc": {
    "kind": "dev",
    "methods": {},
    "version": 1
  },
  "userdoc": {
    "kind": "user",
    "methods": {},
    "version": 1
  }
}