{
  "contractName": "MapleUser",
  "abi": [
    {
      "inputs": [
        {
          "internalType": "address",
          "name": "_tokenContractAddress",
          "type": "address"
        },
        {
          "internalType": "address",
          "name": "_nftContractAddress",
          "type": "address"
        },
        {
          "internalType": "address",
          "name": "_itemContractAddress",
          "type": "address"
        },
        {
          "internalType": "address payable",
          "name": "_treasuryWallet",
          "type": "address"
        }
      ],
      "stateMutability": "nonpayable",
      "type": "constructor"
    },
    {
      "anonymous": false,
      "inputs": [
        {
          "indexed": true,
          "internalType": "address",
          "name": "previousOwner",
          "type": "address"
        },
        {
          "indexed": true,
          "internalType": "address",
          "name": "newOwner",
          "type": "address"
        }
      ],
      "name": "OwnershipTransferred",
      "type": "event"
    },
    {
      "anonymous": false,
      "inputs": [
        {
          "indexed": false,
          "internalType": "uint256",
          "name": "charId",
          "type": "uint256"
        },
        {
          "indexed": false,
          "internalType": "uint256",
          "name": "weaponId",
          "type": "uint256"
        },
        {
          "indexed": false,
          "internalType": "uint256",
          "name": "userId",
          "type": "uint256"
        },
        {
          "indexed": false,
          "internalType": "address",
          "name": "user",
          "type": "address"
        }
      ],
      "name": "UserCreated",
      "type": "event"
    },
    {
      "anonymous": false,
      "inputs": [
        {
          "indexed": false,
          "internalType": "uint256",
          "name": "charId",
          "type": "uint256"
        },
        {
          "indexed": false,
          "internalType": "uint256",
          "name": "weaponId",
          "type": "uint256"
        },
        {
          "indexed": false,
          "internalType": "address",
          "name": "user",
          "type": "address"
        }
      ],
      "name": "UserDeleated",
      "type": "event"
    },
    {
      "anonymous": false,
      "inputs": [
        {
          "indexed": false,
          "internalType": "uint256",
          "name": "charId",
          "type": "uint256"
        },
        {
          "indexed": false,
          "internalType": "uint256",
          "name": "weaponId",
          "type": "uint256"
        },
        {
          "indexed": false,
          "internalType": "address",
          "name": "user",
          "type": "address"
        }
      ],
      "name": "UserMatching",
      "type": "event"
    },
    {
      "anonymous": false,
      "inputs": [
        {
          "indexed": false,
          "internalType": "uint256",
          "name": "charId",
          "type": "uint256"
        },
        {
          "indexed": false,
          "internalType": "uint256",
          "name": "weaponId",
          "type": "uint256"
        },
        {
          "indexed": false,
          "internalType": "address",
          "name": "user",
          "type": "address"
        }
      ],
      "name": "UserUpdated",
      "type": "event"
    },
    {
      "anonymous": false,
      "inputs": [
        {
          "indexed": false,
          "internalType": "uint256",
          "name": "reward",
          "type": "uint256"
        },
        {
          "indexed": false,
          "internalType": "address",
          "name": "user",
          "type": "address"
        }
      ],
      "name": "rewardTransferred",
      "type": "event"
    },
    {
      "inputs": [],
      "name": "owner",
      "outputs": [
        {
          "internalType": "address",
          "name": "",
          "type": "address"
        }
      ],
      "stateMutability": "view",
      "type": "function"
    },
    {
      "inputs": [],
      "name": "renounceOwnership",
      "outputs": [],
      "stateMutability": "nonpayable",
      "type": "function"
    },
    {
      "inputs": [
        {
          "internalType": "address",
          "name": "newOwner",
          "type": "address"
        }
      ],
      "name": "transferOwnership",
      "outputs": [],
      "stateMutability": "nonpayable",
      "type": "function"
    },
    {
      "inputs": [
        {
          "internalType": "uint256",
          "name": "_charId",
          "type": "uint256"
        },
        {
          "internalType": "uint256",
          "name": "_weaponId",
          "type": "uint256"
        }
      ],
      "name": "signUp",
      "outputs": [],
      "stateMutability": "nonpayable",
      "type": "function"
    },
    {
      "inputs": [
        {
          "internalType": "uint256",
          "name": "_charId",
          "type": "uint256"
        }
      ],
      "name": "updateChar",
      "outputs": [],
      "stateMutability": "nonpayable",
      "type": "function"
    },
    {
      "inputs": [
        {
          "internalType": "uint256",
          "name": "_weaponId",
          "type": "uint256"
        }
      ],
      "name": "updateWeapon",
      "outputs": [],
      "stateMutability": "nonpayable",
      "type": "function"
    },
    {
      "inputs": [
        {
          "internalType": "uint256",
          "name": "_rank",
          "type": "uint256"
        }
      ],
      "name": "checkReward",
      "outputs": [
        {
          "internalType": "uint256",
          "name": "",
          "type": "uint256"
        }
      ],
      "stateMutability": "view",
      "type": "function"
    },
    {
      "inputs": [
        {
          "internalType": "uint256",
          "name": "reward",
          "type": "uint256"
        }
      ],
      "name": "setRankReward",
      "outputs": [],
      "stateMutability": "nonpayable",
      "type": "function"
    },
    {
      "inputs": [
        {
          "internalType": "uint256",
          "name": "_rank",
          "type": "uint256"
        }
      ],
      "name": "requestReward",
      "outputs": [],
      "stateMutability": "nonpayable",
      "type": "function"
    },
    {
      "inputs": [
        {
          "internalType": "address",
          "name": "_user",
          "type": "address"
        }
      ],
      "name": "matchUser",
      "outputs": [
        {
          "components": [
            {
              "internalType": "uint256",
              "name": "userId",
              "type": "uint256"
            },
            {
              "components": [
                {
                  "internalType": "address",
                  "name": "contractAddr",
                  "type": "address"
                },
                {
                  "internalType": "uint256",
                  "name": "tokenId",
                  "type": "uint256"
                }
              ],
              "internalType": "struct MapleUser.Token",
              "name": "charToken",
              "type": "tuple"
            },
            {
              "components": [
                {
                  "internalType": "address",
                  "name": "contractAddr",
                  "type": "address"
                },
                {
                  "internalType": "uint256",
                  "name": "tokenId",
                  "type": "uint256"
                }
              ],
              "internalType": "struct MapleUser.Token",
              "name": "weaponToken",
              "type": "tuple"
            },
            {
              "internalType": "address payable",
              "name": "user",
              "type": "address"
            }
          ],
          "internalType": "struct MapleUser.UserInfo",
          "name": "",
          "type": "tuple"
        }
      ],
      "stateMutability": "view",
      "type": "function"
    },
    {
      "inputs": [
        {
          "internalType": "address",
          "name": "_user",
          "type": "address"
        }
      ],
      "name": "fetchUser",
      "outputs": [
        {
          "components": [
            {
              "internalType": "uint256",
              "name": "userId",
              "type": "uint256"
            },
            {
              "components": [
                {
                  "internalType": "address",
                  "name": "contractAddr",
                  "type": "address"
                },
                {
                  "internalType": "uint256",
                  "name": "tokenId",
                  "type": "uint256"
                }
              ],
              "internalType": "struct MapleUser.Token",
              "name": "charToken",
              "type": "tuple"
            },
            {
              "components": [
                {
                  "internalType": "address",
                  "name": "contractAddr",
                  "type": "address"
                },
                {
                  "internalType": "uint256",
                  "name": "tokenId",
                  "type": "uint256"
                }
              ],
              "internalType": "struct MapleUser.Token",
              "name": "weaponToken",
              "type": "tuple"
            },
            {
              "internalType": "address payable",
              "name": "user",
              "type": "address"
            }
          ],
          "internalType": "struct MapleUser.UserInfo",
          "name": "",
          "type": "tuple"
        }
      ],
      "stateMutability": "view",
      "type": "function"
    },
    {
      "inputs": [],
      "name": "fetchUsers",
      "outputs": [
        {
          "components": [
            {
              "internalType": "uint256",
              "name": "userId",
              "type": "uint256"
            },
            {
              "components": [
                {
                  "internalType": "address",
                  "name": "contractAddr",
                  "type": "address"
                },
                {
                  "internalType": "uint256",
                  "name": "tokenId",
                  "type": "uint256"
                }
              ],
              "internalType": "struct MapleUser.Token",
              "name": "charToken",
              "type": "tuple"
            },
            {
              "components": [
                {
                  "internalType": "address",
                  "name": "contractAddr",
                  "type": "address"
                },
                {
                  "internalType": "uint256",
                  "name": "tokenId",
                  "type": "uint256"
                }
              ],
              "internalType": "struct MapleUser.Token",
              "name": "weaponToken",
              "type": "tuple"
            },
            {
              "internalType": "address payable",
              "name": "user",
              "type": "address"
            }
          ],
          "internalType": "struct MapleUser.UserInfo[]",
          "name": "",
          "type": "tuple[]"
        }
      ],
      "stateMutability": "view",
      "type": "function"
    },
    {
      "inputs": [
        {
          "internalType": "address",
          "name": "",
          "type": "address"
        },
        {
          "internalType": "address",
          "name": "",
          "type": "address"
        },
        {
          "internalType": "uint256",
          "name": "",
          "type": "uint256"
        },
        {
          "internalType": "uint256",
          "name": "",
          "type": "uint256"
        },
        {
          "internalType": "bytes",
          "name": "",
          "type": "bytes"
        }
      ],
      "name": "onERC1155Received",
      "outputs": [
        {
          "internalType": "bytes4",
          "name": "",
          "type": "bytes4"
        }
      ],
      "stateMutability": "nonpayable",
      "type": "function"
    },
    {
      "inputs": [
        {
          "internalType": "address",
          "name": "",
          "type": "address"
        },
        {
          "internalType": "address",
          "name": "",
          "type": "address"
        },
        {
          "internalType": "uint256[]",
          "name": "",
          "type": "uint256[]"
        },
        {
          "internalType": "uint256[]",
          "name": "",
          "type": "uint256[]"
        },
        {
          "internalType": "bytes",
          "name": "",
          "type": "bytes"
        }
      ],
      "name": "onERC1155BatchReceived",
      "outputs": [
        {
          "internalType": "bytes4",
          "name": "",
          "type": "bytes4"
        }
      ],
      "stateMutability": "nonpayable",
      "type": "function"
    },
    {
      "inputs": [
        {
          "internalType": "address",
          "name": "",
          "type": "address"
        },
        {
          "internalType": "address",
          "name": "",
          "type": "address"
        },
        {
          "internalType": "uint256",
          "name": "",
          "type": "uint256"
        },
        {
          "internalType": "bytes",
          "name": "",
          "type": "bytes"
        }
      ],
      "name": "onERC721Received",
      "outputs": [
        {
          "internalType": "bytes4",
          "name": "",
          "type": "bytes4"
        }
      ],
      "stateMutability": "nonpayable",
      "type": "function"
    }
  ],
  "bytecode": "0x6080604052670de0b6b3a76400006002556000600355600060045560006005553480156200002c57600080fd5b506040516200184a3803806200184a8339810160408190526200004f91620001b9565b6200005a33620000aa565b6200006584620000fa565b50600880546001600160a01b039485166001600160a01b0319918216179091556009805493851693821693909317909255600780549190931691161790555062000221565b600080546001600160a01b038381166001600160a01b0319831681178455604051919092169283917f8be0079c531659141344cd1fd0a4f28419497f9722a3daafe3b4186f6b6457e09190a35050565b6000620001066200013f565b6001600160a01b0382166200011a57600080fd5b50600680546001600160a01b0383166001600160a01b03199091161790556001919050565b6000546001600160a01b031633146200019e5760405162461bcd60e51b815260206004820181905260248201527f4f776e61626c653a2063616c6c6572206973206e6f7420746865206f776e6572604482015260640160405180910390fd5b565b6001600160a01b0381168114620001b657600080fd5b50565b60008060008060808587031215620001d057600080fd5b8451620001dd81620001a0565b6020860151909450620001f081620001a0565b60408601519093506200020381620001a0565b60608601519092506200021681620001a0565b939692955090935050565b61161980620002316000396000f3fe608060405234801561001057600080fd5b50600436106100f55760003560e01c8063bc197c8111610097578063da56ef3a11610066578063da56ef3a14610258578063e46989911461026b578063f23a6e611461028c578063f2fde38b146102c457600080fd5b8063bc197c81146101d8578063be6f0ea214610210578063bfcad43314610230578063d99380b41461024557600080fd5b806399c6dc05116100d357806399c6dc051461018c578063a3469f741461019f578063aeeda6bf146101b2578063b62d08d4146101c557600080fd5b8063150b7a02146100fa578063715018a6146101675780638da5cb5b14610171575b600080fd5b610131610108366004611178565b7f150b7a0200000000000000000000000000000000000000000000000000000000949350505050565b6040517fffffffff0000000000000000000000000000000000000000000000000000000090911681526020015b60405180910390f35b61016f6102d7565b005b6000546040516001600160a01b03909116815260200161015e565b61016f61019a3660046111e4565b6102eb565b61016f6101ad3660046111e4565b610426565b61016f6101c03660046111fd565b6104b2565b61016f6101d33660046111e4565b6107b1565b6101316101e636600461129f565b7fbc197c810000000000000000000000000000000000000000000000000000000095945050505050565b61022361021e36600461134d565b6108f1565b60405161015e9190611371565b610238610972565b60405161015e91906113d3565b61016f6102533660046111e4565b610ab8565b61022361026636600461134d565b610d37565b61027e6102793660046111e4565b610eb4565b60405190815260200161015e565b61013161029a366004611475565b7ff23a6e610000000000000000000000000000000000000000000000000000000095945050505050565b61016f6102d236600461134d565b610ef5565b6102df610f85565b6102e96000610fdf565b565b6008546040516331a9108f60e11b8152600481018390526001600160a01b0390911690636352211e90602401602060405180830381865afa158015610334573d6000803e3d6000fd5b505050506040513d601f19601f8201168201806040525081019061035891906114de565b6001600160a01b0316336001600160a01b0316146103c75760405162461bcd60e51b815260206004820152602160248201527f6f6e6c7920636861726163746572206f776e6572732063616e207369676e20756044820152600760fc1b60648201526084015b60405180910390fd5b336000818152600b60209081526040918290206002810185905560040154825185815291820152908101919091527fb4e54a03420cbd5ff517551dc147bf23b4185e3b819d2f217ea0e6c6281d8d83906060015b60405180910390a150565b600a610433826005611511565b61043d919061153e565b6003600082825461044e9190611552565b90915550600a9050610461826003611511565b61046b919061153e565b6004600082825461047c9190611552565b90915550600a905061048f826002611511565b610499919061153e565b600560008282546104aa9190611552565b909155505050565b6008546040516331a9108f60e11b8152600481018490526001600160a01b0390911690636352211e90602401602060405180830381865afa1580156104fb573d6000803e3d6000fd5b505050506040513d601f19601f8201168201806040525081019061051f91906114de565b6001600160a01b0316336001600160a01b0316146105895760405162461bcd60e51b815260206004820152602160248201527f6f6e6c7920636861726163746572206f776e6572732063616e207369676e20756044820152600760fc1b60648201526084016103be565b600954604051627eeac760e11b8152336004820152602481018390526001600160a01b039091169062fdd58e90604401602060405180830381865afa1580156105d6573d6000803e3d6000fd5b505050506040513d601f19601f820116820180604052508101906105fa9190611565565b6000036106495760405162461bcd60e51b815260206004820152601e60248201527f6f6e6c7920776561706f6e206f776e6572732063616e207369676e207570000060448201526064016103be565b610657600180546001019055565b600061066260015490565b600a805460018082019092557fc65a7bb8d6351c1cf70c95a316cc6a92839c986682d98bc35f958f4883f9d2a80180543373ffffffffffffffffffffffffffffffffffffffff1991821681179092556040805160808082018352868252825180840184526008546001600160a01b03908116825260208083018d905280850192835285518087018752600954831681528082018d905285870190815260608087018a815260008b8152600b855289902097518855945180519b880180548b169c86169c909c17909b559982015160028701555180516003870180548a1691851691909117905581015160048601559151600590940180549096169316929092179093558151898152908101889052908101859052928301919091529192507fb71cf8dd9f35ff09f0b312ae47365f80792968af9383e6cbc7f9c12054d6cc3d91015b60405180910390a1505050565b600954604051627eeac760e11b8152336004820152602481018390526001600160a01b039091169062fdd58e90604401602060405180830381865afa1580156107fe573d6000803e3d6000fd5b505050506040513d601f19601f820116820180604052508101906108229190611565565b6000036108975760405162461bcd60e51b815260206004820152602660248201527f6f6e6c7920776561706f6e206f776e6572732063616e2075706461746520757360448201527f6572496e666f000000000000000000000000000000000000000000000000000060648201526084016103be565b336000818152600b602090815260409182902060048101859055600201548251908152908101849052908101919091527fb4e54a03420cbd5ff517551dc147bf23b4185e3b819d2f217ea0e6c6281d8d839060600161041b565b6108f961103c565b506001600160a01b039081166000908152600b60209081526040918290208251608081018452815481528351808501855260018301548616815260028301548185015281840152835180850185526003830154861681526004830154938101939093529283019190915260050154909116606082015290565b6060600061097f60015490565b905060008167ffffffffffffffff81111561099c5761099c6110c1565b6040519080825280602002602001820160405280156109d557816020015b6109c261103c565b8152602001906001900390816109ba5790505b50905060005b82811015610ab1576000600a82815481106109f8576109f861157e565b60009182526020808320909101546001600160a01b03908116808452600b835260409384902084516080810186528154815285518087018752600183015485168152600283015481870152818601528551808701875260038301548516815260048301549581019590955294850193909352600583015490911660608401528551909350909190859085908110610a9157610a9161157e565b602002602001018190525050508080610aa990611594565b9150506109db565b5092915050565b600481108015610ac85750600081115b610b3a5760405162461bcd60e51b815260206004820152602260248201527f796f75206e65656420746f2072616e6b20757020666f7220746865207265776160448201527f726400000000000000000000000000000000000000000000000000000000000060648201526084016103be565b600081600103610b535750600380546000909155610b7d565b81600203610b6a5750600480546000909155610b7d565b81600303610b7d57506005805460009091555b6006546007546040517fd83a2bf30000000000000000000000000000000000000000000000000000000081526001600160a01b03918216600482015230602482015260448101849052600092919091169063d83a2bf3906064016020604051808303816000875af1158015610bf6573d6000803e3d6000fd5b505050506040513d601f19601f82011682018060405250810190610c1a91906115ad565b905080610c695760405162461bcd60e51b815260206004820152601560248201527f496e637265617365436f6e7472616374204661696c000000000000000000000060448201526064016103be565b6006546007546040517f23b872dd0000000000000000000000000000000000000000000000000000000081526001600160a01b039182166004820152336024820152604481018590529116906323b872dd906064016020604051808303816000875af1158015610cdd573d6000803e3d6000fd5b505050506040513d601f19601f82011682018060405250810190610d0191906115ad565b50604080518381523360208201527ff77e4bb9025e3700758004f467a01764ed3e2b0245b45b918b6107e1770f32bb91016107a4565b610d3f61103c565b600154600103610d915760405162461bcd60e51b815260206004820152601b60248201527f796f752061726520746865206f6e6c79206f6e6520706c61796572000000000060448201526064016103be565b6000610d9c60015490565b905060008142604051602001610db491815260200190565b6040516020818303038152906040528051906020012060001c610dd791906115cf565b90506000600a8281548110610dee57610dee61157e565b60009182526020808320909101546001600160a01b03908116808452600b909252604090922060050154909250811690861614610ea2576001600160a01b039081166000908152600b602090815260409182902082516080810184528154815283518085018552600183015486168152600283015481850152818401528351808501855260038301548616815260048301549381019390935292830191909152600501549091166060820152949350505050565b610eab85610d37565b95945050505050565b6000806001839003610ec95750600354610eef565b82600203610eda5750600454610eef565b82600303610eeb5750600554610eef565b5060005b92915050565b610efd610f85565b6001600160a01b038116610f795760405162461bcd60e51b815260206004820152602660248201527f4f776e61626c653a206e6577206f776e657220697320746865207a65726f206160448201527f646472657373000000000000000000000000000000000000000000000000000060648201526084016103be565b610f8281610fdf565b50565b6000546001600160a01b031633146102e95760405162461bcd60e51b815260206004820181905260248201527f4f776e61626c653a2063616c6c6572206973206e6f7420746865206f776e657260448201526064016103be565b600080546001600160a01b0383811673ffffffffffffffffffffffffffffffffffffffff19831681178455604051919092169283917f8be0079c531659141344cd1fd0a4f28419497f9722a3daafe3b4186f6b6457e09190a35050565b604051806080016040528060008152602001611074604051806040016040528060006001600160a01b03168152602001600081525090565b815260200161109f604051806040016040528060006001600160a01b03168152602001600081525090565b8152600060209091015290565b6001600160a01b0381168114610f8257600080fd5b634e487b7160e01b600052604160045260246000fd5b604051601f8201601f1916810167ffffffffffffffff81118282101715611100576111006110c1565b604052919050565b600082601f83011261111957600080fd5b813567ffffffffffffffff811115611133576111336110c1565b611146601f8201601f19166020016110d7565b81815284602083860101111561115b57600080fd5b816020850160208301376000918101602001919091529392505050565b6000806000806080858703121561118e57600080fd5b8435611199816110ac565b935060208501356111a9816110ac565b925060408501359150606085013567ffffffffffffffff8111156111cc57600080fd5b6111d887828801611108565b91505092959194509250565b6000602082840312156111f657600080fd5b5035919050565b6000806040838503121561121057600080fd5b50508035926020909101359150565b600082601f83011261123057600080fd5b8135602067ffffffffffffffff82111561124c5761124c6110c1565b8160051b61125b8282016110d7565b928352848101820192828101908785111561127557600080fd5b83870192505b848310156112945782358252918301919083019061127b565b979650505050505050565b600080600080600060a086880312156112b757600080fd5b85356112c2816110ac565b945060208601356112d2816110ac565b9350604086013567ffffffffffffffff808211156112ef57600080fd5b6112fb89838a0161121f565b9450606088013591508082111561131157600080fd5b61131d89838a0161121f565b9350608088013591508082111561133357600080fd5b5061134088828901611108565b9150509295509295909350565b60006020828403121561135f57600080fd5b813561136a816110ac565b9392505050565b60c08101610eef82848051825260208082015180516001600160a01b03168285015290810151604084015250604081015180516001600160a01b031660608401526020810151608084015250606001516001600160a01b031660a09190910152565b6020808252825182820181905260009190848201906040850190845b81811015611469576114568385518051825260208082015180516001600160a01b03168285015290810151604084015250604081015180516001600160a01b031660608401526020810151608084015250606001516001600160a01b031660a09190910152565b9284019260c092909201916001016113ef565b50909695505050505050565b600080600080600060a0868803121561148d57600080fd5b8535611498816110ac565b945060208601356114a8816110ac565b93506040860135925060608601359150608086013567ffffffffffffffff8111156114d257600080fd5b61134088828901611108565b6000602082840312156114f057600080fd5b815161136a816110ac565b634e487b7160e01b600052601160045260246000fd5b8082028115828204841417610eef57610eef6114fb565b634e487b7160e01b600052601260045260246000fd5b60008261154d5761154d611528565b500490565b80820180821115610eef57610eef6114fb565b60006020828403121561157757600080fd5b5051919050565b634e487b7160e01b600052603260045260246000fd5b6000600182016115a6576115a66114fb565b5060010190565b6000602082840312156115bf57600080fd5b8151801515811461136a57600080fd5b6000826115de576115de611528565b50069056fea2646970667358221220c8acb275fe9ddfb99234d94d08130b0ae6e0125858e7810a7568eb171d00ab0a64736f6c63430008110033",
  "immutableReferences": {},
  "source": "// SPDX-License-Identifier: MIT\npragma solidity ^0.8.7;\n\nimport \"@openzeppelin/contracts/token/ERC721/ERC721.sol\";\nimport \"@openzeppelin/contracts/token/ERC1155/ERC1155.sol\";\nimport \"@openzeppelin/contracts/token/ERC1155/IERC1155Receiver.sol\";\nimport \"@openzeppelin/contracts/access/Ownable.sol\";\nimport \"@openzeppelin/contracts/utils/Counters.sol\";\nimport \"./JMToken.sol\";\n\ncontract MapleUser is Ownable {\n    using Counters for Counters.Counter;\n    Counters.Counter private _userIds;\n    uint256 decimals = 10**18;\n    uint256 firstReward = 0;\n    uint256 secondReward = 0;\n    uint256 thirdReward = 0;\n\n    JMToken private token;\n    address payable private treasuryWallet;\n    address private nftContractAddress;\n    address private itemContractAddress;\n    address[] private addrList;\n\n    constructor (\n        address _tokenContractAddress,\n        address _nftContractAddress,\n        address _itemContractAddress,\n        address payable _treasuryWallet\n    ) {\n        _setToken(_tokenContractAddress);\n        nftContractAddress = _nftContractAddress;\n        itemContractAddress = _itemContractAddress;\n        treasuryWallet = _treasuryWallet;\n    }\n\n    mapping(address => UserInfo) idUserInfo;\n\n    struct Token {\n        address contractAddr;\n        uint256 tokenId;\n    }\n\n    struct UserInfo {\n        uint256 userId;\n        Token charToken;\n        Token weaponToken;\n        address payable user;\n    }\n\n    event UserCreated (\n        uint256 charId,\n        uint256 weaponId,\n        uint256 userId,\n        address user\n    );\n\n    event UserUpdated (\n        uint256 charId,\n        uint256 weaponId,\n        address user\n    );\n\n    event UserMatching (\n        uint256 charId,\n        uint256 weaponId,\n        address user\n    );\n\n    event UserDeleated (\n        uint256 charId,\n        uint256 weaponId,\n        address user\n    );\n\n    event rewardTransferred (\n        uint256 reward,\n        address user\n    );\n\n    function _setToken(address _tokenAddress) private onlyOwner returns (bool) {\n        require(_tokenAddress != address(0x0));\n        token = JMToken(_tokenAddress);\n        return true;\n    }\n\n    function signUp(\n        uint256 _charId,\n        uint256 _weaponId\n    ) public {\n        require(msg.sender == ERC721(nftContractAddress).ownerOf(_charId),  \"only character owners can sign up\");\n        require(ERC1155(itemContractAddress).balanceOf(msg.sender, _weaponId)!=0,  \"only weapon owners can sign up\");\n\n        _userIds.increment();\n        uint256 userId = _userIds.current();\n        addrList.push(msg.sender);\n        idUserInfo[msg.sender] = UserInfo({\n            userId: userId,\n            charToken: Token({\n                contractAddr: nftContractAddress,\n                tokenId: _charId\n            }),\n            weaponToken: Token({\n                contractAddr: itemContractAddress,\n                tokenId: _weaponId\n            }),\n            user: payable(msg.sender)\n        });\n\n        emit UserCreated(\n            _charId,\n            _weaponId,\n            userId,\n            msg.sender\n        );\n    }\n\n    function updateChar(\n        uint256 _charId\n    ) public {\n        require(msg.sender == ERC721(nftContractAddress).ownerOf(_charId),  \"only character owners can sign up\");\n\n        idUserInfo[msg.sender].charToken.tokenId = _charId;\n\n        emit UserUpdated(\n            _charId,\n            idUserInfo[msg.sender].weaponToken.tokenId,\n            msg.sender\n        );\n    }\n\n    function updateWeapon(\n        uint256 _weaponId\n    ) public {\n        require(ERC1155(itemContractAddress).balanceOf(msg.sender, _weaponId)!=0,  \"only weapon owners can update userInfo\");\n\n        idUserInfo[msg.sender].weaponToken.tokenId = _weaponId;\n\n        emit UserUpdated(\n            idUserInfo[msg.sender].charToken.tokenId,\n            _weaponId,\n            msg.sender\n        );\n    }\n\n    function checkReward(\n        uint256 _rank\n    ) public view returns (uint256) {\n        //TODO:        .\n        // require(_rank<4,  \"you need to rank up for the reward\");\n        uint256 reward = 0;\n        if(_rank==1){\n            reward = firstReward;\n        }\n        else if(_rank==2){\n            reward = secondReward;\n        }\n        else if(_rank==3){\n            reward = thirdReward;\n        }else{\n            reward = 0;\n        }\n        return reward;\n    }\n\n    function setRankReward(uint256 reward) public{\n        firstReward+=reward*5/10;\n        secondReward+=reward*3/10;\n        thirdReward+=reward*2/10;\n    }\n\n    function requestReward(\n        uint256 _rank\n    ) public {\n        //TODO:        .\n        require(_rank<4&&_rank>0,  \"you need to rank up for the reward\");\n        \n        uint256 reward = 0;\n        if(_rank==1){\n            reward = firstReward;\n            firstReward = 0;\n        }\n        else if(_rank==2){\n            reward = secondReward;\n            secondReward = 0;\n        }\n        else if(_rank==3){\n            reward = thirdReward;\n            thirdReward = 0;\n        }\n\n        bool success = token.increaseContractAllowance(\n            treasuryWallet,\n            address(this),\n            reward\n        );\n        require(success, \"IncreaseContract Fail\");\n        token.transferFrom(treasuryWallet, msg.sender, reward);\n\n        emit rewardTransferred (\n        reward,\n        msg.sender\n        );\n\n    }\n\n    function matchUser(address _user) public view returns (UserInfo memory) {\n        require(_userIds.current()!=1, \"you are the only one player\");\n        uint userCount = _userIds.current();\n        uint256 n = uint256(keccak256(abi.encodePacked(block.timestamp))) % (userCount);\n        address matchUserAddr = addrList[n];\n        if(idUserInfo[matchUserAddr].user != _user){\n            UserInfo memory opponent =  idUserInfo[matchUserAddr];\n            return opponent;\n        }else{\n            return matchUser(_user);\n        }\n    }\n\n    function fetchUser(address _user) public view returns (UserInfo memory) {\n        return idUserInfo[_user];\n    }\n\n    function fetchUsers() public view returns (UserInfo[] memory) {\n        uint userCount = _userIds.current();\n        UserInfo[] memory users =  new UserInfo[](userCount);\n\n        for (uint i = 0; i < userCount; i++) {\n            address currentAddr = addrList[i];\n            UserInfo storage currentUser = idUserInfo[currentAddr];\n            users[i] = currentUser;\n        }\n        return users;\n    }\n\n    function onERC1155Received(address, address, uint256, uint256, bytes memory) public virtual returns (bytes4) {\n        return this.onERC1155Received.selector;\n    }\n\n    function onERC1155BatchReceived(address, address, uint256[] memory, uint256[] memory, bytes memory) public virtual returns (bytes4) {\n        return this.onERC1155BatchReceived.selector;\n    }\n\n    function onERC721Received(address, address, uint256, bytes memory) public virtual returns (bytes4) {\n        return this.onERC721Received.selector;\n    }\n}\n",
  "sourcePath": "/Users/rokrokss/workspace/hyein/BEB-05-JMT/contract/contracts/MapleUser.sol",
  "compiler": {
    "name": "solc",
    "version": "0.8.17+commit.8df45f5f.Emscripten.clang"
  },
  "schemaVersion": "3.4.10",
  "updatedAt": "2022-09-29T02:55:23.531Z",
  "devdoc": {
    "kind": "dev",
    "methods": {
      "owner()": {
        "details": "Returns the address of the current owner."
      },
      "renounceOwnership()": {
        "details": "Leaves the contract without owner. It will not be possible to call `onlyOwner` functions anymore. Can only be called by the current owner. NOTE: Renouncing ownership will leave the contract without an owner, thereby removing any functionality that is only available to the owner."
      },
      "transferOwnership(address)": {
        "details": "Transfers ownership of the contract to a new account (`newOwner`). Can only be called by the current owner."
      }
    },
    "version": 1
  },
  "userdoc": {
    "kind": "user",
    "methods": {},
    "version": 1
  }
}