{
  "contractName": "MapleFight",
  "abi": [
    {
      "inputs": [
        {
          "internalType": "uint256",
          "name": "",
          "type": "uint256"
        }
      ],
      "name": "fightOwner",
      "outputs": [
        {
          "internalType": "address",
          "name": "",
          "type": "address"
        }
      ],
      "stateMutability": "view",
      "type": "function"
    },
    {
      "inputs": [
        {
          "internalType": "uint256",
          "name": "",
          "type": "uint256"
        }
      ],
      "name": "users",
      "outputs": [
        {
          "internalType": "uint256",
          "name": "weaponId",
          "type": "uint256"
        },
        {
          "internalType": "uint256",
          "name": "strength",
          "type": "uint256"
        },
        {
          "internalType": "uint256",
          "name": "winCount",
          "type": "uint256"
        },
        {
          "internalType": "uint256",
          "name": "loseCount",
          "type": "uint256"
        }
      ],
      "stateMutability": "view",
      "type": "function"
    },
    {
      "inputs": [
        {
          "internalType": "uint256",
          "name": "_userweaponId",
          "type": "uint256"
        },
        {
          "internalType": "uint256",
          "name": "_matchingweaponId",
          "type": "uint256"
        }
      ],
      "name": "fight",
      "outputs": [],
      "stateMutability": "nonpayable",
      "type": "function"
    }
  ],
  "bytecode": "0x608060405234801561001057600080fd5b50610569806100206000396000f3fe608060405234801561001057600080fd5b50600436106100415760003560e01c806333fa928a14610046578063365b98b214610076578063ca39e5ef146100a9575b600080fd5b610060600480360381019061005b9190610310565b6100c5565b60405161006d919061037e565b60405180910390f35b610090600480360381019061008b9190610310565b6100f8565b6040516100a094939291906103a8565b60405180910390f35b6100c360048036038101906100be91906103ed565b610138565b005b60016020528060005260406000206000915054906101000a900473ffffffffffffffffffffffffffffffffffffffff1681565b6000818154811061010857600080fd5b90600052602060002090600402016000915090508060000154908060010154908060020154908060030154905084565b6001600083815260200190815260200160002060009054906101000a900473ffffffffffffffffffffffffffffffffffffffff1673ffffffffffffffffffffffffffffffffffffffff163373ffffffffffffffffffffffffffffffffffffffff16146101a357600080fd5b60008083815481106101b8576101b761042d565b5b9060005260206000209060040201905060008083815481106101dd576101dc61042d565b5b90600052602060002090600402019050838260000181905550606484610203919061048b565b82600101819055506000826002018190555060008260030181905550828160000181905550606483610235919061048b565b8160010181905550600081600201819055506000816003018190555080600101548260010154111561029a57816002016000815480929190610276906104eb565b9190505550806003016000815480929190610290906104eb565b91905055506102cf565b8160030160008154809291906102af906104eb565b91905055508060020160008154809291906102c9906104eb565b91905055505b50505050565b600080fd5b6000819050919050565b6102ed816102da565b81146102f857600080fd5b50565b60008135905061030a816102e4565b92915050565b600060208284031215610326576103256102d5565b5b6000610334848285016102fb565b91505092915050565b600073ffffffffffffffffffffffffffffffffffffffff82169050919050565b60006103688261033d565b9050919050565b6103788161035d565b82525050565b6000602082019050610393600083018461036f565b92915050565b6103a2816102da565b82525050565b60006080820190506103bd6000830187610399565b6103ca6020830186610399565b6103d76040830185610399565b6103e46060830184610399565b95945050505050565b60008060408385031215610404576104036102d5565b5b6000610412858286016102fb565b9250506020610423858286016102fb565b9150509250929050565b7f4e487b7100000000000000000000000000000000000000000000000000000000600052603260045260246000fd5b7f4e487b7100000000000000000000000000000000000000000000000000000000600052601260045260246000fd5b6000610496826102da565b91506104a1836102da565b9250826104b1576104b061045c565b5b828206905092915050565b7f4e487b7100000000000000000000000000000000000000000000000000000000600052601160045260246000fd5b60006104f6826102da565b91507fffffffffffffffffffffffffffffffffffffffffffffffffffffffffffffffff8203610528576105276104bc565b5b60018201905091905056fea264697066735822122080f6d7917d74ef9b7f55e6468274e77ace3a018d33b393994c70581ace6a041564736f6c63430008110033",
  "immutableReferences": {},
  "source": "// SPDX-License-Identifier: MIT\npragma solidity ^0.8.10;\n\ncontract MapleFight {\n\n    struct User {\n        uint weaponId;\n        uint strength;\n        uint winCount;\n        uint loseCount;\n    }\n\n    User[] public users;\n\n    mapping (uint => address) public fightOwner;\n\n    function fight(uint _userweaponId, uint _matchingweaponId) public {\n        require(msg.sender == fightOwner[_userweaponId]);\n        User storage user = users[_userweaponId];\n        User storage matchinguser = users[_matchingweaponId];\n\n        user.weaponId = _userweaponId;\n        user.strength = _userweaponId % 100;\n        user.winCount = 0;\n        user.loseCount = 0;\n        matchinguser.weaponId = _matchingweaponId;\n        matchinguser.strength = _matchingweaponId % 100;\n        matchinguser.winCount = 0;\n        matchinguser.loseCount = 0;\n        \n        if ( user.strength > matchinguser.strength ) {\n            user.winCount++;\n            matchinguser.loseCount++;\n        } else {\n            user.loseCount++;\n            matchinguser.winCount++;\n        }\n    }\n}",
  "sourcePath": "/Users/king/BEB-05-JMT/contract/contracts/MapleFight.sol",
  "compiler": {
    "name": "solc",
    "version": "0.8.17+commit.8df45f5f.Emscripten.clang"
  },
  "schemaVersion": "3.4.9",
  "updatedAt": "2022-09-20T13:22:00.864Z",
  "devdoc": {
    "kind": "dev",
    "methods": {},
    "version": 1
  },
  "userdoc": {
    "kind": "user",
    "methods": {},
    "version": 1
  }
}