{
  "contractName": "MapleNFT",
  "abi": [
    {
      "inputs": [
        {
          "internalType": "address",
          "name": "_marketAddress",
          "type": "address"
        },
        {
          "internalType": "address",
          "name": "_tokenContractAddress",
          "type": "address"
        },
        {
          "internalType": "string",
          "name": "_MapleBaseURI",
          "type": "string"
        }
      ],
      "stateMutability": "nonpayable",
      "type": "constructor"
    },
    {
      "anonymous": false,
      "inputs": [
        {
          "indexed": true,
          "internalType": "address",
          "name": "owner",
          "type": "address"
        },
        {
          "indexed": true,
          "internalType": "address",
          "name": "approved",
          "type": "address"
        },
        {
          "indexed": true,
          "internalType": "uint256",
          "name": "tokenId",
          "type": "uint256"
        }
      ],
      "name": "Approval",
      "type": "event"
    },
    {
      "anonymous": false,
      "inputs": [
        {
          "indexed": true,
          "internalType": "address",
          "name": "owner",
          "type": "address"
        },
        {
          "indexed": true,
          "internalType": "address",
          "name": "operator",
          "type": "address"
        },
        {
          "indexed": false,
          "internalType": "bool",
          "name": "approved",
          "type": "bool"
        }
      ],
      "name": "ApprovalForAll",
      "type": "event"
    },
    {
      "anonymous": false,
      "inputs": [
        {
          "indexed": true,
          "internalType": "address",
          "name": "previousOwner",
          "type": "address"
        },
        {
          "indexed": true,
          "internalType": "address",
          "name": "newOwner",
          "type": "address"
        }
      ],
      "name": "OwnershipTransferred",
      "type": "event"
    },
    {
      "anonymous": false,
      "inputs": [
        {
          "indexed": true,
          "internalType": "address",
          "name": "from",
          "type": "address"
        },
        {
          "indexed": true,
          "internalType": "address",
          "name": "to",
          "type": "address"
        },
        {
          "indexed": true,
          "internalType": "uint256",
          "name": "tokenId",
          "type": "uint256"
        }
      ],
      "name": "Transfer",
      "type": "event"
    },
    {
      "inputs": [
        {
          "internalType": "address",
          "name": "to",
          "type": "address"
        },
        {
          "internalType": "uint256",
          "name": "tokenId",
          "type": "uint256"
        }
      ],
      "name": "approve",
      "outputs": [],
      "stateMutability": "nonpayable",
      "type": "function"
    },
    {
      "inputs": [
        {
          "internalType": "address",
          "name": "owner",
          "type": "address"
        }
      ],
      "name": "balanceOf",
      "outputs": [
        {
          "internalType": "uint256",
          "name": "",
          "type": "uint256"
        }
      ],
      "stateMutability": "view",
      "type": "function"
    },
    {
      "inputs": [
        {
          "internalType": "uint256",
          "name": "tokenId",
          "type": "uint256"
        }
      ],
      "name": "getApproved",
      "outputs": [
        {
          "internalType": "address",
          "name": "",
          "type": "address"
        }
      ],
      "stateMutability": "view",
      "type": "function"
    },
    {
      "inputs": [
        {
          "internalType": "address",
          "name": "owner",
          "type": "address"
        },
        {
          "internalType": "address",
          "name": "operator",
          "type": "address"
        }
      ],
      "name": "isApprovedForAll",
      "outputs": [
        {
          "internalType": "bool",
          "name": "",
          "type": "bool"
        }
      ],
      "stateMutability": "view",
      "type": "function"
    },
    {
      "inputs": [],
      "name": "name",
      "outputs": [
        {
          "internalType": "string",
          "name": "",
          "type": "string"
        }
      ],
      "stateMutability": "view",
      "type": "function"
    },
    {
      "inputs": [],
      "name": "owner",
      "outputs": [
        {
          "internalType": "address",
          "name": "",
          "type": "address"
        }
      ],
      "stateMutability": "view",
      "type": "function"
    },
    {
      "inputs": [
        {
          "internalType": "uint256",
          "name": "tokenId",
          "type": "uint256"
        }
      ],
      "name": "ownerOf",
      "outputs": [
        {
          "internalType": "address",
          "name": "",
          "type": "address"
        }
      ],
      "stateMutability": "view",
      "type": "function"
    },
    {
      "inputs": [],
      "name": "renounceOwnership",
      "outputs": [],
      "stateMutability": "nonpayable",
      "type": "function"
    },
    {
      "inputs": [
        {
          "internalType": "address",
          "name": "from",
          "type": "address"
        },
        {
          "internalType": "address",
          "name": "to",
          "type": "address"
        },
        {
          "internalType": "uint256",
          "name": "tokenId",
          "type": "uint256"
        }
      ],
      "name": "safeTransferFrom",
      "outputs": [],
      "stateMutability": "nonpayable",
      "type": "function"
    },
    {
      "inputs": [
        {
          "internalType": "address",
          "name": "from",
          "type": "address"
        },
        {
          "internalType": "address",
          "name": "to",
          "type": "address"
        },
        {
          "internalType": "uint256",
          "name": "tokenId",
          "type": "uint256"
        },
        {
          "internalType": "bytes",
          "name": "data",
          "type": "bytes"
        }
      ],
      "name": "safeTransferFrom",
      "outputs": [],
      "stateMutability": "nonpayable",
      "type": "function"
    },
    {
      "inputs": [
        {
          "internalType": "address",
          "name": "operator",
          "type": "address"
        },
        {
          "internalType": "bool",
          "name": "approved",
          "type": "bool"
        }
      ],
      "name": "setApprovalForAll",
      "outputs": [],
      "stateMutability": "nonpayable",
      "type": "function"
    },
    {
      "inputs": [],
      "name": "symbol",
      "outputs": [
        {
          "internalType": "string",
          "name": "",
          "type": "string"
        }
      ],
      "stateMutability": "view",
      "type": "function"
    },
    {
      "inputs": [
        {
          "internalType": "uint256",
          "name": "index",
          "type": "uint256"
        }
      ],
      "name": "tokenByIndex",
      "outputs": [
        {
          "internalType": "uint256",
          "name": "",
          "type": "uint256"
        }
      ],
      "stateMutability": "view",
      "type": "function"
    },
    {
      "inputs": [
        {
          "internalType": "address",
          "name": "owner",
          "type": "address"
        },
        {
          "internalType": "uint256",
          "name": "index",
          "type": "uint256"
        }
      ],
      "name": "tokenOfOwnerByIndex",
      "outputs": [
        {
          "internalType": "uint256",
          "name": "",
          "type": "uint256"
        }
      ],
      "stateMutability": "view",
      "type": "function"
    },
    {
      "inputs": [],
      "name": "totalSupply",
      "outputs": [
        {
          "internalType": "uint256",
          "name": "",
          "type": "uint256"
        }
      ],
      "stateMutability": "view",
      "type": "function"
    },
    {
      "inputs": [
        {
          "internalType": "address",
          "name": "from",
          "type": "address"
        },
        {
          "internalType": "address",
          "name": "to",
          "type": "address"
        },
        {
          "internalType": "uint256",
          "name": "tokenId",
          "type": "uint256"
        }
      ],
      "name": "transferFrom",
      "outputs": [],
      "stateMutability": "nonpayable",
      "type": "function"
    },
    {
      "inputs": [
        {
          "internalType": "address",
          "name": "newOwner",
          "type": "address"
        }
      ],
      "name": "transferOwnership",
      "outputs": [],
      "stateMutability": "nonpayable",
      "type": "function"
    },
    {
      "inputs": [],
      "name": "mintMapleNFT",
      "outputs": [
        {
          "internalType": "uint256",
          "name": "",
          "type": "uint256"
        }
      ],
      "stateMutability": "nonpayable",
      "type": "function"
    },
    {
      "inputs": [
        {
          "internalType": "bytes4",
          "name": "interfaceId",
          "type": "bytes4"
        }
      ],
      "name": "supportsInterface",
      "outputs": [
        {
          "internalType": "bool",
          "name": "",
          "type": "bool"
        }
      ],
      "stateMutability": "view",
      "type": "function"
    },
    {
      "inputs": [
        {
          "internalType": "uint256",
          "name": "_tokenId",
          "type": "uint256"
        }
      ],
      "name": "tokenURI",
      "outputs": [
        {
          "internalType": "string",
          "name": "",
          "type": "string"
        }
      ],
      "stateMutability": "view",
      "type": "function"
    },
    {
      "inputs": [],
      "name": "withdraw",
      "outputs": [
        {
          "internalType": "uint256",
          "name": "",
          "type": "uint256"
        }
      ],
      "stateMutability": "nonpayable",
      "type": "function"
    }
  ],
  "bytecode": "0x60806040523480156200001157600080fd5b50604051620042d0380380620042d0833981810160405281019062000037919062000612565b6040518060400160405280600881526020017f4d61706c654e46540000000000000000000000000000000000000000000000008152506040518060400160405280600381526020017f4e46540000000000000000000000000000000000000000000000000000000000815250620000c3620000b76200017660201b60201c565b6200017e60201b60201c565b8160019081620000d49190620008d8565b508060029081620000e69190620008d8565b50505082600e60006101000a81548173ffffffffffffffffffffffffffffffffffffffff021916908373ffffffffffffffffffffffffffffffffffffffff1602179055506001600d8190555060326010819055506200014b826200024260201b60201c565b506200015d81620002d860201b60201c565b6200016d620002fd60201b60201c565b50505062000abe565b600033905090565b60008060009054906101000a900473ffffffffffffffffffffffffffffffffffffffff169050816000806101000a81548173ffffffffffffffffffffffffffffffffffffffff021916908373ffffffffffffffffffffffffffffffffffffffff1602179055508173ffffffffffffffffffffffffffffffffffffffff168173ffffffffffffffffffffffffffffffffffffffff167f8be0079c531659141344cd1fd0a4f28419497f9722a3daafe3b4186f6b6457e060405160405180910390a35050565b6000620002546200036060201b60201c565b600073ffffffffffffffffffffffffffffffffffffffff168273ffffffffffffffffffffffffffffffffffffffff16036200028e57600080fd5b81600c60006101000a81548173ffffffffffffffffffffffffffffffffffffffff021916908373ffffffffffffffffffffffffffffffffffffffff16021790555060019050919050565b620002e86200036060201b60201c565b8060119081620002f99190620008d8565b5050565b6200030d6200036060201b60201c565b6000600190505b60105481116200035d57600f81908060018154018082558091505060019003906000526020600020016000909190919091505580806200035490620009ee565b91505062000314565b50565b620003706200017660201b60201c565b73ffffffffffffffffffffffffffffffffffffffff1662000396620003f160201b60201c565b73ffffffffffffffffffffffffffffffffffffffff1614620003ef576040517f08c379a0000000000000000000000000000000000000000000000000000000008152600401620003e69062000a9c565b60405180910390fd5b565b60008060009054906101000a900473ffffffffffffffffffffffffffffffffffffffff16905090565b6000604051905090565b600080fd5b600080fd5b600073ffffffffffffffffffffffffffffffffffffffff82169050919050565b60006200045b826200042e565b9050919050565b6200046d816200044e565b81146200047957600080fd5b50565b6000815190506200048d8162000462565b92915050565b600080fd5b600080fd5b6000601f19601f8301169050919050565b7f4e487b7100000000000000000000000000000000000000000000000000000000600052604160045260246000fd5b620004e8826200049d565b810181811067ffffffffffffffff821117156200050a5762000509620004ae565b5b80604052505050565b60006200051f6200041a565b90506200052d8282620004dd565b919050565b600067ffffffffffffffff82111562000550576200054f620004ae565b5b6200055b826200049d565b9050602081019050919050565b60005b83811015620005885780820151818401526020810190506200056b565b60008484015250505050565b6000620005ab620005a58462000532565b62000513565b905082815260208101848484011115620005ca57620005c962000498565b5b620005d784828562000568565b509392505050565b600082601f830112620005f757620005f662000493565b5b81516200060984826020860162000594565b91505092915050565b6000806000606084860312156200062e576200062d62000424565b5b60006200063e868287016200047c565b935050602062000651868287016200047c565b925050604084015167ffffffffffffffff81111562000675576200067462000429565b5b6200068386828701620005df565b9150509250925092565b600081519050919050565b7f4e487b7100000000000000000000000000000000000000000000000000000000600052602260045260246000fd5b60006002820490506001821680620006e057607f821691505b602082108103620006f657620006f562000698565b5b50919050565b60008190508160005260206000209050919050565b60006020601f8301049050919050565b600082821b905092915050565b600060088302620007607fffffffffffffffffffffffffffffffffffffffffffffffffffffffffffffffff8262000721565b6200076c868362000721565b95508019841693508086168417925050509392505050565b6000819050919050565b6000819050919050565b6000620007b9620007b3620007ad8462000784565b6200078e565b62000784565b9050919050565b6000819050919050565b620007d58362000798565b620007ed620007e482620007c0565b8484546200072e565b825550505050565b600090565b62000804620007f5565b62000811818484620007ca565b505050565b5b8181101562000839576200082d600082620007fa565b60018101905062000817565b5050565b601f82111562000888576200085281620006fc565b6200085d8462000711565b810160208510156200086d578190505b620008856200087c8562000711565b83018262000816565b50505b505050565b600082821c905092915050565b6000620008ad600019846008026200088d565b1980831691505092915050565b6000620008c883836200089a565b9150826002028217905092915050565b620008e3826200068d565b67ffffffffffffffff811115620008ff57620008fe620004ae565b5b6200090b8254620006c7565b620009188282856200083d565b600060209050601f8311600181146200095057600084156200093b578287015190505b620009478582620008ba565b865550620009b7565b601f1984166200096086620006fc565b60005b828110156200098a5784890151825560018201915060208501945060208101905062000963565b86831015620009aa5784890151620009a6601f8916826200089a565b8355505b6001600288020188555050505b505050505050565b7f4e487b7100000000000000000000000000000000000000000000000000000000600052601160045260246000fd5b6000620009fb8262000784565b91507fffffffffffffffffffffffffffffffffffffffffffffffffffffffffffffffff820362000a305762000a2f620009bf565b5b600182019050919050565b600082825260208201905092915050565b7f4f776e61626c653a2063616c6c6572206973206e6f7420746865206f776e6572600082015250565b600062000a8460208362000a3b565b915062000a918262000a4c565b602082019050919050565b6000602082019050818103600083015262000ab78162000a75565b9050919050565b6138028062000ace6000396000f3fe608060405234801561001057600080fd5b50600436106101375760003560e01c80634f6ccce7116100b857806395d89b411161007c57806395d89b4114610350578063a22cb4651461036e578063b88d4fde1461038a578063c87b56dd146103a6578063e985e9c5146103d6578063f2fde38b1461040657610137565b80634f6ccce7146102985780636352211e146102c857806370a08231146102f8578063715018a6146103285780638da5cb5b1461033257610137565b806323b872dd116100ff57806323b872dd146101f457806325379b00146102105780632f745c591461022e5780633ccfd60b1461025e57806342842e0e1461027c57610137565b806301ffc9a71461013c57806306fdde031461016c578063081812fc1461018a578063095ea7b3146101ba57806318160ddd146101d6575b600080fd5b6101566004803603810190610151919061251f565b610422565b6040516101639190612567565b60405180910390f35b610174610434565b6040516101819190612612565b60405180910390f35b6101a4600480360381019061019f919061266a565b6104c6565b6040516101b191906126d8565b60405180910390f35b6101d460048036038101906101cf919061271f565b61050c565b005b6101de610623565b6040516101eb919061276e565b60405180910390f35b61020e60048036038101906102099190612789565b610630565b005b610218610690565b604051610225919061276e565b60405180910390f35b6102486004803603810190610243919061271f565b610905565b604051610255919061276e565b60405180910390f35b6102666109aa565b604051610273919061276e565b60405180910390f35b61029660048036038101906102919190612789565b610b9f565b005b6102b260048036038101906102ad919061266a565b610bbf565b6040516102bf919061276e565b60405180910390f35b6102e260048036038101906102dd919061266a565b610c30565b6040516102ef91906126d8565b60405180910390f35b610312600480360381019061030d91906127dc565b610ce1565b60405161031f919061276e565b60405180910390f35b610330610d98565b005b61033a610dac565b60405161034791906126d8565b60405180910390f35b610358610dd5565b6040516103659190612612565b60405180910390f35b61038860048036038101906103839190612835565b610e67565b005b6103a4600480360381019061039f91906129aa565b610e7d565b005b6103c060048036038101906103bb919061266a565b610edf565b6040516103cd9190612612565b60405180910390f35b6103f060048036038101906103eb9190612a2d565b610ef1565b6040516103fd9190612567565b60405180910390f35b610420600480360381019061041b91906127dc565b610f85565b005b600061042d82611008565b9050919050565b60606001805461044390612a9c565b80601f016020809104026020016040519081016040528092919081815260200182805461046f90612a9c565b80156104bc5780601f10610491576101008083540402835291602001916104bc565b820191906000526020600020905b81548152906001019060200180831161049f57829003601f168201915b5050505050905090565b60006104d182611082565b6005600083815260200190815260200160002060009054906101000a900473ffffffffffffffffffffffffffffffffffffffff169050919050565b600061051782610c30565b90508073ffffffffffffffffffffffffffffffffffffffff168373ffffffffffffffffffffffffffffffffffffffff1603610587576040517f08c379a000000000000000000000000000000000000000000000000000000000815260040161057e90612b3f565b60405180910390fd5b8073ffffffffffffffffffffffffffffffffffffffff166105a66110cd565b73ffffffffffffffffffffffffffffffffffffffff1614806105d557506105d4816105cf6110cd565b610ef1565b5b610614576040517f08c379a000000000000000000000000000000000000000000000000000000000815260040161060b90612bd1565b60405180910390fd5b61061e83836110d5565b505050565b6000600980549050905090565b61064161063b6110cd565b8261118e565b610680576040517f08c379a000000000000000000000000000000000000000000000000000000000815260040161067790612c63565b60405180910390fd5b61068b838383611223565b505050565b6000600d54600c60009054906101000a900473ffffffffffffffffffffffffffffffffffffffff1673ffffffffffffffffffffffffffffffffffffffff166370a08231336040518263ffffffff1660e01b81526004016106f091906126d8565b602060405180830381865afa15801561070d573d6000803e3d6000fd5b505050506040513d601f19601f820116820180604052508101906107319190612c98565b1015610772576040517f08c379a000000000000000000000000000000000000000000000000000000000815260040161076990612d37565b60405180910390fd5b61077a610623565b60105410156107be576040517f08c379a00000000000000000000000000000000000000000000000000000000081526004016107b590612da3565b60405180910390fd5b600c60009054906101000a900473ffffffffffffffffffffffffffffffffffffffff1673ffffffffffffffffffffffffffffffffffffffff166323b872dd3330600d546040518463ffffffff1660e01b815260040161081f93929190612dc3565b6020604051808303816000875af115801561083e573d6000803e3d6000fd5b505050506040513d601f19601f820116820180604052508101906108629190612e0f565b5061086b611489565b6000600f6001600f805490506108819190612e6b565b8154811061089257610891612e9f565b5b90600052602060002001549050600f8054806108b1576108b0612ece565b5b600190038181906000526020600020016000905590556108d13382611569565b6108fe600e60009054906101000a900473ffffffffffffffffffffffffffffffffffffffff166001610e67565b8091505090565b600061091083610ce1565b8210610951576040517f08c379a000000000000000000000000000000000000000000000000000000000815260040161094890612f6f565b60405180910390fd5b600760008473ffffffffffffffffffffffffffffffffffffffff1673ffffffffffffffffffffffffffffffffffffffff168152602001908152602001600020600083815260200190815260200160002054905092915050565b60006109b4611587565b6000600c60009054906101000a900473ffffffffffffffffffffffffffffffffffffffff1673ffffffffffffffffffffffffffffffffffffffff166370a08231306040518263ffffffff1660e01b8152600401610a1191906126d8565b602060405180830381865afa158015610a2e573d6000803e3d6000fd5b505050506040513d601f19601f82011682018060405250810190610a529190612c98565b9050600c60009054906101000a900473ffffffffffffffffffffffffffffffffffffffff1673ffffffffffffffffffffffffffffffffffffffff1663095ea7b330836040518363ffffffff1660e01b8152600401610ab1929190612f8f565b6020604051808303816000875af1158015610ad0573d6000803e3d6000fd5b505050506040513d601f19601f82011682018060405250810190610af49190612e0f565b50600c60009054906101000a900473ffffffffffffffffffffffffffffffffffffffff1673ffffffffffffffffffffffffffffffffffffffff166323b872dd3033846040518463ffffffff1660e01b8152600401610b5493929190612dc3565b6020604051808303816000875af1158015610b73573d6000803e3d6000fd5b505050506040513d601f19601f82011682018060405250810190610b979190612e0f565b508091505090565b610bba83838360405180602001604052806000815250610e7d565b505050565b6000610bc9610623565b8210610c0a576040517f08c379a0000000000000000000000000000000000000000000000000000000008152600401610c019061302a565b60405180910390fd5b60098281548110610c1e57610c1d612e9f565b5b90600052602060002001549050919050565b6000806003600084815260200190815260200160002060009054906101000a900473ffffffffffffffffffffffffffffffffffffffff169050600073ffffffffffffffffffffffffffffffffffffffff168173ffffffffffffffffffffffffffffffffffffffff1603610cd8576040517f08c379a0000000000000000000000000000000000000000000000000000000008152600401610ccf90613096565b60405180910390fd5b80915050919050565b60008073ffffffffffffffffffffffffffffffffffffffff168273ffffffffffffffffffffffffffffffffffffffff1603610d51576040517f08c379a0000000000000000000000000000000000000000000000000000000008152600401610d4890613128565b60405180910390fd5b600460008373ffffffffffffffffffffffffffffffffffffffff1673ffffffffffffffffffffffffffffffffffffffff168152602001908152602001600020549050919050565b610da0611587565b610daa6000611605565b565b60008060009054906101000a900473ffffffffffffffffffffffffffffffffffffffff16905090565b606060028054610de490612a9c565b80601f0160208091040260200160405190810160405280929190818152602001828054610e1090612a9c565b8015610e5d5780601f10610e3257610100808354040283529160200191610e5d565b820191906000526020600020905b815481529060010190602001808311610e4057829003601f168201915b5050505050905090565b610e79610e726110cd565b83836116c9565b5050565b610e8e610e886110cd565b8361118e565b610ecd576040517f08c379a0000000000000000000000000000000000000000000000000000000008152600401610ec490612c63565b60405180910390fd5b610ed984848484611835565b50505050565b6060610eea82611891565b9050919050565b6000600660008473ffffffffffffffffffffffffffffffffffffffff1673ffffffffffffffffffffffffffffffffffffffff16815260200190815260200160002060008373ffffffffffffffffffffffffffffffffffffffff1673ffffffffffffffffffffffffffffffffffffffff16815260200190815260200160002060009054906101000a900460ff16905092915050565b610f8d611587565b600073ffffffffffffffffffffffffffffffffffffffff168173ffffffffffffffffffffffffffffffffffffffff1603610ffc576040517f08c379a0000000000000000000000000000000000000000000000000000000008152600401610ff3906131ba565b60405180910390fd5b61100581611605565b50565b60007f780e9d63000000000000000000000000000000000000000000000000000000007bffffffffffffffffffffffffffffffffffffffffffffffffffffffff1916827bffffffffffffffffffffffffffffffffffffffffffffffffffffffff1916148061107b575061107a826118f9565b5b9050919050565b61108b816119db565b6110ca576040517f08c379a00000000000000000000000000000000000000000000000000000000081526004016110c190613096565b60405180910390fd5b50565b600033905090565b816005600083815260200190815260200160002060006101000a81548173ffffffffffffffffffffffffffffffffffffffff021916908373ffffffffffffffffffffffffffffffffffffffff160217905550808273ffffffffffffffffffffffffffffffffffffffff1661114883610c30565b73ffffffffffffffffffffffffffffffffffffffff167f8c5be1e5ebec7d5bd14f71427d1e84f3dd0314c0f7b2291e5b200ac8c7c3b92560405160405180910390a45050565b60008061119a83610c30565b90508073ffffffffffffffffffffffffffffffffffffffff168473ffffffffffffffffffffffffffffffffffffffff1614806111dc57506111db8185610ef1565b5b8061121a57508373ffffffffffffffffffffffffffffffffffffffff16611202846104c6565b73ffffffffffffffffffffffffffffffffffffffff16145b91505092915050565b8273ffffffffffffffffffffffffffffffffffffffff1661124382610c30565b73ffffffffffffffffffffffffffffffffffffffff1614611299576040517f08c379a00000000000000000000000000000000000000000000000000000000081526004016112909061324c565b60405180910390fd5b600073ffffffffffffffffffffffffffffffffffffffff168273ffffffffffffffffffffffffffffffffffffffff1603611308576040517f08c379a00000000000000000000000000000000000000000000000000000000081526004016112ff906132de565b60405180910390fd5b611313838383611a47565b61131e6000826110d5565b6001600460008573ffffffffffffffffffffffffffffffffffffffff1673ffffffffffffffffffffffffffffffffffffffff168152602001908152602001600020600082825461136e9190612e6b565b925050819055506001600460008473ffffffffffffffffffffffffffffffffffffffff1673ffffffffffffffffffffffffffffffffffffffff16815260200190815260200160002060008282546113c591906132fe565b92505081905550816003600083815260200190815260200160002060006101000a81548173ffffffffffffffffffffffffffffffffffffffff021916908373ffffffffffffffffffffffffffffffffffffffff160217905550808273ffffffffffffffffffffffffffffffffffffffff168473ffffffffffffffffffffffffffffffffffffffff167fddf252ad1be2c89b69c2b068fc378daa952ba7f163c4a11628f55a4df523b3ef60405160405180910390a4611484838383611a57565b505050565b60006001600f8054905061149d9190612e6b565b90506000600f80549050426040516020016114b89190613353565b6040516020818303038152906040528051906020012060001c6114db919061339d565b90506000600f82815481106114f3576114f2612e9f565b5b90600052602060002001549050600f838154811061151457611513612e9f565b5b9060005260206000200154600f838154811061153357611532612e9f565b5b906000526020600020018190555080600f848154811061155657611555612e9f565b5b9060005260206000200181905550505050565b611583828260405180602001604052806000815250611a5c565b5050565b61158f6110cd565b73ffffffffffffffffffffffffffffffffffffffff166115ad610dac565b73ffffffffffffffffffffffffffffffffffffffff1614611603576040517f08c379a00000000000000000000000000000000000000000000000000000000081526004016115fa9061341a565b60405180910390fd5b565b60008060009054906101000a900473ffffffffffffffffffffffffffffffffffffffff169050816000806101000a81548173ffffffffffffffffffffffffffffffffffffffff021916908373ffffffffffffffffffffffffffffffffffffffff1602179055508173ffffffffffffffffffffffffffffffffffffffff168173ffffffffffffffffffffffffffffffffffffffff167f8be0079c531659141344cd1fd0a4f28419497f9722a3daafe3b4186f6b6457e060405160405180910390a35050565b8173ffffffffffffffffffffffffffffffffffffffff168373ffffffffffffffffffffffffffffffffffffffff1603611737576040517f08c379a000000000000000000000000000000000000000000000000000000000815260040161172e90613486565b60405180910390fd5b80600660008573ffffffffffffffffffffffffffffffffffffffff1673ffffffffffffffffffffffffffffffffffffffff16815260200190815260200160002060008473ffffffffffffffffffffffffffffffffffffffff1673ffffffffffffffffffffffffffffffffffffffff16815260200190815260200160002060006101000a81548160ff0219169083151502179055508173ffffffffffffffffffffffffffffffffffffffff168373ffffffffffffffffffffffffffffffffffffffff167f17307eab39ab6107e8899845ad3d59bd9653f200f220920489ca2b5937696c31836040516118289190612567565b60405180910390a3505050565b611840848484611223565b61184c84848484611ab7565b61188b576040517f08c379a000000000000000000000000000000000000000000000000000000000815260040161188290613518565b60405180910390fd5b50505050565b606061189c82611082565b60006118a6611c3e565b905060008151116118c657604051806020016040528060008152506118f1565b806118d084611cd0565b6040516020016118e1929190613574565b6040516020818303038152906040525b915050919050565b60007f80ac58cd000000000000000000000000000000000000000000000000000000007bffffffffffffffffffffffffffffffffffffffffffffffffffffffff1916827bffffffffffffffffffffffffffffffffffffffffffffffffffffffff191614806119c457507f5b5e139f000000000000000000000000000000000000000000000000000000007bffffffffffffffffffffffffffffffffffffffffffffffffffffffff1916827bffffffffffffffffffffffffffffffffffffffffffffffffffffffff1916145b806119d457506119d382611e30565b5b9050919050565b60008073ffffffffffffffffffffffffffffffffffffffff166003600084815260200190815260200160002060009054906101000a900473ffffffffffffffffffffffffffffffffffffffff1673ffffffffffffffffffffffffffffffffffffffff1614159050919050565b611a52838383611e9a565b505050565b505050565b611a668383611fac565b611a736000848484611ab7565b611ab2576040517f08c379a0000000000000000000000000000000000000000000000000000000008152600401611aa990613518565b60405180910390fd5b505050565b6000611ad88473ffffffffffffffffffffffffffffffffffffffff16612185565b15611c31578373ffffffffffffffffffffffffffffffffffffffff1663150b7a02611b016110cd565b8786866040518563ffffffff1660e01b8152600401611b2394939291906135ed565b6020604051808303816000875af1925050508015611b5f57506040513d601f19601f82011682018060405250810190611b5c919061364e565b60015b611be1573d8060008114611b8f576040519150601f19603f3d011682016040523d82523d6000602084013e611b94565b606091505b506000815103611bd9576040517f08c379a0000000000000000000000000000000000000000000000000000000008152600401611bd090613518565b60405180910390fd5b805181602001fd5b63150b7a0260e01b7bffffffffffffffffffffffffffffffffffffffffffffffffffffffff1916817bffffffffffffffffffffffffffffffffffffffffffffffffffffffff191614915050611c36565b600190505b949350505050565b606060118054611c4d90612a9c565b80601f0160208091040260200160405190810160405280929190818152602001828054611c7990612a9c565b8015611cc65780601f10611c9b57610100808354040283529160200191611cc6565b820191906000526020600020905b815481529060010190602001808311611ca957829003601f168201915b5050505050905090565b606060008203611d17576040518060400160405280600181526020017f30000000000000000000000000000000000000000000000000000000000000008152509050611e2b565b600082905060005b60008214611d49578080611d329061367b565b915050600a82611d4291906136c3565b9150611d1f565b60008167ffffffffffffffff811115611d6557611d6461287f565b5b6040519080825280601f01601f191660200182016040528015611d975781602001600182028036833780820191505090505b5090505b60008514611e2457600182611db09190612e6b565b9150600a85611dbf919061339d565b6030611dcb91906132fe565b60f81b818381518110611de157611de0612e9f565b5b60200101907effffffffffffffffffffffffffffffffffffffffffffffffffffffffffffff1916908160001a905350600a85611e1d91906136c3565b9450611d9b565b8093505050505b919050565b60007f01ffc9a7000000000000000000000000000000000000000000000000000000007bffffffffffffffffffffffffffffffffffffffffffffffffffffffff1916827bffffffffffffffffffffffffffffffffffffffffffffffffffffffff1916149050919050565b611ea58383836121a8565b600073ffffffffffffffffffffffffffffffffffffffff168373ffffffffffffffffffffffffffffffffffffffff1603611ee757611ee2816121ad565b611f26565b8173ffffffffffffffffffffffffffffffffffffffff168373ffffffffffffffffffffffffffffffffffffffff1614611f2557611f2483826121f6565b5b5b600073ffffffffffffffffffffffffffffffffffffffff168273ffffffffffffffffffffffffffffffffffffffff1603611f6857611f6381612363565b611fa7565b8273ffffffffffffffffffffffffffffffffffffffff168273ffffffffffffffffffffffffffffffffffffffff1614611fa657611fa58282612434565b5b5b505050565b600073ffffffffffffffffffffffffffffffffffffffff168273ffffffffffffffffffffffffffffffffffffffff160361201b576040517f08c379a000000000000000000000000000000000000000000000000000000000815260040161201290613740565b60405180910390fd5b612024816119db565b15612064576040517f08c379a000000000000000000000000000000000000000000000000000000000815260040161205b906137ac565b60405180910390fd5b61207060008383611a47565b6001600460008473ffffffffffffffffffffffffffffffffffffffff1673ffffffffffffffffffffffffffffffffffffffff16815260200190815260200160002060008282546120c091906132fe565b92505081905550816003600083815260200190815260200160002060006101000a81548173ffffffffffffffffffffffffffffffffffffffff021916908373ffffffffffffffffffffffffffffffffffffffff160217905550808273ffffffffffffffffffffffffffffffffffffffff16600073ffffffffffffffffffffffffffffffffffffffff167fddf252ad1be2c89b69c2b068fc378daa952ba7f163c4a11628f55a4df523b3ef60405160405180910390a461218160008383611a57565b5050565b6000808273ffffffffffffffffffffffffffffffffffffffff163b119050919050565b505050565b600980549050600a600083815260200190815260200160002081905550600981908060018154018082558091505060019003906000526020600020016000909190919091505550565b6000600161220384610ce1565b61220d9190612e6b565b90506000600860008481526020019081526020016000205490508181146122f2576000600760008673ffffffffffffffffffffffffffffffffffffffff1673ffffffffffffffffffffffffffffffffffffffff168152602001908152602001600020600084815260200190815260200160002054905080600760008773ffffffffffffffffffffffffffffffffffffffff1673ffffffffffffffffffffffffffffffffffffffff168152602001908152602001600020600084815260200190815260200160002081905550816008600083815260200190815260200160002081905550505b6008600084815260200190815260200160002060009055600760008573ffffffffffffffffffffffffffffffffffffffff1673ffffffffffffffffffffffffffffffffffffffff16815260200190815260200160002060008381526020019081526020016000206000905550505050565b600060016009805490506123779190612e6b565b90506000600a60008481526020019081526020016000205490506000600983815481106123a7576123a6612e9f565b5b9060005260206000200154905080600983815481106123c9576123c8612e9f565b5b906000526020600020018190555081600a600083815260200190815260200160002081905550600a600085815260200190815260200160002060009055600980548061241857612417612ece565b5b6001900381819060005260206000200160009055905550505050565b600061243f83610ce1565b905081600760008573ffffffffffffffffffffffffffffffffffffffff1673ffffffffffffffffffffffffffffffffffffffff168152602001908152602001600020600083815260200190815260200160002081905550806008600084815260200190815260200160002081905550505050565b6000604051905090565b600080fd5b600080fd5b60007fffffffff0000000000000000000000000000000000000000000000000000000082169050919050565b6124fc816124c7565b811461250757600080fd5b50565b600081359050612519816124f3565b92915050565b600060208284031215612535576125346124bd565b5b60006125438482850161250a565b91505092915050565b60008115159050919050565b6125618161254c565b82525050565b600060208201905061257c6000830184612558565b92915050565b600081519050919050565b600082825260208201905092915050565b60005b838110156125bc5780820151818401526020810190506125a1565b60008484015250505050565b6000601f19601f8301169050919050565b60006125e482612582565b6125ee818561258d565b93506125fe81856020860161259e565b612607816125c8565b840191505092915050565b6000602082019050818103600083015261262c81846125d9565b905092915050565b6000819050919050565b61264781612634565b811461265257600080fd5b50565b6000813590506126648161263e565b92915050565b6000602082840312156126805761267f6124bd565b5b600061268e84828501612655565b91505092915050565b600073ffffffffffffffffffffffffffffffffffffffff82169050919050565b60006126c282612697565b9050919050565b6126d2816126b7565b82525050565b60006020820190506126ed60008301846126c9565b92915050565b6126fc816126b7565b811461270757600080fd5b50565b600081359050612719816126f3565b92915050565b60008060408385031215612736576127356124bd565b5b60006127448582860161270a565b925050602061275585828601612655565b9150509250929050565b61276881612634565b82525050565b6000602082019050612783600083018461275f565b92915050565b6000806000606084860312156127a2576127a16124bd565b5b60006127b08682870161270a565b93505060206127c18682870161270a565b92505060406127d286828701612655565b9150509250925092565b6000602082840312156127f2576127f16124bd565b5b60006128008482850161270a565b91505092915050565b6128128161254c565b811461281d57600080fd5b50565b60008135905061282f81612809565b92915050565b6000806040838503121561284c5761284b6124bd565b5b600061285a8582860161270a565b925050602061286b85828601612820565b9150509250929050565b600080fd5b600080fd5b7f4e487b7100000000000000000000000000000000000000000000000000000000600052604160045260246000fd5b6128b7826125c8565b810181811067ffffffffffffffff821117156128d6576128d561287f565b5b80604052505050565b60006128e96124b3565b90506128f582826128ae565b919050565b600067ffffffffffffffff8211156129155761291461287f565b5b61291e826125c8565b9050602081019050919050565b82818337600083830152505050565b600061294d612948846128fa565b6128df565b9050828152602081018484840111156129695761296861287a565b5b61297484828561292b565b509392505050565b600082601f83011261299157612990612875565b5b81356129a184826020860161293a565b91505092915050565b600080600080608085870312156129c4576129c36124bd565b5b60006129d28782880161270a565b94505060206129e38782880161270a565b93505060406129f487828801612655565b925050606085013567ffffffffffffffff811115612a1557612a146124c2565b5b612a218782880161297c565b91505092959194509250565b60008060408385031215612a4457612a436124bd565b5b6000612a528582860161270a565b9250506020612a638582860161270a565b9150509250929050565b7f4e487b7100000000000000000000000000000000000000000000000000000000600052602260045260246000fd5b60006002820490506001821680612ab457607f821691505b602082108103612ac757612ac6612a6d565b5b50919050565b7f4552433732313a20617070726f76616c20746f2063757272656e74206f776e6560008201527f7200000000000000000000000000000000000000000000000000000000000000602082015250565b6000612b2960218361258d565b9150612b3482612acd565b604082019050919050565b60006020820190508181036000830152612b5881612b1c565b9050919050565b7f4552433732313a20617070726f76652063616c6c6572206973206e6f7420746f60008201527f6b656e206f776e6572206e6f7220617070726f76656420666f7220616c6c0000602082015250565b6000612bbb603e8361258d565b9150612bc682612b5f565b604082019050919050565b60006020820190508181036000830152612bea81612bae565b9050919050565b7f4552433732313a2063616c6c6572206973206e6f7420746f6b656e206f776e6560008201527f72206e6f7220617070726f766564000000000000000000000000000000000000602082015250565b6000612c4d602e8361258d565b9150612c5882612bf1565b604082019050919050565b60006020820190508181036000830152612c7c81612c40565b9050919050565b600081519050612c928161263e565b92915050565b600060208284031215612cae57612cad6124bd565b5b6000612cbc84828501612c83565b91505092915050565b7f4552433732313a20726563697069656e74206c61636b206f662065726332302060008201527f62616c616e636500000000000000000000000000000000000000000000000000602082015250565b6000612d2160278361258d565b9150612d2c82612cc5565b604082019050919050565b60006020820190508181036000830152612d5081612d14565b9050919050565b7f4552433732313a20616c6c206e66747320617265206d696e7465640000000000600082015250565b6000612d8d601b8361258d565b9150612d9882612d57565b602082019050919050565b60006020820190508181036000830152612dbc81612d80565b9050919050565b6000606082019050612dd860008301866126c9565b612de560208301856126c9565b612df2604083018461275f565b949350505050565b600081519050612e0981612809565b92915050565b600060208284031215612e2557612e246124bd565b5b6000612e3384828501612dfa565b91505092915050565b7f4e487b7100000000000000000000000000000000000000000000000000000000600052601160045260246000fd5b6000612e7682612634565b9150612e8183612634565b9250828203905081811115612e9957612e98612e3c565b5b92915050565b7f4e487b7100000000000000000000000000000000000000000000000000000000600052603260045260246000fd5b7f4e487b7100000000000000000000000000000000000000000000000000000000600052603160045260246000fd5b7f455243373231456e756d657261626c653a206f776e657220696e646578206f7560008201527f74206f6620626f756e6473000000000000000000000000000000000000000000602082015250565b6000612f59602b8361258d565b9150612f6482612efd565b604082019050919050565b60006020820190508181036000830152612f8881612f4c565b9050919050565b6000604082019050612fa460008301856126c9565b612fb1602083018461275f565b9392505050565b7f455243373231456e756d657261626c653a20676c6f62616c20696e646578206f60008201527f7574206f6620626f756e64730000000000000000000000000000000000000000602082015250565b6000613014602c8361258d565b915061301f82612fb8565b604082019050919050565b6000602082019050818103600083015261304381613007565b9050919050565b7f4552433732313a20696e76616c696420746f6b656e2049440000000000000000600082015250565b600061308060188361258d565b915061308b8261304a565b602082019050919050565b600060208201905081810360008301526130af81613073565b9050919050565b7f4552433732313a2061646472657373207a65726f206973206e6f74206120766160008201527f6c6964206f776e65720000000000000000000000000000000000000000000000602082015250565b600061311260298361258d565b915061311d826130b6565b604082019050919050565b6000602082019050818103600083015261314181613105565b9050919050565b7f4f776e61626c653a206e6577206f776e657220697320746865207a65726f206160008201527f6464726573730000000000000000000000000000000000000000000000000000602082015250565b60006131a460268361258d565b91506131af82613148565b604082019050919050565b600060208201905081810360008301526131d381613197565b9050919050565b7f4552433732313a207472616e736665722066726f6d20696e636f72726563742060008201527f6f776e6572000000000000000000000000000000000000000000000000000000602082015250565b600061323660258361258d565b9150613241826131da565b604082019050919050565b6000602082019050818103600083015261326581613229565b9050919050565b7f4552433732313a207472616e7366657220746f20746865207a65726f2061646460008201527f7265737300000000000000000000000000000000000000000000000000000000602082015250565b60006132c860248361258d565b91506132d38261326c565b604082019050919050565b600060208201905081810360008301526132f7816132bb565b9050919050565b600061330982612634565b915061331483612634565b925082820190508082111561332c5761332b612e3c565b5b92915050565b6000819050919050565b61334d61334882612634565b613332565b82525050565b600061335f828461333c565b60208201915081905092915050565b7f4e487b7100000000000000000000000000000000000000000000000000000000600052601260045260246000fd5b60006133a882612634565b91506133b383612634565b9250826133c3576133c261336e565b5b828206905092915050565b7f4f776e61626c653a2063616c6c6572206973206e6f7420746865206f776e6572600082015250565b600061340460208361258d565b915061340f826133ce565b602082019050919050565b60006020820190508181036000830152613433816133f7565b9050919050565b7f4552433732313a20617070726f766520746f2063616c6c657200000000000000600082015250565b600061347060198361258d565b915061347b8261343a565b602082019050919050565b6000602082019050818103600083015261349f81613463565b9050919050565b7f4552433732313a207472616e7366657220746f206e6f6e20455243373231526560008201527f63656976657220696d706c656d656e7465720000000000000000000000000000602082015250565b600061350260328361258d565b915061350d826134a6565b604082019050919050565b60006020820190508181036000830152613531816134f5565b9050919050565b600081905092915050565b600061354e82612582565b6135588185613538565b935061356881856020860161259e565b80840191505092915050565b60006135808285613543565b915061358c8284613543565b91508190509392505050565b600081519050919050565b600082825260208201905092915050565b60006135bf82613598565b6135c981856135a3565b93506135d981856020860161259e565b6135e2816125c8565b840191505092915050565b600060808201905061360260008301876126c9565b61360f60208301866126c9565b61361c604083018561275f565b818103606083015261362e81846135b4565b905095945050505050565b600081519050613648816124f3565b92915050565b600060208284031215613664576136636124bd565b5b600061367284828501613639565b91505092915050565b600061368682612634565b91507fffffffffffffffffffffffffffffffffffffffffffffffffffffffffffffffff82036136b8576136b7612e3c565b5b600182019050919050565b60006136ce82612634565b91506136d983612634565b9250826136e9576136e861336e565b5b828204905092915050565b7f4552433732313a206d696e7420746f20746865207a65726f2061646472657373600082015250565b600061372a60208361258d565b9150613735826136f4565b602082019050919050565b600060208201905081810360008301526137598161371d565b9050919050565b7f4552433732313a20746f6b656e20616c7265616479206d696e74656400000000600082015250565b6000613796601c8361258d565b91506137a182613760565b602082019050919050565b600060208201905081810360008301526137c581613789565b905091905056fea26469706673582212203290859d310ec64568e5eccf36c66ad73fbbad739b39788e47ae9bc06de6d60964736f6c63430008100033",
  "immutableReferences": {},
  "source": "// SPDX-License-Identifier: MIT\npragma solidity ^0.8.10;\n\nimport \"@openzeppelin/contracts/token/ERC721/ERC721.sol\";\nimport \"@openzeppelin/contracts/utils/Counters.sol\";\nimport \"@openzeppelin/contracts/access/Ownable.sol\";\nimport \"@openzeppelin/contracts/token/ERC721/extensions/ERC721Enumerable.sol\";\nimport \"./interfaces/ERC20Interface.sol\";\n\ncontract MapleNFT is Ownable, ERC721Enumerable {\n    using Counters for Counters.Counter;\n    Counters.Counter private _tokenIds;\n\n    ERC20Interface private token;\n    uint256 private mintPrice;\n    address private marketContractAddress;\n    uint256[] private waitForMint;\n    uint256 private maxTokenNum;\n    string private baseURIextended;\n\n    constructor(address _marketAddress, address _tokenContractAddress, string memory _MapleBaseURI) ERC721(\"MapleNFT\", \"NFT\") {\n        marketContractAddress = _marketAddress;\n\n        mintPrice = 1;\n        maxTokenNum = 50; // TODO: change to 10000 on live environment\n        _setToken(_tokenContractAddress);\n        _setBaseURI(_MapleBaseURI);\n        _generateMintArray();\n    }\n\n    function _generateMintArray() private onlyOwner {\n        for (uint256 i = 1; i <= maxTokenNum; i++) {\n            waitForMint.push(i);\n        }\n    }\n\n    function mintMapleNFT() public returns (uint256) {\n        require(token.balanceOf(msg.sender) >= mintPrice, \"ERC721: recipient lack of erc20 balance\");\n        require(maxTokenNum >= totalSupply(), \"ERC721: all nfts are minted\");\n\n        token.transferFrom(msg.sender, address(this), mintPrice);\n\n        _shuffleMintArray();\n        uint256 minted = waitForMint[waitForMint.length - 1];\n        waitForMint.pop();\n\n        _safeMint(msg.sender, minted);\n        setApprovalForAll(marketContractAddress, true); // grant transaction permission to market\n\n        return minted;\n    }\n\n    function _shuffleMintArray() private {\n        uint256 i = waitForMint.length - 1;\n        /*\n         * IMPORTANT:   block.timestamp  chainlink     .\n         */\n        uint256 n = uint256(keccak256(abi.encodePacked(block.timestamp))) % (waitForMint.length);\n        uint256 temp = waitForMint[n];\n        waitForMint[n] = waitForMint[i];\n        waitForMint[i] = temp;\n    }\n\n    function _setBaseURI(string memory _MapleBaseURI) private onlyOwner {\n        baseURIextended = _MapleBaseURI;\n    }\n\n    function _baseURI() internal view virtual override returns (string memory) {\n        return baseURIextended;\n    }\n\n    function _beforeTokenTransfer(\n        address from,\n        address to,\n        uint256 tokenId\n    ) internal override {\n        super._beforeTokenTransfer(from, to, tokenId);\n    }\n\n    function _burn(\n        uint256 _tokenId\n    ) internal override {\n        super._burn(_tokenId);\n    }\n\n    function supportsInterface(bytes4 interfaceId) public view override returns (bool) {\n        return super.supportsInterface(interfaceId);\n    }\n\n    function tokenURI(\n        uint256 _tokenId\n    ) public view override returns (string memory) {\n        return super.tokenURI(_tokenId);\n    }\n\n    function _setToken(address _tokenAddress) private onlyOwner returns (bool) {\n        require(_tokenAddress != address(0x0));\n        token = ERC20Interface(_tokenAddress);\n        return true;\n    }\n\n    function withdraw() external onlyOwner returns (uint256) {\n        uint256 totalValue = token.balanceOf(address(this));\n        token.approve(address(this), totalValue);\n        token.transferFrom(address(this), msg.sender, totalValue);\n        return totalValue;\n    }\n}\n",
  "sourcePath": "/Users/rokrokss/workspace/hyein/BEB-05-JMT/contract/contracts/MapleNFT.sol",
  "compiler": {
    "name": "solc",
    "version": "0.8.16+commit.07a7930e.Emscripten.clang"
  },
  "schemaVersion": "3.4.8",
  "updatedAt": "2022-09-04T21:22:16.025Z",
  "devdoc": {
    "kind": "dev",
    "methods": {
      "approve(address,uint256)": {
        "details": "See {IERC721-approve}."
      },
      "balanceOf(address)": {
        "details": "See {IERC721-balanceOf}."
      },
      "getApproved(uint256)": {
        "details": "See {IERC721-getApproved}."
      },
      "isApprovedForAll(address,address)": {
        "details": "See {IERC721-isApprovedForAll}."
      },
      "name()": {
        "details": "See {IERC721Metadata-name}."
      },
      "owner()": {
        "details": "Returns the address of the current owner."
      },
      "ownerOf(uint256)": {
        "details": "See {IERC721-ownerOf}."
      },
      "renounceOwnership()": {
        "details": "Leaves the contract without owner. It will not be possible to call `onlyOwner` functions anymore. Can only be called by the current owner. NOTE: Renouncing ownership will leave the contract without an owner, thereby removing any functionality that is only available to the owner."
      },
      "safeTransferFrom(address,address,uint256)": {
        "details": "See {IERC721-safeTransferFrom}."
      },
      "safeTransferFrom(address,address,uint256,bytes)": {
        "details": "See {IERC721-safeTransferFrom}."
      },
      "setApprovalForAll(address,bool)": {
        "details": "See {IERC721-setApprovalForAll}."
      },
      "supportsInterface(bytes4)": {
        "details": "See {IERC165-supportsInterface}."
      },
      "symbol()": {
        "details": "See {IERC721Metadata-symbol}."
      },
      "tokenByIndex(uint256)": {
        "details": "See {IERC721Enumerable-tokenByIndex}."
      },
      "tokenOfOwnerByIndex(address,uint256)": {
        "details": "See {IERC721Enumerable-tokenOfOwnerByIndex}."
      },
      "totalSupply()": {
        "details": "See {IERC721Enumerable-totalSupply}."
      },
      "transferFrom(address,address,uint256)": {
        "details": "See {IERC721-transferFrom}."
      },
      "transferOwnership(address)": {
        "details": "Transfers ownership of the contract to a new account (`newOwner`). Can only be called by the current owner."
      }
    },
    "version": 1
  },
  "userdoc": {
    "kind": "user",
    "methods": {},
    "version": 1
  }
}