{
  "contractName": "MapleItems",
  "abi": [
    {
      "inputs": [
        {
          "internalType": "address",
          "name": "_marketAddress",
          "type": "address"
        },
        {
          "internalType": "address",
          "name": "_tokenContractAddress",
          "type": "address"
        }
      ],
      "stateMutability": "nonpayable",
      "type": "constructor"
    },
    {
      "anonymous": false,
      "inputs": [
        {
          "indexed": true,
          "internalType": "address",
          "name": "account",
          "type": "address"
        },
        {
          "indexed": true,
          "internalType": "address",
          "name": "operator",
          "type": "address"
        },
        {
          "indexed": false,
          "internalType": "bool",
          "name": "approved",
          "type": "bool"
        }
      ],
      "name": "ApprovalForAll",
      "type": "event"
    },
    {
      "anonymous": false,
      "inputs": [
        {
          "indexed": true,
          "internalType": "address",
          "name": "previousOwner",
          "type": "address"
        },
        {
          "indexed": true,
          "internalType": "address",
          "name": "newOwner",
          "type": "address"
        }
      ],
      "name": "OwnershipTransferred",
      "type": "event"
    },
    {
      "anonymous": false,
      "inputs": [
        {
          "indexed": true,
          "internalType": "address",
          "name": "operator",
          "type": "address"
        },
        {
          "indexed": true,
          "internalType": "address",
          "name": "from",
          "type": "address"
        },
        {
          "indexed": true,
          "internalType": "address",
          "name": "to",
          "type": "address"
        },
        {
          "indexed": false,
          "internalType": "uint256[]",
          "name": "ids",
          "type": "uint256[]"
        },
        {
          "indexed": false,
          "internalType": "uint256[]",
          "name": "values",
          "type": "uint256[]"
        }
      ],
      "name": "TransferBatch",
      "type": "event"
    },
    {
      "anonymous": false,
      "inputs": [
        {
          "indexed": true,
          "internalType": "address",
          "name": "operator",
          "type": "address"
        },
        {
          "indexed": true,
          "internalType": "address",
          "name": "from",
          "type": "address"
        },
        {
          "indexed": true,
          "internalType": "address",
          "name": "to",
          "type": "address"
        },
        {
          "indexed": false,
          "internalType": "uint256",
          "name": "id",
          "type": "uint256"
        },
        {
          "indexed": false,
          "internalType": "uint256",
          "name": "value",
          "type": "uint256"
        }
      ],
      "name": "TransferSingle",
      "type": "event"
    },
    {
      "anonymous": false,
      "inputs": [
        {
          "indexed": false,
          "internalType": "string",
          "name": "value",
          "type": "string"
        },
        {
          "indexed": true,
          "internalType": "uint256",
          "name": "id",
          "type": "uint256"
        }
      ],
      "name": "URI",
      "type": "event"
    },
    {
      "inputs": [],
      "name": "BOW0",
      "outputs": [
        {
          "internalType": "uint256",
          "name": "",
          "type": "uint256"
        }
      ],
      "stateMutability": "view",
      "type": "function",
      "constant": true
    },
    {
      "inputs": [],
      "name": "BOW1",
      "outputs": [
        {
          "internalType": "uint256",
          "name": "",
          "type": "uint256"
        }
      ],
      "stateMutability": "view",
      "type": "function",
      "constant": true
    },
    {
      "inputs": [],
      "name": "BOW2",
      "outputs": [
        {
          "internalType": "uint256",
          "name": "",
          "type": "uint256"
        }
      ],
      "stateMutability": "view",
      "type": "function",
      "constant": true
    },
    {
      "inputs": [],
      "name": "POLEARM0",
      "outputs": [
        {
          "internalType": "uint256",
          "name": "",
          "type": "uint256"
        }
      ],
      "stateMutability": "view",
      "type": "function",
      "constant": true
    },
    {
      "inputs": [],
      "name": "POLEARM1",
      "outputs": [
        {
          "internalType": "uint256",
          "name": "",
          "type": "uint256"
        }
      ],
      "stateMutability": "view",
      "type": "function",
      "constant": true
    },
    {
      "inputs": [],
      "name": "POLEARM2",
      "outputs": [
        {
          "internalType": "uint256",
          "name": "",
          "type": "uint256"
        }
      ],
      "stateMutability": "view",
      "type": "function",
      "constant": true
    },
    {
      "inputs": [],
      "name": "SCROLL10",
      "outputs": [
        {
          "internalType": "uint256",
          "name": "",
          "type": "uint256"
        }
      ],
      "stateMutability": "view",
      "type": "function",
      "constant": true
    },
    {
      "inputs": [],
      "name": "SCROLL100",
      "outputs": [
        {
          "internalType": "uint256",
          "name": "",
          "type": "uint256"
        }
      ],
      "stateMutability": "view",
      "type": "function",
      "constant": true
    },
    {
      "inputs": [],
      "name": "SCROLL30",
      "outputs": [
        {
          "internalType": "uint256",
          "name": "",
          "type": "uint256"
        }
      ],
      "stateMutability": "view",
      "type": "function",
      "constant": true
    },
    {
      "inputs": [],
      "name": "SCROLL60",
      "outputs": [
        {
          "internalType": "uint256",
          "name": "",
          "type": "uint256"
        }
      ],
      "stateMutability": "view",
      "type": "function",
      "constant": true
    },
    {
      "inputs": [],
      "name": "SCROLL90",
      "outputs": [
        {
          "internalType": "uint256",
          "name": "",
          "type": "uint256"
        }
      ],
      "stateMutability": "view",
      "type": "function",
      "constant": true
    },
    {
      "inputs": [],
      "name": "STAFF0",
      "outputs": [
        {
          "internalType": "uint256",
          "name": "",
          "type": "uint256"
        }
      ],
      "stateMutability": "view",
      "type": "function",
      "constant": true
    },
    {
      "inputs": [],
      "name": "STAFF1",
      "outputs": [
        {
          "internalType": "uint256",
          "name": "",
          "type": "uint256"
        }
      ],
      "stateMutability": "view",
      "type": "function",
      "constant": true
    },
    {
      "inputs": [],
      "name": "STAFF2",
      "outputs": [
        {
          "internalType": "uint256",
          "name": "",
          "type": "uint256"
        }
      ],
      "stateMutability": "view",
      "type": "function",
      "constant": true
    },
    {
      "inputs": [],
      "name": "SWORD0",
      "outputs": [
        {
          "internalType": "uint256",
          "name": "",
          "type": "uint256"
        }
      ],
      "stateMutability": "view",
      "type": "function",
      "constant": true
    },
    {
      "inputs": [],
      "name": "SWORD1",
      "outputs": [
        {
          "internalType": "uint256",
          "name": "",
          "type": "uint256"
        }
      ],
      "stateMutability": "view",
      "type": "function",
      "constant": true
    },
    {
      "inputs": [],
      "name": "SWORD2",
      "outputs": [
        {
          "internalType": "uint256",
          "name": "",
          "type": "uint256"
        }
      ],
      "stateMutability": "view",
      "type": "function",
      "constant": true
    },
    {
      "inputs": [],
      "name": "SWORD3",
      "outputs": [
        {
          "internalType": "uint256",
          "name": "",
          "type": "uint256"
        }
      ],
      "stateMutability": "view",
      "type": "function",
      "constant": true
    },
    {
      "inputs": [
        {
          "internalType": "address",
          "name": "account",
          "type": "address"
        },
        {
          "internalType": "uint256",
          "name": "id",
          "type": "uint256"
        }
      ],
      "name": "balanceOf",
      "outputs": [
        {
          "internalType": "uint256",
          "name": "",
          "type": "uint256"
        }
      ],
      "stateMutability": "view",
      "type": "function",
      "constant": true
    },
    {
      "inputs": [
        {
          "internalType": "address[]",
          "name": "accounts",
          "type": "address[]"
        },
        {
          "internalType": "uint256[]",
          "name": "ids",
          "type": "uint256[]"
        }
      ],
      "name": "balanceOfBatch",
      "outputs": [
        {
          "internalType": "uint256[]",
          "name": "",
          "type": "uint256[]"
        }
      ],
      "stateMutability": "view",
      "type": "function",
      "constant": true
    },
    {
      "inputs": [
        {
          "internalType": "address",
          "name": "account",
          "type": "address"
        },
        {
          "internalType": "uint256",
          "name": "id",
          "type": "uint256"
        },
        {
          "internalType": "uint256",
          "name": "value",
          "type": "uint256"
        }
      ],
      "name": "burn",
      "outputs": [],
      "stateMutability": "nonpayable",
      "type": "function"
    },
    {
      "inputs": [
        {
          "internalType": "address",
          "name": "account",
          "type": "address"
        },
        {
          "internalType": "uint256[]",
          "name": "ids",
          "type": "uint256[]"
        },
        {
          "internalType": "uint256[]",
          "name": "values",
          "type": "uint256[]"
        }
      ],
      "name": "burnBatch",
      "outputs": [],
      "stateMutability": "nonpayable",
      "type": "function"
    },
    {
      "inputs": [
        {
          "internalType": "uint256",
          "name": "id",
          "type": "uint256"
        }
      ],
      "name": "exists",
      "outputs": [
        {
          "internalType": "bool",
          "name": "",
          "type": "bool"
        }
      ],
      "stateMutability": "view",
      "type": "function",
      "constant": true
    },
    {
      "inputs": [
        {
          "internalType": "address",
          "name": "account",
          "type": "address"
        },
        {
          "internalType": "address",
          "name": "operator",
          "type": "address"
        }
      ],
      "name": "isApprovedForAll",
      "outputs": [
        {
          "internalType": "bool",
          "name": "",
          "type": "bool"
        }
      ],
      "stateMutability": "view",
      "type": "function",
      "constant": true
    },
    {
      "inputs": [],
      "name": "owner",
      "outputs": [
        {
          "internalType": "address",
          "name": "",
          "type": "address"
        }
      ],
      "stateMutability": "view",
      "type": "function",
      "constant": true
    },
    {
      "inputs": [],
      "name": "renounceOwnership",
      "outputs": [],
      "stateMutability": "nonpayable",
      "type": "function"
    },
    {
      "inputs": [
        {
          "internalType": "address",
          "name": "from",
          "type": "address"
        },
        {
          "internalType": "address",
          "name": "to",
          "type": "address"
        },
        {
          "internalType": "uint256[]",
          "name": "ids",
          "type": "uint256[]"
        },
        {
          "internalType": "uint256[]",
          "name": "amounts",
          "type": "uint256[]"
        },
        {
          "internalType": "bytes",
          "name": "data",
          "type": "bytes"
        }
      ],
      "name": "safeBatchTransferFrom",
      "outputs": [],
      "stateMutability": "nonpayable",
      "type": "function"
    },
    {
      "inputs": [
        {
          "internalType": "address",
          "name": "from",
          "type": "address"
        },
        {
          "internalType": "address",
          "name": "to",
          "type": "address"
        },
        {
          "internalType": "uint256",
          "name": "id",
          "type": "uint256"
        },
        {
          "internalType": "uint256",
          "name": "amount",
          "type": "uint256"
        },
        {
          "internalType": "bytes",
          "name": "data",
          "type": "bytes"
        }
      ],
      "name": "safeTransferFrom",
      "outputs": [],
      "stateMutability": "nonpayable",
      "type": "function"
    },
    {
      "inputs": [
        {
          "internalType": "address",
          "name": "operator",
          "type": "address"
        },
        {
          "internalType": "bool",
          "name": "approved",
          "type": "bool"
        }
      ],
      "name": "setApprovalForAll",
      "outputs": [],
      "stateMutability": "nonpayable",
      "type": "function"
    },
    {
      "inputs": [
        {
          "internalType": "bytes4",
          "name": "interfaceId",
          "type": "bytes4"
        }
      ],
      "name": "supportsInterface",
      "outputs": [
        {
          "internalType": "bool",
          "name": "",
          "type": "bool"
        }
      ],
      "stateMutability": "view",
      "type": "function",
      "constant": true
    },
    {
      "inputs": [
        {
          "internalType": "uint256",
          "name": "id",
          "type": "uint256"
        }
      ],
      "name": "totalSupply",
      "outputs": [
        {
          "internalType": "uint256",
          "name": "",
          "type": "uint256"
        }
      ],
      "stateMutability": "view",
      "type": "function",
      "constant": true
    },
    {
      "inputs": [
        {
          "internalType": "address",
          "name": "newOwner",
          "type": "address"
        }
      ],
      "name": "transferOwnership",
      "outputs": [],
      "stateMutability": "nonpayable",
      "type": "function"
    },
    {
      "inputs": [
        {
          "internalType": "uint256",
          "name": "_tokenid",
          "type": "uint256"
        }
      ],
      "name": "uri",
      "outputs": [
        {
          "internalType": "string",
          "name": "",
          "type": "string"
        }
      ],
      "stateMutability": "pure",
      "type": "function",
      "constant": true
    },
    {
      "inputs": [
        {
          "internalType": "string",
          "name": "newuri",
          "type": "string"
        }
      ],
      "name": "setURI",
      "outputs": [],
      "stateMutability": "nonpayable",
      "type": "function"
    },
    {
      "inputs": [],
      "name": "mintFirstWeapon",
      "outputs": [],
      "stateMutability": "nonpayable",
      "type": "function"
    },
    {
      "inputs": [],
      "name": "mintRandomWeapon",
      "outputs": [],
      "stateMutability": "nonpayable",
      "type": "function"
    },
    {
      "inputs": [],
      "name": "mintScroll",
      "outputs": [],
      "stateMutability": "nonpayable",
      "type": "function"
    },
    {
      "inputs": [
        {
          "internalType": "address",
          "name": "to",
          "type": "address"
        },
        {
          "internalType": "uint256[]",
          "name": "ids",
          "type": "uint256[]"
        },
        {
          "internalType": "uint256[]",
          "name": "amounts",
          "type": "uint256[]"
        },
        {
          "internalType": "bytes",
          "name": "data",
          "type": "bytes"
        }
      ],
      "name": "mintBatch",
      "outputs": [],
      "stateMutability": "nonpayable",
      "type": "function"
    },
    {
      "inputs": [
        {
          "internalType": "address",
          "name": "sender",
          "type": "address"
        }
      ],
      "name": "balanceCheck",
      "outputs": [
        {
          "internalType": "uint256[][]",
          "name": "",
          "type": "uint256[][]"
        }
      ],
      "stateMutability": "nonpayable",
      "type": "function"
    }
  ],
  "bytecode": "0x60806040523480156200001157600080fd5b5060405162005d9338038062005d93833981810160405281019062000037919062000d2d565b6040518060600160405280603a815260200162005d59603a913962000062816200011e60201b60201c565b5062000083620000776200013360201b60201c565b6200013b60201b60201c565b81600a60006101000a81548173ffffffffffffffffffffffffffffffffffffffff021916908373ffffffffffffffffffffffffffffffffffffffff160217905550620000d5816200020160201b60201c565b50620000e66200029760201b60201c565b620000f6620006a260201b60201c565b620001066200075d60201b60201c565b6200011662000a6b60201b60201c565b5050620011d4565b80600290816200012f919062000fee565b5050565b600033905090565b6000600360009054906101000a900473ffffffffffffffffffffffffffffffffffffffff16905081600360006101000a81548173ffffffffffffffffffffffffffffffffffffffff021916908373ffffffffffffffffffffffffffffffffffffffff1602179055508173ffffffffffffffffffffffffffffffffffffffff168173ffffffffffffffffffffffffffffffffffffffff167f8be0079c531659141344cd1fd0a4f28419497f9722a3daafe3b4186f6b6457e060405160405180910390a35050565b60006200021362000c0860201b60201c565b600073ffffffffffffffffffffffffffffffffffffffff168273ffffffffffffffffffffffffffffffffffffffff16036200024d57600080fd5b81600560006101000a81548173ffffffffffffffffffffffffffffffffffffffff021916908373ffffffffffffffffffffffffffffffffffffffff16021790555060019050919050565b620002a762000c0860201b60201c565b60005b6004811015620002f4576006600090806001815401808255809150506001900390600052602060002001600090919091909150558080620002eb9062001104565b915050620002aa565b5060005b600381101562000342576006600190806001815401808255809150506001900390600052602060002001600090919091909150558080620003399062001104565b915050620002f8565b5060005b600281101562000390576006600290806001815401808255809150506001900390600052602060002001600090919091909150558080620003879062001104565b91505062000346565b5060005b6001811015620003de576006600390806001815401808255809150506001900390600052602060002001600090919091909150558080620003d59062001104565b91505062000394565b5060005b60048110156200042c576006606490806001815401808255809150506001900390600052602060002001600090919091909150558080620004239062001104565b915050620003e2565b5060005b60038110156200047a576006606590806001815401808255809150506001900390600052602060002001600090919091909150558080620004719062001104565b91505062000430565b5060005b6002811015620004c8576006606690806001815401808255809150506001900390600052602060002001600090919091909150558080620004bf9062001104565b9150506200047e565b5060005b60048110156200051657600660c8908060018154018082558091505060019003906000526020600020016000909190919091505580806200050d9062001104565b915050620004cc565b5060005b60038110156200056457600660c9908060018154018082558091505060019003906000526020600020016000909190919091505580806200055b9062001104565b9150506200051a565b5060005b6002811015620005b257600660ca90806001815401808255809150506001900390600052602060002001600090919091909150558080620005a99062001104565b91505062000568565b5060005b60048110156200060157600661012c90806001815401808255809150506001900390600052602060002001600090919091909150558080620005f89062001104565b915050620005b6565b5060005b60038110156200065057600661012d90806001815401808255809150506001900390600052602060002001600090919091909150558080620006479062001104565b91505062000605565b5060005b60028110156200069f57600661012e90806001815401808255809150506001900390600052602060002001600090919091909150558080620006969062001104565b91505062000654565b50565b620006b262000c0860201b60201c565b600760009080600181540180825580915050600190039060005260206000200160009091909190915055600760649080600181540180825580915050600190039060005260206000200160009091909190915055600760c89080600181540180825580915050600190039060005260206000200160009091909190915055600761012c9080600181540180825580915050600190039060005260206000200160009091909190915055565b6200076d62000c0860201b60201c565b600860009080600181540180825580915050600190039060005260206000200160009091909190915055600860019080600181540180825580915050600190039060005260206000200160009091909190915055600860029080600181540180825580915050600190039060005260206000200160009091909190915055600860039080600181540180825580915050600190039060005260206000200160009091909190915055600860649080600181540180825580915050600190039060005260206000200160009091909190915055600860659080600181540180825580915050600190039060005260206000200160009091909190915055600860669080600181540180825580915050600190039060005260206000200160009091909190915055600860c89080600181540180825580915050600190039060005260206000200160009091909190915055600860c99080600181540180825580915050600190039060005260206000200160009091909190915055600860ca9080600181540180825580915050600190039060005260206000200160009091909190915055600861012c9080600181540180825580915050600190039060005260206000200160009091909190915055600861012d9080600181540180825580915050600190039060005260206000200160009091909190915055600861012e90806001815401808255809150506001900390600052602060002001600090919091909150556008610190908060018154018082558091505060019003906000526020600020016000909190919091505560086101919080600181540180825580915050600190039060005260206000200160009091909190915055600861019290806001815401808255809150506001900390600052602060002001600090919091909150556008610193908060018154018082558091505060019003906000526020600020016000909190919091505560086101949080600181540180825580915050600190039060005260206000200160009091909190915055565b62000a7b62000c0860201b60201c565b60005b600181101562000ac95760096101909080600181540180825580915050600190039060005260206000200160009091909190915055808062000ac09062001104565b91505062000a7e565b5060005b600281101562000b185760096101919080600181540180825580915050600190039060005260206000200160009091909190915055808062000b0f9062001104565b91505062000acd565b5060005b600481101562000b675760096101929080600181540180825580915050600190039060005260206000200160009091909190915055808062000b5e9062001104565b91505062000b1c565b5060005b600681101562000bb65760096101939080600181540180825580915050600190039060005260206000200160009091909190915055808062000bad9062001104565b91505062000b6b565b5060005b600781101562000c055760096101949080600181540180825580915050600190039060005260206000200160009091909190915055808062000bfc9062001104565b91505062000bba565b50565b62000c186200013360201b60201c565b73ffffffffffffffffffffffffffffffffffffffff1662000c3e62000c9960201b60201c565b73ffffffffffffffffffffffffffffffffffffffff161462000c97576040517f08c379a000000000000000000000000000000000000000000000000000000000815260040162000c8e90620011b2565b60405180910390fd5b565b6000600360009054906101000a900473ffffffffffffffffffffffffffffffffffffffff16905090565b600080fd5b600073ffffffffffffffffffffffffffffffffffffffff82169050919050565b600062000cf58262000cc8565b9050919050565b62000d078162000ce8565b811462000d1357600080fd5b50565b60008151905062000d278162000cfc565b92915050565b6000806040838503121562000d475762000d4662000cc3565b5b600062000d578582860162000d16565b925050602062000d6a8582860162000d16565b9150509250929050565b600081519050919050565b7f4e487b7100000000000000000000000000000000000000000000000000000000600052604160045260246000fd5b7f4e487b7100000000000000000000000000000000000000000000000000000000600052602260045260246000fd5b6000600282049050600182168062000df657607f821691505b60208210810362000e0c5762000e0b62000dae565b5b50919050565b60008190508160005260206000209050919050565b60006020601f8301049050919050565b600082821b905092915050565b60006008830262000e767fffffffffffffffffffffffffffffffffffffffffffffffffffffffffffffffff8262000e37565b62000e82868362000e37565b95508019841693508086168417925050509392505050565b6000819050919050565b6000819050919050565b600062000ecf62000ec962000ec38462000e9a565b62000ea4565b62000e9a565b9050919050565b6000819050919050565b62000eeb8362000eae565b62000f0362000efa8262000ed6565b84845462000e44565b825550505050565b600090565b62000f1a62000f0b565b62000f2781848462000ee0565b505050565b5b8181101562000f4f5762000f4360008262000f10565b60018101905062000f2d565b5050565b601f82111562000f9e5762000f688162000e12565b62000f738462000e27565b8101602085101562000f83578190505b62000f9b62000f928562000e27565b83018262000f2c565b50505b505050565b600082821c905092915050565b600062000fc36000198460080262000fa3565b1980831691505092915050565b600062000fde838362000fb0565b9150826002028217905092915050565b62000ff98262000d74565b67ffffffffffffffff81111562001015576200101462000d7f565b5b62001021825462000ddd565b6200102e82828562000f53565b600060209050601f83116001811462001066576000841562001051578287015190505b6200105d858262000fd0565b865550620010cd565b601f198416620010768662000e12565b60005b82811015620010a05784890151825560018201915060208501945060208101905062001079565b86831015620010c05784890151620010bc601f89168262000fb0565b8355505b6001600288020188555050505b505050505050565b7f4e487b7100000000000000000000000000000000000000000000000000000000600052601160045260246000fd5b6000620011118262000e9a565b91507fffffffffffffffffffffffffffffffffffffffffffffffffffffffffffffffff8203620011465762001145620010d5565b5b600182019050919050565b600082825260208201905092915050565b7f4f776e61626c653a2063616c6c6572206973206e6f7420746865206f776e6572600082015250565b60006200119a60208362001151565b9150620011a78262001162565b602082019050919050565b60006020820190508181036000830152620011cd816200118b565b9050919050565b614b7580620011e46000396000f3fe608060405234801561001057600080fd5b506004361061023c5760003560e01c80638da5cb5b1161013b578063d79c66aa116100b8578063f14a3d561161007c578063f14a3d5614610673578063f242432a14610691578063f2fde38b146106ad578063f5298aca146106c9578063f5dce5b9146106e55761023c565b8063d79c66aa146105cb578063dc4feb47146105e9578063e7b5be3914610607578063e985e9c514610625578063ea3875ca146106555761023c565b8063afc6c649116100ff578063afc6c64914610525578063b6a8412b14610555578063bd85b0391461055f578063d0faf49e1461058f578063d656efb5146105ad5761023c565b80638da5cb5b146104915780639750463a146104af578063a004cbde146104cd578063a22cb465146104eb578063aedd809a146105075761023c565b8063442107e3116101c95780635456e59a1161018d5780635456e59a1461042557806360baee5d146104435780636b20c4541461044d5780636f9e9b8414610469578063715018a6146104875761023c565b8063442107e31461037f5780634ba466391461039d5780634e1273f4146103a75780634f4aabc1146103d75780634f558e79146103f55761023c565b80630f068c60116102105780630f068c60146102ed5780631f7fdffa1461030b57806323bfdcfa146103275780632eb2c2d61461034557806332e5794a146103615761023c565b8062fdd58e1461024157806301ffc9a71461027157806302fe5305146102a15780630e89341c146102bd575b600080fd5b61025b60048036038101906102569190612e55565b610703565b6040516102689190612ea4565b60405180910390f35b61028b60048036038101906102869190612f17565b6107cb565b6040516102989190612f5f565b60405180910390f35b6102bb60048036038101906102b691906130c0565b6108ad565b005b6102d760048036038101906102d29190613109565b6108c1565b6040516102e491906131b5565b60405180910390f35b6102f56108f2565b6040516103029190612ea4565b60405180910390f35b61032560048036038101906103209190613340565b6108f7565b005b61032f610911565b60405161033c9190612ea4565b60405180910390f35b61035f600480360381019061035a91906133fb565b610917565b005b6103696109b8565b6040516103769190612ea4565b60405180910390f35b6103876109bd565b6040516103949190612ea4565b60405180910390f35b6103a56109c2565b005b6103c160048036038101906103bc919061358d565b610a70565b6040516103ce91906136c3565b60405180910390f35b6103df610b89565b6040516103ec9190612ea4565b60405180910390f35b61040f600480360381019061040a9190613109565b610b8f565b60405161041c9190612f5f565b60405180910390f35b61042d610ba3565b60405161043a9190612ea4565b60405180910390f35b61044b610ba9565b005b610467600480360381019061046291906136e5565b610c57565b005b610471610cf4565b60405161047e9190612ea4565b60405180910390f35b61048f610cf9565b005b610499610d0d565b6040516104a6919061377f565b60405180910390f35b6104b7610d37565b6040516104c49190612ea4565b60405180910390f35b6104d5610d3c565b6040516104e29190612ea4565b60405180910390f35b610505600480360381019061050091906137c6565b610d42565b005b61050f610d58565b60405161051c9190612ea4565b60405180910390f35b61053f600480360381019061053a9190613806565b610d5d565b60405161054c9190613964565b60405180910390f35b61055d6110df565b005b61057960048036038101906105749190613109565b61118d565b6040516105869190612ea4565b60405180910390f35b6105976111aa565b6040516105a49190612ea4565b60405180910390f35b6105b56111af565b6040516105c29190612ea4565b60405180910390f35b6105d36111b4565b6040516105e09190612ea4565b60405180910390f35b6105f16111ba565b6040516105fe9190612ea4565b60405180910390f35b61060f6111c0565b60405161061c9190612ea4565b60405180910390f35b61063f600480360381019061063a9190613986565b6111c5565b60405161064c9190612f5f565b60405180910390f35b61065d611259565b60405161066a9190612ea4565b60405180910390f35b61067b61125e565b6040516106889190612ea4565b60405180910390f35b6106ab60048036038101906106a691906139c6565b611264565b005b6106c760048036038101906106c29190613806565b611305565b005b6106e360048036038101906106de9190613a5d565b611388565b005b6106ed611425565b6040516106fa9190612ea4565b60405180910390f35b60008073ffffffffffffffffffffffffffffffffffffffff168373ffffffffffffffffffffffffffffffffffffffff1603610773576040517f08c379a000000000000000000000000000000000000000000000000000000000815260040161076a90613b22565b60405180910390fd5b60008083815260200190815260200160002060008473ffffffffffffffffffffffffffffffffffffffff1673ffffffffffffffffffffffffffffffffffffffff16815260200190815260200160002054905092915050565b60007fd9b67a26000000000000000000000000000000000000000000000000000000007bffffffffffffffffffffffffffffffffffffffffffffffffffffffff1916827bffffffffffffffffffffffffffffffffffffffffffffffffffffffff1916148061089657507f0e89341c000000000000000000000000000000000000000000000000000000007bffffffffffffffffffffffffffffffffffffffffffffffffffffffff1916827bffffffffffffffffffffffffffffffffffffffffffffffffffffffff1916145b806108a657506108a58261142b565b5b9050919050565b6108b5611495565b6108be81611513565b50565b60606108cc82611526565b6040516020016108dc9190613c16565b6040516020818303038152906040529050919050565b60ca81565b6108ff611495565b61090b84848484611686565b50505050565b61019181565b61091f6118b2565b73ffffffffffffffffffffffffffffffffffffffff168573ffffffffffffffffffffffffffffffffffffffff16148061096557506109648561095f6118b2565b6111c5565b5b6109a4576040517f08c379a000000000000000000000000000000000000000000000000000000000815260040161099b90613caa565b60405180910390fd5b6109b185858585856118ba565b5050505050565b606581565b60c881565b6000600980549050426040516020016109db9190613ceb565b6040516020818303038152906040528051906020012060001c6109fe9190613d35565b9050600060078281548110610a1657610a15613d66565b5b90600052602060002001549050610a3f3382600160405180602001604052806000815250611bdb565b610a6c600a60009054906101000a900473ffffffffffffffffffffffffffffffffffffffff166001610d42565b5050565b60608151835114610ab6576040517f08c379a0000000000000000000000000000000000000000000000000000000008152600401610aad90613e07565b60405180910390fd5b6000835167ffffffffffffffff811115610ad357610ad2612f95565b5b604051908082528060200260200182016040528015610b015781602001602082028036833780820191505090505b50905060005b8451811015610b7e57610b4e858281518110610b2657610b25613d66565b5b6020026020010151858381518110610b4157610b40613d66565b5b6020026020010151610703565b828281518110610b6157610b60613d66565b5b60200260200101818152505080610b7790613e56565b9050610b07565b508091505092915050565b61012d81565b600080610b9b8361118d565b119050919050565b61019481565b600060068054905042604051602001610bc29190613ceb565b6040516020818303038152906040528051906020012060001c610be59190613d35565b9050600060068281548110610bfd57610bfc613d66565b5b90600052602060002001549050610c263382600160405180602001604052806000815250611bdb565b610c53600a60009054906101000a900473ffffffffffffffffffffffffffffffffffffffff166001610d42565b5050565b610c5f6118b2565b73ffffffffffffffffffffffffffffffffffffffff168373ffffffffffffffffffffffffffffffffffffffff161480610ca55750610ca483610c9f6118b2565b6111c5565b5b610ce4576040517f08c379a0000000000000000000000000000000000000000000000000000000008152600401610cdb90613caa565b60405180910390fd5b610cef838383611d8b565b505050565b600181565b610d01611495565b610d0b6000612059565b565b6000600360009054906101000a900473ffffffffffffffffffffffffffffffffffffffff16905090565b600381565b61012e81565b610d54610d4d6118b2565b838361211f565b5050565b600081565b6060600060088054905067ffffffffffffffff811115610d8057610d7f612f95565b5b604051908082528060200260200182016040528015610db357816020015b6060815260200190600190039081610d9e5790505b5090506000805b600880549050811015610f1a576000610df18660088481548110610de157610de0613d66565b5b9060005260206000200154610703565b905060008114610f0657600267ffffffffffffffff811115610e1657610e15612f95565b5b604051908082528060200260200182016040528015610e445781602001602082028036833780820191505090505b50848481518110610e5857610e57613d66565b5b602002602001018190525060088281548110610e7757610e76613d66565b5b9060005260206000200154848481518110610e9557610e94613d66565b5b6020026020010151600081518110610eb057610eaf613d66565b5b60200260200101818152505080848481518110610ed057610ecf613d66565b5b6020026020010151600181518110610eeb57610eea613d66565b5b6020026020010181815250508280610f0290613e56565b9350505b508080610f1290613e56565b915050610dba565b5060008167ffffffffffffffff811115610f3757610f36612f95565b5b604051908082528060200260200182016040528015610f6a57816020015b6060815260200190600190039081610f555790505b50905060005b828110156110d357600267ffffffffffffffff811115610f9357610f92612f95565b5b604051908082528060200260200182016040528015610fc15781602001602082028036833780820191505090505b50828281518110610fd557610fd4613d66565b5b6020026020010181905250838181518110610ff357610ff2613d66565b5b602002602001015160008151811061100e5761100d613d66565b5b602002602001015182828151811061102957611028613d66565b5b602002602001015160008151811061104457611043613d66565b5b60200260200101818152505083818151811061106357611062613d66565b5b602002602001015160018151811061107e5761107d613d66565b5b602002602001015182828151811061109957611098613d66565b5b60200260200101516001815181106110b4576110b3613d66565b5b60200260200101818152505080806110cb90613e56565b915050610f70565b50809350505050919050565b6000600780549050426040516020016110f89190613ceb565b6040516020818303038152906040528051906020012060001c61111b9190613d35565b905060006007828154811061113357611132613d66565b5b9060005260206000200154905061115c3382600160405180602001604052806000815250611bdb565b611189600a60009054906101000a900473ffffffffffffffffffffffffffffffffffffffff166001610d42565b5050565b600060046000838152602001908152602001600020549050919050565b60c981565b606681565b61019081565b61019381565b600281565b6000600160008473ffffffffffffffffffffffffffffffffffffffff1673ffffffffffffffffffffffffffffffffffffffff16815260200190815260200160002060008373ffffffffffffffffffffffffffffffffffffffff1673ffffffffffffffffffffffffffffffffffffffff16815260200190815260200160002060009054906101000a900460ff16905092915050565b606481565b61012c81565b61126c6118b2565b73ffffffffffffffffffffffffffffffffffffffff168573ffffffffffffffffffffffffffffffffffffffff1614806112b257506112b1856112ac6118b2565b6111c5565b5b6112f1576040517f08c379a00000000000000000000000000000000000000000000000000000000081526004016112e890613caa565b60405180910390fd5b6112fe858585858561228b565b5050505050565b61130d611495565b600073ffffffffffffffffffffffffffffffffffffffff168173ffffffffffffffffffffffffffffffffffffffff160361137c576040517f08c379a000000000000000000000000000000000000000000000000000000000815260040161137390613f10565b60405180910390fd5b61138581612059565b50565b6113906118b2565b73ffffffffffffffffffffffffffffffffffffffff168373ffffffffffffffffffffffffffffffffffffffff1614806113d657506113d5836113d06118b2565b6111c5565b5b611415576040517f08c379a000000000000000000000000000000000000000000000000000000000815260040161140c90613caa565b60405180910390fd5b611420838383612526565b505050565b61019281565b60007f01ffc9a7000000000000000000000000000000000000000000000000000000007bffffffffffffffffffffffffffffffffffffffffffffffffffffffff1916827bffffffffffffffffffffffffffffffffffffffffffffffffffffffff1916149050919050565b61149d6118b2565b73ffffffffffffffffffffffffffffffffffffffff166114bb610d0d565b73ffffffffffffffffffffffffffffffffffffffff1614611511576040517f08c379a000000000000000000000000000000000000000000000000000000000815260040161150890613f7c565b60405180910390fd5b565b806002908161152291906141a8565b5050565b60606000820361156d576040518060400160405280600181526020017f30000000000000000000000000000000000000000000000000000000000000008152509050611681565b600082905060005b6000821461159f57808061158890613e56565b915050600a82611598919061427a565b9150611575565b60008167ffffffffffffffff8111156115bb576115ba612f95565b5b6040519080825280601f01601f1916602001820160405280156115ed5781602001600182028036833780820191505090505b5090505b6000851461167a5760018261160691906142ab565b9150600a856116159190613d35565b603061162191906142df565b60f81b81838151811061163757611636613d66565b5b60200101907effffffffffffffffffffffffffffffffffffffffffffffffffffffffffffff1916908160001a905350600a85611673919061427a565b94506115f1565b8093505050505b919050565b600073ffffffffffffffffffffffffffffffffffffffff168473ffffffffffffffffffffffffffffffffffffffff16036116f5576040517f08c379a00000000000000000000000000000000000000000000000000000000081526004016116ec90614385565b60405180910390fd5b8151835114611739576040517f08c379a000000000000000000000000000000000000000000000000000000000815260040161173090614417565b60405180910390fd5b60006117436118b2565b90506117548160008787878761276c565b60005b845181101561180d5783818151811061177357611772613d66565b5b602002602001015160008087848151811061179157611790613d66565b5b6020026020010151815260200190815260200160002060008873ffffffffffffffffffffffffffffffffffffffff1673ffffffffffffffffffffffffffffffffffffffff16815260200190815260200160002060008282546117f391906142df565b92505081905550808061180590613e56565b915050611757565b508473ffffffffffffffffffffffffffffffffffffffff16600073ffffffffffffffffffffffffffffffffffffffff168273ffffffffffffffffffffffffffffffffffffffff167f4a39dc06d4c0dbc64b70af90fd698a233a518aa5d07e595d983b8c0526c8f7fb8787604051611885929190614437565b60405180910390a461189c81600087878787612782565b6118ab8160008787878761278a565b5050505050565b600033905090565b81518351146118fe576040517f08c379a00000000000000000000000000000000000000000000000000000000081526004016118f590614417565b60405180910390fd5b600073ffffffffffffffffffffffffffffffffffffffff168473ffffffffffffffffffffffffffffffffffffffff160361196d576040517f08c379a0000000000000000000000000000000000000000000000000000000008152600401611964906144e0565b60405180910390fd5b60006119776118b2565b905061198781878787878761276c565b60005b8451811015611b385760008582815181106119a8576119a7613d66565b5b6020026020010151905060008583815181106119c7576119c6613d66565b5b60200260200101519050600080600084815260200190815260200160002060008b73ffffffffffffffffffffffffffffffffffffffff1673ffffffffffffffffffffffffffffffffffffffff16815260200190815260200160002054905081811015611a68576040517f08c379a0000000000000000000000000000000000000000000000000000000008152600401611a5f90614572565b60405180910390fd5b81810360008085815260200190815260200160002060008c73ffffffffffffffffffffffffffffffffffffffff1673ffffffffffffffffffffffffffffffffffffffff168152602001908152602001600020819055508160008085815260200190815260200160002060008b73ffffffffffffffffffffffffffffffffffffffff1673ffffffffffffffffffffffffffffffffffffffff1681526020019081526020016000206000828254611b1d91906142df565b9250508190555050505080611b3190613e56565b905061198a565b508473ffffffffffffffffffffffffffffffffffffffff168673ffffffffffffffffffffffffffffffffffffffff168273ffffffffffffffffffffffffffffffffffffffff167f4a39dc06d4c0dbc64b70af90fd698a233a518aa5d07e595d983b8c0526c8f7fb8787604051611baf929190614437565b60405180910390a4611bc5818787878787612782565b611bd381878787878761278a565b505050505050565b600073ffffffffffffffffffffffffffffffffffffffff168473ffffffffffffffffffffffffffffffffffffffff1603611c4a576040517f08c379a0000000000000000000000000000000000000000000000000000000008152600401611c4190614385565b60405180910390fd5b6000611c546118b2565b90506000611c6185612961565b90506000611c6e85612961565b9050611c7f8360008985858961276c565b8460008088815260200190815260200160002060008973ffffffffffffffffffffffffffffffffffffffff1673ffffffffffffffffffffffffffffffffffffffff1681526020019081526020016000206000828254611cde91906142df565b925050819055508673ffffffffffffffffffffffffffffffffffffffff16600073ffffffffffffffffffffffffffffffffffffffff168473ffffffffffffffffffffffffffffffffffffffff167fc3d58168c5ae7397731d063d5bbf3d657854427343f4c083240f7aacaa2d0f628989604051611d5c929190614592565b60405180910390a4611d7383600089858589612782565b611d82836000898989896129db565b50505050505050565b600073ffffffffffffffffffffffffffffffffffffffff168373ffffffffffffffffffffffffffffffffffffffff1603611dfa576040517f08c379a0000000000000000000000000000000000000000000000000000000008152600401611df19061462d565b60405180910390fd5b8051825114611e3e576040517f08c379a0000000000000000000000000000000000000000000000000000000008152600401611e3590614417565b60405180910390fd5b6000611e486118b2565b9050611e688185600086866040518060200160405280600081525061276c565b60005b8351811015611fb5576000848281518110611e8957611e88613d66565b5b602002602001015190506000848381518110611ea857611ea7613d66565b5b60200260200101519050600080600084815260200190815260200160002060008973ffffffffffffffffffffffffffffffffffffffff1673ffffffffffffffffffffffffffffffffffffffff16815260200190815260200160002054905081811015611f49576040517f08c379a0000000000000000000000000000000000000000000000000000000008152600401611f40906146bf565b60405180910390fd5b81810360008085815260200190815260200160002060008a73ffffffffffffffffffffffffffffffffffffffff1673ffffffffffffffffffffffffffffffffffffffff168152602001908152602001600020819055505050508080611fad90613e56565b915050611e6b565b50600073ffffffffffffffffffffffffffffffffffffffff168473ffffffffffffffffffffffffffffffffffffffff168273ffffffffffffffffffffffffffffffffffffffff167f4a39dc06d4c0dbc64b70af90fd698a233a518aa5d07e595d983b8c0526c8f7fb868660405161202d929190614437565b60405180910390a461205381856000868660405180602001604052806000815250612782565b50505050565b6000600360009054906101000a900473ffffffffffffffffffffffffffffffffffffffff16905081600360006101000a81548173ffffffffffffffffffffffffffffffffffffffff021916908373ffffffffffffffffffffffffffffffffffffffff1602179055508173ffffffffffffffffffffffffffffffffffffffff168173ffffffffffffffffffffffffffffffffffffffff167f8be0079c531659141344cd1fd0a4f28419497f9722a3daafe3b4186f6b6457e060405160405180910390a35050565b8173ffffffffffffffffffffffffffffffffffffffff168373ffffffffffffffffffffffffffffffffffffffff160361218d576040517f08c379a000000000000000000000000000000000000000000000000000000000815260040161218490614751565b60405180910390fd5b80600160008573ffffffffffffffffffffffffffffffffffffffff1673ffffffffffffffffffffffffffffffffffffffff16815260200190815260200160002060008473ffffffffffffffffffffffffffffffffffffffff1673ffffffffffffffffffffffffffffffffffffffff16815260200190815260200160002060006101000a81548160ff0219169083151502179055508173ffffffffffffffffffffffffffffffffffffffff168373ffffffffffffffffffffffffffffffffffffffff167f17307eab39ab6107e8899845ad3d59bd9653f200f220920489ca2b5937696c318360405161227e9190612f5f565b60405180910390a3505050565b600073ffffffffffffffffffffffffffffffffffffffff168473ffffffffffffffffffffffffffffffffffffffff16036122fa576040517f08c379a00000000000000000000000000000000000000000000000000000000081526004016122f1906144e0565b60405180910390fd5b60006123046118b2565b9050600061231185612961565b9050600061231e85612961565b905061232e83898985858961276c565b600080600088815260200190815260200160002060008a73ffffffffffffffffffffffffffffffffffffffff1673ffffffffffffffffffffffffffffffffffffffff168152602001908152602001600020549050858110156123c5576040517f08c379a00000000000000000000000000000000000000000000000000000000081526004016123bc90614572565b60405180910390fd5b85810360008089815260200190815260200160002060008b73ffffffffffffffffffffffffffffffffffffffff1673ffffffffffffffffffffffffffffffffffffffff168152602001908152602001600020819055508560008089815260200190815260200160002060008a73ffffffffffffffffffffffffffffffffffffffff1673ffffffffffffffffffffffffffffffffffffffff168152602001908152602001600020600082825461247a91906142df565b925050819055508773ffffffffffffffffffffffffffffffffffffffff168973ffffffffffffffffffffffffffffffffffffffff168573ffffffffffffffffffffffffffffffffffffffff167fc3d58168c5ae7397731d063d5bbf3d657854427343f4c083240f7aacaa2d0f628a8a6040516124f7929190614592565b60405180910390a461250d848a8a86868a612782565b61251b848a8a8a8a8a6129db565b505050505050505050565b600073ffffffffffffffffffffffffffffffffffffffff168373ffffffffffffffffffffffffffffffffffffffff1603612595576040517f08c379a000000000000000000000000000000000000000000000000000000000815260040161258c9061462d565b60405180910390fd5b600061259f6118b2565b905060006125ac84612961565b905060006125b984612961565b90506125d98387600085856040518060200160405280600081525061276c565b600080600087815260200190815260200160002060008873ffffffffffffffffffffffffffffffffffffffff1673ffffffffffffffffffffffffffffffffffffffff16815260200190815260200160002054905084811015612670576040517f08c379a0000000000000000000000000000000000000000000000000000000008152600401612667906146bf565b60405180910390fd5b84810360008088815260200190815260200160002060008973ffffffffffffffffffffffffffffffffffffffff1673ffffffffffffffffffffffffffffffffffffffff16815260200190815260200160002081905550600073ffffffffffffffffffffffffffffffffffffffff168773ffffffffffffffffffffffffffffffffffffffff168573ffffffffffffffffffffffffffffffffffffffff167fc3d58168c5ae7397731d063d5bbf3d657854427343f4c083240f7aacaa2d0f62898960405161273d929190614592565b60405180910390a461276384886000868660405180602001604052806000815250612782565b50505050505050565b61277a868686868686612bb2565b505050505050565b505050505050565b6127a98473ffffffffffffffffffffffffffffffffffffffff16612d82565b15612959578373ffffffffffffffffffffffffffffffffffffffff1663bc197c8187878686866040518663ffffffff1660e01b81526004016127ef9594939291906147c6565b6020604051808303816000875af192505050801561282b57506040513d601f19601f820116820180604052508101906128289190614843565b60015b6128d05761283761487d565b806308c379a003612893575061284b61489f565b806128565750612895565b806040517f08c379a000000000000000000000000000000000000000000000000000000000815260040161288a91906131b5565b60405180910390fd5b505b6040517f08c379a00000000000000000000000000000000000000000000000000000000081526004016128c7906149a1565b60405180910390fd5b63bc197c8160e01b7bffffffffffffffffffffffffffffffffffffffffffffffffffffffff1916817bffffffffffffffffffffffffffffffffffffffffffffffffffffffff191614612957576040517f08c379a000000000000000000000000000000000000000000000000000000000815260040161294e90614a33565b60405180910390fd5b505b505050505050565b60606000600167ffffffffffffffff8111156129805761297f612f95565b5b6040519080825280602002602001820160405280156129ae5781602001602082028036833780820191505090505b50905082816000815181106129c6576129c5613d66565b5b60200260200101818152505080915050919050565b6129fa8473ffffffffffffffffffffffffffffffffffffffff16612d82565b15612baa578373ffffffffffffffffffffffffffffffffffffffff1663f23a6e6187878686866040518663ffffffff1660e01b8152600401612a40959493929190614a53565b6020604051808303816000875af1925050508015612a7c57506040513d601f19601f82011682018060405250810190612a799190614843565b60015b612b2157612a8861487d565b806308c379a003612ae45750612a9c61489f565b80612aa75750612ae6565b806040517f08c379a0000000000000000000000000000000000000000000000000000000008152600401612adb91906131b5565b60405180910390fd5b505b6040517f08c379a0000000000000000000000000000000000000000000000000000000008152600401612b18906149a1565b60405180910390fd5b63f23a6e6160e01b7bffffffffffffffffffffffffffffffffffffffffffffffffffffffff1916817bffffffffffffffffffffffffffffffffffffffffffffffffffffffff191614612ba8576040517f08c379a0000000000000000000000000000000000000000000000000000000008152600401612b9f90614a33565b60405180910390fd5b505b505050505050565b612bc0868686868686612da5565b600073ffffffffffffffffffffffffffffffffffffffff168573ffffffffffffffffffffffffffffffffffffffff1603612c715760005b8351811015612c6f57828181518110612c1357612c12613d66565b5b602002602001015160046000868481518110612c3257612c31613d66565b5b602002602001015181526020019081526020016000206000828254612c5791906142df565b9250508190555080612c6890613e56565b9050612bf7565b505b600073ffffffffffffffffffffffffffffffffffffffff168473ffffffffffffffffffffffffffffffffffffffff1603612d7a5760005b8351811015612d78576000848281518110612cc657612cc5613d66565b5b602002602001015190506000848381518110612ce557612ce4613d66565b5b6020026020010151905060006004600084815260200190815260200160002054905081811015612d4a576040517f08c379a0000000000000000000000000000000000000000000000000000000008152600401612d4190614b1f565b60405180910390fd5b818103600460008581526020019081526020016000208190555050505080612d7190613e56565b9050612ca8565b505b505050505050565b6000808273ffffffffffffffffffffffffffffffffffffffff163b119050919050565b505050505050565b6000604051905090565b600080fd5b600080fd5b600073ffffffffffffffffffffffffffffffffffffffff82169050919050565b6000612dec82612dc1565b9050919050565b612dfc81612de1565b8114612e0757600080fd5b50565b600081359050612e1981612df3565b92915050565b6000819050919050565b612e3281612e1f565b8114612e3d57600080fd5b50565b600081359050612e4f81612e29565b92915050565b60008060408385031215612e6c57612e6b612db7565b5b6000612e7a85828601612e0a565b9250506020612e8b85828601612e40565b9150509250929050565b612e9e81612e1f565b82525050565b6000602082019050612eb96000830184612e95565b92915050565b60007fffffffff0000000000000000000000000000000000000000000000000000000082169050919050565b612ef481612ebf565b8114612eff57600080fd5b50565b600081359050612f1181612eeb565b92915050565b600060208284031215612f2d57612f2c612db7565b5b6000612f3b84828501612f02565b91505092915050565b60008115159050919050565b612f5981612f44565b82525050565b6000602082019050612f746000830184612f50565b92915050565b600080fd5b600080fd5b6000601f19601f8301169050919050565b7f4e487b7100000000000000000000000000000000000000000000000000000000600052604160045260246000fd5b612fcd82612f84565b810181811067ffffffffffffffff82111715612fec57612feb612f95565b5b80604052505050565b6000612fff612dad565b905061300b8282612fc4565b919050565b600067ffffffffffffffff82111561302b5761302a612f95565b5b61303482612f84565b9050602081019050919050565b82818337600083830152505050565b600061306361305e84613010565b612ff5565b90508281526020810184848401111561307f5761307e612f7f565b5b61308a848285613041565b509392505050565b600082601f8301126130a7576130a6612f7a565b5b81356130b7848260208601613050565b91505092915050565b6000602082840312156130d6576130d5612db7565b5b600082013567ffffffffffffffff8111156130f4576130f3612dbc565b5b61310084828501613092565b91505092915050565b60006020828403121561311f5761311e612db7565b5b600061312d84828501612e40565b91505092915050565b600081519050919050565b600082825260208201905092915050565b60005b83811015613170578082015181840152602081019050613155565b60008484015250505050565b600061318782613136565b6131918185613141565b93506131a1818560208601613152565b6131aa81612f84565b840191505092915050565b600060208201905081810360008301526131cf818461317c565b905092915050565b600067ffffffffffffffff8211156131f2576131f1612f95565b5b602082029050602081019050919050565b600080fd5b600061321b613216846131d7565b612ff5565b9050808382526020820190506020840283018581111561323e5761323d613203565b5b835b8181101561326757806132538882612e40565b845260208401935050602081019050613240565b5050509392505050565b600082601f83011261328657613285612f7a565b5b8135613296848260208601613208565b91505092915050565b600067ffffffffffffffff8211156132ba576132b9612f95565b5b6132c382612f84565b9050602081019050919050565b60006132e36132de8461329f565b612ff5565b9050828152602081018484840111156132ff576132fe612f7f565b5b61330a848285613041565b509392505050565b600082601f83011261332757613326612f7a565b5b81356133378482602086016132d0565b91505092915050565b6000806000806080858703121561335a57613359612db7565b5b600061336887828801612e0a565b945050602085013567ffffffffffffffff81111561338957613388612dbc565b5b61339587828801613271565b935050604085013567ffffffffffffffff8111156133b6576133b5612dbc565b5b6133c287828801613271565b925050606085013567ffffffffffffffff8111156133e3576133e2612dbc565b5b6133ef87828801613312565b91505092959194509250565b600080600080600060a0868803121561341757613416612db7565b5b600061342588828901612e0a565b955050602061343688828901612e0a565b945050604086013567ffffffffffffffff81111561345757613456612dbc565b5b61346388828901613271565b935050606086013567ffffffffffffffff81111561348457613483612dbc565b5b61349088828901613271565b925050608086013567ffffffffffffffff8111156134b1576134b0612dbc565b5b6134bd88828901613312565b9150509295509295909350565b600067ffffffffffffffff8211156134e5576134e4612f95565b5b602082029050602081019050919050565b6000613509613504846134ca565b612ff5565b9050808382526020820190506020840283018581111561352c5761352b613203565b5b835b8181101561355557806135418882612e0a565b84526020840193505060208101905061352e565b5050509392505050565b600082601f83011261357457613573612f7a565b5b81356135848482602086016134f6565b91505092915050565b600080604083850312156135a4576135a3612db7565b5b600083013567ffffffffffffffff8111156135c2576135c1612dbc565b5b6135ce8582860161355f565b925050602083013567ffffffffffffffff8111156135ef576135ee612dbc565b5b6135fb85828601613271565b9150509250929050565b600081519050919050565b600082825260208201905092915050565b6000819050602082019050919050565b61363a81612e1f565b82525050565b600061364c8383613631565b60208301905092915050565b6000602082019050919050565b600061367082613605565b61367a8185613610565b935061368583613621565b8060005b838110156136b657815161369d8882613640565b97506136a883613658565b925050600181019050613689565b5085935050505092915050565b600060208201905081810360008301526136dd8184613665565b905092915050565b6000806000606084860312156136fe576136fd612db7565b5b600061370c86828701612e0a565b935050602084013567ffffffffffffffff81111561372d5761372c612dbc565b5b61373986828701613271565b925050604084013567ffffffffffffffff81111561375a57613759612dbc565b5b61376686828701613271565b9150509250925092565b61377981612de1565b82525050565b60006020820190506137946000830184613770565b92915050565b6137a381612f44565b81146137ae57600080fd5b50565b6000813590506137c08161379a565b92915050565b600080604083850312156137dd576137dc612db7565b5b60006137eb85828601612e0a565b92505060206137fc858286016137b1565b9150509250929050565b60006020828403121561381c5761381b612db7565b5b600061382a84828501612e0a565b91505092915050565b600081519050919050565b600082825260208201905092915050565b6000819050602082019050919050565b600082825260208201905092915050565b600061387b82613605565b613885818561385f565b935061389083613621565b8060005b838110156138c15781516138a88882613640565b97506138b383613658565b925050600181019050613894565b5085935050505092915050565b60006138da8383613870565b905092915050565b6000602082019050919050565b60006138fa82613833565b613904818561383e565b9350836020820285016139168561384f565b8060005b85811015613952578484038952815161393385826138ce565b945061393e836138e2565b925060208a0199505060018101905061391a565b50829750879550505050505092915050565b6000602082019050818103600083015261397e81846138ef565b905092915050565b6000806040838503121561399d5761399c612db7565b5b60006139ab85828601612e0a565b92505060206139bc85828601612e0a565b9150509250929050565b600080600080600060a086880312156139e2576139e1612db7565b5b60006139f088828901612e0a565b9550506020613a0188828901612e0a565b9450506040613a1288828901612e40565b9350506060613a2388828901612e40565b925050608086013567ffffffffffffffff811115613a4457613a43612dbc565b5b613a5088828901613312565b9150509295509295909350565b600080600060608486031215613a7657613a75612db7565b5b6000613a8486828701612e0a565b9350506020613a9586828701612e40565b9250506040613aa686828701612e40565b9150509250925092565b7f455243313135353a2061646472657373207a65726f206973206e6f742061207660008201527f616c6964206f776e657200000000000000000000000000000000000000000000602082015250565b6000613b0c602a83613141565b9150613b1782613ab0565b604082019050919050565b60006020820190508181036000830152613b3b81613aff565b9050919050565b600081905092915050565b7f68747470733a2f2f697066732e696f2f697066732f516d556b5555574269736960008201527f46613958556b3475634a6944723266766b3274447231784472436b454636464660208201527f4346382f00000000000000000000000000000000000000000000000000000000604082015250565b6000613bcf604483613b42565b9150613bda82613b4d565b604482019050919050565b6000613bf082613136565b613bfa8185613b42565b9350613c0a818560208601613152565b80840191505092915050565b6000613c2182613bc2565b9150613c2d8284613be5565b915081905092915050565b7f455243313135353a2063616c6c6572206973206e6f7420746f6b656e206f776e60008201527f6572206e6f7220617070726f7665640000000000000000000000000000000000602082015250565b6000613c94602f83613141565b9150613c9f82613c38565b604082019050919050565b60006020820190508181036000830152613cc381613c87565b9050919050565b6000819050919050565b613ce5613ce082612e1f565b613cca565b82525050565b6000613cf78284613cd4565b60208201915081905092915050565b7f4e487b7100000000000000000000000000000000000000000000000000000000600052601260045260246000fd5b6000613d4082612e1f565b9150613d4b83612e1f565b925082613d5b57613d5a613d06565b5b828206905092915050565b7f4e487b7100000000000000000000000000000000000000000000000000000000600052603260045260246000fd5b7f455243313135353a206163636f756e747320616e6420696473206c656e67746860008201527f206d69736d617463680000000000000000000000000000000000000000000000602082015250565b6000613df1602983613141565b9150613dfc82613d95565b604082019050919050565b60006020820190508181036000830152613e2081613de4565b9050919050565b7f4e487b7100000000000000000000000000000000000000000000000000000000600052601160045260246000fd5b6000613e6182612e1f565b91507fffffffffffffffffffffffffffffffffffffffffffffffffffffffffffffffff8203613e9357613e92613e27565b5b600182019050919050565b7f4f776e61626c653a206e6577206f776e657220697320746865207a65726f206160008201527f6464726573730000000000000000000000000000000000000000000000000000602082015250565b6000613efa602683613141565b9150613f0582613e9e565b604082019050919050565b60006020820190508181036000830152613f2981613eed565b9050919050565b7f4f776e61626c653a2063616c6c6572206973206e6f7420746865206f776e6572600082015250565b6000613f66602083613141565b9150613f7182613f30565b602082019050919050565b60006020820190508181036000830152613f9581613f59565b9050919050565b7f4e487b7100000000000000000000000000000000000000000000000000000000600052602260045260246000fd5b60006002820490506001821680613fe357607f821691505b602082108103613ff657613ff5613f9c565b5b50919050565b60008190508160005260206000209050919050565b60006020601f8301049050919050565b600082821b905092915050565b60006008830261405e7fffffffffffffffffffffffffffffffffffffffffffffffffffffffffffffffff82614021565b6140688683614021565b95508019841693508086168417925050509392505050565b6000819050919050565b60006140a56140a061409b84612e1f565b614080565b612e1f565b9050919050565b6000819050919050565b6140bf8361408a565b6140d36140cb826140ac565b84845461402e565b825550505050565b600090565b6140e86140db565b6140f38184846140b6565b505050565b5b818110156141175761410c6000826140e0565b6001810190506140f9565b5050565b601f82111561415c5761412d81613ffc565b61413684614011565b81016020851015614145578190505b61415961415185614011565b8301826140f8565b50505b505050565b600082821c905092915050565b600061417f60001984600802614161565b1980831691505092915050565b6000614198838361416e565b9150826002028217905092915050565b6141b182613136565b67ffffffffffffffff8111156141ca576141c9612f95565b5b6141d48254613fcb565b6141df82828561411b565b600060209050601f8311600181146142125760008415614200578287015190505b61420a858261418c565b865550614272565b601f19841661422086613ffc565b60005b8281101561424857848901518255600182019150602085019450602081019050614223565b868310156142655784890151614261601f89168261416e565b8355505b6001600288020188555050505b505050505050565b600061428582612e1f565b915061429083612e1f565b9250826142a05761429f613d06565b5b828204905092915050565b60006142b682612e1f565b91506142c183612e1f565b92508282039050818111156142d9576142d8613e27565b5b92915050565b60006142ea82612e1f565b91506142f583612e1f565b925082820190508082111561430d5761430c613e27565b5b92915050565b7f455243313135353a206d696e7420746f20746865207a65726f2061646472657360008201527f7300000000000000000000000000000000000000000000000000000000000000602082015250565b600061436f602183613141565b915061437a82614313565b604082019050919050565b6000602082019050818103600083015261439e81614362565b9050919050565b7f455243313135353a2069647320616e6420616d6f756e7473206c656e6774682060008201527f6d69736d61746368000000000000000000000000000000000000000000000000602082015250565b6000614401602883613141565b915061440c826143a5565b604082019050919050565b60006020820190508181036000830152614430816143f4565b9050919050565b600060408201905081810360008301526144518185613665565b905081810360208301526144658184613665565b90509392505050565b7f455243313135353a207472616e7366657220746f20746865207a65726f20616460008201527f6472657373000000000000000000000000000000000000000000000000000000602082015250565b60006144ca602583613141565b91506144d58261446e565b604082019050919050565b600060208201905081810360008301526144f9816144bd565b9050919050565b7f455243313135353a20696e73756666696369656e742062616c616e636520666f60008201527f72207472616e7366657200000000000000000000000000000000000000000000602082015250565b600061455c602a83613141565b915061456782614500565b604082019050919050565b6000602082019050818103600083015261458b8161454f565b9050919050565b60006040820190506145a76000830185612e95565b6145b46020830184612e95565b9392505050565b7f455243313135353a206275726e2066726f6d20746865207a65726f206164647260008201527f6573730000000000000000000000000000000000000000000000000000000000602082015250565b6000614617602383613141565b9150614622826145bb565b604082019050919050565b600060208201905081810360008301526146468161460a565b9050919050565b7f455243313135353a206275726e20616d6f756e7420657863656564732062616c60008201527f616e636500000000000000000000000000000000000000000000000000000000602082015250565b60006146a9602483613141565b91506146b48261464d565b604082019050919050565b600060208201905081810360008301526146d88161469c565b9050919050565b7f455243313135353a2073657474696e6720617070726f76616c2073746174757360008201527f20666f722073656c660000000000000000000000000000000000000000000000602082015250565b600061473b602983613141565b9150614746826146df565b604082019050919050565b6000602082019050818103600083015261476a8161472e565b9050919050565b600081519050919050565b600082825260208201905092915050565b600061479882614771565b6147a2818561477c565b93506147b2818560208601613152565b6147bb81612f84565b840191505092915050565b600060a0820190506147db6000830188613770565b6147e86020830187613770565b81810360408301526147fa8186613665565b9050818103606083015261480e8185613665565b90508181036080830152614822818461478d565b90509695505050505050565b60008151905061483d81612eeb565b92915050565b60006020828403121561485957614858612db7565b5b60006148678482850161482e565b91505092915050565b60008160e01c9050919050565b600060033d111561489c5760046000803e614899600051614870565b90505b90565b600060443d1061492c576148b1612dad565b60043d036004823e80513d602482011167ffffffffffffffff821117156148d957505061492c565b808201805167ffffffffffffffff8111156148f7575050505061492c565b80602083010160043d03850181111561491457505050505061492c565b61492382602001850186612fc4565b82955050505050505b90565b7f455243313135353a207472616e7366657220746f206e6f6e204552433131353560008201527f526563656976657220696d706c656d656e746572000000000000000000000000602082015250565b600061498b603483613141565b91506149968261492f565b604082019050919050565b600060208201905081810360008301526149ba8161497e565b9050919050565b7f455243313135353a204552433131353552656365697665722072656a6563746560008201527f6420746f6b656e73000000000000000000000000000000000000000000000000602082015250565b6000614a1d602883613141565b9150614a28826149c1565b604082019050919050565b60006020820190508181036000830152614a4c81614a10565b9050919050565b600060a082019050614a686000830188613770565b614a756020830187613770565b614a826040830186612e95565b614a8f6060830185612e95565b8181036080830152614aa1818461478d565b90509695505050505050565b7f455243313135353a206275726e20616d6f756e74206578636565647320746f7460008201527f616c537570706c79000000000000000000000000000000000000000000000000602082015250565b6000614b09602883613141565b9150614b1482614aad565b604082019050919050565b60006020820190508181036000830152614b3881614afc565b905091905056fea264697066735822122028fe2f7ca4470bdd90b547cd1fb6a4e55c08b4d29137e0bc65cb8b2f3b1f288964736f6c63430008110033697066733a2f2f516d556b5555574269736946613958556b3475634a6944723266766b3274447231784472436b45463646464346382f7b69647d",
  "immutableReferences": {},
  "source": "// SPDX-License-Identifier: MIT\npragma solidity ^0.8.4;\n\nimport \"@openzeppelin/contracts/token/ERC1155/ERC1155.sol\";\nimport \"@openzeppelin/contracts/access/Ownable.sol\";\nimport \"@openzeppelin/contracts/token/ERC1155/extensions/ERC1155Burnable.sol\";\nimport \"@openzeppelin/contracts/token/ERC1155/extensions/ERC1155Supply.sol\";\nimport \"@openzeppelin/contracts/utils/Strings.sol\";\nimport \"./interfaces/ERC20Interface.sol\";\n\ncontract MapleItems is ERC1155, Ownable, ERC1155Burnable, ERC1155Supply {\n    ERC20Interface private token;\n    uint256[] private waitForMint;\n    uint256[] private firstMint;\n    uint256[] private itemCheck;\n    uint256[] private scrollMint;\n    address private marketContractAddress;\n\n    uint256 public constant SWORD0 = 0;\n    uint256 public constant SWORD1 = 1;\n    uint256 public constant SWORD2 = 2;\n    uint256 public constant SWORD3 = 3;\n\n    uint256 public constant BOW0 = 100;\n    uint256 public constant BOW1 = 101;\n    uint256 public constant BOW2 = 102;\n\n    uint256 public constant STAFF0 = 200;\n    uint256 public constant STAFF1 = 201;\n    uint256 public constant STAFF2 = 202;\n\n    uint256 public constant POLEARM0 = 300;\n    uint256 public constant POLEARM1 = 301;\n    uint256 public constant POLEARM2 = 302;\n\n    uint256 public constant SCROLL100 = 400;\n    uint256 public constant SCROLL90 = 401;\n    uint256 public constant SCROLL60 = 402;\n    uint256 public constant SCROLL30 = 403;\n    uint256 public constant SCROLL10 = 404;\n\n    constructor(address _marketAddress, address _tokenContractAddress) ERC1155(\n    \"ipfs://QmUkUUWBisiFa9XUk4ucJiDr2fvk2tDr1xDrCkEF6FFCF8/{id}\"\n    ) {\n        marketContractAddress = _marketAddress;\n        _setToken(_tokenContractAddress);\n        _generateWeaponArray();\n        _generatefirstWeapon();\n        _generateItemCheck();\n        _generateScrollArray();\n    }\n\n    function uri(uint256 _tokenid) override public pure returns (string memory) {\n        return string(\n            abi.encodePacked(\n                \"https://ipfs.io/ipfs/QmUkUUWBisiFa9XUk4ucJiDr2fvk2tDr1xDrCkEF6FFCF8/\",\n                Strings.toString(_tokenid)\n            )\n        );\n    }\n\n    function setURI(string memory newuri) public onlyOwner {\n        _setURI(newuri);\n    }\n\n    function _generateWeaponArray() private onlyOwner{\n        for (uint256 i = 0; i < 4; i++ ){\n            waitForMint.push(SWORD0); \n        }\n        for (uint256 i = 0; i < 3; i++ ){\n            waitForMint.push(SWORD1);\n        }\n        for (uint256 i = 0; i < 2; i++ ){\n            waitForMint.push(SWORD2); \n        }\n        for (uint256 i = 0; i < 1; i++ ){\n            waitForMint.push(SWORD3); \n        }\n        \n        for (uint256 i = 0; i < 4; i++ ){\n            waitForMint.push(BOW0); \n        }\n        for (uint256 i = 0; i < 3; i++ ){\n            waitForMint.push(BOW1);\n        }\n        for (uint256 i = 0; i < 2; i++ ){\n            waitForMint.push(BOW2); \n        }\n\n        for (uint256 i = 0; i < 4; i++ ){\n            waitForMint.push(STAFF0); \n        }\n        for (uint256 i = 0; i < 3; i++ ){\n            waitForMint.push(STAFF1);\n        }\n        for (uint256 i = 0; i < 2; i++ ){\n            waitForMint.push(STAFF2); \n        }\n\n        for (uint256 i = 0; i < 4; i++ ){\n            waitForMint.push(POLEARM0); \n        }\n        for (uint256 i = 0; i < 3; i++ ){\n            waitForMint.push(POLEARM1);\n        }\n        for (uint256 i = 0; i < 2; i++ ){\n            waitForMint.push(POLEARM2); \n        }\n    }\n\n    function _generatefirstWeapon() private onlyOwner{\n        firstMint.push(SWORD0); \n        firstMint.push(BOW0); \n        firstMint.push(STAFF0); \n        firstMint.push(POLEARM0); \n    }\n\n    function _generateItemCheck() private onlyOwner{\n        itemCheck.push(SWORD0);\n        itemCheck.push(SWORD1);\n        itemCheck.push(SWORD2);\n        itemCheck.push(SWORD3);\n\n        itemCheck.push(BOW0);\n        itemCheck.push(BOW1);\n        itemCheck.push(BOW2);\n\n        itemCheck.push(STAFF0);\n        itemCheck.push(STAFF1);\n        itemCheck.push(STAFF2);\n\n        itemCheck.push(POLEARM0);\n        itemCheck.push(POLEARM1);\n        itemCheck.push(POLEARM2);\n\n        itemCheck.push(SCROLL100);\n        itemCheck.push(SCROLL90);\n        itemCheck.push(SCROLL60);\n        itemCheck.push(SCROLL30);\n        itemCheck.push(SCROLL10);\n    }\n\n    function _generateScrollArray() private onlyOwner{\n        for (uint256 i = 0; i < 1; i++ ){\n            scrollMint.push(SCROLL100); \n        }\n        for (uint256 i = 0; i < 2; i++ ){\n            scrollMint.push(SCROLL90);\n        }\n        for (uint256 i = 0; i < 4; i++ ){\n            scrollMint.push(SCROLL60); \n        }\n        for (uint256 i = 0; i < 6; i++ ){\n            scrollMint.push(SCROLL30); \n        }\n        for (uint256 i = 0; i < 7; i++ ){\n            scrollMint.push(SCROLL10); \n        }\n    }\n\n    function mintFirstWeapon() public {\n        uint256 n = uint256(keccak256(abi.encodePacked(block.timestamp))) % (firstMint.length);\n        uint id = firstMint[n];\n        \n        _mint(msg.sender, id, 1, \"\");\n        setApprovalForAll(marketContractAddress, true);\n    }\n\n    function mintRandomWeapon() public {   \n        uint256 n = uint256(keccak256(abi.encodePacked(block.timestamp))) % (waitForMint.length);\n        uint256 id = waitForMint[n];\n        \n        _mint(msg.sender, id, 1, \"\");\n        setApprovalForAll(marketContractAddress, true);\n    }\n\n    function mintScroll() public {\n        uint256 n = uint256(keccak256(abi.encodePacked(block.timestamp))) % (scrollMint.length);\n        uint id = firstMint[n];\n        \n        _mint(msg.sender, id, 1, \"\");\n        setApprovalForAll(marketContractAddress, true);\n    }\n\n    function mintBatch(address to, uint256[] memory ids, uint256[] memory amounts, bytes memory data)\n        public\n        onlyOwner\n    {\n        _mintBatch(to, ids, amounts, data);\n    }\n\n    function balanceCheck(address sender) public returns(uint256[][] memory){\n        uint256[][] memory balance = new uint256[][](itemCheck.length);\n        uint256 count = 0;\n\n        for(uint256 i=0; i<itemCheck.length; i++){\n            uint256 mybalance = balanceOf(sender, itemCheck[i]); \n            if(mybalance!=0){\n                balance[count] = new uint256[](2);\n                balance[count][0] = itemCheck[i];\n                balance[count][1] = mybalance;\n                count++;\n            }            \n        }\n\n        uint256[][] memory result = new uint256[][](count);\n        for(uint256 i=0; i<count; i++){\n            result[i] = new uint256[](2);\n            result[i][0] = balance[i][0];\n            result[i][1] = balance[i][1];\n        }\n\n        return result;\n    }\n    \n    function _setToken(address _tokenAddress) private onlyOwner returns (bool) {\n        require(_tokenAddress != address(0x0));\n        token = ERC20Interface(_tokenAddress);\n        return true;\n    }\n    // The following functions are overrides required by Solidity.\n\n    function _beforeTokenTransfer(address operator, address from, address to, uint256[] memory ids, uint256[] memory amounts, bytes memory data)\n        internal\n        override(ERC1155, ERC1155Supply)\n    {\n        super._beforeTokenTransfer(operator, from, to, ids, amounts, data);\n    }\n}",
  "sourcePath": "/Users/hyenne/workspace/BEB-05-JMT/contract/contracts/MapleItems.sol",
  "compiler": {
    "name": "solc",
    "version": "0.8.17+commit.8df45f5f.Emscripten.clang"
  },
  "schemaVersion": "3.4.9",
  "updatedAt": "2022-09-18T04:14:45.090Z",
  "networkType": "ethereum",
  "devdoc": {
    "kind": "dev",
    "methods": {
      "balanceOf(address,uint256)": {
        "details": "See {IERC1155-balanceOf}. Requirements: - `account` cannot be the zero address."
      },
      "balanceOfBatch(address[],uint256[])": {
        "details": "See {IERC1155-balanceOfBatch}. Requirements: - `accounts` and `ids` must have the same length."
      },
      "exists(uint256)": {
        "details": "Indicates whether any token exist with a given id, or not."
      },
      "isApprovedForAll(address,address)": {
        "details": "See {IERC1155-isApprovedForAll}."
      },
      "owner()": {
        "details": "Returns the address of the current owner."
      },
      "renounceOwnership()": {
        "details": "Leaves the contract without owner. It will not be possible to call `onlyOwner` functions anymore. Can only be called by the current owner. NOTE: Renouncing ownership will leave the contract without an owner, thereby removing any functionality that is only available to the owner."
      },
      "safeBatchTransferFrom(address,address,uint256[],uint256[],bytes)": {
        "details": "See {IERC1155-safeBatchTransferFrom}."
      },
      "safeTransferFrom(address,address,uint256,uint256,bytes)": {
        "details": "See {IERC1155-safeTransferFrom}."
      },
      "setApprovalForAll(address,bool)": {
        "details": "See {IERC1155-setApprovalForAll}."
      },
      "supportsInterface(bytes4)": {
        "details": "See {IERC165-supportsInterface}."
      },
      "totalSupply(uint256)": {
        "details": "Total amount of tokens in with a given id."
      },
      "transferOwnership(address)": {
        "details": "Transfers ownership of the contract to a new account (`newOwner`). Can only be called by the current owner."
      }
    },
    "version": 1
  },
  "userdoc": {
    "kind": "user",
    "methods": {},
    "version": 1
  }
}