{
  "contractName": "MapleItems",
  "abi": [
    {
      "inputs": [
        {
          "internalType": "address",
          "name": "_marketAddress",
          "type": "address"
        },
        {
          "internalType": "address",
          "name": "_tokenContractAddress",
          "type": "address"
        },
        {
          "internalType": "address payable",
          "name": "_treasuryWallet",
          "type": "address"
        }
      ],
      "stateMutability": "nonpayable",
      "type": "constructor"
    },
    {
      "anonymous": false,
      "inputs": [
        {
          "indexed": true,
          "internalType": "address",
          "name": "account",
          "type": "address"
        },
        {
          "indexed": true,
          "internalType": "address",
          "name": "operator",
          "type": "address"
        },
        {
          "indexed": false,
          "internalType": "bool",
          "name": "approved",
          "type": "bool"
        }
      ],
      "name": "ApprovalForAll",
      "type": "event"
    },
    {
      "anonymous": false,
      "inputs": [
        {
          "indexed": true,
          "internalType": "address",
          "name": "previousOwner",
          "type": "address"
        },
        {
          "indexed": true,
          "internalType": "address",
          "name": "newOwner",
          "type": "address"
        }
      ],
      "name": "OwnershipTransferred",
      "type": "event"
    },
    {
      "anonymous": false,
      "inputs": [
        {
          "indexed": false,
          "internalType": "bool",
          "name": "result",
          "type": "bool"
        }
      ],
      "name": "Rewarded",
      "type": "event"
    },
    {
      "anonymous": false,
      "inputs": [
        {
          "indexed": true,
          "internalType": "address",
          "name": "operator",
          "type": "address"
        },
        {
          "indexed": true,
          "internalType": "address",
          "name": "from",
          "type": "address"
        },
        {
          "indexed": true,
          "internalType": "address",
          "name": "to",
          "type": "address"
        },
        {
          "indexed": false,
          "internalType": "uint256[]",
          "name": "ids",
          "type": "uint256[]"
        },
        {
          "indexed": false,
          "internalType": "uint256[]",
          "name": "values",
          "type": "uint256[]"
        }
      ],
      "name": "TransferBatch",
      "type": "event"
    },
    {
      "anonymous": false,
      "inputs": [
        {
          "indexed": true,
          "internalType": "address",
          "name": "operator",
          "type": "address"
        },
        {
          "indexed": true,
          "internalType": "address",
          "name": "from",
          "type": "address"
        },
        {
          "indexed": true,
          "internalType": "address",
          "name": "to",
          "type": "address"
        },
        {
          "indexed": false,
          "internalType": "uint256",
          "name": "id",
          "type": "uint256"
        },
        {
          "indexed": false,
          "internalType": "uint256",
          "name": "value",
          "type": "uint256"
        }
      ],
      "name": "TransferSingle",
      "type": "event"
    },
    {
      "anonymous": false,
      "inputs": [
        {
          "indexed": false,
          "internalType": "string",
          "name": "value",
          "type": "string"
        },
        {
          "indexed": true,
          "internalType": "uint256",
          "name": "id",
          "type": "uint256"
        }
      ],
      "name": "URI",
      "type": "event"
    },
    {
      "anonymous": false,
      "inputs": [
        {
          "indexed": false,
          "internalType": "bool",
          "name": "result",
          "type": "bool"
        },
        {
          "indexed": false,
          "internalType": "uint256",
          "name": "weaponId",
          "type": "uint256"
        }
      ],
      "name": "Upgraded",
      "type": "event"
    },
    {
      "inputs": [],
      "name": "BOW0",
      "outputs": [
        {
          "internalType": "uint256",
          "name": "",
          "type": "uint256"
        }
      ],
      "stateMutability": "view",
      "type": "function"
    },
    {
      "inputs": [],
      "name": "BOW1",
      "outputs": [
        {
          "internalType": "uint256",
          "name": "",
          "type": "uint256"
        }
      ],
      "stateMutability": "view",
      "type": "function"
    },
    {
      "inputs": [],
      "name": "BOW2",
      "outputs": [
        {
          "internalType": "uint256",
          "name": "",
          "type": "uint256"
        }
      ],
      "stateMutability": "view",
      "type": "function"
    },
    {
      "inputs": [],
      "name": "BOW3",
      "outputs": [
        {
          "internalType": "uint256",
          "name": "",
          "type": "uint256"
        }
      ],
      "stateMutability": "view",
      "type": "function"
    },
    {
      "inputs": [],
      "name": "BOW4",
      "outputs": [
        {
          "internalType": "uint256",
          "name": "",
          "type": "uint256"
        }
      ],
      "stateMutability": "view",
      "type": "function"
    },
    {
      "inputs": [],
      "name": "BOW5",
      "outputs": [
        {
          "internalType": "uint256",
          "name": "",
          "type": "uint256"
        }
      ],
      "stateMutability": "view",
      "type": "function"
    },
    {
      "inputs": [],
      "name": "BOW6",
      "outputs": [
        {
          "internalType": "uint256",
          "name": "",
          "type": "uint256"
        }
      ],
      "stateMutability": "view",
      "type": "function"
    },
    {
      "inputs": [],
      "name": "BOW7",
      "outputs": [
        {
          "internalType": "uint256",
          "name": "",
          "type": "uint256"
        }
      ],
      "stateMutability": "view",
      "type": "function"
    },
    {
      "inputs": [],
      "name": "BOW8",
      "outputs": [
        {
          "internalType": "uint256",
          "name": "",
          "type": "uint256"
        }
      ],
      "stateMutability": "view",
      "type": "function"
    },
    {
      "inputs": [],
      "name": "BOW9",
      "outputs": [
        {
          "internalType": "uint256",
          "name": "",
          "type": "uint256"
        }
      ],
      "stateMutability": "view",
      "type": "function"
    },
    {
      "inputs": [],
      "name": "POLEARM0",
      "outputs": [
        {
          "internalType": "uint256",
          "name": "",
          "type": "uint256"
        }
      ],
      "stateMutability": "view",
      "type": "function"
    },
    {
      "inputs": [],
      "name": "POLEARM1",
      "outputs": [
        {
          "internalType": "uint256",
          "name": "",
          "type": "uint256"
        }
      ],
      "stateMutability": "view",
      "type": "function"
    },
    {
      "inputs": [],
      "name": "POLEARM2",
      "outputs": [
        {
          "internalType": "uint256",
          "name": "",
          "type": "uint256"
        }
      ],
      "stateMutability": "view",
      "type": "function"
    },
    {
      "inputs": [],
      "name": "POLEARM3",
      "outputs": [
        {
          "internalType": "uint256",
          "name": "",
          "type": "uint256"
        }
      ],
      "stateMutability": "view",
      "type": "function"
    },
    {
      "inputs": [],
      "name": "POLEARM4",
      "outputs": [
        {
          "internalType": "uint256",
          "name": "",
          "type": "uint256"
        }
      ],
      "stateMutability": "view",
      "type": "function"
    },
    {
      "inputs": [],
      "name": "POLEARM5",
      "outputs": [
        {
          "internalType": "uint256",
          "name": "",
          "type": "uint256"
        }
      ],
      "stateMutability": "view",
      "type": "function"
    },
    {
      "inputs": [],
      "name": "POLEARM6",
      "outputs": [
        {
          "internalType": "uint256",
          "name": "",
          "type": "uint256"
        }
      ],
      "stateMutability": "view",
      "type": "function"
    },
    {
      "inputs": [],
      "name": "POLEARM7",
      "outputs": [
        {
          "internalType": "uint256",
          "name": "",
          "type": "uint256"
        }
      ],
      "stateMutability": "view",
      "type": "function"
    },
    {
      "inputs": [],
      "name": "POLEARM8",
      "outputs": [
        {
          "internalType": "uint256",
          "name": "",
          "type": "uint256"
        }
      ],
      "stateMutability": "view",
      "type": "function"
    },
    {
      "inputs": [],
      "name": "POLEARM9",
      "outputs": [
        {
          "internalType": "uint256",
          "name": "",
          "type": "uint256"
        }
      ],
      "stateMutability": "view",
      "type": "function"
    },
    {
      "inputs": [],
      "name": "SCROLL10",
      "outputs": [
        {
          "internalType": "uint256",
          "name": "",
          "type": "uint256"
        }
      ],
      "stateMutability": "view",
      "type": "function"
    },
    {
      "inputs": [],
      "name": "SCROLL100",
      "outputs": [
        {
          "internalType": "uint256",
          "name": "",
          "type": "uint256"
        }
      ],
      "stateMutability": "view",
      "type": "function"
    },
    {
      "inputs": [],
      "name": "SCROLL30",
      "outputs": [
        {
          "internalType": "uint256",
          "name": "",
          "type": "uint256"
        }
      ],
      "stateMutability": "view",
      "type": "function"
    },
    {
      "inputs": [],
      "name": "SCROLL60",
      "outputs": [
        {
          "internalType": "uint256",
          "name": "",
          "type": "uint256"
        }
      ],
      "stateMutability": "view",
      "type": "function"
    },
    {
      "inputs": [],
      "name": "SCROLL90",
      "outputs": [
        {
          "internalType": "uint256",
          "name": "",
          "type": "uint256"
        }
      ],
      "stateMutability": "view",
      "type": "function"
    },
    {
      "inputs": [],
      "name": "STAFF0",
      "outputs": [
        {
          "internalType": "uint256",
          "name": "",
          "type": "uint256"
        }
      ],
      "stateMutability": "view",
      "type": "function"
    },
    {
      "inputs": [],
      "name": "STAFF1",
      "outputs": [
        {
          "internalType": "uint256",
          "name": "",
          "type": "uint256"
        }
      ],
      "stateMutability": "view",
      "type": "function"
    },
    {
      "inputs": [],
      "name": "STAFF2",
      "outputs": [
        {
          "internalType": "uint256",
          "name": "",
          "type": "uint256"
        }
      ],
      "stateMutability": "view",
      "type": "function"
    },
    {
      "inputs": [],
      "name": "STAFF3",
      "outputs": [
        {
          "internalType": "uint256",
          "name": "",
          "type": "uint256"
        }
      ],
      "stateMutability": "view",
      "type": "function"
    },
    {
      "inputs": [],
      "name": "STAFF4",
      "outputs": [
        {
          "internalType": "uint256",
          "name": "",
          "type": "uint256"
        }
      ],
      "stateMutability": "view",
      "type": "function"
    },
    {
      "inputs": [],
      "name": "STAFF5",
      "outputs": [
        {
          "internalType": "uint256",
          "name": "",
          "type": "uint256"
        }
      ],
      "stateMutability": "view",
      "type": "function"
    },
    {
      "inputs": [],
      "name": "STAFF6",
      "outputs": [
        {
          "internalType": "uint256",
          "name": "",
          "type": "uint256"
        }
      ],
      "stateMutability": "view",
      "type": "function"
    },
    {
      "inputs": [],
      "name": "STAFF7",
      "outputs": [
        {
          "internalType": "uint256",
          "name": "",
          "type": "uint256"
        }
      ],
      "stateMutability": "view",
      "type": "function"
    },
    {
      "inputs": [],
      "name": "STAFF8",
      "outputs": [
        {
          "internalType": "uint256",
          "name": "",
          "type": "uint256"
        }
      ],
      "stateMutability": "view",
      "type": "function"
    },
    {
      "inputs": [],
      "name": "STAFF9",
      "outputs": [
        {
          "internalType": "uint256",
          "name": "",
          "type": "uint256"
        }
      ],
      "stateMutability": "view",
      "type": "function"
    },
    {
      "inputs": [],
      "name": "SWORD0",
      "outputs": [
        {
          "internalType": "uint256",
          "name": "",
          "type": "uint256"
        }
      ],
      "stateMutability": "view",
      "type": "function"
    },
    {
      "inputs": [],
      "name": "SWORD1",
      "outputs": [
        {
          "internalType": "uint256",
          "name": "",
          "type": "uint256"
        }
      ],
      "stateMutability": "view",
      "type": "function"
    },
    {
      "inputs": [],
      "name": "SWORD2",
      "outputs": [
        {
          "internalType": "uint256",
          "name": "",
          "type": "uint256"
        }
      ],
      "stateMutability": "view",
      "type": "function"
    },
    {
      "inputs": [],
      "name": "SWORD3",
      "outputs": [
        {
          "internalType": "uint256",
          "name": "",
          "type": "uint256"
        }
      ],
      "stateMutability": "view",
      "type": "function"
    },
    {
      "inputs": [],
      "name": "SWORD4",
      "outputs": [
        {
          "internalType": "uint256",
          "name": "",
          "type": "uint256"
        }
      ],
      "stateMutability": "view",
      "type": "function"
    },
    {
      "inputs": [],
      "name": "SWORD5",
      "outputs": [
        {
          "internalType": "uint256",
          "name": "",
          "type": "uint256"
        }
      ],
      "stateMutability": "view",
      "type": "function"
    },
    {
      "inputs": [],
      "name": "SWORD6",
      "outputs": [
        {
          "internalType": "uint256",
          "name": "",
          "type": "uint256"
        }
      ],
      "stateMutability": "view",
      "type": "function"
    },
    {
      "inputs": [],
      "name": "SWORD7",
      "outputs": [
        {
          "internalType": "uint256",
          "name": "",
          "type": "uint256"
        }
      ],
      "stateMutability": "view",
      "type": "function"
    },
    {
      "inputs": [],
      "name": "SWORD8",
      "outputs": [
        {
          "internalType": "uint256",
          "name": "",
          "type": "uint256"
        }
      ],
      "stateMutability": "view",
      "type": "function"
    },
    {
      "inputs": [],
      "name": "SWORD9",
      "outputs": [
        {
          "internalType": "uint256",
          "name": "",
          "type": "uint256"
        }
      ],
      "stateMutability": "view",
      "type": "function"
    },
    {
      "inputs": [
        {
          "internalType": "address",
          "name": "account",
          "type": "address"
        },
        {
          "internalType": "uint256",
          "name": "id",
          "type": "uint256"
        }
      ],
      "name": "balanceOf",
      "outputs": [
        {
          "internalType": "uint256",
          "name": "",
          "type": "uint256"
        }
      ],
      "stateMutability": "view",
      "type": "function"
    },
    {
      "inputs": [
        {
          "internalType": "address[]",
          "name": "accounts",
          "type": "address[]"
        },
        {
          "internalType": "uint256[]",
          "name": "ids",
          "type": "uint256[]"
        }
      ],
      "name": "balanceOfBatch",
      "outputs": [
        {
          "internalType": "uint256[]",
          "name": "",
          "type": "uint256[]"
        }
      ],
      "stateMutability": "view",
      "type": "function"
    },
    {
      "inputs": [
        {
          "internalType": "address",
          "name": "account",
          "type": "address"
        },
        {
          "internalType": "uint256",
          "name": "id",
          "type": "uint256"
        },
        {
          "internalType": "uint256",
          "name": "value",
          "type": "uint256"
        }
      ],
      "name": "burn",
      "outputs": [],
      "stateMutability": "nonpayable",
      "type": "function"
    },
    {
      "inputs": [
        {
          "internalType": "address",
          "name": "account",
          "type": "address"
        },
        {
          "internalType": "uint256[]",
          "name": "ids",
          "type": "uint256[]"
        },
        {
          "internalType": "uint256[]",
          "name": "values",
          "type": "uint256[]"
        }
      ],
      "name": "burnBatch",
      "outputs": [],
      "stateMutability": "nonpayable",
      "type": "function"
    },
    {
      "inputs": [
        {
          "internalType": "uint256",
          "name": "id",
          "type": "uint256"
        }
      ],
      "name": "exists",
      "outputs": [
        {
          "internalType": "bool",
          "name": "",
          "type": "bool"
        }
      ],
      "stateMutability": "view",
      "type": "function"
    },
    {
      "inputs": [
        {
          "internalType": "address",
          "name": "account",
          "type": "address"
        },
        {
          "internalType": "address",
          "name": "operator",
          "type": "address"
        }
      ],
      "name": "isApprovedForAll",
      "outputs": [
        {
          "internalType": "bool",
          "name": "",
          "type": "bool"
        }
      ],
      "stateMutability": "view",
      "type": "function"
    },
    {
      "inputs": [],
      "name": "owner",
      "outputs": [
        {
          "internalType": "address",
          "name": "",
          "type": "address"
        }
      ],
      "stateMutability": "view",
      "type": "function"
    },
    {
      "inputs": [],
      "name": "renounceOwnership",
      "outputs": [],
      "stateMutability": "nonpayable",
      "type": "function"
    },
    {
      "inputs": [
        {
          "internalType": "address",
          "name": "from",
          "type": "address"
        },
        {
          "internalType": "address",
          "name": "to",
          "type": "address"
        },
        {
          "internalType": "uint256[]",
          "name": "ids",
          "type": "uint256[]"
        },
        {
          "internalType": "uint256[]",
          "name": "amounts",
          "type": "uint256[]"
        },
        {
          "internalType": "bytes",
          "name": "data",
          "type": "bytes"
        }
      ],
      "name": "safeBatchTransferFrom",
      "outputs": [],
      "stateMutability": "nonpayable",
      "type": "function"
    },
    {
      "inputs": [
        {
          "internalType": "address",
          "name": "from",
          "type": "address"
        },
        {
          "internalType": "address",
          "name": "to",
          "type": "address"
        },
        {
          "internalType": "uint256",
          "name": "id",
          "type": "uint256"
        },
        {
          "internalType": "uint256",
          "name": "amount",
          "type": "uint256"
        },
        {
          "internalType": "bytes",
          "name": "data",
          "type": "bytes"
        }
      ],
      "name": "safeTransferFrom",
      "outputs": [],
      "stateMutability": "nonpayable",
      "type": "function"
    },
    {
      "inputs": [
        {
          "internalType": "address",
          "name": "operator",
          "type": "address"
        },
        {
          "internalType": "bool",
          "name": "approved",
          "type": "bool"
        }
      ],
      "name": "setApprovalForAll",
      "outputs": [],
      "stateMutability": "nonpayable",
      "type": "function"
    },
    {
      "inputs": [
        {
          "internalType": "bytes4",
          "name": "interfaceId",
          "type": "bytes4"
        }
      ],
      "name": "supportsInterface",
      "outputs": [
        {
          "internalType": "bool",
          "name": "",
          "type": "bool"
        }
      ],
      "stateMutability": "view",
      "type": "function"
    },
    {
      "inputs": [
        {
          "internalType": "uint256",
          "name": "id",
          "type": "uint256"
        }
      ],
      "name": "totalSupply",
      "outputs": [
        {
          "internalType": "uint256",
          "name": "",
          "type": "uint256"
        }
      ],
      "stateMutability": "view",
      "type": "function"
    },
    {
      "inputs": [
        {
          "internalType": "address",
          "name": "newOwner",
          "type": "address"
        }
      ],
      "name": "transferOwnership",
      "outputs": [],
      "stateMutability": "nonpayable",
      "type": "function"
    },
    {
      "inputs": [],
      "name": "treasuryWallet",
      "outputs": [
        {
          "internalType": "address payable",
          "name": "",
          "type": "address"
        }
      ],
      "stateMutability": "view",
      "type": "function"
    },
    {
      "inputs": [
        {
          "internalType": "uint256",
          "name": "_tokenid",
          "type": "uint256"
        }
      ],
      "name": "uri",
      "outputs": [
        {
          "internalType": "string",
          "name": "",
          "type": "string"
        }
      ],
      "stateMutability": "pure",
      "type": "function"
    },
    {
      "inputs": [
        {
          "internalType": "string",
          "name": "newuri",
          "type": "string"
        }
      ],
      "name": "setURI",
      "outputs": [],
      "stateMutability": "nonpayable",
      "type": "function"
    },
    {
      "inputs": [],
      "name": "generateWeaponArray",
      "outputs": [],
      "stateMutability": "nonpayable",
      "type": "function"
    },
    {
      "inputs": [],
      "name": "generatefirstWeapon",
      "outputs": [],
      "stateMutability": "nonpayable",
      "type": "function"
    },
    {
      "inputs": [],
      "name": "generateItemCheck",
      "outputs": [],
      "stateMutability": "nonpayable",
      "type": "function"
    },
    {
      "inputs": [],
      "name": "generateScrollArray",
      "outputs": [],
      "stateMutability": "nonpayable",
      "type": "function"
    },
    {
      "inputs": [],
      "name": "mintFirstWeapon",
      "outputs": [],
      "stateMutability": "nonpayable",
      "type": "function"
    },
    {
      "inputs": [],
      "name": "mintRandomWeapon",
      "outputs": [
        {
          "internalType": "uint256",
          "name": "",
          "type": "uint256"
        }
      ],
      "stateMutability": "nonpayable",
      "type": "function"
    },
    {
      "inputs": [],
      "name": "mintScroll",
      "outputs": [],
      "stateMutability": "nonpayable",
      "type": "function"
    },
    {
      "inputs": [
        {
          "internalType": "uint256",
          "name": "scrollId",
          "type": "uint256"
        },
        {
          "internalType": "uint256",
          "name": "weaponId",
          "type": "uint256"
        }
      ],
      "name": "upgrade",
      "outputs": [],
      "stateMutability": "nonpayable",
      "type": "function"
    },
    {
      "inputs": [
        {
          "internalType": "address",
          "name": "to",
          "type": "address"
        },
        {
          "internalType": "uint256[]",
          "name": "ids",
          "type": "uint256[]"
        },
        {
          "internalType": "uint256[]",
          "name": "amounts",
          "type": "uint256[]"
        },
        {
          "internalType": "bytes",
          "name": "data",
          "type": "bytes"
        }
      ],
      "name": "mintBatch",
      "outputs": [],
      "stateMutability": "nonpayable",
      "type": "function"
    },
    {
      "inputs": [
        {
          "internalType": "address",
          "name": "sender",
          "type": "address"
        }
      ],
      "name": "balanceCheck",
      "outputs": [
        {
          "internalType": "uint256[][]",
          "name": "",
          "type": "uint256[][]"
        }
      ],
      "stateMutability": "nonpayable",
      "type": "function"
    },
    {
      "inputs": [],
      "name": "randRewardScroll",
      "outputs": [],
      "stateMutability": "nonpayable",
      "type": "function"
    }
  ],
  "bytecode": "0x6080604052670de0b6b3a76400006006556000600a556046600b553480156200002757600080fd5b5060405162004b0838038062004b088339810160408190526200004a91620001f8565b6040518060600160405280603a815260200162004ace603a91396200006f81620000d5565b506200007b33620000e7565b60016008556002600955601080546001600160a01b0319166001600160a01b038516179055620000ab8262000139565b50600780546001600160a01b0319166001600160a01b039290921691909117905550620003bd9050565b6002620000e38282620002f1565b5050565b600380546001600160a01b038381166001600160a01b0319831681179093556040519116919082907f8be0079c531659141344cd1fd0a4f28419497f9722a3daafe3b4186f6b6457e090600090a35050565b6000620001456200017e565b6001600160a01b0382166200015957600080fd5b50600580546001600160a01b0383166001600160a01b03199091161790556001919050565b6003546001600160a01b03163314620001dd5760405162461bcd60e51b815260206004820181905260248201527f4f776e61626c653a2063616c6c6572206973206e6f7420746865206f776e6572604482015260640160405180910390fd5b565b6001600160a01b0381168114620001f557600080fd5b50565b6000806000606084860312156200020e57600080fd5b83516200021b81620001df565b60208501519093506200022e81620001df565b60408501519092506200024181620001df565b809150509250925092565b634e487b7160e01b600052604160045260246000fd5b600181811c908216806200027757607f821691505b6020821081036200029857634e487b7160e01b600052602260045260246000fd5b50919050565b601f821115620002ec57600081815260208120601f850160051c81016020861015620002c75750805b601f850160051c820191505b81811015620002e857828155600101620002d3565b5050505b505050565b81516001600160401b038111156200030d576200030d6200024c565b62000325816200031e845462000262565b846200029e565b602080601f8311600181146200035d5760008415620003445750858301515b600019600386901b1c1916600185901b178555620002e8565b600085815260208120601f198616915b828110156200038e578886015182559484019460019091019084016200036d565b5085821015620003ad5787850151600019600388901b60f8161c191681555b5050505050600190811b01905550565b61470180620003cd6000396000f3fe608060405234801561001057600080fd5b50600436106104c25760003560e01c806384e0f7d611610286578063c9dd779f1161016b578063ea3875ca116100e3578063f2fde38b11610097578063f5dce5b91161007c578063f5dce5b91461087c578063fdce57bd14610885578063fe36d6081461088e57600080fd5b8063f2fde38b14610856578063f5298aca1461086957600080fd5b8063f14a3d56116100c8578063f14a3d5614610832578063f18acf111461083b578063f242432a1461084357600080fd5b8063ea3875ca14610822578063ef65a5931461082a57600080fd5b8063d79c66aa1161013a578063dc4feb471161011f578063dc4feb47146107d5578063e7b5be39146107de578063e985e9c5146107e657600080fd5b8063d79c66aa146107c3578063d82acc97146107cc57600080fd5b8063c9dd779f146107a3578063d0faf49e146107ab578063d656efb5146107b3578063d78de1a9146107bb57600080fd5b8063a294ffd3116101fe578063b6a8412b116101cd578063bd85b039116101b2578063bd85b03914610773578063c1640d9414610793578063c52f28761461079b57600080fd5b8063b6a8412b14610763578063b6c7caad1461076b57600080fd5b8063a294ffd314610729578063ac6c777114610732578063aedd809a1461073b578063afc6c6491461074357600080fd5b80639750463a11610255578063a004cbde1161023a578063a004cbde14610705578063a0fa3f221461070e578063a22cb4651461071657600080fd5b80639750463a146106f55780639e322314146106fd57600080fd5b806384e0f7d6146106cc5780638da5cb5b146106d45780639378d07a146106e557806395425af3146106ed57600080fd5b80634626402b116103ac578063654b1bb9116103245780636f9e9b84116102f35780637b536097116102d85780637b536097146106b2578063834f9443146106bb578063839863b5146106c357600080fd5b80636f9e9b84146106a2578063715018a6146106aa57600080fd5b8063654b1bb91461067757806367e6ef681461067f57806368c5f5b1146106875780636b20c4541461068f57600080fd5b80634f558e791161037b5780635f616bb0116103605780635f616bb01461065f5780635ff44df41461066757806360baee5d1461066f57600080fd5b80634f558e79146106345780635456e59a1461065657600080fd5b80634626402b146105d85780634ba46639146106035780634e1273f41461060b5780634f4aabc11461062b57600080fd5b806328f52d901161043f57806332e5794a1161040e578063368ebd7e116103f3578063368ebd7e146105b5578063442107e3146105bd578063451450ec146105c557600080fd5b806332e5794a146105a5578063364af587146105ad57600080fd5b806328f52d901461057a5780632eb2c2d614610582578063317c55d01461059557806331f533bd1461059d57600080fd5b80630e89341c116104965780631f7fdffa1161047b5780631f7fdffa1461055657806321443e201461056957806323bfdcfa1461057157600080fd5b80630e89341c1461052e5780630f068c601461054e57600080fd5b8062fdd58e146104c757806301ffc9a7146104ed57806302363b601461051057806302fe530514610519575b600080fd5b6104da6104d5366004613b6d565b610896565b6040519081526020015b60405180910390f35b6105006104fb366004613bad565b610942565b60405190151581526020016104e4565b6104da61013181565b61052c610527366004613c72565b6109dd565b005b61054161053c366004613cbb565b6109f1565b6040516104e49190613d24565b6104da60ca81565b61052c610564366004613dec565b610a22565b6104da600581565b6104da61019181565b6104da60ce81565b61052c610590366004613e85565b610a3c565b6104da60cc81565b61052c610ad0565b6104da606581565b6104da600981565b6104da606d81565b6104da60c881565b61052c6105d3366004613f2f565b610c8a565b6007546105eb906001600160a01b031681565b6040516001600160a01b0390911681526020016104e4565b61052c610f80565b61061e610619366004613f51565b611010565b6040516104e49190614057565b6104da61012d81565b610500610642366004613cbb565b600090815260046020526040902054151590565b6104da61019481565b6104da606781565b6104da60cf81565b6104da61114e565b61052c611411565b6104da606c81565b6104da600781565b61052c61069d36600461406a565b611478565b6104da600181565b61052c611508565b6104da61013281565b6104da606a81565b6104da61013081565b61052c61151c565b6003546001600160a01b03166105eb565b6104da60cb81565b6104da60d181565b6104da600381565b6104da600481565b6104da61012e81565b6104da606981565b61052c6107243660046140ec565b611fc5565b6104da61012f81565b6104da61013581565b6104da600081565b610756610751366004614123565b611fd0565b6040516104e4919061413e565b61052c6122da565b61052c6123a3565b6104da610781366004613cbb565b60009081526004602052604090205490565b61052c61242b565b6104da600881565b6104da606881565b6104da60c981565b6104da606681565b6104da60cd81565b6104da61019081565b6104da61013481565b6104da61019381565b6104da600281565b6105006107f43660046141a0565b6001600160a01b03918216600090815260016020908152604080832093909416825291909152205460ff1690565b6104da606481565b6104da60d081565b6104da61012c81565b6104da600681565b61052c6108513660046141d3565b6126b4565b61052c610864366004614123565b612741565b61052c610877366004614238565b6127ce565b6104da61019281565b6104da61013381565b6104da606b81565b60006001600160a01b0383166109195760405162461bcd60e51b815260206004820152602a60248201527f455243313135353a2061646472657373207a65726f206973206e6f742061207660448201527f616c6964206f776e65720000000000000000000000000000000000000000000060648201526084015b60405180910390fd5b506000818152602081815260408083206001600160a01b03861684529091529020545b92915050565b60006001600160e01b031982167fd9b67a260000000000000000000000000000000000000000000000000000000014806109a557506001600160e01b031982167f0e89341c00000000000000000000000000000000000000000000000000000000145b8061093c57507f01ffc9a7000000000000000000000000000000000000000000000000000000006001600160e01b031983161461093c565b6109e5612859565b6109ee816128b3565b50565b60606109fc826128bf565b604051602001610a0c919061426b565b6040516020818303038152906040529050919050565b610a2a612859565b610a36848484846129fc565b50505050565b6001600160a01b038516331480610a585750610a5885336107f4565b610abc5760405162461bcd60e51b815260206004820152602f60248201527f455243313135353a2063616c6c6572206973206e6f7420746f6b656e206f776e60448201526e195c881b9bdc88185c1c1c9bdd9959608a1b6064820152608401610910565b610ac98585858585612bd1565b5050505050565b610ad8612859565b60005b6001811015610b2e57600f80546001810182556000919091526101907f8d1108e10bcb7c27dddfc02ed9d693a074039d026cf4ea4240b40f7d581ac8029091015580610b2681614312565b915050610adb565b5060005b6002811015610b8557600f80546001810182556000919091526101917f8d1108e10bcb7c27dddfc02ed9d693a074039d026cf4ea4240b40f7d581ac8029091015580610b7d81614312565b915050610b32565b5060005b6004811015610bdc57600f80546001810182556000919091526101927f8d1108e10bcb7c27dddfc02ed9d693a074039d026cf4ea4240b40f7d581ac8029091015580610bd481614312565b915050610b89565b5060005b6006811015610c3357600f80546001810182556000919091526101937f8d1108e10bcb7c27dddfc02ed9d693a074039d026cf4ea4240b40f7d581ac8029091015580610c2b81614312565b915050610be0565b5060005b60078110156109ee57600f80546001810182556000919091526101947f8d1108e10bcb7c27dddfc02ed9d693a074039d026cf4ea4240b40f7d581ac8029091015580610c8281614312565b915050610c37565b610c943383610896565b600003610ced5760405162461bcd60e51b815260206004820152602160248201527f455243313135353a2074686973207363726f6c6c206973206e6f7420796f75726044820152607360f81b6064820152608401610910565b610cf73382610896565b600003610d505760405162461bcd60e51b815260206004820152602160248201527f455243313135353a207468697320776561706f6e206973206e6f7420796f75726044820152607360f81b6064820152608401610910565b6009610d5d606483614341565b10610dd05760405162461bcd60e51b815260206004820152602660248201527f455243313135353a207468697320776561706f6e2069732066756c6c7920757060448201527f67726164656400000000000000000000000000000000000000000000000000006064820152608401610910565b6000610ddd606484614341565b600003610dec57506064610e50565b610df7606484614341565b600103610e065750605a610e50565b610e11606484614341565b600203610e205750603c610e50565b610e2b606484614341565b600303610e3a5750601e610e50565b610e45606484614341565b600403610e505750600a5b6000606442604051602001610e6791815260200190565b6040516020818303038152906040528051906020012060001c610e8a9190614341565b9050818111610f3457610eb933610ea2856001614355565b600160405180602001604052806000815250612e3d565b610ec533846001612f60565b610ed133856001612f60565b601054610ee8906001600160a01b03166001611fc5565b7f896a2d323b547f5b1499a9e580d7749e63e5e1e92d4c60962250b7c3dbbde1f06001610f158582614355565b60408051921515835260208301919091520160405180910390a1610a36565b610f4033856001612f60565b6040805160008152602081018590527f896a2d323b547f5b1499a9e580d7749e63e5e1e92d4c60962250b7c3dbbde1f0910160405180910390a150505050565b600f546040805142602082015260009291016040516020818303038152906040528051906020012060001c610fb59190614341565b90506000600f8281548110610fcc57610fcc614368565b90600052602060002001549050610ff53382600160405180602001604052806000815250612e3d565b60105461100c906001600160a01b03166001611fc5565b5050565b606081518351146110895760405162461bcd60e51b815260206004820152602960248201527f455243313135353a206163636f756e747320616e6420696473206c656e67746860448201527f206d69736d6174636800000000000000000000000000000000000000000000006064820152608401610910565b6000835167ffffffffffffffff8111156110a5576110a5613bd1565b6040519080825280602002602001820160405280156110ce578160200160208202803683370190505b50905060005b8451811015611146576111198582815181106110f2576110f2614368565b602002602001015185838151811061110c5761110c614368565b6020026020010151610896565b82828151811061112b5761112b614368565b602090810291909101015261113f81614312565b90506110d4565b509392505050565b600c546040805142602082015260009283929091016040516020818303038152906040528051906020012060001c6111869190614341565b90506000600c828154811061119d5761119d614368565b906000526020600020015490506111c63382600160405180602001604052806000815250612e3d565b6010546111dd906001600160a01b03166001611fc5565b6005546006546008546000926001600160a01b03169163d83a2bf39133913091611207919061437e565b6040516001600160e01b031960e086901b1681526001600160a01b03938416600482015292909116602483015260448201526064016020604051808303816000875af115801561125b573d6000803e3d6000fd5b505050506040513d601f19601f8201168201806040525081019061127f9190614395565b9050806112ce5760405162461bcd60e51b815260206004820152601560248201527f496e637265617365436f6e7472616374204661696c00000000000000000000006044820152606401610910565b6005546007546006546008546001600160a01b03938416936323b872dd9333939116916112fb919061437e565b6040516001600160e01b031960e086901b1681526001600160a01b03938416600482015292909116602483015260448201526064016020604051808303816000875af115801561134f573d6000803e3d6000fd5b505050506040513d601f19601f820116820180604052508101906113739190614395565b506005546007546006546008546001600160a01b0393841693631d057bd99316916002916113a1919061437e565b6113ab91906143b2565b6040516001600160e01b031960e085901b1681526001600160a01b0390921660048301526024820152604401600060405180830381600087803b1580156113f157600080fd5b505af1158015611405573d6000803e3d6000fd5b50939695505050505050565b611419612859565b600d80546001818101835560008381527fd7b6990105719101dabeb77144f2a3385c8033acd3af97e9423a695e81ad1eb592830155825480820184556064908301558254808201845560c890830155825490810190925561012c910155565b6001600160a01b038316331480611494575061149483336107f4565b6114f85760405162461bcd60e51b815260206004820152602f60248201527f455243313135353a2063616c6c6572206973206e6f7420746f6b656e206f776e60448201526e195c881b9bdc88185c1c1c9bdd9959608a1b6064820152608401610910565b6115038383836130f0565b505050565b611510612859565b61151a6000613345565b565b611524612859565b60005b600581101561156257600c805460018101825560009182526000805160206146ac83398151915201558061155a81614312565b915050611527565b5060005b60098110156115a357600c8054600181810183556000929092526000805160206146ac83398151915201558061159b81614312565b915050611566565b5060005b60088110156115e757600c805460018101825560009190915260026000805160206146ac83398151915290910155806115df81614312565b9150506115a7565b5060005b600781101561162b57600c805460018101825560009190915260036000805160206146ac833981519152909101558061162381614312565b9150506115eb565b5060005b600681101561166f57600c805460018101825560009190915260046000805160206146ac833981519152909101558061166781614312565b91505061162f565b5060005b60058110156116b357600c805460018101825560009190915260056000805160206146ac83398151915290910155806116ab81614312565b915050611673565b5060005b60048110156116f757600c805460018101825560009190915260066000805160206146ac83398151915290910155806116ef81614312565b9150506116b7565b5060005b600381101561173b57600c805460018101825560009190915260076000805160206146ac833981519152909101558061173381614312565b9150506116fb565b5060005b600281101561177f57600c805460018101825560009190915260086000805160206146ac833981519152909101558061177781614312565b91505061173f565b5060005b60018110156117c357600c805460018101825560009190915260096000805160206146ac83398151915290910155806117bb81614312565b915050611783565b5060005b600581101561180757600c805460018101825560009190915260646000805160206146ac83398151915290910155806117ff81614312565b9150506117c7565b5060005b600981101561184b57600c805460018101825560009190915260656000805160206146ac833981519152909101558061184381614312565b91505061180b565b5060005b600881101561188f57600c805460018101825560009190915260666000805160206146ac833981519152909101558061188781614312565b91505061184f565b5060005b60078110156118d357600c805460018101825560009190915260676000805160206146ac83398151915290910155806118cb81614312565b915050611893565b5060005b600681101561191757600c805460018101825560009190915260686000805160206146ac833981519152909101558061190f81614312565b9150506118d7565b5060005b600581101561195b57600c805460018101825560009190915260696000805160206146ac833981519152909101558061195381614312565b91505061191b565b5060005b600481101561199f57600c8054600181018255600091909152606a6000805160206146ac833981519152909101558061199781614312565b91505061195f565b5060005b60038110156119e357600c8054600181018255600091909152606b6000805160206146ac83398151915290910155806119db81614312565b9150506119a3565b5060005b6002811015611a2757600c8054600181018255600091909152606c6000805160206146ac8339815191529091015580611a1f81614312565b9150506119e7565b5060005b6001811015611a6b57600c8054600181018255600091909152606d6000805160206146ac8339815191529091015580611a6381614312565b915050611a2b565b5060005b6005811015611aaf57600c805460018101825560009190915260c86000805160206146ac8339815191529091015580611aa781614312565b915050611a6f565b5060005b6009811015611af357600c805460018101825560009190915260c96000805160206146ac8339815191529091015580611aeb81614312565b915050611ab3565b5060005b6008811015611b3757600c805460018101825560009190915260ca6000805160206146ac8339815191529091015580611b2f81614312565b915050611af7565b5060005b6007811015611b7b57600c805460018101825560009190915260cb6000805160206146ac8339815191529091015580611b7381614312565b915050611b3b565b5060005b6006811015611bbf57600c805460018101825560009190915260cc6000805160206146ac8339815191529091015580611bb781614312565b915050611b7f565b5060005b6005811015611c0357600c805460018101825560009190915260cd6000805160206146ac8339815191529091015580611bfb81614312565b915050611bc3565b5060005b6004811015611c4757600c805460018101825560009190915260ce6000805160206146ac8339815191529091015580611c3f81614312565b915050611c07565b5060005b6003811015611c8b57600c805460018101825560009190915260cf6000805160206146ac8339815191529091015580611c8381614312565b915050611c4b565b5060005b6002811015611ccf57600c805460018101825560009190915260d06000805160206146ac8339815191529091015580611cc781614312565b915050611c8f565b5060005b6001811015611d1357600c805460018101825560009190915260d16000805160206146ac8339815191529091015580611d0b81614312565b915050611cd3565b5060005b6005811015611d5857600c805460018101825560009190915261012c6000805160206146ac8339815191529091015580611d5081614312565b915050611d17565b5060005b6009811015611d9d57600c805460018101825560009190915261012d6000805160206146ac8339815191529091015580611d9581614312565b915050611d5c565b5060005b6008811015611de257600c805460018101825560009190915261012e6000805160206146ac8339815191529091015580611dda81614312565b915050611da1565b5060005b6007811015611e2757600c805460018101825560009190915261012f6000805160206146ac8339815191529091015580611e1f81614312565b915050611de6565b5060005b6006811015611e6c57600c80546001810182556000919091526101306000805160206146ac8339815191529091015580611e6481614312565b915050611e2b565b5060005b6005811015611eb157600c80546001810182556000919091526101316000805160206146ac8339815191529091015580611ea981614312565b915050611e70565b5060005b6004811015611ef657600c80546001810182556000919091526101326000805160206146ac8339815191529091015580611eee81614312565b915050611eb5565b5060005b6003811015611f3b57600c80546001810182556000919091526101336000805160206146ac8339815191529091015580611f3381614312565b915050611efa565b5060005b6002811015611f8057600c80546001810182556000919091526101346000805160206146ac8339815191529091015580611f7881614312565b915050611f3f565b5060005b60018110156109ee57600c80546001810182556000919091526101356000805160206146ac8339815191529091015580611fbd81614312565b915050611f84565b61100c3383836133af565b600e5460609060009067ffffffffffffffff811115611ff157611ff1613bd1565b60405190808252806020026020018201604052801561202457816020015b606081526020019060019003908161200f5790505b5090506000805b600e5481101561215057600061205e86600e848154811061204e5761204e614368565b9060005260206000200154610896565b9050801561213d5760408051600280825260608201835290916020830190803683370190505084848151811061209657612096614368565b6020026020010181905250600e82815481106120b4576120b4614368565b90600052602060002001548484815181106120d1576120d1614368565b60200260200101516000815181106120eb576120eb614368565b6020026020010181815250508084848151811061210a5761210a614368565b602002602001015160018151811061212457612124614368565b60209081029190910101528261213981614312565b9350505b508061214881614312565b91505061202b565b5060008167ffffffffffffffff81111561216c5761216c613bd1565b60405190808252806020026020018201604052801561219f57816020015b606081526020019060019003908161218a5790505b50905060005b828110156122d1576040805160028082526060820183529091602083019080368337019050508282815181106121dd576121dd614368565b60200260200101819052508381815181106121fa576121fa614368565b602002602001015160008151811061221457612214614368565b602002602001015182828151811061222e5761222e614368565b602002602001015160008151811061224857612248614368565b60200260200101818152505083818151811061226657612266614368565b602002602001015160018151811061228057612280614368565b602002602001015182828151811061229a5761229a614368565b60200260200101516001815181106122b4576122b4614368565b6020908102919091010152806122c981614312565b9150506121a5565b50949350505050565b6122e333611fd0565b51156123575760405162461bcd60e51b815260206004820152602660248201527f455243313135353a20796f7520616c726561647920686176652066697273742060448201527f776561706f6e00000000000000000000000000000000000000000000000000006064820152608401610910565b600d546040805142602082015260009291016040516020818303038152906040528051906020012060001c61238c9190614341565b90506000600d8281548110610fcc57610fcc614368565b60006123af60646134a3565b9050600b5481116123fa576123c2610f80565b604051600181527f2fd7ddc66024269a8ffcc6d25e0450ec3d4a65d5f051e9eaebc091acc5c2a159906020015b60405180910390a150565b604051600081527f2fd7ddc66024269a8ffcc6d25e0450ec3d4a65d5f051e9eaebc091acc5c2a159906020016123ef565b612433612859565b600e80546001818101835560008381527fbb7b4a454dc3493923482f07822329ed19e8244eff582cc204f8554c3620c3fd92830155825480820184558201819055825480820184556002908301558254808201845560039083015582548082018455600490830155825480820184556005908301558254808201845560069083015582548082018455600790830155825480820184556008908301558254808201845560099083015582548082018455606490830155825480820184556065908301558254808201845560669083015582548082018455606790830155825480820184556068908301558254808201845560699083015582548082018455606a9083015582548082018455606b9083015582548082018455606c9083015582548082018455606d908301558254808201845560c8908301558254808201845560c9908301558254808201845560ca908301558254808201845560cb908301558254808201845560cc908301558254808201845560cd908301558254808201845560ce908301558254808201845560cf908301558254808201845560d0908301558254808201845560d1908301558254808201845561012c908301558254808201845561012d908301558254808201845561012e908301558254808201845561012f9083015582548082018455610130908301558254808201845561013190830155825480820184556101329083015582548082018455610133908301558254808201845561013490830155825480820184556101359083015582548082018455610190908301558254808201845561019190830155825480820184556101929083015582548082018455610193908301558254908101909255610194910155565b6001600160a01b0385163314806126d057506126d085336107f4565b6127345760405162461bcd60e51b815260206004820152602f60248201527f455243313135353a2063616c6c6572206973206e6f7420746f6b656e206f776e60448201526e195c881b9bdc88185c1c1c9bdd9959608a1b6064820152608401610910565b610ac98585858585613510565b612749612859565b6001600160a01b0381166127c55760405162461bcd60e51b815260206004820152602660248201527f4f776e61626c653a206e6577206f776e657220697320746865207a65726f206160448201527f64647265737300000000000000000000000000000000000000000000000000006064820152608401610910565b6109ee81613345565b6001600160a01b0383163314806127ea57506127ea83336107f4565b61284e5760405162461bcd60e51b815260206004820152602f60248201527f455243313135353a2063616c6c6572206973206e6f7420746f6b656e206f776e60448201526e195c881b9bdc88185c1c1c9bdd9959608a1b6064820152608401610910565b611503838383612f60565b6003546001600160a01b0316331461151a5760405162461bcd60e51b815260206004820181905260248201527f4f776e61626c653a2063616c6c6572206973206e6f7420746865206f776e65726044820152606401610910565b600261100c8282614446565b60608160000361290257505060408051808201909152600181527f3000000000000000000000000000000000000000000000000000000000000000602082015290565b8160005b811561292c578061291681614312565b91506129259050600a836143b2565b9150612906565b60008167ffffffffffffffff81111561294757612947613bd1565b6040519080825280601f01601f191660200182016040528015612971576020820181803683370190505b5090505b84156129f457612986600183614506565b9150612993600a86614341565b61299e906030614355565b60f81b8183815181106129b3576129b3614368565b60200101907effffffffffffffffffffffffffffffffffffffffffffffffffffffffffffff1916908160001a9053506129ed600a866143b2565b9450612975565b949350505050565b6001600160a01b038416612a5c5760405162461bcd60e51b815260206004820152602160248201527f455243313135353a206d696e7420746f20746865207a65726f206164647265736044820152607360f81b6064820152608401610910565b8151835114612abe5760405162461bcd60e51b815260206004820152602860248201527f455243313135353a2069647320616e6420616d6f756e7473206c656e677468206044820152670dad2e6dac2e8c6d60c31b6064820152608401610910565b33612ace816000878787876136c9565b60005b8451811015612b6957838181518110612aec57612aec614368565b6020026020010151600080878481518110612b0957612b09614368565b602002602001015181526020019081526020016000206000886001600160a01b03166001600160a01b031681526020019081526020016000206000828254612b519190614355565b90915550819050612b6181614312565b915050612ad1565b50846001600160a01b031660006001600160a01b0316826001600160a01b03167f4a39dc06d4c0dbc64b70af90fd698a233a518aa5d07e595d983b8c0526c8f7fb8787604051612bba929190614519565b60405180910390a4610ac9816000878787876136d7565b8151835114612c335760405162461bcd60e51b815260206004820152602860248201527f455243313135353a2069647320616e6420616d6f756e7473206c656e677468206044820152670dad2e6dac2e8c6d60c31b6064820152608401610910565b6001600160a01b038416612c975760405162461bcd60e51b815260206004820152602560248201527f455243313135353a207472616e7366657220746f20746865207a65726f206164604482015264647265737360d81b6064820152608401610910565b33612ca68187878787876136c9565b60005b8451811015612dcf576000858281518110612cc657612cc6614368565b602002602001015190506000858381518110612ce457612ce4614368565b602090810291909101810151600084815280835260408082206001600160a01b038e168352909352919091205490915081811015612d775760405162461bcd60e51b815260206004820152602a60248201527f455243313135353a20696e73756666696369656e742062616c616e636520666f60448201526939103a3930b739b332b960b11b6064820152608401610910565b6000838152602081815260408083206001600160a01b038e8116855292528083208585039055908b16825281208054849290612db4908490614355565b9250508190555050505080612dc890614312565b9050612ca9565b50846001600160a01b0316866001600160a01b0316826001600160a01b03167f4a39dc06d4c0dbc64b70af90fd698a233a518aa5d07e595d983b8c0526c8f7fb8787604051612e1f929190614519565b60405180910390a4612e358187878787876136d7565b505050505050565b6001600160a01b038416612e9d5760405162461bcd60e51b815260206004820152602160248201527f455243313135353a206d696e7420746f20746865207a65726f206164647265736044820152607360f81b6064820152608401610910565b336000612ea98561387c565b90506000612eb68561387c565b9050612ec7836000898585896136c9565b6000868152602081815260408083206001600160a01b038b16845290915281208054879290612ef7908490614355565b909155505060408051878152602081018790526001600160a01b03808a1692600092918716917fc3d58168c5ae7397731d063d5bbf3d657854427343f4c083240f7aacaa2d0f62910160405180910390a4612f57836000898989896138c7565b50505050505050565b6001600160a01b038316612fc25760405162461bcd60e51b815260206004820152602360248201527f455243313135353a206275726e2066726f6d20746865207a65726f206164647260448201526265737360e81b6064820152608401610910565b336000612fce8461387c565b90506000612fdb8461387c565b9050612ffb838760008585604051806020016040528060008152506136c9565b6000858152602081815260408083206001600160a01b038a168452909152902054848110156130785760405162461bcd60e51b8152602060048201526024808201527f455243313135353a206275726e20616d6f756e7420657863656564732062616c604482015263616e636560e01b6064820152608401610910565b6000868152602081815260408083206001600160a01b038b81168086529184528285208a8703905582518b81529384018a90529092908816917fc3d58168c5ae7397731d063d5bbf3d657854427343f4c083240f7aacaa2d0f62910160405180910390a4604080516020810190915260009052612f57565b6001600160a01b0383166131525760405162461bcd60e51b815260206004820152602360248201527f455243313135353a206275726e2066726f6d20746865207a65726f206164647260448201526265737360e81b6064820152608401610910565b80518251146131b45760405162461bcd60e51b815260206004820152602860248201527f455243313135353a2069647320616e6420616d6f756e7473206c656e677468206044820152670dad2e6dac2e8c6d60c31b6064820152608401610910565b60003390506131d7818560008686604051806020016040528060008152506136c9565b60005b83518110156132d85760008482815181106131f7576131f7614368565b60200260200101519050600084838151811061321557613215614368565b602090810291909101810151600084815280835260408082206001600160a01b038c1683529093529190912054909150818110156132a15760405162461bcd60e51b8152602060048201526024808201527f455243313135353a206275726e20616d6f756e7420657863656564732062616c604482015263616e636560e01b6064820152608401610910565b6000928352602083815260408085206001600160a01b038b16865290915290922091039055806132d081614312565b9150506131da565b5060006001600160a01b0316846001600160a01b0316826001600160a01b03167f4a39dc06d4c0dbc64b70af90fd698a233a518aa5d07e595d983b8c0526c8f7fb8686604051613329929190614519565b60405180910390a4604080516020810190915260009052610a36565b600380546001600160a01b038381167fffffffffffffffffffffffff0000000000000000000000000000000000000000831681179093556040519116919082907f8be0079c531659141344cd1fd0a4f28419497f9722a3daafe3b4186f6b6457e090600090a35050565b816001600160a01b0316836001600160a01b0316036134365760405162461bcd60e51b815260206004820152602960248201527f455243313135353a2073657474696e6720617070726f76616c2073746174757360448201527f20666f722073656c6600000000000000000000000000000000000000000000006064820152608401610910565b6001600160a01b03838116600081815260016020908152604080832094871680845294825291829020805460ff191686151590811790915591519182527f17307eab39ab6107e8899845ad3d59bd9653f200f220920489ca2b5937696c31910160405180910390a3505050565b600a8054600091826134b483614312565b9091555050600a54604080514260208201526bffffffffffffffffffffffff193360601b1691810191909152605481019190915282906074016040516020818303038152906040528051906020012060001c61093c9190614341565b6001600160a01b0384166135745760405162461bcd60e51b815260206004820152602560248201527f455243313135353a207472616e7366657220746f20746865207a65726f206164604482015264647265737360d81b6064820152608401610910565b3360006135808561387c565b9050600061358d8561387c565b905061359d8389898585896136c9565b6000868152602081815260408083206001600160a01b038c168452909152902054858110156136215760405162461bcd60e51b815260206004820152602a60248201527f455243313135353a20696e73756666696369656e742062616c616e636520666f60448201526939103a3930b739b332b960b11b6064820152608401610910565b6000878152602081815260408083206001600160a01b038d8116855292528083208985039055908a1682528120805488929061365e908490614355565b909155505060408051888152602081018890526001600160a01b03808b16928c821692918816917fc3d58168c5ae7397731d063d5bbf3d657854427343f4c083240f7aacaa2d0f62910160405180910390a46136be848a8a8a8a8a6138c7565b505050505050505050565b612e358686868686866139c3565b6001600160a01b0384163b15612e355760405163bc197c8160e01b81526001600160a01b0385169063bc197c819061371b9089908990889088908890600401614547565b6020604051808303816000875af1925050508015613756575060408051601f3d908101601f19168201909252613753918101906145a5565b60015b61380b576137626145c2565b806308c379a00361379b57506137766145de565b80613781575061379d565b8060405162461bcd60e51b81526004016109109190613d24565b505b60405162461bcd60e51b815260206004820152603460248201527f455243313135353a207472616e7366657220746f206e6f6e204552433131353560448201527f526563656976657220696d706c656d656e7465720000000000000000000000006064820152608401610910565b6001600160e01b0319811663bc197c8160e01b14612f575760405162461bcd60e51b815260206004820152602860248201527f455243313135353a204552433131353552656365697665722072656a656374656044820152676420746f6b656e7360c01b6064820152608401610910565b604080516001808252818301909252606091600091906020808301908036833701905050905082816000815181106138b6576138b6614368565b602090810291909101015292915050565b6001600160a01b0384163b15612e355760405163f23a6e6160e01b81526001600160a01b0385169063f23a6e619061390b9089908990889088908890600401614668565b6020604051808303816000875af1925050508015613946575060408051601f3d908101601f19168201909252613943918101906145a5565b60015b613952576137626145c2565b6001600160e01b0319811663f23a6e6160e01b14612f575760405162461bcd60e51b815260206004820152602860248201527f455243313135353a204552433131353552656365697665722072656a656374656044820152676420746f6b656e7360c01b6064820152608401610910565b6001600160a01b038516613a4a5760005b8351811015613a48578281815181106139ef576139ef614368565b602002602001015160046000868481518110613a0d57613a0d614368565b602002602001015181526020019081526020016000206000828254613a329190614355565b90915550613a41905081614312565b90506139d4565b505b6001600160a01b038416612e355760005b8351811015612f57576000848281518110613a7857613a78614368565b602002602001015190506000848381518110613a9657613a96614368565b6020026020010151905060006004600084815260200190815260200160002054905081811015613b2e5760405162461bcd60e51b815260206004820152602860248201527f455243313135353a206275726e20616d6f756e74206578636565647320746f7460448201527f616c537570706c790000000000000000000000000000000000000000000000006064820152608401610910565b60009283526004602052604090922091039055613b4a81614312565b9050613a5b565b80356001600160a01b0381168114613b6857600080fd5b919050565b60008060408385031215613b8057600080fd5b613b8983613b51565b946020939093013593505050565b6001600160e01b0319811681146109ee57600080fd5b600060208284031215613bbf57600080fd5b8135613bca81613b97565b9392505050565b634e487b7160e01b600052604160045260246000fd5b601f8201601f1916810167ffffffffffffffff81118282101715613c0d57613c0d613bd1565b6040525050565b600067ffffffffffffffff831115613c2e57613c2e613bd1565b604051613c45601f8501601f191660200182613be7565b809150838152848484011115613c5a57600080fd5b83836020830137600060208583010152509392505050565b600060208284031215613c8457600080fd5b813567ffffffffffffffff811115613c9b57600080fd5b8201601f81018413613cac57600080fd5b6129f484823560208401613c14565b600060208284031215613ccd57600080fd5b5035919050565b60005b83811015613cef578181015183820152602001613cd7565b50506000910152565b60008151808452613d10816020860160208601613cd4565b601f01601f19169290920160200192915050565b602081526000613bca6020830184613cf8565b600067ffffffffffffffff821115613d5157613d51613bd1565b5060051b60200190565b600082601f830112613d6c57600080fd5b81356020613d7982613d37565b604051613d868282613be7565b83815260059390931b8501820192828101915086841115613da657600080fd5b8286015b84811015613dc15780358352918301918301613daa565b509695505050505050565b600082601f830112613ddd57600080fd5b613bca83833560208501613c14565b60008060008060808587031215613e0257600080fd5b613e0b85613b51565b9350602085013567ffffffffffffffff80821115613e2857600080fd5b613e3488838901613d5b565b94506040870135915080821115613e4a57600080fd5b613e5688838901613d5b565b93506060870135915080821115613e6c57600080fd5b50613e7987828801613dcc565b91505092959194509250565b600080600080600060a08688031215613e9d57600080fd5b613ea686613b51565b9450613eb460208701613b51565b9350604086013567ffffffffffffffff80821115613ed157600080fd5b613edd89838a01613d5b565b94506060880135915080821115613ef357600080fd5b613eff89838a01613d5b565b93506080880135915080821115613f1557600080fd5b50613f2288828901613dcc565b9150509295509295909350565b60008060408385031215613f4257600080fd5b50508035926020909101359150565b60008060408385031215613f6457600080fd5b823567ffffffffffffffff80821115613f7c57600080fd5b818501915085601f830112613f9057600080fd5b81356020613f9d82613d37565b604051613faa8282613be7565b83815260059390931b8501820192828101915089841115613fca57600080fd5b948201945b83861015613fef57613fe086613b51565b82529482019490820190613fcf565b9650508601359250508082111561400557600080fd5b5061401285828601613d5b565b9150509250929050565b600081518084526020808501945080840160005b8381101561404c57815187529582019590820190600101614030565b509495945050505050565b602081526000613bca602083018461401c565b60008060006060848603121561407f57600080fd5b61408884613b51565b9250602084013567ffffffffffffffff808211156140a557600080fd5b6140b187838801613d5b565b935060408601359150808211156140c757600080fd5b506140d486828701613d5b565b9150509250925092565b80151581146109ee57600080fd5b600080604083850312156140ff57600080fd5b61410883613b51565b91506020830135614118816140de565b809150509250929050565b60006020828403121561413557600080fd5b613bca82613b51565b6000602080830181845280855180835260408601915060408160051b870101925083870160005b8281101561419357603f1988860301845261418185835161401c565b94509285019290850190600101614165565b5092979650505050505050565b600080604083850312156141b357600080fd5b6141bc83613b51565b91506141ca60208401613b51565b90509250929050565b600080600080600060a086880312156141eb57600080fd5b6141f486613b51565b945061420260208701613b51565b93506040860135925060608601359150608086013567ffffffffffffffff81111561422c57600080fd5b613f2288828901613dcc565b60008060006060848603121561424d57600080fd5b61425684613b51565b95602085013595506040909401359392505050565b7f68747470733a2f2f697066732e696f2f697066732f516d5a475270583254416881527f7353437642535a415446505669797a70584d646a4b57636a434b66346a34506660208201527f7377612f000000000000000000000000000000000000000000000000000000006040820152600082516142ef816044850160208701613cd4565b9190910160440192915050565b634e487b7160e01b600052601160045260246000fd5b600060018201614324576143246142fc565b5060010190565b634e487b7160e01b600052601260045260246000fd5b6000826143505761435061432b565b500690565b8082018082111561093c5761093c6142fc565b634e487b7160e01b600052603260045260246000fd5b808202811582820484141761093c5761093c6142fc565b6000602082840312156143a757600080fd5b8151613bca816140de565b6000826143c1576143c161432b565b500490565b600181811c908216806143da57607f821691505b6020821081036143fa57634e487b7160e01b600052602260045260246000fd5b50919050565b601f82111561150357600081815260208120601f850160051c810160208610156144275750805b601f850160051c820191505b81811015612e3557828155600101614433565b815167ffffffffffffffff81111561446057614460613bd1565b6144748161446e84546143c6565b84614400565b602080601f8311600181146144a957600084156144915750858301515b600019600386901b1c1916600185901b178555612e35565b600085815260208120601f198616915b828110156144d8578886015182559484019460019091019084016144b9565b50858210156144f65787850151600019600388901b60f8161c191681555b5050505050600190811b01905550565b8181038181111561093c5761093c6142fc565b60408152600061452c604083018561401c565b828103602084015261453e818561401c565b95945050505050565b60006001600160a01b03808816835280871660208401525060a0604083015261457360a083018661401c565b8281036060840152614585818661401c565b905082810360808401526145998185613cf8565b98975050505050505050565b6000602082840312156145b757600080fd5b8151613bca81613b97565b600060033d11156145db5760046000803e5060005160e01c5b90565b600060443d10156145ec5790565b6040516003193d81016004833e81513d67ffffffffffffffff816024840111818411171561461c57505050505090565b82850191508151818111156146345750505050505090565b843d870101602082850101111561464e5750505050505090565b61465d60208286010187613be7565b509095945050505050565b60006001600160a01b03808816835280871660208401525084604083015283606083015260a060808301526146a060a0830184613cf8565b97965050505050505056fedf6966c971051c3d54ec59162606531493a51404a002842f56009d7e5cf4a8c7a26469706673582212206b81455f6fa6063243b0c5bad622ed5527371096cbfaff15a9e10a33dbda8ec164736f6c63430008110033697066733a2f2f516d5a47527058325441687353437642535a415446505669797a70584d646a4b57636a434b66346a3450667377612f7b69647d",
  "immutableReferences": {},
  "source": "// SPDX-License-Identifier: MIT\npragma solidity ^0.8.4;\n\nimport \"@openzeppelin/contracts/token/ERC1155/ERC1155.sol\";\nimport \"@openzeppelin/contracts/access/Ownable.sol\";\nimport \"@openzeppelin/contracts/token/ERC1155/extensions/ERC1155Burnable.sol\";\nimport \"@openzeppelin/contracts/token/ERC1155/extensions/ERC1155Supply.sol\";\nimport \"@openzeppelin/contracts/utils/Strings.sol\";\nimport \"./JMToken.sol\";\n\ncontract MapleItems is ERC1155, Ownable, ERC1155Burnable, ERC1155Supply {\n    JMToken private token;\n    uint256 decimals = 10**18;\n    address payable public treasuryWallet; //  !\n    uint256 private mintPrice;\n    uint256 private maxStrength;\n    uint randNum = 0;\n    uint rewardProbability = 70;\n\n    uint256[] private waitForMint;\n    uint256[] private firstMint;\n    uint256[] private itemCheck;\n    uint256[] private scrollMint;\n    address private marketContractAddress;\n\n    uint256 public constant SWORD0 = 0;\n    uint256 public constant SWORD1 = 1;\n    uint256 public constant SWORD2 = 2;\n    uint256 public constant SWORD3 = 3;\n    uint256 public constant SWORD4 = 4;\n    uint256 public constant SWORD5 = 5;\n    uint256 public constant SWORD6 = 6;\n    uint256 public constant SWORD7 = 7;\n    uint256 public constant SWORD8 = 8;\n    uint256 public constant SWORD9 = 9;\n\n    uint256 public constant BOW0 = 100;\n    uint256 public constant BOW1 = 101;\n    uint256 public constant BOW2 = 102;\n    uint256 public constant BOW3 = 103;\n    uint256 public constant BOW4 = 104;\n    uint256 public constant BOW5 = 105;\n    uint256 public constant BOW6 = 106;\n    uint256 public constant BOW7 = 107;\n    uint256 public constant BOW8 = 108;\n    uint256 public constant BOW9 = 109;\n\n    uint256 public constant STAFF0 = 200;\n    uint256 public constant STAFF1 = 201;\n    uint256 public constant STAFF2 = 202;\n    uint256 public constant STAFF3 = 203;\n    uint256 public constant STAFF4 = 204;\n    uint256 public constant STAFF5 = 205;\n    uint256 public constant STAFF6 = 206;\n    uint256 public constant STAFF7 = 207;\n    uint256 public constant STAFF8 = 208;\n    uint256 public constant STAFF9 = 209;\n\n    uint256 public constant POLEARM0 = 300;\n    uint256 public constant POLEARM1 = 301;\n    uint256 public constant POLEARM2 = 302;\n    uint256 public constant POLEARM3 = 303;\n    uint256 public constant POLEARM4 = 304;\n    uint256 public constant POLEARM5 = 305;\n    uint256 public constant POLEARM6 = 306;\n    uint256 public constant POLEARM7 = 307;\n    uint256 public constant POLEARM8 = 308;\n    uint256 public constant POLEARM9 = 309;\n\n    uint256 public constant SCROLL100 = 400;\n    uint256 public constant SCROLL90 = 401;\n    uint256 public constant SCROLL60 = 402;\n    uint256 public constant SCROLL30 = 403;\n    uint256 public constant SCROLL10 = 404;\n    \n    event Upgraded(bool result, uint256 weaponId);\n    event Rewarded(bool result);\n\n    constructor(\n        address _marketAddress,\n        address _tokenContractAddress,\n        address payable _treasuryWallet) \n        ERC1155(\"ipfs://QmZGRpX2TAhsSCvBSZATFPViyzpXMdjKWcjCKf4j4Pfswa/{id}\") {\n        mintPrice = 1;\n        maxStrength = 2;\n        marketContractAddress = _marketAddress;\n        _setToken(_tokenContractAddress);        \n        treasuryWallet = _treasuryWallet;\n    }\n\n    function uri(uint256 _tokenid) override public pure returns (string memory) {\n        return string(\n            abi.encodePacked(\n                \"https://ipfs.io/ipfs/QmZGRpX2TAhsSCvBSZATFPViyzpXMdjKWcjCKf4j4Pfswa/\",\n                Strings.toString(_tokenid)\n            )\n        );\n    }\n\n    function setURI(string memory newuri) public onlyOwner {\n        _setURI(newuri);\n    }\n\n    function generateWeaponArray() public onlyOwner{\n        for (uint256 i = 0; i < 5; i++ ){\n            waitForMint.push(SWORD0); \n        }\n        for (uint256 i = 0; i < 9; i++ ){\n            waitForMint.push(SWORD1);\n        }\n        for (uint256 i = 0; i < 8; i++ ){\n            waitForMint.push(SWORD2); \n        }\n        for (uint256 i = 0; i < 7; i++ ){\n            waitForMint.push(SWORD3); \n        }\n        for (uint256 i = 0; i < 6; i++ ){\n            waitForMint.push(SWORD4);\n        }\n        for (uint256 i = 0; i < 5; i++ ){\n            waitForMint.push(SWORD5); \n        }\n        for (uint256 i = 0; i < 4; i++ ){\n            waitForMint.push(SWORD6); \n        }\n        for (uint256 i = 0; i < 3; i++ ){\n            waitForMint.push(SWORD7);\n        }\n        for (uint256 i = 0; i < 2; i++ ){\n            waitForMint.push(SWORD8); \n        }\n        for (uint256 i = 0; i < 1; i++ ){\n            waitForMint.push(SWORD9); \n        }\n\n        for (uint256 i = 0; i < 5; i++ ){\n            waitForMint.push(BOW0); \n        }\n        for (uint256 i = 0; i < 9; i++ ){\n            waitForMint.push(BOW1);\n        }\n        for (uint256 i = 0; i < 8; i++ ){\n            waitForMint.push(BOW2); \n        }\n        for (uint256 i = 0; i < 7; i++ ){\n            waitForMint.push(BOW3); \n        }\n        for (uint256 i = 0; i < 6; i++ ){\n            waitForMint.push(BOW4);\n        }\n        for (uint256 i = 0; i < 5; i++ ){\n            waitForMint.push(BOW5); \n        }\n        for (uint256 i = 0; i < 4; i++ ){\n            waitForMint.push(BOW6); \n        }\n        for (uint256 i = 0; i < 3; i++ ){\n            waitForMint.push(BOW7);\n        }\n        for (uint256 i = 0; i < 2; i++ ){\n            waitForMint.push(BOW8); \n        }\n        for (uint256 i = 0; i < 1; i++ ){\n            waitForMint.push(BOW9); \n        }\n\n        for (uint256 i = 0; i < 5; i++ ){\n            waitForMint.push(STAFF0); \n        }\n        for (uint256 i = 0; i < 9; i++ ){\n            waitForMint.push(STAFF1);\n        }\n        for (uint256 i = 0; i < 8; i++ ){\n            waitForMint.push(STAFF2); \n        }\n        for (uint256 i = 0; i < 7; i++ ){\n            waitForMint.push(STAFF3); \n        }\n        for (uint256 i = 0; i < 6; i++ ){\n            waitForMint.push(STAFF4);\n        }\n        for (uint256 i = 0; i < 5; i++ ){\n            waitForMint.push(STAFF5); \n        }\n        for (uint256 i = 0; i < 4; i++ ){\n            waitForMint.push(STAFF6); \n        }\n        for (uint256 i = 0; i < 3; i++ ){\n            waitForMint.push(STAFF7);\n        }\n        for (uint256 i = 0; i < 2; i++ ){\n            waitForMint.push(STAFF8); \n        }\n        for (uint256 i = 0; i < 1; i++ ){\n            waitForMint.push(STAFF9); \n        }\n\n        for (uint256 i = 0; i < 5; i++ ){\n            waitForMint.push(POLEARM0); \n        }\n        for (uint256 i = 0; i < 9; i++ ){\n            waitForMint.push(POLEARM1);\n        }\n        for (uint256 i = 0; i < 8; i++ ){\n            waitForMint.push(POLEARM2); \n        }\n        for (uint256 i = 0; i < 7; i++ ){\n            waitForMint.push(POLEARM3); \n        }\n        for (uint256 i = 0; i < 6; i++ ){\n            waitForMint.push(POLEARM4);\n        }\n        for (uint256 i = 0; i < 5; i++ ){\n            waitForMint.push(POLEARM5); \n        }\n        for (uint256 i = 0; i < 4; i++ ){\n            waitForMint.push(POLEARM6); \n        }\n        for (uint256 i = 0; i < 3; i++ ){\n            waitForMint.push(POLEARM7);\n        }\n        for (uint256 i = 0; i < 2; i++ ){\n            waitForMint.push(POLEARM8); \n        }\n        for (uint256 i = 0; i < 1; i++ ){\n            waitForMint.push(POLEARM9); \n        }\n    }\n\n    function generatefirstWeapon() public onlyOwner{\n        firstMint.push(SWORD0); \n        firstMint.push(BOW0); \n        firstMint.push(STAFF0); \n        firstMint.push(POLEARM0); \n    }\n\n    function generateItemCheck() public onlyOwner{\n        itemCheck.push(SWORD0);\n        itemCheck.push(SWORD1);\n        itemCheck.push(SWORD2);\n        itemCheck.push(SWORD3);\n        itemCheck.push(SWORD4);\n        itemCheck.push(SWORD5);\n        itemCheck.push(SWORD6);\n        itemCheck.push(SWORD7);\n        itemCheck.push(SWORD8);\n        itemCheck.push(SWORD9);\n\n        itemCheck.push(BOW0);\n        itemCheck.push(BOW1);\n        itemCheck.push(BOW2);\n        itemCheck.push(BOW3);\n        itemCheck.push(BOW4);\n        itemCheck.push(BOW5);\n        itemCheck.push(BOW6);\n        itemCheck.push(BOW7);\n        itemCheck.push(BOW8);\n        itemCheck.push(BOW9);\n\n        itemCheck.push(STAFF0);\n        itemCheck.push(STAFF1);\n        itemCheck.push(STAFF2);\n        itemCheck.push(STAFF3);\n        itemCheck.push(STAFF4);\n        itemCheck.push(STAFF5);\n        itemCheck.push(STAFF6);\n        itemCheck.push(STAFF7);\n        itemCheck.push(STAFF8);\n        itemCheck.push(STAFF9);\n\n        itemCheck.push(POLEARM0);\n        itemCheck.push(POLEARM1);\n        itemCheck.push(POLEARM2);\n        itemCheck.push(POLEARM3);\n        itemCheck.push(POLEARM4);\n        itemCheck.push(POLEARM5);\n        itemCheck.push(POLEARM6);\n        itemCheck.push(POLEARM7);\n        itemCheck.push(POLEARM8);\n        itemCheck.push(POLEARM9);\n\n        itemCheck.push(SCROLL100);\n        itemCheck.push(SCROLL90);\n        itemCheck.push(SCROLL60);\n        itemCheck.push(SCROLL30);\n        itemCheck.push(SCROLL10);\n    }\n\n    function generateScrollArray() public onlyOwner{\n        for (uint256 i = 0; i < 1; i++ ){\n            scrollMint.push(SCROLL100); \n        }\n        for (uint256 i = 0; i < 2; i++ ){\n            scrollMint.push(SCROLL90);\n        }\n        for (uint256 i = 0; i < 4; i++ ){\n            scrollMint.push(SCROLL60); \n        }\n        for (uint256 i = 0; i < 6; i++ ){\n            scrollMint.push(SCROLL30); \n        }\n        for (uint256 i = 0; i < 7; i++ ){\n            scrollMint.push(SCROLL10); \n        }\n    }\n\n    function mintFirstWeapon() public {\n        require(balanceCheck(msg.sender).length==0, \"ERC1155: you already have first weapon\");\n\n        uint256 n = uint256(keccak256(abi.encodePacked(block.timestamp))) % (firstMint.length);\n        uint id = firstMint[n];\n        \n        _mint(msg.sender, id, 1, \"\");\n        setApprovalForAll(marketContractAddress, true);\n    }\n\n    function mintRandomWeapon() public returns (uint256){  \n        uint256 n = uint256(keccak256(abi.encodePacked(block.timestamp))) % (waitForMint.length);\n        uint256 id = waitForMint[n];\n        \n        _mint(msg.sender, id, 1, \"\");\n        setApprovalForAll(marketContractAddress, true);\n        \n        //   \n        bool success = token.increaseContractAllowance(\n            msg.sender, \n            address(this),\n            mintPrice * decimals\n        );\n        require(success,\"IncreaseContract Fail\");\n        token.transferFrom(msg.sender, treasuryWallet, mintPrice * decimals); \n        token.marketBurn(treasuryWallet, (mintPrice * decimals)/2);\n\n        return id;\n    }\n\n    function mintScroll() public {\n        uint256 n = uint256(keccak256(abi.encodePacked(block.timestamp))) % (scrollMint.length);\n        uint id = scrollMint[n];\n        \n        _mint(msg.sender, id, 1, \"\");\n        setApprovalForAll(marketContractAddress, true);\n    }\n\n    function upgrade(uint256 scrollId, uint256 weaponId) public {\n        require(balanceOf(msg.sender, scrollId)!=0, \"ERC1155: this scroll is not yours\");\n        require(balanceOf(msg.sender, weaponId)!=0, \"ERC1155: this weapon is not yours\");\n        require(weaponId%100<9, \"ERC1155: this weapon is fully upgraded\");\n        uint256 scrollRate;\n\n        if(scrollId%100==0){\n            scrollRate = 100;\n        }else if(scrollId%100==1){\n            scrollRate = 90;\n        }else if(scrollId%100==2){\n            scrollRate = 60;\n        }else if(scrollId%100==3){\n            scrollRate = 30;\n        }else if(scrollId%100==4){\n            scrollRate = 10;\n        }\n\n        uint256 n = uint256(keccak256(abi.encodePacked(block.timestamp))) % 100;\n        if(n<=scrollRate){\n            _mint(msg.sender, weaponId+1, 1, \"\");\n            _burn(msg.sender, weaponId, 1);\n            _burn(msg.sender, scrollId, 1);\n            setApprovalForAll(marketContractAddress, true);\n            emit Upgraded(true, weaponId+1);\n        } else{\n            _burn(msg.sender, scrollId, 1);\n            emit Upgraded(false, weaponId);\n        }        \n    }\n\n    function mintBatch(address to, uint256[] memory ids, uint256[] memory amounts, bytes memory data)\n        public\n        onlyOwner\n    {\n        _mintBatch(to, ids, amounts, data);\n    }\n\n    function balanceCheck(address sender) public returns(uint256[][] memory){\n        uint256[][] memory balance = new uint256[][](itemCheck.length);\n        uint256 count = 0;\n\n        for(uint256 i=0; i<itemCheck.length; i++){\n            uint256 mybalance = balanceOf(sender, itemCheck[i]); \n            if(mybalance!=0){\n                balance[count] = new uint256[](2);\n                balance[count][0] = itemCheck[i];\n                balance[count][1] = mybalance;\n                count++;\n            }            \n        }\n\n        uint256[][] memory result = new uint256[][](count);\n        for(uint256 i=0; i<count; i++){\n            result[i] = new uint256[](2);\n            result[i][0] = balance[i][0];\n            result[i][1] = balance[i][1];\n        }\n\n        return result;\n    }\n    \n    function _setToken(address _tokenAddress) private onlyOwner returns (bool) {\n        require(_tokenAddress != address(0x0));\n        token = JMToken(_tokenAddress);\n        return true;\n    }\n    // The following functions are overrides required by Solidity.\n\n    function _beforeTokenTransfer(address operator, address from, address to, uint256[] memory ids, uint256[] memory amounts, bytes memory data)\n        internal\n        override(ERC1155, ERC1155Supply)\n    {\n        super._beforeTokenTransfer(operator, from, to, ids, amounts, data);\n    }\n\n    //   ( )\n    function randMod(uint _modulus) internal returns(uint) { // \n        randNum++;\n        return uint(keccak256(abi.encodePacked(block.timestamp, msg.sender, randNum))) % _modulus;\n    }\n\n    function randRewardScroll() external {\n        uint rand = randMod(100);\n        if ( rand <= rewardProbability ) {// 70%    \n            mintScroll();\n            emit Rewarded(true);\n        } else {\n            emit Rewarded(false);\n        }\n    }\n}",
  "sourcePath": "/Users/rokrokss/workspace/hyein/BEB-05-JMT/contract/contracts/MapleItems.sol",
  "compiler": {
    "name": "solc",
    "version": "0.8.17+commit.8df45f5f.Emscripten.clang"
  },
  "schemaVersion": "3.4.10",
  "updatedAt": "2022-09-27T23:32:54.019Z",
  "devdoc": {
    "kind": "dev",
    "methods": {
      "balanceOf(address,uint256)": {
        "details": "See {IERC1155-balanceOf}. Requirements: - `account` cannot be the zero address."
      },
      "balanceOfBatch(address[],uint256[])": {
        "details": "See {IERC1155-balanceOfBatch}. Requirements: - `accounts` and `ids` must have the same length."
      },
      "exists(uint256)": {
        "details": "Indicates whether any token exist with a given id, or not."
      },
      "isApprovedForAll(address,address)": {
        "details": "See {IERC1155-isApprovedForAll}."
      },
      "owner()": {
        "details": "Returns the address of the current owner."
      },
      "renounceOwnership()": {
        "details": "Leaves the contract without owner. It will not be possible to call `onlyOwner` functions anymore. Can only be called by the current owner. NOTE: Renouncing ownership will leave the contract without an owner, thereby removing any functionality that is only available to the owner."
      },
      "safeBatchTransferFrom(address,address,uint256[],uint256[],bytes)": {
        "details": "See {IERC1155-safeBatchTransferFrom}."
      },
      "safeTransferFrom(address,address,uint256,uint256,bytes)": {
        "details": "See {IERC1155-safeTransferFrom}."
      },
      "setApprovalForAll(address,bool)": {
        "details": "See {IERC1155-setApprovalForAll}."
      },
      "supportsInterface(bytes4)": {
        "details": "See {IERC165-supportsInterface}."
      },
      "totalSupply(uint256)": {
        "details": "Total amount of tokens in with a given id."
      },
      "transferOwnership(address)": {
        "details": "Transfers ownership of the contract to a new account (`newOwner`). Can only be called by the current owner."
      }
    },
    "version": 1
  },
  "userdoc": {
    "kind": "user",
    "methods": {},
    "version": 1
  }
}