{
  "contractName": "MapleRouter",
  "abi": [
    {
      "inputs": [
        {
          "internalType": "address",
          "name": "_mapleNFTAddress",
          "type": "address"
        },
        {
          "internalType": "address",
          "name": "_mapleItemsAddress",
          "type": "address"
        },
        {
          "internalType": "address",
          "name": "_mapleMarketAddress",
          "type": "address"
        },
        {
          "internalType": "address",
          "name": "_mapleFightAddress",
          "type": "address"
        },
        {
          "internalType": "address",
          "name": "_jmtContractAddress",
          "type": "address"
        },
        {
          "internalType": "address",
          "name": "_vjmtContractAddress",
          "type": "address"
        },
        {
          "internalType": "address",
          "name": "_stakingContractAddress",
          "type": "address"
        },
        {
          "internalType": "address",
          "name": "_lpContractAddress",
          "type": "address"
        },
        {
          "internalType": "address",
          "name": "_lptContractAddress",
          "type": "address"
        },
        {
          "internalType": "address",
          "name": "_jmtRouterContractAddress",
          "type": "address"
        }
      ],
      "stateMutability": "nonpayable",
      "type": "constructor"
    },
    {
      "anonymous": false,
      "inputs": [
        {
          "indexed": true,
          "internalType": "address",
          "name": "previousOwner",
          "type": "address"
        },
        {
          "indexed": true,
          "internalType": "address",
          "name": "newOwner",
          "type": "address"
        }
      ],
      "name": "OwnershipTransferred",
      "type": "event"
    },
    {
      "inputs": [],
      "name": "owner",
      "outputs": [
        {
          "internalType": "address",
          "name": "",
          "type": "address"
        }
      ],
      "stateMutability": "view",
      "type": "function",
      "constant": true
    },
    {
      "inputs": [],
      "name": "renounceOwnership",
      "outputs": [],
      "stateMutability": "nonpayable",
      "type": "function"
    },
    {
      "inputs": [
        {
          "internalType": "address",
          "name": "newOwner",
          "type": "address"
        }
      ],
      "name": "transferOwnership",
      "outputs": [],
      "stateMutability": "nonpayable",
      "type": "function"
    },
    {
      "inputs": [
        {
          "internalType": "address",
          "name": "_mapleNFTAddress",
          "type": "address"
        },
        {
          "internalType": "address",
          "name": "_mapleItemsAddress",
          "type": "address"
        },
        {
          "internalType": "address",
          "name": "_mapleMarketAddress",
          "type": "address"
        },
        {
          "internalType": "address",
          "name": "_mapleFightAddress",
          "type": "address"
        },
        {
          "internalType": "address",
          "name": "_jmtContractAddress",
          "type": "address"
        },
        {
          "internalType": "address",
          "name": "_vjmtContractAddress",
          "type": "address"
        },
        {
          "internalType": "address",
          "name": "_stakingContractAddress",
          "type": "address"
        },
        {
          "internalType": "address",
          "name": "_lpContractAddress",
          "type": "address"
        },
        {
          "internalType": "address",
          "name": "_lptContractAddress",
          "type": "address"
        },
        {
          "internalType": "address",
          "name": "_jmtRouterContractAddress",
          "type": "address"
        }
      ],
      "name": "setContractAddress",
      "outputs": [],
      "stateMutability": "nonpayable",
      "type": "function"
    },
    {
      "inputs": [
        {
          "internalType": "address",
          "name": "owner",
          "type": "address"
        }
      ],
      "name": "balanaceOfCharacter",
      "outputs": [
        {
          "internalType": "uint256",
          "name": "",
          "type": "uint256"
        }
      ],
      "stateMutability": "view",
      "type": "function",
      "constant": true
    },
    {
      "inputs": [
        {
          "internalType": "uint256",
          "name": "tokenId",
          "type": "uint256"
        }
      ],
      "name": "tokenURICharacter",
      "outputs": [
        {
          "internalType": "string",
          "name": "",
          "type": "string"
        }
      ],
      "stateMutability": "view",
      "type": "function",
      "constant": true
    },
    {
      "inputs": [
        {
          "internalType": "address",
          "name": "owner",
          "type": "address"
        },
        {
          "internalType": "uint256",
          "name": "index",
          "type": "uint256"
        }
      ],
      "name": "tokenOfOwnerByIndexCharacter",
      "outputs": [
        {
          "internalType": "uint256",
          "name": "",
          "type": "uint256"
        }
      ],
      "stateMutability": "view",
      "type": "function",
      "constant": true
    },
    {
      "inputs": [
        {
          "internalType": "uint256",
          "name": "tokenId",
          "type": "uint256"
        }
      ],
      "name": "ownerOfCharacter",
      "outputs": [
        {
          "internalType": "address",
          "name": "",
          "type": "address"
        }
      ],
      "stateMutability": "view",
      "type": "function",
      "constant": true
    },
    {
      "inputs": [],
      "name": "mintCharacter",
      "outputs": [
        {
          "internalType": "uint256",
          "name": "",
          "type": "uint256"
        }
      ],
      "stateMutability": "nonpayable",
      "type": "function"
    },
    {
      "inputs": [
        {
          "internalType": "address",
          "name": "owner",
          "type": "address"
        }
      ],
      "name": "checkBalance",
      "outputs": [
        {
          "internalType": "uint256[][]",
          "name": "",
          "type": "uint256[][]"
        }
      ],
      "stateMutability": "nonpayable",
      "type": "function"
    },
    {
      "inputs": [
        {
          "internalType": "uint256",
          "name": "tokenId",
          "type": "uint256"
        }
      ],
      "name": "tokenURIItem",
      "outputs": [
        {
          "internalType": "string",
          "name": "",
          "type": "string"
        }
      ],
      "stateMutability": "view",
      "type": "function",
      "constant": true
    },
    {
      "inputs": [
        {
          "internalType": "address",
          "name": "owner",
          "type": "address"
        },
        {
          "internalType": "uint256",
          "name": "tokenId",
          "type": "uint256"
        }
      ],
      "name": "balanaceOfItem",
      "outputs": [
        {
          "internalType": "uint256",
          "name": "",
          "type": "uint256"
        }
      ],
      "stateMutability": "view",
      "type": "function",
      "constant": true
    },
    {
      "inputs": [],
      "name": "mintFirstWeapon",
      "outputs": [],
      "stateMutability": "nonpayable",
      "type": "function"
    },
    {
      "inputs": [],
      "name": "mintRandomWeapon",
      "outputs": [
        {
          "internalType": "uint256",
          "name": "",
          "type": "uint256"
        }
      ],
      "stateMutability": "nonpayable",
      "type": "function"
    },
    {
      "inputs": [],
      "name": "mintScroll",
      "outputs": [],
      "stateMutability": "nonpayable",
      "type": "function"
    },
    {
      "inputs": [],
      "name": "randRewardScroll",
      "outputs": [],
      "stateMutability": "nonpayable",
      "type": "function"
    },
    {
      "inputs": [
        {
          "internalType": "uint256",
          "name": "scrollId",
          "type": "uint256"
        },
        {
          "internalType": "uint256",
          "name": "weaponId",
          "type": "uint256"
        }
      ],
      "name": "upgrade",
      "outputs": [],
      "stateMutability": "nonpayable",
      "type": "function"
    },
    {
      "inputs": [],
      "name": "fetchCharacterOnSale",
      "outputs": [
        {
          "components": [
            {
              "internalType": "uint256",
              "name": "itemId",
              "type": "uint256"
            },
            {
              "components": [
                {
                  "internalType": "address",
                  "name": "contractAddr",
                  "type": "address"
                },
                {
                  "internalType": "uint256",
                  "name": "tokenId",
                  "type": "uint256"
                }
              ],
              "internalType": "struct MapleMarket.Token",
              "name": "token",
              "type": "tuple"
            },
            {
              "internalType": "address payable",
              "name": "seller",
              "type": "address"
            },
            {
              "internalType": "uint256",
              "name": "price",
              "type": "uint256"
            },
            {
              "internalType": "enum MapleMarket.ItemStatus",
              "name": "itemStatus",
              "type": "uint8"
            }
          ],
          "internalType": "struct MapleMarket.MarketItem[]",
          "name": "",
          "type": "tuple[]"
        }
      ],
      "stateMutability": "view",
      "type": "function",
      "constant": true
    },
    {
      "inputs": [],
      "name": "fetchWeaponOnSale",
      "outputs": [
        {
          "components": [
            {
              "internalType": "uint256",
              "name": "itemId",
              "type": "uint256"
            },
            {
              "components": [
                {
                  "internalType": "address",
                  "name": "contractAddr",
                  "type": "address"
                },
                {
                  "internalType": "uint256",
                  "name": "tokenId",
                  "type": "uint256"
                }
              ],
              "internalType": "struct MapleMarket.Token",
              "name": "token",
              "type": "tuple"
            },
            {
              "internalType": "address payable",
              "name": "seller",
              "type": "address"
            },
            {
              "internalType": "uint256",
              "name": "price",
              "type": "uint256"
            },
            {
              "internalType": "enum MapleMarket.ItemStatus",
              "name": "itemStatus",
              "type": "uint8"
            }
          ],
          "internalType": "struct MapleMarket.MarketItem[]",
          "name": "",
          "type": "tuple[]"
        }
      ],
      "stateMutability": "view",
      "type": "function",
      "constant": true
    },
    {
      "inputs": [
        {
          "internalType": "address",
          "name": "addr",
          "type": "address"
        },
        {
          "internalType": "uint256",
          "name": "userStrength",
          "type": "uint256"
        },
        {
          "internalType": "uint256",
          "name": "matchingStrength",
          "type": "uint256"
        }
      ],
      "name": "setFight",
      "outputs": [],
      "stateMutability": "nonpayable",
      "type": "function"
    },
    {
      "inputs": [],
      "name": "getFight",
      "outputs": [
        {
          "internalType": "string",
          "name": "",
          "type": "string"
        }
      ],
      "stateMutability": "view",
      "type": "function",
      "constant": true
    },
    {
      "inputs": [
        {
          "internalType": "address",
          "name": "account",
          "type": "address"
        }
      ],
      "name": "balanceOfVJMT",
      "outputs": [
        {
          "internalType": "uint256",
          "name": "",
          "type": "uint256"
        }
      ],
      "stateMutability": "view",
      "type": "function",
      "constant": true
    },
    {
      "inputs": [
        {
          "internalType": "uint256",
          "name": "stakeAmount",
          "type": "uint256"
        }
      ],
      "name": "stakeToken",
      "outputs": [
        {
          "internalType": "bool",
          "name": "",
          "type": "bool"
        }
      ],
      "stateMutability": "nonpayable",
      "type": "function"
    },
    {
      "inputs": [],
      "name": "unStakingToken",
      "outputs": [],
      "stateMutability": "nonpayable",
      "type": "function"
    },
    {
      "inputs": [],
      "name": "unStakingClaime",
      "outputs": [
        {
          "internalType": "bool",
          "name": "",
          "type": "bool"
        },
        {
          "internalType": "uint256",
          "name": "",
          "type": "uint256"
        }
      ],
      "stateMutability": "nonpayable",
      "type": "function"
    },
    {
      "inputs": [],
      "name": "stakeInfos",
      "outputs": [],
      "stateMutability": "nonpayable",
      "type": "function"
    },
    {
      "inputs": [],
      "name": "claimReward",
      "outputs": [
        {
          "internalType": "bool",
          "name": "",
          "type": "bool"
        }
      ],
      "stateMutability": "nonpayable",
      "type": "function"
    },
    {
      "inputs": [],
      "name": "claimableReward",
      "outputs": [
        {
          "internalType": "uint256",
          "name": "",
          "type": "uint256"
        }
      ],
      "stateMutability": "view",
      "type": "function",
      "constant": true
    },
    {
      "inputs": [
        {
          "internalType": "address",
          "name": "account",
          "type": "address"
        }
      ],
      "name": "balanceOfJMT",
      "outputs": [
        {
          "internalType": "uint256",
          "name": "",
          "type": "uint256"
        }
      ],
      "stateMutability": "view",
      "type": "function",
      "constant": true
    },
    {
      "inputs": [
        {
          "internalType": "address",
          "name": "to",
          "type": "address"
        },
        {
          "internalType": "uint256",
          "name": "amount",
          "type": "uint256"
        }
      ],
      "name": "transferJMT",
      "outputs": [
        {
          "internalType": "bool",
          "name": "",
          "type": "bool"
        }
      ],
      "stateMutability": "nonpayable",
      "type": "function"
    },
    {
      "inputs": [],
      "name": "getReserves",
      "outputs": [
        {
          "internalType": "uint256",
          "name": "",
          "type": "uint256"
        },
        {
          "internalType": "uint256",
          "name": "",
          "type": "uint256"
        }
      ],
      "stateMutability": "view",
      "type": "function",
      "constant": true
    },
    {
      "inputs": [
        {
          "internalType": "uint256",
          "name": "jmtAmount",
          "type": "uint256"
        }
      ],
      "name": "swapTokens",
      "outputs": [],
      "stateMutability": "payable",
      "type": "function",
      "payable": true
    },
    {
      "inputs": [
        {
          "internalType": "address",
          "name": "account",
          "type": "address"
        }
      ],
      "name": "balanceOfLPToken",
      "outputs": [
        {
          "internalType": "uint256",
          "name": "",
          "type": "uint256"
        }
      ],
      "stateMutability": "view",
      "type": "function",
      "constant": true
    },
    {
      "inputs": [
        {
          "internalType": "uint256",
          "name": "jmtAmount",
          "type": "uint256"
        }
      ],
      "name": "addLiquidity",
      "outputs": [],
      "stateMutability": "payable",
      "type": "function",
      "payable": true
    },
    {
      "inputs": [],
      "name": "pullLiquidity",
      "outputs": [],
      "stateMutability": "nonpayable",
      "type": "function"
    }
  ],
  "bytecode": "0x60806040523480156200001157600080fd5b5060405162002038380380620020388339810160408190526200003491620001e8565b6200003f3362000063565b620000538a8a8a8a8a8a8a8a8a8a620000b3565b50505050505050505050620002b7565b600080546001600160a01b038381166001600160a01b0319831681178455604051919092169283917f8be0079c531659141344cd1fd0a4f28419497f9722a3daafe3b4186f6b6457e09190a35050565b620000bd6200016a565b600180546001600160a01b03199081166001600160a01b039c8d16179091556002805482169a8c169a909a17909955600380548a16988b1698909817909755600480548916968a16969096179095556005805488169489169490941790935560068054871692881692909217909155600780548616918716919091179055600880548516918616919091179055600980548416918516919091179055600a80549092169216919091179055565b6000546001600160a01b03163314620001c95760405162461bcd60e51b815260206004820181905260248201527f4f776e61626c653a2063616c6c6572206973206e6f7420746865206f776e6572604482015260640160405180910390fd5b565b80516001600160a01b0381168114620001e357600080fd5b919050565b6000806000806000806000806000806101408b8d0312156200020957600080fd5b620002148b620001cb565b99506200022460208c01620001cb565b98506200023460408c01620001cb565b97506200024460608c01620001cb565b96506200025460808c01620001cb565b95506200026460a08c01620001cb565b94506200027460c08c01620001cb565b93506200028460e08c01620001cb565b9250620002956101008c01620001cb565b9150620002a66101208c01620001cb565b90509295989b9194979a5092959850565b611d7180620002c76000396000f3fe6080604052600436106102045760003560e01c80638d75f7b511610118578063cda6b847116100a0578063f2fde38b1161006f578063f2fde38b146105bb578063f867ad49146105db578063f8e35be7146105f0578063faf039f414610605578063fe784eaa1461061a57600080fd5b8063cda6b84714610546578063d93febee14610566578063dbcb905a14610586578063e7181edc146105a657600080fd5b8063abb426b6116100e7578063abb426b6146104d2578063b6a8412b146104e7578063b6c7caad146104fc578063b88a802f14610511578063c4001e651461052657600080fd5b80638d75f7b51461045d5780638da5cb5b1461047d578063975486191461049b578063980d5601146104b057600080fd5b806351c6590a1161019b57806372f84cf71161016a57806372f84cf71461038c5780637b9ba7fd146103ac57806383e33393146103d8578063885acca0146104105780638ab333fb1461043d57600080fd5b806351c6590a146103225780635f5152261461033557806360baee5d14610362578063715018a61461037757600080fd5b80633595bf7a116101d75780633595bf7a146102a65780633e22811f146102bd578063451450ec146102ed5780634ba466391461030d57600080fd5b80630902f1ac146102095780630b87fde3146102385780631df372dc1461026657806329562ec614610286575b600080fd5b34801561021557600080fd5b5061021e61062d565b604080519283526020830191909152015b60405180910390f35b34801561024457600080fd5b506102586102533660046115da565b6106a3565b60405190815260200161022f565b34801561027257600080fd5b506102586102813660046115f7565b610719565b34801561029257600080fd5b506102586102a13660046115da565b610797565b3480156102b257600080fd5b506102bb6107ca565b005b3480156102c957600080fd5b506102dd6102d83660046115f7565b610859565b604051901515815260200161022f565b3480156102f957600080fd5b506102bb610308366004611623565b61091b565b34801561031957600080fd5b506102bb6109c1565b6102bb610330366004611645565b610a09565b34801561034157600080fd5b506103556103503660046115da565b610aa7565b60405161022f919061165e565b34801561036e57600080fd5b50610258610b62565b34801561038357600080fd5b506102bb610c0c565b34801561039857600080fd5b506102586103a73660046115f7565b610c20565b3480156103b857600080fd5b506103c1610c58565b60408051921515835260208301919091520161022f565b3480156103e457600080fd5b506103f86103f3366004611645565b610d04565b6040516001600160a01b03909116815260200161022f565b34801561041c57600080fd5b5061043061042b366004611645565b610d72565b60405161022f919061170c565b34801561044957600080fd5b506102586104583660046115da565b610de5565b34801561046957600080fd5b50610430610478366004611645565b610e18565b34801561048957600080fd5b506000546001600160a01b03166103f8565b3480156104a757600080fd5b50610430610e4a565b3480156104bc57600080fd5b506104c5610ecc565b60405161022f919061173f565b3480156104de57600080fd5b506102bb610f3e565b3480156104f357600080fd5b506102bb610f86565b34801561050857600080fd5b506102bb610fce565b34801561051d57600080fd5b506102dd611016565b34801561053257600080fd5b506102bb6105413660046117e5565b6110b9565b34801561055257600080fd5b506102dd610561366004611645565b611167565b34801561057257600080fd5b506102586105813660046115da565b611216565b34801561059257600080fd5b506102bb6105a136600461181a565b611249565b3480156105b257600080fd5b506102586112fe565b3480156105c757600080fd5b506102bb6105d63660046115da565b61136c565b3480156105e757600080fd5b506104c56113ea565b3480156105fc57600080fd5b506102bb611434565b34801561061157600080fd5b5061025861147c565b6102bb610628366004611645565b6114c5565b60085460408051630240bc6b60e21b8152815160009384936001600160a01b0390911692630902f1ac92600480830193928290030181865afa158015610677573d6000803e3d6000fd5b505050506040513d601f19601f8201168201806040525081019061069b91906118ea565b915091509091565b6006546040516370a0823160e01b81526001600160a01b03838116600483015260009216906370a08231906024015b602060405180830381865afa1580156106ef573d6000803e3d6000fd5b505050506040513d601f19601f82011682018060405250810190610713919061190e565b92915050565b600154604051632f745c5960e01b81526001600160a01b038481166004830152602482018490526000921690632f745c59906044015b602060405180830381865afa15801561076c573d6000803e3d6000fd5b505050506040513d601f19601f82011682018060405250810190610790919061190e565b9392505050565b6009546040516370a0823160e01b81526001600160a01b03838116600483015260009216906370a08231906024016106d2565b60075460408051600481526024810182526020810180516001600160e01b0316631acadfbd60e11b179052905160009283926001600160a01b03909116916108129190611927565b600060405180830381855af49150503d806000811461084d576040519150601f19603f3d011682016040523d82523d6000602084013e610852565b606091505b5050505050565b6005546040516001600160a01b03848116602483015260448201849052600092839283929091169060640160408051601f198184030181529181526020820180516001600160e01b0316632758748d60e21b179052516108b99190611927565b600060405180830381855af49150503d80600081146108f4576040519150601f19603f3d011682016040523d82523d6000602084013e6108f9565b606091505b5091509150808060200190518101906109129190611958565b95945050505050565b600254604051602481018490526044810183905260009182916001600160a01b039091169060640160408051601f198184030181529181526020820180516001600160e01b031663172f649160e01b179052516109789190611927565b600060405180830381855af49150503d80600081146109b3576040519150601f19603f3d011682016040523d82523d6000602084013e6109b8565b606091505b50505050505050565b60025460408051600481526024810182526020810180516001600160e01b0316634ba4663960e01b179052905160009283926001600160a01b03909116916108129190611927565b600a546040516024810183905260009182916001600160a01b039091169060440160408051601f198184030181529181526020820180516001600160e01b03166328e32c8560e11b17905251610a5f9190611927565b600060405180830381855af49150503d8060008114610a9a576040519150601f19603f3d011682016040523d82523d6000602084013e610a9f565b606091505b505050505050565b6002546040516001600160a01b03838116602483015260609260009283929091169060440160408051601f198184030181529181526020820180516001600160e01b0316632fa8a91360e11b17905251610b019190611927565b600060405180830381855af49150503d8060008114610b3c576040519150601f19603f3d011682016040523d82523d6000602084013e610b41565b606091505b509150915080806020019051810190610b5a9190611a2a565b949350505050565b60025460408051600481526024810182526020810180516001600160e01b03166360baee5d60e01b1790529051600092839283926001600160a01b0390921691610bac9190611927565b600060405180830381855af49150503d8060008114610be7576040519150601f19603f3d011682016040523d82523d6000602084013e610bec565b606091505b509150915080806020019051810190610c05919061190e565b9250505090565b610c1461151b565b610c1e6000611575565b565b600254604051627eeac760e11b81526001600160a01b03848116600483015260248201849052600092169062fdd58e9060440161074f565b60075460408051600481526024810182526020810180516001600160e01b0316637b9ba7fd60e01b17905290516000928392839283926001600160a01b031691610ca191611927565b600060405180830381855af49150503d8060008114610cdc576040519150601f19603f3d011682016040523d82523d6000602084013e610ce1565b606091505b509150915080806020019051810190610cfa9190611b36565b9350935050509091565b6001546040516331a9108f60e11b8152600481018390526000916001600160a01b031690636352211e90602401602060405180830381865afa158015610d4e573d6000803e3d6000fd5b505050506040513d601f19601f820116820180604052508101906107139190611b62565b60015460405163c87b56dd60e01b8152600481018390526060916001600160a01b03169063c87b56dd906024015b600060405180830381865afa158015610dbd573d6000803e3d6000fd5b505050506040513d6000823e601f3d908101601f191682016040526107139190810190611b7f565b6001546040516370a0823160e01b81526001600160a01b03838116600483015260009216906370a08231906024016106d2565b6002546040516303a24d0760e21b8152600481018390526060916001600160a01b031690630e89341c90602401610da0565b6060600460009054906101000a90046001600160a01b03166001600160a01b031663975486196040518163ffffffff1660e01b8152600401600060405180830381865afa158015610e9f573d6000803e3d6000fd5b505050506040513d6000823e601f3d908101601f19168201604052610ec79190810190611b7f565b905090565b6003546040805163980d560160e01b815290516060926001600160a01b03169163980d56019160048083019260009291908290030181865afa158015610f16573d6000803e3d6000fd5b505050506040513d6000823e601f3d908101601f19168201604052610ec79190810190611c22565b60075460408051600481526024810182526020810180516001600160e01b03166355da135b60e11b179052905160009283926001600160a01b03909116916108129190611927565b60025460408051600481526024810182526020810180516001600160e01b031663b6a8412b60e01b179052905160009283926001600160a01b03909116916108129190611927565b60025460408051600481526024810182526020810180516001600160e01b031663b6c7caad60e01b179052905160009283926001600160a01b03909116916108129190611927565b60075460408051600481526024810182526020810180516001600160e01b031663b88a802f60e01b1790529051600092839283926001600160a01b03909216916110609190611927565b600060405180830381855af49150503d806000811461109b576040519150601f19603f3d011682016040523d82523d6000602084013e6110a0565b606091505b509150915080806020019051810190610c059190611958565b6004546040516001600160a01b0385811660248301526044820185905260648201849052600092839291169060840160408051601f198184030181529181526020820180516001600160e01b031663f0c09fef60e01b1790525161111d9190611927565b600060405180830381855af49150503d8060008114611158576040519150601f19603f3d011682016040523d82523d6000602084013e61115d565b606091505b5050505050505050565b60075460405160248101839052600091829182916001600160a01b03169060440160408051601f198184030181529181526020820180516001600160e01b031663cda6b84760e01b179052516111bd9190611927565b600060405180830381855af49150503d80600081146111f8576040519150601f19603f3d011682016040523d82523d6000602084013e6111fd565b606091505b509150915080806020019051810190610b5a9190611958565b6005546040516370a0823160e01b81526001600160a01b03838116600483015260009216906370a08231906024016106d2565b61125161151b565b600180546001600160a01b03199081166001600160a01b039c8d16179091556002805482169a8c169a909a17909955600380548a16988b1698909817909755600480548916968a16969096179095556005805488169489169490941790935560068054871692881692909217909155600780548616918716919091179055600880548516918616919091179055600980548416918516919091179055600a80549092169216919091179055565b600754604080516339c607b760e21b815290516000926001600160a01b03169163e7181edc9160048083019260209291908290030181865afa158015611348573d6000803e3d6000fd5b505050506040513d601f19601f82011682018060405250810190610ec7919061190e565b61137461151b565b6001600160a01b0381166113de5760405162461bcd60e51b815260206004820152602660248201527f4f776e61626c653a206e6577206f776e657220697320746865207a65726f206160448201526564647265737360d01b60648201526084015b60405180910390fd5b6113e781611575565b50565b6003546040805163fc87323760e01b815290516060926001600160a01b03169163fc8732379160048083019260009291908290030181865afa158015610f16573d6000803e3d6000fd5b600a5460408051600481526024810182526020810180516001600160e01b031663f8e35be760e01b179052905160009283926001600160a01b03909116916108129190611927565b60015460408051600481526024810182526020810180516001600160e01b03166225379b60e81b1790529051600092839283926001600160a01b0390921691610bac9190611927565b600a546040516024810183905260009182916001600160a01b039091169060440160408051601f198184030181529181526020820180516001600160e01b0316637f3c275560e11b17905251610a5f9190611927565b6000546001600160a01b03163314610c1e5760405162461bcd60e51b815260206004820181905260248201527f4f776e61626c653a2063616c6c6572206973206e6f7420746865206f776e657260448201526064016113d5565b600080546001600160a01b038381166001600160a01b0319831681178455604051919092169283917f8be0079c531659141344cd1fd0a4f28419497f9722a3daafe3b4186f6b6457e09190a35050565b6001600160a01b03811681146113e757600080fd5b6000602082840312156115ec57600080fd5b8135610790816115c5565b6000806040838503121561160a57600080fd5b8235611615816115c5565b946020939093013593505050565b6000806040838503121561163657600080fd5b50508035926020909101359150565b60006020828403121561165757600080fd5b5035919050565b6000602080830181845280855180835260408601915060408160051b87010192508387016000805b838110156116da57888603603f19018552825180518088529088019088880190845b818110156116c45783518352928a0192918a01916001016116a8565b5090975050509386019391860191600101611686565b509398975050505050505050565b60005b838110156117035781810151838201526020016116eb565b50506000910152565b602081526000825180602084015261172b8160408501602087016116e8565b601f01601f19169190910160400192915050565b60208082528251828201819052600091906040908185019086840185805b838110156117d7578251805186528781015180516001600160a01b039081168a890152908901518888015287820151166060808801919091528101516080808801919091520151600381106117c057634e487b7160e01b83526021600452602483fd5b60a086015260c0909401939186019160010161175d565b509298975050505050505050565b6000806000606084860312156117fa57600080fd5b8335611805816115c5565b95602085013595506040909401359392505050565b6000806000806000806000806000806101408b8d03121561183a57600080fd5b8a35611845816115c5565b995060208b0135611855816115c5565b985060408b0135611865816115c5565b975060608b0135611875816115c5565b965060808b0135611885816115c5565b955060a08b0135611895816115c5565b945060c08b01356118a5816115c5565b935060e08b01356118b5816115c5565b92506101008b01356118c6816115c5565b91506101208b01356118d7816115c5565b809150509295989b9194979a5092959850565b600080604083850312156118fd57600080fd5b505080516020909101519092909150565b60006020828403121561192057600080fd5b5051919050565b600082516119398184602087016116e8565b9190910192915050565b8051801515811461195357600080fd5b919050565b60006020828403121561196a57600080fd5b61079082611943565b634e487b7160e01b600052604160045260246000fd5b60405160a0810167ffffffffffffffff811182821017156119ac576119ac611973565b60405290565b6040805190810167ffffffffffffffff811182821017156119ac576119ac611973565b604051601f8201601f1916810167ffffffffffffffff811182821017156119fe576119fe611973565b604052919050565b600067ffffffffffffffff821115611a2057611a20611973565b5060051b60200190565b60006020808385031215611a3d57600080fd5b825167ffffffffffffffff80821115611a5557600080fd5b818501915085601f830112611a6957600080fd5b8151611a7c611a7782611a06565b6119d5565b818152600591821b8401850191858201919089841115611a9b57600080fd5b8686015b84811015611b2757805186811115611ab75760008081fd5b8701603f81018c13611ac95760008081fd5b888101516040611adb611a7783611a06565b82815291851b83018101918b8101908f841115611af85760008081fd5b938201935b83851015611b165784518252938c0193908c0190611afd565b885250505093880193508701611a9f565b50909998505050505050505050565b60008060408385031215611b4957600080fd5b611b5283611943565b9150602083015190509250929050565b600060208284031215611b7457600080fd5b8151610790816115c5565b600060208284031215611b9157600080fd5b815167ffffffffffffffff80821115611ba957600080fd5b818401915084601f830112611bbd57600080fd5b815181811115611bcf57611bcf611973565b611be2601f8201601f19166020016119d5565b9150808252856020828501011115611bf957600080fd5b611c0a8160208401602086016116e8565b50949350505050565b80516003811061195357600080fd5b60006020808385031215611c3557600080fd5b825167ffffffffffffffff811115611c4c57600080fd5b8301601f81018513611c5d57600080fd5b8051611c6b611a7782611a06565b81815260c09182028301840191848201919088841115611c8a57600080fd5b938501935b83851015611d2f5784890381811215611ca85760008081fd5b611cb0611989565b86518152604080601f1984011215611cc85760008081fd5b611cd06119b2565b925088880151611cdf816115c5565b80845250808801518984015282898301526060925082880151611d01816115c5565b9082015260808781015183830152611d1b60a08901611c13565b908201528452509384019391850191611c8f565b5097965050505050505056fea2646970667358221220ed983c546e80f8b92a7aff7937e9e47653d3400e982628eb9b254c1b9e0b72d964736f6c63430008110033",
  "immutableReferences": {},
  "source": "// SPDX-License-Identifier: MIT\npragma solidity ^0.8.7;\n\nimport \"@openzeppelin/contracts/access/Ownable.sol\";\nimport \"./interfaces/IMapleRouter.sol\";\nimport \"./MapleNFT.sol\";\nimport \"./MapleItems.sol\";\nimport \"./MapleMarket.sol\";\nimport \"./MapleFight.sol\";\nimport \"./JMToken.sol\";\nimport \"./JMTRouter.sol\";\nimport \"./LiquidityPool.sol\";\nimport \"./LPT.sol\";\nimport \"./Staking.sol\";\nimport \"./VJMToken.sol\";\n\ncontract MapleRouter is IMapleRouter, Ownable {\n    address private mapleNFTContract;\n    address private mapleItemsContract;\n    address private mapleMarketContract;\n    address private mapleFightContract;\n    address private jmtContract;\n    address private vjmtContract;\n    address private stakingContract;\n    address private lpContract;\n    address private lptContract;\n    address private jmtRouterContract;\n\n    constructor(\n        address _mapleNFTAddress, \n        address _mapleItemsAddress,\n        address _mapleMarketAddress,\n        address _mapleFightAddress,\n        address _jmtContractAddress, \n        address _vjmtContractAddress,\n        address _stakingContractAddress,\n        address _lpContractAddress,\n        address _lptContractAddress,\n        address _jmtRouterContractAddress\n    ) {\n        setContractAddress(\n            _mapleNFTAddress, \n            _mapleItemsAddress,\n            _mapleMarketAddress,\n            _mapleFightAddress,\n            _jmtContractAddress, \n            _vjmtContractAddress,\n            _stakingContractAddress,\n            _lpContractAddress,\n            _lptContractAddress,\n            _jmtRouterContractAddress\n        );\n    }\n\n    function setContractAddress(\n        address _mapleNFTAddress, \n        address _mapleItemsAddress,\n        address _mapleMarketAddress,\n        address _mapleFightAddress,\n        address _jmtContractAddress, \n        address _vjmtContractAddress,\n        address _stakingContractAddress,\n        address _lpContractAddress,\n        address _lptContractAddress,\n        address _jmtRouterContractAddress\n    ) public onlyOwner {\n        mapleNFTContract = _mapleNFTAddress;\n        mapleItemsContract = _mapleItemsAddress;\n        mapleMarketContract = _mapleMarketAddress;\n        mapleFightContract = _mapleFightAddress;\n        jmtContract = _jmtContractAddress;\n        vjmtContract = _vjmtContractAddress;\n        stakingContract = _stakingContractAddress;\n        lpContract = _lpContractAddress;\n        lptContract = _lptContractAddress;\n        jmtRouterContract = _jmtRouterContractAddress;\n    }\n\n    /*\n     * MapleCharacter\n     */\n    function balanaceOfCharacter(address owner) public view returns (uint256) {\n        return MapleNFT(mapleNFTContract).balanceOf(owner);\n    }\n    function tokenURICharacter(uint256 tokenId) public view returns(string memory) {\n        return MapleNFT(mapleNFTContract).tokenURI(tokenId);\n    }\n    function tokenOfOwnerByIndexCharacter(address owner, uint256 index) public view returns (uint256) {\n        return MapleNFT(mapleNFTContract).tokenOfOwnerByIndex(owner, index);\n    }\n    function ownerOfCharacter(uint tokenId) public view returns(address) {\n        return MapleNFT(mapleNFTContract).ownerOf(tokenId);\n    }\n    function mintCharacter() public returns(uint256) {\n        (bool success, bytes memory result) = mapleNFTContract.delegatecall(abi.encodeWithSignature(\"mintMapleNFT()\"));\n        return abi.decode(result, (uint256));\n    }\n\n    /*\n     * MapleItems\n     */\n    function checkBalance(address owner) public returns(uint256[][] memory) {\n        (bool success, bytes memory result) = mapleItemsContract.delegatecall(abi.encodeWithSignature(\"checkBalance(address)\", owner));\n        return abi.decode(result, (uint256[][]));\n    }\n    function tokenURIItem(uint256 tokenId) external view returns(string memory) {\n        return MapleItems(mapleItemsContract).uri(tokenId);\n    }\n    function balanaceOfItem(address owner, uint256 tokenId) public view returns (uint256) {\n        return MapleItems(mapleItemsContract).balanceOf(owner, tokenId);\n    }\n    function mintFirstWeapon() public {\n        (bool success, bytes memory result) = mapleItemsContract.delegatecall(abi.encodeWithSignature(\"mintFirstWeapon()\"));\n    }\n    function mintRandomWeapon() public returns (uint256) {\n        (bool success, bytes memory result) = mapleItemsContract.delegatecall(abi.encodeWithSignature(\"mintRandomWeapon()\"));\n        return abi.decode(result, (uint256));\n    }\n    function mintScroll() public {\n        (bool success, bytes memory result) = mapleItemsContract.delegatecall(abi.encodeWithSignature(\"mintScroll()\"));\n    }\n    function randRewardScroll() public {\n        (bool success, bytes memory result) = mapleItemsContract.delegatecall(abi.encodeWithSignature(\"randRewardScroll()\"));\n    }\n    function upgrade(uint256 scrollId, uint256 weaponId) public {\n        (bool success, bytes memory result) = mapleItemsContract.delegatecall(abi.encodeWithSignature(\"upgrade(uint256, uint256)\", scrollId, weaponId));\n    }\n\n    /*\n     * Market\n     */\n    function fetchCharacterOnSale() public view returns (MapleMarket.MarketItem[] memory) {\n        return MapleMarket(mapleMarketContract).fetchCharOnSale();\n    }\n    function fetchWeaponOnSale() public view returns (MapleMarket.MarketItem[] memory) {\n        return MapleMarket(mapleMarketContract).fetchWeaponOnSale();\n    }\n\n    /*\n     * Fight\n     */\n    function setFight(address addr, uint256 userStrength, uint256 matchingStrength) public {\n        (bool success, bytes memory result) = mapleFightContract.delegatecall(abi.encodeWithSignature(\"setFight(address, uint256, uint256)\", addr, userStrength, matchingStrength));\n    }\n    function getFight() public view returns (string memory) {\n        return MapleFight(mapleFightContract).getFight();\n    }\n\n    /*\n     * JMT\n     */\n    function balanceOfVJMT(address account) public view returns (uint256) {\n        return VJMToken(vjmtContract).balanceOf(account);\n    }\n    function stakeToken(uint256 stakeAmount) public returns (bool) {\n        (bool success, bytes memory result) = stakingContract.delegatecall(abi.encodeWithSignature(\"stakeToken(uint256)\", stakeAmount));\n        return abi.decode(result, (bool));\n    }\n    function unStakingToken() public {\n        (bool success, bytes memory result) = stakingContract.delegatecall(abi.encodeWithSignature(\"unStakingToken()\"));\n    }\n    function unStakingClaime() public returns (bool, uint256) {\n        (bool success, bytes memory result) = stakingContract.delegatecall(abi.encodeWithSignature(\"unStakingClaime()\"));\n        return abi.decode(result, (bool, uint256));\n    }\n    function stakeInfos() public {\n        (bool success, bytes memory result) = stakingContract.delegatecall(abi.encodeWithSignature(\"stakeInfos()\"));\n    }\n    function claimReward() public returns (bool) {\n        (bool success, bytes memory result) = stakingContract.delegatecall(abi.encodeWithSignature(\"claimReward()\"));\n        return abi.decode(result, (bool));\n    }\n    function claimableReward() public view returns (uint256) {\n        return Staking(stakingContract).claimableReward();\n    }\n    function balanceOfJMT(address account) public view returns (uint256) {\n        return JMToken(jmtContract).balanceOf(account);\n    }\n    function transferJMT(address to, uint256 amount) external returns (bool) {\n        (bool success, bytes memory result) = jmtContract.delegatecall(abi.encodeWithSignature(\"transfer(address, uint256)\", to, amount));\n        return abi.decode(result, (bool));\n    }\n    function getReserves() public view returns (uint256, uint256) {\n        return LiquidityPool(lpContract).getReserves();\n    }\n    function swapTokens(uint256 jmtAmount) public payable {\n        (bool success, bytes memory result) = jmtRouterContract.delegatecall(abi.encodeWithSignature(\"swapTokens(uint256)\", jmtAmount));\n    }\n    function balanceOfLPToken(address account) public view returns (uint256) {\n        return LPT(lptContract).balanceOf(account);\n    }\n    function addLiquidity(uint256 jmtAmount) public payable {\n        (bool success, bytes memory result) = jmtRouterContract.delegatecall(abi.encodeWithSignature(\"addLiquidity(uint256)\", jmtAmount));\n    }\n    function pullLiquidity() public {\n        (bool success, bytes memory result) = jmtRouterContract.delegatecall(abi.encodeWithSignature(\"pullLiquidity()\"));\n    }\n}\n",
  "sourcePath": "/Users/rokrokss/workspace/hyein/BEB-05-JMT/contract/contracts/MapleRouter.sol",
  "compiler": {
    "name": "solc",
    "version": "0.8.17+commit.8df45f5f.Emscripten.clang"
  },
  "schemaVersion": "3.4.9",
  "updatedAt": "2022-09-25T20:10:59.537Z",
  "networkType": "ethereum",
  "devdoc": {
    "kind": "dev",
    "methods": {
      "owner()": {
        "details": "Returns the address of the current owner."
      },
      "renounceOwnership()": {
        "details": "Leaves the contract without owner. It will not be possible to call `onlyOwner` functions anymore. Can only be called by the current owner. NOTE: Renouncing ownership will leave the contract without an owner, thereby removing any functionality that is only available to the owner."
      },
      "transferOwnership(address)": {
        "details": "Transfers ownership of the contract to a new account (`newOwner`). Can only be called by the current owner."
      }
    },
    "version": 1
  },
  "userdoc": {
    "kind": "user",
    "methods": {},
    "version": 1
  }
}