{
  "contractName": "MapleUser",
  "abi": [
    {
      "inputs": [
        {
          "internalType": "address",
          "name": "_tokenContractAddress",
          "type": "address"
        },
        {
          "internalType": "address",
          "name": "_nftContractAddress",
          "type": "address"
        },
        {
          "internalType": "address",
          "name": "_itemContractAddress",
          "type": "address"
        },
        {
          "internalType": "address payable",
          "name": "_treasuryWallet",
          "type": "address"
        }
      ],
      "stateMutability": "nonpayable",
      "type": "constructor"
    },
    {
      "anonymous": false,
      "inputs": [
        {
          "indexed": true,
          "internalType": "address",
          "name": "previousOwner",
          "type": "address"
        },
        {
          "indexed": true,
          "internalType": "address",
          "name": "newOwner",
          "type": "address"
        }
      ],
      "name": "OwnershipTransferred",
      "type": "event"
    },
    {
      "anonymous": false,
      "inputs": [
        {
          "indexed": false,
          "internalType": "uint256",
          "name": "charId",
          "type": "uint256"
        },
        {
          "indexed": false,
          "internalType": "uint256",
          "name": "weaponId",
          "type": "uint256"
        },
        {
          "indexed": false,
          "internalType": "uint256",
          "name": "userId",
          "type": "uint256"
        },
        {
          "indexed": false,
          "internalType": "address",
          "name": "user",
          "type": "address"
        }
      ],
      "name": "UserCreated",
      "type": "event"
    },
    {
      "anonymous": false,
      "inputs": [
        {
          "indexed": false,
          "internalType": "uint256",
          "name": "charId",
          "type": "uint256"
        },
        {
          "indexed": false,
          "internalType": "uint256",
          "name": "weaponId",
          "type": "uint256"
        },
        {
          "indexed": false,
          "internalType": "uint256",
          "name": "userId",
          "type": "uint256"
        },
        {
          "indexed": false,
          "internalType": "address",
          "name": "user",
          "type": "address"
        }
      ],
      "name": "UserDeleated",
      "type": "event"
    },
    {
      "anonymous": false,
      "inputs": [
        {
          "indexed": false,
          "internalType": "uint256",
          "name": "charId",
          "type": "uint256"
        },
        {
          "indexed": false,
          "internalType": "uint256",
          "name": "weaponId",
          "type": "uint256"
        },
        {
          "indexed": false,
          "internalType": "uint256",
          "name": "userId",
          "type": "uint256"
        },
        {
          "indexed": false,
          "internalType": "address",
          "name": "user",
          "type": "address"
        }
      ],
      "name": "UserMatching",
      "type": "event"
    },
    {
      "anonymous": false,
      "inputs": [
        {
          "indexed": false,
          "internalType": "uint256",
          "name": "charId",
          "type": "uint256"
        },
        {
          "indexed": false,
          "internalType": "uint256",
          "name": "weaponId",
          "type": "uint256"
        },
        {
          "indexed": false,
          "internalType": "uint256",
          "name": "userId",
          "type": "uint256"
        },
        {
          "indexed": false,
          "internalType": "address",
          "name": "user",
          "type": "address"
        }
      ],
      "name": "UserUpdated",
      "type": "event"
    },
    {
      "inputs": [],
      "name": "owner",
      "outputs": [
        {
          "internalType": "address",
          "name": "",
          "type": "address"
        }
      ],
      "stateMutability": "view",
      "type": "function"
    },
    {
      "inputs": [],
      "name": "renounceOwnership",
      "outputs": [],
      "stateMutability": "nonpayable",
      "type": "function"
    },
    {
      "inputs": [
        {
          "internalType": "address",
          "name": "newOwner",
          "type": "address"
        }
      ],
      "name": "transferOwnership",
      "outputs": [],
      "stateMutability": "nonpayable",
      "type": "function"
    },
    {
      "inputs": [
        {
          "internalType": "uint256",
          "name": "_charId",
          "type": "uint256"
        },
        {
          "internalType": "uint256",
          "name": "_weaponId",
          "type": "uint256"
        }
      ],
      "name": "signUp",
      "outputs": [],
      "stateMutability": "nonpayable",
      "type": "function"
    },
    {
      "inputs": [
        {
          "internalType": "uint256",
          "name": "_charId",
          "type": "uint256"
        },
        {
          "internalType": "uint256",
          "name": "_userId",
          "type": "uint256"
        }
      ],
      "name": "updateChar",
      "outputs": [],
      "stateMutability": "nonpayable",
      "type": "function"
    },
    {
      "inputs": [
        {
          "internalType": "uint256",
          "name": "_weaponId",
          "type": "uint256"
        },
        {
          "internalType": "uint256",
          "name": "_userId",
          "type": "uint256"
        }
      ],
      "name": "updateWeapon",
      "outputs": [],
      "stateMutability": "nonpayable",
      "type": "function"
    },
    {
      "inputs": [
        {
          "internalType": "address",
          "name": "_user",
          "type": "address"
        }
      ],
      "name": "matchUser",
      "outputs": [
        {
          "components": [
            {
              "internalType": "uint256",
              "name": "userId",
              "type": "uint256"
            },
            {
              "components": [
                {
                  "internalType": "address",
                  "name": "contractAddr",
                  "type": "address"
                },
                {
                  "internalType": "uint256",
                  "name": "tokenId",
                  "type": "uint256"
                }
              ],
              "internalType": "struct MapleUser.Token",
              "name": "charToken",
              "type": "tuple"
            },
            {
              "components": [
                {
                  "internalType": "address",
                  "name": "contractAddr",
                  "type": "address"
                },
                {
                  "internalType": "uint256",
                  "name": "tokenId",
                  "type": "uint256"
                }
              ],
              "internalType": "struct MapleUser.Token",
              "name": "weaponToken",
              "type": "tuple"
            },
            {
              "internalType": "address payable",
              "name": "user",
              "type": "address"
            }
          ],
          "internalType": "struct MapleUser.UserInfo",
          "name": "",
          "type": "tuple"
        }
      ],
      "stateMutability": "view",
      "type": "function"
    },
    {
      "inputs": [
        {
          "internalType": "uint256",
          "name": "_userId",
          "type": "uint256"
        }
      ],
      "name": "fetchUser",
      "outputs": [
        {
          "components": [
            {
              "internalType": "uint256",
              "name": "userId",
              "type": "uint256"
            },
            {
              "components": [
                {
                  "internalType": "address",
                  "name": "contractAddr",
                  "type": "address"
                },
                {
                  "internalType": "uint256",
                  "name": "tokenId",
                  "type": "uint256"
                }
              ],
              "internalType": "struct MapleUser.Token",
              "name": "charToken",
              "type": "tuple"
            },
            {
              "components": [
                {
                  "internalType": "address",
                  "name": "contractAddr",
                  "type": "address"
                },
                {
                  "internalType": "uint256",
                  "name": "tokenId",
                  "type": "uint256"
                }
              ],
              "internalType": "struct MapleUser.Token",
              "name": "weaponToken",
              "type": "tuple"
            },
            {
              "internalType": "address payable",
              "name": "user",
              "type": "address"
            }
          ],
          "internalType": "struct MapleUser.UserInfo",
          "name": "",
          "type": "tuple"
        }
      ],
      "stateMutability": "view",
      "type": "function"
    },
    {
      "inputs": [],
      "name": "fetchUsers",
      "outputs": [
        {
          "components": [
            {
              "internalType": "uint256",
              "name": "userId",
              "type": "uint256"
            },
            {
              "components": [
                {
                  "internalType": "address",
                  "name": "contractAddr",
                  "type": "address"
                },
                {
                  "internalType": "uint256",
                  "name": "tokenId",
                  "type": "uint256"
                }
              ],
              "internalType": "struct MapleUser.Token",
              "name": "charToken",
              "type": "tuple"
            },
            {
              "components": [
                {
                  "internalType": "address",
                  "name": "contractAddr",
                  "type": "address"
                },
                {
                  "internalType": "uint256",
                  "name": "tokenId",
                  "type": "uint256"
                }
              ],
              "internalType": "struct MapleUser.Token",
              "name": "weaponToken",
              "type": "tuple"
            },
            {
              "internalType": "address payable",
              "name": "user",
              "type": "address"
            }
          ],
          "internalType": "struct MapleUser.UserInfo[]",
          "name": "",
          "type": "tuple[]"
        }
      ],
      "stateMutability": "view",
      "type": "function"
    },
    {
      "inputs": [
        {
          "internalType": "address",
          "name": "",
          "type": "address"
        },
        {
          "internalType": "address",
          "name": "",
          "type": "address"
        },
        {
          "internalType": "uint256",
          "name": "",
          "type": "uint256"
        },
        {
          "internalType": "uint256",
          "name": "",
          "type": "uint256"
        },
        {
          "internalType": "bytes",
          "name": "",
          "type": "bytes"
        }
      ],
      "name": "onERC1155Received",
      "outputs": [
        {
          "internalType": "bytes4",
          "name": "",
          "type": "bytes4"
        }
      ],
      "stateMutability": "nonpayable",
      "type": "function"
    },
    {
      "inputs": [
        {
          "internalType": "address",
          "name": "",
          "type": "address"
        },
        {
          "internalType": "address",
          "name": "",
          "type": "address"
        },
        {
          "internalType": "uint256[]",
          "name": "",
          "type": "uint256[]"
        },
        {
          "internalType": "uint256[]",
          "name": "",
          "type": "uint256[]"
        },
        {
          "internalType": "bytes",
          "name": "",
          "type": "bytes"
        }
      ],
      "name": "onERC1155BatchReceived",
      "outputs": [
        {
          "internalType": "bytes4",
          "name": "",
          "type": "bytes4"
        }
      ],
      "stateMutability": "nonpayable",
      "type": "function"
    },
    {
      "inputs": [
        {
          "internalType": "address",
          "name": "",
          "type": "address"
        },
        {
          "internalType": "address",
          "name": "",
          "type": "address"
        },
        {
          "internalType": "uint256",
          "name": "",
          "type": "uint256"
        },
        {
          "internalType": "bytes",
          "name": "",
          "type": "bytes"
        }
      ],
      "name": "onERC721Received",
      "outputs": [
        {
          "internalType": "bytes4",
          "name": "",
          "type": "bytes4"
        }
      ],
      "stateMutability": "nonpayable",
      "type": "function"
    }
  ],
  "bytecode": "0x6080604052670de0b6b3a76400006002553480156200001d57600080fd5b5060405162001480380380620014808339810160408190526200004091620001aa565b6200004b336200009b565b6200005684620000eb565b50600580546001600160a01b039485166001600160a01b0319918216179091556006805493851693821693909317909255600480549190931691161790555062000212565b600080546001600160a01b038381166001600160a01b0319831681178455604051919092169283917f8be0079c531659141344cd1fd0a4f28419497f9722a3daafe3b4186f6b6457e09190a35050565b6000620000f762000130565b6001600160a01b0382166200010b57600080fd5b50600380546001600160a01b0383166001600160a01b03199091161790556001919050565b6000546001600160a01b031633146200018f5760405162461bcd60e51b815260206004820181905260248201527f4f776e61626c653a2063616c6c6572206973206e6f7420746865206f776e6572604482015260640160405180910390fd5b565b6001600160a01b0381168114620001a757600080fd5b50565b60008060008060808587031215620001c157600080fd5b8451620001ce8162000191565b6020860151909450620001e18162000191565b6040860151909350620001f48162000191565b6060860151909250620002078162000191565b939692955090935050565b61125e80620002226000396000f3fe608060405234801561001057600080fd5b50600436106100d45760003560e01c8063bc197c8111610081578063dfbf99001161005b578063dfbf990014610211578063f23a6e6114610224578063f2fde38b1461025c57600080fd5b8063bc197c81146101a4578063bfcad433146101dc578063da56ef3a146101f157600080fd5b8063715018a6116100b2578063715018a61461016e5780638da5cb5b14610176578063aeeda6bf1461019157600080fd5b8063150b7a02146100d957806336b18165146101465780635c7dec1b1461015b575b600080fd5b6101106100e7366004610df9565b7f150b7a0200000000000000000000000000000000000000000000000000000000949350505050565b6040517fffffffff0000000000000000000000000000000000000000000000000000000090911681526020015b60405180910390f35b610159610154366004610e65565b61026f565b005b610159610169366004610e65565b6103c0565b6101596104f3565b6000546040516001600160a01b03909116815260200161013d565b61015961019f366004610e65565b610507565b6101106101b2366004610f07565b7fbc197c810000000000000000000000000000000000000000000000000000000095945050505050565b6101e46107cc565b60405161013d9190610fb5565b6102046101ff366004611057565b610900565b60405161013d919061107b565b61020461021f3660046110e3565b610a7c565b6101106102323660046110fc565b7ff23a6e610000000000000000000000000000000000000000000000000000000095945050505050565b61015961026a366004611057565b610b76565b600654604051627eeac760e11b8152336004820152602481018490526001600160a01b039091169062fdd58e90604401602060405180830381865afa1580156102bc573d6000803e3d6000fd5b505050506040513d601f19601f820116820180604052508101906102e09190611165565b60000361035a5760405162461bcd60e51b815260206004820152602660248201527f6f6e6c7920776561706f6e206f776e6572732063616e2075706461746520757360448201527f6572496e666f000000000000000000000000000000000000000000000000000060648201526084015b60405180910390fd5b600081815260076020908152604091829020600481018590556002015482519081529081018490529081018290523360608201527fcf09b7402a0a51c2c51935cd064f1c8e910da6814d49b3badcaa04c81850948b906080015b60405180910390a15050565b6005546040516331a9108f60e11b8152600481018490526001600160a01b0390911690636352211e90602401602060405180830381865afa158015610409573d6000803e3d6000fd5b505050506040513d601f19601f8201168201806040525081019061042d919061117e565b6001600160a01b0316336001600160a01b0316146104975760405162461bcd60e51b815260206004820152602160248201527f6f6e6c7920636861726163746572206f776e6572732063616e207369676e20756044820152600760fc1b6064820152608401610351565b60008181526007602090815260409182902060028101859055600401548251858152918201529081018290523360608201527fcf09b7402a0a51c2c51935cd064f1c8e910da6814d49b3badcaa04c81850948b906080016103b4565b6104fb610c06565b6105056000610c60565b565b6005546040516331a9108f60e11b8152600481018490526001600160a01b0390911690636352211e90602401602060405180830381865afa158015610550573d6000803e3d6000fd5b505050506040513d601f19601f82011682018060405250810190610574919061117e565b6001600160a01b0316336001600160a01b0316146105de5760405162461bcd60e51b815260206004820152602160248201527f6f6e6c7920636861726163746572206f776e6572732063616e207369676e20756044820152600760fc1b6064820152608401610351565b600654604051627eeac760e11b8152336004820152602481018390526001600160a01b039091169062fdd58e90604401602060405180830381865afa15801561062b573d6000803e3d6000fd5b505050506040513d601f19601f8201168201806040525081019061064f9190611165565b60000361069e5760405162461bcd60e51b815260206004820152601e60248201527f6f6e6c7920776561706f6e206f776e6572732063616e207369676e20757000006044820152606401610351565b6106ac600180546001019055565b60006106b760015490565b604080516080808201835283825282518084018452600580546001600160a01b03908116835260208084018b905280860193845286518088018852600654831681528082018b905286880190815233606080890182815260008c8152600786528b902099518a559651805160018b01805491881673ffffffffffffffffffffffffffffffffffffffff199283161790559085015160028b01559251805160038b01805491881691861691909117905584015160048a0155955197909401805497909316961695909517905584518981529384018890529383018590528201929092529192507fb71cf8dd9f35ff09f0b312ae47365f80792968af9383e6cbc7f9c12054d6cc3d910160405180910390a1505050565b606060006107d960015490565b905060008167ffffffffffffffff8111156107f6576107f6610d42565b60405190808252806020026020018201604052801561082f57816020015b61081c610cbd565b8152602001906001900390816108145790505b50905060015b8281116108f95760008181526007602090815260408083205480845292819020815160808101835281548152825180840184526001808401546001600160a01b03908116835260028501548388015283870192909252845180860186526003850154831681526004850154968101969096529382019490945260058201549093166060840152919085906108c990866111b1565b815181106108d9576108d96111c4565b6020026020010181905250505080806108f1906111da565b915050610835565b5092915050565b610908610cbd565b60015460010361095a5760405162461bcd60e51b815260206004820152601b60248201527f796f752061726520746865206f6e6c79206f6e6520706c6179657200000000006044820152606401610351565b600061096560015490565b90506000814260405160200161097d91815260200190565b6040516020818303038152906040528051906020012060001c6109a091906111f3565b90506001600160a01b038416600760006109bb846001611215565b81526020810191909152604001600020600501546001600160a01b031614610a6b5760006007816109ed846001611215565b815260208082019290925260409081016000208151608081018352815481528251808401845260018301546001600160a01b0390811682526002840154828701528286019190915283518085018552600384015482168152600484015495810195909552928101939093526005015416606082015295945050505050565b610a7484610900565b949350505050565b610a84610cbd565b600154600003610afc5760405162461bcd60e51b815260206004820152602360248201527f6e6f207573657220696e666f20616464656420746f207468697320636f6e747260448201527f61637400000000000000000000000000000000000000000000000000000000006064820152608401610351565b506000908152600760209081526040918290208251608081018452815481528351808501855260018301546001600160a01b03908116825260028401548286015282850191909152845180860186526003840154821681526004840154948101949094529381019290925260050154909116606082015290565b610b7e610c06565b6001600160a01b038116610bfa5760405162461bcd60e51b815260206004820152602660248201527f4f776e61626c653a206e6577206f776e657220697320746865207a65726f206160448201527f64647265737300000000000000000000000000000000000000000000000000006064820152608401610351565b610c0381610c60565b50565b6000546001600160a01b031633146105055760405162461bcd60e51b815260206004820181905260248201527f4f776e61626c653a2063616c6c6572206973206e6f7420746865206f776e65726044820152606401610351565b600080546001600160a01b0383811673ffffffffffffffffffffffffffffffffffffffff19831681178455604051919092169283917f8be0079c531659141344cd1fd0a4f28419497f9722a3daafe3b4186f6b6457e09190a35050565b604051806080016040528060008152602001610cf5604051806040016040528060006001600160a01b03168152602001600081525090565b8152602001610d20604051806040016040528060006001600160a01b03168152602001600081525090565b8152600060209091015290565b6001600160a01b0381168114610c0357600080fd5b634e487b7160e01b600052604160045260246000fd5b604051601f8201601f1916810167ffffffffffffffff81118282101715610d8157610d81610d42565b604052919050565b600082601f830112610d9a57600080fd5b813567ffffffffffffffff811115610db457610db4610d42565b610dc7601f8201601f1916602001610d58565b818152846020838601011115610ddc57600080fd5b816020850160208301376000918101602001919091529392505050565b60008060008060808587031215610e0f57600080fd5b8435610e1a81610d2d565b93506020850135610e2a81610d2d565b925060408501359150606085013567ffffffffffffffff811115610e4d57600080fd5b610e5987828801610d89565b91505092959194509250565b60008060408385031215610e7857600080fd5b50508035926020909101359150565b600082601f830112610e9857600080fd5b8135602067ffffffffffffffff821115610eb457610eb4610d42565b8160051b610ec3828201610d58565b9283528481018201928281019087851115610edd57600080fd5b83870192505b84831015610efc57823582529183019190830190610ee3565b979650505050505050565b600080600080600060a08688031215610f1f57600080fd5b8535610f2a81610d2d565b94506020860135610f3a81610d2d565b9350604086013567ffffffffffffffff80821115610f5757600080fd5b610f6389838a01610e87565b94506060880135915080821115610f7957600080fd5b610f8589838a01610e87565b93506080880135915080821115610f9b57600080fd5b50610fa888828901610d89565b9150509295509295909350565b6020808252825182820181905260009190848201906040850190845b8181101561104b576110388385518051825260208082015180516001600160a01b03168285015290810151604084015250604081015180516001600160a01b031660608401526020810151608084015250606001516001600160a01b031660a09190910152565b9284019260c09290920191600101610fd1565b50909695505050505050565b60006020828403121561106957600080fd5b813561107481610d2d565b9392505050565b60c081016110dd82848051825260208082015180516001600160a01b03168285015290810151604084015250604081015180516001600160a01b031660608401526020810151608084015250606001516001600160a01b031660a09190910152565b92915050565b6000602082840312156110f557600080fd5b5035919050565b600080600080600060a0868803121561111457600080fd5b853561111f81610d2d565b9450602086013561112f81610d2d565b93506040860135925060608601359150608086013567ffffffffffffffff81111561115957600080fd5b610fa888828901610d89565b60006020828403121561117757600080fd5b5051919050565b60006020828403121561119057600080fd5b815161107481610d2d565b634e487b7160e01b600052601160045260246000fd5b818103818111156110dd576110dd61119b565b634e487b7160e01b600052603260045260246000fd5b6000600182016111ec576111ec61119b565b5060010190565b60008261121057634e487b7160e01b600052601260045260246000fd5b500690565b808201808211156110dd576110dd61119b56fea26469706673582212200046a768bec9fb10408b62065888105d3a216beaa2a1a7b5bb653af0291b4efe64736f6c63430008110033",
  "immutableReferences": {},
  "source": "// SPDX-License-Identifier: MIT\npragma solidity ^0.8.7;\n\nimport \"@openzeppelin/contracts/token/ERC721/ERC721.sol\";\nimport \"@openzeppelin/contracts/token/ERC1155/ERC1155.sol\";\nimport \"@openzeppelin/contracts/token/ERC1155/IERC1155Receiver.sol\";\nimport \"@openzeppelin/contracts/access/Ownable.sol\";\nimport \"@openzeppelin/contracts/utils/Counters.sol\";\nimport \"./JMToken.sol\";\n\ncontract MapleUser is Ownable {\n    using Counters for Counters.Counter;\n    Counters.Counter private _userIds;\n    uint256 decimals = 10**18;\n    JMToken private token;\n    address payable private treasuryWallet;\n    address private nftContractAddress;\n    address private itemContractAddress;\n\n    constructor (\n        address _tokenContractAddress,\n        address _nftContractAddress,\n        address _itemContractAddress,\n        address payable _treasuryWallet\n    ) {\n        _setToken(_tokenContractAddress);\n        nftContractAddress = _nftContractAddress;\n        itemContractAddress = _itemContractAddress;\n        treasuryWallet = _treasuryWallet;\n    }\n\n    mapping(uint256 => UserInfo) idUserInfo;\n\n    struct Token {\n        address contractAddr;\n        uint256 tokenId;\n    }\n\n    struct UserInfo {\n        uint256 userId;\n        Token charToken;\n        Token weaponToken;\n        address payable user;\n    }\n\n    event UserCreated (\n        uint256 charId,\n        uint256 weaponId,\n        uint256 userId,\n        address user\n    );\n\n    event UserUpdated (\n        uint256 charId,\n        uint256 weaponId,\n        uint256 userId,\n        address user\n    );\n\n    event UserMatching (\n        uint256 charId,\n        uint256 weaponId,\n        uint256 userId,\n        address user\n    );\n\n    event UserDeleated (\n        uint256 charId,\n        uint256 weaponId,\n        uint256 userId,\n        address user\n    );\n\n    function _setToken(address _tokenAddress) private onlyOwner returns (bool) {\n        require(_tokenAddress != address(0x0));\n        token = JMToken(_tokenAddress);\n        return true;\n    }\n\n    function signUp(\n        uint256 _charId,\n        uint256 _weaponId\n    ) public {\n        require(msg.sender == ERC721(nftContractAddress).ownerOf(_charId),  \"only character owners can sign up\");\n        require(ERC1155(itemContractAddress).balanceOf(msg.sender, _weaponId)!=0,  \"only weapon owners can sign up\");\n\n        _userIds.increment();\n        uint256 userId = _userIds.current();\n\n        idUserInfo[userId] = UserInfo({\n            userId: userId,\n            charToken: Token({\n                contractAddr: nftContractAddress,\n                tokenId: _charId\n            }),\n            weaponToken: Token({\n                contractAddr: itemContractAddress,\n                tokenId: _weaponId\n            }),\n            user: payable(msg.sender)\n        });\n\n        emit UserCreated(\n            _charId,\n            _weaponId,\n            userId,\n            msg.sender\n        );\n    }\n\n    function updateChar(\n        uint256 _charId,\n        uint256 _userId\n    ) public {\n        require(msg.sender == ERC721(nftContractAddress).ownerOf(_charId),  \"only character owners can sign up\");\n\n        idUserInfo[_userId].charToken.tokenId = _charId;\n\n        emit UserUpdated(\n            _charId,\n            idUserInfo[_userId].weaponToken.tokenId,\n            _userId,\n            msg.sender\n        );\n    }\n\n    function updateWeapon(\n        uint256 _weaponId,\n        uint256 _userId\n    ) public {\n        require(ERC1155(itemContractAddress).balanceOf(msg.sender, _weaponId)!=0,  \"only weapon owners can update userInfo\");\n\n        idUserInfo[_userId].weaponToken.tokenId = _weaponId;\n\n        emit UserUpdated(\n            idUserInfo[_userId].charToken.tokenId,\n            _weaponId,\n            _userId,\n            msg.sender\n        );\n    }\n\n    function matchUser(address _user) public view returns (UserInfo memory) {\n        require(_userIds.current()!=1, \"you are the only one player\");\n        uint userCount = _userIds.current();\n        uint256 n = uint256(keccak256(abi.encodePacked(block.timestamp))) % (userCount);\n        if(idUserInfo[n+1].user != _user){\n            UserInfo memory opponent =  idUserInfo[n+1];\n            return opponent;\n        }else{\n            return matchUser(_user);\n        }\n    }\n\n    function fetchUser(uint256 _userId) public view returns (UserInfo memory) {\n        require(_userIds.current()!=0, \"no user info added to this contract\");\n        return idUserInfo[_userId];\n    }\n\n    function fetchUsers() public view returns (UserInfo[] memory) {\n        uint userCount = _userIds.current();\n        UserInfo[] memory users =  new UserInfo[](userCount);\n\n        for (uint i = 1; i <= userCount; i++) {\n            uint currentId = idUserInfo[i].userId;\n            UserInfo storage currentUser = idUserInfo[currentId];\n            users[i-1] = currentUser;\n        }\n        return users;\n    }\n\n    function onERC1155Received(address, address, uint256, uint256, bytes memory) public virtual returns (bytes4) {\n        return this.onERC1155Received.selector;\n    }\n\n    function onERC1155BatchReceived(address, address, uint256[] memory, uint256[] memory, bytes memory) public virtual returns (bytes4) {\n        return this.onERC1155BatchReceived.selector;\n    }\n\n    function onERC721Received(address, address, uint256, bytes memory) public virtual returns (bytes4) {\n        return this.onERC721Received.selector;\n    }\n}\n",
  "sourcePath": "/Users/rokrokss/workspace/hyein/BEB-05-JMT/contract/contracts/MapleUser.sol",
  "compiler": {
    "name": "solc",
    "version": "0.8.17+commit.8df45f5f.Emscripten.clang"
  },
  "schemaVersion": "3.4.10",
  "updatedAt": "2022-09-27T23:32:54.045Z",
  "devdoc": {
    "kind": "dev",
    "methods": {
      "owner()": {
        "details": "Returns the address of the current owner."
      },
      "renounceOwnership()": {
        "details": "Leaves the contract without owner. It will not be possible to call `onlyOwner` functions anymore. Can only be called by the current owner. NOTE: Renouncing ownership will leave the contract without an owner, thereby removing any functionality that is only available to the owner."
      },
      "transferOwnership(address)": {
        "details": "Transfers ownership of the contract to a new account (`newOwner`). Can only be called by the current owner."
      }
    },
    "version": 1
  },
  "userdoc": {
    "kind": "user",
    "methods": {},
    "version": 1
  }
}