{
  "contractName": "MapleFight",
  "abi": [
    {
      "inputs": [
        {
          "internalType": "address",
          "name": "_addr",
          "type": "address"
        },
        {
          "internalType": "uint256",
          "name": "_userstrength",
          "type": "uint256"
        },
        {
          "internalType": "uint256",
          "name": "_matchingstrength",
          "type": "uint256"
        }
      ],
      "name": "setFight",
      "outputs": [],
      "stateMutability": "nonpayable",
      "type": "function"
    },
    {
      "inputs": [],
      "name": "getFight",
      "outputs": [
        {
          "internalType": "string",
          "name": "",
          "type": "string"
        }
      ],
      "stateMutability": "view",
      "type": "function",
      "constant": true
    }
  ],
  "bytecode": "0x608060405260008055600a600155603260025534801561001e57600080fd5b506105e58061002e6000396000f3fe608060405234801561001057600080fd5b50600436106100365760003560e01c8063975486191461003b578063c4001e6514610059575b600080fd5b61004361006e565b6040516100509190610350565b60405180910390f35b61006c61006736600461039e565b610100565b005b60606003805461007d906103ec565b80601f01602080910402602001604051908101604052809291908181526020018280546100a9906103ec565b80156100f65780601f106100cb576101008083540402835291602001916100f6565b820191906000526020600020905b8154815290600101906020018083116100d957829003601f168201915b5050505050905090565b3373ffffffffffffffffffffffffffffffffffffffff841614610183576040517f08c379a000000000000000000000000000000000000000000000000000000000815260206004820152601160248201527f496e636f72726563742041646472657373000000000000000000000000000000604482015260640160405180910390fd5b600061018f60646102df565b9050818311156101e05760408051808201909152600b81527f557365722057696e21212100000000000000000000000000000000000000000060208201526003906101da908261048b565b506102d9565b600154811161026c576101f4826001610561565b925081831015610228576040518060400160405280600c81526020016b2ab9b2b9102637b9b297171760a11b81525061025f565b6040518060400160405280601481526020017f55736572206472616d617469632057696e2021210000000000000000000000008152505b6003906101da908261048b565b8183036102a757600254811115610228576040518060400160405280600c81526020016b2ab9b2b9102637b9b297171760a11b81525061025f565b60408051808201909152600c81526b2ab9b2b9102637b9b297171760a11b60208201526003906102d7908261048b565b505b50505050565b6000805481806102ee83610574565b9091555050600054604080514260208201526bffffffffffffffffffffffff193360601b1691810191909152605481019190915282906074016040516020818303038152906040528051906020012060001c61034a919061058d565b92915050565b600060208083528351808285015260005b8181101561037d57858101830151858201604001528201610361565b506000604082860101526040601f19601f8301168501019250505092915050565b6000806000606084860312156103b357600080fd5b833573ffffffffffffffffffffffffffffffffffffffff811681146103d757600080fd5b95602085013595506040909401359392505050565b600181811c9082168061040057607f821691505b60208210810361042057634e487b7160e01b600052602260045260246000fd5b50919050565b634e487b7160e01b600052604160045260246000fd5b601f82111561048657600081815260208120601f850160051c810160208610156104635750805b601f850160051c820191505b818110156104825782815560010161046f565b5050505b505050565b815167ffffffffffffffff8111156104a5576104a5610426565b6104b9816104b384546103ec565b8461043c565b602080601f8311600181146104ee57600084156104d65750858301515b600019600386901b1c1916600185901b178555610482565b600085815260208120601f198616915b8281101561051d578886015182559484019460019091019084016104fe565b508582101561053b5787850151600019600388901b60f8161c191681555b5050505050600190811b01905550565b634e487b7160e01b600052601160045260246000fd5b8082018082111561034a5761034a61054b565b6000600182016105865761058661054b565b5060010190565b6000826105aa57634e487b7160e01b600052601260045260246000fd5b50069056fea26469706673582212203b11bd979be395baf3f750491464290b08046b911e09faa8b902073c46bb06bb64736f6c63430008110033",
  "immutableReferences": {},
  "source": "// SPDX-License-Identifier: MIT\npragma solidity ^0.8.0;\n\ncontract MapleFight {\n    uint randNum = 0;\n    uint rewardProbability = 10;\n    uint rewardProbability2 = 50;\n    string result;\n\n    function randMod(uint _modulus) internal returns(uint) { // \n        randNum++;\n        return uint(keccak256(abi.encodePacked(block.timestamp, msg.sender, randNum))) % _modulus;\n    }\n\n    function setFight(address _addr, uint _userstrength, uint _matchingstrength) public {\n        require( msg.sender == _addr, \"Incorrect Address\");\n        uint rand = randMod(100);\n        if ( _userstrength > _matchingstrength ) {\n            result = \"User Win!!!\";\n        } else if ( rand <= rewardProbability ) { // 10%    \n            _userstrength = _matchingstrength + 1;\n            result = (_userstrength >= _matchingstrength? \"User dramatic Win !!\": \"User Lose...\");\n        } else if (_userstrength == _matchingstrength) {  //  , 50% \n            result = ( rand <= rewardProbability2 ? \"User dramatic Win !!\": \"User Lose...\");\n        } else {\n            result = \"User Lose...\";\n        }\n    } \n\n    function getFight() public view returns(string memory) {\n        return result;\n    }\n}",
  "sourcePath": "/Users/hyenne/workspace/BEB-05-JMT/contract/contracts/MapleFight.sol",
  "compiler": {
    "name": "solc",
    "version": "0.8.17+commit.8df45f5f.Emscripten.clang"
  },
  "schemaVersion": "3.4.9",
  "updatedAt": "2022-09-27T19:29:05.311Z",
  "networkType": "ethereum",
  "devdoc": {
    "kind": "dev",
    "methods": {},
    "version": 1
  },
  "userdoc": {
    "kind": "user",
    "methods": {},
    "version": 1
  }
}