{
  "contractName": "MapleMarket",
  "abi": [
    {
      "inputs": [
        {
          "internalType": "address",
          "name": "_tokenContractAddress",
          "type": "address"
        },
        {
          "internalType": "address payable",
          "name": "_treasuryWallet",
          "type": "address"
        }
      ],
      "stateMutability": "nonpayable",
      "type": "constructor"
    },
    {
      "anonymous": false,
      "inputs": [
        {
          "indexed": false,
          "internalType": "uint256",
          "name": "tokenId",
          "type": "uint256"
        },
        {
          "indexed": false,
          "internalType": "uint256",
          "name": "itemId",
          "type": "uint256"
        },
        {
          "indexed": false,
          "internalType": "address",
          "name": "seller",
          "type": "address"
        },
        {
          "indexed": false,
          "internalType": "uint256",
          "name": "price",
          "type": "uint256"
        }
      ],
      "name": "ItemCreated",
      "type": "event"
    },
    {
      "anonymous": false,
      "inputs": [
        {
          "indexed": false,
          "internalType": "uint256",
          "name": "tokenId",
          "type": "uint256"
        },
        {
          "indexed": false,
          "internalType": "uint256",
          "name": "itemId",
          "type": "uint256"
        },
        {
          "indexed": false,
          "internalType": "address",
          "name": "seller",
          "type": "address"
        },
        {
          "indexed": false,
          "internalType": "address",
          "name": "buyer",
          "type": "address"
        },
        {
          "indexed": false,
          "internalType": "uint256",
          "name": "price",
          "type": "uint256"
        }
      ],
      "name": "ItemSold",
      "type": "event"
    },
    {
      "anonymous": false,
      "inputs": [
        {
          "indexed": true,
          "internalType": "address",
          "name": "previousOwner",
          "type": "address"
        },
        {
          "indexed": true,
          "internalType": "address",
          "name": "newOwner",
          "type": "address"
        }
      ],
      "name": "OwnershipTransferred",
      "type": "event"
    },
    {
      "anonymous": false,
      "inputs": [
        {
          "indexed": false,
          "internalType": "uint256",
          "name": "tokenId",
          "type": "uint256"
        },
        {
          "indexed": false,
          "internalType": "uint256",
          "name": "itemId",
          "type": "uint256"
        },
        {
          "indexed": false,
          "internalType": "address",
          "name": "seller",
          "type": "address"
        }
      ],
      "name": "SaleCanceled",
      "type": "event"
    },
    {
      "inputs": [],
      "name": "owner",
      "outputs": [
        {
          "internalType": "address",
          "name": "",
          "type": "address"
        }
      ],
      "stateMutability": "view",
      "type": "function",
      "constant": true
    },
    {
      "inputs": [],
      "name": "renounceOwnership",
      "outputs": [],
      "stateMutability": "nonpayable",
      "type": "function"
    },
    {
      "inputs": [
        {
          "internalType": "address",
          "name": "newOwner",
          "type": "address"
        }
      ],
      "name": "transferOwnership",
      "outputs": [],
      "stateMutability": "nonpayable",
      "type": "function"
    },
    {
      "inputs": [
        {
          "internalType": "address",
          "name": "_userContract",
          "type": "address"
        }
      ],
      "name": "setUserContractAddress",
      "outputs": [],
      "stateMutability": "nonpayable",
      "type": "function"
    },
    {
      "inputs": [
        {
          "internalType": "address",
          "name": "_contractAddr",
          "type": "address"
        },
        {
          "internalType": "uint256",
          "name": "_tokenId",
          "type": "uint256"
        },
        {
          "internalType": "uint256",
          "name": "_price",
          "type": "uint256"
        }
      ],
      "name": "sell",
      "outputs": [],
      "stateMutability": "nonpayable",
      "type": "function"
    },
    {
      "inputs": [
        {
          "internalType": "address",
          "name": "_contractAddr",
          "type": "address"
        },
        {
          "internalType": "uint256",
          "name": "_tokenId",
          "type": "uint256"
        },
        {
          "internalType": "uint256",
          "name": "_price",
          "type": "uint256"
        }
      ],
      "name": "sellWeapon",
      "outputs": [],
      "stateMutability": "nonpayable",
      "type": "function"
    },
    {
      "inputs": [
        {
          "internalType": "address",
          "name": "_contractAddr",
          "type": "address"
        },
        {
          "internalType": "uint256",
          "name": "_itemId",
          "type": "uint256"
        }
      ],
      "name": "saleCancel",
      "outputs": [],
      "stateMutability": "nonpayable",
      "type": "function"
    },
    {
      "inputs": [
        {
          "internalType": "address",
          "name": "_contractAddr",
          "type": "address"
        },
        {
          "internalType": "uint256",
          "name": "_itemId",
          "type": "uint256"
        }
      ],
      "name": "saleCancelWeapon",
      "outputs": [],
      "stateMutability": "nonpayable",
      "type": "function"
    },
    {
      "inputs": [
        {
          "internalType": "address",
          "name": "_contractAddr",
          "type": "address"
        },
        {
          "internalType": "uint256",
          "name": "_itemId",
          "type": "uint256"
        }
      ],
      "name": "buy",
      "outputs": [],
      "stateMutability": "nonpayable",
      "type": "function"
    },
    {
      "inputs": [
        {
          "internalType": "address",
          "name": "_contractAddr",
          "type": "address"
        },
        {
          "internalType": "uint256",
          "name": "_itemId",
          "type": "uint256"
        }
      ],
      "name": "buyWeapon",
      "outputs": [],
      "stateMutability": "nonpayable",
      "type": "function"
    },
    {
      "inputs": [],
      "name": "fetchCharOnSale",
      "outputs": [
        {
          "components": [
            {
              "internalType": "uint256",
              "name": "itemId",
              "type": "uint256"
            },
            {
              "components": [
                {
                  "internalType": "address",
                  "name": "contractAddr",
                  "type": "address"
                },
                {
                  "internalType": "uint256",
                  "name": "tokenId",
                  "type": "uint256"
                }
              ],
              "internalType": "struct MapleMarket.Token",
              "name": "token",
              "type": "tuple"
            },
            {
              "internalType": "address payable",
              "name": "seller",
              "type": "address"
            },
            {
              "internalType": "uint256",
              "name": "price",
              "type": "uint256"
            },
            {
              "internalType": "enum MapleMarket.ItemStatus",
              "name": "itemStatus",
              "type": "uint8"
            }
          ],
          "internalType": "struct MapleMarket.MarketItem[]",
          "name": "",
          "type": "tuple[]"
        }
      ],
      "stateMutability": "view",
      "type": "function",
      "constant": true
    },
    {
      "inputs": [],
      "name": "fetchWeaponOnSale",
      "outputs": [
        {
          "components": [
            {
              "internalType": "uint256",
              "name": "itemId",
              "type": "uint256"
            },
            {
              "components": [
                {
                  "internalType": "address",
                  "name": "contractAddr",
                  "type": "address"
                },
                {
                  "internalType": "uint256",
                  "name": "tokenId",
                  "type": "uint256"
                }
              ],
              "internalType": "struct MapleMarket.Token",
              "name": "token",
              "type": "tuple"
            },
            {
              "internalType": "address payable",
              "name": "seller",
              "type": "address"
            },
            {
              "internalType": "uint256",
              "name": "price",
              "type": "uint256"
            },
            {
              "internalType": "enum MapleMarket.ItemStatus",
              "name": "itemStatus",
              "type": "uint8"
            }
          ],
          "internalType": "struct MapleMarket.MarketItem[]",
          "name": "",
          "type": "tuple[]"
        }
      ],
      "stateMutability": "view",
      "type": "function",
      "constant": true
    },
    {
      "inputs": [],
      "name": "fetchMyItemsOnSale",
      "outputs": [
        {
          "components": [
            {
              "internalType": "uint256",
              "name": "itemId",
              "type": "uint256"
            },
            {
              "components": [
                {
                  "internalType": "address",
                  "name": "contractAddr",
                  "type": "address"
                },
                {
                  "internalType": "uint256",
                  "name": "tokenId",
                  "type": "uint256"
                }
              ],
              "internalType": "struct MapleMarket.Token",
              "name": "token",
              "type": "tuple"
            },
            {
              "internalType": "address payable",
              "name": "seller",
              "type": "address"
            },
            {
              "internalType": "uint256",
              "name": "price",
              "type": "uint256"
            },
            {
              "internalType": "enum MapleMarket.ItemStatus",
              "name": "itemStatus",
              "type": "uint8"
            }
          ],
          "internalType": "struct MapleMarket.MarketItem[]",
          "name": "",
          "type": "tuple[]"
        }
      ],
      "stateMutability": "view",
      "type": "function",
      "constant": true
    },
    {
      "inputs": [
        {
          "internalType": "address",
          "name": "",
          "type": "address"
        },
        {
          "internalType": "address",
          "name": "",
          "type": "address"
        },
        {
          "internalType": "uint256",
          "name": "",
          "type": "uint256"
        },
        {
          "internalType": "uint256",
          "name": "",
          "type": "uint256"
        },
        {
          "internalType": "bytes",
          "name": "",
          "type": "bytes"
        }
      ],
      "name": "onERC1155Received",
      "outputs": [
        {
          "internalType": "bytes4",
          "name": "",
          "type": "bytes4"
        }
      ],
      "stateMutability": "nonpayable",
      "type": "function"
    },
    {
      "inputs": [
        {
          "internalType": "address",
          "name": "",
          "type": "address"
        },
        {
          "internalType": "address",
          "name": "",
          "type": "address"
        },
        {
          "internalType": "uint256[]",
          "name": "",
          "type": "uint256[]"
        },
        {
          "internalType": "uint256[]",
          "name": "",
          "type": "uint256[]"
        },
        {
          "internalType": "bytes",
          "name": "",
          "type": "bytes"
        }
      ],
      "name": "onERC1155BatchReceived",
      "outputs": [
        {
          "internalType": "bytes4",
          "name": "",
          "type": "bytes4"
        }
      ],
      "stateMutability": "nonpayable",
      "type": "function"
    },
    {
      "inputs": [
        {
          "internalType": "address",
          "name": "",
          "type": "address"
        },
        {
          "internalType": "address",
          "name": "",
          "type": "address"
        },
        {
          "internalType": "uint256",
          "name": "",
          "type": "uint256"
        },
        {
          "internalType": "bytes",
          "name": "",
          "type": "bytes"
        }
      ],
      "name": "onERC721Received",
      "outputs": [
        {
          "internalType": "bytes4",
          "name": "",
          "type": "bytes4"
        }
      ],
      "stateMutability": "nonpayable",
      "type": "function"
    }
  ],
  "bytecode": "0x6080604052670de0b6b3a76400006005553480156200001d57600080fd5b50604051620022c5380380620022c583398101604081905262000040916200018d565b6200004b336200007e565b6200005682620000ce565b50600780546001600160a01b0319166001600160a01b039290921691909117905550620001cc565b600080546001600160a01b038381166001600160a01b0319831681178455604051919092169283917f8be0079c531659141344cd1fd0a4f28419497f9722a3daafe3b4186f6b6457e09190a35050565b6000620000da62000113565b6001600160a01b038216620000ee57600080fd5b50600680546001600160a01b0383166001600160a01b03199091161790556001919050565b6000546001600160a01b03163314620001725760405162461bcd60e51b815260206004820181905260248201527f4f776e61626c653a2063616c6c6572206973206e6f7420746865206f776e6572604482015260640160405180910390fd5b565b6001600160a01b03811681146200018a57600080fd5b50565b60008060408385031215620001a157600080fd5b8251620001ae8162000174565b6020840151909250620001c18162000174565b809150509250929050565b6120e980620001dc6000396000f3fe608060405234801561001057600080fd5b50600436106101005760003560e01c8063980d560111610097578063cce7ec1311610066578063cce7ec1314610246578063f23a6e6114610259578063f2fde38b14610291578063fc873237146102a457600080fd5b8063980d5601146101de578063a45669e9146101f3578063ae9eb1ed14610206578063bc197c811461020e57600080fd5b80634c312e11116100d35780634c312e11146101955780636a272462146101a8578063715018a6146101bb5780638da5cb5b146101c357600080fd5b8063076c34e514610105578063150b7a021461011a5780631697e40b1461016f5780631d7e37ad14610182575b600080fd5b610118610113366004611bb6565b6102ac565b005b610151610128366004611ca2565b7f150b7a0200000000000000000000000000000000000000000000000000000000949350505050565b6040516001600160e01b031990911681526020015b60405180910390f35b61011861017d366004611d0e565b61058f565b610118610190366004611d3a565b61074f565b6101186101a3366004611d0e565b6107df565b6101186101b6366004611bb6565b610c5c565b610118610eb7565b6000546040516001600160a01b039091168152602001610166565b6101e6610ecb565b6040516101669190611d74565b610118610201366004611d0e565b611067565b6101e66111fc565b61015161021c366004611e9a565b7fbc197c810000000000000000000000000000000000000000000000000000000095945050505050565b610118610254366004611d0e565b611419565b610151610267366004611f48565b7ff23a6e610000000000000000000000000000000000000000000000000000000095945050505050565b61011861029f366004611d3a565b611874565b6101e6611904565b6040517efdd58e000000000000000000000000000000000000000000000000000000008152336004820152602481018390526001600160a01b0384169062fdd58e90604401602060405180830381865afa15801561030e573d6000803e3d6000fd5b505050506040513d601f19601f820116820180604052508101906103329190611fb1565b6000036103865760405162461bcd60e51b815260206004820152601a60248201527f6f6e6c79206f776e6572732063616e2073656c6c206974656d7300000000000060448201526064015b60405180910390fd5b600081116103d65760405162461bcd60e51b815260206004820152601860248201527f5072696365206d7573742062652061626f7665207a65726f0000000000000000604482015260640161037d565b6103e4600380546001019055565b60006103ef60035490565b6040805160a081018252828152815180830183526001600160a01b03888116825260208083018990528084019283523384860190815260608501898152600060808701818152898252600a855297902086518155945180516001808801805492881673ffffffffffffffffffffffffffffffffffffffff1993841617905591909401516002808801919091559251600387018054919096169416939093179093559151600484015593516005830180549697509395929490939260ff19169184908111156104bf576104bf611d5e565b021790555050604051637921219560e11b8152336004820152306024820152604481018590526001606482015260a06084820152600060a48201526001600160a01b038616915063f242432a9060c4015b600060405180830381600087803b15801561052a57600080fd5b505af115801561053e573d6000803e3d6000fd5b5050604080518681526020810185905233818301526060810186905290517f8b583604758a4c6c995171787709d2caa670e019b68bfb687d2c9fa77e5380599350908190036080019150a150505050565b6000818152600960205260409020600301546001600160a01b031633146105f85760405162461bcd60e51b815260206004820152601660248201527f6f6e6c792073656c6c65722063616e2063616e63656c00000000000000000000604482015260640161037d565b60008181526009602052604090206005015460ff16600281111561061e5761061e611d5e565b1561066b5760405162461bcd60e51b815260206004820152601360248201527f6974656d206973206e6f74206f6e2073616c6500000000000000000000000000604482015260640161037d565b600081815260096020526040908190206002015490516323b872dd60e01b8152306004820152336024820152604481018290526001600160a01b038416906323b872dd90606401600060405180830381600087803b1580156106cc57600080fd5b505af11580156106e0573d6000803e3d6000fd5b5050506000838152600960205260409020600501805460ff1916600290811790915580546001019055505b6040805182815260208101849052338183015290517fd3bffea3a9501b0422f789f4c0797d9cdcb9e89dd65de11b04e9b0079ea4e2a79181900360600190a1505050565b610757611a97565b6008546001600160a01b0316156107b05760405162461bcd60e51b815260206004820152600b60248201527f57524954455f4f4e434521000000000000000000000000000000000000000000604482015260640161037d565b6008805473ffffffffffffffffffffffffffffffffffffffff19166001600160a01b0392909216919091179055565b6000818152600a60205260408120600401546005549091906064906108049084611fe0565b61080f90600a611fe0565b6108199190611ffd565b90506000816005548461082c9190611fe0565b610836919061201f565b6000858152600a602052604081206002015460065460055493945090926001600160a01b039091169063d83a2bf39033903090610873908a611fe0565b6040516001600160e01b031960e086901b1681526001600160a01b03938416600482015292909116602483015260448201526064016020604051808303816000875af11580156108c7573d6000803e3d6000fd5b505050506040513d601f19601f820116820180604052508101906108eb9190612032565b90508061093a5760405162461bcd60e51b815260206004820152601560248201527f496e637265617365436f6e7472616374204661696c0000000000000000000000604482015260640161037d565b6006546007546040516323b872dd60e01b81523360048201526001600160a01b039182166024820152604481018790529116906323b872dd906064016020604051808303816000875af1158015610995573d6000803e3d6000fd5b505050506040513d601f19601f820116820180604052508101906109b99190612032565b506006546007546001600160a01b0391821691631d057bd991166109de600288611ffd565b6040516001600160e01b031960e085901b1681526001600160a01b0390921660048301526024820152604401600060405180830381600087803b158015610a2457600080fd5b505af1158015610a38573d6000803e3d6000fd5b50506008546001600160a01b0316915063a3469f7490506064610a5c600288611ffd565b610a6790600a611fe0565b610a719190611ffd565b6040518263ffffffff1660e01b8152600401610a8f91815260200190565b600060405180830381600087803b158015610aa957600080fd5b505af1158015610abd573d6000803e3d6000fd5b50506006546000898152600a6020526040908190206003015490516323b872dd60e01b81523360048201526001600160a01b03918216602482015260448101889052911692506323b872dd91506064016020604051808303816000875af1158015610b2c573d6000803e3d6000fd5b505050506040513d601f19601f82011682018060405250810190610b509190612032565b50604051637921219560e11b8152306004820152336024820152604481018390526001606482015260a06084820152600060a48201526001600160a01b0388169063f242432a9060c401600060405180830381600087803b158015610bb457600080fd5b505af1158015610bc8573d6000803e3d6000fd5b5050506000878152600a602090815260409182902060058101805460ff191660019081179091556004805490910190556003015482518681529182018a90526001600160a01b031691810191909152336060820152608081018790527f636c891e1c595c5879015e9f0767c0138ec002c115fa5425d3a585252e13a1ed915060a0015b60405180910390a150505050505050565b6040517f6352211e000000000000000000000000000000000000000000000000000000008152600481018390526001600160a01b03841690636352211e90602401602060405180830381865afa158015610cba573d6000803e3d6000fd5b505050506040513d601f19601f82011682018060405250810190610cde9190612054565b6001600160a01b0316336001600160a01b031614610d3e5760405162461bcd60e51b815260206004820152601a60248201527f6f6e6c79206f776e6572732063616e2073656c6c206974656d73000000000000604482015260640161037d565b60008111610d8e5760405162461bcd60e51b815260206004820152601860248201527f5072696365206d7573742062652061626f7665207a65726f0000000000000000604482015260640161037d565b610d9c600180546001019055565b6000610da760015490565b6040805160a081018252828152815180830183526001600160a01b038881168252602080830189905280840192835233848601908152606085018981526000608087018181528982526009855297902086518155945180516001808801805492881673ffffffffffffffffffffffffffffffffffffffff1993841617905591909401516002808801919091559251600387018054919096169416939093179093559151600484015593516005830180549697509395929490939260ff1916918490811115610e7757610e77611d5e565b0217905550506040516323b872dd60e01b8152336004820152306024820152604481018590526001600160a01b03861691506323b872dd90606401610510565b610ebf611a97565b610ec96000611af1565b565b60606000610ed860035490565b90506000610ee560045490565b600354610ef2919061201f565b90506000808267ffffffffffffffff811115610f1057610f10611beb565b604051908082528060200260200182016040528015610f4957816020015b610f36611b4e565b815260200190600190039081610f2e5790505b50905060015b84811161105e576000818152600a602052604081206005015460ff166002811115610f7c57610f7c611d5e565b0361104c576000818152600a602090815260408083205480845292819020815160a081018352815481528251808401845260018301546001600160a01b03908116825260028085015483880152958301919091526003830154169281019290925260048101546060830152600581015490928391608084019160ff9091169081111561100a5761100a611d5e565b600281111561101b5761101b611d5e565b8152505084868151811061103157611031612071565b6020908102919091010152611047600186612087565b945050505b806110568161209a565b915050610f4f565b50949350505050565b6000818152600a60205260409020600301546001600160a01b031633146110d05760405162461bcd60e51b815260206004820152601660248201527f6f6e6c792073656c6c65722063616e2063616e63656c00000000000000000000604482015260640161037d565b6000818152600a602052604090206005015460ff1660028111156110f6576110f6611d5e565b156111435760405162461bcd60e51b815260206004820152601360248201527f6974656d206973206e6f74206f6e2073616c6500000000000000000000000000604482015260640161037d565b6000818152600a6020526040808220600201549051637921219560e11b8152306004820152336024820152604481018290526001606482015260a0608482015260a4810192909252906001600160a01b0384169063f242432a9060c401600060405180830381600087803b1580156111ba57600080fd5b505af11580156111ce573d6000803e3d6000fd5b5050506000838152600a60205260409020600501805460ff191660021790555060048054600101905561070b565b6060600061120960015490565b905060008060015b8381116112895760008181526009602052604081206005015460ff16600281111561123e5761123e611d5e565b14801561126457506000818152600960205260409020600301546001600160a01b031633145b1561127757611274600184612087565b92505b806112818161209a565b915050611211565b5060008267ffffffffffffffff8111156112a5576112a5611beb565b6040519080825280602002602001820160405280156112de57816020015b6112cb611b4e565b8152602001906001900390816112c35790505b50905060015b84811161105e5760008181526009602052604081206005015460ff16600281111561131157611311611d5e565b14801561133757506000818152600960205260409020600301546001600160a01b031633145b156114075760008181526009602090815260408083205480845292819020815160a081018352815481528251808401845260018301546001600160a01b03908116825260028085015483880152958301919091526003830154169281019290925260048101546060830152600581015490928391608084019160ff909116908111156113c5576113c5611d5e565b60028111156113d6576113d6611d5e565b815250508486815181106113ec576113ec612071565b6020908102919091010152611402600186612087565b945050505b806114118161209a565b9150506112e4565b60008181526009602052604081206004015460055490919060649061143e9084611fe0565b61144990600a611fe0565b6114539190611ffd565b9050600081600554846114669190611fe0565b611470919061201f565b60008581526009602052604081206002015460065460055493945090926001600160a01b039091169063d83a2bf390339030906114ad908a611fe0565b6040516001600160e01b031960e086901b1681526001600160a01b03938416600482015292909116602483015260448201526064016020604051808303816000875af1158015611501573d6000803e3d6000fd5b505050506040513d601f19601f820116820180604052508101906115259190612032565b9050806115745760405162461bcd60e51b815260206004820152601560248201527f496e637265617365436f6e7472616374204661696c0000000000000000000000604482015260640161037d565b6006546007546040516323b872dd60e01b81523360048201526001600160a01b039182166024820152604481018790529116906323b872dd906064016020604051808303816000875af11580156115cf573d6000803e3d6000fd5b505050506040513d601f19601f820116820180604052508101906115f39190612032565b506006546007546001600160a01b0391821691631d057bd99116611618600288611ffd565b6040516001600160e01b031960e085901b1681526001600160a01b0390921660048301526024820152604401600060405180830381600087803b15801561165e57600080fd5b505af1158015611672573d6000803e3d6000fd5b50506008546001600160a01b0316915063a3469f7490506064611696600288611ffd565b6116a190600a611fe0565b6116ab9190611ffd565b6040518263ffffffff1660e01b81526004016116c991815260200190565b600060405180830381600087803b1580156116e357600080fd5b505af11580156116f7573d6000803e3d6000fd5b5050600654600089815260096020526040908190206003015490516323b872dd60e01b81523360048201526001600160a01b03918216602482015260448101889052911692506323b872dd91506064016020604051808303816000875af1158015611766573d6000803e3d6000fd5b505050506040513d601f19601f8201168201806040525081019061178a9190612032565b506040516323b872dd60e01b8152306004820152336024820152604481018390526001600160a01b038816906323b872dd90606401600060405180830381600087803b1580156117d957600080fd5b505af11580156117ed573d6000803e3d6000fd5b50505060008781526009602090815260409182902060058101805460ff191660019081179091556002805490910190556003015482518681529182018a90526001600160a01b031691810191909152336060820152608081018790527f636c891e1c595c5879015e9f0767c0138ec002c115fa5425d3a585252e13a1ed915060a001610c4b565b61187c611a97565b6001600160a01b0381166118f85760405162461bcd60e51b815260206004820152602660248201527f4f776e61626c653a206e6577206f776e657220697320746865207a65726f206160448201527f6464726573730000000000000000000000000000000000000000000000000000606482015260840161037d565b61190181611af1565b50565b6060600061191160015490565b9050600061191e60025490565b60015461192b919061201f565b90506000808267ffffffffffffffff81111561194957611949611beb565b60405190808252806020026020018201604052801561198257816020015b61196f611b4e565b8152602001906001900390816119675790505b50905060015b84811161105e5760008181526009602052604081206005015460ff1660028111156119b5576119b5611d5e565b03611a855760008181526009602090815260408083205480845292819020815160a081018352815481528251808401845260018301546001600160a01b03908116825260028085015483880152958301919091526003830154169281019290925260048101546060830152600581015490928391608084019160ff90911690811115611a4357611a43611d5e565b6002811115611a5457611a54611d5e565b81525050848681518110611a6a57611a6a612071565b6020908102919091010152611a80600186612087565b945050505b80611a8f8161209a565b915050611988565b6000546001600160a01b03163314610ec95760405162461bcd60e51b815260206004820181905260248201527f4f776e61626c653a2063616c6c6572206973206e6f7420746865206f776e6572604482015260640161037d565b600080546001600160a01b0383811673ffffffffffffffffffffffffffffffffffffffff19831681178455604051919092169283917f8be0079c531659141344cd1fd0a4f28419497f9722a3daafe3b4186f6b6457e09190a35050565b6040518060a0016040528060008152602001611b86604051806040016040528060006001600160a01b03168152602001600081525090565b81526000602082018190526040820181905260609091015290565b6001600160a01b038116811461190157600080fd5b600080600060608486031215611bcb57600080fd5b8335611bd681611ba1565b95602085013595506040909401359392505050565b634e487b7160e01b600052604160045260246000fd5b604051601f8201601f1916810167ffffffffffffffff81118282101715611c2a57611c2a611beb565b604052919050565b600082601f830112611c4357600080fd5b813567ffffffffffffffff811115611c5d57611c5d611beb565b611c70601f8201601f1916602001611c01565b818152846020838601011115611c8557600080fd5b816020850160208301376000918101602001919091529392505050565b60008060008060808587031215611cb857600080fd5b8435611cc381611ba1565b93506020850135611cd381611ba1565b925060408501359150606085013567ffffffffffffffff811115611cf657600080fd5b611d0287828801611c32565b91505092959194509250565b60008060408385031215611d2157600080fd5b8235611d2c81611ba1565b946020939093013593505050565b600060208284031215611d4c57600080fd5b8135611d5781611ba1565b9392505050565b634e487b7160e01b600052602160045260246000fd5b60208082528251828201819052600091906040908185019086840185805b83811015611e0c578251805186528781015180516001600160a01b039081168a89015290890151888801528782015116606080880191909152810151608080880191909152015160038110611df557634e487b7160e01b83526021600452602483fd5b60a086015260c09094019391860191600101611d92565b509298975050505050505050565b600082601f830112611e2b57600080fd5b8135602067ffffffffffffffff821115611e4757611e47611beb565b8160051b611e56828201611c01565b9283528481018201928281019087851115611e7057600080fd5b83870192505b84831015611e8f57823582529183019190830190611e76565b979650505050505050565b600080600080600060a08688031215611eb257600080fd5b8535611ebd81611ba1565b94506020860135611ecd81611ba1565b9350604086013567ffffffffffffffff80821115611eea57600080fd5b611ef689838a01611e1a565b94506060880135915080821115611f0c57600080fd5b611f1889838a01611e1a565b93506080880135915080821115611f2e57600080fd5b50611f3b88828901611c32565b9150509295509295909350565b600080600080600060a08688031215611f6057600080fd5b8535611f6b81611ba1565b94506020860135611f7b81611ba1565b93506040860135925060608601359150608086013567ffffffffffffffff811115611fa557600080fd5b611f3b88828901611c32565b600060208284031215611fc357600080fd5b5051919050565b634e487b7160e01b600052601160045260246000fd5b8082028115828204841417611ff757611ff7611fca565b92915050565b60008261201a57634e487b7160e01b600052601260045260246000fd5b500490565b81810381811115611ff757611ff7611fca565b60006020828403121561204457600080fd5b81518015158114611d5757600080fd5b60006020828403121561206657600080fd5b8151611d5781611ba1565b634e487b7160e01b600052603260045260246000fd5b80820180821115611ff757611ff7611fca565b6000600182016120ac576120ac611fca565b506001019056fea264697066735822122087d99c0923eabfde1dbda3844d0bef1df8e53b8a5d8c38a4d8e650516762513e64736f6c63430008110033",
  "immutableReferences": {},
  "source": "// SPDX-License-Identifier: MIT\npragma solidity ^0.8.7;\n\nimport \"@openzeppelin/contracts/token/ERC721/ERC721.sol\";\nimport \"@openzeppelin/contracts/token/ERC1155/ERC1155.sol\";\nimport \"@openzeppelin/contracts/token/ERC1155/IERC1155Receiver.sol\";\nimport \"@openzeppelin/contracts/access/Ownable.sol\";\nimport \"@openzeppelin/contracts/utils/Counters.sol\";\nimport \"./JMToken.sol\";\nimport \"./MapleUser.sol\";\n\ncontract MapleMarket is Ownable {\n    using Counters for Counters.Counter;\n    Counters.Counter private _charIds;\n    Counters.Counter private _charSoldOrCanceled;\n    Counters.Counter private _weaponIds;\n    Counters.Counter private _weaponSoldOrCanceled;\n    uint256 decimals = 10**18;\n    JMToken private token;\n    address payable private treasuryWallet;\n    address payable private userContract;\n    constructor (\n        address _tokenContractAddress,\n        address payable _treasuryWallet\n    ) {\n        _setToken(_tokenContractAddress);\n        treasuryWallet = _treasuryWallet;\n    }\n\n    mapping(uint256 => MarketItem) idMarketChar;\n    mapping(uint256 => MarketItem) idMarketWeapon;\n\n    enum ItemStatus {  \n        ON_SALE, SOLD, SALE_CANCELED\n    }\n\n    struct Token {\n        address contractAddr;\n        uint256 tokenId;\n    }\n\n    struct MarketItem {\n        uint256 itemId;\n        Token token;\n        address payable seller;\n        uint256 price;\n        ItemStatus itemStatus;\n    }\n\n    event ItemCreated (\n        uint256 tokenId,\n        uint256 itemId,\n        address seller,\n        uint256 price\n    );\n\n    event ItemSold (\n        uint256 tokenId,\n        uint256 itemId,\n        address seller,\n        address buyer,\n        uint256 price\n    );\n\n    event SaleCanceled (\n        uint256 tokenId,\n        uint256 itemId,\n        address seller\n    );\n\n    function setUserContractAddress(address _userContract) external onlyOwner {\n        require(address(userContract) == address(0), \"WRITE_ONCE!\");\n        userContract = payable(_userContract);\n    }\n\n    function _setToken(address _tokenAddress) private onlyOwner returns (bool) {\n        require(_tokenAddress != address(0x0));\n        token = JMToken(_tokenAddress);\n        return true;\n    }\n\n    function sell(\n        address _contractAddr,\n        uint256 _tokenId,\n        uint256 _price\n    ) public {\n        require(msg.sender == ERC721(_contractAddr).ownerOf(_tokenId),  \"only owners can sell items\");\n        require(_price > 0, \"Price must be above zero\");\n\n        _charIds.increment();\n        uint256 itemId = _charIds.current();\n\n        idMarketChar[itemId] = MarketItem({\n            itemId: itemId,\n            token: Token({\n                contractAddr: _contractAddr,\n                tokenId: _tokenId\n            }),\n            seller: payable(msg.sender),\n            price: _price,\n            itemStatus: ItemStatus.ON_SALE\n        });\n\n        ERC721(_contractAddr).transferFrom(msg.sender, address(this), _tokenId);\n\n        emit ItemCreated(\n            _tokenId,\n            itemId,\n            msg.sender,\n            _price\n        );\n    }\n\n    function sellWeapon(\n        address _contractAddr,\n        uint256 _tokenId,\n        uint256 _price\n    ) public {\n        require(ERC1155(_contractAddr).balanceOf(msg.sender, _tokenId)!=0,  \"only owners can sell items\");\n        require(_price > 0, \"Price must be above zero\");\n\n        _weaponIds.increment();\n        uint256 itemId = _weaponIds.current();\n\n        idMarketWeapon[itemId] = MarketItem({\n            itemId: itemId,\n            token: Token({\n                contractAddr: _contractAddr,\n                tokenId: _tokenId\n            }),\n            seller: payable(msg.sender),\n            price: _price,\n            itemStatus: ItemStatus.ON_SALE\n        });\n\n        ERC1155(_contractAddr).safeTransferFrom(msg.sender, address(this), _tokenId, 1, \"\");\n\n        emit ItemCreated(\n            _tokenId,\n            itemId,\n            msg.sender,\n            _price\n        );\n    }\n\n    function saleCancel(\n        address _contractAddr,\n        uint256 _itemId\n    ) public {\n        require(msg.sender == idMarketChar[_itemId].seller, \"only seller can cancel\");\n        require(ItemStatus.ON_SALE == idMarketChar[_itemId].itemStatus, \"item is not on sale\");\n\n        uint tokenId = idMarketChar[_itemId].token.tokenId;\n\n        ERC721(_contractAddr).transferFrom(address(this), msg.sender, tokenId);\n\n        idMarketChar[_itemId].itemStatus = ItemStatus.SALE_CANCELED;\n        _charSoldOrCanceled.increment();\n        \n\n        emit SaleCanceled(\n            tokenId,\n            _itemId,\n            msg.sender\n        );\n    }\n\n    function saleCancelWeapon(\n        address _contractAddr,\n        uint256 _itemId\n    ) public {\n        require(msg.sender == idMarketWeapon[_itemId].seller, \"only seller can cancel\");\n        require(ItemStatus.ON_SALE == idMarketWeapon[_itemId].itemStatus, \"item is not on sale\");\n\n        uint tokenId = idMarketWeapon[_itemId].token.tokenId;\n\n        ERC1155(_contractAddr).safeTransferFrom(address(this), msg.sender, tokenId, 1, \"\");\n\n        idMarketWeapon[_itemId].itemStatus = ItemStatus.SALE_CANCELED;\n        _weaponSoldOrCanceled.increment();\n        \n\n        emit SaleCanceled(\n            tokenId,\n            _itemId,\n            msg.sender\n        );\n    }\n\n    function buy(\n        address _contractAddr,\n        uint256 _itemId\n    ) public {\n        uint price = idMarketChar[_itemId].price;\n        uint fee = price * decimals * 10 / 100;\n        uint grant = price * decimals - fee;\n        uint tokenId = idMarketChar[_itemId].token.tokenId;\n\n        bool success = token.increaseContractAllowance(\n            msg.sender,\n            address(this),\n            price * decimals\n        );\n        require(success, \"IncreaseContract Fail\");\n        // treasury\n        token.transferFrom(msg.sender, treasuryWallet, fee);\n        token.marketBurn(treasuryWallet, fee/2);\n        MapleUser(userContract).setRankReward(fee/2*10/100);\n        // grant seller\n        token.transferFrom(msg.sender, idMarketChar[_itemId].seller, grant);\n\n        ERC721(_contractAddr).transferFrom(address(this), msg.sender, tokenId);\n        idMarketChar[_itemId].itemStatus = ItemStatus.SOLD;\n        _charSoldOrCanceled.increment();\n\n        emit ItemSold(\n            tokenId,\n            _itemId,\n            idMarketChar[_itemId].seller,\n            msg.sender,\n            price\n        );\n    }\n\n    function buyWeapon(\n        address _contractAddr,\n        uint256 _itemId\n    ) public {\n        uint price = idMarketWeapon[_itemId].price;\n        uint fee = price * decimals * 10 / 100;\n        uint grant = price * decimals - fee;\n        uint tokenId = idMarketWeapon[_itemId].token.tokenId;\n\n        bool success = token.increaseContractAllowance(\n            msg.sender,\n            address(this),\n            price * decimals\n        );\n        require(success, \"IncreaseContract Fail\");\n        // treasury\n        token.transferFrom(msg.sender, treasuryWallet, fee);\n        token.marketBurn(treasuryWallet, fee/2);\n        MapleUser(userContract).setRankReward(fee/2*10/100);\n        // grant seller\n        token.transferFrom(msg.sender, idMarketWeapon[_itemId].seller, grant);\n\n        ERC1155(_contractAddr).safeTransferFrom(address(this), msg.sender, tokenId, 1, \"\");\n        idMarketWeapon[_itemId].itemStatus = ItemStatus.SOLD;\n        _weaponSoldOrCanceled.increment();\n\n        emit ItemSold(\n            tokenId,\n            _itemId,\n            idMarketWeapon[_itemId].seller,\n            msg.sender,\n            price\n        );\n    }\n\n    function fetchCharOnSale() public view returns (MarketItem[] memory) {\n        uint itemCount = _charIds.current();\n        uint unsoldItemCount = _charIds.current() - _charSoldOrCanceled.current();\n        uint currentIndex = 0;\n\n        MarketItem[] memory items =  new MarketItem[](unsoldItemCount);\n\n        for (uint i = 1; i <= itemCount; i++) {\n            if (idMarketChar[i].itemStatus == ItemStatus.ON_SALE) {\n                uint currentId = idMarketChar[i].itemId;\n                MarketItem storage currentItem = idMarketChar[currentId];\n                items[currentIndex] = currentItem;\n                currentIndex += 1;\n            }\n        }\n        return items;\n    }\n\n    function fetchWeaponOnSale() public view returns (MarketItem[] memory) {\n        uint itemCount = _weaponIds.current();\n        uint unsoldItemCount = _weaponIds.current() - _weaponSoldOrCanceled.current();\n        uint currentIndex = 0;\n\n        MarketItem[] memory items =  new MarketItem[](unsoldItemCount);\n\n        for (uint i = 1; i <= itemCount; i++) {\n            if (idMarketWeapon[i].itemStatus == ItemStatus.ON_SALE) {\n                uint currentId = idMarketWeapon[i].itemId;\n                MarketItem storage currentItem = idMarketWeapon[currentId];\n                items[currentIndex] = currentItem;\n                currentIndex += 1;\n            }\n        }\n        return items;\n    }\n\n    function fetchMyItemsOnSale() public view returns (MarketItem[] memory) {\n        uint totalItemCount = _charIds.current();\n\n        uint itemCount = 0;\n        uint currentIndex = 0;\n\n        for (uint i = 1; i <= totalItemCount; i++) {\n            if (\n                idMarketChar[i].itemStatus == ItemStatus.ON_SALE\n                && idMarketChar[i].seller == msg.sender\n            ) {\n                itemCount += 1;\n            }\n        }\n\n        MarketItem[] memory items = new MarketItem[](itemCount);\n        for (uint i = 1; i <= totalItemCount; i++) {\n            if (\n                idMarketChar[i].itemStatus == ItemStatus.ON_SALE\n                && idMarketChar[i].seller == msg.sender\n            ) {\n                uint currentId = idMarketChar[i].itemId;\n                MarketItem storage currentItem = idMarketChar[currentId];\n                items[currentIndex] = currentItem;\n                currentIndex += 1;\n            }\n        }\n        return items;\n    }\n\n    function onERC1155Received(address, address, uint256, uint256, bytes memory) public virtual returns (bytes4) {\n        return this.onERC1155Received.selector;\n    }\n\n    function onERC1155BatchReceived(address, address, uint256[] memory, uint256[] memory, bytes memory) public virtual returns (bytes4) {\n        return this.onERC1155BatchReceived.selector;\n    }\n\n    function onERC721Received(address, address, uint256, bytes memory) public virtual returns (bytes4) {\n        return this.onERC721Received.selector;\n    }\n}\n",
  "sourcePath": "/Users/hyenne/workspace/BEB-05-JMT/contract/contracts/MapleMarket.sol",
  "compiler": {
    "name": "solc",
    "version": "0.8.17+commit.8df45f5f.Emscripten.clang"
  },
  "schemaVersion": "3.4.9",
  "updatedAt": "2022-09-28T02:02:02.415Z",
  "networkType": "ethereum",
  "devdoc": {
    "kind": "dev",
    "methods": {
      "owner()": {
        "details": "Returns the address of the current owner."
      },
      "renounceOwnership()": {
        "details": "Leaves the contract without owner. It will not be possible to call `onlyOwner` functions anymore. Can only be called by the current owner. NOTE: Renouncing ownership will leave the contract without an owner, thereby removing any functionality that is only available to the owner."
      },
      "transferOwnership(address)": {
        "details": "Transfers ownership of the contract to a new account (`newOwner`). Can only be called by the current owner."
      }
    },
    "version": 1
  },
  "userdoc": {
    "kind": "user",
    "methods": {},
    "version": 1
  }
}