{
  "contractName": "MapleItems",
  "abi": [
    {
      "inputs": [
        {
          "internalType": "address",
          "name": "_marketAddress",
          "type": "address"
        },
        {
          "internalType": "contract JMToken",
          "name": "_tokenContractAddress",
          "type": "address"
        },
        {
          "internalType": "address payable",
          "name": "_treasuryWallet",
          "type": "address"
        }
      ],
      "stateMutability": "nonpayable",
      "type": "constructor"
    },
    {
      "anonymous": false,
      "inputs": [
        {
          "indexed": true,
          "internalType": "address",
          "name": "account",
          "type": "address"
        },
        {
          "indexed": true,
          "internalType": "address",
          "name": "operator",
          "type": "address"
        },
        {
          "indexed": false,
          "internalType": "bool",
          "name": "approved",
          "type": "bool"
        }
      ],
      "name": "ApprovalForAll",
      "type": "event"
    },
    {
      "anonymous": false,
      "inputs": [
        {
          "indexed": true,
          "internalType": "address",
          "name": "previousOwner",
          "type": "address"
        },
        {
          "indexed": true,
          "internalType": "address",
          "name": "newOwner",
          "type": "address"
        }
      ],
      "name": "OwnershipTransferred",
      "type": "event"
    },
    {
      "anonymous": false,
      "inputs": [
        {
          "indexed": true,
          "internalType": "address",
          "name": "operator",
          "type": "address"
        },
        {
          "indexed": true,
          "internalType": "address",
          "name": "from",
          "type": "address"
        },
        {
          "indexed": true,
          "internalType": "address",
          "name": "to",
          "type": "address"
        },
        {
          "indexed": false,
          "internalType": "uint256[]",
          "name": "ids",
          "type": "uint256[]"
        },
        {
          "indexed": false,
          "internalType": "uint256[]",
          "name": "values",
          "type": "uint256[]"
        }
      ],
      "name": "TransferBatch",
      "type": "event"
    },
    {
      "anonymous": false,
      "inputs": [
        {
          "indexed": true,
          "internalType": "address",
          "name": "operator",
          "type": "address"
        },
        {
          "indexed": true,
          "internalType": "address",
          "name": "from",
          "type": "address"
        },
        {
          "indexed": true,
          "internalType": "address",
          "name": "to",
          "type": "address"
        },
        {
          "indexed": false,
          "internalType": "uint256",
          "name": "id",
          "type": "uint256"
        },
        {
          "indexed": false,
          "internalType": "uint256",
          "name": "value",
          "type": "uint256"
        }
      ],
      "name": "TransferSingle",
      "type": "event"
    },
    {
      "anonymous": false,
      "inputs": [
        {
          "indexed": false,
          "internalType": "string",
          "name": "value",
          "type": "string"
        },
        {
          "indexed": true,
          "internalType": "uint256",
          "name": "id",
          "type": "uint256"
        }
      ],
      "name": "URI",
      "type": "event"
    },
    {
      "inputs": [],
      "name": "BOW0",
      "outputs": [
        {
          "internalType": "uint256",
          "name": "",
          "type": "uint256"
        }
      ],
      "stateMutability": "view",
      "type": "function",
      "constant": true
    },
    {
      "inputs": [],
      "name": "BOW1",
      "outputs": [
        {
          "internalType": "uint256",
          "name": "",
          "type": "uint256"
        }
      ],
      "stateMutability": "view",
      "type": "function",
      "constant": true
    },
    {
      "inputs": [],
      "name": "BOW2",
      "outputs": [
        {
          "internalType": "uint256",
          "name": "",
          "type": "uint256"
        }
      ],
      "stateMutability": "view",
      "type": "function",
      "constant": true
    },
    {
      "inputs": [],
      "name": "POLEARM0",
      "outputs": [
        {
          "internalType": "uint256",
          "name": "",
          "type": "uint256"
        }
      ],
      "stateMutability": "view",
      "type": "function",
      "constant": true
    },
    {
      "inputs": [],
      "name": "POLEARM1",
      "outputs": [
        {
          "internalType": "uint256",
          "name": "",
          "type": "uint256"
        }
      ],
      "stateMutability": "view",
      "type": "function",
      "constant": true
    },
    {
      "inputs": [],
      "name": "POLEARM2",
      "outputs": [
        {
          "internalType": "uint256",
          "name": "",
          "type": "uint256"
        }
      ],
      "stateMutability": "view",
      "type": "function",
      "constant": true
    },
    {
      "inputs": [],
      "name": "SCROLL10",
      "outputs": [
        {
          "internalType": "uint256",
          "name": "",
          "type": "uint256"
        }
      ],
      "stateMutability": "view",
      "type": "function",
      "constant": true
    },
    {
      "inputs": [],
      "name": "SCROLL100",
      "outputs": [
        {
          "internalType": "uint256",
          "name": "",
          "type": "uint256"
        }
      ],
      "stateMutability": "view",
      "type": "function",
      "constant": true
    },
    {
      "inputs": [],
      "name": "SCROLL30",
      "outputs": [
        {
          "internalType": "uint256",
          "name": "",
          "type": "uint256"
        }
      ],
      "stateMutability": "view",
      "type": "function",
      "constant": true
    },
    {
      "inputs": [],
      "name": "SCROLL60",
      "outputs": [
        {
          "internalType": "uint256",
          "name": "",
          "type": "uint256"
        }
      ],
      "stateMutability": "view",
      "type": "function",
      "constant": true
    },
    {
      "inputs": [],
      "name": "SCROLL90",
      "outputs": [
        {
          "internalType": "uint256",
          "name": "",
          "type": "uint256"
        }
      ],
      "stateMutability": "view",
      "type": "function",
      "constant": true
    },
    {
      "inputs": [],
      "name": "STAFF0",
      "outputs": [
        {
          "internalType": "uint256",
          "name": "",
          "type": "uint256"
        }
      ],
      "stateMutability": "view",
      "type": "function",
      "constant": true
    },
    {
      "inputs": [],
      "name": "STAFF1",
      "outputs": [
        {
          "internalType": "uint256",
          "name": "",
          "type": "uint256"
        }
      ],
      "stateMutability": "view",
      "type": "function",
      "constant": true
    },
    {
      "inputs": [],
      "name": "STAFF2",
      "outputs": [
        {
          "internalType": "uint256",
          "name": "",
          "type": "uint256"
        }
      ],
      "stateMutability": "view",
      "type": "function",
      "constant": true
    },
    {
      "inputs": [],
      "name": "SWORD0",
      "outputs": [
        {
          "internalType": "uint256",
          "name": "",
          "type": "uint256"
        }
      ],
      "stateMutability": "view",
      "type": "function",
      "constant": true
    },
    {
      "inputs": [],
      "name": "SWORD1",
      "outputs": [
        {
          "internalType": "uint256",
          "name": "",
          "type": "uint256"
        }
      ],
      "stateMutability": "view",
      "type": "function",
      "constant": true
    },
    {
      "inputs": [],
      "name": "SWORD2",
      "outputs": [
        {
          "internalType": "uint256",
          "name": "",
          "type": "uint256"
        }
      ],
      "stateMutability": "view",
      "type": "function",
      "constant": true
    },
    {
      "inputs": [],
      "name": "SWORD3",
      "outputs": [
        {
          "internalType": "uint256",
          "name": "",
          "type": "uint256"
        }
      ],
      "stateMutability": "view",
      "type": "function",
      "constant": true
    },
    {
      "inputs": [
        {
          "internalType": "address",
          "name": "account",
          "type": "address"
        },
        {
          "internalType": "uint256",
          "name": "id",
          "type": "uint256"
        }
      ],
      "name": "balanceOf",
      "outputs": [
        {
          "internalType": "uint256",
          "name": "",
          "type": "uint256"
        }
      ],
      "stateMutability": "view",
      "type": "function",
      "constant": true
    },
    {
      "inputs": [
        {
          "internalType": "address[]",
          "name": "accounts",
          "type": "address[]"
        },
        {
          "internalType": "uint256[]",
          "name": "ids",
          "type": "uint256[]"
        }
      ],
      "name": "balanceOfBatch",
      "outputs": [
        {
          "internalType": "uint256[]",
          "name": "",
          "type": "uint256[]"
        }
      ],
      "stateMutability": "view",
      "type": "function",
      "constant": true
    },
    {
      "inputs": [
        {
          "internalType": "address",
          "name": "account",
          "type": "address"
        },
        {
          "internalType": "uint256",
          "name": "id",
          "type": "uint256"
        },
        {
          "internalType": "uint256",
          "name": "value",
          "type": "uint256"
        }
      ],
      "name": "burn",
      "outputs": [],
      "stateMutability": "nonpayable",
      "type": "function"
    },
    {
      "inputs": [
        {
          "internalType": "address",
          "name": "account",
          "type": "address"
        },
        {
          "internalType": "uint256[]",
          "name": "ids",
          "type": "uint256[]"
        },
        {
          "internalType": "uint256[]",
          "name": "values",
          "type": "uint256[]"
        }
      ],
      "name": "burnBatch",
      "outputs": [],
      "stateMutability": "nonpayable",
      "type": "function"
    },
    {
      "inputs": [
        {
          "internalType": "uint256",
          "name": "id",
          "type": "uint256"
        }
      ],
      "name": "exists",
      "outputs": [
        {
          "internalType": "bool",
          "name": "",
          "type": "bool"
        }
      ],
      "stateMutability": "view",
      "type": "function",
      "constant": true
    },
    {
      "inputs": [
        {
          "internalType": "address",
          "name": "account",
          "type": "address"
        },
        {
          "internalType": "address",
          "name": "operator",
          "type": "address"
        }
      ],
      "name": "isApprovedForAll",
      "outputs": [
        {
          "internalType": "bool",
          "name": "",
          "type": "bool"
        }
      ],
      "stateMutability": "view",
      "type": "function",
      "constant": true
    },
    {
      "inputs": [],
      "name": "owner",
      "outputs": [
        {
          "internalType": "address",
          "name": "",
          "type": "address"
        }
      ],
      "stateMutability": "view",
      "type": "function",
      "constant": true
    },
    {
      "inputs": [],
      "name": "renounceOwnership",
      "outputs": [],
      "stateMutability": "nonpayable",
      "type": "function"
    },
    {
      "inputs": [
        {
          "internalType": "address",
          "name": "from",
          "type": "address"
        },
        {
          "internalType": "address",
          "name": "to",
          "type": "address"
        },
        {
          "internalType": "uint256[]",
          "name": "ids",
          "type": "uint256[]"
        },
        {
          "internalType": "uint256[]",
          "name": "amounts",
          "type": "uint256[]"
        },
        {
          "internalType": "bytes",
          "name": "data",
          "type": "bytes"
        }
      ],
      "name": "safeBatchTransferFrom",
      "outputs": [],
      "stateMutability": "nonpayable",
      "type": "function"
    },
    {
      "inputs": [
        {
          "internalType": "address",
          "name": "from",
          "type": "address"
        },
        {
          "internalType": "address",
          "name": "to",
          "type": "address"
        },
        {
          "internalType": "uint256",
          "name": "id",
          "type": "uint256"
        },
        {
          "internalType": "uint256",
          "name": "amount",
          "type": "uint256"
        },
        {
          "internalType": "bytes",
          "name": "data",
          "type": "bytes"
        }
      ],
      "name": "safeTransferFrom",
      "outputs": [],
      "stateMutability": "nonpayable",
      "type": "function"
    },
    {
      "inputs": [
        {
          "internalType": "address",
          "name": "operator",
          "type": "address"
        },
        {
          "internalType": "bool",
          "name": "approved",
          "type": "bool"
        }
      ],
      "name": "setApprovalForAll",
      "outputs": [],
      "stateMutability": "nonpayable",
      "type": "function"
    },
    {
      "inputs": [
        {
          "internalType": "bytes4",
          "name": "interfaceId",
          "type": "bytes4"
        }
      ],
      "name": "supportsInterface",
      "outputs": [
        {
          "internalType": "bool",
          "name": "",
          "type": "bool"
        }
      ],
      "stateMutability": "view",
      "type": "function",
      "constant": true
    },
    {
      "inputs": [
        {
          "internalType": "uint256",
          "name": "id",
          "type": "uint256"
        }
      ],
      "name": "totalSupply",
      "outputs": [
        {
          "internalType": "uint256",
          "name": "",
          "type": "uint256"
        }
      ],
      "stateMutability": "view",
      "type": "function",
      "constant": true
    },
    {
      "inputs": [
        {
          "internalType": "address",
          "name": "newOwner",
          "type": "address"
        }
      ],
      "name": "transferOwnership",
      "outputs": [],
      "stateMutability": "nonpayable",
      "type": "function"
    },
    {
      "inputs": [],
      "name": "treasuryWallet",
      "outputs": [
        {
          "internalType": "address payable",
          "name": "",
          "type": "address"
        }
      ],
      "stateMutability": "view",
      "type": "function",
      "constant": true
    },
    {
      "inputs": [
        {
          "internalType": "uint256",
          "name": "_tokenid",
          "type": "uint256"
        }
      ],
      "name": "uri",
      "outputs": [
        {
          "internalType": "string",
          "name": "",
          "type": "string"
        }
      ],
      "stateMutability": "pure",
      "type": "function",
      "constant": true
    },
    {
      "inputs": [
        {
          "internalType": "string",
          "name": "newuri",
          "type": "string"
        }
      ],
      "name": "setURI",
      "outputs": [],
      "stateMutability": "nonpayable",
      "type": "function"
    },
    {
      "inputs": [],
      "name": "mintFirstWeapon",
      "outputs": [],
      "stateMutability": "nonpayable",
      "type": "function"
    },
    {
      "inputs": [],
      "name": "mintRandomWeapon",
      "outputs": [
        {
          "internalType": "uint256",
          "name": "",
          "type": "uint256"
        }
      ],
      "stateMutability": "payable",
      "type": "function",
      "payable": true
    },
    {
      "inputs": [],
      "name": "mintScroll",
      "outputs": [],
      "stateMutability": "nonpayable",
      "type": "function"
    },
    {
      "inputs": [
        {
          "internalType": "uint256",
          "name": "scrollId",
          "type": "uint256"
        },
        {
          "internalType": "uint256",
          "name": "weaponId",
          "type": "uint256"
        }
      ],
      "name": "upgrade",
      "outputs": [],
      "stateMutability": "nonpayable",
      "type": "function"
    },
    {
      "inputs": [
        {
          "internalType": "address",
          "name": "to",
          "type": "address"
        },
        {
          "internalType": "uint256[]",
          "name": "ids",
          "type": "uint256[]"
        },
        {
          "internalType": "uint256[]",
          "name": "amounts",
          "type": "uint256[]"
        },
        {
          "internalType": "bytes",
          "name": "data",
          "type": "bytes"
        }
      ],
      "name": "mintBatch",
      "outputs": [],
      "stateMutability": "nonpayable",
      "type": "function"
    },
    {
      "inputs": [
        {
          "internalType": "address",
          "name": "sender",
          "type": "address"
        }
      ],
      "name": "balanceCheck",
      "outputs": [
        {
          "internalType": "uint256[][]",
          "name": "",
          "type": "uint256[][]"
        }
      ],
      "stateMutability": "nonpayable",
      "type": "function"
    }
  ],
  "bytecode": "0x6080604052670de0b6b3a76400006006553480156200001d57600080fd5b506040516200665938038062006659833981810160405281019062000043919062000e0d565b6040518060600160405280603a81526020016200661f603a91396200006e816200017460201b60201c565b506200008f620000836200018960201b60201c565b6200019160201b60201c565b600160088190555082600d60006101000a81548173ffffffffffffffffffffffffffffffffffffffff021916908373ffffffffffffffffffffffffffffffffffffffff160217905550620000e9826200025760201b60201c565b50620000fa620002ed60201b60201c565b6200010a620006f860201b60201c565b6200011a620007b360201b60201c565b6200012a62000ac160201b60201c565b80600760006101000a81548173ffffffffffffffffffffffffffffffffffffffff021916908373ffffffffffffffffffffffffffffffffffffffff160217905550505050620012c9565b8060029081620001859190620010e3565b5050565b600033905090565b6000600360009054906101000a900473ffffffffffffffffffffffffffffffffffffffff16905081600360006101000a81548173ffffffffffffffffffffffffffffffffffffffff021916908373ffffffffffffffffffffffffffffffffffffffff1602179055508173ffffffffffffffffffffffffffffffffffffffff168173ffffffffffffffffffffffffffffffffffffffff167f8be0079c531659141344cd1fd0a4f28419497f9722a3daafe3b4186f6b6457e060405160405180910390a35050565b60006200026962000c5e60201b60201c565b600073ffffffffffffffffffffffffffffffffffffffff168273ffffffffffffffffffffffffffffffffffffffff1603620002a357600080fd5b81600560006101000a81548173ffffffffffffffffffffffffffffffffffffffff021916908373ffffffffffffffffffffffffffffffffffffffff16021790555060019050919050565b620002fd62000c5e60201b60201c565b60005b60048110156200034a5760096000908060018154018082558091505060019003906000526020600020016000909190919091505580806200034190620011f9565b91505062000300565b5060005b6003811015620003985760096001908060018154018082558091505060019003906000526020600020016000909190919091505580806200038f90620011f9565b9150506200034e565b5060005b6002811015620003e6576009600290806001815401808255809150506001900390600052602060002001600090919091909150558080620003dd90620011f9565b9150506200039c565b5060005b6001811015620004345760096003908060018154018082558091505060019003906000526020600020016000909190919091505580806200042b90620011f9565b915050620003ea565b5060005b6004811015620004825760096064908060018154018082558091505060019003906000526020600020016000909190919091505580806200047990620011f9565b91505062000438565b5060005b6003811015620004d0576009606590806001815401808255809150506001900390600052602060002001600090919091909150558080620004c790620011f9565b91505062000486565b5060005b60028110156200051e5760096066908060018154018082558091505060019003906000526020600020016000909190919091505580806200051590620011f9565b915050620004d4565b5060005b60048110156200056c57600960c8908060018154018082558091505060019003906000526020600020016000909190919091505580806200056390620011f9565b91505062000522565b5060005b6003811015620005ba57600960c990806001815401808255809150506001900390600052602060002001600090919091909150558080620005b190620011f9565b91505062000570565b5060005b60028110156200060857600960ca90806001815401808255809150506001900390600052602060002001600090919091909150558080620005ff90620011f9565b915050620005be565b5060005b60048110156200065757600961012c908060018154018082558091505060019003906000526020600020016000909190919091505580806200064e90620011f9565b9150506200060c565b5060005b6003811015620006a657600961012d908060018154018082558091505060019003906000526020600020016000909190919091505580806200069d90620011f9565b9150506200065b565b5060005b6002811015620006f557600961012e90806001815401808255809150506001900390600052602060002001600090919091909150558080620006ec90620011f9565b915050620006aa565b50565b6200070862000c5e60201b60201c565b600a60009080600181540180825580915050600190039060005260206000200160009091909190915055600a60649080600181540180825580915050600190039060005260206000200160009091909190915055600a60c89080600181540180825580915050600190039060005260206000200160009091909190915055600a61012c9080600181540180825580915050600190039060005260206000200160009091909190915055565b620007c362000c5e60201b60201c565b600b60009080600181540180825580915050600190039060005260206000200160009091909190915055600b60019080600181540180825580915050600190039060005260206000200160009091909190915055600b60029080600181540180825580915050600190039060005260206000200160009091909190915055600b60039080600181540180825580915050600190039060005260206000200160009091909190915055600b60649080600181540180825580915050600190039060005260206000200160009091909190915055600b60659080600181540180825580915050600190039060005260206000200160009091909190915055600b60669080600181540180825580915050600190039060005260206000200160009091909190915055600b60c89080600181540180825580915050600190039060005260206000200160009091909190915055600b60c99080600181540180825580915050600190039060005260206000200160009091909190915055600b60ca9080600181540180825580915050600190039060005260206000200160009091909190915055600b61012c9080600181540180825580915050600190039060005260206000200160009091909190915055600b61012d9080600181540180825580915050600190039060005260206000200160009091909190915055600b61012e9080600181540180825580915050600190039060005260206000200160009091909190915055600b6101909080600181540180825580915050600190039060005260206000200160009091909190915055600b6101919080600181540180825580915050600190039060005260206000200160009091909190915055600b6101929080600181540180825580915050600190039060005260206000200160009091909190915055600b6101939080600181540180825580915050600190039060005260206000200160009091909190915055600b6101949080600181540180825580915050600190039060005260206000200160009091909190915055565b62000ad162000c5e60201b60201c565b60005b600181101562000b1f57600c6101909080600181540180825580915050600190039060005260206000200160009091909190915055808062000b1690620011f9565b91505062000ad4565b5060005b600281101562000b6e57600c6101919080600181540180825580915050600190039060005260206000200160009091909190915055808062000b6590620011f9565b91505062000b23565b5060005b600481101562000bbd57600c6101929080600181540180825580915050600190039060005260206000200160009091909190915055808062000bb490620011f9565b91505062000b72565b5060005b600681101562000c0c57600c6101939080600181540180825580915050600190039060005260206000200160009091909190915055808062000c0390620011f9565b91505062000bc1565b5060005b600781101562000c5b57600c6101949080600181540180825580915050600190039060005260206000200160009091909190915055808062000c5290620011f9565b91505062000c10565b50565b62000c6e6200018960201b60201c565b73ffffffffffffffffffffffffffffffffffffffff1662000c9462000cef60201b60201c565b73ffffffffffffffffffffffffffffffffffffffff161462000ced576040517f08c379a000000000000000000000000000000000000000000000000000000000815260040162000ce490620012a7565b60405180910390fd5b565b6000600360009054906101000a900473ffffffffffffffffffffffffffffffffffffffff16905090565b600080fd5b600073ffffffffffffffffffffffffffffffffffffffff82169050919050565b600062000d4b8262000d1e565b9050919050565b62000d5d8162000d3e565b811462000d6957600080fd5b50565b60008151905062000d7d8162000d52565b92915050565b600062000d908262000d3e565b9050919050565b62000da28162000d83565b811462000dae57600080fd5b50565b60008151905062000dc28162000d97565b92915050565b600062000dd58262000d1e565b9050919050565b62000de78162000dc8565b811462000df357600080fd5b50565b60008151905062000e078162000ddc565b92915050565b60008060006060848603121562000e295762000e2862000d19565b5b600062000e398682870162000d6c565b935050602062000e4c8682870162000db1565b925050604062000e5f8682870162000df6565b9150509250925092565b600081519050919050565b7f4e487b7100000000000000000000000000000000000000000000000000000000600052604160045260246000fd5b7f4e487b7100000000000000000000000000000000000000000000000000000000600052602260045260246000fd5b6000600282049050600182168062000eeb57607f821691505b60208210810362000f015762000f0062000ea3565b5b50919050565b60008190508160005260206000209050919050565b60006020601f8301049050919050565b600082821b905092915050565b60006008830262000f6b7fffffffffffffffffffffffffffffffffffffffffffffffffffffffffffffffff8262000f2c565b62000f77868362000f2c565b95508019841693508086168417925050509392505050565b6000819050919050565b6000819050919050565b600062000fc462000fbe62000fb88462000f8f565b62000f99565b62000f8f565b9050919050565b6000819050919050565b62000fe08362000fa3565b62000ff862000fef8262000fcb565b84845462000f39565b825550505050565b600090565b6200100f62001000565b6200101c81848462000fd5565b505050565b5b8181101562001044576200103860008262001005565b60018101905062001022565b5050565b601f82111562001093576200105d8162000f07565b620010688462000f1c565b8101602085101562001078578190505b62001090620010878562000f1c565b83018262001021565b50505b505050565b600082821c905092915050565b6000620010b86000198460080262001098565b1980831691505092915050565b6000620010d38383620010a5565b9150826002028217905092915050565b620010ee8262000e69565b67ffffffffffffffff8111156200110a576200110962000e74565b5b62001116825462000ed2565b6200112382828562001048565b600060209050601f8311600181146200115b576000841562001146578287015190505b620011528582620010c5565b865550620011c2565b601f1984166200116b8662000f07565b60005b8281101562001195578489015182556001820191506020850194506020810190506200116e565b86831015620011b55784890151620011b1601f891682620010a5565b8355505b6001600288020188555050505b505050505050565b7f4e487b7100000000000000000000000000000000000000000000000000000000600052601160045260246000fd5b6000620012068262000f8f565b91507fffffffffffffffffffffffffffffffffffffffffffffffffffffffffffffffff82036200123b576200123a620011ca565b5b600182019050919050565b600082825260208201905092915050565b7f4f776e61626c653a2063616c6c6572206973206e6f7420746865206f776e6572600082015250565b60006200128f60208362001246565b91506200129c8262001257565b602082019050919050565b60006020820190508181036000830152620012c28162001280565b9050919050565b61534680620012d96000396000f3fe6080604052600436106102455760003560e01c8063715018a611610139578063d656efb5116100b6578063ea3875ca1161007a578063ea3875ca14610866578063f14a3d5614610891578063f242432a146108bc578063f2fde38b146108e5578063f5298aca1461090e578063f5dce5b91461093757610245565b8063d656efb51461077d578063d79c66aa146107a8578063dc4feb47146107d3578063e7b5be39146107fe578063e985e9c51461082957610245565b8063aedd809a116100fd578063aedd809a14610696578063afc6c649146106c1578063b6a8412b146106fe578063bd85b03914610715578063d0faf49e1461075257610245565b8063715018a6146105d55780638da5cb5b146105ec5780639750463a14610617578063a004cbde14610642578063a22cb4651461066d57610245565b8063451450ec116101c75780634f558e791161018b5780634f558e79146104fb5780635456e59a1461053857806360baee5d146105635780636b20c454146105815780636f9e9b84146105aa57610245565b8063451450ec146104285780634626402b146104515780634ba466391461047c5780634e1273f4146104935780634f4aabc1146104d057610245565b80631f7fdffa1161020e5780631f7fdffa1461035557806323bfdcfa1461037e5780632eb2c2d6146103a957806332e5794a146103d2578063442107e3146103fd57610245565b8062fdd58e1461024a57806301ffc9a71461028757806302fe5305146102c45780630e89341c146102ed5780630f068c601461032a575b600080fd5b34801561025657600080fd5b50610271600480360381019061026c91906133ce565b610962565b60405161027e919061341d565b60405180910390f35b34801561029357600080fd5b506102ae60048036038101906102a99190613490565b610a2a565b6040516102bb91906134d8565b60405180910390f35b3480156102d057600080fd5b506102eb60048036038101906102e69190613639565b610b0c565b005b3480156102f957600080fd5b50610314600480360381019061030f9190613682565b610b20565b604051610321919061372e565b60405180910390f35b34801561033657600080fd5b5061033f610b51565b60405161034c919061341d565b60405180910390f35b34801561036157600080fd5b5061037c600480360381019061037791906138b9565b610b56565b005b34801561038a57600080fd5b50610393610b70565b6040516103a0919061341d565b60405180910390f35b3480156103b557600080fd5b506103d060048036038101906103cb9190613974565b610b76565b005b3480156103de57600080fd5b506103e7610c17565b6040516103f4919061341d565b60405180910390f35b34801561040957600080fd5b50610412610c1c565b60405161041f919061341d565b60405180910390f35b34801561043457600080fd5b5061044f600480360381019061044a9190613a43565b610c21565b005b34801561045d57600080fd5b50610466610c7a565b6040516104739190613aa4565b60405180910390f35b34801561048857600080fd5b50610491610ca0565b005b34801561049f57600080fd5b506104ba60048036038101906104b59190613b82565b610d4e565b6040516104c79190613cb8565b60405180910390f35b3480156104dc57600080fd5b506104e5610e67565b6040516104f2919061341d565b60405180910390f35b34801561050757600080fd5b50610522600480360381019061051d9190613682565b610e6d565b60405161052f91906134d8565b60405180910390f35b34801561054457600080fd5b5061054d610e81565b60405161055a919061341d565b60405180910390f35b61056b610e87565b604051610578919061341d565b60405180910390f35b34801561058d57600080fd5b506105a860048036038101906105a39190613cda565b6111d0565b005b3480156105b657600080fd5b506105bf61126d565b6040516105cc919061341d565b60405180910390f35b3480156105e157600080fd5b506105ea611272565b005b3480156105f857600080fd5b50610601611286565b60405161060e9190613d74565b60405180910390f35b34801561062357600080fd5b5061062c6112b0565b604051610639919061341d565b60405180910390f35b34801561064e57600080fd5b506106576112b5565b604051610664919061341d565b60405180910390f35b34801561067957600080fd5b50610694600480360381019061068f9190613dbb565b6112bb565b005b3480156106a257600080fd5b506106ab6112d1565b6040516106b8919061341d565b60405180910390f35b3480156106cd57600080fd5b506106e860048036038101906106e39190613dfb565b6112d6565b6040516106f59190613f59565b60405180910390f35b34801561070a57600080fd5b50610713611658565b005b34801561072157600080fd5b5061073c60048036038101906107379190613682565b611706565b604051610749919061341d565b60405180910390f35b34801561075e57600080fd5b50610767611723565b604051610774919061341d565b60405180910390f35b34801561078957600080fd5b50610792611728565b60405161079f919061341d565b60405180910390f35b3480156107b457600080fd5b506107bd61172d565b6040516107ca919061341d565b60405180910390f35b3480156107df57600080fd5b506107e8611733565b6040516107f5919061341d565b60405180910390f35b34801561080a57600080fd5b50610813611739565b604051610820919061341d565b60405180910390f35b34801561083557600080fd5b50610850600480360381019061084b9190613f7b565b61173e565b60405161085d91906134d8565b60405180910390f35b34801561087257600080fd5b5061087b6117d2565b604051610888919061341d565b60405180910390f35b34801561089d57600080fd5b506108a66117d7565b6040516108b3919061341d565b60405180910390f35b3480156108c857600080fd5b506108e360048036038101906108de9190613fbb565b6117dd565b005b3480156108f157600080fd5b5061090c60048036038101906109079190613dfb565b61187e565b005b34801561091a57600080fd5b5061093560048036038101906109309190614052565b611901565b005b34801561094357600080fd5b5061094c61199e565b604051610959919061341d565b60405180910390f35b60008073ffffffffffffffffffffffffffffffffffffffff168373ffffffffffffffffffffffffffffffffffffffff16036109d2576040517f08c379a00000000000000000000000000000000000000000000000000000000081526004016109c990614117565b60405180910390fd5b60008083815260200190815260200160002060008473ffffffffffffffffffffffffffffffffffffffff1673ffffffffffffffffffffffffffffffffffffffff16815260200190815260200160002054905092915050565b60007fd9b67a26000000000000000000000000000000000000000000000000000000007bffffffffffffffffffffffffffffffffffffffffffffffffffffffff1916827bffffffffffffffffffffffffffffffffffffffffffffffffffffffff19161480610af557507f0e89341c000000000000000000000000000000000000000000000000000000007bffffffffffffffffffffffffffffffffffffffffffffffffffffffff1916827bffffffffffffffffffffffffffffffffffffffffffffffffffffffff1916145b80610b055750610b04826119a4565b5b9050919050565b610b14611a0e565b610b1d81611a8c565b50565b6060610b2b82611a9f565b604051602001610b3b919061420b565b6040516020818303038152906040529050919050565b60ca81565b610b5e611a0e565b610b6a84848484611bff565b50505050565b61019181565b610b7e611e2b565b73ffffffffffffffffffffffffffffffffffffffff168573ffffffffffffffffffffffffffffffffffffffff161480610bc45750610bc385610bbe611e2b565b61173e565b5b610c03576040517f08c379a0000000000000000000000000000000000000000000000000000000008152600401610bfa9061429f565b60405180910390fd5b610c108585858585611e33565b5050505050565b606581565b60c881565b610c4933600183610c3291906142ee565b600160405180602001604052806000815250612154565b610c76600d60009054906101000a900473ffffffffffffffffffffffffffffffffffffffff1660016112bb565b5050565b600760009054906101000a900473ffffffffffffffffffffffffffffffffffffffff1681565b6000600c8054905042604051602001610cb99190614343565b6040516020818303038152906040528051906020012060001c610cdc919061438d565b90506000600c8281548110610cf457610cf36143be565b5b90600052602060002001549050610d1d3382600160405180602001604052806000815250612154565b610d4a600d60009054906101000a900473ffffffffffffffffffffffffffffffffffffffff1660016112bb565b5050565b60608151835114610d94576040517f08c379a0000000000000000000000000000000000000000000000000000000008152600401610d8b9061445f565b60405180910390fd5b6000835167ffffffffffffffff811115610db157610db061350e565b5b604051908082528060200260200182016040528015610ddf5781602001602082028036833780820191505090505b50905060005b8451811015610e5c57610e2c858281518110610e0457610e036143be565b5b6020026020010151858381518110610e1f57610e1e6143be565b5b6020026020010151610962565b828281518110610e3f57610e3e6143be565b5b60200260200101818152505080610e559061447f565b9050610de5565b508091505092915050565b61012d81565b600080610e7983611706565b119050919050565b61019481565b60008060098054905042604051602001610ea19190614343565b6040516020818303038152906040528051906020012060001c610ec4919061438d565b9050600060098281548110610edc57610edb6143be565b5b90600052602060002001549050610f053382600160405180602001604052806000815250612154565b610f32600d60009054906101000a900473ffffffffffffffffffffffffffffffffffffffff1660016112bb565b6000600560009054906101000a900473ffffffffffffffffffffffffffffffffffffffff1673ffffffffffffffffffffffffffffffffffffffff1663d83a2bf33330600654600854610f8491906144c7565b6040518463ffffffff1660e01b8152600401610fa293929190614509565b6020604051808303816000875af1158015610fc1573d6000803e3d6000fd5b505050506040513d601f19601f82011682018060405250810190610fe59190614555565b905080611027576040517f08c379a000000000000000000000000000000000000000000000000000000000815260040161101e906145ce565b60405180910390fd5b600560009054906101000a900473ffffffffffffffffffffffffffffffffffffffff1673ffffffffffffffffffffffffffffffffffffffff166323b872dd33600760009054906101000a900473ffffffffffffffffffffffffffffffffffffffff1660065460085461109991906144c7565b6040518463ffffffff1660e01b81526004016110b79392919061464d565b6020604051808303816000875af11580156110d6573d6000803e3d6000fd5b505050506040513d601f19601f820116820180604052508101906110fa9190614555565b50600560009054906101000a900473ffffffffffffffffffffffffffffffffffffffff1673ffffffffffffffffffffffffffffffffffffffff16631d057bd9600760009054906101000a900473ffffffffffffffffffffffffffffffffffffffff16600260065460085461116e91906144c7565b6111789190614684565b6040518363ffffffff1660e01b81526004016111959291906146b5565b600060405180830381600087803b1580156111af57600080fd5b505af11580156111c3573d6000803e3d6000fd5b5050505081935050505090565b6111d8611e2b565b73ffffffffffffffffffffffffffffffffffffffff168373ffffffffffffffffffffffffffffffffffffffff16148061121e575061121d83611218611e2b565b61173e565b5b61125d576040517f08c379a00000000000000000000000000000000000000000000000000000000081526004016112549061429f565b60405180910390fd5b611268838383612304565b505050565b600181565b61127a611a0e565b61128460006125d2565b565b6000600360009054906101000a900473ffffffffffffffffffffffffffffffffffffffff16905090565b600381565b61012e81565b6112cd6112c6611e2b565b8383612698565b5050565b600081565b60606000600b8054905067ffffffffffffffff8111156112f9576112f861350e565b5b60405190808252806020026020018201604052801561132c57816020015b60608152602001906001900390816113175790505b5090506000805b600b8054905081101561149357600061136a86600b848154811061135a576113596143be565b5b9060005260206000200154610962565b90506000811461147f57600267ffffffffffffffff81111561138f5761138e61350e565b5b6040519080825280602002602001820160405280156113bd5781602001602082028036833780820191505090505b508484815181106113d1576113d06143be565b5b6020026020010181905250600b82815481106113f0576113ef6143be565b5b906000526020600020015484848151811061140e5761140d6143be565b5b6020026020010151600081518110611429576114286143be565b5b60200260200101818152505080848481518110611449576114486143be565b5b6020026020010151600181518110611464576114636143be565b5b602002602001018181525050828061147b9061447f565b9350505b50808061148b9061447f565b915050611333565b5060008167ffffffffffffffff8111156114b0576114af61350e565b5b6040519080825280602002602001820160405280156114e357816020015b60608152602001906001900390816114ce5790505b50905060005b8281101561164c57600267ffffffffffffffff81111561150c5761150b61350e565b5b60405190808252806020026020018201604052801561153a5781602001602082028036833780820191505090505b5082828151811061154e5761154d6143be565b5b602002602001018190525083818151811061156c5761156b6143be565b5b6020026020010151600081518110611587576115866143be565b5b60200260200101518282815181106115a2576115a16143be565b5b60200260200101516000815181106115bd576115bc6143be565b5b6020026020010181815250508381815181106115dc576115db6143be565b5b60200260200101516001815181106115f7576115f66143be565b5b6020026020010151828281518110611612576116116143be565b5b602002602001015160018151811061162d5761162c6143be565b5b60200260200101818152505080806116449061447f565b9150506114e9565b50809350505050919050565b6000600a80549050426040516020016116719190614343565b6040516020818303038152906040528051906020012060001c611694919061438d565b90506000600a82815481106116ac576116ab6143be565b5b906000526020600020015490506116d53382600160405180602001604052806000815250612154565b611702600d60009054906101000a900473ffffffffffffffffffffffffffffffffffffffff1660016112bb565b5050565b600060046000838152602001908152602001600020549050919050565b60c981565b606681565b61019081565b61019381565b600281565b6000600160008473ffffffffffffffffffffffffffffffffffffffff1673ffffffffffffffffffffffffffffffffffffffff16815260200190815260200160002060008373ffffffffffffffffffffffffffffffffffffffff1673ffffffffffffffffffffffffffffffffffffffff16815260200190815260200160002060009054906101000a900460ff16905092915050565b606481565b61012c81565b6117e5611e2b565b73ffffffffffffffffffffffffffffffffffffffff168573ffffffffffffffffffffffffffffffffffffffff16148061182b575061182a85611825611e2b565b61173e565b5b61186a576040517f08c379a00000000000000000000000000000000000000000000000000000000081526004016118619061429f565b60405180910390fd5b6118778585858585612804565b5050505050565b611886611a0e565b600073ffffffffffffffffffffffffffffffffffffffff168173ffffffffffffffffffffffffffffffffffffffff16036118f5576040517f08c379a00000000000000000000000000000000000000000000000000000000081526004016118ec90614750565b60405180910390fd5b6118fe816125d2565b50565b611909611e2b565b73ffffffffffffffffffffffffffffffffffffffff168373ffffffffffffffffffffffffffffffffffffffff16148061194f575061194e83611949611e2b565b61173e565b5b61198e576040517f08c379a00000000000000000000000000000000000000000000000000000000081526004016119859061429f565b60405180910390fd5b611999838383612a9f565b505050565b61019281565b60007f01ffc9a7000000000000000000000000000000000000000000000000000000007bffffffffffffffffffffffffffffffffffffffffffffffffffffffff1916827bffffffffffffffffffffffffffffffffffffffffffffffffffffffff1916149050919050565b611a16611e2b565b73ffffffffffffffffffffffffffffffffffffffff16611a34611286565b73ffffffffffffffffffffffffffffffffffffffff1614611a8a576040517f08c379a0000000000000000000000000000000000000000000000000000000008152600401611a81906147bc565b60405180910390fd5b565b8060029081611a9b91906149de565b5050565b606060008203611ae6576040518060400160405280600181526020017f30000000000000000000000000000000000000000000000000000000000000008152509050611bfa565b600082905060005b60008214611b18578080611b019061447f565b915050600a82611b119190614684565b9150611aee565b60008167ffffffffffffffff811115611b3457611b3361350e565b5b6040519080825280601f01601f191660200182016040528015611b665781602001600182028036833780820191505090505b5090505b60008514611bf357600182611b7f9190614ab0565b9150600a85611b8e919061438d565b6030611b9a91906142ee565b60f81b818381518110611bb057611baf6143be565b5b60200101907effffffffffffffffffffffffffffffffffffffffffffffffffffffffffffff1916908160001a905350600a85611bec9190614684565b9450611b6a565b8093505050505b919050565b600073ffffffffffffffffffffffffffffffffffffffff168473ffffffffffffffffffffffffffffffffffffffff1603611c6e576040517f08c379a0000000000000000000000000000000000000000000000000000000008152600401611c6590614b56565b60405180910390fd5b8151835114611cb2576040517f08c379a0000000000000000000000000000000000000000000000000000000008152600401611ca990614be8565b60405180910390fd5b6000611cbc611e2b565b9050611ccd81600087878787612ce5565b60005b8451811015611d8657838181518110611cec57611ceb6143be565b5b6020026020010151600080878481518110611d0a57611d096143be565b5b6020026020010151815260200190815260200160002060008873ffffffffffffffffffffffffffffffffffffffff1673ffffffffffffffffffffffffffffffffffffffff1681526020019081526020016000206000828254611d6c91906142ee565b925050819055508080611d7e9061447f565b915050611cd0565b508473ffffffffffffffffffffffffffffffffffffffff16600073ffffffffffffffffffffffffffffffffffffffff168273ffffffffffffffffffffffffffffffffffffffff167f4a39dc06d4c0dbc64b70af90fd698a233a518aa5d07e595d983b8c0526c8f7fb8787604051611dfe929190614c08565b60405180910390a4611e1581600087878787612cfb565b611e2481600087878787612d03565b5050505050565b600033905090565b8151835114611e77576040517f08c379a0000000000000000000000000000000000000000000000000000000008152600401611e6e90614be8565b60405180910390fd5b600073ffffffffffffffffffffffffffffffffffffffff168473ffffffffffffffffffffffffffffffffffffffff1603611ee6576040517f08c379a0000000000000000000000000000000000000000000000000000000008152600401611edd90614cb1565b60405180910390fd5b6000611ef0611e2b565b9050611f00818787878787612ce5565b60005b84518110156120b1576000858281518110611f2157611f206143be565b5b602002602001015190506000858381518110611f4057611f3f6143be565b5b60200260200101519050600080600084815260200190815260200160002060008b73ffffffffffffffffffffffffffffffffffffffff1673ffffffffffffffffffffffffffffffffffffffff16815260200190815260200160002054905081811015611fe1576040517f08c379a0000000000000000000000000000000000000000000000000000000008152600401611fd890614d43565b60405180910390fd5b81810360008085815260200190815260200160002060008c73ffffffffffffffffffffffffffffffffffffffff1673ffffffffffffffffffffffffffffffffffffffff168152602001908152602001600020819055508160008085815260200190815260200160002060008b73ffffffffffffffffffffffffffffffffffffffff1673ffffffffffffffffffffffffffffffffffffffff168152602001908152602001600020600082825461209691906142ee565b92505081905550505050806120aa9061447f565b9050611f03565b508473ffffffffffffffffffffffffffffffffffffffff168673ffffffffffffffffffffffffffffffffffffffff168273ffffffffffffffffffffffffffffffffffffffff167f4a39dc06d4c0dbc64b70af90fd698a233a518aa5d07e595d983b8c0526c8f7fb8787604051612128929190614c08565b60405180910390a461213e818787878787612cfb565b61214c818787878787612d03565b505050505050565b600073ffffffffffffffffffffffffffffffffffffffff168473ffffffffffffffffffffffffffffffffffffffff16036121c3576040517f08c379a00000000000000000000000000000000000000000000000000000000081526004016121ba90614b56565b60405180910390fd5b60006121cd611e2b565b905060006121da85612eda565b905060006121e785612eda565b90506121f883600089858589612ce5565b8460008088815260200190815260200160002060008973ffffffffffffffffffffffffffffffffffffffff1673ffffffffffffffffffffffffffffffffffffffff168152602001908152602001600020600082825461225791906142ee565b925050819055508673ffffffffffffffffffffffffffffffffffffffff16600073ffffffffffffffffffffffffffffffffffffffff168473ffffffffffffffffffffffffffffffffffffffff167fc3d58168c5ae7397731d063d5bbf3d657854427343f4c083240f7aacaa2d0f6289896040516122d5929190614d63565b60405180910390a46122ec83600089858589612cfb565b6122fb83600089898989612f54565b50505050505050565b600073ffffffffffffffffffffffffffffffffffffffff168373ffffffffffffffffffffffffffffffffffffffff1603612373576040517f08c379a000000000000000000000000000000000000000000000000000000000815260040161236a90614dfe565b60405180910390fd5b80518251146123b7576040517f08c379a00000000000000000000000000000000000000000000000000000000081526004016123ae90614be8565b60405180910390fd5b60006123c1611e2b565b90506123e181856000868660405180602001604052806000815250612ce5565b60005b835181101561252e576000848281518110612402576124016143be565b5b602002602001015190506000848381518110612421576124206143be565b5b60200260200101519050600080600084815260200190815260200160002060008973ffffffffffffffffffffffffffffffffffffffff1673ffffffffffffffffffffffffffffffffffffffff168152602001908152602001600020549050818110156124c2576040517f08c379a00000000000000000000000000000000000000000000000000000000081526004016124b990614e90565b60405180910390fd5b81810360008085815260200190815260200160002060008a73ffffffffffffffffffffffffffffffffffffffff1673ffffffffffffffffffffffffffffffffffffffff1681526020019081526020016000208190555050505080806125269061447f565b9150506123e4565b50600073ffffffffffffffffffffffffffffffffffffffff168473ffffffffffffffffffffffffffffffffffffffff168273ffffffffffffffffffffffffffffffffffffffff167f4a39dc06d4c0dbc64b70af90fd698a233a518aa5d07e595d983b8c0526c8f7fb86866040516125a6929190614c08565b60405180910390a46125cc81856000868660405180602001604052806000815250612cfb565b50505050565b6000600360009054906101000a900473ffffffffffffffffffffffffffffffffffffffff16905081600360006101000a81548173ffffffffffffffffffffffffffffffffffffffff021916908373ffffffffffffffffffffffffffffffffffffffff1602179055508173ffffffffffffffffffffffffffffffffffffffff168173ffffffffffffffffffffffffffffffffffffffff167f8be0079c531659141344cd1fd0a4f28419497f9722a3daafe3b4186f6b6457e060405160405180910390a35050565b8173ffffffffffffffffffffffffffffffffffffffff168373ffffffffffffffffffffffffffffffffffffffff1603612706576040517f08c379a00000000000000000000000000000000000000000000000000000000081526004016126fd90614f22565b60405180910390fd5b80600160008573ffffffffffffffffffffffffffffffffffffffff1673ffffffffffffffffffffffffffffffffffffffff16815260200190815260200160002060008473ffffffffffffffffffffffffffffffffffffffff1673ffffffffffffffffffffffffffffffffffffffff16815260200190815260200160002060006101000a81548160ff0219169083151502179055508173ffffffffffffffffffffffffffffffffffffffff168373ffffffffffffffffffffffffffffffffffffffff167f17307eab39ab6107e8899845ad3d59bd9653f200f220920489ca2b5937696c31836040516127f791906134d8565b60405180910390a3505050565b600073ffffffffffffffffffffffffffffffffffffffff168473ffffffffffffffffffffffffffffffffffffffff1603612873576040517f08c379a000000000000000000000000000000000000000000000000000000000815260040161286a90614cb1565b60405180910390fd5b600061287d611e2b565b9050600061288a85612eda565b9050600061289785612eda565b90506128a7838989858589612ce5565b600080600088815260200190815260200160002060008a73ffffffffffffffffffffffffffffffffffffffff1673ffffffffffffffffffffffffffffffffffffffff1681526020019081526020016000205490508581101561293e576040517f08c379a000000000000000000000000000000000000000000000000000000000815260040161293590614d43565b60405180910390fd5b85810360008089815260200190815260200160002060008b73ffffffffffffffffffffffffffffffffffffffff1673ffffffffffffffffffffffffffffffffffffffff168152602001908152602001600020819055508560008089815260200190815260200160002060008a73ffffffffffffffffffffffffffffffffffffffff1673ffffffffffffffffffffffffffffffffffffffff16815260200190815260200160002060008282546129f391906142ee565b925050819055508773ffffffffffffffffffffffffffffffffffffffff168973ffffffffffffffffffffffffffffffffffffffff168573ffffffffffffffffffffffffffffffffffffffff167fc3d58168c5ae7397731d063d5bbf3d657854427343f4c083240f7aacaa2d0f628a8a604051612a70929190614d63565b60405180910390a4612a86848a8a86868a612cfb565b612a94848a8a8a8a8a612f54565b505050505050505050565b600073ffffffffffffffffffffffffffffffffffffffff168373ffffffffffffffffffffffffffffffffffffffff1603612b0e576040517f08c379a0000000000000000000000000000000000000000000000000000000008152600401612b0590614dfe565b60405180910390fd5b6000612b18611e2b565b90506000612b2584612eda565b90506000612b3284612eda565b9050612b5283876000858560405180602001604052806000815250612ce5565b600080600087815260200190815260200160002060008873ffffffffffffffffffffffffffffffffffffffff1673ffffffffffffffffffffffffffffffffffffffff16815260200190815260200160002054905084811015612be9576040517f08c379a0000000000000000000000000000000000000000000000000000000008152600401612be090614e90565b60405180910390fd5b84810360008088815260200190815260200160002060008973ffffffffffffffffffffffffffffffffffffffff1673ffffffffffffffffffffffffffffffffffffffff16815260200190815260200160002081905550600073ffffffffffffffffffffffffffffffffffffffff168773ffffffffffffffffffffffffffffffffffffffff168573ffffffffffffffffffffffffffffffffffffffff167fc3d58168c5ae7397731d063d5bbf3d657854427343f4c083240f7aacaa2d0f628989604051612cb6929190614d63565b60405180910390a4612cdc84886000868660405180602001604052806000815250612cfb565b50505050505050565b612cf386868686868661312b565b505050505050565b505050505050565b612d228473ffffffffffffffffffffffffffffffffffffffff166132fb565b15612ed2578373ffffffffffffffffffffffffffffffffffffffff1663bc197c8187878686866040518663ffffffff1660e01b8152600401612d68959493929190614f97565b6020604051808303816000875af1925050508015612da457506040513d601f19601f82011682018060405250810190612da19190615014565b60015b612e4957612db061504e565b806308c379a003612e0c5750612dc4615070565b80612dcf5750612e0e565b806040517f08c379a0000000000000000000000000000000000000000000000000000000008152600401612e03919061372e565b60405180910390fd5b505b6040517f08c379a0000000000000000000000000000000000000000000000000000000008152600401612e4090615172565b60405180910390fd5b63bc197c8160e01b7bffffffffffffffffffffffffffffffffffffffffffffffffffffffff1916817bffffffffffffffffffffffffffffffffffffffffffffffffffffffff191614612ed0576040517f08c379a0000000000000000000000000000000000000000000000000000000008152600401612ec790615204565b60405180910390fd5b505b505050505050565b60606000600167ffffffffffffffff811115612ef957612ef861350e565b5b604051908082528060200260200182016040528015612f275781602001602082028036833780820191505090505b5090508281600081518110612f3f57612f3e6143be565b5b60200260200101818152505080915050919050565b612f738473ffffffffffffffffffffffffffffffffffffffff166132fb565b15613123578373ffffffffffffffffffffffffffffffffffffffff1663f23a6e6187878686866040518663ffffffff1660e01b8152600401612fb9959493929190615224565b6020604051808303816000875af1925050508015612ff557506040513d601f19601f82011682018060405250810190612ff29190615014565b60015b61309a5761300161504e565b806308c379a00361305d5750613015615070565b80613020575061305f565b806040517f08c379a0000000000000000000000000000000000000000000000000000000008152600401613054919061372e565b60405180910390fd5b505b6040517f08c379a000000000000000000000000000000000000000000000000000000000815260040161309190615172565b60405180910390fd5b63f23a6e6160e01b7bffffffffffffffffffffffffffffffffffffffffffffffffffffffff1916817bffffffffffffffffffffffffffffffffffffffffffffffffffffffff191614613121576040517f08c379a000000000000000000000000000000000000000000000000000000000815260040161311890615204565b60405180910390fd5b505b505050505050565b61313986868686868661331e565b600073ffffffffffffffffffffffffffffffffffffffff168573ffffffffffffffffffffffffffffffffffffffff16036131ea5760005b83518110156131e85782818151811061318c5761318b6143be565b5b6020026020010151600460008684815181106131ab576131aa6143be565b5b6020026020010151815260200190815260200160002060008282546131d091906142ee565b92505081905550806131e19061447f565b9050613170565b505b600073ffffffffffffffffffffffffffffffffffffffff168473ffffffffffffffffffffffffffffffffffffffff16036132f35760005b83518110156132f157600084828151811061323f5761323e6143be565b5b60200260200101519050600084838151811061325e5761325d6143be565b5b60200260200101519050600060046000848152602001908152602001600020549050818110156132c3576040517f08c379a00000000000000000000000000000000000000000000000000000000081526004016132ba906152f0565b60405180910390fd5b8181036004600085815260200190815260200160002081905550505050806132ea9061447f565b9050613221565b505b505050505050565b6000808273ffffffffffffffffffffffffffffffffffffffff163b119050919050565b505050505050565b6000604051905090565b600080fd5b600080fd5b600073ffffffffffffffffffffffffffffffffffffffff82169050919050565b60006133658261333a565b9050919050565b6133758161335a565b811461338057600080fd5b50565b6000813590506133928161336c565b92915050565b6000819050919050565b6133ab81613398565b81146133b657600080fd5b50565b6000813590506133c8816133a2565b92915050565b600080604083850312156133e5576133e4613330565b5b60006133f385828601613383565b9250506020613404858286016133b9565b9150509250929050565b61341781613398565b82525050565b6000602082019050613432600083018461340e565b92915050565b60007fffffffff0000000000000000000000000000000000000000000000000000000082169050919050565b61346d81613438565b811461347857600080fd5b50565b60008135905061348a81613464565b92915050565b6000602082840312156134a6576134a5613330565b5b60006134b48482850161347b565b91505092915050565b60008115159050919050565b6134d2816134bd565b82525050565b60006020820190506134ed60008301846134c9565b92915050565b600080fd5b600080fd5b6000601f19601f8301169050919050565b7f4e487b7100000000000000000000000000000000000000000000000000000000600052604160045260246000fd5b613546826134fd565b810181811067ffffffffffffffff821117156135655761356461350e565b5b80604052505050565b6000613578613326565b9050613584828261353d565b919050565b600067ffffffffffffffff8211156135a4576135a361350e565b5b6135ad826134fd565b9050602081019050919050565b82818337600083830152505050565b60006135dc6135d784613589565b61356e565b9050828152602081018484840111156135f8576135f76134f8565b5b6136038482856135ba565b509392505050565b600082601f8301126136205761361f6134f3565b5b81356136308482602086016135c9565b91505092915050565b60006020828403121561364f5761364e613330565b5b600082013567ffffffffffffffff81111561366d5761366c613335565b5b6136798482850161360b565b91505092915050565b60006020828403121561369857613697613330565b5b60006136a6848285016133b9565b91505092915050565b600081519050919050565b600082825260208201905092915050565b60005b838110156136e95780820151818401526020810190506136ce565b60008484015250505050565b6000613700826136af565b61370a81856136ba565b935061371a8185602086016136cb565b613723816134fd565b840191505092915050565b6000602082019050818103600083015261374881846136f5565b905092915050565b600067ffffffffffffffff82111561376b5761376a61350e565b5b602082029050602081019050919050565b600080fd5b600061379461378f84613750565b61356e565b905080838252602082019050602084028301858111156137b7576137b661377c565b5b835b818110156137e057806137cc88826133b9565b8452602084019350506020810190506137b9565b5050509392505050565b600082601f8301126137ff576137fe6134f3565b5b813561380f848260208601613781565b91505092915050565b600067ffffffffffffffff8211156138335761383261350e565b5b61383c826134fd565b9050602081019050919050565b600061385c61385784613818565b61356e565b905082815260208101848484011115613878576138776134f8565b5b6138838482856135ba565b509392505050565b600082601f8301126138a05761389f6134f3565b5b81356138b0848260208601613849565b91505092915050565b600080600080608085870312156138d3576138d2613330565b5b60006138e187828801613383565b945050602085013567ffffffffffffffff81111561390257613901613335565b5b61390e878288016137ea565b935050604085013567ffffffffffffffff81111561392f5761392e613335565b5b61393b878288016137ea565b925050606085013567ffffffffffffffff81111561395c5761395b613335565b5b6139688782880161388b565b91505092959194509250565b600080600080600060a086880312156139905761398f613330565b5b600061399e88828901613383565b95505060206139af88828901613383565b945050604086013567ffffffffffffffff8111156139d0576139cf613335565b5b6139dc888289016137ea565b935050606086013567ffffffffffffffff8111156139fd576139fc613335565b5b613a09888289016137ea565b925050608086013567ffffffffffffffff811115613a2a57613a29613335565b5b613a368882890161388b565b9150509295509295909350565b60008060408385031215613a5a57613a59613330565b5b6000613a68858286016133b9565b9250506020613a79858286016133b9565b9150509250929050565b6000613a8e8261333a565b9050919050565b613a9e81613a83565b82525050565b6000602082019050613ab96000830184613a95565b92915050565b600067ffffffffffffffff821115613ada57613ad961350e565b5b602082029050602081019050919050565b6000613afe613af984613abf565b61356e565b90508083825260208201905060208402830185811115613b2157613b2061377c565b5b835b81811015613b4a5780613b368882613383565b845260208401935050602081019050613b23565b5050509392505050565b600082601f830112613b6957613b686134f3565b5b8135613b79848260208601613aeb565b91505092915050565b60008060408385031215613b9957613b98613330565b5b600083013567ffffffffffffffff811115613bb757613bb6613335565b5b613bc385828601613b54565b925050602083013567ffffffffffffffff811115613be457613be3613335565b5b613bf0858286016137ea565b9150509250929050565b600081519050919050565b600082825260208201905092915050565b6000819050602082019050919050565b613c2f81613398565b82525050565b6000613c418383613c26565b60208301905092915050565b6000602082019050919050565b6000613c6582613bfa565b613c6f8185613c05565b9350613c7a83613c16565b8060005b83811015613cab578151613c928882613c35565b9750613c9d83613c4d565b925050600181019050613c7e565b5085935050505092915050565b60006020820190508181036000830152613cd28184613c5a565b905092915050565b600080600060608486031215613cf357613cf2613330565b5b6000613d0186828701613383565b935050602084013567ffffffffffffffff811115613d2257613d21613335565b5b613d2e868287016137ea565b925050604084013567ffffffffffffffff811115613d4f57613d4e613335565b5b613d5b868287016137ea565b9150509250925092565b613d6e8161335a565b82525050565b6000602082019050613d896000830184613d65565b92915050565b613d98816134bd565b8114613da357600080fd5b50565b600081359050613db581613d8f565b92915050565b60008060408385031215613dd257613dd1613330565b5b6000613de085828601613383565b9250506020613df185828601613da6565b9150509250929050565b600060208284031215613e1157613e10613330565b5b6000613e1f84828501613383565b91505092915050565b600081519050919050565b600082825260208201905092915050565b6000819050602082019050919050565b600082825260208201905092915050565b6000613e7082613bfa565b613e7a8185613e54565b9350613e8583613c16565b8060005b83811015613eb6578151613e9d8882613c35565b9750613ea883613c4d565b925050600181019050613e89565b5085935050505092915050565b6000613ecf8383613e65565b905092915050565b6000602082019050919050565b6000613eef82613e28565b613ef98185613e33565b935083602082028501613f0b85613e44565b8060005b85811015613f475784840389528151613f288582613ec3565b9450613f3383613ed7565b925060208a01995050600181019050613f0f565b50829750879550505050505092915050565b60006020820190508181036000830152613f738184613ee4565b905092915050565b60008060408385031215613f9257613f91613330565b5b6000613fa085828601613383565b9250506020613fb185828601613383565b9150509250929050565b600080600080600060a08688031215613fd757613fd6613330565b5b6000613fe588828901613383565b9550506020613ff688828901613383565b9450506040614007888289016133b9565b9350506060614018888289016133b9565b925050608086013567ffffffffffffffff81111561403957614038613335565b5b6140458882890161388b565b9150509295509295909350565b60008060006060848603121561406b5761406a613330565b5b600061407986828701613383565b935050602061408a868287016133b9565b925050604061409b868287016133b9565b9150509250925092565b7f455243313135353a2061646472657373207a65726f206973206e6f742061207660008201527f616c6964206f776e657200000000000000000000000000000000000000000000602082015250565b6000614101602a836136ba565b915061410c826140a5565b604082019050919050565b60006020820190508181036000830152614130816140f4565b9050919050565b600081905092915050565b7f68747470733a2f2f697066732e696f2f697066732f516d556b5555574269736960008201527f46613958556b3475634a6944723266766b3274447231784472436b454636464660208201527f4346382f00000000000000000000000000000000000000000000000000000000604082015250565b60006141c4604483614137565b91506141cf82614142565b604482019050919050565b60006141e5826136af565b6141ef8185614137565b93506141ff8185602086016136cb565b80840191505092915050565b6000614216826141b7565b915061422282846141da565b915081905092915050565b7f455243313135353a2063616c6c6572206973206e6f7420746f6b656e206f776e60008201527f6572206e6f7220617070726f7665640000000000000000000000000000000000602082015250565b6000614289602f836136ba565b91506142948261422d565b604082019050919050565b600060208201905081810360008301526142b88161427c565b9050919050565b7f4e487b7100000000000000000000000000000000000000000000000000000000600052601160045260246000fd5b60006142f982613398565b915061430483613398565b925082820190508082111561431c5761431b6142bf565b5b92915050565b6000819050919050565b61433d61433882613398565b614322565b82525050565b600061434f828461432c565b60208201915081905092915050565b7f4e487b7100000000000000000000000000000000000000000000000000000000600052601260045260246000fd5b600061439882613398565b91506143a383613398565b9250826143b3576143b261435e565b5b828206905092915050565b7f4e487b7100000000000000000000000000000000000000000000000000000000600052603260045260246000fd5b7f455243313135353a206163636f756e747320616e6420696473206c656e67746860008201527f206d69736d617463680000000000000000000000000000000000000000000000602082015250565b60006144496029836136ba565b9150614454826143ed565b604082019050919050565b600060208201905081810360008301526144788161443c565b9050919050565b600061448a82613398565b91507fffffffffffffffffffffffffffffffffffffffffffffffffffffffffffffffff82036144bc576144bb6142bf565b5b600182019050919050565b60006144d282613398565b91506144dd83613398565b92508282026144eb81613398565b91508282048414831517614502576145016142bf565b5b5092915050565b600060608201905061451e6000830186613d65565b61452b6020830185613d65565b614538604083018461340e565b949350505050565b60008151905061454f81613d8f565b92915050565b60006020828403121561456b5761456a613330565b5b600061457984828501614540565b91505092915050565b7f496e637265617365436f6e7472616374204661696c0000000000000000000000600082015250565b60006145b86015836136ba565b91506145c382614582565b602082019050919050565b600060208201905081810360008301526145e7816145ab565b9050919050565b6000819050919050565b600061461361460e6146098461333a565b6145ee565b61333a565b9050919050565b6000614625826145f8565b9050919050565b60006146378261461a565b9050919050565b6146478161462c565b82525050565b60006060820190506146626000830186613d65565b61466f602083018561463e565b61467c604083018461340e565b949350505050565b600061468f82613398565b915061469a83613398565b9250826146aa576146a961435e565b5b828204905092915050565b60006040820190506146ca600083018561463e565b6146d7602083018461340e565b9392505050565b7f4f776e61626c653a206e6577206f776e657220697320746865207a65726f206160008201527f6464726573730000000000000000000000000000000000000000000000000000602082015250565b600061473a6026836136ba565b9150614745826146de565b604082019050919050565b600060208201905081810360008301526147698161472d565b9050919050565b7f4f776e61626c653a2063616c6c6572206973206e6f7420746865206f776e6572600082015250565b60006147a66020836136ba565b91506147b182614770565b602082019050919050565b600060208201905081810360008301526147d581614799565b9050919050565b7f4e487b7100000000000000000000000000000000000000000000000000000000600052602260045260246000fd5b6000600282049050600182168061482357607f821691505b602082108103614836576148356147dc565b5b50919050565b60008190508160005260206000209050919050565b60006020601f8301049050919050565b600082821b905092915050565b60006008830261489e7fffffffffffffffffffffffffffffffffffffffffffffffffffffffffffffffff82614861565b6148a88683614861565b95508019841693508086168417925050509392505050565b60006148db6148d66148d184613398565b6145ee565b613398565b9050919050565b6000819050919050565b6148f5836148c0565b614909614901826148e2565b84845461486e565b825550505050565b600090565b61491e614911565b6149298184846148ec565b505050565b5b8181101561494d57614942600082614916565b60018101905061492f565b5050565b601f821115614992576149638161483c565b61496c84614851565b8101602085101561497b578190505b61498f61498785614851565b83018261492e565b50505b505050565b600082821c905092915050565b60006149b560001984600802614997565b1980831691505092915050565b60006149ce83836149a4565b9150826002028217905092915050565b6149e7826136af565b67ffffffffffffffff811115614a00576149ff61350e565b5b614a0a825461480b565b614a15828285614951565b600060209050601f831160018114614a485760008415614a36578287015190505b614a4085826149c2565b865550614aa8565b601f198416614a568661483c565b60005b82811015614a7e57848901518255600182019150602085019450602081019050614a59565b86831015614a9b5784890151614a97601f8916826149a4565b8355505b6001600288020188555050505b505050505050565b6000614abb82613398565b9150614ac683613398565b9250828203905081811115614ade57614add6142bf565b5b92915050565b7f455243313135353a206d696e7420746f20746865207a65726f2061646472657360008201527f7300000000000000000000000000000000000000000000000000000000000000602082015250565b6000614b406021836136ba565b9150614b4b82614ae4565b604082019050919050565b60006020820190508181036000830152614b6f81614b33565b9050919050565b7f455243313135353a2069647320616e6420616d6f756e7473206c656e6774682060008201527f6d69736d61746368000000000000000000000000000000000000000000000000602082015250565b6000614bd26028836136ba565b9150614bdd82614b76565b604082019050919050565b60006020820190508181036000830152614c0181614bc5565b9050919050565b60006040820190508181036000830152614c228185613c5a565b90508181036020830152614c368184613c5a565b90509392505050565b7f455243313135353a207472616e7366657220746f20746865207a65726f20616460008201527f6472657373000000000000000000000000000000000000000000000000000000602082015250565b6000614c9b6025836136ba565b9150614ca682614c3f565b604082019050919050565b60006020820190508181036000830152614cca81614c8e565b9050919050565b7f455243313135353a20696e73756666696369656e742062616c616e636520666f60008201527f72207472616e7366657200000000000000000000000000000000000000000000602082015250565b6000614d2d602a836136ba565b9150614d3882614cd1565b604082019050919050565b60006020820190508181036000830152614d5c81614d20565b9050919050565b6000604082019050614d78600083018561340e565b614d85602083018461340e565b9392505050565b7f455243313135353a206275726e2066726f6d20746865207a65726f206164647260008201527f6573730000000000000000000000000000000000000000000000000000000000602082015250565b6000614de86023836136ba565b9150614df382614d8c565b604082019050919050565b60006020820190508181036000830152614e1781614ddb565b9050919050565b7f455243313135353a206275726e20616d6f756e7420657863656564732062616c60008201527f616e636500000000000000000000000000000000000000000000000000000000602082015250565b6000614e7a6024836136ba565b9150614e8582614e1e565b604082019050919050565b60006020820190508181036000830152614ea981614e6d565b9050919050565b7f455243313135353a2073657474696e6720617070726f76616c2073746174757360008201527f20666f722073656c660000000000000000000000000000000000000000000000602082015250565b6000614f0c6029836136ba565b9150614f1782614eb0565b604082019050919050565b60006020820190508181036000830152614f3b81614eff565b9050919050565b600081519050919050565b600082825260208201905092915050565b6000614f6982614f42565b614f738185614f4d565b9350614f838185602086016136cb565b614f8c816134fd565b840191505092915050565b600060a082019050614fac6000830188613d65565b614fb96020830187613d65565b8181036040830152614fcb8186613c5a565b90508181036060830152614fdf8185613c5a565b90508181036080830152614ff38184614f5e565b90509695505050505050565b60008151905061500e81613464565b92915050565b60006020828403121561502a57615029613330565b5b600061503884828501614fff565b91505092915050565b60008160e01c9050919050565b600060033d111561506d5760046000803e61506a600051615041565b90505b90565b600060443d106150fd57615082613326565b60043d036004823e80513d602482011167ffffffffffffffff821117156150aa5750506150fd565b808201805167ffffffffffffffff8111156150c857505050506150fd565b80602083010160043d0385018111156150e55750505050506150fd565b6150f48260200185018661353d565b82955050505050505b90565b7f455243313135353a207472616e7366657220746f206e6f6e204552433131353560008201527f526563656976657220696d706c656d656e746572000000000000000000000000602082015250565b600061515c6034836136ba565b915061516782615100565b604082019050919050565b6000602082019050818103600083015261518b8161514f565b9050919050565b7f455243313135353a204552433131353552656365697665722072656a6563746560008201527f6420746f6b656e73000000000000000000000000000000000000000000000000602082015250565b60006151ee6028836136ba565b91506151f982615192565b604082019050919050565b6000602082019050818103600083015261521d816151e1565b9050919050565b600060a0820190506152396000830188613d65565b6152466020830187613d65565b615253604083018661340e565b615260606083018561340e565b81810360808301526152728184614f5e565b90509695505050505050565b7f455243313135353a206275726e20616d6f756e74206578636565647320746f7460008201527f616c537570706c79000000000000000000000000000000000000000000000000602082015250565b60006152da6028836136ba565b91506152e58261527e565b604082019050919050565b60006020820190508181036000830152615309816152cd565b905091905056fea2646970667358221220a8bcafa260a114cb39597a8b0a0dcc7155932ed02504aa54a248f4b93ce10fa064736f6c63430008110033697066733a2f2f516d556b5555574269736946613958556b3475634a6944723266766b3274447231784472436b45463646464346382f7b69647d",
  "immutableReferences": {},
  "source": "// SPDX-License-Identifier: MIT\npragma solidity ^0.8.4;\n\nimport \"@openzeppelin/contracts/token/ERC1155/ERC1155.sol\";\nimport \"@openzeppelin/contracts/access/Ownable.sol\";\nimport \"@openzeppelin/contracts/token/ERC1155/extensions/ERC1155Burnable.sol\";\nimport \"@openzeppelin/contracts/token/ERC1155/extensions/ERC1155Supply.sol\";\nimport \"@openzeppelin/contracts/utils/Strings.sol\";\nimport \"./JMToken.sol\";\n\ncontract MapleItems is ERC1155, Ownable, ERC1155Burnable, ERC1155Supply {\n    JMToken private token;\n    uint256 decimals = 10**18;\n    address payable public treasuryWallet; //  !\n    uint256 private mintPrice;\n\n    uint256[] private waitForMint;\n    uint256[] private firstMint;\n    uint256[] private itemCheck;\n    uint256[] private scrollMint;\n    address private marketContractAddress;\n\n    uint256 public constant SWORD0 = 0;\n    uint256 public constant SWORD1 = 1;\n    uint256 public constant SWORD2 = 2;\n    uint256 public constant SWORD3 = 3;\n\n    uint256 public constant BOW0 = 100;\n    uint256 public constant BOW1 = 101;\n    uint256 public constant BOW2 = 102;\n\n    uint256 public constant STAFF0 = 200;\n    uint256 public constant STAFF1 = 201;\n    uint256 public constant STAFF2 = 202;\n\n    uint256 public constant POLEARM0 = 300;\n    uint256 public constant POLEARM1 = 301;\n    uint256 public constant POLEARM2 = 302;\n\n    uint256 public constant SCROLL100 = 400;\n    uint256 public constant SCROLL90 = 401;\n    uint256 public constant SCROLL60 = 402;\n    uint256 public constant SCROLL30 = 403;\n    uint256 public constant SCROLL10 = 404;\n\n    constructor(\n        address _marketAddress,\n        JMToken _tokenContractAddress,\n        address payable _treasuryWallet) \n        ERC1155(\"ipfs://QmUkUUWBisiFa9XUk4ucJiDr2fvk2tDr1xDrCkEF6FFCF8/{id}\") {\n        mintPrice = 1;\n        \n        marketContractAddress = _marketAddress;\n        _setToken(_tokenContractAddress);\n        _generateWeaponArray();\n        _generatefirstWeapon();\n        _generateItemCheck();\n        _generateScrollArray();\n        \n        treasuryWallet = _treasuryWallet;\n    }\n\n    function uri(uint256 _tokenid) override public pure returns (string memory) {\n        return string(\n            abi.encodePacked(\n                \"https://ipfs.io/ipfs/QmUkUUWBisiFa9XUk4ucJiDr2fvk2tDr1xDrCkEF6FFCF8/\",\n                Strings.toString(_tokenid)\n            )\n        );\n    }\n\n    function setURI(string memory newuri) public onlyOwner {\n        _setURI(newuri);\n    }\n\n    function _generateWeaponArray() private onlyOwner{\n        for (uint256 i = 0; i < 4; i++ ){\n            waitForMint.push(SWORD0); \n        }\n        for (uint256 i = 0; i < 3; i++ ){\n            waitForMint.push(SWORD1);\n        }\n        for (uint256 i = 0; i < 2; i++ ){\n            waitForMint.push(SWORD2); \n        }\n        for (uint256 i = 0; i < 1; i++ ){\n            waitForMint.push(SWORD3); \n        }\n        \n        for (uint256 i = 0; i < 4; i++ ){\n            waitForMint.push(BOW0); \n        }\n        for (uint256 i = 0; i < 3; i++ ){\n            waitForMint.push(BOW1);\n        }\n        for (uint256 i = 0; i < 2; i++ ){\n            waitForMint.push(BOW2); \n        }\n\n        for (uint256 i = 0; i < 4; i++ ){\n            waitForMint.push(STAFF0); \n        }\n        for (uint256 i = 0; i < 3; i++ ){\n            waitForMint.push(STAFF1);\n        }\n        for (uint256 i = 0; i < 2; i++ ){\n            waitForMint.push(STAFF2); \n        }\n\n        for (uint256 i = 0; i < 4; i++ ){\n            waitForMint.push(POLEARM0); \n        }\n        for (uint256 i = 0; i < 3; i++ ){\n            waitForMint.push(POLEARM1);\n        }\n        for (uint256 i = 0; i < 2; i++ ){\n            waitForMint.push(POLEARM2); \n        }\n    }\n\n    function _generatefirstWeapon() private onlyOwner{\n        firstMint.push(SWORD0); \n        firstMint.push(BOW0); \n        firstMint.push(STAFF0); \n        firstMint.push(POLEARM0); \n    }\n\n    function _generateItemCheck() private onlyOwner{\n        itemCheck.push(SWORD0);\n        itemCheck.push(SWORD1);\n        itemCheck.push(SWORD2);\n        itemCheck.push(SWORD3);\n\n        itemCheck.push(BOW0);\n        itemCheck.push(BOW1);\n        itemCheck.push(BOW2);\n\n        itemCheck.push(STAFF0);\n        itemCheck.push(STAFF1);\n        itemCheck.push(STAFF2);\n\n        itemCheck.push(POLEARM0);\n        itemCheck.push(POLEARM1);\n        itemCheck.push(POLEARM2);\n\n        itemCheck.push(SCROLL100);\n        itemCheck.push(SCROLL90);\n        itemCheck.push(SCROLL60);\n        itemCheck.push(SCROLL30);\n        itemCheck.push(SCROLL10);\n    }\n\n    function _generateScrollArray() private onlyOwner{\n        for (uint256 i = 0; i < 1; i++ ){\n            scrollMint.push(SCROLL100); \n        }\n        for (uint256 i = 0; i < 2; i++ ){\n            scrollMint.push(SCROLL90);\n        }\n        for (uint256 i = 0; i < 4; i++ ){\n            scrollMint.push(SCROLL60); \n        }\n        for (uint256 i = 0; i < 6; i++ ){\n            scrollMint.push(SCROLL30); \n        }\n        for (uint256 i = 0; i < 7; i++ ){\n            scrollMint.push(SCROLL10); \n        }\n    }\n\n    function mintFirstWeapon() public {\n        uint256 n = uint256(keccak256(abi.encodePacked(block.timestamp))) % (firstMint.length);\n        uint id = firstMint[n];\n        \n        _mint(msg.sender, id, 1, \"\");\n        setApprovalForAll(marketContractAddress, true);\n    }\n\n    function mintRandomWeapon() public payable returns (uint256){  \n        uint256 n = uint256(keccak256(abi.encodePacked(block.timestamp))) % (waitForMint.length);\n        uint256 id = waitForMint[n];\n        \n        _mint(msg.sender, id, 1, \"\");\n        setApprovalForAll(marketContractAddress, true);\n        \n        //   \n        bool success = token.increaseContractAllowance(\n            msg.sender, \n            address(this),\n            mintPrice * decimals\n        );\n        require(success,\"IncreaseContract Fail\");\n        token.transferFrom(msg.sender, treasuryWallet, mintPrice * decimals); \n        token.marketBurn(treasuryWallet, (mintPrice * decimals)/2);\n\n        return id;\n    }\n\n    function mintScroll() public {\n        uint256 n = uint256(keccak256(abi.encodePacked(block.timestamp))) % (scrollMint.length);\n        uint id = scrollMint[n];\n        \n        _mint(msg.sender, id, 1, \"\");\n        setApprovalForAll(marketContractAddress, true);\n    }\n\n    function upgrade(uint256 scrollId, uint256 weaponId) public{\n        _mint(msg.sender, weaponId+1, 1, \"\");\n        setApprovalForAll(marketContractAddress, true);\n    }\n\n    function mintBatch(address to, uint256[] memory ids, uint256[] memory amounts, bytes memory data)\n        public\n        onlyOwner\n    {\n        _mintBatch(to, ids, amounts, data);\n    }\n\n    function balanceCheck(address sender) public returns(uint256[][] memory){\n        uint256[][] memory balance = new uint256[][](itemCheck.length);\n        uint256 count = 0;\n\n        for(uint256 i=0; i<itemCheck.length; i++){\n            uint256 mybalance = balanceOf(sender, itemCheck[i]); \n            if(mybalance!=0){\n                balance[count] = new uint256[](2);\n                balance[count][0] = itemCheck[i];\n                balance[count][1] = mybalance;\n                count++;\n            }            \n        }\n\n        uint256[][] memory result = new uint256[][](count);\n        for(uint256 i=0; i<count; i++){\n            result[i] = new uint256[](2);\n            result[i][0] = balance[i][0];\n            result[i][1] = balance[i][1];\n        }\n\n        return result;\n    }\n    \n    function _setToken(JMToken _tokenAddress) private onlyOwner returns (bool) {\n        require(address(_tokenAddress) != address(0x0));\n        token =_tokenAddress;\n        return true;\n    }\n    // The following functions are overrides required by Solidity.\n\n    function _beforeTokenTransfer(address operator, address from, address to, uint256[] memory ids, uint256[] memory amounts, bytes memory data)\n        internal\n        override(ERC1155, ERC1155Supply)\n    {\n        super._beforeTokenTransfer(operator, from, to, ids, amounts, data);\n    }\n}",
  "sourcePath": "/home/kbi/blockChain_part/bebpro_3/main/BEB-05-JMT/contract/contracts/MapleItems.sol",
  "compiler": {
    "name": "solc",
    "version": "0.8.17+commit.8df45f5f.Emscripten.clang"
  },
  "schemaVersion": "3.4.9",
  "updatedAt": "2022-09-20T11:25:46.475Z",
  "networkType": "ethereum",
  "devdoc": {
    "kind": "dev",
    "methods": {
      "balanceOf(address,uint256)": {
        "details": "See {IERC1155-balanceOf}. Requirements: - `account` cannot be the zero address."
      },
      "balanceOfBatch(address[],uint256[])": {
        "details": "See {IERC1155-balanceOfBatch}. Requirements: - `accounts` and `ids` must have the same length."
      },
      "exists(uint256)": {
        "details": "Indicates whether any token exist with a given id, or not."
      },
      "isApprovedForAll(address,address)": {
        "details": "See {IERC1155-isApprovedForAll}."
      },
      "owner()": {
        "details": "Returns the address of the current owner."
      },
      "renounceOwnership()": {
        "details": "Leaves the contract without owner. It will not be possible to call `onlyOwner` functions anymore. Can only be called by the current owner. NOTE: Renouncing ownership will leave the contract without an owner, thereby removing any functionality that is only available to the owner."
      },
      "safeBatchTransferFrom(address,address,uint256[],uint256[],bytes)": {
        "details": "See {IERC1155-safeBatchTransferFrom}."
      },
      "safeTransferFrom(address,address,uint256,uint256,bytes)": {
        "details": "See {IERC1155-safeTransferFrom}."
      },
      "setApprovalForAll(address,bool)": {
        "details": "See {IERC1155-setApprovalForAll}."
      },
      "supportsInterface(bytes4)": {
        "details": "See {IERC165-supportsInterface}."
      },
      "totalSupply(uint256)": {
        "details": "Total amount of tokens in with a given id."
      },
      "transferOwnership(address)": {
        "details": "Transfers ownership of the contract to a new account (`newOwner`). Can only be called by the current owner."
      }
    },
    "version": 1
  },
  "userdoc": {
    "kind": "user",
    "methods": {},
    "version": 1
  }
}