{
  "contractName": "MapleUser",
  "abi": [
    {
      "inputs": [
        {
          "internalType": "address",
          "name": "_tokenContractAddress",
          "type": "address"
        },
        {
          "internalType": "address",
          "name": "_nftContractAddress",
          "type": "address"
        },
        {
          "internalType": "address",
          "name": "_itemContractAddress",
          "type": "address"
        },
        {
          "internalType": "address payable",
          "name": "_treasuryWallet",
          "type": "address"
        }
      ],
      "stateMutability": "nonpayable",
      "type": "constructor"
    },
    {
      "anonymous": false,
      "inputs": [
        {
          "indexed": true,
          "internalType": "address",
          "name": "previousOwner",
          "type": "address"
        },
        {
          "indexed": true,
          "internalType": "address",
          "name": "newOwner",
          "type": "address"
        }
      ],
      "name": "OwnershipTransferred",
      "type": "event"
    },
    {
      "anonymous": false,
      "inputs": [
        {
          "indexed": false,
          "internalType": "uint256",
          "name": "charId",
          "type": "uint256"
        },
        {
          "indexed": false,
          "internalType": "uint256",
          "name": "weaponId",
          "type": "uint256"
        },
        {
          "indexed": false,
          "internalType": "uint256",
          "name": "userId",
          "type": "uint256"
        },
        {
          "indexed": false,
          "internalType": "address",
          "name": "user",
          "type": "address"
        }
      ],
      "name": "UserCreated",
      "type": "event"
    },
    {
      "anonymous": false,
      "inputs": [
        {
          "indexed": false,
          "internalType": "uint256",
          "name": "charId",
          "type": "uint256"
        },
        {
          "indexed": false,
          "internalType": "uint256",
          "name": "weaponId",
          "type": "uint256"
        },
        {
          "indexed": false,
          "internalType": "uint256",
          "name": "userId",
          "type": "uint256"
        },
        {
          "indexed": false,
          "internalType": "address",
          "name": "user",
          "type": "address"
        }
      ],
      "name": "UserDeleated",
      "type": "event"
    },
    {
      "anonymous": false,
      "inputs": [
        {
          "indexed": false,
          "internalType": "uint256",
          "name": "charId",
          "type": "uint256"
        },
        {
          "indexed": false,
          "internalType": "uint256",
          "name": "weaponId",
          "type": "uint256"
        },
        {
          "indexed": false,
          "internalType": "uint256",
          "name": "userId",
          "type": "uint256"
        },
        {
          "indexed": false,
          "internalType": "address",
          "name": "user",
          "type": "address"
        }
      ],
      "name": "UserMatching",
      "type": "event"
    },
    {
      "anonymous": false,
      "inputs": [
        {
          "indexed": false,
          "internalType": "uint256",
          "name": "charId",
          "type": "uint256"
        },
        {
          "indexed": false,
          "internalType": "uint256",
          "name": "weaponId",
          "type": "uint256"
        },
        {
          "indexed": false,
          "internalType": "uint256",
          "name": "userId",
          "type": "uint256"
        },
        {
          "indexed": false,
          "internalType": "address",
          "name": "user",
          "type": "address"
        }
      ],
      "name": "UserUpdated",
      "type": "event"
    },
    {
      "inputs": [],
      "name": "owner",
      "outputs": [
        {
          "internalType": "address",
          "name": "",
          "type": "address"
        }
      ],
      "stateMutability": "view",
      "type": "function",
      "constant": true
    },
    {
      "inputs": [],
      "name": "renounceOwnership",
      "outputs": [],
      "stateMutability": "nonpayable",
      "type": "function"
    },
    {
      "inputs": [
        {
          "internalType": "address",
          "name": "newOwner",
          "type": "address"
        }
      ],
      "name": "transferOwnership",
      "outputs": [],
      "stateMutability": "nonpayable",
      "type": "function"
    },
    {
      "inputs": [
        {
          "internalType": "uint256",
          "name": "_charId",
          "type": "uint256"
        },
        {
          "internalType": "uint256",
          "name": "_weaponId",
          "type": "uint256"
        }
      ],
      "name": "signUp",
      "outputs": [],
      "stateMutability": "nonpayable",
      "type": "function"
    },
    {
      "inputs": [
        {
          "internalType": "uint256",
          "name": "_charId",
          "type": "uint256"
        },
        {
          "internalType": "uint256",
          "name": "_userId",
          "type": "uint256"
        }
      ],
      "name": "updateChar",
      "outputs": [],
      "stateMutability": "nonpayable",
      "type": "function"
    },
    {
      "inputs": [
        {
          "internalType": "uint256",
          "name": "_weaponId",
          "type": "uint256"
        },
        {
          "internalType": "uint256",
          "name": "_userId",
          "type": "uint256"
        }
      ],
      "name": "updateWeapon",
      "outputs": [],
      "stateMutability": "nonpayable",
      "type": "function"
    },
    {
      "inputs": [
        {
          "internalType": "address",
          "name": "_user",
          "type": "address"
        }
      ],
      "name": "matchUser",
      "outputs": [
        {
          "components": [
            {
              "internalType": "uint256",
              "name": "userId",
              "type": "uint256"
            },
            {
              "components": [
                {
                  "internalType": "address",
                  "name": "contractAddr",
                  "type": "address"
                },
                {
                  "internalType": "uint256",
                  "name": "tokenId",
                  "type": "uint256"
                }
              ],
              "internalType": "struct MapleUser.Token",
              "name": "charToken",
              "type": "tuple"
            },
            {
              "components": [
                {
                  "internalType": "address",
                  "name": "contractAddr",
                  "type": "address"
                },
                {
                  "internalType": "uint256",
                  "name": "tokenId",
                  "type": "uint256"
                }
              ],
              "internalType": "struct MapleUser.Token",
              "name": "weaponToken",
              "type": "tuple"
            },
            {
              "internalType": "address payable",
              "name": "user",
              "type": "address"
            }
          ],
          "internalType": "struct MapleUser.UserInfo",
          "name": "",
          "type": "tuple"
        }
      ],
      "stateMutability": "view",
      "type": "function",
      "constant": true
    },
    {
      "inputs": [],
      "name": "fetchUsers",
      "outputs": [
        {
          "components": [
            {
              "internalType": "uint256",
              "name": "userId",
              "type": "uint256"
            },
            {
              "components": [
                {
                  "internalType": "address",
                  "name": "contractAddr",
                  "type": "address"
                },
                {
                  "internalType": "uint256",
                  "name": "tokenId",
                  "type": "uint256"
                }
              ],
              "internalType": "struct MapleUser.Token",
              "name": "charToken",
              "type": "tuple"
            },
            {
              "components": [
                {
                  "internalType": "address",
                  "name": "contractAddr",
                  "type": "address"
                },
                {
                  "internalType": "uint256",
                  "name": "tokenId",
                  "type": "uint256"
                }
              ],
              "internalType": "struct MapleUser.Token",
              "name": "weaponToken",
              "type": "tuple"
            },
            {
              "internalType": "address payable",
              "name": "user",
              "type": "address"
            }
          ],
          "internalType": "struct MapleUser.UserInfo[]",
          "name": "",
          "type": "tuple[]"
        }
      ],
      "stateMutability": "view",
      "type": "function",
      "constant": true
    },
    {
      "inputs": [
        {
          "internalType": "address",
          "name": "",
          "type": "address"
        },
        {
          "internalType": "address",
          "name": "",
          "type": "address"
        },
        {
          "internalType": "uint256",
          "name": "",
          "type": "uint256"
        },
        {
          "internalType": "uint256",
          "name": "",
          "type": "uint256"
        },
        {
          "internalType": "bytes",
          "name": "",
          "type": "bytes"
        }
      ],
      "name": "onERC1155Received",
      "outputs": [
        {
          "internalType": "bytes4",
          "name": "",
          "type": "bytes4"
        }
      ],
      "stateMutability": "nonpayable",
      "type": "function"
    },
    {
      "inputs": [
        {
          "internalType": "address",
          "name": "",
          "type": "address"
        },
        {
          "internalType": "address",
          "name": "",
          "type": "address"
        },
        {
          "internalType": "uint256[]",
          "name": "",
          "type": "uint256[]"
        },
        {
          "internalType": "uint256[]",
          "name": "",
          "type": "uint256[]"
        },
        {
          "internalType": "bytes",
          "name": "",
          "type": "bytes"
        }
      ],
      "name": "onERC1155BatchReceived",
      "outputs": [
        {
          "internalType": "bytes4",
          "name": "",
          "type": "bytes4"
        }
      ],
      "stateMutability": "nonpayable",
      "type": "function"
    },
    {
      "inputs": [
        {
          "internalType": "address",
          "name": "",
          "type": "address"
        },
        {
          "internalType": "address",
          "name": "",
          "type": "address"
        },
        {
          "internalType": "uint256",
          "name": "",
          "type": "uint256"
        },
        {
          "internalType": "bytes",
          "name": "",
          "type": "bytes"
        }
      ],
      "name": "onERC721Received",
      "outputs": [
        {
          "internalType": "bytes4",
          "name": "",
          "type": "bytes4"
        }
      ],
      "stateMutability": "nonpayable",
      "type": "function"
    }
  ],
  "bytecode": "0x6080604052670de0b6b3a76400006002553480156200001d57600080fd5b506040516200134f3803806200134f8339810160408190526200004091620001aa565b6200004b336200009b565b6200005684620000eb565b50600580546001600160a01b039485166001600160a01b0319918216179091556006805493851693821693909317909255600480549190931691161790555062000212565b600080546001600160a01b038381166001600160a01b0319831681178455604051919092169283917f8be0079c531659141344cd1fd0a4f28419497f9722a3daafe3b4186f6b6457e09190a35050565b6000620000f762000130565b6001600160a01b0382166200010b57600080fd5b50600380546001600160a01b0383166001600160a01b03199091161790556001919050565b6000546001600160a01b031633146200018f5760405162461bcd60e51b815260206004820181905260248201527f4f776e61626c653a2063616c6c6572206973206e6f7420746865206f776e6572604482015260640160405180910390fd5b565b6001600160a01b0381168114620001a757600080fd5b50565b60008060008060808587031215620001c157600080fd5b8451620001ce8162000191565b6020860151909450620001e18162000191565b6040860151909350620001f48162000191565b6060860151909250620002078162000191565b939692955090935050565b61112d80620002226000396000f3fe608060405234801561001057600080fd5b50600436106100c95760003560e01c8063aeeda6bf11610081578063da56ef3a1161005b578063da56ef3a146101e6578063f23a6e6114610206578063f2fde38b1461023e57600080fd5b8063aeeda6bf14610186578063bc197c8114610199578063bfcad433146101d157600080fd5b80635c7dec1b116100b25780635c7dec1b14610150578063715018a6146101635780638da5cb5b1461016b57600080fd5b8063150b7a02146100ce57806336b181651461013b575b600080fd5b6101056100dc366004610ce1565b7f150b7a0200000000000000000000000000000000000000000000000000000000949350505050565b6040517fffffffff0000000000000000000000000000000000000000000000000000000090911681526020015b60405180910390f35b61014e610149366004610d4d565b610251565b005b61014e61015e366004610d4d565b6103a2565b61014e6104d5565b6000546040516001600160a01b039091168152602001610132565b61014e610194366004610d4d565b6104e9565b6101056101a7366004610def565b7fbc197c810000000000000000000000000000000000000000000000000000000095945050505050565b6101d96107ae565b6040516101329190610e9d565b6101f96101f4366004610f3f565b6108e2565b6040516101329190610f63565b610105610214366004610fcb565b7ff23a6e610000000000000000000000000000000000000000000000000000000095945050505050565b61014e61024c366004610f3f565b610a5e565b600654604051627eeac760e11b8152336004820152602481018490526001600160a01b039091169062fdd58e90604401602060405180830381865afa15801561029e573d6000803e3d6000fd5b505050506040513d601f19601f820116820180604052508101906102c29190611034565b60000361033c5760405162461bcd60e51b815260206004820152602660248201527f6f6e6c7920776561706f6e206f776e6572732063616e2075706461746520757360448201527f6572496e666f000000000000000000000000000000000000000000000000000060648201526084015b60405180910390fd5b600081815260076020908152604091829020600481018590556002015482519081529081018490529081018290523360608201527fcf09b7402a0a51c2c51935cd064f1c8e910da6814d49b3badcaa04c81850948b906080015b60405180910390a15050565b6005546040516331a9108f60e11b8152600481018490526001600160a01b0390911690636352211e90602401602060405180830381865afa1580156103eb573d6000803e3d6000fd5b505050506040513d601f19601f8201168201806040525081019061040f919061104d565b6001600160a01b0316336001600160a01b0316146104795760405162461bcd60e51b815260206004820152602160248201527f6f6e6c7920636861726163746572206f776e6572732063616e207369676e20756044820152600760fc1b6064820152608401610333565b60008181526007602090815260409182902060028101859055600401548251858152918201529081018290523360608201527fcf09b7402a0a51c2c51935cd064f1c8e910da6814d49b3badcaa04c81850948b90608001610396565b6104dd610aee565b6104e76000610b48565b565b6005546040516331a9108f60e11b8152600481018490526001600160a01b0390911690636352211e90602401602060405180830381865afa158015610532573d6000803e3d6000fd5b505050506040513d601f19601f82011682018060405250810190610556919061104d565b6001600160a01b0316336001600160a01b0316146105c05760405162461bcd60e51b815260206004820152602160248201527f6f6e6c7920636861726163746572206f776e6572732063616e207369676e20756044820152600760fc1b6064820152608401610333565b600654604051627eeac760e11b8152336004820152602481018390526001600160a01b039091169062fdd58e90604401602060405180830381865afa15801561060d573d6000803e3d6000fd5b505050506040513d601f19601f820116820180604052508101906106319190611034565b6000036106805760405162461bcd60e51b815260206004820152601e60248201527f6f6e6c7920776561706f6e206f776e6572732063616e207369676e20757000006044820152606401610333565b61068e600180546001019055565b600061069960015490565b604080516080808201835283825282518084018452600580546001600160a01b03908116835260208084018b905280860193845286518088018852600654831681528082018b905286880190815233606080890182815260008c8152600786528b902099518a559651805160018b01805491881673ffffffffffffffffffffffffffffffffffffffff199283161790559085015160028b01559251805160038b01805491881691861691909117905584015160048a0155955197909401805497909316961695909517905584518981529384018890529383018590528201929092529192507fb71cf8dd9f35ff09f0b312ae47365f80792968af9383e6cbc7f9c12054d6cc3d910160405180910390a1505050565b606060006107bb60015490565b905060008167ffffffffffffffff8111156107d8576107d8610c2a565b60405190808252806020026020018201604052801561081157816020015b6107fe610ba5565b8152602001906001900390816107f65790505b50905060015b8281116108db5760008181526007602090815260408083205480845292819020815160808101835281548152825180840184526001808401546001600160a01b03908116835260028501548388015283870192909252845180860186526003850154831681526004850154968101969096529382019490945260058201549093166060840152919085906108ab9086611080565b815181106108bb576108bb611093565b6020026020010181905250505080806108d3906110a9565b915050610817565b5092915050565b6108ea610ba5565b60015460010361093c5760405162461bcd60e51b815260206004820152601b60248201527f796f752061726520746865206f6e6c79206f6e6520706c6179657200000000006044820152606401610333565b600061094760015490565b90506000814260405160200161095f91815260200190565b6040516020818303038152906040528051906020012060001c61098291906110c2565b90506001600160a01b0384166007600061099d8460016110e4565b81526020810191909152604001600020600501546001600160a01b031614610a4d5760006007816109cf8460016110e4565b815260208082019290925260409081016000208151608081018352815481528251808401845260018301546001600160a01b0390811682526002840154828701528286019190915283518085018552600384015482168152600484015495810195909552928101939093526005015416606082015295945050505050565b610a56846108e2565b949350505050565b610a66610aee565b6001600160a01b038116610ae25760405162461bcd60e51b815260206004820152602660248201527f4f776e61626c653a206e6577206f776e657220697320746865207a65726f206160448201527f64647265737300000000000000000000000000000000000000000000000000006064820152608401610333565b610aeb81610b48565b50565b6000546001600160a01b031633146104e75760405162461bcd60e51b815260206004820181905260248201527f4f776e61626c653a2063616c6c6572206973206e6f7420746865206f776e65726044820152606401610333565b600080546001600160a01b0383811673ffffffffffffffffffffffffffffffffffffffff19831681178455604051919092169283917f8be0079c531659141344cd1fd0a4f28419497f9722a3daafe3b4186f6b6457e09190a35050565b604051806080016040528060008152602001610bdd604051806040016040528060006001600160a01b03168152602001600081525090565b8152602001610c08604051806040016040528060006001600160a01b03168152602001600081525090565b8152600060209091015290565b6001600160a01b0381168114610aeb57600080fd5b634e487b7160e01b600052604160045260246000fd5b604051601f8201601f1916810167ffffffffffffffff81118282101715610c6957610c69610c2a565b604052919050565b600082601f830112610c8257600080fd5b813567ffffffffffffffff811115610c9c57610c9c610c2a565b610caf601f8201601f1916602001610c40565b818152846020838601011115610cc457600080fd5b816020850160208301376000918101602001919091529392505050565b60008060008060808587031215610cf757600080fd5b8435610d0281610c15565b93506020850135610d1281610c15565b925060408501359150606085013567ffffffffffffffff811115610d3557600080fd5b610d4187828801610c71565b91505092959194509250565b60008060408385031215610d6057600080fd5b50508035926020909101359150565b600082601f830112610d8057600080fd5b8135602067ffffffffffffffff821115610d9c57610d9c610c2a565b8160051b610dab828201610c40565b9283528481018201928281019087851115610dc557600080fd5b83870192505b84831015610de457823582529183019190830190610dcb565b979650505050505050565b600080600080600060a08688031215610e0757600080fd5b8535610e1281610c15565b94506020860135610e2281610c15565b9350604086013567ffffffffffffffff80821115610e3f57600080fd5b610e4b89838a01610d6f565b94506060880135915080821115610e6157600080fd5b610e6d89838a01610d6f565b93506080880135915080821115610e8357600080fd5b50610e9088828901610c71565b9150509295509295909350565b6020808252825182820181905260009190848201906040850190845b81811015610f3357610f208385518051825260208082015180516001600160a01b03168285015290810151604084015250604081015180516001600160a01b031660608401526020810151608084015250606001516001600160a01b031660a09190910152565b9284019260c09290920191600101610eb9565b50909695505050505050565b600060208284031215610f5157600080fd5b8135610f5c81610c15565b9392505050565b60c08101610fc582848051825260208082015180516001600160a01b03168285015290810151604084015250604081015180516001600160a01b031660608401526020810151608084015250606001516001600160a01b031660a09190910152565b92915050565b600080600080600060a08688031215610fe357600080fd5b8535610fee81610c15565b94506020860135610ffe81610c15565b93506040860135925060608601359150608086013567ffffffffffffffff81111561102857600080fd5b610e9088828901610c71565b60006020828403121561104657600080fd5b5051919050565b60006020828403121561105f57600080fd5b8151610f5c81610c15565b634e487b7160e01b600052601160045260246000fd5b81810381811115610fc557610fc561106a565b634e487b7160e01b600052603260045260246000fd5b6000600182016110bb576110bb61106a565b5060010190565b6000826110df57634e487b7160e01b600052601260045260246000fd5b500690565b80820180821115610fc557610fc561106a56fea2646970667358221220eb8f81c2e197e034a1063c8a3a6851fc0b4ce250e73749e2f939c030e77b69a964736f6c63430008110033",
  "immutableReferences": {},
  "source": "// SPDX-License-Identifier: MIT\npragma solidity ^0.8.7;\n\nimport \"@openzeppelin/contracts/token/ERC721/ERC721.sol\";\nimport \"@openzeppelin/contracts/token/ERC1155/ERC1155.sol\";\nimport \"@openzeppelin/contracts/token/ERC1155/IERC1155Receiver.sol\";\nimport \"@openzeppelin/contracts/access/Ownable.sol\";\nimport \"@openzeppelin/contracts/utils/Counters.sol\";\nimport \"./JMToken.sol\";\n\ncontract MapleUser is Ownable {\n    using Counters for Counters.Counter;\n    Counters.Counter private _userIds;\n    uint256 decimals = 10**18;\n    JMToken private token;\n    address payable private treasuryWallet;\n    address private nftContractAddress;\n    address private itemContractAddress;\n\n    constructor (\n        address _tokenContractAddress,\n        address _nftContractAddress,\n        address _itemContractAddress,\n        address payable _treasuryWallet\n    ) {\n        _setToken(_tokenContractAddress);\n        nftContractAddress = _nftContractAddress;\n        itemContractAddress = _itemContractAddress;\n        treasuryWallet = _treasuryWallet;\n    }\n\n    mapping(uint256 => UserInfo) idUserInfo;\n\n    struct Token {\n        address contractAddr;\n        uint256 tokenId;\n    }\n\n    struct UserInfo {\n        uint256 userId;\n        Token charToken;\n        Token weaponToken;\n        address payable user;\n    }\n\n    event UserCreated (\n        uint256 charId,\n        uint256 weaponId,\n        uint256 userId,\n        address user\n    );\n\n    event UserUpdated (\n        uint256 charId,\n        uint256 weaponId,\n        uint256 userId,\n        address user\n    );\n\n    event UserMatching (\n        uint256 charId,\n        uint256 weaponId,\n        uint256 userId,\n        address user\n    );\n\n    event UserDeleated (\n        uint256 charId,\n        uint256 weaponId,\n        uint256 userId,\n        address user\n    );\n\n    function _setToken(address _tokenAddress) private onlyOwner returns (bool) {\n        require(_tokenAddress != address(0x0));\n        token = JMToken(_tokenAddress);\n        return true;\n    }\n\n    function signUp(\n        uint256 _charId,\n        uint256 _weaponId\n    ) public {\n        require(msg.sender == ERC721(nftContractAddress).ownerOf(_charId),  \"only character owners can sign up\");\n        require(ERC1155(itemContractAddress).balanceOf(msg.sender, _weaponId)!=0,  \"only weapon owners can sign up\");\n\n        _userIds.increment();\n        uint256 userId = _userIds.current();\n\n        idUserInfo[userId] = UserInfo({\n            userId: userId,\n            charToken: Token({\n                contractAddr: nftContractAddress,\n                tokenId: _charId\n            }),\n            weaponToken: Token({\n                contractAddr: itemContractAddress,\n                tokenId: _weaponId\n            }),\n            user: payable(msg.sender)\n        });\n\n        emit UserCreated(\n            _charId,\n            _weaponId,\n            userId,\n            msg.sender\n        );\n    }\n\n    function updateChar(\n        uint256 _charId,\n        uint256 _userId\n    ) public {\n        require(msg.sender == ERC721(nftContractAddress).ownerOf(_charId),  \"only character owners can sign up\");\n\n        idUserInfo[_userId].charToken.tokenId = _charId;\n\n        emit UserUpdated(\n            _charId,\n            idUserInfo[_userId].weaponToken.tokenId,\n            _userId,\n            msg.sender\n        );\n    }\n\n    function updateWeapon(\n        uint256 _weaponId,\n        uint256 _userId\n    ) public {\n        require(ERC1155(itemContractAddress).balanceOf(msg.sender, _weaponId)!=0,  \"only weapon owners can update userInfo\");\n\n        idUserInfo[_userId].weaponToken.tokenId = _weaponId;\n\n        emit UserUpdated(\n            idUserInfo[_userId].charToken.tokenId,\n            _weaponId,\n            _userId,\n            msg.sender\n        );\n    }\n\n    function matchUser(address _user) public view returns (UserInfo memory) {\n        require(_userIds.current()!=1, \"you are the only one player\");\n        uint userCount = _userIds.current();\n        uint256 n = uint256(keccak256(abi.encodePacked(block.timestamp))) % (userCount);\n        if(idUserInfo[n+1].user != _user){\n            UserInfo memory opponent =  idUserInfo[n+1];\n            return opponent;\n        }else{\n            return matchUser(_user);\n        }\n    }\n\n    function fetchUsers() public view returns (UserInfo[] memory) {\n        uint userCount = _userIds.current();\n        UserInfo[] memory users =  new UserInfo[](userCount);\n\n        for (uint i = 1; i <= userCount; i++) {\n            uint currentId = idUserInfo[i].userId;\n            UserInfo storage currentUser = idUserInfo[currentId];\n            users[i-1] = currentUser;\n        }\n        return users;\n    }\n\n    function onERC1155Received(address, address, uint256, uint256, bytes memory) public virtual returns (bytes4) {\n        return this.onERC1155Received.selector;\n    }\n\n    function onERC1155BatchReceived(address, address, uint256[] memory, uint256[] memory, bytes memory) public virtual returns (bytes4) {\n        return this.onERC1155BatchReceived.selector;\n    }\n\n    function onERC721Received(address, address, uint256, bytes memory) public virtual returns (bytes4) {\n        return this.onERC721Received.selector;\n    }\n}\n",
  "sourcePath": "/Users/hyenne/workspace/BEB-05-JMT/contract/contracts/MapleUser.sol",
  "compiler": {
    "name": "solc",
    "version": "0.8.17+commit.8df45f5f.Emscripten.clang"
  },
  "schemaVersion": "3.4.9",
  "updatedAt": "2022-09-26T21:45:18.116Z",
  "networkType": "ethereum",
  "devdoc": {
    "kind": "dev",
    "methods": {
      "owner()": {
        "details": "Returns the address of the current owner."
      },
      "renounceOwnership()": {
        "details": "Leaves the contract without owner. It will not be possible to call `onlyOwner` functions anymore. Can only be called by the current owner. NOTE: Renouncing ownership will leave the contract without an owner, thereby removing any functionality that is only available to the owner."
      },
      "transferOwnership(address)": {
        "details": "Transfers ownership of the contract to a new account (`newOwner`). Can only be called by the current owner."
      }
    },
    "version": 1
  },
  "userdoc": {
    "kind": "user",
    "methods": {},
    "version": 1
  }
}