{
  "contractName": "MapleFight",
  "abi": [
    {
      "inputs": [
        {
          "internalType": "uint256",
          "name": "",
          "type": "uint256"
        }
      ],
      "name": "fightOwner",
      "outputs": [
        {
          "internalType": "address",
          "name": "",
          "type": "address"
        }
      ],
      "stateMutability": "view",
      "type": "function"
    },
    {
      "inputs": [
        {
          "internalType": "uint256",
          "name": "",
          "type": "uint256"
        }
      ],
      "name": "users",
      "outputs": [
        {
          "internalType": "uint256",
          "name": "weaponId",
          "type": "uint256"
        },
        {
          "internalType": "uint256",
          "name": "strength",
          "type": "uint256"
        },
        {
          "internalType": "uint256",
          "name": "winCount",
          "type": "uint256"
        },
        {
          "internalType": "uint256",
          "name": "loseCount",
          "type": "uint256"
        }
      ],
      "stateMutability": "view",
      "type": "function"
    },
    {
      "inputs": [
        {
          "internalType": "uint256",
          "name": "_userweaponId",
          "type": "uint256"
        },
        {
          "internalType": "uint256",
          "name": "_matchingweaponId",
          "type": "uint256"
        }
      ],
      "name": "fight",
      "outputs": [],
      "stateMutability": "nonpayable",
      "type": "function"
    }
  ],
  "bytecode": "0x608060405234801561001057600080fd5b50610301806100206000396000f3fe608060405234801561001057600080fd5b50600436106100415760003560e01c806333fa928a14610046578063365b98b21461008c578063ca39e5ef146100bf575b600080fd5b61006f610054366004610231565b6001602052600090815260409020546001600160a01b031681565b6040516001600160a01b0390911681526020015b60405180910390f35b61009f61009a366004610231565b6100d4565b604080519485526020850193909352918301526060820152608001610083565b6100d26100cd36600461024a565b61010e565b005b600081815481106100e457600080fd5b60009182526020909120600490910201805460018201546002830154600390930154919350919084565b6000828152600160205260409020546001600160a01b0316331461013157600080fd5b60008083815481106101455761014561026c565b9060005260206000209060040201905060008083815481106101695761016961026c565b600091825260209091208584556004909102019050610189606485610282565b600183015560006002830181905560038301558281556101aa606484610282565b6001808301829055600060028401819055600384015583015411156101fc576002820180549060006101db836102a4565b90915550506003810180549060006101f2836102a4565b919050555061022b565b60038201805490600061020e836102a4565b9091555050600281018054906000610225836102a4565b91905055505b50505050565b60006020828403121561024357600080fd5b5035919050565b6000806040838503121561025d57600080fd5b50508035926020909101359150565b634e487b7160e01b600052603260045260246000fd5b60008261029f57634e487b7160e01b600052601260045260246000fd5b500690565b6000600182016102c457634e487b7160e01b600052601160045260246000fd5b506001019056fea2646970667358221220d9cf7e2669751b1192f8dfb1bb51dd1fddb484578d273f01e8615b4b22c0885f64736f6c63430008110033",
  "immutableReferences": {},
  "source": "// SPDX-License-Identifier: MIT\npragma solidity ^0.8.10;\n\ncontract MapleFight {\n\n    struct User {\n        uint weaponId;\n        uint strength;\n        uint winCount;\n        uint loseCount;\n    }\n\n    User[] public users;\n\n    mapping (uint => address) public fightOwner;\n\n    function fight(uint _userweaponId, uint _matchingweaponId) public {\n        require(msg.sender == fightOwner[_userweaponId]);\n        User storage user = users[_userweaponId];\n        User storage matchinguser = users[_matchingweaponId];\n\n        user.weaponId = _userweaponId;\n        user.strength = _userweaponId % 100;\n        user.winCount = 0;\n        user.loseCount = 0;\n        matchinguser.weaponId = _matchingweaponId;\n        matchinguser.strength = _matchingweaponId % 100;\n        matchinguser.winCount = 0;\n        matchinguser.loseCount = 0;\n        \n        if ( user.strength > matchinguser.strength ) {\n            user.winCount++;\n            matchinguser.loseCount++;\n        } else {\n            user.loseCount++;\n            matchinguser.winCount++;\n        }\n    }\n}",
  "sourcePath": "/Users/hyenne/workspace/BEB-05-JMT/contract/contracts/MapleFight.sol",
  "compiler": {
    "name": "solc",
    "version": "0.8.17+commit.8df45f5f.Emscripten.clang"
  },
  "schemaVersion": "3.4.9",
  "updatedAt": "2022-09-23T01:26:53.671Z",
  "devdoc": {
    "kind": "dev",
    "methods": {},
    "version": 1
  },
  "userdoc": {
    "kind": "user",
    "methods": {},
    "version": 1
  }
}