{
  "contractName": "MapleMarket",
  "abi": [
    {
      "inputs": [
        {
          "internalType": "address",
          "name": "_tokenContractAddress",
          "type": "address"
        },
        {
          "internalType": "address payable",
          "name": "_treasuryWallet",
          "type": "address"
        }
      ],
      "stateMutability": "nonpayable",
      "type": "constructor"
    },
    {
      "anonymous": false,
      "inputs": [
        {
          "indexed": false,
          "internalType": "uint256",
          "name": "tokenId",
          "type": "uint256"
        },
        {
          "indexed": false,
          "internalType": "uint256",
          "name": "itemId",
          "type": "uint256"
        },
        {
          "indexed": false,
          "internalType": "address",
          "name": "seller",
          "type": "address"
        },
        {
          "indexed": false,
          "internalType": "uint256",
          "name": "price",
          "type": "uint256"
        }
      ],
      "name": "ItemCreated",
      "type": "event"
    },
    {
      "anonymous": false,
      "inputs": [
        {
          "indexed": false,
          "internalType": "uint256",
          "name": "tokenId",
          "type": "uint256"
        },
        {
          "indexed": false,
          "internalType": "uint256",
          "name": "itemId",
          "type": "uint256"
        },
        {
          "indexed": false,
          "internalType": "address",
          "name": "seller",
          "type": "address"
        },
        {
          "indexed": false,
          "internalType": "address",
          "name": "buyer",
          "type": "address"
        },
        {
          "indexed": false,
          "internalType": "uint256",
          "name": "price",
          "type": "uint256"
        }
      ],
      "name": "ItemSold",
      "type": "event"
    },
    {
      "anonymous": false,
      "inputs": [
        {
          "indexed": true,
          "internalType": "address",
          "name": "previousOwner",
          "type": "address"
        },
        {
          "indexed": true,
          "internalType": "address",
          "name": "newOwner",
          "type": "address"
        }
      ],
      "name": "OwnershipTransferred",
      "type": "event"
    },
    {
      "anonymous": false,
      "inputs": [
        {
          "indexed": false,
          "internalType": "uint256",
          "name": "tokenId",
          "type": "uint256"
        },
        {
          "indexed": false,
          "internalType": "uint256",
          "name": "itemId",
          "type": "uint256"
        },
        {
          "indexed": false,
          "internalType": "address",
          "name": "seller",
          "type": "address"
        }
      ],
      "name": "SaleCanceled",
      "type": "event"
    },
    {
      "inputs": [],
      "name": "owner",
      "outputs": [
        {
          "internalType": "address",
          "name": "",
          "type": "address"
        }
      ],
      "stateMutability": "view",
      "type": "function",
      "constant": true
    },
    {
      "inputs": [],
      "name": "renounceOwnership",
      "outputs": [],
      "stateMutability": "nonpayable",
      "type": "function"
    },
    {
      "inputs": [
        {
          "internalType": "address",
          "name": "newOwner",
          "type": "address"
        }
      ],
      "name": "transferOwnership",
      "outputs": [],
      "stateMutability": "nonpayable",
      "type": "function"
    },
    {
      "inputs": [
        {
          "internalType": "address",
          "name": "_contractAddr",
          "type": "address"
        },
        {
          "internalType": "uint256",
          "name": "_tokenId",
          "type": "uint256"
        },
        {
          "internalType": "uint256",
          "name": "_price",
          "type": "uint256"
        }
      ],
      "name": "sell",
      "outputs": [],
      "stateMutability": "nonpayable",
      "type": "function"
    },
    {
      "inputs": [
        {
          "internalType": "address",
          "name": "_contractAddr",
          "type": "address"
        },
        {
          "internalType": "uint256",
          "name": "_tokenId",
          "type": "uint256"
        },
        {
          "internalType": "uint256",
          "name": "_price",
          "type": "uint256"
        }
      ],
      "name": "sellWeapon",
      "outputs": [],
      "stateMutability": "nonpayable",
      "type": "function"
    },
    {
      "inputs": [
        {
          "internalType": "address",
          "name": "_contractAddr",
          "type": "address"
        },
        {
          "internalType": "uint256",
          "name": "_itemId",
          "type": "uint256"
        }
      ],
      "name": "saleCancel",
      "outputs": [],
      "stateMutability": "nonpayable",
      "type": "function"
    },
    {
      "inputs": [
        {
          "internalType": "address",
          "name": "_contractAddr",
          "type": "address"
        },
        {
          "internalType": "uint256",
          "name": "_itemId",
          "type": "uint256"
        }
      ],
      "name": "saleCancelWeapon",
      "outputs": [],
      "stateMutability": "nonpayable",
      "type": "function"
    },
    {
      "inputs": [
        {
          "internalType": "address",
          "name": "_contractAddr",
          "type": "address"
        },
        {
          "internalType": "uint256",
          "name": "_itemId",
          "type": "uint256"
        }
      ],
      "name": "buy",
      "outputs": [],
      "stateMutability": "nonpayable",
      "type": "function"
    },
    {
      "inputs": [
        {
          "internalType": "address",
          "name": "_contractAddr",
          "type": "address"
        },
        {
          "internalType": "uint256",
          "name": "_itemId",
          "type": "uint256"
        }
      ],
      "name": "buyWeapon",
      "outputs": [],
      "stateMutability": "nonpayable",
      "type": "function"
    },
    {
      "inputs": [],
      "name": "fetchCharOnSale",
      "outputs": [
        {
          "components": [
            {
              "internalType": "uint256",
              "name": "itemId",
              "type": "uint256"
            },
            {
              "components": [
                {
                  "internalType": "address",
                  "name": "contractAddr",
                  "type": "address"
                },
                {
                  "internalType": "uint256",
                  "name": "tokenId",
                  "type": "uint256"
                }
              ],
              "internalType": "struct MapleMarket.Token",
              "name": "token",
              "type": "tuple"
            },
            {
              "internalType": "address payable",
              "name": "seller",
              "type": "address"
            },
            {
              "internalType": "uint256",
              "name": "price",
              "type": "uint256"
            },
            {
              "internalType": "enum MapleMarket.ItemStatus",
              "name": "itemStatus",
              "type": "uint8"
            }
          ],
          "internalType": "struct MapleMarket.MarketItem[]",
          "name": "",
          "type": "tuple[]"
        }
      ],
      "stateMutability": "view",
      "type": "function",
      "constant": true
    },
    {
      "inputs": [],
      "name": "fetchWeaponOnSale",
      "outputs": [
        {
          "components": [
            {
              "internalType": "uint256",
              "name": "itemId",
              "type": "uint256"
            },
            {
              "components": [
                {
                  "internalType": "address",
                  "name": "contractAddr",
                  "type": "address"
                },
                {
                  "internalType": "uint256",
                  "name": "tokenId",
                  "type": "uint256"
                }
              ],
              "internalType": "struct MapleMarket.Token",
              "name": "token",
              "type": "tuple"
            },
            {
              "internalType": "address payable",
              "name": "seller",
              "type": "address"
            },
            {
              "internalType": "uint256",
              "name": "price",
              "type": "uint256"
            },
            {
              "internalType": "enum MapleMarket.ItemStatus",
              "name": "itemStatus",
              "type": "uint8"
            }
          ],
          "internalType": "struct MapleMarket.MarketItem[]",
          "name": "",
          "type": "tuple[]"
        }
      ],
      "stateMutability": "view",
      "type": "function",
      "constant": true
    },
    {
      "inputs": [],
      "name": "fetchMyItemsOnSale",
      "outputs": [
        {
          "components": [
            {
              "internalType": "uint256",
              "name": "itemId",
              "type": "uint256"
            },
            {
              "components": [
                {
                  "internalType": "address",
                  "name": "contractAddr",
                  "type": "address"
                },
                {
                  "internalType": "uint256",
                  "name": "tokenId",
                  "type": "uint256"
                }
              ],
              "internalType": "struct MapleMarket.Token",
              "name": "token",
              "type": "tuple"
            },
            {
              "internalType": "address payable",
              "name": "seller",
              "type": "address"
            },
            {
              "internalType": "uint256",
              "name": "price",
              "type": "uint256"
            },
            {
              "internalType": "enum MapleMarket.ItemStatus",
              "name": "itemStatus",
              "type": "uint8"
            }
          ],
          "internalType": "struct MapleMarket.MarketItem[]",
          "name": "",
          "type": "tuple[]"
        }
      ],
      "stateMutability": "view",
      "type": "function",
      "constant": true
    },
    {
      "inputs": [
        {
          "internalType": "address",
          "name": "",
          "type": "address"
        },
        {
          "internalType": "address",
          "name": "",
          "type": "address"
        },
        {
          "internalType": "uint256",
          "name": "",
          "type": "uint256"
        },
        {
          "internalType": "uint256",
          "name": "",
          "type": "uint256"
        },
        {
          "internalType": "bytes",
          "name": "",
          "type": "bytes"
        }
      ],
      "name": "onERC1155Received",
      "outputs": [
        {
          "internalType": "bytes4",
          "name": "",
          "type": "bytes4"
        }
      ],
      "stateMutability": "nonpayable",
      "type": "function"
    },
    {
      "inputs": [
        {
          "internalType": "address",
          "name": "",
          "type": "address"
        },
        {
          "internalType": "address",
          "name": "",
          "type": "address"
        },
        {
          "internalType": "uint256[]",
          "name": "",
          "type": "uint256[]"
        },
        {
          "internalType": "uint256[]",
          "name": "",
          "type": "uint256[]"
        },
        {
          "internalType": "bytes",
          "name": "",
          "type": "bytes"
        }
      ],
      "name": "onERC1155BatchReceived",
      "outputs": [
        {
          "internalType": "bytes4",
          "name": "",
          "type": "bytes4"
        }
      ],
      "stateMutability": "nonpayable",
      "type": "function"
    },
    {
      "inputs": [
        {
          "internalType": "address",
          "name": "",
          "type": "address"
        },
        {
          "internalType": "address",
          "name": "",
          "type": "address"
        },
        {
          "internalType": "uint256",
          "name": "",
          "type": "uint256"
        },
        {
          "internalType": "bytes",
          "name": "",
          "type": "bytes"
        }
      ],
      "name": "onERC721Received",
      "outputs": [
        {
          "internalType": "bytes4",
          "name": "",
          "type": "bytes4"
        }
      ],
      "stateMutability": "nonpayable",
      "type": "function"
    }
  ],
  "bytecode": "0x6080604052670de0b6b3a76400006005553480156200001d57600080fd5b5060405162001fdf38038062001fdf83398101604081905262000040916200018d565b6200004b336200007e565b6200005682620000ce565b50600780546001600160a01b0319166001600160a01b039290921691909117905550620001cc565b600080546001600160a01b038381166001600160a01b0319831681178455604051919092169283917f8be0079c531659141344cd1fd0a4f28419497f9722a3daafe3b4186f6b6457e09190a35050565b6000620000da62000113565b6001600160a01b038216620000ee57600080fd5b50600680546001600160a01b0383166001600160a01b03199091161790556001919050565b6000546001600160a01b03163314620001725760405162461bcd60e51b815260206004820181905260248201527f4f776e61626c653a2063616c6c6572206973206e6f7420746865206f776e6572604482015260640160405180910390fd5b565b6001600160a01b03811681146200018a57600080fd5b50565b60008060408385031215620001a157600080fd5b8251620001ae8162000174565b6020840151909250620001c18162000174565b809150509250929050565b611e0380620001dc6000396000f3fe608060405234801561001057600080fd5b50600436106100f55760003560e01c8063980d560111610097578063cce7ec1311610066578063cce7ec13146101f6578063f23a6e6114610209578063f2fde38b14610228578063fc8732371461023b57600080fd5b8063980d5601146101a7578063a45669e9146101bc578063ae9eb1ed146101cf578063bc197c81146101d757600080fd5b80634c312e11116100d35780634c312e111461015e5780636a27246214610171578063715018a6146101845780638da5cb5b1461018c57600080fd5b8063076c34e5146100fa578063150b7a021461010f5780631697e40b1461014b575b600080fd5b61010d610108366004611874565b610243565b005b61012d61011d366004611960565b630a85bd0160e11b949350505050565b6040516001600160e01b031990911681526020015b60405180910390f35b61010d6101593660046119cc565b6104e4565b61010d61016c3660046119cc565b61068f565b61010d61017f366004611874565b610a4a565b61010d610c71565b6000546040516001600160a01b039091168152602001610142565b6101af610c85565b6040516101429190611a0e565b61010d6101ca3660046119cc565b610e21565b6101af610f8e565b61012d6101e5366004611b34565b63bc197c8160e01b95945050505050565b61010d6102043660046119cc565b6111ab565b61012d610217366004611be2565b63f23a6e6160e01b95945050505050565b61010d610236366004611c4b565b611556565b6101af6115cf565b604051627eeac760e11b8152336004820152602481018390526001600160a01b0384169062fdd58e90604401602060405180830381865afa15801561028c573d6000803e3d6000fd5b505050506040513d601f19601f820116820180604052508101906102b09190611c6f565b6000036103045760405162461bcd60e51b815260206004820152601a60248201527f6f6e6c79206f776e6572732063616e2073656c6c206974656d7300000000000060448201526064015b60405180910390fd5b6000811161034f5760405162461bcd60e51b81526020600482015260186024820152775072696365206d7573742062652061626f7665207a65726f60401b60448201526064016102fb565b61035d600380546001019055565b600061036860035490565b6040805160a081018252828152815180830183526001600160a01b03888116825260208083018990528084019283523384860190815260608501898152600060808701818152898252600985529790208651815594518051600180880180549288166001600160a01b031993841617905591909401516002808801919091559251600387018054919096169416939093179093559151600484015593516005830180549697509395929490939260ff191691849081111561042b5761042b6119f8565b021790555050604051637921219560e11b81526001600160a01b038616915063f242432a9061046590339030908890600190600401611c88565b600060405180830381600087803b15801561047f57600080fd5b505af1158015610493573d6000803e3d6000fd5b5050604080518681526020810185905233818301526060810186905290517f8b583604758a4c6c995171787709d2caa670e019b68bfb687d2c9fa77e5380599350908190036080019150a150505050565b6000818152600860205260409020600301546001600160a01b031633146105465760405162461bcd60e51b81526020600482015260166024820152751bdb9b1e481cd95b1b195c8818d85b8818d85b98d95b60521b60448201526064016102fb565b60008181526008602052604090206005015460ff16600281111561056c5761056c6119f8565b156105af5760405162461bcd60e51b81526020600482015260136024820152726974656d206973206e6f74206f6e2073616c6560681b60448201526064016102fb565b600081815260086020526040908190206002015490516323b872dd60e01b81526001600160a01b038416906323b872dd906105f290309033908690600401611cc0565b600060405180830381600087803b15801561060c57600080fd5b505af1158015610620573d6000803e3d6000fd5b5050506000838152600860205260409020600501805460ff1916600290811790915580546001019055505b6040805182815260208101849052338183015290517fd3bffea3a9501b0422f789f4c0797d9cdcb9e89dd65de11b04e9b0079ea4e2a79181900360600190a1505050565b6000818152600960205260408120600401546005549091906064906106b49084611cfa565b6106bf90600a611cfa565b6106c99190611d17565b9050600081600554846106dc9190611cfa565b6106e69190611d39565b60008581526009602052604081206002015460065460055493945090926001600160a01b039091169063d83a2bf39033903090610723908a611cfa565b6040518463ffffffff1660e01b815260040161074193929190611cc0565b6020604051808303816000875af1158015610760573d6000803e3d6000fd5b505050506040513d601f19601f820116820180604052508101906107849190611d4c565b9050806107cb5760405162461bcd60e51b8152602060048201526015602482015274125b98dc99585cd950dbdb9d1c9858dd0811985a5b605a1b60448201526064016102fb565b6006546007546040516323b872dd60e01b81526001600160a01b03928316926323b872dd92610804923392909116908990600401611cc0565b6020604051808303816000875af1158015610823573d6000803e3d6000fd5b505050506040513d601f19601f820116820180604052508101906108479190611d4c565b506006546007546001600160a01b0391821691631d057bd9911661086c600288611d17565b6040516001600160e01b031960e085901b1681526001600160a01b0390921660048301526024820152604401600060405180830381600087803b1580156108b257600080fd5b505af11580156108c6573d6000803e3d6000fd5b5050600654600089815260096020526040908190206003015490516323b872dd60e01b81526001600160a01b0392831694506323b872dd935061091192339216908890600401611cc0565b6020604051808303816000875af1158015610930573d6000803e3d6000fd5b505050506040513d601f19601f820116820180604052508101906109549190611d4c565b50604051637921219560e11b81526001600160a01b0388169063f242432a9061098890309033908790600190600401611c88565b600060405180830381600087803b1580156109a257600080fd5b505af11580156109b6573d6000803e3d6000fd5b50505060008781526009602090815260409182902060058101805460ff191660019081179091556004805490910190556003015482518681529182018a90526001600160a01b031691810191909152336060820152608081018790527f636c891e1c595c5879015e9f0767c0138ec002c115fa5425d3a585252e13a1ed915060a0015b60405180910390a150505050505050565b6040516331a9108f60e11b8152600481018390526001600160a01b03841690636352211e90602401602060405180830381865afa158015610a8f573d6000803e3d6000fd5b505050506040513d601f19601f82011682018060405250810190610ab39190611d6e565b6001600160a01b0316336001600160a01b031614610b135760405162461bcd60e51b815260206004820152601a60248201527f6f6e6c79206f776e6572732063616e2073656c6c206974656d7300000000000060448201526064016102fb565b60008111610b5e5760405162461bcd60e51b81526020600482015260186024820152775072696365206d7573742062652061626f7665207a65726f60401b60448201526064016102fb565b610b6c600180546001019055565b6000610b7760015490565b6040805160a081018252828152815180830183526001600160a01b03888116825260208083018990528084019283523384860190815260608501898152600060808701818152898252600885529790208651815594518051600180880180549288166001600160a01b031993841617905591909401516002808801919091559251600387018054919096169416939093179093559151600484015593516005830180549697509395929490939260ff1916918490811115610c3a57610c3a6119f8565b0217905550506040516323b872dd60e01b81526001600160a01b03861691506323b872dd9061046590339030908890600401611cc0565b610c79611762565b610c8360006117bc565b565b60606000610c9260035490565b90506000610c9f60045490565b600354610cac9190611d39565b90506000808267ffffffffffffffff811115610cca57610cca6118a9565b604051908082528060200260200182016040528015610d0357816020015b610cf061180c565b815260200190600190039081610ce85790505b50905060015b848111610e185760008181526009602052604081206005015460ff166002811115610d3657610d366119f8565b03610e065760008181526009602090815260408083205480845292819020815160a081018352815481528251808401845260018301546001600160a01b03908116825260028085015483880152958301919091526003830154169281019290925260048101546060830152600581015490928391608084019160ff90911690811115610dc457610dc46119f8565b6002811115610dd557610dd56119f8565b81525050848681518110610deb57610deb611d8b565b6020908102919091010152610e01600186611da1565b945050505b80610e1081611db4565b915050610d09565b50949350505050565b6000818152600960205260409020600301546001600160a01b03163314610e835760405162461bcd60e51b81526020600482015260166024820152751bdb9b1e481cd95b1b195c8818d85b8818d85b98d95b60521b60448201526064016102fb565b60008181526009602052604090206005015460ff166002811115610ea957610ea96119f8565b15610eec5760405162461bcd60e51b81526020600482015260136024820152726974656d206973206e6f74206f6e2073616c6560681b60448201526064016102fb565b60008181526009602052604090819020600201549051637921219560e11b81526001600160a01b0384169063f242432a90610f3290309033908690600190600401611c88565b600060405180830381600087803b158015610f4c57600080fd5b505af1158015610f60573d6000803e3d6000fd5b5050506000838152600960205260409020600501805460ff191660021790555060048054600101905561064b565b60606000610f9b60015490565b905060008060015b83811161101b5760008181526008602052604081206005015460ff166002811115610fd057610fd06119f8565b148015610ff657506000818152600860205260409020600301546001600160a01b031633145b1561100957611006600184611da1565b92505b8061101381611db4565b915050610fa3565b5060008267ffffffffffffffff811115611037576110376118a9565b60405190808252806020026020018201604052801561107057816020015b61105d61180c565b8152602001906001900390816110555790505b50905060015b848111610e185760008181526008602052604081206005015460ff1660028111156110a3576110a36119f8565b1480156110c957506000818152600860205260409020600301546001600160a01b031633145b156111995760008181526008602090815260408083205480845292819020815160a081018352815481528251808401845260018301546001600160a01b03908116825260028085015483880152958301919091526003830154169281019290925260048101546060830152600581015490928391608084019160ff90911690811115611157576111576119f8565b6002811115611168576111686119f8565b8152505084868151811061117e5761117e611d8b565b6020908102919091010152611194600186611da1565b945050505b806111a381611db4565b915050611076565b6000818152600860205260408120600401546005549091906064906111d09084611cfa565b6111db90600a611cfa565b6111e59190611d17565b9050600081600554846111f89190611cfa565b6112029190611d39565b60008581526008602052604081206002015460065460055493945090926001600160a01b039091169063d83a2bf3903390309061123f908a611cfa565b6040518463ffffffff1660e01b815260040161125d93929190611cc0565b6020604051808303816000875af115801561127c573d6000803e3d6000fd5b505050506040513d601f19601f820116820180604052508101906112a09190611d4c565b9050806112e75760405162461bcd60e51b8152602060048201526015602482015274125b98dc99585cd950dbdb9d1c9858dd0811985a5b605a1b60448201526064016102fb565b6006546007546040516323b872dd60e01b81526001600160a01b03928316926323b872dd92611320923392909116908990600401611cc0565b6020604051808303816000875af115801561133f573d6000803e3d6000fd5b505050506040513d601f19601f820116820180604052508101906113639190611d4c565b506006546007546001600160a01b0391821691631d057bd99116611388600288611d17565b6040516001600160e01b031960e085901b1681526001600160a01b0390921660048301526024820152604401600060405180830381600087803b1580156113ce57600080fd5b505af11580156113e2573d6000803e3d6000fd5b5050600654600089815260086020526040908190206003015490516323b872dd60e01b81526001600160a01b0392831694506323b872dd935061142d92339216908890600401611cc0565b6020604051808303816000875af115801561144c573d6000803e3d6000fd5b505050506040513d601f19601f820116820180604052508101906114709190611d4c565b506040516323b872dd60e01b81526001600160a01b038816906323b872dd906114a190309033908790600401611cc0565b600060405180830381600087803b1580156114bb57600080fd5b505af11580156114cf573d6000803e3d6000fd5b50505060008781526008602090815260409182902060058101805460ff191660019081179091556002805490910190556003015482518681529182018a90526001600160a01b031691810191909152336060820152608081018790527f636c891e1c595c5879015e9f0767c0138ec002c115fa5425d3a585252e13a1ed915060a001610a39565b61155e611762565b6001600160a01b0381166115c35760405162461bcd60e51b815260206004820152602660248201527f4f776e61626c653a206e6577206f776e657220697320746865207a65726f206160448201526564647265737360d01b60648201526084016102fb565b6115cc816117bc565b50565b606060006115dc60015490565b905060006115e960025490565b6001546115f69190611d39565b90506000808267ffffffffffffffff811115611614576116146118a9565b60405190808252806020026020018201604052801561164d57816020015b61163a61180c565b8152602001906001900390816116325790505b50905060015b848111610e185760008181526008602052604081206005015460ff166002811115611680576116806119f8565b036117505760008181526008602090815260408083205480845292819020815160a081018352815481528251808401845260018301546001600160a01b03908116825260028085015483880152958301919091526003830154169281019290925260048101546060830152600581015490928391608084019160ff9091169081111561170e5761170e6119f8565b600281111561171f5761171f6119f8565b8152505084868151811061173557611735611d8b565b602090810291909101015261174b600186611da1565b945050505b8061175a81611db4565b915050611653565b6000546001600160a01b03163314610c835760405162461bcd60e51b815260206004820181905260248201527f4f776e61626c653a2063616c6c6572206973206e6f7420746865206f776e657260448201526064016102fb565b600080546001600160a01b038381166001600160a01b0319831681178455604051919092169283917f8be0079c531659141344cd1fd0a4f28419497f9722a3daafe3b4186f6b6457e09190a35050565b6040518060a0016040528060008152602001611844604051806040016040528060006001600160a01b03168152602001600081525090565b81526000602082018190526040820181905260609091015290565b6001600160a01b03811681146115cc57600080fd5b60008060006060848603121561188957600080fd5b83356118948161185f565b95602085013595506040909401359392505050565b634e487b7160e01b600052604160045260246000fd5b604051601f8201601f1916810167ffffffffffffffff811182821017156118e8576118e86118a9565b604052919050565b600082601f83011261190157600080fd5b813567ffffffffffffffff81111561191b5761191b6118a9565b61192e601f8201601f19166020016118bf565b81815284602083860101111561194357600080fd5b816020850160208301376000918101602001919091529392505050565b6000806000806080858703121561197657600080fd5b84356119818161185f565b935060208501356119918161185f565b925060408501359150606085013567ffffffffffffffff8111156119b457600080fd5b6119c0878288016118f0565b91505092959194509250565b600080604083850312156119df57600080fd5b82356119ea8161185f565b946020939093013593505050565b634e487b7160e01b600052602160045260246000fd5b60208082528251828201819052600091906040908185019086840185805b83811015611aa6578251805186528781015180516001600160a01b039081168a89015290890151888801528782015116606080880191909152810151608080880191909152015160038110611a8f57634e487b7160e01b83526021600452602483fd5b60a086015260c09094019391860191600101611a2c565b509298975050505050505050565b600082601f830112611ac557600080fd5b8135602067ffffffffffffffff821115611ae157611ae16118a9565b8160051b611af08282016118bf565b9283528481018201928281019087851115611b0a57600080fd5b83870192505b84831015611b2957823582529183019190830190611b10565b979650505050505050565b600080600080600060a08688031215611b4c57600080fd5b8535611b578161185f565b94506020860135611b678161185f565b9350604086013567ffffffffffffffff80821115611b8457600080fd5b611b9089838a01611ab4565b94506060880135915080821115611ba657600080fd5b611bb289838a01611ab4565b93506080880135915080821115611bc857600080fd5b50611bd5888289016118f0565b9150509295509295909350565b600080600080600060a08688031215611bfa57600080fd5b8535611c058161185f565b94506020860135611c158161185f565b93506040860135925060608601359150608086013567ffffffffffffffff811115611c3f57600080fd5b611bd5888289016118f0565b600060208284031215611c5d57600080fd5b8135611c688161185f565b9392505050565b600060208284031215611c8157600080fd5b5051919050565b6001600160a01b0394851681529290931660208301526040820152606081019190915260a06080820181905260009082015260c00190565b6001600160a01b039384168152919092166020820152604081019190915260600190565b634e487b7160e01b600052601160045260246000fd5b8082028115828204841417611d1157611d11611ce4565b92915050565b600082611d3457634e487b7160e01b600052601260045260246000fd5b500490565b81810381811115611d1157611d11611ce4565b600060208284031215611d5e57600080fd5b81518015158114611c6857600080fd5b600060208284031215611d8057600080fd5b8151611c688161185f565b634e487b7160e01b600052603260045260246000fd5b80820180821115611d1157611d11611ce4565b600060018201611dc657611dc6611ce4565b506001019056fea2646970667358221220b98208629f03c2a3ef91e41a45a4a714f7483027c370ee6fb22cd6c184de4e8c64736f6c63430008110033",
  "immutableReferences": {},
  "source": "// SPDX-License-Identifier: MIT\npragma solidity ^0.8.7;\n\nimport \"@openzeppelin/contracts/token/ERC721/ERC721.sol\";\nimport \"@openzeppelin/contracts/token/ERC1155/ERC1155.sol\";\nimport \"@openzeppelin/contracts/token/ERC1155/IERC1155Receiver.sol\";\nimport \"@openzeppelin/contracts/access/Ownable.sol\";\nimport \"@openzeppelin/contracts/utils/Counters.sol\";\nimport \"./JMToken.sol\";\n\ncontract MapleMarket is Ownable {\n    using Counters for Counters.Counter;\n    Counters.Counter private _charIds;\n    Counters.Counter private _charSoldOrCanceled;\n    Counters.Counter private _weaponIds;\n    Counters.Counter private _weaponSoldOrCanceled;\n    uint256 decimals = 10**18;\n    JMToken private token;\n    address payable private treasuryWallet;\n\n    constructor (\n        address _tokenContractAddress,\n        address payable _treasuryWallet\n    ) {\n        _setToken(_tokenContractAddress);\n        treasuryWallet = _treasuryWallet;\n    }\n\n    mapping(uint256 => MarketItem) idMarketChar;\n    mapping(uint256 => MarketItem) idMarketWeapon;\n\n    enum ItemStatus {  \n        ON_SALE, SOLD, SALE_CANCELED\n    }\n\n    struct Token {\n        address contractAddr;\n        uint256 tokenId;\n    }\n\n    struct MarketItem {\n        uint256 itemId;\n        Token token;\n        address payable seller;\n        uint256 price;\n        ItemStatus itemStatus;\n    }\n\n    event ItemCreated (\n        uint256 tokenId,\n        uint256 itemId,\n        address seller,\n        uint256 price\n    );\n\n    event ItemSold (\n        uint256 tokenId,\n        uint256 itemId,\n        address seller,\n        address buyer,\n        uint256 price\n    );\n\n    event SaleCanceled (\n        uint256 tokenId,\n        uint256 itemId,\n        address seller\n    );\n\n    function _setToken(address _tokenAddress) private onlyOwner returns (bool) {\n        require(_tokenAddress != address(0x0));\n        token = JMToken(_tokenAddress);\n        return true;\n    }\n\n    function sell(\n        address _contractAddr,\n        uint256 _tokenId,\n        uint256 _price\n    ) public {\n        require(msg.sender == ERC721(_contractAddr).ownerOf(_tokenId),  \"only owners can sell items\");\n        require(_price > 0, \"Price must be above zero\");\n\n        _charIds.increment();\n        uint256 itemId = _charIds.current();\n\n        idMarketChar[itemId] = MarketItem({\n            itemId: itemId,\n            token: Token({\n                contractAddr: _contractAddr,\n                tokenId: _tokenId\n            }),\n            seller: payable(msg.sender),\n            price: _price,\n            itemStatus: ItemStatus.ON_SALE\n        });\n\n        ERC721(_contractAddr).transferFrom(msg.sender, address(this), _tokenId);\n\n        emit ItemCreated(\n            _tokenId,\n            itemId,\n            msg.sender,\n            _price\n        );\n    }\n\n    function sellWeapon(\n        address _contractAddr,\n        uint256 _tokenId,\n        uint256 _price\n    ) public {\n        require(ERC1155(_contractAddr).balanceOf(msg.sender, _tokenId)!=0,  \"only owners can sell items\");\n        require(_price > 0, \"Price must be above zero\");\n\n        _weaponIds.increment();\n        uint256 itemId = _weaponIds.current();\n\n        idMarketWeapon[itemId] = MarketItem({\n            itemId: itemId,\n            token: Token({\n                contractAddr: _contractAddr,\n                tokenId: _tokenId\n            }),\n            seller: payable(msg.sender),\n            price: _price,\n            itemStatus: ItemStatus.ON_SALE\n        });\n\n        ERC1155(_contractAddr).safeTransferFrom(msg.sender, address(this), _tokenId, 1, \"\");\n\n        emit ItemCreated(\n            _tokenId,\n            itemId,\n            msg.sender,\n            _price\n        );\n    }\n\n    function saleCancel(\n        address _contractAddr,\n        uint256 _itemId\n    ) public {\n        require(msg.sender == idMarketChar[_itemId].seller, \"only seller can cancel\");\n        require(ItemStatus.ON_SALE == idMarketChar[_itemId].itemStatus, \"item is not on sale\");\n\n        uint tokenId = idMarketChar[_itemId].token.tokenId;\n\n        ERC721(_contractAddr).transferFrom(address(this), msg.sender, tokenId);\n\n        idMarketChar[_itemId].itemStatus = ItemStatus.SALE_CANCELED;\n        _charSoldOrCanceled.increment();\n        \n\n        emit SaleCanceled(\n            tokenId,\n            _itemId,\n            msg.sender\n        );\n    }\n\n    function saleCancelWeapon(\n        address _contractAddr,\n        uint256 _itemId\n    ) public {\n        require(msg.sender == idMarketWeapon[_itemId].seller, \"only seller can cancel\");\n        require(ItemStatus.ON_SALE == idMarketWeapon[_itemId].itemStatus, \"item is not on sale\");\n\n        uint tokenId = idMarketWeapon[_itemId].token.tokenId;\n\n        ERC1155(_contractAddr).safeTransferFrom(address(this), msg.sender, tokenId, 1, \"\");\n\n        idMarketWeapon[_itemId].itemStatus = ItemStatus.SALE_CANCELED;\n        _weaponSoldOrCanceled.increment();\n        \n\n        emit SaleCanceled(\n            tokenId,\n            _itemId,\n            msg.sender\n        );\n    }\n\n    function buy(\n        address _contractAddr,\n        uint256 _itemId\n    ) public {\n        uint price = idMarketChar[_itemId].price;\n        uint fee = price * decimals * 10 / 100;\n        uint grant = price * decimals - fee;\n        uint tokenId = idMarketChar[_itemId].token.tokenId;\n\n        bool success = token.increaseContractAllowance(\n            msg.sender,\n            address(this),\n            price * decimals\n        );\n        require(success, \"IncreaseContract Fail\");\n        // treasury\n        token.transferFrom(msg.sender, treasuryWallet, fee);\n        token.marketBurn(treasuryWallet, fee/2);\n        // grant seller\n        token.transferFrom(msg.sender, idMarketChar[_itemId].seller, grant);\n\n        ERC721(_contractAddr).transferFrom(address(this), msg.sender, tokenId);\n        idMarketChar[_itemId].itemStatus = ItemStatus.SOLD;\n        _charSoldOrCanceled.increment();\n\n        emit ItemSold(\n            tokenId,\n            _itemId,\n            idMarketChar[_itemId].seller,\n            msg.sender,\n            price\n        );\n    }\n\n    function buyWeapon(\n        address _contractAddr,\n        uint256 _itemId\n    ) public {\n        uint price = idMarketWeapon[_itemId].price;\n        uint fee = price * decimals * 10 / 100;\n        uint grant = price * decimals - fee;\n        uint tokenId = idMarketWeapon[_itemId].token.tokenId;\n\n        bool success = token.increaseContractAllowance(\n            msg.sender,\n            address(this),\n            price * decimals\n        );\n        require(success, \"IncreaseContract Fail\");\n        // treasury\n        token.transferFrom(msg.sender, treasuryWallet, fee);\n        token.marketBurn(treasuryWallet, fee/2);\n        // grant seller\n        token.transferFrom(msg.sender, idMarketWeapon[_itemId].seller, grant);\n\n        ERC1155(_contractAddr).safeTransferFrom(address(this), msg.sender, tokenId, 1, \"\");\n        idMarketWeapon[_itemId].itemStatus = ItemStatus.SOLD;\n        _weaponSoldOrCanceled.increment();\n\n        emit ItemSold(\n            tokenId,\n            _itemId,\n            idMarketWeapon[_itemId].seller,\n            msg.sender,\n            price\n        );\n    }\n\n    function fetchCharOnSale() public view returns (MarketItem[] memory) {\n        uint itemCount = _charIds.current();\n        uint unsoldItemCount = _charIds.current() - _charSoldOrCanceled.current();\n        uint currentIndex = 0;\n\n        MarketItem[] memory items =  new MarketItem[](unsoldItemCount);\n\n        for (uint i = 1; i <= itemCount; i++) {\n            if (idMarketChar[i].itemStatus == ItemStatus.ON_SALE) {\n                uint currentId = idMarketChar[i].itemId;\n                MarketItem storage currentItem = idMarketChar[currentId];\n                items[currentIndex] = currentItem;\n                currentIndex += 1;\n            }\n        }\n        return items;\n    }\n\n    function fetchWeaponOnSale() public view returns (MarketItem[] memory) {\n        uint itemCount = _weaponIds.current();\n        uint unsoldItemCount = _weaponIds.current() - _weaponSoldOrCanceled.current();\n        uint currentIndex = 0;\n\n        MarketItem[] memory items =  new MarketItem[](unsoldItemCount);\n\n        for (uint i = 1; i <= itemCount; i++) {\n            if (idMarketWeapon[i].itemStatus == ItemStatus.ON_SALE) {\n                uint currentId = idMarketWeapon[i].itemId;\n                MarketItem storage currentItem = idMarketWeapon[currentId];\n                items[currentIndex] = currentItem;\n                currentIndex += 1;\n            }\n        }\n        return items;\n    }\n\n    function fetchMyItemsOnSale() public view returns (MarketItem[] memory) {\n        uint totalItemCount = _charIds.current();\n\n        uint itemCount = 0;\n        uint currentIndex = 0;\n\n        for (uint i = 1; i <= totalItemCount; i++) {\n            if (\n                idMarketChar[i].itemStatus == ItemStatus.ON_SALE\n                && idMarketChar[i].seller == msg.sender\n            ) {\n                itemCount += 1;\n            }\n        }\n\n        MarketItem[] memory items = new MarketItem[](itemCount);\n        for (uint i = 1; i <= totalItemCount; i++) {\n            if (\n                idMarketChar[i].itemStatus == ItemStatus.ON_SALE\n                && idMarketChar[i].seller == msg.sender\n            ) {\n                uint currentId = idMarketChar[i].itemId;\n                MarketItem storage currentItem = idMarketChar[currentId];\n                items[currentIndex] = currentItem;\n                currentIndex += 1;\n            }\n        }\n        return items;\n    }\n\n    function onERC1155Received(address, address, uint256, uint256, bytes memory) public virtual returns (bytes4) {\n        return this.onERC1155Received.selector;\n    }\n\n    function onERC1155BatchReceived(address, address, uint256[] memory, uint256[] memory, bytes memory) public virtual returns (bytes4) {\n        return this.onERC1155BatchReceived.selector;\n    }\n\n    function onERC721Received(address, address, uint256, bytes memory) public virtual returns (bytes4) {\n        return this.onERC721Received.selector;\n    }\n}\n",
  "sourcePath": "/Users/hyenne/workspace/BEB-05-JMT/contract/contracts/MapleMarket.sol",
  "compiler": {
    "name": "solc",
    "version": "0.8.17+commit.8df45f5f.Emscripten.clang"
  },
  "schemaVersion": "3.4.9",
  "updatedAt": "2022-09-23T01:27:09.922Z",
  "networkType": "ethereum",
  "devdoc": {
    "kind": "dev",
    "methods": {
      "owner()": {
        "details": "Returns the address of the current owner."
      },
      "renounceOwnership()": {
        "details": "Leaves the contract without owner. It will not be possible to call `onlyOwner` functions anymore. Can only be called by the current owner. NOTE: Renouncing ownership will leave the contract without an owner, thereby removing any functionality that is only available to the owner."
      },
      "transferOwnership(address)": {
        "details": "Transfers ownership of the contract to a new account (`newOwner`). Can only be called by the current owner."
      }
    },
    "version": 1
  },
  "userdoc": {
    "kind": "user",
    "methods": {},
    "version": 1
  }
}