{
  "contractName": "MapleNFT",
  "abi": [
    {
      "inputs": [
        {
          "internalType": "address",
          "name": "_marketAddress",
          "type": "address"
        },
        {
          "internalType": "address",
          "name": "_tokenContractAddress",
          "type": "address"
        },
        {
          "internalType": "string",
          "name": "_MapleBaseURI",
          "type": "string"
        }
      ],
      "stateMutability": "nonpayable",
      "type": "constructor"
    },
    {
      "anonymous": false,
      "inputs": [
        {
          "indexed": true,
          "internalType": "address",
          "name": "owner",
          "type": "address"
        },
        {
          "indexed": true,
          "internalType": "address",
          "name": "approved",
          "type": "address"
        },
        {
          "indexed": true,
          "internalType": "uint256",
          "name": "tokenId",
          "type": "uint256"
        }
      ],
      "name": "Approval",
      "type": "event"
    },
    {
      "anonymous": false,
      "inputs": [
        {
          "indexed": true,
          "internalType": "address",
          "name": "owner",
          "type": "address"
        },
        {
          "indexed": true,
          "internalType": "address",
          "name": "operator",
          "type": "address"
        },
        {
          "indexed": false,
          "internalType": "bool",
          "name": "approved",
          "type": "bool"
        }
      ],
      "name": "ApprovalForAll",
      "type": "event"
    },
    {
      "anonymous": false,
      "inputs": [
        {
          "indexed": true,
          "internalType": "address",
          "name": "previousOwner",
          "type": "address"
        },
        {
          "indexed": true,
          "internalType": "address",
          "name": "newOwner",
          "type": "address"
        }
      ],
      "name": "OwnershipTransferred",
      "type": "event"
    },
    {
      "anonymous": false,
      "inputs": [
        {
          "indexed": true,
          "internalType": "address",
          "name": "from",
          "type": "address"
        },
        {
          "indexed": true,
          "internalType": "address",
          "name": "to",
          "type": "address"
        },
        {
          "indexed": true,
          "internalType": "uint256",
          "name": "tokenId",
          "type": "uint256"
        }
      ],
      "name": "Transfer",
      "type": "event"
    },
    {
      "inputs": [
        {
          "internalType": "address",
          "name": "to",
          "type": "address"
        },
        {
          "internalType": "uint256",
          "name": "tokenId",
          "type": "uint256"
        }
      ],
      "name": "approve",
      "outputs": [],
      "stateMutability": "nonpayable",
      "type": "function"
    },
    {
      "inputs": [
        {
          "internalType": "address",
          "name": "owner",
          "type": "address"
        }
      ],
      "name": "balanceOf",
      "outputs": [
        {
          "internalType": "uint256",
          "name": "",
          "type": "uint256"
        }
      ],
      "stateMutability": "view",
      "type": "function"
    },
    {
      "inputs": [
        {
          "internalType": "uint256",
          "name": "tokenId",
          "type": "uint256"
        }
      ],
      "name": "getApproved",
      "outputs": [
        {
          "internalType": "address",
          "name": "",
          "type": "address"
        }
      ],
      "stateMutability": "view",
      "type": "function"
    },
    {
      "inputs": [
        {
          "internalType": "address",
          "name": "owner",
          "type": "address"
        },
        {
          "internalType": "address",
          "name": "operator",
          "type": "address"
        }
      ],
      "name": "isApprovedForAll",
      "outputs": [
        {
          "internalType": "bool",
          "name": "",
          "type": "bool"
        }
      ],
      "stateMutability": "view",
      "type": "function"
    },
    {
      "inputs": [],
      "name": "name",
      "outputs": [
        {
          "internalType": "string",
          "name": "",
          "type": "string"
        }
      ],
      "stateMutability": "view",
      "type": "function"
    },
    {
      "inputs": [],
      "name": "owner",
      "outputs": [
        {
          "internalType": "address",
          "name": "",
          "type": "address"
        }
      ],
      "stateMutability": "view",
      "type": "function"
    },
    {
      "inputs": [
        {
          "internalType": "uint256",
          "name": "tokenId",
          "type": "uint256"
        }
      ],
      "name": "ownerOf",
      "outputs": [
        {
          "internalType": "address",
          "name": "",
          "type": "address"
        }
      ],
      "stateMutability": "view",
      "type": "function"
    },
    {
      "inputs": [],
      "name": "renounceOwnership",
      "outputs": [],
      "stateMutability": "nonpayable",
      "type": "function"
    },
    {
      "inputs": [
        {
          "internalType": "address",
          "name": "from",
          "type": "address"
        },
        {
          "internalType": "address",
          "name": "to",
          "type": "address"
        },
        {
          "internalType": "uint256",
          "name": "tokenId",
          "type": "uint256"
        }
      ],
      "name": "safeTransferFrom",
      "outputs": [],
      "stateMutability": "nonpayable",
      "type": "function"
    },
    {
      "inputs": [
        {
          "internalType": "address",
          "name": "from",
          "type": "address"
        },
        {
          "internalType": "address",
          "name": "to",
          "type": "address"
        },
        {
          "internalType": "uint256",
          "name": "tokenId",
          "type": "uint256"
        },
        {
          "internalType": "bytes",
          "name": "data",
          "type": "bytes"
        }
      ],
      "name": "safeTransferFrom",
      "outputs": [],
      "stateMutability": "nonpayable",
      "type": "function"
    },
    {
      "inputs": [
        {
          "internalType": "address",
          "name": "operator",
          "type": "address"
        },
        {
          "internalType": "bool",
          "name": "approved",
          "type": "bool"
        }
      ],
      "name": "setApprovalForAll",
      "outputs": [],
      "stateMutability": "nonpayable",
      "type": "function"
    },
    {
      "inputs": [],
      "name": "symbol",
      "outputs": [
        {
          "internalType": "string",
          "name": "",
          "type": "string"
        }
      ],
      "stateMutability": "view",
      "type": "function"
    },
    {
      "inputs": [
        {
          "internalType": "uint256",
          "name": "index",
          "type": "uint256"
        }
      ],
      "name": "tokenByIndex",
      "outputs": [
        {
          "internalType": "uint256",
          "name": "",
          "type": "uint256"
        }
      ],
      "stateMutability": "view",
      "type": "function"
    },
    {
      "inputs": [
        {
          "internalType": "address",
          "name": "owner",
          "type": "address"
        },
        {
          "internalType": "uint256",
          "name": "index",
          "type": "uint256"
        }
      ],
      "name": "tokenOfOwnerByIndex",
      "outputs": [
        {
          "internalType": "uint256",
          "name": "",
          "type": "uint256"
        }
      ],
      "stateMutability": "view",
      "type": "function"
    },
    {
      "inputs": [],
      "name": "totalSupply",
      "outputs": [
        {
          "internalType": "uint256",
          "name": "",
          "type": "uint256"
        }
      ],
      "stateMutability": "view",
      "type": "function"
    },
    {
      "inputs": [
        {
          "internalType": "address",
          "name": "from",
          "type": "address"
        },
        {
          "internalType": "address",
          "name": "to",
          "type": "address"
        },
        {
          "internalType": "uint256",
          "name": "tokenId",
          "type": "uint256"
        }
      ],
      "name": "transferFrom",
      "outputs": [],
      "stateMutability": "nonpayable",
      "type": "function"
    },
    {
      "inputs": [
        {
          "internalType": "address",
          "name": "newOwner",
          "type": "address"
        }
      ],
      "name": "transferOwnership",
      "outputs": [],
      "stateMutability": "nonpayable",
      "type": "function"
    },
    {
      "inputs": [],
      "name": "mintMapleNFT",
      "outputs": [
        {
          "internalType": "uint256",
          "name": "",
          "type": "uint256"
        }
      ],
      "stateMutability": "nonpayable",
      "type": "function"
    },
    {
      "inputs": [
        {
          "internalType": "bytes4",
          "name": "interfaceId",
          "type": "bytes4"
        }
      ],
      "name": "supportsInterface",
      "outputs": [
        {
          "internalType": "bool",
          "name": "",
          "type": "bool"
        }
      ],
      "stateMutability": "view",
      "type": "function"
    },
    {
      "inputs": [
        {
          "internalType": "uint256",
          "name": "_tokenId",
          "type": "uint256"
        }
      ],
      "name": "tokenURI",
      "outputs": [
        {
          "internalType": "string",
          "name": "",
          "type": "string"
        }
      ],
      "stateMutability": "view",
      "type": "function"
    },
    {
      "inputs": [],
      "name": "withdraw",
      "outputs": [
        {
          "internalType": "uint256",
          "name": "",
          "type": "uint256"
        }
      ],
      "stateMutability": "nonpayable",
      "type": "function"
    }
  ],
  "bytecode": "0x60806040523480156200001157600080fd5b50604051620040b9380380620040b9833981810160405281019062000037919062000612565b6040518060400160405280600881526020017f4d61706c654e46540000000000000000000000000000000000000000000000008152506040518060400160405280600381526020017f4e46540000000000000000000000000000000000000000000000000000000000815250620000c3620000b76200017660201b60201c565b6200017e60201b60201c565b8160019081620000d49190620008d8565b508060029081620000e69190620008d8565b50505082600e60006101000a81548173ffffffffffffffffffffffffffffffffffffffff021916908373ffffffffffffffffffffffffffffffffffffffff1602179055506000600d8190555060326010819055506200014b826200024260201b60201c565b506200015d81620002d860201b60201c565b6200016d620002fd60201b60201c565b50505062000abe565b600033905090565b60008060009054906101000a900473ffffffffffffffffffffffffffffffffffffffff169050816000806101000a81548173ffffffffffffffffffffffffffffffffffffffff021916908373ffffffffffffffffffffffffffffffffffffffff1602179055508173ffffffffffffffffffffffffffffffffffffffff168173ffffffffffffffffffffffffffffffffffffffff167f8be0079c531659141344cd1fd0a4f28419497f9722a3daafe3b4186f6b6457e060405160405180910390a35050565b6000620002546200036060201b60201c565b600073ffffffffffffffffffffffffffffffffffffffff168273ffffffffffffffffffffffffffffffffffffffff16036200028e57600080fd5b81600c60006101000a81548173ffffffffffffffffffffffffffffffffffffffff021916908373ffffffffffffffffffffffffffffffffffffffff16021790555060019050919050565b620002e86200036060201b60201c565b8060119081620002f99190620008d8565b5050565b6200030d6200036060201b60201c565b6000600190505b60105481116200035d57600f81908060018154018082558091505060019003906000526020600020016000909190919091505580806200035490620009ee565b91505062000314565b50565b620003706200017660201b60201c565b73ffffffffffffffffffffffffffffffffffffffff1662000396620003f160201b60201c565b73ffffffffffffffffffffffffffffffffffffffff1614620003ef576040517f08c379a0000000000000000000000000000000000000000000000000000000008152600401620003e69062000a9c565b60405180910390fd5b565b60008060009054906101000a900473ffffffffffffffffffffffffffffffffffffffff16905090565b6000604051905090565b600080fd5b600080fd5b600073ffffffffffffffffffffffffffffffffffffffff82169050919050565b60006200045b826200042e565b9050919050565b6200046d816200044e565b81146200047957600080fd5b50565b6000815190506200048d8162000462565b92915050565b600080fd5b600080fd5b6000601f19601f8301169050919050565b7f4e487b7100000000000000000000000000000000000000000000000000000000600052604160045260246000fd5b620004e8826200049d565b810181811067ffffffffffffffff821117156200050a5762000509620004ae565b5b80604052505050565b60006200051f6200041a565b90506200052d8282620004dd565b919050565b600067ffffffffffffffff82111562000550576200054f620004ae565b5b6200055b826200049d565b9050602081019050919050565b60005b83811015620005885780820151818401526020810190506200056b565b60008484015250505050565b6000620005ab620005a58462000532565b62000513565b905082815260208101848484011115620005ca57620005c962000498565b5b620005d784828562000568565b509392505050565b600082601f830112620005f757620005f662000493565b5b81516200060984826020860162000594565b91505092915050565b6000806000606084860312156200062e576200062d62000424565b5b60006200063e868287016200047c565b935050602062000651868287016200047c565b925050604084015167ffffffffffffffff81111562000675576200067462000429565b5b6200068386828701620005df565b9150509250925092565b600081519050919050565b7f4e487b7100000000000000000000000000000000000000000000000000000000600052602260045260246000fd5b60006002820490506001821680620006e057607f821691505b602082108103620006f657620006f562000698565b5b50919050565b60008190508160005260206000209050919050565b60006020601f8301049050919050565b600082821b905092915050565b600060088302620007607fffffffffffffffffffffffffffffffffffffffffffffffffffffffffffffffff8262000721565b6200076c868362000721565b95508019841693508086168417925050509392505050565b6000819050919050565b6000819050919050565b6000620007b9620007b3620007ad8462000784565b6200078e565b62000784565b9050919050565b6000819050919050565b620007d58362000798565b620007ed620007e482620007c0565b8484546200072e565b825550505050565b600090565b62000804620007f5565b62000811818484620007ca565b505050565b5b8181101562000839576200082d600082620007fa565b60018101905062000817565b5050565b601f82111562000888576200085281620006fc565b6200085d8462000711565b810160208510156200086d578190505b620008856200087c8562000711565b83018262000816565b50505b505050565b600082821c905092915050565b6000620008ad600019846008026200088d565b1980831691505092915050565b6000620008c883836200089a565b9150826002028217905092915050565b620008e3826200068d565b67ffffffffffffffff811115620008ff57620008fe620004ae565b5b6200090b8254620006c7565b620009188282856200083d565b600060209050601f8311600181146200095057600084156200093b578287015190505b620009478582620008ba565b865550620009b7565b601f1984166200096086620006fc565b60005b828110156200098a5784890151825560018201915060208501945060208101905062000963565b86831015620009aa5784890151620009a6601f8916826200089a565b8355505b6001600288020188555050505b505050505050565b7f4e487b7100000000000000000000000000000000000000000000000000000000600052601160045260246000fd5b6000620009fb8262000784565b91507fffffffffffffffffffffffffffffffffffffffffffffffffffffffffffffffff820362000a305762000a2f620009bf565b5b600182019050919050565b600082825260208201905092915050565b7f4f776e61626c653a2063616c6c6572206973206e6f7420746865206f776e6572600082015250565b600062000a8460208362000a3b565b915062000a918262000a4c565b602082019050919050565b6000602082019050818103600083015262000ab78162000a75565b9050919050565b6135eb8062000ace6000396000f3fe608060405234801561001057600080fd5b50600436106101375760003560e01c80634f6ccce7116100b857806395d89b411161007c57806395d89b4114610350578063a22cb4651461036e578063b88d4fde1461038a578063c87b56dd146103a6578063e985e9c5146103d6578063f2fde38b1461040657610137565b80634f6ccce7146102985780636352211e146102c857806370a08231146102f8578063715018a6146103285780638da5cb5b1461033257610137565b806323b872dd116100ff57806323b872dd146101f457806325379b00146102105780632f745c591461022e5780633ccfd60b1461025e57806342842e0e1461027c57610137565b806301ffc9a71461013c57806306fdde031461016c578063081812fc1461018a578063095ea7b3146101ba57806318160ddd146101d6575b600080fd5b6101566004803603810190610151919061239a565b610422565b60405161016391906123e2565b60405180910390f35b610174610434565b604051610181919061248d565b60405180910390f35b6101a4600480360381019061019f91906124e5565b6104c6565b6040516101b19190612553565b60405180910390f35b6101d460048036038101906101cf919061259a565b61050c565b005b6101de610623565b6040516101eb91906125e9565b60405180910390f35b61020e60048036038101906102099190612604565b610630565b005b610218610690565b60405161022591906125e9565b60405180910390f35b6102486004803603810190610243919061259a565b610780565b60405161025591906125e9565b60405180910390f35b610266610825565b60405161027391906125e9565b60405180910390f35b61029660048036038101906102919190612604565b610a1a565b005b6102b260048036038101906102ad91906124e5565b610a3a565b6040516102bf91906125e9565b60405180910390f35b6102e260048036038101906102dd91906124e5565b610aab565b6040516102ef9190612553565b60405180910390f35b610312600480360381019061030d9190612657565b610b5c565b60405161031f91906125e9565b60405180910390f35b610330610c13565b005b61033a610c27565b6040516103479190612553565b60405180910390f35b610358610c50565b604051610365919061248d565b60405180910390f35b610388600480360381019061038391906126b0565b610ce2565b005b6103a4600480360381019061039f9190612825565b610cf8565b005b6103c060048036038101906103bb91906124e5565b610d5a565b6040516103cd919061248d565b60405180910390f35b6103f060048036038101906103eb91906128a8565b610d6c565b6040516103fd91906123e2565b60405180910390f35b610420600480360381019061041b9190612657565b610e00565b005b600061042d82610e83565b9050919050565b60606001805461044390612917565b80601f016020809104026020016040519081016040528092919081815260200182805461046f90612917565b80156104bc5780601f10610491576101008083540402835291602001916104bc565b820191906000526020600020905b81548152906001019060200180831161049f57829003601f168201915b5050505050905090565b60006104d182610efd565b6005600083815260200190815260200160002060009054906101000a900473ffffffffffffffffffffffffffffffffffffffff169050919050565b600061051782610aab565b90508073ffffffffffffffffffffffffffffffffffffffff168373ffffffffffffffffffffffffffffffffffffffff1603610587576040517f08c379a000000000000000000000000000000000000000000000000000000000815260040161057e906129ba565b60405180910390fd5b8073ffffffffffffffffffffffffffffffffffffffff166105a6610f48565b73ffffffffffffffffffffffffffffffffffffffff1614806105d557506105d4816105cf610f48565b610d6c565b5b610614576040517f08c379a000000000000000000000000000000000000000000000000000000000815260040161060b90612a4c565b60405180910390fd5b61061e8383610f50565b505050565b6000600980549050905090565b61064161063b610f48565b82611009565b610680576040517f08c379a000000000000000000000000000000000000000000000000000000000815260040161067790612ade565b60405180910390fd5b61068b83838361109e565b505050565b600061069a610623565b60105410156106de576040517f08c379a00000000000000000000000000000000000000000000000000000000081526004016106d590612b4a565b60405180910390fd5b6106e6611304565b6000600f6001600f805490506106fc9190612b99565b8154811061070d5761070c612bcd565b5b90600052602060002001549050600f80548061072c5761072b612bfc565b5b6001900381819060005260206000200160009055905561074c33826113e4565b610779600e60009054906101000a900473ffffffffffffffffffffffffffffffffffffffff166001610ce2565b8091505090565b600061078b83610b5c565b82106107cc576040517f08c379a00000000000000000000000000000000000000000000000000000000081526004016107c390612c9d565b60405180910390fd5b600760008473ffffffffffffffffffffffffffffffffffffffff1673ffffffffffffffffffffffffffffffffffffffff168152602001908152602001600020600083815260200190815260200160002054905092915050565b600061082f611402565b6000600c60009054906101000a900473ffffffffffffffffffffffffffffffffffffffff1673ffffffffffffffffffffffffffffffffffffffff166370a08231306040518263ffffffff1660e01b815260040161088c9190612553565b602060405180830381865afa1580156108a9573d6000803e3d6000fd5b505050506040513d601f19601f820116820180604052508101906108cd9190612cd2565b9050600c60009054906101000a900473ffffffffffffffffffffffffffffffffffffffff1673ffffffffffffffffffffffffffffffffffffffff1663095ea7b330836040518363ffffffff1660e01b815260040161092c929190612cff565b6020604051808303816000875af115801561094b573d6000803e3d6000fd5b505050506040513d601f19601f8201168201806040525081019061096f9190612d3d565b50600c60009054906101000a900473ffffffffffffffffffffffffffffffffffffffff1673ffffffffffffffffffffffffffffffffffffffff166323b872dd3033846040518463ffffffff1660e01b81526004016109cf93929190612d6a565b6020604051808303816000875af11580156109ee573d6000803e3d6000fd5b505050506040513d601f19601f82011682018060405250810190610a129190612d3d565b508091505090565b610a3583838360405180602001604052806000815250610cf8565b505050565b6000610a44610623565b8210610a85576040517f08c379a0000000000000000000000000000000000000000000000000000000008152600401610a7c90612e13565b60405180910390fd5b60098281548110610a9957610a98612bcd565b5b90600052602060002001549050919050565b6000806003600084815260200190815260200160002060009054906101000a900473ffffffffffffffffffffffffffffffffffffffff169050600073ffffffffffffffffffffffffffffffffffffffff168173ffffffffffffffffffffffffffffffffffffffff1603610b53576040517f08c379a0000000000000000000000000000000000000000000000000000000008152600401610b4a90612e7f565b60405180910390fd5b80915050919050565b60008073ffffffffffffffffffffffffffffffffffffffff168273ffffffffffffffffffffffffffffffffffffffff1603610bcc576040517f08c379a0000000000000000000000000000000000000000000000000000000008152600401610bc390612f11565b60405180910390fd5b600460008373ffffffffffffffffffffffffffffffffffffffff1673ffffffffffffffffffffffffffffffffffffffff168152602001908152602001600020549050919050565b610c1b611402565b610c256000611480565b565b60008060009054906101000a900473ffffffffffffffffffffffffffffffffffffffff16905090565b606060028054610c5f90612917565b80601f0160208091040260200160405190810160405280929190818152602001828054610c8b90612917565b8015610cd85780601f10610cad57610100808354040283529160200191610cd8565b820191906000526020600020905b815481529060010190602001808311610cbb57829003601f168201915b5050505050905090565b610cf4610ced610f48565b8383611544565b5050565b610d09610d03610f48565b83611009565b610d48576040517f08c379a0000000000000000000000000000000000000000000000000000000008152600401610d3f90612ade565b60405180910390fd5b610d54848484846116b0565b50505050565b6060610d658261170c565b9050919050565b6000600660008473ffffffffffffffffffffffffffffffffffffffff1673ffffffffffffffffffffffffffffffffffffffff16815260200190815260200160002060008373ffffffffffffffffffffffffffffffffffffffff1673ffffffffffffffffffffffffffffffffffffffff16815260200190815260200160002060009054906101000a900460ff16905092915050565b610e08611402565b600073ffffffffffffffffffffffffffffffffffffffff168173ffffffffffffffffffffffffffffffffffffffff1603610e77576040517f08c379a0000000000000000000000000000000000000000000000000000000008152600401610e6e90612fa3565b60405180910390fd5b610e8081611480565b50565b60007f780e9d63000000000000000000000000000000000000000000000000000000007bffffffffffffffffffffffffffffffffffffffffffffffffffffffff1916827bffffffffffffffffffffffffffffffffffffffffffffffffffffffff19161480610ef65750610ef582611774565b5b9050919050565b610f0681611856565b610f45576040517f08c379a0000000000000000000000000000000000000000000000000000000008152600401610f3c90612e7f565b60405180910390fd5b50565b600033905090565b816005600083815260200190815260200160002060006101000a81548173ffffffffffffffffffffffffffffffffffffffff021916908373ffffffffffffffffffffffffffffffffffffffff160217905550808273ffffffffffffffffffffffffffffffffffffffff16610fc383610aab565b73ffffffffffffffffffffffffffffffffffffffff167f8c5be1e5ebec7d5bd14f71427d1e84f3dd0314c0f7b2291e5b200ac8c7c3b92560405160405180910390a45050565b60008061101583610aab565b90508073ffffffffffffffffffffffffffffffffffffffff168473ffffffffffffffffffffffffffffffffffffffff16148061105757506110568185610d6c565b5b8061109557508373ffffffffffffffffffffffffffffffffffffffff1661107d846104c6565b73ffffffffffffffffffffffffffffffffffffffff16145b91505092915050565b8273ffffffffffffffffffffffffffffffffffffffff166110be82610aab565b73ffffffffffffffffffffffffffffffffffffffff1614611114576040517f08c379a000000000000000000000000000000000000000000000000000000000815260040161110b90613035565b60405180910390fd5b600073ffffffffffffffffffffffffffffffffffffffff168273ffffffffffffffffffffffffffffffffffffffff1603611183576040517f08c379a000000000000000000000000000000000000000000000000000000000815260040161117a906130c7565b60405180910390fd5b61118e8383836118c2565b611199600082610f50565b6001600460008573ffffffffffffffffffffffffffffffffffffffff1673ffffffffffffffffffffffffffffffffffffffff16815260200190815260200160002060008282546111e99190612b99565b925050819055506001600460008473ffffffffffffffffffffffffffffffffffffffff1673ffffffffffffffffffffffffffffffffffffffff168152602001908152602001600020600082825461124091906130e7565b92505081905550816003600083815260200190815260200160002060006101000a81548173ffffffffffffffffffffffffffffffffffffffff021916908373ffffffffffffffffffffffffffffffffffffffff160217905550808273ffffffffffffffffffffffffffffffffffffffff168473ffffffffffffffffffffffffffffffffffffffff167fddf252ad1be2c89b69c2b068fc378daa952ba7f163c4a11628f55a4df523b3ef60405160405180910390a46112ff8383836118d2565b505050565b60006001600f805490506113189190612b99565b90506000600f8054905042604051602001611333919061313c565b6040516020818303038152906040528051906020012060001c6113569190613186565b90506000600f828154811061136e5761136d612bcd565b5b90600052602060002001549050600f838154811061138f5761138e612bcd565b5b9060005260206000200154600f83815481106113ae576113ad612bcd565b5b906000526020600020018190555080600f84815481106113d1576113d0612bcd565b5b9060005260206000200181905550505050565b6113fe8282604051806020016040528060008152506118d7565b5050565b61140a610f48565b73ffffffffffffffffffffffffffffffffffffffff16611428610c27565b73ffffffffffffffffffffffffffffffffffffffff161461147e576040517f08c379a000000000000000000000000000000000000000000000000000000000815260040161147590613203565b60405180910390fd5b565b60008060009054906101000a900473ffffffffffffffffffffffffffffffffffffffff169050816000806101000a81548173ffffffffffffffffffffffffffffffffffffffff021916908373ffffffffffffffffffffffffffffffffffffffff1602179055508173ffffffffffffffffffffffffffffffffffffffff168173ffffffffffffffffffffffffffffffffffffffff167f8be0079c531659141344cd1fd0a4f28419497f9722a3daafe3b4186f6b6457e060405160405180910390a35050565b8173ffffffffffffffffffffffffffffffffffffffff168373ffffffffffffffffffffffffffffffffffffffff16036115b2576040517f08c379a00000000000000000000000000000000000000000000000000000000081526004016115a99061326f565b60405180910390fd5b80600660008573ffffffffffffffffffffffffffffffffffffffff1673ffffffffffffffffffffffffffffffffffffffff16815260200190815260200160002060008473ffffffffffffffffffffffffffffffffffffffff1673ffffffffffffffffffffffffffffffffffffffff16815260200190815260200160002060006101000a81548160ff0219169083151502179055508173ffffffffffffffffffffffffffffffffffffffff168373ffffffffffffffffffffffffffffffffffffffff167f17307eab39ab6107e8899845ad3d59bd9653f200f220920489ca2b5937696c31836040516116a391906123e2565b60405180910390a3505050565b6116bb84848461109e565b6116c784848484611932565b611706576040517f08c379a00000000000000000000000000000000000000000000000000000000081526004016116fd90613301565b60405180910390fd5b50505050565b606061171782610efd565b6000611721611ab9565b90506000815111611741576040518060200160405280600081525061176c565b8061174b84611b4b565b60405160200161175c92919061335d565b6040516020818303038152906040525b915050919050565b60007f80ac58cd000000000000000000000000000000000000000000000000000000007bffffffffffffffffffffffffffffffffffffffffffffffffffffffff1916827bffffffffffffffffffffffffffffffffffffffffffffffffffffffff1916148061183f57507f5b5e139f000000000000000000000000000000000000000000000000000000007bffffffffffffffffffffffffffffffffffffffffffffffffffffffff1916827bffffffffffffffffffffffffffffffffffffffffffffffffffffffff1916145b8061184f575061184e82611cab565b5b9050919050565b60008073ffffffffffffffffffffffffffffffffffffffff166003600084815260200190815260200160002060009054906101000a900473ffffffffffffffffffffffffffffffffffffffff1673ffffffffffffffffffffffffffffffffffffffff1614159050919050565b6118cd838383611d15565b505050565b505050565b6118e18383611e27565b6118ee6000848484611932565b61192d576040517f08c379a000000000000000000000000000000000000000000000000000000000815260040161192490613301565b60405180910390fd5b505050565b60006119538473ffffffffffffffffffffffffffffffffffffffff16612000565b15611aac578373ffffffffffffffffffffffffffffffffffffffff1663150b7a0261197c610f48565b8786866040518563ffffffff1660e01b815260040161199e94939291906133d6565b6020604051808303816000875af19250505080156119da57506040513d601f19601f820116820180604052508101906119d79190613437565b60015b611a5c573d8060008114611a0a576040519150601f19603f3d011682016040523d82523d6000602084013e611a0f565b606091505b506000815103611a54576040517f08c379a0000000000000000000000000000000000000000000000000000000008152600401611a4b90613301565b60405180910390fd5b805181602001fd5b63150b7a0260e01b7bffffffffffffffffffffffffffffffffffffffffffffffffffffffff1916817bffffffffffffffffffffffffffffffffffffffffffffffffffffffff191614915050611ab1565b600190505b949350505050565b606060118054611ac890612917565b80601f0160208091040260200160405190810160405280929190818152602001828054611af490612917565b8015611b415780601f10611b1657610100808354040283529160200191611b41565b820191906000526020600020905b815481529060010190602001808311611b2457829003601f168201915b5050505050905090565b606060008203611b92576040518060400160405280600181526020017f30000000000000000000000000000000000000000000000000000000000000008152509050611ca6565b600082905060005b60008214611bc4578080611bad90613464565b915050600a82611bbd91906134ac565b9150611b9a565b60008167ffffffffffffffff811115611be057611bdf6126fa565b5b6040519080825280601f01601f191660200182016040528015611c125781602001600182028036833780820191505090505b5090505b60008514611c9f57600182611c2b9190612b99565b9150600a85611c3a9190613186565b6030611c4691906130e7565b60f81b818381518110611c5c57611c5b612bcd565b5b60200101907effffffffffffffffffffffffffffffffffffffffffffffffffffffffffffff1916908160001a905350600a85611c9891906134ac565b9450611c16565b8093505050505b919050565b60007f01ffc9a7000000000000000000000000000000000000000000000000000000007bffffffffffffffffffffffffffffffffffffffffffffffffffffffff1916827bffffffffffffffffffffffffffffffffffffffffffffffffffffffff1916149050919050565b611d20838383612023565b600073ffffffffffffffffffffffffffffffffffffffff168373ffffffffffffffffffffffffffffffffffffffff1603611d6257611d5d81612028565b611da1565b8173ffffffffffffffffffffffffffffffffffffffff168373ffffffffffffffffffffffffffffffffffffffff1614611da057611d9f8382612071565b5b5b600073ffffffffffffffffffffffffffffffffffffffff168273ffffffffffffffffffffffffffffffffffffffff1603611de357611dde816121de565b611e22565b8273ffffffffffffffffffffffffffffffffffffffff168273ffffffffffffffffffffffffffffffffffffffff1614611e2157611e2082826122af565b5b5b505050565b600073ffffffffffffffffffffffffffffffffffffffff168273ffffffffffffffffffffffffffffffffffffffff1603611e96576040517f08c379a0000000000000000000000000000000000000000000000000000000008152600401611e8d90613529565b60405180910390fd5b611e9f81611856565b15611edf576040517f08c379a0000000000000000000000000000000000000000000000000000000008152600401611ed690613595565b60405180910390fd5b611eeb600083836118c2565b6001600460008473ffffffffffffffffffffffffffffffffffffffff1673ffffffffffffffffffffffffffffffffffffffff1681526020019081526020016000206000828254611f3b91906130e7565b92505081905550816003600083815260200190815260200160002060006101000a81548173ffffffffffffffffffffffffffffffffffffffff021916908373ffffffffffffffffffffffffffffffffffffffff160217905550808273ffffffffffffffffffffffffffffffffffffffff16600073ffffffffffffffffffffffffffffffffffffffff167fddf252ad1be2c89b69c2b068fc378daa952ba7f163c4a11628f55a4df523b3ef60405160405180910390a4611ffc600083836118d2565b5050565b6000808273ffffffffffffffffffffffffffffffffffffffff163b119050919050565b505050565b600980549050600a600083815260200190815260200160002081905550600981908060018154018082558091505060019003906000526020600020016000909190919091505550565b6000600161207e84610b5c565b6120889190612b99565b905060006008600084815260200190815260200160002054905081811461216d576000600760008673ffffffffffffffffffffffffffffffffffffffff1673ffffffffffffffffffffffffffffffffffffffff168152602001908152602001600020600084815260200190815260200160002054905080600760008773ffffffffffffffffffffffffffffffffffffffff1673ffffffffffffffffffffffffffffffffffffffff168152602001908152602001600020600084815260200190815260200160002081905550816008600083815260200190815260200160002081905550505b6008600084815260200190815260200160002060009055600760008573ffffffffffffffffffffffffffffffffffffffff1673ffffffffffffffffffffffffffffffffffffffff16815260200190815260200160002060008381526020019081526020016000206000905550505050565b600060016009805490506121f29190612b99565b90506000600a600084815260200190815260200160002054905060006009838154811061222257612221612bcd565b5b90600052602060002001549050806009838154811061224457612243612bcd565b5b906000526020600020018190555081600a600083815260200190815260200160002081905550600a600085815260200190815260200160002060009055600980548061229357612292612bfc565b5b6001900381819060005260206000200160009055905550505050565b60006122ba83610b5c565b905081600760008573ffffffffffffffffffffffffffffffffffffffff1673ffffffffffffffffffffffffffffffffffffffff168152602001908152602001600020600083815260200190815260200160002081905550806008600084815260200190815260200160002081905550505050565b6000604051905090565b600080fd5b600080fd5b60007fffffffff0000000000000000000000000000000000000000000000000000000082169050919050565b61237781612342565b811461238257600080fd5b50565b6000813590506123948161236e565b92915050565b6000602082840312156123b0576123af612338565b5b60006123be84828501612385565b91505092915050565b60008115159050919050565b6123dc816123c7565b82525050565b60006020820190506123f760008301846123d3565b92915050565b600081519050919050565b600082825260208201905092915050565b60005b8381101561243757808201518184015260208101905061241c565b60008484015250505050565b6000601f19601f8301169050919050565b600061245f826123fd565b6124698185612408565b9350612479818560208601612419565b61248281612443565b840191505092915050565b600060208201905081810360008301526124a78184612454565b905092915050565b6000819050919050565b6124c2816124af565b81146124cd57600080fd5b50565b6000813590506124df816124b9565b92915050565b6000602082840312156124fb576124fa612338565b5b6000612509848285016124d0565b91505092915050565b600073ffffffffffffffffffffffffffffffffffffffff82169050919050565b600061253d82612512565b9050919050565b61254d81612532565b82525050565b60006020820190506125686000830184612544565b92915050565b61257781612532565b811461258257600080fd5b50565b6000813590506125948161256e565b92915050565b600080604083850312156125b1576125b0612338565b5b60006125bf85828601612585565b92505060206125d0858286016124d0565b9150509250929050565b6125e3816124af565b82525050565b60006020820190506125fe60008301846125da565b92915050565b60008060006060848603121561261d5761261c612338565b5b600061262b86828701612585565b935050602061263c86828701612585565b925050604061264d868287016124d0565b9150509250925092565b60006020828403121561266d5761266c612338565b5b600061267b84828501612585565b91505092915050565b61268d816123c7565b811461269857600080fd5b50565b6000813590506126aa81612684565b92915050565b600080604083850312156126c7576126c6612338565b5b60006126d585828601612585565b92505060206126e68582860161269b565b9150509250929050565b600080fd5b600080fd5b7f4e487b7100000000000000000000000000000000000000000000000000000000600052604160045260246000fd5b61273282612443565b810181811067ffffffffffffffff82111715612751576127506126fa565b5b80604052505050565b600061276461232e565b90506127708282612729565b919050565b600067ffffffffffffffff8211156127905761278f6126fa565b5b61279982612443565b9050602081019050919050565b82818337600083830152505050565b60006127c86127c384612775565b61275a565b9050828152602081018484840111156127e4576127e36126f5565b5b6127ef8482856127a6565b509392505050565b600082601f83011261280c5761280b6126f0565b5b813561281c8482602086016127b5565b91505092915050565b6000806000806080858703121561283f5761283e612338565b5b600061284d87828801612585565b945050602061285e87828801612585565b935050604061286f878288016124d0565b925050606085013567ffffffffffffffff8111156128905761288f61233d565b5b61289c878288016127f7565b91505092959194509250565b600080604083850312156128bf576128be612338565b5b60006128cd85828601612585565b92505060206128de85828601612585565b9150509250929050565b7f4e487b7100000000000000000000000000000000000000000000000000000000600052602260045260246000fd5b6000600282049050600182168061292f57607f821691505b602082108103612942576129416128e8565b5b50919050565b7f4552433732313a20617070726f76616c20746f2063757272656e74206f776e6560008201527f7200000000000000000000000000000000000000000000000000000000000000602082015250565b60006129a4602183612408565b91506129af82612948565b604082019050919050565b600060208201905081810360008301526129d381612997565b9050919050565b7f4552433732313a20617070726f76652063616c6c6572206973206e6f7420746f60008201527f6b656e206f776e6572206e6f7220617070726f76656420666f7220616c6c0000602082015250565b6000612a36603e83612408565b9150612a41826129da565b604082019050919050565b60006020820190508181036000830152612a6581612a29565b9050919050565b7f4552433732313a2063616c6c6572206973206e6f7420746f6b656e206f776e6560008201527f72206e6f7220617070726f766564000000000000000000000000000000000000602082015250565b6000612ac8602e83612408565b9150612ad382612a6c565b604082019050919050565b60006020820190508181036000830152612af781612abb565b9050919050565b7f4552433732313a20616c6c206e66747320617265206d696e7465640000000000600082015250565b6000612b34601b83612408565b9150612b3f82612afe565b602082019050919050565b60006020820190508181036000830152612b6381612b27565b9050919050565b7f4e487b7100000000000000000000000000000000000000000000000000000000600052601160045260246000fd5b6000612ba4826124af565b9150612baf836124af565b9250828203905081811115612bc757612bc6612b6a565b5b92915050565b7f4e487b7100000000000000000000000000000000000000000000000000000000600052603260045260246000fd5b7f4e487b7100000000000000000000000000000000000000000000000000000000600052603160045260246000fd5b7f455243373231456e756d657261626c653a206f776e657220696e646578206f7560008201527f74206f6620626f756e6473000000000000000000000000000000000000000000602082015250565b6000612c87602b83612408565b9150612c9282612c2b565b604082019050919050565b60006020820190508181036000830152612cb681612c7a565b9050919050565b600081519050612ccc816124b9565b92915050565b600060208284031215612ce857612ce7612338565b5b6000612cf684828501612cbd565b91505092915050565b6000604082019050612d146000830185612544565b612d2160208301846125da565b9392505050565b600081519050612d3781612684565b92915050565b600060208284031215612d5357612d52612338565b5b6000612d6184828501612d28565b91505092915050565b6000606082019050612d7f6000830186612544565b612d8c6020830185612544565b612d9960408301846125da565b949350505050565b7f455243373231456e756d657261626c653a20676c6f62616c20696e646578206f60008201527f7574206f6620626f756e64730000000000000000000000000000000000000000602082015250565b6000612dfd602c83612408565b9150612e0882612da1565b604082019050919050565b60006020820190508181036000830152612e2c81612df0565b9050919050565b7f4552433732313a20696e76616c696420746f6b656e2049440000000000000000600082015250565b6000612e69601883612408565b9150612e7482612e33565b602082019050919050565b60006020820190508181036000830152612e9881612e5c565b9050919050565b7f4552433732313a2061646472657373207a65726f206973206e6f74206120766160008201527f6c6964206f776e65720000000000000000000000000000000000000000000000602082015250565b6000612efb602983612408565b9150612f0682612e9f565b604082019050919050565b60006020820190508181036000830152612f2a81612eee565b9050919050565b7f4f776e61626c653a206e6577206f776e657220697320746865207a65726f206160008201527f6464726573730000000000000000000000000000000000000000000000000000602082015250565b6000612f8d602683612408565b9150612f9882612f31565b604082019050919050565b60006020820190508181036000830152612fbc81612f80565b9050919050565b7f4552433732313a207472616e736665722066726f6d20696e636f72726563742060008201527f6f776e6572000000000000000000000000000000000000000000000000000000602082015250565b600061301f602583612408565b915061302a82612fc3565b604082019050919050565b6000602082019050818103600083015261304e81613012565b9050919050565b7f4552433732313a207472616e7366657220746f20746865207a65726f2061646460008201527f7265737300000000000000000000000000000000000000000000000000000000602082015250565b60006130b1602483612408565b91506130bc82613055565b604082019050919050565b600060208201905081810360008301526130e0816130a4565b9050919050565b60006130f2826124af565b91506130fd836124af565b925082820190508082111561311557613114612b6a565b5b92915050565b6000819050919050565b613136613131826124af565b61311b565b82525050565b60006131488284613125565b60208201915081905092915050565b7f4e487b7100000000000000000000000000000000000000000000000000000000600052601260045260246000fd5b6000613191826124af565b915061319c836124af565b9250826131ac576131ab613157565b5b828206905092915050565b7f4f776e61626c653a2063616c6c6572206973206e6f7420746865206f776e6572600082015250565b60006131ed602083612408565b91506131f8826131b7565b602082019050919050565b6000602082019050818103600083015261321c816131e0565b9050919050565b7f4552433732313a20617070726f766520746f2063616c6c657200000000000000600082015250565b6000613259601983612408565b915061326482613223565b602082019050919050565b600060208201905081810360008301526132888161324c565b9050919050565b7f4552433732313a207472616e7366657220746f206e6f6e20455243373231526560008201527f63656976657220696d706c656d656e7465720000000000000000000000000000602082015250565b60006132eb603283612408565b91506132f68261328f565b604082019050919050565b6000602082019050818103600083015261331a816132de565b9050919050565b600081905092915050565b6000613337826123fd565b6133418185613321565b9350613351818560208601612419565b80840191505092915050565b6000613369828561332c565b9150613375828461332c565b91508190509392505050565b600081519050919050565b600082825260208201905092915050565b60006133a882613381565b6133b2818561338c565b93506133c2818560208601612419565b6133cb81612443565b840191505092915050565b60006080820190506133eb6000830187612544565b6133f86020830186612544565b61340560408301856125da565b8181036060830152613417818461339d565b905095945050505050565b6000815190506134318161236e565b92915050565b60006020828403121561344d5761344c612338565b5b600061345b84828501613422565b91505092915050565b600061346f826124af565b91507fffffffffffffffffffffffffffffffffffffffffffffffffffffffffffffffff82036134a1576134a0612b6a565b5b600182019050919050565b60006134b7826124af565b91506134c2836124af565b9250826134d2576134d1613157565b5b828204905092915050565b7f4552433732313a206d696e7420746f20746865207a65726f2061646472657373600082015250565b6000613513602083612408565b915061351e826134dd565b602082019050919050565b6000602082019050818103600083015261354281613506565b9050919050565b7f4552433732313a20746f6b656e20616c7265616479206d696e74656400000000600082015250565b600061357f601c83612408565b915061358a82613549565b602082019050919050565b600060208201905081810360008301526135ae81613572565b905091905056fea264697066735822122027640c8afe44ed27b5003217b324913e6d04927ddfe9b0cbcaab87acc85586c264736f6c63430008100033",
  "immutableReferences": {},
  "source": "// SPDX-License-Identifier: MIT\npragma solidity ^0.8.10;\n\nimport \"@openzeppelin/contracts/token/ERC721/ERC721.sol\";\nimport \"@openzeppelin/contracts/utils/Counters.sol\";\nimport \"@openzeppelin/contracts/access/Ownable.sol\";\nimport \"@openzeppelin/contracts/token/ERC721/extensions/ERC721Enumerable.sol\";\nimport \"./interfaces/ERC20Interface.sol\";\n\ncontract MapleNFT is Ownable, ERC721Enumerable {\n    using Counters for Counters.Counter;\n    Counters.Counter private _tokenIds;\n\n    ERC20Interface private token;\n    uint256 private mintPrice;\n    address private marketContractAddress;\n    uint256[] private waitForMint;\n    uint256 private maxTokenNum;\n    string private baseURIextended;\n\n    constructor(address _marketAddress, address _tokenContractAddress, string memory _MapleBaseURI) ERC721(\"MapleNFT\", \"NFT\") {\n        marketContractAddress = _marketAddress;\n\n        mintPrice = 0;\n        maxTokenNum = 50; // TODO: change to 10000 on live environment\n        _setToken(_tokenContractAddress);\n        _setBaseURI(_MapleBaseURI);\n        _generateMintArray();\n    }\n\n    function _generateMintArray() private onlyOwner {\n        for (uint256 i = 1; i <= maxTokenNum; i++) {\n            waitForMint.push(i);\n        }\n    }\n\n    function mintMapleNFT() public returns (uint256) {\n        // require(token.balanceOf(msg.sender) >= mintPrice, \"ERC721: recipient lack of erc20 balance\");\n        require(maxTokenNum >= totalSupply(), \"ERC721: all nfts are minted\");\n\n        // token.transferFrom(msg.sender, address(this), mintPrice);\n\n        _shuffleMintArray();\n        uint256 minted = waitForMint[waitForMint.length - 1];\n        waitForMint.pop();\n\n        _safeMint(msg.sender, minted);\n        setApprovalForAll(marketContractAddress, true); // grant transaction permission to market\n\n        return minted;\n    }\n\n    function _shuffleMintArray() private {\n        uint256 i = waitForMint.length - 1;\n        /*\n         * IMPORTANT:   block.timestamp  chainlink     .\n         */\n        uint256 n = uint256(keccak256(abi.encodePacked(block.timestamp))) % (waitForMint.length);\n        uint256 temp = waitForMint[n];\n        waitForMint[n] = waitForMint[i];\n        waitForMint[i] = temp;\n    }\n\n    function _setBaseURI(string memory _MapleBaseURI) private onlyOwner {\n        baseURIextended = _MapleBaseURI;\n    }\n\n    function _baseURI() internal view virtual override returns (string memory) {\n        return baseURIextended;\n    }\n\n    function _beforeTokenTransfer(\n        address from,\n        address to,\n        uint256 tokenId\n    ) internal override {\n        super._beforeTokenTransfer(from, to, tokenId);\n    }\n\n    function _burn(\n        uint256 _tokenId\n    ) internal override {\n        super._burn(_tokenId);\n    }\n\n    function supportsInterface(bytes4 interfaceId) public view override returns (bool) {\n        return super.supportsInterface(interfaceId);\n    }\n\n    function tokenURI(\n        uint256 _tokenId\n    ) public view override returns (string memory) {\n        return super.tokenURI(_tokenId);\n    }\n\n    function _setToken(address _tokenAddress) private onlyOwner returns (bool) {\n        require(_tokenAddress != address(0x0));\n        token = ERC20Interface(_tokenAddress);\n        return true;\n    }\n\n    function withdraw() external onlyOwner returns (uint256) {\n        uint256 totalValue = token.balanceOf(address(this));\n        token.approve(address(this), totalValue);\n        token.transferFrom(address(this), msg.sender, totalValue);\n        return totalValue;\n    }\n}\n",
  "sourcePath": "/Users/rokrokss/workspace/hyein/BEB-05-JMT/contract/contracts/MapleNFT.sol",
  "compiler": {
    "name": "solc",
    "version": "0.8.16+commit.07a7930e.Emscripten.clang"
  },
  "schemaVersion": "3.4.8",
  "updatedAt": "2022-09-04T21:28:36.529Z",
  "devdoc": {
    "kind": "dev",
    "methods": {
      "approve(address,uint256)": {
        "details": "See {IERC721-approve}."
      },
      "balanceOf(address)": {
        "details": "See {IERC721-balanceOf}."
      },
      "getApproved(uint256)": {
        "details": "See {IERC721-getApproved}."
      },
      "isApprovedForAll(address,address)": {
        "details": "See {IERC721-isApprovedForAll}."
      },
      "name()": {
        "details": "See {IERC721Metadata-name}."
      },
      "owner()": {
        "details": "Returns the address of the current owner."
      },
      "ownerOf(uint256)": {
        "details": "See {IERC721-ownerOf}."
      },
      "renounceOwnership()": {
        "details": "Leaves the contract without owner. It will not be possible to call `onlyOwner` functions anymore. Can only be called by the current owner. NOTE: Renouncing ownership will leave the contract without an owner, thereby removing any functionality that is only available to the owner."
      },
      "safeTransferFrom(address,address,uint256)": {
        "details": "See {IERC721-safeTransferFrom}."
      },
      "safeTransferFrom(address,address,uint256,bytes)": {
        "details": "See {IERC721-safeTransferFrom}."
      },
      "setApprovalForAll(address,bool)": {
        "details": "See {IERC721-setApprovalForAll}."
      },
      "supportsInterface(bytes4)": {
        "details": "See {IERC165-supportsInterface}."
      },
      "symbol()": {
        "details": "See {IERC721Metadata-symbol}."
      },
      "tokenByIndex(uint256)": {
        "details": "See {IERC721Enumerable-tokenByIndex}."
      },
      "tokenOfOwnerByIndex(address,uint256)": {
        "details": "See {IERC721Enumerable-tokenOfOwnerByIndex}."
      },
      "totalSupply()": {
        "details": "See {IERC721Enumerable-totalSupply}."
      },
      "transferFrom(address,address,uint256)": {
        "details": "See {IERC721-transferFrom}."
      },
      "transferOwnership(address)": {
        "details": "Transfers ownership of the contract to a new account (`newOwner`). Can only be called by the current owner."
      }
    },
    "version": 1
  },
  "userdoc": {
    "kind": "user",
    "methods": {},
    "version": 1
  }
}