{
  "contractName": "MapleMarket",
  "abi": [
    {
      "inputs": [
        {
          "internalType": "address",
          "name": "_tokenContractAddress",
          "type": "address"
        },
        {
          "internalType": "address payable",
          "name": "_treasuryWallet",
          "type": "address"
        }
      ],
      "stateMutability": "nonpayable",
      "type": "constructor"
    },
    {
      "anonymous": false,
      "inputs": [
        {
          "indexed": false,
          "internalType": "uint256",
          "name": "tokenId",
          "type": "uint256"
        },
        {
          "indexed": false,
          "internalType": "uint256",
          "name": "itemId",
          "type": "uint256"
        },
        {
          "indexed": false,
          "internalType": "address",
          "name": "seller",
          "type": "address"
        },
        {
          "indexed": false,
          "internalType": "uint256",
          "name": "price",
          "type": "uint256"
        }
      ],
      "name": "ItemCreated",
      "type": "event"
    },
    {
      "anonymous": false,
      "inputs": [
        {
          "indexed": false,
          "internalType": "uint256",
          "name": "tokenId",
          "type": "uint256"
        },
        {
          "indexed": false,
          "internalType": "uint256",
          "name": "itemId",
          "type": "uint256"
        },
        {
          "indexed": false,
          "internalType": "address",
          "name": "seller",
          "type": "address"
        },
        {
          "indexed": false,
          "internalType": "address",
          "name": "buyer",
          "type": "address"
        },
        {
          "indexed": false,
          "internalType": "uint256",
          "name": "price",
          "type": "uint256"
        }
      ],
      "name": "ItemSold",
      "type": "event"
    },
    {
      "anonymous": false,
      "inputs": [
        {
          "indexed": true,
          "internalType": "address",
          "name": "previousOwner",
          "type": "address"
        },
        {
          "indexed": true,
          "internalType": "address",
          "name": "newOwner",
          "type": "address"
        }
      ],
      "name": "OwnershipTransferred",
      "type": "event"
    },
    {
      "anonymous": false,
      "inputs": [
        {
          "indexed": false,
          "internalType": "uint256",
          "name": "tokenId",
          "type": "uint256"
        },
        {
          "indexed": false,
          "internalType": "uint256",
          "name": "itemId",
          "type": "uint256"
        },
        {
          "indexed": false,
          "internalType": "address",
          "name": "seller",
          "type": "address"
        }
      ],
      "name": "SaleCanceled",
      "type": "event"
    },
    {
      "inputs": [],
      "name": "owner",
      "outputs": [
        {
          "internalType": "address",
          "name": "",
          "type": "address"
        }
      ],
      "stateMutability": "view",
      "type": "function",
      "constant": true
    },
    {
      "inputs": [],
      "name": "renounceOwnership",
      "outputs": [],
      "stateMutability": "nonpayable",
      "type": "function"
    },
    {
      "inputs": [
        {
          "internalType": "address",
          "name": "newOwner",
          "type": "address"
        }
      ],
      "name": "transferOwnership",
      "outputs": [],
      "stateMutability": "nonpayable",
      "type": "function"
    },
    {
      "inputs": [
        {
          "internalType": "address",
          "name": "_contractAddr",
          "type": "address"
        },
        {
          "internalType": "uint256",
          "name": "_tokenId",
          "type": "uint256"
        },
        {
          "internalType": "uint256",
          "name": "_price",
          "type": "uint256"
        }
      ],
      "name": "sell",
      "outputs": [],
      "stateMutability": "nonpayable",
      "type": "function"
    },
    {
      "inputs": [
        {
          "internalType": "address",
          "name": "_contractAddr",
          "type": "address"
        },
        {
          "internalType": "uint256",
          "name": "_tokenId",
          "type": "uint256"
        },
        {
          "internalType": "uint256",
          "name": "_price",
          "type": "uint256"
        }
      ],
      "name": "sellWeapon",
      "outputs": [],
      "stateMutability": "nonpayable",
      "type": "function"
    },
    {
      "inputs": [
        {
          "internalType": "address",
          "name": "_contractAddr",
          "type": "address"
        },
        {
          "internalType": "uint256",
          "name": "_itemId",
          "type": "uint256"
        }
      ],
      "name": "saleCancel",
      "outputs": [],
      "stateMutability": "nonpayable",
      "type": "function"
    },
    {
      "inputs": [
        {
          "internalType": "address",
          "name": "_contractAddr",
          "type": "address"
        },
        {
          "internalType": "uint256",
          "name": "_itemId",
          "type": "uint256"
        }
      ],
      "name": "saleCancelWeapon",
      "outputs": [],
      "stateMutability": "nonpayable",
      "type": "function"
    },
    {
      "inputs": [
        {
          "internalType": "address",
          "name": "_contractAddr",
          "type": "address"
        },
        {
          "internalType": "uint256",
          "name": "_itemId",
          "type": "uint256"
        }
      ],
      "name": "buy",
      "outputs": [],
      "stateMutability": "nonpayable",
      "type": "function"
    },
    {
      "inputs": [
        {
          "internalType": "address",
          "name": "_contractAddr",
          "type": "address"
        },
        {
          "internalType": "uint256",
          "name": "_itemId",
          "type": "uint256"
        }
      ],
      "name": "buyWeapon",
      "outputs": [],
      "stateMutability": "nonpayable",
      "type": "function"
    },
    {
      "inputs": [],
      "name": "fetchCharOnSale",
      "outputs": [
        {
          "components": [
            {
              "internalType": "uint256",
              "name": "itemId",
              "type": "uint256"
            },
            {
              "components": [
                {
                  "internalType": "address",
                  "name": "contractAddr",
                  "type": "address"
                },
                {
                  "internalType": "uint256",
                  "name": "tokenId",
                  "type": "uint256"
                }
              ],
              "internalType": "struct MapleMarket.Token",
              "name": "token",
              "type": "tuple"
            },
            {
              "internalType": "address payable",
              "name": "seller",
              "type": "address"
            },
            {
              "internalType": "uint256",
              "name": "price",
              "type": "uint256"
            },
            {
              "internalType": "enum MapleMarket.ItemStatus",
              "name": "itemStatus",
              "type": "uint8"
            }
          ],
          "internalType": "struct MapleMarket.MarketItem[]",
          "name": "",
          "type": "tuple[]"
        }
      ],
      "stateMutability": "view",
      "type": "function",
      "constant": true
    },
    {
      "inputs": [],
      "name": "fetchWeaponOnSale",
      "outputs": [
        {
          "components": [
            {
              "internalType": "uint256",
              "name": "itemId",
              "type": "uint256"
            },
            {
              "components": [
                {
                  "internalType": "address",
                  "name": "contractAddr",
                  "type": "address"
                },
                {
                  "internalType": "uint256",
                  "name": "tokenId",
                  "type": "uint256"
                }
              ],
              "internalType": "struct MapleMarket.Token",
              "name": "token",
              "type": "tuple"
            },
            {
              "internalType": "address payable",
              "name": "seller",
              "type": "address"
            },
            {
              "internalType": "uint256",
              "name": "price",
              "type": "uint256"
            },
            {
              "internalType": "enum MapleMarket.ItemStatus",
              "name": "itemStatus",
              "type": "uint8"
            }
          ],
          "internalType": "struct MapleMarket.MarketItem[]",
          "name": "",
          "type": "tuple[]"
        }
      ],
      "stateMutability": "view",
      "type": "function",
      "constant": true
    },
    {
      "inputs": [],
      "name": "fetchMyItemsOnSale",
      "outputs": [
        {
          "components": [
            {
              "internalType": "uint256",
              "name": "itemId",
              "type": "uint256"
            },
            {
              "components": [
                {
                  "internalType": "address",
                  "name": "contractAddr",
                  "type": "address"
                },
                {
                  "internalType": "uint256",
                  "name": "tokenId",
                  "type": "uint256"
                }
              ],
              "internalType": "struct MapleMarket.Token",
              "name": "token",
              "type": "tuple"
            },
            {
              "internalType": "address payable",
              "name": "seller",
              "type": "address"
            },
            {
              "internalType": "uint256",
              "name": "price",
              "type": "uint256"
            },
            {
              "internalType": "enum MapleMarket.ItemStatus",
              "name": "itemStatus",
              "type": "uint8"
            }
          ],
          "internalType": "struct MapleMarket.MarketItem[]",
          "name": "",
          "type": "tuple[]"
        }
      ],
      "stateMutability": "view",
      "type": "function",
      "constant": true
    },
    {
      "inputs": [
        {
          "internalType": "address",
          "name": "",
          "type": "address"
        },
        {
          "internalType": "address",
          "name": "",
          "type": "address"
        },
        {
          "internalType": "uint256",
          "name": "",
          "type": "uint256"
        },
        {
          "internalType": "uint256",
          "name": "",
          "type": "uint256"
        },
        {
          "internalType": "bytes",
          "name": "",
          "type": "bytes"
        }
      ],
      "name": "onERC1155Received",
      "outputs": [
        {
          "internalType": "bytes4",
          "name": "",
          "type": "bytes4"
        }
      ],
      "stateMutability": "nonpayable",
      "type": "function"
    },
    {
      "inputs": [
        {
          "internalType": "address",
          "name": "",
          "type": "address"
        },
        {
          "internalType": "address",
          "name": "",
          "type": "address"
        },
        {
          "internalType": "uint256[]",
          "name": "",
          "type": "uint256[]"
        },
        {
          "internalType": "uint256[]",
          "name": "",
          "type": "uint256[]"
        },
        {
          "internalType": "bytes",
          "name": "",
          "type": "bytes"
        }
      ],
      "name": "onERC1155BatchReceived",
      "outputs": [
        {
          "internalType": "bytes4",
          "name": "",
          "type": "bytes4"
        }
      ],
      "stateMutability": "nonpayable",
      "type": "function"
    },
    {
      "inputs": [
        {
          "internalType": "address",
          "name": "",
          "type": "address"
        },
        {
          "internalType": "address",
          "name": "",
          "type": "address"
        },
        {
          "internalType": "uint256",
          "name": "",
          "type": "uint256"
        },
        {
          "internalType": "bytes",
          "name": "",
          "type": "bytes"
        }
      ],
      "name": "onERC721Received",
      "outputs": [
        {
          "internalType": "bytes4",
          "name": "",
          "type": "bytes4"
        }
      ],
      "stateMutability": "nonpayable",
      "type": "function"
    }
  ],
  "bytecode": "0x6080604052670de0b6b3a76400006005553480156200001d57600080fd5b506040516200210d3803806200210d83398101604081905262000040916200018d565b6200004b336200007e565b6200005682620000ce565b50600780546001600160a01b0319166001600160a01b039290921691909117905550620001cc565b600080546001600160a01b038381166001600160a01b0319831681178455604051919092169283917f8be0079c531659141344cd1fd0a4f28419497f9722a3daafe3b4186f6b6457e09190a35050565b6000620000da62000113565b6001600160a01b038216620000ee57600080fd5b50600680546001600160a01b0383166001600160a01b03199091161790556001919050565b6000546001600160a01b03163314620001725760405162461bcd60e51b815260206004820181905260248201527f4f776e61626c653a2063616c6c6572206973206e6f7420746865206f776e6572604482015260640160405180910390fd5b565b6001600160a01b03811681146200018a57600080fd5b50565b60008060408385031215620001a157600080fd5b8251620001ae8162000174565b6020840151909250620001c18162000174565b809150509250929050565b611f3180620001dc6000396000f3fe608060405234801561001057600080fd5b50600436106100f55760003560e01c8063980d560111610097578063cce7ec1311610066578063cce7ec1314610228578063f23a6e611461023b578063f2fde38b14610273578063fc8732371461028657600080fd5b8063980d5601146101c0578063a45669e9146101d5578063ae9eb1ed146101e8578063bc197c81146101f057600080fd5b80634c312e11116100d35780634c312e11146101775780636a2724621461018a578063715018a61461019d5780638da5cb5b146101a557600080fd5b8063076c34e5146100fa578063150b7a021461010f5780631697e40b14610164575b600080fd5b61010d6101083660046119fe565b61028e565b005b61014661011d366004611aea565b7f150b7a0200000000000000000000000000000000000000000000000000000000949350505050565b6040516001600160e01b031990911681526020015b60405180910390f35b61010d610172366004611b56565b610571565b61010d610185366004611b56565b610731565b61010d6101983660046119fe565b610b29565b61010d610d84565b6000546040516001600160a01b03909116815260200161015b565b6101c8610d98565b60405161015b9190611b98565b61010d6101e3366004611b56565b610f34565b6101c86110c9565b6101466101fe366004611cbe565b7fbc197c810000000000000000000000000000000000000000000000000000000095945050505050565b61010d610236366004611b56565b6112e6565b610146610249366004611d6c565b7ff23a6e610000000000000000000000000000000000000000000000000000000095945050505050565b61010d610281366004611dd5565b6116bc565b6101c861174c565b6040517efdd58e000000000000000000000000000000000000000000000000000000008152336004820152602481018390526001600160a01b0384169062fdd58e90604401602060405180830381865afa1580156102f0573d6000803e3d6000fd5b505050506040513d601f19601f820116820180604052508101906103149190611df9565b6000036103685760405162461bcd60e51b815260206004820152601a60248201527f6f6e6c79206f776e6572732063616e2073656c6c206974656d7300000000000060448201526064015b60405180910390fd5b600081116103b85760405162461bcd60e51b815260206004820152601860248201527f5072696365206d7573742062652061626f7665207a65726f0000000000000000604482015260640161035f565b6103c6600380546001019055565b60006103d160035490565b6040805160a081018252828152815180830183526001600160a01b038881168252602080830189905280840192835233848601908152606085018981526000608087018181528982526009855297902086518155945180516001808801805492881673ffffffffffffffffffffffffffffffffffffffff1993841617905591909401516002808801919091559251600387018054919096169416939093179093559151600484015593516005830180549697509395929490939260ff19169184908111156104a1576104a1611b82565b021790555050604051637921219560e11b8152336004820152306024820152604481018590526001606482015260a06084820152600060a48201526001600160a01b038616915063f242432a9060c4015b600060405180830381600087803b15801561050c57600080fd5b505af1158015610520573d6000803e3d6000fd5b5050604080518681526020810185905233818301526060810186905290517f8b583604758a4c6c995171787709d2caa670e019b68bfb687d2c9fa77e5380599350908190036080019150a150505050565b6000818152600860205260409020600301546001600160a01b031633146105da5760405162461bcd60e51b815260206004820152601660248201527f6f6e6c792073656c6c65722063616e2063616e63656c00000000000000000000604482015260640161035f565b60008181526008602052604090206005015460ff16600281111561060057610600611b82565b1561064d5760405162461bcd60e51b815260206004820152601360248201527f6974656d206973206e6f74206f6e2073616c6500000000000000000000000000604482015260640161035f565b600081815260086020526040908190206002015490516323b872dd60e01b8152306004820152336024820152604481018290526001600160a01b038416906323b872dd90606401600060405180830381600087803b1580156106ae57600080fd5b505af11580156106c2573d6000803e3d6000fd5b5050506000838152600860205260409020600501805460ff1916600290811790915580546001019055505b6040805182815260208101849052338183015290517fd3bffea3a9501b0422f789f4c0797d9cdcb9e89dd65de11b04e9b0079ea4e2a79181900360600190a1505050565b6000818152600960205260408120600401546005549091906064906107569084611e28565b61076190600a611e28565b61076b9190611e45565b90506000816005548461077e9190611e28565b6107889190611e67565b60008581526009602052604081206002015460065460055493945090926001600160a01b039091169063d83a2bf390339030906107c5908a611e28565b6040516001600160e01b031960e086901b1681526001600160a01b03938416600482015292909116602483015260448201526064016020604051808303816000875af1158015610819573d6000803e3d6000fd5b505050506040513d601f19601f8201168201806040525081019061083d9190611e7a565b90508061088c5760405162461bcd60e51b815260206004820152601560248201527f496e637265617365436f6e7472616374204661696c0000000000000000000000604482015260640161035f565b6006546007546040516323b872dd60e01b81523360048201526001600160a01b039182166024820152604481018790529116906323b872dd906064016020604051808303816000875af11580156108e7573d6000803e3d6000fd5b505050506040513d601f19601f8201168201806040525081019061090b9190611e7a565b506006546007546001600160a01b0391821691631d057bd99116610930600288611e45565b6040516001600160e01b031960e085901b1681526001600160a01b0390921660048301526024820152604401600060405180830381600087803b15801561097657600080fd5b505af115801561098a573d6000803e3d6000fd5b5050600654600089815260096020526040908190206003015490516323b872dd60e01b81523360048201526001600160a01b03918216602482015260448101889052911692506323b872dd91506064016020604051808303816000875af11580156109f9573d6000803e3d6000fd5b505050506040513d601f19601f82011682018060405250810190610a1d9190611e7a565b50604051637921219560e11b8152306004820152336024820152604481018390526001606482015260a06084820152600060a48201526001600160a01b0388169063f242432a9060c401600060405180830381600087803b158015610a8157600080fd5b505af1158015610a95573d6000803e3d6000fd5b50505060008781526009602090815260409182902060058101805460ff191660019081179091556004805490910190556003015482518681529182018a90526001600160a01b031691810191909152336060820152608081018790527f636c891e1c595c5879015e9f0767c0138ec002c115fa5425d3a585252e13a1ed915060a0015b60405180910390a150505050505050565b6040517f6352211e000000000000000000000000000000000000000000000000000000008152600481018390526001600160a01b03841690636352211e90602401602060405180830381865afa158015610b87573d6000803e3d6000fd5b505050506040513d601f19601f82011682018060405250810190610bab9190611e9c565b6001600160a01b0316336001600160a01b031614610c0b5760405162461bcd60e51b815260206004820152601a60248201527f6f6e6c79206f776e6572732063616e2073656c6c206974656d73000000000000604482015260640161035f565b60008111610c5b5760405162461bcd60e51b815260206004820152601860248201527f5072696365206d7573742062652061626f7665207a65726f0000000000000000604482015260640161035f565b610c69600180546001019055565b6000610c7460015490565b6040805160a081018252828152815180830183526001600160a01b038881168252602080830189905280840192835233848601908152606085018981526000608087018181528982526008855297902086518155945180516001808801805492881673ffffffffffffffffffffffffffffffffffffffff1993841617905591909401516002808801919091559251600387018054919096169416939093179093559151600484015593516005830180549697509395929490939260ff1916918490811115610d4457610d44611b82565b0217905550506040516323b872dd60e01b8152336004820152306024820152604481018590526001600160a01b03861691506323b872dd906064016104f2565b610d8c6118df565b610d966000611939565b565b60606000610da560035490565b90506000610db260045490565b600354610dbf9190611e67565b90506000808267ffffffffffffffff811115610ddd57610ddd611a33565b604051908082528060200260200182016040528015610e1657816020015b610e03611996565b815260200190600190039081610dfb5790505b50905060015b848111610f2b5760008181526009602052604081206005015460ff166002811115610e4957610e49611b82565b03610f195760008181526009602090815260408083205480845292819020815160a081018352815481528251808401845260018301546001600160a01b03908116825260028085015483880152958301919091526003830154169281019290925260048101546060830152600581015490928391608084019160ff90911690811115610ed757610ed7611b82565b6002811115610ee857610ee8611b82565b81525050848681518110610efe57610efe611eb9565b6020908102919091010152610f14600186611ecf565b945050505b80610f2381611ee2565b915050610e1c565b50949350505050565b6000818152600960205260409020600301546001600160a01b03163314610f9d5760405162461bcd60e51b815260206004820152601660248201527f6f6e6c792073656c6c65722063616e2063616e63656c00000000000000000000604482015260640161035f565b60008181526009602052604090206005015460ff166002811115610fc357610fc3611b82565b156110105760405162461bcd60e51b815260206004820152601360248201527f6974656d206973206e6f74206f6e2073616c6500000000000000000000000000604482015260640161035f565b600081815260096020526040808220600201549051637921219560e11b8152306004820152336024820152604481018290526001606482015260a0608482015260a4810192909252906001600160a01b0384169063f242432a9060c401600060405180830381600087803b15801561108757600080fd5b505af115801561109b573d6000803e3d6000fd5b5050506000838152600960205260409020600501805460ff19166002179055506004805460010190556106ed565b606060006110d660015490565b905060008060015b8381116111565760008181526008602052604081206005015460ff16600281111561110b5761110b611b82565b14801561113157506000818152600860205260409020600301546001600160a01b031633145b1561114457611141600184611ecf565b92505b8061114e81611ee2565b9150506110de565b5060008267ffffffffffffffff81111561117257611172611a33565b6040519080825280602002602001820160405280156111ab57816020015b611198611996565b8152602001906001900390816111905790505b50905060015b848111610f2b5760008181526008602052604081206005015460ff1660028111156111de576111de611b82565b14801561120457506000818152600860205260409020600301546001600160a01b031633145b156112d45760008181526008602090815260408083205480845292819020815160a081018352815481528251808401845260018301546001600160a01b03908116825260028085015483880152958301919091526003830154169281019290925260048101546060830152600581015490928391608084019160ff9091169081111561129257611292611b82565b60028111156112a3576112a3611b82565b815250508486815181106112b9576112b9611eb9565b60209081029190910101526112cf600186611ecf565b945050505b806112de81611ee2565b9150506111b1565b60008181526008602052604081206004015460055490919060649061130b9084611e28565b61131690600a611e28565b6113209190611e45565b9050600081600554846113339190611e28565b61133d9190611e67565b60008581526008602052604081206002015460065460055493945090926001600160a01b039091169063d83a2bf3903390309061137a908a611e28565b6040516001600160e01b031960e086901b1681526001600160a01b03938416600482015292909116602483015260448201526064016020604051808303816000875af11580156113ce573d6000803e3d6000fd5b505050506040513d601f19601f820116820180604052508101906113f29190611e7a565b9050806114415760405162461bcd60e51b815260206004820152601560248201527f496e637265617365436f6e7472616374204661696c0000000000000000000000604482015260640161035f565b6006546007546040516323b872dd60e01b81523360048201526001600160a01b039182166024820152604481018790529116906323b872dd906064016020604051808303816000875af115801561149c573d6000803e3d6000fd5b505050506040513d601f19601f820116820180604052508101906114c09190611e7a565b506006546007546001600160a01b0391821691631d057bd991166114e5600288611e45565b6040516001600160e01b031960e085901b1681526001600160a01b0390921660048301526024820152604401600060405180830381600087803b15801561152b57600080fd5b505af115801561153f573d6000803e3d6000fd5b5050600654600089815260086020526040908190206003015490516323b872dd60e01b81523360048201526001600160a01b03918216602482015260448101889052911692506323b872dd91506064016020604051808303816000875af11580156115ae573d6000803e3d6000fd5b505050506040513d601f19601f820116820180604052508101906115d29190611e7a565b506040516323b872dd60e01b8152306004820152336024820152604481018390526001600160a01b038816906323b872dd90606401600060405180830381600087803b15801561162157600080fd5b505af1158015611635573d6000803e3d6000fd5b50505060008781526008602090815260409182902060058101805460ff191660019081179091556002805490910190556003015482518681529182018a90526001600160a01b031691810191909152336060820152608081018790527f636c891e1c595c5879015e9f0767c0138ec002c115fa5425d3a585252e13a1ed915060a001610b18565b6116c46118df565b6001600160a01b0381166117405760405162461bcd60e51b815260206004820152602660248201527f4f776e61626c653a206e6577206f776e657220697320746865207a65726f206160448201527f6464726573730000000000000000000000000000000000000000000000000000606482015260840161035f565b61174981611939565b50565b6060600061175960015490565b9050600061176660025490565b6001546117739190611e67565b90506000808267ffffffffffffffff81111561179157611791611a33565b6040519080825280602002602001820160405280156117ca57816020015b6117b7611996565b8152602001906001900390816117af5790505b50905060015b848111610f2b5760008181526008602052604081206005015460ff1660028111156117fd576117fd611b82565b036118cd5760008181526008602090815260408083205480845292819020815160a081018352815481528251808401845260018301546001600160a01b03908116825260028085015483880152958301919091526003830154169281019290925260048101546060830152600581015490928391608084019160ff9091169081111561188b5761188b611b82565b600281111561189c5761189c611b82565b815250508486815181106118b2576118b2611eb9565b60209081029190910101526118c8600186611ecf565b945050505b806118d781611ee2565b9150506117d0565b6000546001600160a01b03163314610d965760405162461bcd60e51b815260206004820181905260248201527f4f776e61626c653a2063616c6c6572206973206e6f7420746865206f776e6572604482015260640161035f565b600080546001600160a01b0383811673ffffffffffffffffffffffffffffffffffffffff19831681178455604051919092169283917f8be0079c531659141344cd1fd0a4f28419497f9722a3daafe3b4186f6b6457e09190a35050565b6040518060a00160405280600081526020016119ce604051806040016040528060006001600160a01b03168152602001600081525090565b81526000602082018190526040820181905260609091015290565b6001600160a01b038116811461174957600080fd5b600080600060608486031215611a1357600080fd5b8335611a1e816119e9565b95602085013595506040909401359392505050565b634e487b7160e01b600052604160045260246000fd5b604051601f8201601f1916810167ffffffffffffffff81118282101715611a7257611a72611a33565b604052919050565b600082601f830112611a8b57600080fd5b813567ffffffffffffffff811115611aa557611aa5611a33565b611ab8601f8201601f1916602001611a49565b818152846020838601011115611acd57600080fd5b816020850160208301376000918101602001919091529392505050565b60008060008060808587031215611b0057600080fd5b8435611b0b816119e9565b93506020850135611b1b816119e9565b925060408501359150606085013567ffffffffffffffff811115611b3e57600080fd5b611b4a87828801611a7a565b91505092959194509250565b60008060408385031215611b6957600080fd5b8235611b74816119e9565b946020939093013593505050565b634e487b7160e01b600052602160045260246000fd5b60208082528251828201819052600091906040908185019086840185805b83811015611c30578251805186528781015180516001600160a01b039081168a89015290890151888801528782015116606080880191909152810151608080880191909152015160038110611c1957634e487b7160e01b83526021600452602483fd5b60a086015260c09094019391860191600101611bb6565b509298975050505050505050565b600082601f830112611c4f57600080fd5b8135602067ffffffffffffffff821115611c6b57611c6b611a33565b8160051b611c7a828201611a49565b9283528481018201928281019087851115611c9457600080fd5b83870192505b84831015611cb357823582529183019190830190611c9a565b979650505050505050565b600080600080600060a08688031215611cd657600080fd5b8535611ce1816119e9565b94506020860135611cf1816119e9565b9350604086013567ffffffffffffffff80821115611d0e57600080fd5b611d1a89838a01611c3e565b94506060880135915080821115611d3057600080fd5b611d3c89838a01611c3e565b93506080880135915080821115611d5257600080fd5b50611d5f88828901611a7a565b9150509295509295909350565b600080600080600060a08688031215611d8457600080fd5b8535611d8f816119e9565b94506020860135611d9f816119e9565b93506040860135925060608601359150608086013567ffffffffffffffff811115611dc957600080fd5b611d5f88828901611a7a565b600060208284031215611de757600080fd5b8135611df2816119e9565b9392505050565b600060208284031215611e0b57600080fd5b5051919050565b634e487b7160e01b600052601160045260246000fd5b8082028115828204841417611e3f57611e3f611e12565b92915050565b600082611e6257634e487b7160e01b600052601260045260246000fd5b500490565b81810381811115611e3f57611e3f611e12565b600060208284031215611e8c57600080fd5b81518015158114611df257600080fd5b600060208284031215611eae57600080fd5b8151611df2816119e9565b634e487b7160e01b600052603260045260246000fd5b80820180821115611e3f57611e3f611e12565b600060018201611ef457611ef4611e12565b506001019056fea2646970667358221220a727889d066be8ccfffe1a6b709fc6556437ebbfe1ac46deadf1e17aa3bcc8a964736f6c63430008110033",
  "immutableReferences": {},
  "source": "// SPDX-License-Identifier: MIT\npragma solidity ^0.8.7;\n\nimport \"@openzeppelin/contracts/token/ERC721/ERC721.sol\";\nimport \"@openzeppelin/contracts/token/ERC1155/ERC1155.sol\";\nimport \"@openzeppelin/contracts/token/ERC1155/IERC1155Receiver.sol\";\nimport \"@openzeppelin/contracts/access/Ownable.sol\";\nimport \"@openzeppelin/contracts/utils/Counters.sol\";\nimport \"./JMToken.sol\";\n\ncontract MapleMarket is Ownable {\n    using Counters for Counters.Counter;\n    Counters.Counter private _charIds;\n    Counters.Counter private _charSoldOrCanceled;\n    Counters.Counter private _weaponIds;\n    Counters.Counter private _weaponSoldOrCanceled;\n    uint256 decimals = 10**18;\n    JMToken private token;\n    address payable private treasuryWallet;\n\n    constructor (\n        address _tokenContractAddress,\n        address payable _treasuryWallet\n    ) {\n        _setToken(_tokenContractAddress);\n        treasuryWallet = _treasuryWallet;\n    }\n\n    mapping(uint256 => MarketItem) idMarketChar;\n    mapping(uint256 => MarketItem) idMarketWeapon;\n\n    enum ItemStatus {  \n        ON_SALE, SOLD, SALE_CANCELED\n    }\n\n    struct Token {\n        address contractAddr;\n        uint256 tokenId;\n    }\n\n    struct MarketItem {\n        uint256 itemId;\n        Token token;\n        address payable seller;\n        uint256 price;\n        ItemStatus itemStatus;\n    }\n\n    event ItemCreated (\n        uint256 tokenId,\n        uint256 itemId,\n        address seller,\n        uint256 price\n    );\n\n    event ItemSold (\n        uint256 tokenId,\n        uint256 itemId,\n        address seller,\n        address buyer,\n        uint256 price\n    );\n\n    event SaleCanceled (\n        uint256 tokenId,\n        uint256 itemId,\n        address seller\n    );\n\n    function _setToken(address _tokenAddress) private onlyOwner returns (bool) {\n        require(_tokenAddress != address(0x0));\n        token = JMToken(_tokenAddress);\n        return true;\n    }\n\n    function sell(\n        address _contractAddr,\n        uint256 _tokenId,\n        uint256 _price\n    ) public {\n        require(msg.sender == ERC721(_contractAddr).ownerOf(_tokenId),  \"only owners can sell items\");\n        require(_price > 0, \"Price must be above zero\");\n\n        _charIds.increment();\n        uint256 itemId = _charIds.current();\n\n        idMarketChar[itemId] = MarketItem({\n            itemId: itemId,\n            token: Token({\n                contractAddr: _contractAddr,\n                tokenId: _tokenId\n            }),\n            seller: payable(msg.sender),\n            price: _price,\n            itemStatus: ItemStatus.ON_SALE\n        });\n\n        ERC721(_contractAddr).transferFrom(msg.sender, address(this), _tokenId);\n\n        emit ItemCreated(\n            _tokenId,\n            itemId,\n            msg.sender,\n            _price\n        );\n    }\n\n    function sellWeapon(\n        address _contractAddr,\n        uint256 _tokenId,\n        uint256 _price\n    ) public {\n        require(ERC1155(_contractAddr).balanceOf(msg.sender, _tokenId)!=0,  \"only owners can sell items\");\n        require(_price > 0, \"Price must be above zero\");\n\n        _weaponIds.increment();\n        uint256 itemId = _weaponIds.current();\n\n        idMarketWeapon[itemId] = MarketItem({\n            itemId: itemId,\n            token: Token({\n                contractAddr: _contractAddr,\n                tokenId: _tokenId\n            }),\n            seller: payable(msg.sender),\n            price: _price,\n            itemStatus: ItemStatus.ON_SALE\n        });\n\n        ERC1155(_contractAddr).safeTransferFrom(msg.sender, address(this), _tokenId, 1, \"\");\n\n        emit ItemCreated(\n            _tokenId,\n            itemId,\n            msg.sender,\n            _price\n        );\n    }\n\n    function saleCancel(\n        address _contractAddr,\n        uint256 _itemId\n    ) public {\n        require(msg.sender == idMarketChar[_itemId].seller, \"only seller can cancel\");\n        require(ItemStatus.ON_SALE == idMarketChar[_itemId].itemStatus, \"item is not on sale\");\n\n        uint tokenId = idMarketChar[_itemId].token.tokenId;\n\n        ERC721(_contractAddr).transferFrom(address(this), msg.sender, tokenId);\n\n        idMarketChar[_itemId].itemStatus = ItemStatus.SALE_CANCELED;\n        _charSoldOrCanceled.increment();\n        \n\n        emit SaleCanceled(\n            tokenId,\n            _itemId,\n            msg.sender\n        );\n    }\n\n    function saleCancelWeapon(\n        address _contractAddr,\n        uint256 _itemId\n    ) public {\n        require(msg.sender == idMarketWeapon[_itemId].seller, \"only seller can cancel\");\n        require(ItemStatus.ON_SALE == idMarketWeapon[_itemId].itemStatus, \"item is not on sale\");\n\n        uint tokenId = idMarketWeapon[_itemId].token.tokenId;\n\n        ERC1155(_contractAddr).safeTransferFrom(address(this), msg.sender, tokenId, 1, \"\");\n\n        idMarketWeapon[_itemId].itemStatus = ItemStatus.SALE_CANCELED;\n        _weaponSoldOrCanceled.increment();\n        \n\n        emit SaleCanceled(\n            tokenId,\n            _itemId,\n            msg.sender\n        );\n    }\n\n    function buy(\n        address _contractAddr,\n        uint256 _itemId\n    ) public {\n        uint price = idMarketChar[_itemId].price;\n        uint fee = price * decimals * 10 / 100;\n        uint grant = price * decimals - fee;\n        uint tokenId = idMarketChar[_itemId].token.tokenId;\n\n        bool success = token.increaseContractAllowance(\n            msg.sender,\n            address(this),\n            price * decimals\n        );\n        require(success, \"IncreaseContract Fail\");\n        // treasury\n        token.transferFrom(msg.sender, treasuryWallet, fee);\n        token.marketBurn(treasuryWallet, fee/2);\n        // grant seller\n        token.transferFrom(msg.sender, idMarketChar[_itemId].seller, grant);\n\n        ERC721(_contractAddr).transferFrom(address(this), msg.sender, tokenId);\n        idMarketChar[_itemId].itemStatus = ItemStatus.SOLD;\n        _charSoldOrCanceled.increment();\n\n        emit ItemSold(\n            tokenId,\n            _itemId,\n            idMarketChar[_itemId].seller,\n            msg.sender,\n            price\n        );\n    }\n\n    function buyWeapon(\n        address _contractAddr,\n        uint256 _itemId\n    ) public {\n        uint price = idMarketWeapon[_itemId].price;\n        uint fee = price * decimals * 10 / 100;\n        uint grant = price * decimals - fee;\n        uint tokenId = idMarketWeapon[_itemId].token.tokenId;\n\n        bool success = token.increaseContractAllowance(\n            msg.sender,\n            address(this),\n            price * decimals\n        );\n        require(success, \"IncreaseContract Fail\");\n        // treasury\n        token.transferFrom(msg.sender, treasuryWallet, fee);\n        token.marketBurn(treasuryWallet, fee/2);\n        // grant seller\n        token.transferFrom(msg.sender, idMarketWeapon[_itemId].seller, grant);\n\n        ERC1155(_contractAddr).safeTransferFrom(address(this), msg.sender, tokenId, 1, \"\");\n        idMarketWeapon[_itemId].itemStatus = ItemStatus.SOLD;\n        _weaponSoldOrCanceled.increment();\n\n        emit ItemSold(\n            tokenId,\n            _itemId,\n            idMarketWeapon[_itemId].seller,\n            msg.sender,\n            price\n        );\n    }\n\n    function fetchCharOnSale() public view returns (MarketItem[] memory) {\n        uint itemCount = _charIds.current();\n        uint unsoldItemCount = _charIds.current() - _charSoldOrCanceled.current();\n        uint currentIndex = 0;\n\n        MarketItem[] memory items =  new MarketItem[](unsoldItemCount);\n\n        for (uint i = 1; i <= itemCount; i++) {\n            if (idMarketChar[i].itemStatus == ItemStatus.ON_SALE) {\n                uint currentId = idMarketChar[i].itemId;\n                MarketItem storage currentItem = idMarketChar[currentId];\n                items[currentIndex] = currentItem;\n                currentIndex += 1;\n            }\n        }\n        return items;\n    }\n\n    function fetchWeaponOnSale() public view returns (MarketItem[] memory) {\n        uint itemCount = _weaponIds.current();\n        uint unsoldItemCount = _weaponIds.current() - _weaponSoldOrCanceled.current();\n        uint currentIndex = 0;\n\n        MarketItem[] memory items =  new MarketItem[](unsoldItemCount);\n\n        for (uint i = 1; i <= itemCount; i++) {\n            if (idMarketWeapon[i].itemStatus == ItemStatus.ON_SALE) {\n                uint currentId = idMarketWeapon[i].itemId;\n                MarketItem storage currentItem = idMarketWeapon[currentId];\n                items[currentIndex] = currentItem;\n                currentIndex += 1;\n            }\n        }\n        return items;\n    }\n\n    function fetchMyItemsOnSale() public view returns (MarketItem[] memory) {\n        uint totalItemCount = _charIds.current();\n\n        uint itemCount = 0;\n        uint currentIndex = 0;\n\n        for (uint i = 1; i <= totalItemCount; i++) {\n            if (\n                idMarketChar[i].itemStatus == ItemStatus.ON_SALE\n                && idMarketChar[i].seller == msg.sender\n            ) {\n                itemCount += 1;\n            }\n        }\n\n        MarketItem[] memory items = new MarketItem[](itemCount);\n        for (uint i = 1; i <= totalItemCount; i++) {\n            if (\n                idMarketChar[i].itemStatus == ItemStatus.ON_SALE\n                && idMarketChar[i].seller == msg.sender\n            ) {\n                uint currentId = idMarketChar[i].itemId;\n                MarketItem storage currentItem = idMarketChar[currentId];\n                items[currentIndex] = currentItem;\n                currentIndex += 1;\n            }\n        }\n        return items;\n    }\n\n    function onERC1155Received(address, address, uint256, uint256, bytes memory) public virtual returns (bytes4) {\n        return this.onERC1155Received.selector;\n    }\n\n    function onERC1155BatchReceived(address, address, uint256[] memory, uint256[] memory, bytes memory) public virtual returns (bytes4) {\n        return this.onERC1155BatchReceived.selector;\n    }\n\n    function onERC721Received(address, address, uint256, bytes memory) public virtual returns (bytes4) {\n        return this.onERC721Received.selector;\n    }\n}\n",
  "sourcePath": "/Users/hyenne/workspace/BEB-05-JMT/contract/contracts/MapleMarket.sol",
  "compiler": {
    "name": "solc",
    "version": "0.8.17+commit.8df45f5f.Emscripten.clang"
  },
  "schemaVersion": "3.4.9",
  "updatedAt": "2022-09-27T15:27:01.529Z",
  "networkType": "ethereum",
  "devdoc": {
    "kind": "dev",
    "methods": {
      "owner()": {
        "details": "Returns the address of the current owner."
      },
      "renounceOwnership()": {
        "details": "Leaves the contract without owner. It will not be possible to call `onlyOwner` functions anymore. Can only be called by the current owner. NOTE: Renouncing ownership will leave the contract without an owner, thereby removing any functionality that is only available to the owner."
      },
      "transferOwnership(address)": {
        "details": "Transfers ownership of the contract to a new account (`newOwner`). Can only be called by the current owner."
      }
    },
    "version": 1
  },
  "userdoc": {
    "kind": "user",
    "methods": {},
    "version": 1
  }
}