{
  "contractName": "MapleNFT",
  "abi": [
    {
      "inputs": [
        {
          "internalType": "address",
          "name": "_marketAddress",
          "type": "address"
        },
        {
          "internalType": "contract JMToken",
          "name": "_tokenContractAddress",
          "type": "address"
        },
        {
          "internalType": "string",
          "name": "_MapleBaseURI",
          "type": "string"
        },
        {
          "internalType": "address payable",
          "name": "_treasuryWallet",
          "type": "address"
        }
      ],
      "stateMutability": "nonpayable",
      "type": "constructor"
    },
    {
      "anonymous": false,
      "inputs": [
        {
          "indexed": true,
          "internalType": "address",
          "name": "owner",
          "type": "address"
        },
        {
          "indexed": true,
          "internalType": "address",
          "name": "approved",
          "type": "address"
        },
        {
          "indexed": true,
          "internalType": "uint256",
          "name": "tokenId",
          "type": "uint256"
        }
      ],
      "name": "Approval",
      "type": "event"
    },
    {
      "anonymous": false,
      "inputs": [
        {
          "indexed": true,
          "internalType": "address",
          "name": "owner",
          "type": "address"
        },
        {
          "indexed": true,
          "internalType": "address",
          "name": "operator",
          "type": "address"
        },
        {
          "indexed": false,
          "internalType": "bool",
          "name": "approved",
          "type": "bool"
        }
      ],
      "name": "ApprovalForAll",
      "type": "event"
    },
    {
      "anonymous": false,
      "inputs": [
        {
          "indexed": false,
          "internalType": "address",
          "name": "addr",
          "type": "address"
        },
        {
          "indexed": false,
          "internalType": "uint256",
          "name": "tokenId",
          "type": "uint256"
        },
        {
          "indexed": false,
          "internalType": "string",
          "name": "tokenURI",
          "type": "string"
        }
      ],
      "name": "Minted",
      "type": "event"
    },
    {
      "anonymous": false,
      "inputs": [
        {
          "indexed": true,
          "internalType": "address",
          "name": "previousOwner",
          "type": "address"
        },
        {
          "indexed": true,
          "internalType": "address",
          "name": "newOwner",
          "type": "address"
        }
      ],
      "name": "OwnershipTransferred",
      "type": "event"
    },
    {
      "anonymous": false,
      "inputs": [
        {
          "indexed": true,
          "internalType": "address",
          "name": "from",
          "type": "address"
        },
        {
          "indexed": true,
          "internalType": "address",
          "name": "to",
          "type": "address"
        },
        {
          "indexed": true,
          "internalType": "uint256",
          "name": "tokenId",
          "type": "uint256"
        }
      ],
      "name": "Transfer",
      "type": "event"
    },
    {
      "inputs": [
        {
          "internalType": "address",
          "name": "to",
          "type": "address"
        },
        {
          "internalType": "uint256",
          "name": "tokenId",
          "type": "uint256"
        }
      ],
      "name": "approve",
      "outputs": [],
      "stateMutability": "nonpayable",
      "type": "function"
    },
    {
      "inputs": [
        {
          "internalType": "address",
          "name": "owner",
          "type": "address"
        }
      ],
      "name": "balanceOf",
      "outputs": [
        {
          "internalType": "uint256",
          "name": "",
          "type": "uint256"
        }
      ],
      "stateMutability": "view",
      "type": "function",
      "constant": true
    },
    {
      "inputs": [
        {
          "internalType": "uint256",
          "name": "tokenId",
          "type": "uint256"
        }
      ],
      "name": "getApproved",
      "outputs": [
        {
          "internalType": "address",
          "name": "",
          "type": "address"
        }
      ],
      "stateMutability": "view",
      "type": "function",
      "constant": true
    },
    {
      "inputs": [
        {
          "internalType": "address",
          "name": "owner",
          "type": "address"
        },
        {
          "internalType": "address",
          "name": "operator",
          "type": "address"
        }
      ],
      "name": "isApprovedForAll",
      "outputs": [
        {
          "internalType": "bool",
          "name": "",
          "type": "bool"
        }
      ],
      "stateMutability": "view",
      "type": "function",
      "constant": true
    },
    {
      "inputs": [],
      "name": "name",
      "outputs": [
        {
          "internalType": "string",
          "name": "",
          "type": "string"
        }
      ],
      "stateMutability": "view",
      "type": "function",
      "constant": true
    },
    {
      "inputs": [],
      "name": "owner",
      "outputs": [
        {
          "internalType": "address",
          "name": "",
          "type": "address"
        }
      ],
      "stateMutability": "view",
      "type": "function",
      "constant": true
    },
    {
      "inputs": [
        {
          "internalType": "uint256",
          "name": "tokenId",
          "type": "uint256"
        }
      ],
      "name": "ownerOf",
      "outputs": [
        {
          "internalType": "address",
          "name": "",
          "type": "address"
        }
      ],
      "stateMutability": "view",
      "type": "function",
      "constant": true
    },
    {
      "inputs": [],
      "name": "renounceOwnership",
      "outputs": [],
      "stateMutability": "nonpayable",
      "type": "function"
    },
    {
      "inputs": [
        {
          "internalType": "address",
          "name": "from",
          "type": "address"
        },
        {
          "internalType": "address",
          "name": "to",
          "type": "address"
        },
        {
          "internalType": "uint256",
          "name": "tokenId",
          "type": "uint256"
        }
      ],
      "name": "safeTransferFrom",
      "outputs": [],
      "stateMutability": "nonpayable",
      "type": "function"
    },
    {
      "inputs": [
        {
          "internalType": "address",
          "name": "from",
          "type": "address"
        },
        {
          "internalType": "address",
          "name": "to",
          "type": "address"
        },
        {
          "internalType": "uint256",
          "name": "tokenId",
          "type": "uint256"
        },
        {
          "internalType": "bytes",
          "name": "data",
          "type": "bytes"
        }
      ],
      "name": "safeTransferFrom",
      "outputs": [],
      "stateMutability": "nonpayable",
      "type": "function"
    },
    {
      "inputs": [
        {
          "internalType": "address",
          "name": "operator",
          "type": "address"
        },
        {
          "internalType": "bool",
          "name": "approved",
          "type": "bool"
        }
      ],
      "name": "setApprovalForAll",
      "outputs": [],
      "stateMutability": "nonpayable",
      "type": "function"
    },
    {
      "inputs": [],
      "name": "symbol",
      "outputs": [
        {
          "internalType": "string",
          "name": "",
          "type": "string"
        }
      ],
      "stateMutability": "view",
      "type": "function",
      "constant": true
    },
    {
      "inputs": [
        {
          "internalType": "uint256",
          "name": "index",
          "type": "uint256"
        }
      ],
      "name": "tokenByIndex",
      "outputs": [
        {
          "internalType": "uint256",
          "name": "",
          "type": "uint256"
        }
      ],
      "stateMutability": "view",
      "type": "function",
      "constant": true
    },
    {
      "inputs": [
        {
          "internalType": "address",
          "name": "owner",
          "type": "address"
        },
        {
          "internalType": "uint256",
          "name": "index",
          "type": "uint256"
        }
      ],
      "name": "tokenOfOwnerByIndex",
      "outputs": [
        {
          "internalType": "uint256",
          "name": "",
          "type": "uint256"
        }
      ],
      "stateMutability": "view",
      "type": "function",
      "constant": true
    },
    {
      "inputs": [],
      "name": "totalSupply",
      "outputs": [
        {
          "internalType": "uint256",
          "name": "",
          "type": "uint256"
        }
      ],
      "stateMutability": "view",
      "type": "function",
      "constant": true
    },
    {
      "inputs": [
        {
          "internalType": "address",
          "name": "from",
          "type": "address"
        },
        {
          "internalType": "address",
          "name": "to",
          "type": "address"
        },
        {
          "internalType": "uint256",
          "name": "tokenId",
          "type": "uint256"
        }
      ],
      "name": "transferFrom",
      "outputs": [],
      "stateMutability": "nonpayable",
      "type": "function"
    },
    {
      "inputs": [
        {
          "internalType": "address",
          "name": "newOwner",
          "type": "address"
        }
      ],
      "name": "transferOwnership",
      "outputs": [],
      "stateMutability": "nonpayable",
      "type": "function"
    },
    {
      "inputs": [],
      "name": "treasuryWallet",
      "outputs": [
        {
          "internalType": "address payable",
          "name": "",
          "type": "address"
        }
      ],
      "stateMutability": "view",
      "type": "function",
      "constant": true
    },
    {
      "inputs": [],
      "name": "mintMapleNFT",
      "outputs": [
        {
          "internalType": "uint256",
          "name": "",
          "type": "uint256"
        }
      ],
      "stateMutability": "payable",
      "type": "function",
      "payable": true
    },
    {
      "inputs": [
        {
          "internalType": "bytes4",
          "name": "interfaceId",
          "type": "bytes4"
        }
      ],
      "name": "supportsInterface",
      "outputs": [
        {
          "internalType": "bool",
          "name": "",
          "type": "bool"
        }
      ],
      "stateMutability": "view",
      "type": "function",
      "constant": true
    },
    {
      "inputs": [
        {
          "internalType": "uint256",
          "name": "_tokenId",
          "type": "uint256"
        }
      ],
      "name": "tokenURI",
      "outputs": [
        {
          "internalType": "string",
          "name": "",
          "type": "string"
        }
      ],
      "stateMutability": "view",
      "type": "function",
      "constant": true
    },
    {
      "inputs": [],
      "name": "withdraw",
      "outputs": [
        {
          "internalType": "uint256",
          "name": "",
          "type": "uint256"
        }
      ],
      "stateMutability": "nonpayable",
      "type": "function"
    }
  ],
  "bytecode": "0x6080604052670de0b6b3a7640000600d553480156200001d57600080fd5b50604051620048b3380380620048b38339818101604052810190620000439190620006ea565b6040518060400160405280600881526020017f4d61706c654e46540000000000000000000000000000000000000000000000008152506040518060400160405280600381526020017f4e46540000000000000000000000000000000000000000000000000000000000815250620000cf620000c3620001c460201b60201c565b620001cc60201b60201c565b8160019081620000e09190620009c6565b508060029081620000f29190620009c6565b50505083601060006101000a81548173ffffffffffffffffffffffffffffffffffffffff021916908373ffffffffffffffffffffffffffffffffffffffff1602179055506001600f81905550603260128190555062000157836200029060201b60201c565b5062000169826200032660201b60201c565b620001796200034b60201b60201c565b80600e60006101000a81548173ffffffffffffffffffffffffffffffffffffffff021916908373ffffffffffffffffffffffffffffffffffffffff1602179055505050505062000bac565b600033905090565b60008060009054906101000a900473ffffffffffffffffffffffffffffffffffffffff169050816000806101000a81548173ffffffffffffffffffffffffffffffffffffffff021916908373ffffffffffffffffffffffffffffffffffffffff1602179055508173ffffffffffffffffffffffffffffffffffffffff168173ffffffffffffffffffffffffffffffffffffffff167f8be0079c531659141344cd1fd0a4f28419497f9722a3daafe3b4186f6b6457e060405160405180910390a35050565b6000620002a2620003ae60201b60201c565b600073ffffffffffffffffffffffffffffffffffffffff168273ffffffffffffffffffffffffffffffffffffffff1603620002dc57600080fd5b81600c60006101000a81548173ffffffffffffffffffffffffffffffffffffffff021916908373ffffffffffffffffffffffffffffffffffffffff16021790555060019050919050565b62000336620003ae60201b60201c565b8060139081620003479190620009c6565b5050565b6200035b620003ae60201b60201c565b6000600190505b6012548111620003ab5760118190806001815401808255809150506001900390600052602060002001600090919091909150558080620003a29062000adc565b91505062000362565b50565b620003be620001c460201b60201c565b73ffffffffffffffffffffffffffffffffffffffff16620003e46200043f60201b60201c565b73ffffffffffffffffffffffffffffffffffffffff16146200043d576040517f08c379a0000000000000000000000000000000000000000000000000000000008152600401620004349062000b8a565b60405180910390fd5b565b60008060009054906101000a900473ffffffffffffffffffffffffffffffffffffffff16905090565b6000604051905090565b600080fd5b600080fd5b600073ffffffffffffffffffffffffffffffffffffffff82169050919050565b6000620004a9826200047c565b9050919050565b620004bb816200049c565b8114620004c757600080fd5b50565b600081519050620004db81620004b0565b92915050565b6000620004ee826200049c565b9050919050565b6200050081620004e1565b81146200050c57600080fd5b50565b6000815190506200052081620004f5565b92915050565b600080fd5b600080fd5b6000601f19601f8301169050919050565b7f4e487b7100000000000000000000000000000000000000000000000000000000600052604160045260246000fd5b6200057b8262000530565b810181811067ffffffffffffffff821117156200059d576200059c62000541565b5b80604052505050565b6000620005b262000468565b9050620005c0828262000570565b919050565b600067ffffffffffffffff821115620005e357620005e262000541565b5b620005ee8262000530565b9050602081019050919050565b60005b838110156200061b578082015181840152602081019050620005fe565b60008484015250505050565b60006200063e6200063884620005c5565b620005a6565b9050828152602081018484840111156200065d576200065c6200052b565b5b6200066a848285620005fb565b509392505050565b600082601f8301126200068a576200068962000526565b5b81516200069c84826020860162000627565b91505092915050565b6000620006b2826200047c565b9050919050565b620006c481620006a5565b8114620006d057600080fd5b50565b600081519050620006e481620006b9565b92915050565b6000806000806080858703121562000707576200070662000472565b5b60006200071787828801620004ca565b94505060206200072a878288016200050f565b935050604085015167ffffffffffffffff8111156200074e576200074d62000477565b5b6200075c8782880162000672565b92505060606200076f87828801620006d3565b91505092959194509250565b600081519050919050565b7f4e487b7100000000000000000000000000000000000000000000000000000000600052602260045260246000fd5b60006002820490506001821680620007ce57607f821691505b602082108103620007e457620007e362000786565b5b50919050565b60008190508160005260206000209050919050565b60006020601f8301049050919050565b600082821b905092915050565b6000600883026200084e7fffffffffffffffffffffffffffffffffffffffffffffffffffffffffffffffff826200080f565b6200085a86836200080f565b95508019841693508086168417925050509392505050565b6000819050919050565b6000819050919050565b6000620008a7620008a16200089b8462000872565b6200087c565b62000872565b9050919050565b6000819050919050565b620008c38362000886565b620008db620008d282620008ae565b8484546200081c565b825550505050565b600090565b620008f2620008e3565b620008ff818484620008b8565b505050565b5b8181101562000927576200091b600082620008e8565b60018101905062000905565b5050565b601f82111562000976576200094081620007ea565b6200094b84620007ff565b810160208510156200095b578190505b620009736200096a85620007ff565b83018262000904565b50505b505050565b600082821c905092915050565b60006200099b600019846008026200097b565b1980831691505092915050565b6000620009b6838362000988565b9150826002028217905092915050565b620009d1826200077b565b67ffffffffffffffff811115620009ed57620009ec62000541565b5b620009f98254620007b5565b62000a068282856200092b565b600060209050601f83116001811462000a3e576000841562000a29578287015190505b62000a358582620009a8565b86555062000aa5565b601f19841662000a4e86620007ea565b60005b8281101562000a785784890151825560018201915060208501945060208101905062000a51565b8683101562000a98578489015162000a94601f89168262000988565b8355505b6001600288020188555050505b505050505050565b7f4e487b7100000000000000000000000000000000000000000000000000000000600052601160045260246000fd5b600062000ae98262000872565b91507fffffffffffffffffffffffffffffffffffffffffffffffffffffffffffffffff820362000b1e5762000b1d62000aad565b5b600182019050919050565b600082825260208201905092915050565b7f4f776e61626c653a2063616c6c6572206973206e6f7420746865206f776e6572600082015250565b600062000b7260208362000b29565b915062000b7f8262000b3a565b602082019050919050565b6000602082019050818103600083015262000ba58162000b63565b9050919050565b613cf78062000bbc6000396000f3fe6080604052600436106101355760003560e01c80634f6ccce7116100ab57806395d89b411161006f57806395d89b411461042f578063a22cb4651461045a578063b88d4fde14610483578063c87b56dd146104ac578063e985e9c5146104e9578063f2fde38b1461052657610135565b80634f6ccce7146103365780636352211e1461037357806370a08231146103b0578063715018a6146103ed5780638da5cb5b1461040457610135565b806323b872dd116100fd57806323b872dd1461023357806325379b001461025c5780632f745c591461027a5780633ccfd60b146102b757806342842e0e146102e25780634626402b1461030b57610135565b806301ffc9a71461013a57806306fdde0314610177578063081812fc146101a2578063095ea7b3146101df57806318160ddd14610208575b600080fd5b34801561014657600080fd5b50610161600480360381019061015c919061282d565b61054f565b60405161016e9190612875565b60405180910390f35b34801561018357600080fd5b5061018c610561565b6040516101999190612920565b60405180910390f35b3480156101ae57600080fd5b506101c960048036038101906101c49190612978565b6105f3565b6040516101d691906129e6565b60405180910390f35b3480156101eb57600080fd5b5061020660048036038101906102019190612a2d565b610639565b005b34801561021457600080fd5b5061021d610750565b60405161022a9190612a7c565b60405180910390f35b34801561023f57600080fd5b5061025a60048036038101906102559190612a97565b61075d565b005b6102646107bd565b6040516102719190612a7c565b60405180910390f35b34801561028657600080fd5b506102a1600480360381019061029c9190612a2d565b610c66565b6040516102ae9190612a7c565b60405180910390f35b3480156102c357600080fd5b506102cc610d0b565b6040516102d99190612a7c565b60405180910390f35b3480156102ee57600080fd5b5061030960048036038101906103049190612a97565b610f00565b005b34801561031757600080fd5b50610320610f20565b60405161032d9190612b0b565b60405180910390f35b34801561034257600080fd5b5061035d60048036038101906103589190612978565b610f46565b60405161036a9190612a7c565b60405180910390f35b34801561037f57600080fd5b5061039a60048036038101906103959190612978565b610fb7565b6040516103a791906129e6565b60405180910390f35b3480156103bc57600080fd5b506103d760048036038101906103d29190612b26565b611068565b6040516103e49190612a7c565b60405180910390f35b3480156103f957600080fd5b5061040261111f565b005b34801561041057600080fd5b50610419611133565b60405161042691906129e6565b60405180910390f35b34801561043b57600080fd5b5061044461115c565b6040516104519190612920565b60405180910390f35b34801561046657600080fd5b50610481600480360381019061047c9190612b7f565b6111ee565b005b34801561048f57600080fd5b506104aa60048036038101906104a59190612cf4565b611204565b005b3480156104b857600080fd5b506104d360048036038101906104ce9190612978565b611266565b6040516104e09190612920565b60405180910390f35b3480156104f557600080fd5b50610510600480360381019061050b9190612d77565b611278565b60405161051d9190612875565b60405180910390f35b34801561053257600080fd5b5061054d60048036038101906105489190612b26565b61130c565b005b600061055a8261138f565b9050919050565b60606001805461057090612de6565b80601f016020809104026020016040519081016040528092919081815260200182805461059c90612de6565b80156105e95780601f106105be576101008083540402835291602001916105e9565b820191906000526020600020905b8154815290600101906020018083116105cc57829003601f168201915b5050505050905090565b60006105fe82611409565b6005600083815260200190815260200160002060009054906101000a900473ffffffffffffffffffffffffffffffffffffffff169050919050565b600061064482610fb7565b90508073ffffffffffffffffffffffffffffffffffffffff168373ffffffffffffffffffffffffffffffffffffffff16036106b4576040517f08c379a00000000000000000000000000000000000000000000000000000000081526004016106ab90612e89565b60405180910390fd5b8073ffffffffffffffffffffffffffffffffffffffff166106d3611454565b73ffffffffffffffffffffffffffffffffffffffff1614806107025750610701816106fc611454565b611278565b5b610741576040517f08c379a000000000000000000000000000000000000000000000000000000000815260040161073890612f1b565b60405180910390fd5b61074b838361145c565b505050565b6000600980549050905090565b61076e610768611454565b82611515565b6107ad576040517f08c379a00000000000000000000000000000000000000000000000000000000081526004016107a490612fad565b60405180910390fd5b6107b88383836115aa565b505050565b6000600f54600c60009054906101000a900473ffffffffffffffffffffffffffffffffffffffff1673ffffffffffffffffffffffffffffffffffffffff166370a08231336040518263ffffffff1660e01b815260040161081d91906129e6565b602060405180830381865afa15801561083a573d6000803e3d6000fd5b505050506040513d601f19601f8201168201806040525081019061085e9190612fe2565b101561089f576040517f08c379a000000000000000000000000000000000000000000000000000000000815260040161089690613081565b60405180910390fd5b6108a7610750565b60125410156108eb576040517f08c379a00000000000000000000000000000000000000000000000000000000081526004016108e2906130ed565b60405180910390fd5b6108f3611810565b600060116001601180549050610909919061313c565b8154811061091a57610919613170565b5b9060005260206000200154905060118054806109395761093861319f565b5b6001900381819060005260206000200160009055905561095933826118f0565b610986601060009054906101000a900473ffffffffffffffffffffffffffffffffffffffff1660016111ee565b6000600c60009054906101000a900473ffffffffffffffffffffffffffffffffffffffff1673ffffffffffffffffffffffffffffffffffffffff1663d83a2bf33330600d54600f546109d891906131ce565b6040518463ffffffff1660e01b81526004016109f693929190613210565b6020604051808303816000875af1158015610a15573d6000803e3d6000fd5b505050506040513d601f19601f82011682018060405250810190610a39919061325c565b905080610a7b576040517f08c379a0000000000000000000000000000000000000000000000000000000008152600401610a72906132d5565b60405180910390fd5b600c60009054906101000a900473ffffffffffffffffffffffffffffffffffffffff1673ffffffffffffffffffffffffffffffffffffffff166323b872dd33600e60009054906101000a900473ffffffffffffffffffffffffffffffffffffffff16600d54600f54610aed91906131ce565b6040518463ffffffff1660e01b8152600401610b0b93929190613354565b6020604051808303816000875af1158015610b2a573d6000803e3d6000fd5b505050506040513d601f19601f82011682018060405250810190610b4e919061325c565b50600c60009054906101000a900473ffffffffffffffffffffffffffffffffffffffff1673ffffffffffffffffffffffffffffffffffffffff16631d057bd9600e60009054906101000a900473ffffffffffffffffffffffffffffffffffffffff166002600d54600f54610bc291906131ce565b610bcc91906133ba565b6040518363ffffffff1660e01b8152600401610be99291906133eb565b600060405180830381600087803b158015610c0357600080fd5b505af1158015610c17573d6000803e3d6000fd5b505050507fe7cd4ce7f2a465edc730269a1305e8a48bad821e8fb7e152ec413829c01a53c43383610c4785611266565b604051610c5693929190613414565b60405180910390a1819250505090565b6000610c7183611068565b8210610cb2576040517f08c379a0000000000000000000000000000000000000000000000000000000008152600401610ca9906134c4565b60405180910390fd5b600760008473ffffffffffffffffffffffffffffffffffffffff1673ffffffffffffffffffffffffffffffffffffffff168152602001908152602001600020600083815260200190815260200160002054905092915050565b6000610d15611ac9565b6000600c60009054906101000a900473ffffffffffffffffffffffffffffffffffffffff1673ffffffffffffffffffffffffffffffffffffffff166370a08231306040518263ffffffff1660e01b8152600401610d7291906129e6565b602060405180830381865afa158015610d8f573d6000803e3d6000fd5b505050506040513d601f19601f82011682018060405250810190610db39190612fe2565b9050600c60009054906101000a900473ffffffffffffffffffffffffffffffffffffffff1673ffffffffffffffffffffffffffffffffffffffff1663095ea7b330836040518363ffffffff1660e01b8152600401610e129291906134e4565b6020604051808303816000875af1158015610e31573d6000803e3d6000fd5b505050506040513d601f19601f82011682018060405250810190610e55919061325c565b50600c60009054906101000a900473ffffffffffffffffffffffffffffffffffffffff1673ffffffffffffffffffffffffffffffffffffffff166323b872dd3033846040518463ffffffff1660e01b8152600401610eb593929190613210565b6020604051808303816000875af1158015610ed4573d6000803e3d6000fd5b505050506040513d601f19601f82011682018060405250810190610ef8919061325c565b508091505090565b610f1b83838360405180602001604052806000815250611204565b505050565b600e60009054906101000a900473ffffffffffffffffffffffffffffffffffffffff1681565b6000610f50610750565b8210610f91576040517f08c379a0000000000000000000000000000000000000000000000000000000008152600401610f889061357f565b60405180910390fd5b60098281548110610fa557610fa4613170565b5b90600052602060002001549050919050565b6000806003600084815260200190815260200160002060009054906101000a900473ffffffffffffffffffffffffffffffffffffffff169050600073ffffffffffffffffffffffffffffffffffffffff168173ffffffffffffffffffffffffffffffffffffffff160361105f576040517f08c379a0000000000000000000000000000000000000000000000000000000008152600401611056906135eb565b60405180910390fd5b80915050919050565b60008073ffffffffffffffffffffffffffffffffffffffff168273ffffffffffffffffffffffffffffffffffffffff16036110d8576040517f08c379a00000000000000000000000000000000000000000000000000000000081526004016110cf9061367d565b60405180910390fd5b600460008373ffffffffffffffffffffffffffffffffffffffff1673ffffffffffffffffffffffffffffffffffffffff168152602001908152602001600020549050919050565b611127611ac9565b6111316000611b47565b565b60008060009054906101000a900473ffffffffffffffffffffffffffffffffffffffff16905090565b60606002805461116b90612de6565b80601f016020809104026020016040519081016040528092919081815260200182805461119790612de6565b80156111e45780601f106111b9576101008083540402835291602001916111e4565b820191906000526020600020905b8154815290600101906020018083116111c757829003601f168201915b5050505050905090565b6112006111f9611454565b8383611c0b565b5050565b61121561120f611454565b83611515565b611254576040517f08c379a000000000000000000000000000000000000000000000000000000000815260040161124b90612fad565b60405180910390fd5b61126084848484611d77565b50505050565b606061127182611dd3565b9050919050565b6000600660008473ffffffffffffffffffffffffffffffffffffffff1673ffffffffffffffffffffffffffffffffffffffff16815260200190815260200160002060008373ffffffffffffffffffffffffffffffffffffffff1673ffffffffffffffffffffffffffffffffffffffff16815260200190815260200160002060009054906101000a900460ff16905092915050565b611314611ac9565b600073ffffffffffffffffffffffffffffffffffffffff168173ffffffffffffffffffffffffffffffffffffffff1603611383576040517f08c379a000000000000000000000000000000000000000000000000000000000815260040161137a9061370f565b60405180910390fd5b61138c81611b47565b50565b60007f780e9d63000000000000000000000000000000000000000000000000000000007bffffffffffffffffffffffffffffffffffffffffffffffffffffffff1916827bffffffffffffffffffffffffffffffffffffffffffffffffffffffff19161480611402575061140182611e3b565b5b9050919050565b61141281611f1d565b611451576040517f08c379a0000000000000000000000000000000000000000000000000000000008152600401611448906135eb565b60405180910390fd5b50565b600033905090565b816005600083815260200190815260200160002060006101000a81548173ffffffffffffffffffffffffffffffffffffffff021916908373ffffffffffffffffffffffffffffffffffffffff160217905550808273ffffffffffffffffffffffffffffffffffffffff166114cf83610fb7565b73ffffffffffffffffffffffffffffffffffffffff167f8c5be1e5ebec7d5bd14f71427d1e84f3dd0314c0f7b2291e5b200ac8c7c3b92560405160405180910390a45050565b60008061152183610fb7565b90508073ffffffffffffffffffffffffffffffffffffffff168473ffffffffffffffffffffffffffffffffffffffff16148061156357506115628185611278565b5b806115a157508373ffffffffffffffffffffffffffffffffffffffff16611589846105f3565b73ffffffffffffffffffffffffffffffffffffffff16145b91505092915050565b8273ffffffffffffffffffffffffffffffffffffffff166115ca82610fb7565b73ffffffffffffffffffffffffffffffffffffffff1614611620576040517f08c379a0000000000000000000000000000000000000000000000000000000008152600401611617906137a1565b60405180910390fd5b600073ffffffffffffffffffffffffffffffffffffffff168273ffffffffffffffffffffffffffffffffffffffff160361168f576040517f08c379a000000000000000000000000000000000000000000000000000000000815260040161168690613833565b60405180910390fd5b61169a838383611f89565b6116a560008261145c565b6001600460008573ffffffffffffffffffffffffffffffffffffffff1673ffffffffffffffffffffffffffffffffffffffff16815260200190815260200160002060008282546116f5919061313c565b925050819055506001600460008473ffffffffffffffffffffffffffffffffffffffff1673ffffffffffffffffffffffffffffffffffffffff168152602001908152602001600020600082825461174c9190613853565b92505081905550816003600083815260200190815260200160002060006101000a81548173ffffffffffffffffffffffffffffffffffffffff021916908373ffffffffffffffffffffffffffffffffffffffff160217905550808273ffffffffffffffffffffffffffffffffffffffff168473ffffffffffffffffffffffffffffffffffffffff167fddf252ad1be2c89b69c2b068fc378daa952ba7f163c4a11628f55a4df523b3ef60405160405180910390a461180b838383611f99565b505050565b60006001601180549050611824919061313c565b905060006011805490504260405160200161183f91906138a8565b6040516020818303038152906040528051906020012060001c61186291906138c3565b905060006011828154811061187a57611879613170565b5b906000526020600020015490506011838154811061189b5761189a613170565b5b9060005260206000200154601183815481106118ba576118b9613170565b5b906000526020600020018190555080601184815481106118dd576118dc613170565b5b9060005260206000200181905550505050565b600073ffffffffffffffffffffffffffffffffffffffff168273ffffffffffffffffffffffffffffffffffffffff160361195f576040517f08c379a000000000000000000000000000000000000000000000000000000000815260040161195690613940565b60405180910390fd5b61196881611f1d565b156119a8576040517f08c379a000000000000000000000000000000000000000000000000000000000815260040161199f906139ac565b60405180910390fd5b6119b460008383611f89565b6001600460008473ffffffffffffffffffffffffffffffffffffffff1673ffffffffffffffffffffffffffffffffffffffff1681526020019081526020016000206000828254611a049190613853565b92505081905550816003600083815260200190815260200160002060006101000a81548173ffffffffffffffffffffffffffffffffffffffff021916908373ffffffffffffffffffffffffffffffffffffffff160217905550808273ffffffffffffffffffffffffffffffffffffffff16600073ffffffffffffffffffffffffffffffffffffffff167fddf252ad1be2c89b69c2b068fc378daa952ba7f163c4a11628f55a4df523b3ef60405160405180910390a4611ac560008383611f99565b5050565b611ad1611454565b73ffffffffffffffffffffffffffffffffffffffff16611aef611133565b73ffffffffffffffffffffffffffffffffffffffff1614611b45576040517f08c379a0000000000000000000000000000000000000000000000000000000008152600401611b3c90613a18565b60405180910390fd5b565b60008060009054906101000a900473ffffffffffffffffffffffffffffffffffffffff169050816000806101000a81548173ffffffffffffffffffffffffffffffffffffffff021916908373ffffffffffffffffffffffffffffffffffffffff1602179055508173ffffffffffffffffffffffffffffffffffffffff168173ffffffffffffffffffffffffffffffffffffffff167f8be0079c531659141344cd1fd0a4f28419497f9722a3daafe3b4186f6b6457e060405160405180910390a35050565b8173ffffffffffffffffffffffffffffffffffffffff168373ffffffffffffffffffffffffffffffffffffffff1603611c79576040517f08c379a0000000000000000000000000000000000000000000000000000000008152600401611c7090613a84565b60405180910390fd5b80600660008573ffffffffffffffffffffffffffffffffffffffff1673ffffffffffffffffffffffffffffffffffffffff16815260200190815260200160002060008473ffffffffffffffffffffffffffffffffffffffff1673ffffffffffffffffffffffffffffffffffffffff16815260200190815260200160002060006101000a81548160ff0219169083151502179055508173ffffffffffffffffffffffffffffffffffffffff168373ffffffffffffffffffffffffffffffffffffffff167f17307eab39ab6107e8899845ad3d59bd9653f200f220920489ca2b5937696c3183604051611d6a9190612875565b60405180910390a3505050565b611d828484846115aa565b611d8e84848484611f9e565b611dcd576040517f08c379a0000000000000000000000000000000000000000000000000000000008152600401611dc490613b16565b60405180910390fd5b50505050565b6060611dde82611409565b6000611de8612125565b90506000815111611e085760405180602001604052806000815250611e33565b80611e12846121b7565b604051602001611e23929190613b72565b6040516020818303038152906040525b915050919050565b60007f80ac58cd000000000000000000000000000000000000000000000000000000007bffffffffffffffffffffffffffffffffffffffffffffffffffffffff1916827bffffffffffffffffffffffffffffffffffffffffffffffffffffffff19161480611f0657507f5b5e139f000000000000000000000000000000000000000000000000000000007bffffffffffffffffffffffffffffffffffffffffffffffffffffffff1916827bffffffffffffffffffffffffffffffffffffffffffffffffffffffff1916145b80611f165750611f1582612317565b5b9050919050565b60008073ffffffffffffffffffffffffffffffffffffffff166003600084815260200190815260200160002060009054906101000a900473ffffffffffffffffffffffffffffffffffffffff1673ffffffffffffffffffffffffffffffffffffffff1614159050919050565b611f94838383612381565b505050565b505050565b6000611fbf8473ffffffffffffffffffffffffffffffffffffffff16612493565b15612118578373ffffffffffffffffffffffffffffffffffffffff1663150b7a02611fe8611454565b8786866040518563ffffffff1660e01b815260040161200a9493929190613beb565b6020604051808303816000875af192505050801561204657506040513d601f19601f820116820180604052508101906120439190613c4c565b60015b6120c8573d8060008114612076576040519150601f19603f3d011682016040523d82523d6000602084013e61207b565b606091505b5060008151036120c0576040517f08c379a00000000000000000000000000000000000000000000000000000000081526004016120b790613b16565b60405180910390fd5b805181602001fd5b63150b7a0260e01b7bffffffffffffffffffffffffffffffffffffffffffffffffffffffff1916817bffffffffffffffffffffffffffffffffffffffffffffffffffffffff19161491505061211d565b600190505b949350505050565b60606013805461213490612de6565b80601f016020809104026020016040519081016040528092919081815260200182805461216090612de6565b80156121ad5780601f10612182576101008083540402835291602001916121ad565b820191906000526020600020905b81548152906001019060200180831161219057829003601f168201915b5050505050905090565b6060600082036121fe576040518060400160405280600181526020017f30000000000000000000000000000000000000000000000000000000000000008152509050612312565b600082905060005b6000821461223057808061221990613c79565b915050600a8261222991906133ba565b9150612206565b60008167ffffffffffffffff81111561224c5761224b612bc9565b5b6040519080825280601f01601f19166020018201604052801561227e5781602001600182028036833780820191505090505b5090505b6000851461230b57600182612297919061313c565b9150600a856122a691906138c3565b60306122b29190613853565b60f81b8183815181106122c8576122c7613170565b5b60200101907effffffffffffffffffffffffffffffffffffffffffffffffffffffffffffff1916908160001a905350600a8561230491906133ba565b9450612282565b8093505050505b919050565b60007f01ffc9a7000000000000000000000000000000000000000000000000000000007bffffffffffffffffffffffffffffffffffffffffffffffffffffffff1916827bffffffffffffffffffffffffffffffffffffffffffffffffffffffff1916149050919050565b61238c8383836124b6565b600073ffffffffffffffffffffffffffffffffffffffff168373ffffffffffffffffffffffffffffffffffffffff16036123ce576123c9816124bb565b61240d565b8173ffffffffffffffffffffffffffffffffffffffff168373ffffffffffffffffffffffffffffffffffffffff161461240c5761240b8382612504565b5b5b600073ffffffffffffffffffffffffffffffffffffffff168273ffffffffffffffffffffffffffffffffffffffff160361244f5761244a81612671565b61248e565b8273ffffffffffffffffffffffffffffffffffffffff168273ffffffffffffffffffffffffffffffffffffffff161461248d5761248c8282612742565b5b5b505050565b6000808273ffffffffffffffffffffffffffffffffffffffff163b119050919050565b505050565b600980549050600a600083815260200190815260200160002081905550600981908060018154018082558091505060019003906000526020600020016000909190919091505550565b6000600161251184611068565b61251b919061313c565b9050600060086000848152602001908152602001600020549050818114612600576000600760008673ffffffffffffffffffffffffffffffffffffffff1673ffffffffffffffffffffffffffffffffffffffff168152602001908152602001600020600084815260200190815260200160002054905080600760008773ffffffffffffffffffffffffffffffffffffffff1673ffffffffffffffffffffffffffffffffffffffff168152602001908152602001600020600084815260200190815260200160002081905550816008600083815260200190815260200160002081905550505b6008600084815260200190815260200160002060009055600760008573ffffffffffffffffffffffffffffffffffffffff1673ffffffffffffffffffffffffffffffffffffffff16815260200190815260200160002060008381526020019081526020016000206000905550505050565b60006001600980549050612685919061313c565b90506000600a60008481526020019081526020016000205490506000600983815481106126b5576126b4613170565b5b9060005260206000200154905080600983815481106126d7576126d6613170565b5b906000526020600020018190555081600a600083815260200190815260200160002081905550600a60008581526020019081526020016000206000905560098054806127265761272561319f565b5b6001900381819060005260206000200160009055905550505050565b600061274d83611068565b905081600760008573ffffffffffffffffffffffffffffffffffffffff1673ffffffffffffffffffffffffffffffffffffffff168152602001908152602001600020600083815260200190815260200160002081905550806008600084815260200190815260200160002081905550505050565b6000604051905090565b600080fd5b600080fd5b60007fffffffff0000000000000000000000000000000000000000000000000000000082169050919050565b61280a816127d5565b811461281557600080fd5b50565b60008135905061282781612801565b92915050565b600060208284031215612843576128426127cb565b5b600061285184828501612818565b91505092915050565b60008115159050919050565b61286f8161285a565b82525050565b600060208201905061288a6000830184612866565b92915050565b600081519050919050565b600082825260208201905092915050565b60005b838110156128ca5780820151818401526020810190506128af565b60008484015250505050565b6000601f19601f8301169050919050565b60006128f282612890565b6128fc818561289b565b935061290c8185602086016128ac565b612915816128d6565b840191505092915050565b6000602082019050818103600083015261293a81846128e7565b905092915050565b6000819050919050565b61295581612942565b811461296057600080fd5b50565b6000813590506129728161294c565b92915050565b60006020828403121561298e5761298d6127cb565b5b600061299c84828501612963565b91505092915050565b600073ffffffffffffffffffffffffffffffffffffffff82169050919050565b60006129d0826129a5565b9050919050565b6129e0816129c5565b82525050565b60006020820190506129fb60008301846129d7565b92915050565b612a0a816129c5565b8114612a1557600080fd5b50565b600081359050612a2781612a01565b92915050565b60008060408385031215612a4457612a436127cb565b5b6000612a5285828601612a18565b9250506020612a6385828601612963565b9150509250929050565b612a7681612942565b82525050565b6000602082019050612a916000830184612a6d565b92915050565b600080600060608486031215612ab057612aaf6127cb565b5b6000612abe86828701612a18565b9350506020612acf86828701612a18565b9250506040612ae086828701612963565b9150509250925092565b6000612af5826129a5565b9050919050565b612b0581612aea565b82525050565b6000602082019050612b206000830184612afc565b92915050565b600060208284031215612b3c57612b3b6127cb565b5b6000612b4a84828501612a18565b91505092915050565b612b5c8161285a565b8114612b6757600080fd5b50565b600081359050612b7981612b53565b92915050565b60008060408385031215612b9657612b956127cb565b5b6000612ba485828601612a18565b9250506020612bb585828601612b6a565b9150509250929050565b600080fd5b600080fd5b7f4e487b7100000000000000000000000000000000000000000000000000000000600052604160045260246000fd5b612c01826128d6565b810181811067ffffffffffffffff82111715612c2057612c1f612bc9565b5b80604052505050565b6000612c336127c1565b9050612c3f8282612bf8565b919050565b600067ffffffffffffffff821115612c5f57612c5e612bc9565b5b612c68826128d6565b9050602081019050919050565b82818337600083830152505050565b6000612c97612c9284612c44565b612c29565b905082815260208101848484011115612cb357612cb2612bc4565b5b612cbe848285612c75565b509392505050565b600082601f830112612cdb57612cda612bbf565b5b8135612ceb848260208601612c84565b91505092915050565b60008060008060808587031215612d0e57612d0d6127cb565b5b6000612d1c87828801612a18565b9450506020612d2d87828801612a18565b9350506040612d3e87828801612963565b925050606085013567ffffffffffffffff811115612d5f57612d5e6127d0565b5b612d6b87828801612cc6565b91505092959194509250565b60008060408385031215612d8e57612d8d6127cb565b5b6000612d9c85828601612a18565b9250506020612dad85828601612a18565b9150509250929050565b7f4e487b7100000000000000000000000000000000000000000000000000000000600052602260045260246000fd5b60006002820490506001821680612dfe57607f821691505b602082108103612e1157612e10612db7565b5b50919050565b7f4552433732313a20617070726f76616c20746f2063757272656e74206f776e6560008201527f7200000000000000000000000000000000000000000000000000000000000000602082015250565b6000612e7360218361289b565b9150612e7e82612e17565b604082019050919050565b60006020820190508181036000830152612ea281612e66565b9050919050565b7f4552433732313a20617070726f76652063616c6c6572206973206e6f7420746f60008201527f6b656e206f776e6572206e6f7220617070726f76656420666f7220616c6c0000602082015250565b6000612f05603e8361289b565b9150612f1082612ea9565b604082019050919050565b60006020820190508181036000830152612f3481612ef8565b9050919050565b7f4552433732313a2063616c6c6572206973206e6f7420746f6b656e206f776e6560008201527f72206e6f7220617070726f766564000000000000000000000000000000000000602082015250565b6000612f97602e8361289b565b9150612fa282612f3b565b604082019050919050565b60006020820190508181036000830152612fc681612f8a565b9050919050565b600081519050612fdc8161294c565b92915050565b600060208284031215612ff857612ff76127cb565b5b600061300684828501612fcd565b91505092915050565b7f4552433732313a20726563697069656e74206c61636b206f662065726332302060008201527f62616c616e636500000000000000000000000000000000000000000000000000602082015250565b600061306b60278361289b565b91506130768261300f565b604082019050919050565b6000602082019050818103600083015261309a8161305e565b9050919050565b7f4552433732313a20616c6c206e66747320617265206d696e7465640000000000600082015250565b60006130d7601b8361289b565b91506130e2826130a1565b602082019050919050565b60006020820190508181036000830152613106816130ca565b9050919050565b7f4e487b7100000000000000000000000000000000000000000000000000000000600052601160045260246000fd5b600061314782612942565b915061315283612942565b925082820390508181111561316a5761316961310d565b5b92915050565b7f4e487b7100000000000000000000000000000000000000000000000000000000600052603260045260246000fd5b7f4e487b7100000000000000000000000000000000000000000000000000000000600052603160045260246000fd5b60006131d982612942565b91506131e483612942565b92508282026131f281612942565b915082820484148315176132095761320861310d565b5b5092915050565b600060608201905061322560008301866129d7565b61323260208301856129d7565b61323f6040830184612a6d565b949350505050565b60008151905061325681612b53565b92915050565b600060208284031215613272576132716127cb565b5b600061328084828501613247565b91505092915050565b7f496e637265617365436f6e7472616374204661696c0000000000000000000000600082015250565b60006132bf60158361289b565b91506132ca82613289565b602082019050919050565b600060208201905081810360008301526132ee816132b2565b9050919050565b6000819050919050565b600061331a613315613310846129a5565b6132f5565b6129a5565b9050919050565b600061332c826132ff565b9050919050565b600061333e82613321565b9050919050565b61334e81613333565b82525050565b600060608201905061336960008301866129d7565b6133766020830185613345565b6133836040830184612a6d565b949350505050565b7f4e487b7100000000000000000000000000000000000000000000000000000000600052601260045260246000fd5b60006133c582612942565b91506133d083612942565b9250826133e0576133df61338b565b5b828204905092915050565b60006040820190506134006000830185613345565b61340d6020830184612a6d565b9392505050565b600060608201905061342960008301866129d7565b6134366020830185612a6d565b818103604083015261344881846128e7565b9050949350505050565b7f455243373231456e756d657261626c653a206f776e657220696e646578206f7560008201527f74206f6620626f756e6473000000000000000000000000000000000000000000602082015250565b60006134ae602b8361289b565b91506134b982613452565b604082019050919050565b600060208201905081810360008301526134dd816134a1565b9050919050565b60006040820190506134f960008301856129d7565b6135066020830184612a6d565b9392505050565b7f455243373231456e756d657261626c653a20676c6f62616c20696e646578206f60008201527f7574206f6620626f756e64730000000000000000000000000000000000000000602082015250565b6000613569602c8361289b565b91506135748261350d565b604082019050919050565b600060208201905081810360008301526135988161355c565b9050919050565b7f4552433732313a20696e76616c696420746f6b656e2049440000000000000000600082015250565b60006135d560188361289b565b91506135e08261359f565b602082019050919050565b60006020820190508181036000830152613604816135c8565b9050919050565b7f4552433732313a2061646472657373207a65726f206973206e6f74206120766160008201527f6c6964206f776e65720000000000000000000000000000000000000000000000602082015250565b600061366760298361289b565b91506136728261360b565b604082019050919050565b600060208201905081810360008301526136968161365a565b9050919050565b7f4f776e61626c653a206e6577206f776e657220697320746865207a65726f206160008201527f6464726573730000000000000000000000000000000000000000000000000000602082015250565b60006136f960268361289b565b91506137048261369d565b604082019050919050565b60006020820190508181036000830152613728816136ec565b9050919050565b7f4552433732313a207472616e736665722066726f6d20696e636f72726563742060008201527f6f776e6572000000000000000000000000000000000000000000000000000000602082015250565b600061378b60258361289b565b91506137968261372f565b604082019050919050565b600060208201905081810360008301526137ba8161377e565b9050919050565b7f4552433732313a207472616e7366657220746f20746865207a65726f2061646460008201527f7265737300000000000000000000000000000000000000000000000000000000602082015250565b600061381d60248361289b565b9150613828826137c1565b604082019050919050565b6000602082019050818103600083015261384c81613810565b9050919050565b600061385e82612942565b915061386983612942565b92508282019050808211156138815761388061310d565b5b92915050565b6000819050919050565b6138a261389d82612942565b613887565b82525050565b60006138b48284613891565b60208201915081905092915050565b60006138ce82612942565b91506138d983612942565b9250826138e9576138e861338b565b5b828206905092915050565b7f4552433732313a206d696e7420746f20746865207a65726f2061646472657373600082015250565b600061392a60208361289b565b9150613935826138f4565b602082019050919050565b600060208201905081810360008301526139598161391d565b9050919050565b7f4552433732313a20746f6b656e20616c7265616479206d696e74656400000000600082015250565b6000613996601c8361289b565b91506139a182613960565b602082019050919050565b600060208201905081810360008301526139c581613989565b9050919050565b7f4f776e61626c653a2063616c6c6572206973206e6f7420746865206f776e6572600082015250565b6000613a0260208361289b565b9150613a0d826139cc565b602082019050919050565b60006020820190508181036000830152613a31816139f5565b9050919050565b7f4552433732313a20617070726f766520746f2063616c6c657200000000000000600082015250565b6000613a6e60198361289b565b9150613a7982613a38565b602082019050919050565b60006020820190508181036000830152613a9d81613a61565b9050919050565b7f4552433732313a207472616e7366657220746f206e6f6e20455243373231526560008201527f63656976657220696d706c656d656e7465720000000000000000000000000000602082015250565b6000613b0060328361289b565b9150613b0b82613aa4565b604082019050919050565b60006020820190508181036000830152613b2f81613af3565b9050919050565b600081905092915050565b6000613b4c82612890565b613b568185613b36565b9350613b668185602086016128ac565b80840191505092915050565b6000613b7e8285613b41565b9150613b8a8284613b41565b91508190509392505050565b600081519050919050565b600082825260208201905092915050565b6000613bbd82613b96565b613bc78185613ba1565b9350613bd78185602086016128ac565b613be0816128d6565b840191505092915050565b6000608082019050613c0060008301876129d7565b613c0d60208301866129d7565b613c1a6040830185612a6d565b8181036060830152613c2c8184613bb2565b905095945050505050565b600081519050613c4681612801565b92915050565b600060208284031215613c6257613c616127cb565b5b6000613c7084828501613c37565b91505092915050565b6000613c8482612942565b91507fffffffffffffffffffffffffffffffffffffffffffffffffffffffffffffffff8203613cb657613cb561310d565b5b60018201905091905056fea26469706673582212206c8f84455dcdaff0c21cf68ea11986cb2f0018f436a925c24cae1d2f84427b3164736f6c63430008110033",
  "immutableReferences": {},
  "source": "// SPDX-License-Identifier: MIT\npragma solidity ^0.8.0;\nimport \"@openzeppelin/contracts/token/ERC721/ERC721.sol\";\nimport \"@openzeppelin/contracts/utils/Counters.sol\";\nimport \"@openzeppelin/contracts/access/Ownable.sol\";\nimport \"@openzeppelin/contracts/token/ERC721/extensions/ERC721Enumerable.sol\";\nimport \"./interfaces/ERC20Interface.sol\";\nimport \"./JMToken.sol\";\n\ncontract MapleNFT is Ownable, ERC721Enumerable {\n    using Counters for Counters.Counter;\n    Counters.Counter private _tokenIds;\n\n    JMToken private token;\n    uint256 decimals = 10**18;\n    address payable public treasuryWallet; //  !\n    uint256 private mintPrice;\n    address private marketContractAddress;\n    uint256[] private waitForMint;\n    uint256 private maxTokenNum;\n    string private baseURIextended;\n    \n\n    event Minted(address addr, uint256 tokenId, string tokenURI);\n\n    constructor(\n        address _marketAddress,\n        JMToken _tokenContractAddress, \n        string memory _MapleBaseURI, \n        address payable _treasuryWallet)  ERC721(\"MapleNFT\", \"NFT\") {\n\n        marketContractAddress = _marketAddress;\n        mintPrice = 1;\n        maxTokenNum = 50; // TODO: change to 10000 on live environment\n        _setToken(_tokenContractAddress);\n        _setBaseURI(_MapleBaseURI);\n        _generateMintArray();\n        treasuryWallet = _treasuryWallet;\n    }\n\n    function _generateMintArray() private onlyOwner {\n        for (uint256 i = 1; i <= maxTokenNum; i++) {\n            waitForMint.push(i);\n        }\n    }\n    \n    //   \n    function mintMapleNFT() public payable returns (uint256)  {\n        require(token.balanceOf(msg.sender) >= mintPrice, \"ERC721: recipient lack of erc20 balance\");\n        require(maxTokenNum >= totalSupply(), \"ERC721: all nfts are minted\");\n        \n        _shuffleMintArray();\n        uint256 minted = waitForMint[waitForMint.length - 1];\n        waitForMint.pop();\n\n        _mint(msg.sender, minted);\n        setApprovalForAll(marketContractAddress, true); // grant transaction permission to market\n\n        //   \n        bool success = token.increaseContractAllowance(\n            msg.sender, \n            address(this),\n            mintPrice * decimals\n        );\n        require(success,\"IncreaseContract Fail\");\n        token.transferFrom(msg.sender, treasuryWallet, mintPrice * decimals); \n        token.marketBurn(treasuryWallet, (mintPrice * decimals)/2);\n\n        emit Minted(msg.sender, minted, tokenURI(minted));\n\n        return minted;\n    }\n\n    function _shuffleMintArray() private {\n        uint256 i = waitForMint.length - 1;\n        /*\n         * IMPORTANT:   block.timestamp  chainlink     .\n         */\n        uint256 n = uint256(keccak256(abi.encodePacked(block.timestamp))) % (waitForMint.length);\n        uint256 temp = waitForMint[n];\n        waitForMint[n] = waitForMint[i];\n        waitForMint[i] = temp;\n    }\n\n    function _setBaseURI(string memory _MapleBaseURI) private onlyOwner {\n        baseURIextended = _MapleBaseURI;\n    }\n\n    function _baseURI() internal view virtual override returns (string memory) {\n        return baseURIextended;\n    }\n\n    function _beforeTokenTransfer(\n        address from,\n        address to,\n        uint256 tokenId\n    ) internal override {\n        super._beforeTokenTransfer(from, to, tokenId);\n    }\n\n    function _burn(\n        uint256 _tokenId\n    ) internal override {\n        super._burn(_tokenId);\n    }\n\n    function supportsInterface(bytes4 interfaceId) public view override returns (bool) {\n        return super.supportsInterface(interfaceId);\n    }\n\n    function tokenURI(\n        uint256 _tokenId\n    ) public view override returns (string memory) {\n        return super.tokenURI(_tokenId);\n    }\n\n    function _setToken(JMToken jmtoken) private onlyOwner returns (bool) {\n        require(address(jmtoken) != address(0x0));\n        token = jmtoken;\n        return true;\n    }\n\n    function withdraw() external onlyOwner returns (uint256) {\n        uint256 totalValue = token.balanceOf(address(this));\n        token.approve(address(this), totalValue);\n        token.transferFrom(address(this), msg.sender, totalValue);\n        return totalValue;\n    }\n}\n",
  "sourcePath": "/Users/king/BEB-05-JMT/contract/contracts/MapleNFT.sol",
  "compiler": {
    "name": "solc",
    "version": "0.8.17+commit.8df45f5f.Emscripten.clang"
  },
  "schemaVersion": "3.4.9",
  "updatedAt": "2022-09-18T17:14:29.326Z",
  "networkType": "ethereum",
  "devdoc": {
    "kind": "dev",
    "methods": {
      "approve(address,uint256)": {
        "details": "See {IERC721-approve}."
      },
      "balanceOf(address)": {
        "details": "See {IERC721-balanceOf}."
      },
      "getApproved(uint256)": {
        "details": "See {IERC721-getApproved}."
      },
      "isApprovedForAll(address,address)": {
        "details": "See {IERC721-isApprovedForAll}."
      },
      "name()": {
        "details": "See {IERC721Metadata-name}."
      },
      "owner()": {
        "details": "Returns the address of the current owner."
      },
      "ownerOf(uint256)": {
        "details": "See {IERC721-ownerOf}."
      },
      "renounceOwnership()": {
        "details": "Leaves the contract without owner. It will not be possible to call `onlyOwner` functions anymore. Can only be called by the current owner. NOTE: Renouncing ownership will leave the contract without an owner, thereby removing any functionality that is only available to the owner."
      },
      "safeTransferFrom(address,address,uint256)": {
        "details": "See {IERC721-safeTransferFrom}."
      },
      "safeTransferFrom(address,address,uint256,bytes)": {
        "details": "See {IERC721-safeTransferFrom}."
      },
      "setApprovalForAll(address,bool)": {
        "details": "See {IERC721-setApprovalForAll}."
      },
      "supportsInterface(bytes4)": {
        "details": "See {IERC165-supportsInterface}."
      },
      "symbol()": {
        "details": "See {IERC721Metadata-symbol}."
      },
      "tokenByIndex(uint256)": {
        "details": "See {IERC721Enumerable-tokenByIndex}."
      },
      "tokenOfOwnerByIndex(address,uint256)": {
        "details": "See {IERC721Enumerable-tokenOfOwnerByIndex}."
      },
      "totalSupply()": {
        "details": "See {IERC721Enumerable-totalSupply}."
      },
      "transferFrom(address,address,uint256)": {
        "details": "See {IERC721-transferFrom}."
      },
      "transferOwnership(address)": {
        "details": "Transfers ownership of the contract to a new account (`newOwner`). Can only be called by the current owner."
      }
    },
    "version": 1
  },
  "userdoc": {
    "kind": "user",
    "methods": {},
    "version": 1
  }
}