{
  "contractName": "MapleUser",
  "abi": [
    {
      "inputs": [
        {
          "internalType": "address",
          "name": "_tokenContractAddress",
          "type": "address"
        },
        {
          "internalType": "address",
          "name": "_nftContractAddress",
          "type": "address"
        },
        {
          "internalType": "address",
          "name": "_itemContractAddress",
          "type": "address"
        },
        {
          "internalType": "address payable",
          "name": "_treasuryWallet",
          "type": "address"
        }
      ],
      "stateMutability": "nonpayable",
      "type": "constructor"
    },
    {
      "anonymous": false,
      "inputs": [
        {
          "indexed": true,
          "internalType": "address",
          "name": "previousOwner",
          "type": "address"
        },
        {
          "indexed": true,
          "internalType": "address",
          "name": "newOwner",
          "type": "address"
        }
      ],
      "name": "OwnershipTransferred",
      "type": "event"
    },
    {
      "anonymous": false,
      "inputs": [
        {
          "indexed": false,
          "internalType": "uint256",
          "name": "charId",
          "type": "uint256"
        },
        {
          "indexed": false,
          "internalType": "uint256",
          "name": "weaponId",
          "type": "uint256"
        },
        {
          "indexed": false,
          "internalType": "uint256",
          "name": "userId",
          "type": "uint256"
        },
        {
          "indexed": false,
          "internalType": "address",
          "name": "user",
          "type": "address"
        }
      ],
      "name": "UserCreated",
      "type": "event"
    },
    {
      "anonymous": false,
      "inputs": [
        {
          "indexed": false,
          "internalType": "uint256",
          "name": "charId",
          "type": "uint256"
        },
        {
          "indexed": false,
          "internalType": "uint256",
          "name": "weaponId",
          "type": "uint256"
        },
        {
          "indexed": false,
          "internalType": "uint256",
          "name": "userId",
          "type": "uint256"
        },
        {
          "indexed": false,
          "internalType": "address",
          "name": "user",
          "type": "address"
        }
      ],
      "name": "UserDeleated",
      "type": "event"
    },
    {
      "anonymous": false,
      "inputs": [
        {
          "indexed": false,
          "internalType": "uint256",
          "name": "charId",
          "type": "uint256"
        },
        {
          "indexed": false,
          "internalType": "uint256",
          "name": "weaponId",
          "type": "uint256"
        },
        {
          "indexed": false,
          "internalType": "uint256",
          "name": "userId",
          "type": "uint256"
        },
        {
          "indexed": false,
          "internalType": "address",
          "name": "user",
          "type": "address"
        }
      ],
      "name": "UserMatching",
      "type": "event"
    },
    {
      "anonymous": false,
      "inputs": [
        {
          "indexed": false,
          "internalType": "uint256",
          "name": "charId",
          "type": "uint256"
        },
        {
          "indexed": false,
          "internalType": "uint256",
          "name": "weaponId",
          "type": "uint256"
        },
        {
          "indexed": false,
          "internalType": "uint256",
          "name": "userId",
          "type": "uint256"
        },
        {
          "indexed": false,
          "internalType": "address",
          "name": "user",
          "type": "address"
        }
      ],
      "name": "UserUpdated",
      "type": "event"
    },
    {
      "anonymous": false,
      "inputs": [
        {
          "indexed": false,
          "internalType": "uint256",
          "name": "reward",
          "type": "uint256"
        },
        {
          "indexed": false,
          "internalType": "address",
          "name": "user",
          "type": "address"
        }
      ],
      "name": "rewardTransferred",
      "type": "event"
    },
    {
      "inputs": [],
      "name": "owner",
      "outputs": [
        {
          "internalType": "address",
          "name": "",
          "type": "address"
        }
      ],
      "stateMutability": "view",
      "type": "function",
      "constant": true
    },
    {
      "inputs": [],
      "name": "renounceOwnership",
      "outputs": [],
      "stateMutability": "nonpayable",
      "type": "function"
    },
    {
      "inputs": [
        {
          "internalType": "address",
          "name": "newOwner",
          "type": "address"
        }
      ],
      "name": "transferOwnership",
      "outputs": [],
      "stateMutability": "nonpayable",
      "type": "function"
    },
    {
      "inputs": [
        {
          "internalType": "uint256",
          "name": "_charId",
          "type": "uint256"
        },
        {
          "internalType": "uint256",
          "name": "_weaponId",
          "type": "uint256"
        }
      ],
      "name": "signUp",
      "outputs": [],
      "stateMutability": "nonpayable",
      "type": "function"
    },
    {
      "inputs": [
        {
          "internalType": "uint256",
          "name": "_charId",
          "type": "uint256"
        },
        {
          "internalType": "uint256",
          "name": "_userId",
          "type": "uint256"
        }
      ],
      "name": "updateChar",
      "outputs": [],
      "stateMutability": "nonpayable",
      "type": "function"
    },
    {
      "inputs": [
        {
          "internalType": "uint256",
          "name": "_weaponId",
          "type": "uint256"
        },
        {
          "internalType": "uint256",
          "name": "_userId",
          "type": "uint256"
        }
      ],
      "name": "updateWeapon",
      "outputs": [],
      "stateMutability": "nonpayable",
      "type": "function"
    },
    {
      "inputs": [
        {
          "internalType": "uint256",
          "name": "_rank",
          "type": "uint256"
        }
      ],
      "name": "checkReward",
      "outputs": [
        {
          "internalType": "uint256",
          "name": "",
          "type": "uint256"
        }
      ],
      "stateMutability": "view",
      "type": "function",
      "constant": true
    },
    {
      "inputs": [
        {
          "internalType": "uint256",
          "name": "reward",
          "type": "uint256"
        }
      ],
      "name": "setRankReward",
      "outputs": [],
      "stateMutability": "nonpayable",
      "type": "function"
    },
    {
      "inputs": [
        {
          "internalType": "uint256",
          "name": "_rank",
          "type": "uint256"
        },
        {
          "internalType": "uint256",
          "name": "_userId",
          "type": "uint256"
        }
      ],
      "name": "requestReward",
      "outputs": [],
      "stateMutability": "nonpayable",
      "type": "function"
    },
    {
      "inputs": [
        {
          "internalType": "address",
          "name": "_user",
          "type": "address"
        }
      ],
      "name": "matchUser",
      "outputs": [
        {
          "components": [
            {
              "internalType": "uint256",
              "name": "userId",
              "type": "uint256"
            },
            {
              "components": [
                {
                  "internalType": "address",
                  "name": "contractAddr",
                  "type": "address"
                },
                {
                  "internalType": "uint256",
                  "name": "tokenId",
                  "type": "uint256"
                }
              ],
              "internalType": "struct MapleUser.Token",
              "name": "charToken",
              "type": "tuple"
            },
            {
              "components": [
                {
                  "internalType": "address",
                  "name": "contractAddr",
                  "type": "address"
                },
                {
                  "internalType": "uint256",
                  "name": "tokenId",
                  "type": "uint256"
                }
              ],
              "internalType": "struct MapleUser.Token",
              "name": "weaponToken",
              "type": "tuple"
            },
            {
              "internalType": "address payable",
              "name": "user",
              "type": "address"
            }
          ],
          "internalType": "struct MapleUser.UserInfo",
          "name": "",
          "type": "tuple"
        }
      ],
      "stateMutability": "view",
      "type": "function",
      "constant": true
    },
    {
      "inputs": [
        {
          "internalType": "uint256",
          "name": "_userId",
          "type": "uint256"
        }
      ],
      "name": "fetchUser",
      "outputs": [
        {
          "components": [
            {
              "internalType": "uint256",
              "name": "userId",
              "type": "uint256"
            },
            {
              "components": [
                {
                  "internalType": "address",
                  "name": "contractAddr",
                  "type": "address"
                },
                {
                  "internalType": "uint256",
                  "name": "tokenId",
                  "type": "uint256"
                }
              ],
              "internalType": "struct MapleUser.Token",
              "name": "charToken",
              "type": "tuple"
            },
            {
              "components": [
                {
                  "internalType": "address",
                  "name": "contractAddr",
                  "type": "address"
                },
                {
                  "internalType": "uint256",
                  "name": "tokenId",
                  "type": "uint256"
                }
              ],
              "internalType": "struct MapleUser.Token",
              "name": "weaponToken",
              "type": "tuple"
            },
            {
              "internalType": "address payable",
              "name": "user",
              "type": "address"
            }
          ],
          "internalType": "struct MapleUser.UserInfo",
          "name": "",
          "type": "tuple"
        }
      ],
      "stateMutability": "view",
      "type": "function",
      "constant": true
    },
    {
      "inputs": [],
      "name": "fetchUsers",
      "outputs": [
        {
          "components": [
            {
              "internalType": "uint256",
              "name": "userId",
              "type": "uint256"
            },
            {
              "components": [
                {
                  "internalType": "address",
                  "name": "contractAddr",
                  "type": "address"
                },
                {
                  "internalType": "uint256",
                  "name": "tokenId",
                  "type": "uint256"
                }
              ],
              "internalType": "struct MapleUser.Token",
              "name": "charToken",
              "type": "tuple"
            },
            {
              "components": [
                {
                  "internalType": "address",
                  "name": "contractAddr",
                  "type": "address"
                },
                {
                  "internalType": "uint256",
                  "name": "tokenId",
                  "type": "uint256"
                }
              ],
              "internalType": "struct MapleUser.Token",
              "name": "weaponToken",
              "type": "tuple"
            },
            {
              "internalType": "address payable",
              "name": "user",
              "type": "address"
            }
          ],
          "internalType": "struct MapleUser.UserInfo[]",
          "name": "",
          "type": "tuple[]"
        }
      ],
      "stateMutability": "view",
      "type": "function",
      "constant": true
    },
    {
      "inputs": [
        {
          "internalType": "address",
          "name": "",
          "type": "address"
        },
        {
          "internalType": "address",
          "name": "",
          "type": "address"
        },
        {
          "internalType": "uint256",
          "name": "",
          "type": "uint256"
        },
        {
          "internalType": "uint256",
          "name": "",
          "type": "uint256"
        },
        {
          "internalType": "bytes",
          "name": "",
          "type": "bytes"
        }
      ],
      "name": "onERC1155Received",
      "outputs": [
        {
          "internalType": "bytes4",
          "name": "",
          "type": "bytes4"
        }
      ],
      "stateMutability": "nonpayable",
      "type": "function"
    },
    {
      "inputs": [
        {
          "internalType": "address",
          "name": "",
          "type": "address"
        },
        {
          "internalType": "address",
          "name": "",
          "type": "address"
        },
        {
          "internalType": "uint256[]",
          "name": "",
          "type": "uint256[]"
        },
        {
          "internalType": "uint256[]",
          "name": "",
          "type": "uint256[]"
        },
        {
          "internalType": "bytes",
          "name": "",
          "type": "bytes"
        }
      ],
      "name": "onERC1155BatchReceived",
      "outputs": [
        {
          "internalType": "bytes4",
          "name": "",
          "type": "bytes4"
        }
      ],
      "stateMutability": "nonpayable",
      "type": "function"
    },
    {
      "inputs": [
        {
          "internalType": "address",
          "name": "",
          "type": "address"
        },
        {
          "internalType": "address",
          "name": "",
          "type": "address"
        },
        {
          "internalType": "uint256",
          "name": "",
          "type": "uint256"
        },
        {
          "internalType": "bytes",
          "name": "",
          "type": "bytes"
        }
      ],
      "name": "onERC721Received",
      "outputs": [
        {
          "internalType": "bytes4",
          "name": "",
          "type": "bytes4"
        }
      ],
      "stateMutability": "nonpayable",
      "type": "function"
    }
  ],
  "bytecode": "0x6080604052670de0b6b3a76400006002556000600355600060045560006005553480156200002c57600080fd5b506040516200192d3803806200192d8339810160408190526200004f91620001b9565b6200005a33620000aa565b6200006584620000fa565b50600880546001600160a01b039485166001600160a01b0319918216179091556009805493851693821693909317909255600780549190931691161790555062000221565b600080546001600160a01b038381166001600160a01b0319831681178455604051919092169283917f8be0079c531659141344cd1fd0a4f28419497f9722a3daafe3b4186f6b6457e09190a35050565b6000620001066200013f565b6001600160a01b0382166200011a57600080fd5b50600680546001600160a01b0383166001600160a01b03199091161790556001919050565b6000546001600160a01b031633146200019e5760405162461bcd60e51b815260206004820181905260248201527f4f776e61626c653a2063616c6c6572206973206e6f7420746865206f776e6572604482015260640160405180910390fd5b565b6001600160a01b0381168114620001b657600080fd5b50565b60008060008060808587031215620001d057600080fd5b8451620001dd81620001a0565b6020860151909450620001f081620001a0565b60408601519093506200020381620001a0565b60608601519092506200021681620001a0565b939692955090935050565b6116fc80620002316000396000f3fe608060405234801561001057600080fd5b50600436106100f55760003560e01c8063aeeda6bf11610097578063dfbf990011610066578063dfbf990014610258578063e46989911461026b578063f23a6e611461028c578063f2fde38b146102c457600080fd5b8063aeeda6bf146101d8578063bc197c81146101eb578063bfcad43314610223578063da56ef3a1461023857600080fd5b80635c7dec1b116100d35780635c7dec1b1461018f578063715018a6146101a25780638da5cb5b146101aa578063a3469f74146101c557600080fd5b8063150b7a02146100fa57806336b18165146101675780635062bc5a1461017c575b600080fd5b610131610108366004611248565b7f150b7a0200000000000000000000000000000000000000000000000000000000949350505050565b6040517fffffffff0000000000000000000000000000000000000000000000000000000090911681526020015b60405180910390f35b61017a6101753660046112b4565b6102d7565b005b61017a61018a3660046112b4565b610428565b61017a61019d3660046112b4565b61073f565b61017a610872565b6000546040516001600160a01b03909116815260200161015e565b61017a6101d33660046112d6565b610886565b61017a6101e63660046112b4565b610912565b6101316101f936600461136f565b7fbc197c810000000000000000000000000000000000000000000000000000000095945050505050565b61022b610bda565b60405161015e919061141d565b61024b6102463660046114bf565b610d0e565b60405161015e91906114e3565b61024b6102663660046112d6565b610e8a565b61027e6102793660046112d6565b610f84565b60405190815260200161015e565b61013161029a366004611545565b7ff23a6e610000000000000000000000000000000000000000000000000000000095945050505050565b61017a6102d23660046114bf565b610fc5565b600954604051627eeac760e11b8152336004820152602481018490526001600160a01b039091169062fdd58e90604401602060405180830381865afa158015610324573d6000803e3d6000fd5b505050506040513d601f19601f8201168201806040525081019061034891906115ae565b6000036103c25760405162461bcd60e51b815260206004820152602660248201527f6f6e6c7920776561706f6e206f776e6572732063616e2075706461746520757360448201527f6572496e666f000000000000000000000000000000000000000000000000000060648201526084015b60405180910390fd5b6000818152600a6020908152604091829020600481018590556002015482519081529081018490529081018290523360608201527fcf09b7402a0a51c2c51935cd064f1c8e910da6814d49b3badcaa04c81850948b906080015b60405180910390a15050565b6004821080156104385750600082115b6104aa5760405162461bcd60e51b815260206004820152602260248201527f796f75206e65656420746f2072616e6b20757020666f7220746865207265776160448201527f726400000000000000000000000000000000000000000000000000000000000060648201526084016103b9565b6000818152600a60205260409020600501546001600160a01b031633146105395760405162461bcd60e51b815260206004820152602860248201527f796f7520617265206e6f7420746865207573657220666f72207468652072616e60448201527f6b2072657761726400000000000000000000000000000000000000000000000060648201526084016103b9565b600082600103610552575060038054600090915561057c565b82600203610569575060048054600090915561057c565b8260030361057c57506005805460009091555b6006546007546040517fd83a2bf30000000000000000000000000000000000000000000000000000000081526001600160a01b03918216600482015230602482015260448101849052600092919091169063d83a2bf3906064016020604051808303816000875af11580156105f5573d6000803e3d6000fd5b505050506040513d601f19601f8201168201806040525081019061061991906115c7565b9050806106685760405162461bcd60e51b815260206004820152601560248201527f496e637265617365436f6e7472616374204661696c000000000000000000000060448201526064016103b9565b6006546007546040517f23b872dd0000000000000000000000000000000000000000000000000000000081526001600160a01b039182166004820152336024820152604481018590529116906323b872dd906064016020604051808303816000875af11580156106dc573d6000803e3d6000fd5b505050506040513d601f19601f8201168201806040525081019061070091906115c7565b50604080518381523360208201527ff77e4bb9025e3700758004f467a01764ed3e2b0245b45b918b6107e1770f32bb910160405180910390a150505050565b6008546040516331a9108f60e11b8152600481018490526001600160a01b0390911690636352211e90602401602060405180830381865afa158015610788573d6000803e3d6000fd5b505050506040513d601f19601f820116820180604052508101906107ac91906115e9565b6001600160a01b0316336001600160a01b0316146108165760405162461bcd60e51b815260206004820152602160248201527f6f6e6c7920636861726163746572206f776e6572732063616e207369676e20756044820152600760fc1b60648201526084016103b9565b6000818152600a602090815260409182902060028101859055600401548251858152918201529081018290523360608201527fcf09b7402a0a51c2c51935cd064f1c8e910da6814d49b3badcaa04c81850948b9060800161041c565b61087a611055565b61088460006110af565b565b600a61089382600561161c565b61089d9190611649565b600360008282546108ae919061165d565b90915550600a90506108c182600361161c565b6108cb9190611649565b600460008282546108dc919061165d565b90915550600a90506108ef82600261161c565b6108f99190611649565b6005600082825461090a919061165d565b909155505050565b6008546040516331a9108f60e11b8152600481018490526001600160a01b0390911690636352211e90602401602060405180830381865afa15801561095b573d6000803e3d6000fd5b505050506040513d601f19601f8201168201806040525081019061097f91906115e9565b6001600160a01b0316336001600160a01b0316146109e95760405162461bcd60e51b815260206004820152602160248201527f6f6e6c7920636861726163746572206f776e6572732063616e207369676e20756044820152600760fc1b60648201526084016103b9565b600954604051627eeac760e11b8152336004820152602481018390526001600160a01b039091169062fdd58e90604401602060405180830381865afa158015610a36573d6000803e3d6000fd5b505050506040513d601f19601f82011682018060405250810190610a5a91906115ae565b600003610aa95760405162461bcd60e51b815260206004820152601e60248201527f6f6e6c7920776561706f6e206f776e6572732063616e207369676e207570000060448201526064016103b9565b610ab7600180546001019055565b6000610ac260015490565b6040805160808082018352838252825180840184526008546001600160a01b03908116825260208083018a905280850192835285518087018752600954831681528082018a905285870190815233606080880182815260008b8152600a86528a9020985189559551805160018a01805491881673ffffffffffffffffffffffffffffffffffffffff199283161790559085015160028a01559251805160038a018054918816918616919091179055840151600489015594516005909701805497909416969091169590951790915584518981529081018890529384018590528301919091529192507fb71cf8dd9f35ff09f0b312ae47365f80792968af9383e6cbc7f9c12054d6cc3d910160405180910390a1505050565b60606000610be760015490565b905060008167ffffffffffffffff811115610c0457610c04611191565b604051908082528060200260200182016040528015610c3d57816020015b610c2a61110c565b815260200190600190039081610c225790505b50905060015b828111610d07576000818152600a602090815260408083205480845292819020815160808101835281548152825180840184526001808401546001600160a01b0390811683526002850154838801528387019290925284518086018652600385015483168152600485015496810196909652938201949094526005820154909316606084015291908590610cd79086611670565b81518110610ce757610ce7611683565b602002602001018190525050508080610cff90611699565b915050610c43565b5092915050565b610d1661110c565b600154600103610d685760405162461bcd60e51b815260206004820152601b60248201527f796f752061726520746865206f6e6c79206f6e6520706c61796572000000000060448201526064016103b9565b6000610d7360015490565b905060008142604051602001610d8b91815260200190565b6040516020818303038152906040528051906020012060001c610dae91906116b2565b90506001600160a01b038416600a6000610dc984600161165d565b81526020810191909152604001600020600501546001600160a01b031614610e79576000600a81610dfb84600161165d565b815260208082019290925260409081016000208151608081018352815481528251808401845260018301546001600160a01b0390811682526002840154828701528286019190915283518085018552600384015482168152600484015495810195909552928101939093526005015416606082015295945050505050565b610e8284610d0e565b949350505050565b610e9261110c565b600154600003610f0a5760405162461bcd60e51b815260206004820152602360248201527f6e6f207573657220696e666f20616464656420746f207468697320636f6e747260448201527f616374000000000000000000000000000000000000000000000000000000000060648201526084016103b9565b506000908152600a60209081526040918290208251608081018452815481528351808501855260018301546001600160a01b03908116825260028401548286015282850191909152845180860186526003840154821681526004840154948101949094529381019290925260050154909116606082015290565b6000806001839003610f995750600354610fbf565b82600203610faa5750600454610fbf565b82600303610fbb5750600554610fbf565b5060005b92915050565b610fcd611055565b6001600160a01b0381166110495760405162461bcd60e51b815260206004820152602660248201527f4f776e61626c653a206e6577206f776e657220697320746865207a65726f206160448201527f646472657373000000000000000000000000000000000000000000000000000060648201526084016103b9565b611052816110af565b50565b6000546001600160a01b031633146108845760405162461bcd60e51b815260206004820181905260248201527f4f776e61626c653a2063616c6c6572206973206e6f7420746865206f776e657260448201526064016103b9565b600080546001600160a01b0383811673ffffffffffffffffffffffffffffffffffffffff19831681178455604051919092169283917f8be0079c531659141344cd1fd0a4f28419497f9722a3daafe3b4186f6b6457e09190a35050565b604051806080016040528060008152602001611144604051806040016040528060006001600160a01b03168152602001600081525090565b815260200161116f604051806040016040528060006001600160a01b03168152602001600081525090565b8152600060209091015290565b6001600160a01b038116811461105257600080fd5b634e487b7160e01b600052604160045260246000fd5b604051601f8201601f1916810167ffffffffffffffff811182821017156111d0576111d0611191565b604052919050565b600082601f8301126111e957600080fd5b813567ffffffffffffffff81111561120357611203611191565b611216601f8201601f19166020016111a7565b81815284602083860101111561122b57600080fd5b816020850160208301376000918101602001919091529392505050565b6000806000806080858703121561125e57600080fd5b84356112698161117c565b935060208501356112798161117c565b925060408501359150606085013567ffffffffffffffff81111561129c57600080fd5b6112a8878288016111d8565b91505092959194509250565b600080604083850312156112c757600080fd5b50508035926020909101359150565b6000602082840312156112e857600080fd5b5035919050565b600082601f83011261130057600080fd5b8135602067ffffffffffffffff82111561131c5761131c611191565b8160051b61132b8282016111a7565b928352848101820192828101908785111561134557600080fd5b83870192505b848310156113645782358252918301919083019061134b565b979650505050505050565b600080600080600060a0868803121561138757600080fd5b85356113928161117c565b945060208601356113a28161117c565b9350604086013567ffffffffffffffff808211156113bf57600080fd5b6113cb89838a016112ef565b945060608801359150808211156113e157600080fd5b6113ed89838a016112ef565b9350608088013591508082111561140357600080fd5b50611410888289016111d8565b9150509295509295909350565b6020808252825182820181905260009190848201906040850190845b818110156114b3576114a08385518051825260208082015180516001600160a01b03168285015290810151604084015250604081015180516001600160a01b031660608401526020810151608084015250606001516001600160a01b031660a09190910152565b9284019260c09290920191600101611439565b50909695505050505050565b6000602082840312156114d157600080fd5b81356114dc8161117c565b9392505050565b60c08101610fbf82848051825260208082015180516001600160a01b03168285015290810151604084015250604081015180516001600160a01b031660608401526020810151608084015250606001516001600160a01b031660a09190910152565b600080600080600060a0868803121561155d57600080fd5b85356115688161117c565b945060208601356115788161117c565b93506040860135925060608601359150608086013567ffffffffffffffff8111156115a257600080fd5b611410888289016111d8565b6000602082840312156115c057600080fd5b5051919050565b6000602082840312156115d957600080fd5b815180151581146114dc57600080fd5b6000602082840312156115fb57600080fd5b81516114dc8161117c565b634e487b7160e01b600052601160045260246000fd5b8082028115828204841417610fbf57610fbf611606565b634e487b7160e01b600052601260045260246000fd5b60008261165857611658611633565b500490565b80820180821115610fbf57610fbf611606565b81810381811115610fbf57610fbf611606565b634e487b7160e01b600052603260045260246000fd5b6000600182016116ab576116ab611606565b5060010190565b6000826116c1576116c1611633565b50069056fea26469706673582212200f40ebbd5312a4b7d27ab1f06d9740f935437471b7e5be6f69d4b719e2f1c35d64736f6c63430008110033",
  "immutableReferences": {},
  "source": "// SPDX-License-Identifier: MIT\npragma solidity ^0.8.7;\n\nimport \"@openzeppelin/contracts/token/ERC721/ERC721.sol\";\nimport \"@openzeppelin/contracts/token/ERC1155/ERC1155.sol\";\nimport \"@openzeppelin/contracts/token/ERC1155/IERC1155Receiver.sol\";\nimport \"@openzeppelin/contracts/access/Ownable.sol\";\nimport \"@openzeppelin/contracts/utils/Counters.sol\";\nimport \"./JMToken.sol\";\n\ncontract MapleUser is Ownable {\n    using Counters for Counters.Counter;\n    Counters.Counter private _userIds;\n    uint256 decimals = 10**18;\n    uint256 firstReward = 0;\n    uint256 secondReward = 0;\n    uint256 thirdReward = 0;\n\n    JMToken private token;\n    address payable private treasuryWallet;\n    address private nftContractAddress;\n    address private itemContractAddress;\n\n    constructor (\n        address _tokenContractAddress,\n        address _nftContractAddress,\n        address _itemContractAddress,\n        address payable _treasuryWallet\n    ) {\n        _setToken(_tokenContractAddress);\n        nftContractAddress = _nftContractAddress;\n        itemContractAddress = _itemContractAddress;\n        treasuryWallet = _treasuryWallet;\n    }\n\n    mapping(uint256 => UserInfo) idUserInfo;\n\n    struct Token {\n        address contractAddr;\n        uint256 tokenId;\n    }\n\n    struct UserInfo {\n        uint256 userId;\n        Token charToken;\n        Token weaponToken;\n        address payable user;\n    }\n\n    event UserCreated (\n        uint256 charId,\n        uint256 weaponId,\n        uint256 userId,\n        address user\n    );\n\n    event UserUpdated (\n        uint256 charId,\n        uint256 weaponId,\n        uint256 userId,\n        address user\n    );\n\n    event UserMatching (\n        uint256 charId,\n        uint256 weaponId,\n        uint256 userId,\n        address user\n    );\n\n    event UserDeleated (\n        uint256 charId,\n        uint256 weaponId,\n        uint256 userId,\n        address user\n    );\n\n    event rewardTransferred (\n        uint256 reward,\n        address user\n    );\n\n    function _setToken(address _tokenAddress) private onlyOwner returns (bool) {\n        require(_tokenAddress != address(0x0));\n        token = JMToken(_tokenAddress);\n        return true;\n    }\n\n    function signUp(\n        uint256 _charId,\n        uint256 _weaponId\n    ) public {\n        require(msg.sender == ERC721(nftContractAddress).ownerOf(_charId),  \"only character owners can sign up\");\n        require(ERC1155(itemContractAddress).balanceOf(msg.sender, _weaponId)!=0,  \"only weapon owners can sign up\");\n\n        _userIds.increment();\n        uint256 userId = _userIds.current();\n\n        idUserInfo[userId] = UserInfo({\n            userId: userId,\n            charToken: Token({\n                contractAddr: nftContractAddress,\n                tokenId: _charId\n            }),\n            weaponToken: Token({\n                contractAddr: itemContractAddress,\n                tokenId: _weaponId\n            }),\n            user: payable(msg.sender)\n        });\n\n        emit UserCreated(\n            _charId,\n            _weaponId,\n            userId,\n            msg.sender\n        );\n    }\n\n    function updateChar(\n        uint256 _charId,\n        uint256 _userId\n    ) public {\n        require(msg.sender == ERC721(nftContractAddress).ownerOf(_charId),  \"only character owners can sign up\");\n\n        idUserInfo[_userId].charToken.tokenId = _charId;\n\n        emit UserUpdated(\n            _charId,\n            idUserInfo[_userId].weaponToken.tokenId,\n            _userId,\n            msg.sender\n        );\n    }\n\n    function updateWeapon(\n        uint256 _weaponId,\n        uint256 _userId\n    ) public {\n        require(ERC1155(itemContractAddress).balanceOf(msg.sender, _weaponId)!=0,  \"only weapon owners can update userInfo\");\n\n        idUserInfo[_userId].weaponToken.tokenId = _weaponId;\n\n        emit UserUpdated(\n            idUserInfo[_userId].charToken.tokenId,\n            _weaponId,\n            _userId,\n            msg.sender\n        );\n    }\n\n    function checkReward(\n        uint256 _rank\n    ) public view returns (uint256) {\n        //TODO:        .\n        // require(_rank<4,  \"you need to rank up for the reward\");\n        uint256 reward = 0;\n        if(_rank==1){\n            reward = firstReward;\n        }\n        else if(_rank==2){\n            reward = secondReward;\n        }\n        else if(_rank==3){\n            reward = thirdReward;\n        }else{\n            reward = 0;\n        }\n        return reward;\n    }\n\n    function setRankReward(uint256 reward) public{\n        firstReward+=reward*5/10;\n        secondReward+=reward*3/10;\n        thirdReward+=reward*2/10;\n    }\n\n    function requestReward(\n        uint256 _rank,\n        uint256 _userId\n    ) public {\n        //TODO:        .\n        require(_rank<4&&_rank>0,  \"you need to rank up for the reward\");\n        require(idUserInfo[_userId].user == msg.sender,  \"you are not the user for the rank reward\");\n        \n        uint256 reward = 0;\n        if(_rank==1){\n            reward = firstReward;\n            firstReward = 0;\n        }\n        else if(_rank==2){\n            reward = secondReward;\n            secondReward = 0;\n        }\n        else if(_rank==3){\n            reward = thirdReward;\n            thirdReward = 0;\n        }\n\n        bool success = token.increaseContractAllowance(\n            treasuryWallet,\n            address(this),\n            reward\n        );\n        require(success, \"IncreaseContract Fail\");\n        token.transferFrom(treasuryWallet, msg.sender, reward);\n\n        emit rewardTransferred (\n        reward,\n        msg.sender\n        );\n\n    }\n\n    function matchUser(address _user) public view returns (UserInfo memory) {\n        require(_userIds.current()!=1, \"you are the only one player\");\n        uint userCount = _userIds.current();\n        uint256 n = uint256(keccak256(abi.encodePacked(block.timestamp))) % (userCount);\n        if(idUserInfo[n+1].user != _user){\n            UserInfo memory opponent =  idUserInfo[n+1];\n            return opponent;\n        }else{\n            return matchUser(_user);\n        }\n    }\n\n    function fetchUser(uint256 _userId) public view returns (UserInfo memory) {\n        require(_userIds.current()!=0, \"no user info added to this contract\");\n        return idUserInfo[_userId];\n    }\n\n    function fetchUsers() public view returns (UserInfo[] memory) {\n        uint userCount = _userIds.current();\n        UserInfo[] memory users =  new UserInfo[](userCount);\n\n        for (uint i = 1; i <= userCount; i++) {\n            uint currentId = idUserInfo[i].userId;\n            UserInfo storage currentUser = idUserInfo[currentId];\n            users[i-1] = currentUser;\n        }\n        return users;\n    }\n\n    function onERC1155Received(address, address, uint256, uint256, bytes memory) public virtual returns (bytes4) {\n        return this.onERC1155Received.selector;\n    }\n\n    function onERC1155BatchReceived(address, address, uint256[] memory, uint256[] memory, bytes memory) public virtual returns (bytes4) {\n        return this.onERC1155BatchReceived.selector;\n    }\n\n    function onERC721Received(address, address, uint256, bytes memory) public virtual returns (bytes4) {\n        return this.onERC721Received.selector;\n    }\n}\n",
  "sourcePath": "/Users/hyenne/workspace/BEB-05-JMT/contract/contracts/MapleUser.sol",
  "compiler": {
    "name": "solc",
    "version": "0.8.17+commit.8df45f5f.Emscripten.clang"
  },
  "schemaVersion": "3.4.9",
  "updatedAt": "2022-09-28T02:02:02.452Z",
  "networkType": "ethereum",
  "devdoc": {
    "kind": "dev",
    "methods": {
      "owner()": {
        "details": "Returns the address of the current owner."
      },
      "renounceOwnership()": {
        "details": "Leaves the contract without owner. It will not be possible to call `onlyOwner` functions anymore. Can only be called by the current owner. NOTE: Renouncing ownership will leave the contract without an owner, thereby removing any functionality that is only available to the owner."
      },
      "transferOwnership(address)": {
        "details": "Transfers ownership of the contract to a new account (`newOwner`). Can only be called by the current owner."
      }
    },
    "version": 1
  },
  "userdoc": {
    "kind": "user",
    "methods": {},
    "version": 1
  }
}