{
  "contractName": "MapleItems",
  "abi": [
    {
      "inputs": [
        {
          "internalType": "address",
          "name": "_marketAddress",
          "type": "address"
        },
        {
          "internalType": "address",
          "name": "_tokenContractAddress",
          "type": "address"
        },
        {
          "internalType": "address payable",
          "name": "_treasuryWallet",
          "type": "address"
        }
      ],
      "stateMutability": "nonpayable",
      "type": "constructor"
    },
    {
      "anonymous": false,
      "inputs": [
        {
          "indexed": true,
          "internalType": "address",
          "name": "account",
          "type": "address"
        },
        {
          "indexed": true,
          "internalType": "address",
          "name": "operator",
          "type": "address"
        },
        {
          "indexed": false,
          "internalType": "bool",
          "name": "approved",
          "type": "bool"
        }
      ],
      "name": "ApprovalForAll",
      "type": "event"
    },
    {
      "anonymous": false,
      "inputs": [
        {
          "indexed": true,
          "internalType": "address",
          "name": "previousOwner",
          "type": "address"
        },
        {
          "indexed": true,
          "internalType": "address",
          "name": "newOwner",
          "type": "address"
        }
      ],
      "name": "OwnershipTransferred",
      "type": "event"
    },
    {
      "anonymous": false,
      "inputs": [
        {
          "indexed": false,
          "internalType": "bool",
          "name": "result",
          "type": "bool"
        }
      ],
      "name": "Rewarded",
      "type": "event"
    },
    {
      "anonymous": false,
      "inputs": [
        {
          "indexed": true,
          "internalType": "address",
          "name": "operator",
          "type": "address"
        },
        {
          "indexed": true,
          "internalType": "address",
          "name": "from",
          "type": "address"
        },
        {
          "indexed": true,
          "internalType": "address",
          "name": "to",
          "type": "address"
        },
        {
          "indexed": false,
          "internalType": "uint256[]",
          "name": "ids",
          "type": "uint256[]"
        },
        {
          "indexed": false,
          "internalType": "uint256[]",
          "name": "values",
          "type": "uint256[]"
        }
      ],
      "name": "TransferBatch",
      "type": "event"
    },
    {
      "anonymous": false,
      "inputs": [
        {
          "indexed": true,
          "internalType": "address",
          "name": "operator",
          "type": "address"
        },
        {
          "indexed": true,
          "internalType": "address",
          "name": "from",
          "type": "address"
        },
        {
          "indexed": true,
          "internalType": "address",
          "name": "to",
          "type": "address"
        },
        {
          "indexed": false,
          "internalType": "uint256",
          "name": "id",
          "type": "uint256"
        },
        {
          "indexed": false,
          "internalType": "uint256",
          "name": "value",
          "type": "uint256"
        }
      ],
      "name": "TransferSingle",
      "type": "event"
    },
    {
      "anonymous": false,
      "inputs": [
        {
          "indexed": false,
          "internalType": "string",
          "name": "value",
          "type": "string"
        },
        {
          "indexed": true,
          "internalType": "uint256",
          "name": "id",
          "type": "uint256"
        }
      ],
      "name": "URI",
      "type": "event"
    },
    {
      "anonymous": false,
      "inputs": [
        {
          "indexed": false,
          "internalType": "bool",
          "name": "result",
          "type": "bool"
        },
        {
          "indexed": false,
          "internalType": "uint256",
          "name": "weaponId",
          "type": "uint256"
        }
      ],
      "name": "Upgraded",
      "type": "event"
    },
    {
      "inputs": [],
      "name": "BOW0",
      "outputs": [
        {
          "internalType": "uint256",
          "name": "",
          "type": "uint256"
        }
      ],
      "stateMutability": "view",
      "type": "function",
      "constant": true
    },
    {
      "inputs": [],
      "name": "BOW1",
      "outputs": [
        {
          "internalType": "uint256",
          "name": "",
          "type": "uint256"
        }
      ],
      "stateMutability": "view",
      "type": "function",
      "constant": true
    },
    {
      "inputs": [],
      "name": "BOW2",
      "outputs": [
        {
          "internalType": "uint256",
          "name": "",
          "type": "uint256"
        }
      ],
      "stateMutability": "view",
      "type": "function",
      "constant": true
    },
    {
      "inputs": [],
      "name": "POLEARM0",
      "outputs": [
        {
          "internalType": "uint256",
          "name": "",
          "type": "uint256"
        }
      ],
      "stateMutability": "view",
      "type": "function",
      "constant": true
    },
    {
      "inputs": [],
      "name": "POLEARM1",
      "outputs": [
        {
          "internalType": "uint256",
          "name": "",
          "type": "uint256"
        }
      ],
      "stateMutability": "view",
      "type": "function",
      "constant": true
    },
    {
      "inputs": [],
      "name": "POLEARM2",
      "outputs": [
        {
          "internalType": "uint256",
          "name": "",
          "type": "uint256"
        }
      ],
      "stateMutability": "view",
      "type": "function",
      "constant": true
    },
    {
      "inputs": [],
      "name": "SCROLL10",
      "outputs": [
        {
          "internalType": "uint256",
          "name": "",
          "type": "uint256"
        }
      ],
      "stateMutability": "view",
      "type": "function",
      "constant": true
    },
    {
      "inputs": [],
      "name": "SCROLL100",
      "outputs": [
        {
          "internalType": "uint256",
          "name": "",
          "type": "uint256"
        }
      ],
      "stateMutability": "view",
      "type": "function",
      "constant": true
    },
    {
      "inputs": [],
      "name": "SCROLL30",
      "outputs": [
        {
          "internalType": "uint256",
          "name": "",
          "type": "uint256"
        }
      ],
      "stateMutability": "view",
      "type": "function",
      "constant": true
    },
    {
      "inputs": [],
      "name": "SCROLL60",
      "outputs": [
        {
          "internalType": "uint256",
          "name": "",
          "type": "uint256"
        }
      ],
      "stateMutability": "view",
      "type": "function",
      "constant": true
    },
    {
      "inputs": [],
      "name": "SCROLL90",
      "outputs": [
        {
          "internalType": "uint256",
          "name": "",
          "type": "uint256"
        }
      ],
      "stateMutability": "view",
      "type": "function",
      "constant": true
    },
    {
      "inputs": [],
      "name": "STAFF0",
      "outputs": [
        {
          "internalType": "uint256",
          "name": "",
          "type": "uint256"
        }
      ],
      "stateMutability": "view",
      "type": "function",
      "constant": true
    },
    {
      "inputs": [],
      "name": "STAFF1",
      "outputs": [
        {
          "internalType": "uint256",
          "name": "",
          "type": "uint256"
        }
      ],
      "stateMutability": "view",
      "type": "function",
      "constant": true
    },
    {
      "inputs": [],
      "name": "STAFF2",
      "outputs": [
        {
          "internalType": "uint256",
          "name": "",
          "type": "uint256"
        }
      ],
      "stateMutability": "view",
      "type": "function",
      "constant": true
    },
    {
      "inputs": [],
      "name": "SWORD0",
      "outputs": [
        {
          "internalType": "uint256",
          "name": "",
          "type": "uint256"
        }
      ],
      "stateMutability": "view",
      "type": "function",
      "constant": true
    },
    {
      "inputs": [],
      "name": "SWORD1",
      "outputs": [
        {
          "internalType": "uint256",
          "name": "",
          "type": "uint256"
        }
      ],
      "stateMutability": "view",
      "type": "function",
      "constant": true
    },
    {
      "inputs": [],
      "name": "SWORD2",
      "outputs": [
        {
          "internalType": "uint256",
          "name": "",
          "type": "uint256"
        }
      ],
      "stateMutability": "view",
      "type": "function",
      "constant": true
    },
    {
      "inputs": [],
      "name": "SWORD3",
      "outputs": [
        {
          "internalType": "uint256",
          "name": "",
          "type": "uint256"
        }
      ],
      "stateMutability": "view",
      "type": "function",
      "constant": true
    },
    {
      "inputs": [
        {
          "internalType": "address",
          "name": "account",
          "type": "address"
        },
        {
          "internalType": "uint256",
          "name": "id",
          "type": "uint256"
        }
      ],
      "name": "balanceOf",
      "outputs": [
        {
          "internalType": "uint256",
          "name": "",
          "type": "uint256"
        }
      ],
      "stateMutability": "view",
      "type": "function",
      "constant": true
    },
    {
      "inputs": [
        {
          "internalType": "address[]",
          "name": "accounts",
          "type": "address[]"
        },
        {
          "internalType": "uint256[]",
          "name": "ids",
          "type": "uint256[]"
        }
      ],
      "name": "balanceOfBatch",
      "outputs": [
        {
          "internalType": "uint256[]",
          "name": "",
          "type": "uint256[]"
        }
      ],
      "stateMutability": "view",
      "type": "function",
      "constant": true
    },
    {
      "inputs": [
        {
          "internalType": "address",
          "name": "account",
          "type": "address"
        },
        {
          "internalType": "uint256",
          "name": "id",
          "type": "uint256"
        },
        {
          "internalType": "uint256",
          "name": "value",
          "type": "uint256"
        }
      ],
      "name": "burn",
      "outputs": [],
      "stateMutability": "nonpayable",
      "type": "function"
    },
    {
      "inputs": [
        {
          "internalType": "address",
          "name": "account",
          "type": "address"
        },
        {
          "internalType": "uint256[]",
          "name": "ids",
          "type": "uint256[]"
        },
        {
          "internalType": "uint256[]",
          "name": "values",
          "type": "uint256[]"
        }
      ],
      "name": "burnBatch",
      "outputs": [],
      "stateMutability": "nonpayable",
      "type": "function"
    },
    {
      "inputs": [
        {
          "internalType": "uint256",
          "name": "id",
          "type": "uint256"
        }
      ],
      "name": "exists",
      "outputs": [
        {
          "internalType": "bool",
          "name": "",
          "type": "bool"
        }
      ],
      "stateMutability": "view",
      "type": "function",
      "constant": true
    },
    {
      "inputs": [
        {
          "internalType": "address",
          "name": "account",
          "type": "address"
        },
        {
          "internalType": "address",
          "name": "operator",
          "type": "address"
        }
      ],
      "name": "isApprovedForAll",
      "outputs": [
        {
          "internalType": "bool",
          "name": "",
          "type": "bool"
        }
      ],
      "stateMutability": "view",
      "type": "function",
      "constant": true
    },
    {
      "inputs": [],
      "name": "owner",
      "outputs": [
        {
          "internalType": "address",
          "name": "",
          "type": "address"
        }
      ],
      "stateMutability": "view",
      "type": "function",
      "constant": true
    },
    {
      "inputs": [],
      "name": "renounceOwnership",
      "outputs": [],
      "stateMutability": "nonpayable",
      "type": "function"
    },
    {
      "inputs": [
        {
          "internalType": "address",
          "name": "from",
          "type": "address"
        },
        {
          "internalType": "address",
          "name": "to",
          "type": "address"
        },
        {
          "internalType": "uint256[]",
          "name": "ids",
          "type": "uint256[]"
        },
        {
          "internalType": "uint256[]",
          "name": "amounts",
          "type": "uint256[]"
        },
        {
          "internalType": "bytes",
          "name": "data",
          "type": "bytes"
        }
      ],
      "name": "safeBatchTransferFrom",
      "outputs": [],
      "stateMutability": "nonpayable",
      "type": "function"
    },
    {
      "inputs": [
        {
          "internalType": "address",
          "name": "from",
          "type": "address"
        },
        {
          "internalType": "address",
          "name": "to",
          "type": "address"
        },
        {
          "internalType": "uint256",
          "name": "id",
          "type": "uint256"
        },
        {
          "internalType": "uint256",
          "name": "amount",
          "type": "uint256"
        },
        {
          "internalType": "bytes",
          "name": "data",
          "type": "bytes"
        }
      ],
      "name": "safeTransferFrom",
      "outputs": [],
      "stateMutability": "nonpayable",
      "type": "function"
    },
    {
      "inputs": [
        {
          "internalType": "address",
          "name": "operator",
          "type": "address"
        },
        {
          "internalType": "bool",
          "name": "approved",
          "type": "bool"
        }
      ],
      "name": "setApprovalForAll",
      "outputs": [],
      "stateMutability": "nonpayable",
      "type": "function"
    },
    {
      "inputs": [
        {
          "internalType": "bytes4",
          "name": "interfaceId",
          "type": "bytes4"
        }
      ],
      "name": "supportsInterface",
      "outputs": [
        {
          "internalType": "bool",
          "name": "",
          "type": "bool"
        }
      ],
      "stateMutability": "view",
      "type": "function",
      "constant": true
    },
    {
      "inputs": [
        {
          "internalType": "uint256",
          "name": "id",
          "type": "uint256"
        }
      ],
      "name": "totalSupply",
      "outputs": [
        {
          "internalType": "uint256",
          "name": "",
          "type": "uint256"
        }
      ],
      "stateMutability": "view",
      "type": "function",
      "constant": true
    },
    {
      "inputs": [
        {
          "internalType": "address",
          "name": "newOwner",
          "type": "address"
        }
      ],
      "name": "transferOwnership",
      "outputs": [],
      "stateMutability": "nonpayable",
      "type": "function"
    },
    {
      "inputs": [],
      "name": "treasuryWallet",
      "outputs": [
        {
          "internalType": "address payable",
          "name": "",
          "type": "address"
        }
      ],
      "stateMutability": "view",
      "type": "function",
      "constant": true
    },
    {
      "inputs": [
        {
          "internalType": "uint256",
          "name": "_tokenid",
          "type": "uint256"
        }
      ],
      "name": "uri",
      "outputs": [
        {
          "internalType": "string",
          "name": "",
          "type": "string"
        }
      ],
      "stateMutability": "pure",
      "type": "function",
      "constant": true
    },
    {
      "inputs": [
        {
          "internalType": "string",
          "name": "newuri",
          "type": "string"
        }
      ],
      "name": "setURI",
      "outputs": [],
      "stateMutability": "nonpayable",
      "type": "function"
    },
    {
      "inputs": [],
      "name": "mintFirstWeapon",
      "outputs": [],
      "stateMutability": "nonpayable",
      "type": "function"
    },
    {
      "inputs": [],
      "name": "mintRandomWeapon",
      "outputs": [
        {
          "internalType": "uint256",
          "name": "",
          "type": "uint256"
        }
      ],
      "stateMutability": "nonpayable",
      "type": "function"
    },
    {
      "inputs": [],
      "name": "mintScroll",
      "outputs": [],
      "stateMutability": "nonpayable",
      "type": "function"
    },
    {
      "inputs": [
        {
          "internalType": "uint256",
          "name": "scrollId",
          "type": "uint256"
        },
        {
          "internalType": "uint256",
          "name": "weaponId",
          "type": "uint256"
        }
      ],
      "name": "upgrade",
      "outputs": [],
      "stateMutability": "nonpayable",
      "type": "function"
    },
    {
      "inputs": [
        {
          "internalType": "address",
          "name": "to",
          "type": "address"
        },
        {
          "internalType": "uint256[]",
          "name": "ids",
          "type": "uint256[]"
        },
        {
          "internalType": "uint256[]",
          "name": "amounts",
          "type": "uint256[]"
        },
        {
          "internalType": "bytes",
          "name": "data",
          "type": "bytes"
        }
      ],
      "name": "mintBatch",
      "outputs": [],
      "stateMutability": "nonpayable",
      "type": "function"
    },
    {
      "inputs": [
        {
          "internalType": "address",
          "name": "sender",
          "type": "address"
        }
      ],
      "name": "balanceCheck",
      "outputs": [
        {
          "internalType": "uint256[][]",
          "name": "",
          "type": "uint256[][]"
        }
      ],
      "stateMutability": "nonpayable",
      "type": "function"
    },
    {
      "inputs": [],
      "name": "randRewardScroll",
      "outputs": [],
      "stateMutability": "nonpayable",
      "type": "function"
    }
  ],
  "bytecode": "0x6080604052670de0b6b3a76400006006556000600a556046600b553480156200002757600080fd5b5060405162003b8b38038062003b8b8339810160408190526200004a91620008e2565b6040518060600160405280603a815260200162003b31603a91396200006f81620000fd565b506200007b336200010f565b60016008556002600955601080546001600160a01b0319166001600160a01b038516179055620000ab8262000161565b50620000b6620001a6565b620000c062000562565b620000ca620005cb565b620000d4620006f0565b600780546001600160a01b0319166001600160a01b03929092169190911790555062000acf9050565b60026200010b8282620009db565b5050565b600380546001600160a01b038381166001600160a01b0319831681179093556040519116919082907f8be0079c531659141344cd1fd0a4f28419497f9722a3daafe3b4186f6b6457e090600090a35050565b60006200016d6200086b565b6001600160a01b0382166200018157600080fd5b50600580546001600160a01b0383166001600160a01b03199091161790556001919050565b620001b06200086b565b60005b6004811015620001f357600c8054600181018255600091825260008051602062003b11833981519152015580620001ea8162000aa7565b915050620001b3565b5060005b60038110156200023957600c80546001818101835560009290925260008051602062003b11833981519152015580620002308162000aa7565b915050620001f7565b5060005b60028110156200028257600c8054600181018255600091909152600260008051602062003b118339815191529091015580620002798162000aa7565b9150506200023d565b5060005b6001811015620002cb57600c8054600181018255600091909152600360008051602062003b118339815191529091015580620002c28162000aa7565b91505062000286565b5060005b60048110156200031457600c8054600181018255600091909152606460008051602062003b1183398151915290910155806200030b8162000aa7565b915050620002cf565b5060005b60038110156200035d57600c8054600181018255600091909152606560008051602062003b118339815191529091015580620003548162000aa7565b91505062000318565b5060005b6002811015620003a657600c8054600181018255600091909152606660008051602062003b1183398151915290910155806200039d8162000aa7565b91505062000361565b5060005b6004811015620003ef57600c805460018101825560009190915260c860008051602062003b118339815191529091015580620003e68162000aa7565b915050620003aa565b5060005b60038110156200043857600c805460018101825560009190915260c960008051602062003b1183398151915290910155806200042f8162000aa7565b915050620003f3565b5060005b60028110156200048157600c805460018101825560009190915260ca60008051602062003b118339815191529091015580620004788162000aa7565b9150506200043c565b5060005b6004811015620004cb57600c805460018101825560009190915261012c60008051602062003b118339815191529091015580620004c28162000aa7565b91505062000485565b5060005b60038110156200051557600c805460018101825560009190915261012d60008051602062003b1183398151915290910155806200050c8162000aa7565b915050620004cf565b5060005b60028110156200055f57600c805460018101825560009190915261012e60008051602062003b118339815191529091015580620005568162000aa7565b91505062000519565b50565b6200056c6200086b565b600d80546001818101835560008381527fd7b6990105719101dabeb77144f2a3385c8033acd3af97e9423a695e81ad1eb592830155825480820184556064908301558254808201845560c890830155825490810190925561012c910155565b620005d56200086b565b600e80546001818101835560008381527fbb7b4a454dc3493923482f07822329ed19e8244eff582cc204f8554c3620c3fd9283015582548082018455820181905582548082018455600290830155825480820184556003908301558254808201845560649083015582548082018455606590830155825480820184556066908301558254808201845560c8908301558254808201845560c9908301558254808201845560ca908301558254808201845561012c908301558254808201845561012d908301558254808201845561012e9083015582548082018455610190908301558254808201845561019190830155825480820184556101929083015582548082018455610193908301558254908101909255610194910155565b620006fa6200086b565b60005b60018110156200074357600f805460018101825560009190915261019060008051602062003b6b83398151915290910155806200073a8162000aa7565b915050620006fd565b5060005b60028110156200078d57600f805460018101825560009190915261019160008051602062003b6b8339815191529091015580620007848162000aa7565b91505062000747565b5060005b6004811015620007d757600f805460018101825560009190915261019260008051602062003b6b8339815191529091015580620007ce8162000aa7565b91505062000791565b5060005b60068110156200082157600f805460018101825560009190915261019360008051602062003b6b8339815191529091015580620008188162000aa7565b915050620007db565b5060005b60078110156200055f57600f805460018101825560009190915261019460008051602062003b6b8339815191529091015580620008628162000aa7565b91505062000825565b6003546001600160a01b03163314620008ca5760405162461bcd60e51b815260206004820181905260248201527f4f776e61626c653a2063616c6c6572206973206e6f7420746865206f776e6572604482015260640160405180910390fd5b565b6001600160a01b03811681146200055f57600080fd5b600080600060608486031215620008f857600080fd5b83516200090581620008cc565b60208501519093506200091881620008cc565b60408501519092506200092b81620008cc565b809150509250925092565b634e487b7160e01b600052604160045260246000fd5b600181811c908216806200096157607f821691505b6020821081036200098257634e487b7160e01b600052602260045260246000fd5b50919050565b601f821115620009d657600081815260208120601f850160051c81016020861015620009b15750805b601f850160051c820191505b81811015620009d257828155600101620009bd565b5050505b505050565b81516001600160401b03811115620009f757620009f762000936565b62000a0f8162000a0884546200094c565b8462000988565b602080601f83116001811462000a47576000841562000a2e5750858301515b600019600386901b1c1916600185901b178555620009d2565b600085815260208120601f198616915b8281101562000a785788860151825594840194600190910190840162000a57565b508582101562000a975787850151600019600388901b60f8161c191681555b5050505050600190811b01905550565b60006001820162000ac857634e487b7160e01b600052601160045260246000fd5b5060010190565b6130328062000adf6000396000f3fe608060405234801561001057600080fd5b506004361061025d5760003560e01c80638da5cb5b11610146578063d656efb5116100c3578063ea3875ca11610087578063ea3875ca146104df578063f14a3d56146104e7578063f242432a146104f0578063f2fde38b14610503578063f5298aca14610516578063f5dce5b91461052957600080fd5b8063d656efb514610481578063d79c66aa14610489578063dc4feb4714610492578063e7b5be391461049b578063e985e9c5146104a357600080fd5b8063afc6c6491161010a578063afc6c64914610429578063b6a8412b14610449578063b6c7caad14610451578063bd85b03914610459578063d0faf49e1461047957600080fd5b80638da5cb5b146103ec5780639750463a146103fd578063a004cbde14610405578063a22cb4651461040e578063aedd809a1461042157600080fd5b8063451450ec116101df5780634f558e79116101a35780634f558e79146103965780635456e59a146103b857806360baee5d146103c15780636b20c454146103c95780636f9e9b84146103dc578063715018a6146103e457600080fd5b8063451450ec146103275780634626402b1461033a5780634ba46639146103655780634e1273f41461036d5780634f4aabc11461038d57600080fd5b80631f7fdffa116102265780631f7fdffa146102e857806323bfdcfa146102fb5780632eb2c2d61461030457806332e5794a14610317578063442107e31461031f57600080fd5b8062fdd58e1461026257806301ffc9a71461028857806302fe5305146102ab5780630e89341c146102c05780630f068c60146102e0575b600080fd5b6102756102703660046122aa565b610532565b6040519081526020015b60405180910390f35b61029b6102963660046122ea565b6105cb565b604051901515815260200161027f565b6102be6102b93660046123ad565b61061b565b005b6102d36102ce3660046123f5565b61062f565b60405161027f919061245e565b61027560ca81565b6102be6102f6366004612525565b610660565b61027561019181565b6102be6103123660046125bd565b61067a565b610275606581565b61027560c881565b6102be610335366004612666565b6106c6565b60075461034d906001600160a01b031681565b6040516001600160a01b03909116815260200161027f565b6102be6109a5565b61038061037b366004612688565b610a35565b60405161027f919061278d565b61027561012d81565b61029b6103a43660046123f5565b600090815260046020526040902054151590565b61027561019481565b610275610b5e565b6102be6103d73660046127a0565b610e19565b610275600181565b6102be610e61565b6003546001600160a01b031661034d565b610275600381565b61027561012e81565b6102be61041c366004612821565b610e75565b610275600081565b61043c610437366004612858565b610e80565b60405161027f9190612873565b6102be611188565b6102be61123a565b6102756104673660046123f5565b60009081526004602052604090205490565b61027560c981565b610275606681565b61027561019081565b61027561019381565b610275600281565b61029b6104b13660046128d5565b6001600160a01b03918216600090815260016020908152604080832093909416825291909152205460ff1690565b610275606481565b61027561012c81565b6102be6104fe366004612908565b6112c2565b6102be610511366004612858565b611307565b6102be61052436600461296c565b61137d565b61027561019281565b60006001600160a01b0383166105a25760405162461bcd60e51b815260206004820152602a60248201527f455243313135353a2061646472657373207a65726f206973206e6f742061207660448201526930b634b21037bbb732b960b11b60648201526084015b60405180910390fd5b506000818152602081815260408083206001600160a01b03861684529091529020545b92915050565b60006001600160e01b03198216636cdb3d1360e11b14806105fc57506001600160e01b031982166303a24d0760e21b145b806105c557506301ffc9a760e01b6001600160e01b03198316146105c5565b6106236113c0565b61062c8161141a565b50565b606061063a82611426565b60405160200161064a919061299f565b6040516020818303038152906040529050919050565b6106686113c0565b6106748484848461152e565b50505050565b6001600160a01b038516331480610696575061069685336104b1565b6106b25760405162461bcd60e51b815260040161059990612a17565b6106bf8585858585611688565b5050505050565b6106d03383610532565b6000036107295760405162461bcd60e51b815260206004820152602160248201527f455243313135353a2074686973207363726f6c6c206973206e6f7420796f75726044820152607360f81b6064820152608401610599565b6107333382610532565b60000361078c5760405162461bcd60e51b815260206004820152602160248201527f455243313135353a207468697320776561706f6e206973206e6f7420796f75726044820152607360f81b6064820152608401610599565b6002610799606483612a7c565b106107f55760405162461bcd60e51b815260206004820152602660248201527f455243313135353a207468697320776561706f6e2069732066756c6c7920757060448201526519dc9859195960d21b6064820152608401610599565b6000610802606484612a7c565b60000361081157506064610875565b61081c606484612a7c565b60010361082b5750605a610875565b610836606484612a7c565b6002036108455750603c610875565b610850606484612a7c565b60030361085f5750601e610875565b61086a606484612a7c565b6004036108755750600a5b600060644260405160200161088c91815260200190565b6040516020818303038152906040528051906020012060001c6108af9190612a7c565b9050818111610959576108de336108c7856001612aa6565b600160405180602001604052806000815250611832565b6108ea3384600161191b565b6108f63385600161191b565b60105461090d906001600160a01b03166001610e75565b7f896a2d323b547f5b1499a9e580d7749e63e5e1e92d4c60962250b7c3dbbde1f0600161093a8582612aa6565b60408051921515835260208301919091520160405180910390a1610674565b6109653385600161191b565b6040805160008152602081018590527f896a2d323b547f5b1499a9e580d7749e63e5e1e92d4c60962250b7c3dbbde1f0910160405180910390a150505050565b600f546040805142602082015260009291016040516020818303038152906040528051906020012060001c6109da9190612a7c565b90506000600f82815481106109f1576109f1612ab9565b90600052602060002001549050610a1a3382600160405180602001604052806000815250611832565b601054610a31906001600160a01b03166001610e75565b5050565b60608151835114610a9a5760405162461bcd60e51b815260206004820152602960248201527f455243313135353a206163636f756e747320616e6420696473206c656e677468604482015268040dad2e6dac2e8c6d60bb1b6064820152608401610599565b600083516001600160401b03811115610ab557610ab561230e565b604051908082528060200260200182016040528015610ade578160200160208202803683370190505b50905060005b8451811015610b5657610b29858281518110610b0257610b02612ab9565b6020026020010151858381518110610b1c57610b1c612ab9565b6020026020010151610532565b828281518110610b3b57610b3b612ab9565b6020908102919091010152610b4f81612acf565b9050610ae4565b509392505050565b600c546040805142602082015260009283929091016040516020818303038152906040528051906020012060001c610b969190612a7c565b90506000600c8281548110610bad57610bad612ab9565b90600052602060002001549050610bd63382600160405180602001604052806000815250611832565b601054610bed906001600160a01b03166001610e75565b6005546006546008546000926001600160a01b03169163d83a2bf39133913091610c179190612ae8565b6040516001600160e01b031960e086901b1681526001600160a01b03938416600482015292909116602483015260448201526064016020604051808303816000875af1158015610c6b573d6000803e3d6000fd5b505050506040513d601f19601f82011682018060405250810190610c8f9190612aff565b905080610cd65760405162461bcd60e51b8152602060048201526015602482015274125b98dc99585cd950dbdb9d1c9858dd0811985a5b605a1b6044820152606401610599565b6005546007546006546008546001600160a01b03938416936323b872dd933393911691610d039190612ae8565b6040516001600160e01b031960e086901b1681526001600160a01b03938416600482015292909116602483015260448201526064016020604051808303816000875af1158015610d57573d6000803e3d6000fd5b505050506040513d601f19601f82011682018060405250810190610d7b9190612aff565b506005546007546006546008546001600160a01b0393841693631d057bd9931691600291610da99190612ae8565b610db39190612b1c565b6040516001600160e01b031960e085901b1681526001600160a01b0390921660048301526024820152604401600060405180830381600087803b158015610df957600080fd5b505af1158015610e0d573d6000803e3d6000fd5b50939695505050505050565b6001600160a01b038316331480610e355750610e3583336104b1565b610e515760405162461bcd60e51b815260040161059990612a17565b610e5c838383611a33565b505050565b610e696113c0565b610e736000611bcf565b565b610a31338383611c21565b600e546060906000906001600160401b03811115610ea057610ea061230e565b604051908082528060200260200182016040528015610ed357816020015b6060815260200190600190039081610ebe5790505b5090506000805b600e54811015610fff576000610f0d86600e8481548110610efd57610efd612ab9565b9060005260206000200154610532565b90508015610fec57604080516002808252606082018352909160208301908036833701905050848481518110610f4557610f45612ab9565b6020026020010181905250600e8281548110610f6357610f63612ab9565b9060005260206000200154848481518110610f8057610f80612ab9565b6020026020010151600081518110610f9a57610f9a612ab9565b60200260200101818152505080848481518110610fb957610fb9612ab9565b6020026020010151600181518110610fd357610fd3612ab9565b602090810291909101015282610fe881612acf565b9350505b5080610ff781612acf565b915050610eda565b506000816001600160401b0381111561101a5761101a61230e565b60405190808252806020026020018201604052801561104d57816020015b60608152602001906001900390816110385790505b50905060005b8281101561117f5760408051600280825260608201835290916020830190803683370190505082828151811061108b5761108b612ab9565b60200260200101819052508381815181106110a8576110a8612ab9565b60200260200101516000815181106110c2576110c2612ab9565b60200260200101518282815181106110dc576110dc612ab9565b60200260200101516000815181106110f6576110f6612ab9565b60200260200101818152505083818151811061111457611114612ab9565b602002602001015160018151811061112e5761112e612ab9565b602002602001015182828151811061114857611148612ab9565b602002602001015160018151811061116257611162612ab9565b60209081029190910101528061117781612acf565b915050611053565b50949350505050565b61119133610e80565b51156111ee5760405162461bcd60e51b815260206004820152602660248201527f455243313135353a20796f7520616c72656164792068617665206669727374206044820152653bb2b0b837b760d11b6064820152608401610599565b600d546040805142602082015260009291016040516020818303038152906040528051906020012060001c6112239190612a7c565b90506000600d82815481106109f1576109f1612ab9565b60006112466064611d01565b9050600b548111611291576112596109a5565b604051600181527f2fd7ddc66024269a8ffcc6d25e0450ec3d4a65d5f051e9eaebc091acc5c2a159906020015b60405180910390a150565b604051600081527f2fd7ddc66024269a8ffcc6d25e0450ec3d4a65d5f051e9eaebc091acc5c2a15990602001611286565b6001600160a01b0385163314806112de57506112de85336104b1565b6112fa5760405162461bcd60e51b815260040161059990612a17565b6106bf8585858585611d6e565b61130f6113c0565b6001600160a01b0381166113745760405162461bcd60e51b815260206004820152602660248201527f4f776e61626c653a206e6577206f776e657220697320746865207a65726f206160448201526564647265737360d01b6064820152608401610599565b61062c81611bcf565b6001600160a01b038316331480611399575061139983336104b1565b6113b55760405162461bcd60e51b815260040161059990612a17565b610e5c83838361191b565b6003546001600160a01b03163314610e735760405162461bcd60e51b815260206004820181905260248201527f4f776e61626c653a2063616c6c6572206973206e6f7420746865206f776e65726044820152606401610599565b6002610a318282612bb0565b60608160000361144d5750506040805180820190915260018152600360fc1b602082015290565b8160005b8115611477578061146181612acf565b91506114709050600a83612b1c565b9150611451565b6000816001600160401b038111156114915761149161230e565b6040519080825280601f01601f1916602001820160405280156114bb576020820181803683370190505b5090505b8415611526576114d0600183612c6f565b91506114dd600a86612a7c565b6114e8906030612aa6565b60f81b8183815181106114fd576114fd612ab9565b60200101906001600160f81b031916908160001a90535061151f600a86612b1c565b94506114bf565b949350505050565b6001600160a01b0384166115545760405162461bcd60e51b815260040161059990612c82565b81518351146115755760405162461bcd60e51b815260040161059990612cc3565b3361158581600087878787611ea6565b60005b8451811015611620578381815181106115a3576115a3612ab9565b60200260200101516000808784815181106115c0576115c0612ab9565b602002602001015181526020019081526020016000206000886001600160a01b03166001600160a01b0316815260200190815260200160002060008282546116089190612aa6565b9091555081905061161881612acf565b915050611588565b50846001600160a01b031660006001600160a01b0316826001600160a01b03167f4a39dc06d4c0dbc64b70af90fd698a233a518aa5d07e595d983b8c0526c8f7fb8787604051611671929190612d0b565b60405180910390a46106bf81600087878787611eb4565b81518351146116a95760405162461bcd60e51b815260040161059990612cc3565b6001600160a01b0384166116cf5760405162461bcd60e51b815260040161059990612d39565b336116de818787878787611ea6565b60005b84518110156117c45760008582815181106116fe576116fe612ab9565b60200260200101519050600085838151811061171c5761171c612ab9565b602090810291909101810151600084815280835260408082206001600160a01b038e16835290935291909120549091508181101561176c5760405162461bcd60e51b815260040161059990612d7e565b6000838152602081815260408083206001600160a01b038e8116855292528083208585039055908b168252812080548492906117a9908490612aa6565b92505081905550505050806117bd90612acf565b90506116e1565b50846001600160a01b0316866001600160a01b0316826001600160a01b03167f4a39dc06d4c0dbc64b70af90fd698a233a518aa5d07e595d983b8c0526c8f7fb8787604051611814929190612d0b565b60405180910390a461182a818787878787611eb4565b505050505050565b6001600160a01b0384166118585760405162461bcd60e51b815260040161059990612c82565b3360006118648561200f565b905060006118718561200f565b905061188283600089858589611ea6565b6000868152602081815260408083206001600160a01b038b168452909152812080548792906118b2908490612aa6565b909155505060408051878152602081018790526001600160a01b03808a1692600092918716917fc3d58168c5ae7397731d063d5bbf3d657854427343f4c083240f7aacaa2d0f62910160405180910390a46119128360008989898961205a565b50505050505050565b6001600160a01b0383166119415760405162461bcd60e51b815260040161059990612dc8565b33600061194d8461200f565b9050600061195a8461200f565b905061197a83876000858560405180602001604052806000815250611ea6565b6000858152602081815260408083206001600160a01b038a168452909152902054848110156119bb5760405162461bcd60e51b815260040161059990612e0b565b6000868152602081815260408083206001600160a01b038b81168086529184528285208a8703905582518b81529384018a90529092908816917fc3d58168c5ae7397731d063d5bbf3d657854427343f4c083240f7aacaa2d0f62910160405180910390a4604080516020810190915260009052611912565b6001600160a01b038316611a595760405162461bcd60e51b815260040161059990612dc8565b8051825114611a7a5760405162461bcd60e51b815260040161059990612cc3565b6000339050611a9d81856000868660405180602001604052806000815250611ea6565b60005b8351811015611b62576000848281518110611abd57611abd612ab9565b602002602001015190506000848381518110611adb57611adb612ab9565b602090810291909101810151600084815280835260408082206001600160a01b038c168352909352919091205490915081811015611b2b5760405162461bcd60e51b815260040161059990612e0b565b6000928352602083815260408085206001600160a01b038b1686529091529092209103905580611b5a81612acf565b915050611aa0565b5060006001600160a01b0316846001600160a01b0316826001600160a01b03167f4a39dc06d4c0dbc64b70af90fd698a233a518aa5d07e595d983b8c0526c8f7fb8686604051611bb3929190612d0b565b60405180910390a4604080516020810190915260009052610674565b600380546001600160a01b038381166001600160a01b0319831681179093556040519116919082907f8be0079c531659141344cd1fd0a4f28419497f9722a3daafe3b4186f6b6457e090600090a35050565b816001600160a01b0316836001600160a01b031603611c945760405162461bcd60e51b815260206004820152602960248201527f455243313135353a2073657474696e6720617070726f76616c20737461747573604482015268103337b91039b2b63360b91b6064820152608401610599565b6001600160a01b03838116600081815260016020908152604080832094871680845294825291829020805460ff191686151590811790915591519182527f17307eab39ab6107e8899845ad3d59bd9653f200f220920489ca2b5937696c31910160405180910390a3505050565b600a805460009182611d1283612acf565b9091555050600a54604080514260208201526bffffffffffffffffffffffff193360601b1691810191909152605481019190915282906074016040516020818303038152906040528051906020012060001c6105c59190612a7c565b6001600160a01b038416611d945760405162461bcd60e51b815260040161059990612d39565b336000611da08561200f565b90506000611dad8561200f565b9050611dbd838989858589611ea6565b6000868152602081815260408083206001600160a01b038c16845290915290205485811015611dfe5760405162461bcd60e51b815260040161059990612d7e565b6000878152602081815260408083206001600160a01b038d8116855292528083208985039055908a16825281208054889290611e3b908490612aa6565b909155505060408051888152602081018890526001600160a01b03808b16928c821692918816917fc3d58168c5ae7397731d063d5bbf3d657854427343f4c083240f7aacaa2d0f62910160405180910390a4611e9b848a8a8a8a8a61205a565b505050505050505050565b61182a868686868686612115565b6001600160a01b0384163b1561182a5760405163bc197c8160e01b81526001600160a01b0385169063bc197c8190611ef89089908990889088908890600401612e4f565b6020604051808303816000875af1925050508015611f33575060408051601f3d908101601f19168201909252611f3091810190612ead565b60015b611fdf57611f3f612eca565b806308c379a003611f785750611f53612ee6565b80611f5e5750611f7a565b8060405162461bcd60e51b8152600401610599919061245e565b505b60405162461bcd60e51b815260206004820152603460248201527f455243313135353a207472616e7366657220746f206e6f6e20455243313135356044820152732932b1b2b4bb32b91034b6b83632b6b2b73a32b960611b6064820152608401610599565b6001600160e01b0319811663bc197c8160e01b146119125760405162461bcd60e51b815260040161059990612f6f565b6040805160018082528183019092526060916000919060208083019080368337019050509050828160008151811061204957612049612ab9565b602090810291909101015292915050565b6001600160a01b0384163b1561182a5760405163f23a6e6160e01b81526001600160a01b0385169063f23a6e619061209e9089908990889088908890600401612fb7565b6020604051808303816000875af19250505080156120d9575060408051601f3d908101601f191682019092526120d691810190612ead565b60015b6120e557611f3f612eca565b6001600160e01b0319811663f23a6e6160e01b146119125760405162461bcd60e51b815260040161059990612f6f565b6001600160a01b03851661219c5760005b835181101561219a5782818151811061214157612141612ab9565b60200260200101516004600086848151811061215f5761215f612ab9565b6020026020010151815260200190815260200160002060008282546121849190612aa6565b90915550612193905081612acf565b9050612126565b505b6001600160a01b03841661182a5760005b83518110156119125760008482815181106121ca576121ca612ab9565b6020026020010151905060008483815181106121e8576121e8612ab9565b602002602001015190506000600460008481526020019081526020016000205490508181101561226b5760405162461bcd60e51b815260206004820152602860248201527f455243313135353a206275726e20616d6f756e74206578636565647320746f74604482015267616c537570706c7960c01b6064820152608401610599565b6000928352600460205260409092209103905561228781612acf565b90506121ad565b80356001600160a01b03811681146122a557600080fd5b919050565b600080604083850312156122bd57600080fd5b6122c68361228e565b946020939093013593505050565b6001600160e01b03198116811461062c57600080fd5b6000602082840312156122fc57600080fd5b8135612307816122d4565b9392505050565b634e487b7160e01b600052604160045260246000fd5b601f8201601f191681016001600160401b03811182821017156123495761234961230e565b6040525050565b60006001600160401b038311156123695761236961230e565b604051612380601f8501601f191660200182612324565b80915083815284848401111561239557600080fd5b83836020830137600060208583010152509392505050565b6000602082840312156123bf57600080fd5b81356001600160401b038111156123d557600080fd5b8201601f810184136123e657600080fd5b61152684823560208401612350565b60006020828403121561240757600080fd5b5035919050565b60005b83811015612429578181015183820152602001612411565b50506000910152565b6000815180845261244a81602086016020860161240e565b601f01601f19169290920160200192915050565b6020815260006123076020830184612432565b60006001600160401b0382111561248a5761248a61230e565b5060051b60200190565b600082601f8301126124a557600080fd5b813560206124b282612471565b6040516124bf8282612324565b83815260059390931b85018201928281019150868411156124df57600080fd5b8286015b848110156124fa57803583529183019183016124e3565b509695505050505050565b600082601f83011261251657600080fd5b61230783833560208501612350565b6000806000806080858703121561253b57600080fd5b6125448561228e565b935060208501356001600160401b038082111561256057600080fd5b61256c88838901612494565b9450604087013591508082111561258257600080fd5b61258e88838901612494565b935060608701359150808211156125a457600080fd5b506125b187828801612505565b91505092959194509250565b600080600080600060a086880312156125d557600080fd5b6125de8661228e565b94506125ec6020870161228e565b935060408601356001600160401b038082111561260857600080fd5b61261489838a01612494565b9450606088013591508082111561262a57600080fd5b61263689838a01612494565b9350608088013591508082111561264c57600080fd5b5061265988828901612505565b9150509295509295909350565b6000806040838503121561267957600080fd5b50508035926020909101359150565b6000806040838503121561269b57600080fd5b82356001600160401b03808211156126b257600080fd5b818501915085601f8301126126c657600080fd5b813560206126d382612471565b6040516126e08282612324565b83815260059390931b850182019282810191508984111561270057600080fd5b948201945b83861015612725576127168661228e565b82529482019490820190612705565b9650508601359250508082111561273b57600080fd5b5061274885828601612494565b9150509250929050565b600081518084526020808501945080840160005b8381101561278257815187529582019590820190600101612766565b509495945050505050565b6020815260006123076020830184612752565b6000806000606084860312156127b557600080fd5b6127be8461228e565b925060208401356001600160401b03808211156127da57600080fd5b6127e687838801612494565b935060408601359150808211156127fc57600080fd5b5061280986828701612494565b9150509250925092565b801515811461062c57600080fd5b6000806040838503121561283457600080fd5b61283d8361228e565b9150602083013561284d81612813565b809150509250929050565b60006020828403121561286a57600080fd5b6123078261228e565b6000602080830181845280855180835260408601915060408160051b870101925083870160005b828110156128c857603f198886030184526128b6858351612752565b9450928501929085019060010161289a565b5092979650505050505050565b600080604083850312156128e857600080fd5b6128f18361228e565b91506128ff6020840161228e565b90509250929050565b600080600080600060a0868803121561292057600080fd5b6129298661228e565b94506129376020870161228e565b9350604086013592506060860135915060808601356001600160401b0381111561296057600080fd5b61265988828901612505565b60008060006060848603121561298157600080fd5b61298a8461228e565b95602085013595506040909401359392505050565b7f68747470733a2f2f697066732e696f2f697066732f516d556b5555574269736981527f46613958556b3475634a6944723266766b3274447231784472436b45463646466020820152634346382f60e01b604082015260008251612a0a81604485016020870161240e565b9190910160440192915050565b6020808252602f908201527f455243313135353a2063616c6c6572206973206e6f7420746f6b656e206f776e60408201526e195c881b9bdc88185c1c1c9bdd9959608a1b606082015260800190565b634e487b7160e01b600052601260045260246000fd5b600082612a8b57612a8b612a66565b500690565b634e487b7160e01b600052601160045260246000fd5b808201808211156105c5576105c5612a90565b634e487b7160e01b600052603260045260246000fd5b600060018201612ae157612ae1612a90565b5060010190565b80820281158282048414176105c5576105c5612a90565b600060208284031215612b1157600080fd5b815161230781612813565b600082612b2b57612b2b612a66565b500490565b600181811c90821680612b4457607f821691505b602082108103612b6457634e487b7160e01b600052602260045260246000fd5b50919050565b601f821115610e5c57600081815260208120601f850160051c81016020861015612b915750805b601f850160051c820191505b8181101561182a57828155600101612b9d565b81516001600160401b03811115612bc957612bc961230e565b612bdd81612bd78454612b30565b84612b6a565b602080601f831160018114612c125760008415612bfa5750858301515b600019600386901b1c1916600185901b17855561182a565b600085815260208120601f198616915b82811015612c4157888601518255948401946001909101908401612c22565b5085821015612c5f5787850151600019600388901b60f8161c191681555b5050505050600190811b01905550565b818103818111156105c5576105c5612a90565b60208082526021908201527f455243313135353a206d696e7420746f20746865207a65726f206164647265736040820152607360f81b606082015260800190565b60208082526028908201527f455243313135353a2069647320616e6420616d6f756e7473206c656e677468206040820152670dad2e6dac2e8c6d60c31b606082015260800190565b604081526000612d1e6040830185612752565b8281036020840152612d308185612752565b95945050505050565b60208082526025908201527f455243313135353a207472616e7366657220746f20746865207a65726f206164604082015264647265737360d81b606082015260800190565b6020808252602a908201527f455243313135353a20696e73756666696369656e742062616c616e636520666f60408201526939103a3930b739b332b960b11b606082015260800190565b60208082526023908201527f455243313135353a206275726e2066726f6d20746865207a65726f206164647260408201526265737360e81b606082015260800190565b60208082526024908201527f455243313135353a206275726e20616d6f756e7420657863656564732062616c604082015263616e636560e01b606082015260800190565b6001600160a01b0386811682528516602082015260a060408201819052600090612e7b90830186612752565b8281036060840152612e8d8186612752565b90508281036080840152612ea18185612432565b98975050505050505050565b600060208284031215612ebf57600080fd5b8151612307816122d4565b600060033d1115612ee35760046000803e5060005160e01c5b90565b600060443d1015612ef45790565b6040516003193d81016004833e81513d6001600160401b038160248401118184111715612f2357505050505090565b8285019150815181811115612f3b5750505050505090565b843d8701016020828501011115612f555750505050505090565b612f6460208286010187612324565b509095945050505050565b60208082526028908201527f455243313135353a204552433131353552656365697665722072656a656374656040820152676420746f6b656e7360c01b606082015260800190565b6001600160a01b03868116825285166020820152604081018490526060810183905260a060808201819052600090612ff190830184612432565b97965050505050505056fea2646970667358221220942af90cc19552d4a4c940de3708642e698b033554f7500da88c0a8f79036b1b64736f6c63430008110033df6966c971051c3d54ec59162606531493a51404a002842f56009d7e5cf4a8c7697066733a2f2f516d556b5555574269736946613958556b3475634a6944723266766b3274447231784472436b45463646464346382f7b69647d8d1108e10bcb7c27dddfc02ed9d693a074039d026cf4ea4240b40f7d581ac802",
  "immutableReferences": {},
  "source": "// SPDX-License-Identifier: MIT\npragma solidity ^0.8.4;\n\nimport \"@openzeppelin/contracts/token/ERC1155/ERC1155.sol\";\nimport \"@openzeppelin/contracts/access/Ownable.sol\";\nimport \"@openzeppelin/contracts/token/ERC1155/extensions/ERC1155Burnable.sol\";\nimport \"@openzeppelin/contracts/token/ERC1155/extensions/ERC1155Supply.sol\";\nimport \"@openzeppelin/contracts/utils/Strings.sol\";\nimport \"./JMToken.sol\";\n\ncontract MapleItems is ERC1155, Ownable, ERC1155Burnable, ERC1155Supply {\n    JMToken private token;\n    uint256 decimals = 10**18;\n    address payable public treasuryWallet; //  !\n    uint256 private mintPrice;\n    uint256 private maxStrength;\n    uint randNum = 0;\n    uint rewardProbability = 70;\n\n    uint256[] private waitForMint;\n    uint256[] private firstMint;\n    uint256[] private itemCheck;\n    uint256[] private scrollMint;\n    address private marketContractAddress;\n\n    uint256 public constant SWORD0 = 0;\n    uint256 public constant SWORD1 = 1;\n    uint256 public constant SWORD2 = 2;\n    uint256 public constant SWORD3 = 3;\n\n    uint256 public constant BOW0 = 100;\n    uint256 public constant BOW1 = 101;\n    uint256 public constant BOW2 = 102;\n\n    uint256 public constant STAFF0 = 200;\n    uint256 public constant STAFF1 = 201;\n    uint256 public constant STAFF2 = 202;\n\n    uint256 public constant POLEARM0 = 300;\n    uint256 public constant POLEARM1 = 301;\n    uint256 public constant POLEARM2 = 302;\n\n    uint256 public constant SCROLL100 = 400;\n    uint256 public constant SCROLL90 = 401;\n    uint256 public constant SCROLL60 = 402;\n    uint256 public constant SCROLL30 = 403;\n    uint256 public constant SCROLL10 = 404;\n    \n    event Upgraded(bool result, uint256 weaponId);\n    event Rewarded(bool result);\n\n    constructor(\n        address _marketAddress,\n        address _tokenContractAddress,\n        address payable _treasuryWallet) \n        ERC1155(\"ipfs://QmUkUUWBisiFa9XUk4ucJiDr2fvk2tDr1xDrCkEF6FFCF8/{id}\") {\n        mintPrice = 1;\n        maxStrength = 2;\n        marketContractAddress = _marketAddress;\n        _setToken(_tokenContractAddress);\n        _generateWeaponArray();\n        _generatefirstWeapon();\n        _generateItemCheck();\n        _generateScrollArray();\n        \n        treasuryWallet = _treasuryWallet;\n    }\n\n    function uri(uint256 _tokenid) override public pure returns (string memory) {\n        return string(\n            abi.encodePacked(\n                \"https://ipfs.io/ipfs/QmUkUUWBisiFa9XUk4ucJiDr2fvk2tDr1xDrCkEF6FFCF8/\",\n                Strings.toString(_tokenid)\n            )\n        );\n    }\n\n    function setURI(string memory newuri) public onlyOwner {\n        _setURI(newuri);\n    }\n\n    function _generateWeaponArray() private onlyOwner{\n        for (uint256 i = 0; i < 4; i++ ){\n            waitForMint.push(SWORD0); \n        }\n        for (uint256 i = 0; i < 3; i++ ){\n            waitForMint.push(SWORD1);\n        }\n        for (uint256 i = 0; i < 2; i++ ){\n            waitForMint.push(SWORD2); \n        }\n        for (uint256 i = 0; i < 1; i++ ){\n            waitForMint.push(SWORD3); \n        }\n        \n        for (uint256 i = 0; i < 4; i++ ){\n            waitForMint.push(BOW0); \n        }\n        for (uint256 i = 0; i < 3; i++ ){\n            waitForMint.push(BOW1);\n        }\n        for (uint256 i = 0; i < 2; i++ ){\n            waitForMint.push(BOW2); \n        }\n\n        for (uint256 i = 0; i < 4; i++ ){\n            waitForMint.push(STAFF0); \n        }\n        for (uint256 i = 0; i < 3; i++ ){\n            waitForMint.push(STAFF1);\n        }\n        for (uint256 i = 0; i < 2; i++ ){\n            waitForMint.push(STAFF2); \n        }\n\n        for (uint256 i = 0; i < 4; i++ ){\n            waitForMint.push(POLEARM0); \n        }\n        for (uint256 i = 0; i < 3; i++ ){\n            waitForMint.push(POLEARM1);\n        }\n        for (uint256 i = 0; i < 2; i++ ){\n            waitForMint.push(POLEARM2); \n        }\n    }\n\n    function _generatefirstWeapon() private onlyOwner{\n        firstMint.push(SWORD0); \n        firstMint.push(BOW0); \n        firstMint.push(STAFF0); \n        firstMint.push(POLEARM0); \n    }\n\n    function _generateItemCheck() private onlyOwner{\n        itemCheck.push(SWORD0);\n        itemCheck.push(SWORD1);\n        itemCheck.push(SWORD2);\n        itemCheck.push(SWORD3);\n\n        itemCheck.push(BOW0);\n        itemCheck.push(BOW1);\n        itemCheck.push(BOW2);\n\n        itemCheck.push(STAFF0);\n        itemCheck.push(STAFF1);\n        itemCheck.push(STAFF2);\n\n        itemCheck.push(POLEARM0);\n        itemCheck.push(POLEARM1);\n        itemCheck.push(POLEARM2);\n\n        itemCheck.push(SCROLL100);\n        itemCheck.push(SCROLL90);\n        itemCheck.push(SCROLL60);\n        itemCheck.push(SCROLL30);\n        itemCheck.push(SCROLL10);\n    }\n\n    function _generateScrollArray() private onlyOwner{\n        for (uint256 i = 0; i < 1; i++ ){\n            scrollMint.push(SCROLL100); \n        }\n        for (uint256 i = 0; i < 2; i++ ){\n            scrollMint.push(SCROLL90);\n        }\n        for (uint256 i = 0; i < 4; i++ ){\n            scrollMint.push(SCROLL60); \n        }\n        for (uint256 i = 0; i < 6; i++ ){\n            scrollMint.push(SCROLL30); \n        }\n        for (uint256 i = 0; i < 7; i++ ){\n            scrollMint.push(SCROLL10); \n        }\n    }\n\n    function mintFirstWeapon() public {\n        require(balanceCheck(msg.sender).length==0, \"ERC1155: you already have first weapon\");\n\n        uint256 n = uint256(keccak256(abi.encodePacked(block.timestamp))) % (firstMint.length);\n        uint id = firstMint[n];\n        \n        _mint(msg.sender, id, 1, \"\");\n        setApprovalForAll(marketContractAddress, true);\n    }\n\n    function mintRandomWeapon() public returns (uint256){  \n        uint256 n = uint256(keccak256(abi.encodePacked(block.timestamp))) % (waitForMint.length);\n        uint256 id = waitForMint[n];\n        \n        _mint(msg.sender, id, 1, \"\");\n        setApprovalForAll(marketContractAddress, true);\n        \n        //   \n        bool success = token.increaseContractAllowance(\n            msg.sender, \n            address(this),\n            mintPrice * decimals\n        );\n        require(success,\"IncreaseContract Fail\");\n        token.transferFrom(msg.sender, treasuryWallet, mintPrice * decimals); \n        token.marketBurn(treasuryWallet, (mintPrice * decimals)/2);\n\n        return id;\n    }\n\n    function mintScroll() public {\n        uint256 n = uint256(keccak256(abi.encodePacked(block.timestamp))) % (scrollMint.length);\n        uint id = scrollMint[n];\n        \n        _mint(msg.sender, id, 1, \"\");\n        setApprovalForAll(marketContractAddress, true);\n    }\n\n    function upgrade(uint256 scrollId, uint256 weaponId) public {\n        require(balanceOf(msg.sender, scrollId)!=0, \"ERC1155: this scroll is not yours\");\n        require(balanceOf(msg.sender, weaponId)!=0, \"ERC1155: this weapon is not yours\");\n        require(weaponId%100<2, \"ERC1155: this weapon is fully upgraded\");\n        uint256 scrollRate;\n\n        if(scrollId%100==0){\n            scrollRate = 100;\n        }else if(scrollId%100==1){\n            scrollRate = 90;\n        }else if(scrollId%100==2){\n            scrollRate = 60;\n        }else if(scrollId%100==3){\n            scrollRate = 30;\n        }else if(scrollId%100==4){\n            scrollRate = 10;\n        }\n\n        uint256 n = uint256(keccak256(abi.encodePacked(block.timestamp))) % 100;\n        if(n<=scrollRate){\n            _mint(msg.sender, weaponId+1, 1, \"\");\n            _burn(msg.sender, weaponId, 1);\n            _burn(msg.sender, scrollId, 1);\n            setApprovalForAll(marketContractAddress, true);\n            emit Upgraded(true, weaponId+1);\n        } else{\n            _burn(msg.sender, scrollId, 1);\n            emit Upgraded(false, weaponId);\n        }        \n    }\n\n    function mintBatch(address to, uint256[] memory ids, uint256[] memory amounts, bytes memory data)\n        public\n        onlyOwner\n    {\n        _mintBatch(to, ids, amounts, data);\n    }\n\n    function balanceCheck(address sender) public returns(uint256[][] memory){\n        uint256[][] memory balance = new uint256[][](itemCheck.length);\n        uint256 count = 0;\n\n        for(uint256 i=0; i<itemCheck.length; i++){\n            uint256 mybalance = balanceOf(sender, itemCheck[i]); \n            if(mybalance!=0){\n                balance[count] = new uint256[](2);\n                balance[count][0] = itemCheck[i];\n                balance[count][1] = mybalance;\n                count++;\n            }            \n        }\n\n        uint256[][] memory result = new uint256[][](count);\n        for(uint256 i=0; i<count; i++){\n            result[i] = new uint256[](2);\n            result[i][0] = balance[i][0];\n            result[i][1] = balance[i][1];\n        }\n\n        return result;\n    }\n    \n    function _setToken(address _tokenAddress) private onlyOwner returns (bool) {\n        require(_tokenAddress != address(0x0));\n        token = JMToken(_tokenAddress);\n        return true;\n    }\n    // The following functions are overrides required by Solidity.\n\n    function _beforeTokenTransfer(address operator, address from, address to, uint256[] memory ids, uint256[] memory amounts, bytes memory data)\n        internal\n        override(ERC1155, ERC1155Supply)\n    {\n        super._beforeTokenTransfer(operator, from, to, ids, amounts, data);\n    }\n\n    //   ( )\n    function randMod(uint _modulus) internal returns(uint) { // \n        randNum++;\n        return uint(keccak256(abi.encodePacked(block.timestamp, msg.sender, randNum))) % _modulus;\n    }\n\n    function randRewardScroll() external {\n        uint rand = randMod(100);\n        if ( rand <= rewardProbability ) {// 70%    \n            mintScroll();\n            emit Rewarded(true);\n        } else {\n            emit Rewarded(false);\n        }\n    }\n}",
  "sourcePath": "/Users/rokrokss/workspace/hyein/BEB-05-JMT/contract/contracts/MapleItems.sol",
  "compiler": {
    "name": "solc",
    "version": "0.8.17+commit.8df45f5f.Emscripten.clang"
  },
  "schemaVersion": "3.4.10",
  "updatedAt": "2022-09-27T04:27:19.988Z",
  "networkType": "ethereum",
  "devdoc": {
    "kind": "dev",
    "methods": {
      "balanceOf(address,uint256)": {
        "details": "See {IERC1155-balanceOf}. Requirements: - `account` cannot be the zero address."
      },
      "balanceOfBatch(address[],uint256[])": {
        "details": "See {IERC1155-balanceOfBatch}. Requirements: - `accounts` and `ids` must have the same length."
      },
      "exists(uint256)": {
        "details": "Indicates whether any token exist with a given id, or not."
      },
      "isApprovedForAll(address,address)": {
        "details": "See {IERC1155-isApprovedForAll}."
      },
      "owner()": {
        "details": "Returns the address of the current owner."
      },
      "renounceOwnership()": {
        "details": "Leaves the contract without owner. It will not be possible to call `onlyOwner` functions anymore. Can only be called by the current owner. NOTE: Renouncing ownership will leave the contract without an owner, thereby removing any functionality that is only available to the owner."
      },
      "safeBatchTransferFrom(address,address,uint256[],uint256[],bytes)": {
        "details": "See {IERC1155-safeBatchTransferFrom}."
      },
      "safeTransferFrom(address,address,uint256,uint256,bytes)": {
        "details": "See {IERC1155-safeTransferFrom}."
      },
      "setApprovalForAll(address,bool)": {
        "details": "See {IERC1155-setApprovalForAll}."
      },
      "supportsInterface(bytes4)": {
        "details": "See {IERC165-supportsInterface}."
      },
      "totalSupply(uint256)": {
        "details": "Total amount of tokens in with a given id."
      },
      "transferOwnership(address)": {
        "details": "Transfers ownership of the contract to a new account (`newOwner`). Can only be called by the current owner."
      }
    },
    "version": 1
  },
  "userdoc": {
    "kind": "user",
    "methods": {},
    "version": 1
  }
}