{
  "contractName": "MapleItems",
  "abi": [
    {
      "inputs": [
        {
          "internalType": "address",
          "name": "_marketAddress",
          "type": "address"
        },
        {
          "internalType": "address",
          "name": "_tokenContractAddress",
          "type": "address"
        },
        {
          "internalType": "address payable",
          "name": "_treasuryWallet",
          "type": "address"
        }
      ],
      "stateMutability": "nonpayable",
      "type": "constructor"
    },
    {
      "anonymous": false,
      "inputs": [
        {
          "indexed": true,
          "internalType": "address",
          "name": "account",
          "type": "address"
        },
        {
          "indexed": true,
          "internalType": "address",
          "name": "operator",
          "type": "address"
        },
        {
          "indexed": false,
          "internalType": "bool",
          "name": "approved",
          "type": "bool"
        }
      ],
      "name": "ApprovalForAll",
      "type": "event"
    },
    {
      "anonymous": false,
      "inputs": [
        {
          "indexed": true,
          "internalType": "address",
          "name": "previousOwner",
          "type": "address"
        },
        {
          "indexed": true,
          "internalType": "address",
          "name": "newOwner",
          "type": "address"
        }
      ],
      "name": "OwnershipTransferred",
      "type": "event"
    },
    {
      "anonymous": false,
      "inputs": [
        {
          "indexed": false,
          "internalType": "bool",
          "name": "result",
          "type": "bool"
        }
      ],
      "name": "Rewarded",
      "type": "event"
    },
    {
      "anonymous": false,
      "inputs": [
        {
          "indexed": true,
          "internalType": "address",
          "name": "operator",
          "type": "address"
        },
        {
          "indexed": true,
          "internalType": "address",
          "name": "from",
          "type": "address"
        },
        {
          "indexed": true,
          "internalType": "address",
          "name": "to",
          "type": "address"
        },
        {
          "indexed": false,
          "internalType": "uint256[]",
          "name": "ids",
          "type": "uint256[]"
        },
        {
          "indexed": false,
          "internalType": "uint256[]",
          "name": "values",
          "type": "uint256[]"
        }
      ],
      "name": "TransferBatch",
      "type": "event"
    },
    {
      "anonymous": false,
      "inputs": [
        {
          "indexed": true,
          "internalType": "address",
          "name": "operator",
          "type": "address"
        },
        {
          "indexed": true,
          "internalType": "address",
          "name": "from",
          "type": "address"
        },
        {
          "indexed": true,
          "internalType": "address",
          "name": "to",
          "type": "address"
        },
        {
          "indexed": false,
          "internalType": "uint256",
          "name": "id",
          "type": "uint256"
        },
        {
          "indexed": false,
          "internalType": "uint256",
          "name": "value",
          "type": "uint256"
        }
      ],
      "name": "TransferSingle",
      "type": "event"
    },
    {
      "anonymous": false,
      "inputs": [
        {
          "indexed": false,
          "internalType": "string",
          "name": "value",
          "type": "string"
        },
        {
          "indexed": true,
          "internalType": "uint256",
          "name": "id",
          "type": "uint256"
        }
      ],
      "name": "URI",
      "type": "event"
    },
    {
      "anonymous": false,
      "inputs": [
        {
          "indexed": false,
          "internalType": "bool",
          "name": "result",
          "type": "bool"
        },
        {
          "indexed": false,
          "internalType": "uint256",
          "name": "weaponId",
          "type": "uint256"
        }
      ],
      "name": "Upgraded",
      "type": "event"
    },
    {
      "inputs": [],
      "name": "BOW0",
      "outputs": [
        {
          "internalType": "uint256",
          "name": "",
          "type": "uint256"
        }
      ],
      "stateMutability": "view",
      "type": "function"
    },
    {
      "inputs": [],
      "name": "BOW1",
      "outputs": [
        {
          "internalType": "uint256",
          "name": "",
          "type": "uint256"
        }
      ],
      "stateMutability": "view",
      "type": "function"
    },
    {
      "inputs": [],
      "name": "BOW2",
      "outputs": [
        {
          "internalType": "uint256",
          "name": "",
          "type": "uint256"
        }
      ],
      "stateMutability": "view",
      "type": "function"
    },
    {
      "inputs": [],
      "name": "POLEARM0",
      "outputs": [
        {
          "internalType": "uint256",
          "name": "",
          "type": "uint256"
        }
      ],
      "stateMutability": "view",
      "type": "function"
    },
    {
      "inputs": [],
      "name": "POLEARM1",
      "outputs": [
        {
          "internalType": "uint256",
          "name": "",
          "type": "uint256"
        }
      ],
      "stateMutability": "view",
      "type": "function"
    },
    {
      "inputs": [],
      "name": "POLEARM2",
      "outputs": [
        {
          "internalType": "uint256",
          "name": "",
          "type": "uint256"
        }
      ],
      "stateMutability": "view",
      "type": "function"
    },
    {
      "inputs": [],
      "name": "SCROLL10",
      "outputs": [
        {
          "internalType": "uint256",
          "name": "",
          "type": "uint256"
        }
      ],
      "stateMutability": "view",
      "type": "function"
    },
    {
      "inputs": [],
      "name": "SCROLL100",
      "outputs": [
        {
          "internalType": "uint256",
          "name": "",
          "type": "uint256"
        }
      ],
      "stateMutability": "view",
      "type": "function"
    },
    {
      "inputs": [],
      "name": "SCROLL30",
      "outputs": [
        {
          "internalType": "uint256",
          "name": "",
          "type": "uint256"
        }
      ],
      "stateMutability": "view",
      "type": "function"
    },
    {
      "inputs": [],
      "name": "SCROLL60",
      "outputs": [
        {
          "internalType": "uint256",
          "name": "",
          "type": "uint256"
        }
      ],
      "stateMutability": "view",
      "type": "function"
    },
    {
      "inputs": [],
      "name": "SCROLL90",
      "outputs": [
        {
          "internalType": "uint256",
          "name": "",
          "type": "uint256"
        }
      ],
      "stateMutability": "view",
      "type": "function"
    },
    {
      "inputs": [],
      "name": "STAFF0",
      "outputs": [
        {
          "internalType": "uint256",
          "name": "",
          "type": "uint256"
        }
      ],
      "stateMutability": "view",
      "type": "function"
    },
    {
      "inputs": [],
      "name": "STAFF1",
      "outputs": [
        {
          "internalType": "uint256",
          "name": "",
          "type": "uint256"
        }
      ],
      "stateMutability": "view",
      "type": "function"
    },
    {
      "inputs": [],
      "name": "STAFF2",
      "outputs": [
        {
          "internalType": "uint256",
          "name": "",
          "type": "uint256"
        }
      ],
      "stateMutability": "view",
      "type": "function"
    },
    {
      "inputs": [],
      "name": "SWORD0",
      "outputs": [
        {
          "internalType": "uint256",
          "name": "",
          "type": "uint256"
        }
      ],
      "stateMutability": "view",
      "type": "function"
    },
    {
      "inputs": [],
      "name": "SWORD1",
      "outputs": [
        {
          "internalType": "uint256",
          "name": "",
          "type": "uint256"
        }
      ],
      "stateMutability": "view",
      "type": "function"
    },
    {
      "inputs": [],
      "name": "SWORD2",
      "outputs": [
        {
          "internalType": "uint256",
          "name": "",
          "type": "uint256"
        }
      ],
      "stateMutability": "view",
      "type": "function"
    },
    {
      "inputs": [],
      "name": "SWORD3",
      "outputs": [
        {
          "internalType": "uint256",
          "name": "",
          "type": "uint256"
        }
      ],
      "stateMutability": "view",
      "type": "function"
    },
    {
      "inputs": [
        {
          "internalType": "address",
          "name": "account",
          "type": "address"
        },
        {
          "internalType": "uint256",
          "name": "id",
          "type": "uint256"
        }
      ],
      "name": "balanceOf",
      "outputs": [
        {
          "internalType": "uint256",
          "name": "",
          "type": "uint256"
        }
      ],
      "stateMutability": "view",
      "type": "function"
    },
    {
      "inputs": [
        {
          "internalType": "address[]",
          "name": "accounts",
          "type": "address[]"
        },
        {
          "internalType": "uint256[]",
          "name": "ids",
          "type": "uint256[]"
        }
      ],
      "name": "balanceOfBatch",
      "outputs": [
        {
          "internalType": "uint256[]",
          "name": "",
          "type": "uint256[]"
        }
      ],
      "stateMutability": "view",
      "type": "function"
    },
    {
      "inputs": [
        {
          "internalType": "address",
          "name": "account",
          "type": "address"
        },
        {
          "internalType": "uint256",
          "name": "id",
          "type": "uint256"
        },
        {
          "internalType": "uint256",
          "name": "value",
          "type": "uint256"
        }
      ],
      "name": "burn",
      "outputs": [],
      "stateMutability": "nonpayable",
      "type": "function"
    },
    {
      "inputs": [
        {
          "internalType": "address",
          "name": "account",
          "type": "address"
        },
        {
          "internalType": "uint256[]",
          "name": "ids",
          "type": "uint256[]"
        },
        {
          "internalType": "uint256[]",
          "name": "values",
          "type": "uint256[]"
        }
      ],
      "name": "burnBatch",
      "outputs": [],
      "stateMutability": "nonpayable",
      "type": "function"
    },
    {
      "inputs": [
        {
          "internalType": "uint256",
          "name": "id",
          "type": "uint256"
        }
      ],
      "name": "exists",
      "outputs": [
        {
          "internalType": "bool",
          "name": "",
          "type": "bool"
        }
      ],
      "stateMutability": "view",
      "type": "function"
    },
    {
      "inputs": [
        {
          "internalType": "address",
          "name": "account",
          "type": "address"
        },
        {
          "internalType": "address",
          "name": "operator",
          "type": "address"
        }
      ],
      "name": "isApprovedForAll",
      "outputs": [
        {
          "internalType": "bool",
          "name": "",
          "type": "bool"
        }
      ],
      "stateMutability": "view",
      "type": "function"
    },
    {
      "inputs": [],
      "name": "owner",
      "outputs": [
        {
          "internalType": "address",
          "name": "",
          "type": "address"
        }
      ],
      "stateMutability": "view",
      "type": "function"
    },
    {
      "inputs": [],
      "name": "renounceOwnership",
      "outputs": [],
      "stateMutability": "nonpayable",
      "type": "function"
    },
    {
      "inputs": [
        {
          "internalType": "address",
          "name": "from",
          "type": "address"
        },
        {
          "internalType": "address",
          "name": "to",
          "type": "address"
        },
        {
          "internalType": "uint256[]",
          "name": "ids",
          "type": "uint256[]"
        },
        {
          "internalType": "uint256[]",
          "name": "amounts",
          "type": "uint256[]"
        },
        {
          "internalType": "bytes",
          "name": "data",
          "type": "bytes"
        }
      ],
      "name": "safeBatchTransferFrom",
      "outputs": [],
      "stateMutability": "nonpayable",
      "type": "function"
    },
    {
      "inputs": [
        {
          "internalType": "address",
          "name": "from",
          "type": "address"
        },
        {
          "internalType": "address",
          "name": "to",
          "type": "address"
        },
        {
          "internalType": "uint256",
          "name": "id",
          "type": "uint256"
        },
        {
          "internalType": "uint256",
          "name": "amount",
          "type": "uint256"
        },
        {
          "internalType": "bytes",
          "name": "data",
          "type": "bytes"
        }
      ],
      "name": "safeTransferFrom",
      "outputs": [],
      "stateMutability": "nonpayable",
      "type": "function"
    },
    {
      "inputs": [
        {
          "internalType": "address",
          "name": "operator",
          "type": "address"
        },
        {
          "internalType": "bool",
          "name": "approved",
          "type": "bool"
        }
      ],
      "name": "setApprovalForAll",
      "outputs": [],
      "stateMutability": "nonpayable",
      "type": "function"
    },
    {
      "inputs": [
        {
          "internalType": "bytes4",
          "name": "interfaceId",
          "type": "bytes4"
        }
      ],
      "name": "supportsInterface",
      "outputs": [
        {
          "internalType": "bool",
          "name": "",
          "type": "bool"
        }
      ],
      "stateMutability": "view",
      "type": "function"
    },
    {
      "inputs": [
        {
          "internalType": "uint256",
          "name": "id",
          "type": "uint256"
        }
      ],
      "name": "totalSupply",
      "outputs": [
        {
          "internalType": "uint256",
          "name": "",
          "type": "uint256"
        }
      ],
      "stateMutability": "view",
      "type": "function"
    },
    {
      "inputs": [
        {
          "internalType": "address",
          "name": "newOwner",
          "type": "address"
        }
      ],
      "name": "transferOwnership",
      "outputs": [],
      "stateMutability": "nonpayable",
      "type": "function"
    },
    {
      "inputs": [],
      "name": "treasuryWallet",
      "outputs": [
        {
          "internalType": "address payable",
          "name": "",
          "type": "address"
        }
      ],
      "stateMutability": "view",
      "type": "function"
    },
    {
      "inputs": [
        {
          "internalType": "uint256",
          "name": "_tokenid",
          "type": "uint256"
        }
      ],
      "name": "uri",
      "outputs": [
        {
          "internalType": "string",
          "name": "",
          "type": "string"
        }
      ],
      "stateMutability": "pure",
      "type": "function"
    },
    {
      "inputs": [
        {
          "internalType": "string",
          "name": "newuri",
          "type": "string"
        }
      ],
      "name": "setURI",
      "outputs": [],
      "stateMutability": "nonpayable",
      "type": "function"
    },
    {
      "inputs": [],
      "name": "generateWeaponArray",
      "outputs": [],
      "stateMutability": "nonpayable",
      "type": "function"
    },
    {
      "inputs": [],
      "name": "generatefirstWeapon",
      "outputs": [],
      "stateMutability": "nonpayable",
      "type": "function"
    },
    {
      "inputs": [],
      "name": "generateItemCheck",
      "outputs": [],
      "stateMutability": "nonpayable",
      "type": "function"
    },
    {
      "inputs": [],
      "name": "generateScrollArray",
      "outputs": [],
      "stateMutability": "nonpayable",
      "type": "function"
    },
    {
      "inputs": [],
      "name": "mintFirstWeapon",
      "outputs": [],
      "stateMutability": "nonpayable",
      "type": "function"
    },
    {
      "inputs": [],
      "name": "mintRandomWeapon",
      "outputs": [
        {
          "internalType": "uint256",
          "name": "",
          "type": "uint256"
        }
      ],
      "stateMutability": "nonpayable",
      "type": "function"
    },
    {
      "inputs": [],
      "name": "mintScroll",
      "outputs": [],
      "stateMutability": "nonpayable",
      "type": "function"
    },
    {
      "inputs": [
        {
          "internalType": "uint256",
          "name": "scrollId",
          "type": "uint256"
        },
        {
          "internalType": "uint256",
          "name": "weaponId",
          "type": "uint256"
        }
      ],
      "name": "upgrade",
      "outputs": [],
      "stateMutability": "nonpayable",
      "type": "function"
    },
    {
      "inputs": [
        {
          "internalType": "address",
          "name": "to",
          "type": "address"
        },
        {
          "internalType": "uint256[]",
          "name": "ids",
          "type": "uint256[]"
        },
        {
          "internalType": "uint256[]",
          "name": "amounts",
          "type": "uint256[]"
        },
        {
          "internalType": "bytes",
          "name": "data",
          "type": "bytes"
        }
      ],
      "name": "mintBatch",
      "outputs": [],
      "stateMutability": "nonpayable",
      "type": "function"
    },
    {
      "inputs": [
        {
          "internalType": "address",
          "name": "sender",
          "type": "address"
        }
      ],
      "name": "balanceCheck",
      "outputs": [
        {
          "internalType": "uint256[][]",
          "name": "",
          "type": "uint256[][]"
        }
      ],
      "stateMutability": "nonpayable",
      "type": "function"
    },
    {
      "inputs": [],
      "name": "randRewardScroll",
      "outputs": [],
      "stateMutability": "nonpayable",
      "type": "function"
    }
  ],
  "bytecode": "0x6080604052670de0b6b3a76400006006556000600a556046600b553480156200002757600080fd5b5060405162003b2538038062003b258339810160408190526200004a91620001f8565b6040518060600160405280603a815260200162003aeb603a91396200006f81620000d5565b506200007b33620000e7565b60016008556002600955601080546001600160a01b0319166001600160a01b038516179055620000ab8262000139565b50600780546001600160a01b0319166001600160a01b039290921691909117905550620003bd9050565b6002620000e38282620002f1565b5050565b600380546001600160a01b038381166001600160a01b0319831681179093556040519116919082907f8be0079c531659141344cd1fd0a4f28419497f9722a3daafe3b4186f6b6457e090600090a35050565b6000620001456200017e565b6001600160a01b0382166200015957600080fd5b50600580546001600160a01b0383166001600160a01b03199091161790556001919050565b6003546001600160a01b03163314620001dd5760405162461bcd60e51b815260206004820181905260248201527f4f776e61626c653a2063616c6c6572206973206e6f7420746865206f776e6572604482015260640160405180910390fd5b565b6001600160a01b0381168114620001f557600080fd5b50565b6000806000606084860312156200020e57600080fd5b83516200021b81620001df565b60208501519093506200022e81620001df565b60408501519092506200024181620001df565b809150509250925092565b634e487b7160e01b600052604160045260246000fd5b600181811c908216806200027757607f821691505b6020821081036200029857634e487b7160e01b600052602260045260246000fd5b50919050565b601f821115620002ec57600081815260208120601f850160051c81016020861015620002c75750805b601f850160051c820191505b81811015620002e857828155600101620002d3565b5050505b505050565b81516001600160401b038111156200030d576200030d6200024c565b62000325816200031e845462000262565b846200029e565b602080601f8311600181146200035d5760008415620003445750858301515b600019600386901b1c1916600185901b178555620002e8565b600085815260208120601f198616915b828110156200038e578886015182559484019460019091019084016200036d565b5085821015620003ad5787850151600019600388901b60f8161c191681555b5050505050600190811b01905550565b61371e80620003cd6000396000f3fe608060405234801561001057600080fd5b50600436106102895760003560e01c806384e0f7d61161015c578063d0faf49e116100ce578063ea3875ca11610087578063ea3875ca1461052b578063f14a3d5614610533578063f242432a1461053c578063f2fde38b1461054f578063f5298aca14610562578063f5dce5b91461057557600080fd5b8063d0faf49e146104c5578063d656efb5146104cd578063d79c66aa146104d5578063dc4feb47146104de578063e7b5be39146104e7578063e985e9c5146104ef57600080fd5b8063aedd809a11610120578063aedd809a14610465578063afc6c6491461046d578063b6a8412b1461048d578063b6c7caad14610495578063bd85b0391461049d578063c1640d94146104bd57600080fd5b806384e0f7d6146104285780638da5cb5b146104305780639750463a14610441578063a004cbde14610449578063a22cb4651461045257600080fd5b8063451450ec116102005780635456e59a116101b95780635456e59a146103ec57806360baee5d146103f5578063654b1bb9146103fd5780636b20c454146104055780636f9e9b8414610418578063715018a61461042057600080fd5b8063451450ec1461035b5780634626402b1461036e5780634ba46639146103995780634e1273f4146103a15780634f4aabc1146103c15780634f558e79146103ca57600080fd5b80631f7fdffa116102525780631f7fdffa1461031457806323bfdcfa146103275780632eb2c2d61461033057806331f533bd1461034357806332e5794a1461034b578063442107e31461035357600080fd5b8062fdd58e1461028e57806301ffc9a7146102b457806302fe5305146102d75780630e89341c146102ec5780630f068c601461030c575b600080fd5b6102a161029c366004612956565b61057e565b6040519081526020015b60405180910390f35b6102c76102c2366004612996565b610617565b60405190151581526020016102ab565b6102ea6102e5366004612a59565b610667565b005b6102ff6102fa366004612aa1565b61067b565b6040516102ab9190612b0a565b6102a160ca81565b6102ea610322366004612bd1565b6106ac565b6102a161019181565b6102ea61033e366004612c69565b6106c6565b6102ea610712565b6102a1606581565b6102a160c881565b6102ea610369366004612d12565b610872565b600754610381906001600160a01b031681565b6040516001600160a01b0390911681526020016102ab565b6102ea610b51565b6103b46103af366004612d34565b610be1565b6040516102ab9190612e39565b6102a161012d81565b6102c76103d8366004612aa1565b600090815260046020526040902054151590565b6102a161019481565b6102a1610d0a565b6102ea610fc5565b6102ea610413366004612e4c565b61102c565b6102a1600181565b6102ea611074565b6102ea611088565b6003546001600160a01b0316610381565b6102a1600381565b6102a161012e81565b6102ea610460366004612ecd565b6113fe565b6102a1600081565b61048061047b366004612f04565b611409565b6040516102ab9190612f1f565b6102ea611711565b6102ea6117c3565b6102a16104ab366004612aa1565b60009081526004602052604090205490565b6102ea61184b565b6102a160c981565b6102a1606681565b6102a161019081565b6102a161019381565b6102a1600281565b6102c76104fd366004612f81565b6001600160a01b03918216600090815260016020908152604080832093909416825291909152205460ff1690565b6102a1606481565b6102a161012c81565b6102ea61054a366004612fb4565b61196e565b6102ea61055d366004612f04565b6119b3565b6102ea610570366004613018565b611a29565b6102a161019281565b60006001600160a01b0383166105ee5760405162461bcd60e51b815260206004820152602a60248201527f455243313135353a2061646472657373207a65726f206973206e6f742061207660448201526930b634b21037bbb732b960b11b60648201526084015b60405180910390fd5b506000818152602081815260408083206001600160a01b03861684529091529020545b92915050565b60006001600160e01b03198216636cdb3d1360e11b148061064857506001600160e01b031982166303a24d0760e21b145b8061061157506301ffc9a760e01b6001600160e01b0319831614610611565b61066f611a6c565b61067881611ac6565b50565b606061068682611ad2565b604051602001610696919061304b565b6040516020818303038152906040529050919050565b6106b4611a6c565b6106c084848484611bda565b50505050565b6001600160a01b0385163314806106e257506106e285336104fd565b6106fe5760405162461bcd60e51b81526004016105e5906130c3565b61070b8585858585611d34565b5050505050565b61071a611a6c565b60005b600181101561075e57600f80546001810182556000919091526101906000805160206136c9833981519152909101558061075681613128565b91505061071d565b5060005b60028110156107a357600f80546001810182556000919091526101916000805160206136c9833981519152909101558061079b81613128565b915050610762565b5060005b60048110156107e857600f80546001810182556000919091526101926000805160206136c983398151915290910155806107e081613128565b9150506107a7565b5060005b600681101561082d57600f80546001810182556000919091526101936000805160206136c9833981519152909101558061082581613128565b9150506107ec565b5060005b600781101561067857600f80546001810182556000919091526101946000805160206136c9833981519152909101558061086a81613128565b915050610831565b61087c338361057e565b6000036108d55760405162461bcd60e51b815260206004820152602160248201527f455243313135353a2074686973207363726f6c6c206973206e6f7420796f75726044820152607360f81b60648201526084016105e5565b6108df338261057e565b6000036109385760405162461bcd60e51b815260206004820152602160248201527f455243313135353a207468697320776561706f6e206973206e6f7420796f75726044820152607360f81b60648201526084016105e5565b6002610945606483613157565b106109a15760405162461bcd60e51b815260206004820152602660248201527f455243313135353a207468697320776561706f6e2069732066756c6c7920757060448201526519dc9859195960d21b60648201526084016105e5565b60006109ae606484613157565b6000036109bd57506064610a21565b6109c8606484613157565b6001036109d75750605a610a21565b6109e2606484613157565b6002036109f15750603c610a21565b6109fc606484613157565b600303610a0b5750601e610a21565b610a16606484613157565b600403610a215750600a5b6000606442604051602001610a3891815260200190565b6040516020818303038152906040528051906020012060001c610a5b9190613157565b9050818111610b0557610a8a33610a7385600161316b565b600160405180602001604052806000815250611ede565b610a9633846001611fc7565b610aa233856001611fc7565b601054610ab9906001600160a01b031660016113fe565b7f896a2d323b547f5b1499a9e580d7749e63e5e1e92d4c60962250b7c3dbbde1f06001610ae6858261316b565b60408051921515835260208301919091520160405180910390a16106c0565b610b1133856001611fc7565b6040805160008152602081018590527f896a2d323b547f5b1499a9e580d7749e63e5e1e92d4c60962250b7c3dbbde1f0910160405180910390a150505050565b600f546040805142602082015260009291016040516020818303038152906040528051906020012060001c610b869190613157565b90506000600f8281548110610b9d57610b9d61317e565b90600052602060002001549050610bc63382600160405180602001604052806000815250611ede565b601054610bdd906001600160a01b031660016113fe565b5050565b60608151835114610c465760405162461bcd60e51b815260206004820152602960248201527f455243313135353a206163636f756e747320616e6420696473206c656e677468604482015268040dad2e6dac2e8c6d60bb1b60648201526084016105e5565b600083516001600160401b03811115610c6157610c616129ba565b604051908082528060200260200182016040528015610c8a578160200160208202803683370190505b50905060005b8451811015610d0257610cd5858281518110610cae57610cae61317e565b6020026020010151858381518110610cc857610cc861317e565b602002602001015161057e565b828281518110610ce757610ce761317e565b6020908102919091010152610cfb81613128565b9050610c90565b509392505050565b600c546040805142602082015260009283929091016040516020818303038152906040528051906020012060001c610d429190613157565b90506000600c8281548110610d5957610d5961317e565b90600052602060002001549050610d823382600160405180602001604052806000815250611ede565b601054610d99906001600160a01b031660016113fe565b6005546006546008546000926001600160a01b03169163d83a2bf39133913091610dc39190613194565b6040516001600160e01b031960e086901b1681526001600160a01b03938416600482015292909116602483015260448201526064016020604051808303816000875af1158015610e17573d6000803e3d6000fd5b505050506040513d601f19601f82011682018060405250810190610e3b91906131ab565b905080610e825760405162461bcd60e51b8152602060048201526015602482015274125b98dc99585cd950dbdb9d1c9858dd0811985a5b605a1b60448201526064016105e5565b6005546007546006546008546001600160a01b03938416936323b872dd933393911691610eaf9190613194565b6040516001600160e01b031960e086901b1681526001600160a01b03938416600482015292909116602483015260448201526064016020604051808303816000875af1158015610f03573d6000803e3d6000fd5b505050506040513d601f19601f82011682018060405250810190610f2791906131ab565b506005546007546006546008546001600160a01b0393841693631d057bd9931691600291610f559190613194565b610f5f91906131c8565b6040516001600160e01b031960e085901b1681526001600160a01b0390921660048301526024820152604401600060405180830381600087803b158015610fa557600080fd5b505af1158015610fb9573d6000803e3d6000fd5b50939695505050505050565b610fcd611a6c565b600d80546001818101835560008381527fd7b6990105719101dabeb77144f2a3385c8033acd3af97e9423a695e81ad1eb592830155825480820184556064908301558254808201845560c890830155825490810190925561012c910155565b6001600160a01b038316331480611048575061104883336104fd565b6110645760405162461bcd60e51b81526004016105e5906130c3565b61106f8383836120df565b505050565b61107c611a6c565b611086600061227b565b565b611090611a6c565b60005b60048110156110ce57600c805460018101825560009182526000805160206136a98339815191520155806110c681613128565b915050611093565b5060005b600381101561110f57600c8054600181810183556000929092526000805160206136a983398151915201558061110781613128565b9150506110d2565b5060005b600281101561115357600c805460018101825560009190915260026000805160206136a9833981519152909101558061114b81613128565b915050611113565b5060005b600181101561119757600c805460018101825560009190915260036000805160206136a9833981519152909101558061118f81613128565b915050611157565b5060005b60048110156111db57600c805460018101825560009190915260646000805160206136a983398151915290910155806111d381613128565b91505061119b565b5060005b600381101561121f57600c805460018101825560009190915260656000805160206136a9833981519152909101558061121781613128565b9150506111df565b5060005b600281101561126357600c805460018101825560009190915260666000805160206136a9833981519152909101558061125b81613128565b915050611223565b5060005b60048110156112a757600c805460018101825560009190915260c86000805160206136a9833981519152909101558061129f81613128565b915050611267565b5060005b60038110156112eb57600c805460018101825560009190915260c96000805160206136a983398151915290910155806112e381613128565b9150506112ab565b5060005b600281101561132f57600c805460018101825560009190915260ca6000805160206136a9833981519152909101558061132781613128565b9150506112ef565b5060005b600481101561137457600c805460018101825560009190915261012c6000805160206136a9833981519152909101558061136c81613128565b915050611333565b5060005b60038110156113b957600c805460018101825560009190915261012d6000805160206136a983398151915290910155806113b181613128565b915050611378565b5060005b600281101561067857600c805460018101825560009190915261012e6000805160206136a983398151915290910155806113f681613128565b9150506113bd565b610bdd3383836122cd565b600e546060906000906001600160401b03811115611429576114296129ba565b60405190808252806020026020018201604052801561145c57816020015b60608152602001906001900390816114475790505b5090506000805b600e5481101561158857600061149686600e84815481106114865761148661317e565b906000526020600020015461057e565b90508015611575576040805160028082526060820183529091602083019080368337019050508484815181106114ce576114ce61317e565b6020026020010181905250600e82815481106114ec576114ec61317e565b90600052602060002001548484815181106115095761150961317e565b60200260200101516000815181106115235761152361317e565b602002602001018181525050808484815181106115425761154261317e565b602002602001015160018151811061155c5761155c61317e565b60209081029190910101528261157181613128565b9350505b508061158081613128565b915050611463565b506000816001600160401b038111156115a3576115a36129ba565b6040519080825280602002602001820160405280156115d657816020015b60608152602001906001900390816115c15790505b50905060005b82811015611708576040805160028082526060820183529091602083019080368337019050508282815181106116145761161461317e565b60200260200101819052508381815181106116315761163161317e565b602002602001015160008151811061164b5761164b61317e565b60200260200101518282815181106116655761166561317e565b602002602001015160008151811061167f5761167f61317e565b60200260200101818152505083818151811061169d5761169d61317e565b60200260200101516001815181106116b7576116b761317e565b60200260200101518282815181106116d1576116d161317e565b60200260200101516001815181106116eb576116eb61317e565b60209081029190910101528061170081613128565b9150506115dc565b50949350505050565b61171a33611409565b51156117775760405162461bcd60e51b815260206004820152602660248201527f455243313135353a20796f7520616c72656164792068617665206669727374206044820152653bb2b0b837b760d11b60648201526084016105e5565b600d546040805142602082015260009291016040516020818303038152906040528051906020012060001c6117ac9190613157565b90506000600d8281548110610b9d57610b9d61317e565b60006117cf60646123ad565b9050600b54811161181a576117e2610b51565b604051600181527f2fd7ddc66024269a8ffcc6d25e0450ec3d4a65d5f051e9eaebc091acc5c2a159906020015b60405180910390a150565b604051600081527f2fd7ddc66024269a8ffcc6d25e0450ec3d4a65d5f051e9eaebc091acc5c2a1599060200161180f565b611853611a6c565b600e80546001818101835560008381527fbb7b4a454dc3493923482f07822329ed19e8244eff582cc204f8554c3620c3fd9283015582548082018455820181905582548082018455600290830155825480820184556003908301558254808201845560649083015582548082018455606590830155825480820184556066908301558254808201845560c8908301558254808201845560c9908301558254808201845560ca908301558254808201845561012c908301558254808201845561012d908301558254808201845561012e9083015582548082018455610190908301558254808201845561019190830155825480820184556101929083015582548082018455610193908301558254908101909255610194910155565b6001600160a01b03851633148061198a575061198a85336104fd565b6119a65760405162461bcd60e51b81526004016105e5906130c3565b61070b858585858561241a565b6119bb611a6c565b6001600160a01b038116611a205760405162461bcd60e51b815260206004820152602660248201527f4f776e61626c653a206e6577206f776e657220697320746865207a65726f206160448201526564647265737360d01b60648201526084016105e5565b6106788161227b565b6001600160a01b038316331480611a455750611a4583336104fd565b611a615760405162461bcd60e51b81526004016105e5906130c3565b61106f838383611fc7565b6003546001600160a01b031633146110865760405162461bcd60e51b815260206004820181905260248201527f4f776e61626c653a2063616c6c6572206973206e6f7420746865206f776e657260448201526064016105e5565b6002610bdd828261325c565b606081600003611af95750506040805180820190915260018152600360fc1b602082015290565b8160005b8115611b235780611b0d81613128565b9150611b1c9050600a836131c8565b9150611afd565b6000816001600160401b03811115611b3d57611b3d6129ba565b6040519080825280601f01601f191660200182016040528015611b67576020820181803683370190505b5090505b8415611bd257611b7c60018361331b565b9150611b89600a86613157565b611b9490603061316b565b60f81b818381518110611ba957611ba961317e565b60200101906001600160f81b031916908160001a905350611bcb600a866131c8565b9450611b6b565b949350505050565b6001600160a01b038416611c005760405162461bcd60e51b81526004016105e59061332e565b8151835114611c215760405162461bcd60e51b81526004016105e59061336f565b33611c3181600087878787612552565b60005b8451811015611ccc57838181518110611c4f57611c4f61317e565b6020026020010151600080878481518110611c6c57611c6c61317e565b602002602001015181526020019081526020016000206000886001600160a01b03166001600160a01b031681526020019081526020016000206000828254611cb4919061316b565b90915550819050611cc481613128565b915050611c34565b50846001600160a01b031660006001600160a01b0316826001600160a01b03167f4a39dc06d4c0dbc64b70af90fd698a233a518aa5d07e595d983b8c0526c8f7fb8787604051611d1d9291906133b7565b60405180910390a461070b81600087878787612560565b8151835114611d555760405162461bcd60e51b81526004016105e59061336f565b6001600160a01b038416611d7b5760405162461bcd60e51b81526004016105e5906133e5565b33611d8a818787878787612552565b60005b8451811015611e70576000858281518110611daa57611daa61317e565b602002602001015190506000858381518110611dc857611dc861317e565b602090810291909101810151600084815280835260408082206001600160a01b038e168352909352919091205490915081811015611e185760405162461bcd60e51b81526004016105e59061342a565b6000838152602081815260408083206001600160a01b038e8116855292528083208585039055908b16825281208054849290611e5590849061316b565b9250508190555050505080611e6990613128565b9050611d8d565b50846001600160a01b0316866001600160a01b0316826001600160a01b03167f4a39dc06d4c0dbc64b70af90fd698a233a518aa5d07e595d983b8c0526c8f7fb8787604051611ec09291906133b7565b60405180910390a4611ed6818787878787612560565b505050505050565b6001600160a01b038416611f045760405162461bcd60e51b81526004016105e59061332e565b336000611f10856126bb565b90506000611f1d856126bb565b9050611f2e83600089858589612552565b6000868152602081815260408083206001600160a01b038b16845290915281208054879290611f5e90849061316b565b909155505060408051878152602081018790526001600160a01b03808a1692600092918716917fc3d58168c5ae7397731d063d5bbf3d657854427343f4c083240f7aacaa2d0f62910160405180910390a4611fbe83600089898989612706565b50505050505050565b6001600160a01b038316611fed5760405162461bcd60e51b81526004016105e590613474565b336000611ff9846126bb565b90506000612006846126bb565b905061202683876000858560405180602001604052806000815250612552565b6000858152602081815260408083206001600160a01b038a168452909152902054848110156120675760405162461bcd60e51b81526004016105e5906134b7565b6000868152602081815260408083206001600160a01b038b81168086529184528285208a8703905582518b81529384018a90529092908816917fc3d58168c5ae7397731d063d5bbf3d657854427343f4c083240f7aacaa2d0f62910160405180910390a4604080516020810190915260009052611fbe565b6001600160a01b0383166121055760405162461bcd60e51b81526004016105e590613474565b80518251146121265760405162461bcd60e51b81526004016105e59061336f565b600033905061214981856000868660405180602001604052806000815250612552565b60005b835181101561220e5760008482815181106121695761216961317e565b6020026020010151905060008483815181106121875761218761317e565b602090810291909101810151600084815280835260408082206001600160a01b038c1683529093529190912054909150818110156121d75760405162461bcd60e51b81526004016105e5906134b7565b6000928352602083815260408085206001600160a01b038b168652909152909220910390558061220681613128565b91505061214c565b5060006001600160a01b0316846001600160a01b0316826001600160a01b03167f4a39dc06d4c0dbc64b70af90fd698a233a518aa5d07e595d983b8c0526c8f7fb868660405161225f9291906133b7565b60405180910390a46040805160208101909152600090526106c0565b600380546001600160a01b038381166001600160a01b0319831681179093556040519116919082907f8be0079c531659141344cd1fd0a4f28419497f9722a3daafe3b4186f6b6457e090600090a35050565b816001600160a01b0316836001600160a01b0316036123405760405162461bcd60e51b815260206004820152602960248201527f455243313135353a2073657474696e6720617070726f76616c20737461747573604482015268103337b91039b2b63360b91b60648201526084016105e5565b6001600160a01b03838116600081815260016020908152604080832094871680845294825291829020805460ff191686151590811790915591519182527f17307eab39ab6107e8899845ad3d59bd9653f200f220920489ca2b5937696c31910160405180910390a3505050565b600a8054600091826123be83613128565b9091555050600a54604080514260208201526bffffffffffffffffffffffff193360601b1691810191909152605481019190915282906074016040516020818303038152906040528051906020012060001c6106119190613157565b6001600160a01b0384166124405760405162461bcd60e51b81526004016105e5906133e5565b33600061244c856126bb565b90506000612459856126bb565b9050612469838989858589612552565b6000868152602081815260408083206001600160a01b038c168452909152902054858110156124aa5760405162461bcd60e51b81526004016105e59061342a565b6000878152602081815260408083206001600160a01b038d8116855292528083208985039055908a168252812080548892906124e790849061316b565b909155505060408051888152602081018890526001600160a01b03808b16928c821692918816917fc3d58168c5ae7397731d063d5bbf3d657854427343f4c083240f7aacaa2d0f62910160405180910390a4612547848a8a8a8a8a612706565b505050505050505050565b611ed68686868686866127c1565b6001600160a01b0384163b15611ed65760405163bc197c8160e01b81526001600160a01b0385169063bc197c81906125a490899089908890889088906004016134fb565b6020604051808303816000875af19250505080156125df575060408051601f3d908101601f191682019092526125dc91810190613559565b60015b61268b576125eb613576565b806308c379a00361262457506125ff613592565b8061260a5750612626565b8060405162461bcd60e51b81526004016105e59190612b0a565b505b60405162461bcd60e51b815260206004820152603460248201527f455243313135353a207472616e7366657220746f206e6f6e20455243313135356044820152732932b1b2b4bb32b91034b6b83632b6b2b73a32b960611b60648201526084016105e5565b6001600160e01b0319811663bc197c8160e01b14611fbe5760405162461bcd60e51b81526004016105e59061361b565b604080516001808252818301909252606091600091906020808301908036833701905050905082816000815181106126f5576126f561317e565b602090810291909101015292915050565b6001600160a01b0384163b15611ed65760405163f23a6e6160e01b81526001600160a01b0385169063f23a6e619061274a9089908990889088908890600401613663565b6020604051808303816000875af1925050508015612785575060408051601f3d908101601f1916820190925261278291810190613559565b60015b612791576125eb613576565b6001600160e01b0319811663f23a6e6160e01b14611fbe5760405162461bcd60e51b81526004016105e59061361b565b6001600160a01b0385166128485760005b8351811015612846578281815181106127ed576127ed61317e565b60200260200101516004600086848151811061280b5761280b61317e565b602002602001015181526020019081526020016000206000828254612830919061316b565b9091555061283f905081613128565b90506127d2565b505b6001600160a01b038416611ed65760005b8351811015611fbe5760008482815181106128765761287661317e565b6020026020010151905060008483815181106128945761289461317e565b60200260200101519050600060046000848152602001908152602001600020549050818110156129175760405162461bcd60e51b815260206004820152602860248201527f455243313135353a206275726e20616d6f756e74206578636565647320746f74604482015267616c537570706c7960c01b60648201526084016105e5565b6000928352600460205260409092209103905561293381613128565b9050612859565b80356001600160a01b038116811461295157600080fd5b919050565b6000806040838503121561296957600080fd5b6129728361293a565b946020939093013593505050565b6001600160e01b03198116811461067857600080fd5b6000602082840312156129a857600080fd5b81356129b381612980565b9392505050565b634e487b7160e01b600052604160045260246000fd5b601f8201601f191681016001600160401b03811182821017156129f5576129f56129ba565b6040525050565b60006001600160401b03831115612a1557612a156129ba565b604051612a2c601f8501601f1916602001826129d0565b809150838152848484011115612a4157600080fd5b83836020830137600060208583010152509392505050565b600060208284031215612a6b57600080fd5b81356001600160401b03811115612a8157600080fd5b8201601f81018413612a9257600080fd5b611bd2848235602084016129fc565b600060208284031215612ab357600080fd5b5035919050565b60005b83811015612ad5578181015183820152602001612abd565b50506000910152565b60008151808452612af6816020860160208601612aba565b601f01601f19169290920160200192915050565b6020815260006129b36020830184612ade565b60006001600160401b03821115612b3657612b366129ba565b5060051b60200190565b600082601f830112612b5157600080fd5b81356020612b5e82612b1d565b604051612b6b82826129d0565b83815260059390931b8501820192828101915086841115612b8b57600080fd5b8286015b84811015612ba65780358352918301918301612b8f565b509695505050505050565b600082601f830112612bc257600080fd5b6129b3838335602085016129fc565b60008060008060808587031215612be757600080fd5b612bf08561293a565b935060208501356001600160401b0380821115612c0c57600080fd5b612c1888838901612b40565b94506040870135915080821115612c2e57600080fd5b612c3a88838901612b40565b93506060870135915080821115612c5057600080fd5b50612c5d87828801612bb1565b91505092959194509250565b600080600080600060a08688031215612c8157600080fd5b612c8a8661293a565b9450612c986020870161293a565b935060408601356001600160401b0380821115612cb457600080fd5b612cc089838a01612b40565b94506060880135915080821115612cd657600080fd5b612ce289838a01612b40565b93506080880135915080821115612cf857600080fd5b50612d0588828901612bb1565b9150509295509295909350565b60008060408385031215612d2557600080fd5b50508035926020909101359150565b60008060408385031215612d4757600080fd5b82356001600160401b0380821115612d5e57600080fd5b818501915085601f830112612d7257600080fd5b81356020612d7f82612b1d565b604051612d8c82826129d0565b83815260059390931b8501820192828101915089841115612dac57600080fd5b948201945b83861015612dd157612dc28661293a565b82529482019490820190612db1565b96505086013592505080821115612de757600080fd5b50612df485828601612b40565b9150509250929050565b600081518084526020808501945080840160005b83811015612e2e57815187529582019590820190600101612e12565b509495945050505050565b6020815260006129b36020830184612dfe565b600080600060608486031215612e6157600080fd5b612e6a8461293a565b925060208401356001600160401b0380821115612e8657600080fd5b612e9287838801612b40565b93506040860135915080821115612ea857600080fd5b50612eb586828701612b40565b9150509250925092565b801515811461067857600080fd5b60008060408385031215612ee057600080fd5b612ee98361293a565b91506020830135612ef981612ebf565b809150509250929050565b600060208284031215612f1657600080fd5b6129b38261293a565b6000602080830181845280855180835260408601915060408160051b870101925083870160005b82811015612f7457603f19888603018452612f62858351612dfe565b94509285019290850190600101612f46565b5092979650505050505050565b60008060408385031215612f9457600080fd5b612f9d8361293a565b9150612fab6020840161293a565b90509250929050565b600080600080600060a08688031215612fcc57600080fd5b612fd58661293a565b9450612fe36020870161293a565b9350604086013592506060860135915060808601356001600160401b0381111561300c57600080fd5b612d0588828901612bb1565b60008060006060848603121561302d57600080fd5b6130368461293a565b95602085013595506040909401359392505050565b7f68747470733a2f2f697066732e696f2f697066732f516d556b5555574269736981527f46613958556b3475634a6944723266766b3274447231784472436b45463646466020820152634346382f60e01b6040820152600082516130b6816044850160208701612aba565b9190910160440192915050565b6020808252602f908201527f455243313135353a2063616c6c6572206973206e6f7420746f6b656e206f776e60408201526e195c881b9bdc88185c1c1c9bdd9959608a1b606082015260800190565b634e487b7160e01b600052601160045260246000fd5b60006001820161313a5761313a613112565b5060010190565b634e487b7160e01b600052601260045260246000fd5b60008261316657613166613141565b500690565b8082018082111561061157610611613112565b634e487b7160e01b600052603260045260246000fd5b808202811582820484141761061157610611613112565b6000602082840312156131bd57600080fd5b81516129b381612ebf565b6000826131d7576131d7613141565b500490565b600181811c908216806131f057607f821691505b60208210810361321057634e487b7160e01b600052602260045260246000fd5b50919050565b601f82111561106f57600081815260208120601f850160051c8101602086101561323d5750805b601f850160051c820191505b81811015611ed657828155600101613249565b81516001600160401b03811115613275576132756129ba565b6132898161328384546131dc565b84613216565b602080601f8311600181146132be57600084156132a65750858301515b600019600386901b1c1916600185901b178555611ed6565b600085815260208120601f198616915b828110156132ed578886015182559484019460019091019084016132ce565b508582101561330b5787850151600019600388901b60f8161c191681555b5050505050600190811b01905550565b8181038181111561061157610611613112565b60208082526021908201527f455243313135353a206d696e7420746f20746865207a65726f206164647265736040820152607360f81b606082015260800190565b60208082526028908201527f455243313135353a2069647320616e6420616d6f756e7473206c656e677468206040820152670dad2e6dac2e8c6d60c31b606082015260800190565b6040815260006133ca6040830185612dfe565b82810360208401526133dc8185612dfe565b95945050505050565b60208082526025908201527f455243313135353a207472616e7366657220746f20746865207a65726f206164604082015264647265737360d81b606082015260800190565b6020808252602a908201527f455243313135353a20696e73756666696369656e742062616c616e636520666f60408201526939103a3930b739b332b960b11b606082015260800190565b60208082526023908201527f455243313135353a206275726e2066726f6d20746865207a65726f206164647260408201526265737360e81b606082015260800190565b60208082526024908201527f455243313135353a206275726e20616d6f756e7420657863656564732062616c604082015263616e636560e01b606082015260800190565b6001600160a01b0386811682528516602082015260a06040820181905260009061352790830186612dfe565b82810360608401526135398186612dfe565b9050828103608084015261354d8185612ade565b98975050505050505050565b60006020828403121561356b57600080fd5b81516129b381612980565b600060033d111561358f5760046000803e5060005160e01c5b90565b600060443d10156135a05790565b6040516003193d81016004833e81513d6001600160401b0381602484011181841117156135cf57505050505090565b82850191508151818111156135e75750505050505090565b843d87010160208285010111156136015750505050505090565b613610602082860101876129d0565b509095945050505050565b60208082526028908201527f455243313135353a204552433131353552656365697665722072656a656374656040820152676420746f6b656e7360c01b606082015260800190565b6001600160a01b03868116825285166020820152604081018490526060810183905260a06080820181905260009061369d90830184612ade565b97965050505050505056fedf6966c971051c3d54ec59162606531493a51404a002842f56009d7e5cf4a8c78d1108e10bcb7c27dddfc02ed9d693a074039d026cf4ea4240b40f7d581ac802a2646970667358221220743423ea3d741457cb027a5dfb192b023bae5e11f1174efa8e093deccc47909364736f6c63430008110033697066733a2f2f516d556b5555574269736946613958556b3475634a6944723266766b3274447231784472436b45463646464346382f7b69647d",
  "immutableReferences": {},
  "source": "// SPDX-License-Identifier: MIT\npragma solidity ^0.8.4;\n\nimport \"@openzeppelin/contracts/token/ERC1155/ERC1155.sol\";\nimport \"@openzeppelin/contracts/access/Ownable.sol\";\nimport \"@openzeppelin/contracts/token/ERC1155/extensions/ERC1155Burnable.sol\";\nimport \"@openzeppelin/contracts/token/ERC1155/extensions/ERC1155Supply.sol\";\nimport \"@openzeppelin/contracts/utils/Strings.sol\";\nimport \"./JMToken.sol\";\n\ncontract MapleItems is ERC1155, Ownable, ERC1155Burnable, ERC1155Supply {\n    JMToken private token;\n    uint256 decimals = 10**18;\n    address payable public treasuryWallet; //  !\n    uint256 private mintPrice;\n    uint256 private maxStrength;\n    uint randNum = 0;\n    uint rewardProbability = 70;\n\n    uint256[] private waitForMint;\n    uint256[] private firstMint;\n    uint256[] private itemCheck;\n    uint256[] private scrollMint;\n    address private marketContractAddress;\n\n    uint256 public constant SWORD0 = 0;\n    uint256 public constant SWORD1 = 1;\n    uint256 public constant SWORD2 = 2;\n    uint256 public constant SWORD3 = 3;\n\n    uint256 public constant BOW0 = 100;\n    uint256 public constant BOW1 = 101;\n    uint256 public constant BOW2 = 102;\n\n    uint256 public constant STAFF0 = 200;\n    uint256 public constant STAFF1 = 201;\n    uint256 public constant STAFF2 = 202;\n\n    uint256 public constant POLEARM0 = 300;\n    uint256 public constant POLEARM1 = 301;\n    uint256 public constant POLEARM2 = 302;\n\n    uint256 public constant SCROLL100 = 400;\n    uint256 public constant SCROLL90 = 401;\n    uint256 public constant SCROLL60 = 402;\n    uint256 public constant SCROLL30 = 403;\n    uint256 public constant SCROLL10 = 404;\n    \n    event Upgraded(bool result, uint256 weaponId);\n    event Rewarded(bool result);\n\n    constructor(\n        address _marketAddress,\n        address _tokenContractAddress,\n        address payable _treasuryWallet) \n        ERC1155(\"ipfs://QmUkUUWBisiFa9XUk4ucJiDr2fvk2tDr1xDrCkEF6FFCF8/{id}\") {\n        mintPrice = 1;\n        maxStrength = 2;\n        marketContractAddress = _marketAddress;\n        _setToken(_tokenContractAddress);\n        // generateWeaponArray();\n        // generatefirstWeapon();\n        // generateItemCheck();\n        // generateScrollArray();\n        \n        treasuryWallet = _treasuryWallet;\n    }\n\n    function uri(uint256 _tokenid) override public pure returns (string memory) {\n        return string(\n            abi.encodePacked(\n                \"https://ipfs.io/ipfs/QmUkUUWBisiFa9XUk4ucJiDr2fvk2tDr1xDrCkEF6FFCF8/\",\n                Strings.toString(_tokenid)\n            )\n        );\n    }\n\n    function setURI(string memory newuri) public onlyOwner {\n        _setURI(newuri);\n    }\n\n    function generateWeaponArray() external onlyOwner{\n        for (uint256 i = 0; i < 4; i++ ){\n            waitForMint.push(SWORD0); \n        }\n        for (uint256 i = 0; i < 3; i++ ){\n            waitForMint.push(SWORD1);\n        }\n        for (uint256 i = 0; i < 2; i++ ){\n            waitForMint.push(SWORD2); \n        }\n        for (uint256 i = 0; i < 1; i++ ){\n            waitForMint.push(SWORD3); \n        }\n        \n        for (uint256 i = 0; i < 4; i++ ){\n            waitForMint.push(BOW0); \n        }\n        for (uint256 i = 0; i < 3; i++ ){\n            waitForMint.push(BOW1);\n        }\n        for (uint256 i = 0; i < 2; i++ ){\n            waitForMint.push(BOW2); \n        }\n\n        for (uint256 i = 0; i < 4; i++ ){\n            waitForMint.push(STAFF0); \n        }\n        for (uint256 i = 0; i < 3; i++ ){\n            waitForMint.push(STAFF1);\n        }\n        for (uint256 i = 0; i < 2; i++ ){\n            waitForMint.push(STAFF2); \n        }\n\n        for (uint256 i = 0; i < 4; i++ ){\n            waitForMint.push(POLEARM0); \n        }\n        for (uint256 i = 0; i < 3; i++ ){\n            waitForMint.push(POLEARM1);\n        }\n        for (uint256 i = 0; i < 2; i++ ){\n            waitForMint.push(POLEARM2); \n        }\n    }\n\n    function generatefirstWeapon() external onlyOwner{\n        firstMint.push(SWORD0); \n        firstMint.push(BOW0); \n        firstMint.push(STAFF0); \n        firstMint.push(POLEARM0); \n    }\n\n    function generateItemCheck() external onlyOwner{\n        itemCheck.push(SWORD0);\n        itemCheck.push(SWORD1);\n        itemCheck.push(SWORD2);\n        itemCheck.push(SWORD3);\n\n        itemCheck.push(BOW0);\n        itemCheck.push(BOW1);\n        itemCheck.push(BOW2);\n\n        itemCheck.push(STAFF0);\n        itemCheck.push(STAFF1);\n        itemCheck.push(STAFF2);\n\n        itemCheck.push(POLEARM0);\n        itemCheck.push(POLEARM1);\n        itemCheck.push(POLEARM2);\n\n        itemCheck.push(SCROLL100);\n        itemCheck.push(SCROLL90);\n        itemCheck.push(SCROLL60);\n        itemCheck.push(SCROLL30);\n        itemCheck.push(SCROLL10);\n    }\n\n    function generateScrollArray() external onlyOwner{\n        for (uint256 i = 0; i < 1; i++ ){\n            scrollMint.push(SCROLL100); \n        }\n        for (uint256 i = 0; i < 2; i++ ){\n            scrollMint.push(SCROLL90);\n        }\n        for (uint256 i = 0; i < 4; i++ ){\n            scrollMint.push(SCROLL60); \n        }\n        for (uint256 i = 0; i < 6; i++ ){\n            scrollMint.push(SCROLL30); \n        }\n        for (uint256 i = 0; i < 7; i++ ){\n            scrollMint.push(SCROLL10); \n        }\n    }\n\n    function mintFirstWeapon() public {\n        require(balanceCheck(msg.sender).length==0, \"ERC1155: you already have first weapon\");\n\n        uint256 n = uint256(keccak256(abi.encodePacked(block.timestamp))) % (firstMint.length);\n        uint id = firstMint[n];\n\n        _mint(msg.sender, id, 1, \"\");\n        setApprovalForAll(marketContractAddress, true);\n    }\n\n    function mintRandomWeapon() public returns (uint256){  \n        uint256 n = uint256(keccak256(abi.encodePacked(block.timestamp))) % (waitForMint.length);\n        uint256 id = waitForMint[n];\n        \n        _mint(msg.sender, id, 1, \"\");\n        setApprovalForAll(marketContractAddress, true);\n        \n        //   \n        bool success = token.increaseContractAllowance(\n            msg.sender, \n            address(this),\n            mintPrice * decimals\n        );\n        require(success,\"IncreaseContract Fail\");\n        token.transferFrom(msg.sender, treasuryWallet, mintPrice * decimals); \n        token.marketBurn(treasuryWallet, (mintPrice * decimals)/2);\n\n        return id;\n    }\n\n    function mintScroll() public {\n        uint256 n = uint256(keccak256(abi.encodePacked(block.timestamp))) % (scrollMint.length);\n        uint id = scrollMint[n];\n        \n        _mint(msg.sender, id, 1, \"\");\n        setApprovalForAll(marketContractAddress, true);\n    }\n\n    function upgrade(uint256 scrollId, uint256 weaponId) public {\n        require(balanceOf(msg.sender, scrollId)!=0, \"ERC1155: this scroll is not yours\");\n        require(balanceOf(msg.sender, weaponId)!=0, \"ERC1155: this weapon is not yours\");\n        require(weaponId%100<2, \"ERC1155: this weapon is fully upgraded\");\n        uint256 scrollRate;\n\n        if(scrollId%100==0){\n            scrollRate = 100;\n        }else if(scrollId%100==1){\n            scrollRate = 90;\n        }else if(scrollId%100==2){\n            scrollRate = 60;\n        }else if(scrollId%100==3){\n            scrollRate = 30;\n        }else if(scrollId%100==4){\n            scrollRate = 10;\n        }\n\n        uint256 n = uint256(keccak256(abi.encodePacked(block.timestamp))) % 100;\n        if(n<=scrollRate){\n            _mint(msg.sender, weaponId+1, 1, \"\");\n            _burn(msg.sender, weaponId, 1);\n            _burn(msg.sender, scrollId, 1);\n            setApprovalForAll(marketContractAddress, true);\n            emit Upgraded(true, weaponId+1);\n        } else{\n            _burn(msg.sender, scrollId, 1);\n            emit Upgraded(false, weaponId);\n        }        \n    }\n\n    function mintBatch(address to, uint256[] memory ids, uint256[] memory amounts, bytes memory data)\n        public\n        onlyOwner\n    {\n        _mintBatch(to, ids, amounts, data);\n    }\n\n    function balanceCheck(address sender) public returns(uint256[][] memory){\n        uint256[][] memory balance = new uint256[][](itemCheck.length);\n        uint256 count = 0;\n\n        for(uint256 i=0; i<itemCheck.length; i++){\n            uint256 mybalance = balanceOf(sender, itemCheck[i]); \n            if(mybalance!=0){\n                balance[count] = new uint256[](2);\n                balance[count][0] = itemCheck[i];\n                balance[count][1] = mybalance;\n                count++;\n            }            \n        }\n\n        uint256[][] memory result = new uint256[][](count);\n        for(uint256 i=0; i<count; i++){\n            result[i] = new uint256[](2);\n            result[i][0] = balance[i][0];\n            result[i][1] = balance[i][1];\n        }\n\n        return result;\n    }\n    \n    function _setToken(address _tokenAddress) private onlyOwner returns (bool) {\n        require(_tokenAddress != address(0x0));\n        token = JMToken(_tokenAddress);\n        return true;\n    }\n    // The following functions are overrides required by Solidity.\n\n    function _beforeTokenTransfer(address operator, address from, address to, uint256[] memory ids, uint256[] memory amounts, bytes memory data)\n        internal\n        override(ERC1155, ERC1155Supply)\n    {\n        super._beforeTokenTransfer(operator, from, to, ids, amounts, data);\n    }\n\n    //   ( )\n    function randMod(uint _modulus) internal returns(uint) { // \n        randNum++;\n        return uint(keccak256(abi.encodePacked(block.timestamp, msg.sender, randNum))) % _modulus;\n    }\n\n    function randRewardScroll() external {\n        uint rand = randMod(100);\n        if ( rand <= rewardProbability ) {// 70%    \n            mintScroll();\n            emit Rewarded(true);\n        } else {\n            emit Rewarded(false);\n        }\n    }\n}",
  "sourcePath": "/Users/rokrokss/workspace/hyein/BEB-05-JMT/contract/contracts/MapleItems.sol",
  "compiler": {
    "name": "solc",
    "version": "0.8.17+commit.8df45f5f.Emscripten.clang"
  },
  "schemaVersion": "3.4.9",
  "updatedAt": "2022-09-26T21:59:16.248Z",
  "devdoc": {
    "kind": "dev",
    "methods": {
      "balanceOf(address,uint256)": {
        "details": "See {IERC1155-balanceOf}. Requirements: - `account` cannot be the zero address."
      },
      "balanceOfBatch(address[],uint256[])": {
        "details": "See {IERC1155-balanceOfBatch}. Requirements: - `accounts` and `ids` must have the same length."
      },
      "exists(uint256)": {
        "details": "Indicates whether any token exist with a given id, or not."
      },
      "isApprovedForAll(address,address)": {
        "details": "See {IERC1155-isApprovedForAll}."
      },
      "owner()": {
        "details": "Returns the address of the current owner."
      },
      "renounceOwnership()": {
        "details": "Leaves the contract without owner. It will not be possible to call `onlyOwner` functions anymore. Can only be called by the current owner. NOTE: Renouncing ownership will leave the contract without an owner, thereby removing any functionality that is only available to the owner."
      },
      "safeBatchTransferFrom(address,address,uint256[],uint256[],bytes)": {
        "details": "See {IERC1155-safeBatchTransferFrom}."
      },
      "safeTransferFrom(address,address,uint256,uint256,bytes)": {
        "details": "See {IERC1155-safeTransferFrom}."
      },
      "setApprovalForAll(address,bool)": {
        "details": "See {IERC1155-setApprovalForAll}."
      },
      "supportsInterface(bytes4)": {
        "details": "See {IERC165-supportsInterface}."
      },
      "totalSupply(uint256)": {
        "details": "Total amount of tokens in with a given id."
      },
      "transferOwnership(address)": {
        "details": "Transfers ownership of the contract to a new account (`newOwner`). Can only be called by the current owner."
      }
    },
    "version": 1
  },
  "userdoc": {
    "kind": "user",
    "methods": {},
    "version": 1
  }
}