{
  "contractName": "NFTLootBox",
  "abi": [
    {
      "inputs": [
        {
          "internalType": "address",
          "name": "contractAddress",
          "type": "address"
        }
      ],
      "stateMutability": "nonpayable",
      "type": "constructor"
    },
    {
      "anonymous": false,
      "inputs": [
        {
          "indexed": true,
          "internalType": "address",
          "name": "owner",
          "type": "address"
        },
        {
          "indexed": true,
          "internalType": "address",
          "name": "approved",
          "type": "address"
        },
        {
          "indexed": true,
          "internalType": "uint256",
          "name": "tokenId",
          "type": "uint256"
        }
      ],
      "name": "Approval",
      "type": "event"
    },
    {
      "anonymous": false,
      "inputs": [
        {
          "indexed": true,
          "internalType": "address",
          "name": "owner",
          "type": "address"
        },
        {
          "indexed": true,
          "internalType": "address",
          "name": "operator",
          "type": "address"
        },
        {
          "indexed": false,
          "internalType": "bool",
          "name": "approved",
          "type": "bool"
        }
      ],
      "name": "ApprovalForAll",
      "type": "event"
    },
    {
      "anonymous": false,
      "inputs": [
        {
          "indexed": true,
          "internalType": "address",
          "name": "previousOwner",
          "type": "address"
        },
        {
          "indexed": true,
          "internalType": "address",
          "name": "newOwner",
          "type": "address"
        }
      ],
      "name": "OwnershipTransferred",
      "type": "event"
    },
    {
      "anonymous": false,
      "inputs": [
        {
          "indexed": true,
          "internalType": "address",
          "name": "from",
          "type": "address"
        },
        {
          "indexed": true,
          "internalType": "address",
          "name": "to",
          "type": "address"
        },
        {
          "indexed": true,
          "internalType": "uint256",
          "name": "tokenId",
          "type": "uint256"
        }
      ],
      "name": "Transfer",
      "type": "event"
    },
    {
      "inputs": [
        {
          "internalType": "address",
          "name": "to",
          "type": "address"
        },
        {
          "internalType": "uint256",
          "name": "tokenId",
          "type": "uint256"
        }
      ],
      "name": "approve",
      "outputs": [],
      "stateMutability": "nonpayable",
      "type": "function"
    },
    {
      "inputs": [
        {
          "internalType": "address",
          "name": "owner",
          "type": "address"
        }
      ],
      "name": "balanceOf",
      "outputs": [
        {
          "internalType": "uint256",
          "name": "",
          "type": "uint256"
        }
      ],
      "stateMutability": "view",
      "type": "function",
      "constant": true
    },
    {
      "inputs": [
        {
          "internalType": "uint256",
          "name": "tokenId",
          "type": "uint256"
        }
      ],
      "name": "getApproved",
      "outputs": [
        {
          "internalType": "address",
          "name": "",
          "type": "address"
        }
      ],
      "stateMutability": "view",
      "type": "function",
      "constant": true
    },
    {
      "inputs": [
        {
          "internalType": "address",
          "name": "owner",
          "type": "address"
        },
        {
          "internalType": "address",
          "name": "operator",
          "type": "address"
        }
      ],
      "name": "isApprovedForAll",
      "outputs": [
        {
          "internalType": "bool",
          "name": "",
          "type": "bool"
        }
      ],
      "stateMutability": "view",
      "type": "function",
      "constant": true
    },
    {
      "inputs": [],
      "name": "name",
      "outputs": [
        {
          "internalType": "string",
          "name": "",
          "type": "string"
        }
      ],
      "stateMutability": "view",
      "type": "function",
      "constant": true
    },
    {
      "inputs": [],
      "name": "owner",
      "outputs": [
        {
          "internalType": "address",
          "name": "",
          "type": "address"
        }
      ],
      "stateMutability": "view",
      "type": "function",
      "constant": true
    },
    {
      "inputs": [
        {
          "internalType": "uint256",
          "name": "tokenId",
          "type": "uint256"
        }
      ],
      "name": "ownerOf",
      "outputs": [
        {
          "internalType": "address",
          "name": "",
          "type": "address"
        }
      ],
      "stateMutability": "view",
      "type": "function",
      "constant": true
    },
    {
      "inputs": [],
      "name": "renounceOwnership",
      "outputs": [],
      "stateMutability": "nonpayable",
      "type": "function"
    },
    {
      "inputs": [
        {
          "internalType": "address",
          "name": "from",
          "type": "address"
        },
        {
          "internalType": "address",
          "name": "to",
          "type": "address"
        },
        {
          "internalType": "uint256",
          "name": "tokenId",
          "type": "uint256"
        }
      ],
      "name": "safeTransferFrom",
      "outputs": [],
      "stateMutability": "nonpayable",
      "type": "function"
    },
    {
      "inputs": [
        {
          "internalType": "address",
          "name": "from",
          "type": "address"
        },
        {
          "internalType": "address",
          "name": "to",
          "type": "address"
        },
        {
          "internalType": "uint256",
          "name": "tokenId",
          "type": "uint256"
        },
        {
          "internalType": "bytes",
          "name": "data",
          "type": "bytes"
        }
      ],
      "name": "safeTransferFrom",
      "outputs": [],
      "stateMutability": "nonpayable",
      "type": "function"
    },
    {
      "inputs": [
        {
          "internalType": "address",
          "name": "operator",
          "type": "address"
        },
        {
          "internalType": "bool",
          "name": "approved",
          "type": "bool"
        }
      ],
      "name": "setApprovalForAll",
      "outputs": [],
      "stateMutability": "nonpayable",
      "type": "function"
    },
    {
      "inputs": [
        {
          "internalType": "bytes4",
          "name": "interfaceId",
          "type": "bytes4"
        }
      ],
      "name": "supportsInterface",
      "outputs": [
        {
          "internalType": "bool",
          "name": "",
          "type": "bool"
        }
      ],
      "stateMutability": "view",
      "type": "function",
      "constant": true
    },
    {
      "inputs": [],
      "name": "symbol",
      "outputs": [
        {
          "internalType": "string",
          "name": "",
          "type": "string"
        }
      ],
      "stateMutability": "view",
      "type": "function",
      "constant": true
    },
    {
      "inputs": [
        {
          "internalType": "uint256",
          "name": "tokenId",
          "type": "uint256"
        }
      ],
      "name": "tokenURI",
      "outputs": [
        {
          "internalType": "string",
          "name": "",
          "type": "string"
        }
      ],
      "stateMutability": "view",
      "type": "function",
      "constant": true
    },
    {
      "inputs": [
        {
          "internalType": "address",
          "name": "from",
          "type": "address"
        },
        {
          "internalType": "address",
          "name": "to",
          "type": "address"
        },
        {
          "internalType": "uint256",
          "name": "tokenId",
          "type": "uint256"
        }
      ],
      "name": "transferFrom",
      "outputs": [],
      "stateMutability": "nonpayable",
      "type": "function"
    },
    {
      "inputs": [
        {
          "internalType": "address",
          "name": "newOwner",
          "type": "address"
        }
      ],
      "name": "transferOwnership",
      "outputs": [],
      "stateMutability": "nonpayable",
      "type": "function"
    },
    {
      "inputs": [
        {
          "internalType": "address",
          "name": "recipient",
          "type": "address"
        },
        {
          "internalType": "string",
          "name": "tokenURI",
          "type": "string"
        }
      ],
      "name": "mintNFT",
      "outputs": [
        {
          "internalType": "uint256",
          "name": "",
          "type": "uint256"
        }
      ],
      "stateMutability": "payable",
      "type": "function",
      "payable": true
    },
    {
      "inputs": [
        {
          "internalType": "address",
          "name": "tokenAddress",
          "type": "address"
        }
      ],
      "name": "setToken",
      "outputs": [
        {
          "internalType": "bool",
          "name": "",
          "type": "bool"
        }
      ],
      "stateMutability": "nonpayable",
      "type": "function"
    }
  ],
  "bytecode": "0x60806040523480156200001157600080fd5b50604051620039c9380380620039c9833981810160405281019062000037919062000393565b6040518060400160405280600681526020017f4d794e46547300000000000000000000000000000000000000000000000000008152506040518060400160405280600481526020017f4d4e4654000000000000000000000000000000000000000000000000000000008152508160009081620000b491906200063f565b508060019081620000c691906200063f565b505050620000e9620000dd6200010a60201b60201c565b6200011260201b60201c565b6001600a819055506200010281620001d860201b60201c565b5050620007a9565b600033905090565b6000600760009054906101000a900473ffffffffffffffffffffffffffffffffffffffff16905081600760006101000a81548173ffffffffffffffffffffffffffffffffffffffff021916908373ffffffffffffffffffffffffffffffffffffffff1602179055508173ffffffffffffffffffffffffffffffffffffffff168173ffffffffffffffffffffffffffffffffffffffff167f8be0079c531659141344cd1fd0a4f28419497f9722a3daafe3b4186f6b6457e060405160405180910390a35050565b6000620001ea6200026e60201b60201c565b600073ffffffffffffffffffffffffffffffffffffffff168273ffffffffffffffffffffffffffffffffffffffff16036200022457600080fd5b81600960006101000a81548173ffffffffffffffffffffffffffffffffffffffff021916908373ffffffffffffffffffffffffffffffffffffffff16021790555060019050919050565b6200027e6200010a60201b60201c565b73ffffffffffffffffffffffffffffffffffffffff16620002a4620002ff60201b60201c565b73ffffffffffffffffffffffffffffffffffffffff1614620002fd576040517f08c379a0000000000000000000000000000000000000000000000000000000008152600401620002f49062000787565b60405180910390fd5b565b6000600760009054906101000a900473ffffffffffffffffffffffffffffffffffffffff16905090565b600080fd5b600073ffffffffffffffffffffffffffffffffffffffff82169050919050565b60006200035b826200032e565b9050919050565b6200036d816200034e565b81146200037957600080fd5b50565b6000815190506200038d8162000362565b92915050565b600060208284031215620003ac57620003ab62000329565b5b6000620003bc848285016200037c565b91505092915050565b600081519050919050565b7f4e487b7100000000000000000000000000000000000000000000000000000000600052604160045260246000fd5b7f4e487b7100000000000000000000000000000000000000000000000000000000600052602260045260246000fd5b600060028204905060018216806200044757607f821691505b6020821081036200045d576200045c620003ff565b5b50919050565b60008190508160005260206000209050919050565b60006020601f8301049050919050565b600082821b905092915050565b600060088302620004c77fffffffffffffffffffffffffffffffffffffffffffffffffffffffffffffffff8262000488565b620004d3868362000488565b95508019841693508086168417925050509392505050565b6000819050919050565b6000819050919050565b6000620005206200051a6200051484620004eb565b620004f5565b620004eb565b9050919050565b6000819050919050565b6200053c83620004ff565b620005546200054b8262000527565b84845462000495565b825550505050565b600090565b6200056b6200055c565b6200057881848462000531565b505050565b5b81811015620005a0576200059460008262000561565b6001810190506200057e565b5050565b601f821115620005ef57620005b98162000463565b620005c48462000478565b81016020851015620005d4578190505b620005ec620005e38562000478565b8301826200057d565b50505b505050565b600082821c905092915050565b60006200061460001984600802620005f4565b1980831691505092915050565b60006200062f838362000601565b9150826002028217905092915050565b6200064a82620003c5565b67ffffffffffffffff811115620006665762000665620003d0565b5b6200067282546200042e565b6200067f828285620005a4565b600060209050601f831160018114620006b75760008415620006a2578287015190505b620006ae858262000621565b8655506200071e565b601f198416620006c78662000463565b60005b82811015620006f157848901518255600182019150602085019450602081019050620006ca565b868310156200071157848901516200070d601f89168262000601565b8355505b6001600288020188555050505b505050505050565b600082825260208201905092915050565b7f4f776e61626c653a2063616c6c6572206973206e6f7420746865206f776e6572600082015250565b60006200076f60208362000726565b91506200077c8262000737565b602082019050919050565b60006020820190508181036000830152620007a28162000760565b9050919050565b61321080620007b96000396000f3fe6080604052600436106101095760003560e01c8063715018a611610095578063b88d4fde11610064578063b88d4fde1461037b578063c87b56dd146103a4578063e985e9c5146103e1578063eacabe141461041e578063f2fde38b1461044e57610109565b8063715018a6146102e55780638da5cb5b146102fc57806395d89b4114610327578063a22cb4651461035257610109565b8063144fa6d7116100dc578063144fa6d7146101dc57806323b872dd1461021957806342842e0e146102425780636352211e1461026b57806370a08231146102a857610109565b806301ffc9a71461010e57806306fdde031461014b578063081812fc14610176578063095ea7b3146101b3575b600080fd5b34801561011a57600080fd5b5061013560048036038101906101309190611d44565b610477565b6040516101429190611d8c565b60405180910390f35b34801561015757600080fd5b50610160610559565b60405161016d9190611e37565b60405180910390f35b34801561018257600080fd5b5061019d60048036038101906101989190611e8f565b6105eb565b6040516101aa9190611efd565b60405180910390f35b3480156101bf57600080fd5b506101da60048036038101906101d59190611f44565b610631565b005b3480156101e857600080fd5b5061020360048036038101906101fe9190611f84565b610748565b6040516102109190611d8c565b60405180910390f35b34801561022557600080fd5b50610240600480360381019061023b9190611fb1565b6107d5565b005b34801561024e57600080fd5b5061026960048036038101906102649190611fb1565b610835565b005b34801561027757600080fd5b50610292600480360381019061028d9190611e8f565b610855565b60405161029f9190611efd565b60405180910390f35b3480156102b457600080fd5b506102cf60048036038101906102ca9190611f84565b610906565b6040516102dc9190612013565b60405180910390f35b3480156102f157600080fd5b506102fa6109bd565b005b34801561030857600080fd5b506103116109d1565b60405161031e9190611efd565b60405180910390f35b34801561033357600080fd5b5061033c6109fb565b6040516103499190611e37565b60405180910390f35b34801561035e57600080fd5b506103796004803603810190610374919061205a565b610a8d565b005b34801561038757600080fd5b506103a2600480360381019061039d91906121cf565b610aa3565b005b3480156103b057600080fd5b506103cb60048036038101906103c69190611e8f565b610b05565b6040516103d89190611e37565b60405180910390f35b3480156103ed57600080fd5b5061040860048036038101906104039190612252565b610c17565b6040516104159190611d8c565b60405180910390f35b61043860048036038101906104339190612333565b610cab565b6040516104459190612013565b60405180910390f35b34801561045a57600080fd5b5061047560048036038101906104709190611f84565b610e6f565b005b60007f80ac58cd000000000000000000000000000000000000000000000000000000007bffffffffffffffffffffffffffffffffffffffffffffffffffffffff1916827bffffffffffffffffffffffffffffffffffffffffffffffffffffffff1916148061054257507f5b5e139f000000000000000000000000000000000000000000000000000000007bffffffffffffffffffffffffffffffffffffffffffffffffffffffff1916827bffffffffffffffffffffffffffffffffffffffffffffffffffffffff1916145b80610552575061055182610ef2565b5b9050919050565b606060008054610568906123be565b80601f0160208091040260200160405190810160405280929190818152602001828054610594906123be565b80156105e15780601f106105b6576101008083540402835291602001916105e1565b820191906000526020600020905b8154815290600101906020018083116105c457829003601f168201915b5050505050905090565b60006105f682610f5c565b6004600083815260200190815260200160002060009054906101000a900473ffffffffffffffffffffffffffffffffffffffff169050919050565b600061063c82610855565b90508073ffffffffffffffffffffffffffffffffffffffff168373ffffffffffffffffffffffffffffffffffffffff16036106ac576040517f08c379a00000000000000000000000000000000000000000000000000000000081526004016106a390612461565b60405180910390fd5b8073ffffffffffffffffffffffffffffffffffffffff166106cb610fa7565b73ffffffffffffffffffffffffffffffffffffffff1614806106fa57506106f9816106f4610fa7565b610c17565b5b610739576040517f08c379a0000000000000000000000000000000000000000000000000000000008152600401610730906124f3565b60405180910390fd5b6107438383610faf565b505050565b6000610752611068565b600073ffffffffffffffffffffffffffffffffffffffff168273ffffffffffffffffffffffffffffffffffffffff160361078b57600080fd5b81600960006101000a81548173ffffffffffffffffffffffffffffffffffffffff021916908373ffffffffffffffffffffffffffffffffffffffff16021790555060019050919050565b6107e66107e0610fa7565b826110e6565b610825576040517f08c379a000000000000000000000000000000000000000000000000000000000815260040161081c90612585565b60405180910390fd5b61083083838361117b565b505050565b61085083838360405180602001604052806000815250610aa3565b505050565b6000806002600084815260200190815260200160002060009054906101000a900473ffffffffffffffffffffffffffffffffffffffff169050600073ffffffffffffffffffffffffffffffffffffffff168173ffffffffffffffffffffffffffffffffffffffff16036108fd576040517f08c379a00000000000000000000000000000000000000000000000000000000081526004016108f4906125f1565b60405180910390fd5b80915050919050565b60008073ffffffffffffffffffffffffffffffffffffffff168273ffffffffffffffffffffffffffffffffffffffff1603610976576040517f08c379a000000000000000000000000000000000000000000000000000000000815260040161096d90612683565b60405180910390fd5b600360008373ffffffffffffffffffffffffffffffffffffffff1673ffffffffffffffffffffffffffffffffffffffff168152602001908152602001600020549050919050565b6109c5611068565b6109cf60006113e1565b565b6000600760009054906101000a900473ffffffffffffffffffffffffffffffffffffffff16905090565b606060018054610a0a906123be565b80601f0160208091040260200160405190810160405280929190818152602001828054610a36906123be565b8015610a835780601f10610a5857610100808354040283529160200191610a83565b820191906000526020600020905b815481529060010190602001808311610a6657829003601f168201915b5050505050905090565b610a9f610a98610fa7565b83836114a7565b5050565b610ab4610aae610fa7565b836110e6565b610af3576040517f08c379a0000000000000000000000000000000000000000000000000000000008152600401610aea90612585565b60405180910390fd5b610aff84848484611613565b50505050565b6060610b1082610f5c565b6000600660008481526020019081526020016000208054610b30906123be565b80601f0160208091040260200160405190810160405280929190818152602001828054610b5c906123be565b8015610ba95780601f10610b7e57610100808354040283529160200191610ba9565b820191906000526020600020905b815481529060010190602001808311610b8c57829003601f168201915b505050505090506000610bba61166f565b90506000815103610bcf578192505050610c12565b600082511115610c04578082604051602001610bec9291906126df565b60405160208183030381529060405292505050610c12565b610c0d84611686565b925050505b919050565b6000600560008473ffffffffffffffffffffffffffffffffffffffff1673ffffffffffffffffffffffffffffffffffffffff16815260200190815260200160002060008373ffffffffffffffffffffffffffffffffffffffff1673ffffffffffffffffffffffffffffffffffffffff16815260200190815260200160002060009054906101000a900460ff16905092915050565b6000610cb5611068565b600a54600960009054906101000a900473ffffffffffffffffffffffffffffffffffffffff1673ffffffffffffffffffffffffffffffffffffffff166370a08231856040518263ffffffff1660e01b8152600401610d139190611efd565b602060405180830381865afa158015610d30573d6000803e3d6000fd5b505050506040513d601f19601f82011682018060405250810190610d549190612718565b11610d94576040517f08c379a0000000000000000000000000000000000000000000000000000000008152600401610d8b906127b7565b60405180910390fd5b600960009054906101000a900473ffffffffffffffffffffffffffffffffffffffff1673ffffffffffffffffffffffffffffffffffffffff166323b872dd8433600a546040518463ffffffff1660e01b8152600401610df5939291906127d7565b6020604051808303816000875af1158015610e14573d6000803e3d6000fd5b505050506040513d601f19601f82011682018060405250810190610e389190612823565b50610e4360086116ee565b6000610e4f6008611704565b9050610e5b8482611712565b610e6581846118eb565b8091505092915050565b610e77611068565b600073ffffffffffffffffffffffffffffffffffffffff168173ffffffffffffffffffffffffffffffffffffffff1603610ee6576040517f08c379a0000000000000000000000000000000000000000000000000000000008152600401610edd906128c2565b60405180910390fd5b610eef816113e1565b50565b60007f01ffc9a7000000000000000000000000000000000000000000000000000000007bffffffffffffffffffffffffffffffffffffffffffffffffffffffff1916827bffffffffffffffffffffffffffffffffffffffffffffffffffffffff1916149050919050565b610f6581611958565b610fa4576040517f08c379a0000000000000000000000000000000000000000000000000000000008152600401610f9b906125f1565b60405180910390fd5b50565b600033905090565b816004600083815260200190815260200160002060006101000a81548173ffffffffffffffffffffffffffffffffffffffff021916908373ffffffffffffffffffffffffffffffffffffffff160217905550808273ffffffffffffffffffffffffffffffffffffffff1661102283610855565b73ffffffffffffffffffffffffffffffffffffffff167f8c5be1e5ebec7d5bd14f71427d1e84f3dd0314c0f7b2291e5b200ac8c7c3b92560405160405180910390a45050565b611070610fa7565b73ffffffffffffffffffffffffffffffffffffffff1661108e6109d1565b73ffffffffffffffffffffffffffffffffffffffff16146110e4576040517f08c379a00000000000000000000000000000000000000000000000000000000081526004016110db9061292e565b60405180910390fd5b565b6000806110f283610855565b90508073ffffffffffffffffffffffffffffffffffffffff168473ffffffffffffffffffffffffffffffffffffffff16148061113457506111338185610c17565b5b8061117257508373ffffffffffffffffffffffffffffffffffffffff1661115a846105eb565b73ffffffffffffffffffffffffffffffffffffffff16145b91505092915050565b8273ffffffffffffffffffffffffffffffffffffffff1661119b82610855565b73ffffffffffffffffffffffffffffffffffffffff16146111f1576040517f08c379a00000000000000000000000000000000000000000000000000000000081526004016111e8906129c0565b60405180910390fd5b600073ffffffffffffffffffffffffffffffffffffffff168273ffffffffffffffffffffffffffffffffffffffff1603611260576040517f08c379a000000000000000000000000000000000000000000000000000000000815260040161125790612a52565b60405180910390fd5b61126b8383836119c4565b611276600082610faf565b6001600360008573ffffffffffffffffffffffffffffffffffffffff1673ffffffffffffffffffffffffffffffffffffffff16815260200190815260200160002060008282546112c69190612aa1565b925050819055506001600360008473ffffffffffffffffffffffffffffffffffffffff1673ffffffffffffffffffffffffffffffffffffffff168152602001908152602001600020600082825461131d9190612ad5565b92505081905550816002600083815260200190815260200160002060006101000a81548173ffffffffffffffffffffffffffffffffffffffff021916908373ffffffffffffffffffffffffffffffffffffffff160217905550808273ffffffffffffffffffffffffffffffffffffffff168473ffffffffffffffffffffffffffffffffffffffff167fddf252ad1be2c89b69c2b068fc378daa952ba7f163c4a11628f55a4df523b3ef60405160405180910390a46113dc8383836119c9565b505050565b6000600760009054906101000a900473ffffffffffffffffffffffffffffffffffffffff16905081600760006101000a81548173ffffffffffffffffffffffffffffffffffffffff021916908373ffffffffffffffffffffffffffffffffffffffff1602179055508173ffffffffffffffffffffffffffffffffffffffff168173ffffffffffffffffffffffffffffffffffffffff167f8be0079c531659141344cd1fd0a4f28419497f9722a3daafe3b4186f6b6457e060405160405180910390a35050565b8173ffffffffffffffffffffffffffffffffffffffff168373ffffffffffffffffffffffffffffffffffffffff1603611515576040517f08c379a000000000000000000000000000000000000000000000000000000000815260040161150c90612b55565b60405180910390fd5b80600560008573ffffffffffffffffffffffffffffffffffffffff1673ffffffffffffffffffffffffffffffffffffffff16815260200190815260200160002060008473ffffffffffffffffffffffffffffffffffffffff1673ffffffffffffffffffffffffffffffffffffffff16815260200190815260200160002060006101000a81548160ff0219169083151502179055508173ffffffffffffffffffffffffffffffffffffffff168373ffffffffffffffffffffffffffffffffffffffff167f17307eab39ab6107e8899845ad3d59bd9653f200f220920489ca2b5937696c31836040516116069190611d8c565b60405180910390a3505050565b61161e84848461117b565b61162a848484846119ce565b611669576040517f08c379a000000000000000000000000000000000000000000000000000000000815260040161166090612be7565b60405180910390fd5b50505050565b606060405180602001604052806000815250905090565b606061169182610f5c565b600061169b61166f565b905060008151116116bb57604051806020016040528060008152506116e6565b806116c584611b55565b6040516020016116d69291906126df565b6040516020818303038152906040525b915050919050565b6001816000016000828254019250508190555050565b600081600001549050919050565b600073ffffffffffffffffffffffffffffffffffffffff168273ffffffffffffffffffffffffffffffffffffffff1603611781576040517f08c379a000000000000000000000000000000000000000000000000000000000815260040161177890612c53565b60405180910390fd5b61178a81611958565b156117ca576040517f08c379a00000000000000000000000000000000000000000000000000000000081526004016117c190612cbf565b60405180910390fd5b6117d6600083836119c4565b6001600360008473ffffffffffffffffffffffffffffffffffffffff1673ffffffffffffffffffffffffffffffffffffffff16815260200190815260200160002060008282546118269190612ad5565b92505081905550816002600083815260200190815260200160002060006101000a81548173ffffffffffffffffffffffffffffffffffffffff021916908373ffffffffffffffffffffffffffffffffffffffff160217905550808273ffffffffffffffffffffffffffffffffffffffff16600073ffffffffffffffffffffffffffffffffffffffff167fddf252ad1be2c89b69c2b068fc378daa952ba7f163c4a11628f55a4df523b3ef60405160405180910390a46118e7600083836119c9565b5050565b6118f482611958565b611933576040517f08c379a000000000000000000000000000000000000000000000000000000000815260040161192a90612d51565b60405180910390fd5b806006600084815260200190815260200160002090816119539190612f1d565b505050565b60008073ffffffffffffffffffffffffffffffffffffffff166002600084815260200190815260200160002060009054906101000a900473ffffffffffffffffffffffffffffffffffffffff1673ffffffffffffffffffffffffffffffffffffffff1614159050919050565b505050565b505050565b60006119ef8473ffffffffffffffffffffffffffffffffffffffff16611cb5565b15611b48578373ffffffffffffffffffffffffffffffffffffffff1663150b7a02611a18610fa7565b8786866040518563ffffffff1660e01b8152600401611a3a9493929190613044565b6020604051808303816000875af1925050508015611a7657506040513d601f19601f82011682018060405250810190611a7391906130a5565b60015b611af8573d8060008114611aa6576040519150601f19603f3d011682016040523d82523d6000602084013e611aab565b606091505b506000815103611af0576040517f08c379a0000000000000000000000000000000000000000000000000000000008152600401611ae790612be7565b60405180910390fd5b805181602001fd5b63150b7a0260e01b7bffffffffffffffffffffffffffffffffffffffffffffffffffffffff1916817bffffffffffffffffffffffffffffffffffffffffffffffffffffffff191614915050611b4d565b600190505b949350505050565b606060008203611b9c576040518060400160405280600181526020017f30000000000000000000000000000000000000000000000000000000000000008152509050611cb0565b600082905060005b60008214611bce578080611bb7906130d2565b915050600a82611bc79190613149565b9150611ba4565b60008167ffffffffffffffff811115611bea57611be96120a4565b5b6040519080825280601f01601f191660200182016040528015611c1c5781602001600182028036833780820191505090505b5090505b60008514611ca957600182611c359190612aa1565b9150600a85611c44919061317a565b6030611c509190612ad5565b60f81b818381518110611c6657611c656131ab565b5b60200101907effffffffffffffffffffffffffffffffffffffffffffffffffffffffffffff1916908160001a905350600a85611ca29190613149565b9450611c20565b8093505050505b919050565b6000808273ffffffffffffffffffffffffffffffffffffffff163b119050919050565b6000604051905090565b600080fd5b600080fd5b60007fffffffff0000000000000000000000000000000000000000000000000000000082169050919050565b611d2181611cec565b8114611d2c57600080fd5b50565b600081359050611d3e81611d18565b92915050565b600060208284031215611d5a57611d59611ce2565b5b6000611d6884828501611d2f565b91505092915050565b60008115159050919050565b611d8681611d71565b82525050565b6000602082019050611da16000830184611d7d565b92915050565b600081519050919050565b600082825260208201905092915050565b60005b83811015611de1578082015181840152602081019050611dc6565b60008484015250505050565b6000601f19601f8301169050919050565b6000611e0982611da7565b611e138185611db2565b9350611e23818560208601611dc3565b611e2c81611ded565b840191505092915050565b60006020820190508181036000830152611e518184611dfe565b905092915050565b6000819050919050565b611e6c81611e59565b8114611e7757600080fd5b50565b600081359050611e8981611e63565b92915050565b600060208284031215611ea557611ea4611ce2565b5b6000611eb384828501611e7a565b91505092915050565b600073ffffffffffffffffffffffffffffffffffffffff82169050919050565b6000611ee782611ebc565b9050919050565b611ef781611edc565b82525050565b6000602082019050611f126000830184611eee565b92915050565b611f2181611edc565b8114611f2c57600080fd5b50565b600081359050611f3e81611f18565b92915050565b60008060408385031215611f5b57611f5a611ce2565b5b6000611f6985828601611f2f565b9250506020611f7a85828601611e7a565b9150509250929050565b600060208284031215611f9a57611f99611ce2565b5b6000611fa884828501611f2f565b91505092915050565b600080600060608486031215611fca57611fc9611ce2565b5b6000611fd886828701611f2f565b9350506020611fe986828701611f2f565b9250506040611ffa86828701611e7a565b9150509250925092565b61200d81611e59565b82525050565b60006020820190506120286000830184612004565b92915050565b61203781611d71565b811461204257600080fd5b50565b6000813590506120548161202e565b92915050565b6000806040838503121561207157612070611ce2565b5b600061207f85828601611f2f565b925050602061209085828601612045565b9150509250929050565b600080fd5b600080fd5b7f4e487b7100000000000000000000000000000000000000000000000000000000600052604160045260246000fd5b6120dc82611ded565b810181811067ffffffffffffffff821117156120fb576120fa6120a4565b5b80604052505050565b600061210e611cd8565b905061211a82826120d3565b919050565b600067ffffffffffffffff82111561213a576121396120a4565b5b61214382611ded565b9050602081019050919050565b82818337600083830152505050565b600061217261216d8461211f565b612104565b90508281526020810184848401111561218e5761218d61209f565b5b612199848285612150565b509392505050565b600082601f8301126121b6576121b561209a565b5b81356121c684826020860161215f565b91505092915050565b600080600080608085870312156121e9576121e8611ce2565b5b60006121f787828801611f2f565b945050602061220887828801611f2f565b935050604061221987828801611e7a565b925050606085013567ffffffffffffffff81111561223a57612239611ce7565b5b612246878288016121a1565b91505092959194509250565b6000806040838503121561226957612268611ce2565b5b600061227785828601611f2f565b925050602061228885828601611f2f565b9150509250929050565b600067ffffffffffffffff8211156122ad576122ac6120a4565b5b6122b682611ded565b9050602081019050919050565b60006122d66122d184612292565b612104565b9050828152602081018484840111156122f2576122f161209f565b5b6122fd848285612150565b509392505050565b600082601f83011261231a5761231961209a565b5b813561232a8482602086016122c3565b91505092915050565b6000806040838503121561234a57612349611ce2565b5b600061235885828601611f2f565b925050602083013567ffffffffffffffff81111561237957612378611ce7565b5b61238585828601612305565b9150509250929050565b7f4e487b7100000000000000000000000000000000000000000000000000000000600052602260045260246000fd5b600060028204905060018216806123d657607f821691505b6020821081036123e9576123e861238f565b5b50919050565b7f4552433732313a20617070726f76616c20746f2063757272656e74206f776e6560008201527f7200000000000000000000000000000000000000000000000000000000000000602082015250565b600061244b602183611db2565b9150612456826123ef565b604082019050919050565b6000602082019050818103600083015261247a8161243e565b9050919050565b7f4552433732313a20617070726f76652063616c6c6572206973206e6f7420746f60008201527f6b656e206f776e6572206e6f7220617070726f76656420666f7220616c6c0000602082015250565b60006124dd603e83611db2565b91506124e882612481565b604082019050919050565b6000602082019050818103600083015261250c816124d0565b9050919050565b7f4552433732313a2063616c6c6572206973206e6f7420746f6b656e206f776e6560008201527f72206e6f7220617070726f766564000000000000000000000000000000000000602082015250565b600061256f602e83611db2565b915061257a82612513565b604082019050919050565b6000602082019050818103600083015261259e81612562565b9050919050565b7f4552433732313a20696e76616c696420746f6b656e2049440000000000000000600082015250565b60006125db601883611db2565b91506125e6826125a5565b602082019050919050565b6000602082019050818103600083015261260a816125ce565b9050919050565b7f4552433732313a2061646472657373207a65726f206973206e6f74206120766160008201527f6c6964206f776e65720000000000000000000000000000000000000000000000602082015250565b600061266d602983611db2565b915061267882612611565b604082019050919050565b6000602082019050818103600083015261269c81612660565b9050919050565b600081905092915050565b60006126b982611da7565b6126c381856126a3565b93506126d3818560208601611dc3565b80840191505092915050565b60006126eb82856126ae565b91506126f782846126ae565b91508190509392505050565b60008151905061271281611e63565b92915050565b60006020828403121561272e5761272d611ce2565b5b600061273c84828501612703565b91505092915050565b7f4552433732313a20726563697069656e74206c61636b206f662062616c616e6360008201527f6500000000000000000000000000000000000000000000000000000000000000602082015250565b60006127a1602183611db2565b91506127ac82612745565b604082019050919050565b600060208201905081810360008301526127d081612794565b9050919050565b60006060820190506127ec6000830186611eee565b6127f96020830185611eee565b6128066040830184612004565b949350505050565b60008151905061281d8161202e565b92915050565b60006020828403121561283957612838611ce2565b5b60006128478482850161280e565b91505092915050565b7f4f776e61626c653a206e6577206f776e657220697320746865207a65726f206160008201527f6464726573730000000000000000000000000000000000000000000000000000602082015250565b60006128ac602683611db2565b91506128b782612850565b604082019050919050565b600060208201905081810360008301526128db8161289f565b9050919050565b7f4f776e61626c653a2063616c6c6572206973206e6f7420746865206f776e6572600082015250565b6000612918602083611db2565b9150612923826128e2565b602082019050919050565b600060208201905081810360008301526129478161290b565b9050919050565b7f4552433732313a207472616e736665722066726f6d20696e636f72726563742060008201527f6f776e6572000000000000000000000000000000000000000000000000000000602082015250565b60006129aa602583611db2565b91506129b58261294e565b604082019050919050565b600060208201905081810360008301526129d98161299d565b9050919050565b7f4552433732313a207472616e7366657220746f20746865207a65726f2061646460008201527f7265737300000000000000000000000000000000000000000000000000000000602082015250565b6000612a3c602483611db2565b9150612a47826129e0565b604082019050919050565b60006020820190508181036000830152612a6b81612a2f565b9050919050565b7f4e487b7100000000000000000000000000000000000000000000000000000000600052601160045260246000fd5b6000612aac82611e59565b9150612ab783611e59565b9250828203905081811115612acf57612ace612a72565b5b92915050565b6000612ae082611e59565b9150612aeb83611e59565b9250828201905080821115612b0357612b02612a72565b5b92915050565b7f4552433732313a20617070726f766520746f2063616c6c657200000000000000600082015250565b6000612b3f601983611db2565b9150612b4a82612b09565b602082019050919050565b60006020820190508181036000830152612b6e81612b32565b9050919050565b7f4552433732313a207472616e7366657220746f206e6f6e20455243373231526560008201527f63656976657220696d706c656d656e7465720000000000000000000000000000602082015250565b6000612bd1603283611db2565b9150612bdc82612b75565b604082019050919050565b60006020820190508181036000830152612c0081612bc4565b9050919050565b7f4552433732313a206d696e7420746f20746865207a65726f2061646472657373600082015250565b6000612c3d602083611db2565b9150612c4882612c07565b602082019050919050565b60006020820190508181036000830152612c6c81612c30565b9050919050565b7f4552433732313a20746f6b656e20616c7265616479206d696e74656400000000600082015250565b6000612ca9601c83611db2565b9150612cb482612c73565b602082019050919050565b60006020820190508181036000830152612cd881612c9c565b9050919050565b7f45524337323155524953746f726167653a2055524920736574206f66206e6f6e60008201527f6578697374656e7420746f6b656e000000000000000000000000000000000000602082015250565b6000612d3b602e83611db2565b9150612d4682612cdf565b604082019050919050565b60006020820190508181036000830152612d6a81612d2e565b9050919050565b60008190508160005260206000209050919050565b60006020601f8301049050919050565b600082821b905092915050565b600060088302612dd37fffffffffffffffffffffffffffffffffffffffffffffffffffffffffffffffff82612d96565b612ddd8683612d96565b95508019841693508086168417925050509392505050565b6000819050919050565b6000612e1a612e15612e1084611e59565b612df5565b611e59565b9050919050565b6000819050919050565b612e3483612dff565b612e48612e4082612e21565b848454612da3565b825550505050565b600090565b612e5d612e50565b612e68818484612e2b565b505050565b5b81811015612e8c57612e81600082612e55565b600181019050612e6e565b5050565b601f821115612ed157612ea281612d71565b612eab84612d86565b81016020851015612eba578190505b612ece612ec685612d86565b830182612e6d565b50505b505050565b600082821c905092915050565b6000612ef460001984600802612ed6565b1980831691505092915050565b6000612f0d8383612ee3565b9150826002028217905092915050565b612f2682611da7565b67ffffffffffffffff811115612f3f57612f3e6120a4565b5b612f4982546123be565b612f54828285612e90565b600060209050601f831160018114612f875760008415612f75578287015190505b612f7f8582612f01565b865550612fe7565b601f198416612f9586612d71565b60005b82811015612fbd57848901518255600182019150602085019450602081019050612f98565b86831015612fda5784890151612fd6601f891682612ee3565b8355505b6001600288020188555050505b505050505050565b600081519050919050565b600082825260208201905092915050565b600061301682612fef565b6130208185612ffa565b9350613030818560208601611dc3565b61303981611ded565b840191505092915050565b60006080820190506130596000830187611eee565b6130666020830186611eee565b6130736040830185612004565b8181036060830152613085818461300b565b905095945050505050565b60008151905061309f81611d18565b92915050565b6000602082840312156130bb576130ba611ce2565b5b60006130c984828501613090565b91505092915050565b60006130dd82611e59565b91507fffffffffffffffffffffffffffffffffffffffffffffffffffffffffffffffff820361310f5761310e612a72565b5b600182019050919050565b7f4e487b7100000000000000000000000000000000000000000000000000000000600052601260045260246000fd5b600061315482611e59565b915061315f83611e59565b92508261316f5761316e61311a565b5b828204905092915050565b600061318582611e59565b915061319083611e59565b9250826131a05761319f61311a565b5b828206905092915050565b7f4e487b7100000000000000000000000000000000000000000000000000000000600052603260045260246000fdfea26469706673582212203f9e827940b40424241849f6aadebd4e8af7b11fb0d364e155e721ce99d29cbf64736f6c63430008100033",
  "immutableReferences": {},
  "source": "// SPDX-License-Identifier: MIT\npragma solidity ^0.8.10;\n\nimport \"@openzeppelin/contracts/token/ERC721/ERC721.sol\";\nimport \"@openzeppelin/contracts/utils/Counters.sol\";\nimport \"@openzeppelin/contracts/access/Ownable.sol\";\nimport \"@openzeppelin/contracts/token/ERC721/extensions/ERC721URIStorage.sol\";\nimport \"./interfaces/ERC20Interface.sol\";\n\ncontract NFTLootBox is ERC721URIStorage, Ownable {\n    using Counters for Counters.Counter;\n    Counters.Counter private _tokenIds;\n    ERC20Interface token;\n    uint256 nftPrice;\n\n    constructor(address contractAddress) ERC721(\"MyNFTs\", \"MNFT\") {\n        nftPrice = 1;\n        setToken(contractAddress);\n    }\n\n    function mintNFT(address recipient, string memory tokenURI) public payable onlyOwner returns (uint256) {\n        require(token.balanceOf(recipient) > nftPrice, \"ERC721: recipient lack of balance\");\n\n        token.transferFrom(recipient, msg.sender, nftPrice);\n        \n        _tokenIds.increment();\n        uint256 newItemId = _tokenIds.current();\n        _mint(recipient, newItemId);\n        _setTokenURI(newItemId, tokenURI);\n\n        return newItemId;\n    }\n\n    function setToken(address tokenAddress) public onlyOwner returns (bool) {\n        require(tokenAddress != address(0x0));\n        token = ERC20Interface(tokenAddress);\n        return true;\n    }\n}\n",
  "sourcePath": "/Users/hyenne/workspace/BEB-05-JMT/contract/contracts/ERC721.sol",
  "compiler": {
    "name": "solc",
    "version": "0.8.16+commit.07a7930e.Emscripten.clang"
  },
  "schemaVersion": "3.4.9",
  "updatedAt": "2022-09-04T15:26:36.277Z",
  "networkType": "ethereum",
  "devdoc": {
    "kind": "dev",
    "methods": {
      "approve(address,uint256)": {
        "details": "See {IERC721-approve}."
      },
      "balanceOf(address)": {
        "details": "See {IERC721-balanceOf}."
      },
      "getApproved(uint256)": {
        "details": "See {IERC721-getApproved}."
      },
      "isApprovedForAll(address,address)": {
        "details": "See {IERC721-isApprovedForAll}."
      },
      "name()": {
        "details": "See {IERC721Metadata-name}."
      },
      "owner()": {
        "details": "Returns the address of the current owner."
      },
      "ownerOf(uint256)": {
        "details": "See {IERC721-ownerOf}."
      },
      "renounceOwnership()": {
        "details": "Leaves the contract without owner. It will not be possible to call `onlyOwner` functions anymore. Can only be called by the current owner. NOTE: Renouncing ownership will leave the contract without an owner, thereby removing any functionality that is only available to the owner."
      },
      "safeTransferFrom(address,address,uint256)": {
        "details": "See {IERC721-safeTransferFrom}."
      },
      "safeTransferFrom(address,address,uint256,bytes)": {
        "details": "See {IERC721-safeTransferFrom}."
      },
      "setApprovalForAll(address,bool)": {
        "details": "See {IERC721-setApprovalForAll}."
      },
      "supportsInterface(bytes4)": {
        "details": "See {IERC165-supportsInterface}."
      },
      "symbol()": {
        "details": "See {IERC721Metadata-symbol}."
      },
      "tokenURI(uint256)": {
        "details": "See {IERC721Metadata-tokenURI}."
      },
      "transferFrom(address,address,uint256)": {
        "details": "See {IERC721-transferFrom}."
      },
      "transferOwnership(address)": {
        "details": "Transfers ownership of the contract to a new account (`newOwner`). Can only be called by the current owner."
      }
    },
    "version": 1
  },
  "userdoc": {
    "kind": "user",
    "methods": {},
    "version": 1
  }
}