{
  "contractName": "Staking",
  "abi": [
    {
      "inputs": [
        {
          "internalType": "contract VJMToken",
          "name": "_tokenAddress",
          "type": "address"
        }
      ],
      "stateMutability": "nonpayable",
      "type": "constructor"
    },
    {
      "anonymous": false,
      "inputs": [
        {
          "indexed": true,
          "internalType": "address",
          "name": "from",
          "type": "address"
        },
        {
          "indexed": false,
          "internalType": "uint256",
          "name": "amount",
          "type": "uint256"
        }
      ],
      "name": "Claimed",
      "type": "event"
    },
    {
      "anonymous": false,
      "inputs": [
        {
          "indexed": true,
          "internalType": "address",
          "name": "previousOwner",
          "type": "address"
        },
        {
          "indexed": true,
          "internalType": "address",
          "name": "newOwner",
          "type": "address"
        }
      ],
      "name": "OwnershipTransferred",
      "type": "event"
    },
    {
      "anonymous": false,
      "inputs": [
        {
          "indexed": true,
          "internalType": "address",
          "name": "from",
          "type": "address"
        },
        {
          "indexed": false,
          "internalType": "uint256",
          "name": "amount",
          "type": "uint256"
        }
      ],
      "name": "Staked",
      "type": "event"
    },
    {
      "anonymous": false,
      "inputs": [
        {
          "indexed": true,
          "internalType": "address",
          "name": "from",
          "type": "address"
        },
        {
          "indexed": false,
          "internalType": "uint256",
          "name": "unStakedTime",
          "type": "uint256"
        }
      ],
      "name": "UnStaked",
      "type": "event"
    },
    {
      "anonymous": false,
      "inputs": [
        {
          "indexed": true,
          "internalType": "address",
          "name": "from",
          "type": "address"
        },
        {
          "indexed": false,
          "internalType": "uint256",
          "name": "unStakedTime",
          "type": "uint256"
        },
        {
          "indexed": false,
          "internalType": "uint256",
          "name": "amount",
          "type": "uint256"
        }
      ],
      "name": "UnStakedClaimed",
      "type": "event"
    },
    {
      "inputs": [],
      "name": "APR",
      "outputs": [
        {
          "internalType": "uint32",
          "name": "",
          "type": "uint32"
        }
      ],
      "stateMutability": "view",
      "type": "function",
      "constant": true
    },
    {
      "inputs": [],
      "name": "Deploytime",
      "outputs": [
        {
          "internalType": "uint256",
          "name": "",
          "type": "uint256"
        }
      ],
      "stateMutability": "view",
      "type": "function",
      "constant": true
    },
    {
      "inputs": [
        {
          "internalType": "address",
          "name": "",
          "type": "address"
        }
      ],
      "name": "addressStaked",
      "outputs": [
        {
          "internalType": "bool",
          "name": "",
          "type": "bool"
        }
      ],
      "stateMutability": "view",
      "type": "function",
      "constant": true
    },
    {
      "inputs": [],
      "name": "decimals",
      "outputs": [
        {
          "internalType": "uint256",
          "name": "",
          "type": "uint256"
        }
      ],
      "stateMutability": "view",
      "type": "function",
      "constant": true
    },
    {
      "inputs": [],
      "name": "owner",
      "outputs": [
        {
          "internalType": "address",
          "name": "",
          "type": "address"
        }
      ],
      "stateMutability": "view",
      "type": "function",
      "constant": true
    },
    {
      "inputs": [],
      "name": "renounceOwnership",
      "outputs": [],
      "stateMutability": "nonpayable",
      "type": "function"
    },
    {
      "inputs": [
        {
          "internalType": "address",
          "name": "",
          "type": "address"
        }
      ],
      "name": "stakeInfos",
      "outputs": [
        {
          "internalType": "uint256",
          "name": "startTS",
          "type": "uint256"
        },
        {
          "internalType": "uint256",
          "name": "claimedTime",
          "type": "uint256"
        },
        {
          "internalType": "uint256",
          "name": "unStakingTime",
          "type": "uint256"
        },
        {
          "internalType": "uint256",
          "name": "amount",
          "type": "uint256"
        },
        {
          "internalType": "uint256",
          "name": "totalClaimed",
          "type": "uint256"
        },
        {
          "internalType": "uint32",
          "name": "state",
          "type": "uint32"
        }
      ],
      "stateMutability": "view",
      "type": "function",
      "constant": true
    },
    {
      "inputs": [
        {
          "internalType": "address",
          "name": "newOwner",
          "type": "address"
        }
      ],
      "name": "transferOwnership",
      "outputs": [],
      "stateMutability": "nonpayable",
      "type": "function"
    },
    {
      "inputs": [
        {
          "internalType": "contract JMToken",
          "name": "_jmt",
          "type": "address"
        }
      ],
      "name": "setJMTokenAddress",
      "outputs": [],
      "stateMutability": "nonpayable",
      "type": "function"
    },
    {
      "inputs": [],
      "name": "setStakeInfo",
      "outputs": [],
      "stateMutability": "nonpayable",
      "type": "function"
    },
    {
      "inputs": [
        {
          "internalType": "uint256",
          "name": "stakeAmount",
          "type": "uint256"
        }
      ],
      "name": "stakeToken",
      "outputs": [
        {
          "internalType": "bool",
          "name": "",
          "type": "bool"
        }
      ],
      "stateMutability": "payable",
      "type": "function",
      "payable": true
    },
    {
      "inputs": [],
      "name": "unStakingToken",
      "outputs": [],
      "stateMutability": "payable",
      "type": "function",
      "payable": true
    },
    {
      "inputs": [],
      "name": "unStakingClaime",
      "outputs": [
        {
          "internalType": "bool",
          "name": "",
          "type": "bool"
        },
        {
          "internalType": "uint256",
          "name": "",
          "type": "uint256"
        }
      ],
      "stateMutability": "payable",
      "type": "function",
      "payable": true
    },
    {
      "inputs": [],
      "name": "claimReward",
      "outputs": [
        {
          "internalType": "bool",
          "name": "",
          "type": "bool"
        }
      ],
      "stateMutability": "nonpayable",
      "type": "function"
    },
    {
      "inputs": [],
      "name": "claimableReward",
      "outputs": [
        {
          "internalType": "uint256",
          "name": "",
          "type": "uint256"
        }
      ],
      "stateMutability": "view",
      "type": "function",
      "constant": true
    }
  ],
  "bytecode": "0x6080604052670de0b6b3a76400006002556096600360006101000a81548163ffffffff021916908363ffffffff1602179055506301e13380600360046101000a81548163ffffffff021916908363ffffffff16021790555062015180600360086101000a81548163ffffffff021916908363ffffffff16021790555060038060089054906101000a900463ffffffff166200009b9190620002c3565b63ffffffff16600455348015620000b157600080fd5b50604051620025cb380380620025cb8339818101604052810190620000d7919062000387565b620000f7620000eb620001b860201b60201c565b620001c060201b60201c565b600073ffffffffffffffffffffffffffffffffffffffff168173ffffffffffffffffffffffffffffffffffffffff160362000169576040517f08c379a0000000000000000000000000000000000000000000000000000000008152600401620001609062000440565b60405180910390fd5b80600560006101000a81548173ffffffffffffffffffffffffffffffffffffffff021916908373ffffffffffffffffffffffffffffffffffffffff160217905550426001819055505062000462565b600033905090565b60008060009054906101000a900473ffffffffffffffffffffffffffffffffffffffff169050816000806101000a81548173ffffffffffffffffffffffffffffffffffffffff021916908373ffffffffffffffffffffffffffffffffffffffff1602179055508173ffffffffffffffffffffffffffffffffffffffff168173ffffffffffffffffffffffffffffffffffffffff167f8be0079c531659141344cd1fd0a4f28419497f9722a3daafe3b4186f6b6457e060405160405180910390a35050565b600063ffffffff82169050919050565b7f4e487b7100000000000000000000000000000000000000000000000000000000600052601160045260246000fd5b6000620002d08262000284565b9150620002dd8362000284565b9250828202620002ed8162000284565b915080821462000302576200030162000294565b5b5092915050565b600080fd5b600073ffffffffffffffffffffffffffffffffffffffff82169050919050565b60006200033b826200030e565b9050919050565b60006200034f826200032e565b9050919050565b620003618162000342565b81146200036d57600080fd5b50565b600081519050620003818162000356565b92915050565b600060208284031215620003a0576200039f62000309565b5b6000620003b08482850162000370565b91505092915050565b600082825260208201905092915050565b7f546f6b656e20416464726573732063616e6e6f7420626520616464726573732060008201527f3000000000000000000000000000000000000000000000000000000000000000602082015250565b600062000428602183620003b9565b91506200043582620003ca565b604082019050919050565b600060208201905081810360008301526200045b8162000419565b9050919050565b61215980620004726000396000f3fe6080604052600436106100e85760003560e01c806391de6b161161008a578063dfbf9def11610059578063dfbf9def14610274578063e7181edc146102b6578063e74d059f146102e1578063f2fde38b1461031e576100e8565b806391de6b16146101c5578063b88a802f146101ee578063bd30558e14610219578063cda6b84714610244576100e8565b8063715018a6116100c6578063715018a61461014d5780637b9ba7fd1461016457806389fb2e46146101835780638da5cb5b1461019a576100e8565b8063313ce567146100ed5780633595bf7a14610118578063397eee8014610122575b600080fd5b3480156100f957600080fd5b50610102610347565b60405161010f919061180a565b60405180910390f35b61012061034d565b005b34801561012e57600080fd5b5061013761074d565b604051610144919061180a565b60405180910390f35b34801561015957600080fd5b50610162610753565b005b61016c610767565b60405161017a929190611840565b60405180910390f35b34801561018f57600080fd5b50610198610add565b005b3480156101a657600080fd5b506101af610b26565b6040516101bc91906118aa565b60405180910390f35b3480156101d157600080fd5b506101ec60048036038101906101e79190611908565b610b4f565b005b3480156101fa57600080fd5b50610203610c2c565b6040516102109190611935565b60405180910390f35b34801561022557600080fd5b5061022e610eec565b60405161023b919061196f565b60405180910390f35b61025e600480360381019061025991906119b6565b610f02565b60405161026b9190611935565b60405180910390f35b34801561028057600080fd5b5061029b60048036038101906102969190611a0f565b61142d565b6040516102ad96959493929190611a3c565b60405180910390f35b3480156102c257600080fd5b506102cb611479565b6040516102d8919061180a565b60405180910390f35b3480156102ed57600080fd5b5061030860048036038101906103039190611a0f565b611604565b6040516103159190611935565b60405180910390f35b34801561032a57600080fd5b5061034560048036038101906103409190611a0f565b611624565b005b60025481565b60011515600860003373ffffffffffffffffffffffffffffffffffffffff1673ffffffffffffffffffffffffffffffffffffffff16815260200190815260200160002060009054906101000a900460ff161515146103e0576040517f08c379a00000000000000000000000000000000000000000000000000000000081526004016103d790611afa565b60405180910390fd5b6000600760003373ffffffffffffffffffffffffffffffffffffffff1673ffffffffffffffffffffffffffffffffffffffff16815260200190815260200160002060010154426104309190611b49565b90506000600360089054906101000a900463ffffffff1663ffffffff16600360049054906101000a900463ffffffff1663ffffffff166064600360009054906101000a900463ffffffff1663ffffffff16600760003373ffffffffffffffffffffffffffffffffffffffff1673ffffffffffffffffffffffffffffffffffffffff168152602001908152602001600020600301546104ce9190611b7d565b6104d89190611bee565b6104e29190611bee565b6104ec9190611bee565b9050600082826104fc9190611b7d565b9050600660009054906101000a900473ffffffffffffffffffffffffffffffffffffffff1673ffffffffffffffffffffffffffffffffffffffff1663a9059cbb33600a8461054a9190611bee565b6040518363ffffffff1660e01b8152600401610567929190611c1f565b6020604051808303816000875af1158015610586573d6000803e3d6000fd5b505050506040513d601f19601f820116820180604052508101906105aa9190611c74565b5042600760003373ffffffffffffffffffffffffffffffffffffffff1673ffffffffffffffffffffffffffffffffffffffff168152602001908152602001600020600201819055506000600860003373ffffffffffffffffffffffffffffffffffffffff1673ffffffffffffffffffffffffffffffffffffffff16815260200190815260200160002060006101000a81548160ff0219169083151502179055506002600760003373ffffffffffffffffffffffffffffffffffffffff1673ffffffffffffffffffffffffffffffffffffffff16815260200190815260200160002060050160006101000a81548163ffffffff021916908363ffffffff1602179055503373ffffffffffffffffffffffffffffffffffffffff167f79d3df6837cc49ff0e09fd3258e6e45594e0703445bb06825e9d75156eaee8f0426040516106f2919061180a565b60405180910390a23373ffffffffffffffffffffffffffffffffffffffff167fd8138f8a3f377c5259ca548e70e4c2de94f129f5a11036a15b69513cba2b426a82604051610740919061180a565b60405180910390a2505050565b60015481565b61075b6116a7565b6107656000611725565b565b6000806002600760003373ffffffffffffffffffffffffffffffffffffffff1673ffffffffffffffffffffffffffffffffffffffff16815260200190815260200160002060050160009054906101000a900463ffffffff1663ffffffff1614610805576040517f08c379a00000000000000000000000000000000000000000000000000000000081526004016107fc90611d13565b60405180910390fd5b42600454600760003373ffffffffffffffffffffffffffffffffffffffff1673ffffffffffffffffffffffffffffffffffffffff168152602001908152602001600020600201546108569190611d33565b1015610a71576000600760003373ffffffffffffffffffffffffffffffffffffffff1673ffffffffffffffffffffffffffffffffffffffff168152602001908152602001600020600301549050600560009054906101000a900473ffffffffffffffffffffffffffffffffffffffff1673ffffffffffffffffffffffffffffffffffffffff1663a9059cbb33836040518363ffffffff1660e01b8152600401610900929190611c1f565b6020604051808303816000875af115801561091f573d6000803e3d6000fd5b505050506040513d601f19601f820116820180604052508101906109439190611c74565b50600760003373ffffffffffffffffffffffffffffffffffffffff1673ffffffffffffffffffffffffffffffffffffffff16815260200190815260200160002060008082016000905560018201600090556002820160009055600382016000905560048201600090556005820160006101000a81549063ffffffff02191690555050600860003373ffffffffffffffffffffffffffffffffffffffff1673ffffffffffffffffffffffffffffffffffffffff16815260200190815260200160002060006101000a81549060ff02191690553373ffffffffffffffffffffffffffffffffffffffff167fec4c5e119b3c2211affd553a6167326af1472cb3b7966b96b0f84a56d8d5317c4283604051610a5c929190611d67565b60405180910390a26001429250925050610ad9565b600042600454600760003373ffffffffffffffffffffffffffffffffffffffff1673ffffffffffffffffffffffffffffffffffffffff16815260200190815260200160002060020154610ac49190611d33565b610ace9190611b49565b905060008192509250505b9091565b42600760003373ffffffffffffffffffffffffffffffffffffffff1673ffffffffffffffffffffffffffffffffffffffff16815260200190815260200160002060010181905550565b60008060009054906101000a900473ffffffffffffffffffffffffffffffffffffffff16905090565b610b576116a7565b600073ffffffffffffffffffffffffffffffffffffffff16600660009054906101000a900473ffffffffffffffffffffffffffffffffffffffff1673ffffffffffffffffffffffffffffffffffffffff1614610be8576040517f08c379a0000000000000000000000000000000000000000000000000000000008152600401610bdf90611ddc565b60405180910390fd5b80600660006101000a81548173ffffffffffffffffffffffffffffffffffffffff021916908373ffffffffffffffffffffffffffffffffffffffff16021790555050565b600060011515600860003373ffffffffffffffffffffffffffffffffffffffff1673ffffffffffffffffffffffffffffffffffffffff16815260200190815260200160002060009054906101000a900460ff16151514610cc1576040517f08c379a0000000000000000000000000000000000000000000000000000000008152600401610cb890611e48565b60405180910390fd5b6000600760003373ffffffffffffffffffffffffffffffffffffffff1673ffffffffffffffffffffffffffffffffffffffff1681526020019081526020016000206001015442610d119190611b49565b90506000600360089054906101000a900463ffffffff1663ffffffff16600360049054906101000a900463ffffffff1663ffffffff166064600360009054906101000a900463ffffffff1663ffffffff16600760003373ffffffffffffffffffffffffffffffffffffffff1673ffffffffffffffffffffffffffffffffffffffff16815260200190815260200160002060030154610daf9190611b7d565b610db99190611bee565b610dc39190611bee565b610dcd9190611bee565b905060008282610ddd9190611b7d565b9050600660009054906101000a900473ffffffffffffffffffffffffffffffffffffffff1673ffffffffffffffffffffffffffffffffffffffff1663a9059cbb33600a84610e2b9190611bee565b6040518363ffffffff1660e01b8152600401610e48929190611c1f565b6020604051808303816000875af1158015610e67573d6000803e3d6000fd5b505050506040513d601f19601f82011682018060405250810190610e8b9190611c74565b50610e94610add565b3373ffffffffffffffffffffffffffffffffffffffff167fd8138f8a3f377c5259ca548e70e4c2de94f129f5a11036a15b69513cba2b426a82604051610eda919061180a565b60405180910390a26001935050505090565b600360009054906101000a900463ffffffff1681565b60008180600660009054906101000a900473ffffffffffffffffffffffffffffffffffffffff1673ffffffffffffffffffffffffffffffffffffffff166370a08231306040518263ffffffff1660e01b8152600401610f6191906118aa565b602060405180830381865afa158015610f7e573d6000803e3d6000fd5b505050506040513d601f19601f82011682018060405250810190610fa29190611e7d565b11610fe2576040517f08c379a0000000000000000000000000000000000000000000000000000000008152600401610fd990611ef6565b60405180910390fd5b60008311611025576040517f08c379a000000000000000000000000000000000000000000000000000000000815260040161101c90611f62565b60405180910390fd5b60001515600860003373ffffffffffffffffffffffffffffffffffffffff1673ffffffffffffffffffffffffffffffffffffffff16815260200190815260200160002060009054906101000a900460ff161515146110b8576040517f08c379a00000000000000000000000000000000000000000000000000000000081526004016110af90611afa565b60405180910390fd5b6002600760003373ffffffffffffffffffffffffffffffffffffffff1673ffffffffffffffffffffffffffffffffffffffff16815260200190815260200160002060050160009054906101000a900463ffffffff1663ffffffff16036111215760009150611427565b6000600560009054906101000a900473ffffffffffffffffffffffffffffffffffffffff1673ffffffffffffffffffffffffffffffffffffffff1663d83a2bf33330876040518463ffffffff1660e01b815260040161118293929190611f82565b6020604051808303816000875af11580156111a1573d6000803e3d6000fd5b505050506040513d601f19601f820116820180604052508101906111c59190611c74565b905080611207576040517f08c379a00000000000000000000000000000000000000000000000000000000081526004016111fe90612005565b60405180910390fd5b600560009054906101000a900473ffffffffffffffffffffffffffffffffffffffff1673ffffffffffffffffffffffffffffffffffffffff166323b872dd3330876040518463ffffffff1660e01b815260040161126693929190611f82565b6020604051808303816000875af1158015611285573d6000803e3d6000fd5b505050506040513d601f19601f820116820180604052508101906112a99190611c74565b506001600860003373ffffffffffffffffffffffffffffffffffffffff1673ffffffffffffffffffffffffffffffffffffffff16815260200190815260200160002060006101000a81548160ff0219169083151502179055506040518060c001604052804281526020014281526020016000815260200185815260200160008152602001600163ffffffff16815250600760003373ffffffffffffffffffffffffffffffffffffffff1673ffffffffffffffffffffffffffffffffffffffff168152602001908152602001600020600082015181600001556020820151816001015560408201518160020155606082015181600301556080820151816004015560a08201518160050160006101000a81548163ffffffff021916908363ffffffff1602179055509050503373ffffffffffffffffffffffffffffffffffffffff167f9e71bc8eea02a63969f509818f2dafb9254532904319f9dbda79b67bd34a5f3d85604051611419919061180a565b60405180910390a260019250505b50919050565b60076020528060005260406000206000915090508060000154908060010154908060020154908060030154908060040154908060050160009054906101000a900463ffffffff16905086565b600060011515600860003373ffffffffffffffffffffffffffffffffffffffff1673ffffffffffffffffffffffffffffffffffffffff16815260200190815260200160002060009054906101000a900460ff161515036115fc576000600760003373ffffffffffffffffffffffffffffffffffffffff1673ffffffffffffffffffffffffffffffffffffffff16815260200190815260200160002060010154426115239190611b49565b90506000600360089054906101000a900463ffffffff1663ffffffff16600360049054906101000a900463ffffffff1663ffffffff166064600360009054906101000a900463ffffffff1663ffffffff16600760003373ffffffffffffffffffffffffffffffffffffffff1673ffffffffffffffffffffffffffffffffffffffff168152602001908152602001600020600301546115c19190611b7d565b6115cb9190611bee565b6115d59190611bee565b6115df9190611bee565b9050600082826115ef9190611b7d565b9050809350505050611601565b600090505b90565b60086020528060005260406000206000915054906101000a900460ff1681565b61162c6116a7565b600073ffffffffffffffffffffffffffffffffffffffff168173ffffffffffffffffffffffffffffffffffffffff160361169b576040517f08c379a000000000000000000000000000000000000000000000000000000000815260040161169290612097565b60405180910390fd5b6116a481611725565b50565b6116af6117e9565b73ffffffffffffffffffffffffffffffffffffffff166116cd610b26565b73ffffffffffffffffffffffffffffffffffffffff1614611723576040517f08c379a000000000000000000000000000000000000000000000000000000000815260040161171a90612103565b60405180910390fd5b565b60008060009054906101000a900473ffffffffffffffffffffffffffffffffffffffff169050816000806101000a81548173ffffffffffffffffffffffffffffffffffffffff021916908373ffffffffffffffffffffffffffffffffffffffff1602179055508173ffffffffffffffffffffffffffffffffffffffff168173ffffffffffffffffffffffffffffffffffffffff167f8be0079c531659141344cd1fd0a4f28419497f9722a3daafe3b4186f6b6457e060405160405180910390a35050565b600033905090565b6000819050919050565b611804816117f1565b82525050565b600060208201905061181f60008301846117fb565b92915050565b60008115159050919050565b61183a81611825565b82525050565b60006040820190506118556000830185611831565b61186260208301846117fb565b9392505050565b600073ffffffffffffffffffffffffffffffffffffffff82169050919050565b600061189482611869565b9050919050565b6118a481611889565b82525050565b60006020820190506118bf600083018461189b565b92915050565b600080fd5b60006118d582611889565b9050919050565b6118e5816118ca565b81146118f057600080fd5b50565b600081359050611902816118dc565b92915050565b60006020828403121561191e5761191d6118c5565b5b600061192c848285016118f3565b91505092915050565b600060208201905061194a6000830184611831565b92915050565b600063ffffffff82169050919050565b61196981611950565b82525050565b60006020820190506119846000830184611960565b92915050565b611993816117f1565b811461199e57600080fd5b50565b6000813590506119b08161198a565b92915050565b6000602082840312156119cc576119cb6118c5565b5b60006119da848285016119a1565b91505092915050565b6119ec81611889565b81146119f757600080fd5b50565b600081359050611a09816119e3565b92915050565b600060208284031215611a2557611a246118c5565b5b6000611a33848285016119fa565b91505092915050565b600060c082019050611a5160008301896117fb565b611a5e60208301886117fb565b611a6b60408301876117fb565b611a7860608301866117fb565b611a8560808301856117fb565b611a9260a0830184611960565b979650505050505050565b600082825260208201905092915050565b7f596f7520616c7265616479207061727469636970617465640000000000000000600082015250565b6000611ae4601883611a9d565b9150611aef82611aae565b602082019050919050565b60006020820190508181036000830152611b1381611ad7565b9050919050565b7f4e487b7100000000000000000000000000000000000000000000000000000000600052601160045260246000fd5b6000611b54826117f1565b9150611b5f836117f1565b9250828203905081811115611b7757611b76611b1a565b5b92915050565b6000611b88826117f1565b9150611b93836117f1565b9250828202611ba1816117f1565b91508282048414831517611bb857611bb7611b1a565b5b5092915050565b7f4e487b7100000000000000000000000000000000000000000000000000000000600052601260045260246000fd5b6000611bf9826117f1565b9150611c04836117f1565b925082611c1457611c13611bbf565b5b828204905092915050565b6000604082019050611c34600083018561189b565b611c4160208301846117fb565b9392505050565b611c5181611825565b8114611c5c57600080fd5b50565b600081519050611c6e81611c48565b92915050565b600060208284031215611c8a57611c896118c5565b5b6000611c9884828501611c5f565b91505092915050565b7f6e6f77205374617465206973205374616b696e672c20506c6561736520556e5360008201527f74616b696e672121000000000000000000000000000000000000000000000000602082015250565b6000611cfd602883611a9d565b9150611d0882611ca1565b604082019050919050565b60006020820190508181036000830152611d2c81611cf0565b9050919050565b6000611d3e826117f1565b9150611d49836117f1565b9250828201905080821115611d6157611d60611b1a565b5b92915050565b6000604082019050611d7c60008301856117fb565b611d8960208301846117fb565b9392505050565b7f41444452455353204953204e4f54205a65726f20416464726573730000000000600082015250565b6000611dc6601b83611a9d565b9150611dd182611d90565b602082019050919050565b60006020820190508181036000830152611df581611db9565b9050919050565b7f596f7520617265206e6f74207061727469636970617465640000000000000000600082015250565b6000611e32601883611a9d565b9150611e3d82611dfc565b602082019050919050565b60006020820190508181036000830152611e6181611e25565b9050919050565b600081519050611e778161198a565b92915050565b600060208284031215611e9357611e926118c5565b5b6000611ea184828501611e68565b91505092915050565b7f544f4b454e5f4c41434b00000000000000000000000000000000000000000000600082015250565b6000611ee0600a83611a9d565b9150611eeb82611eaa565b602082019050919050565b60006020820190508181036000830152611f0f81611ed3565b9050919050565b7f5374616b6520616d6f756e742073686f756c6420626520636f72726563740000600082015250565b6000611f4c601e83611a9d565b9150611f5782611f16565b602082019050919050565b60006020820190508181036000830152611f7b81611f3f565b9050919050565b6000606082019050611f97600083018661189b565b611fa4602083018561189b565b611fb160408301846117fb565b949350505050565b7f496e637265617365436f6e7472616374204661696c0000000000000000000000600082015250565b6000611fef601583611a9d565b9150611ffa82611fb9565b602082019050919050565b6000602082019050818103600083015261201e81611fe2565b9050919050565b7f4f776e61626c653a206e6577206f776e657220697320746865207a65726f206160008201527f6464726573730000000000000000000000000000000000000000000000000000602082015250565b6000612081602683611a9d565b915061208c82612025565b604082019050919050565b600060208201905081810360008301526120b081612074565b9050919050565b7f4f776e61626c653a2063616c6c6572206973206e6f7420746865206f776e6572600082015250565b60006120ed602083611a9d565b91506120f8826120b7565b602082019050919050565b6000602082019050818103600083015261211c816120e0565b905091905056fea2646970667358221220e64bb720d87bb803fe6cc14dcf86ad73b16a7aa0c7af857d32b3e75077e766a264736f6c63430008110033",
  "immutableReferences": {},
  "source": "// SPDX-License-Identifier: GPL-3.0-only\npragma solidity ^0.8.0;\n\nimport \"./VJMToken.sol\";\nimport \"./JMToken.sol\";\nimport \"@openzeppelin/contracts/access/Ownable.sol\";\n\ncontract Staking is Ownable {\n    event Staked(address indexed from, uint256 amount);\n    event UnStaked(address indexed from, uint256 unStakedTime);\n    event UnStakedClaimed(address indexed from, uint256 unStakedTime, uint256 amount);\n    event Claimed(address indexed from, uint256 amount);\n   \n    uint256 public Deploytime; //  \n    uint256 public decimals = 10**18;\n    uint32 public APR = 150; // \n    uint32 private yearsDuration = 31536000;\n    uint32 private dayDuration = 86400;\n    uint256 private stakingExpire = dayDuration * 3; //   3  // test = 180 -> 3\n    VJMToken vJmt;  //   \n    JMToken jmt; //   \n\n    struct StakeInfo {        \n        uint256 startTS; //  \n        uint256 claimedTime; //    \n        uint256 unStakingTime; //  \n        uint256 amount; //  \n        uint256 totalClaimed; //  decimals \n        uint32 state; //   ==1, unstaking==2\n    }\n\n    mapping(address => StakeInfo) public stakeInfos; //    \n    mapping(address => bool) public addressStaked;  //   \n\n    constructor(VJMToken _tokenAddress) { // staking  erc20   \n        require(address(_tokenAddress) != address(0),\"Token Address cannot be address 0\");                \n        vJmt = _tokenAddress;\n        Deploytime = block.timestamp;\n    }\n\n    //     \n    modifier Claimable(uint256 amount) {\n        require(jmt.balanceOf(address(this)) > amount, \"TOKEN_LACK\");\n        _;\n    }\n    \n    function setJMTokenAddress(JMToken _jmt) external onlyOwner{\n        require(address(jmt) == address(0),\"ADDRESS IS NOT Zero Address\");\n        jmt = _jmt;\n    }\n\n    //set stakeInfoe startTime // get stakeinfos(address)  \n    function setStakeInfo() public {\n        stakeInfos[msg.sender].claimedTime = block.timestamp;\n    }\n\n\n    // \n    function stakeToken(uint256 stakeAmount) public payable Claimable(stakeAmount) returns(bool){\n        require(stakeAmount > 0, \"Stake amount should be correct\"); //  \n        require(addressStaked[msg.sender] == false, \"You already participated\"); //  \n        //     \n        if(stakeInfos[msg.sender].state == 2){\n            return false;\n        }\n\n        bool success = vJmt.increaseContractAllowance(\n            msg.sender, \n            address(this),\n            stakeAmount\n        );\n        require(success,\"IncreaseContract Fail\");\n        vJmt.transferFrom(msg.sender, address(this), stakeAmount); // vjmt \n        addressStaked[msg.sender] = true;\n\n        stakeInfos[msg.sender] = StakeInfo({                \n            startTS: block.timestamp,\n            claimedTime: block.timestamp, //  \n            unStakingTime: 0,\n            amount: stakeAmount, //  \n            totalClaimed: 0,\n            state: 1\n        });\n\n        emit Staked(msg.sender, stakeAmount);\n        return true;\n    }   \n\n    // \n    function unStakingToken() public payable {\n        require(addressStaked[msg.sender] == true, \"You already participated\"); //  \n    \n        // staking  \n        uint256 stakingDuration = block.timestamp - stakeInfos[msg.sender].claimedTime; //     \n        uint256 persecondAmount = (stakeInfos[msg.sender].amount * APR / 100) / yearsDuration / dayDuration; //   \n        uint256 claimableAmount = persecondAmount * stakingDuration; //  \n        jmt.transfer(msg.sender, claimableAmount / 10); //vjmt:jmt1:10  \n\n        stakeInfos[msg.sender].unStakingTime = block.timestamp; //   \n        addressStaked[msg.sender] = false; //   \n        stakeInfos[msg.sender].state = 2; //    \n\n        emit UnStaked(msg.sender, block.timestamp); //jmt \n        emit Claimed(msg.sender, claimableAmount); // vjmt\n    }\n\n    //   \n    function unStakingClaime() public payable returns(bool,uint256){\n        require(stakeInfos[msg.sender].state == 2, \"now State is Staking, Please UnStaking!!\");\n        if(stakeInfos[msg.sender].unStakingTime + stakingExpire < block.timestamp){ //  \n            uint256 amount = stakeInfos[msg.sender].amount; //   \n            vJmt.transfer(msg.sender,amount); //  \n\n            delete stakeInfos[msg.sender]; //    \n            delete addressStaked[msg.sender]; //     \n            emit UnStakedClaimed(msg.sender, block.timestamp, amount);\n            return(true, block.timestamp);\n        }else{ //   \n            uint256 remainingTime = (stakeInfos[msg.sender].unStakingTime + stakingExpire) - block.timestamp; //   \n            return(false, remainingTime);\n        }\n       \n    }\n\n\n    //  \n    function claimReward() external returns (bool){\n        require(addressStaked[msg.sender] == true, \"You are not participated\");\n\n        uint256 stakingDuration = block.timestamp - stakeInfos[msg.sender].claimedTime; //     \n        uint256 persecondAmount = (stakeInfos[msg.sender].amount * APR / 100) / yearsDuration / dayDuration; //   \n        uint256 claimableAmount = persecondAmount * stakingDuration; //  \n\n        jmt.transfer(msg.sender, claimableAmount / 10); //vjmt:jmt == 10:1  \n        setStakeInfo(); //    \n        emit Claimed(msg.sender, claimableAmount);\n\n        return true;\n    }\n\n    //    \n    function claimableReward() public view returns(uint256) {\n        if(addressStaked[msg.sender] == true){\n            uint256 stakingDuration = block.timestamp - stakeInfos[msg.sender].claimedTime; //     \n            uint256 persecondAmount = (stakeInfos[msg.sender].amount * APR / 100) / yearsDuration / dayDuration; //   \n            uint256 claimableAmount = persecondAmount * stakingDuration; //  \n            return claimableAmount;\n        }else{\n            return 0;\n        }\n    }\n}",
  "sourcePath": "/Users/king/BEB-05-JMT/contract/contracts/Staking.sol",
  "compiler": {
    "name": "solc",
    "version": "0.8.17+commit.8df45f5f.Emscripten.clang"
  },
  "schemaVersion": "3.4.9",
  "updatedAt": "2022-09-20T13:22:29.823Z",
  "networkType": "ethereum",
  "devdoc": {
    "kind": "dev",
    "methods": {
      "owner()": {
        "details": "Returns the address of the current owner."
      },
      "renounceOwnership()": {
        "details": "Leaves the contract without owner. It will not be possible to call `onlyOwner` functions anymore. Can only be called by the current owner. NOTE: Renouncing ownership will leave the contract without an owner, thereby removing any functionality that is only available to the owner."
      },
      "transferOwnership(address)": {
        "details": "Transfers ownership of the contract to a new account (`newOwner`). Can only be called by the current owner."
      }
    },
    "version": 1
  },
  "userdoc": {
    "kind": "user",
    "methods": {},
    "version": 1
  }
}