{
  "contractName": "Staking",
  "abi": [
    {
      "inputs": [
        {
          "internalType": "contract VJMToken",
          "name": "_tokenAddress",
          "type": "address"
        }
      ],
      "stateMutability": "nonpayable",
      "type": "constructor"
    },
    {
      "anonymous": false,
      "inputs": [
        {
          "indexed": true,
          "internalType": "address",
          "name": "from",
          "type": "address"
        },
        {
          "indexed": false,
          "internalType": "uint256",
          "name": "amount",
          "type": "uint256"
        }
      ],
      "name": "Claimed",
      "type": "event"
    },
    {
      "anonymous": false,
      "inputs": [
        {
          "indexed": true,
          "internalType": "address",
          "name": "previousOwner",
          "type": "address"
        },
        {
          "indexed": true,
          "internalType": "address",
          "name": "newOwner",
          "type": "address"
        }
      ],
      "name": "OwnershipTransferred",
      "type": "event"
    },
    {
      "anonymous": false,
      "inputs": [
        {
          "indexed": true,
          "internalType": "address",
          "name": "from",
          "type": "address"
        },
        {
          "indexed": false,
          "internalType": "uint256",
          "name": "amount",
          "type": "uint256"
        }
      ],
      "name": "Staked",
      "type": "event"
    },
    {
      "anonymous": false,
      "inputs": [
        {
          "indexed": true,
          "internalType": "address",
          "name": "from",
          "type": "address"
        },
        {
          "indexed": false,
          "internalType": "uint256",
          "name": "unStakedTime",
          "type": "uint256"
        }
      ],
      "name": "UnStaked",
      "type": "event"
    },
    {
      "anonymous": false,
      "inputs": [
        {
          "indexed": true,
          "internalType": "address",
          "name": "from",
          "type": "address"
        },
        {
          "indexed": false,
          "internalType": "uint256",
          "name": "unStakedTime",
          "type": "uint256"
        },
        {
          "indexed": false,
          "internalType": "uint256",
          "name": "amount",
          "type": "uint256"
        }
      ],
      "name": "UnStakedClaimed",
      "type": "event"
    },
    {
      "inputs": [],
      "name": "APR",
      "outputs": [
        {
          "internalType": "uint32",
          "name": "",
          "type": "uint32"
        }
      ],
      "stateMutability": "view",
      "type": "function",
      "constant": true
    },
    {
      "inputs": [],
      "name": "Deploytime",
      "outputs": [
        {
          "internalType": "uint256",
          "name": "",
          "type": "uint256"
        }
      ],
      "stateMutability": "view",
      "type": "function",
      "constant": true
    },
    {
      "inputs": [
        {
          "internalType": "address",
          "name": "",
          "type": "address"
        }
      ],
      "name": "addressStaked",
      "outputs": [
        {
          "internalType": "bool",
          "name": "",
          "type": "bool"
        }
      ],
      "stateMutability": "view",
      "type": "function",
      "constant": true
    },
    {
      "inputs": [],
      "name": "decimals",
      "outputs": [
        {
          "internalType": "uint256",
          "name": "",
          "type": "uint256"
        }
      ],
      "stateMutability": "view",
      "type": "function",
      "constant": true
    },
    {
      "inputs": [],
      "name": "owner",
      "outputs": [
        {
          "internalType": "address",
          "name": "",
          "type": "address"
        }
      ],
      "stateMutability": "view",
      "type": "function",
      "constant": true
    },
    {
      "inputs": [],
      "name": "renounceOwnership",
      "outputs": [],
      "stateMutability": "nonpayable",
      "type": "function"
    },
    {
      "inputs": [
        {
          "internalType": "address",
          "name": "",
          "type": "address"
        }
      ],
      "name": "stakeInfos",
      "outputs": [
        {
          "internalType": "uint256",
          "name": "startTS",
          "type": "uint256"
        },
        {
          "internalType": "uint256",
          "name": "claimedTime",
          "type": "uint256"
        },
        {
          "internalType": "uint256",
          "name": "unStakingTime",
          "type": "uint256"
        },
        {
          "internalType": "uint256",
          "name": "amount",
          "type": "uint256"
        },
        {
          "internalType": "uint256",
          "name": "totalClaimed",
          "type": "uint256"
        },
        {
          "internalType": "uint32",
          "name": "state",
          "type": "uint32"
        }
      ],
      "stateMutability": "view",
      "type": "function",
      "constant": true
    },
    {
      "inputs": [
        {
          "internalType": "address",
          "name": "newOwner",
          "type": "address"
        }
      ],
      "name": "transferOwnership",
      "outputs": [],
      "stateMutability": "nonpayable",
      "type": "function"
    },
    {
      "inputs": [
        {
          "internalType": "contract JMToken",
          "name": "_jmt",
          "type": "address"
        }
      ],
      "name": "setJMTokenAddress",
      "outputs": [],
      "stateMutability": "nonpayable",
      "type": "function"
    },
    {
      "inputs": [],
      "name": "setStakeInfo",
      "outputs": [],
      "stateMutability": "nonpayable",
      "type": "function"
    },
    {
      "inputs": [
        {
          "internalType": "uint256",
          "name": "stakeAmount",
          "type": "uint256"
        }
      ],
      "name": "stakeToken",
      "outputs": [
        {
          "internalType": "bool",
          "name": "",
          "type": "bool"
        }
      ],
      "stateMutability": "nonpayable",
      "type": "function"
    },
    {
      "inputs": [],
      "name": "unStakingToken",
      "outputs": [],
      "stateMutability": "nonpayable",
      "type": "function"
    },
    {
      "inputs": [],
      "name": "unStakingClaime",
      "outputs": [
        {
          "internalType": "bool",
          "name": "",
          "type": "bool"
        },
        {
          "internalType": "uint256",
          "name": "",
          "type": "uint256"
        }
      ],
      "stateMutability": "nonpayable",
      "type": "function"
    },
    {
      "inputs": [],
      "name": "claimReward",
      "outputs": [
        {
          "internalType": "bool",
          "name": "",
          "type": "bool"
        }
      ],
      "stateMutability": "nonpayable",
      "type": "function"
    },
    {
      "inputs": [],
      "name": "claimableReward",
      "outputs": [
        {
          "internalType": "uint256",
          "name": "",
          "type": "uint256"
        }
      ],
      "stateMutability": "view",
      "type": "function",
      "constant": true
    }
  ],
  "bytecode": "0x6080604052670de0b6b3a7640000600255600380546a01518001e13380000000966001600160601b03199091161780825561004d916801000000000000000090910463ffffffff1690610167565b63ffffffff1660045534801561006257600080fd5b506040516111bf3803806111bf8339810160408190526100819161019d565b61008a33610117565b6001600160a01b0381166100ee5760405162461bcd60e51b815260206004820152602160248201527f546f6b656e20416464726573732063616e6e6f742062652061646472657373206044820152600360fc1b606482015260840160405180910390fd5b600580546001600160a01b0319166001600160a01b0392909216919091179055426001556101cd565b600080546001600160a01b038381166001600160a01b0319831681178455604051919092169283917f8be0079c531659141344cd1fd0a4f28419497f9722a3daafe3b4186f6b6457e09190a35050565b63ffffffff81811683821602808216919082811461019557634e487b7160e01b600052601160045260246000fd5b505092915050565b6000602082840312156101af57600080fd5b81516001600160a01b03811681146101c657600080fd5b9392505050565b610fe3806101dc6000396000f3fe608060405234801561001057600080fd5b50600436106100f55760003560e01c806391de6b1611610097578063dfbf9def11610066578063dfbf9def146101e9578063e7181edc14610265578063e74d059f1461026d578063f2fde38b1461029057600080fd5b806391de6b1614610186578063b88a802f14610199578063bd30558e146101b1578063cda6b847146101d657600080fd5b8063715018a6116100d3578063715018a6146101295780637b9ba7fd1461013157806389fb2e46146101505780638da5cb5b1461016b57600080fd5b8063313ce567146100fa5780633595bf7a14610116578063397eee8014610120575b600080fd5b61010360025481565b6040519081526020015b60405180910390f35b61011e6102a3565b005b61010360015481565b61011e6104ce565b6101396104e2565b60408051921515835260208301919091520161010d565b61011e33600090815260076020526040902042600190910155565b6000546040516001600160a01b03909116815260200161010d565b61011e610194366004610eba565b6106da565b6101a161075d565b604051901515815260200161010d565b6003546101c19063ffffffff1681565b60405163ffffffff909116815260200161010d565b6101a16101e4366004610ede565b610938565b6102326101f7366004610eba565b600760205260009081526040902080546001820154600283015460038401546004850154600590950154939492939192909163ffffffff1686565b604080519687526020870195909552938501929092526060840152608083015263ffffffff1660a082015260c00161010d565b610103610ccb565b6101a161027b366004610eba565b60086020526000908152604090205460ff1681565b61011e61029e366004610eba565b610d82565b3360009081526008602052604090205460ff1615156001146103075760405162461bcd60e51b8152602060048201526018602482015277165bdd48185b1c9958591e481c185c9d1a58da5c185d195960421b60448201526064015b60405180910390fd5b336000908152600760205260408120600101546103249042610f0d565b6003805433600090815260076020526040812090920154929350909163ffffffff600160401b83048116926401000000008104821692606492610368921690610f26565b6103729190610f3d565b61037c9190610f3d565b6103869190610f3d565b905060006103948383610f26565b6006549091506001600160a01b031663a9059cbb336103b4600a85610f3d565b6040516001600160e01b031960e085901b1681526001600160a01b03909216600483015260248201526044016020604051808303816000875af11580156103ff573d6000803e3d6000fd5b505050506040513d601f19601f820116820180604052508101906104239190610f5f565b503360008181526007602081815260408084204260028083018290556008855295839020805460ff19169055938352600501805463ffffffff191690941790935591519081527f79d3df6837cc49ff0e09fd3258e6e45594e0703445bb06825e9d75156eaee8f0910160405180910390a260405181815233907fd8138f8a3f377c5259ca548e70e4c2de94f129f5a11036a15b69513cba2b426a9060200160405180910390a2505050565b6104d6610dfb565b6104e06000610e55565b565b33600090815260076020526040812060050154819063ffffffff1660021461055d5760405162461bcd60e51b815260206004820152602860248201527f6e6f77205374617465206973205374616b696e672c20506c6561736520556e5360448201526774616b696e67212160c01b60648201526084016102fe565b60045433600090815260076020526040902060020154429161057e91610f81565b10156106a157336000818152600760205260409081902060030154600554915163a9059cbb60e01b8152600481019390935260248301819052916001600160a01b039091169063a9059cbb906044016020604051808303816000875af11580156105ec573d6000803e3d6000fd5b505050506040513d601f19601f820116820180604052508101906106109190610f5f565b5033600081815260076020908152604080832083815560018101849055600281018490556003810184905560048101849055600501805463ffffffff191690556008825291829020805460ff1916905581514281529081018490527fec4c5e119b3c2211affd553a6167326af1472cb3b7966b96b0f84a56d8d5317c910160405180910390a2506001924292509050565b60045433600090815260076020526040812060020154909142916106c59190610f81565b6106cf9190610f0d565b600094909350915050565b6106e2610dfb565b6006546001600160a01b03161561073b5760405162461bcd60e51b815260206004820152601b60248201527f41444452455353204953204e4f54205a65726f2041646472657373000000000060448201526064016102fe565b600680546001600160a01b0319166001600160a01b0392909216919091179055565b3360009081526008602052604081205460ff1615156001146107c15760405162461bcd60e51b815260206004820152601860248201527f596f7520617265206e6f7420706172746963697061746564000000000000000060448201526064016102fe565b336000908152600760205260408120600101546107de9042610f0d565b6003805433600090815260076020526040812090920154929350909163ffffffff600160401b83048116926401000000008104821692606492610822921690610f26565b61082c9190610f3d565b6108369190610f3d565b6108409190610f3d565b9050600061084e8383610f26565b6006549091506001600160a01b031663a9059cbb3361086e600a85610f3d565b6040516001600160e01b031960e085901b1681526001600160a01b03909216600483015260248201526044016020604051808303816000875af11580156108b9573d6000803e3d6000fd5b505050506040513d601f19601f820116820180604052508101906108dd9190610f5f565b506108f933600090815260076020526040902042600190910155565b60405181815233907fd8138f8a3f377c5259ca548e70e4c2de94f129f5a11036a15b69513cba2b426a9060200160405180910390a26001935050505090565b6006546040516370a0823160e01b8152306004820152600091839182916001600160a01b0316906370a0823190602401602060405180830381865afa158015610985573d6000803e3d6000fd5b505050506040513d601f19601f820116820180604052508101906109a99190610f94565b116109e35760405162461bcd60e51b815260206004820152600a602482015269544f4b454e5f4c41434b60b01b60448201526064016102fe565b60008311610a335760405162461bcd60e51b815260206004820152601e60248201527f5374616b6520616d6f756e742073686f756c6420626520636f7272656374000060448201526064016102fe565b3360009081526008602052604090205460ff1615610a8e5760405162461bcd60e51b8152602060048201526018602482015277165bdd48185b1c9958591e481c185c9d1a58da5c185d195960421b60448201526064016102fe565b3360009081526007602052604090206005015463ffffffff16600203610ab75760009150610cc5565b60055460405163d83a2bf360e01b8152336004820152306024820152604481018590526000916001600160a01b03169063d83a2bf3906064016020604051808303816000875af1158015610b0f573d6000803e3d6000fd5b505050506040513d601f19601f82011682018060405250810190610b339190610f5f565b905080610b7a5760405162461bcd60e51b8152602060048201526015602482015274125b98dc99585cd950dbdb9d1c9858dd0811985a5b605a1b60448201526064016102fe565b6005546040516323b872dd60e01b8152336004820152306024820152604481018690526001600160a01b03909116906323b872dd906064016020604051808303816000875af1158015610bd1573d6000803e3d6000fd5b505050506040513d601f19601f82011682018060405250810190610bf59190610f5f565b503360008181526008602090815260408083208054600160ff199091168117909155815160c08101835242808252818501908152818401868152606083018c81526080840188815260a085018681528a8a52600789529887902094518555925194840194909455516002830155915160038201559051600482015592516005909301805463ffffffff191663ffffffff9094169390931790925590518681527f9e71bc8eea02a63969f509818f2dafb9254532904319f9dbda79b67bd34a5f3d910160405180910390a260019250505b50919050565b3360009081526008602052604081205460ff161515600103610d7c5733600090815260076020526040812060010154610d049042610f0d565b6003805433600090815260076020526040812090920154929350909163ffffffff600160401b83048116926401000000008104821692606492610d48921690610f26565b610d529190610f3d565b610d5c9190610f3d565b610d669190610f3d565b90506000610d748383610f26565b949350505050565b50600090565b610d8a610dfb565b6001600160a01b038116610def5760405162461bcd60e51b815260206004820152602660248201527f4f776e61626c653a206e6577206f776e657220697320746865207a65726f206160448201526564647265737360d01b60648201526084016102fe565b610df881610e55565b50565b6000546001600160a01b031633146104e05760405162461bcd60e51b815260206004820181905260248201527f4f776e61626c653a2063616c6c6572206973206e6f7420746865206f776e657260448201526064016102fe565b600080546001600160a01b038381166001600160a01b0319831681178455604051919092169283917f8be0079c531659141344cd1fd0a4f28419497f9722a3daafe3b4186f6b6457e09190a35050565b6001600160a01b0381168114610df857600080fd5b600060208284031215610ecc57600080fd5b8135610ed781610ea5565b9392505050565b600060208284031215610ef057600080fd5b5035919050565b634e487b7160e01b600052601160045260246000fd5b81810381811115610f2057610f20610ef7565b92915050565b8082028115828204841417610f2057610f20610ef7565b600082610f5a57634e487b7160e01b600052601260045260246000fd5b500490565b600060208284031215610f7157600080fd5b81518015158114610ed757600080fd5b80820180821115610f2057610f20610ef7565b600060208284031215610fa657600080fd5b505191905056fea2646970667358221220c5ce978f4163f007d69ac1a1b05464b482b9fbc7e584d8debe3ed1352800de4464736f6c63430008110033",
  "immutableReferences": {},
  "source": "// SPDX-License-Identifier: GPL-3.0-only\npragma solidity ^0.8.0;\n\nimport \"./VJMToken.sol\";\nimport \"./JMToken.sol\";\nimport \"@openzeppelin/contracts/access/Ownable.sol\";\n\ncontract Staking is Ownable {\n    event Staked(address indexed from, uint256 amount);\n    event UnStaked(address indexed from, uint256 unStakedTime);\n    event UnStakedClaimed(address indexed from, uint256 unStakedTime, uint256 amount);\n    event Claimed(address indexed from, uint256 amount);\n   \n    uint256 public Deploytime; //  \n    uint256 public decimals = 10**18;\n    uint32 public APR = 150; // \n    uint32 private yearsDuration = 31536000;\n    uint32 private dayDuration = 86400;\n    uint256 private stakingExpire = dayDuration * 3; //   3  // test = 180 -> 3\n    VJMToken vJmt;  //   \n    JMToken jmt; //   \n\n    struct StakeInfo {        \n        uint256 startTS; //  \n        uint256 claimedTime; //    \n        uint256 unStakingTime; //  \n        uint256 amount; //  \n        uint256 totalClaimed; //  decimals \n        uint32 state; //   ==1, unstaking==2\n    }\n\n    mapping(address => StakeInfo) public stakeInfos; //    \n    mapping(address => bool) public addressStaked;  //   \n\n    constructor(VJMToken _tokenAddress) { // staking  erc20   \n        require(address(_tokenAddress) != address(0),\"Token Address cannot be address 0\");                \n        vJmt = _tokenAddress;\n        Deploytime = block.timestamp;\n    }\n\n    //     \n    modifier Claimable(uint256 amount) {\n        require(jmt.balanceOf(address(this)) > amount, \"TOKEN_LACK\");\n        _;\n    }\n    \n    function setJMTokenAddress(JMToken _jmt) external onlyOwner{\n        require(address(jmt) == address(0),\"ADDRESS IS NOT Zero Address\");\n        jmt = _jmt;\n    }\n\n    //set stakeInfoe startTime // get stakeinfos(address)  \n    function setStakeInfo() public {\n        stakeInfos[msg.sender].claimedTime = block.timestamp;\n    }\n\n\n    // \n    function stakeToken(uint256 stakeAmount) public Claimable(stakeAmount) returns(bool){\n        require(stakeAmount > 0, \"Stake amount should be correct\"); //  \n        require(addressStaked[msg.sender] == false, \"You already participated\"); //  \n        //     \n        if(stakeInfos[msg.sender].state == 2){\n            return false;\n        }\n\n        bool success = vJmt.increaseContractAllowance(\n            msg.sender, \n            address(this),\n            stakeAmount\n        );\n        require(success,\"IncreaseContract Fail\");\n        vJmt.transferFrom(msg.sender, address(this), stakeAmount); // vjmt \n        addressStaked[msg.sender] = true;\n\n        stakeInfos[msg.sender] = StakeInfo({                \n            startTS: block.timestamp,\n            claimedTime: block.timestamp, //  \n            unStakingTime: 0,\n            amount: stakeAmount, //  \n            totalClaimed: 0,\n            state: 1\n        });\n\n        emit Staked(msg.sender, stakeAmount);\n        return true;\n    }   \n\n    // \n    function unStakingToken() public {\n        require(addressStaked[msg.sender] == true, \"You already participated\"); //  \n    \n        // staking  \n        uint256 stakingDuration = block.timestamp - stakeInfos[msg.sender].claimedTime; //     \n        uint256 persecondAmount = (stakeInfos[msg.sender].amount * APR / 100) / yearsDuration / dayDuration; //   \n        uint256 claimableAmount = persecondAmount * stakingDuration; //  \n        jmt.transfer(msg.sender, claimableAmount / 10); //vjmt:jmt1:10  \n\n        stakeInfos[msg.sender].unStakingTime = block.timestamp; //   \n        addressStaked[msg.sender] = false; //   \n        stakeInfos[msg.sender].state = 2; //    \n\n        emit UnStaked(msg.sender, block.timestamp); //jmt \n        emit Claimed(msg.sender, claimableAmount); // vjmt\n    }\n\n    //   \n    function unStakingClaime() public returns(bool,uint256){\n        require(stakeInfos[msg.sender].state == 2, \"now State is Staking, Please UnStaking!!\");\n        if(stakeInfos[msg.sender].unStakingTime + stakingExpire < block.timestamp){ //  \n            uint256 amount = stakeInfos[msg.sender].amount; //   \n            vJmt.transfer(msg.sender,amount); //  \n\n            delete stakeInfos[msg.sender]; //    \n            delete addressStaked[msg.sender]; //     \n            emit UnStakedClaimed(msg.sender, block.timestamp, amount);\n            return(true, block.timestamp);\n        }else{ //   \n            uint256 remainingTime = (stakeInfos[msg.sender].unStakingTime + stakingExpire) - block.timestamp; //   \n            return(false, remainingTime);\n        }\n       \n    }\n\n\n    //  \n    function claimReward() external returns (bool){\n        require(addressStaked[msg.sender] == true, \"You are not participated\");\n\n        uint256 stakingDuration = block.timestamp - stakeInfos[msg.sender].claimedTime; //     \n        uint256 persecondAmount = (stakeInfos[msg.sender].amount * APR / 100) / yearsDuration / dayDuration; //   \n        uint256 claimableAmount = persecondAmount * stakingDuration; //  \n\n        jmt.transfer(msg.sender, claimableAmount / 10); //vjmt:jmt == 10:1  \n        setStakeInfo(); //    \n        emit Claimed(msg.sender, claimableAmount);\n\n        return true;\n    }\n\n    //    \n    function claimableReward() public view returns(uint256) {\n        if(addressStaked[msg.sender] == true){\n            uint256 stakingDuration = block.timestamp - stakeInfos[msg.sender].claimedTime; //     \n            uint256 persecondAmount = (stakeInfos[msg.sender].amount * APR / 100) / yearsDuration / dayDuration; //   \n            uint256 claimableAmount = persecondAmount * stakingDuration; //  \n            return claimableAmount;\n        }else{\n            return 0;\n        }\n    }\n}",
  "sourcePath": "/Users/rokrokss/workspace/hyein/BEB-05-JMT/contract/contracts/Staking.sol",
  "compiler": {
    "name": "solc",
    "version": "0.8.17+commit.8df45f5f.Emscripten.clang"
  },
  "schemaVersion": "3.4.9",
  "updatedAt": "2022-09-25T20:10:59.523Z",
  "networkType": "ethereum",
  "devdoc": {
    "kind": "dev",
    "methods": {
      "owner()": {
        "details": "Returns the address of the current owner."
      },
      "renounceOwnership()": {
        "details": "Leaves the contract without owner. It will not be possible to call `onlyOwner` functions anymore. Can only be called by the current owner. NOTE: Renouncing ownership will leave the contract without an owner, thereby removing any functionality that is only available to the owner."
      },
      "transferOwnership(address)": {
        "details": "Transfers ownership of the contract to a new account (`newOwner`). Can only be called by the current owner."
      }
    },
    "version": 1
  },
  "userdoc": {
    "kind": "user",
    "methods": {},
    "version": 1
  }
}