{
  "contractName": "VJMToken",
  "abi": [
    {
      "inputs": [
        {
          "internalType": "address payable",
          "name": "treasury",
          "type": "address"
        }
      ],
      "stateMutability": "nonpayable",
      "type": "constructor"
    },
    {
      "anonymous": false,
      "inputs": [
        {
          "indexed": true,
          "internalType": "address",
          "name": "owner",
          "type": "address"
        },
        {
          "indexed": true,
          "internalType": "address",
          "name": "spender",
          "type": "address"
        },
        {
          "indexed": false,
          "internalType": "uint256",
          "name": "value",
          "type": "uint256"
        }
      ],
      "name": "Approval",
      "type": "event"
    },
    {
      "anonymous": false,
      "inputs": [
        {
          "indexed": true,
          "internalType": "address",
          "name": "from",
          "type": "address"
        },
        {
          "indexed": true,
          "internalType": "address",
          "name": "to",
          "type": "address"
        },
        {
          "indexed": false,
          "internalType": "uint256",
          "name": "value",
          "type": "uint256"
        }
      ],
      "name": "Transfer",
      "type": "event"
    },
    {
      "anonymous": false,
      "inputs": [],
      "name": "TreasuryMoved",
      "type": "event"
    },
    {
      "inputs": [],
      "name": "MAX_SUPPLY",
      "outputs": [
        {
          "internalType": "uint256",
          "name": "",
          "type": "uint256"
        }
      ],
      "stateMutability": "view",
      "type": "function",
      "constant": true
    },
    {
      "inputs": [
        {
          "internalType": "address",
          "name": "owner",
          "type": "address"
        },
        {
          "internalType": "address",
          "name": "spender",
          "type": "address"
        }
      ],
      "name": "allowance",
      "outputs": [
        {
          "internalType": "uint256",
          "name": "",
          "type": "uint256"
        }
      ],
      "stateMutability": "view",
      "type": "function",
      "constant": true
    },
    {
      "inputs": [
        {
          "internalType": "address",
          "name": "spender",
          "type": "address"
        },
        {
          "internalType": "uint256",
          "name": "amount",
          "type": "uint256"
        }
      ],
      "name": "approve",
      "outputs": [
        {
          "internalType": "bool",
          "name": "",
          "type": "bool"
        }
      ],
      "stateMutability": "nonpayable",
      "type": "function"
    },
    {
      "inputs": [
        {
          "internalType": "address",
          "name": "account",
          "type": "address"
        }
      ],
      "name": "balanceOf",
      "outputs": [
        {
          "internalType": "uint256",
          "name": "",
          "type": "uint256"
        }
      ],
      "stateMutability": "view",
      "type": "function",
      "constant": true
    },
    {
      "inputs": [],
      "name": "decimals",
      "outputs": [
        {
          "internalType": "uint8",
          "name": "",
          "type": "uint8"
        }
      ],
      "stateMutability": "view",
      "type": "function",
      "constant": true
    },
    {
      "inputs": [
        {
          "internalType": "address",
          "name": "spender",
          "type": "address"
        },
        {
          "internalType": "uint256",
          "name": "subtractedValue",
          "type": "uint256"
        }
      ],
      "name": "decreaseAllowance",
      "outputs": [
        {
          "internalType": "bool",
          "name": "",
          "type": "bool"
        }
      ],
      "stateMutability": "nonpayable",
      "type": "function"
    },
    {
      "inputs": [
        {
          "internalType": "address",
          "name": "spender",
          "type": "address"
        },
        {
          "internalType": "uint256",
          "name": "addedValue",
          "type": "uint256"
        }
      ],
      "name": "increaseAllowance",
      "outputs": [
        {
          "internalType": "bool",
          "name": "",
          "type": "bool"
        }
      ],
      "stateMutability": "nonpayable",
      "type": "function"
    },
    {
      "inputs": [],
      "name": "name",
      "outputs": [
        {
          "internalType": "string",
          "name": "",
          "type": "string"
        }
      ],
      "stateMutability": "view",
      "type": "function",
      "constant": true
    },
    {
      "inputs": [],
      "name": "owner",
      "outputs": [
        {
          "internalType": "address",
          "name": "",
          "type": "address"
        }
      ],
      "stateMutability": "view",
      "type": "function",
      "constant": true
    },
    {
      "inputs": [],
      "name": "symbol",
      "outputs": [
        {
          "internalType": "string",
          "name": "",
          "type": "string"
        }
      ],
      "stateMutability": "view",
      "type": "function",
      "constant": true
    },
    {
      "inputs": [],
      "name": "totalSupply",
      "outputs": [
        {
          "internalType": "uint256",
          "name": "",
          "type": "uint256"
        }
      ],
      "stateMutability": "view",
      "type": "function",
      "constant": true
    },
    {
      "inputs": [
        {
          "internalType": "address",
          "name": "to",
          "type": "address"
        },
        {
          "internalType": "uint256",
          "name": "amount",
          "type": "uint256"
        }
      ],
      "name": "transfer",
      "outputs": [
        {
          "internalType": "bool",
          "name": "",
          "type": "bool"
        }
      ],
      "stateMutability": "nonpayable",
      "type": "function"
    },
    {
      "inputs": [
        {
          "internalType": "address",
          "name": "from",
          "type": "address"
        },
        {
          "internalType": "address",
          "name": "to",
          "type": "address"
        },
        {
          "internalType": "uint256",
          "name": "amount",
          "type": "uint256"
        }
      ],
      "name": "transferFrom",
      "outputs": [
        {
          "internalType": "bool",
          "name": "",
          "type": "bool"
        }
      ],
      "stateMutability": "nonpayable",
      "type": "function"
    },
    {
      "inputs": [],
      "name": "treasuryWallet",
      "outputs": [
        {
          "internalType": "address payable",
          "name": "",
          "type": "address"
        }
      ],
      "stateMutability": "view",
      "type": "function",
      "constant": true
    },
    {
      "inputs": [
        {
          "internalType": "contract LiquidityPool",
          "name": "_lp",
          "type": "address"
        }
      ],
      "name": "setLPAddress",
      "outputs": [],
      "stateMutability": "nonpayable",
      "type": "function"
    },
    {
      "inputs": [
        {
          "internalType": "address",
          "name": "account",
          "type": "address"
        },
        {
          "internalType": "uint256",
          "name": "amount",
          "type": "uint256"
        }
      ],
      "name": "mint",
      "outputs": [],
      "stateMutability": "nonpayable",
      "type": "function"
    },
    {
      "inputs": [
        {
          "internalType": "address",
          "name": "account",
          "type": "address"
        },
        {
          "internalType": "uint256",
          "name": "amount",
          "type": "uint256"
        }
      ],
      "name": "burn",
      "outputs": [],
      "stateMutability": "nonpayable",
      "type": "function"
    },
    {
      "inputs": [
        {
          "internalType": "address",
          "name": "_owner",
          "type": "address"
        },
        {
          "internalType": "address",
          "name": "_spender",
          "type": "address"
        },
        {
          "internalType": "uint256",
          "name": "_amount",
          "type": "uint256"
        }
      ],
      "name": "increaseContractAllowance",
      "outputs": [
        {
          "internalType": "bool",
          "name": "",
          "type": "bool"
        }
      ],
      "stateMutability": "nonpayable",
      "type": "function"
    },
    {
      "inputs": [],
      "name": "MoveToTreasuryWallet",
      "outputs": [],
      "stateMutability": "nonpayable",
      "type": "function"
    }
  ],
  "bytecode": "0x60806040523480156200001157600080fd5b50604051620014c5380380620014c58339810160408190526200003491620001f0565b6040518060400160405280600a8152602001693b2526aa102a37b5b2b760b11b815250604051806040016040528060048152602001631d92935560e21b8152508160039081620000859190620002c6565b506004620000948282620002c6565b50620000a1915050601290565b620000ae90600a620004a7565b620000bd90620927c0620004b8565b6005819055620000cf90309062000103565b60068054336001600160a01b031991821617909155600780549091166001600160a01b0392909216919091179055620004e8565b6001600160a01b0382166200015e5760405162461bcd60e51b815260206004820152601f60248201527f45524332303a206d696e7420746f20746865207a65726f206164647265737300604482015260640160405180910390fd5b8060026000828254620001729190620004d2565b90915550506001600160a01b03821660009081526020819052604081208054839290620001a1908490620004d2565b90915550506040518181526001600160a01b038316906000907fddf252ad1be2c89b69c2b068fc378daa952ba7f163c4a11628f55a4df523b3ef9060200160405180910390a35050565b505050565b6000602082840312156200020357600080fd5b81516001600160a01b03811681146200021b57600080fd5b9392505050565b634e487b7160e01b600052604160045260246000fd5b600181811c908216806200024d57607f821691505b6020821081036200026e57634e487b7160e01b600052602260045260246000fd5b50919050565b601f821115620001eb57600081815260208120601f850160051c810160208610156200029d5750805b601f850160051c820191505b81811015620002be57828155600101620002a9565b505050505050565b81516001600160401b03811115620002e257620002e262000222565b620002fa81620002f3845462000238565b8462000274565b602080601f831160018114620003325760008415620003195750858301515b600019600386901b1c1916600185901b178555620002be565b600085815260208120601f198616915b82811015620003635788860151825594840194600190910190840162000342565b5085821015620003825787850151600019600388901b60f8161c191681555b5050505050600190811b01905550565b634e487b7160e01b600052601160045260246000fd5b600181815b80851115620003e9578160001904821115620003cd57620003cd62000392565b80851615620003db57918102915b93841c9390800290620003ad565b509250929050565b6000826200040257506001620004a1565b816200041157506000620004a1565b81600181146200042a5760028114620004355762000455565b6001915050620004a1565b60ff84111562000449576200044962000392565b50506001821b620004a1565b5060208310610133831016604e8410600b84101617156200047a575081810a620004a1565b620004868383620003a8565b80600019048211156200049d576200049d62000392565b0290505b92915050565b60006200021b60ff841683620003f1565b8082028115828204841417620004a157620004a162000392565b80820180821115620004a157620004a162000392565b610fcd80620004f86000396000f3fe608060405234801561001057600080fd5b50600436106101215760003560e01c806370a08231116100ad578063a457c2d711610071578063a457c2d714610261578063a9059cbb14610274578063d83a2bf314610287578063dd62ed3e1461029a578063f3748af9146102ad57600080fd5b806370a08231146101f75780637a351a1d146102205780638da5cb5b1461023357806395d89b41146102465780639dc29fac1461024e57600080fd5b8063313ce567116100f4578063313ce5671461018c57806332cb6b0c1461019b57806339509351146101a457806340c10f19146101b75780634626402b146101cc57600080fd5b806306fdde0314610126578063095ea7b31461014457806318160ddd1461016757806323b872dd14610179575b600080fd5b61012e6102b5565b60405161013b9190610cc3565b60405180910390f35b610157610152366004610d29565b610347565b604051901515815260200161013b565b6002545b60405190815260200161013b565b610157610187366004610d55565b610361565b6040516012815260200161013b565b61016b60055481565b6101576101b2366004610d29565b610385565b6101ca6101c5366004610d29565b6103a7565b005b6007546101df906001600160a01b031681565b6040516001600160a01b03909116815260200161013b565b61016b610205366004610d96565b6001600160a01b031660009081526020819052604090205490565b6101ca61022e366004610d96565b6104ab565b6006546101df906001600160a01b031681565b61012e61053d565b6101ca61025c366004610d29565b61054c565b61015761026f366004610d29565b610595565b610157610282366004610d29565b610610565b610157610295366004610d55565b61061e565b61016b6102a8366004610dba565b61063a565b6101ca610665565b6060600380546102c490610df3565b80601f01602080910402602001604051908101604052809291908181526020018280546102f090610df3565b801561033d5780601f106103125761010080835404028352916020019161033d565b820191906000526020600020905b81548152906001019060200180831161032057829003601f168201915b5050505050905090565b60003361035581858561071a565b60019150505b92915050565b60003361036f85828561083e565b61037a8585856108b8565b506001949350505050565b600033610355818585610398838361063a565b6103a29190610e43565b61071a565b6006546001600160a01b031633146103da5760405162461bcd60e51b81526004016103d190610e56565b60405180910390fd5b6001600160a01b0382166104305760405162461bcd60e51b815260206004820152601f60248201527f45524332303a206d696e7420746f20746865207a65726f20616464726573730060448201526064016103d1565b6005548161043d60025490565b6104479190610e43565b11156104885760405162461bcd60e51b815260206004820152601060248201526f41424f56455f4d41585f535550504c5960801b60448201526064016103d1565b6104a7826104986012600a610f5e565b6104a29084610f6d565b6108c8565b5050565b6006546001600160a01b031633146104d55760405162461bcd60e51b81526004016103d190610e56565b6008546001600160a01b03161561051b5760405162461bcd60e51b815260206004820152600a60248201526957524954455f4f4e434560b01b60448201526064016103d1565b600880546001600160a01b0319166001600160a01b0392909216919091179055565b6060600480546102c490610df3565b6006546001600160a01b031633146105765760405162461bcd60e51b81526004016103d190610e56565b6104a7826105866012600a610f5e565b6105909084610f6d565b6109a7565b600033816105a3828661063a565b9050838110156106035760405162461bcd60e51b815260206004820152602560248201527f45524332303a2064656372656173656420616c6c6f77616e63652062656c6f77604482015264207a65726f60d81b60648201526084016103d1565b61037a828686840361071a565b6000336103558185856108b8565b6000610630848484610398333061063a565b5060019392505050565b6001600160a01b03918216600090815260016020908152604080832093909416825291909152205490565b6006546001600160a01b0316331461068f5760405162461bcd60e51b81526004016103d190610e56565b600061069d6012600a610f5e565b6106aa90620186a0610f6d565b6008549091506106c59030906001600160a01b031683610af5565b3060008181526020819052604090205460075490916106ed916001600160a01b031683610af5565b6040517fede40e57f47ee7d3737450b9e0e25fc56b11ce89ebac5d06dd834fe351418fa790600090a15050565b6001600160a01b03831661077c5760405162461bcd60e51b8152602060048201526024808201527f45524332303a20617070726f76652066726f6d20746865207a65726f206164646044820152637265737360e01b60648201526084016103d1565b6001600160a01b0382166107dd5760405162461bcd60e51b815260206004820152602260248201527f45524332303a20617070726f766520746f20746865207a65726f206164647265604482015261737360f01b60648201526084016103d1565b6001600160a01b0383811660008181526001602090815260408083209487168084529482529182902085905590518481527f8c5be1e5ebec7d5bd14f71427d1e84f3dd0314c0f7b2291e5b200ac8c7c3b925910160405180910390a3505050565b600061084a848461063a565b905060001981146108b257818110156108a55760405162461bcd60e51b815260206004820152601d60248201527f45524332303a20696e73756666696369656e7420616c6c6f77616e636500000060448201526064016103d1565b6108b2848484840361071a565b50505050565b6108c3838383610af5565b505050565b6001600160a01b03821661091e5760405162461bcd60e51b815260206004820152601f60248201527f45524332303a206d696e7420746f20746865207a65726f20616464726573730060448201526064016103d1565b80600260008282546109309190610e43565b90915550506001600160a01b0382166000908152602081905260408120805483929061095d908490610e43565b90915550506040518181526001600160a01b038316906000907fddf252ad1be2c89b69c2b068fc378daa952ba7f163c4a11628f55a4df523b3ef9060200160405180910390a35050565b6001600160a01b038216610a075760405162461bcd60e51b815260206004820152602160248201527f45524332303a206275726e2066726f6d20746865207a65726f206164647265736044820152607360f81b60648201526084016103d1565b6001600160a01b03821660009081526020819052604090205481811015610a7b5760405162461bcd60e51b815260206004820152602260248201527f45524332303a206275726e20616d6f756e7420657863656564732062616c616e604482015261636560f01b60648201526084016103d1565b6001600160a01b0383166000908152602081905260408120838303905560028054849290610aaa908490610f84565b90915550506040518281526000906001600160a01b038516907fddf252ad1be2c89b69c2b068fc378daa952ba7f163c4a11628f55a4df523b3ef9060200160405180910390a3505050565b6001600160a01b038316610b595760405162461bcd60e51b815260206004820152602560248201527f45524332303a207472616e736665722066726f6d20746865207a65726f206164604482015264647265737360d81b60648201526084016103d1565b6001600160a01b038216610bbb5760405162461bcd60e51b815260206004820152602360248201527f45524332303a207472616e7366657220746f20746865207a65726f206164647260448201526265737360e81b60648201526084016103d1565b6001600160a01b03831660009081526020819052604090205481811015610c335760405162461bcd60e51b815260206004820152602660248201527f45524332303a207472616e7366657220616d6f756e7420657863656564732062604482015265616c616e636560d01b60648201526084016103d1565b6001600160a01b03808516600090815260208190526040808220858503905591851681529081208054849290610c6a908490610e43565b92505081905550826001600160a01b0316846001600160a01b03167fddf252ad1be2c89b69c2b068fc378daa952ba7f163c4a11628f55a4df523b3ef84604051610cb691815260200190565b60405180910390a36108b2565b600060208083528351808285015260005b81811015610cf057858101830151858201604001528201610cd4565b506000604082860101526040601f19601f8301168501019250505092915050565b6001600160a01b0381168114610d2657600080fd5b50565b60008060408385031215610d3c57600080fd5b8235610d4781610d11565b946020939093013593505050565b600080600060608486031215610d6a57600080fd5b8335610d7581610d11565b92506020840135610d8581610d11565b929592945050506040919091013590565b600060208284031215610da857600080fd5b8135610db381610d11565b9392505050565b60008060408385031215610dcd57600080fd5b8235610dd881610d11565b91506020830135610de881610d11565b809150509250929050565b600181811c90821680610e0757607f821691505b602082108103610e2757634e487b7160e01b600052602260045260246000fd5b50919050565b634e487b7160e01b600052601160045260246000fd5b8082018082111561035b5761035b610e2d565b6020808252600a90820152694f574e45525f4f4e4c5960b01b604082015260600190565b600181815b80851115610eb5578160001904821115610e9b57610e9b610e2d565b80851615610ea857918102915b93841c9390800290610e7f565b509250929050565b600082610ecc5750600161035b565b81610ed95750600061035b565b8160018114610eef5760028114610ef957610f15565b600191505061035b565b60ff841115610f0a57610f0a610e2d565b50506001821b61035b565b5060208310610133831016604e8410600b8410161715610f38575081810a61035b565b610f428383610e7a565b8060001904821115610f5657610f56610e2d565b029392505050565b6000610db360ff841683610ebd565b808202811582820484141761035b5761035b610e2d565b8181038181111561035b5761035b610e2d56fea2646970667358221220aae679040ebb8f9777dd7aeca4a99097fac8ecc42d88399618046f964df513b164736f6c63430008110033",
  "immutableReferences": {},
  "source": "// SPDX-License-Identifier: GPL-3.0-only\npragma solidity ^0.8.0;\n\nimport \"@openzeppelin/contracts/token/ERC20/ERC20.sol\";\nimport \"@openzeppelin/contracts/security/Pausable.sol\";\nimport \"@openzeppelin/contracts/access/Ownable.sol\";\nimport \"@openzeppelin/contracts/security/ReentrancyGuard.sol\";\nimport \"@openzeppelin/contracts/utils/Strings.sol\";\nimport \"@openzeppelin/contracts/utils/Context.sol\";\nimport \"./LiquidityPool.sol\";\n\ncontract VJMToken is ERC20 {\n    event TreasuryMoved(); //   \n\n    uint256 public MAX_SUPPLY; //  jmt : vjmt == 1:10 \n    address public owner; //  \n    address payable public treasuryWallet; //  \n    LiquidityPool lp;\n   \n    constructor(address payable treasury) ERC20(\"vJMT Token\", \"vJMT\") {\n        MAX_SUPPLY = 600000 * 10**decimals();\n        _mint(address(this), MAX_SUPPLY); \n        owner = msg.sender; \n        treasuryWallet = treasury; // ,  \n    }\n\n    modifier ownerOnly() {\n        require(msg.sender == owner, \"OWNER_ONLY\");\n        _;\n    }\n\n    // set lp address \n    function setLPAddress(LiquidityPool _lp) public ownerOnly {\n       require(address(lp) == address(0), \"WRITE_ONCE\");\n        lp = _lp;\n    }\n \n    function _transfer(address sender, address recipient, uint256 amount) internal override {\n        super._transfer(sender, recipient, amount);\n    }\n\n    function mint(address account, uint256 amount) external ownerOnly {\n        require(account != address(0), \"ERC20: mint to the zero address\"); //      \n        require(totalSupply() + amount <= MAX_SUPPLY, \"ABOVE_MAX_SUPPLY\"); //   \n        _mint(account, amount * 10**decimals());\n    }\n    \n    function burn(address account, uint256 amount) external ownerOnly {\n        _burn(account, amount * 10**decimals());\n    }\n\n    //   \n    function increaseContractAllowance(address _owner,address _spender,uint256 _amount) public returns (bool) {\n        _approve(\n            _owner, // from\n            _spender, // to\n            allowance(msg.sender, address(this)) + _amount\n        ); \n        return true;\n    }\n\n    //   \n    function MoveToTreasuryWallet() public ownerOnly {\n        uint256 lpSwapAmount = 100000 * 10**decimals();\n        super._transfer(address(this), address(lp), lpSwapAmount);\n\n        uint256 remainingAmount = balanceOf(address(this));\n        super._transfer(address(this), address(treasuryWallet), remainingAmount);\n        emit TreasuryMoved();\n    }\n\n}",
  "sourcePath": "/Users/hyenne/workspace/BEB-05-JMT/contract/contracts/VJMToken.sol",
  "compiler": {
    "name": "solc",
    "version": "0.8.17+commit.8df45f5f.Emscripten.clang"
  },
  "schemaVersion": "3.4.9",
  "updatedAt": "2022-09-23T00:59:53.990Z",
  "networkType": "ethereum",
  "devdoc": {
    "kind": "dev",
    "methods": {
      "allowance(address,address)": {
        "details": "See {IERC20-allowance}."
      },
      "approve(address,uint256)": {
        "details": "See {IERC20-approve}. NOTE: If `amount` is the maximum `uint256`, the allowance is not updated on `transferFrom`. This is semantically equivalent to an infinite approval. Requirements: - `spender` cannot be the zero address."
      },
      "balanceOf(address)": {
        "details": "See {IERC20-balanceOf}."
      },
      "decimals()": {
        "details": "Returns the number of decimals used to get its user representation. For example, if `decimals` equals `2`, a balance of `505` tokens should be displayed to a user as `5.05` (`505 / 10 ** 2`). Tokens usually opt for a value of 18, imitating the relationship between Ether and Wei. This is the value {ERC20} uses, unless this function is overridden; NOTE: This information is only used for _display_ purposes: it in no way affects any of the arithmetic of the contract, including {IERC20-balanceOf} and {IERC20-transfer}."
      },
      "decreaseAllowance(address,uint256)": {
        "details": "Atomically decreases the allowance granted to `spender` by the caller. This is an alternative to {approve} that can be used as a mitigation for problems described in {IERC20-approve}. Emits an {Approval} event indicating the updated allowance. Requirements: - `spender` cannot be the zero address. - `spender` must have allowance for the caller of at least `subtractedValue`."
      },
      "increaseAllowance(address,uint256)": {
        "details": "Atomically increases the allowance granted to `spender` by the caller. This is an alternative to {approve} that can be used as a mitigation for problems described in {IERC20-approve}. Emits an {Approval} event indicating the updated allowance. Requirements: - `spender` cannot be the zero address."
      },
      "name()": {
        "details": "Returns the name of the token."
      },
      "symbol()": {
        "details": "Returns the symbol of the token, usually a shorter version of the name."
      },
      "totalSupply()": {
        "details": "See {IERC20-totalSupply}."
      },
      "transfer(address,uint256)": {
        "details": "See {IERC20-transfer}. Requirements: - `to` cannot be the zero address. - the caller must have a balance of at least `amount`."
      },
      "transferFrom(address,address,uint256)": {
        "details": "See {IERC20-transferFrom}. Emits an {Approval} event indicating the updated allowance. This is not required by the EIP. See the note at the beginning of {ERC20}. NOTE: Does not update the allowance if the current allowance is the maximum `uint256`. Requirements: - `from` and `to` cannot be the zero address. - `from` must have a balance of at least `amount`. - the caller must have allowance for ``from``'s tokens of at least `amount`."
      }
    },
    "version": 1
  },
  "userdoc": {
    "kind": "user",
    "methods": {},
    "version": 1
  }
}