{
	"contracts/VJMToken.sol": {
		"VJMToken": {
			"abi": [
				{
					"inputs": [
						{
							"internalType": "address payable",
							"name": "treasury",
							"type": "address"
						}
					],
					"stateMutability": "nonpayable",
					"type": "constructor"
				},
				{
					"anonymous": false,
					"inputs": [
						{
							"indexed": true,
							"internalType": "address",
							"name": "owner",
							"type": "address"
						},
						{
							"indexed": true,
							"internalType": "address",
							"name": "spender",
							"type": "address"
						},
						{
							"indexed": false,
							"internalType": "uint256",
							"name": "value",
							"type": "uint256"
						}
					],
					"name": "Approval",
					"type": "event"
				},
				{
					"anonymous": false,
					"inputs": [
						{
							"indexed": true,
							"internalType": "address",
							"name": "from",
							"type": "address"
						},
						{
							"indexed": true,
							"internalType": "address",
							"name": "to",
							"type": "address"
						},
						{
							"indexed": false,
							"internalType": "uint256",
							"name": "value",
							"type": "uint256"
						}
					],
					"name": "Transfer",
					"type": "event"
				},
				{
					"anonymous": false,
					"inputs": [],
					"name": "TreasuryMoved",
					"type": "event"
				},
				{
					"inputs": [],
					"name": "MAX_SUPPLY",
					"outputs": [
						{
							"internalType": "uint256",
							"name": "",
							"type": "uint256"
						}
					],
					"stateMutability": "view",
					"type": "function"
				},
				{
					"inputs": [
						{
							"internalType": "address",
							"name": "owner",
							"type": "address"
						},
						{
							"internalType": "address",
							"name": "spender",
							"type": "address"
						}
					],
					"name": "allowance",
					"outputs": [
						{
							"internalType": "uint256",
							"name": "",
							"type": "uint256"
						}
					],
					"stateMutability": "view",
					"type": "function"
				},
				{
					"inputs": [
						{
							"internalType": "address",
							"name": "spender",
							"type": "address"
						},
						{
							"internalType": "uint256",
							"name": "amount",
							"type": "uint256"
						}
					],
					"name": "approve",
					"outputs": [
						{
							"internalType": "bool",
							"name": "",
							"type": "bool"
						}
					],
					"stateMutability": "nonpayable",
					"type": "function"
				},
				{
					"inputs": [
						{
							"internalType": "address",
							"name": "account",
							"type": "address"
						}
					],
					"name": "balanceOf",
					"outputs": [
						{
							"internalType": "uint256",
							"name": "",
							"type": "uint256"
						}
					],
					"stateMutability": "view",
					"type": "function"
				},
				{
					"inputs": [
						{
							"internalType": "address",
							"name": "account",
							"type": "address"
						},
						{
							"internalType": "uint256",
							"name": "amount",
							"type": "uint256"
						}
					],
					"name": "burn",
					"outputs": [],
					"stateMutability": "nonpayable",
					"type": "function"
				},
				{
					"inputs": [],
					"name": "decimals",
					"outputs": [
						{
							"internalType": "uint8",
							"name": "",
							"type": "uint8"
						}
					],
					"stateMutability": "view",
					"type": "function"
				},
				{
					"inputs": [
						{
							"internalType": "address",
							"name": "spender",
							"type": "address"
						},
						{
							"internalType": "uint256",
							"name": "subtractedValue",
							"type": "uint256"
						}
					],
					"name": "decreaseAllowance",
					"outputs": [
						{
							"internalType": "bool",
							"name": "",
							"type": "bool"
						}
					],
					"stateMutability": "nonpayable",
					"type": "function"
				},
				{
					"inputs": [],
					"name": "getblock",
					"outputs": [
						{
							"internalType": "uint256",
							"name": "",
							"type": "uint256"
						}
					],
					"stateMutability": "view",
					"type": "function"
				},
				{
					"inputs": [
						{
							"internalType": "address",
							"name": "spender",
							"type": "address"
						},
						{
							"internalType": "uint256",
							"name": "addedValue",
							"type": "uint256"
						}
					],
					"name": "increaseAllowance",
					"outputs": [
						{
							"internalType": "bool",
							"name": "",
							"type": "bool"
						}
					],
					"stateMutability": "nonpayable",
					"type": "function"
				},
				{
					"inputs": [
						{
							"internalType": "address",
							"name": "_owner",
							"type": "address"
						},
						{
							"internalType": "address",
							"name": "_spender",
							"type": "address"
						},
						{
							"internalType": "uint256",
							"name": "_amount",
							"type": "uint256"
						}
					],
					"name": "increaseContractAllowance",
					"outputs": [
						{
							"internalType": "bool",
							"name": "",
							"type": "bool"
						}
					],
					"stateMutability": "nonpayable",
					"type": "function"
				},
				{
					"inputs": [
						{
							"internalType": "address",
							"name": "account",
							"type": "address"
						},
						{
							"internalType": "uint256",
							"name": "amount",
							"type": "uint256"
						}
					],
					"name": "mint",
					"outputs": [],
					"stateMutability": "nonpayable",
					"type": "function"
				},
				{
					"inputs": [],
					"name": "name",
					"outputs": [
						{
							"internalType": "string",
							"name": "",
							"type": "string"
						}
					],
					"stateMutability": "view",
					"type": "function"
				},
				{
					"inputs": [],
					"name": "owner",
					"outputs": [
						{
							"internalType": "address",
							"name": "",
							"type": "address"
						}
					],
					"stateMutability": "view",
					"type": "function"
				},
				{
					"inputs": [],
					"name": "symbol",
					"outputs": [
						{
							"internalType": "string",
							"name": "",
							"type": "string"
						}
					],
					"stateMutability": "view",
					"type": "function"
				},
				{
					"inputs": [],
					"name": "totalSupply",
					"outputs": [
						{
							"internalType": "uint256",
							"name": "",
							"type": "uint256"
						}
					],
					"stateMutability": "view",
					"type": "function"
				},
				{
					"inputs": [
						{
							"internalType": "address",
							"name": "to",
							"type": "address"
						},
						{
							"internalType": "uint256",
							"name": "amount",
							"type": "uint256"
						}
					],
					"name": "transfer",
					"outputs": [
						{
							"internalType": "bool",
							"name": "",
							"type": "bool"
						}
					],
					"stateMutability": "nonpayable",
					"type": "function"
				},
				{
					"inputs": [
						{
							"internalType": "address",
							"name": "from",
							"type": "address"
						},
						{
							"internalType": "address",
							"name": "to",
							"type": "address"
						},
						{
							"internalType": "uint256",
							"name": "amount",
							"type": "uint256"
						}
					],
					"name": "transferFrom",
					"outputs": [
						{
							"internalType": "bool",
							"name": "",
							"type": "bool"
						}
					],
					"stateMutability": "nonpayable",
					"type": "function"
				},
				{
					"inputs": [],
					"name": "treasuryWallet",
					"outputs": [
						{
							"internalType": "address payable",
							"name": "",
							"type": "address"
						}
					],
					"stateMutability": "view",
					"type": "function"
				}
			],
			"devdoc": {
				"kind": "dev",
				"methods": {
					"allowance(address,address)": {
						"details": "See {IERC20-allowance}."
					},
					"approve(address,uint256)": {
						"details": "See {IERC20-approve}. NOTE: If `amount` is the maximum `uint256`, the allowance is not updated on `transferFrom`. This is semantically equivalent to an infinite approval. Requirements: - `spender` cannot be the zero address."
					},
					"balanceOf(address)": {
						"details": "See {IERC20-balanceOf}."
					},
					"decimals()": {
						"details": "Returns the number of decimals used to get its user representation. For example, if `decimals` equals `2`, a balance of `505` tokens should be displayed to a user as `5.05` (`505 / 10 ** 2`). Tokens usually opt for a value of 18, imitating the relationship between Ether and Wei. This is the value {ERC20} uses, unless this function is overridden; NOTE: This information is only used for _display_ purposes: it in no way affects any of the arithmetic of the contract, including {IERC20-balanceOf} and {IERC20-transfer}."
					},
					"decreaseAllowance(address,uint256)": {
						"details": "Atomically decreases the allowance granted to `spender` by the caller. This is an alternative to {approve} that can be used as a mitigation for problems described in {IERC20-approve}. Emits an {Approval} event indicating the updated allowance. Requirements: - `spender` cannot be the zero address. - `spender` must have allowance for the caller of at least `subtractedValue`."
					},
					"increaseAllowance(address,uint256)": {
						"details": "Atomically increases the allowance granted to `spender` by the caller. This is an alternative to {approve} that can be used as a mitigation for problems described in {IERC20-approve}. Emits an {Approval} event indicating the updated allowance. Requirements: - `spender` cannot be the zero address."
					},
					"name()": {
						"details": "Returns the name of the token."
					},
					"symbol()": {
						"details": "Returns the symbol of the token, usually a shorter version of the name."
					},
					"totalSupply()": {
						"details": "See {IERC20-totalSupply}."
					},
					"transfer(address,uint256)": {
						"details": "See {IERC20-transfer}. Requirements: - `to` cannot be the zero address. - the caller must have a balance of at least `amount`."
					},
					"transferFrom(address,address,uint256)": {
						"details": "See {IERC20-transferFrom}. Emits an {Approval} event indicating the updated allowance. This is not required by the EIP. See the note at the beginning of {ERC20}. NOTE: Does not update the allowance if the current allowance is the maximum `uint256`. Requirements: - `from` and `to` cannot be the zero address. - `from` must have a balance of at least `amount`. - the caller must have allowance for ``from``'s tokens of at least `amount`."
					}
				},
				"version": 1
			},
			"evm": {
				"assembly": "    /* \"contracts/VJMToken.sol\":399:2290  contract VJMToken is ERC20 {... */\n  mstore(0x40, 0x80)\n    /* \"contracts/VJMToken.sol\":643:903  constructor(address payable treasury) ERC20(\"vJMT Token\", \"vJMT\") {... */\n  callvalue\n  dup1\n  iszero\n  tag_1\n  jumpi\n  0x00\n  dup1\n  revert\ntag_1:\n  pop\n  mload(0x40)\n  sub(codesize, bytecodeSize)\n  dup1\n  bytecodeSize\n  dup4\n  codecopy\n  dup2\n  dup2\n  add\n  0x40\n  mstore\n  dup2\n  add\n  swap1\n  tag_2\n  swap2\n  swap1\n  tag_3\n  jump\t// in\ntag_2:\n    /* \"@openzeppelin/contracts/token/ERC20/ERC20.sol\":1978:2091  constructor(string memory name_, string memory symbol_) {... */\n  mload(0x40)\n  dup1\n  0x40\n  add\n  0x40\n  mstore\n  dup1\n  0x0a\n  dup2\n  mstore\n  0x20\n  add\n  0x764a4d5420546f6b656e00000000000000000000000000000000000000000000\n  dup2\n  mstore\n  pop\n  mload(0x40)\n  dup1\n  0x40\n  add\n  0x40\n  mstore\n  dup1\n  0x04\n  dup2\n  mstore\n  0x20\n  add\n  0x764a4d5400000000000000000000000000000000000000000000000000000000\n  dup2\n  mstore\n  pop\n    /* \"@openzeppelin/contracts/token/ERC20/ERC20.sol\":2052:2057  name_ */\n  dup2\n    /* \"@openzeppelin/contracts/token/ERC20/ERC20.sol\":2044:2049  _name */\n  0x03\n    /* \"@openzeppelin/contracts/token/ERC20/ERC20.sol\":2044:2057  _name = name_ */\n  swap1\n  dup1\n  mload\n  swap1\n  0x20\n  add\n  swap1\n  tag_7\n  swap3\n  swap2\n  swap1\n  tag_8\n  jump\t// in\ntag_7:\n  pop\n    /* \"@openzeppelin/contracts/token/ERC20/ERC20.sol\":2077:2084  symbol_ */\n  dup1\n    /* \"@openzeppelin/contracts/token/ERC20/ERC20.sol\":2067:2074  _symbol */\n  0x04\n    /* \"@openzeppelin/contracts/token/ERC20/ERC20.sol\":2067:2084  _symbol = symbol_ */\n  swap1\n  dup1\n  mload\n  swap1\n  0x20\n  add\n  swap1\n  tag_9\n  swap3\n  swap2\n  swap1\n  tag_8\n  jump\t// in\ntag_9:\n  pop\n    /* \"@openzeppelin/contracts/token/ERC20/ERC20.sol\":1978:2091  constructor(string memory name_, string memory symbol_) {... */\n  pop\n  pop\n    /* \"contracts/VJMToken.sol\":745:755  decimals() */\n  tag_11\n    /* \"contracts/VJMToken.sol\":745:753  decimals */\n  shl(0x20, tag_12)\n    /* \"contracts/VJMToken.sol\":745:755  decimals() */\n  0x20\n  shr\n  jump\t// in\ntag_11:\n    /* \"contracts/VJMToken.sol\":741:743  10 */\n  0x0a\n    /* \"contracts/VJMToken.sol\":741:755  10**decimals() */\n  tag_13\n  swap2\n  swap1\n  tag_14\n  jump\t// in\ntag_13:\n    /* \"contracts/VJMToken.sol\":732:738  600000 */\n  0x0927c0\n    /* \"contracts/VJMToken.sol\":732:755  600000 * 10**decimals() */\n  tag_15\n  swap2\n  swap1\n  tag_16\n  jump\t// in\ntag_15:\n    /* \"contracts/VJMToken.sol\":719:729  MAX_SUPPLY */\n  0x05\n    /* \"contracts/VJMToken.sol\":719:755  MAX_SUPPLY = 600000 * 10**decimals() */\n  dup2\n  swap1\n  sstore\n  pop\n    /* \"contracts/VJMToken.sol\":765:797  _mint(address(this), MAX_SUPPLY) */\n  tag_17\n    /* \"contracts/VJMToken.sol\":779:783  this */\n  address\n    /* \"contracts/VJMToken.sol\":786:796  MAX_SUPPLY */\n  sload(0x05)\n    /* \"contracts/VJMToken.sol\":765:770  _mint */\n  shl(0x20, tag_18)\n    /* \"contracts/VJMToken.sol\":765:797  _mint(address(this), MAX_SUPPLY) */\n  0x20\n  shr\n  jump\t// in\ntag_17:\n    /* \"contracts/VJMToken.sol\":816:826  msg.sender */\n  caller\n    /* \"contracts/VJMToken.sol\":808:813  owner */\n  0x06\n  0x00\n    /* \"contracts/VJMToken.sol\":808:826  owner = msg.sender */\n  0x0100\n  exp\n  dup2\n  sload\n  dup2\n  0xffffffffffffffffffffffffffffffffffffffff\n  mul\n  not\n  and\n  swap1\n  dup4\n  0xffffffffffffffffffffffffffffffffffffffff\n  and\n  mul\n  or\n  swap1\n  sstore\n  pop\n    /* \"contracts/VJMToken.sol\":854:862  treasury */\n  dup1\n    /* \"contracts/VJMToken.sol\":837:851  treasuryWallet */\n  0x07\n  0x00\n    /* \"contracts/VJMToken.sol\":837:862  treasuryWallet = treasury */\n  0x0100\n  exp\n  dup2\n  sload\n  dup2\n  0xffffffffffffffffffffffffffffffffffffffff\n  mul\n  not\n  and\n  swap1\n  dup4\n  0xffffffffffffffffffffffffffffffffffffffff\n  and\n  mul\n  or\n  swap1\n  sstore\n  pop\n    /* \"contracts/VJMToken.sol\":643:903  constructor(address payable treasury) ERC20(\"vJMT Token\", \"vJMT\") {... */\n  pop\n    /* \"contracts/VJMToken.sol\":399:2290  contract VJMToken is ERC20 {... */\n  jump(tag_19)\n    /* \"@openzeppelin/contracts/token/ERC20/ERC20.sol\":3093:3184  function decimals() public view virtual override returns (uint8) {... */\ntag_12:\n    /* \"@openzeppelin/contracts/token/ERC20/ERC20.sol\":3151:3156  uint8 */\n  0x00\n    /* \"@openzeppelin/contracts/token/ERC20/ERC20.sol\":3175:3177  18 */\n  0x12\n    /* \"@openzeppelin/contracts/token/ERC20/ERC20.sol\":3168:3177  return 18 */\n  swap1\n  pop\n    /* \"@openzeppelin/contracts/token/ERC20/ERC20.sol\":3093:3184  function decimals() public view virtual override returns (uint8) {... */\n  swap1\n  jump\t// out\n    /* \"@openzeppelin/contracts/token/ERC20/ERC20.sol\":8402:8791  function _mint(address account, uint256 amount) internal virtual {... */\ntag_18:\n    /* \"@openzeppelin/contracts/token/ERC20/ERC20.sol\":8504:8505  0 */\n  0x00\n    /* \"@openzeppelin/contracts/token/ERC20/ERC20.sol\":8485:8506  account != address(0) */\n  0xffffffffffffffffffffffffffffffffffffffff\n  and\n    /* \"@openzeppelin/contracts/token/ERC20/ERC20.sol\":8485:8492  account */\n  dup3\n    /* \"@openzeppelin/contracts/token/ERC20/ERC20.sol\":8485:8506  account != address(0) */\n  0xffffffffffffffffffffffffffffffffffffffff\n  and\n  eq\n  iszero\n    /* \"@openzeppelin/contracts/token/ERC20/ERC20.sol\":8477:8542  require(account != address(0), \"ERC20: mint to the zero address\") */\n  tag_22\n  jumpi\n  mload(0x40)\n  0x08c379a000000000000000000000000000000000000000000000000000000000\n  dup2\n  mstore\n  0x04\n  add\n  tag_23\n  swap1\n  tag_24\n  jump\t// in\ntag_23:\n  mload(0x40)\n  dup1\n  swap2\n  sub\n  swap1\n  revert\ntag_22:\n    /* \"@openzeppelin/contracts/token/ERC20/ERC20.sol\":8553:8602  _beforeTokenTransfer(address(0), account, amount) */\n  tag_25\n    /* \"@openzeppelin/contracts/token/ERC20/ERC20.sol\":8582:8583  0 */\n  0x00\n    /* \"@openzeppelin/contracts/token/ERC20/ERC20.sol\":8586:8593  account */\n  dup4\n    /* \"@openzeppelin/contracts/token/ERC20/ERC20.sol\":8595:8601  amount */\n  dup4\n    /* \"@openzeppelin/contracts/token/ERC20/ERC20.sol\":8553:8573  _beforeTokenTransfer */\n  shl(0x20, tag_26)\n    /* \"@openzeppelin/contracts/token/ERC20/ERC20.sol\":8553:8602  _beforeTokenTransfer(address(0), account, amount) */\n  0x20\n  shr\n  jump\t// in\ntag_25:\n    /* \"@openzeppelin/contracts/token/ERC20/ERC20.sol\":8629:8635  amount */\n  dup1\n    /* \"@openzeppelin/contracts/token/ERC20/ERC20.sol\":8613:8625  _totalSupply */\n  0x02\n  0x00\n    /* \"@openzeppelin/contracts/token/ERC20/ERC20.sol\":8613:8635  _totalSupply += amount */\n  dup3\n  dup3\n  sload\n  tag_27\n  swap2\n  swap1\n  tag_28\n  jump\t// in\ntag_27:\n  swap3\n  pop\n  pop\n  dup2\n  swap1\n  sstore\n  pop\n    /* \"@openzeppelin/contracts/token/ERC20/ERC20.sol\":8667:8673  amount */\n  dup1\n    /* \"@openzeppelin/contracts/token/ERC20/ERC20.sol\":8645:8654  _balances */\n  0x00\n    /* \"@openzeppelin/contracts/token/ERC20/ERC20.sol\":8645:8663  _balances[account] */\n  dup1\n    /* \"@openzeppelin/contracts/token/ERC20/ERC20.sol\":8655:8662  account */\n  dup5\n    /* \"@openzeppelin/contracts/token/ERC20/ERC20.sol\":8645:8663  _balances[account] */\n  0xffffffffffffffffffffffffffffffffffffffff\n  and\n  0xffffffffffffffffffffffffffffffffffffffff\n  and\n  dup2\n  mstore\n  0x20\n  add\n  swap1\n  dup2\n  mstore\n  0x20\n  add\n  0x00\n  keccak256\n  0x00\n    /* \"@openzeppelin/contracts/token/ERC20/ERC20.sol\":8645:8673  _balances[account] += amount */\n  dup3\n  dup3\n  sload\n  tag_29\n  swap2\n  swap1\n  tag_28\n  jump\t// in\ntag_29:\n  swap3\n  pop\n  pop\n  dup2\n  swap1\n  sstore\n  pop\n    /* \"@openzeppelin/contracts/token/ERC20/ERC20.sol\":8709:8716  account */\n  dup2\n    /* \"@openzeppelin/contracts/token/ERC20/ERC20.sol\":8688:8725  Transfer(address(0), account, amount) */\n  0xffffffffffffffffffffffffffffffffffffffff\n  and\n    /* \"@openzeppelin/contracts/token/ERC20/ERC20.sol\":8705:8706  0 */\n  0x00\n    /* \"@openzeppelin/contracts/token/ERC20/ERC20.sol\":8688:8725  Transfer(address(0), account, amount) */\n  0xffffffffffffffffffffffffffffffffffffffff\n  and\n  0xddf252ad1be2c89b69c2b068fc378daa952ba7f163c4a11628f55a4df523b3ef\n    /* \"@openzeppelin/contracts/token/ERC20/ERC20.sol\":8718:8724  amount */\n  dup4\n    /* \"@openzeppelin/contracts/token/ERC20/ERC20.sol\":8688:8725  Transfer(address(0), account, amount) */\n  mload(0x40)\n  tag_30\n  swap2\n  swap1\n  tag_31\n  jump\t// in\ntag_30:\n  mload(0x40)\n  dup1\n  swap2\n  sub\n  swap1\n  log3\n    /* \"@openzeppelin/contracts/token/ERC20/ERC20.sol\":8736:8784  _afterTokenTransfer(address(0), account, amount) */\n  tag_32\n    /* \"@openzeppelin/contracts/token/ERC20/ERC20.sol\":8764:8765  0 */\n  0x00\n    /* \"@openzeppelin/contracts/token/ERC20/ERC20.sol\":8768:8775  account */\n  dup4\n    /* \"@openzeppelin/contracts/token/ERC20/ERC20.sol\":8777:8783  amount */\n  dup4\n    /* \"@openzeppelin/contracts/token/ERC20/ERC20.sol\":8736:8755  _afterTokenTransfer */\n  shl(0x20, tag_33)\n    /* \"@openzeppelin/contracts/token/ERC20/ERC20.sol\":8736:8784  _afterTokenTransfer(address(0), account, amount) */\n  0x20\n  shr\n  jump\t// in\ntag_32:\n    /* \"@openzeppelin/contracts/token/ERC20/ERC20.sol\":8402:8791  function _mint(address account, uint256 amount) internal virtual {... */\n  pop\n  pop\n  jump\t// out\n    /* \"@openzeppelin/contracts/token/ERC20/ERC20.sol\":11786:11907  function _beforeTokenTransfer(... */\ntag_26:\n  pop\n  pop\n  pop\n  jump\t// out\n    /* \"@openzeppelin/contracts/token/ERC20/ERC20.sol\":12495:12615  function _afterTokenTransfer(... */\ntag_33:\n  pop\n  pop\n  pop\n  jump\t// out\n    /* \"contracts/VJMToken.sol\":399:2290  contract VJMToken is ERC20 {... */\ntag_8:\n  dup3\n  dup1\n  sload\n  tag_36\n  swap1\n  tag_37\n  jump\t// in\ntag_36:\n  swap1\n  0x00\n  mstore\n  keccak256(0x00, 0x20)\n  swap1\n  0x1f\n  add\n  0x20\n  swap1\n  div\n  dup2\n  add\n  swap3\n  dup3\n  tag_39\n  jumpi\n  0x00\n  dup6\n  sstore\n  jump(tag_38)\ntag_39:\n  dup3\n  0x1f\n  lt\n  tag_40\n  jumpi\n  dup1\n  mload\n  not(0xff)\n  and\n  dup4\n  dup1\n  add\n  or\n  dup6\n  sstore\n  jump(tag_38)\ntag_40:\n  dup3\n  dup1\n  add\n  0x01\n  add\n  dup6\n  sstore\n  dup3\n  iszero\n  tag_38\n  jumpi\n  swap2\n  dup3\n  add\ntag_41:\n  dup3\n  dup2\n  gt\n  iszero\n  tag_42\n  jumpi\n  dup3\n  mload\n  dup3\n  sstore\n  swap2\n  0x20\n  add\n  swap2\n  swap1\n  0x01\n  add\n  swap1\n  jump(tag_41)\ntag_42:\ntag_38:\n  pop\n  swap1\n  pop\n  tag_43\n  swap2\n  swap1\n  tag_44\n  jump\t// in\ntag_43:\n  pop\n  swap1\n  jump\t// out\ntag_44:\ntag_45:\n  dup1\n  dup3\n  gt\n  iszero\n  tag_46\n  jumpi\n  0x00\n  dup2\n  0x00\n  swap1\n  sstore\n  pop\n  0x01\n  add\n  jump(tag_45)\ntag_46:\n  pop\n  swap1\n  jump\t// out\n    /* \"#utility.yul\":7:166   */\ntag_48:\n    /* \"#utility.yul\":72:77   */\n  0x00\n    /* \"#utility.yul\":103:109   */\n  dup2\n    /* \"#utility.yul\":97:110   */\n  mload\n    /* \"#utility.yul\":88:110   */\n  swap1\n  pop\n    /* \"#utility.yul\":119:160   */\n  tag_50\n    /* \"#utility.yul\":154:159   */\n  dup2\n    /* \"#utility.yul\":119:160   */\n  tag_51\n  jump\t// in\ntag_50:\n    /* \"#utility.yul\":7:166   */\n  swap3\n  swap2\n  pop\n  pop\n  jump\t// out\n    /* \"#utility.yul\":172:539   */\ntag_3:\n    /* \"#utility.yul\":250:256   */\n  0x00\n    /* \"#utility.yul\":299:301   */\n  0x20\n    /* \"#utility.yul\":287:296   */\n  dup3\n    /* \"#utility.yul\":278:285   */\n  dup5\n    /* \"#utility.yul\":274:297   */\n  sub\n    /* \"#utility.yul\":270:302   */\n  slt\n    /* \"#utility.yul\":267:386   */\n  iszero\n  tag_53\n  jumpi\n    /* \"#utility.yul\":305:384   */\n  tag_54\n  tag_55\n  jump\t// in\ntag_54:\n    /* \"#utility.yul\":267:386   */\ntag_53:\n    /* \"#utility.yul\":425:426   */\n  0x00\n    /* \"#utility.yul\":450:522   */\n  tag_56\n    /* \"#utility.yul\":514:521   */\n  dup5\n    /* \"#utility.yul\":505:511   */\n  dup3\n    /* \"#utility.yul\":494:503   */\n  dup6\n    /* \"#utility.yul\":490:512   */\n  add\n    /* \"#utility.yul\":450:522   */\n  tag_48\n  jump\t// in\ntag_56:\n    /* \"#utility.yul\":440:522   */\n  swap2\n  pop\n    /* \"#utility.yul\":396:532   */\n  pop\n    /* \"#utility.yul\":172:539   */\n  swap3\n  swap2\n  pop\n  pop\n  jump\t// out\n    /* \"#utility.yul\":545:911   */\ntag_57:\n    /* \"#utility.yul\":687:690   */\n  0x00\n    /* \"#utility.yul\":708:775   */\n  tag_59\n    /* \"#utility.yul\":772:774   */\n  0x1f\n    /* \"#utility.yul\":767:770   */\n  dup4\n    /* \"#utility.yul\":708:775   */\n  tag_60\n  jump\t// in\ntag_59:\n    /* \"#utility.yul\":701:775   */\n  swap2\n  pop\n    /* \"#utility.yul\":784:877   */\n  tag_61\n    /* \"#utility.yul\":873:876   */\n  dup3\n    /* \"#utility.yul\":784:877   */\n  tag_62\n  jump\t// in\ntag_61:\n    /* \"#utility.yul\":902:904   */\n  0x20\n    /* \"#utility.yul\":897:900   */\n  dup3\n    /* \"#utility.yul\":893:905   */\n  add\n    /* \"#utility.yul\":886:905   */\n  swap1\n  pop\n    /* \"#utility.yul\":545:911   */\n  swap2\n  swap1\n  pop\n  jump\t// out\n    /* \"#utility.yul\":917:1035   */\ntag_63:\n    /* \"#utility.yul\":1004:1028   */\n  tag_65\n    /* \"#utility.yul\":1022:1027   */\n  dup2\n    /* \"#utility.yul\":1004:1028   */\n  tag_66\n  jump\t// in\ntag_65:\n    /* \"#utility.yul\":999:1002   */\n  dup3\n    /* \"#utility.yul\":992:1029   */\n  mstore\n    /* \"#utility.yul\":917:1035   */\n  pop\n  pop\n  jump\t// out\n    /* \"#utility.yul\":1041:1460   */\ntag_24:\n    /* \"#utility.yul\":1207:1211   */\n  0x00\n    /* \"#utility.yul\":1245:1247   */\n  0x20\n    /* \"#utility.yul\":1234:1243   */\n  dup3\n    /* \"#utility.yul\":1230:1248   */\n  add\n    /* \"#utility.yul\":1222:1248   */\n  swap1\n  pop\n    /* \"#utility.yul\":1294:1303   */\n  dup2\n    /* \"#utility.yul\":1288:1292   */\n  dup2\n    /* \"#utility.yul\":1284:1304   */\n  sub\n    /* \"#utility.yul\":1280:1281   */\n  0x00\n    /* \"#utility.yul\":1269:1278   */\n  dup4\n    /* \"#utility.yul\":1265:1282   */\n  add\n    /* \"#utility.yul\":1258:1305   */\n  mstore\n    /* \"#utility.yul\":1322:1453   */\n  tag_68\n    /* \"#utility.yul\":1448:1452   */\n  dup2\n    /* \"#utility.yul\":1322:1453   */\n  tag_57\n  jump\t// in\ntag_68:\n    /* \"#utility.yul\":1314:1453   */\n  swap1\n  pop\n    /* \"#utility.yul\":1041:1460   */\n  swap2\n  swap1\n  pop\n  jump\t// out\n    /* \"#utility.yul\":1466:1688   */\ntag_31:\n    /* \"#utility.yul\":1559:1563   */\n  0x00\n    /* \"#utility.yul\":1597:1599   */\n  0x20\n    /* \"#utility.yul\":1586:1595   */\n  dup3\n    /* \"#utility.yul\":1582:1600   */\n  add\n    /* \"#utility.yul\":1574:1600   */\n  swap1\n  pop\n    /* \"#utility.yul\":1610:1681   */\n  tag_70\n    /* \"#utility.yul\":1678:1679   */\n  0x00\n    /* \"#utility.yul\":1667:1676   */\n  dup4\n    /* \"#utility.yul\":1663:1680   */\n  add\n    /* \"#utility.yul\":1654:1660   */\n  dup5\n    /* \"#utility.yul\":1610:1681   */\n  tag_63\n  jump\t// in\ntag_70:\n    /* \"#utility.yul\":1466:1688   */\n  swap3\n  swap2\n  pop\n  pop\n  jump\t// out\n    /* \"#utility.yul\":1775:1944   */\ntag_60:\n    /* \"#utility.yul\":1859:1870   */\n  0x00\n    /* \"#utility.yul\":1893:1899   */\n  dup3\n    /* \"#utility.yul\":1888:1891   */\n  dup3\n    /* \"#utility.yul\":1881:1900   */\n  mstore\n    /* \"#utility.yul\":1933:1937   */\n  0x20\n    /* \"#utility.yul\":1928:1931   */\n  dup3\n    /* \"#utility.yul\":1924:1938   */\n  add\n    /* \"#utility.yul\":1909:1938   */\n  swap1\n  pop\n    /* \"#utility.yul\":1775:1944   */\n  swap3\n  swap2\n  pop\n  pop\n  jump\t// out\n    /* \"#utility.yul\":1950:2255   */\ntag_28:\n    /* \"#utility.yul\":1990:1993   */\n  0x00\n    /* \"#utility.yul\":2009:2029   */\n  tag_75\n    /* \"#utility.yul\":2027:2028   */\n  dup3\n    /* \"#utility.yul\":2009:2029   */\n  tag_66\n  jump\t// in\ntag_75:\n    /* \"#utility.yul\":2004:2029   */\n  swap2\n  pop\n    /* \"#utility.yul\":2043:2063   */\n  tag_76\n    /* \"#utility.yul\":2061:2062   */\n  dup4\n    /* \"#utility.yul\":2043:2063   */\n  tag_66\n  jump\t// in\ntag_76:\n    /* \"#utility.yul\":2038:2063   */\n  swap3\n  pop\n    /* \"#utility.yul\":2197:2198   */\n  dup3\n    /* \"#utility.yul\":2129:2195   */\n  0xffffffffffffffffffffffffffffffffffffffffffffffffffffffffffffffff\n    /* \"#utility.yul\":2125:2199   */\n  sub\n    /* \"#utility.yul\":2122:2123   */\n  dup3\n    /* \"#utility.yul\":2119:2200   */\n  gt\n    /* \"#utility.yul\":2116:2223   */\n  iszero\n  tag_77\n  jumpi\n    /* \"#utility.yul\":2203:2221   */\n  tag_78\n  tag_79\n  jump\t// in\ntag_78:\n    /* \"#utility.yul\":2116:2223   */\ntag_77:\n    /* \"#utility.yul\":2247:2248   */\n  dup3\n    /* \"#utility.yul\":2244:2245   */\n  dup3\n    /* \"#utility.yul\":2240:2249   */\n  add\n    /* \"#utility.yul\":2233:2249   */\n  swap1\n  pop\n    /* \"#utility.yul\":1950:2255   */\n  swap3\n  swap2\n  pop\n  pop\n  jump\t// out\n    /* \"#utility.yul\":2261:3109   */\ntag_80:\n    /* \"#utility.yul\":2322:2327   */\n  0x00\n    /* \"#utility.yul\":2329:2333   */\n  dup1\n    /* \"#utility.yul\":2353:2359   */\n  dup3\n    /* \"#utility.yul\":2344:2359   */\n  swap2\n  pop\n    /* \"#utility.yul\":2377:2382   */\n  dup4\n    /* \"#utility.yul\":2368:2382   */\n  swap1\n  pop\n    /* \"#utility.yul\":2391:3103   */\ntag_82:\n    /* \"#utility.yul\":2412:2413   */\n  0x01\n    /* \"#utility.yul\":2402:2410   */\n  dup6\n    /* \"#utility.yul\":2399:2414   */\n  gt\n    /* \"#utility.yul\":2391:3103   */\n  iszero\n  tag_84\n  jumpi\n    /* \"#utility.yul\":2507:2511   */\n  dup1\n    /* \"#utility.yul\":2502:2505   */\n  dup7\n    /* \"#utility.yul\":2498:2512   */\n  div\n    /* \"#utility.yul\":2492:2496   */\n  dup2\n    /* \"#utility.yul\":2489:2513   */\n  gt\n    /* \"#utility.yul\":2486:2536   */\n  iszero\n  tag_85\n  jumpi\n    /* \"#utility.yul\":2516:2534   */\n  tag_86\n  tag_79\n  jump\t// in\ntag_86:\n    /* \"#utility.yul\":2486:2536   */\ntag_85:\n    /* \"#utility.yul\":2566:2567   */\n  0x01\n    /* \"#utility.yul\":2556:2564   */\n  dup6\n    /* \"#utility.yul\":2552:2568   */\n  and\n    /* \"#utility.yul\":2549:3000   */\n  iszero\n  tag_87\n  jumpi\n    /* \"#utility.yul\":2981:2985   */\n  dup1\n    /* \"#utility.yul\":2974:2979   */\n  dup3\n    /* \"#utility.yul\":2970:2986   */\n  mul\n    /* \"#utility.yul\":2961:2986   */\n  swap2\n  pop\n    /* \"#utility.yul\":2549:3000   */\ntag_87:\n    /* \"#utility.yul\":3031:3035   */\n  dup1\n    /* \"#utility.yul\":3025:3029   */\n  dup2\n    /* \"#utility.yul\":3021:3036   */\n  mul\n    /* \"#utility.yul\":3013:3036   */\n  swap1\n  pop\n    /* \"#utility.yul\":3061:3093   */\n  tag_88\n    /* \"#utility.yul\":3084:3092   */\n  dup6\n    /* \"#utility.yul\":3061:3093   */\n  tag_89\n  jump\t// in\ntag_88:\n    /* \"#utility.yul\":3049:3093   */\n  swap5\n  pop\n    /* \"#utility.yul\":2391:3103   */\n  jump(tag_82)\ntag_84:\n    /* \"#utility.yul\":2261:3109   */\n  swap5\n  pop\n  swap5\n  swap3\n  pop\n  pop\n  pop\n  jump\t// out\n    /* \"#utility.yul\":3115:3396   */\ntag_14:\n    /* \"#utility.yul\":3173:3178   */\n  0x00\n    /* \"#utility.yul\":3197:3220   */\n  tag_91\n    /* \"#utility.yul\":3215:3219   */\n  dup3\n    /* \"#utility.yul\":3197:3220   */\n  tag_66\n  jump\t// in\ntag_91:\n    /* \"#utility.yul\":3189:3220   */\n  swap2\n  pop\n    /* \"#utility.yul\":3241:3266   */\n  tag_92\n    /* \"#utility.yul\":3257:3265   */\n  dup4\n    /* \"#utility.yul\":3241:3266   */\n  tag_93\n  jump\t// in\ntag_92:\n    /* \"#utility.yul\":3229:3266   */\n  swap3\n  pop\n    /* \"#utility.yul\":3285:3389   */\n  tag_94\n    /* \"#utility.yul\":3322:3388   */\n  0xffffffffffffffffffffffffffffffffffffffffffffffffffffffffffffffff\n    /* \"#utility.yul\":3312:3320   */\n  dup5\n    /* \"#utility.yul\":3306:3310   */\n  dup5\n    /* \"#utility.yul\":3285:3389   */\n  tag_95\n  jump\t// in\ntag_94:\n    /* \"#utility.yul\":3276:3389   */\n  swap1\n  pop\n    /* \"#utility.yul\":3115:3396   */\n  swap3\n  swap2\n  pop\n  pop\n  jump\t// out\n    /* \"#utility.yul\":3402:4475   */\ntag_95:\n    /* \"#utility.yul\":3456:3461   */\n  0x00\n    /* \"#utility.yul\":3647:3655   */\n  dup3\n    /* \"#utility.yul\":3637:3677   */\n  tag_97\n  jumpi\n    /* \"#utility.yul\":3668:3669   */\n  0x01\n    /* \"#utility.yul\":3659:3669   */\n  swap1\n  pop\n    /* \"#utility.yul\":3670:3675   */\n  jump(tag_96)\n    /* \"#utility.yul\":3637:3677   */\ntag_97:\n    /* \"#utility.yul\":3696:3700   */\n  dup2\n    /* \"#utility.yul\":3686:3722   */\n  tag_98\n  jumpi\n    /* \"#utility.yul\":3713:3714   */\n  0x00\n    /* \"#utility.yul\":3704:3714   */\n  swap1\n  pop\n    /* \"#utility.yul\":3715:3720   */\n  jump(tag_96)\n    /* \"#utility.yul\":3686:3722   */\ntag_98:\n    /* \"#utility.yul\":3782:3786   */\n  dup2\n    /* \"#utility.yul\":3830:3831   */\n  0x01\n    /* \"#utility.yul\":3825:3852   */\n  dup2\n  eq\n  tag_100\n  jumpi\n    /* \"#utility.yul\":3866:3867   */\n  0x02\n    /* \"#utility.yul\":3861:4052   */\n  dup2\n  eq\n  tag_101\n  jumpi\n    /* \"#utility.yul\":3775:4052   */\n  jump(tag_99)\n    /* \"#utility.yul\":3825:3852   */\ntag_100:\n    /* \"#utility.yul\":3843:3844   */\n  0x01\n    /* \"#utility.yul\":3834:3844   */\n  swap2\n  pop\n    /* \"#utility.yul\":3845:3850   */\n  pop\n  jump(tag_96)\n    /* \"#utility.yul\":3861:4052   */\ntag_101:\n    /* \"#utility.yul\":3906:3909   */\n  0xff\n    /* \"#utility.yul\":3896:3904   */\n  dup5\n    /* \"#utility.yul\":3893:3910   */\n  gt\n    /* \"#utility.yul\":3890:3933   */\n  iszero\n  tag_102\n  jumpi\n    /* \"#utility.yul\":3913:3931   */\n  tag_103\n  tag_79\n  jump\t// in\ntag_103:\n    /* \"#utility.yul\":3890:3933   */\ntag_102:\n    /* \"#utility.yul\":3962:3970   */\n  dup4\n    /* \"#utility.yul\":3959:3960   */\n  0x02\n    /* \"#utility.yul\":3955:3971   */\n  exp\n    /* \"#utility.yul\":3946:3971   */\n  swap2\n  pop\n    /* \"#utility.yul\":3997:4000   */\n  dup5\n    /* \"#utility.yul\":3990:3995   */\n  dup3\n    /* \"#utility.yul\":3987:4001   */\n  gt\n    /* \"#utility.yul\":3984:4024   */\n  iszero\n  tag_104\n  jumpi\n    /* \"#utility.yul\":4004:4022   */\n  tag_105\n  tag_79\n  jump\t// in\ntag_105:\n    /* \"#utility.yul\":3984:4024   */\ntag_104:\n    /* \"#utility.yul\":4037:4042   */\n  pop\n  jump(tag_96)\n    /* \"#utility.yul\":3775:4052   */\ntag_99:\n  pop\n    /* \"#utility.yul\":4161:4163   */\n  0x20\n    /* \"#utility.yul\":4151:4159   */\n  dup4\n    /* \"#utility.yul\":4148:4164   */\n  lt\n    /* \"#utility.yul\":4142:4145   */\n  0x0133\n    /* \"#utility.yul\":4136:4140   */\n  dup4\n    /* \"#utility.yul\":4133:4146   */\n  lt\n    /* \"#utility.yul\":4129:4165   */\n  and\n    /* \"#utility.yul\":4111:4113   */\n  0x4e\n    /* \"#utility.yul\":4101:4109   */\n  dup5\n    /* \"#utility.yul\":4098:4114   */\n  lt\n    /* \"#utility.yul\":4093:4095   */\n  0x0b\n    /* \"#utility.yul\":4087:4091   */\n  dup5\n    /* \"#utility.yul\":4084:4096   */\n  lt\n    /* \"#utility.yul\":4080:4115   */\n  and\n    /* \"#utility.yul\":4064:4175   */\n  or\n    /* \"#utility.yul\":4061:4307   */\n  iszero\n  tag_106\n  jumpi\n    /* \"#utility.yul\":4217:4225   */\n  dup3\n    /* \"#utility.yul\":4211:4215   */\n  dup3\n    /* \"#utility.yul\":4207:4226   */\n  exp\n    /* \"#utility.yul\":4198:4226   */\n  swap1\n  pop\n    /* \"#utility.yul\":4252:4255   */\n  dup4\n    /* \"#utility.yul\":4245:4250   */\n  dup2\n    /* \"#utility.yul\":4242:4256   */\n  gt\n    /* \"#utility.yul\":4239:4279   */\n  iszero\n  tag_107\n  jumpi\n    /* \"#utility.yul\":4259:4277   */\n  tag_108\n  tag_79\n  jump\t// in\ntag_108:\n    /* \"#utility.yul\":4239:4279   */\ntag_107:\n    /* \"#utility.yul\":4292:4297   */\n  jump(tag_96)\n    /* \"#utility.yul\":4061:4307   */\ntag_106:\n    /* \"#utility.yul\":4332:4374   */\n  tag_109\n    /* \"#utility.yul\":4370:4373   */\n  dup5\n    /* \"#utility.yul\":4360:4368   */\n  dup5\n    /* \"#utility.yul\":4354:4358   */\n  dup5\n    /* \"#utility.yul\":4351:4352   */\n  0x01\n    /* \"#utility.yul\":4332:4374   */\n  tag_80\n  jump\t// in\ntag_109:\n    /* \"#utility.yul\":4317:4374   */\n  swap3\n  pop\n  swap1\n  pop\n    /* \"#utility.yul\":4406:4410   */\n  dup2\n    /* \"#utility.yul\":4401:4404   */\n  dup5\n    /* \"#utility.yul\":4397:4411   */\n  div\n    /* \"#utility.yul\":4390:4395   */\n  dup2\n    /* \"#utility.yul\":4387:4412   */\n  gt\n    /* \"#utility.yul\":4384:4435   */\n  iszero\n  tag_110\n  jumpi\n    /* \"#utility.yul\":4415:4433   */\n  tag_111\n  tag_79\n  jump\t// in\ntag_111:\n    /* \"#utility.yul\":4384:4435   */\ntag_110:\n    /* \"#utility.yul\":4464:4468   */\n  dup2\n    /* \"#utility.yul\":4457:4462   */\n  dup2\n    /* \"#utility.yul\":4453:4469   */\n  mul\n    /* \"#utility.yul\":4444:4469   */\n  swap1\n  pop\n    /* \"#utility.yul\":3402:4475   */\ntag_96:\n  swap4\n  swap3\n  pop\n  pop\n  pop\n  jump\t// out\n    /* \"#utility.yul\":4481:4829   */\ntag_16:\n    /* \"#utility.yul\":4521:4528   */\n  0x00\n    /* \"#utility.yul\":4544:4564   */\n  tag_113\n    /* \"#utility.yul\":4562:4563   */\n  dup3\n    /* \"#utility.yul\":4544:4564   */\n  tag_66\n  jump\t// in\ntag_113:\n    /* \"#utility.yul\":4539:4564   */\n  swap2\n  pop\n    /* \"#utility.yul\":4578:4598   */\n  tag_114\n    /* \"#utility.yul\":4596:4597   */\n  dup4\n    /* \"#utility.yul\":4578:4598   */\n  tag_66\n  jump\t// in\ntag_114:\n    /* \"#utility.yul\":4573:4598   */\n  swap3\n  pop\n    /* \"#utility.yul\":4766:4767   */\n  dup2\n    /* \"#utility.yul\":4698:4764   */\n  0xffffffffffffffffffffffffffffffffffffffffffffffffffffffffffffffff\n    /* \"#utility.yul\":4694:4768   */\n  div\n    /* \"#utility.yul\":4691:4692   */\n  dup4\n    /* \"#utility.yul\":4688:4769   */\n  gt\n    /* \"#utility.yul\":4683:4684   */\n  dup3\n    /* \"#utility.yul\":4676:4685   */\n  iszero\n    /* \"#utility.yul\":4669:4686   */\n  iszero\n    /* \"#utility.yul\":4665:4770   */\n  and\n    /* \"#utility.yul\":4662:4793   */\n  iszero\n  tag_115\n  jumpi\n    /* \"#utility.yul\":4773:4791   */\n  tag_116\n  tag_79\n  jump\t// in\ntag_116:\n    /* \"#utility.yul\":4662:4793   */\ntag_115:\n    /* \"#utility.yul\":4821:4822   */\n  dup3\n    /* \"#utility.yul\":4818:4819   */\n  dup3\n    /* \"#utility.yul\":4814:4823   */\n  mul\n    /* \"#utility.yul\":4803:4823   */\n  swap1\n  pop\n    /* \"#utility.yul\":4481:4829   */\n  swap3\n  swap2\n  pop\n  pop\n  jump\t// out\n    /* \"#utility.yul\":4835:4939   */\ntag_117:\n    /* \"#utility.yul\":4880:4887   */\n  0x00\n    /* \"#utility.yul\":4909:4933   */\n  tag_119\n    /* \"#utility.yul\":4927:4932   */\n  dup3\n    /* \"#utility.yul\":4909:4933   */\n  tag_120\n  jump\t// in\ntag_119:\n    /* \"#utility.yul\":4898:4933   */\n  swap1\n  pop\n    /* \"#utility.yul\":4835:4939   */\n  swap2\n  swap1\n  pop\n  jump\t// out\n    /* \"#utility.yul\":4945:5071   */\ntag_120:\n    /* \"#utility.yul\":4982:4989   */\n  0x00\n    /* \"#utility.yul\":5022:5064   */\n  0xffffffffffffffffffffffffffffffffffffffff\n    /* \"#utility.yul\":5015:5020   */\n  dup3\n    /* \"#utility.yul\":5011:5065   */\n  and\n    /* \"#utility.yul\":5000:5065   */\n  swap1\n  pop\n    /* \"#utility.yul\":4945:5071   */\n  swap2\n  swap1\n  pop\n  jump\t// out\n    /* \"#utility.yul\":5077:5154   */\ntag_66:\n    /* \"#utility.yul\":5114:5121   */\n  0x00\n    /* \"#utility.yul\":5143:5148   */\n  dup2\n    /* \"#utility.yul\":5132:5148   */\n  swap1\n  pop\n    /* \"#utility.yul\":5077:5154   */\n  swap2\n  swap1\n  pop\n  jump\t// out\n    /* \"#utility.yul\":5160:5246   */\ntag_93:\n    /* \"#utility.yul\":5195:5202   */\n  0x00\n    /* \"#utility.yul\":5235:5239   */\n  0xff\n    /* \"#utility.yul\":5228:5233   */\n  dup3\n    /* \"#utility.yul\":5224:5240   */\n  and\n    /* \"#utility.yul\":5213:5240   */\n  swap1\n  pop\n    /* \"#utility.yul\":5160:5246   */\n  swap2\n  swap1\n  pop\n  jump\t// out\n    /* \"#utility.yul\":5252:5572   */\ntag_37:\n    /* \"#utility.yul\":5296:5302   */\n  0x00\n    /* \"#utility.yul\":5333:5334   */\n  0x02\n    /* \"#utility.yul\":5327:5331   */\n  dup3\n    /* \"#utility.yul\":5323:5335   */\n  div\n    /* \"#utility.yul\":5313:5335   */\n  swap1\n  pop\n    /* \"#utility.yul\":5380:5381   */\n  0x01\n    /* \"#utility.yul\":5374:5378   */\n  dup3\n    /* \"#utility.yul\":5370:5382   */\n  and\n    /* \"#utility.yul\":5401:5419   */\n  dup1\n    /* \"#utility.yul\":5391:5472   */\n  tag_125\n  jumpi\n    /* \"#utility.yul\":5457:5461   */\n  0x7f\n    /* \"#utility.yul\":5449:5455   */\n  dup3\n    /* \"#utility.yul\":5445:5462   */\n  and\n    /* \"#utility.yul\":5435:5462   */\n  swap2\n  pop\n    /* \"#utility.yul\":5391:5472   */\ntag_125:\n    /* \"#utility.yul\":5519:5521   */\n  0x20\n    /* \"#utility.yul\":5511:5517   */\n  dup3\n    /* \"#utility.yul\":5508:5522   */\n  lt\n    /* \"#utility.yul\":5488:5506   */\n  dup2\n    /* \"#utility.yul\":5485:5523   */\n  eq\n    /* \"#utility.yul\":5482:5566   */\n  iszero\n  tag_126\n  jumpi\n    /* \"#utility.yul\":5538:5556   */\n  tag_127\n  tag_128\n  jump\t// in\ntag_127:\n    /* \"#utility.yul\":5482:5566   */\ntag_126:\n    /* \"#utility.yul\":5303:5572   */\n  pop\n    /* \"#utility.yul\":5252:5572   */\n  swap2\n  swap1\n  pop\n  jump\t// out\n    /* \"#utility.yul\":5578:5758   */\ntag_79:\n    /* \"#utility.yul\":5626:5703   */\n  0x4e487b7100000000000000000000000000000000000000000000000000000000\n    /* \"#utility.yul\":5623:5624   */\n  0x00\n    /* \"#utility.yul\":5616:5704   */\n  mstore\n    /* \"#utility.yul\":5723:5727   */\n  0x11\n    /* \"#utility.yul\":5720:5721   */\n  0x04\n    /* \"#utility.yul\":5713:5728   */\n  mstore\n    /* \"#utility.yul\":5747:5751   */\n  0x24\n    /* \"#utility.yul\":5744:5745   */\n  0x00\n    /* \"#utility.yul\":5737:5752   */\n  revert\n    /* \"#utility.yul\":5764:5944   */\ntag_128:\n    /* \"#utility.yul\":5812:5889   */\n  0x4e487b7100000000000000000000000000000000000000000000000000000000\n    /* \"#utility.yul\":5809:5810   */\n  0x00\n    /* \"#utility.yul\":5802:5890   */\n  mstore\n    /* \"#utility.yul\":5909:5913   */\n  0x22\n    /* \"#utility.yul\":5906:5907   */\n  0x04\n    /* \"#utility.yul\":5899:5914   */\n  mstore\n    /* \"#utility.yul\":5933:5937   */\n  0x24\n    /* \"#utility.yul\":5930:5931   */\n  0x00\n    /* \"#utility.yul\":5923:5938   */\n  revert\n    /* \"#utility.yul\":6073:6190   */\ntag_55:\n    /* \"#utility.yul\":6182:6183   */\n  0x00\n    /* \"#utility.yul\":6179:6180   */\n  dup1\n    /* \"#utility.yul\":6172:6184   */\n  revert\n    /* \"#utility.yul\":6196:6298   */\ntag_89:\n    /* \"#utility.yul\":6238:6246   */\n  0x00\n    /* \"#utility.yul\":6285:6290   */\n  dup2\n    /* \"#utility.yul\":6282:6283   */\n  0x01\n    /* \"#utility.yul\":6278:6291   */\n  shr\n    /* \"#utility.yul\":6257:6291   */\n  swap1\n  pop\n    /* \"#utility.yul\":6196:6298   */\n  swap2\n  swap1\n  pop\n  jump\t// out\n    /* \"#utility.yul\":6304:6485   */\ntag_62:\n    /* \"#utility.yul\":6444:6477   */\n  0x45524332303a206d696e7420746f20746865207a65726f206164647265737300\n    /* \"#utility.yul\":6440:6441   */\n  0x00\n    /* \"#utility.yul\":6432:6438   */\n  dup3\n    /* \"#utility.yul\":6428:6442   */\n  add\n    /* \"#utility.yul\":6421:6478   */\n  mstore\n    /* \"#utility.yul\":6304:6485   */\n  pop\n  jump\t// out\n    /* \"#utility.yul\":6491:6629   */\ntag_51:\n    /* \"#utility.yul\":6572:6604   */\n  tag_137\n    /* \"#utility.yul\":6598:6603   */\n  dup2\n    /* \"#utility.yul\":6572:6604   */\n  tag_117\n  jump\t// in\ntag_137:\n    /* \"#utility.yul\":6565:6570   */\n  dup2\n    /* \"#utility.yul\":6562:6605   */\n  eq\n    /* \"#utility.yul\":6552:6623   */\n  tag_138\n  jumpi\n    /* \"#utility.yul\":6619:6620   */\n  0x00\n    /* \"#utility.yul\":6616:6617   */\n  dup1\n    /* \"#utility.yul\":6609:6621   */\n  revert\n    /* \"#utility.yul\":6552:6623   */\ntag_138:\n    /* \"#utility.yul\":6491:6629   */\n  pop\n  jump\t// out\n    /* \"contracts/VJMToken.sol\":399:2290  contract VJMToken is ERC20 {... */\ntag_19:\n  dataSize(sub_0)\n  dup1\n  dataOffset(sub_0)\n  0x00\n  codecopy\n  0x00\n  return\nstop\n\nsub_0: assembly {\n        /* \"contracts/VJMToken.sol\":399:2290  contract VJMToken is ERC20 {... */\n      mstore(0x40, 0x80)\n      callvalue\n      dup1\n      iszero\n      tag_1\n      jumpi\n      0x00\n      dup1\n      revert\n    tag_1:\n      pop\n      jumpi(tag_2, lt(calldatasize, 0x04))\n      shr(0xe0, calldataload(0x00))\n      dup1\n      0x70a08231\n      gt\n      tag_21\n      jumpi\n      dup1\n      0xa457c2d7\n      gt\n      tag_22\n      jumpi\n      dup1\n      0xa457c2d7\n      eq\n      tag_16\n      jumpi\n      dup1\n      0xa9059cbb\n      eq\n      tag_17\n      jumpi\n      dup1\n      0xd83a2bf3\n      eq\n      tag_18\n      jumpi\n      dup1\n      0xd86b3721\n      eq\n      tag_19\n      jumpi\n      dup1\n      0xdd62ed3e\n      eq\n      tag_20\n      jumpi\n      jump(tag_2)\n    tag_22:\n      dup1\n      0x70a08231\n      eq\n      tag_12\n      jumpi\n      dup1\n      0x8da5cb5b\n      eq\n      tag_13\n      jumpi\n      dup1\n      0x95d89b41\n      eq\n      tag_14\n      jumpi\n      dup1\n      0x9dc29fac\n      eq\n      tag_15\n      jumpi\n      jump(tag_2)\n    tag_21:\n      dup1\n      0x313ce567\n      gt\n      tag_23\n      jumpi\n      dup1\n      0x313ce567\n      eq\n      tag_7\n      jumpi\n      dup1\n      0x32cb6b0c\n      eq\n      tag_8\n      jumpi\n      dup1\n      0x39509351\n      eq\n      tag_9\n      jumpi\n      dup1\n      0x40c10f19\n      eq\n      tag_10\n      jumpi\n      dup1\n      0x4626402b\n      eq\n      tag_11\n      jumpi\n      jump(tag_2)\n    tag_23:\n      dup1\n      0x06fdde03\n      eq\n      tag_3\n      jumpi\n      dup1\n      0x095ea7b3\n      eq\n      tag_4\n      jumpi\n      dup1\n      0x18160ddd\n      eq\n      tag_5\n      jumpi\n      dup1\n      0x23b872dd\n      eq\n      tag_6\n      jumpi\n    tag_2:\n      0x00\n      dup1\n      revert\n        /* \"@openzeppelin/contracts/token/ERC20/ERC20.sol\":2156:2254  function name() public view virtual override returns (string memory) {... */\n    tag_3:\n      tag_24\n      tag_25\n      jump\t// in\n    tag_24:\n      mload(0x40)\n      tag_26\n      swap2\n      swap1\n      tag_27\n      jump\t// in\n    tag_26:\n      mload(0x40)\n      dup1\n      swap2\n      sub\n      swap1\n      return\n        /* \"@openzeppelin/contracts/token/ERC20/ERC20.sol\":4433:4630  function approve(address spender, uint256 amount) public virtual override returns (bool) {... */\n    tag_4:\n      tag_28\n      0x04\n      dup1\n      calldatasize\n      sub\n      dup2\n      add\n      swap1\n      tag_29\n      swap2\n      swap1\n      tag_30\n      jump\t// in\n    tag_29:\n      tag_31\n      jump\t// in\n    tag_28:\n      mload(0x40)\n      tag_32\n      swap2\n      swap1\n      tag_33\n      jump\t// in\n    tag_32:\n      mload(0x40)\n      dup1\n      swap2\n      sub\n      swap1\n      return\n        /* \"@openzeppelin/contracts/token/ERC20/ERC20.sol\":3244:3350  function totalSupply() public view virtual override returns (uint256) {... */\n    tag_5:\n      tag_34\n      tag_35\n      jump\t// in\n    tag_34:\n      mload(0x40)\n      tag_36\n      swap2\n      swap1\n      tag_37\n      jump\t// in\n    tag_36:\n      mload(0x40)\n      dup1\n      swap2\n      sub\n      swap1\n      return\n        /* \"@openzeppelin/contracts/token/ERC20/ERC20.sol\":5192:5478  function transferFrom(... */\n    tag_6:\n      tag_38\n      0x04\n      dup1\n      calldatasize\n      sub\n      dup2\n      add\n      swap1\n      tag_39\n      swap2\n      swap1\n      tag_40\n      jump\t// in\n    tag_39:\n      tag_41\n      jump\t// in\n    tag_38:\n      mload(0x40)\n      tag_42\n      swap2\n      swap1\n      tag_33\n      jump\t// in\n    tag_42:\n      mload(0x40)\n      dup1\n      swap2\n      sub\n      swap1\n      return\n        /* \"@openzeppelin/contracts/token/ERC20/ERC20.sol\":3093:3184  function decimals() public view virtual override returns (uint8) {... */\n    tag_7:\n      tag_43\n      tag_44\n      jump\t// in\n    tag_43:\n      mload(0x40)\n      tag_45\n      swap2\n      swap1\n      tag_46\n      jump\t// in\n    tag_45:\n      mload(0x40)\n      dup1\n      swap2\n      sub\n      swap1\n      return\n        /* \"contracts/VJMToken.sol\":478:503  uint256 public MAX_SUPPLY */\n    tag_8:\n      tag_47\n      tag_48\n      jump\t// in\n    tag_47:\n      mload(0x40)\n      tag_49\n      swap2\n      swap1\n      tag_37\n      jump\t// in\n    tag_49:\n      mload(0x40)\n      dup1\n      swap2\n      sub\n      swap1\n      return\n        /* \"@openzeppelin/contracts/token/ERC20/ERC20.sol\":5873:6107  function increaseAllowance(address spender, uint256 addedValue) public virtual returns (bool) {... */\n    tag_9:\n      tag_50\n      0x04\n      dup1\n      calldatasize\n      sub\n      dup2\n      add\n      swap1\n      tag_51\n      swap2\n      swap1\n      tag_30\n      jump\t// in\n    tag_51:\n      tag_52\n      jump\t// in\n    tag_50:\n      mload(0x40)\n      tag_53\n      swap2\n      swap1\n      tag_33\n      jump\t// in\n    tag_53:\n      mload(0x40)\n      dup1\n      swap2\n      sub\n      swap1\n      return\n        /* \"contracts/VJMToken.sol\":1160:1495  function mint(address account, uint256 amount) external ownerOnly {... */\n    tag_10:\n      tag_54\n      0x04\n      dup1\n      calldatasize\n      sub\n      dup2\n      add\n      swap1\n      tag_55\n      swap2\n      swap1\n      tag_30\n      jump\t// in\n    tag_55:\n      tag_56\n      jump\t// in\n    tag_54:\n      stop\n        /* \"contracts/VJMToken.sol\":579:616  address payable public treasuryWallet */\n    tag_11:\n      tag_57\n      tag_58\n      jump\t// in\n    tag_57:\n      mload(0x40)\n      tag_59\n      swap2\n      swap1\n      tag_60\n      jump\t// in\n    tag_59:\n      mload(0x40)\n      dup1\n      swap2\n      sub\n      swap1\n      return\n        /* \"@openzeppelin/contracts/token/ERC20/ERC20.sol\":3408:3533  function balanceOf(address account) public view virtual override returns (uint256) {... */\n    tag_12:\n      tag_61\n      0x04\n      dup1\n      calldatasize\n      sub\n      dup2\n      add\n      swap1\n      tag_62\n      swap2\n      swap1\n      tag_63\n      jump\t// in\n    tag_62:\n      tag_64\n      jump\t// in\n    tag_61:\n      mload(0x40)\n      tag_65\n      swap2\n      swap1\n      tag_37\n      jump\t// in\n    tag_65:\n      mload(0x40)\n      dup1\n      swap2\n      sub\n      swap1\n      return\n        /* \"contracts/VJMToken.sol\":542:562  address public owner */\n    tag_13:\n      tag_66\n      tag_67\n      jump\t// in\n    tag_66:\n      mload(0x40)\n      tag_68\n      swap2\n      swap1\n      tag_69\n      jump\t// in\n    tag_68:\n      mload(0x40)\n      dup1\n      swap2\n      sub\n      swap1\n      return\n        /* \"@openzeppelin/contracts/token/ERC20/ERC20.sol\":2367:2469  function symbol() public view virtual override returns (string memory) {... */\n    tag_14:\n      tag_70\n      tag_71\n      jump\t// in\n    tag_70:\n      mload(0x40)\n      tag_72\n      swap2\n      swap1\n      tag_27\n      jump\t// in\n    tag_72:\n      mload(0x40)\n      dup1\n      swap2\n      sub\n      swap1\n      return\n        /* \"contracts/VJMToken.sol\":1505:1627  function burn(address account, uint256 amount) external ownerOnly {... */\n    tag_15:\n      tag_73\n      0x04\n      dup1\n      calldatasize\n      sub\n      dup2\n      add\n      swap1\n      tag_74\n      swap2\n      swap1\n      tag_30\n      jump\t// in\n    tag_74:\n      tag_75\n      jump\t// in\n    tag_73:\n      stop\n        /* \"@openzeppelin/contracts/token/ERC20/ERC20.sol\":6594:7021  function decreaseAllowance(address spender, uint256 subtractedValue) public virtual returns (bool) {... */\n    tag_16:\n      tag_76\n      0x04\n      dup1\n      calldatasize\n      sub\n      dup2\n      add\n      swap1\n      tag_77\n      swap2\n      swap1\n      tag_30\n      jump\t// in\n    tag_77:\n      tag_78\n      jump\t// in\n    tag_76:\n      mload(0x40)\n      tag_79\n      swap2\n      swap1\n      tag_33\n      jump\t// in\n    tag_79:\n      mload(0x40)\n      dup1\n      swap2\n      sub\n      swap1\n      return\n        /* \"@openzeppelin/contracts/token/ERC20/ERC20.sol\":3729:3918  function transfer(address to, uint256 amount) public virtual override returns (bool) {... */\n    tag_17:\n      tag_80\n      0x04\n      dup1\n      calldatasize\n      sub\n      dup2\n      add\n      swap1\n      tag_81\n      swap2\n      swap1\n      tag_30\n      jump\t// in\n    tag_81:\n      tag_82\n      jump\t// in\n    tag_80:\n      mload(0x40)\n      tag_83\n      swap2\n      swap1\n      tag_33\n      jump\t// in\n    tag_83:\n      mload(0x40)\n      dup1\n      swap2\n      sub\n      swap1\n      return\n        /* \"contracts/VJMToken.sol\":1661:1940  function increaseContractAllowance(address _owner,address _spender,uint256 _amount) public returns (bool) {... */\n    tag_18:\n      tag_84\n      0x04\n      dup1\n      calldatasize\n      sub\n      dup2\n      add\n      swap1\n      tag_85\n      swap2\n      swap1\n      tag_40\n      jump\t// in\n    tag_85:\n      tag_86\n      jump\t// in\n    tag_84:\n      mload(0x40)\n      tag_87\n      swap2\n      swap1\n      tag_33\n      jump\t// in\n    tag_87:\n      mload(0x40)\n      dup1\n      swap2\n      sub\n      swap1\n      return\n        /* \"contracts/VJMToken.sol\":2200:2287  function getblock() public view returns(uint256){... */\n    tag_19:\n      tag_88\n      tag_89\n      jump\t// in\n    tag_88:\n      mload(0x40)\n      tag_90\n      swap2\n      swap1\n      tag_37\n      jump\t// in\n    tag_90:\n      mload(0x40)\n      dup1\n      swap2\n      sub\n      swap1\n      return\n        /* \"@openzeppelin/contracts/token/ERC20/ERC20.sol\":3976:4125  function allowance(address owner, address spender) public view virtual override returns (uint256) {... */\n    tag_20:\n      tag_91\n      0x04\n      dup1\n      calldatasize\n      sub\n      dup2\n      add\n      swap1\n      tag_92\n      swap2\n      swap1\n      tag_93\n      jump\t// in\n    tag_92:\n      tag_94\n      jump\t// in\n    tag_91:\n      mload(0x40)\n      tag_95\n      swap2\n      swap1\n      tag_37\n      jump\t// in\n    tag_95:\n      mload(0x40)\n      dup1\n      swap2\n      sub\n      swap1\n      return\n        /* \"@openzeppelin/contracts/token/ERC20/ERC20.sol\":2156:2254  function name() public view virtual override returns (string memory) {... */\n    tag_25:\n        /* \"@openzeppelin/contracts/token/ERC20/ERC20.sol\":2210:2223  string memory */\n      0x60\n        /* \"@openzeppelin/contracts/token/ERC20/ERC20.sol\":2242:2247  _name */\n      0x03\n        /* \"@openzeppelin/contracts/token/ERC20/ERC20.sol\":2235:2247  return _name */\n      dup1\n      sload\n      tag_97\n      swap1\n      tag_98\n      jump\t// in\n    tag_97:\n      dup1\n      0x1f\n      add\n      0x20\n      dup1\n      swap2\n      div\n      mul\n      0x20\n      add\n      mload(0x40)\n      swap1\n      dup2\n      add\n      0x40\n      mstore\n      dup1\n      swap3\n      swap2\n      swap1\n      dup2\n      dup2\n      mstore\n      0x20\n      add\n      dup3\n      dup1\n      sload\n      tag_99\n      swap1\n      tag_98\n      jump\t// in\n    tag_99:\n      dup1\n      iszero\n      tag_100\n      jumpi\n      dup1\n      0x1f\n      lt\n      tag_101\n      jumpi\n      0x0100\n      dup1\n      dup4\n      sload\n      div\n      mul\n      dup4\n      mstore\n      swap2\n      0x20\n      add\n      swap2\n      jump(tag_100)\n    tag_101:\n      dup3\n      add\n      swap2\n      swap1\n      0x00\n      mstore\n      keccak256(0x00, 0x20)\n      swap1\n    tag_102:\n      dup2\n      sload\n      dup2\n      mstore\n      swap1\n      0x01\n      add\n      swap1\n      0x20\n      add\n      dup1\n      dup4\n      gt\n      tag_102\n      jumpi\n      dup3\n      swap1\n      sub\n      0x1f\n      and\n      dup3\n      add\n      swap2\n    tag_100:\n      pop\n      pop\n      pop\n      pop\n      pop\n      swap1\n      pop\n        /* \"@openzeppelin/contracts/token/ERC20/ERC20.sol\":2156:2254  function name() public view virtual override returns (string memory) {... */\n      swap1\n      jump\t// out\n        /* \"@openzeppelin/contracts/token/ERC20/ERC20.sol\":4433:4630  function approve(address spender, uint256 amount) public virtual override returns (bool) {... */\n    tag_31:\n        /* \"@openzeppelin/contracts/token/ERC20/ERC20.sol\":4516:4520  bool */\n      0x00\n        /* \"@openzeppelin/contracts/token/ERC20/ERC20.sol\":4532:4545  address owner */\n      dup1\n        /* \"@openzeppelin/contracts/token/ERC20/ERC20.sol\":4548:4560  _msgSender() */\n      tag_104\n        /* \"@openzeppelin/contracts/token/ERC20/ERC20.sol\":4548:4558  _msgSender */\n      tag_105\n        /* \"@openzeppelin/contracts/token/ERC20/ERC20.sol\":4548:4560  _msgSender() */\n      jump\t// in\n    tag_104:\n        /* \"@openzeppelin/contracts/token/ERC20/ERC20.sol\":4532:4560  address owner = _msgSender() */\n      swap1\n      pop\n        /* \"@openzeppelin/contracts/token/ERC20/ERC20.sol\":4570:4602  _approve(owner, spender, amount) */\n      tag_106\n        /* \"@openzeppelin/contracts/token/ERC20/ERC20.sol\":4579:4584  owner */\n      dup2\n        /* \"@openzeppelin/contracts/token/ERC20/ERC20.sol\":4586:4593  spender */\n      dup6\n        /* \"@openzeppelin/contracts/token/ERC20/ERC20.sol\":4595:4601  amount */\n      dup6\n        /* \"@openzeppelin/contracts/token/ERC20/ERC20.sol\":4570:4578  _approve */\n      tag_107\n        /* \"@openzeppelin/contracts/token/ERC20/ERC20.sol\":4570:4602  _approve(owner, spender, amount) */\n      jump\t// in\n    tag_106:\n        /* \"@openzeppelin/contracts/token/ERC20/ERC20.sol\":4619:4623  true */\n      0x01\n        /* \"@openzeppelin/contracts/token/ERC20/ERC20.sol\":4612:4623  return true */\n      swap2\n      pop\n      pop\n        /* \"@openzeppelin/contracts/token/ERC20/ERC20.sol\":4433:4630  function approve(address spender, uint256 amount) public virtual override returns (bool) {... */\n      swap3\n      swap2\n      pop\n      pop\n      jump\t// out\n        /* \"@openzeppelin/contracts/token/ERC20/ERC20.sol\":3244:3350  function totalSupply() public view virtual override returns (uint256) {... */\n    tag_35:\n        /* \"@openzeppelin/contracts/token/ERC20/ERC20.sol\":3305:3312  uint256 */\n      0x00\n        /* \"@openzeppelin/contracts/token/ERC20/ERC20.sol\":3331:3343  _totalSupply */\n      sload(0x02)\n        /* \"@openzeppelin/contracts/token/ERC20/ERC20.sol\":3324:3343  return _totalSupply */\n      swap1\n      pop\n        /* \"@openzeppelin/contracts/token/ERC20/ERC20.sol\":3244:3350  function totalSupply() public view virtual override returns (uint256) {... */\n      swap1\n      jump\t// out\n        /* \"@openzeppelin/contracts/token/ERC20/ERC20.sol\":5192:5478  function transferFrom(... */\n    tag_41:\n        /* \"@openzeppelin/contracts/token/ERC20/ERC20.sol\":5319:5323  bool */\n      0x00\n        /* \"@openzeppelin/contracts/token/ERC20/ERC20.sol\":5335:5350  address spender */\n      dup1\n        /* \"@openzeppelin/contracts/token/ERC20/ERC20.sol\":5353:5365  _msgSender() */\n      tag_110\n        /* \"@openzeppelin/contracts/token/ERC20/ERC20.sol\":5353:5363  _msgSender */\n      tag_105\n        /* \"@openzeppelin/contracts/token/ERC20/ERC20.sol\":5353:5365  _msgSender() */\n      jump\t// in\n    tag_110:\n        /* \"@openzeppelin/contracts/token/ERC20/ERC20.sol\":5335:5365  address spender = _msgSender() */\n      swap1\n      pop\n        /* \"@openzeppelin/contracts/token/ERC20/ERC20.sol\":5375:5413  _spendAllowance(from, spender, amount) */\n      tag_111\n        /* \"@openzeppelin/contracts/token/ERC20/ERC20.sol\":5391:5395  from */\n      dup6\n        /* \"@openzeppelin/contracts/token/ERC20/ERC20.sol\":5397:5404  spender */\n      dup3\n        /* \"@openzeppelin/contracts/token/ERC20/ERC20.sol\":5406:5412  amount */\n      dup6\n        /* \"@openzeppelin/contracts/token/ERC20/ERC20.sol\":5375:5390  _spendAllowance */\n      tag_112\n        /* \"@openzeppelin/contracts/token/ERC20/ERC20.sol\":5375:5413  _spendAllowance(from, spender, amount) */\n      jump\t// in\n    tag_111:\n        /* \"@openzeppelin/contracts/token/ERC20/ERC20.sol\":5423:5450  _transfer(from, to, amount) */\n      tag_113\n        /* \"@openzeppelin/contracts/token/ERC20/ERC20.sol\":5433:5437  from */\n      dup6\n        /* \"@openzeppelin/contracts/token/ERC20/ERC20.sol\":5439:5441  to */\n      dup6\n        /* \"@openzeppelin/contracts/token/ERC20/ERC20.sol\":5443:5449  amount */\n      dup6\n        /* \"@openzeppelin/contracts/token/ERC20/ERC20.sol\":5423:5432  _transfer */\n      tag_114\n        /* \"@openzeppelin/contracts/token/ERC20/ERC20.sol\":5423:5450  _transfer(from, to, amount) */\n      jump\t// in\n    tag_113:\n        /* \"@openzeppelin/contracts/token/ERC20/ERC20.sol\":5467:5471  true */\n      0x01\n        /* \"@openzeppelin/contracts/token/ERC20/ERC20.sol\":5460:5471  return true */\n      swap2\n      pop\n      pop\n        /* \"@openzeppelin/contracts/token/ERC20/ERC20.sol\":5192:5478  function transferFrom(... */\n      swap4\n      swap3\n      pop\n      pop\n      pop\n      jump\t// out\n        /* \"@openzeppelin/contracts/token/ERC20/ERC20.sol\":3093:3184  function decimals() public view virtual override returns (uint8) {... */\n    tag_44:\n        /* \"@openzeppelin/contracts/token/ERC20/ERC20.sol\":3151:3156  uint8 */\n      0x00\n        /* \"@openzeppelin/contracts/token/ERC20/ERC20.sol\":3175:3177  18 */\n      0x12\n        /* \"@openzeppelin/contracts/token/ERC20/ERC20.sol\":3168:3177  return 18 */\n      swap1\n      pop\n        /* \"@openzeppelin/contracts/token/ERC20/ERC20.sol\":3093:3184  function decimals() public view virtual override returns (uint8) {... */\n      swap1\n      jump\t// out\n        /* \"contracts/VJMToken.sol\":478:503  uint256 public MAX_SUPPLY */\n    tag_48:\n      sload(0x05)\n      dup2\n      jump\t// out\n        /* \"@openzeppelin/contracts/token/ERC20/ERC20.sol\":5873:6107  function increaseAllowance(address spender, uint256 addedValue) public virtual returns (bool) {... */\n    tag_52:\n        /* \"@openzeppelin/contracts/token/ERC20/ERC20.sol\":5961:5965  bool */\n      0x00\n        /* \"@openzeppelin/contracts/token/ERC20/ERC20.sol\":5977:5990  address owner */\n      dup1\n        /* \"@openzeppelin/contracts/token/ERC20/ERC20.sol\":5993:6005  _msgSender() */\n      tag_117\n        /* \"@openzeppelin/contracts/token/ERC20/ERC20.sol\":5993:6003  _msgSender */\n      tag_105\n        /* \"@openzeppelin/contracts/token/ERC20/ERC20.sol\":5993:6005  _msgSender() */\n      jump\t// in\n    tag_117:\n        /* \"@openzeppelin/contracts/token/ERC20/ERC20.sol\":5977:6005  address owner = _msgSender() */\n      swap1\n      pop\n        /* \"@openzeppelin/contracts/token/ERC20/ERC20.sol\":6015:6079  _approve(owner, spender, allowance(owner, spender) + addedValue) */\n      tag_118\n        /* \"@openzeppelin/contracts/token/ERC20/ERC20.sol\":6024:6029  owner */\n      dup2\n        /* \"@openzeppelin/contracts/token/ERC20/ERC20.sol\":6031:6038  spender */\n      dup6\n        /* \"@openzeppelin/contracts/token/ERC20/ERC20.sol\":6068:6078  addedValue */\n      dup6\n        /* \"@openzeppelin/contracts/token/ERC20/ERC20.sol\":6040:6065  allowance(owner, spender) */\n      tag_119\n        /* \"@openzeppelin/contracts/token/ERC20/ERC20.sol\":6050:6055  owner */\n      dup6\n        /* \"@openzeppelin/contracts/token/ERC20/ERC20.sol\":6057:6064  spender */\n      dup10\n        /* \"@openzeppelin/contracts/token/ERC20/ERC20.sol\":6040:6049  allowance */\n      tag_94\n        /* \"@openzeppelin/contracts/token/ERC20/ERC20.sol\":6040:6065  allowance(owner, spender) */\n      jump\t// in\n    tag_119:\n        /* \"@openzeppelin/contracts/token/ERC20/ERC20.sol\":6040:6078  allowance(owner, spender) + addedValue */\n      tag_120\n      swap2\n      swap1\n      tag_121\n      jump\t// in\n    tag_120:\n        /* \"@openzeppelin/contracts/token/ERC20/ERC20.sol\":6015:6023  _approve */\n      tag_107\n        /* \"@openzeppelin/contracts/token/ERC20/ERC20.sol\":6015:6079  _approve(owner, spender, allowance(owner, spender) + addedValue) */\n      jump\t// in\n    tag_118:\n        /* \"@openzeppelin/contracts/token/ERC20/ERC20.sol\":6096:6100  true */\n      0x01\n        /* \"@openzeppelin/contracts/token/ERC20/ERC20.sol\":6089:6100  return true */\n      swap2\n      pop\n      pop\n        /* \"@openzeppelin/contracts/token/ERC20/ERC20.sol\":5873:6107  function increaseAllowance(address spender, uint256 addedValue) public virtual returns (bool) {... */\n      swap3\n      swap2\n      pop\n      pop\n      jump\t// out\n        /* \"contracts/VJMToken.sol\":1160:1495  function mint(address account, uint256 amount) external ownerOnly {... */\n    tag_56:\n        /* \"contracts/VJMToken.sol\":962:967  owner */\n      0x06\n      0x00\n      swap1\n      sload\n      swap1\n      0x0100\n      exp\n      swap1\n      div\n      0xffffffffffffffffffffffffffffffffffffffff\n      and\n        /* \"contracts/VJMToken.sol\":948:967  msg.sender == owner */\n      0xffffffffffffffffffffffffffffffffffffffff\n      and\n        /* \"contracts/VJMToken.sol\":948:958  msg.sender */\n      caller\n        /* \"contracts/VJMToken.sol\":948:967  msg.sender == owner */\n      0xffffffffffffffffffffffffffffffffffffffff\n      and\n      eq\n        /* \"contracts/VJMToken.sol\":940:982  require(msg.sender == owner, \"OWNER_ONLY\") */\n      tag_123\n      jumpi\n      mload(0x40)\n      0x08c379a000000000000000000000000000000000000000000000000000000000\n      dup2\n      mstore\n      0x04\n      add\n      tag_124\n      swap1\n      tag_125\n      jump\t// in\n    tag_124:\n      mload(0x40)\n      dup1\n      swap2\n      sub\n      swap1\n      revert\n    tag_123:\n        /* \"contracts/VJMToken.sol\":1263:1264  0 */\n      0x00\n        /* \"contracts/VJMToken.sol\":1244:1265  account != address(0) */\n      0xffffffffffffffffffffffffffffffffffffffff\n      and\n        /* \"contracts/VJMToken.sol\":1244:1251  account */\n      dup3\n        /* \"contracts/VJMToken.sol\":1244:1265  account != address(0) */\n      0xffffffffffffffffffffffffffffffffffffffff\n      and\n      eq\n      iszero\n        /* \"contracts/VJMToken.sol\":1236:1301  require(account != address(0), \"ERC20: mint to the zero address\") */\n      tag_127\n      jumpi\n      mload(0x40)\n      0x08c379a000000000000000000000000000000000000000000000000000000000\n      dup2\n      mstore\n      0x04\n      add\n      tag_128\n      swap1\n      tag_129\n      jump\t// in\n    tag_128:\n      mload(0x40)\n      dup1\n      swap2\n      sub\n      swap1\n      revert\n    tag_127:\n        /* \"contracts/VJMToken.sol\":1384:1394  MAX_SUPPLY */\n      sload(0x05)\n        /* \"contracts/VJMToken.sol\":1374:1380  amount */\n      dup2\n        /* \"contracts/VJMToken.sol\":1358:1371  totalSupply() */\n      tag_130\n        /* \"contracts/VJMToken.sol\":1358:1369  totalSupply */\n      tag_35\n        /* \"contracts/VJMToken.sol\":1358:1371  totalSupply() */\n      jump\t// in\n    tag_130:\n        /* \"contracts/VJMToken.sol\":1358:1380  totalSupply() + amount */\n      tag_131\n      swap2\n      swap1\n      tag_121\n      jump\t// in\n    tag_131:\n        /* \"contracts/VJMToken.sol\":1358:1394  totalSupply() + amount <= MAX_SUPPLY */\n      gt\n      iszero\n        /* \"contracts/VJMToken.sol\":1350:1415  require(totalSupply() + amount <= MAX_SUPPLY, \"ABOVE_MAX_SUPPLY\") */\n      tag_132\n      jumpi\n      mload(0x40)\n      0x08c379a000000000000000000000000000000000000000000000000000000000\n      dup2\n      mstore\n      0x04\n      add\n      tag_133\n      swap1\n      tag_134\n      jump\t// in\n    tag_133:\n      mload(0x40)\n      dup1\n      swap2\n      sub\n      swap1\n      revert\n    tag_132:\n        /* \"contracts/VJMToken.sol\":1449:1488  _mint(account, amount * 10**decimals()) */\n      tag_135\n        /* \"contracts/VJMToken.sol\":1455:1462  account */\n      dup3\n        /* \"contracts/VJMToken.sol\":1477:1487  decimals() */\n      tag_136\n        /* \"contracts/VJMToken.sol\":1477:1485  decimals */\n      tag_44\n        /* \"contracts/VJMToken.sol\":1477:1487  decimals() */\n      jump\t// in\n    tag_136:\n        /* \"contracts/VJMToken.sol\":1473:1475  10 */\n      0x0a\n        /* \"contracts/VJMToken.sol\":1473:1487  10**decimals() */\n      tag_137\n      swap2\n      swap1\n      tag_138\n      jump\t// in\n    tag_137:\n        /* \"contracts/VJMToken.sol\":1464:1470  amount */\n      dup4\n        /* \"contracts/VJMToken.sol\":1464:1487  amount * 10**decimals() */\n      tag_139\n      swap2\n      swap1\n      tag_140\n      jump\t// in\n    tag_139:\n        /* \"contracts/VJMToken.sol\":1449:1454  _mint */\n      tag_141\n        /* \"contracts/VJMToken.sol\":1449:1488  _mint(account, amount * 10**decimals()) */\n      jump\t// in\n    tag_135:\n        /* \"contracts/VJMToken.sol\":1160:1495  function mint(address account, uint256 amount) external ownerOnly {... */\n      pop\n      pop\n      jump\t// out\n        /* \"contracts/VJMToken.sol\":579:616  address payable public treasuryWallet */\n    tag_58:\n      0x07\n      0x00\n      swap1\n      sload\n      swap1\n      0x0100\n      exp\n      swap1\n      div\n      0xffffffffffffffffffffffffffffffffffffffff\n      and\n      dup2\n      jump\t// out\n        /* \"@openzeppelin/contracts/token/ERC20/ERC20.sol\":3408:3533  function balanceOf(address account) public view virtual override returns (uint256) {... */\n    tag_64:\n        /* \"@openzeppelin/contracts/token/ERC20/ERC20.sol\":3482:3489  uint256 */\n      0x00\n        /* \"@openzeppelin/contracts/token/ERC20/ERC20.sol\":3508:3517  _balances */\n      dup1\n        /* \"@openzeppelin/contracts/token/ERC20/ERC20.sol\":3508:3526  _balances[account] */\n      0x00\n        /* \"@openzeppelin/contracts/token/ERC20/ERC20.sol\":3518:3525  account */\n      dup4\n        /* \"@openzeppelin/contracts/token/ERC20/ERC20.sol\":3508:3526  _balances[account] */\n      0xffffffffffffffffffffffffffffffffffffffff\n      and\n      0xffffffffffffffffffffffffffffffffffffffff\n      and\n      dup2\n      mstore\n      0x20\n      add\n      swap1\n      dup2\n      mstore\n      0x20\n      add\n      0x00\n      keccak256\n      sload\n        /* \"@openzeppelin/contracts/token/ERC20/ERC20.sol\":3501:3526  return _balances[account] */\n      swap1\n      pop\n        /* \"@openzeppelin/contracts/token/ERC20/ERC20.sol\":3408:3533  function balanceOf(address account) public view virtual override returns (uint256) {... */\n      swap2\n      swap1\n      pop\n      jump\t// out\n        /* \"contracts/VJMToken.sol\":542:562  address public owner */\n    tag_67:\n      0x06\n      0x00\n      swap1\n      sload\n      swap1\n      0x0100\n      exp\n      swap1\n      div\n      0xffffffffffffffffffffffffffffffffffffffff\n      and\n      dup2\n      jump\t// out\n        /* \"@openzeppelin/contracts/token/ERC20/ERC20.sol\":2367:2469  function symbol() public view virtual override returns (string memory) {... */\n    tag_71:\n        /* \"@openzeppelin/contracts/token/ERC20/ERC20.sol\":2423:2436  string memory */\n      0x60\n        /* \"@openzeppelin/contracts/token/ERC20/ERC20.sol\":2455:2462  _symbol */\n      0x04\n        /* \"@openzeppelin/contracts/token/ERC20/ERC20.sol\":2448:2462  return _symbol */\n      dup1\n      sload\n      tag_144\n      swap1\n      tag_98\n      jump\t// in\n    tag_144:\n      dup1\n      0x1f\n      add\n      0x20\n      dup1\n      swap2\n      div\n      mul\n      0x20\n      add\n      mload(0x40)\n      swap1\n      dup2\n      add\n      0x40\n      mstore\n      dup1\n      swap3\n      swap2\n      swap1\n      dup2\n      dup2\n      mstore\n      0x20\n      add\n      dup3\n      dup1\n      sload\n      tag_145\n      swap1\n      tag_98\n      jump\t// in\n    tag_145:\n      dup1\n      iszero\n      tag_146\n      jumpi\n      dup1\n      0x1f\n      lt\n      tag_147\n      jumpi\n      0x0100\n      dup1\n      dup4\n      sload\n      div\n      mul\n      dup4\n      mstore\n      swap2\n      0x20\n      add\n      swap2\n      jump(tag_146)\n    tag_147:\n      dup3\n      add\n      swap2\n      swap1\n      0x00\n      mstore\n      keccak256(0x00, 0x20)\n      swap1\n    tag_148:\n      dup2\n      sload\n      dup2\n      mstore\n      swap1\n      0x01\n      add\n      swap1\n      0x20\n      add\n      dup1\n      dup4\n      gt\n      tag_148\n      jumpi\n      dup3\n      swap1\n      sub\n      0x1f\n      and\n      dup3\n      add\n      swap2\n    tag_146:\n      pop\n      pop\n      pop\n      pop\n      pop\n      swap1\n      pop\n        /* \"@openzeppelin/contracts/token/ERC20/ERC20.sol\":2367:2469  function symbol() public view virtual override returns (string memory) {... */\n      swap1\n      jump\t// out\n        /* \"contracts/VJMToken.sol\":1505:1627  function burn(address account, uint256 amount) external ownerOnly {... */\n    tag_75:\n        /* \"contracts/VJMToken.sol\":962:967  owner */\n      0x06\n      0x00\n      swap1\n      sload\n      swap1\n      0x0100\n      exp\n      swap1\n      div\n      0xffffffffffffffffffffffffffffffffffffffff\n      and\n        /* \"contracts/VJMToken.sol\":948:967  msg.sender == owner */\n      0xffffffffffffffffffffffffffffffffffffffff\n      and\n        /* \"contracts/VJMToken.sol\":948:958  msg.sender */\n      caller\n        /* \"contracts/VJMToken.sol\":948:967  msg.sender == owner */\n      0xffffffffffffffffffffffffffffffffffffffff\n      and\n      eq\n        /* \"contracts/VJMToken.sol\":940:982  require(msg.sender == owner, \"OWNER_ONLY\") */\n      tag_150\n      jumpi\n      mload(0x40)\n      0x08c379a000000000000000000000000000000000000000000000000000000000\n      dup2\n      mstore\n      0x04\n      add\n      tag_151\n      swap1\n      tag_125\n      jump\t// in\n    tag_151:\n      mload(0x40)\n      dup1\n      swap2\n      sub\n      swap1\n      revert\n    tag_150:\n        /* \"contracts/VJMToken.sol\":1581:1620  _burn(account, amount * 10**decimals()) */\n      tag_153\n        /* \"contracts/VJMToken.sol\":1587:1594  account */\n      dup3\n        /* \"contracts/VJMToken.sol\":1609:1619  decimals() */\n      tag_154\n        /* \"contracts/VJMToken.sol\":1609:1617  decimals */\n      tag_44\n        /* \"contracts/VJMToken.sol\":1609:1619  decimals() */\n      jump\t// in\n    tag_154:\n        /* \"contracts/VJMToken.sol\":1605:1607  10 */\n      0x0a\n        /* \"contracts/VJMToken.sol\":1605:1619  10**decimals() */\n      tag_155\n      swap2\n      swap1\n      tag_138\n      jump\t// in\n    tag_155:\n        /* \"contracts/VJMToken.sol\":1596:1602  amount */\n      dup4\n        /* \"contracts/VJMToken.sol\":1596:1619  amount * 10**decimals() */\n      tag_156\n      swap2\n      swap1\n      tag_140\n      jump\t// in\n    tag_156:\n        /* \"contracts/VJMToken.sol\":1581:1586  _burn */\n      tag_157\n        /* \"contracts/VJMToken.sol\":1581:1620  _burn(account, amount * 10**decimals()) */\n      jump\t// in\n    tag_153:\n        /* \"contracts/VJMToken.sol\":1505:1627  function burn(address account, uint256 amount) external ownerOnly {... */\n      pop\n      pop\n      jump\t// out\n        /* \"@openzeppelin/contracts/token/ERC20/ERC20.sol\":6594:7021  function decreaseAllowance(address spender, uint256 subtractedValue) public virtual returns (bool) {... */\n    tag_78:\n        /* \"@openzeppelin/contracts/token/ERC20/ERC20.sol\":6687:6691  bool */\n      0x00\n        /* \"@openzeppelin/contracts/token/ERC20/ERC20.sol\":6703:6716  address owner */\n      dup1\n        /* \"@openzeppelin/contracts/token/ERC20/ERC20.sol\":6719:6731  _msgSender() */\n      tag_159\n        /* \"@openzeppelin/contracts/token/ERC20/ERC20.sol\":6719:6729  _msgSender */\n      tag_105\n        /* \"@openzeppelin/contracts/token/ERC20/ERC20.sol\":6719:6731  _msgSender() */\n      jump\t// in\n    tag_159:\n        /* \"@openzeppelin/contracts/token/ERC20/ERC20.sol\":6703:6731  address owner = _msgSender() */\n      swap1\n      pop\n        /* \"@openzeppelin/contracts/token/ERC20/ERC20.sol\":6741:6765  uint256 currentAllowance */\n      0x00\n        /* \"@openzeppelin/contracts/token/ERC20/ERC20.sol\":6768:6793  allowance(owner, spender) */\n      tag_160\n        /* \"@openzeppelin/contracts/token/ERC20/ERC20.sol\":6778:6783  owner */\n      dup3\n        /* \"@openzeppelin/contracts/token/ERC20/ERC20.sol\":6785:6792  spender */\n      dup7\n        /* \"@openzeppelin/contracts/token/ERC20/ERC20.sol\":6768:6777  allowance */\n      tag_94\n        /* \"@openzeppelin/contracts/token/ERC20/ERC20.sol\":6768:6793  allowance(owner, spender) */\n      jump\t// in\n    tag_160:\n        /* \"@openzeppelin/contracts/token/ERC20/ERC20.sol\":6741:6793  uint256 currentAllowance = allowance(owner, spender) */\n      swap1\n      pop\n        /* \"@openzeppelin/contracts/token/ERC20/ERC20.sol\":6831:6846  subtractedValue */\n      dup4\n        /* \"@openzeppelin/contracts/token/ERC20/ERC20.sol\":6811:6827  currentAllowance */\n      dup2\n        /* \"@openzeppelin/contracts/token/ERC20/ERC20.sol\":6811:6846  currentAllowance >= subtractedValue */\n      lt\n      iszero\n        /* \"@openzeppelin/contracts/token/ERC20/ERC20.sol\":6803:6888  require(currentAllowance >= subtractedValue, \"ERC20: decreased allowance below zero\") */\n      tag_161\n      jumpi\n      mload(0x40)\n      0x08c379a000000000000000000000000000000000000000000000000000000000\n      dup2\n      mstore\n      0x04\n      add\n      tag_162\n      swap1\n      tag_163\n      jump\t// in\n    tag_162:\n      mload(0x40)\n      dup1\n      swap2\n      sub\n      swap1\n      revert\n    tag_161:\n        /* \"@openzeppelin/contracts/token/ERC20/ERC20.sol\":6922:6982  _approve(owner, spender, currentAllowance - subtractedValue) */\n      tag_164\n        /* \"@openzeppelin/contracts/token/ERC20/ERC20.sol\":6931:6936  owner */\n      dup3\n        /* \"@openzeppelin/contracts/token/ERC20/ERC20.sol\":6938:6945  spender */\n      dup7\n        /* \"@openzeppelin/contracts/token/ERC20/ERC20.sol\":6966:6981  subtractedValue */\n      dup7\n        /* \"@openzeppelin/contracts/token/ERC20/ERC20.sol\":6947:6963  currentAllowance */\n      dup5\n        /* \"@openzeppelin/contracts/token/ERC20/ERC20.sol\":6947:6981  currentAllowance - subtractedValue */\n      sub\n        /* \"@openzeppelin/contracts/token/ERC20/ERC20.sol\":6922:6930  _approve */\n      tag_107\n        /* \"@openzeppelin/contracts/token/ERC20/ERC20.sol\":6922:6982  _approve(owner, spender, currentAllowance - subtractedValue) */\n      jump\t// in\n    tag_164:\n        /* \"@openzeppelin/contracts/token/ERC20/ERC20.sol\":7010:7014  true */\n      0x01\n        /* \"@openzeppelin/contracts/token/ERC20/ERC20.sol\":7003:7014  return true */\n      swap3\n      pop\n      pop\n      pop\n        /* \"@openzeppelin/contracts/token/ERC20/ERC20.sol\":6594:7021  function decreaseAllowance(address spender, uint256 subtractedValue) public virtual returns (bool) {... */\n      swap3\n      swap2\n      pop\n      pop\n      jump\t// out\n        /* \"@openzeppelin/contracts/token/ERC20/ERC20.sol\":3729:3918  function transfer(address to, uint256 amount) public virtual override returns (bool) {... */\n    tag_82:\n        /* \"@openzeppelin/contracts/token/ERC20/ERC20.sol\":3808:3812  bool */\n      0x00\n        /* \"@openzeppelin/contracts/token/ERC20/ERC20.sol\":3824:3837  address owner */\n      dup1\n        /* \"@openzeppelin/contracts/token/ERC20/ERC20.sol\":3840:3852  _msgSender() */\n      tag_166\n        /* \"@openzeppelin/contracts/token/ERC20/ERC20.sol\":3840:3850  _msgSender */\n      tag_105\n        /* \"@openzeppelin/contracts/token/ERC20/ERC20.sol\":3840:3852  _msgSender() */\n      jump\t// in\n    tag_166:\n        /* \"@openzeppelin/contracts/token/ERC20/ERC20.sol\":3824:3852  address owner = _msgSender() */\n      swap1\n      pop\n        /* \"@openzeppelin/contracts/token/ERC20/ERC20.sol\":3862:3890  _transfer(owner, to, amount) */\n      tag_167\n        /* \"@openzeppelin/contracts/token/ERC20/ERC20.sol\":3872:3877  owner */\n      dup2\n        /* \"@openzeppelin/contracts/token/ERC20/ERC20.sol\":3879:3881  to */\n      dup6\n        /* \"@openzeppelin/contracts/token/ERC20/ERC20.sol\":3883:3889  amount */\n      dup6\n        /* \"@openzeppelin/contracts/token/ERC20/ERC20.sol\":3862:3871  _transfer */\n      tag_114\n        /* \"@openzeppelin/contracts/token/ERC20/ERC20.sol\":3862:3890  _transfer(owner, to, amount) */\n      jump\t// in\n    tag_167:\n        /* \"@openzeppelin/contracts/token/ERC20/ERC20.sol\":3907:3911  true */\n      0x01\n        /* \"@openzeppelin/contracts/token/ERC20/ERC20.sol\":3900:3911  return true */\n      swap2\n      pop\n      pop\n        /* \"@openzeppelin/contracts/token/ERC20/ERC20.sol\":3729:3918  function transfer(address to, uint256 amount) public virtual override returns (bool) {... */\n      swap3\n      swap2\n      pop\n      pop\n      jump\t// out\n        /* \"contracts/VJMToken.sol\":1661:1940  function increaseContractAllowance(address _owner,address _spender,uint256 _amount) public returns (bool) {... */\n    tag_86:\n        /* \"contracts/VJMToken.sol\":1761:1765  bool */\n      0x00\n        /* \"contracts/VJMToken.sol\":1777:1911  _approve(... */\n      tag_169\n        /* \"contracts/VJMToken.sol\":1799:1805  _owner */\n      dup5\n        /* \"contracts/VJMToken.sol\":1827:1835  _spender */\n      dup5\n        /* \"contracts/VJMToken.sol\":1894:1901  _amount */\n      dup5\n        /* \"contracts/VJMToken.sol\":1855:1891  allowance(msg.sender, address(this)) */\n      tag_170\n        /* \"contracts/VJMToken.sol\":1865:1875  msg.sender */\n      caller\n        /* \"contracts/VJMToken.sol\":1885:1889  this */\n      address\n        /* \"contracts/VJMToken.sol\":1855:1864  allowance */\n      tag_94\n        /* \"contracts/VJMToken.sol\":1855:1891  allowance(msg.sender, address(this)) */\n      jump\t// in\n    tag_170:\n        /* \"contracts/VJMToken.sol\":1855:1901  allowance(msg.sender, address(this)) + _amount */\n      tag_171\n      swap2\n      swap1\n      tag_121\n      jump\t// in\n    tag_171:\n        /* \"contracts/VJMToken.sol\":1777:1785  _approve */\n      tag_107\n        /* \"contracts/VJMToken.sol\":1777:1911  _approve(... */\n      jump\t// in\n    tag_169:\n        /* \"contracts/VJMToken.sol\":1929:1933  true */\n      0x01\n        /* \"contracts/VJMToken.sol\":1922:1933  return true */\n      swap1\n      pop\n        /* \"contracts/VJMToken.sol\":1661:1940  function increaseContractAllowance(address _owner,address _spender,uint256 _amount) public returns (bool) {... */\n      swap4\n      swap3\n      pop\n      pop\n      pop\n      jump\t// out\n        /* \"contracts/VJMToken.sol\":2200:2287  function getblock() public view returns(uint256){... */\n    tag_89:\n        /* \"contracts/VJMToken.sol\":2240:2247  uint256 */\n      0x00\n        /* \"contracts/VJMToken.sol\":2265:2280  block.timestamp */\n      timestamp\n        /* \"contracts/VJMToken.sol\":2258:2280  return block.timestamp */\n      swap1\n      pop\n        /* \"contracts/VJMToken.sol\":2200:2287  function getblock() public view returns(uint256){... */\n      swap1\n      jump\t// out\n        /* \"@openzeppelin/contracts/token/ERC20/ERC20.sol\":3976:4125  function allowance(address owner, address spender) public view virtual override returns (uint256) {... */\n    tag_94:\n        /* \"@openzeppelin/contracts/token/ERC20/ERC20.sol\":4065:4072  uint256 */\n      0x00\n        /* \"@openzeppelin/contracts/token/ERC20/ERC20.sol\":4091:4102  _allowances */\n      0x01\n        /* \"@openzeppelin/contracts/token/ERC20/ERC20.sol\":4091:4109  _allowances[owner] */\n      0x00\n        /* \"@openzeppelin/contracts/token/ERC20/ERC20.sol\":4103:4108  owner */\n      dup5\n        /* \"@openzeppelin/contracts/token/ERC20/ERC20.sol\":4091:4109  _allowances[owner] */\n      0xffffffffffffffffffffffffffffffffffffffff\n      and\n      0xffffffffffffffffffffffffffffffffffffffff\n      and\n      dup2\n      mstore\n      0x20\n      add\n      swap1\n      dup2\n      mstore\n      0x20\n      add\n      0x00\n      keccak256\n        /* \"@openzeppelin/contracts/token/ERC20/ERC20.sol\":4091:4118  _allowances[owner][spender] */\n      0x00\n        /* \"@openzeppelin/contracts/token/ERC20/ERC20.sol\":4110:4117  spender */\n      dup4\n        /* \"@openzeppelin/contracts/token/ERC20/ERC20.sol\":4091:4118  _allowances[owner][spender] */\n      0xffffffffffffffffffffffffffffffffffffffff\n      and\n      0xffffffffffffffffffffffffffffffffffffffff\n      and\n      dup2\n      mstore\n      0x20\n      add\n      swap1\n      dup2\n      mstore\n      0x20\n      add\n      0x00\n      keccak256\n      sload\n        /* \"@openzeppelin/contracts/token/ERC20/ERC20.sol\":4084:4118  return _allowances[owner][spender] */\n      swap1\n      pop\n        /* \"@openzeppelin/contracts/token/ERC20/ERC20.sol\":3976:4125  function allowance(address owner, address spender) public view virtual override returns (uint256) {... */\n      swap3\n      swap2\n      pop\n      pop\n      jump\t// out\n        /* \"@openzeppelin/contracts/utils/Context.sol\":640:736  function _msgSender() internal view virtual returns (address) {... */\n    tag_105:\n        /* \"@openzeppelin/contracts/utils/Context.sol\":693:700  address */\n      0x00\n        /* \"@openzeppelin/contracts/utils/Context.sol\":719:729  msg.sender */\n      caller\n        /* \"@openzeppelin/contracts/utils/Context.sol\":712:729  return msg.sender */\n      swap1\n      pop\n        /* \"@openzeppelin/contracts/utils/Context.sol\":640:736  function _msgSender() internal view virtual returns (address) {... */\n      swap1\n      jump\t// out\n        /* \"@openzeppelin/contracts/token/ERC20/ERC20.sol\":10110:10480  function _approve(... */\n    tag_107:\n        /* \"@openzeppelin/contracts/token/ERC20/ERC20.sol\":10258:10259  0 */\n      0x00\n        /* \"@openzeppelin/contracts/token/ERC20/ERC20.sol\":10241:10260  owner != address(0) */\n      0xffffffffffffffffffffffffffffffffffffffff\n      and\n        /* \"@openzeppelin/contracts/token/ERC20/ERC20.sol\":10241:10246  owner */\n      dup4\n        /* \"@openzeppelin/contracts/token/ERC20/ERC20.sol\":10241:10260  owner != address(0) */\n      0xffffffffffffffffffffffffffffffffffffffff\n      and\n      eq\n      iszero\n        /* \"@openzeppelin/contracts/token/ERC20/ERC20.sol\":10233:10301  require(owner != address(0), \"ERC20: approve from the zero address\") */\n      tag_176\n      jumpi\n      mload(0x40)\n      0x08c379a000000000000000000000000000000000000000000000000000000000\n      dup2\n      mstore\n      0x04\n      add\n      tag_177\n      swap1\n      tag_178\n      jump\t// in\n    tag_177:\n      mload(0x40)\n      dup1\n      swap2\n      sub\n      swap1\n      revert\n    tag_176:\n        /* \"@openzeppelin/contracts/token/ERC20/ERC20.sol\":10338:10339  0 */\n      0x00\n        /* \"@openzeppelin/contracts/token/ERC20/ERC20.sol\":10319:10340  spender != address(0) */\n      0xffffffffffffffffffffffffffffffffffffffff\n      and\n        /* \"@openzeppelin/contracts/token/ERC20/ERC20.sol\":10319:10326  spender */\n      dup3\n        /* \"@openzeppelin/contracts/token/ERC20/ERC20.sol\":10319:10340  spender != address(0) */\n      0xffffffffffffffffffffffffffffffffffffffff\n      and\n      eq\n      iszero\n        /* \"@openzeppelin/contracts/token/ERC20/ERC20.sol\":10311:10379  require(spender != address(0), \"ERC20: approve to the zero address\") */\n      tag_179\n      jumpi\n      mload(0x40)\n      0x08c379a000000000000000000000000000000000000000000000000000000000\n      dup2\n      mstore\n      0x04\n      add\n      tag_180\n      swap1\n      tag_181\n      jump\t// in\n    tag_180:\n      mload(0x40)\n      dup1\n      swap2\n      sub\n      swap1\n      revert\n    tag_179:\n        /* \"@openzeppelin/contracts/token/ERC20/ERC20.sol\":10420:10426  amount */\n      dup1\n        /* \"@openzeppelin/contracts/token/ERC20/ERC20.sol\":10390:10401  _allowances */\n      0x01\n        /* \"@openzeppelin/contracts/token/ERC20/ERC20.sol\":10390:10408  _allowances[owner] */\n      0x00\n        /* \"@openzeppelin/contracts/token/ERC20/ERC20.sol\":10402:10407  owner */\n      dup6\n        /* \"@openzeppelin/contracts/token/ERC20/ERC20.sol\":10390:10408  _allowances[owner] */\n      0xffffffffffffffffffffffffffffffffffffffff\n      and\n      0xffffffffffffffffffffffffffffffffffffffff\n      and\n      dup2\n      mstore\n      0x20\n      add\n      swap1\n      dup2\n      mstore\n      0x20\n      add\n      0x00\n      keccak256\n        /* \"@openzeppelin/contracts/token/ERC20/ERC20.sol\":10390:10417  _allowances[owner][spender] */\n      0x00\n        /* \"@openzeppelin/contracts/token/ERC20/ERC20.sol\":10409:10416  spender */\n      dup5\n        /* \"@openzeppelin/contracts/token/ERC20/ERC20.sol\":10390:10417  _allowances[owner][spender] */\n      0xffffffffffffffffffffffffffffffffffffffff\n      and\n      0xffffffffffffffffffffffffffffffffffffffff\n      and\n      dup2\n      mstore\n      0x20\n      add\n      swap1\n      dup2\n      mstore\n      0x20\n      add\n      0x00\n      keccak256\n        /* \"@openzeppelin/contracts/token/ERC20/ERC20.sol\":10390:10426  _allowances[owner][spender] = amount */\n      dup2\n      swap1\n      sstore\n      pop\n        /* \"@openzeppelin/contracts/token/ERC20/ERC20.sol\":10457:10464  spender */\n      dup2\n        /* \"@openzeppelin/contracts/token/ERC20/ERC20.sol\":10441:10473  Approval(owner, spender, amount) */\n      0xffffffffffffffffffffffffffffffffffffffff\n      and\n        /* \"@openzeppelin/contracts/token/ERC20/ERC20.sol\":10450:10455  owner */\n      dup4\n        /* \"@openzeppelin/contracts/token/ERC20/ERC20.sol\":10441:10473  Approval(owner, spender, amount) */\n      0xffffffffffffffffffffffffffffffffffffffff\n      and\n      0x8c5be1e5ebec7d5bd14f71427d1e84f3dd0314c0f7b2291e5b200ac8c7c3b925\n        /* \"@openzeppelin/contracts/token/ERC20/ERC20.sol\":10466:10472  amount */\n      dup4\n        /* \"@openzeppelin/contracts/token/ERC20/ERC20.sol\":10441:10473  Approval(owner, spender, amount) */\n      mload(0x40)\n      tag_182\n      swap2\n      swap1\n      tag_37\n      jump\t// in\n    tag_182:\n      mload(0x40)\n      dup1\n      swap2\n      sub\n      swap1\n      log3\n        /* \"@openzeppelin/contracts/token/ERC20/ERC20.sol\":10110:10480  function _approve(... */\n      pop\n      pop\n      pop\n      jump\t// out\n        /* \"@openzeppelin/contracts/token/ERC20/ERC20.sol\":10761:11202  function _spendAllowance(... */\n    tag_112:\n        /* \"@openzeppelin/contracts/token/ERC20/ERC20.sol\":10891:10915  uint256 currentAllowance */\n      0x00\n        /* \"@openzeppelin/contracts/token/ERC20/ERC20.sol\":10918:10943  allowance(owner, spender) */\n      tag_184\n        /* \"@openzeppelin/contracts/token/ERC20/ERC20.sol\":10928:10933  owner */\n      dup5\n        /* \"@openzeppelin/contracts/token/ERC20/ERC20.sol\":10935:10942  spender */\n      dup5\n        /* \"@openzeppelin/contracts/token/ERC20/ERC20.sol\":10918:10927  allowance */\n      tag_94\n        /* \"@openzeppelin/contracts/token/ERC20/ERC20.sol\":10918:10943  allowance(owner, spender) */\n      jump\t// in\n    tag_184:\n        /* \"@openzeppelin/contracts/token/ERC20/ERC20.sol\":10891:10943  uint256 currentAllowance = allowance(owner, spender) */\n      swap1\n      pop\n        /* \"@openzeppelin/contracts/token/ERC20/ERC20.sol\":10977:10994  type(uint256).max */\n      0xffffffffffffffffffffffffffffffffffffffffffffffffffffffffffffffff\n        /* \"@openzeppelin/contracts/token/ERC20/ERC20.sol\":10957:10973  currentAllowance */\n      dup2\n        /* \"@openzeppelin/contracts/token/ERC20/ERC20.sol\":10957:10994  currentAllowance != type(uint256).max */\n      eq\n        /* \"@openzeppelin/contracts/token/ERC20/ERC20.sol\":10953:11196  if (currentAllowance != type(uint256).max) {... */\n      tag_185\n      jumpi\n        /* \"@openzeppelin/contracts/token/ERC20/ERC20.sol\":11038:11044  amount */\n      dup2\n        /* \"@openzeppelin/contracts/token/ERC20/ERC20.sol\":11018:11034  currentAllowance */\n      dup2\n        /* \"@openzeppelin/contracts/token/ERC20/ERC20.sol\":11018:11044  currentAllowance >= amount */\n      lt\n      iszero\n        /* \"@openzeppelin/contracts/token/ERC20/ERC20.sol\":11010:11078  require(currentAllowance >= amount, \"ERC20: insufficient allowance\") */\n      tag_186\n      jumpi\n      mload(0x40)\n      0x08c379a000000000000000000000000000000000000000000000000000000000\n      dup2\n      mstore\n      0x04\n      add\n      tag_187\n      swap1\n      tag_188\n      jump\t// in\n    tag_187:\n      mload(0x40)\n      dup1\n      swap2\n      sub\n      swap1\n      revert\n    tag_186:\n        /* \"@openzeppelin/contracts/token/ERC20/ERC20.sol\":11120:11171  _approve(owner, spender, currentAllowance - amount) */\n      tag_189\n        /* \"@openzeppelin/contracts/token/ERC20/ERC20.sol\":11129:11134  owner */\n      dup5\n        /* \"@openzeppelin/contracts/token/ERC20/ERC20.sol\":11136:11143  spender */\n      dup5\n        /* \"@openzeppelin/contracts/token/ERC20/ERC20.sol\":11164:11170  amount */\n      dup5\n        /* \"@openzeppelin/contracts/token/ERC20/ERC20.sol\":11145:11161  currentAllowance */\n      dup5\n        /* \"@openzeppelin/contracts/token/ERC20/ERC20.sol\":11145:11170  currentAllowance - amount */\n      sub\n        /* \"@openzeppelin/contracts/token/ERC20/ERC20.sol\":11120:11128  _approve */\n      tag_107\n        /* \"@openzeppelin/contracts/token/ERC20/ERC20.sol\":11120:11171  _approve(owner, spender, currentAllowance - amount) */\n      jump\t// in\n    tag_189:\n        /* \"@openzeppelin/contracts/token/ERC20/ERC20.sol\":10953:11196  if (currentAllowance != type(uint256).max) {... */\n    tag_185:\n        /* \"@openzeppelin/contracts/token/ERC20/ERC20.sol\":10881:11202  {... */\n      pop\n        /* \"@openzeppelin/contracts/token/ERC20/ERC20.sol\":10761:11202  function _spendAllowance(... */\n      pop\n      pop\n      pop\n      jump\t// out\n        /* \"contracts/VJMToken.sol\":1007:1154  function _transfer(address sender, address recipient, uint256 amount) internal override {... */\n    tag_114:\n        /* \"contracts/VJMToken.sol\":1105:1147  super._transfer(sender, recipient, amount) */\n      tag_191\n        /* \"contracts/VJMToken.sol\":1121:1127  sender */\n      dup4\n        /* \"contracts/VJMToken.sol\":1129:1138  recipient */\n      dup4\n        /* \"contracts/VJMToken.sol\":1140:1146  amount */\n      dup4\n        /* \"contracts/VJMToken.sol\":1105:1120  super._transfer */\n      tag_192\n        /* \"contracts/VJMToken.sol\":1105:1147  super._transfer(sender, recipient, amount) */\n      jump\t// in\n    tag_191:\n        /* \"contracts/VJMToken.sol\":1007:1154  function _transfer(address sender, address recipient, uint256 amount) internal override {... */\n      pop\n      pop\n      pop\n      jump\t// out\n        /* \"@openzeppelin/contracts/token/ERC20/ERC20.sol\":8402:8791  function _mint(address account, uint256 amount) internal virtual {... */\n    tag_141:\n        /* \"@openzeppelin/contracts/token/ERC20/ERC20.sol\":8504:8505  0 */\n      0x00\n        /* \"@openzeppelin/contracts/token/ERC20/ERC20.sol\":8485:8506  account != address(0) */\n      0xffffffffffffffffffffffffffffffffffffffff\n      and\n        /* \"@openzeppelin/contracts/token/ERC20/ERC20.sol\":8485:8492  account */\n      dup3\n        /* \"@openzeppelin/contracts/token/ERC20/ERC20.sol\":8485:8506  account != address(0) */\n      0xffffffffffffffffffffffffffffffffffffffff\n      and\n      eq\n      iszero\n        /* \"@openzeppelin/contracts/token/ERC20/ERC20.sol\":8477:8542  require(account != address(0), \"ERC20: mint to the zero address\") */\n      tag_194\n      jumpi\n      mload(0x40)\n      0x08c379a000000000000000000000000000000000000000000000000000000000\n      dup2\n      mstore\n      0x04\n      add\n      tag_195\n      swap1\n      tag_129\n      jump\t// in\n    tag_195:\n      mload(0x40)\n      dup1\n      swap2\n      sub\n      swap1\n      revert\n    tag_194:\n        /* \"@openzeppelin/contracts/token/ERC20/ERC20.sol\":8553:8602  _beforeTokenTransfer(address(0), account, amount) */\n      tag_196\n        /* \"@openzeppelin/contracts/token/ERC20/ERC20.sol\":8582:8583  0 */\n      0x00\n        /* \"@openzeppelin/contracts/token/ERC20/ERC20.sol\":8586:8593  account */\n      dup4\n        /* \"@openzeppelin/contracts/token/ERC20/ERC20.sol\":8595:8601  amount */\n      dup4\n        /* \"@openzeppelin/contracts/token/ERC20/ERC20.sol\":8553:8573  _beforeTokenTransfer */\n      tag_197\n        /* \"@openzeppelin/contracts/token/ERC20/ERC20.sol\":8553:8602  _beforeTokenTransfer(address(0), account, amount) */\n      jump\t// in\n    tag_196:\n        /* \"@openzeppelin/contracts/token/ERC20/ERC20.sol\":8629:8635  amount */\n      dup1\n        /* \"@openzeppelin/contracts/token/ERC20/ERC20.sol\":8613:8625  _totalSupply */\n      0x02\n      0x00\n        /* \"@openzeppelin/contracts/token/ERC20/ERC20.sol\":8613:8635  _totalSupply += amount */\n      dup3\n      dup3\n      sload\n      tag_198\n      swap2\n      swap1\n      tag_121\n      jump\t// in\n    tag_198:\n      swap3\n      pop\n      pop\n      dup2\n      swap1\n      sstore\n      pop\n        /* \"@openzeppelin/contracts/token/ERC20/ERC20.sol\":8667:8673  amount */\n      dup1\n        /* \"@openzeppelin/contracts/token/ERC20/ERC20.sol\":8645:8654  _balances */\n      0x00\n        /* \"@openzeppelin/contracts/token/ERC20/ERC20.sol\":8645:8663  _balances[account] */\n      dup1\n        /* \"@openzeppelin/contracts/token/ERC20/ERC20.sol\":8655:8662  account */\n      dup5\n        /* \"@openzeppelin/contracts/token/ERC20/ERC20.sol\":8645:8663  _balances[account] */\n      0xffffffffffffffffffffffffffffffffffffffff\n      and\n      0xffffffffffffffffffffffffffffffffffffffff\n      and\n      dup2\n      mstore\n      0x20\n      add\n      swap1\n      dup2\n      mstore\n      0x20\n      add\n      0x00\n      keccak256\n      0x00\n        /* \"@openzeppelin/contracts/token/ERC20/ERC20.sol\":8645:8673  _balances[account] += amount */\n      dup3\n      dup3\n      sload\n      tag_199\n      swap2\n      swap1\n      tag_121\n      jump\t// in\n    tag_199:\n      swap3\n      pop\n      pop\n      dup2\n      swap1\n      sstore\n      pop\n        /* \"@openzeppelin/contracts/token/ERC20/ERC20.sol\":8709:8716  account */\n      dup2\n        /* \"@openzeppelin/contracts/token/ERC20/ERC20.sol\":8688:8725  Transfer(address(0), account, amount) */\n      0xffffffffffffffffffffffffffffffffffffffff\n      and\n        /* \"@openzeppelin/contracts/token/ERC20/ERC20.sol\":8705:8706  0 */\n      0x00\n        /* \"@openzeppelin/contracts/token/ERC20/ERC20.sol\":8688:8725  Transfer(address(0), account, amount) */\n      0xffffffffffffffffffffffffffffffffffffffff\n      and\n      0xddf252ad1be2c89b69c2b068fc378daa952ba7f163c4a11628f55a4df523b3ef\n        /* \"@openzeppelin/contracts/token/ERC20/ERC20.sol\":8718:8724  amount */\n      dup4\n        /* \"@openzeppelin/contracts/token/ERC20/ERC20.sol\":8688:8725  Transfer(address(0), account, amount) */\n      mload(0x40)\n      tag_200\n      swap2\n      swap1\n      tag_37\n      jump\t// in\n    tag_200:\n      mload(0x40)\n      dup1\n      swap2\n      sub\n      swap1\n      log3\n        /* \"@openzeppelin/contracts/token/ERC20/ERC20.sol\":8736:8784  _afterTokenTransfer(address(0), account, amount) */\n      tag_201\n        /* \"@openzeppelin/contracts/token/ERC20/ERC20.sol\":8764:8765  0 */\n      0x00\n        /* \"@openzeppelin/contracts/token/ERC20/ERC20.sol\":8768:8775  account */\n      dup4\n        /* \"@openzeppelin/contracts/token/ERC20/ERC20.sol\":8777:8783  amount */\n      dup4\n        /* \"@openzeppelin/contracts/token/ERC20/ERC20.sol\":8736:8755  _afterTokenTransfer */\n      tag_202\n        /* \"@openzeppelin/contracts/token/ERC20/ERC20.sol\":8736:8784  _afterTokenTransfer(address(0), account, amount) */\n      jump\t// in\n    tag_201:\n        /* \"@openzeppelin/contracts/token/ERC20/ERC20.sol\":8402:8791  function _mint(address account, uint256 amount) internal virtual {... */\n      pop\n      pop\n      jump\t// out\n        /* \"@openzeppelin/contracts/token/ERC20/ERC20.sol\":9111:9687  function _burn(address account, uint256 amount) internal virtual {... */\n    tag_157:\n        /* \"@openzeppelin/contracts/token/ERC20/ERC20.sol\":9213:9214  0 */\n      0x00\n        /* \"@openzeppelin/contracts/token/ERC20/ERC20.sol\":9194:9215  account != address(0) */\n      0xffffffffffffffffffffffffffffffffffffffff\n      and\n        /* \"@openzeppelin/contracts/token/ERC20/ERC20.sol\":9194:9201  account */\n      dup3\n        /* \"@openzeppelin/contracts/token/ERC20/ERC20.sol\":9194:9215  account != address(0) */\n      0xffffffffffffffffffffffffffffffffffffffff\n      and\n      eq\n      iszero\n        /* \"@openzeppelin/contracts/token/ERC20/ERC20.sol\":9186:9253  require(account != address(0), \"ERC20: burn from the zero address\") */\n      tag_204\n      jumpi\n      mload(0x40)\n      0x08c379a000000000000000000000000000000000000000000000000000000000\n      dup2\n      mstore\n      0x04\n      add\n      tag_205\n      swap1\n      tag_206\n      jump\t// in\n    tag_205:\n      mload(0x40)\n      dup1\n      swap2\n      sub\n      swap1\n      revert\n    tag_204:\n        /* \"@openzeppelin/contracts/token/ERC20/ERC20.sol\":9264:9313  _beforeTokenTransfer(account, address(0), amount) */\n      tag_207\n        /* \"@openzeppelin/contracts/token/ERC20/ERC20.sol\":9285:9292  account */\n      dup3\n        /* \"@openzeppelin/contracts/token/ERC20/ERC20.sol\":9302:9303  0 */\n      0x00\n        /* \"@openzeppelin/contracts/token/ERC20/ERC20.sol\":9306:9312  amount */\n      dup4\n        /* \"@openzeppelin/contracts/token/ERC20/ERC20.sol\":9264:9284  _beforeTokenTransfer */\n      tag_197\n        /* \"@openzeppelin/contracts/token/ERC20/ERC20.sol\":9264:9313  _beforeTokenTransfer(account, address(0), amount) */\n      jump\t// in\n    tag_207:\n        /* \"@openzeppelin/contracts/token/ERC20/ERC20.sol\":9324:9346  uint256 accountBalance */\n      0x00\n        /* \"@openzeppelin/contracts/token/ERC20/ERC20.sol\":9349:9358  _balances */\n      dup1\n        /* \"@openzeppelin/contracts/token/ERC20/ERC20.sol\":9349:9367  _balances[account] */\n      0x00\n        /* \"@openzeppelin/contracts/token/ERC20/ERC20.sol\":9359:9366  account */\n      dup5\n        /* \"@openzeppelin/contracts/token/ERC20/ERC20.sol\":9349:9367  _balances[account] */\n      0xffffffffffffffffffffffffffffffffffffffff\n      and\n      0xffffffffffffffffffffffffffffffffffffffff\n      and\n      dup2\n      mstore\n      0x20\n      add\n      swap1\n      dup2\n      mstore\n      0x20\n      add\n      0x00\n      keccak256\n      sload\n        /* \"@openzeppelin/contracts/token/ERC20/ERC20.sol\":9324:9367  uint256 accountBalance = _balances[account] */\n      swap1\n      pop\n        /* \"@openzeppelin/contracts/token/ERC20/ERC20.sol\":9403:9409  amount */\n      dup2\n        /* \"@openzeppelin/contracts/token/ERC20/ERC20.sol\":9385:9399  accountBalance */\n      dup2\n        /* \"@openzeppelin/contracts/token/ERC20/ERC20.sol\":9385:9409  accountBalance >= amount */\n      lt\n      iszero\n        /* \"@openzeppelin/contracts/token/ERC20/ERC20.sol\":9377:9448  require(accountBalance >= amount, \"ERC20: burn amount exceeds balance\") */\n      tag_208\n      jumpi\n      mload(0x40)\n      0x08c379a000000000000000000000000000000000000000000000000000000000\n      dup2\n      mstore\n      0x04\n      add\n      tag_209\n      swap1\n      tag_210\n      jump\t// in\n    tag_209:\n      mload(0x40)\n      dup1\n      swap2\n      sub\n      swap1\n      revert\n    tag_208:\n        /* \"@openzeppelin/contracts/token/ERC20/ERC20.sol\":9520:9526  amount */\n      dup2\n        /* \"@openzeppelin/contracts/token/ERC20/ERC20.sol\":9503:9517  accountBalance */\n      dup2\n        /* \"@openzeppelin/contracts/token/ERC20/ERC20.sol\":9503:9526  accountBalance - amount */\n      sub\n        /* \"@openzeppelin/contracts/token/ERC20/ERC20.sol\":9482:9491  _balances */\n      0x00\n        /* \"@openzeppelin/contracts/token/ERC20/ERC20.sol\":9482:9500  _balances[account] */\n      dup1\n        /* \"@openzeppelin/contracts/token/ERC20/ERC20.sol\":9492:9499  account */\n      dup6\n        /* \"@openzeppelin/contracts/token/ERC20/ERC20.sol\":9482:9500  _balances[account] */\n      0xffffffffffffffffffffffffffffffffffffffff\n      and\n      0xffffffffffffffffffffffffffffffffffffffff\n      and\n      dup2\n      mstore\n      0x20\n      add\n      swap1\n      dup2\n      mstore\n      0x20\n      add\n      0x00\n      keccak256\n        /* \"@openzeppelin/contracts/token/ERC20/ERC20.sol\":9482:9526  _balances[account] = accountBalance - amount */\n      dup2\n      swap1\n      sstore\n      pop\n        /* \"@openzeppelin/contracts/token/ERC20/ERC20.sol\":9562:9568  amount */\n      dup2\n        /* \"@openzeppelin/contracts/token/ERC20/ERC20.sol\":9546:9558  _totalSupply */\n      0x02\n      0x00\n        /* \"@openzeppelin/contracts/token/ERC20/ERC20.sol\":9546:9568  _totalSupply -= amount */\n      dup3\n      dup3\n      sload\n      tag_211\n      swap2\n      swap1\n      tag_212\n      jump\t// in\n    tag_211:\n      swap3\n      pop\n      pop\n      dup2\n      swap1\n      sstore\n      pop\n        /* \"@openzeppelin/contracts/token/ERC20/ERC20.sol\":9610:9611  0 */\n      0x00\n        /* \"@openzeppelin/contracts/token/ERC20/ERC20.sol\":9584:9621  Transfer(account, address(0), amount) */\n      0xffffffffffffffffffffffffffffffffffffffff\n      and\n        /* \"@openzeppelin/contracts/token/ERC20/ERC20.sol\":9593:9600  account */\n      dup4\n        /* \"@openzeppelin/contracts/token/ERC20/ERC20.sol\":9584:9621  Transfer(account, address(0), amount) */\n      0xffffffffffffffffffffffffffffffffffffffff\n      and\n      0xddf252ad1be2c89b69c2b068fc378daa952ba7f163c4a11628f55a4df523b3ef\n        /* \"@openzeppelin/contracts/token/ERC20/ERC20.sol\":9614:9620  amount */\n      dup5\n        /* \"@openzeppelin/contracts/token/ERC20/ERC20.sol\":9584:9621  Transfer(account, address(0), amount) */\n      mload(0x40)\n      tag_213\n      swap2\n      swap1\n      tag_37\n      jump\t// in\n    tag_213:\n      mload(0x40)\n      dup1\n      swap2\n      sub\n      swap1\n      log3\n        /* \"@openzeppelin/contracts/token/ERC20/ERC20.sol\":9632:9680  _afterTokenTransfer(account, address(0), amount) */\n      tag_214\n        /* \"@openzeppelin/contracts/token/ERC20/ERC20.sol\":9652:9659  account */\n      dup4\n        /* \"@openzeppelin/contracts/token/ERC20/ERC20.sol\":9669:9670  0 */\n      0x00\n        /* \"@openzeppelin/contracts/token/ERC20/ERC20.sol\":9673:9679  amount */\n      dup5\n        /* \"@openzeppelin/contracts/token/ERC20/ERC20.sol\":9632:9651  _afterTokenTransfer */\n      tag_202\n        /* \"@openzeppelin/contracts/token/ERC20/ERC20.sol\":9632:9680  _afterTokenTransfer(account, address(0), amount) */\n      jump\t// in\n    tag_214:\n        /* \"@openzeppelin/contracts/token/ERC20/ERC20.sol\":9176:9687  {... */\n      pop\n        /* \"@openzeppelin/contracts/token/ERC20/ERC20.sol\":9111:9687  function _burn(address account, uint256 amount) internal virtual {... */\n      pop\n      pop\n      jump\t// out\n        /* \"@openzeppelin/contracts/token/ERC20/ERC20.sol\":7475:8126  function _transfer(... */\n    tag_192:\n        /* \"@openzeppelin/contracts/token/ERC20/ERC20.sol\":7617:7618  0 */\n      0x00\n        /* \"@openzeppelin/contracts/token/ERC20/ERC20.sol\":7601:7619  from != address(0) */\n      0xffffffffffffffffffffffffffffffffffffffff\n      and\n        /* \"@openzeppelin/contracts/token/ERC20/ERC20.sol\":7601:7605  from */\n      dup4\n        /* \"@openzeppelin/contracts/token/ERC20/ERC20.sol\":7601:7619  from != address(0) */\n      0xffffffffffffffffffffffffffffffffffffffff\n      and\n      eq\n      iszero\n        /* \"@openzeppelin/contracts/token/ERC20/ERC20.sol\":7593:7661  require(from != address(0), \"ERC20: transfer from the zero address\") */\n      tag_216\n      jumpi\n      mload(0x40)\n      0x08c379a000000000000000000000000000000000000000000000000000000000\n      dup2\n      mstore\n      0x04\n      add\n      tag_217\n      swap1\n      tag_218\n      jump\t// in\n    tag_217:\n      mload(0x40)\n      dup1\n      swap2\n      sub\n      swap1\n      revert\n    tag_216:\n        /* \"@openzeppelin/contracts/token/ERC20/ERC20.sol\":7693:7694  0 */\n      0x00\n        /* \"@openzeppelin/contracts/token/ERC20/ERC20.sol\":7679:7695  to != address(0) */\n      0xffffffffffffffffffffffffffffffffffffffff\n      and\n        /* \"@openzeppelin/contracts/token/ERC20/ERC20.sol\":7679:7681  to */\n      dup3\n        /* \"@openzeppelin/contracts/token/ERC20/ERC20.sol\":7679:7695  to != address(0) */\n      0xffffffffffffffffffffffffffffffffffffffff\n      and\n      eq\n      iszero\n        /* \"@openzeppelin/contracts/token/ERC20/ERC20.sol\":7671:7735  require(to != address(0), \"ERC20: transfer to the zero address\") */\n      tag_219\n      jumpi\n      mload(0x40)\n      0x08c379a000000000000000000000000000000000000000000000000000000000\n      dup2\n      mstore\n      0x04\n      add\n      tag_220\n      swap1\n      tag_221\n      jump\t// in\n    tag_220:\n      mload(0x40)\n      dup1\n      swap2\n      sub\n      swap1\n      revert\n    tag_219:\n        /* \"@openzeppelin/contracts/token/ERC20/ERC20.sol\":7746:7784  _beforeTokenTransfer(from, to, amount) */\n      tag_222\n        /* \"@openzeppelin/contracts/token/ERC20/ERC20.sol\":7767:7771  from */\n      dup4\n        /* \"@openzeppelin/contracts/token/ERC20/ERC20.sol\":7773:7775  to */\n      dup4\n        /* \"@openzeppelin/contracts/token/ERC20/ERC20.sol\":7777:7783  amount */\n      dup4\n        /* \"@openzeppelin/contracts/token/ERC20/ERC20.sol\":7746:7766  _beforeTokenTransfer */\n      tag_197\n        /* \"@openzeppelin/contracts/token/ERC20/ERC20.sol\":7746:7784  _beforeTokenTransfer(from, to, amount) */\n      jump\t// in\n    tag_222:\n        /* \"@openzeppelin/contracts/token/ERC20/ERC20.sol\":7795:7814  uint256 fromBalance */\n      0x00\n        /* \"@openzeppelin/contracts/token/ERC20/ERC20.sol\":7817:7826  _balances */\n      dup1\n        /* \"@openzeppelin/contracts/token/ERC20/ERC20.sol\":7817:7832  _balances[from] */\n      0x00\n        /* \"@openzeppelin/contracts/token/ERC20/ERC20.sol\":7827:7831  from */\n      dup6\n        /* \"@openzeppelin/contracts/token/ERC20/ERC20.sol\":7817:7832  _balances[from] */\n      0xffffffffffffffffffffffffffffffffffffffff\n      and\n      0xffffffffffffffffffffffffffffffffffffffff\n      and\n      dup2\n      mstore\n      0x20\n      add\n      swap1\n      dup2\n      mstore\n      0x20\n      add\n      0x00\n      keccak256\n      sload\n        /* \"@openzeppelin/contracts/token/ERC20/ERC20.sol\":7795:7832  uint256 fromBalance = _balances[from] */\n      swap1\n      pop\n        /* \"@openzeppelin/contracts/token/ERC20/ERC20.sol\":7865:7871  amount */\n      dup2\n        /* \"@openzeppelin/contracts/token/ERC20/ERC20.sol\":7850:7861  fromBalance */\n      dup2\n        /* \"@openzeppelin/contracts/token/ERC20/ERC20.sol\":7850:7871  fromBalance >= amount */\n      lt\n      iszero\n        /* \"@openzeppelin/contracts/token/ERC20/ERC20.sol\":7842:7914  require(fromBalance >= amount, \"ERC20: transfer amount exceeds balance\") */\n      tag_223\n      jumpi\n      mload(0x40)\n      0x08c379a000000000000000000000000000000000000000000000000000000000\n      dup2\n      mstore\n      0x04\n      add\n      tag_224\n      swap1\n      tag_225\n      jump\t// in\n    tag_224:\n      mload(0x40)\n      dup1\n      swap2\n      sub\n      swap1\n      revert\n    tag_223:\n        /* \"@openzeppelin/contracts/token/ERC20/ERC20.sol\":7980:7986  amount */\n      dup2\n        /* \"@openzeppelin/contracts/token/ERC20/ERC20.sol\":7966:7977  fromBalance */\n      dup2\n        /* \"@openzeppelin/contracts/token/ERC20/ERC20.sol\":7966:7986  fromBalance - amount */\n      sub\n        /* \"@openzeppelin/contracts/token/ERC20/ERC20.sol\":7948:7957  _balances */\n      0x00\n        /* \"@openzeppelin/contracts/token/ERC20/ERC20.sol\":7948:7963  _balances[from] */\n      dup1\n        /* \"@openzeppelin/contracts/token/ERC20/ERC20.sol\":7958:7962  from */\n      dup7\n        /* \"@openzeppelin/contracts/token/ERC20/ERC20.sol\":7948:7963  _balances[from] */\n      0xffffffffffffffffffffffffffffffffffffffff\n      and\n      0xffffffffffffffffffffffffffffffffffffffff\n      and\n      dup2\n      mstore\n      0x20\n      add\n      swap1\n      dup2\n      mstore\n      0x20\n      add\n      0x00\n      keccak256\n        /* \"@openzeppelin/contracts/token/ERC20/ERC20.sol\":7948:7986  _balances[from] = fromBalance - amount */\n      dup2\n      swap1\n      sstore\n      pop\n        /* \"@openzeppelin/contracts/token/ERC20/ERC20.sol\":8023:8029  amount */\n      dup2\n        /* \"@openzeppelin/contracts/token/ERC20/ERC20.sol\":8006:8015  _balances */\n      0x00\n        /* \"@openzeppelin/contracts/token/ERC20/ERC20.sol\":8006:8019  _balances[to] */\n      dup1\n        /* \"@openzeppelin/contracts/token/ERC20/ERC20.sol\":8016:8018  to */\n      dup6\n        /* \"@openzeppelin/contracts/token/ERC20/ERC20.sol\":8006:8019  _balances[to] */\n      0xffffffffffffffffffffffffffffffffffffffff\n      and\n      0xffffffffffffffffffffffffffffffffffffffff\n      and\n      dup2\n      mstore\n      0x20\n      add\n      swap1\n      dup2\n      mstore\n      0x20\n      add\n      0x00\n      keccak256\n      0x00\n        /* \"@openzeppelin/contracts/token/ERC20/ERC20.sol\":8006:8029  _balances[to] += amount */\n      dup3\n      dup3\n      sload\n      tag_226\n      swap2\n      swap1\n      tag_121\n      jump\t// in\n    tag_226:\n      swap3\n      pop\n      pop\n      dup2\n      swap1\n      sstore\n      pop\n        /* \"@openzeppelin/contracts/token/ERC20/ERC20.sol\":8060:8062  to */\n      dup3\n        /* \"@openzeppelin/contracts/token/ERC20/ERC20.sol\":8045:8071  Transfer(from, to, amount) */\n      0xffffffffffffffffffffffffffffffffffffffff\n      and\n        /* \"@openzeppelin/contracts/token/ERC20/ERC20.sol\":8054:8058  from */\n      dup5\n        /* \"@openzeppelin/contracts/token/ERC20/ERC20.sol\":8045:8071  Transfer(from, to, amount) */\n      0xffffffffffffffffffffffffffffffffffffffff\n      and\n      0xddf252ad1be2c89b69c2b068fc378daa952ba7f163c4a11628f55a4df523b3ef\n        /* \"@openzeppelin/contracts/token/ERC20/ERC20.sol\":8064:8070  amount */\n      dup5\n        /* \"@openzeppelin/contracts/token/ERC20/ERC20.sol\":8045:8071  Transfer(from, to, amount) */\n      mload(0x40)\n      tag_227\n      swap2\n      swap1\n      tag_37\n      jump\t// in\n    tag_227:\n      mload(0x40)\n      dup1\n      swap2\n      sub\n      swap1\n      log3\n        /* \"@openzeppelin/contracts/token/ERC20/ERC20.sol\":8082:8119  _afterTokenTransfer(from, to, amount) */\n      tag_228\n        /* \"@openzeppelin/contracts/token/ERC20/ERC20.sol\":8102:8106  from */\n      dup5\n        /* \"@openzeppelin/contracts/token/ERC20/ERC20.sol\":8108:8110  to */\n      dup5\n        /* \"@openzeppelin/contracts/token/ERC20/ERC20.sol\":8112:8118  amount */\n      dup5\n        /* \"@openzeppelin/contracts/token/ERC20/ERC20.sol\":8082:8101  _afterTokenTransfer */\n      tag_202\n        /* \"@openzeppelin/contracts/token/ERC20/ERC20.sol\":8082:8119  _afterTokenTransfer(from, to, amount) */\n      jump\t// in\n    tag_228:\n        /* \"@openzeppelin/contracts/token/ERC20/ERC20.sol\":7583:8126  {... */\n      pop\n        /* \"@openzeppelin/contracts/token/ERC20/ERC20.sol\":7475:8126  function _transfer(... */\n      pop\n      pop\n      pop\n      jump\t// out\n        /* \"@openzeppelin/contracts/token/ERC20/ERC20.sol\":11786:11907  function _beforeTokenTransfer(... */\n    tag_197:\n      pop\n      pop\n      pop\n      jump\t// out\n        /* \"@openzeppelin/contracts/token/ERC20/ERC20.sol\":12495:12615  function _afterTokenTransfer(... */\n    tag_202:\n      pop\n      pop\n      pop\n      jump\t// out\n        /* \"#utility.yul\":7:146   */\n    tag_232:\n        /* \"#utility.yul\":53:58   */\n      0x00\n        /* \"#utility.yul\":91:97   */\n      dup2\n        /* \"#utility.yul\":78:98   */\n      calldataload\n        /* \"#utility.yul\":69:98   */\n      swap1\n      pop\n        /* \"#utility.yul\":107:140   */\n      tag_234\n        /* \"#utility.yul\":134:139   */\n      dup2\n        /* \"#utility.yul\":107:140   */\n      tag_235\n      jump\t// in\n    tag_234:\n        /* \"#utility.yul\":7:146   */\n      swap3\n      swap2\n      pop\n      pop\n      jump\t// out\n        /* \"#utility.yul\":152:291   */\n    tag_236:\n        /* \"#utility.yul\":198:203   */\n      0x00\n        /* \"#utility.yul\":236:242   */\n      dup2\n        /* \"#utility.yul\":223:243   */\n      calldataload\n        /* \"#utility.yul\":214:243   */\n      swap1\n      pop\n        /* \"#utility.yul\":252:285   */\n      tag_238\n        /* \"#utility.yul\":279:284   */\n      dup2\n        /* \"#utility.yul\":252:285   */\n      tag_239\n      jump\t// in\n    tag_238:\n        /* \"#utility.yul\":152:291   */\n      swap3\n      swap2\n      pop\n      pop\n      jump\t// out\n        /* \"#utility.yul\":297:626   */\n    tag_63:\n        /* \"#utility.yul\":356:362   */\n      0x00\n        /* \"#utility.yul\":405:407   */\n      0x20\n        /* \"#utility.yul\":393:402   */\n      dup3\n        /* \"#utility.yul\":384:391   */\n      dup5\n        /* \"#utility.yul\":380:403   */\n      sub\n        /* \"#utility.yul\":376:408   */\n      slt\n        /* \"#utility.yul\":373:492   */\n      iszero\n      tag_241\n      jumpi\n        /* \"#utility.yul\":411:490   */\n      tag_242\n      tag_243\n      jump\t// in\n    tag_242:\n        /* \"#utility.yul\":373:492   */\n    tag_241:\n        /* \"#utility.yul\":531:532   */\n      0x00\n        /* \"#utility.yul\":556:609   */\n      tag_244\n        /* \"#utility.yul\":601:608   */\n      dup5\n        /* \"#utility.yul\":592:598   */\n      dup3\n        /* \"#utility.yul\":581:590   */\n      dup6\n        /* \"#utility.yul\":577:599   */\n      add\n        /* \"#utility.yul\":556:609   */\n      tag_232\n      jump\t// in\n    tag_244:\n        /* \"#utility.yul\":546:609   */\n      swap2\n      pop\n        /* \"#utility.yul\":502:619   */\n      pop\n        /* \"#utility.yul\":297:626   */\n      swap3\n      swap2\n      pop\n      pop\n      jump\t// out\n        /* \"#utility.yul\":632:1106   */\n    tag_93:\n        /* \"#utility.yul\":700:706   */\n      0x00\n        /* \"#utility.yul\":708:714   */\n      dup1\n        /* \"#utility.yul\":757:759   */\n      0x40\n        /* \"#utility.yul\":745:754   */\n      dup4\n        /* \"#utility.yul\":736:743   */\n      dup6\n        /* \"#utility.yul\":732:755   */\n      sub\n        /* \"#utility.yul\":728:760   */\n      slt\n        /* \"#utility.yul\":725:844   */\n      iszero\n      tag_246\n      jumpi\n        /* \"#utility.yul\":763:842   */\n      tag_247\n      tag_243\n      jump\t// in\n    tag_247:\n        /* \"#utility.yul\":725:844   */\n    tag_246:\n        /* \"#utility.yul\":883:884   */\n      0x00\n        /* \"#utility.yul\":908:961   */\n      tag_248\n        /* \"#utility.yul\":953:960   */\n      dup6\n        /* \"#utility.yul\":944:950   */\n      dup3\n        /* \"#utility.yul\":933:942   */\n      dup7\n        /* \"#utility.yul\":929:951   */\n      add\n        /* \"#utility.yul\":908:961   */\n      tag_232\n      jump\t// in\n    tag_248:\n        /* \"#utility.yul\":898:961   */\n      swap3\n      pop\n        /* \"#utility.yul\":854:971   */\n      pop\n        /* \"#utility.yul\":1010:1012   */\n      0x20\n        /* \"#utility.yul\":1036:1089   */\n      tag_249\n        /* \"#utility.yul\":1081:1088   */\n      dup6\n        /* \"#utility.yul\":1072:1078   */\n      dup3\n        /* \"#utility.yul\":1061:1070   */\n      dup7\n        /* \"#utility.yul\":1057:1079   */\n      add\n        /* \"#utility.yul\":1036:1089   */\n      tag_232\n      jump\t// in\n    tag_249:\n        /* \"#utility.yul\":1026:1089   */\n      swap2\n      pop\n        /* \"#utility.yul\":981:1099   */\n      pop\n        /* \"#utility.yul\":632:1106   */\n      swap3\n      pop\n      swap3\n      swap1\n      pop\n      jump\t// out\n        /* \"#utility.yul\":1112:1731   */\n    tag_40:\n        /* \"#utility.yul\":1189:1195   */\n      0x00\n        /* \"#utility.yul\":1197:1203   */\n      dup1\n        /* \"#utility.yul\":1205:1211   */\n      0x00\n        /* \"#utility.yul\":1254:1256   */\n      0x60\n        /* \"#utility.yul\":1242:1251   */\n      dup5\n        /* \"#utility.yul\":1233:1240   */\n      dup7\n        /* \"#utility.yul\":1229:1252   */\n      sub\n        /* \"#utility.yul\":1225:1257   */\n      slt\n        /* \"#utility.yul\":1222:1341   */\n      iszero\n      tag_251\n      jumpi\n        /* \"#utility.yul\":1260:1339   */\n      tag_252\n      tag_243\n      jump\t// in\n    tag_252:\n        /* \"#utility.yul\":1222:1341   */\n    tag_251:\n        /* \"#utility.yul\":1380:1381   */\n      0x00\n        /* \"#utility.yul\":1405:1458   */\n      tag_253\n        /* \"#utility.yul\":1450:1457   */\n      dup7\n        /* \"#utility.yul\":1441:1447   */\n      dup3\n        /* \"#utility.yul\":1430:1439   */\n      dup8\n        /* \"#utility.yul\":1426:1448   */\n      add\n        /* \"#utility.yul\":1405:1458   */\n      tag_232\n      jump\t// in\n    tag_253:\n        /* \"#utility.yul\":1395:1458   */\n      swap4\n      pop\n        /* \"#utility.yul\":1351:1468   */\n      pop\n        /* \"#utility.yul\":1507:1509   */\n      0x20\n        /* \"#utility.yul\":1533:1586   */\n      tag_254\n        /* \"#utility.yul\":1578:1585   */\n      dup7\n        /* \"#utility.yul\":1569:1575   */\n      dup3\n        /* \"#utility.yul\":1558:1567   */\n      dup8\n        /* \"#utility.yul\":1554:1576   */\n      add\n        /* \"#utility.yul\":1533:1586   */\n      tag_232\n      jump\t// in\n    tag_254:\n        /* \"#utility.yul\":1523:1586   */\n      swap3\n      pop\n        /* \"#utility.yul\":1478:1596   */\n      pop\n        /* \"#utility.yul\":1635:1637   */\n      0x40\n        /* \"#utility.yul\":1661:1714   */\n      tag_255\n        /* \"#utility.yul\":1706:1713   */\n      dup7\n        /* \"#utility.yul\":1697:1703   */\n      dup3\n        /* \"#utility.yul\":1686:1695   */\n      dup8\n        /* \"#utility.yul\":1682:1704   */\n      add\n        /* \"#utility.yul\":1661:1714   */\n      tag_236\n      jump\t// in\n    tag_255:\n        /* \"#utility.yul\":1651:1714   */\n      swap2\n      pop\n        /* \"#utility.yul\":1606:1724   */\n      pop\n        /* \"#utility.yul\":1112:1731   */\n      swap3\n      pop\n      swap3\n      pop\n      swap3\n      jump\t// out\n        /* \"#utility.yul\":1737:2211   */\n    tag_30:\n        /* \"#utility.yul\":1805:1811   */\n      0x00\n        /* \"#utility.yul\":1813:1819   */\n      dup1\n        /* \"#utility.yul\":1862:1864   */\n      0x40\n        /* \"#utility.yul\":1850:1859   */\n      dup4\n        /* \"#utility.yul\":1841:1848   */\n      dup6\n        /* \"#utility.yul\":1837:1860   */\n      sub\n        /* \"#utility.yul\":1833:1865   */\n      slt\n        /* \"#utility.yul\":1830:1949   */\n      iszero\n      tag_257\n      jumpi\n        /* \"#utility.yul\":1868:1947   */\n      tag_258\n      tag_243\n      jump\t// in\n    tag_258:\n        /* \"#utility.yul\":1830:1949   */\n    tag_257:\n        /* \"#utility.yul\":1988:1989   */\n      0x00\n        /* \"#utility.yul\":2013:2066   */\n      tag_259\n        /* \"#utility.yul\":2058:2065   */\n      dup6\n        /* \"#utility.yul\":2049:2055   */\n      dup3\n        /* \"#utility.yul\":2038:2047   */\n      dup7\n        /* \"#utility.yul\":2034:2056   */\n      add\n        /* \"#utility.yul\":2013:2066   */\n      tag_232\n      jump\t// in\n    tag_259:\n        /* \"#utility.yul\":2003:2066   */\n      swap3\n      pop\n        /* \"#utility.yul\":1959:2076   */\n      pop\n        /* \"#utility.yul\":2115:2117   */\n      0x20\n        /* \"#utility.yul\":2141:2194   */\n      tag_260\n        /* \"#utility.yul\":2186:2193   */\n      dup6\n        /* \"#utility.yul\":2177:2183   */\n      dup3\n        /* \"#utility.yul\":2166:2175   */\n      dup7\n        /* \"#utility.yul\":2162:2184   */\n      add\n        /* \"#utility.yul\":2141:2194   */\n      tag_236\n      jump\t// in\n    tag_260:\n        /* \"#utility.yul\":2131:2194   */\n      swap2\n      pop\n        /* \"#utility.yul\":2086:2204   */\n      pop\n        /* \"#utility.yul\":1737:2211   */\n      swap3\n      pop\n      swap3\n      swap1\n      pop\n      jump\t// out\n        /* \"#utility.yul\":2217:2359   */\n    tag_261:\n        /* \"#utility.yul\":2320:2352   */\n      tag_263\n        /* \"#utility.yul\":2346:2351   */\n      dup2\n        /* \"#utility.yul\":2320:2352   */\n      tag_264\n      jump\t// in\n    tag_263:\n        /* \"#utility.yul\":2315:2318   */\n      dup3\n        /* \"#utility.yul\":2308:2353   */\n      mstore\n        /* \"#utility.yul\":2217:2359   */\n      pop\n      pop\n      jump\t// out\n        /* \"#utility.yul\":2365:2483   */\n    tag_265:\n        /* \"#utility.yul\":2452:2476   */\n      tag_267\n        /* \"#utility.yul\":2470:2475   */\n      dup2\n        /* \"#utility.yul\":2452:2476   */\n      tag_268\n      jump\t// in\n    tag_267:\n        /* \"#utility.yul\":2447:2450   */\n      dup3\n        /* \"#utility.yul\":2440:2477   */\n      mstore\n        /* \"#utility.yul\":2365:2483   */\n      pop\n      pop\n      jump\t// out\n        /* \"#utility.yul\":2489:2598   */\n    tag_269:\n        /* \"#utility.yul\":2570:2591   */\n      tag_271\n        /* \"#utility.yul\":2585:2590   */\n      dup2\n        /* \"#utility.yul\":2570:2591   */\n      tag_272\n      jump\t// in\n    tag_271:\n        /* \"#utility.yul\":2565:2568   */\n      dup3\n        /* \"#utility.yul\":2558:2592   */\n      mstore\n        /* \"#utility.yul\":2489:2598   */\n      pop\n      pop\n      jump\t// out\n        /* \"#utility.yul\":2604:2968   */\n    tag_273:\n        /* \"#utility.yul\":2692:2695   */\n      0x00\n        /* \"#utility.yul\":2720:2759   */\n      tag_275\n        /* \"#utility.yul\":2753:2758   */\n      dup3\n        /* \"#utility.yul\":2720:2759   */\n      tag_276\n      jump\t// in\n    tag_275:\n        /* \"#utility.yul\":2775:2846   */\n      tag_277\n        /* \"#utility.yul\":2839:2845   */\n      dup2\n        /* \"#utility.yul\":2834:2837   */\n      dup6\n        /* \"#utility.yul\":2775:2846   */\n      tag_278\n      jump\t// in\n    tag_277:\n        /* \"#utility.yul\":2768:2846   */\n      swap4\n      pop\n        /* \"#utility.yul\":2855:2907   */\n      tag_279\n        /* \"#utility.yul\":2900:2906   */\n      dup2\n        /* \"#utility.yul\":2895:2898   */\n      dup6\n        /* \"#utility.yul\":2888:2892   */\n      0x20\n        /* \"#utility.yul\":2881:2886   */\n      dup7\n        /* \"#utility.yul\":2877:2893   */\n      add\n        /* \"#utility.yul\":2855:2907   */\n      tag_280\n      jump\t// in\n    tag_279:\n        /* \"#utility.yul\":2932:2961   */\n      tag_281\n        /* \"#utility.yul\":2954:2960   */\n      dup2\n        /* \"#utility.yul\":2932:2961   */\n      tag_282\n      jump\t// in\n    tag_281:\n        /* \"#utility.yul\":2927:2930   */\n      dup5\n        /* \"#utility.yul\":2923:2962   */\n      add\n        /* \"#utility.yul\":2916:2962   */\n      swap2\n      pop\n        /* \"#utility.yul\":2696:2968   */\n      pop\n        /* \"#utility.yul\":2604:2968   */\n      swap3\n      swap2\n      pop\n      pop\n      jump\t// out\n        /* \"#utility.yul\":2974:3340   */\n    tag_283:\n        /* \"#utility.yul\":3116:3119   */\n      0x00\n        /* \"#utility.yul\":3137:3204   */\n      tag_285\n        /* \"#utility.yul\":3201:3203   */\n      0x23\n        /* \"#utility.yul\":3196:3199   */\n      dup4\n        /* \"#utility.yul\":3137:3204   */\n      tag_278\n      jump\t// in\n    tag_285:\n        /* \"#utility.yul\":3130:3204   */\n      swap2\n      pop\n        /* \"#utility.yul\":3213:3306   */\n      tag_286\n        /* \"#utility.yul\":3302:3305   */\n      dup3\n        /* \"#utility.yul\":3213:3306   */\n      tag_287\n      jump\t// in\n    tag_286:\n        /* \"#utility.yul\":3331:3333   */\n      0x40\n        /* \"#utility.yul\":3326:3329   */\n      dup3\n        /* \"#utility.yul\":3322:3334   */\n      add\n        /* \"#utility.yul\":3315:3334   */\n      swap1\n      pop\n        /* \"#utility.yul\":2974:3340   */\n      swap2\n      swap1\n      pop\n      jump\t// out\n        /* \"#utility.yul\":3346:3712   */\n    tag_288:\n        /* \"#utility.yul\":3488:3491   */\n      0x00\n        /* \"#utility.yul\":3509:3576   */\n      tag_290\n        /* \"#utility.yul\":3573:3575   */\n      0x22\n        /* \"#utility.yul\":3568:3571   */\n      dup4\n        /* \"#utility.yul\":3509:3576   */\n      tag_278\n      jump\t// in\n    tag_290:\n        /* \"#utility.yul\":3502:3576   */\n      swap2\n      pop\n        /* \"#utility.yul\":3585:3678   */\n      tag_291\n        /* \"#utility.yul\":3674:3677   */\n      dup3\n        /* \"#utility.yul\":3585:3678   */\n      tag_292\n      jump\t// in\n    tag_291:\n        /* \"#utility.yul\":3703:3705   */\n      0x40\n        /* \"#utility.yul\":3698:3701   */\n      dup3\n        /* \"#utility.yul\":3694:3706   */\n      add\n        /* \"#utility.yul\":3687:3706   */\n      swap1\n      pop\n        /* \"#utility.yul\":3346:3712   */\n      swap2\n      swap1\n      pop\n      jump\t// out\n        /* \"#utility.yul\":3718:4084   */\n    tag_293:\n        /* \"#utility.yul\":3860:3863   */\n      0x00\n        /* \"#utility.yul\":3881:3948   */\n      tag_295\n        /* \"#utility.yul\":3945:3947   */\n      0x22\n        /* \"#utility.yul\":3940:3943   */\n      dup4\n        /* \"#utility.yul\":3881:3948   */\n      tag_278\n      jump\t// in\n    tag_295:\n        /* \"#utility.yul\":3874:3948   */\n      swap2\n      pop\n        /* \"#utility.yul\":3957:4050   */\n      tag_296\n        /* \"#utility.yul\":4046:4049   */\n      dup3\n        /* \"#utility.yul\":3957:4050   */\n      tag_297\n      jump\t// in\n    tag_296:\n        /* \"#utility.yul\":4075:4077   */\n      0x40\n        /* \"#utility.yul\":4070:4073   */\n      dup3\n        /* \"#utility.yul\":4066:4078   */\n      add\n        /* \"#utility.yul\":4059:4078   */\n      swap1\n      pop\n        /* \"#utility.yul\":3718:4084   */\n      swap2\n      swap1\n      pop\n      jump\t// out\n        /* \"#utility.yul\":4090:4456   */\n    tag_298:\n        /* \"#utility.yul\":4232:4235   */\n      0x00\n        /* \"#utility.yul\":4253:4320   */\n      tag_300\n        /* \"#utility.yul\":4317:4319   */\n      0x0a\n        /* \"#utility.yul\":4312:4315   */\n      dup4\n        /* \"#utility.yul\":4253:4320   */\n      tag_278\n      jump\t// in\n    tag_300:\n        /* \"#utility.yul\":4246:4320   */\n      swap2\n      pop\n        /* \"#utility.yul\":4329:4422   */\n      tag_301\n        /* \"#utility.yul\":4418:4421   */\n      dup3\n        /* \"#utility.yul\":4329:4422   */\n      tag_302\n      jump\t// in\n    tag_301:\n        /* \"#utility.yul\":4447:4449   */\n      0x20\n        /* \"#utility.yul\":4442:4445   */\n      dup3\n        /* \"#utility.yul\":4438:4450   */\n      add\n        /* \"#utility.yul\":4431:4450   */\n      swap1\n      pop\n        /* \"#utility.yul\":4090:4456   */\n      swap2\n      swap1\n      pop\n      jump\t// out\n        /* \"#utility.yul\":4462:4828   */\n    tag_303:\n        /* \"#utility.yul\":4604:4607   */\n      0x00\n        /* \"#utility.yul\":4625:4692   */\n      tag_305\n        /* \"#utility.yul\":4689:4691   */\n      0x1d\n        /* \"#utility.yul\":4684:4687   */\n      dup4\n        /* \"#utility.yul\":4625:4692   */\n      tag_278\n      jump\t// in\n    tag_305:\n        /* \"#utility.yul\":4618:4692   */\n      swap2\n      pop\n        /* \"#utility.yul\":4701:4794   */\n      tag_306\n        /* \"#utility.yul\":4790:4793   */\n      dup3\n        /* \"#utility.yul\":4701:4794   */\n      tag_307\n      jump\t// in\n    tag_306:\n        /* \"#utility.yul\":4819:4821   */\n      0x20\n        /* \"#utility.yul\":4814:4817   */\n      dup3\n        /* \"#utility.yul\":4810:4822   */\n      add\n        /* \"#utility.yul\":4803:4822   */\n      swap1\n      pop\n        /* \"#utility.yul\":4462:4828   */\n      swap2\n      swap1\n      pop\n      jump\t// out\n        /* \"#utility.yul\":4834:5200   */\n    tag_308:\n        /* \"#utility.yul\":4976:4979   */\n      0x00\n        /* \"#utility.yul\":4997:5064   */\n      tag_310\n        /* \"#utility.yul\":5061:5063   */\n      0x26\n        /* \"#utility.yul\":5056:5059   */\n      dup4\n        /* \"#utility.yul\":4997:5064   */\n      tag_278\n      jump\t// in\n    tag_310:\n        /* \"#utility.yul\":4990:5064   */\n      swap2\n      pop\n        /* \"#utility.yul\":5073:5166   */\n      tag_311\n        /* \"#utility.yul\":5162:5165   */\n      dup3\n        /* \"#utility.yul\":5073:5166   */\n      tag_312\n      jump\t// in\n    tag_311:\n        /* \"#utility.yul\":5191:5193   */\n      0x40\n        /* \"#utility.yul\":5186:5189   */\n      dup3\n        /* \"#utility.yul\":5182:5194   */\n      add\n        /* \"#utility.yul\":5175:5194   */\n      swap1\n      pop\n        /* \"#utility.yul\":4834:5200   */\n      swap2\n      swap1\n      pop\n      jump\t// out\n        /* \"#utility.yul\":5206:5572   */\n    tag_313:\n        /* \"#utility.yul\":5348:5351   */\n      0x00\n        /* \"#utility.yul\":5369:5436   */\n      tag_315\n        /* \"#utility.yul\":5433:5435   */\n      0x21\n        /* \"#utility.yul\":5428:5431   */\n      dup4\n        /* \"#utility.yul\":5369:5436   */\n      tag_278\n      jump\t// in\n    tag_315:\n        /* \"#utility.yul\":5362:5436   */\n      swap2\n      pop\n        /* \"#utility.yul\":5445:5538   */\n      tag_316\n        /* \"#utility.yul\":5534:5537   */\n      dup3\n        /* \"#utility.yul\":5445:5538   */\n      tag_317\n      jump\t// in\n    tag_316:\n        /* \"#utility.yul\":5563:5565   */\n      0x40\n        /* \"#utility.yul\":5558:5561   */\n      dup3\n        /* \"#utility.yul\":5554:5566   */\n      add\n        /* \"#utility.yul\":5547:5566   */\n      swap1\n      pop\n        /* \"#utility.yul\":5206:5572   */\n      swap2\n      swap1\n      pop\n      jump\t// out\n        /* \"#utility.yul\":5578:5944   */\n    tag_318:\n        /* \"#utility.yul\":5720:5723   */\n      0x00\n        /* \"#utility.yul\":5741:5808   */\n      tag_320\n        /* \"#utility.yul\":5805:5807   */\n      0x25\n        /* \"#utility.yul\":5800:5803   */\n      dup4\n        /* \"#utility.yul\":5741:5808   */\n      tag_278\n      jump\t// in\n    tag_320:\n        /* \"#utility.yul\":5734:5808   */\n      swap2\n      pop\n        /* \"#utility.yul\":5817:5910   */\n      tag_321\n        /* \"#utility.yul\":5906:5909   */\n      dup3\n        /* \"#utility.yul\":5817:5910   */\n      tag_322\n      jump\t// in\n    tag_321:\n        /* \"#utility.yul\":5935:5937   */\n      0x40\n        /* \"#utility.yul\":5930:5933   */\n      dup3\n        /* \"#utility.yul\":5926:5938   */\n      add\n        /* \"#utility.yul\":5919:5938   */\n      swap1\n      pop\n        /* \"#utility.yul\":5578:5944   */\n      swap2\n      swap1\n      pop\n      jump\t// out\n        /* \"#utility.yul\":5950:6316   */\n    tag_323:\n        /* \"#utility.yul\":6092:6095   */\n      0x00\n        /* \"#utility.yul\":6113:6180   */\n      tag_325\n        /* \"#utility.yul\":6177:6179   */\n      0x24\n        /* \"#utility.yul\":6172:6175   */\n      dup4\n        /* \"#utility.yul\":6113:6180   */\n      tag_278\n      jump\t// in\n    tag_325:\n        /* \"#utility.yul\":6106:6180   */\n      swap2\n      pop\n        /* \"#utility.yul\":6189:6282   */\n      tag_326\n        /* \"#utility.yul\":6278:6281   */\n      dup3\n        /* \"#utility.yul\":6189:6282   */\n      tag_327\n      jump\t// in\n    tag_326:\n        /* \"#utility.yul\":6307:6309   */\n      0x40\n        /* \"#utility.yul\":6302:6305   */\n      dup3\n        /* \"#utility.yul\":6298:6310   */\n      add\n        /* \"#utility.yul\":6291:6310   */\n      swap1\n      pop\n        /* \"#utility.yul\":5950:6316   */\n      swap2\n      swap1\n      pop\n      jump\t// out\n        /* \"#utility.yul\":6322:6688   */\n    tag_328:\n        /* \"#utility.yul\":6464:6467   */\n      0x00\n        /* \"#utility.yul\":6485:6552   */\n      tag_330\n        /* \"#utility.yul\":6549:6551   */\n      0x10\n        /* \"#utility.yul\":6544:6547   */\n      dup4\n        /* \"#utility.yul\":6485:6552   */\n      tag_278\n      jump\t// in\n    tag_330:\n        /* \"#utility.yul\":6478:6552   */\n      swap2\n      pop\n        /* \"#utility.yul\":6561:6654   */\n      tag_331\n        /* \"#utility.yul\":6650:6653   */\n      dup3\n        /* \"#utility.yul\":6561:6654   */\n      tag_332\n      jump\t// in\n    tag_331:\n        /* \"#utility.yul\":6679:6681   */\n      0x20\n        /* \"#utility.yul\":6674:6677   */\n      dup3\n        /* \"#utility.yul\":6670:6682   */\n      add\n        /* \"#utility.yul\":6663:6682   */\n      swap1\n      pop\n        /* \"#utility.yul\":6322:6688   */\n      swap2\n      swap1\n      pop\n      jump\t// out\n        /* \"#utility.yul\":6694:7060   */\n    tag_333:\n        /* \"#utility.yul\":6836:6839   */\n      0x00\n        /* \"#utility.yul\":6857:6924   */\n      tag_335\n        /* \"#utility.yul\":6921:6923   */\n      0x25\n        /* \"#utility.yul\":6916:6919   */\n      dup4\n        /* \"#utility.yul\":6857:6924   */\n      tag_278\n      jump\t// in\n    tag_335:\n        /* \"#utility.yul\":6850:6924   */\n      swap2\n      pop\n        /* \"#utility.yul\":6933:7026   */\n      tag_336\n        /* \"#utility.yul\":7022:7025   */\n      dup3\n        /* \"#utility.yul\":6933:7026   */\n      tag_337\n      jump\t// in\n    tag_336:\n        /* \"#utility.yul\":7051:7053   */\n      0x40\n        /* \"#utility.yul\":7046:7049   */\n      dup3\n        /* \"#utility.yul\":7042:7054   */\n      add\n        /* \"#utility.yul\":7035:7054   */\n      swap1\n      pop\n        /* \"#utility.yul\":6694:7060   */\n      swap2\n      swap1\n      pop\n      jump\t// out\n        /* \"#utility.yul\":7066:7432   */\n    tag_338:\n        /* \"#utility.yul\":7208:7211   */\n      0x00\n        /* \"#utility.yul\":7229:7296   */\n      tag_340\n        /* \"#utility.yul\":7293:7295   */\n      0x1f\n        /* \"#utility.yul\":7288:7291   */\n      dup4\n        /* \"#utility.yul\":7229:7296   */\n      tag_278\n      jump\t// in\n    tag_340:\n        /* \"#utility.yul\":7222:7296   */\n      swap2\n      pop\n        /* \"#utility.yul\":7305:7398   */\n      tag_341\n        /* \"#utility.yul\":7394:7397   */\n      dup3\n        /* \"#utility.yul\":7305:7398   */\n      tag_342\n      jump\t// in\n    tag_341:\n        /* \"#utility.yul\":7423:7425   */\n      0x20\n        /* \"#utility.yul\":7418:7421   */\n      dup3\n        /* \"#utility.yul\":7414:7426   */\n      add\n        /* \"#utility.yul\":7407:7426   */\n      swap1\n      pop\n        /* \"#utility.yul\":7066:7432   */\n      swap2\n      swap1\n      pop\n      jump\t// out\n        /* \"#utility.yul\":7438:7556   */\n    tag_343:\n        /* \"#utility.yul\":7525:7549   */\n      tag_345\n        /* \"#utility.yul\":7543:7548   */\n      dup2\n        /* \"#utility.yul\":7525:7549   */\n      tag_346\n      jump\t// in\n    tag_345:\n        /* \"#utility.yul\":7520:7523   */\n      dup3\n        /* \"#utility.yul\":7513:7550   */\n      mstore\n        /* \"#utility.yul\":7438:7556   */\n      pop\n      pop\n      jump\t// out\n        /* \"#utility.yul\":7562:7674   */\n    tag_347:\n        /* \"#utility.yul\":7645:7667   */\n      tag_349\n        /* \"#utility.yul\":7661:7666   */\n      dup2\n        /* \"#utility.yul\":7645:7667   */\n      tag_350\n      jump\t// in\n    tag_349:\n        /* \"#utility.yul\":7640:7643   */\n      dup3\n        /* \"#utility.yul\":7633:7668   */\n      mstore\n        /* \"#utility.yul\":7562:7674   */\n      pop\n      pop\n      jump\t// out\n        /* \"#utility.yul\":7680:7902   */\n    tag_69:\n        /* \"#utility.yul\":7773:7777   */\n      0x00\n        /* \"#utility.yul\":7811:7813   */\n      0x20\n        /* \"#utility.yul\":7800:7809   */\n      dup3\n        /* \"#utility.yul\":7796:7814   */\n      add\n        /* \"#utility.yul\":7788:7814   */\n      swap1\n      pop\n        /* \"#utility.yul\":7824:7895   */\n      tag_352\n        /* \"#utility.yul\":7892:7893   */\n      0x00\n        /* \"#utility.yul\":7881:7890   */\n      dup4\n        /* \"#utility.yul\":7877:7894   */\n      add\n        /* \"#utility.yul\":7868:7874   */\n      dup5\n        /* \"#utility.yul\":7824:7895   */\n      tag_265\n      jump\t// in\n    tag_352:\n        /* \"#utility.yul\":7680:7902   */\n      swap3\n      swap2\n      pop\n      pop\n      jump\t// out\n        /* \"#utility.yul\":7908:8162   */\n    tag_60:\n        /* \"#utility.yul\":8017:8021   */\n      0x00\n        /* \"#utility.yul\":8055:8057   */\n      0x20\n        /* \"#utility.yul\":8044:8053   */\n      dup3\n        /* \"#utility.yul\":8040:8058   */\n      add\n        /* \"#utility.yul\":8032:8058   */\n      swap1\n      pop\n        /* \"#utility.yul\":8068:8155   */\n      tag_354\n        /* \"#utility.yul\":8152:8153   */\n      0x00\n        /* \"#utility.yul\":8141:8150   */\n      dup4\n        /* \"#utility.yul\":8137:8154   */\n      add\n        /* \"#utility.yul\":8128:8134   */\n      dup5\n        /* \"#utility.yul\":8068:8155   */\n      tag_261\n      jump\t// in\n    tag_354:\n        /* \"#utility.yul\":7908:8162   */\n      swap3\n      swap2\n      pop\n      pop\n      jump\t// out\n        /* \"#utility.yul\":8168:8378   */\n    tag_33:\n        /* \"#utility.yul\":8255:8259   */\n      0x00\n        /* \"#utility.yul\":8293:8295   */\n      0x20\n        /* \"#utility.yul\":8282:8291   */\n      dup3\n        /* \"#utility.yul\":8278:8296   */\n      add\n        /* \"#utility.yul\":8270:8296   */\n      swap1\n      pop\n        /* \"#utility.yul\":8306:8371   */\n      tag_356\n        /* \"#utility.yul\":8368:8369   */\n      0x00\n        /* \"#utility.yul\":8357:8366   */\n      dup4\n        /* \"#utility.yul\":8353:8370   */\n      add\n        /* \"#utility.yul\":8344:8350   */\n      dup5\n        /* \"#utility.yul\":8306:8371   */\n      tag_269\n      jump\t// in\n    tag_356:\n        /* \"#utility.yul\":8168:8378   */\n      swap3\n      swap2\n      pop\n      pop\n      jump\t// out\n        /* \"#utility.yul\":8384:8697   */\n    tag_27:\n        /* \"#utility.yul\":8497:8501   */\n      0x00\n        /* \"#utility.yul\":8535:8537   */\n      0x20\n        /* \"#utility.yul\":8524:8533   */\n      dup3\n        /* \"#utility.yul\":8520:8538   */\n      add\n        /* \"#utility.yul\":8512:8538   */\n      swap1\n      pop\n        /* \"#utility.yul\":8584:8593   */\n      dup2\n        /* \"#utility.yul\":8578:8582   */\n      dup2\n        /* \"#utility.yul\":8574:8594   */\n      sub\n        /* \"#utility.yul\":8570:8571   */\n      0x00\n        /* \"#utility.yul\":8559:8568   */\n      dup4\n        /* \"#utility.yul\":8555:8572   */\n      add\n        /* \"#utility.yul\":8548:8595   */\n      mstore\n        /* \"#utility.yul\":8612:8690   */\n      tag_358\n        /* \"#utility.yul\":8685:8689   */\n      dup2\n        /* \"#utility.yul\":8676:8682   */\n      dup5\n        /* \"#utility.yul\":8612:8690   */\n      tag_273\n      jump\t// in\n    tag_358:\n        /* \"#utility.yul\":8604:8690   */\n      swap1\n      pop\n        /* \"#utility.yul\":8384:8697   */\n      swap3\n      swap2\n      pop\n      pop\n      jump\t// out\n        /* \"#utility.yul\":8703:9122   */\n    tag_221:\n        /* \"#utility.yul\":8869:8873   */\n      0x00\n        /* \"#utility.yul\":8907:8909   */\n      0x20\n        /* \"#utility.yul\":8896:8905   */\n      dup3\n        /* \"#utility.yul\":8892:8910   */\n      add\n        /* \"#utility.yul\":8884:8910   */\n      swap1\n      pop\n        /* \"#utility.yul\":8956:8965   */\n      dup2\n        /* \"#utility.yul\":8950:8954   */\n      dup2\n        /* \"#utility.yul\":8946:8966   */\n      sub\n        /* \"#utility.yul\":8942:8943   */\n      0x00\n        /* \"#utility.yul\":8931:8940   */\n      dup4\n        /* \"#utility.yul\":8927:8944   */\n      add\n        /* \"#utility.yul\":8920:8967   */\n      mstore\n        /* \"#utility.yul\":8984:9115   */\n      tag_360\n        /* \"#utility.yul\":9110:9114   */\n      dup2\n        /* \"#utility.yul\":8984:9115   */\n      tag_283\n      jump\t// in\n    tag_360:\n        /* \"#utility.yul\":8976:9115   */\n      swap1\n      pop\n        /* \"#utility.yul\":8703:9122   */\n      swap2\n      swap1\n      pop\n      jump\t// out\n        /* \"#utility.yul\":9128:9547   */\n    tag_210:\n        /* \"#utility.yul\":9294:9298   */\n      0x00\n        /* \"#utility.yul\":9332:9334   */\n      0x20\n        /* \"#utility.yul\":9321:9330   */\n      dup3\n        /* \"#utility.yul\":9317:9335   */\n      add\n        /* \"#utility.yul\":9309:9335   */\n      swap1\n      pop\n        /* \"#utility.yul\":9381:9390   */\n      dup2\n        /* \"#utility.yul\":9375:9379   */\n      dup2\n        /* \"#utility.yul\":9371:9391   */\n      sub\n        /* \"#utility.yul\":9367:9368   */\n      0x00\n        /* \"#utility.yul\":9356:9365   */\n      dup4\n        /* \"#utility.yul\":9352:9369   */\n      add\n        /* \"#utility.yul\":9345:9392   */\n      mstore\n        /* \"#utility.yul\":9409:9540   */\n      tag_362\n        /* \"#utility.yul\":9535:9539   */\n      dup2\n        /* \"#utility.yul\":9409:9540   */\n      tag_288\n      jump\t// in\n    tag_362:\n        /* \"#utility.yul\":9401:9540   */\n      swap1\n      pop\n        /* \"#utility.yul\":9128:9547   */\n      swap2\n      swap1\n      pop\n      jump\t// out\n        /* \"#utility.yul\":9553:9972   */\n    tag_181:\n        /* \"#utility.yul\":9719:9723   */\n      0x00\n        /* \"#utility.yul\":9757:9759   */\n      0x20\n        /* \"#utility.yul\":9746:9755   */\n      dup3\n        /* \"#utility.yul\":9742:9760   */\n      add\n        /* \"#utility.yul\":9734:9760   */\n      swap1\n      pop\n        /* \"#utility.yul\":9806:9815   */\n      dup2\n        /* \"#utility.yul\":9800:9804   */\n      dup2\n        /* \"#utility.yul\":9796:9816   */\n      sub\n        /* \"#utility.yul\":9792:9793   */\n      0x00\n        /* \"#utility.yul\":9781:9790   */\n      dup4\n        /* \"#utility.yul\":9777:9794   */\n      add\n        /* \"#utility.yul\":9770:9817   */\n      mstore\n        /* \"#utility.yul\":9834:9965   */\n      tag_364\n        /* \"#utility.yul\":9960:9964   */\n      dup2\n        /* \"#utility.yul\":9834:9965   */\n      tag_293\n      jump\t// in\n    tag_364:\n        /* \"#utility.yul\":9826:9965   */\n      swap1\n      pop\n        /* \"#utility.yul\":9553:9972   */\n      swap2\n      swap1\n      pop\n      jump\t// out\n        /* \"#utility.yul\":9978:10397   */\n    tag_125:\n        /* \"#utility.yul\":10144:10148   */\n      0x00\n        /* \"#utility.yul\":10182:10184   */\n      0x20\n        /* \"#utility.yul\":10171:10180   */\n      dup3\n        /* \"#utility.yul\":10167:10185   */\n      add\n        /* \"#utility.yul\":10159:10185   */\n      swap1\n      pop\n        /* \"#utility.yul\":10231:10240   */\n      dup2\n        /* \"#utility.yul\":10225:10229   */\n      dup2\n        /* \"#utility.yul\":10221:10241   */\n      sub\n        /* \"#utility.yul\":10217:10218   */\n      0x00\n        /* \"#utility.yul\":10206:10215   */\n      dup4\n        /* \"#utility.yul\":10202:10219   */\n      add\n        /* \"#utility.yul\":10195:10242   */\n      mstore\n        /* \"#utility.yul\":10259:10390   */\n      tag_366\n        /* \"#utility.yul\":10385:10389   */\n      dup2\n        /* \"#utility.yul\":10259:10390   */\n      tag_298\n      jump\t// in\n    tag_366:\n        /* \"#utility.yul\":10251:10390   */\n      swap1\n      pop\n        /* \"#utility.yul\":9978:10397   */\n      swap2\n      swap1\n      pop\n      jump\t// out\n        /* \"#utility.yul\":10403:10822   */\n    tag_188:\n        /* \"#utility.yul\":10569:10573   */\n      0x00\n        /* \"#utility.yul\":10607:10609   */\n      0x20\n        /* \"#utility.yul\":10596:10605   */\n      dup3\n        /* \"#utility.yul\":10592:10610   */\n      add\n        /* \"#utility.yul\":10584:10610   */\n      swap1\n      pop\n        /* \"#utility.yul\":10656:10665   */\n      dup2\n        /* \"#utility.yul\":10650:10654   */\n      dup2\n        /* \"#utility.yul\":10646:10666   */\n      sub\n        /* \"#utility.yul\":10642:10643   */\n      0x00\n        /* \"#utility.yul\":10631:10640   */\n      dup4\n        /* \"#utility.yul\":10627:10644   */\n      add\n        /* \"#utility.yul\":10620:10667   */\n      mstore\n        /* \"#utility.yul\":10684:10815   */\n      tag_368\n        /* \"#utility.yul\":10810:10814   */\n      dup2\n        /* \"#utility.yul\":10684:10815   */\n      tag_303\n      jump\t// in\n    tag_368:\n        /* \"#utility.yul\":10676:10815   */\n      swap1\n      pop\n        /* \"#utility.yul\":10403:10822   */\n      swap2\n      swap1\n      pop\n      jump\t// out\n        /* \"#utility.yul\":10828:11247   */\n    tag_225:\n        /* \"#utility.yul\":10994:10998   */\n      0x00\n        /* \"#utility.yul\":11032:11034   */\n      0x20\n        /* \"#utility.yul\":11021:11030   */\n      dup3\n        /* \"#utility.yul\":11017:11035   */\n      add\n        /* \"#utility.yul\":11009:11035   */\n      swap1\n      pop\n        /* \"#utility.yul\":11081:11090   */\n      dup2\n        /* \"#utility.yul\":11075:11079   */\n      dup2\n        /* \"#utility.yul\":11071:11091   */\n      sub\n        /* \"#utility.yul\":11067:11068   */\n      0x00\n        /* \"#utility.yul\":11056:11065   */\n      dup4\n        /* \"#utility.yul\":11052:11069   */\n      add\n        /* \"#utility.yul\":11045:11092   */\n      mstore\n        /* \"#utility.yul\":11109:11240   */\n      tag_370\n        /* \"#utility.yul\":11235:11239   */\n      dup2\n        /* \"#utility.yul\":11109:11240   */\n      tag_308\n      jump\t// in\n    tag_370:\n        /* \"#utility.yul\":11101:11240   */\n      swap1\n      pop\n        /* \"#utility.yul\":10828:11247   */\n      swap2\n      swap1\n      pop\n      jump\t// out\n        /* \"#utility.yul\":11253:11672   */\n    tag_206:\n        /* \"#utility.yul\":11419:11423   */\n      0x00\n        /* \"#utility.yul\":11457:11459   */\n      0x20\n        /* \"#utility.yul\":11446:11455   */\n      dup3\n        /* \"#utility.yul\":11442:11460   */\n      add\n        /* \"#utility.yul\":11434:11460   */\n      swap1\n      pop\n        /* \"#utility.yul\":11506:11515   */\n      dup2\n        /* \"#utility.yul\":11500:11504   */\n      dup2\n        /* \"#utility.yul\":11496:11516   */\n      sub\n        /* \"#utility.yul\":11492:11493   */\n      0x00\n        /* \"#utility.yul\":11481:11490   */\n      dup4\n        /* \"#utility.yul\":11477:11494   */\n      add\n        /* \"#utility.yul\":11470:11517   */\n      mstore\n        /* \"#utility.yul\":11534:11665   */\n      tag_372\n        /* \"#utility.yul\":11660:11664   */\n      dup2\n        /* \"#utility.yul\":11534:11665   */\n      tag_313\n      jump\t// in\n    tag_372:\n        /* \"#utility.yul\":11526:11665   */\n      swap1\n      pop\n        /* \"#utility.yul\":11253:11672   */\n      swap2\n      swap1\n      pop\n      jump\t// out\n        /* \"#utility.yul\":11678:12097   */\n    tag_218:\n        /* \"#utility.yul\":11844:11848   */\n      0x00\n        /* \"#utility.yul\":11882:11884   */\n      0x20\n        /* \"#utility.yul\":11871:11880   */\n      dup3\n        /* \"#utility.yul\":11867:11885   */\n      add\n        /* \"#utility.yul\":11859:11885   */\n      swap1\n      pop\n        /* \"#utility.yul\":11931:11940   */\n      dup2\n        /* \"#utility.yul\":11925:11929   */\n      dup2\n        /* \"#utility.yul\":11921:11941   */\n      sub\n        /* \"#utility.yul\":11917:11918   */\n      0x00\n        /* \"#utility.yul\":11906:11915   */\n      dup4\n        /* \"#utility.yul\":11902:11919   */\n      add\n        /* \"#utility.yul\":11895:11942   */\n      mstore\n        /* \"#utility.yul\":11959:12090   */\n      tag_374\n        /* \"#utility.yul\":12085:12089   */\n      dup2\n        /* \"#utility.yul\":11959:12090   */\n      tag_318\n      jump\t// in\n    tag_374:\n        /* \"#utility.yul\":11951:12090   */\n      swap1\n      pop\n        /* \"#utility.yul\":11678:12097   */\n      swap2\n      swap1\n      pop\n      jump\t// out\n        /* \"#utility.yul\":12103:12522   */\n    tag_178:\n        /* \"#utility.yul\":12269:12273   */\n      0x00\n        /* \"#utility.yul\":12307:12309   */\n      0x20\n        /* \"#utility.yul\":12296:12305   */\n      dup3\n        /* \"#utility.yul\":12292:12310   */\n      add\n        /* \"#utility.yul\":12284:12310   */\n      swap1\n      pop\n        /* \"#utility.yul\":12356:12365   */\n      dup2\n        /* \"#utility.yul\":12350:12354   */\n      dup2\n        /* \"#utility.yul\":12346:12366   */\n      sub\n        /* \"#utility.yul\":12342:12343   */\n      0x00\n        /* \"#utility.yul\":12331:12340   */\n      dup4\n        /* \"#utility.yul\":12327:12344   */\n      add\n        /* \"#utility.yul\":12320:12367   */\n      mstore\n        /* \"#utility.yul\":12384:12515   */\n      tag_376\n        /* \"#utility.yul\":12510:12514   */\n      dup2\n        /* \"#utility.yul\":12384:12515   */\n      tag_323\n      jump\t// in\n    tag_376:\n        /* \"#utility.yul\":12376:12515   */\n      swap1\n      pop\n        /* \"#utility.yul\":12103:12522   */\n      swap2\n      swap1\n      pop\n      jump\t// out\n        /* \"#utility.yul\":12528:12947   */\n    tag_134:\n        /* \"#utility.yul\":12694:12698   */\n      0x00\n        /* \"#utility.yul\":12732:12734   */\n      0x20\n        /* \"#utility.yul\":12721:12730   */\n      dup3\n        /* \"#utility.yul\":12717:12735   */\n      add\n        /* \"#utility.yul\":12709:12735   */\n      swap1\n      pop\n        /* \"#utility.yul\":12781:12790   */\n      dup2\n        /* \"#utility.yul\":12775:12779   */\n      dup2\n        /* \"#utility.yul\":12771:12791   */\n      sub\n        /* \"#utility.yul\":12767:12768   */\n      0x00\n        /* \"#utility.yul\":12756:12765   */\n      dup4\n        /* \"#utility.yul\":12752:12769   */\n      add\n        /* \"#utility.yul\":12745:12792   */\n      mstore\n        /* \"#utility.yul\":12809:12940   */\n      tag_378\n        /* \"#utility.yul\":12935:12939   */\n      dup2\n        /* \"#utility.yul\":12809:12940   */\n      tag_328\n      jump\t// in\n    tag_378:\n        /* \"#utility.yul\":12801:12940   */\n      swap1\n      pop\n        /* \"#utility.yul\":12528:12947   */\n      swap2\n      swap1\n      pop\n      jump\t// out\n        /* \"#utility.yul\":12953:13372   */\n    tag_163:\n        /* \"#utility.yul\":13119:13123   */\n      0x00\n        /* \"#utility.yul\":13157:13159   */\n      0x20\n        /* \"#utility.yul\":13146:13155   */\n      dup3\n        /* \"#utility.yul\":13142:13160   */\n      add\n        /* \"#utility.yul\":13134:13160   */\n      swap1\n      pop\n        /* \"#utility.yul\":13206:13215   */\n      dup2\n        /* \"#utility.yul\":13200:13204   */\n      dup2\n        /* \"#utility.yul\":13196:13216   */\n      sub\n        /* \"#utility.yul\":13192:13193   */\n      0x00\n        /* \"#utility.yul\":13181:13190   */\n      dup4\n        /* \"#utility.yul\":13177:13194   */\n      add\n        /* \"#utility.yul\":13170:13217   */\n      mstore\n        /* \"#utility.yul\":13234:13365   */\n      tag_380\n        /* \"#utility.yul\":13360:13364   */\n      dup2\n        /* \"#utility.yul\":13234:13365   */\n      tag_333\n      jump\t// in\n    tag_380:\n        /* \"#utility.yul\":13226:13365   */\n      swap1\n      pop\n        /* \"#utility.yul\":12953:13372   */\n      swap2\n      swap1\n      pop\n      jump\t// out\n        /* \"#utility.yul\":13378:13797   */\n    tag_129:\n        /* \"#utility.yul\":13544:13548   */\n      0x00\n        /* \"#utility.yul\":13582:13584   */\n      0x20\n        /* \"#utility.yul\":13571:13580   */\n      dup3\n        /* \"#utility.yul\":13567:13585   */\n      add\n        /* \"#utility.yul\":13559:13585   */\n      swap1\n      pop\n        /* \"#utility.yul\":13631:13640   */\n      dup2\n        /* \"#utility.yul\":13625:13629   */\n      dup2\n        /* \"#utility.yul\":13621:13641   */\n      sub\n        /* \"#utility.yul\":13617:13618   */\n      0x00\n        /* \"#utility.yul\":13606:13615   */\n      dup4\n        /* \"#utility.yul\":13602:13619   */\n      add\n        /* \"#utility.yul\":13595:13642   */\n      mstore\n        /* \"#utility.yul\":13659:13790   */\n      tag_382\n        /* \"#utility.yul\":13785:13789   */\n      dup2\n        /* \"#utility.yul\":13659:13790   */\n      tag_338\n      jump\t// in\n    tag_382:\n        /* \"#utility.yul\":13651:13790   */\n      swap1\n      pop\n        /* \"#utility.yul\":13378:13797   */\n      swap2\n      swap1\n      pop\n      jump\t// out\n        /* \"#utility.yul\":13803:14025   */\n    tag_37:\n        /* \"#utility.yul\":13896:13900   */\n      0x00\n        /* \"#utility.yul\":13934:13936   */\n      0x20\n        /* \"#utility.yul\":13923:13932   */\n      dup3\n        /* \"#utility.yul\":13919:13937   */\n      add\n        /* \"#utility.yul\":13911:13937   */\n      swap1\n      pop\n        /* \"#utility.yul\":13947:14018   */\n      tag_384\n        /* \"#utility.yul\":14015:14016   */\n      0x00\n        /* \"#utility.yul\":14004:14013   */\n      dup4\n        /* \"#utility.yul\":14000:14017   */\n      add\n        /* \"#utility.yul\":13991:13997   */\n      dup5\n        /* \"#utility.yul\":13947:14018   */\n      tag_343\n      jump\t// in\n    tag_384:\n        /* \"#utility.yul\":13803:14025   */\n      swap3\n      swap2\n      pop\n      pop\n      jump\t// out\n        /* \"#utility.yul\":14031:14245   */\n    tag_46:\n        /* \"#utility.yul\":14120:14124   */\n      0x00\n        /* \"#utility.yul\":14158:14160   */\n      0x20\n        /* \"#utility.yul\":14147:14156   */\n      dup3\n        /* \"#utility.yul\":14143:14161   */\n      add\n        /* \"#utility.yul\":14135:14161   */\n      swap1\n      pop\n        /* \"#utility.yul\":14171:14238   */\n      tag_386\n        /* \"#utility.yul\":14235:14236   */\n      0x00\n        /* \"#utility.yul\":14224:14233   */\n      dup4\n        /* \"#utility.yul\":14220:14237   */\n      add\n        /* \"#utility.yul\":14211:14217   */\n      dup5\n        /* \"#utility.yul\":14171:14238   */\n      tag_347\n      jump\t// in\n    tag_386:\n        /* \"#utility.yul\":14031:14245   */\n      swap3\n      swap2\n      pop\n      pop\n      jump\t// out\n        /* \"#utility.yul\":14332:14431   */\n    tag_276:\n        /* \"#utility.yul\":14384:14390   */\n      0x00\n        /* \"#utility.yul\":14418:14423   */\n      dup2\n        /* \"#utility.yul\":14412:14424   */\n      mload\n        /* \"#utility.yul\":14402:14424   */\n      swap1\n      pop\n        /* \"#utility.yul\":14332:14431   */\n      swap2\n      swap1\n      pop\n      jump\t// out\n        /* \"#utility.yul\":14437:14606   */\n    tag_278:\n        /* \"#utility.yul\":14521:14532   */\n      0x00\n        /* \"#utility.yul\":14555:14561   */\n      dup3\n        /* \"#utility.yul\":14550:14553   */\n      dup3\n        /* \"#utility.yul\":14543:14562   */\n      mstore\n        /* \"#utility.yul\":14595:14599   */\n      0x20\n        /* \"#utility.yul\":14590:14593   */\n      dup3\n        /* \"#utility.yul\":14586:14600   */\n      add\n        /* \"#utility.yul\":14571:14600   */\n      swap1\n      pop\n        /* \"#utility.yul\":14437:14606   */\n      swap3\n      swap2\n      pop\n      pop\n      jump\t// out\n        /* \"#utility.yul\":14612:14917   */\n    tag_121:\n        /* \"#utility.yul\":14652:14655   */\n      0x00\n        /* \"#utility.yul\":14671:14691   */\n      tag_392\n        /* \"#utility.yul\":14689:14690   */\n      dup3\n        /* \"#utility.yul\":14671:14691   */\n      tag_346\n      jump\t// in\n    tag_392:\n        /* \"#utility.yul\":14666:14691   */\n      swap2\n      pop\n        /* \"#utility.yul\":14705:14725   */\n      tag_393\n        /* \"#utility.yul\":14723:14724   */\n      dup4\n        /* \"#utility.yul\":14705:14725   */\n      tag_346\n      jump\t// in\n    tag_393:\n        /* \"#utility.yul\":14700:14725   */\n      swap3\n      pop\n        /* \"#utility.yul\":14859:14860   */\n      dup3\n        /* \"#utility.yul\":14791:14857   */\n      0xffffffffffffffffffffffffffffffffffffffffffffffffffffffffffffffff\n        /* \"#utility.yul\":14787:14861   */\n      sub\n        /* \"#utility.yul\":14784:14785   */\n      dup3\n        /* \"#utility.yul\":14781:14862   */\n      gt\n        /* \"#utility.yul\":14778:14885   */\n      iszero\n      tag_394\n      jumpi\n        /* \"#utility.yul\":14865:14883   */\n      tag_395\n      tag_396\n      jump\t// in\n    tag_395:\n        /* \"#utility.yul\":14778:14885   */\n    tag_394:\n        /* \"#utility.yul\":14909:14910   */\n      dup3\n        /* \"#utility.yul\":14906:14907   */\n      dup3\n        /* \"#utility.yul\":14902:14911   */\n      add\n        /* \"#utility.yul\":14895:14911   */\n      swap1\n      pop\n        /* \"#utility.yul\":14612:14917   */\n      swap3\n      swap2\n      pop\n      pop\n      jump\t// out\n        /* \"#utility.yul\":14923:15771   */\n    tag_397:\n        /* \"#utility.yul\":14984:14989   */\n      0x00\n        /* \"#utility.yul\":14991:14995   */\n      dup1\n        /* \"#utility.yul\":15015:15021   */\n      dup3\n        /* \"#utility.yul\":15006:15021   */\n      swap2\n      pop\n        /* \"#utility.yul\":15039:15044   */\n      dup4\n        /* \"#utility.yul\":15030:15044   */\n      swap1\n      pop\n        /* \"#utility.yul\":15053:15765   */\n    tag_399:\n        /* \"#utility.yul\":15074:15075   */\n      0x01\n        /* \"#utility.yul\":15064:15072   */\n      dup6\n        /* \"#utility.yul\":15061:15076   */\n      gt\n        /* \"#utility.yul\":15053:15765   */\n      iszero\n      tag_401\n      jumpi\n        /* \"#utility.yul\":15169:15173   */\n      dup1\n        /* \"#utility.yul\":15164:15167   */\n      dup7\n        /* \"#utility.yul\":15160:15174   */\n      div\n        /* \"#utility.yul\":15154:15158   */\n      dup2\n        /* \"#utility.yul\":15151:15175   */\n      gt\n        /* \"#utility.yul\":15148:15198   */\n      iszero\n      tag_402\n      jumpi\n        /* \"#utility.yul\":15178:15196   */\n      tag_403\n      tag_396\n      jump\t// in\n    tag_403:\n        /* \"#utility.yul\":15148:15198   */\n    tag_402:\n        /* \"#utility.yul\":15228:15229   */\n      0x01\n        /* \"#utility.yul\":15218:15226   */\n      dup6\n        /* \"#utility.yul\":15214:15230   */\n      and\n        /* \"#utility.yul\":15211:15662   */\n      iszero\n      tag_404\n      jumpi\n        /* \"#utility.yul\":15643:15647   */\n      dup1\n        /* \"#utility.yul\":15636:15641   */\n      dup3\n        /* \"#utility.yul\":15632:15648   */\n      mul\n        /* \"#utility.yul\":15623:15648   */\n      swap2\n      pop\n        /* \"#utility.yul\":15211:15662   */\n    tag_404:\n        /* \"#utility.yul\":15693:15697   */\n      dup1\n        /* \"#utility.yul\":15687:15691   */\n      dup2\n        /* \"#utility.yul\":15683:15698   */\n      mul\n        /* \"#utility.yul\":15675:15698   */\n      swap1\n      pop\n        /* \"#utility.yul\":15723:15755   */\n      tag_405\n        /* \"#utility.yul\":15746:15754   */\n      dup6\n        /* \"#utility.yul\":15723:15755   */\n      tag_406\n      jump\t// in\n    tag_405:\n        /* \"#utility.yul\":15711:15755   */\n      swap5\n      pop\n        /* \"#utility.yul\":15053:15765   */\n      jump(tag_399)\n    tag_401:\n        /* \"#utility.yul\":14923:15771   */\n      swap5\n      pop\n      swap5\n      swap3\n      pop\n      pop\n      pop\n      jump\t// out\n        /* \"#utility.yul\":15777:16058   */\n    tag_138:\n        /* \"#utility.yul\":15835:15840   */\n      0x00\n        /* \"#utility.yul\":15859:15882   */\n      tag_408\n        /* \"#utility.yul\":15877:15881   */\n      dup3\n        /* \"#utility.yul\":15859:15882   */\n      tag_346\n      jump\t// in\n    tag_408:\n        /* \"#utility.yul\":15851:15882   */\n      swap2\n      pop\n        /* \"#utility.yul\":15903:15928   */\n      tag_409\n        /* \"#utility.yul\":15919:15927   */\n      dup4\n        /* \"#utility.yul\":15903:15928   */\n      tag_350\n      jump\t// in\n    tag_409:\n        /* \"#utility.yul\":15891:15928   */\n      swap3\n      pop\n        /* \"#utility.yul\":15947:16051   */\n      tag_410\n        /* \"#utility.yul\":15984:16050   */\n      0xffffffffffffffffffffffffffffffffffffffffffffffffffffffffffffffff\n        /* \"#utility.yul\":15974:15982   */\n      dup5\n        /* \"#utility.yul\":15968:15972   */\n      dup5\n        /* \"#utility.yul\":15947:16051   */\n      tag_411\n      jump\t// in\n    tag_410:\n        /* \"#utility.yul\":15938:16051   */\n      swap1\n      pop\n        /* \"#utility.yul\":15777:16058   */\n      swap3\n      swap2\n      pop\n      pop\n      jump\t// out\n        /* \"#utility.yul\":16064:17137   */\n    tag_411:\n        /* \"#utility.yul\":16118:16123   */\n      0x00\n        /* \"#utility.yul\":16309:16317   */\n      dup3\n        /* \"#utility.yul\":16299:16339   */\n      tag_413\n      jumpi\n        /* \"#utility.yul\":16330:16331   */\n      0x01\n        /* \"#utility.yul\":16321:16331   */\n      swap1\n      pop\n        /* \"#utility.yul\":16332:16337   */\n      jump(tag_412)\n        /* \"#utility.yul\":16299:16339   */\n    tag_413:\n        /* \"#utility.yul\":16358:16362   */\n      dup2\n        /* \"#utility.yul\":16348:16384   */\n      tag_414\n      jumpi\n        /* \"#utility.yul\":16375:16376   */\n      0x00\n        /* \"#utility.yul\":16366:16376   */\n      swap1\n      pop\n        /* \"#utility.yul\":16377:16382   */\n      jump(tag_412)\n        /* \"#utility.yul\":16348:16384   */\n    tag_414:\n        /* \"#utility.yul\":16444:16448   */\n      dup2\n        /* \"#utility.yul\":16492:16493   */\n      0x01\n        /* \"#utility.yul\":16487:16514   */\n      dup2\n      eq\n      tag_416\n      jumpi\n        /* \"#utility.yul\":16528:16529   */\n      0x02\n        /* \"#utility.yul\":16523:16714   */\n      dup2\n      eq\n      tag_417\n      jumpi\n        /* \"#utility.yul\":16437:16714   */\n      jump(tag_415)\n        /* \"#utility.yul\":16487:16514   */\n    tag_416:\n        /* \"#utility.yul\":16505:16506   */\n      0x01\n        /* \"#utility.yul\":16496:16506   */\n      swap2\n      pop\n        /* \"#utility.yul\":16507:16512   */\n      pop\n      jump(tag_412)\n        /* \"#utility.yul\":16523:16714   */\n    tag_417:\n        /* \"#utility.yul\":16568:16571   */\n      0xff\n        /* \"#utility.yul\":16558:16566   */\n      dup5\n        /* \"#utility.yul\":16555:16572   */\n      gt\n        /* \"#utility.yul\":16552:16595   */\n      iszero\n      tag_418\n      jumpi\n        /* \"#utility.yul\":16575:16593   */\n      tag_419\n      tag_396\n      jump\t// in\n    tag_419:\n        /* \"#utility.yul\":16552:16595   */\n    tag_418:\n        /* \"#utility.yul\":16624:16632   */\n      dup4\n        /* \"#utility.yul\":16621:16622   */\n      0x02\n        /* \"#utility.yul\":16617:16633   */\n      exp\n        /* \"#utility.yul\":16608:16633   */\n      swap2\n      pop\n        /* \"#utility.yul\":16659:16662   */\n      dup5\n        /* \"#utility.yul\":16652:16657   */\n      dup3\n        /* \"#utility.yul\":16649:16663   */\n      gt\n        /* \"#utility.yul\":16646:16686   */\n      iszero\n      tag_420\n      jumpi\n        /* \"#utility.yul\":16666:16684   */\n      tag_421\n      tag_396\n      jump\t// in\n    tag_421:\n        /* \"#utility.yul\":16646:16686   */\n    tag_420:\n        /* \"#utility.yul\":16699:16704   */\n      pop\n      jump(tag_412)\n        /* \"#utility.yul\":16437:16714   */\n    tag_415:\n      pop\n        /* \"#utility.yul\":16823:16825   */\n      0x20\n        /* \"#utility.yul\":16813:16821   */\n      dup4\n        /* \"#utility.yul\":16810:16826   */\n      lt\n        /* \"#utility.yul\":16804:16807   */\n      0x0133\n        /* \"#utility.yul\":16798:16802   */\n      dup4\n        /* \"#utility.yul\":16795:16808   */\n      lt\n        /* \"#utility.yul\":16791:16827   */\n      and\n        /* \"#utility.yul\":16773:16775   */\n      0x4e\n        /* \"#utility.yul\":16763:16771   */\n      dup5\n        /* \"#utility.yul\":16760:16776   */\n      lt\n        /* \"#utility.yul\":16755:16757   */\n      0x0b\n        /* \"#utility.yul\":16749:16753   */\n      dup5\n        /* \"#utility.yul\":16746:16758   */\n      lt\n        /* \"#utility.yul\":16742:16777   */\n      and\n        /* \"#utility.yul\":16726:16837   */\n      or\n        /* \"#utility.yul\":16723:16969   */\n      iszero\n      tag_422\n      jumpi\n        /* \"#utility.yul\":16879:16887   */\n      dup3\n        /* \"#utility.yul\":16873:16877   */\n      dup3\n        /* \"#utility.yul\":16869:16888   */\n      exp\n        /* \"#utility.yul\":16860:16888   */\n      swap1\n      pop\n        /* \"#utility.yul\":16914:16917   */\n      dup4\n        /* \"#utility.yul\":16907:16912   */\n      dup2\n        /* \"#utility.yul\":16904:16918   */\n      gt\n        /* \"#utility.yul\":16901:16941   */\n      iszero\n      tag_423\n      jumpi\n        /* \"#utility.yul\":16921:16939   */\n      tag_424\n      tag_396\n      jump\t// in\n    tag_424:\n        /* \"#utility.yul\":16901:16941   */\n    tag_423:\n        /* \"#utility.yul\":16954:16959   */\n      jump(tag_412)\n        /* \"#utility.yul\":16723:16969   */\n    tag_422:\n        /* \"#utility.yul\":16994:17036   */\n      tag_425\n        /* \"#utility.yul\":17032:17035   */\n      dup5\n        /* \"#utility.yul\":17022:17030   */\n      dup5\n        /* \"#utility.yul\":17016:17020   */\n      dup5\n        /* \"#utility.yul\":17013:17014   */\n      0x01\n        /* \"#utility.yul\":16994:17036   */\n      tag_397\n      jump\t// in\n    tag_425:\n        /* \"#utility.yul\":16979:17036   */\n      swap3\n      pop\n      swap1\n      pop\n        /* \"#utility.yul\":17068:17072   */\n      dup2\n        /* \"#utility.yul\":17063:17066   */\n      dup5\n        /* \"#utility.yul\":17059:17073   */\n      div\n        /* \"#utility.yul\":17052:17057   */\n      dup2\n        /* \"#utility.yul\":17049:17074   */\n      gt\n        /* \"#utility.yul\":17046:17097   */\n      iszero\n      tag_426\n      jumpi\n        /* \"#utility.yul\":17077:17095   */\n      tag_427\n      tag_396\n      jump\t// in\n    tag_427:\n        /* \"#utility.yul\":17046:17097   */\n    tag_426:\n        /* \"#utility.yul\":17126:17130   */\n      dup2\n        /* \"#utility.yul\":17119:17124   */\n      dup2\n        /* \"#utility.yul\":17115:17131   */\n      mul\n        /* \"#utility.yul\":17106:17131   */\n      swap1\n      pop\n        /* \"#utility.yul\":16064:17137   */\n    tag_412:\n      swap4\n      swap3\n      pop\n      pop\n      pop\n      jump\t// out\n        /* \"#utility.yul\":17143:17491   */\n    tag_140:\n        /* \"#utility.yul\":17183:17190   */\n      0x00\n        /* \"#utility.yul\":17206:17226   */\n      tag_429\n        /* \"#utility.yul\":17224:17225   */\n      dup3\n        /* \"#utility.yul\":17206:17226   */\n      tag_346\n      jump\t// in\n    tag_429:\n        /* \"#utility.yul\":17201:17226   */\n      swap2\n      pop\n        /* \"#utility.yul\":17240:17260   */\n      tag_430\n        /* \"#utility.yul\":17258:17259   */\n      dup4\n        /* \"#utility.yul\":17240:17260   */\n      tag_346\n      jump\t// in\n    tag_430:\n        /* \"#utility.yul\":17235:17260   */\n      swap3\n      pop\n        /* \"#utility.yul\":17428:17429   */\n      dup2\n        /* \"#utility.yul\":17360:17426   */\n      0xffffffffffffffffffffffffffffffffffffffffffffffffffffffffffffffff\n        /* \"#utility.yul\":17356:17430   */\n      div\n        /* \"#utility.yul\":17353:17354   */\n      dup4\n        /* \"#utility.yul\":17350:17431   */\n      gt\n        /* \"#utility.yul\":17345:17346   */\n      dup3\n        /* \"#utility.yul\":17338:17347   */\n      iszero\n        /* \"#utility.yul\":17331:17348   */\n      iszero\n        /* \"#utility.yul\":17327:17432   */\n      and\n        /* \"#utility.yul\":17324:17455   */\n      iszero\n      tag_431\n      jumpi\n        /* \"#utility.yul\":17435:17453   */\n      tag_432\n      tag_396\n      jump\t// in\n    tag_432:\n        /* \"#utility.yul\":17324:17455   */\n    tag_431:\n        /* \"#utility.yul\":17483:17484   */\n      dup3\n        /* \"#utility.yul\":17480:17481   */\n      dup3\n        /* \"#utility.yul\":17476:17485   */\n      mul\n        /* \"#utility.yul\":17465:17485   */\n      swap1\n      pop\n        /* \"#utility.yul\":17143:17491   */\n      swap3\n      swap2\n      pop\n      pop\n      jump\t// out\n        /* \"#utility.yul\":17497:17688   */\n    tag_212:\n        /* \"#utility.yul\":17537:17541   */\n      0x00\n        /* \"#utility.yul\":17557:17577   */\n      tag_434\n        /* \"#utility.yul\":17575:17576   */\n      dup3\n        /* \"#utility.yul\":17557:17577   */\n      tag_346\n      jump\t// in\n    tag_434:\n        /* \"#utility.yul\":17552:17577   */\n      swap2\n      pop\n        /* \"#utility.yul\":17591:17611   */\n      tag_435\n        /* \"#utility.yul\":17609:17610   */\n      dup4\n        /* \"#utility.yul\":17591:17611   */\n      tag_346\n      jump\t// in\n    tag_435:\n        /* \"#utility.yul\":17586:17611   */\n      swap3\n      pop\n        /* \"#utility.yul\":17630:17631   */\n      dup3\n        /* \"#utility.yul\":17627:17628   */\n      dup3\n        /* \"#utility.yul\":17624:17632   */\n      lt\n        /* \"#utility.yul\":17621:17655   */\n      iszero\n      tag_436\n      jumpi\n        /* \"#utility.yul\":17635:17653   */\n      tag_437\n      tag_396\n      jump\t// in\n    tag_437:\n        /* \"#utility.yul\":17621:17655   */\n    tag_436:\n        /* \"#utility.yul\":17680:17681   */\n      dup3\n        /* \"#utility.yul\":17677:17678   */\n      dup3\n        /* \"#utility.yul\":17673:17682   */\n      sub\n        /* \"#utility.yul\":17665:17682   */\n      swap1\n      pop\n        /* \"#utility.yul\":17497:17688   */\n      swap3\n      swap2\n      pop\n      pop\n      jump\t// out\n        /* \"#utility.yul\":17694:17790   */\n    tag_268:\n        /* \"#utility.yul\":17731:17738   */\n      0x00\n        /* \"#utility.yul\":17760:17784   */\n      tag_439\n        /* \"#utility.yul\":17778:17783   */\n      dup3\n        /* \"#utility.yul\":17760:17784   */\n      tag_440\n      jump\t// in\n    tag_439:\n        /* \"#utility.yul\":17749:17784   */\n      swap1\n      pop\n        /* \"#utility.yul\":17694:17790   */\n      swap2\n      swap1\n      pop\n      jump\t// out\n        /* \"#utility.yul\":17796:17900   */\n    tag_264:\n        /* \"#utility.yul\":17841:17848   */\n      0x00\n        /* \"#utility.yul\":17870:17894   */\n      tag_442\n        /* \"#utility.yul\":17888:17893   */\n      dup3\n        /* \"#utility.yul\":17870:17894   */\n      tag_440\n      jump\t// in\n    tag_442:\n        /* \"#utility.yul\":17859:17894   */\n      swap1\n      pop\n        /* \"#utility.yul\":17796:17900   */\n      swap2\n      swap1\n      pop\n      jump\t// out\n        /* \"#utility.yul\":17906:17996   */\n    tag_272:\n        /* \"#utility.yul\":17940:17947   */\n      0x00\n        /* \"#utility.yul\":17983:17988   */\n      dup2\n        /* \"#utility.yul\":17976:17989   */\n      iszero\n        /* \"#utility.yul\":17969:17990   */\n      iszero\n        /* \"#utility.yul\":17958:17990   */\n      swap1\n      pop\n        /* \"#utility.yul\":17906:17996   */\n      swap2\n      swap1\n      pop\n      jump\t// out\n        /* \"#utility.yul\":18002:18128   */\n    tag_440:\n        /* \"#utility.yul\":18039:18046   */\n      0x00\n        /* \"#utility.yul\":18079:18121   */\n      0xffffffffffffffffffffffffffffffffffffffff\n        /* \"#utility.yul\":18072:18077   */\n      dup3\n        /* \"#utility.yul\":18068:18122   */\n      and\n        /* \"#utility.yul\":18057:18122   */\n      swap1\n      pop\n        /* \"#utility.yul\":18002:18128   */\n      swap2\n      swap1\n      pop\n      jump\t// out\n        /* \"#utility.yul\":18134:18211   */\n    tag_346:\n        /* \"#utility.yul\":18171:18178   */\n      0x00\n        /* \"#utility.yul\":18200:18205   */\n      dup2\n        /* \"#utility.yul\":18189:18205   */\n      swap1\n      pop\n        /* \"#utility.yul\":18134:18211   */\n      swap2\n      swap1\n      pop\n      jump\t// out\n        /* \"#utility.yul\":18217:18303   */\n    tag_350:\n        /* \"#utility.yul\":18252:18259   */\n      0x00\n        /* \"#utility.yul\":18292:18296   */\n      0xff\n        /* \"#utility.yul\":18285:18290   */\n      dup3\n        /* \"#utility.yul\":18281:18297   */\n      and\n        /* \"#utility.yul\":18270:18297   */\n      swap1\n      pop\n        /* \"#utility.yul\":18217:18303   */\n      swap2\n      swap1\n      pop\n      jump\t// out\n        /* \"#utility.yul\":18309:18616   */\n    tag_280:\n        /* \"#utility.yul\":18377:18378   */\n      0x00\n        /* \"#utility.yul\":18387:18500   */\n    tag_448:\n        /* \"#utility.yul\":18401:18407   */\n      dup4\n        /* \"#utility.yul\":18398:18399   */\n      dup2\n        /* \"#utility.yul\":18395:18408   */\n      lt\n        /* \"#utility.yul\":18387:18500   */\n      iszero\n      tag_450\n      jumpi\n        /* \"#utility.yul\":18486:18487   */\n      dup1\n        /* \"#utility.yul\":18481:18484   */\n      dup3\n        /* \"#utility.yul\":18477:18488   */\n      add\n        /* \"#utility.yul\":18471:18489   */\n      mload\n        /* \"#utility.yul\":18467:18468   */\n      dup2\n        /* \"#utility.yul\":18462:18465   */\n      dup5\n        /* \"#utility.yul\":18458:18469   */\n      add\n        /* \"#utility.yul\":18451:18490   */\n      mstore\n        /* \"#utility.yul\":18423:18425   */\n      0x20\n        /* \"#utility.yul\":18420:18421   */\n      dup2\n        /* \"#utility.yul\":18416:18426   */\n      add\n        /* \"#utility.yul\":18411:18426   */\n      swap1\n      pop\n        /* \"#utility.yul\":18387:18500   */\n      jump(tag_448)\n    tag_450:\n        /* \"#utility.yul\":18518:18524   */\n      dup4\n        /* \"#utility.yul\":18515:18516   */\n      dup2\n        /* \"#utility.yul\":18512:18525   */\n      gt\n        /* \"#utility.yul\":18509:18610   */\n      iszero\n      tag_451\n      jumpi\n        /* \"#utility.yul\":18598:18599   */\n      0x00\n        /* \"#utility.yul\":18589:18595   */\n      dup5\n        /* \"#utility.yul\":18584:18587   */\n      dup5\n        /* \"#utility.yul\":18580:18596   */\n      add\n        /* \"#utility.yul\":18573:18600   */\n      mstore\n        /* \"#utility.yul\":18509:18610   */\n    tag_451:\n        /* \"#utility.yul\":18358:18616   */\n      pop\n        /* \"#utility.yul\":18309:18616   */\n      pop\n      pop\n      pop\n      jump\t// out\n        /* \"#utility.yul\":18622:18942   */\n    tag_98:\n        /* \"#utility.yul\":18666:18672   */\n      0x00\n        /* \"#utility.yul\":18703:18704   */\n      0x02\n        /* \"#utility.yul\":18697:18701   */\n      dup3\n        /* \"#utility.yul\":18693:18705   */\n      div\n        /* \"#utility.yul\":18683:18705   */\n      swap1\n      pop\n        /* \"#utility.yul\":18750:18751   */\n      0x01\n        /* \"#utility.yul\":18744:18748   */\n      dup3\n        /* \"#utility.yul\":18740:18752   */\n      and\n        /* \"#utility.yul\":18771:18789   */\n      dup1\n        /* \"#utility.yul\":18761:18842   */\n      tag_453\n      jumpi\n        /* \"#utility.yul\":18827:18831   */\n      0x7f\n        /* \"#utility.yul\":18819:18825   */\n      dup3\n        /* \"#utility.yul\":18815:18832   */\n      and\n        /* \"#utility.yul\":18805:18832   */\n      swap2\n      pop\n        /* \"#utility.yul\":18761:18842   */\n    tag_453:\n        /* \"#utility.yul\":18889:18891   */\n      0x20\n        /* \"#utility.yul\":18881:18887   */\n      dup3\n        /* \"#utility.yul\":18878:18892   */\n      lt\n        /* \"#utility.yul\":18858:18876   */\n      dup2\n        /* \"#utility.yul\":18855:18893   */\n      eq\n        /* \"#utility.yul\":18852:18936   */\n      iszero\n      tag_454\n      jumpi\n        /* \"#utility.yul\":18908:18926   */\n      tag_455\n      tag_456\n      jump\t// in\n    tag_455:\n        /* \"#utility.yul\":18852:18936   */\n    tag_454:\n        /* \"#utility.yul\":18673:18942   */\n      pop\n        /* \"#utility.yul\":18622:18942   */\n      swap2\n      swap1\n      pop\n      jump\t// out\n        /* \"#utility.yul\":18948:19128   */\n    tag_396:\n        /* \"#utility.yul\":18996:19073   */\n      0x4e487b7100000000000000000000000000000000000000000000000000000000\n        /* \"#utility.yul\":18993:18994   */\n      0x00\n        /* \"#utility.yul\":18986:19074   */\n      mstore\n        /* \"#utility.yul\":19093:19097   */\n      0x11\n        /* \"#utility.yul\":19090:19091   */\n      0x04\n        /* \"#utility.yul\":19083:19098   */\n      mstore\n        /* \"#utility.yul\":19117:19121   */\n      0x24\n        /* \"#utility.yul\":19114:19115   */\n      0x00\n        /* \"#utility.yul\":19107:19122   */\n      revert\n        /* \"#utility.yul\":19134:19314   */\n    tag_456:\n        /* \"#utility.yul\":19182:19259   */\n      0x4e487b7100000000000000000000000000000000000000000000000000000000\n        /* \"#utility.yul\":19179:19180   */\n      0x00\n        /* \"#utility.yul\":19172:19260   */\n      mstore\n        /* \"#utility.yul\":19279:19283   */\n      0x22\n        /* \"#utility.yul\":19276:19277   */\n      0x04\n        /* \"#utility.yul\":19269:19284   */\n      mstore\n        /* \"#utility.yul\":19303:19307   */\n      0x24\n        /* \"#utility.yul\":19300:19301   */\n      0x00\n        /* \"#utility.yul\":19293:19308   */\n      revert\n        /* \"#utility.yul\":19443:19560   */\n    tag_243:\n        /* \"#utility.yul\":19552:19553   */\n      0x00\n        /* \"#utility.yul\":19549:19550   */\n      dup1\n        /* \"#utility.yul\":19542:19554   */\n      revert\n        /* \"#utility.yul\":19566:19668   */\n    tag_282:\n        /* \"#utility.yul\":19607:19613   */\n      0x00\n        /* \"#utility.yul\":19658:19660   */\n      0x1f\n        /* \"#utility.yul\":19654:19661   */\n      not\n        /* \"#utility.yul\":19649:19651   */\n      0x1f\n        /* \"#utility.yul\":19642:19647   */\n      dup4\n        /* \"#utility.yul\":19638:19652   */\n      add\n        /* \"#utility.yul\":19634:19662   */\n      and\n        /* \"#utility.yul\":19624:19662   */\n      swap1\n      pop\n        /* \"#utility.yul\":19566:19668   */\n      swap2\n      swap1\n      pop\n      jump\t// out\n        /* \"#utility.yul\":19674:19776   */\n    tag_406:\n        /* \"#utility.yul\":19716:19724   */\n      0x00\n        /* \"#utility.yul\":19763:19768   */\n      dup2\n        /* \"#utility.yul\":19760:19761   */\n      0x01\n        /* \"#utility.yul\":19756:19769   */\n      shr\n        /* \"#utility.yul\":19735:19769   */\n      swap1\n      pop\n        /* \"#utility.yul\":19674:19776   */\n      swap2\n      swap1\n      pop\n      jump\t// out\n        /* \"#utility.yul\":19782:20004   */\n    tag_287:\n        /* \"#utility.yul\":19922:19956   */\n      0x45524332303a207472616e7366657220746f20746865207a65726f2061646472\n        /* \"#utility.yul\":19918:19919   */\n      0x00\n        /* \"#utility.yul\":19910:19916   */\n      dup3\n        /* \"#utility.yul\":19906:19920   */\n      add\n        /* \"#utility.yul\":19899:19957   */\n      mstore\n        /* \"#utility.yul\":19991:19996   */\n      0x6573730000000000000000000000000000000000000000000000000000000000\n        /* \"#utility.yul\":19986:19988   */\n      0x20\n        /* \"#utility.yul\":19978:19984   */\n      dup3\n        /* \"#utility.yul\":19974:19989   */\n      add\n        /* \"#utility.yul\":19967:19997   */\n      mstore\n        /* \"#utility.yul\":19782:20004   */\n      pop\n      jump\t// out\n        /* \"#utility.yul\":20010:20231   */\n    tag_292:\n        /* \"#utility.yul\":20150:20184   */\n      0x45524332303a206275726e20616d6f756e7420657863656564732062616c616e\n        /* \"#utility.yul\":20146:20147   */\n      0x00\n        /* \"#utility.yul\":20138:20144   */\n      dup3\n        /* \"#utility.yul\":20134:20148   */\n      add\n        /* \"#utility.yul\":20127:20185   */\n      mstore\n        /* \"#utility.yul\":20219:20223   */\n      0x6365000000000000000000000000000000000000000000000000000000000000\n        /* \"#utility.yul\":20214:20216   */\n      0x20\n        /* \"#utility.yul\":20206:20212   */\n      dup3\n        /* \"#utility.yul\":20202:20217   */\n      add\n        /* \"#utility.yul\":20195:20224   */\n      mstore\n        /* \"#utility.yul\":20010:20231   */\n      pop\n      jump\t// out\n        /* \"#utility.yul\":20237:20458   */\n    tag_297:\n        /* \"#utility.yul\":20377:20411   */\n      0x45524332303a20617070726f766520746f20746865207a65726f206164647265\n        /* \"#utility.yul\":20373:20374   */\n      0x00\n        /* \"#utility.yul\":20365:20371   */\n      dup3\n        /* \"#utility.yul\":20361:20375   */\n      add\n        /* \"#utility.yul\":20354:20412   */\n      mstore\n        /* \"#utility.yul\":20446:20450   */\n      0x7373000000000000000000000000000000000000000000000000000000000000\n        /* \"#utility.yul\":20441:20443   */\n      0x20\n        /* \"#utility.yul\":20433:20439   */\n      dup3\n        /* \"#utility.yul\":20429:20444   */\n      add\n        /* \"#utility.yul\":20422:20451   */\n      mstore\n        /* \"#utility.yul\":20237:20458   */\n      pop\n      jump\t// out\n        /* \"#utility.yul\":20464:20624   */\n    tag_302:\n        /* \"#utility.yul\":20604:20616   */\n      0x4f574e45525f4f4e4c5900000000000000000000000000000000000000000000\n        /* \"#utility.yul\":20600:20601   */\n      0x00\n        /* \"#utility.yul\":20592:20598   */\n      dup3\n        /* \"#utility.yul\":20588:20602   */\n      add\n        /* \"#utility.yul\":20581:20617   */\n      mstore\n        /* \"#utility.yul\":20464:20624   */\n      pop\n      jump\t// out\n        /* \"#utility.yul\":20630:20809   */\n    tag_307:\n        /* \"#utility.yul\":20770:20801   */\n      0x45524332303a20696e73756666696369656e7420616c6c6f77616e6365000000\n        /* \"#utility.yul\":20766:20767   */\n      0x00\n        /* \"#utility.yul\":20758:20764   */\n      dup3\n        /* \"#utility.yul\":20754:20768   */\n      add\n        /* \"#utility.yul\":20747:20802   */\n      mstore\n        /* \"#utility.yul\":20630:20809   */\n      pop\n      jump\t// out\n        /* \"#utility.yul\":20815:21040   */\n    tag_312:\n        /* \"#utility.yul\":20955:20989   */\n      0x45524332303a207472616e7366657220616d6f756e7420657863656564732062\n        /* \"#utility.yul\":20951:20952   */\n      0x00\n        /* \"#utility.yul\":20943:20949   */\n      dup3\n        /* \"#utility.yul\":20939:20953   */\n      add\n        /* \"#utility.yul\":20932:20990   */\n      mstore\n        /* \"#utility.yul\":21024:21032   */\n      0x616c616e63650000000000000000000000000000000000000000000000000000\n        /* \"#utility.yul\":21019:21021   */\n      0x20\n        /* \"#utility.yul\":21011:21017   */\n      dup3\n        /* \"#utility.yul\":21007:21022   */\n      add\n        /* \"#utility.yul\":21000:21033   */\n      mstore\n        /* \"#utility.yul\":20815:21040   */\n      pop\n      jump\t// out\n        /* \"#utility.yul\":21046:21266   */\n    tag_317:\n        /* \"#utility.yul\":21186:21220   */\n      0x45524332303a206275726e2066726f6d20746865207a65726f20616464726573\n        /* \"#utility.yul\":21182:21183   */\n      0x00\n        /* \"#utility.yul\":21174:21180   */\n      dup3\n        /* \"#utility.yul\":21170:21184   */\n      add\n        /* \"#utility.yul\":21163:21221   */\n      mstore\n        /* \"#utility.yul\":21255:21258   */\n      0x7300000000000000000000000000000000000000000000000000000000000000\n        /* \"#utility.yul\":21250:21252   */\n      0x20\n        /* \"#utility.yul\":21242:21248   */\n      dup3\n        /* \"#utility.yul\":21238:21253   */\n      add\n        /* \"#utility.yul\":21231:21259   */\n      mstore\n        /* \"#utility.yul\":21046:21266   */\n      pop\n      jump\t// out\n        /* \"#utility.yul\":21272:21496   */\n    tag_322:\n        /* \"#utility.yul\":21412:21446   */\n      0x45524332303a207472616e736665722066726f6d20746865207a65726f206164\n        /* \"#utility.yul\":21408:21409   */\n      0x00\n        /* \"#utility.yul\":21400:21406   */\n      dup3\n        /* \"#utility.yul\":21396:21410   */\n      add\n        /* \"#utility.yul\":21389:21447   */\n      mstore\n        /* \"#utility.yul\":21481:21488   */\n      0x6472657373000000000000000000000000000000000000000000000000000000\n        /* \"#utility.yul\":21476:21478   */\n      0x20\n        /* \"#utility.yul\":21468:21474   */\n      dup3\n        /* \"#utility.yul\":21464:21479   */\n      add\n        /* \"#utility.yul\":21457:21489   */\n      mstore\n        /* \"#utility.yul\":21272:21496   */\n      pop\n      jump\t// out\n        /* \"#utility.yul\":21502:21725   */\n    tag_327:\n        /* \"#utility.yul\":21642:21676   */\n      0x45524332303a20617070726f76652066726f6d20746865207a65726f20616464\n        /* \"#utility.yul\":21638:21639   */\n      0x00\n        /* \"#utility.yul\":21630:21636   */\n      dup3\n        /* \"#utility.yul\":21626:21640   */\n      add\n        /* \"#utility.yul\":21619:21677   */\n      mstore\n        /* \"#utility.yul\":21711:21717   */\n      0x7265737300000000000000000000000000000000000000000000000000000000\n        /* \"#utility.yul\":21706:21708   */\n      0x20\n        /* \"#utility.yul\":21698:21704   */\n      dup3\n        /* \"#utility.yul\":21694:21709   */\n      add\n        /* \"#utility.yul\":21687:21718   */\n      mstore\n        /* \"#utility.yul\":21502:21725   */\n      pop\n      jump\t// out\n        /* \"#utility.yul\":21731:21897   */\n    tag_332:\n        /* \"#utility.yul\":21871:21889   */\n      0x41424f56455f4d41585f535550504c5900000000000000000000000000000000\n        /* \"#utility.yul\":21867:21868   */\n      0x00\n        /* \"#utility.yul\":21859:21865   */\n      dup3\n        /* \"#utility.yul\":21855:21869   */\n      add\n        /* \"#utility.yul\":21848:21890   */\n      mstore\n        /* \"#utility.yul\":21731:21897   */\n      pop\n      jump\t// out\n        /* \"#utility.yul\":21903:22127   */\n    tag_337:\n        /* \"#utility.yul\":22043:22077   */\n      0x45524332303a2064656372656173656420616c6c6f77616e63652062656c6f77\n        /* \"#utility.yul\":22039:22040   */\n      0x00\n        /* \"#utility.yul\":22031:22037   */\n      dup3\n        /* \"#utility.yul\":22027:22041   */\n      add\n        /* \"#utility.yul\":22020:22078   */\n      mstore\n        /* \"#utility.yul\":22112:22119   */\n      0x207a65726f000000000000000000000000000000000000000000000000000000\n        /* \"#utility.yul\":22107:22109   */\n      0x20\n        /* \"#utility.yul\":22099:22105   */\n      dup3\n        /* \"#utility.yul\":22095:22110   */\n      add\n        /* \"#utility.yul\":22088:22120   */\n      mstore\n        /* \"#utility.yul\":21903:22127   */\n      pop\n      jump\t// out\n        /* \"#utility.yul\":22133:22314   */\n    tag_342:\n        /* \"#utility.yul\":22273:22306   */\n      0x45524332303a206d696e7420746f20746865207a65726f206164647265737300\n        /* \"#utility.yul\":22269:22270   */\n      0x00\n        /* \"#utility.yul\":22261:22267   */\n      dup3\n        /* \"#utility.yul\":22257:22271   */\n      add\n        /* \"#utility.yul\":22250:22307   */\n      mstore\n        /* \"#utility.yul\":22133:22314   */\n      pop\n      jump\t// out\n        /* \"#utility.yul\":22320:22442   */\n    tag_235:\n        /* \"#utility.yul\":22393:22417   */\n      tag_477\n        /* \"#utility.yul\":22411:22416   */\n      dup2\n        /* \"#utility.yul\":22393:22417   */\n      tag_268\n      jump\t// in\n    tag_477:\n        /* \"#utility.yul\":22386:22391   */\n      dup2\n        /* \"#utility.yul\":22383:22418   */\n      eq\n        /* \"#utility.yul\":22373:22436   */\n      tag_478\n      jumpi\n        /* \"#utility.yul\":22432:22433   */\n      0x00\n        /* \"#utility.yul\":22429:22430   */\n      dup1\n        /* \"#utility.yul\":22422:22434   */\n      revert\n        /* \"#utility.yul\":22373:22436   */\n    tag_478:\n        /* \"#utility.yul\":22320:22442   */\n      pop\n      jump\t// out\n        /* \"#utility.yul\":22448:22570   */\n    tag_239:\n        /* \"#utility.yul\":22521:22545   */\n      tag_480\n        /* \"#utility.yul\":22539:22544   */\n      dup2\n        /* \"#utility.yul\":22521:22545   */\n      tag_346\n      jump\t// in\n    tag_480:\n        /* \"#utility.yul\":22514:22519   */\n      dup2\n        /* \"#utility.yul\":22511:22546   */\n      eq\n        /* \"#utility.yul\":22501:22564   */\n      tag_481\n      jumpi\n        /* \"#utility.yul\":22560:22561   */\n      0x00\n        /* \"#utility.yul\":22557:22558   */\n      dup1\n        /* \"#utility.yul\":22550:22562   */\n      revert\n        /* \"#utility.yul\":22501:22564   */\n    tag_481:\n        /* \"#utility.yul\":22448:22570   */\n      pop\n      jump\t// out\n\n    auxdata: 0xa26469706673582212205e63b7c8e0bc10447c96df80cbe14901b030c3af1a1984d2660dcc6a609ed8e564736f6c63430008070033\n}\n",
				"bytecode": {
					"linkReferences": {},
					"object": "60806040523480156200001157600080fd5b50604051620026ea380380620026ea8339818101604052810190620000379190620003fb565b6040518060400160405280600a81526020017f764a4d5420546f6b656e000000000000000000000000000000000000000000008152506040518060400160405280600481526020017f764a4d54000000000000000000000000000000000000000000000000000000008152508160039080519060200190620000bb92919062000334565b508060049080519060200190620000d492919062000334565b505050620000e7620001a860201b60201c565b600a620000f591906200056d565b620927c0620001059190620006aa565b6005819055506200011f30600554620001b160201b60201c565b33600660006101000a81548173ffffffffffffffffffffffffffffffffffffffff021916908373ffffffffffffffffffffffffffffffffffffffff16021790555080600760006101000a81548173ffffffffffffffffffffffffffffffffffffffff021916908373ffffffffffffffffffffffffffffffffffffffff160217905550506200083f565b60006012905090565b600073ffffffffffffffffffffffffffffffffffffffff168273ffffffffffffffffffffffffffffffffffffffff16141562000224576040517f08c379a00000000000000000000000000000000000000000000000000000000081526004016200021b9062000465565b60405180910390fd5b62000238600083836200032a60201b60201c565b80600260008282546200024c9190620004b5565b92505081905550806000808473ffffffffffffffffffffffffffffffffffffffff1673ffffffffffffffffffffffffffffffffffffffff1681526020019081526020016000206000828254620002a39190620004b5565b925050819055508173ffffffffffffffffffffffffffffffffffffffff16600073ffffffffffffffffffffffffffffffffffffffff167fddf252ad1be2c89b69c2b068fc378daa952ba7f163c4a11628f55a4df523b3ef836040516200030a919062000487565b60405180910390a362000326600083836200032f60201b60201c565b5050565b505050565b505050565b828054620003429062000756565b90600052602060002090601f016020900481019282620003665760008555620003b2565b82601f106200038157805160ff1916838001178555620003b2565b82800160010185558215620003b2579182015b82811115620003b157825182559160200191906001019062000394565b5b509050620003c19190620003c5565b5090565b5b80821115620003e0576000816000905550600101620003c6565b5090565b600081519050620003f58162000825565b92915050565b600060208284031215620004145762000413620007ea565b5b60006200042484828501620003e4565b91505092915050565b60006200043c601f83620004a4565b91506200044982620007fc565b602082019050919050565b6200045f816200073f565b82525050565b6000602082019050818103600083015262000480816200042d565b9050919050565b60006020820190506200049e600083018462000454565b92915050565b600082825260208201905092915050565b6000620004c2826200073f565b9150620004cf836200073f565b9250827fffffffffffffffffffffffffffffffffffffffffffffffffffffffffffffffff038211156200050757620005066200078c565b5b828201905092915050565b6000808291508390505b600185111562000564578086048111156200053c576200053b6200078c565b5b60018516156200054c5780820291505b80810290506200055c85620007ef565b94506200051c565b94509492505050565b60006200057a826200073f565b9150620005878362000749565b9250620005b67fffffffffffffffffffffffffffffffffffffffffffffffffffffffffffffffff8484620005be565b905092915050565b600082620005d05760019050620006a3565b81620005e05760009050620006a3565b8160018114620005f9576002811462000604576200063a565b6001915050620006a3565b60ff8411156200061957620006186200078c565b5b8360020a9150848211156200063357620006326200078c565b5b50620006a3565b5060208310610133831016604e8410600b8410161715620006745782820a9050838111156200066e576200066d6200078c565b5b620006a3565b62000683848484600162000512565b925090508184048111156200069d576200069c6200078c565b5b81810290505b9392505050565b6000620006b7826200073f565b9150620006c4836200073f565b9250817fffffffffffffffffffffffffffffffffffffffffffffffffffffffffffffffff04831182151516156200070057620006ff6200078c565b5b828202905092915050565b600062000718826200071f565b9050919050565b600073ffffffffffffffffffffffffffffffffffffffff82169050919050565b6000819050919050565b600060ff82169050919050565b600060028204905060018216806200076f57607f821691505b60208210811415620007865762000785620007bb565b5b50919050565b7f4e487b7100000000000000000000000000000000000000000000000000000000600052601160045260246000fd5b7f4e487b7100000000000000000000000000000000000000000000000000000000600052602260045260246000fd5b600080fd5b60008160011c9050919050565b7f45524332303a206d696e7420746f20746865207a65726f206164647265737300600082015250565b62000830816200070b565b81146200083c57600080fd5b50565b611e9b806200084f6000396000f3fe608060405234801561001057600080fd5b50600436106101165760003560e01c806370a08231116100a2578063a457c2d711610071578063a457c2d7146102e5578063a9059cbb14610315578063d83a2bf314610345578063d86b372114610375578063dd62ed3e1461039357610116565b806370a082311461025d5780638da5cb5b1461028d57806395d89b41146102ab5780639dc29fac146102c957610116565b8063313ce567116100e9578063313ce567146101b757806332cb6b0c146101d557806339509351146101f357806340c10f19146102235780634626402b1461023f57610116565b806306fdde031461011b578063095ea7b31461013957806318160ddd1461016957806323b872dd14610187575b600080fd5b6101236103c3565b6040516101309190611585565b60405180910390f35b610153600480360381019061014e91906112cc565b610455565b604051610160919061156a565b60405180910390f35b610171610478565b60405161017e9190611727565b60405180910390f35b6101a1600480360381019061019c9190611279565b610482565b6040516101ae919061156a565b60405180910390f35b6101bf6104b1565b6040516101cc9190611742565b60405180910390f35b6101dd6104ba565b6040516101ea9190611727565b60405180910390f35b61020d600480360381019061020891906112cc565b6104c0565b60405161021a919061156a565b60405180910390f35b61023d600480360381019061023891906112cc565b6104f7565b005b61024761067a565b604051610254919061154f565b60405180910390f35b6102776004803603810190610272919061120c565b6106a0565b6040516102849190611727565b60405180910390f35b6102956106e8565b6040516102a29190611534565b60405180910390f35b6102b361070e565b6040516102c09190611585565b60405180910390f35b6102e360048036038101906102de91906112cc565b6107a0565b005b6102ff60048036038101906102fa91906112cc565b61085c565b60405161030c919061156a565b60405180910390f35b61032f600480360381019061032a91906112cc565b6108d3565b60405161033c919061156a565b60405180910390f35b61035f600480360381019061035a9190611279565b6108f6565b60405161036c919061156a565b60405180910390f35b61037d610922565b60405161038a9190611727565b60405180910390f35b6103ad60048036038101906103a89190611239565b61092a565b6040516103ba9190611727565b60405180910390f35b6060600380546103d290611a68565b80601f01602080910402602001604051908101604052809291908181526020018280546103fe90611a68565b801561044b5780601f106104205761010080835404028352916020019161044b565b820191906000526020600020905b81548152906001019060200180831161042e57829003601f168201915b5050505050905090565b6000806104606109b1565b905061046d8185856109b9565b600191505092915050565b6000600254905090565b60008061048d6109b1565b905061049a858285610b84565b6104a5858585610c10565b60019150509392505050565b60006012905090565b60055481565b6000806104cb6109b1565b90506104ec8185856104dd858961092a565b6104e79190611779565b6109b9565b600191505092915050565b600660009054906101000a900473ffffffffffffffffffffffffffffffffffffffff1673ffffffffffffffffffffffffffffffffffffffff163373ffffffffffffffffffffffffffffffffffffffff1614610587576040517f08c379a000000000000000000000000000000000000000000000000000000000815260040161057e90611607565b60405180910390fd5b600073ffffffffffffffffffffffffffffffffffffffff168273ffffffffffffffffffffffffffffffffffffffff1614156105f7576040517f08c379a00000000000000000000000000000000000000000000000000000000081526004016105ee90611707565b60405180910390fd5b60055481610603610478565b61060d9190611779565b111561064e576040517f08c379a0000000000000000000000000000000000000000000000000000000008152600401610645906116c7565b60405180910390fd5b6106768261065a6104b1565b600a6106669190611822565b836106719190611940565b610c20565b5050565b600760009054906101000a900473ffffffffffffffffffffffffffffffffffffffff1681565b60008060008373ffffffffffffffffffffffffffffffffffffffff1673ffffffffffffffffffffffffffffffffffffffff168152602001908152602001600020549050919050565b600660009054906101000a900473ffffffffffffffffffffffffffffffffffffffff1681565b60606004805461071d90611a68565b80601f016020809104026020016040519081016040528092919081815260200182805461074990611a68565b80156107965780601f1061076b57610100808354040283529160200191610796565b820191906000526020600020905b81548152906001019060200180831161077957829003601f168201915b5050505050905090565b600660009054906101000a900473ffffffffffffffffffffffffffffffffffffffff1673ffffffffffffffffffffffffffffffffffffffff163373ffffffffffffffffffffffffffffffffffffffff1614610830576040517f08c379a000000000000000000000000000000000000000000000000000000000815260040161082790611607565b60405180910390fd5b6108588261083c6104b1565b600a6108489190611822565b836108539190611940565b610d80565b5050565b6000806108676109b1565b90506000610875828661092a565b9050838110156108ba576040517f08c379a00000000000000000000000000000000000000000000000000000000081526004016108b1906116e7565b60405180910390fd5b6108c782868684036109b9565b60019250505092915050565b6000806108de6109b1565b90506108eb818585610c10565b600191505092915050565b6000610917848484610908333061092a565b6109129190611779565b6109b9565b600190509392505050565b600042905090565b6000600160008473ffffffffffffffffffffffffffffffffffffffff1673ffffffffffffffffffffffffffffffffffffffff16815260200190815260200160002060008373ffffffffffffffffffffffffffffffffffffffff1673ffffffffffffffffffffffffffffffffffffffff16815260200190815260200160002054905092915050565b600033905090565b600073ffffffffffffffffffffffffffffffffffffffff168373ffffffffffffffffffffffffffffffffffffffff161415610a29576040517f08c379a0000000000000000000000000000000000000000000000000000000008152600401610a20906116a7565b60405180910390fd5b600073ffffffffffffffffffffffffffffffffffffffff168273ffffffffffffffffffffffffffffffffffffffff161415610a99576040517f08c379a0000000000000000000000000000000000000000000000000000000008152600401610a90906115e7565b60405180910390fd5b80600160008573ffffffffffffffffffffffffffffffffffffffff1673ffffffffffffffffffffffffffffffffffffffff16815260200190815260200160002060008473ffffffffffffffffffffffffffffffffffffffff1673ffffffffffffffffffffffffffffffffffffffff168152602001908152602001600020819055508173ffffffffffffffffffffffffffffffffffffffff168373ffffffffffffffffffffffffffffffffffffffff167f8c5be1e5ebec7d5bd14f71427d1e84f3dd0314c0f7b2291e5b200ac8c7c3b92583604051610b779190611727565b60405180910390a3505050565b6000610b90848461092a565b90507fffffffffffffffffffffffffffffffffffffffffffffffffffffffffffffffff8114610c0a5781811015610bfc576040517f08c379a0000000000000000000000000000000000000000000000000000000008152600401610bf390611627565b60405180910390fd5b610c0984848484036109b9565b5b50505050565b610c1b838383610f57565b505050565b600073ffffffffffffffffffffffffffffffffffffffff168273ffffffffffffffffffffffffffffffffffffffff161415610c90576040517f08c379a0000000000000000000000000000000000000000000000000000000008152600401610c8790611707565b60405180910390fd5b610c9c600083836111d8565b8060026000828254610cae9190611779565b92505081905550806000808473ffffffffffffffffffffffffffffffffffffffff1673ffffffffffffffffffffffffffffffffffffffff1681526020019081526020016000206000828254610d039190611779565b925050819055508173ffffffffffffffffffffffffffffffffffffffff16600073ffffffffffffffffffffffffffffffffffffffff167fddf252ad1be2c89b69c2b068fc378daa952ba7f163c4a11628f55a4df523b3ef83604051610d689190611727565b60405180910390a3610d7c600083836111dd565b5050565b600073ffffffffffffffffffffffffffffffffffffffff168273ffffffffffffffffffffffffffffffffffffffff161415610df0576040517f08c379a0000000000000000000000000000000000000000000000000000000008152600401610de790611667565b60405180910390fd5b610dfc826000836111d8565b60008060008473ffffffffffffffffffffffffffffffffffffffff1673ffffffffffffffffffffffffffffffffffffffff16815260200190815260200160002054905081811015610e82576040517f08c379a0000000000000000000000000000000000000000000000000000000008152600401610e79906115c7565b60405180910390fd5b8181036000808573ffffffffffffffffffffffffffffffffffffffff1673ffffffffffffffffffffffffffffffffffffffff168152602001908152602001600020819055508160026000828254610ed9919061199a565b92505081905550600073ffffffffffffffffffffffffffffffffffffffff168373ffffffffffffffffffffffffffffffffffffffff167fddf252ad1be2c89b69c2b068fc378daa952ba7f163c4a11628f55a4df523b3ef84604051610f3e9190611727565b60405180910390a3610f52836000846111dd565b505050565b600073ffffffffffffffffffffffffffffffffffffffff168373ffffffffffffffffffffffffffffffffffffffff161415610fc7576040517f08c379a0000000000000000000000000000000000000000000000000000000008152600401610fbe90611687565b60405180910390fd5b600073ffffffffffffffffffffffffffffffffffffffff168273ffffffffffffffffffffffffffffffffffffffff161415611037576040517f08c379a000000000000000000000000000000000000000000000000000000000815260040161102e906115a7565b60405180910390fd5b6110428383836111d8565b60008060008573ffffffffffffffffffffffffffffffffffffffff1673ffffffffffffffffffffffffffffffffffffffff168152602001908152602001600020549050818110156110c8576040517f08c379a00000000000000000000000000000000000000000000000000000000081526004016110bf90611647565b60405180910390fd5b8181036000808673ffffffffffffffffffffffffffffffffffffffff1673ffffffffffffffffffffffffffffffffffffffff16815260200190815260200160002081905550816000808573ffffffffffffffffffffffffffffffffffffffff1673ffffffffffffffffffffffffffffffffffffffff168152602001908152602001600020600082825461115b9190611779565b925050819055508273ffffffffffffffffffffffffffffffffffffffff168473ffffffffffffffffffffffffffffffffffffffff167fddf252ad1be2c89b69c2b068fc378daa952ba7f163c4a11628f55a4df523b3ef846040516111bf9190611727565b60405180910390a36111d28484846111dd565b50505050565b505050565b505050565b6000813590506111f181611e37565b92915050565b60008135905061120681611e4e565b92915050565b60006020828403121561122257611221611af8565b5b6000611230848285016111e2565b91505092915050565b600080604083850312156112505761124f611af8565b5b600061125e858286016111e2565b925050602061126f858286016111e2565b9150509250929050565b60008060006060848603121561129257611291611af8565b5b60006112a0868287016111e2565b93505060206112b1868287016111e2565b92505060406112c2868287016111f7565b9150509250925092565b600080604083850312156112e3576112e2611af8565b5b60006112f1858286016111e2565b9250506020611302858286016111f7565b9150509250929050565b611315816119e0565b82525050565b611324816119ce565b82525050565b611333816119f2565b82525050565b60006113448261175d565b61134e8185611768565b935061135e818560208601611a35565b61136781611afd565b840191505092915050565b600061137f602383611768565b915061138a82611b1b565b604082019050919050565b60006113a2602283611768565b91506113ad82611b6a565b604082019050919050565b60006113c5602283611768565b91506113d082611bb9565b604082019050919050565b60006113e8600a83611768565b91506113f382611c08565b602082019050919050565b600061140b601d83611768565b915061141682611c31565b602082019050919050565b600061142e602683611768565b915061143982611c5a565b604082019050919050565b6000611451602183611768565b915061145c82611ca9565b604082019050919050565b6000611474602583611768565b915061147f82611cf8565b604082019050919050565b6000611497602483611768565b91506114a282611d47565b604082019050919050565b60006114ba601083611768565b91506114c582611d96565b602082019050919050565b60006114dd602583611768565b91506114e882611dbf565b604082019050919050565b6000611500601f83611768565b915061150b82611e0e565b602082019050919050565b61151f81611a1e565b82525050565b61152e81611a28565b82525050565b6000602082019050611549600083018461131b565b92915050565b6000602082019050611564600083018461130c565b92915050565b600060208201905061157f600083018461132a565b92915050565b6000602082019050818103600083015261159f8184611339565b905092915050565b600060208201905081810360008301526115c081611372565b9050919050565b600060208201905081810360008301526115e081611395565b9050919050565b60006020820190508181036000830152611600816113b8565b9050919050565b60006020820190508181036000830152611620816113db565b9050919050565b60006020820190508181036000830152611640816113fe565b9050919050565b6000602082019050818103600083015261166081611421565b9050919050565b6000602082019050818103600083015261168081611444565b9050919050565b600060208201905081810360008301526116a081611467565b9050919050565b600060208201905081810360008301526116c08161148a565b9050919050565b600060208201905081810360008301526116e0816114ad565b9050919050565b60006020820190508181036000830152611700816114d0565b9050919050565b60006020820190508181036000830152611720816114f3565b9050919050565b600060208201905061173c6000830184611516565b92915050565b60006020820190506117576000830184611525565b92915050565b600081519050919050565b600082825260208201905092915050565b600061178482611a1e565b915061178f83611a1e565b9250827fffffffffffffffffffffffffffffffffffffffffffffffffffffffffffffffff038211156117c4576117c3611a9a565b5b828201905092915050565b6000808291508390505b6001851115611819578086048111156117f5576117f4611a9a565b5b60018516156118045780820291505b808102905061181285611b0e565b94506117d9565b94509492505050565b600061182d82611a1e565b915061183883611a28565b92506118657fffffffffffffffffffffffffffffffffffffffffffffffffffffffffffffffff848461186d565b905092915050565b60008261187d5760019050611939565b8161188b5760009050611939565b81600181146118a157600281146118ab576118da565b6001915050611939565b60ff8411156118bd576118bc611a9a565b5b8360020a9150848211156118d4576118d3611a9a565b5b50611939565b5060208310610133831016604e8410600b841016171561190f5782820a90508381111561190a57611909611a9a565b5b611939565b61191c84848460016117cf565b9250905081840481111561193357611932611a9a565b5b81810290505b9392505050565b600061194b82611a1e565b915061195683611a1e565b9250817fffffffffffffffffffffffffffffffffffffffffffffffffffffffffffffffff048311821515161561198f5761198e611a9a565b5b828202905092915050565b60006119a582611a1e565b91506119b083611a1e565b9250828210156119c3576119c2611a9a565b5b828203905092915050565b60006119d9826119fe565b9050919050565b60006119eb826119fe565b9050919050565b60008115159050919050565b600073ffffffffffffffffffffffffffffffffffffffff82169050919050565b6000819050919050565b600060ff82169050919050565b60005b83811015611a53578082015181840152602081019050611a38565b83811115611a62576000848401525b50505050565b60006002820490506001821680611a8057607f821691505b60208210811415611a9457611a93611ac9565b5b50919050565b7f4e487b7100000000000000000000000000000000000000000000000000000000600052601160045260246000fd5b7f4e487b7100000000000000000000000000000000000000000000000000000000600052602260045260246000fd5b600080fd5b6000601f19601f8301169050919050565b60008160011c9050919050565b7f45524332303a207472616e7366657220746f20746865207a65726f206164647260008201527f6573730000000000000000000000000000000000000000000000000000000000602082015250565b7f45524332303a206275726e20616d6f756e7420657863656564732062616c616e60008201527f6365000000000000000000000000000000000000000000000000000000000000602082015250565b7f45524332303a20617070726f766520746f20746865207a65726f20616464726560008201527f7373000000000000000000000000000000000000000000000000000000000000602082015250565b7f4f574e45525f4f4e4c5900000000000000000000000000000000000000000000600082015250565b7f45524332303a20696e73756666696369656e7420616c6c6f77616e6365000000600082015250565b7f45524332303a207472616e7366657220616d6f756e742065786365656473206260008201527f616c616e63650000000000000000000000000000000000000000000000000000602082015250565b7f45524332303a206275726e2066726f6d20746865207a65726f2061646472657360008201527f7300000000000000000000000000000000000000000000000000000000000000602082015250565b7f45524332303a207472616e736665722066726f6d20746865207a65726f20616460008201527f6472657373000000000000000000000000000000000000000000000000000000602082015250565b7f45524332303a20617070726f76652066726f6d20746865207a65726f2061646460008201527f7265737300000000000000000000000000000000000000000000000000000000602082015250565b7f41424f56455f4d41585f535550504c5900000000000000000000000000000000600082015250565b7f45524332303a2064656372656173656420616c6c6f77616e63652062656c6f7760008201527f207a65726f000000000000000000000000000000000000000000000000000000602082015250565b7f45524332303a206d696e7420746f20746865207a65726f206164647265737300600082015250565b611e40816119ce565b8114611e4b57600080fd5b50565b611e5781611a1e565b8114611e6257600080fd5b5056fea26469706673582212205e63b7c8e0bc10447c96df80cbe14901b030c3af1a1984d2660dcc6a609ed8e564736f6c63430008070033",
					"opcodes": "PUSH1 0x80 PUSH1 0x40 MSTORE CALLVALUE DUP1 ISZERO PUSH3 0x11 JUMPI PUSH1 0x0 DUP1 REVERT JUMPDEST POP PUSH1 0x40 MLOAD PUSH3 0x26EA CODESIZE SUB DUP1 PUSH3 0x26EA DUP4 CODECOPY DUP2 DUP2 ADD PUSH1 0x40 MSTORE DUP2 ADD SWAP1 PUSH3 0x37 SWAP2 SWAP1 PUSH3 0x3FB JUMP JUMPDEST PUSH1 0x40 MLOAD DUP1 PUSH1 0x40 ADD PUSH1 0x40 MSTORE DUP1 PUSH1 0xA DUP2 MSTORE PUSH1 0x20 ADD PUSH32 0x764A4D5420546F6B656E00000000000000000000000000000000000000000000 DUP2 MSTORE POP PUSH1 0x40 MLOAD DUP1 PUSH1 0x40 ADD PUSH1 0x40 MSTORE DUP1 PUSH1 0x4 DUP2 MSTORE PUSH1 0x20 ADD PUSH32 0x764A4D5400000000000000000000000000000000000000000000000000000000 DUP2 MSTORE POP DUP2 PUSH1 0x3 SWAP1 DUP1 MLOAD SWAP1 PUSH1 0x20 ADD SWAP1 PUSH3 0xBB SWAP3 SWAP2 SWAP1 PUSH3 0x334 JUMP JUMPDEST POP DUP1 PUSH1 0x4 SWAP1 DUP1 MLOAD SWAP1 PUSH1 0x20 ADD SWAP1 PUSH3 0xD4 SWAP3 SWAP2 SWAP1 PUSH3 0x334 JUMP JUMPDEST POP POP POP PUSH3 0xE7 PUSH3 0x1A8 PUSH1 0x20 SHL PUSH1 0x20 SHR JUMP JUMPDEST PUSH1 0xA PUSH3 0xF5 SWAP2 SWAP1 PUSH3 0x56D JUMP JUMPDEST PUSH3 0x927C0 PUSH3 0x105 SWAP2 SWAP1 PUSH3 0x6AA JUMP JUMPDEST PUSH1 0x5 DUP2 SWAP1 SSTORE POP PUSH3 0x11F ADDRESS PUSH1 0x5 SLOAD PUSH3 0x1B1 PUSH1 0x20 SHL PUSH1 0x20 SHR JUMP JUMPDEST CALLER PUSH1 0x6 PUSH1 0x0 PUSH2 0x100 EXP DUP2 SLOAD DUP2 PUSH20 0xFFFFFFFFFFFFFFFFFFFFFFFFFFFFFFFFFFFFFFFF MUL NOT AND SWAP1 DUP4 PUSH20 0xFFFFFFFFFFFFFFFFFFFFFFFFFFFFFFFFFFFFFFFF AND MUL OR SWAP1 SSTORE POP DUP1 PUSH1 0x7 PUSH1 0x0 PUSH2 0x100 EXP DUP2 SLOAD DUP2 PUSH20 0xFFFFFFFFFFFFFFFFFFFFFFFFFFFFFFFFFFFFFFFF MUL NOT AND SWAP1 DUP4 PUSH20 0xFFFFFFFFFFFFFFFFFFFFFFFFFFFFFFFFFFFFFFFF AND MUL OR SWAP1 SSTORE POP POP PUSH3 0x83F JUMP JUMPDEST PUSH1 0x0 PUSH1 0x12 SWAP1 POP SWAP1 JUMP JUMPDEST PUSH1 0x0 PUSH20 0xFFFFFFFFFFFFFFFFFFFFFFFFFFFFFFFFFFFFFFFF AND DUP3 PUSH20 0xFFFFFFFFFFFFFFFFFFFFFFFFFFFFFFFFFFFFFFFF AND EQ ISZERO PUSH3 0x224 JUMPI PUSH1 0x40 MLOAD PUSH32 0x8C379A000000000000000000000000000000000000000000000000000000000 DUP2 MSTORE PUSH1 0x4 ADD PUSH3 0x21B SWAP1 PUSH3 0x465 JUMP JUMPDEST PUSH1 0x40 MLOAD DUP1 SWAP2 SUB SWAP1 REVERT JUMPDEST PUSH3 0x238 PUSH1 0x0 DUP4 DUP4 PUSH3 0x32A PUSH1 0x20 SHL PUSH1 0x20 SHR JUMP JUMPDEST DUP1 PUSH1 0x2 PUSH1 0x0 DUP3 DUP3 SLOAD PUSH3 0x24C SWAP2 SWAP1 PUSH3 0x4B5 JUMP JUMPDEST SWAP3 POP POP DUP2 SWAP1 SSTORE POP DUP1 PUSH1 0x0 DUP1 DUP5 PUSH20 0xFFFFFFFFFFFFFFFFFFFFFFFFFFFFFFFFFFFFFFFF AND PUSH20 0xFFFFFFFFFFFFFFFFFFFFFFFFFFFFFFFFFFFFFFFF AND DUP2 MSTORE PUSH1 0x20 ADD SWAP1 DUP2 MSTORE PUSH1 0x20 ADD PUSH1 0x0 KECCAK256 PUSH1 0x0 DUP3 DUP3 SLOAD PUSH3 0x2A3 SWAP2 SWAP1 PUSH3 0x4B5 JUMP JUMPDEST SWAP3 POP POP DUP2 SWAP1 SSTORE POP DUP2 PUSH20 0xFFFFFFFFFFFFFFFFFFFFFFFFFFFFFFFFFFFFFFFF AND PUSH1 0x0 PUSH20 0xFFFFFFFFFFFFFFFFFFFFFFFFFFFFFFFFFFFFFFFF AND PUSH32 0xDDF252AD1BE2C89B69C2B068FC378DAA952BA7F163C4A11628F55A4DF523B3EF DUP4 PUSH1 0x40 MLOAD PUSH3 0x30A SWAP2 SWAP1 PUSH3 0x487 JUMP JUMPDEST PUSH1 0x40 MLOAD DUP1 SWAP2 SUB SWAP1 LOG3 PUSH3 0x326 PUSH1 0x0 DUP4 DUP4 PUSH3 0x32F PUSH1 0x20 SHL PUSH1 0x20 SHR JUMP JUMPDEST POP POP JUMP JUMPDEST POP POP POP JUMP JUMPDEST POP POP POP JUMP JUMPDEST DUP3 DUP1 SLOAD PUSH3 0x342 SWAP1 PUSH3 0x756 JUMP JUMPDEST SWAP1 PUSH1 0x0 MSTORE PUSH1 0x20 PUSH1 0x0 KECCAK256 SWAP1 PUSH1 0x1F ADD PUSH1 0x20 SWAP1 DIV DUP2 ADD SWAP3 DUP3 PUSH3 0x366 JUMPI PUSH1 0x0 DUP6 SSTORE PUSH3 0x3B2 JUMP JUMPDEST DUP3 PUSH1 0x1F LT PUSH3 0x381 JUMPI DUP1 MLOAD PUSH1 0xFF NOT AND DUP4 DUP1 ADD OR DUP6 SSTORE PUSH3 0x3B2 JUMP JUMPDEST DUP3 DUP1 ADD PUSH1 0x1 ADD DUP6 SSTORE DUP3 ISZERO PUSH3 0x3B2 JUMPI SWAP2 DUP3 ADD JUMPDEST DUP3 DUP2 GT ISZERO PUSH3 0x3B1 JUMPI DUP3 MLOAD DUP3 SSTORE SWAP2 PUSH1 0x20 ADD SWAP2 SWAP1 PUSH1 0x1 ADD SWAP1 PUSH3 0x394 JUMP JUMPDEST JUMPDEST POP SWAP1 POP PUSH3 0x3C1 SWAP2 SWAP1 PUSH3 0x3C5 JUMP JUMPDEST POP SWAP1 JUMP JUMPDEST JUMPDEST DUP1 DUP3 GT ISZERO PUSH3 0x3E0 JUMPI PUSH1 0x0 DUP2 PUSH1 0x0 SWAP1 SSTORE POP PUSH1 0x1 ADD PUSH3 0x3C6 JUMP JUMPDEST POP SWAP1 JUMP JUMPDEST PUSH1 0x0 DUP2 MLOAD SWAP1 POP PUSH3 0x3F5 DUP2 PUSH3 0x825 JUMP JUMPDEST SWAP3 SWAP2 POP POP JUMP JUMPDEST PUSH1 0x0 PUSH1 0x20 DUP3 DUP5 SUB SLT ISZERO PUSH3 0x414 JUMPI PUSH3 0x413 PUSH3 0x7EA JUMP JUMPDEST JUMPDEST PUSH1 0x0 PUSH3 0x424 DUP5 DUP3 DUP6 ADD PUSH3 0x3E4 JUMP JUMPDEST SWAP2 POP POP SWAP3 SWAP2 POP POP JUMP JUMPDEST PUSH1 0x0 PUSH3 0x43C PUSH1 0x1F DUP4 PUSH3 0x4A4 JUMP JUMPDEST SWAP2 POP PUSH3 0x449 DUP3 PUSH3 0x7FC JUMP JUMPDEST PUSH1 0x20 DUP3 ADD SWAP1 POP SWAP2 SWAP1 POP JUMP JUMPDEST PUSH3 0x45F DUP2 PUSH3 0x73F JUMP JUMPDEST DUP3 MSTORE POP POP JUMP JUMPDEST PUSH1 0x0 PUSH1 0x20 DUP3 ADD SWAP1 POP DUP2 DUP2 SUB PUSH1 0x0 DUP4 ADD MSTORE PUSH3 0x480 DUP2 PUSH3 0x42D JUMP JUMPDEST SWAP1 POP SWAP2 SWAP1 POP JUMP JUMPDEST PUSH1 0x0 PUSH1 0x20 DUP3 ADD SWAP1 POP PUSH3 0x49E PUSH1 0x0 DUP4 ADD DUP5 PUSH3 0x454 JUMP JUMPDEST SWAP3 SWAP2 POP POP JUMP JUMPDEST PUSH1 0x0 DUP3 DUP3 MSTORE PUSH1 0x20 DUP3 ADD SWAP1 POP SWAP3 SWAP2 POP POP JUMP JUMPDEST PUSH1 0x0 PUSH3 0x4C2 DUP3 PUSH3 0x73F JUMP JUMPDEST SWAP2 POP PUSH3 0x4CF DUP4 PUSH3 0x73F JUMP JUMPDEST SWAP3 POP DUP3 PUSH32 0xFFFFFFFFFFFFFFFFFFFFFFFFFFFFFFFFFFFFFFFFFFFFFFFFFFFFFFFFFFFFFFFF SUB DUP3 GT ISZERO PUSH3 0x507 JUMPI PUSH3 0x506 PUSH3 0x78C JUMP JUMPDEST JUMPDEST DUP3 DUP3 ADD SWAP1 POP SWAP3 SWAP2 POP POP JUMP JUMPDEST PUSH1 0x0 DUP1 DUP3 SWAP2 POP DUP4 SWAP1 POP JUMPDEST PUSH1 0x1 DUP6 GT ISZERO PUSH3 0x564 JUMPI DUP1 DUP7 DIV DUP2 GT ISZERO PUSH3 0x53C JUMPI PUSH3 0x53B PUSH3 0x78C JUMP JUMPDEST JUMPDEST PUSH1 0x1 DUP6 AND ISZERO PUSH3 0x54C JUMPI DUP1 DUP3 MUL SWAP2 POP JUMPDEST DUP1 DUP2 MUL SWAP1 POP PUSH3 0x55C DUP6 PUSH3 0x7EF JUMP JUMPDEST SWAP5 POP PUSH3 0x51C JUMP JUMPDEST SWAP5 POP SWAP5 SWAP3 POP POP POP JUMP JUMPDEST PUSH1 0x0 PUSH3 0x57A DUP3 PUSH3 0x73F JUMP JUMPDEST SWAP2 POP PUSH3 0x587 DUP4 PUSH3 0x749 JUMP JUMPDEST SWAP3 POP PUSH3 0x5B6 PUSH32 0xFFFFFFFFFFFFFFFFFFFFFFFFFFFFFFFFFFFFFFFFFFFFFFFFFFFFFFFFFFFFFFFF DUP5 DUP5 PUSH3 0x5BE JUMP JUMPDEST SWAP1 POP SWAP3 SWAP2 POP POP JUMP JUMPDEST PUSH1 0x0 DUP3 PUSH3 0x5D0 JUMPI PUSH1 0x1 SWAP1 POP PUSH3 0x6A3 JUMP JUMPDEST DUP2 PUSH3 0x5E0 JUMPI PUSH1 0x0 SWAP1 POP PUSH3 0x6A3 JUMP JUMPDEST DUP2 PUSH1 0x1 DUP2 EQ PUSH3 0x5F9 JUMPI PUSH1 0x2 DUP2 EQ PUSH3 0x604 JUMPI PUSH3 0x63A JUMP JUMPDEST PUSH1 0x1 SWAP2 POP POP PUSH3 0x6A3 JUMP JUMPDEST PUSH1 0xFF DUP5 GT ISZERO PUSH3 0x619 JUMPI PUSH3 0x618 PUSH3 0x78C JUMP JUMPDEST JUMPDEST DUP4 PUSH1 0x2 EXP SWAP2 POP DUP5 DUP3 GT ISZERO PUSH3 0x633 JUMPI PUSH3 0x632 PUSH3 0x78C JUMP JUMPDEST JUMPDEST POP PUSH3 0x6A3 JUMP JUMPDEST POP PUSH1 0x20 DUP4 LT PUSH2 0x133 DUP4 LT AND PUSH1 0x4E DUP5 LT PUSH1 0xB DUP5 LT AND OR ISZERO PUSH3 0x674 JUMPI DUP3 DUP3 EXP SWAP1 POP DUP4 DUP2 GT ISZERO PUSH3 0x66E JUMPI PUSH3 0x66D PUSH3 0x78C JUMP JUMPDEST JUMPDEST PUSH3 0x6A3 JUMP JUMPDEST PUSH3 0x683 DUP5 DUP5 DUP5 PUSH1 0x1 PUSH3 0x512 JUMP JUMPDEST SWAP3 POP SWAP1 POP DUP2 DUP5 DIV DUP2 GT ISZERO PUSH3 0x69D JUMPI PUSH3 0x69C PUSH3 0x78C JUMP JUMPDEST JUMPDEST DUP2 DUP2 MUL SWAP1 POP JUMPDEST SWAP4 SWAP3 POP POP POP JUMP JUMPDEST PUSH1 0x0 PUSH3 0x6B7 DUP3 PUSH3 0x73F JUMP JUMPDEST SWAP2 POP PUSH3 0x6C4 DUP4 PUSH3 0x73F JUMP JUMPDEST SWAP3 POP DUP2 PUSH32 0xFFFFFFFFFFFFFFFFFFFFFFFFFFFFFFFFFFFFFFFFFFFFFFFFFFFFFFFFFFFFFFFF DIV DUP4 GT DUP3 ISZERO ISZERO AND ISZERO PUSH3 0x700 JUMPI PUSH3 0x6FF PUSH3 0x78C JUMP JUMPDEST JUMPDEST DUP3 DUP3 MUL SWAP1 POP SWAP3 SWAP2 POP POP JUMP JUMPDEST PUSH1 0x0 PUSH3 0x718 DUP3 PUSH3 0x71F JUMP JUMPDEST SWAP1 POP SWAP2 SWAP1 POP JUMP JUMPDEST PUSH1 0x0 PUSH20 0xFFFFFFFFFFFFFFFFFFFFFFFFFFFFFFFFFFFFFFFF DUP3 AND SWAP1 POP SWAP2 SWAP1 POP JUMP JUMPDEST PUSH1 0x0 DUP2 SWAP1 POP SWAP2 SWAP1 POP JUMP JUMPDEST PUSH1 0x0 PUSH1 0xFF DUP3 AND SWAP1 POP SWAP2 SWAP1 POP JUMP JUMPDEST PUSH1 0x0 PUSH1 0x2 DUP3 DIV SWAP1 POP PUSH1 0x1 DUP3 AND DUP1 PUSH3 0x76F JUMPI PUSH1 0x7F DUP3 AND SWAP2 POP JUMPDEST PUSH1 0x20 DUP3 LT DUP2 EQ ISZERO PUSH3 0x786 JUMPI PUSH3 0x785 PUSH3 0x7BB JUMP JUMPDEST JUMPDEST POP SWAP2 SWAP1 POP JUMP JUMPDEST PUSH32 0x4E487B7100000000000000000000000000000000000000000000000000000000 PUSH1 0x0 MSTORE PUSH1 0x11 PUSH1 0x4 MSTORE PUSH1 0x24 PUSH1 0x0 REVERT JUMPDEST PUSH32 0x4E487B7100000000000000000000000000000000000000000000000000000000 PUSH1 0x0 MSTORE PUSH1 0x22 PUSH1 0x4 MSTORE PUSH1 0x24 PUSH1 0x0 REVERT JUMPDEST PUSH1 0x0 DUP1 REVERT JUMPDEST PUSH1 0x0 DUP2 PUSH1 0x1 SHR SWAP1 POP SWAP2 SWAP1 POP JUMP JUMPDEST PUSH32 0x45524332303A206D696E7420746F20746865207A65726F206164647265737300 PUSH1 0x0 DUP3 ADD MSTORE POP JUMP JUMPDEST PUSH3 0x830 DUP2 PUSH3 0x70B JUMP JUMPDEST DUP2 EQ PUSH3 0x83C JUMPI PUSH1 0x0 DUP1 REVERT JUMPDEST POP JUMP JUMPDEST PUSH2 0x1E9B DUP1 PUSH3 0x84F PUSH1 0x0 CODECOPY PUSH1 0x0 RETURN INVALID PUSH1 0x80 PUSH1 0x40 MSTORE CALLVALUE DUP1 ISZERO PUSH2 0x10 JUMPI PUSH1 0x0 DUP1 REVERT JUMPDEST POP PUSH1 0x4 CALLDATASIZE LT PUSH2 0x116 JUMPI PUSH1 0x0 CALLDATALOAD PUSH1 0xE0 SHR DUP1 PUSH4 0x70A08231 GT PUSH2 0xA2 JUMPI DUP1 PUSH4 0xA457C2D7 GT PUSH2 0x71 JUMPI DUP1 PUSH4 0xA457C2D7 EQ PUSH2 0x2E5 JUMPI DUP1 PUSH4 0xA9059CBB EQ PUSH2 0x315 JUMPI DUP1 PUSH4 0xD83A2BF3 EQ PUSH2 0x345 JUMPI DUP1 PUSH4 0xD86B3721 EQ PUSH2 0x375 JUMPI DUP1 PUSH4 0xDD62ED3E EQ PUSH2 0x393 JUMPI PUSH2 0x116 JUMP JUMPDEST DUP1 PUSH4 0x70A08231 EQ PUSH2 0x25D JUMPI DUP1 PUSH4 0x8DA5CB5B EQ PUSH2 0x28D JUMPI DUP1 PUSH4 0x95D89B41 EQ PUSH2 0x2AB JUMPI DUP1 PUSH4 0x9DC29FAC EQ PUSH2 0x2C9 JUMPI PUSH2 0x116 JUMP JUMPDEST DUP1 PUSH4 0x313CE567 GT PUSH2 0xE9 JUMPI DUP1 PUSH4 0x313CE567 EQ PUSH2 0x1B7 JUMPI DUP1 PUSH4 0x32CB6B0C EQ PUSH2 0x1D5 JUMPI DUP1 PUSH4 0x39509351 EQ PUSH2 0x1F3 JUMPI DUP1 PUSH4 0x40C10F19 EQ PUSH2 0x223 JUMPI DUP1 PUSH4 0x4626402B EQ PUSH2 0x23F JUMPI PUSH2 0x116 JUMP JUMPDEST DUP1 PUSH4 0x6FDDE03 EQ PUSH2 0x11B JUMPI DUP1 PUSH4 0x95EA7B3 EQ PUSH2 0x139 JUMPI DUP1 PUSH4 0x18160DDD EQ PUSH2 0x169 JUMPI DUP1 PUSH4 0x23B872DD EQ PUSH2 0x187 JUMPI JUMPDEST PUSH1 0x0 DUP1 REVERT JUMPDEST PUSH2 0x123 PUSH2 0x3C3 JUMP JUMPDEST PUSH1 0x40 MLOAD PUSH2 0x130 SWAP2 SWAP1 PUSH2 0x1585 JUMP JUMPDEST PUSH1 0x40 MLOAD DUP1 SWAP2 SUB SWAP1 RETURN JUMPDEST PUSH2 0x153 PUSH1 0x4 DUP1 CALLDATASIZE SUB DUP2 ADD SWAP1 PUSH2 0x14E SWAP2 SWAP1 PUSH2 0x12CC JUMP JUMPDEST PUSH2 0x455 JUMP JUMPDEST PUSH1 0x40 MLOAD PUSH2 0x160 SWAP2 SWAP1 PUSH2 0x156A JUMP JUMPDEST PUSH1 0x40 MLOAD DUP1 SWAP2 SUB SWAP1 RETURN JUMPDEST PUSH2 0x171 PUSH2 0x478 JUMP JUMPDEST PUSH1 0x40 MLOAD PUSH2 0x17E SWAP2 SWAP1 PUSH2 0x1727 JUMP JUMPDEST PUSH1 0x40 MLOAD DUP1 SWAP2 SUB SWAP1 RETURN JUMPDEST PUSH2 0x1A1 PUSH1 0x4 DUP1 CALLDATASIZE SUB DUP2 ADD SWAP1 PUSH2 0x19C SWAP2 SWAP1 PUSH2 0x1279 JUMP JUMPDEST PUSH2 0x482 JUMP JUMPDEST PUSH1 0x40 MLOAD PUSH2 0x1AE SWAP2 SWAP1 PUSH2 0x156A JUMP JUMPDEST PUSH1 0x40 MLOAD DUP1 SWAP2 SUB SWAP1 RETURN JUMPDEST PUSH2 0x1BF PUSH2 0x4B1 JUMP JUMPDEST PUSH1 0x40 MLOAD PUSH2 0x1CC SWAP2 SWAP1 PUSH2 0x1742 JUMP JUMPDEST PUSH1 0x40 MLOAD DUP1 SWAP2 SUB SWAP1 RETURN JUMPDEST PUSH2 0x1DD PUSH2 0x4BA JUMP JUMPDEST PUSH1 0x40 MLOAD PUSH2 0x1EA SWAP2 SWAP1 PUSH2 0x1727 JUMP JUMPDEST PUSH1 0x40 MLOAD DUP1 SWAP2 SUB SWAP1 RETURN JUMPDEST PUSH2 0x20D PUSH1 0x4 DUP1 CALLDATASIZE SUB DUP2 ADD SWAP1 PUSH2 0x208 SWAP2 SWAP1 PUSH2 0x12CC JUMP JUMPDEST PUSH2 0x4C0 JUMP JUMPDEST PUSH1 0x40 MLOAD PUSH2 0x21A SWAP2 SWAP1 PUSH2 0x156A JUMP JUMPDEST PUSH1 0x40 MLOAD DUP1 SWAP2 SUB SWAP1 RETURN JUMPDEST PUSH2 0x23D PUSH1 0x4 DUP1 CALLDATASIZE SUB DUP2 ADD SWAP1 PUSH2 0x238 SWAP2 SWAP1 PUSH2 0x12CC JUMP JUMPDEST PUSH2 0x4F7 JUMP JUMPDEST STOP JUMPDEST PUSH2 0x247 PUSH2 0x67A JUMP JUMPDEST PUSH1 0x40 MLOAD PUSH2 0x254 SWAP2 SWAP1 PUSH2 0x154F JUMP JUMPDEST PUSH1 0x40 MLOAD DUP1 SWAP2 SUB SWAP1 RETURN JUMPDEST PUSH2 0x277 PUSH1 0x4 DUP1 CALLDATASIZE SUB DUP2 ADD SWAP1 PUSH2 0x272 SWAP2 SWAP1 PUSH2 0x120C JUMP JUMPDEST PUSH2 0x6A0 JUMP JUMPDEST PUSH1 0x40 MLOAD PUSH2 0x284 SWAP2 SWAP1 PUSH2 0x1727 JUMP JUMPDEST PUSH1 0x40 MLOAD DUP1 SWAP2 SUB SWAP1 RETURN JUMPDEST PUSH2 0x295 PUSH2 0x6E8 JUMP JUMPDEST PUSH1 0x40 MLOAD PUSH2 0x2A2 SWAP2 SWAP1 PUSH2 0x1534 JUMP JUMPDEST PUSH1 0x40 MLOAD DUP1 SWAP2 SUB SWAP1 RETURN JUMPDEST PUSH2 0x2B3 PUSH2 0x70E JUMP JUMPDEST PUSH1 0x40 MLOAD PUSH2 0x2C0 SWAP2 SWAP1 PUSH2 0x1585 JUMP JUMPDEST PUSH1 0x40 MLOAD DUP1 SWAP2 SUB SWAP1 RETURN JUMPDEST PUSH2 0x2E3 PUSH1 0x4 DUP1 CALLDATASIZE SUB DUP2 ADD SWAP1 PUSH2 0x2DE SWAP2 SWAP1 PUSH2 0x12CC JUMP JUMPDEST PUSH2 0x7A0 JUMP JUMPDEST STOP JUMPDEST PUSH2 0x2FF PUSH1 0x4 DUP1 CALLDATASIZE SUB DUP2 ADD SWAP1 PUSH2 0x2FA SWAP2 SWAP1 PUSH2 0x12CC JUMP JUMPDEST PUSH2 0x85C JUMP JUMPDEST PUSH1 0x40 MLOAD PUSH2 0x30C SWAP2 SWAP1 PUSH2 0x156A JUMP JUMPDEST PUSH1 0x40 MLOAD DUP1 SWAP2 SUB SWAP1 RETURN JUMPDEST PUSH2 0x32F PUSH1 0x4 DUP1 CALLDATASIZE SUB DUP2 ADD SWAP1 PUSH2 0x32A SWAP2 SWAP1 PUSH2 0x12CC JUMP JUMPDEST PUSH2 0x8D3 JUMP JUMPDEST PUSH1 0x40 MLOAD PUSH2 0x33C SWAP2 SWAP1 PUSH2 0x156A JUMP JUMPDEST PUSH1 0x40 MLOAD DUP1 SWAP2 SUB SWAP1 RETURN JUMPDEST PUSH2 0x35F PUSH1 0x4 DUP1 CALLDATASIZE SUB DUP2 ADD SWAP1 PUSH2 0x35A SWAP2 SWAP1 PUSH2 0x1279 JUMP JUMPDEST PUSH2 0x8F6 JUMP JUMPDEST PUSH1 0x40 MLOAD PUSH2 0x36C SWAP2 SWAP1 PUSH2 0x156A JUMP JUMPDEST PUSH1 0x40 MLOAD DUP1 SWAP2 SUB SWAP1 RETURN JUMPDEST PUSH2 0x37D PUSH2 0x922 JUMP JUMPDEST PUSH1 0x40 MLOAD PUSH2 0x38A SWAP2 SWAP1 PUSH2 0x1727 JUMP JUMPDEST PUSH1 0x40 MLOAD DUP1 SWAP2 SUB SWAP1 RETURN JUMPDEST PUSH2 0x3AD PUSH1 0x4 DUP1 CALLDATASIZE SUB DUP2 ADD SWAP1 PUSH2 0x3A8 SWAP2 SWAP1 PUSH2 0x1239 JUMP JUMPDEST PUSH2 0x92A JUMP JUMPDEST PUSH1 0x40 MLOAD PUSH2 0x3BA SWAP2 SWAP1 PUSH2 0x1727 JUMP JUMPDEST PUSH1 0x40 MLOAD DUP1 SWAP2 SUB SWAP1 RETURN JUMPDEST PUSH1 0x60 PUSH1 0x3 DUP1 SLOAD PUSH2 0x3D2 SWAP1 PUSH2 0x1A68 JUMP JUMPDEST DUP1 PUSH1 0x1F ADD PUSH1 0x20 DUP1 SWAP2 DIV MUL PUSH1 0x20 ADD PUSH1 0x40 MLOAD SWAP1 DUP2 ADD PUSH1 0x40 MSTORE DUP1 SWAP3 SWAP2 SWAP1 DUP2 DUP2 MSTORE PUSH1 0x20 ADD DUP3 DUP1 SLOAD PUSH2 0x3FE SWAP1 PUSH2 0x1A68 JUMP JUMPDEST DUP1 ISZERO PUSH2 0x44B JUMPI DUP1 PUSH1 0x1F LT PUSH2 0x420 JUMPI PUSH2 0x100 DUP1 DUP4 SLOAD DIV MUL DUP4 MSTORE SWAP2 PUSH1 0x20 ADD SWAP2 PUSH2 0x44B JUMP JUMPDEST DUP3 ADD SWAP2 SWAP1 PUSH1 0x0 MSTORE PUSH1 0x20 PUSH1 0x0 KECCAK256 SWAP1 JUMPDEST DUP2 SLOAD DUP2 MSTORE SWAP1 PUSH1 0x1 ADD SWAP1 PUSH1 0x20 ADD DUP1 DUP4 GT PUSH2 0x42E JUMPI DUP3 SWAP1 SUB PUSH1 0x1F AND DUP3 ADD SWAP2 JUMPDEST POP POP POP POP POP SWAP1 POP SWAP1 JUMP JUMPDEST PUSH1 0x0 DUP1 PUSH2 0x460 PUSH2 0x9B1 JUMP JUMPDEST SWAP1 POP PUSH2 0x46D DUP2 DUP6 DUP6 PUSH2 0x9B9 JUMP JUMPDEST PUSH1 0x1 SWAP2 POP POP SWAP3 SWAP2 POP POP JUMP JUMPDEST PUSH1 0x0 PUSH1 0x2 SLOAD SWAP1 POP SWAP1 JUMP JUMPDEST PUSH1 0x0 DUP1 PUSH2 0x48D PUSH2 0x9B1 JUMP JUMPDEST SWAP1 POP PUSH2 0x49A DUP6 DUP3 DUP6 PUSH2 0xB84 JUMP JUMPDEST PUSH2 0x4A5 DUP6 DUP6 DUP6 PUSH2 0xC10 JUMP JUMPDEST PUSH1 0x1 SWAP2 POP POP SWAP4 SWAP3 POP POP POP JUMP JUMPDEST PUSH1 0x0 PUSH1 0x12 SWAP1 POP SWAP1 JUMP JUMPDEST PUSH1 0x5 SLOAD DUP2 JUMP JUMPDEST PUSH1 0x0 DUP1 PUSH2 0x4CB PUSH2 0x9B1 JUMP JUMPDEST SWAP1 POP PUSH2 0x4EC DUP2 DUP6 DUP6 PUSH2 0x4DD DUP6 DUP10 PUSH2 0x92A JUMP JUMPDEST PUSH2 0x4E7 SWAP2 SWAP1 PUSH2 0x1779 JUMP JUMPDEST PUSH2 0x9B9 JUMP JUMPDEST PUSH1 0x1 SWAP2 POP POP SWAP3 SWAP2 POP POP JUMP JUMPDEST PUSH1 0x6 PUSH1 0x0 SWAP1 SLOAD SWAP1 PUSH2 0x100 EXP SWAP1 DIV PUSH20 0xFFFFFFFFFFFFFFFFFFFFFFFFFFFFFFFFFFFFFFFF AND PUSH20 0xFFFFFFFFFFFFFFFFFFFFFFFFFFFFFFFFFFFFFFFF AND CALLER PUSH20 0xFFFFFFFFFFFFFFFFFFFFFFFFFFFFFFFFFFFFFFFF AND EQ PUSH2 0x587 JUMPI PUSH1 0x40 MLOAD PUSH32 0x8C379A000000000000000000000000000000000000000000000000000000000 DUP2 MSTORE PUSH1 0x4 ADD PUSH2 0x57E SWAP1 PUSH2 0x1607 JUMP JUMPDEST PUSH1 0x40 MLOAD DUP1 SWAP2 SUB SWAP1 REVERT JUMPDEST PUSH1 0x0 PUSH20 0xFFFFFFFFFFFFFFFFFFFFFFFFFFFFFFFFFFFFFFFF AND DUP3 PUSH20 0xFFFFFFFFFFFFFFFFFFFFFFFFFFFFFFFFFFFFFFFF AND EQ ISZERO PUSH2 0x5F7 JUMPI PUSH1 0x40 MLOAD PUSH32 0x8C379A000000000000000000000000000000000000000000000000000000000 DUP2 MSTORE PUSH1 0x4 ADD PUSH2 0x5EE SWAP1 PUSH2 0x1707 JUMP JUMPDEST PUSH1 0x40 MLOAD DUP1 SWAP2 SUB SWAP1 REVERT JUMPDEST PUSH1 0x5 SLOAD DUP2 PUSH2 0x603 PUSH2 0x478 JUMP JUMPDEST PUSH2 0x60D SWAP2 SWAP1 PUSH2 0x1779 JUMP JUMPDEST GT ISZERO PUSH2 0x64E JUMPI PUSH1 0x40 MLOAD PUSH32 0x8C379A000000000000000000000000000000000000000000000000000000000 DUP2 MSTORE PUSH1 0x4 ADD PUSH2 0x645 SWAP1 PUSH2 0x16C7 JUMP JUMPDEST PUSH1 0x40 MLOAD DUP1 SWAP2 SUB SWAP1 REVERT JUMPDEST PUSH2 0x676 DUP3 PUSH2 0x65A PUSH2 0x4B1 JUMP JUMPDEST PUSH1 0xA PUSH2 0x666 SWAP2 SWAP1 PUSH2 0x1822 JUMP JUMPDEST DUP4 PUSH2 0x671 SWAP2 SWAP1 PUSH2 0x1940 JUMP JUMPDEST PUSH2 0xC20 JUMP JUMPDEST POP POP JUMP JUMPDEST PUSH1 0x7 PUSH1 0x0 SWAP1 SLOAD SWAP1 PUSH2 0x100 EXP SWAP1 DIV PUSH20 0xFFFFFFFFFFFFFFFFFFFFFFFFFFFFFFFFFFFFFFFF AND DUP2 JUMP JUMPDEST PUSH1 0x0 DUP1 PUSH1 0x0 DUP4 PUSH20 0xFFFFFFFFFFFFFFFFFFFFFFFFFFFFFFFFFFFFFFFF AND PUSH20 0xFFFFFFFFFFFFFFFFFFFFFFFFFFFFFFFFFFFFFFFF AND DUP2 MSTORE PUSH1 0x20 ADD SWAP1 DUP2 MSTORE PUSH1 0x20 ADD PUSH1 0x0 KECCAK256 SLOAD SWAP1 POP SWAP2 SWAP1 POP JUMP JUMPDEST PUSH1 0x6 PUSH1 0x0 SWAP1 SLOAD SWAP1 PUSH2 0x100 EXP SWAP1 DIV PUSH20 0xFFFFFFFFFFFFFFFFFFFFFFFFFFFFFFFFFFFFFFFF AND DUP2 JUMP JUMPDEST PUSH1 0x60 PUSH1 0x4 DUP1 SLOAD PUSH2 0x71D SWAP1 PUSH2 0x1A68 JUMP JUMPDEST DUP1 PUSH1 0x1F ADD PUSH1 0x20 DUP1 SWAP2 DIV MUL PUSH1 0x20 ADD PUSH1 0x40 MLOAD SWAP1 DUP2 ADD PUSH1 0x40 MSTORE DUP1 SWAP3 SWAP2 SWAP1 DUP2 DUP2 MSTORE PUSH1 0x20 ADD DUP3 DUP1 SLOAD PUSH2 0x749 SWAP1 PUSH2 0x1A68 JUMP JUMPDEST DUP1 ISZERO PUSH2 0x796 JUMPI DUP1 PUSH1 0x1F LT PUSH2 0x76B JUMPI PUSH2 0x100 DUP1 DUP4 SLOAD DIV MUL DUP4 MSTORE SWAP2 PUSH1 0x20 ADD SWAP2 PUSH2 0x796 JUMP JUMPDEST DUP3 ADD SWAP2 SWAP1 PUSH1 0x0 MSTORE PUSH1 0x20 PUSH1 0x0 KECCAK256 SWAP1 JUMPDEST DUP2 SLOAD DUP2 MSTORE SWAP1 PUSH1 0x1 ADD SWAP1 PUSH1 0x20 ADD DUP1 DUP4 GT PUSH2 0x779 JUMPI DUP3 SWAP1 SUB PUSH1 0x1F AND DUP3 ADD SWAP2 JUMPDEST POP POP POP POP POP SWAP1 POP SWAP1 JUMP JUMPDEST PUSH1 0x6 PUSH1 0x0 SWAP1 SLOAD SWAP1 PUSH2 0x100 EXP SWAP1 DIV PUSH20 0xFFFFFFFFFFFFFFFFFFFFFFFFFFFFFFFFFFFFFFFF AND PUSH20 0xFFFFFFFFFFFFFFFFFFFFFFFFFFFFFFFFFFFFFFFF AND CALLER PUSH20 0xFFFFFFFFFFFFFFFFFFFFFFFFFFFFFFFFFFFFFFFF AND EQ PUSH2 0x830 JUMPI PUSH1 0x40 MLOAD PUSH32 0x8C379A000000000000000000000000000000000000000000000000000000000 DUP2 MSTORE PUSH1 0x4 ADD PUSH2 0x827 SWAP1 PUSH2 0x1607 JUMP JUMPDEST PUSH1 0x40 MLOAD DUP1 SWAP2 SUB SWAP1 REVERT JUMPDEST PUSH2 0x858 DUP3 PUSH2 0x83C PUSH2 0x4B1 JUMP JUMPDEST PUSH1 0xA PUSH2 0x848 SWAP2 SWAP1 PUSH2 0x1822 JUMP JUMPDEST DUP4 PUSH2 0x853 SWAP2 SWAP1 PUSH2 0x1940 JUMP JUMPDEST PUSH2 0xD80 JUMP JUMPDEST POP POP JUMP JUMPDEST PUSH1 0x0 DUP1 PUSH2 0x867 PUSH2 0x9B1 JUMP JUMPDEST SWAP1 POP PUSH1 0x0 PUSH2 0x875 DUP3 DUP7 PUSH2 0x92A JUMP JUMPDEST SWAP1 POP DUP4 DUP2 LT ISZERO PUSH2 0x8BA JUMPI PUSH1 0x40 MLOAD PUSH32 0x8C379A000000000000000000000000000000000000000000000000000000000 DUP2 MSTORE PUSH1 0x4 ADD PUSH2 0x8B1 SWAP1 PUSH2 0x16E7 JUMP JUMPDEST PUSH1 0x40 MLOAD DUP1 SWAP2 SUB SWAP1 REVERT JUMPDEST PUSH2 0x8C7 DUP3 DUP7 DUP7 DUP5 SUB PUSH2 0x9B9 JUMP JUMPDEST PUSH1 0x1 SWAP3 POP POP POP SWAP3 SWAP2 POP POP JUMP JUMPDEST PUSH1 0x0 DUP1 PUSH2 0x8DE PUSH2 0x9B1 JUMP JUMPDEST SWAP1 POP PUSH2 0x8EB DUP2 DUP6 DUP6 PUSH2 0xC10 JUMP JUMPDEST PUSH1 0x1 SWAP2 POP POP SWAP3 SWAP2 POP POP JUMP JUMPDEST PUSH1 0x0 PUSH2 0x917 DUP5 DUP5 DUP5 PUSH2 0x908 CALLER ADDRESS PUSH2 0x92A JUMP JUMPDEST PUSH2 0x912 SWAP2 SWAP1 PUSH2 0x1779 JUMP JUMPDEST PUSH2 0x9B9 JUMP JUMPDEST PUSH1 0x1 SWAP1 POP SWAP4 SWAP3 POP POP POP JUMP JUMPDEST PUSH1 0x0 TIMESTAMP SWAP1 POP SWAP1 JUMP JUMPDEST PUSH1 0x0 PUSH1 0x1 PUSH1 0x0 DUP5 PUSH20 0xFFFFFFFFFFFFFFFFFFFFFFFFFFFFFFFFFFFFFFFF AND PUSH20 0xFFFFFFFFFFFFFFFFFFFFFFFFFFFFFFFFFFFFFFFF AND DUP2 MSTORE PUSH1 0x20 ADD SWAP1 DUP2 MSTORE PUSH1 0x20 ADD PUSH1 0x0 KECCAK256 PUSH1 0x0 DUP4 PUSH20 0xFFFFFFFFFFFFFFFFFFFFFFFFFFFFFFFFFFFFFFFF AND PUSH20 0xFFFFFFFFFFFFFFFFFFFFFFFFFFFFFFFFFFFFFFFF AND DUP2 MSTORE PUSH1 0x20 ADD SWAP1 DUP2 MSTORE PUSH1 0x20 ADD PUSH1 0x0 KECCAK256 SLOAD SWAP1 POP SWAP3 SWAP2 POP POP JUMP JUMPDEST PUSH1 0x0 CALLER SWAP1 POP SWAP1 JUMP JUMPDEST PUSH1 0x0 PUSH20 0xFFFFFFFFFFFFFFFFFFFFFFFFFFFFFFFFFFFFFFFF AND DUP4 PUSH20 0xFFFFFFFFFFFFFFFFFFFFFFFFFFFFFFFFFFFFFFFF AND EQ ISZERO PUSH2 0xA29 JUMPI PUSH1 0x40 MLOAD PUSH32 0x8C379A000000000000000000000000000000000000000000000000000000000 DUP2 MSTORE PUSH1 0x4 ADD PUSH2 0xA20 SWAP1 PUSH2 0x16A7 JUMP JUMPDEST PUSH1 0x40 MLOAD DUP1 SWAP2 SUB SWAP1 REVERT JUMPDEST PUSH1 0x0 PUSH20 0xFFFFFFFFFFFFFFFFFFFFFFFFFFFFFFFFFFFFFFFF AND DUP3 PUSH20 0xFFFFFFFFFFFFFFFFFFFFFFFFFFFFFFFFFFFFFFFF AND EQ ISZERO PUSH2 0xA99 JUMPI PUSH1 0x40 MLOAD PUSH32 0x8C379A000000000000000000000000000000000000000000000000000000000 DUP2 MSTORE PUSH1 0x4 ADD PUSH2 0xA90 SWAP1 PUSH2 0x15E7 JUMP JUMPDEST PUSH1 0x40 MLOAD DUP1 SWAP2 SUB SWAP1 REVERT JUMPDEST DUP1 PUSH1 0x1 PUSH1 0x0 DUP6 PUSH20 0xFFFFFFFFFFFFFFFFFFFFFFFFFFFFFFFFFFFFFFFF AND PUSH20 0xFFFFFFFFFFFFFFFFFFFFFFFFFFFFFFFFFFFFFFFF AND DUP2 MSTORE PUSH1 0x20 ADD SWAP1 DUP2 MSTORE PUSH1 0x20 ADD PUSH1 0x0 KECCAK256 PUSH1 0x0 DUP5 PUSH20 0xFFFFFFFFFFFFFFFFFFFFFFFFFFFFFFFFFFFFFFFF AND PUSH20 0xFFFFFFFFFFFFFFFFFFFFFFFFFFFFFFFFFFFFFFFF AND DUP2 MSTORE PUSH1 0x20 ADD SWAP1 DUP2 MSTORE PUSH1 0x20 ADD PUSH1 0x0 KECCAK256 DUP2 SWAP1 SSTORE POP DUP2 PUSH20 0xFFFFFFFFFFFFFFFFFFFFFFFFFFFFFFFFFFFFFFFF AND DUP4 PUSH20 0xFFFFFFFFFFFFFFFFFFFFFFFFFFFFFFFFFFFFFFFF AND PUSH32 0x8C5BE1E5EBEC7D5BD14F71427D1E84F3DD0314C0F7B2291E5B200AC8C7C3B925 DUP4 PUSH1 0x40 MLOAD PUSH2 0xB77 SWAP2 SWAP1 PUSH2 0x1727 JUMP JUMPDEST PUSH1 0x40 MLOAD DUP1 SWAP2 SUB SWAP1 LOG3 POP POP POP JUMP JUMPDEST PUSH1 0x0 PUSH2 0xB90 DUP5 DUP5 PUSH2 0x92A JUMP JUMPDEST SWAP1 POP PUSH32 0xFFFFFFFFFFFFFFFFFFFFFFFFFFFFFFFFFFFFFFFFFFFFFFFFFFFFFFFFFFFFFFFF DUP2 EQ PUSH2 0xC0A JUMPI DUP2 DUP2 LT ISZERO PUSH2 0xBFC JUMPI PUSH1 0x40 MLOAD PUSH32 0x8C379A000000000000000000000000000000000000000000000000000000000 DUP2 MSTORE PUSH1 0x4 ADD PUSH2 0xBF3 SWAP1 PUSH2 0x1627 JUMP JUMPDEST PUSH1 0x40 MLOAD DUP1 SWAP2 SUB SWAP1 REVERT JUMPDEST PUSH2 0xC09 DUP5 DUP5 DUP5 DUP5 SUB PUSH2 0x9B9 JUMP JUMPDEST JUMPDEST POP POP POP POP JUMP JUMPDEST PUSH2 0xC1B DUP4 DUP4 DUP4 PUSH2 0xF57 JUMP JUMPDEST POP POP POP JUMP JUMPDEST PUSH1 0x0 PUSH20 0xFFFFFFFFFFFFFFFFFFFFFFFFFFFFFFFFFFFFFFFF AND DUP3 PUSH20 0xFFFFFFFFFFFFFFFFFFFFFFFFFFFFFFFFFFFFFFFF AND EQ ISZERO PUSH2 0xC90 JUMPI PUSH1 0x40 MLOAD PUSH32 0x8C379A000000000000000000000000000000000000000000000000000000000 DUP2 MSTORE PUSH1 0x4 ADD PUSH2 0xC87 SWAP1 PUSH2 0x1707 JUMP JUMPDEST PUSH1 0x40 MLOAD DUP1 SWAP2 SUB SWAP1 REVERT JUMPDEST PUSH2 0xC9C PUSH1 0x0 DUP4 DUP4 PUSH2 0x11D8 JUMP JUMPDEST DUP1 PUSH1 0x2 PUSH1 0x0 DUP3 DUP3 SLOAD PUSH2 0xCAE SWAP2 SWAP1 PUSH2 0x1779 JUMP JUMPDEST SWAP3 POP POP DUP2 SWAP1 SSTORE POP DUP1 PUSH1 0x0 DUP1 DUP5 PUSH20 0xFFFFFFFFFFFFFFFFFFFFFFFFFFFFFFFFFFFFFFFF AND PUSH20 0xFFFFFFFFFFFFFFFFFFFFFFFFFFFFFFFFFFFFFFFF AND DUP2 MSTORE PUSH1 0x20 ADD SWAP1 DUP2 MSTORE PUSH1 0x20 ADD PUSH1 0x0 KECCAK256 PUSH1 0x0 DUP3 DUP3 SLOAD PUSH2 0xD03 SWAP2 SWAP1 PUSH2 0x1779 JUMP JUMPDEST SWAP3 POP POP DUP2 SWAP1 SSTORE POP DUP2 PUSH20 0xFFFFFFFFFFFFFFFFFFFFFFFFFFFFFFFFFFFFFFFF AND PUSH1 0x0 PUSH20 0xFFFFFFFFFFFFFFFFFFFFFFFFFFFFFFFFFFFFFFFF AND PUSH32 0xDDF252AD1BE2C89B69C2B068FC378DAA952BA7F163C4A11628F55A4DF523B3EF DUP4 PUSH1 0x40 MLOAD PUSH2 0xD68 SWAP2 SWAP1 PUSH2 0x1727 JUMP JUMPDEST PUSH1 0x40 MLOAD DUP1 SWAP2 SUB SWAP1 LOG3 PUSH2 0xD7C PUSH1 0x0 DUP4 DUP4 PUSH2 0x11DD JUMP JUMPDEST POP POP JUMP JUMPDEST PUSH1 0x0 PUSH20 0xFFFFFFFFFFFFFFFFFFFFFFFFFFFFFFFFFFFFFFFF AND DUP3 PUSH20 0xFFFFFFFFFFFFFFFFFFFFFFFFFFFFFFFFFFFFFFFF AND EQ ISZERO PUSH2 0xDF0 JUMPI PUSH1 0x40 MLOAD PUSH32 0x8C379A000000000000000000000000000000000000000000000000000000000 DUP2 MSTORE PUSH1 0x4 ADD PUSH2 0xDE7 SWAP1 PUSH2 0x1667 JUMP JUMPDEST PUSH1 0x40 MLOAD DUP1 SWAP2 SUB SWAP1 REVERT JUMPDEST PUSH2 0xDFC DUP3 PUSH1 0x0 DUP4 PUSH2 0x11D8 JUMP JUMPDEST PUSH1 0x0 DUP1 PUSH1 0x0 DUP5 PUSH20 0xFFFFFFFFFFFFFFFFFFFFFFFFFFFFFFFFFFFFFFFF AND PUSH20 0xFFFFFFFFFFFFFFFFFFFFFFFFFFFFFFFFFFFFFFFF AND DUP2 MSTORE PUSH1 0x20 ADD SWAP1 DUP2 MSTORE PUSH1 0x20 ADD PUSH1 0x0 KECCAK256 SLOAD SWAP1 POP DUP2 DUP2 LT ISZERO PUSH2 0xE82 JUMPI PUSH1 0x40 MLOAD PUSH32 0x8C379A000000000000000000000000000000000000000000000000000000000 DUP2 MSTORE PUSH1 0x4 ADD PUSH2 0xE79 SWAP1 PUSH2 0x15C7 JUMP JUMPDEST PUSH1 0x40 MLOAD DUP1 SWAP2 SUB SWAP1 REVERT JUMPDEST DUP2 DUP2 SUB PUSH1 0x0 DUP1 DUP6 PUSH20 0xFFFFFFFFFFFFFFFFFFFFFFFFFFFFFFFFFFFFFFFF AND PUSH20 0xFFFFFFFFFFFFFFFFFFFFFFFFFFFFFFFFFFFFFFFF AND DUP2 MSTORE PUSH1 0x20 ADD SWAP1 DUP2 MSTORE PUSH1 0x20 ADD PUSH1 0x0 KECCAK256 DUP2 SWAP1 SSTORE POP DUP2 PUSH1 0x2 PUSH1 0x0 DUP3 DUP3 SLOAD PUSH2 0xED9 SWAP2 SWAP1 PUSH2 0x199A JUMP JUMPDEST SWAP3 POP POP DUP2 SWAP1 SSTORE POP PUSH1 0x0 PUSH20 0xFFFFFFFFFFFFFFFFFFFFFFFFFFFFFFFFFFFFFFFF AND DUP4 PUSH20 0xFFFFFFFFFFFFFFFFFFFFFFFFFFFFFFFFFFFFFFFF AND PUSH32 0xDDF252AD1BE2C89B69C2B068FC378DAA952BA7F163C4A11628F55A4DF523B3EF DUP5 PUSH1 0x40 MLOAD PUSH2 0xF3E SWAP2 SWAP1 PUSH2 0x1727 JUMP JUMPDEST PUSH1 0x40 MLOAD DUP1 SWAP2 SUB SWAP1 LOG3 PUSH2 0xF52 DUP4 PUSH1 0x0 DUP5 PUSH2 0x11DD JUMP JUMPDEST POP POP POP JUMP JUMPDEST PUSH1 0x0 PUSH20 0xFFFFFFFFFFFFFFFFFFFFFFFFFFFFFFFFFFFFFFFF AND DUP4 PUSH20 0xFFFFFFFFFFFFFFFFFFFFFFFFFFFFFFFFFFFFFFFF AND EQ ISZERO PUSH2 0xFC7 JUMPI PUSH1 0x40 MLOAD PUSH32 0x8C379A000000000000000000000000000000000000000000000000000000000 DUP2 MSTORE PUSH1 0x4 ADD PUSH2 0xFBE SWAP1 PUSH2 0x1687 JUMP JUMPDEST PUSH1 0x40 MLOAD DUP1 SWAP2 SUB SWAP1 REVERT JUMPDEST PUSH1 0x0 PUSH20 0xFFFFFFFFFFFFFFFFFFFFFFFFFFFFFFFFFFFFFFFF AND DUP3 PUSH20 0xFFFFFFFFFFFFFFFFFFFFFFFFFFFFFFFFFFFFFFFF AND EQ ISZERO PUSH2 0x1037 JUMPI PUSH1 0x40 MLOAD PUSH32 0x8C379A000000000000000000000000000000000000000000000000000000000 DUP2 MSTORE PUSH1 0x4 ADD PUSH2 0x102E SWAP1 PUSH2 0x15A7 JUMP JUMPDEST PUSH1 0x40 MLOAD DUP1 SWAP2 SUB SWAP1 REVERT JUMPDEST PUSH2 0x1042 DUP4 DUP4 DUP4 PUSH2 0x11D8 JUMP JUMPDEST PUSH1 0x0 DUP1 PUSH1 0x0 DUP6 PUSH20 0xFFFFFFFFFFFFFFFFFFFFFFFFFFFFFFFFFFFFFFFF AND PUSH20 0xFFFFFFFFFFFFFFFFFFFFFFFFFFFFFFFFFFFFFFFF AND DUP2 MSTORE PUSH1 0x20 ADD SWAP1 DUP2 MSTORE PUSH1 0x20 ADD PUSH1 0x0 KECCAK256 SLOAD SWAP1 POP DUP2 DUP2 LT ISZERO PUSH2 0x10C8 JUMPI PUSH1 0x40 MLOAD PUSH32 0x8C379A000000000000000000000000000000000000000000000000000000000 DUP2 MSTORE PUSH1 0x4 ADD PUSH2 0x10BF SWAP1 PUSH2 0x1647 JUMP JUMPDEST PUSH1 0x40 MLOAD DUP1 SWAP2 SUB SWAP1 REVERT JUMPDEST DUP2 DUP2 SUB PUSH1 0x0 DUP1 DUP7 PUSH20 0xFFFFFFFFFFFFFFFFFFFFFFFFFFFFFFFFFFFFFFFF AND PUSH20 0xFFFFFFFFFFFFFFFFFFFFFFFFFFFFFFFFFFFFFFFF AND DUP2 MSTORE PUSH1 0x20 ADD SWAP1 DUP2 MSTORE PUSH1 0x20 ADD PUSH1 0x0 KECCAK256 DUP2 SWAP1 SSTORE POP DUP2 PUSH1 0x0 DUP1 DUP6 PUSH20 0xFFFFFFFFFFFFFFFFFFFFFFFFFFFFFFFFFFFFFFFF AND PUSH20 0xFFFFFFFFFFFFFFFFFFFFFFFFFFFFFFFFFFFFFFFF AND DUP2 MSTORE PUSH1 0x20 ADD SWAP1 DUP2 MSTORE PUSH1 0x20 ADD PUSH1 0x0 KECCAK256 PUSH1 0x0 DUP3 DUP3 SLOAD PUSH2 0x115B SWAP2 SWAP1 PUSH2 0x1779 JUMP JUMPDEST SWAP3 POP POP DUP2 SWAP1 SSTORE POP DUP3 PUSH20 0xFFFFFFFFFFFFFFFFFFFFFFFFFFFFFFFFFFFFFFFF AND DUP5 PUSH20 0xFFFFFFFFFFFFFFFFFFFFFFFFFFFFFFFFFFFFFFFF AND PUSH32 0xDDF252AD1BE2C89B69C2B068FC378DAA952BA7F163C4A11628F55A4DF523B3EF DUP5 PUSH1 0x40 MLOAD PUSH2 0x11BF SWAP2 SWAP1 PUSH2 0x1727 JUMP JUMPDEST PUSH1 0x40 MLOAD DUP1 SWAP2 SUB SWAP1 LOG3 PUSH2 0x11D2 DUP5 DUP5 DUP5 PUSH2 0x11DD JUMP JUMPDEST POP POP POP POP JUMP JUMPDEST POP POP POP JUMP JUMPDEST POP POP POP JUMP JUMPDEST PUSH1 0x0 DUP2 CALLDATALOAD SWAP1 POP PUSH2 0x11F1 DUP2 PUSH2 0x1E37 JUMP JUMPDEST SWAP3 SWAP2 POP POP JUMP JUMPDEST PUSH1 0x0 DUP2 CALLDATALOAD SWAP1 POP PUSH2 0x1206 DUP2 PUSH2 0x1E4E JUMP JUMPDEST SWAP3 SWAP2 POP POP JUMP JUMPDEST PUSH1 0x0 PUSH1 0x20 DUP3 DUP5 SUB SLT ISZERO PUSH2 0x1222 JUMPI PUSH2 0x1221 PUSH2 0x1AF8 JUMP JUMPDEST JUMPDEST PUSH1 0x0 PUSH2 0x1230 DUP5 DUP3 DUP6 ADD PUSH2 0x11E2 JUMP JUMPDEST SWAP2 POP POP SWAP3 SWAP2 POP POP JUMP JUMPDEST PUSH1 0x0 DUP1 PUSH1 0x40 DUP4 DUP6 SUB SLT ISZERO PUSH2 0x1250 JUMPI PUSH2 0x124F PUSH2 0x1AF8 JUMP JUMPDEST JUMPDEST PUSH1 0x0 PUSH2 0x125E DUP6 DUP3 DUP7 ADD PUSH2 0x11E2 JUMP JUMPDEST SWAP3 POP POP PUSH1 0x20 PUSH2 0x126F DUP6 DUP3 DUP7 ADD PUSH2 0x11E2 JUMP JUMPDEST SWAP2 POP POP SWAP3 POP SWAP3 SWAP1 POP JUMP JUMPDEST PUSH1 0x0 DUP1 PUSH1 0x0 PUSH1 0x60 DUP5 DUP7 SUB SLT ISZERO PUSH2 0x1292 JUMPI PUSH2 0x1291 PUSH2 0x1AF8 JUMP JUMPDEST JUMPDEST PUSH1 0x0 PUSH2 0x12A0 DUP7 DUP3 DUP8 ADD PUSH2 0x11E2 JUMP JUMPDEST SWAP4 POP POP PUSH1 0x20 PUSH2 0x12B1 DUP7 DUP3 DUP8 ADD PUSH2 0x11E2 JUMP JUMPDEST SWAP3 POP POP PUSH1 0x40 PUSH2 0x12C2 DUP7 DUP3 DUP8 ADD PUSH2 0x11F7 JUMP JUMPDEST SWAP2 POP POP SWAP3 POP SWAP3 POP SWAP3 JUMP JUMPDEST PUSH1 0x0 DUP1 PUSH1 0x40 DUP4 DUP6 SUB SLT ISZERO PUSH2 0x12E3 JUMPI PUSH2 0x12E2 PUSH2 0x1AF8 JUMP JUMPDEST JUMPDEST PUSH1 0x0 PUSH2 0x12F1 DUP6 DUP3 DUP7 ADD PUSH2 0x11E2 JUMP JUMPDEST SWAP3 POP POP PUSH1 0x20 PUSH2 0x1302 DUP6 DUP3 DUP7 ADD PUSH2 0x11F7 JUMP JUMPDEST SWAP2 POP POP SWAP3 POP SWAP3 SWAP1 POP JUMP JUMPDEST PUSH2 0x1315 DUP2 PUSH2 0x19E0 JUMP JUMPDEST DUP3 MSTORE POP POP JUMP JUMPDEST PUSH2 0x1324 DUP2 PUSH2 0x19CE JUMP JUMPDEST DUP3 MSTORE POP POP JUMP JUMPDEST PUSH2 0x1333 DUP2 PUSH2 0x19F2 JUMP JUMPDEST DUP3 MSTORE POP POP JUMP JUMPDEST PUSH1 0x0 PUSH2 0x1344 DUP3 PUSH2 0x175D JUMP JUMPDEST PUSH2 0x134E DUP2 DUP6 PUSH2 0x1768 JUMP JUMPDEST SWAP4 POP PUSH2 0x135E DUP2 DUP6 PUSH1 0x20 DUP7 ADD PUSH2 0x1A35 JUMP JUMPDEST PUSH2 0x1367 DUP2 PUSH2 0x1AFD JUMP JUMPDEST DUP5 ADD SWAP2 POP POP SWAP3 SWAP2 POP POP JUMP JUMPDEST PUSH1 0x0 PUSH2 0x137F PUSH1 0x23 DUP4 PUSH2 0x1768 JUMP JUMPDEST SWAP2 POP PUSH2 0x138A DUP3 PUSH2 0x1B1B JUMP JUMPDEST PUSH1 0x40 DUP3 ADD SWAP1 POP SWAP2 SWAP1 POP JUMP JUMPDEST PUSH1 0x0 PUSH2 0x13A2 PUSH1 0x22 DUP4 PUSH2 0x1768 JUMP JUMPDEST SWAP2 POP PUSH2 0x13AD DUP3 PUSH2 0x1B6A JUMP JUMPDEST PUSH1 0x40 DUP3 ADD SWAP1 POP SWAP2 SWAP1 POP JUMP JUMPDEST PUSH1 0x0 PUSH2 0x13C5 PUSH1 0x22 DUP4 PUSH2 0x1768 JUMP JUMPDEST SWAP2 POP PUSH2 0x13D0 DUP3 PUSH2 0x1BB9 JUMP JUMPDEST PUSH1 0x40 DUP3 ADD SWAP1 POP SWAP2 SWAP1 POP JUMP JUMPDEST PUSH1 0x0 PUSH2 0x13E8 PUSH1 0xA DUP4 PUSH2 0x1768 JUMP JUMPDEST SWAP2 POP PUSH2 0x13F3 DUP3 PUSH2 0x1C08 JUMP JUMPDEST PUSH1 0x20 DUP3 ADD SWAP1 POP SWAP2 SWAP1 POP JUMP JUMPDEST PUSH1 0x0 PUSH2 0x140B PUSH1 0x1D DUP4 PUSH2 0x1768 JUMP JUMPDEST SWAP2 POP PUSH2 0x1416 DUP3 PUSH2 0x1C31 JUMP JUMPDEST PUSH1 0x20 DUP3 ADD SWAP1 POP SWAP2 SWAP1 POP JUMP JUMPDEST PUSH1 0x0 PUSH2 0x142E PUSH1 0x26 DUP4 PUSH2 0x1768 JUMP JUMPDEST SWAP2 POP PUSH2 0x1439 DUP3 PUSH2 0x1C5A JUMP JUMPDEST PUSH1 0x40 DUP3 ADD SWAP1 POP SWAP2 SWAP1 POP JUMP JUMPDEST PUSH1 0x0 PUSH2 0x1451 PUSH1 0x21 DUP4 PUSH2 0x1768 JUMP JUMPDEST SWAP2 POP PUSH2 0x145C DUP3 PUSH2 0x1CA9 JUMP JUMPDEST PUSH1 0x40 DUP3 ADD SWAP1 POP SWAP2 SWAP1 POP JUMP JUMPDEST PUSH1 0x0 PUSH2 0x1474 PUSH1 0x25 DUP4 PUSH2 0x1768 JUMP JUMPDEST SWAP2 POP PUSH2 0x147F DUP3 PUSH2 0x1CF8 JUMP JUMPDEST PUSH1 0x40 DUP3 ADD SWAP1 POP SWAP2 SWAP1 POP JUMP JUMPDEST PUSH1 0x0 PUSH2 0x1497 PUSH1 0x24 DUP4 PUSH2 0x1768 JUMP JUMPDEST SWAP2 POP PUSH2 0x14A2 DUP3 PUSH2 0x1D47 JUMP JUMPDEST PUSH1 0x40 DUP3 ADD SWAP1 POP SWAP2 SWAP1 POP JUMP JUMPDEST PUSH1 0x0 PUSH2 0x14BA PUSH1 0x10 DUP4 PUSH2 0x1768 JUMP JUMPDEST SWAP2 POP PUSH2 0x14C5 DUP3 PUSH2 0x1D96 JUMP JUMPDEST PUSH1 0x20 DUP3 ADD SWAP1 POP SWAP2 SWAP1 POP JUMP JUMPDEST PUSH1 0x0 PUSH2 0x14DD PUSH1 0x25 DUP4 PUSH2 0x1768 JUMP JUMPDEST SWAP2 POP PUSH2 0x14E8 DUP3 PUSH2 0x1DBF JUMP JUMPDEST PUSH1 0x40 DUP3 ADD SWAP1 POP SWAP2 SWAP1 POP JUMP JUMPDEST PUSH1 0x0 PUSH2 0x1500 PUSH1 0x1F DUP4 PUSH2 0x1768 JUMP JUMPDEST SWAP2 POP PUSH2 0x150B DUP3 PUSH2 0x1E0E JUMP JUMPDEST PUSH1 0x20 DUP3 ADD SWAP1 POP SWAP2 SWAP1 POP JUMP JUMPDEST PUSH2 0x151F DUP2 PUSH2 0x1A1E JUMP JUMPDEST DUP3 MSTORE POP POP JUMP JUMPDEST PUSH2 0x152E DUP2 PUSH2 0x1A28 JUMP JUMPDEST DUP3 MSTORE POP POP JUMP JUMPDEST PUSH1 0x0 PUSH1 0x20 DUP3 ADD SWAP1 POP PUSH2 0x1549 PUSH1 0x0 DUP4 ADD DUP5 PUSH2 0x131B JUMP JUMPDEST SWAP3 SWAP2 POP POP JUMP JUMPDEST PUSH1 0x0 PUSH1 0x20 DUP3 ADD SWAP1 POP PUSH2 0x1564 PUSH1 0x0 DUP4 ADD DUP5 PUSH2 0x130C JUMP JUMPDEST SWAP3 SWAP2 POP POP JUMP JUMPDEST PUSH1 0x0 PUSH1 0x20 DUP3 ADD SWAP1 POP PUSH2 0x157F PUSH1 0x0 DUP4 ADD DUP5 PUSH2 0x132A JUMP JUMPDEST SWAP3 SWAP2 POP POP JUMP JUMPDEST PUSH1 0x0 PUSH1 0x20 DUP3 ADD SWAP1 POP DUP2 DUP2 SUB PUSH1 0x0 DUP4 ADD MSTORE PUSH2 0x159F DUP2 DUP5 PUSH2 0x1339 JUMP JUMPDEST SWAP1 POP SWAP3 SWAP2 POP POP JUMP JUMPDEST PUSH1 0x0 PUSH1 0x20 DUP3 ADD SWAP1 POP DUP2 DUP2 SUB PUSH1 0x0 DUP4 ADD MSTORE PUSH2 0x15C0 DUP2 PUSH2 0x1372 JUMP JUMPDEST SWAP1 POP SWAP2 SWAP1 POP JUMP JUMPDEST PUSH1 0x0 PUSH1 0x20 DUP3 ADD SWAP1 POP DUP2 DUP2 SUB PUSH1 0x0 DUP4 ADD MSTORE PUSH2 0x15E0 DUP2 PUSH2 0x1395 JUMP JUMPDEST SWAP1 POP SWAP2 SWAP1 POP JUMP JUMPDEST PUSH1 0x0 PUSH1 0x20 DUP3 ADD SWAP1 POP DUP2 DUP2 SUB PUSH1 0x0 DUP4 ADD MSTORE PUSH2 0x1600 DUP2 PUSH2 0x13B8 JUMP JUMPDEST SWAP1 POP SWAP2 SWAP1 POP JUMP JUMPDEST PUSH1 0x0 PUSH1 0x20 DUP3 ADD SWAP1 POP DUP2 DUP2 SUB PUSH1 0x0 DUP4 ADD MSTORE PUSH2 0x1620 DUP2 PUSH2 0x13DB JUMP JUMPDEST SWAP1 POP SWAP2 SWAP1 POP JUMP JUMPDEST PUSH1 0x0 PUSH1 0x20 DUP3 ADD SWAP1 POP DUP2 DUP2 SUB PUSH1 0x0 DUP4 ADD MSTORE PUSH2 0x1640 DUP2 PUSH2 0x13FE JUMP JUMPDEST SWAP1 POP SWAP2 SWAP1 POP JUMP JUMPDEST PUSH1 0x0 PUSH1 0x20 DUP3 ADD SWAP1 POP DUP2 DUP2 SUB PUSH1 0x0 DUP4 ADD MSTORE PUSH2 0x1660 DUP2 PUSH2 0x1421 JUMP JUMPDEST SWAP1 POP SWAP2 SWAP1 POP JUMP JUMPDEST PUSH1 0x0 PUSH1 0x20 DUP3 ADD SWAP1 POP DUP2 DUP2 SUB PUSH1 0x0 DUP4 ADD MSTORE PUSH2 0x1680 DUP2 PUSH2 0x1444 JUMP JUMPDEST SWAP1 POP SWAP2 SWAP1 POP JUMP JUMPDEST PUSH1 0x0 PUSH1 0x20 DUP3 ADD SWAP1 POP DUP2 DUP2 SUB PUSH1 0x0 DUP4 ADD MSTORE PUSH2 0x16A0 DUP2 PUSH2 0x1467 JUMP JUMPDEST SWAP1 POP SWAP2 SWAP1 POP JUMP JUMPDEST PUSH1 0x0 PUSH1 0x20 DUP3 ADD SWAP1 POP DUP2 DUP2 SUB PUSH1 0x0 DUP4 ADD MSTORE PUSH2 0x16C0 DUP2 PUSH2 0x148A JUMP JUMPDEST SWAP1 POP SWAP2 SWAP1 POP JUMP JUMPDEST PUSH1 0x0 PUSH1 0x20 DUP3 ADD SWAP1 POP DUP2 DUP2 SUB PUSH1 0x0 DUP4 ADD MSTORE PUSH2 0x16E0 DUP2 PUSH2 0x14AD JUMP JUMPDEST SWAP1 POP SWAP2 SWAP1 POP JUMP JUMPDEST PUSH1 0x0 PUSH1 0x20 DUP3 ADD SWAP1 POP DUP2 DUP2 SUB PUSH1 0x0 DUP4 ADD MSTORE PUSH2 0x1700 DUP2 PUSH2 0x14D0 JUMP JUMPDEST SWAP1 POP SWAP2 SWAP1 POP JUMP JUMPDEST PUSH1 0x0 PUSH1 0x20 DUP3 ADD SWAP1 POP DUP2 DUP2 SUB PUSH1 0x0 DUP4 ADD MSTORE PUSH2 0x1720 DUP2 PUSH2 0x14F3 JUMP JUMPDEST SWAP1 POP SWAP2 SWAP1 POP JUMP JUMPDEST PUSH1 0x0 PUSH1 0x20 DUP3 ADD SWAP1 POP PUSH2 0x173C PUSH1 0x0 DUP4 ADD DUP5 PUSH2 0x1516 JUMP JUMPDEST SWAP3 SWAP2 POP POP JUMP JUMPDEST PUSH1 0x0 PUSH1 0x20 DUP3 ADD SWAP1 POP PUSH2 0x1757 PUSH1 0x0 DUP4 ADD DUP5 PUSH2 0x1525 JUMP JUMPDEST SWAP3 SWAP2 POP POP JUMP JUMPDEST PUSH1 0x0 DUP2 MLOAD SWAP1 POP SWAP2 SWAP1 POP JUMP JUMPDEST PUSH1 0x0 DUP3 DUP3 MSTORE PUSH1 0x20 DUP3 ADD SWAP1 POP SWAP3 SWAP2 POP POP JUMP JUMPDEST PUSH1 0x0 PUSH2 0x1784 DUP3 PUSH2 0x1A1E JUMP JUMPDEST SWAP2 POP PUSH2 0x178F DUP4 PUSH2 0x1A1E JUMP JUMPDEST SWAP3 POP DUP3 PUSH32 0xFFFFFFFFFFFFFFFFFFFFFFFFFFFFFFFFFFFFFFFFFFFFFFFFFFFFFFFFFFFFFFFF SUB DUP3 GT ISZERO PUSH2 0x17C4 JUMPI PUSH2 0x17C3 PUSH2 0x1A9A JUMP JUMPDEST JUMPDEST DUP3 DUP3 ADD SWAP1 POP SWAP3 SWAP2 POP POP JUMP JUMPDEST PUSH1 0x0 DUP1 DUP3 SWAP2 POP DUP4 SWAP1 POP JUMPDEST PUSH1 0x1 DUP6 GT ISZERO PUSH2 0x1819 JUMPI DUP1 DUP7 DIV DUP2 GT ISZERO PUSH2 0x17F5 JUMPI PUSH2 0x17F4 PUSH2 0x1A9A JUMP JUMPDEST JUMPDEST PUSH1 0x1 DUP6 AND ISZERO PUSH2 0x1804 JUMPI DUP1 DUP3 MUL SWAP2 POP JUMPDEST DUP1 DUP2 MUL SWAP1 POP PUSH2 0x1812 DUP6 PUSH2 0x1B0E JUMP JUMPDEST SWAP5 POP PUSH2 0x17D9 JUMP JUMPDEST SWAP5 POP SWAP5 SWAP3 POP POP POP JUMP JUMPDEST PUSH1 0x0 PUSH2 0x182D DUP3 PUSH2 0x1A1E JUMP JUMPDEST SWAP2 POP PUSH2 0x1838 DUP4 PUSH2 0x1A28 JUMP JUMPDEST SWAP3 POP PUSH2 0x1865 PUSH32 0xFFFFFFFFFFFFFFFFFFFFFFFFFFFFFFFFFFFFFFFFFFFFFFFFFFFFFFFFFFFFFFFF DUP5 DUP5 PUSH2 0x186D JUMP JUMPDEST SWAP1 POP SWAP3 SWAP2 POP POP JUMP JUMPDEST PUSH1 0x0 DUP3 PUSH2 0x187D JUMPI PUSH1 0x1 SWAP1 POP PUSH2 0x1939 JUMP JUMPDEST DUP2 PUSH2 0x188B JUMPI PUSH1 0x0 SWAP1 POP PUSH2 0x1939 JUMP JUMPDEST DUP2 PUSH1 0x1 DUP2 EQ PUSH2 0x18A1 JUMPI PUSH1 0x2 DUP2 EQ PUSH2 0x18AB JUMPI PUSH2 0x18DA JUMP JUMPDEST PUSH1 0x1 SWAP2 POP POP PUSH2 0x1939 JUMP JUMPDEST PUSH1 0xFF DUP5 GT ISZERO PUSH2 0x18BD JUMPI PUSH2 0x18BC PUSH2 0x1A9A JUMP JUMPDEST JUMPDEST DUP4 PUSH1 0x2 EXP SWAP2 POP DUP5 DUP3 GT ISZERO PUSH2 0x18D4 JUMPI PUSH2 0x18D3 PUSH2 0x1A9A JUMP JUMPDEST JUMPDEST POP PUSH2 0x1939 JUMP JUMPDEST POP PUSH1 0x20 DUP4 LT PUSH2 0x133 DUP4 LT AND PUSH1 0x4E DUP5 LT PUSH1 0xB DUP5 LT AND OR ISZERO PUSH2 0x190F JUMPI DUP3 DUP3 EXP SWAP1 POP DUP4 DUP2 GT ISZERO PUSH2 0x190A JUMPI PUSH2 0x1909 PUSH2 0x1A9A JUMP JUMPDEST JUMPDEST PUSH2 0x1939 JUMP JUMPDEST PUSH2 0x191C DUP5 DUP5 DUP5 PUSH1 0x1 PUSH2 0x17CF JUMP JUMPDEST SWAP3 POP SWAP1 POP DUP2 DUP5 DIV DUP2 GT ISZERO PUSH2 0x1933 JUMPI PUSH2 0x1932 PUSH2 0x1A9A JUMP JUMPDEST JUMPDEST DUP2 DUP2 MUL SWAP1 POP JUMPDEST SWAP4 SWAP3 POP POP POP JUMP JUMPDEST PUSH1 0x0 PUSH2 0x194B DUP3 PUSH2 0x1A1E JUMP JUMPDEST SWAP2 POP PUSH2 0x1956 DUP4 PUSH2 0x1A1E JUMP JUMPDEST SWAP3 POP DUP2 PUSH32 0xFFFFFFFFFFFFFFFFFFFFFFFFFFFFFFFFFFFFFFFFFFFFFFFFFFFFFFFFFFFFFFFF DIV DUP4 GT DUP3 ISZERO ISZERO AND ISZERO PUSH2 0x198F JUMPI PUSH2 0x198E PUSH2 0x1A9A JUMP JUMPDEST JUMPDEST DUP3 DUP3 MUL SWAP1 POP SWAP3 SWAP2 POP POP JUMP JUMPDEST PUSH1 0x0 PUSH2 0x19A5 DUP3 PUSH2 0x1A1E JUMP JUMPDEST SWAP2 POP PUSH2 0x19B0 DUP4 PUSH2 0x1A1E JUMP JUMPDEST SWAP3 POP DUP3 DUP3 LT ISZERO PUSH2 0x19C3 JUMPI PUSH2 0x19C2 PUSH2 0x1A9A JUMP JUMPDEST JUMPDEST DUP3 DUP3 SUB SWAP1 POP SWAP3 SWAP2 POP POP JUMP JUMPDEST PUSH1 0x0 PUSH2 0x19D9 DUP3 PUSH2 0x19FE JUMP JUMPDEST SWAP1 POP SWAP2 SWAP1 POP JUMP JUMPDEST PUSH1 0x0 PUSH2 0x19EB DUP3 PUSH2 0x19FE JUMP JUMPDEST SWAP1 POP SWAP2 SWAP1 POP JUMP JUMPDEST PUSH1 0x0 DUP2 ISZERO ISZERO SWAP1 POP SWAP2 SWAP1 POP JUMP JUMPDEST PUSH1 0x0 PUSH20 0xFFFFFFFFFFFFFFFFFFFFFFFFFFFFFFFFFFFFFFFF DUP3 AND SWAP1 POP SWAP2 SWAP1 POP JUMP JUMPDEST PUSH1 0x0 DUP2 SWAP1 POP SWAP2 SWAP1 POP JUMP JUMPDEST PUSH1 0x0 PUSH1 0xFF DUP3 AND SWAP1 POP SWAP2 SWAP1 POP JUMP JUMPDEST PUSH1 0x0 JUMPDEST DUP4 DUP2 LT ISZERO PUSH2 0x1A53 JUMPI DUP1 DUP3 ADD MLOAD DUP2 DUP5 ADD MSTORE PUSH1 0x20 DUP2 ADD SWAP1 POP PUSH2 0x1A38 JUMP JUMPDEST DUP4 DUP2 GT ISZERO PUSH2 0x1A62 JUMPI PUSH1 0x0 DUP5 DUP5 ADD MSTORE JUMPDEST POP POP POP POP JUMP JUMPDEST PUSH1 0x0 PUSH1 0x2 DUP3 DIV SWAP1 POP PUSH1 0x1 DUP3 AND DUP1 PUSH2 0x1A80 JUMPI PUSH1 0x7F DUP3 AND SWAP2 POP JUMPDEST PUSH1 0x20 DUP3 LT DUP2 EQ ISZERO PUSH2 0x1A94 JUMPI PUSH2 0x1A93 PUSH2 0x1AC9 JUMP JUMPDEST JUMPDEST POP SWAP2 SWAP1 POP JUMP JUMPDEST PUSH32 0x4E487B7100000000000000000000000000000000000000000000000000000000 PUSH1 0x0 MSTORE PUSH1 0x11 PUSH1 0x4 MSTORE PUSH1 0x24 PUSH1 0x0 REVERT JUMPDEST PUSH32 0x4E487B7100000000000000000000000000000000000000000000000000000000 PUSH1 0x0 MSTORE PUSH1 0x22 PUSH1 0x4 MSTORE PUSH1 0x24 PUSH1 0x0 REVERT JUMPDEST PUSH1 0x0 DUP1 REVERT JUMPDEST PUSH1 0x0 PUSH1 0x1F NOT PUSH1 0x1F DUP4 ADD AND SWAP1 POP SWAP2 SWAP1 POP JUMP JUMPDEST PUSH1 0x0 DUP2 PUSH1 0x1 SHR SWAP1 POP SWAP2 SWAP1 POP JUMP JUMPDEST PUSH32 0x45524332303A207472616E7366657220746F20746865207A65726F2061646472 PUSH1 0x0 DUP3 ADD MSTORE PUSH32 0x6573730000000000000000000000000000000000000000000000000000000000 PUSH1 0x20 DUP3 ADD MSTORE POP JUMP JUMPDEST PUSH32 0x45524332303A206275726E20616D6F756E7420657863656564732062616C616E PUSH1 0x0 DUP3 ADD MSTORE PUSH32 0x6365000000000000000000000000000000000000000000000000000000000000 PUSH1 0x20 DUP3 ADD MSTORE POP JUMP JUMPDEST PUSH32 0x45524332303A20617070726F766520746F20746865207A65726F206164647265 PUSH1 0x0 DUP3 ADD MSTORE PUSH32 0x7373000000000000000000000000000000000000000000000000000000000000 PUSH1 0x20 DUP3 ADD MSTORE POP JUMP JUMPDEST PUSH32 0x4F574E45525F4F4E4C5900000000000000000000000000000000000000000000 PUSH1 0x0 DUP3 ADD MSTORE POP JUMP JUMPDEST PUSH32 0x45524332303A20696E73756666696369656E7420616C6C6F77616E6365000000 PUSH1 0x0 DUP3 ADD MSTORE POP JUMP JUMPDEST PUSH32 0x45524332303A207472616E7366657220616D6F756E7420657863656564732062 PUSH1 0x0 DUP3 ADD MSTORE PUSH32 0x616C616E63650000000000000000000000000000000000000000000000000000 PUSH1 0x20 DUP3 ADD MSTORE POP JUMP JUMPDEST PUSH32 0x45524332303A206275726E2066726F6D20746865207A65726F20616464726573 PUSH1 0x0 DUP3 ADD MSTORE PUSH32 0x7300000000000000000000000000000000000000000000000000000000000000 PUSH1 0x20 DUP3 ADD MSTORE POP JUMP JUMPDEST PUSH32 0x45524332303A207472616E736665722066726F6D20746865207A65726F206164 PUSH1 0x0 DUP3 ADD MSTORE PUSH32 0x6472657373000000000000000000000000000000000000000000000000000000 PUSH1 0x20 DUP3 ADD MSTORE POP JUMP JUMPDEST PUSH32 0x45524332303A20617070726F76652066726F6D20746865207A65726F20616464 PUSH1 0x0 DUP3 ADD MSTORE PUSH32 0x7265737300000000000000000000000000000000000000000000000000000000 PUSH1 0x20 DUP3 ADD MSTORE POP JUMP JUMPDEST PUSH32 0x41424F56455F4D41585F535550504C5900000000000000000000000000000000 PUSH1 0x0 DUP3 ADD MSTORE POP JUMP JUMPDEST PUSH32 0x45524332303A2064656372656173656420616C6C6F77616E63652062656C6F77 PUSH1 0x0 DUP3 ADD MSTORE PUSH32 0x207A65726F000000000000000000000000000000000000000000000000000000 PUSH1 0x20 DUP3 ADD MSTORE POP JUMP JUMPDEST PUSH32 0x45524332303A206D696E7420746F20746865207A65726F206164647265737300 PUSH1 0x0 DUP3 ADD MSTORE POP JUMP JUMPDEST PUSH2 0x1E40 DUP2 PUSH2 0x19CE JUMP JUMPDEST DUP2 EQ PUSH2 0x1E4B JUMPI PUSH1 0x0 DUP1 REVERT JUMPDEST POP JUMP JUMPDEST PUSH2 0x1E57 DUP2 PUSH2 0x1A1E JUMP JUMPDEST DUP2 EQ PUSH2 0x1E62 JUMPI PUSH1 0x0 DUP1 REVERT JUMPDEST POP JUMP INVALID LOG2 PUSH5 0x6970667358 0x22 SLT KECCAK256 0x5E PUSH4 0xB7C8E0BC LT DIFFICULTY PUSH29 0x96DF80CBE14901B030C3AF1A1984D2660DCC6A609ED8E564736F6C6343 STOP ADDMOD SMOD STOP CALLER "
				},
				"gasEstimates": {
					"creation": {
						"codeDepositCost": "1567000",
						"executionCost": "infinite",
						"totalCost": "infinite"
					},
					"external": {
						"MAX_SUPPLY()": "2474",
						"allowance(address,address)": "infinite",
						"approve(address,uint256)": "infinite",
						"balanceOf(address)": "2864",
						"burn(address,uint256)": "infinite",
						"decimals()": "366",
						"decreaseAllowance(address,uint256)": "infinite",
						"getblock()": "424",
						"increaseAllowance(address,uint256)": "infinite",
						"increaseContractAllowance(address,address,uint256)": "infinite",
						"mint(address,uint256)": "infinite",
						"name()": "infinite",
						"owner()": "2559",
						"symbol()": "infinite",
						"totalSupply()": "2505",
						"transfer(address,uint256)": "infinite",
						"transferFrom(address,address,uint256)": "infinite",
						"treasuryWallet()": "2625"
					},
					"internal": {
						"MoveToTreasuryWallet()": "infinite",
						"_transfer(address,address,uint256)": "infinite"
					}
				},
				"methodIdentifiers": {
					"MAX_SUPPLY()": "32cb6b0c",
					"allowance(address,address)": "dd62ed3e",
					"approve(address,uint256)": "095ea7b3",
					"balanceOf(address)": "70a08231",
					"burn(address,uint256)": "9dc29fac",
					"decimals()": "313ce567",
					"decreaseAllowance(address,uint256)": "a457c2d7",
					"getblock()": "d86b3721",
					"increaseAllowance(address,uint256)": "39509351",
					"increaseContractAllowance(address,address,uint256)": "d83a2bf3",
					"mint(address,uint256)": "40c10f19",
					"name()": "06fdde03",
					"owner()": "8da5cb5b",
					"symbol()": "95d89b41",
					"totalSupply()": "18160ddd",
					"transfer(address,uint256)": "a9059cbb",
					"transferFrom(address,address,uint256)": "23b872dd",
					"treasuryWallet()": "4626402b"
				}
			},
			"storageLayout": {
				"storage": [
					{
						"astId": 276,
						"contract": "contracts/VJMToken.sol:VJMToken",
						"label": "_balances",
						"offset": 0,
						"slot": "0",
						"type": "t_mapping(t_address,t_uint256)"
					},
					{
						"astId": 282,
						"contract": "contracts/VJMToken.sol:VJMToken",
						"label": "_allowances",
						"offset": 0,
						"slot": "1",
						"type": "t_mapping(t_address,t_mapping(t_address,t_uint256))"
					},
					{
						"astId": 284,
						"contract": "contracts/VJMToken.sol:VJMToken",
						"label": "_totalSupply",
						"offset": 0,
						"slot": "2",
						"type": "t_uint256"
					},
					{
						"astId": 286,
						"contract": "contracts/VJMToken.sol:VJMToken",
						"label": "_name",
						"offset": 0,
						"slot": "3",
						"type": "t_string_storage"
					},
					{
						"astId": 288,
						"contract": "contracts/VJMToken.sol:VJMToken",
						"label": "_symbol",
						"offset": 0,
						"slot": "4",
						"type": "t_string_storage"
					},
					{
						"astId": 1211,
						"contract": "contracts/VJMToken.sol:VJMToken",
						"label": "MAX_SUPPLY",
						"offset": 0,
						"slot": "5",
						"type": "t_uint256"
					},
					{
						"astId": 1213,
						"contract": "contracts/VJMToken.sol:VJMToken",
						"label": "owner",
						"offset": 0,
						"slot": "6",
						"type": "t_address"
					},
					{
						"astId": 1215,
						"contract": "contracts/VJMToken.sol:VJMToken",
						"label": "treasuryWallet",
						"offset": 0,
						"slot": "7",
						"type": "t_address_payable"
					}
				],
				"types": {
					"t_address": {
						"encoding": "inplace",
						"label": "address",
						"numberOfBytes": "20"
					},
					"t_address_payable": {
						"encoding": "inplace",
						"label": "address payable",
						"numberOfBytes": "20"
					},
					"t_mapping(t_address,t_mapping(t_address,t_uint256))": {
						"encoding": "mapping",
						"key": "t_address",
						"label": "mapping(address => mapping(address => uint256))",
						"numberOfBytes": "32",
						"value": "t_mapping(t_address,t_uint256)"
					},
					"t_mapping(t_address,t_uint256)": {
						"encoding": "mapping",
						"key": "t_address",
						"label": "mapping(address => uint256)",
						"numberOfBytes": "32",
						"value": "t_uint256"
					},
					"t_string_storage": {
						"encoding": "bytes",
						"label": "string",
						"numberOfBytes": "32"
					},
					"t_uint256": {
						"encoding": "inplace",
						"label": "uint256",
						"numberOfBytes": "32"
					}
				}
			},
			"userdoc": {
				"kind": "user",
				"methods": {},
				"version": 1
			}
		}
	}
}